{
  "_format": "hh-sol-artifact-1",
  "contractName": "BroMerge",
  "sourceName": "contracts/core/merge/BroMerge.sol",
  "abi": [
    {
      "inputs": [],
      "stateMutability": "nonpayable",
      "type": "constructor"
    },
    {
      "anonymous": false,
      "inputs": [
        {
          "indexed": false,
          "internalType": "uint256",
          "name": "amount",
          "type": "uint256"
        },
        {
          "indexed": true,
          "internalType": "address",
          "name": "account",
          "type": "address"
        }
      ],
      "name": "Merged",
      "type": "event"
    },
    {
      "anonymous": false,
      "inputs": [
        {
          "indexed": true,
          "internalType": "address",
          "name": "previousOwner",
          "type": "address"
        },
        {
          "indexed": true,
          "internalType": "address",
          "name": "newOwner",
          "type": "address"
        }
      ],
      "name": "OwnershipTransferred",
      "type": "event"
    },
    {
      "anonymous": false,
      "inputs": [
        {
          "indexed": false,
          "internalType": "uint256",
          "name": "newRate",
          "type": "uint256"
        }
      ],
      "name": "RateChanged",
      "type": "event"
    },
    {
      "inputs": [
        {
          "internalType": "uint256",
          "name": "amount",
          "type": "uint256"
        }
      ],
      "name": "deposit",
      "outputs": [],
      "stateMutability": "nonpayable",
      "type": "function"
    },
    {
      "inputs": [],
      "name": "getRate",
      "outputs": [
        {
          "internalType": "uint256",
          "name": "",
          "type": "uint256"
        }
      ],
      "stateMutability": "view",
      "type": "function"
    },
    {
      "inputs": [],
      "name": "getToken",
      "outputs": [
        {
          "internalType": "address",
          "name": "",
          "type": "address"
        }
      ],
      "stateMutability": "view",
      "type": "function"
    },
    {
      "inputs": [
        {
          "internalType": "uint256",
          "name": "amount",
          "type": "uint256"
        }
      ],
      "name": "merge",
      "outputs": [],
      "stateMutability": "nonpayable",
      "type": "function"
    },
    {
      "inputs": [],
      "name": "mergeAll",
      "outputs": [],
      "stateMutability": "nonpayable",
      "type": "function"
    },
    {
      "inputs": [],
      "name": "owner",
      "outputs": [
        {
          "internalType": "address",
          "name": "",
          "type": "address"
        }
      ],
      "stateMutability": "view",
      "type": "function"
    },
    {
      "inputs": [
        {
          "internalType": "address",
          "name": "from",
          "type": "address"
        },
        {
          "internalType": "uint256",
          "name": "amount",
          "type": "uint256"
        },
        {
          "internalType": "address",
          "name": "token",
          "type": "address"
        },
        {
          "internalType": "bytes",
          "name": "",
          "type": "bytes"
        }
      ],
      "name": "receiveApproval",
      "outputs": [],
      "stateMutability": "nonpayable",
      "type": "function"
    },
    {
      "inputs": [],
      "name": "renounceOwnership",
      "outputs": [],
      "stateMutability": "nonpayable",
      "type": "function"
    },
    {
      "inputs": [
        {
          "internalType": "uint256",
          "name": "rate",
          "type": "uint256"
        }
      ],
      "name": "setRate",
      "outputs": [],
      "stateMutability": "nonpayable",
      "type": "function"
    },
    {
      "inputs": [
        {
          "internalType": "address",
          "name": "newOwner",
          "type": "address"
        }
      ],
      "name": "transferOwnership",
      "outputs": [],
      "stateMutability": "nonpayable",
      "type": "function"
    },
    {
      "inputs": [],
      "name": "wewe",
      "outputs": [
        {
          "internalType": "address",
          "name": "",
          "type": "address"
        }
      ],
      "stateMutability": "view",
      "type": "function"
    }
  ],
  "bytecode": "0x608080604052346100a357600160008181558154336001600160a01b03198083168217909455736b9bb36519538e0c073894e964e90172e1c0b41f939290916001600160a01b0316907f8be0079c531659141344cd1fd0a4f28419497f9722a3daafe3b4186f6b6457e09080a360646002557393750140c2ecea27a53c6ed30380829607815a3181600354161760035560045416176004556109f990816100a98239f35b600080fdfe6080604081815260048036101561001557600080fd5b600092833560e01c90816321df0da7146106d55750806324a47aeb146105f457806334fcf43714610541578063679aefce14610522578063715018a6146104c25780638da5cb5b146104995780638f4ffcb1146102cd57838163b6b55f251461022457508063e1f26f22146101fd578063ea9f2417146101665763f2fde38b1461009e57600080fd5b34610162576020366003190112610162576100b76106fa565b906100c0610715565b6001600160a01b03918216928315610110575050600180546001600160a01b031981168417909155167f8be0079c531659141344cd1fd0a4f28419497f9722a3daafe3b4186f6b6457e08380a380f35b906020608492519162461bcd60e51b8352820152602660248201527f4f776e61626c653a206e6577206f776e657220697320746865207a65726f206160448201526564647265737360d01b6064820152fd5b8280fd5b50903461016257826003193601126101625760035481516370a0823160e01b815233938101939093526001600160a01b0316602083602481845afa9182156101f4575083916101bf575b6101bc925033916107bd565b80f35b90506020823d82116101ec575b816101d96020938361076d565b81010312610162576101bc9151906101b0565b3d91506101cc565b513d85823e3d90fd5b50346101625782600319360112610162575490516001600160a01b03909116815260209150f35b808484346102c95760203660031901126102c957610281602091610246610715565b805484516323b872dd60e01b815233818401908152306020820152923560408401529586936001600160a01b03909216928492839160600190565b03925af19081156102c05750610295575080f35b6102b59060203d81116102b9575b6102ad818361076d565b8101906107a5565b5080f35b503d6102a3565b513d84823e3d90fd5b5050fd5b50829034610495576080366003190112610495576102e96106fa565b906001600160a01b039060443582811691908290036104915767ffffffffffffffff9160643583811161048d573660238201121561048d578083013593841161048d57602480943692010111610489576002865414610447576002865583600354169384156103f957825416908133036103b75703610376575061036f939450356107bd565b6001815580f35b601b606492602088519362461bcd60e51b85528401528201527f47656e6572696345617465723a20496e76616c696420746f6b656e00000000006044820152fd5b875162461bcd60e51b8152602081850152601c818601527f47656e6572696345617465723a20496e76616c69642073656e646572000000006044820152606490fd5b875162461bcd60e51b81526020818501526023818601527f47656e6572696345617465723a20546f6b656e2061646472657373206e6f74206044820152621cd95d60ea1b6064820152608490fd5b50601f606492602088519362461bcd60e51b85528401528201527f5265656e7472616e637947756172643a207265656e7472616e742063616c6c006044820152fd5b8580fd5b8680fd5b8480fd5b5080fd5b50503461049557816003193601126104955760015490516001600160a01b039091168152602090f35b833461051f578060031936011261051f576104db610715565b600180546001600160a01b0319811690915581906001600160a01b03167f8be0079c531659141344cd1fd0a4f28419497f9722a3daafe3b4186f6b6457e08280a380f35b80fd5b5050346104955781600319360112610495576020906002549051908152f35b5090346101625760203660031901126101625781359161055f610715565b82156105a757508160025403610573578280f35b816020917f595a30f13a69b616c4d568e2a2b7875fdfe86e4300a049953c76ee278f8f3f109360025551908152a138808280f35b6020608492519162461bcd60e51b8352820152602260248201527f45617465723a2052617465206d7573742062652067726561746572207468616e604482015261020360f41b6064820152fd5b50829034610495576020806003193601126101625760035484516370a0823160e01b815233848201528335936001600160a01b0390921692908181602481875afa9081156106cb57908591879161069a575b501061065857846101bc3385876107bd565b855162461bcd60e51b815291820152601e60248201527f42726f4d657267653a20496e73756666696369656e742062616c616e63650000604482015260649150fd5b809250838092503d83116106c4575b6106b3818361076d565b810103126104895784905188610646565b503d6106a9565b87513d88823e3d90fd5b8490346104955781600319360112610495576003546001600160a01b03168152602090f35b600435906001600160a01b038216820361071057565b600080fd5b6001546001600160a01b0316330361072957565b606460405162461bcd60e51b815260206004820152602060248201527f4f776e61626c653a2063616c6c6572206973206e6f7420746865206f776e65726044820152fd5b90601f8019910116810190811067ffffffffffffffff82111761078f57604052565b634e487b7160e01b600052604160045260246000fd5b90816020910312610710575180151581036107105790565b92916002548085029085820414851517156109ad57606490049360018060a01b03926004938085541693604092835180966370a0823160e01b825230898301528160246020998a935afa9081156109a257600091610975575b50891161091c5783516323b872dd60e01b81526001600160a01b038316888201908152306020820152604081018790529091879183919082900360600190829060009088165af1801561091157916044918794936108f4575b5060008389541686519b8c95869463a9059cbb60e01b865216809b85015260248401525af19586156108e9577fadc41ba80ffa0859aab1d7cf405a6633a6af94fc3d10e5b0e0bf46cdcc0fd9c89495966108cc575b5051908152a2565b6108e290843d86116102b9576102ad818361076d565b50386108c4565b50513d6000823e3d90fd5b61090a90853d87116102b9576102ad818361076d565b503861086f565b84513d6000823e3d90fd5b835162461bcd60e51b8152808801879052602d60248201527f45617465723a20496e73756666696369656e7420746f6b656e2062616c616e6360448201526c32903a37903a3930b739b332b960991b6064820152608490fd5b908782813d831161099b575b61098b818361076d565b8101031261051f57505138610816565b503d610981565b85513d6000823e3d90fd5b634e487b7160e01b600052601160045260246000fdfea26469706673582212204cbb95828f257ac04b901423ddcbf887a5f16b203e145af92f93a12da814283164736f6c63430008130033",
  "linkReferences": {},
  "deployedLinkReferences": {}
}