{
  "_format": "hh-sol-artifact-1",
  "contractName": "BroMerge",
  "sourceName": "contracts/core/merge/BroMerge.sol",
  "abi": [
    {
      "inputs": [],
      "stateMutability": "nonpayable",
      "type": "constructor"
    },
    {
      "anonymous": false,
      "inputs": [
        {
          "indexed": false,
          "internalType": "uint256",
          "name": "amount",
          "type": "uint256"
        },
        {
          "indexed": true,
          "internalType": "address",
          "name": "account",
          "type": "address"
        }
      ],
      "name": "Eaten",
      "type": "event"
    },
    {
      "anonymous": false,
      "inputs": [
        {
          "indexed": true,
          "internalType": "address",
          "name": "previousOwner",
          "type": "address"
        },
        {
          "indexed": true,
          "internalType": "address",
          "name": "newOwner",
          "type": "address"
        }
      ],
      "name": "OwnershipTransferred",
      "type": "event"
    },
    {
      "inputs": [
        {
          "internalType": "uint256",
          "name": "amount",
          "type": "uint256"
        }
      ],
      "name": "deposit",
      "outputs": [],
      "stateMutability": "nonpayable",
      "type": "function"
    },
    {
      "inputs": [],
      "name": "depositAll",
      "outputs": [],
      "stateMutability": "nonpayable",
      "type": "function"
    },
    {
      "inputs": [],
      "name": "getRate",
      "outputs": [
        {
          "internalType": "uint256",
          "name": "",
          "type": "uint256"
        }
      ],
      "stateMutability": "view",
      "type": "function"
    },
    {
      "inputs": [],
      "name": "getToken",
      "outputs": [
        {
          "internalType": "address",
          "name": "",
          "type": "address"
        }
      ],
      "stateMutability": "view",
      "type": "function"
    },
    {
      "inputs": [],
      "name": "owner",
      "outputs": [
        {
          "internalType": "address",
          "name": "",
          "type": "address"
        }
      ],
      "stateMutability": "view",
      "type": "function"
    },
    {
      "inputs": [
        {
          "internalType": "address",
          "name": "from",
          "type": "address"
        },
        {
          "internalType": "uint256",
          "name": "amount",
          "type": "uint256"
        },
        {
          "internalType": "address",
          "name": "token",
          "type": "address"
        },
        {
          "internalType": "bytes",
          "name": "",
          "type": "bytes"
        }
      ],
      "name": "receiveApproval",
      "outputs": [],
      "stateMutability": "nonpayable",
      "type": "function"
    },
    {
      "inputs": [],
      "name": "renounceOwnership",
      "outputs": [],
      "stateMutability": "nonpayable",
      "type": "function"
    },
    {
      "inputs": [
        {
          "internalType": "uint256",
          "name": "rate",
          "type": "uint256"
        }
      ],
      "name": "setRate",
      "outputs": [],
      "stateMutability": "nonpayable",
      "type": "function"
    },
    {
      "inputs": [
        {
          "internalType": "address",
          "name": "newOwner",
          "type": "address"
        }
      ],
      "name": "transferOwnership",
      "outputs": [],
      "stateMutability": "nonpayable",
      "type": "function"
    },
    {
      "inputs": [],
      "name": "wewe",
      "outputs": [
        {
          "internalType": "address",
          "name": "",
          "type": "address"
        }
      ],
      "stateMutability": "view",
      "type": "function"
    }
  ],
  "bytecode": "0x608080604052346100a357600160008181558154336001600160a01b03198083168217909455736b9bb36519538e0c073894e964e90172e1c0b41f939290916001600160a01b0316907f8be0079c531659141344cd1fd0a4f28419497f9722a3daafe3b4186f6b6457e09080a360646002557393750140c2ecea27a53c6ed30380829607815a3181600354161760035560045416176004556108bd90816100a98239f35b600080fdfe6080604081815260048036101561001557600080fd5b600092833560e01c90816321df0da71461059e5750806334fcf43714610518578063679aefce146104f9578063715018a6146104995780638da5cb5b146104705780638f4ffcb114610300578063b6b55f2514610217578063de5f626814610180578063e1f26f22146101595763f2fde38b1461009157600080fd5b34610155576020366003190112610155576100aa6105c3565b906100b36105de565b6001600160a01b03918216928315610103575050600180546001600160a01b031981168417909155167f8be0079c531659141344cd1fd0a4f28419497f9722a3daafe3b4186f6b6457e08380a380f35b906020608492519162461bcd60e51b8352820152602660248201527f4f776e61626c653a206e6577206f776e657220697320746865207a65726f206160448201526564647265737360d01b6064820152fd5b8280fd5b50346101555782600319360112610155575490516001600160a01b03909116815260209150f35b50903461015557826003193601126101555760035481516370a0823160e01b815233938101939093526001600160a01b0316602083602481845afa91821561020e575083916101d9575b6101d692503391610686565b80f35b90506020823d8211610206575b816101f360209383610636565b81010312610155576101d69151906101ca565b3d91506101e6565b513d85823e3d90fd5b508290346102fc576020806003193601126101555760035484516370a0823160e01b815233848201528335936001600160a01b0390921692908181602481875afa9081156102f25790859187916102bd575b501061027b57846101d6338587610686565b855162461bcd60e51b815291820152601e60248201527f42726f4d657267653a20496e73756666696369656e742062616c616e63650000604482015260649150fd5b809250838092503d83116102eb575b6102d68183610636565b810103126102e75784905188610269565b8580fd5b503d6102cc565b87513d88823e3d90fd5b5080fd5b508290346102fc5760803660031901126102fc5761031c6105c3565b906001600160a01b0390604435828116908190036104685760643567ffffffffffffffff80821161046c573660238301121561046c578184013590811161046c5736910160240111610468576002855414610425576002855582825416908133036103e2570361039f5750906103989160035416602435610686565b6001815580f35b606490602086519162461bcd60e51b8352820152601b60248201527f47656e6572696345617465723a20496e76616c696420746f6b656e00000000006044820152fd5b865162461bcd60e51b8152602081850152601c60248201527f47656e6572696345617465723a20496e76616c69642073656e646572000000006044820152606490fd5b855162461bcd60e51b8152602081840152601f60248201527f5265656e7472616e637947756172643a207265656e7472616e742063616c6c006044820152606490fd5b8480fd5b8680fd5b5050346102fc57816003193601126102fc5760015490516001600160a01b039091168152602090f35b83346104f657806003193601126104f6576104b26105de565b600180546001600160a01b0319811690915581906001600160a01b03167f8be0079c531659141344cd1fd0a4f28419497f9722a3daafe3b4186f6b6457e08280a380f35b80fd5b5050346102fc57816003193601126102fc576020906002549051908152f35b5034610155576020366003190112610155578035916105356105de565b8215610550575050806002540361054a575080f35b60025580f35b906020608492519162461bcd60e51b8352820152602260248201527f45617465723a2052617465206d7573742062652067726561746572207468616e604482015261020360f41b6064820152fd5b8490346102fc57816003193601126102fc576003546001600160a01b03168152602090f35b600435906001600160a01b03821682036105d957565b600080fd5b6001546001600160a01b031633036105f257565b606460405162461bcd60e51b815260206004820152602060248201527f4f776e61626c653a2063616c6c6572206973206e6f7420746865206f776e65726044820152fd5b90601f8019910116810190811067ffffffffffffffff82111761065857604052565b634e487b7160e01b600052604160045260246000fd5b908160209103126105d9575180151581036105d95790565b929160025480850290858204148515171561087157606490049360018060a01b039160048381541693604092835180966370a0823160e01b825230858301528160246020998a935afa90811561086657600091610839575b5089116107e0578582606481936000885195869485936323b872dd60e01b8552169c8d8a8501523060248501528b6044850152165af180156107d557926000889360449389966107b8575b5082541686519b8c95869463a9059cbb60e01b865285015260248401525af19586156107ad577fb6653926b7a3eed46d45f9afdd63c25ddeb3bc891f5c5cd0eb79656f07ff6f11949596610780575b5051908152a2565b61079f90843d86116107a6575b6107978183610636565b81019061066e565b5038610778565b503d61078d565b50513d6000823e3d90fd5b6107ce90873d89116107a6576107978183610636565b5038610729565b84513d6000823e3d90fd5b835162461bcd60e51b8152808401879052602d60248201527f45617465723a20496e73756666696369656e7420746f6b656e2062616c616e6360448201526c32903a37903a3930b739b332b960991b6064820152608490fd5b908782813d831161085f575b61084f8183610636565b810103126104f6575051386106de565b503d610845565b85513d6000823e3d90fd5b634e487b7160e01b600052601160045260246000fdfea2646970667358221220368f6761be286079efaa5a6eec8ae2f19502cfe799d8d19db0de9b6694f20e7c64736f6c63430008130033",
  "linkReferences": {},
  "deployedLinkReferences": {}
}