{
  "_format": "hh-sol-artifact-1",
  "contractName": "ChaosToken",
  "sourceName": "contracts/token/ChaosToken.sol",
  "abi": [
    {
      "inputs": [
        {
          "internalType": "address[]",
          "name": "defaultOperators",
          "type": "address[]"
        }
      ],
      "stateMutability": "nonpayable",
      "type": "constructor"
    },
    {
      "anonymous": false,
      "inputs": [
        {
          "indexed": true,
          "internalType": "address",
          "name": "owner",
          "type": "address"
        },
        {
          "indexed": true,
          "internalType": "address",
          "name": "spender",
          "type": "address"
        },
        {
          "indexed": false,
          "internalType": "uint256",
          "name": "value",
          "type": "uint256"
        }
      ],
      "name": "Approval",
      "type": "event"
    },
    {
      "anonymous": false,
      "inputs": [
        {
          "indexed": true,
          "internalType": "address",
          "name": "operator",
          "type": "address"
        },
        {
          "indexed": true,
          "internalType": "address",
          "name": "tokenHolder",
          "type": "address"
        }
      ],
      "name": "AuthorizedOperator",
      "type": "event"
    },
    {
      "anonymous": false,
      "inputs": [
        {
          "indexed": true,
          "internalType": "address",
          "name": "operator",
          "type": "address"
        },
        {
          "indexed": true,
          "internalType": "address",
          "name": "from",
          "type": "address"
        },
        {
          "indexed": false,
          "internalType": "uint256",
          "name": "amount",
          "type": "uint256"
        },
        {
          "indexed": false,
          "internalType": "bytes",
          "name": "data",
          "type": "bytes"
        },
        {
          "indexed": false,
          "internalType": "bytes",
          "name": "operatorData",
          "type": "bytes"
        }
      ],
      "name": "Burned",
      "type": "event"
    },
    {
      "anonymous": false,
      "inputs": [
        {
          "indexed": true,
          "internalType": "address",
          "name": "operator",
          "type": "address"
        },
        {
          "indexed": true,
          "internalType": "address",
          "name": "to",
          "type": "address"
        },
        {
          "indexed": false,
          "internalType": "uint256",
          "name": "amount",
          "type": "uint256"
        },
        {
          "indexed": false,
          "internalType": "bytes",
          "name": "data",
          "type": "bytes"
        },
        {
          "indexed": false,
          "internalType": "bytes",
          "name": "operatorData",
          "type": "bytes"
        }
      ],
      "name": "Minted",
      "type": "event"
    },
    {
      "anonymous": false,
      "inputs": [
        {
          "indexed": true,
          "internalType": "address",
          "name": "previousOwner",
          "type": "address"
        },
        {
          "indexed": true,
          "internalType": "address",
          "name": "newOwner",
          "type": "address"
        }
      ],
      "name": "OwnershipTransferred",
      "type": "event"
    },
    {
      "anonymous": false,
      "inputs": [
        {
          "indexed": true,
          "internalType": "address",
          "name": "operator",
          "type": "address"
        },
        {
          "indexed": true,
          "internalType": "address",
          "name": "tokenHolder",
          "type": "address"
        }
      ],
      "name": "RevokedOperator",
      "type": "event"
    },
    {
      "anonymous": false,
      "inputs": [
        {
          "indexed": true,
          "internalType": "address",
          "name": "operator",
          "type": "address"
        },
        {
          "indexed": true,
          "internalType": "address",
          "name": "from",
          "type": "address"
        },
        {
          "indexed": true,
          "internalType": "address",
          "name": "to",
          "type": "address"
        },
        {
          "indexed": false,
          "internalType": "uint256",
          "name": "amount",
          "type": "uint256"
        },
        {
          "indexed": false,
          "internalType": "bytes",
          "name": "data",
          "type": "bytes"
        },
        {
          "indexed": false,
          "internalType": "bytes",
          "name": "operatorData",
          "type": "bytes"
        }
      ],
      "name": "Sent",
      "type": "event"
    },
    {
      "anonymous": false,
      "inputs": [
        {
          "indexed": true,
          "internalType": "address",
          "name": "from",
          "type": "address"
        },
        {
          "indexed": true,
          "internalType": "address",
          "name": "to",
          "type": "address"
        },
        {
          "indexed": false,
          "internalType": "uint256",
          "name": "value",
          "type": "uint256"
        }
      ],
      "name": "Transfer",
      "type": "event"
    },
    {
      "inputs": [
        {
          "internalType": "address",
          "name": "holder",
          "type": "address"
        },
        {
          "internalType": "address",
          "name": "spender",
          "type": "address"
        }
      ],
      "name": "allowance",
      "outputs": [
        {
          "internalType": "uint256",
          "name": "",
          "type": "uint256"
        }
      ],
      "stateMutability": "view",
      "type": "function"
    },
    {
      "inputs": [
        {
          "internalType": "address",
          "name": "spender",
          "type": "address"
        },
        {
          "internalType": "uint256",
          "name": "value",
          "type": "uint256"
        }
      ],
      "name": "approve",
      "outputs": [
        {
          "internalType": "bool",
          "name": "",
          "type": "bool"
        }
      ],
      "stateMutability": "nonpayable",
      "type": "function"
    },
    {
      "inputs": [
        {
          "internalType": "address",
          "name": "operator",
          "type": "address"
        }
      ],
      "name": "authorizeOperator",
      "outputs": [],
      "stateMutability": "nonpayable",
      "type": "function"
    },
    {
      "inputs": [
        {
          "internalType": "address",
          "name": "tokenHolder",
          "type": "address"
        }
      ],
      "name": "balanceOf",
      "outputs": [
        {
          "internalType": "uint256",
          "name": "",
          "type": "uint256"
        }
      ],
      "stateMutability": "view",
      "type": "function"
    },
    {
      "inputs": [
        {
          "internalType": "uint256",
          "name": "amount",
          "type": "uint256"
        },
        {
          "internalType": "bytes",
          "name": "data",
          "type": "bytes"
        }
      ],
      "name": "burn",
      "outputs": [],
      "stateMutability": "nonpayable",
      "type": "function"
    },
    {
      "inputs": [
        {
          "internalType": "uint256",
          "name": "pid",
          "type": "uint256"
        }
      ],
      "name": "collectEmmisions",
      "outputs": [],
      "stateMutability": "nonpayable",
      "type": "function"
    },
    {
      "inputs": [],
      "name": "decimals",
      "outputs": [
        {
          "internalType": "uint8",
          "name": "",
          "type": "uint8"
        }
      ],
      "stateMutability": "pure",
      "type": "function"
    },
    {
      "inputs": [],
      "name": "defaultOperators",
      "outputs": [
        {
          "internalType": "address[]",
          "name": "",
          "type": "address[]"
        }
      ],
      "stateMutability": "view",
      "type": "function"
    },
    {
      "inputs": [],
      "name": "granularity",
      "outputs": [
        {
          "internalType": "uint256",
          "name": "",
          "type": "uint256"
        }
      ],
      "stateMutability": "view",
      "type": "function"
    },
    {
      "inputs": [
        {
          "internalType": "address",
          "name": "operator",
          "type": "address"
        },
        {
          "internalType": "address",
          "name": "tokenHolder",
          "type": "address"
        }
      ],
      "name": "isOperatorFor",
      "outputs": [
        {
          "internalType": "bool",
          "name": "",
          "type": "bool"
        }
      ],
      "stateMutability": "view",
      "type": "function"
    },
    {
      "inputs": [
        {
          "internalType": "uint256",
          "name": "amount",
          "type": "uint256"
        }
      ],
      "name": "mint",
      "outputs": [],
      "stateMutability": "nonpayable",
      "type": "function"
    },
    {
      "inputs": [],
      "name": "name",
      "outputs": [
        {
          "internalType": "string",
          "name": "",
          "type": "string"
        }
      ],
      "stateMutability": "view",
      "type": "function"
    },
    {
      "inputs": [
        {
          "internalType": "address",
          "name": "account",
          "type": "address"
        },
        {
          "internalType": "uint256",
          "name": "amount",
          "type": "uint256"
        },
        {
          "internalType": "bytes",
          "name": "data",
          "type": "bytes"
        },
        {
          "internalType": "bytes",
          "name": "operatorData",
          "type": "bytes"
        }
      ],
      "name": "operatorBurn",
      "outputs": [],
      "stateMutability": "nonpayable",
      "type": "function"
    },
    {
      "inputs": [
        {
          "internalType": "address",
          "name": "sender",
          "type": "address"
        },
        {
          "internalType": "address",
          "name": "recipient",
          "type": "address"
        },
        {
          "internalType": "uint256",
          "name": "amount",
          "type": "uint256"
        },
        {
          "internalType": "bytes",
          "name": "data",
          "type": "bytes"
        },
        {
          "internalType": "bytes",
          "name": "operatorData",
          "type": "bytes"
        }
      ],
      "name": "operatorSend",
      "outputs": [],
      "stateMutability": "nonpayable",
      "type": "function"
    },
    {
      "inputs": [],
      "name": "owner",
      "outputs": [
        {
          "internalType": "address",
          "name": "",
          "type": "address"
        }
      ],
      "stateMutability": "view",
      "type": "function"
    },
    {
      "inputs": [],
      "name": "renounceOwnership",
      "outputs": [],
      "stateMutability": "nonpayable",
      "type": "function"
    },
    {
      "inputs": [
        {
          "internalType": "address",
          "name": "operator",
          "type": "address"
        }
      ],
      "name": "revokeOperator",
      "outputs": [],
      "stateMutability": "nonpayable",
      "type": "function"
    },
    {
      "inputs": [
        {
          "internalType": "address",
          "name": "recipient",
          "type": "address"
        },
        {
          "internalType": "uint256",
          "name": "amount",
          "type": "uint256"
        },
        {
          "internalType": "bytes",
          "name": "data",
          "type": "bytes"
        }
      ],
      "name": "send",
      "outputs": [],
      "stateMutability": "nonpayable",
      "type": "function"
    },
    {
      "inputs": [
        {
          "internalType": "address",
          "name": "farm",
          "type": "address"
        }
      ],
      "name": "setFarm",
      "outputs": [],
      "stateMutability": "nonpayable",
      "type": "function"
    },
    {
      "inputs": [],
      "name": "symbol",
      "outputs": [
        {
          "internalType": "string",
          "name": "",
          "type": "string"
        }
      ],
      "stateMutability": "view",
      "type": "function"
    },
    {
      "inputs": [],
      "name": "totalSupply",
      "outputs": [
        {
          "internalType": "uint256",
          "name": "",
          "type": "uint256"
        }
      ],
      "stateMutability": "view",
      "type": "function"
    },
    {
      "inputs": [
        {
          "internalType": "address",
          "name": "recipient",
          "type": "address"
        },
        {
          "internalType": "uint256",
          "name": "amount",
          "type": "uint256"
        }
      ],
      "name": "transfer",
      "outputs": [
        {
          "internalType": "bool",
          "name": "",
          "type": "bool"
        }
      ],
      "stateMutability": "nonpayable",
      "type": "function"
    },
    {
      "inputs": [
        {
          "internalType": "address",
          "name": "holder",
          "type": "address"
        },
        {
          "internalType": "address",
          "name": "recipient",
          "type": "address"
        },
        {
          "internalType": "uint256",
          "name": "amount",
          "type": "uint256"
        }
      ],
      "name": "transferFrom",
      "outputs": [
        {
          "internalType": "bool",
          "name": "",
          "type": "bool"
        }
      ],
      "stateMutability": "nonpayable",
      "type": "function"
    },
    {
      "inputs": [
        {
          "internalType": "address",
          "name": "newOwner",
          "type": "address"
        }
      ],
      "name": "transferOwnership",
      "outputs": [],
      "stateMutability": "nonpayable",
      "type": "function"
    }
  ],
  "bytecode": "0x608060409080825234620008ad57600062002558803803809162000024828662000914565b84398201916020908181850312620004da5780516001600160401b0391828211620008a9570193601f91818387011215620008a957855190808211620006ed5760059282841b978951936200007c888b018662000914565b84528684019087829a820101928311620008a55787809101915b8383106200088a5750505050875193620000b085620008dc565b6006855265244348414f5360d01b86860152885190620000d082620008dc565b848252644348414f5360d81b878301528551838111620007c957600254966001978881811c911680156200087f575b8a821014620007aa57908a8a8386808796116200084f575b505050508990848311600114620007e9578b92620007dd575b5050600019600383901b1c191690871b176002555b815190838211620007c95760039283548881811c91168015620007be575b8a821014620007aa57908a8a8385808897961162000770575b50505050899183116001146200070d578a9262000701575b505060001982841b1c191690861b1790555b8151908111620006ed57680100000000000000008111620006ed576004968754828955808310620006d0575b5087875285872085885b848110620006b457509250505085905b6200065b575b505050731820a4b7618bde71dce8cdc73aab6c95905fad2493843b1562000657578551906329965a1d60e01b9182815230828201526024927fac7fbab5f54a3ca8194167523c6753bfeb96a445279294b6125b68cce21770548483015260449130838201528781606481838d5af18015620005d05762000641575b50873b15620004e857885190815230838201527faea199e31a596269b42cdafd93407f14436db6e4cad65417994c2eb37381e05a8482015230828201528681606481838c5af1801562000637579087916200061b575b505060098054336001600160a01b0319821681179092556001600160a01b03919082167f8be0079c531659141344cd1fd0a4f28419497f9722a3daafe3b4186f6b6457e08980a38851976200031889620008f8565b600089528951956200032a87620008f8565b600087523315620005da57839181620003458a935462000966565b9055338a528982528b8a206200035c815462000966565b90558b5163555ddc6560e11b815233878201527fb281fc8c12954d22544db45de3159a39272895b169a852b314f9cc762e44c53b8882015292839182905afa908115620005d05788916200058f575b5016908115620004ec57813b15620004e85790869291838a519586946223de2960e01b8652339086015284015233908301526b033b2e3c9fd0803ce8000000606483015260c060848301528183816200041f6200040c60c483018d62000996565b8281036003190160a48401528962000996565b03925af18015620004de57908491620004c2575b50509060008051602062002538833981519152915b8551907f2fe5be0146f74c5bce36c0b80911af6c7d86ff27e89d5cfa61fc681327954e5d620004926b033b2e3c9fd0803ce800000097888552606086860152606085019062000996565b928084038982015280620004a93395339562000996565b0390a384519384523393a351611b5f9081620009d98239f35b620004cd90620008b2565b620004da57823862000433565b8280fd5b86513d86823e3d90fd5b8680fd5b91929050333b620005125750505090600080516020620025388339815191529162000448565b875162461bcd60e51b8152928301859052604d908301527f4552433737373a20746f6b656e20726563697069656e7420636f6e7472616374908201527f20686173206e6f20696d706c656d656e74657220666f7220455243373737546f60648201526c1ad95b9cd49958da5c1a595b9d609a1b608482015260a490fd5b90508681813d8311620005c8575b620005a9818362000914565b81010312620005c457620005bd9062000938565b38620003ab565b8780fd5b503d6200059d565b8a513d8a823e3d90fd5b5050507f4552433737373a206d696e7420746f20746865207a65726f20616464726573739085606494818b519562461bcd60e51b8752860152840152820152fd5b6200062690620008b2565b62000633578538620002c3565b8580fd5b89513d89823e3d90fd5b6200064f90979197620008b2565b95386200026d565b8380fd5b8151811015620006ae5780831b82018501516001600160a01b03168652828552878620805460ff19168517905560001981146200069b57830183620001ec565b634e487b7160e01b865260118752602486fd5b620001f2565b83516001600160a01b03168382015592880192879101620001dc565b888852868820620006e69181019084016200094d565b38620001d2565b634e487b7160e01b86526041600452602486fd5b01519050388062000194565b848b52898b208994509190601f1984168c5b8c82821062000759575050841162000740575b505050811b019055620001a6565b015160001983861b60f8161c1916905538808062000732565b8385015186558c979095019493840193016200071f565b82848a62000796965220918188018d1c8301938810620007a0575b018b1c01906200094d565b8a8a38846200017c565b925081926200078b565b634e487b7160e01b8b52602260045260248bfd5b90607f169062000163565b634e487b7160e01b89526041600452602489fd5b01519050388062000130565b60028c528a8c208a94509190601f1984168d5b8d8282106200083857505084116200081e575b505050811b0160025562000145565b015160001960f88460031b161c191690553880806200080f565b8385015186558d97909501949384019301620007fc565b8284600262000875965220918187018d1c8301938710620007a057018b1c01906200094d565b8a8a388662000117565b90607f1690620000ff565b8190620008978462000938565b815201910190879062000096565b8880fd5b8480fd5b600080fd5b6001600160401b038111620008c657604052565b634e487b7160e01b600052604160045260246000fd5b604081019081106001600160401b03821117620008c657604052565b602081019081106001600160401b03821117620008c657604052565b601f909101601f19168101906001600160401b03821190821017620008c657604052565b51906001600160a01b0382168203620008ad57565b81811062000959575050565b600081556001016200094d565b906b033b2e3c9fd0803ce800000082018092116200098057565b634e487b7160e01b600052601160045260246000fd5b919082519283825260005b848110620009c3575050826000602080949584010152601f8019910116010190565b602081830181015184830182015201620009a156fe6080604081815260048036101561001557600080fd5b600092833560e01c90816306e4853814610de25750806306fdde0314610d33578063095ea7b314610d0957806318160ddd14610cea57806323b872dd14610bff578063313ce56714610be3578063556f0dc714610bc757806362ad1b8314610b4d5780636999e9ee14610a9657806370a0823114610a5f578063715018a614610a015780638da5cb5b146109d8578063959b8c3f146108e457806395d89b41146107e75780639bd9bbc614610791578063a0712d68146104ca578063a9059cbb1461047c578063d4f26c5114610434578063d95b6371146103fd578063dd62ed3e146103af578063f2fde38b146102e9578063fad8b32a146101f7578063fc673c4f1461017e5763fe9d93031461012b57600080fd5b3461017a578160031936011261017a57602435916001600160401b0383116101765761015d6101739336908401610f56565b90519161016983610f1a565b84835235336115f0565b80f35b8380fd5b8280fd5b8382346101f35760803660031901126101f357610199610ec5565b6001600160401b036044358181116101ef576101b89036908501610f56565b906064359081116101ef57610173936101d391369101610f56565b916101e66101e18233611004565b61108e565b602435906115f0565b8480fd5b5080fd5b50903461017a57602080600319360112610176576001600160a01b0361021b610ec5565b169233841461029e5750828452600581528184205460ff161561027f57338452600781528184206000848152915220805460ff191660011790555b33907f50546e66e5f44d728365dc3908c63bc5cfeeab470722c1677e3073a6ac294aa18380a380f35b338452600681528184206000848152915220805460ff19169055610256565b915162461bcd60e51b815291820152602160248201527f4552433737373a207265766f6b696e672073656c66206173206f70657261746f6044820152603960f91b6064820152608490fd5b503461017a57602036600319011261017a57610303610ec5565b9061030c610fac565b6001600160a01b0391821692831561035d575050600980546001600160a01b031981168417909155167f8be0079c531659141344cd1fd0a4f28419497f9722a3daafe3b4186f6b6457e0600080a380f35b906020608492519162461bcd60e51b8352820152602660248201527f4f776e61626c653a206e6577206f776e657220697320746865207a65726f206160448201526564647265737360d01b6064820152fd5b5050346101f357806003193601126101f3576020916103cc610ec5565b826103d5610edb565b6001600160a01b03928316845260088652922091166000908152908352819020549051908152f35b5050346101f357806003193601126101f35760209061042b61041d610ec5565b610425610edb565b90611004565b90519015158152f35b83346104795760203660031901126104795761044e610ec5565b610456610fac565b600a80546001600160a01b0319166001600160a01b039290921691909117905580f35b80fd5b5050346101f357806003193601126101f3576104c360209261049c610ec5565b8351906104a882610f1a565b8282528451926104b784610f1a565b835260243590336110ef565b5160018152f35b50903461017a576020906003199282843601126101ef578035936104ec610fac565b8251906104f882610f1a565b86825283519261050784610f1a565b87845230156107505761051c87600154611865565b600155308852878652848820610533888254611865565b9055845163555ddc6560e11b81523082820152600080516020611aea83398151915260248201528681604481731820a4b7618bde71dce8cdc73aab6c95905fad245afa90811561074557600091610718575b506001600160a01b031691821561067657823b15610671576105f1926000928388518096819582946223de2960e01b845233908401528360248401523060448401528d606484015260c060848401526105e160c484018b610e85565b908382030160a48401528a610e85565b03925af18015610666579187959391600080516020611b0a8339815191529593610657575b505b7f2fe5be0146f74c5bce36c0b80911af6c7d86ff27e89d5cfa61fc681327954e5d83518061064a309533958c846115c2565b0390a3519384523093a380f35b61066090610ef1565b38610616565b84513d6000823e3d90fd5b600080fd5b509050303b610699575091859391600080516020611b0a83398151915293610618565b835162461bcd60e51b8152908101859052604d60248201527f4552433737373a20746f6b656e20726563697069656e7420636f6e747261637460448201527f20686173206e6f20696d706c656d656e74657220666f7220455243373737546f60648201526c1ad95b9cd49958da5c1a595b9d609a1b608482015260a490fd5b6107389150873d891161073e575b6107308183610f35565b810190611977565b38610585565b503d610726565b86513d6000823e3d90fd5b606490868087519262461bcd60e51b845283015260248201527f4552433737373a206d696e7420746f20746865207a65726f20616464726573736044820152fd5b50903461017a57606036600319011261017a576107ac610ec5565b906044356001600160401b0381116101ef57610173936107ce91369101610f56565b9051916107da83610f1a565b8483526024359033611388565b5091346104795780600319360112610479578151918160035492600184811c918186169586156108da575b60209687851081146108c7578899509688969785829a5291826000146108a0575050600114610862575b50505061085e929161084f910385610f35565b51928284938452830190610e85565b0390f35b9190869350600383528383205b828410610888575050508201018161084f61085e61083c565b8054848a01860152889550879490930192810161086f565b60ff19168782015293151560051b8601909301935084925061084f915061085e905061083c565b634e487b7160e01b835260228a52602483fd5b92607f1692610812565b50903461017a57602080600319360112610176576001600160a01b03610908610ec5565b169283331461098b5750828452600581528184205460ff161561096957338452600781528184206000848152915220805460ff191690555b33907ff4caeb2d6ca8932a215a353d0703c326ec2d81fc68170f320eb2ab49e9df61f98380a380f35b338452600681528184206000848152915220805460ff19166001179055610940565b915162461bcd60e51b8152918201526024808201527f4552433737373a20617574686f72697a696e672073656c66206173206f70657260448201526330ba37b960e11b6064820152608490fd5b5050346101f357816003193601126101f35760095490516001600160a01b039091168152602090f35b8334610479578060031936011261047957610a1a610fac565b600980546001600160a01b031981169091556000906001600160a01b03167f8be0079c531659141344cd1fd0a4f28419497f9722a3daafe3b4186f6b6457e08280a380f35b5050346101f35760203660031901126101f35760209181906001600160a01b03610a87610ec5565b16815280845220549051908152f35b509190346101f35760203660031901126101f357600a546001600160a01b0316928315610b10578383943b15610b0b576044849284519586938492630c7e663b60e11b84528035908401523360248401525af1908115610b025750610af9575080f35b61017390610ef1565b513d84823e3d90fd5b505050fd5b6020606492519162461bcd60e51b8352820152601860248201527710da185bdcd51bdad95b8e8811985c9b481b9bdd081cd95d60421b6044820152fd5b8382346101f35760a03660031901126101f357610b68610ec5565b610b70610edb565b906001600160401b0390606435828111610bc357610b919036908601610f56565b91608435908111610bc35761017394610bac91369101610f56565b92610bba6101e18333611004565b60443591611388565b8580fd5b5050346101f357816003193601126101f3576020905160018152f35b5050346101f357816003193601126101f3576020905160128152f35b508290346101f35760603660031901126101f357610c1b610ec5565b90610c24610edb565b6001600160a01b0383168452600860209081528585203386529052848420546044359260018201610c7c575b6020876104c388888888855192610c6684610f1a565b848452865194610c7586610f1a565b85526110ef565b838210610ca75750916104c39391610c9b826020989795033385611872565b91938193959650610c50565b606490602088519162461bcd60e51b8352820152601e60248201527f4552433737373a20696e73756666696369656e7420616c6c6f77616e636500006044820152fd5b5050346101f357816003193601126101f3576020906001549051908152f35b5050346101f357806003193601126101f3576020906104c3610d29610ec5565b6024359033611872565b5091346104795780600319360112610479578151918160025492600184811c91818616958615610dd8575b60209687851081146108c7578899509688969785829a5291826000146108a0575050600114610d9a5750505061085e929161084f910385610f35565b9190869350600283528383205b828410610dc0575050508201018161084f61085e61083c565b8054848a018601528895508794909301928101610da7565b92607f1692610d5e565b905083346104795780600319360112610479578254808352928152602080822090949385840193918491845b818110610e685750505081610e24910382610f35565b83519485948186019282875251809352850193925b828110610e4857505050500390f35b83516001600160a01b031685528695509381019392810192600101610e39565b82546001600160a01b031684529288019260019283019201610e0e565b919082519283825260005b848110610eb1575050826000602080949584010152601f8019910116010190565b602081830181015184830182015201610e90565b600435906001600160a01b038216820361067157565b602435906001600160a01b038216820361067157565b6001600160401b038111610f0457604052565b634e487b7160e01b600052604160045260246000fd5b602081019081106001600160401b03821117610f0457604052565b90601f801991011681019081106001600160401b03821117610f0457604052565b81601f82011215610671578035906001600160401b038211610f045760405192610f8a601f8401601f191660200185610f35565b8284526020838301011161067157816000926020809301838601378301015290565b6009546001600160a01b03163303610fc057565b606460405162461bcd60e51b815260206004820152602060248201527f4f776e61626c653a2063616c6c6572206973206e6f7420746865206f776e65726044820152fd5b6001600160a01b03918216911681811491821561104a575b821561102757505090565b909150600052600660205260406000209060005260205260ff6040600020541690565b91506000818152600560205260ff604082205416908161106c575b509161101c565b60ff915080846040925260076020528181208482526020522054161538611065565b1561109557565b60405162461bcd60e51b815260206004820152602c60248201527f4552433737373a2063616c6c6572206973206e6f7420616e206f70657261746f60448201526b39103337b9103437b63232b960a11b6064820152608490fd5b92936001600160a01b0380851694909392908515611334578482169485156112e35761111f8489878686336119e0565b6000958787526020908782526040988989205488811061128f579082818a7f06b541ddaa720db2b10a4d0cdac39b8d360425fc073085fac19bc826146779878f8f908f828f9382878a9c8f95611195968c825252038282205589815220611187878254611865565b9055519283923396846115c2565b0390a4600080516020611b0a833981519152848c518b8152a388519063555ddc6560e11b82526004820152600080516020611aea83398151915260248201528181604481731820a4b7618bde71dce8cdc73aab6c95905fad245afa918215611285578892611268575b50501692831561125e57833b15610bc3578594939291611235869289519a8b97889687956223de2960e01b87523360048801611996565b03925af19182156112545750506112495750565b61125290610ef1565b565b51903d90823e3d90fd5b5050505050505050565b61127e9250803d1061073e576107308183610f35565b38806111fe565b89513d8a823e3d90fd5b8a5162461bcd60e51b815260048101859052602760248201527f4552433737373a207472616e7366657220616d6f756e7420657863656564732060448201526662616c616e636560c81b6064820152608490fd5b60405162461bcd60e51b8152602060048201526024808201527f4552433737373a207472616e7366657220746f20746865207a65726f206164646044820152637265737360e01b6064820152608490fd5b60405162461bcd60e51b815260206004820152602660248201527f4552433737373a207472616e736665722066726f6d20746865207a65726f206160448201526564647265737360d01b6064820152608490fd5b92936001600160a01b0380851694909392908515611334578482169283156112e3576113b88189878686336119e0565b6000958787526020948786526040988989205488811061156e579082818a7f06b541ddaa720db2b10a4d0cdac39b8d360425fc073085fac19bc826146779878f8f908f828f9382878f969c828c9e8c611421985252038282205589815220611187878254611865565b0390a4600080516020611b0a833981519152888c518b8152a388519063555ddc6560e11b82526004820152600080516020611aea83398151915260248201528581604481731820a4b7618bde71dce8cdc73aab6c95905fad245afa908115611285578891611551575b50169384156114c15750833b15610bc3578594939291611235869289519a8b97889687956223de2960e01b87523360048801611996565b97505050925050503b6114d2575050565b60a49250519062461bcd60e51b82526004820152604d60248201527f4552433737373a20746f6b656e20726563697069656e7420636f6e747261637460448201527f20686173206e6f20696d706c656d656e74657220666f7220455243373737546f60648201526c1ad95b9cd49958da5c1a595b9d609a1b6084820152fd5b6115689150863d881161073e576107308183610f35565b3861148a565b8a5162461bcd60e51b815260048101899052602760248201527f4552433737373a207472616e7366657220616d6f756e7420657863656564732060448201526662616c616e636560c81b6064820152608490fd5b916115df906115ed94928452606060208501526060840190610e85565b916040818403910152610e85565b90565b91926001600160a01b039283169290918315611815576040805163555ddc6560e11b8152600481018690527f29ddb589b1fb5fc7cf394961c1adf5f8c6454761adf795e67fe149f658abe8956024820152602093908481604481731820a4b7618bde71dce8cdc73aab6c95905fad245afa90811561180a576000916117ed575b501680611764575b508460005260008352806000205482811061171457829086600052600085520381600020556001548281039081116116fe576000967fa78a9be3a7b862d26933ad85fb11d80ef66b8f972d7cbba06621d583943a40986116f4600080516020611b0a8339815191529789946001558551918291339589846115c2565b0390a351908152a3565b634e487b7160e01b600052601160045260246000fd5b815162461bcd60e51b815260048101859052602360248201527f4552433737373a206275726e20616d6f756e7420657863656564732062616c616044820152626e636560e81b6064820152608490fd5b803b15610671578151633ad5cbc160e11b8152336004820152602481018790526000604482018190526064820185905260c06084830152909182908183816117c46117b260c483018f610e85565b8281036003190160a48401528c610e85565b03925af180156117e25715611678576117dc90610ef1565b38611678565b82513d6000823e3d90fd5b6118049150853d871161073e576107308183610f35565b38611670565b83513d6000823e3d90fd5b60405162461bcd60e51b815260206004820152602260248201527f4552433737373a206275726e2066726f6d20746865207a65726f206164647265604482015261737360f01b6064820152608490fd5b919082018092116116fe57565b6001600160a01b0390811691821561192457169182156118d35760207f8c5be1e5ebec7d5bd14f71427d1e84f3dd0314c0f7b2291e5b200ac8c7c3b925918360005260088252604060002085600052825280604060002055604051908152a3565b60405162461bcd60e51b815260206004820152602360248201527f4552433737373a20617070726f766520746f20746865207a65726f206164647260448201526265737360e81b6064820152608490fd5b60405162461bcd60e51b815260206004820152602560248201527f4552433737373a20617070726f76652066726f6d20746865207a65726f206164604482015264647265737360d81b6064820152608490fd5b9081602091031261067157516001600160a01b03811681036106715790565b94916119d2936115ed97959260018060a01b0392838092168952166020880152166040860152606085015260c0608085015260c0840190610e85565b9160a0818403910152610e85565b60405163555ddc6560e11b81526001600160a01b0383811660048301527f29ddb589b1fb5fc7cf394961c1adf5f8c6454761adf795e67fe149f658abe89560248301529496939491939190602081604481731820a4b7618bde71dce8cdc73aab6c95905fad245afa908115611abf57600091611acb575b50169283611a69575b50505050505050565b833b1561067157611a96600096928793604051998a9889978896633ad5cbc160e11b885260048801611996565b03925af18015611abf57611ab0575b808080808080611a60565b611ab990610ef1565b38611aa5565b6040513d6000823e3d90fd5b611ae3915060203d811161073e576107308183610f35565b38611a5756feb281fc8c12954d22544db45de3159a39272895b169a852b314f9cc762e44c53bddf252ad1be2c89b69c2b068fc378daa952ba7f163c4a11628f55a4df523b3efa2646970667358221220413412505c73ce496b145a6a483352b2bb1afb2dfc3ca2f3e44c2549c9eccec864736f6c63430008130033ddf252ad1be2c89b69c2b068fc378daa952ba7f163c4a11628f55a4df523b3ef",
  "linkReferences": {},
  "deployedLinkReferences": {}
}