{
  "_format": "hh-sol-artifact-1",
  "contractName": "CHAOS",
  "sourceName": "contracts/token/CHAOS.sol",
  "abi": [
    {
      "inputs": [],
      "stateMutability": "nonpayable",
      "type": "constructor"
    },
    {
      "anonymous": false,
      "inputs": [
        {
          "indexed": true,
          "internalType": "address",
          "name": "owner",
          "type": "address"
        },
        {
          "indexed": true,
          "internalType": "address",
          "name": "spender",
          "type": "address"
        },
        {
          "indexed": false,
          "internalType": "uint256",
          "name": "value",
          "type": "uint256"
        }
      ],
      "name": "Approval",
      "type": "event"
    },
    {
      "anonymous": false,
      "inputs": [
        {
          "indexed": true,
          "internalType": "address",
          "name": "previousOwner",
          "type": "address"
        },
        {
          "indexed": true,
          "internalType": "address",
          "name": "newOwner",
          "type": "address"
        }
      ],
      "name": "OwnershipTransferred",
      "type": "event"
    },
    {
      "anonymous": false,
      "inputs": [
        {
          "indexed": true,
          "internalType": "address",
          "name": "from",
          "type": "address"
        },
        {
          "indexed": true,
          "internalType": "address",
          "name": "to",
          "type": "address"
        },
        {
          "indexed": false,
          "internalType": "uint256",
          "name": "value",
          "type": "uint256"
        }
      ],
      "name": "Transfer",
      "type": "event"
    },
    {
      "inputs": [
        {
          "internalType": "address",
          "name": "owner",
          "type": "address"
        },
        {
          "internalType": "address",
          "name": "spender",
          "type": "address"
        }
      ],
      "name": "allowance",
      "outputs": [
        {
          "internalType": "uint256",
          "name": "",
          "type": "uint256"
        }
      ],
      "stateMutability": "view",
      "type": "function"
    },
    {
      "inputs": [
        {
          "internalType": "address",
          "name": "spender",
          "type": "address"
        },
        {
          "internalType": "uint256",
          "name": "amount",
          "type": "uint256"
        }
      ],
      "name": "approve",
      "outputs": [
        {
          "internalType": "bool",
          "name": "",
          "type": "bool"
        }
      ],
      "stateMutability": "nonpayable",
      "type": "function"
    },
    {
      "inputs": [
        {
          "internalType": "address",
          "name": "spender",
          "type": "address"
        },
        {
          "internalType": "uint256",
          "name": "amount",
          "type": "uint256"
        },
        {
          "internalType": "bytes",
          "name": "extraData",
          "type": "bytes"
        }
      ],
      "name": "approveAndCall",
      "outputs": [
        {
          "internalType": "bool",
          "name": "",
          "type": "bool"
        }
      ],
      "stateMutability": "nonpayable",
      "type": "function"
    },
    {
      "inputs": [
        {
          "internalType": "address",
          "name": "account",
          "type": "address"
        }
      ],
      "name": "balanceOf",
      "outputs": [
        {
          "internalType": "uint256",
          "name": "",
          "type": "uint256"
        }
      ],
      "stateMutability": "view",
      "type": "function"
    },
    {
      "inputs": [
        {
          "internalType": "uint256",
          "name": "pid",
          "type": "uint256"
        }
      ],
      "name": "collectEmissions",
      "outputs": [],
      "stateMutability": "nonpayable",
      "type": "function"
    },
    {
      "inputs": [],
      "name": "decimals",
      "outputs": [
        {
          "internalType": "uint8",
          "name": "",
          "type": "uint8"
        }
      ],
      "stateMutability": "view",
      "type": "function"
    },
    {
      "inputs": [
        {
          "internalType": "address",
          "name": "spender",
          "type": "address"
        },
        {
          "internalType": "uint256",
          "name": "subtractedValue",
          "type": "uint256"
        }
      ],
      "name": "decreaseAllowance",
      "outputs": [
        {
          "internalType": "bool",
          "name": "",
          "type": "bool"
        }
      ],
      "stateMutability": "nonpayable",
      "type": "function"
    },
    {
      "inputs": [
        {
          "internalType": "address",
          "name": "spender",
          "type": "address"
        },
        {
          "internalType": "uint256",
          "name": "addedValue",
          "type": "uint256"
        }
      ],
      "name": "increaseAllowance",
      "outputs": [
        {
          "internalType": "bool",
          "name": "",
          "type": "bool"
        }
      ],
      "stateMutability": "nonpayable",
      "type": "function"
    },
    {
      "inputs": [
        {
          "internalType": "uint256",
          "name": "amount",
          "type": "uint256"
        }
      ],
      "name": "mint",
      "outputs": [],
      "stateMutability": "nonpayable",
      "type": "function"
    },
    {
      "inputs": [
        {
          "internalType": "uint256",
          "name": "amount",
          "type": "uint256"
        }
      ],
      "name": "mintToFarm",
      "outputs": [],
      "stateMutability": "nonpayable",
      "type": "function"
    },
    {
      "inputs": [],
      "name": "name",
      "outputs": [
        {
          "internalType": "string",
          "name": "",
          "type": "string"
        }
      ],
      "stateMutability": "view",
      "type": "function"
    },
    {
      "inputs": [],
      "name": "owner",
      "outputs": [
        {
          "internalType": "address",
          "name": "",
          "type": "address"
        }
      ],
      "stateMutability": "view",
      "type": "function"
    },
    {
      "inputs": [],
      "name": "renounceOwnership",
      "outputs": [],
      "stateMutability": "nonpayable",
      "type": "function"
    },
    {
      "inputs": [
        {
          "internalType": "address",
          "name": "farm",
          "type": "address"
        }
      ],
      "name": "setFarm",
      "outputs": [],
      "stateMutability": "nonpayable",
      "type": "function"
    },
    {
      "inputs": [],
      "name": "symbol",
      "outputs": [
        {
          "internalType": "string",
          "name": "",
          "type": "string"
        }
      ],
      "stateMutability": "view",
      "type": "function"
    },
    {
      "inputs": [],
      "name": "totalSupply",
      "outputs": [
        {
          "internalType": "uint256",
          "name": "",
          "type": "uint256"
        }
      ],
      "stateMutability": "view",
      "type": "function"
    },
    {
      "inputs": [
        {
          "internalType": "address",
          "name": "to",
          "type": "address"
        },
        {
          "internalType": "uint256",
          "name": "amount",
          "type": "uint256"
        }
      ],
      "name": "transfer",
      "outputs": [
        {
          "internalType": "bool",
          "name": "",
          "type": "bool"
        }
      ],
      "stateMutability": "nonpayable",
      "type": "function"
    },
    {
      "inputs": [
        {
          "internalType": "address",
          "name": "from",
          "type": "address"
        },
        {
          "internalType": "address",
          "name": "to",
          "type": "address"
        },
        {
          "internalType": "uint256",
          "name": "amount",
          "type": "uint256"
        }
      ],
      "name": "transferFrom",
      "outputs": [
        {
          "internalType": "bool",
          "name": "",
          "type": "bool"
        }
      ],
      "stateMutability": "nonpayable",
      "type": "function"
    },
    {
      "inputs": [
        {
          "internalType": "address",
          "name": "newOwner",
          "type": "address"
        }
      ],
      "name": "transferOwnership",
      "outputs": [],
      "stateMutability": "nonpayable",
      "type": "function"
    }
  ],
  "bytecode": "0x6080604052346200032557620000146200032a565b6200001e6200032a565b815190916001600160401b038083116200022557600380546001948582811c92169485156200031a575b6020958684101462000304578190601f93848111620002ae575b50869084831160011462000247576000926200023b575b505060001982851b1c191690861b1782555b8551928311620002255760049384548681811c911680156200021a575b828210146200020557828111620001ba575b50809184116001146200014c57508293949560009362000140575b505082851b92600019911b1c19161790555b60058054336001600160a01b0319821681179092556040519291906001600160a01b03167f8be0079c531659141344cd1fd0a4f28419497f9722a3daafe3b4186f6b6457e0600080a3600655610e3b90816200035d8239f35b015191503880620000d5565b9190601f198416968560005283600020936000905b898210620001a25750508487989796971062000187575b50505050811b019055620000e7565b01519060f884600019921b161c191690553880808062000178565b80898597829496860151815501960193019062000161565b85600052816000208380870160051c820192848810620001fb575b0160051c019087905b828110620001ee575050620000ba565b60008155018790620001de565b92508192620001d5565b602286634e487b7160e01b6000525260246000fd5b90607f1690620000a8565b634e487b7160e01b600052604160045260246000fd5b01519050388062000079565b90889350601f1983169186600052886000209260005b8a8282106200029757505084116200027e575b505050811b0182556200008b565b015160001983871b60f8161c1916905538808062000270565b8385015186558c979095019493840193016200025d565b90915084600052866000208480850160051c820192898610620002fa575b918a91869594930160051c01915b828110620002ea57505062000062565b600081558594508a9101620002da565b92508192620002cc565b634e487b7160e01b600052602260045260246000fd5b91607f169162000048565b600080fd5b60408051919082016001600160401b03811183821017620002255760405260058252644348414f5360d81b602083015256fe6080604081815260048036101561001557600080fd5b600092833560e01c90816306fdde031461089757508063095ea7b31461086d57806318160ddd1461084e57806323b872dd14610784578063313ce5671461076857806339509351146107185780635f316876146106da57838163662c4b3b1461065a5750806370a0823114610623578063715018a6146105c55780638da5cb5b1461059c57806395d89b41146104b5578063a0712d681461048c578063a457c2d7146103e6578063a9059cbb146103b5578063cae9ca5114610259578063d4f26c5114610211578063dd62ed3e146101bf5763f2fde38b146100f657600080fd5b346101bb5760203660031901126101bb5761010f6109b8565b906101186109e9565b6001600160a01b03918216928315610169575050600580546001600160a01b031981168417909155167f8be0079c531659141344cd1fd0a4f28419497f9722a3daafe3b4186f6b6457e0600080a380f35b906020608492519162461bcd60e51b8352820152602660248201527f4f776e61626c653a206e6577206f776e657220697320746865207a65726f206160448201526564647265737360d01b6064820152fd5b8280fd5b50503461020d578060031936011261020d576020916101dc6109b8565b826101e56109d3565b6001600160a01b03928316845260018652922091166000908152908352819020549051908152f35b5080fd5b83346102565760203660031901126102565761022b6109b8565b6102336109e9565b600780546001600160a01b0319166001600160a01b039290921691909117905580f35b80fd5b50346101bb5760603660031901126101bb576102736109b8565b67ffffffffffffffff9160443591602435908484116103b157366023850112156103b157838301359485116103b15736602486860101116103b15760026006541461036e57908693929160026006556102cd828233610c1e565b6001600160a01b031691823b1561036a5760a48591876024988a51998a9889978895638f4ffcb160e01b87523390870152828601523060448601526080606486015282608486015201848401378181018301849052601f01601f191681010301925af1801561035e5761034a575b60208260016006555160018152f35b6103548391610a41565b61020d578161033b565b505051903d90823e3d90fd5b8480fd5b855162461bcd60e51b8152602081850152601f60248201527f5265656e7472616e637947756172643a207265656e7472616e742063616c6c006044820152606490fd5b8680fd5b50503461020d578060031936011261020d576020906103df6103d56109b8565b6024359033610ab0565b5160018152f35b5082346102565782600319360112610256576104006109b8565b91836024359233815260016020522060018060a01b03841660005260205283600020549082821061043b576020856103df8585038733610c1e565b608490602086519162461bcd60e51b8352820152602560248201527f45524332303a2064656372656173656420616c6c6f77616e63652062656c6f77604482015264207a65726f60d81b6064820152fd5b83823461020d57602036600319011261020d576104b2906104ab6109e9565b3533610d20565b80f35b5091903461020d578160031936011261020d57805191809380549160019083821c92828516948515610592575b602095868610811461057f5785895290811561055b5750600114610520575b61051c8787610512828c0383610a6b565b519182918261096f565b0390f35b9080949750528583205b828410610548575050508261051c9461051292820101943880610501565b805486850188015292860192810161052a565b60ff19168887015250505050151560051b83010192506105128261051c3880610501565b634e487b7160e01b845260228352602484fd5b93607f16936104e2565b50503461020d578160031936011261020d5760055490516001600160a01b039091168152602090f35b83346102565780600319360112610256576105de6109e9565b600580546001600160a01b031981169091556000906001600160a01b03167f8be0079c531659141344cd1fd0a4f28419497f9722a3daafe3b4186f6b6457e08280a380f35b50503461020d57602036600319011261020d5760209181906001600160a01b0361064b6109b8565b16815280845220549051908152f35b808484346106d65760203660031901126106d6576007546001600160a01b0316610685811515610dc3565b803b156106d1576044849284519586938492630c7e663b60e11b84528035908401523360248401525af19081156106c857506106bf575080f35b6104b290610a41565b513d84823e3d90fd5b505050fd5b5050fd5b83823461020d57602036600319011261020d576104b2906106f96109e9565b6007546001600160a01b031690610711821515610dc3565b3590610d20565b50503461020d578060031936011261020d576103df60209261076161073b6109b8565b338352600186528483206001600160a01b03821684528652918490205460243590610a8d565b9033610c1e565b50503461020d578160031936011261020d576020905160128152f35b5082903461020d57606036600319011261020d576107a06109b8565b6107a86109d3565b91846044359460018060a01b0384168152600160205281812033825260205220549060001982036107e2575b6020866103df878787610ab0565b84821061080b5750918391610800602096956103df95033383610c1e565b9193948193506107d4565b606490602087519162461bcd60e51b8352820152601d60248201527f45524332303a20696e73756666696369656e7420616c6c6f77616e63650000006044820152fd5b50503461020d578160031936011261020d576020906002549051908152f35b50503461020d578060031936011261020d576020906103df61088d6109b8565b6024359033610c1e565b929190503461096b578360031936011261096b57600354600181811c9186908281168015610961575b602095868610821461094e575084885290811561092c57506001146108f1575b61051c8686610512828b0383610a6b565b929550600383528583205b828410610919575050508261051c946105129282010194386108e0565b80548685018801529286019281016108fc565b60ff191687860152505050151560051b83010192506105128261051c386108e0565b634e487b7160e01b845260229052602483fd5b93607f16936108c0565b8380fd5b6020808252825181830181905290939260005b8281106109a457505060409293506000838284010152601f8019910116010190565b818101860151848201604001528501610982565b600435906001600160a01b03821682036109ce57565b600080fd5b602435906001600160a01b03821682036109ce57565b6005546001600160a01b031633036109fd57565b606460405162461bcd60e51b815260206004820152602060248201527f4f776e61626c653a2063616c6c6572206973206e6f7420746865206f776e65726044820152fd5b67ffffffffffffffff8111610a5557604052565b634e487b7160e01b600052604160045260246000fd5b90601f8019910116810190811067ffffffffffffffff821117610a5557604052565b91908201809211610a9a57565b634e487b7160e01b600052601160045260246000fd5b6001600160a01b03908116918215610bcb5716918215610b7a57600082815280602052604081205491808310610b2657604082827fddf252ad1be2c89b69c2b068fc378daa952ba7f163c4a11628f55a4df523b3ef958760209652828652038282205586815220818154019055604051908152a3565b60405162461bcd60e51b815260206004820152602660248201527f45524332303a207472616e7366657220616d6f756e7420657863656564732062604482015265616c616e636560d01b6064820152608490fd5b60405162461bcd60e51b815260206004820152602360248201527f45524332303a207472616e7366657220746f20746865207a65726f206164647260448201526265737360e81b6064820152608490fd5b60405162461bcd60e51b815260206004820152602560248201527f45524332303a207472616e736665722066726f6d20746865207a65726f206164604482015264647265737360d81b6064820152608490fd5b6001600160a01b03908116918215610ccf5716918215610c7f5760207f8c5be1e5ebec7d5bd14f71427d1e84f3dd0314c0f7b2291e5b200ac8c7c3b925918360005260018252604060002085600052825280604060002055604051908152a3565b60405162461bcd60e51b815260206004820152602260248201527f45524332303a20617070726f766520746f20746865207a65726f206164647265604482015261737360f01b6064820152608490fd5b60405162461bcd60e51b8152602060048201526024808201527f45524332303a20617070726f76652066726f6d20746865207a65726f206164646044820152637265737360e01b6064820152608490fd5b6001600160a01b0316908115610d7e577fddf252ad1be2c89b69c2b068fc378daa952ba7f163c4a11628f55a4df523b3ef602082610d62600094600254610a8d565b60025584845283825260408420818154019055604051908152a3565b60405162461bcd60e51b815260206004820152601f60248201527f45524332303a206d696e7420746f20746865207a65726f2061646472657373006044820152606490fd5b15610dca57565b60405162461bcd60e51b815260206004820152601360248201527210d21053d4ce8811985c9b481b9bdd081cd95d606a1b6044820152606490fdfea26469706673582212208aa3a464f632dc2f2e66ab929915f92c99d10b165f75fa375d05f4ba210fc9be64736f6c63430008130033",
  "linkReferences": {},
  "deployedLinkReferences": {}
}