{
  "_format": "hh-sol-artifact-1",
  "contractName": "DynamicEater",
  "sourceName": "contracts/core/merge/DynamicEater.sol",
  "abi": [
    {
      "inputs": [
        {
          "internalType": "address",
          "name": "_wewe",
          "type": "address"
        },
        {
          "internalType": "address",
          "name": "_vult",
          "type": "address"
        },
        {
          "internalType": "uint32",
          "name": "_vestingDuration",
          "type": "uint32"
        },
        {
          "internalType": "uint256",
          "name": "_maxSupply",
          "type": "uint256"
        }
      ],
      "stateMutability": "nonpayable",
      "type": "constructor"
    },
    {
      "anonymous": false,
      "inputs": [
        {
          "indexed": false,
          "internalType": "uint256",
          "name": "amount",
          "type": "uint256"
        },
        {
          "indexed": true,
          "internalType": "address",
          "name": "account",
          "type": "address"
        }
      ],
      "name": "Merged",
      "type": "event"
    },
    {
      "anonymous": false,
      "inputs": [
        {
          "indexed": true,
          "internalType": "address",
          "name": "previousOwner",
          "type": "address"
        },
        {
          "indexed": true,
          "internalType": "address",
          "name": "newOwner",
          "type": "address"
        }
      ],
      "name": "OwnershipTransferred",
      "type": "event"
    },
    {
      "anonymous": false,
      "inputs": [
        {
          "indexed": false,
          "internalType": "address",
          "name": "account",
          "type": "address"
        }
      ],
      "name": "Paused",
      "type": "event"
    },
    {
      "anonymous": false,
      "inputs": [
        {
          "indexed": false,
          "internalType": "uint256",
          "name": "newRate",
          "type": "uint256"
        }
      ],
      "name": "RateChanged",
      "type": "event"
    },
    {
      "anonymous": false,
      "inputs": [
        {
          "indexed": false,
          "internalType": "address",
          "name": "account",
          "type": "address"
        }
      ],
      "name": "Unpaused",
      "type": "event"
    },
    {
      "inputs": [
        {
          "internalType": "address",
          "name": "account",
          "type": "address"
        }
      ],
      "name": "balanceOf",
      "outputs": [
        {
          "internalType": "uint256",
          "name": "",
          "type": "uint256"
        }
      ],
      "stateMutability": "view",
      "type": "function"
    },
    {
      "inputs": [
        {
          "internalType": "address",
          "name": "account",
          "type": "address"
        }
      ],
      "name": "canClaim",
      "outputs": [
        {
          "internalType": "bool",
          "name": "",
          "type": "bool"
        }
      ],
      "stateMutability": "view",
      "type": "function"
    },
    {
      "inputs": [],
      "name": "claim",
      "outputs": [],
      "stateMutability": "nonpayable",
      "type": "function"
    },
    {
      "inputs": [
        {
          "internalType": "uint256",
          "name": "amount",
          "type": "uint256"
        }
      ],
      "name": "deposit",
      "outputs": [],
      "stateMutability": "nonpayable",
      "type": "function"
    },
    {
      "inputs": [],
      "name": "depositRequired",
      "outputs": [],
      "stateMutability": "nonpayable",
      "type": "function"
    },
    {
      "inputs": [],
      "name": "getRate",
      "outputs": [
        {
          "internalType": "uint256",
          "name": "",
          "type": "uint256"
        }
      ],
      "stateMutability": "view",
      "type": "function"
    },
    {
      "inputs": [],
      "name": "getToken",
      "outputs": [
        {
          "internalType": "address",
          "name": "",
          "type": "address"
        }
      ],
      "stateMutability": "view",
      "type": "function"
    },
    {
      "inputs": [
        {
          "internalType": "uint256",
          "name": "mergeAmount",
          "type": "uint256"
        }
      ],
      "name": "getTotalWeWe",
      "outputs": [
        {
          "internalType": "uint256",
          "name": "",
          "type": "uint256"
        }
      ],
      "stateMutability": "pure",
      "type": "function"
    },
    {
      "inputs": [],
      "name": "maxRate",
      "outputs": [
        {
          "internalType": "int256",
          "name": "",
          "type": "int256"
        }
      ],
      "stateMutability": "view",
      "type": "function"
    },
    {
      "inputs": [],
      "name": "maxSupply",
      "outputs": [
        {
          "internalType": "uint256",
          "name": "",
          "type": "uint256"
        }
      ],
      "stateMutability": "view",
      "type": "function"
    },
    {
      "inputs": [
        {
          "internalType": "uint256",
          "name": "amount",
          "type": "uint256"
        }
      ],
      "name": "merge",
      "outputs": [],
      "stateMutability": "nonpayable",
      "type": "function"
    },
    {
      "inputs": [
        {
          "internalType": "uint256",
          "name": "amount",
          "type": "uint256"
        },
        {
          "internalType": "contract IAMM",
          "name": "amm",
          "type": "address"
        },
        {
          "internalType": "bytes",
          "name": "extraData",
          "type": "bytes"
        }
      ],
      "name": "mergeAndSell",
      "outputs": [],
      "stateMutability": "nonpayable",
      "type": "function"
    },
    {
      "inputs": [],
      "name": "minRate",
      "outputs": [
        {
          "internalType": "int256",
          "name": "",
          "type": "int256"
        }
      ],
      "stateMutability": "view",
      "type": "function"
    },
    {
      "inputs": [],
      "name": "owner",
      "outputs": [
        {
          "internalType": "address",
          "name": "",
          "type": "address"
        }
      ],
      "stateMutability": "view",
      "type": "function"
    },
    {
      "inputs": [],
      "name": "paused",
      "outputs": [
        {
          "internalType": "bool",
          "name": "",
          "type": "bool"
        }
      ],
      "stateMutability": "view",
      "type": "function"
    },
    {
      "inputs": [
        {
          "internalType": "address",
          "name": "from",
          "type": "address"
        },
        {
          "internalType": "uint256",
          "name": "amount",
          "type": "uint256"
        },
        {
          "internalType": "address",
          "name": "",
          "type": "address"
        },
        {
          "internalType": "bytes",
          "name": "",
          "type": "bytes"
        }
      ],
      "name": "receiveApproval",
      "outputs": [],
      "stateMutability": "nonpayable",
      "type": "function"
    },
    {
      "inputs": [],
      "name": "renounceOwnership",
      "outputs": [],
      "stateMutability": "nonpayable",
      "type": "function"
    },
    {
      "inputs": [
        {
          "internalType": "uint256",
          "name": "_maxSupply",
          "type": "uint256"
        }
      ],
      "name": "setMaxSupply",
      "outputs": [],
      "stateMutability": "nonpayable",
      "type": "function"
    },
    {
      "inputs": [
        {
          "internalType": "address",
          "name": "_treasury",
          "type": "address"
        }
      ],
      "name": "setTreasury",
      "outputs": [],
      "stateMutability": "nonpayable",
      "type": "function"
    },
    {
      "inputs": [
        {
          "internalType": "uint32",
          "name": "duration",
          "type": "uint32"
        }
      ],
      "name": "setVestingDuration",
      "outputs": [],
      "stateMutability": "nonpayable",
      "type": "function"
    },
    {
      "inputs": [],
      "name": "slope",
      "outputs": [
        {
          "internalType": "int256",
          "name": "",
          "type": "int256"
        }
      ],
      "stateMutability": "pure",
      "type": "function"
    },
    {
      "inputs": [],
      "name": "sweep",
      "outputs": [],
      "stateMutability": "nonpayable",
      "type": "function"
    },
    {
      "inputs": [],
      "name": "togglePause",
      "outputs": [],
      "stateMutability": "nonpayable",
      "type": "function"
    },
    {
      "inputs": [],
      "name": "totalVested",
      "outputs": [
        {
          "internalType": "uint256",
          "name": "",
          "type": "uint256"
        }
      ],
      "stateMutability": "view",
      "type": "function"
    },
    {
      "inputs": [
        {
          "internalType": "address",
          "name": "newOwner",
          "type": "address"
        }
      ],
      "name": "transferOwnership",
      "outputs": [],
      "stateMutability": "nonpayable",
      "type": "function"
    },
    {
      "inputs": [],
      "name": "treasury",
      "outputs": [
        {
          "internalType": "address",
          "name": "",
          "type": "address"
        }
      ],
      "stateMutability": "view",
      "type": "function"
    },
    {
      "inputs": [],
      "name": "vestingDuration",
      "outputs": [
        {
          "internalType": "uint32",
          "name": "",
          "type": "uint32"
        }
      ],
      "stateMutability": "view",
      "type": "function"
    },
    {
      "inputs": [
        {
          "internalType": "address",
          "name": "",
          "type": "address"
        }
      ],
      "name": "vestings",
      "outputs": [
        {
          "internalType": "uint256",
          "name": "amount",
          "type": "uint256"
        },
        {
          "internalType": "uint256",
          "name": "end",
          "type": "uint256"
        }
      ],
      "stateMutability": "view",
      "type": "function"
    },
    {
      "inputs": [],
      "name": "wewe",
      "outputs": [
        {
          "internalType": "address",
          "name": "",
          "type": "address"
        }
      ],
      "stateMutability": "view",
      "type": "function"
    }
  ],
  "bytecode": "0x60803461010457601f61167438819003918201601f19168301916001600160401b0383118484101761010957808492608094604052833981010312610104576100478161011f565b6100536020830161011f565b9160408101519063ffffffff82168092036101045760600151916001600055600154610100600160a81b033360081b1660018060a81b03198216176001556040519460018060a01b039182339160081c167f8be0079c531659141344cd1fd0a4f28419497f9722a3daafe3b4186f6b6457e0600080a38160018060a01b031993168360035416176003551690600254161760025563ffffffff19600854161760085560075561154090816101348239f35b600080fd5b634e487b7160e01b600052604160045260246000fd5b51906001600160a01b03821682036101045756fe6080604081815260048036101561001557600080fd5b600092833560e01c9081630cb6044314610ccd575080631514617e14610ca8578063199cbc5414610c8957838163213897fe14610a785750806321df0da714610a4f57806324a47aeb146109a45780632a9605f41461094957806335faa416146107d95780634e71d92d146107425780635394aa3f146107225780635c975abb146106fe57806361d027b3146106d7578063679aefce1461068f5780636f8b44b01461066d57806370a0823114610635578063715018a6146105d157806383caf275146105b45780638da5cb5b146105875780638f4ffcb1146104af5780639636d88114610474578063b6b55f251461044c578063bf3506c11461040d578063c4ae31681461032a578063d5abeb011461030b578063daf49863146102c9578063e1f26f22146102a0578063ece1d6e514610284578063f0f442601461023f5763f2fde38b1461016457600080fd5b3461023b57602036600319011261023b5761017d610d1b565b610185610d31565b6001600160a01b038181169390929084156101e957505060018054610100600160a81b03198116600893841b610100600160a81b031617909155901c167f8be0079c531659141344cd1fd0a4f28419497f9722a3daafe3b4186f6b6457e08380a380f35b906020608492519162461bcd60e51b8352820152602660248201527f4f776e61626c653a206e6577206f776e657220697320746865207a65726f206160448201526564647265737360d01b6064820152fd5b8280fd5b8382346102805760203660031901126102805761025a610d1b565b610262610d31565b81546001600160a01b0319166001600160a01b039190911617905580f35b5080fd5b5050346102805781600319360112610280576020905160788152f35b50503461028057816003193601126102805760035490516001600160a01b039091168152602090f35b505034610280576020366003190112610280579081906001600160a01b036102ef610d1b565b1681526009602052206001815491015482519182526020820152f35b5050346102805781600319360112610280576020906007549051908152f35b503461023b578260031936011261023b57610343610d31565b60015460ff8116156103cc57506001549060ff821615610392575060ff1916600155513381527f5db9ee0a495bf2e6ff9c91a7834c1ba4fdd244a5e8aa4e537bd38aeae4b073aa90602090a180f35b606490602084519162461bcd60e51b8352820152601460248201527314185d5cd8589b194e881b9bdd081c185d5cd95960621b6044820152fd5b602091509160017f62e78cea01bee320cd4e420270b5ea74000d11b0c9f74754ebdbfc544b05a258936103fd6110bd565b60ff19161760015551338152a180f35b5050346102805760203660031901126102805760209160019082906001600160a01b03610438610d1b565b168152600985522001549051904210158152f35b838234610280576020366003190112610280576104719061046b610d31565b356114cb565b80f35b838234610280576020366003190112610280573563ffffffff81168091036102805761049e610d31565b63ffffffff19600854161760085580f35b50829034610280576080366003190112610280576104cb610d1b565b906001600160a01b03604435818116036105835760643567ffffffffffffffff811161057f576104fe9036908401610ce8565b5050610508611101565b6105106110bd565b6002541690811561053057509061052991602435611157565b6001815580f35b608490602086519162461bcd60e51b8352820152602360248201527f44796e616d696345617465723a20546f6b656e2061646472657373206e6f74206044820152621cd95d60ea1b6064820152fd5b8480fd5b8380fd5b505034610280578160031936011261028057600154905160089190911c6001600160a01b03168152602090f35b505034610280578160031936011261028057516045198152602090f35b83346106325780600319360112610632576105ea610d31565b60018054610100600160a81b03198116909155819060081c6001600160a01b03167f8be0079c531659141344cd1fd0a4f28419497f9722a3daafe3b4186f6b6457e08280a380f35b80fd5b5050346102805760203660031901126102805760209181906001600160a01b0361065d610d1b565b1681526009845220549051908152f35b83823461028057602036600319011261028057610688610d31565b3560075580f35b50913461063257806003193601126106325760055460018101918282116106c4576020846106bd8585610f2d565b9051908152f35b634e487b7160e01b815260118552602490fd5b503461023b578260031936011261023b575490516001600160a01b03909116815260209150f35b50503461028057816003193601126102805760209060ff6001541690519015158152f35b50913461063257602036600319011261063257506106bd60209235610e19565b50903461023b578260031936011261023b5761075c6110bd565b63ffffffff60085416156107cc575b3383526009602052600181842001544210610789578261047161144a565b906020606492519162461bcd60e51b8352820152601f60248201527f44796e616d696345617465723a2056657374696e67206e6f7420656e646564006044820152fd5b6107d461144a565b61076b565b509190346102805781600319360112610280576107f4610d31565b60035481516370a0823160e01b8152308582015293602092916001600160a01b0390811691908487602481865afa96871561093f57869761090c575b5086156108bf57600154845163a9059cbb60e01b81526001600160a01b0360089290921c90921616918101918252602082018790529291849184919082908890829060400103925af19081156108b65750610889578280f35b816108a892903d106108af575b6108a0818361100f565b8101906110a5565b5081808280f35b503d610896565b513d85823e3d90fd5b835162461bcd60e51b8152808301869052602160248201527f44796e616d696345617465723a204e6f2062616c616e636520746f20737765656044820152600760fc1b6064820152608490fd5b9096508481813d8311610938575b610924818361100f565b8101031261093457519538610830565b8580fd5b503d61091a565b84513d88823e3d90fd5b838234610280578160031936011261028057610963610d31565b6007546005549182820391821161099157508161098661098c9261047194610d8c565b90610f2d565b6114cb565b634e487b7160e01b845260119052602483fd5b503461023b57602036600319011261023b578035906109c16110bd565b60025483516370a0823160e01b815233928101929092526001600160a01b031690602081602481855afa938415610a4657508493610a11575b50610a0a82610471941015611047565b3391611157565b92506020833d8211610a3e575b81610a2b6020938361100f565b8101031261058357915191610a0a6109fa565b3d9150610a1e565b513d86823e3d90fd5b50503461028057816003193601126102805760025490516001600160a01b039091168152602090f35b92905034610c85576060366003190112610c85576001600160a01b03602435818116908435908290036109345760443567ffffffffffffffff8111610c8157610ac49036908701610ce8565b969095610acf611101565b610ad76110bd565b60025486516370a0823160e01b81523383820152602099918716908a81602481855afa908115610c7757908692918691610c42575b50610b2492610b1c911015611047565b339086611157565b600254875163095ea7b360e01b81526001600160a01b0387168482019081526020810187905290918b9183918a169082908890829060400103925af18015610c3857918a97969594939160a493610c1b575b5080878354168015600014610c155750309a5b8860025416988b519c8d9a8b998a976302454b7160e41b8952880152602487015216604485015260806064850152816084850152848401378181018301849052601f01601f191681010301925af19081156108b65750610bec575b826001815580f35b813d8311610c0e575b610bff818361100f565b81010312610632573880610be4565b503d610bf5565b9a610b89565b610c3190893d8b116108af576108a0818361100f565b5038610b76565b88513d86823e3d90fd5b8093508c8092503d8311610c70575b610c5b818361100f565b8101031261057f579051859190610b24610b0c565b503d610c51565b89513d87823e3d90fd5b8680fd5b5050fd5b5050346102805781600319360112610280576020906005549051908152f35b50503461028057816003193601126102805760209063ffffffff600854169051908152f35b84903461028057816003193601126102805780603260209252f35b9181601f84011215610d165782359167ffffffffffffffff8311610d165760208381860195010111610d1657565b600080fd5b600435906001600160a01b0382168203610d1657565b60015460081c6001600160a01b03163303610d4857565b606460405162461bcd60e51b815260206004820152602060248201527f4f776e61626c653a2063616c6c6572206973206e6f7420746865206f776e65726044820152fd5b91908201809211610d9957565b634e487b7160e01b600052601160045260246000fd5b90620186a091828102928184051490151715610d9957565b9062b71b009180830292830503610d9957565b818102929160008212600160ff1b821416610d99578184051490151715610d9957565b91909160008382019384129112908015821691151617610d9957565b6201116f198181029190600160ff1b8214600116610d9957820503610d995762b71b009060008282019283129112908015821691151617610d9957620186a0900560008112610e655790565b50600090565b6000908015610f29578080600114610f2157600214610f19576001918261013383101683600b84101617610f095760028392935b808211610ecc57505082600019048211610eb857500290565b634e487b7160e01b81526011600452602490fd5b909380600019048111610ef557818516610eec575b800293811c90610e9f565b80930292610ee1565b634e487b7160e01b83526011600452602483fd5b929150600283910a92610eb85750565b509060049150565b505050600190565b5090565b60075490811561100757610f73610f6d6002610f67610f79610f89966045190597610f73610f6d85610f67610f6185610e6b565b8d610dda565b05610daf565b91610dc7565b90610dfd565b96610f8386610e6b565b90610dda565b9060008282039212818312811691831390151617610d995760008112610fac5790565b60405162461bcd60e51b815260206004820152602d60248201527f417265612063616c63756c6174696f6e20726573756c74656420696e2061206e60448201526c656761746976652076616c756560981b6064820152608490fd5b505050600090565b90601f8019910116810190811067ffffffffffffffff82111761103157604052565b634e487b7160e01b600052604160045260246000fd5b1561104e57565b60405162461bcd60e51b815260206004820152602960248201527f44796e616d696345617465723a20496e73756666696369656e742062616c616e60448201526818d9481d1bc819585d60ba1b6064820152608490fd5b90816020910312610d1657518015158103610d165790565b60ff600154166110c957565b60405162461bcd60e51b815260206004820152601060248201526f14185d5cd8589b194e881c185d5cd95960821b6044820152606490fd5b600260005414611112576002600055565b60405162461bcd60e51b815260206004820152601f60248201527f5265656e7472616e637947756172643a207265656e7472616e742063616c6c006044820152606490fd5b909291926005549361117b61117461116f8588610d8c565b610e19565b8096610d8c565b60055560018060a01b039081600354166040908151946370a0823160e01b86528560049230848301528160246020998a935afa90811561143f57600091611412575b5089116113b35782516323b872dd60e01b81526001600160a01b03851683820190815230602082015260408101899052909187918391908290036060019082906000908a165af180156113a85761138b575b5060085463ffffffff98908916156112ee5761123b858516918260005260098852846000205490610d8c565b98603c8160085416029081169081036112d9576112589042610d8c565b988351928484019084821067ffffffffffffffff8311176112c45750917fadc41ba80ffa0859aab1d7cf405a6633a6af94fc3d10e5b0e0bf46cdcc0fd9c898999a9160019386528452878401918252600052600987528360002092518355519101555b519485521692a2565b604190634e487b7160e01b6000525260246000fd5b601183634e487b7160e01b6000525260246000fd5b600354835163a9059cbb60e01b81526001600160a01b0386169381019384526020840192909252909850859189918616908290600090829060400103925af1968715611380577fadc41ba80ffa0859aab1d7cf405a6633a6af94fc3d10e5b0e0bf46cdcc0fd9c8959697611363575b506112bb565b61137990853d87116108af576108a0818361100f565b503861135d565b50513d6000823e3d90fd5b6113a190863d88116108af576108a0818361100f565b503861120f565b83513d6000823e3d90fd5b5084608492519162461bcd60e51b8352820152603460248201527f44796e616d696345617465723a20496e73756666696369656e7420746f6b656e604482015273103130b630b731b2903a37903a3930b739b332b960611b6064820152fd5b908782813d8311611438575b611428818361100f565b81010312610632575051386111bd565b503d61141e565b84513d6000823e3d90fd5b336000818152600960209081526040808320805490849055600354915163a9059cbb60e01b815260048101959095526024850152909183916001600160a01b031690829081604481015b03925af180156114bf576114a55750565b6114bc9060203d81116108af576108a0818361100f565b50565b6040513d6000823e3d90fd5b6003546040516323b872dd60e01b8152336004820152306024820152604481019290925260209082906001600160a01b0316816000816064810161149456fea2646970667358221220f7ac4b4c33e49800ce40c8d566d82173ab67664f3c61750788e6ab74ef69c38b64736f6c63430008130033",
  "linkReferences": {},
  "deployedLinkReferences": {}
}