{
  "_format": "hh-sol-artifact-1",
  "contractName": "DynamicEater",
  "sourceName": "contracts/core/merge/DynamicEater.sol",
  "abi": [
    {
      "inputs": [
        {
          "internalType": "address",
          "name": "_wewe",
          "type": "address"
        },
        {
          "internalType": "address",
          "name": "_token",
          "type": "address"
        },
        {
          "internalType": "uint32",
          "name": "_vestingDuration",
          "type": "uint32"
        },
        {
          "internalType": "uint256",
          "name": "_virtualToken",
          "type": "uint256"
        },
        {
          "internalType": "uint256",
          "name": "_virtualWEWE",
          "type": "uint256"
        }
      ],
      "stateMutability": "nonpayable",
      "type": "constructor"
    },
    {
      "anonymous": false,
      "inputs": [
        {
          "indexed": false,
          "internalType": "uint256",
          "name": "amount",
          "type": "uint256"
        }
      ],
      "name": "Dumped",
      "type": "event"
    },
    {
      "anonymous": false,
      "inputs": [
        {
          "indexed": false,
          "internalType": "uint256",
          "name": "amount",
          "type": "uint256"
        },
        {
          "indexed": true,
          "internalType": "address",
          "name": "account",
          "type": "address"
        },
        {
          "indexed": false,
          "internalType": "uint256",
          "name": "weweAmount",
          "type": "uint256"
        }
      ],
      "name": "Merged",
      "type": "event"
    },
    {
      "anonymous": false,
      "inputs": [
        {
          "indexed": true,
          "internalType": "address",
          "name": "previousOwner",
          "type": "address"
        },
        {
          "indexed": true,
          "internalType": "address",
          "name": "newOwner",
          "type": "address"
        }
      ],
      "name": "OwnershipTransferred",
      "type": "event"
    },
    {
      "anonymous": false,
      "inputs": [
        {
          "indexed": false,
          "internalType": "address",
          "name": "account",
          "type": "address"
        }
      ],
      "name": "Paused",
      "type": "event"
    },
    {
      "anonymous": false,
      "inputs": [
        {
          "indexed": false,
          "internalType": "uint256",
          "name": "newRate",
          "type": "uint256"
        }
      ],
      "name": "RateChanged",
      "type": "event"
    },
    {
      "anonymous": false,
      "inputs": [
        {
          "indexed": false,
          "internalType": "address",
          "name": "account",
          "type": "address"
        }
      ],
      "name": "Unpaused",
      "type": "event"
    },
    {
      "inputs": [],
      "name": "adaptor",
      "outputs": [
        {
          "internalType": "address",
          "name": "",
          "type": "address"
        }
      ],
      "stateMutability": "view",
      "type": "function"
    },
    {
      "inputs": [
        {
          "internalType": "address",
          "name": "account",
          "type": "address"
        },
        {
          "internalType": "bool",
          "name": "status",
          "type": "bool"
        }
      ],
      "name": "addWhiteList",
      "outputs": [],
      "stateMutability": "nonpayable",
      "type": "function"
    },
    {
      "inputs": [
        {
          "internalType": "address",
          "name": "account",
          "type": "address"
        }
      ],
      "name": "balanceOf",
      "outputs": [
        {
          "internalType": "uint256",
          "name": "",
          "type": "uint256"
        }
      ],
      "stateMutability": "view",
      "type": "function"
    },
    {
      "inputs": [
        {
          "internalType": "uint256",
          "name": "x",
          "type": "uint256"
        }
      ],
      "name": "calculateTokensOut",
      "outputs": [
        {
          "internalType": "uint256",
          "name": "",
          "type": "uint256"
        }
      ],
      "stateMutability": "view",
      "type": "function"
    },
    {
      "inputs": [
        {
          "internalType": "address",
          "name": "account",
          "type": "address"
        }
      ],
      "name": "canClaim",
      "outputs": [
        {
          "internalType": "bool",
          "name": "",
          "type": "bool"
        }
      ],
      "stateMutability": "view",
      "type": "function"
    },
    {
      "inputs": [],
      "name": "claim",
      "outputs": [],
      "stateMutability": "nonpayable",
      "type": "function"
    },
    {
      "inputs": [
        {
          "internalType": "uint256",
          "name": "amount",
          "type": "uint256"
        }
      ],
      "name": "deposit",
      "outputs": [],
      "stateMutability": "nonpayable",
      "type": "function"
    },
    {
      "inputs": [],
      "name": "dump",
      "outputs": [],
      "stateMutability": "nonpayable",
      "type": "function"
    },
    {
      "inputs": [],
      "name": "getCurrentPrice",
      "outputs": [
        {
          "internalType": "uint256",
          "name": "",
          "type": "uint256"
        }
      ],
      "stateMutability": "view",
      "type": "function"
    },
    {
      "inputs": [],
      "name": "getRate",
      "outputs": [
        {
          "internalType": "uint256",
          "name": "",
          "type": "uint256"
        }
      ],
      "stateMutability": "view",
      "type": "function"
    },
    {
      "inputs": [],
      "name": "getToken",
      "outputs": [
        {
          "internalType": "address",
          "name": "",
          "type": "address"
        }
      ],
      "stateMutability": "view",
      "type": "function"
    },
    {
      "inputs": [],
      "name": "maxSupply",
      "outputs": [
        {
          "internalType": "uint256",
          "name": "",
          "type": "uint256"
        }
      ],
      "stateMutability": "view",
      "type": "function"
    },
    {
      "inputs": [
        {
          "internalType": "uint256",
          "name": "amount",
          "type": "uint256"
        }
      ],
      "name": "merge",
      "outputs": [
        {
          "internalType": "uint256",
          "name": "",
          "type": "uint256"
        }
      ],
      "stateMutability": "nonpayable",
      "type": "function"
    },
    {
      "inputs": [],
      "name": "mergeAll",
      "outputs": [
        {
          "internalType": "uint256",
          "name": "",
          "type": "uint256"
        }
      ],
      "stateMutability": "nonpayable",
      "type": "function"
    },
    {
      "inputs": [],
      "name": "name",
      "outputs": [
        {
          "internalType": "string",
          "name": "",
          "type": "string"
        }
      ],
      "stateMutability": "view",
      "type": "function"
    },
    {
      "inputs": [],
      "name": "owner",
      "outputs": [
        {
          "internalType": "address",
          "name": "",
          "type": "address"
        }
      ],
      "stateMutability": "view",
      "type": "function"
    },
    {
      "inputs": [],
      "name": "paused",
      "outputs": [
        {
          "internalType": "bool",
          "name": "",
          "type": "bool"
        }
      ],
      "stateMutability": "view",
      "type": "function"
    },
    {
      "inputs": [
        {
          "internalType": "address",
          "name": "from",
          "type": "address"
        },
        {
          "internalType": "uint256",
          "name": "amount",
          "type": "uint256"
        },
        {
          "internalType": "address",
          "name": "",
          "type": "address"
        },
        {
          "internalType": "bytes",
          "name": "",
          "type": "bytes"
        }
      ],
      "name": "receiveApproval",
      "outputs": [],
      "stateMutability": "nonpayable",
      "type": "function"
    },
    {
      "inputs": [],
      "name": "renounceOwnership",
      "outputs": [],
      "stateMutability": "nonpayable",
      "type": "function"
    },
    {
      "inputs": [
        {
          "internalType": "address",
          "name": "amm",
          "type": "address"
        }
      ],
      "name": "setAdaptor",
      "outputs": [],
      "stateMutability": "nonpayable",
      "type": "function"
    },
    {
      "inputs": [
        {
          "internalType": "address",
          "name": "_treasury",
          "type": "address"
        }
      ],
      "name": "setTreasury",
      "outputs": [],
      "stateMutability": "nonpayable",
      "type": "function"
    },
    {
      "inputs": [
        {
          "internalType": "uint32",
          "name": "duration",
          "type": "uint32"
        }
      ],
      "name": "setVestingDuration",
      "outputs": [],
      "stateMutability": "nonpayable",
      "type": "function"
    },
    {
      "inputs": [
        {
          "internalType": "uint256",
          "name": "value",
          "type": "uint256"
        }
      ],
      "name": "setVirtualTokenBalance",
      "outputs": [],
      "stateMutability": "nonpayable",
      "type": "function"
    },
    {
      "inputs": [
        {
          "internalType": "uint256",
          "name": "value",
          "type": "uint256"
        }
      ],
      "name": "setVirtualWeWEBalance",
      "outputs": [],
      "stateMutability": "nonpayable",
      "type": "function"
    },
    {
      "inputs": [],
      "name": "sweep",
      "outputs": [],
      "stateMutability": "nonpayable",
      "type": "function"
    },
    {
      "inputs": [],
      "name": "togglePause",
      "outputs": [],
      "stateMutability": "nonpayable",
      "type": "function"
    },
    {
      "inputs": [],
      "name": "totalVested",
      "outputs": [
        {
          "internalType": "uint256",
          "name": "",
          "type": "uint256"
        }
      ],
      "stateMutability": "view",
      "type": "function"
    },
    {
      "inputs": [
        {
          "internalType": "address",
          "name": "newOwner",
          "type": "address"
        }
      ],
      "name": "transferOwnership",
      "outputs": [],
      "stateMutability": "nonpayable",
      "type": "function"
    },
    {
      "inputs": [],
      "name": "treasury",
      "outputs": [
        {
          "internalType": "address",
          "name": "",
          "type": "address"
        }
      ],
      "stateMutability": "view",
      "type": "function"
    },
    {
      "inputs": [],
      "name": "vestingDuration",
      "outputs": [
        {
          "internalType": "uint32",
          "name": "",
          "type": "uint32"
        }
      ],
      "stateMutability": "view",
      "type": "function"
    },
    {
      "inputs": [
        {
          "internalType": "address",
          "name": "",
          "type": "address"
        }
      ],
      "name": "vestings",
      "outputs": [
        {
          "internalType": "uint256",
          "name": "amount",
          "type": "uint256"
        },
        {
          "internalType": "uint256",
          "name": "end",
          "type": "uint256"
        }
      ],
      "stateMutability": "view",
      "type": "function"
    },
    {
      "inputs": [],
      "name": "virtualToken",
      "outputs": [
        {
          "internalType": "uint256",
          "name": "",
          "type": "uint256"
        }
      ],
      "stateMutability": "view",
      "type": "function"
    },
    {
      "inputs": [],
      "name": "virtualWEWE",
      "outputs": [
        {
          "internalType": "uint256",
          "name": "",
          "type": "uint256"
        }
      ],
      "stateMutability": "view",
      "type": "function"
    },
    {
      "inputs": [],
      "name": "wewe",
      "outputs": [
        {
          "internalType": "address",
          "name": "",
          "type": "address"
        }
      ],
      "stateMutability": "view",
      "type": "function"
    },
    {
      "inputs": [
        {
          "internalType": "address",
          "name": "",
          "type": "address"
        }
      ],
      "name": "whiteList",
      "outputs": [
        {
          "internalType": "bool",
          "name": "",
          "type": "bool"
        }
      ],
      "stateMutability": "view",
      "type": "function"
    }
  ],
  "bytecode": "0x608060409080825234620002ae5760a08162001c6b8038038091620000258285620002b3565b833981010312620002ae576200003b81620002ed565b906020906200004c828201620002ed565b92848201519263ffffffff8416809403620002ae576060830151608090930151600160008181558154610100600160a81b0333600881811b929092166001600160a81b03198416179094558a51949997988998939790946001600160a01b03949385931c83167f8be0079c531659141344cd1fd0a4f28419497f9722a3daafe3b4186f6b6457e08a80a31693841562000261575016918215620002115791839291816004959360018060a01b031990816003541617600355600254161760025563ffffffff19600854161760085588519384809263313ce56760e01b82525afa90811562000207578391620001c3575b5060ff9150166012811062000163575b505050600b55600c55516119689081620003038239f35b9091925060120360128111620001af57604d8111620001af57600a0a918281029281840414901517156200019b57503880806200014c565b634e487b7160e01b81526011600452602490fd5b634e487b7160e01b82526011600452602482fd5b905081813d8311620001ff575b620001dc8183620002b3565b81010312620001fb575160ff81168103620001fb5760ff90386200013c565b5080fd5b503d620001d0565b87513d85823e3d90fd5b885162461bcd60e51b815260048101859052602360248201527f44796e616d696345617465723a20496e76616c696420746f6b656e206164647260448201526265737360e81b6064820152608490fd5b62461bcd60e51b815260048101869052602260248201527f44796e616d696345617465723a20496e76616c69642057455745206164647265604482015261737360f01b6064820152608490fd5b600080fd5b601f909101601f19168101906001600160401b03821190821017620002d757604052565b634e487b7160e01b600052604160045260246000fd5b51906001600160a01b0382168203620002ae5756fe6080604081815260048036101561001557600080fd5b600092833560e01c90816306fdde0314611214575080631514617e146111ef578063199cbc54146111d05780631f514c52146111b157806321df0da71461118857806324a47aeb146110425780633586d51414610f9c57806335faa41614610e4a578063372c12b114610e0c5780634e71d92d14610d725780634fa1f10414610c515780635c975abb14610c2d57806361d027b314610c06578063655a9ac214610be4578063679aefce14610b4957806370a0823114610b11578063715018a614610ab05780638da5cb5b14610a835780638f4ffcb1146108f05780639636d881146108b55780639ed4527e14610896578063a718d11b1461084457838163b6b55f25146107b657508063bf3506c114610777578063c2cd9b2b1461074e578063c4ae31681461066b578063d5abeb011461064c578063daf498631461060a578063dece1baa146105e8578063e1f26f22146105bf578063e4330545146104bc578063ea9f241714610322578063eb91d37e146102c6578063f0f44260146102815763f2fde38b146101a657600080fd5b3461027d57602036600319011261027d576101bf61138c565b6101c76113a7565b6001600160a01b0381811693909290841561022b57505060018054610100600160a81b03198116600893841b610100600160a81b031617909155901c167f8be0079c531659141344cd1fd0a4f28419497f9722a3daafe3b4186f6b6457e08380a380f35b906020608492519162461bcd60e51b8352820152602660248201527f4f776e61626c653a206e6577206f776e657220697320746865207a65726f206160448201526564647265737360d01b6064820152fd5b8280fd5b8382346102c25760203660031901126102c25761029c61138c565b6102a46113a7565b81546001600160a01b0319166001600160a01b039190911617905580f35b5080fd5b50913461031f578060031936011261031f576102e0611483565b926103e89384810294818604149015171561030c5760208361030586600b5490611463565b9051908152f35b634e487b7160e01b825260119052602490fd5b80fd5b50913461031f578060031936011261031f5761033c611568565b60025482516370a0823160e01b8152338186015260209490926001600160a01b03928316928685602481875afa94851561044c57829561048d575b5085516323b872dd60e01b815285948890829081868161039b8b30338d8501611546565b03925af18015610483579188918593610456575b506002541687519283809263313ce56760e01b82525afa90811561044c579060ff91839161041f575b5016601281106103ef575b868661030533876115ac565b90919250601203916012831161030c5750506103059161041161041792611513565b9061143a565b3880806103e3565b61043f9150883d8a11610445575b6104378183611402565b8101906114fa565b386103d8565b503d61042d565b86513d84823e3d90fd5b61047590833d851161047c575b61046d8183611402565b810190611521565b50386103af565b503d610463565b87513d85823e3d90fd5b9094508681813d83116104b5575b6104a58183611402565b810103126102c257519338610377565b503d61049b565b509190346102c257816003193601126102c25760035481516370a0823160e01b8152308582015293602092918390869060249082906001600160a01b03165afa9485156105b5578495610582575b508415610546575061053d7fa7a5838120ec6c2ca5291f32459f820c6230c6b5d0fa06a111e49badb5e6c84b9394611877565b9051908152a180f35b82606492519162461bcd60e51b83528201526018602482015277064756d703a204e6f2062616c616e636520746f2064756d760441b6044820152fd5b9094508281813d83116105ae575b61059a8183611402565b810103126105aa5751933861050a565b8380fd5b503d610590565b82513d86823e3d90fd5b5050346102c257816003193601126102c25760035490516001600160a01b039091168152602090f35b8382346102c25760203660031901126102c2576106036113a7565b35600c5580f35b5050346102c25760203660031901126102c2579081906001600160a01b0361063061138c565b1681526009602052206001815491015482519182526020820152f35b5050346102c257816003193601126102c2576020906007549051908152f35b503461027d578260031936011261027d576106846113a7565b60015460ff81161561070d57506001549060ff8216156106d3575060ff1916600155513381527f5db9ee0a495bf2e6ff9c91a7834c1ba4fdd244a5e8aa4e537bd38aeae4b073aa90602090a180f35b606490602084519162461bcd60e51b8352820152601460248201527314185d5cd8589b194e881b9bdd081c185d5cd95960621b6044820152fd5b602091509160017f62e78cea01bee320cd4e420270b5ea74000d11b0c9f74754ebdbfc544b05a2589361073e611568565b60ff19161760015551338152a180f35b5050346102c257816003193601126102c257600d5490516001600160a01b039091168152602090f35b5050346102c25760203660031901126102c25760209160019082906001600160a01b036107a261138c565b168152600985522001549051904210158152f35b80848434610840576020366003190112610840576108086020916107d86113a7565b60035484516323b872dd60e01b81529586936001600160a01b039092169284928391803590309033908501611546565b03925af1908115610837575061081c575080f35b6108339060203d811161047c5761046d8183611402565b5080f35b513d84823e3d90fd5b5050fd5b5050346102c257806003193601126102c25761085e61138c565b90602435918215158093036105aa576108756113a7565b60018060a01b03168352600a60205282209060ff8019835416911617905580f35b5050346102c257816003193601126102c257602090600c549051908152f35b8382346102c25760203660031901126102c2573563ffffffff81168091036102c2576108df6113a7565b63ffffffff19600854161760085580f35b503461027d57608036600319011261027d5761090a61138c565b90602435906001600160a01b0360443581811603610a7b5760643567ffffffffffffffff808211610a7f5736602383011215610a7f5781840135908111610a7f5736910160240111610a7b576002865414610a38576002865561096b611568565b600254169081156109e6578261099c926020928888518096819582946323b872dd60e01b8452309033908501611546565b03925af180156109dc576109b694506109be575b506115ac565b506001815580f35b6109d59060203d811161047c5761046d8183611402565b50386109b0565b84513d87823e3d90fd5b608490602086519162461bcd60e51b8352820152602660248201527f72656365697665417070726f76616c3a20546f6b656e2061646472657373206e6044820152651bdd081cd95d60d21b6064820152fd5b845162461bcd60e51b8152602081840152601f60248201527f5265656e7472616e637947756172643a207265656e7472616e742063616c6c006044820152606490fd5b8580fd5b8780fd5b5050346102c257816003193601126102c257600154905160089190911c6001600160a01b03168152602090f35b833461031f578060031936011261031f57610ac96113a7565b60018054610100600160a81b03198116909155819060081c6001600160a01b03167f8be0079c531659141344cd1fd0a4f28419497f9722a3daafe3b4186f6b6457e08280a380f35b5050346102c25760203660031901126102c25760209181906001600160a01b03610b3961138c565b1681526009845220549051908152f35b503461027d578260031936011261027d57600254825163313ce56760e01b81529160209183919082906001600160a01b03165afa908115610bd85760ff61030592610b9e9260209691610bbb575b5016611513565b610bb6610bad82600b54611539565b91610411611483565b611463565b610bd29150863d8111610445576104378183611402565b38610b97565b505051903d90823e3d90fd5b8382346102c25760203660031901126102c257610bff6113a7565b35600b5580f35b503461027d578260031936011261027d575490516001600160a01b03909116815260209150f35b5050346102c257816003193601126102c25760209060ff6001541690519015158152f35b50913461031f57602092836003193601126102c257600254835163313ce56760e01b808252833594926001600160a01b03169187818681865afa908115610d685760ff8993926012928791610d4b575b501610610cbe575b508561030586610bb6610bad82600b54611539565b8487518094819382525afa908115610d41579060ff918391610d24575b501660120360ff8111610d115760ff1691604d831161030c57505061030591610d0791600a0a9061143a565b9038808581610ca9565b506011602492634e487b7160e01b835252fd5b610d3b9150873d8911610445576104378183611402565b38610cdb565b85513d84823e3d90fd5b610d629150853d8711610445576104378183611402565b38610ca1565b87513d86823e3d90fd5b50903461027d578260031936011261027d57610d8c611568565b63ffffffff6008541615610dff575b3383526009602052600181842001544210610dbc5782610db96117fc565b80f35b906020606492519162461bcd60e51b8352820152602060248201527f7768656e436c61696d61626c653a2056657374696e67206e6f7420656e6465646044820152fd5b610e076117fc565b610d9b565b5050346102c25760203660031901126102c25760209160ff9082906001600160a01b03610e3761138c565b168152600a855220541690519015158152f35b509190346102c257816003193601126102c257610e656113a7565b60035481516370a0823160e01b8152308582015293602092916001600160a01b0390811691908487602481865afa968715610f92578697610f63575b508615610f2057600154845163a9059cbb60e01b81526001600160a01b0360089290921c90921616918101918252602082018790529291849184919082908890829060400103925af1908115610f175750610efa578280f35b81610f1092903d1061047c5761046d8183611402565b5081808280f35b513d85823e3d90fd5b835162461bcd60e51b8152808301869052601a60248201527f73776565703a204e6f2062616c616e636520746f2073776565700000000000006044820152606490fd5b9096508481813d8311610f8b575b610f7b8183611402565b81010312610a7b57519538610ea1565b503d610f71565b84513d88823e3d90fd5b50903461027d57602036600319011261027d57610fb761138c565b610fbf6113a7565b600d80546001600160a01b0319166001600160a01b0392831690811790915580610fe7578480f35b60446020926002541694868551968794859363095ea7b360e01b855284015260001960248401525af19081156108375750611024575b8080808480f35b61103b9060203d811161047c5761046d8183611402565b503861101d565b503461027d576020928360031936011261031f57813591611061611568565b60025484516370a0823160e01b815233838201528493916001600160a01b0391908216908881602481855afa90811561117e57908791859161114d575b50106110ff5787875180926323b872dd60e01b82528186816110c48c30338d8501611546565b03925af180156104835791889185936110e2575b506103af87611877565b6110f890833d851161047c5761046d8183611402565b50386110d8565b865162461bcd60e51b8152808501899052602260248201527f6d657267653a20496e73756666696369656e742062616c616e636520746f2065604482015261185d60f21b6064820152608490fd5b8092508a8092503d8311611177575b6111668183611402565b810103126105aa578690513861109e565b503d61115c565b88513d86823e3d90fd5b5050346102c257816003193601126102c25760025490516001600160a01b039091168152602090f35b5050346102c257816003193601126102c257602090600b549051908152f35b5050346102c257816003193601126102c2576020906005549051908152f35b5050346102c257816003193601126102c25760209063ffffffff600854169051908152f35b9390503461031f578060031936011261031f576002546306fdde0360e01b855281908590849082906001600160a01b03165afa91821561135d5781926112c0575b6112b2848481519061129760268360208101936502bb2abb29d160d51b85526112878151809260208686019101611369565b8101036006810185520183611402565b82519384926020845251809281602086015285850190611369565b601f01601f19168101030190f35b9091503d8083863e6112d28186611402565b84019160208584031261031f57845167ffffffffffffffff9586821161027d57019183601f840112156102c257825195861161134a5750835192611320601f8701601f191660200185611402565b8584526020868401011161031f57506112b2936113439160208085019101611369565b3880611255565b634e487b7160e01b825260419052602490fd5b508251903d90823e3d90fd5b60005b83811061137c5750506000910152565b818101518382015260200161136c565b600435906001600160a01b03821682036113a257565b600080fd5b60015460081c6001600160a01b031633036113be57565b606460405162461bcd60e51b815260206004820152602060248201527f4f776e61626c653a2063616c6c6572206973206e6f7420746865206f776e65726044820152fd5b90601f8019910116810190811067ffffffffffffffff82111761142457604052565b634e487b7160e01b600052604160045260246000fd5b8181029291811591840414171561144d57565b634e487b7160e01b600052601160045260246000fd5b811561146d570490565b634e487b7160e01b600052601260045260246000fd5b600c5460055480821061149c57810390811161144d5790565b60405162461bcd60e51b815260206004820152603060248201527f44796e616d696345617465723a207669727475616c57455745206c657373207460448201526f1a185b881d1bdd185b081d995cdd195960821b6064820152608490fd5b908160209103126113a2575160ff811681036113a25790565b604d811161144d57600a0a90565b908160209103126113a2575180151581036113a25790565b9190820180921161144d57565b6001600160a01b03918216815291166020820152604081019190915260600190565b60ff6001541661157457565b60405162461bcd60e51b815260206004820152601060248201526f14185d5cd8589b194e881c185d5cd95960821b6044820152606490fd5b6115cc6115bb82600b54611539565b610bb66115c6611483565b8461143a565b600354604080516370a0823160e01b8152306004820152929460209391926001600160a01b0392908316908581602481855afa908115611769576000916117cf575b5087116117745760085463ffffffff91908216156116da5750828216948560005260098152611641856000205489611539565b91603c81600854160290811690810361144d5761165e9042611539565b8551908682019082821067ffffffffffffffff831117611424577fabe5455971bdcd932e7251d16cd53f88cd4410bf4df21530e88bf13dade6a7d4988b956001938a528452848401918252600052600984528760002092518355519101556116c882600554611539565b6005555b84519687528601521692a290565b845163a9059cbb60e01b81526001600160a01b0384166004820152602481018990529495939492939291508290829060449082906000905af18015611769579187917fabe5455971bdcd932e7251d16cd53f88cd4410bf4df21530e88bf13dade6a7d49695949361174c575b506116cc565b61176290823d841161047c5761046d8183611402565b5038611746565b85513d6000823e3d90fd5b835162461bcd60e51b815260048101869052602e60248201527f5f6d657267653a20496e73756666696369656e7420746f6b656e2062616c616e60448201526d31b2903a37903a3930b739b332b960911b6064820152608490fd5b908682813d83116117f5575b6117e58183611402565b8101031261031f5750513861160e565b503d6117db565b336000818152600960209081526040808320805490849055600354915163a9059cbb60e01b8152600481019590955260248501529091839160449183916001600160a01b03165af1801561186b576118515750565b6118689060203d811161047c5761046d8183611402565b50565b6040513d6000823e3d90fd5b600d546001600160a01b039081169190821561192a5780600454169081156119215760025416604051926302454b7160e41b84526004840152602483015260448201526080606482015260208160a481600080968160848401525af19182156119155780926118e557505090565b9091506020823d821161190d575b8161190060209383611402565b8101031261031f57505190565b3d91506118f3565b604051903d90823e3d90fd5b50505050600090565b50505060009056fea26469706673582212200276ab3577bfa9a1e088dd28c4358c60cbaa1b2204f19331b0e012ab6c2cd54a64736f6c63430008130033",
  "linkReferences": {},
  "deployedLinkReferences": {}
}