{
  "_format": "hh-sol-artifact-1",
  "contractName": "DynamicEater",
  "sourceName": "contracts/core/merge/DynamicEater.sol",
  "abi": [
    {
      "inputs": [
        {
          "internalType": "address",
          "name": "_wewe",
          "type": "address"
        },
        {
          "internalType": "address",
          "name": "_token",
          "type": "address"
        },
        {
          "internalType": "uint32",
          "name": "_vestingDuration",
          "type": "uint32"
        },
        {
          "internalType": "uint256",
          "name": "_virtualFOMO",
          "type": "uint256"
        },
        {
          "internalType": "uint256",
          "name": "_virtualWEWE",
          "type": "uint256"
        }
      ],
      "stateMutability": "nonpayable",
      "type": "constructor"
    },
    {
      "anonymous": false,
      "inputs": [
        {
          "indexed": false,
          "internalType": "uint256",
          "name": "amount",
          "type": "uint256"
        },
        {
          "indexed": true,
          "internalType": "address",
          "name": "account",
          "type": "address"
        },
        {
          "indexed": false,
          "internalType": "uint256",
          "name": "weweAmount",
          "type": "uint256"
        }
      ],
      "name": "Merged",
      "type": "event"
    },
    {
      "anonymous": false,
      "inputs": [
        {
          "indexed": true,
          "internalType": "address",
          "name": "previousOwner",
          "type": "address"
        },
        {
          "indexed": true,
          "internalType": "address",
          "name": "newOwner",
          "type": "address"
        }
      ],
      "name": "OwnershipTransferred",
      "type": "event"
    },
    {
      "anonymous": false,
      "inputs": [
        {
          "indexed": false,
          "internalType": "address",
          "name": "account",
          "type": "address"
        }
      ],
      "name": "Paused",
      "type": "event"
    },
    {
      "anonymous": false,
      "inputs": [
        {
          "indexed": false,
          "internalType": "uint256",
          "name": "newRate",
          "type": "uint256"
        }
      ],
      "name": "RateChanged",
      "type": "event"
    },
    {
      "anonymous": false,
      "inputs": [
        {
          "indexed": false,
          "internalType": "address",
          "name": "account",
          "type": "address"
        }
      ],
      "name": "Unpaused",
      "type": "event"
    },
    {
      "inputs": [
        {
          "internalType": "address",
          "name": "account",
          "type": "address"
        },
        {
          "internalType": "bool",
          "name": "status",
          "type": "bool"
        }
      ],
      "name": "addWhiteList",
      "outputs": [],
      "stateMutability": "nonpayable",
      "type": "function"
    },
    {
      "inputs": [
        {
          "internalType": "address",
          "name": "account",
          "type": "address"
        }
      ],
      "name": "balanceOf",
      "outputs": [
        {
          "internalType": "uint256",
          "name": "",
          "type": "uint256"
        }
      ],
      "stateMutability": "view",
      "type": "function"
    },
    {
      "inputs": [
        {
          "internalType": "uint256",
          "name": "x",
          "type": "uint256"
        }
      ],
      "name": "calculateTokensOut",
      "outputs": [
        {
          "internalType": "uint256",
          "name": "",
          "type": "uint256"
        }
      ],
      "stateMutability": "view",
      "type": "function"
    },
    {
      "inputs": [
        {
          "internalType": "address",
          "name": "account",
          "type": "address"
        }
      ],
      "name": "canClaim",
      "outputs": [
        {
          "internalType": "bool",
          "name": "",
          "type": "bool"
        }
      ],
      "stateMutability": "view",
      "type": "function"
    },
    {
      "inputs": [],
      "name": "claim",
      "outputs": [],
      "stateMutability": "nonpayable",
      "type": "function"
    },
    {
      "inputs": [
        {
          "internalType": "uint256",
          "name": "amount",
          "type": "uint256"
        }
      ],
      "name": "deposit",
      "outputs": [],
      "stateMutability": "nonpayable",
      "type": "function"
    },
    {
      "inputs": [],
      "name": "getCurrentPrice",
      "outputs": [
        {
          "internalType": "uint256",
          "name": "",
          "type": "uint256"
        }
      ],
      "stateMutability": "view",
      "type": "function"
    },
    {
      "inputs": [],
      "name": "getRate",
      "outputs": [
        {
          "internalType": "uint256",
          "name": "",
          "type": "uint256"
        }
      ],
      "stateMutability": "view",
      "type": "function"
    },
    {
      "inputs": [],
      "name": "getToken",
      "outputs": [
        {
          "internalType": "address",
          "name": "",
          "type": "address"
        }
      ],
      "stateMutability": "view",
      "type": "function"
    },
    {
      "inputs": [],
      "name": "maxSupply",
      "outputs": [
        {
          "internalType": "uint256",
          "name": "",
          "type": "uint256"
        }
      ],
      "stateMutability": "view",
      "type": "function"
    },
    {
      "inputs": [
        {
          "internalType": "uint256",
          "name": "amount",
          "type": "uint256"
        }
      ],
      "name": "merge",
      "outputs": [
        {
          "internalType": "uint256",
          "name": "",
          "type": "uint256"
        }
      ],
      "stateMutability": "nonpayable",
      "type": "function"
    },
    {
      "inputs": [],
      "name": "mergeAll",
      "outputs": [
        {
          "internalType": "uint256",
          "name": "",
          "type": "uint256"
        }
      ],
      "stateMutability": "nonpayable",
      "type": "function"
    },
    {
      "inputs": [
        {
          "internalType": "uint256",
          "name": "amount",
          "type": "uint256"
        },
        {
          "internalType": "contract IAMM",
          "name": "amm",
          "type": "address"
        },
        {
          "internalType": "bytes",
          "name": "extraData",
          "type": "bytes"
        }
      ],
      "name": "mergeAndSell",
      "outputs": [],
      "stateMutability": "nonpayable",
      "type": "function"
    },
    {
      "inputs": [],
      "name": "owner",
      "outputs": [
        {
          "internalType": "address",
          "name": "",
          "type": "address"
        }
      ],
      "stateMutability": "view",
      "type": "function"
    },
    {
      "inputs": [],
      "name": "paused",
      "outputs": [
        {
          "internalType": "bool",
          "name": "",
          "type": "bool"
        }
      ],
      "stateMutability": "view",
      "type": "function"
    },
    {
      "inputs": [
        {
          "internalType": "address",
          "name": "from",
          "type": "address"
        },
        {
          "internalType": "uint256",
          "name": "amount",
          "type": "uint256"
        },
        {
          "internalType": "address",
          "name": "",
          "type": "address"
        },
        {
          "internalType": "bytes",
          "name": "",
          "type": "bytes"
        }
      ],
      "name": "receiveApproval",
      "outputs": [],
      "stateMutability": "nonpayable",
      "type": "function"
    },
    {
      "inputs": [],
      "name": "renounceOwnership",
      "outputs": [],
      "stateMutability": "nonpayable",
      "type": "function"
    },
    {
      "inputs": [
        {
          "internalType": "address",
          "name": "_treasury",
          "type": "address"
        }
      ],
      "name": "setTreasury",
      "outputs": [],
      "stateMutability": "nonpayable",
      "type": "function"
    },
    {
      "inputs": [
        {
          "internalType": "uint32",
          "name": "duration",
          "type": "uint32"
        }
      ],
      "name": "setVestingDuration",
      "outputs": [],
      "stateMutability": "nonpayable",
      "type": "function"
    },
    {
      "inputs": [
        {
          "internalType": "uint256",
          "name": "value",
          "type": "uint256"
        }
      ],
      "name": "setVirtualTokenBalance",
      "outputs": [],
      "stateMutability": "nonpayable",
      "type": "function"
    },
    {
      "inputs": [
        {
          "internalType": "uint256",
          "name": "value",
          "type": "uint256"
        }
      ],
      "name": "setVirtualWeWEBalance",
      "outputs": [],
      "stateMutability": "nonpayable",
      "type": "function"
    },
    {
      "inputs": [],
      "name": "sweep",
      "outputs": [],
      "stateMutability": "nonpayable",
      "type": "function"
    },
    {
      "inputs": [],
      "name": "togglePause",
      "outputs": [],
      "stateMutability": "nonpayable",
      "type": "function"
    },
    {
      "inputs": [],
      "name": "totalVested",
      "outputs": [
        {
          "internalType": "uint256",
          "name": "",
          "type": "uint256"
        }
      ],
      "stateMutability": "view",
      "type": "function"
    },
    {
      "inputs": [
        {
          "internalType": "address",
          "name": "newOwner",
          "type": "address"
        }
      ],
      "name": "transferOwnership",
      "outputs": [],
      "stateMutability": "nonpayable",
      "type": "function"
    },
    {
      "inputs": [],
      "name": "treasury",
      "outputs": [
        {
          "internalType": "address",
          "name": "",
          "type": "address"
        }
      ],
      "stateMutability": "view",
      "type": "function"
    },
    {
      "inputs": [],
      "name": "vestingDuration",
      "outputs": [
        {
          "internalType": "uint32",
          "name": "",
          "type": "uint32"
        }
      ],
      "stateMutability": "view",
      "type": "function"
    },
    {
      "inputs": [
        {
          "internalType": "address",
          "name": "",
          "type": "address"
        }
      ],
      "name": "vestings",
      "outputs": [
        {
          "internalType": "uint256",
          "name": "amount",
          "type": "uint256"
        },
        {
          "internalType": "uint256",
          "name": "end",
          "type": "uint256"
        }
      ],
      "stateMutability": "view",
      "type": "function"
    },
    {
      "inputs": [],
      "name": "virtualFOMO",
      "outputs": [
        {
          "internalType": "uint256",
          "name": "",
          "type": "uint256"
        }
      ],
      "stateMutability": "view",
      "type": "function"
    },
    {
      "inputs": [],
      "name": "virtualWEWE",
      "outputs": [
        {
          "internalType": "uint256",
          "name": "",
          "type": "uint256"
        }
      ],
      "stateMutability": "view",
      "type": "function"
    },
    {
      "inputs": [],
      "name": "wewe",
      "outputs": [
        {
          "internalType": "address",
          "name": "",
          "type": "address"
        }
      ],
      "stateMutability": "view",
      "type": "function"
    },
    {
      "inputs": [
        {
          "internalType": "address",
          "name": "",
          "type": "address"
        }
      ],
      "name": "whiteList",
      "outputs": [
        {
          "internalType": "bool",
          "name": "",
          "type": "bool"
        }
      ],
      "stateMutability": "view",
      "type": "function"
    }
  ],
  "bytecode": "0x608060409080825234620002ae5760a08162001afc8038038091620000258285620002b3565b833981010312620002ae576200003b81620002ed565b906020906200004c828201620002ed565b92848201519263ffffffff8416809403620002ae576060830151608090930151600160008181558154610100600160a81b0333600881811b929092166001600160a81b03198416179094558a51949997988998939790946001600160a01b03949385931c83167f8be0079c531659141344cd1fd0a4f28419497f9722a3daafe3b4186f6b6457e08a80a31693841562000261575016918215620002115791839291816004959360018060a01b031990816003541617600355600254161760025563ffffffff19600854161760085588519384809263313ce56760e01b82525afa90811562000207578391620001c3575b5060ff9150166012811062000163575b505050600b55600c55516117f99081620003038239f35b9091925060120360128111620001af57604d8111620001af57600a0a918281029281840414901517156200019b57503880806200014c565b634e487b7160e01b81526011600452602490fd5b634e487b7160e01b82526011600452602482fd5b905081813d8311620001ff575b620001dc8183620002b3565b81010312620001fb575160ff81168103620001fb5760ff90386200013c565b5080fd5b503d620001d0565b87513d85823e3d90fd5b885162461bcd60e51b815260048101859052602360248201527f44796e616d696345617465723a20496e76616c696420746f6b656e206164647260448201526265737360e81b6064820152608490fd5b62461bcd60e51b815260048101869052602260248201527f44796e616d696345617465723a20496e76616c69642057455745206164647265604482015261737360f01b6064820152608490fd5b600080fd5b601f909101601f19168101906001600160401b03821190821017620002d757604052565b634e487b7160e01b600052604160045260246000fd5b51906001600160a01b0382168203620002ae5756fe6080604081815260048036101561001557600080fd5b600092833560e01c9081631514617e146111bb57508063199cbc541461119c57838163213897fe14610f545750806321df0da714610f2b57806324a47aeb14610e6a57806329b30c8d14610e4b57806335faa41614610cef578063372c12b114610cb15780634e71d92d14610c175780634fa1f10414610b005780635c975abb14610adc57806361d027b314610ab5578063655a9ac214610a93578063679aefce14610a1057806370a08231146109d8578063715018a6146109775780638da5cb5b1461094a5780638f4ffcb1146108155780639636d881146107da5780639ed4527e146107bb578063a718d11b1461076557838163b6b55f25146106d757508063bf3506c114610698578063c4ae3168146105b5578063d5abeb0114610596578063daf4986314610554578063dece1baa14610532578063e1f26f2214610509578063ea9f24171461036f578063eb91d37e146102a7578063f0f44260146102625763f2fde38b1461018757600080fd5b3461025e57602036600319011261025e576101a0611210565b6101a8611226565b6001600160a01b0381811693909290841561020c57505060018054610100600160a81b03198116600893841b610100600160a81b031617909155901c167f8be0079c531659141344cd1fd0a4f28419497f9722a3daafe3b4186f6b6457e08380a380f35b906020608492519162461bcd60e51b8352820152602660248201527f4f776e61626c653a206e6577206f776e657220697320746865207a65726f206160448201526564647265737360d01b6064820152fd5b8280fd5b8382346102a35760203660031901126102a35761027d611210565b610285611226565b81546001600160a01b0319166001600160a01b039190911617905580f35b5080fd5b50913461036c578060031936011261036c57600c546005549081811061031057906102d1916112ca565b926103e8938481029481860414901517156102fd576020836102f686600b54906112aa565b9051908152f35b634e487b7160e01b825260119052602490fd5b835162461bcd60e51b8152602081870152603060248201527f44796e616d696345617465723a207669727475616c57455745206c657373207460448201526f1a185b881d1bdd185b081d995cdd195960821b6064820152608490fd5b80fd5b50913461036c578060031936011261036c5761038961146f565b60025482516370a0823160e01b8152338186015260209490926001600160a01b03928316928685602481875afa9485156104995782956104da575b5085516323b872dd60e01b81528594889082908186816103e88b30338d850161144d565b03925af180156104d05791889185936104a3575b506002541687519283809263313ce56760e01b82525afa908115610499579060ff91839161046c575b50166012811061043c575b86866102f63387611509565b9091925060120391601283116102fd5750506102f69161045e61046492611328565b90611281565b388080610430565b61048c9150883d8a11610492575b61048481836112d7565b81019061130f565b38610425565b503d61047a565b86513d84823e3d90fd5b6104c290833d85116104c9575b6104ba81836112d7565b810190611435565b50386103fc565b503d6104b0565b87513d85823e3d90fd5b9094508681813d8311610502575b6104f281836112d7565b810103126102a3575193386103c4565b503d6104e8565b5050346102a357816003193601126102a35760035490516001600160a01b039091168152602090f35b8382346102a35760203660031901126102a35761054d611226565b35600c5580f35b5050346102a35760203660031901126102a3579081906001600160a01b0361057a611210565b1681526009602052206001815491015482519182526020820152f35b5050346102a357816003193601126102a3576020906007549051908152f35b503461025e578260031936011261025e576105ce611226565b60015460ff81161561065757506001549060ff82161561061d575060ff1916600155513381527f5db9ee0a495bf2e6ff9c91a7834c1ba4fdd244a5e8aa4e537bd38aeae4b073aa90602090a180f35b606490602084519162461bcd60e51b8352820152601460248201527314185d5cd8589b194e881b9bdd081c185d5cd95960621b6044820152fd5b602091509160017f62e78cea01bee320cd4e420270b5ea74000d11b0c9f74754ebdbfc544b05a2589361068861146f565b60ff19161760015551338152a180f35b5050346102a35760203660031901126102a35760209160019082906001600160a01b036106c3611210565b168152600985522001549051904210158152f35b80848434610761576020366003190112610761576107296020916106f9611226565b60035484516323b872dd60e01b81529586936001600160a01b03909216928492839180359030903390850161144d565b03925af1908115610758575061073d575080f35b6107549060203d81116104c9576104ba81836112d7565b5080f35b513d84823e3d90fd5b5050fd5b5050346102a357806003193601126102a35761077f611210565b90602435918215158093036107b757610796611226565b60018060a01b03168352600a60205282209060ff8019835416911617905580f35b8380fd5b5050346102a357816003193601126102a357602090600c549051908152f35b8382346102a35760203660031901126102a3573563ffffffff81168091036102a357610804611226565b63ffffffff19600854161760085580f35b503461025e57608036600319011261025e5761082f611210565b90602435906001600160a01b03604435818116036109465760643567ffffffffffffffff81116109425761086690369084016111dd565b50506108706114b3565b61087861146f565b600254169081156108f357826108a9926020928888518096819582946323b872dd60e01b845230903390850161144d565b03925af180156108e9576108c394506108cb575b50611509565b506001815580f35b6108e29060203d81116104c9576104ba81836112d7565b50386108bd565b84513d87823e3d90fd5b608490602086519162461bcd60e51b8352820152602360248201527f44796e616d696345617465723a20546f6b656e2061646472657373206e6f74206044820152621cd95d60ea1b6064820152fd5b8680fd5b8580fd5b5050346102a357816003193601126102a357600154905160089190911c6001600160a01b03168152602090f35b833461036c578060031936011261036c57610990611226565b60018054610100600160a81b03198116909155819060081c6001600160a01b03167f8be0079c531659141344cd1fd0a4f28419497f9722a3daafe3b4186f6b6457e08280a380f35b5050346102a35760203660031901126102a35760209181906001600160a01b03610a00611210565b1681526009845220549051908152f35b503461025e578260031936011261025e57600254825163313ce56760e01b81529160209183919082906001600160a01b03165afa908115610a875760ff6102f692610a659260209691610a6a575b5016611328565b611343565b610a819150863d81116104925761048481836112d7565b38610a5e565b505051903d90823e3d90fd5b8382346102a35760203660031901126102a357610aae611226565b35600b5580f35b503461025e578260031936011261025e575490516001600160a01b03909116815260209150f35b5050346102a357816003193601126102a35760209060ff6001541690519015158152f35b50913461036c57602092836003193601126102a357600254835163313ce56760e01b808252833594926001600160a01b03169187818681865afa908115610c0d5760ff8993926012928791610bf0575b501610610b63575b50856102f686611343565b8487518094819382525afa908115610be6579060ff918391610bc9575b501660120360ff8111610bb65760ff1691604d83116102fd5750506102f691610bac91600a0a90611281565b9038808581610b58565b506011602492634e487b7160e01b835252fd5b610be09150873d89116104925761048481836112d7565b38610b80565b85513d84823e3d90fd5b610c079150853d87116104925761048481836112d7565b38610b50565b87513d86823e3d90fd5b50903461025e578260031936011261025e57610c3161146f565b63ffffffff6008541615610ca4575b3383526009602052600181842001544210610c615782610c5e611748565b80f35b906020606492519162461bcd60e51b8352820152601f60248201527f44796e616d696345617465723a2056657374696e67206e6f7420656e646564006044820152fd5b610cac611748565b610c40565b5050346102a35760203660031901126102a35760209160ff9082906001600160a01b03610cdc611210565b168152600a855220541690519015158152f35b509190346102a357816003193601126102a357610d0a611226565b60035481516370a0823160e01b8152308582015293602092916001600160a01b0390811691908487602481865afa968715610e41578697610e12575b508615610dc557600154845163a9059cbb60e01b81526001600160a01b0360089290921c90921616918101918252602082018790529291849184919082908890829060400103925af1908115610dbc5750610d9f578280f35b81610db592903d106104c9576104ba81836112d7565b5081808280f35b513d85823e3d90fd5b835162461bcd60e51b8152808301869052602160248201527f44796e616d696345617465723a204e6f2062616c616e636520746f20737765656044820152600760fc1b6064820152608490fd5b9096508481813d8311610e3a575b610e2a81836112d7565b8101031261094657519538610d46565b503d610e20565b84513d88823e3d90fd5b5050346102a357816003193601126102a357602090600b549051908152f35b503461025e576020928360031936011261036c57813591610e8961146f565b60025484516370a0823160e01b815233838201528493916001600160a01b0391908216908881602481855afa8015610f215787908590610ef0575b610ed0925010156113d7565b87875180926323b872dd60e01b82528186816103e88c30338d850161144d565b50508881813d8311610f1a575b610f0781836112d7565b810103126107b75786610ed09151610ec4565b503d610efd565b88513d86823e3d90fd5b5050346102a357816003193601126102a35760025490516001600160a01b039091168152602090f35b92905034610761576060366003190112610761576001600160a01b03602435818116908435908290036109465760443567ffffffffffffffff811161094257610fa090369087016111dd565b969095610fab6114b3565b610fb361146f565b60025486516370a0823160e01b81523383820152602099918716908a81602481855afa8015611192578690869061115d575b610ff1925010156113d7565b89885180926323b872dd60e01b82528187816110118b30338c850161144d565b03925af18015610f2157611140575b5061102b3385611509565b50600254875163095ea7b360e01b81526001600160a01b0387168482019081526020810187905290918b9183918a169082908890829060400103925af18015610f2157918a97969594939160a493611123575b508087835416801560001461111d5750309a5b8860025416988b519c8d9a8b998a976302454b7160e41b8952880152602487015216604485015260806064850152816084850152848401378181018301849052601f01601f191681010301925af1908115610dbc57506110f4575b826001815580f35b813d8311611116575b61110781836112d7565b8101031261036c5738806110ec565b503d6110fd565b9a611091565b61113990893d8b116104c9576104ba81836112d7565b503861107e565b611156908a3d8c116104c9576104ba81836112d7565b5038611020565b50508a81813d831161118b575b61117481836112d7565b810103126111875785610ff19151610fe5565b8480fd5b503d61116a565b89513d87823e3d90fd5b5050346102a357816003193601126102a3576020906005549051908152f35b8490346102a357816003193601126102a35760209063ffffffff600854168152f35b9181601f8401121561120b5782359167ffffffffffffffff831161120b576020838186019501011161120b57565b600080fd5b600435906001600160a01b038216820361120b57565b60015460081c6001600160a01b0316330361123d57565b606460405162461bcd60e51b815260206004820152602060248201527f4f776e61626c653a2063616c6c6572206973206e6f7420746865206f776e65726044820152fd5b8181029291811591840414171561129457565b634e487b7160e01b600052601160045260246000fd5b81156112b4570490565b634e487b7160e01b600052601260045260246000fd5b9190820391821161129457565b90601f8019910116810190811067ffffffffffffffff8211176112f957604052565b634e487b7160e01b600052604160045260246000fd5b9081602091031261120b575160ff8116810361120b5790565b604d811161129457600a0a90565b9190820180921161129457565b61134f81600b54611336565b80156113735761136b6113709261045e600c54600554906112ca565b6112aa565b90565b60405162461bcd60e51b815260206004820152603660248201527f44796e616d696345617465723a206e6577464f4d4f42616c616e6365206d7573604482015275742062652067726561746572207468616e207a65726f60501b6064820152608490fd5b156113de57565b60405162461bcd60e51b815260206004820152602960248201527f44796e616d696345617465723a20496e73756666696369656e742062616c616e60448201526818d9481d1bc819585d60ba1b6064820152608490fd5b9081602091031261120b5751801515810361120b5790565b6001600160a01b03918216815291166020820152604081019190915260600190565b60ff6001541661147b57565b60405162461bcd60e51b815260206004820152601060248201526f14185d5cd8589b194e881c185d5cd95960821b6044820152606490fd5b6002600054146114c4576002600055565b60405162461bcd60e51b815260206004820152601f60248201527f5265656e7472616e637947756172643a207265656e7472616e742063616c6c006044820152606490fd5b61151281611343565b600354604080516370a0823160e01b8152306004820152929460209391926001600160a01b0392908316908581602481855afa9081156116af5760009161171b575b5087116116ba5760085463ffffffff91908216156116205750828216948560005260098152611587856000205489611336565b91603c816008541602908116908103611294576115a49042611336565b8551908682019082821067ffffffffffffffff8311176112f9577fabe5455971bdcd932e7251d16cd53f88cd4410bf4df21530e88bf13dade6a7d4988b956001938a5284528484019182526000526009845287600020925183555191015561160e82600554611336565b6005555b84519687528601521692a290565b845163a9059cbb60e01b81526001600160a01b0384166004820152602481018990529495939492939291508290829060449082906000905af180156116af579187917fabe5455971bdcd932e7251d16cd53f88cd4410bf4df21530e88bf13dade6a7d496959493611692575b50611612565b6116a890823d84116104c9576104ba81836112d7565b503861168c565b85513d6000823e3d90fd5b835162461bcd60e51b815260048101869052603460248201527f44796e616d696345617465723a20496e73756666696369656e7420746f6b656e604482015273103130b630b731b2903a37903a3930b739b332b960611b6064820152608490fd5b908682813d8311611741575b61173181836112d7565b8101031261036c57505138611554565b503d611727565b336000818152600960209081526040808320805490849055600354915163a9059cbb60e01b8152600481019590955260248501529091839160449183916001600160a01b03165af180156117b75761179d5750565b6117b49060203d81116104c9576104ba81836112d7565b50565b6040513d6000823e3d90fdfea2646970667358221220138732a5e70d95c6135f5d951ffb2229ccc28b283924a761075a0a85d981e9e164736f6c63430008130033",
  "linkReferences": {},
  "deployedLinkReferences": {}
}