{
  "_format": "hh-sol-artifact-1",
  "contractName": "Farm",
  "sourceName": "contracts/core/Farm.sol",
  "abi": [
    {
      "inputs": [
        {
          "internalType": "contract IERC20",
          "name": "_reward",
          "type": "address"
        }
      ],
      "stateMutability": "nonpayable",
      "type": "constructor"
    },
    {
      "anonymous": false,
      "inputs": [
        {
          "indexed": true,
          "internalType": "address",
          "name": "user",
          "type": "address"
        },
        {
          "indexed": true,
          "internalType": "uint256",
          "name": "pid",
          "type": "uint256"
        },
        {
          "indexed": false,
          "internalType": "uint256",
          "name": "amount",
          "type": "uint256"
        },
        {
          "indexed": true,
          "internalType": "address",
          "name": "to",
          "type": "address"
        }
      ],
      "name": "Deposit",
      "type": "event"
    },
    {
      "anonymous": false,
      "inputs": [
        {
          "indexed": true,
          "internalType": "address",
          "name": "user",
          "type": "address"
        },
        {
          "indexed": true,
          "internalType": "uint256",
          "name": "pid",
          "type": "uint256"
        },
        {
          "indexed": false,
          "internalType": "uint256",
          "name": "amount",
          "type": "uint256"
        },
        {
          "indexed": true,
          "internalType": "address",
          "name": "to",
          "type": "address"
        }
      ],
      "name": "EmergencyWithdraw",
      "type": "event"
    },
    {
      "anonymous": false,
      "inputs": [
        {
          "indexed": true,
          "internalType": "address",
          "name": "user",
          "type": "address"
        },
        {
          "indexed": true,
          "internalType": "uint256",
          "name": "pid",
          "type": "uint256"
        },
        {
          "indexed": false,
          "internalType": "uint256",
          "name": "amount",
          "type": "uint256"
        }
      ],
      "name": "Harvest",
      "type": "event"
    },
    {
      "anonymous": false,
      "inputs": [
        {
          "indexed": true,
          "internalType": "uint256",
          "name": "pid",
          "type": "uint256"
        },
        {
          "indexed": false,
          "internalType": "uint256",
          "name": "allocPoint",
          "type": "uint256"
        },
        {
          "indexed": true,
          "internalType": "contract IERC20",
          "name": "lpToken",
          "type": "address"
        },
        {
          "indexed": true,
          "internalType": "contract IRewarder",
          "name": "rewarder",
          "type": "address"
        }
      ],
      "name": "LogPoolAddition",
      "type": "event"
    },
    {
      "anonymous": false,
      "inputs": [
        {
          "indexed": true,
          "internalType": "uint256",
          "name": "pid",
          "type": "uint256"
        },
        {
          "indexed": false,
          "internalType": "uint256",
          "name": "amount",
          "type": "uint256"
        }
      ],
      "name": "LogPoolAllocation",
      "type": "event"
    },
    {
      "anonymous": false,
      "inputs": [
        {
          "indexed": false,
          "internalType": "uint256",
          "name": "amount",
          "type": "uint256"
        }
      ],
      "name": "LogSetEmmisionsPerBlock",
      "type": "event"
    },
    {
      "anonymous": false,
      "inputs": [
        {
          "indexed": true,
          "internalType": "uint256",
          "name": "pid",
          "type": "uint256"
        },
        {
          "indexed": false,
          "internalType": "uint256",
          "name": "allocPoint",
          "type": "uint256"
        },
        {
          "indexed": true,
          "internalType": "contract IRewarder",
          "name": "rewarder",
          "type": "address"
        },
        {
          "indexed": false,
          "internalType": "bool",
          "name": "overwrite",
          "type": "bool"
        }
      ],
      "name": "LogSetPool",
      "type": "event"
    },
    {
      "anonymous": false,
      "inputs": [
        {
          "indexed": true,
          "internalType": "uint256",
          "name": "pid",
          "type": "uint256"
        },
        {
          "indexed": false,
          "internalType": "uint8",
          "name": "weight",
          "type": "uint8"
        }
      ],
      "name": "LogSetPoolWeight",
      "type": "event"
    },
    {
      "anonymous": false,
      "inputs": [
        {
          "indexed": true,
          "internalType": "uint256",
          "name": "pid",
          "type": "uint256"
        },
        {
          "indexed": false,
          "internalType": "uint64",
          "name": "lastRewardBlock",
          "type": "uint64"
        },
        {
          "indexed": false,
          "internalType": "uint256",
          "name": "lpSupply",
          "type": "uint256"
        },
        {
          "indexed": false,
          "internalType": "uint256",
          "name": "accChaosPerShare",
          "type": "uint256"
        }
      ],
      "name": "LogUpdatePool",
      "type": "event"
    },
    {
      "anonymous": false,
      "inputs": [
        {
          "indexed": true,
          "internalType": "address",
          "name": "previousOwner",
          "type": "address"
        },
        {
          "indexed": true,
          "internalType": "address",
          "name": "newOwner",
          "type": "address"
        }
      ],
      "name": "OwnershipTransferred",
      "type": "event"
    },
    {
      "anonymous": false,
      "inputs": [
        {
          "indexed": true,
          "internalType": "address",
          "name": "user",
          "type": "address"
        },
        {
          "indexed": true,
          "internalType": "uint256",
          "name": "pid",
          "type": "uint256"
        },
        {
          "indexed": false,
          "internalType": "uint256",
          "name": "amount",
          "type": "uint256"
        },
        {
          "indexed": true,
          "internalType": "address",
          "name": "to",
          "type": "address"
        }
      ],
      "name": "Withdraw",
      "type": "event"
    },
    {
      "inputs": [],
      "name": "CHAOS_TOKEN",
      "outputs": [
        {
          "internalType": "contract IERC20",
          "name": "",
          "type": "address"
        }
      ],
      "stateMutability": "view",
      "type": "function"
    },
    {
      "inputs": [
        {
          "internalType": "uint256",
          "name": "allocPoint",
          "type": "uint256"
        },
        {
          "internalType": "contract IERC20",
          "name": "_lpToken",
          "type": "address"
        },
        {
          "internalType": "contract IRewarder",
          "name": "_rewarder",
          "type": "address"
        }
      ],
      "name": "add",
      "outputs": [],
      "stateMutability": "nonpayable",
      "type": "function"
    },
    {
      "inputs": [
        {
          "internalType": "uint256",
          "name": "pid",
          "type": "uint256"
        },
        {
          "internalType": "uint256",
          "name": "amount",
          "type": "uint256"
        }
      ],
      "name": "allocateTokens",
      "outputs": [],
      "stateMutability": "nonpayable",
      "type": "function"
    },
    {
      "inputs": [
        {
          "internalType": "uint256",
          "name": "pid",
          "type": "uint256"
        },
        {
          "internalType": "uint256",
          "name": "amount",
          "type": "uint256"
        },
        {
          "internalType": "address",
          "name": "to",
          "type": "address"
        }
      ],
      "name": "deposit",
      "outputs": [],
      "stateMutability": "nonpayable",
      "type": "function"
    },
    {
      "inputs": [
        {
          "internalType": "uint256",
          "name": "pid",
          "type": "uint256"
        },
        {
          "internalType": "address",
          "name": "to",
          "type": "address"
        }
      ],
      "name": "emergencyWithdraw",
      "outputs": [],
      "stateMutability": "nonpayable",
      "type": "function"
    },
    {
      "inputs": [
        {
          "internalType": "uint256",
          "name": "pid",
          "type": "uint256"
        }
      ],
      "name": "getPoolInfo",
      "outputs": [
        {
          "components": [
            {
              "internalType": "uint128",
              "name": "accChaosPerShare",
              "type": "uint128"
            },
            {
              "internalType": "uint64",
              "name": "lastRewardBlock",
              "type": "uint64"
            },
            {
              "internalType": "uint64",
              "name": "allocPoint",
              "type": "uint64"
            },
            {
              "internalType": "uint256",
              "name": "totalSupply",
              "type": "uint256"
            },
            {
              "internalType": "uint8",
              "name": "weight",
              "type": "uint8"
            }
          ],
          "internalType": "struct ICHAOS.PoolInfo",
          "name": "",
          "type": "tuple"
        }
      ],
      "stateMutability": "view",
      "type": "function"
    },
    {
      "inputs": [
        {
          "internalType": "uint256",
          "name": "pid",
          "type": "uint256"
        }
      ],
      "name": "getPoolWeightAsPercentage",
      "outputs": [
        {
          "internalType": "uint8",
          "name": "",
          "type": "uint8"
        }
      ],
      "stateMutability": "view",
      "type": "function"
    },
    {
      "inputs": [
        {
          "internalType": "uint256",
          "name": "pid",
          "type": "uint256"
        },
        {
          "internalType": "address",
          "name": "to",
          "type": "address"
        }
      ],
      "name": "harvest",
      "outputs": [],
      "stateMutability": "nonpayable",
      "type": "function"
    },
    {
      "inputs": [
        {
          "internalType": "uint256",
          "name": "",
          "type": "uint256"
        }
      ],
      "name": "lpToken",
      "outputs": [
        {
          "internalType": "contract IERC20",
          "name": "",
          "type": "address"
        }
      ],
      "stateMutability": "view",
      "type": "function"
    },
    {
      "inputs": [
        {
          "internalType": "uint256[]",
          "name": "pids",
          "type": "uint256[]"
        }
      ],
      "name": "massUpdatePools",
      "outputs": [],
      "stateMutability": "nonpayable",
      "type": "function"
    },
    {
      "inputs": [
        {
          "internalType": "uint256",
          "name": "_pid",
          "type": "uint256"
        }
      ],
      "name": "migrate",
      "outputs": [],
      "stateMutability": "nonpayable",
      "type": "function"
    },
    {
      "inputs": [],
      "name": "migrator",
      "outputs": [
        {
          "internalType": "contract IMigratorChef",
          "name": "",
          "type": "address"
        }
      ],
      "stateMutability": "view",
      "type": "function"
    },
    {
      "inputs": [],
      "name": "owner",
      "outputs": [
        {
          "internalType": "address",
          "name": "",
          "type": "address"
        }
      ],
      "stateMutability": "view",
      "type": "function"
    },
    {
      "inputs": [
        {
          "internalType": "uint256",
          "name": "_pid",
          "type": "uint256"
        },
        {
          "internalType": "address",
          "name": "_user",
          "type": "address"
        }
      ],
      "name": "pendingRewards",
      "outputs": [
        {
          "internalType": "uint256",
          "name": "pending",
          "type": "uint256"
        }
      ],
      "stateMutability": "view",
      "type": "function"
    },
    {
      "inputs": [
        {
          "internalType": "uint256",
          "name": "",
          "type": "uint256"
        }
      ],
      "name": "poolInfo",
      "outputs": [
        {
          "internalType": "uint128",
          "name": "accChaosPerShare",
          "type": "uint128"
        },
        {
          "internalType": "uint64",
          "name": "lastRewardBlock",
          "type": "uint64"
        },
        {
          "internalType": "uint64",
          "name": "allocPoint",
          "type": "uint64"
        },
        {
          "internalType": "uint256",
          "name": "totalSupply",
          "type": "uint256"
        },
        {
          "internalType": "uint8",
          "name": "weight",
          "type": "uint8"
        }
      ],
      "stateMutability": "view",
      "type": "function"
    },
    {
      "inputs": [],
      "name": "poolLength",
      "outputs": [
        {
          "internalType": "uint256",
          "name": "pools",
          "type": "uint256"
        }
      ],
      "stateMutability": "view",
      "type": "function"
    },
    {
      "inputs": [],
      "name": "renounceOwnership",
      "outputs": [],
      "stateMutability": "nonpayable",
      "type": "function"
    },
    {
      "inputs": [
        {
          "internalType": "uint256",
          "name": "",
          "type": "uint256"
        }
      ],
      "name": "rewarder",
      "outputs": [
        {
          "internalType": "contract IRewarder",
          "name": "",
          "type": "address"
        }
      ],
      "stateMutability": "view",
      "type": "function"
    },
    {
      "inputs": [
        {
          "internalType": "uint256",
          "name": "pid",
          "type": "uint256"
        }
      ],
      "name": "rewardsPerBlock",
      "outputs": [
        {
          "internalType": "uint256",
          "name": "amount",
          "type": "uint256"
        }
      ],
      "stateMutability": "view",
      "type": "function"
    },
    {
      "inputs": [
        {
          "internalType": "uint256",
          "name": "_pid",
          "type": "uint256"
        },
        {
          "internalType": "uint256",
          "name": "_allocPoint",
          "type": "uint256"
        },
        {
          "internalType": "contract IRewarder",
          "name": "_rewarder",
          "type": "address"
        },
        {
          "internalType": "bool",
          "name": "overwrite",
          "type": "bool"
        }
      ],
      "name": "set",
      "outputs": [],
      "stateMutability": "nonpayable",
      "type": "function"
    },
    {
      "inputs": [
        {
          "internalType": "uint256",
          "name": "amount",
          "type": "uint256"
        }
      ],
      "name": "setEmmisionsPerBlock",
      "outputs": [],
      "stateMutability": "nonpayable",
      "type": "function"
    },
    {
      "inputs": [
        {
          "internalType": "contract IMigratorChef",
          "name": "_migrator",
          "type": "address"
        }
      ],
      "name": "setMigrator",
      "outputs": [],
      "stateMutability": "nonpayable",
      "type": "function"
    },
    {
      "inputs": [
        {
          "internalType": "uint256",
          "name": "pid",
          "type": "uint256"
        },
        {
          "internalType": "uint8",
          "name": "weight",
          "type": "uint8"
        }
      ],
      "name": "setVaultWeight",
      "outputs": [],
      "stateMutability": "nonpayable",
      "type": "function"
    },
    {
      "inputs": [],
      "name": "tokensPerBlock",
      "outputs": [
        {
          "internalType": "uint256",
          "name": "",
          "type": "uint256"
        }
      ],
      "stateMutability": "view",
      "type": "function"
    },
    {
      "inputs": [],
      "name": "totalAllocPoint",
      "outputs": [
        {
          "internalType": "uint256",
          "name": "",
          "type": "uint256"
        }
      ],
      "stateMutability": "view",
      "type": "function"
    },
    {
      "inputs": [
        {
          "internalType": "address",
          "name": "newOwner",
          "type": "address"
        }
      ],
      "name": "transferOwnership",
      "outputs": [],
      "stateMutability": "nonpayable",
      "type": "function"
    },
    {
      "inputs": [
        {
          "internalType": "uint256",
          "name": "pid",
          "type": "uint256"
        }
      ],
      "name": "updatePool",
      "outputs": [
        {
          "components": [
            {
              "internalType": "uint128",
              "name": "accChaosPerShare",
              "type": "uint128"
            },
            {
              "internalType": "uint64",
              "name": "lastRewardBlock",
              "type": "uint64"
            },
            {
              "internalType": "uint64",
              "name": "allocPoint",
              "type": "uint64"
            },
            {
              "internalType": "uint256",
              "name": "totalSupply",
              "type": "uint256"
            },
            {
              "internalType": "uint8",
              "name": "weight",
              "type": "uint8"
            }
          ],
          "internalType": "struct ICHAOS.PoolInfo",
          "name": "pool",
          "type": "tuple"
        }
      ],
      "stateMutability": "nonpayable",
      "type": "function"
    },
    {
      "inputs": [
        {
          "internalType": "uint256",
          "name": "",
          "type": "uint256"
        },
        {
          "internalType": "address",
          "name": "",
          "type": "address"
        }
      ],
      "name": "userInfo",
      "outputs": [
        {
          "internalType": "uint256",
          "name": "amount",
          "type": "uint256"
        },
        {
          "internalType": "int256",
          "name": "rewardDebt",
          "type": "int256"
        }
      ],
      "stateMutability": "view",
      "type": "function"
    },
    {
      "inputs": [
        {
          "internalType": "uint256",
          "name": "pid",
          "type": "uint256"
        },
        {
          "internalType": "uint256",
          "name": "amount",
          "type": "uint256"
        },
        {
          "internalType": "address",
          "name": "to",
          "type": "address"
        }
      ],
      "name": "withdraw",
      "outputs": [],
      "stateMutability": "nonpayable",
      "type": "function"
    },
    {
      "inputs": [
        {
          "internalType": "uint256",
          "name": "pid",
          "type": "uint256"
        },
        {
          "internalType": "uint256",
          "name": "amount",
          "type": "uint256"
        },
        {
          "internalType": "address",
          "name": "to",
          "type": "address"
        }
      ],
      "name": "withdrawAndHarvest",
      "outputs": [],
      "stateMutability": "nonpayable",
      "type": "function"
    }
  ],
  "bytecode": "0x60a0346100bc57601f61227138819003918201601f19168301916001600160401b038311848410176100c1578084926020946040528339810103126100bc57516001600160a01b039081811681036100bc576000543360018060a01b0319821617600055604051923391167f8be0079c531659141344cd1fd0a4f28419497f9722a3daafe3b4186f6b6457e0600080a360805261219990816100d882396080518181816102540152818161033a015281816107e301526120bc0152f35b600080fd5b634e487b7160e01b600052604160045260246000fdfe608060408181526004908136101561001657600080fd5b600092833560e01c908163081e3eda146115ca575080630ad58d2f1461147d57806312ef24641461145d5780631526fe27146113ed57806317caf6f1146113ce57806318fccc76146113a85780631a1cb01f1461138957806323cf3118146113355780632f380b35146113025780632f940c70146111f1578063454b060814610f6257806351c85f3f14610f1457806351eb05a614610ea057806357a5b58c14610e11578063715018a614610db757806378ed5d1f14610d8c5780637cd07e4714610d5f57806388bba42f14610c2a5780638cebd2ba14610abc5780638da5cb5b14610a945780638dbdbe6d146108fa5780638fc264e0146107a657806393f1a40b1461075a5780639733894e146106f3578063ab7de09814610512578063c346253d146104d1578063d18df53c1461049f57838163d1abb9071461028757508063ded844d21461023f5763f2fde38b1461017057600080fd5b3461023b57602036600319011261023b576001600160a01b03823581811693919290849003610236576101a16116a7565b83156101e45750506000548260018060a01b0319821617600055167f8be0079c531659141344cd1fd0a4f28419497f9722a3daafe3b4186f6b6457e0600080a380f35b906020608492519162461bcd60e51b8352820152602660248201527f4f776e61626c653a206e6577206f776e657220697320746865207a65726f206160448201526564647265737360d01b6064820152fd5b600080fd5b8280fd5b838234610283578160031936011261028357517f00000000000000000000000000000000000000000000000000000000000000006001600160a01b03168152602090f35b5080fd5b9190503461028357610298366115fc565b6102a483969293611b18565b868652600760205284862033600052602052846000209081549064e8d4a510009060018060801b0391806102db8484511686611ab9565b0492600186019283548086039c8d911286808312821692139015161761048c5751610307911689611ab9565b04918b838203931281841281169184139015161761047957868b938b9796959361033193556118a2565b815561035e88847f0000000000000000000000000000000000000000000000000000000000000000611f15565b6103678561165b565b90546001600160a01b039560039290921b1c851691826103fc575b505050506103a284828461039587611676565b90549060031b1c16611f15565b845193845216917f8166bf25f8a2b7ed3c85049207da4358d16edbed977d23fa2ee6f0dde3ec213260203392a4519081527f71bab65ced2e5750775a0613be067df48ef06cf92a496ebf7663ae066092495460203392a380f35b9091929394955054823b156104755788928492838c61043289958d5198899788968795632337492560e21b875233918701611f53565b03925af1801561046b5790889493929161044e575b8080610382565b61045a919294506116ff565b6104675785918738610447565b8680fd5b86513d84823e3d90fd5b8380fd5b634e487b7160e01b8b526011865260248bfd5b634e487b7160e01b8e526011895260248efd5b5082346104ce57816003193601126104ce57506104c76020926104c06115e6565b90356118e7565b9051908152f35b80fd5b50903461023b57602036600319011261023b5735916006548310156104ce57506104fc60209261165b565b905491519160018060a01b039160031b1c168152f35b503461023b57606036600319011261023b576001600160a01b03916024803584811693833592909185900361046757610549611691565b6105516116a7565b61055d84600854611764565b600855600554600160401b9190828110156106e1576105a36105868260018b9401600555611676565b819391549060031b9160018060a01b03809116831b921b19161790565b9055600654828110156106e1576105c38160016105e4930160065561165b565b99909216809983549060031b9160018060a01b03809116831b921b19161790565b9055600354600160ff82160160ff81116106cd5760ff169060ff19161760035561060d846120f9565b90610617436120f9565b84519261062384611728565b8a84526001600160401b0380921660208501521684830152886060830152600160808301528554908110156106bb579061066582600161066b94018855611626565b90611827565b6005546000198101949085116106aa5750507f81ee0f8c5c46e2cb41984886f77a84181724abb86c32a5f6de539b07509d45e59160209151908152a480f35b634e487b7160e01b88526011905286fd5b634e487b7160e01b8952604186528289fd5b83601188634e487b7160e01b600052526000fd5b634e487b7160e01b8a5260418752838afd5b5082346104ce5760203660031901126104ce5761072060ff60026107178635611626565b50015416611812565b60ff600354169182156107475760208460ff61073f8682871604611812565b915191168152f35b634e487b7160e01b815260128552602490fd5b5091346104ce57826003193601126104ce5782906107766115e6565b923581526007602052209060018060a01b0316600052602052806000206001815491015482519182526020820152f35b50903461023b578160031936011261023b57803591602435906107c76116a7565b80516370a0823160e01b815230848201526020939084816024817f00000000000000000000000000000000000000000000000000000000000000006001600160a01b03165afa9081156108f05787916108c3575b5083116108785750907fcdd8c438c177c1b7298106f22ac8fc3588caa838ec239042bf4da8cec4fad00c929161085382600154611764565b600155600161086186611626565b500161086e838254611764565b905551908152a280f35b83608492519162461bcd60e51b8352820152602160248201527f4368616f733a20496e73756666696369656e74204348414f532062616c616e636044820152606560f81b6064820152fd5b90508481813d83116108e9575b6108da8183611743565b8101031261023657513861081b565b503d6108d0565b83513d89823e3d90fd5b503461023b57610909366115fc565b61091583949293611b18565b9084875260076020528287209560018060a01b0392838316978860005260205284600020906001610947888454611764565b80845592018054915164e8d4a510009061096a906001600160801b03168a611ab9565b04918b8382019384129112908015821691151617610a81575588929190846109918961165b565b90549060031b1c1680610a1a575b50505050506109ed906109b185611676565b90549060031b1c168251906323b872dd60e01b6020830152336024830152306044830152846064830152606482526109e882611728565b611cf9565b519081527f02d7e648dd130fc184d383e55bb126ac4c9c60e8f94bf05acdf557ba2d540b4760203392a480f35b803b15610a7d5788858094610a4487958b5198899788968795632337492560e21b87528601611cca565b03925af18015610a7357610a5b575b80808061099f565b610a64906116ff565b610a6f578538610a53565b8580fd5b84513d84823e3d90fd5b8480fd5b634e487b7160e01b8b526011845260248bfd5b838234610283578160031936011261028357905490516001600160a01b039091168152602090f35b50903461023b578160031936011261023b5780359160ff602435818116939084810361046757610aea6116a7565b84610b6157505091602091837fcca7be0ce2046924923362617977e6d03c4004e88c4c3eb96459b0d3315e04dd946002610b2388611626565b5001541690610b3760035492828416611787565b169060ff191617600355610b4a85611626565b5080546001600160c01b031690555b51908152a280f35b826002610b6d88611626565b50015416851115610c0b57610b9290836002610b8889611626565b5001541690611787565b905b8260035492168383160190838211610bf6575091602093917fcca7be0ce2046924923362617977e6d03c4004e88c4c3eb96459b0d3315e04dd959360ff1992839116911617600355826002610be888611626565b500191825416179055610b59565b601190634e487b7160e01b6000525260246000fd5b610c2490836002610c1b89611626565b50015416611787565b90610b94565b50903461023b57608036600319011261023b573560243591610c4a611691565b906064359182151590818403610467577f95895a6ab1df54420d241b55243258a33e61b2194db66c1179ec521aae8e186593610c846116a7565b610ca787610ca2600854610c978a611626565b505460c01c906118a2565b611764565b60085580610ce4610cb7896120f9565b610cc089611626565b5080546001600160c01b031660c09290921b6001600160c01b031916919091179055565b610d2a575b15610d0857905b825195865260208601526001600160a01b031693a380f35b50610d128461165b565b905460039190911b1c6001600160a01b031690610cf0565b610d58610d368761165b565b815491926001600160a01b0386811660039390931b92831b921b199092161790565b9055610ce9565b838234610283578160031936011261028357600354905160089190911c6001600160a01b03168152602090f35b50903461023b57602036600319011261023b5735916005548310156104ce57506104fc602092611676565b83346104ce57806003193601126104ce57610dd06116a7565b600080546001600160a01b0319811682556001600160a01b03167f8be0079c531659141344cd1fd0a4f28419497f9722a3daafe3b4186f6b6457e08280a380f35b505034610283576020366003190112610283578035906001600160401b039081831161047557366023840112156104755782810135918211610475576024926005368585831b84010111610a6f57855b848110610e6c578680f35b610e7c8682841b85010135611b18565b506000198114610e8e57600101610e61565b634e487b7160e01b8752601184528587fd5b5082346104ce5760203660031901126104ce5750610ec1610f109235611b18565b905191829182919091608060ff8160a0840195600180831b0381511685526001600160401b03806020830151166020870152604082015116604086015260608101516060860152015116910152565b0390f35b50903461023b57602036600319011261023b577fdf1c0dc3a7cee5d3b73fd787de022e41a4a7ea56eab31dc1e022720f2061acd5916020913590610f566116a7565b8160025551908152a180f35b50903461023b5760209081600319360112610475576003546001600160a01b03938235939160081c851680156111b65785610f9c86611676565b90549060031b1c1695878351976370a0823160e01b93848a5230888b0152868a602481855afa998a1561117757839a611181575b50855163095ea7b360e01b81526001600160a01b03909116888201908152602081018b9052879082908190604001038186865af18015611177579087929161114a575b5060248460035460081c16918751948593849263ce5494bb60e01b84528c8401525af1908115611140578991611106575b5016958251918252308583015283826024818a5afa9182156110fc5788926110cd575b50036110815750505061058661107c91611676565b905580f35b5162461bcd60e51b815291820152602260248201527f4368616f733a206d696772617465642062616c616e6365206d757374206d61746044820152610c6d60f31b606482015260849150fd5b9091508381813d83116110f5575b6110e58183611743565b8101031261023657519038611067565b503d6110db565b83513d8a823e3d90fd5b90508481813d8311611139575b61111d8183611743565b81010312611135575181811681036111355738611044565b8880fd5b503d611113565b84513d8b823e3d90fd5b61116990833d8511611170575b6111618183611743565b8101906118af565b5038611013565b503d611157565b86513d85823e3d90fd5b8780929b508194503d83116111af575b61119b8183611743565b810103126102365790519789919086610fd0565b503d611191565b505162461bcd60e51b815291820152601660248201527510da185bdcce881b9bc81b5a59dc985d1bdc881cd95d60521b604482015260649150fd5b50903461023b578160031936011261023b5780359061120e6115e6565b828552600760205283852033600052602052836000209385600186549682815501558561123a8561165b565b90546001600160a01b039560039290921b1c85169081611296575b50505061126785838561039588611676565b5193845216917f2cac5e20e1541d836381527a43f651851e302817b71dc8e810284e69210c1c6b60203392a480f35b813b1561023b578660a484928387519586948593632337492560e21b85528401523360248401528a8a1660448401528160648401528160848401525af180156112f8576112e4575b80611255565b6112ed906116ff565b610a6f5785386112de565b83513d84823e3d90fd5b5082346104ce5760203660031901126104ce5750610ec161132f610f109361132861179b565b5035611626565b506117c6565b50503461028357602036600319011261028357356001600160a01b0381168103610283576113616116a7565b60038054610100600160a81b03191660089290921b610100600160a81b031691909117905580f35b8382346102835781600319360112610283576020906002549051908152f35b503461023b57366003190112610283576113cb906113c46115e6565b9035611f83565b80f35b8382346102835781600319360112610283576020906008549051908152f35b5082346104ce5760203660031901126104ce57823592548310156104ce575061141760a092611626565b509081549160ff60026001830154920154169180519360018060801b03811685526001600160401b038160801c16602086015260c01c9084015260608301526080820152f35b5082346104ce5760203660031901126104ce57506104c760209235611acc565b503461023b5761148c366115fc565b9093919261149984611b18565b8487526007602052818720338852602052818720906001820164e8d4a510006114ce82549360018060801b039051168a611ab9565b04918983820393128184128116918413901516176115b757556114f28682546118a2565b809155866114ff8661165b565b90546001600160a01b03969160031b1c861680611559575b5050505061152a85838561039588611676565b5193845216917f8166bf25f8a2b7ed3c85049207da4358d16edbed977d23fa2ee6f0dde3ec213260203392a480f35b803b1561023b5785918389611583885197889687958694632337492560e21b865233918601611cca565b03925af180156115ad5761159a575b868180611517565b6115a6909691966116ff565b9438611592565b82513d89823e3d90fd5b634e487b7160e01b895260118652602489fd5b8490843461023b578260031936011261023b5760209250548152f35b602435906001600160a01b038216820361023657565b60609060031901126102365760043590602435906044356001600160a01b03811681036102365790565b6004548110156116455760046000526003602060002091020190600090565b634e487b7160e01b600052603260045260246000fd5b60065481101561164557600660005260206000200190600090565b60055481101561164557600560005260206000200190600090565b604435906001600160a01b038216820361023657565b6000546001600160a01b031633036116bb57565b606460405162461bcd60e51b815260206004820152602060248201527f4f776e61626c653a2063616c6c6572206973206e6f7420746865206f776e65726044820152fd5b6001600160401b03811161171257604052565b634e487b7160e01b600052604160045260246000fd5b60a081019081106001600160401b0382111761171257604052565b90601f801991011681019081106001600160401b0382111761171257604052565b9190820180921161177157565b634e487b7160e01b600052601160045260246000fd5b9060ff8091169116039060ff821161177157565b604051906117a882611728565b60006080838281528260208201528260408201528260608201520152565b906040516117d381611728565b608060ff600283958054600180861b03811686526001600160401b0381861c16602087015260c01c604086015260018101546060860152015416910152565b60ff60649116029060ff821691820361177157565b9061188c578151602083015160408401516001600160c01b031960c09190911b166001600160801b0390921667ffffffffffffffff60801b608092831b161791909117825560ff9160029060608501516001820155019201511660ff19825416179055565b634e487b7160e01b600052600060045260246000fd5b9190820391821161177157565b90816020910312610236575180151581036102365790565b81156118d1570490565b634e487b7160e01b600052601260045260246000fd5b906118f461132f83611626565b91600091818352602093600785526040842060018060a01b0380931685528552604084209460018060801b03825116938415611aaf5781602461193683611676565b9190549160405197889384926370a0823160e01b845230600485015260031b1c165afa938415611aa4578694611a75575b506001600160401b0380928401511680431180611a6c575b80611a61575b6119d5575b505050505064e8d4a510006119a26001928554611ab9565b04920154918183820393128184128116918413901516176119c1575090565b634e487b7160e01b81526011600452602490fd5b9160406119fc611a0f95936119f66119f0611a0697436118a2565b91611acc565b90611ab9565b9201511690611ab9565b600854906118c7565b64e8d4a5100090818102918183041490151715611a4d57611a45600193611a3f64e8d4a51000946119a2946118c7565b90611764565b92388061198a565b634e487b7160e01b84526011600452602484fd5b506008541515611985565b5084151561197f565b9093508181813d8311611a9d575b611a8d8183611743565b81010312610a6f57519238611967565b503d611a83565b6040513d88823e3d90fd5b5050505050905090565b8181029291811591840414171561177157565b611b09611b159160ff6002611aff611af9611ae685611626565b50548354906001600160801b0316611ab9565b93611626565b5001541690611ab9565b60ff60035416906118c7565b90565b90611b2161179b565b50611b2e61132f83611626565b9160208084016001600160401b0380825116431180611cbf575b611b53575b50505050565b8291611b5e85611676565b90546040516370a0823160e01b815230600482015295918691602491839160039190911b1c6001600160a01b03165afa938415611cb357600094611c84575b5083611c0b575b91816060937f0fc9545022a542541ad085d091fb09a2ab36fee366a4576ab63714ea907ad3539593611bd5436120f9565b168152611be58961066589611626565b51169160018060801b03885116916040519384528301526040820152a238808080611b4d565b91611c38611a06611c2b611c2285875116436118a2565b6119f689611acc565b8460408b01511690611ab9565b9164e8d4a5100092838102938185041490151715611771576001600160801b0394928590611c679085906118c7565b168589511601938585116117715793909416875290929091611ba4565b90938382813d8311611cac575b611c9b8183611743565b810103126104ce5750519238611b9d565b503d611c91565b6040513d6000823e3d90fd5b506008541515611b48565b9081526001600160a01b0391821660208201529116604082015260006060820152608081019190915260a00190565b604080516001600160401b0394936001600160a01b03909316929091820185811183821017611712576040526020928383527f5361666545524332303a206c6f772d6c6576656c2063616c6c206661696c6564848401526000808386829551910182855af1903d15611e34573d968711611e2057611d9894959660405190611d8a88601f19601f8401160183611743565b81528093873d92013e611e41565b805190828215928315611e08575b50505015611db15750565b6084906040519062461bcd60e51b82526004820152602a60248201527f5361666545524332303a204552433230206f7065726174696f6e20646964206e6044820152691bdd081cdd58d8d9595960b21b6064820152fd5b611e1893508201810191016118af565b388281611da6565b634e487b7160e01b83526041600452602483fd5b9150611d98939495506060915b91929015611ea35750815115611e55575090565b3b15611e5e5790565b60405162461bcd60e51b815260206004820152601d60248201527f416464726573733a2063616c6c20746f206e6f6e2d636f6e74726163740000006044820152606490fd5b825190915015611eb65750805190602001fd5b6040519062461bcd60e51b82528160208060048301528251908160248401526000935b828510611efc575050604492506000838284010152601f80199101168101030190fd5b8481018201518686016044015293810193859350611ed9565b60405163a9059cbb60e01b60208201526001600160a01b03929092166024830152604480830193909352918152611f51916109e8606483611743565b565b9081526001600160a01b039182166020820152911660408201526060810191909152608081019190915260a00190565b90611f8d82611b18565b80516001600160801b039290831615611b4d5764e8d4a51000611fce6000938685526007602052604085203386526020526040852095865491511690611ab9565b0492600181019384549081810395858312828812811690838913901516176120e557819055036120b5575b6120028561165b565b905460039190911b1c6001600160a01b0316908161204d575b505050506040519081527f71bab65ced2e5750775a0613be067df48ef06cf92a496ebf7663ae066092495460203392a3565b5491813b1561047557918392918584612081969460405197889586948593632337492560e21b85528d339060048701611f53565b03925af19081156120a9575061209a575b80808061201b565b6120a3906116ff565b38612092565b604051903d90823e3d90fd5b6120e084837f0000000000000000000000000000000000000000000000000000000000000000611f15565b611ff9565b634e487b7160e01b86526011600452602486fd5b6001600160401b039081811161210d571690565b60405162461bcd60e51b815260206004820152602860248201527f536166654361737436343a2076616c756520646f65736e27742066697420696e604482015267203634206269747360c01b6064820152608490fdfea26469706673582212208aa88bdbec0ff5fafdd175de60bb8b114cd767848c75bb704e0a994a907c1c7564736f6c63430008130033",
  "linkReferences": {},
  "deployedLinkReferences": {}
}