{
  "_format": "hh-sol-artifact-1",
  "contractName": "Fomo",
  "sourceName": "contracts/core/adaptors/Fomo.sol",
  "abi": [
    {
      "inputs": [],
      "stateMutability": "nonpayable",
      "type": "constructor"
    },
    {
      "anonymous": false,
      "inputs": [
        {
          "indexed": false,
          "internalType": "uint256",
          "name": "amount",
          "type": "uint256"
        },
        {
          "indexed": false,
          "internalType": "uint256",
          "name": "amountOut",
          "type": "uint256"
        },
        {
          "indexed": false,
          "internalType": "address",
          "name": "token",
          "type": "address"
        },
        {
          "indexed": true,
          "internalType": "address",
          "name": "recipient",
          "type": "address"
        }
      ],
      "name": "Bought",
      "type": "event"
    },
    {
      "anonymous": false,
      "inputs": [
        {
          "indexed": true,
          "internalType": "address",
          "name": "previousOwner",
          "type": "address"
        },
        {
          "indexed": true,
          "internalType": "address",
          "name": "newOwner",
          "type": "address"
        }
      ],
      "name": "OwnershipTransferred",
      "type": "event"
    },
    {
      "anonymous": false,
      "inputs": [
        {
          "indexed": false,
          "internalType": "uint256",
          "name": "amount",
          "type": "uint256"
        },
        {
          "indexed": false,
          "internalType": "uint256",
          "name": "amountOut",
          "type": "uint256"
        },
        {
          "indexed": false,
          "internalType": "address",
          "name": "token",
          "type": "address"
        },
        {
          "indexed": true,
          "internalType": "address",
          "name": "recipient",
          "type": "address"
        }
      ],
      "name": "Sold",
      "type": "event"
    },
    {
      "inputs": [
        {
          "internalType": "uint256",
          "name": "amount",
          "type": "uint256"
        },
        {
          "internalType": "address",
          "name": "token",
          "type": "address"
        },
        {
          "internalType": "address",
          "name": "recipient",
          "type": "address"
        },
        {
          "internalType": "bytes",
          "name": "extraData",
          "type": "bytes"
        }
      ],
      "name": "buy",
      "outputs": [
        {
          "internalType": "uint256",
          "name": "",
          "type": "uint256"
        }
      ],
      "stateMutability": "nonpayable",
      "type": "function"
    },
    {
      "inputs": [],
      "name": "factory",
      "outputs": [
        {
          "internalType": "address",
          "name": "",
          "type": "address"
        }
      ],
      "stateMutability": "view",
      "type": "function"
    },
    {
      "inputs": [],
      "name": "fee",
      "outputs": [
        {
          "internalType": "uint24",
          "name": "",
          "type": "uint24"
        }
      ],
      "stateMutability": "view",
      "type": "function"
    },
    {
      "inputs": [],
      "name": "fomo",
      "outputs": [
        {
          "internalType": "address",
          "name": "",
          "type": "address"
        }
      ],
      "stateMutability": "view",
      "type": "function"
    },
    {
      "inputs": [],
      "name": "owner",
      "outputs": [
        {
          "internalType": "address",
          "name": "",
          "type": "address"
        }
      ],
      "stateMutability": "view",
      "type": "function"
    },
    {
      "inputs": [],
      "name": "renounceOwnership",
      "outputs": [],
      "stateMutability": "nonpayable",
      "type": "function"
    },
    {
      "inputs": [
        {
          "internalType": "uint256",
          "name": "amount",
          "type": "uint256"
        },
        {
          "internalType": "address",
          "name": "token",
          "type": "address"
        },
        {
          "internalType": "address",
          "name": "recipient",
          "type": "address"
        },
        {
          "internalType": "bytes",
          "name": "extraData",
          "type": "bytes"
        }
      ],
      "name": "sell",
      "outputs": [
        {
          "internalType": "uint256",
          "name": "",
          "type": "uint256"
        }
      ],
      "stateMutability": "nonpayable",
      "type": "function"
    },
    {
      "inputs": [
        {
          "internalType": "uint256",
          "name": "amount",
          "type": "uint256"
        },
        {
          "internalType": "address",
          "name": "token",
          "type": "address"
        },
        {
          "internalType": "address",
          "name": "recipient",
          "type": "address"
        },
        {
          "internalType": "bytes",
          "name": "extraData",
          "type": "bytes"
        }
      ],
      "name": "sellAndBuy",
      "outputs": [
        {
          "internalType": "uint256",
          "name": "",
          "type": "uint256"
        }
      ],
      "stateMutability": "nonpayable",
      "type": "function"
    },
    {
      "inputs": [
        {
          "internalType": "address",
          "name": "newOwner",
          "type": "address"
        }
      ],
      "name": "transferOwnership",
      "outputs": [],
      "stateMutability": "nonpayable",
      "type": "function"
    },
    {
      "inputs": [],
      "name": "treasury",
      "outputs": [
        {
          "internalType": "address",
          "name": "",
          "type": "address"
        }
      ],
      "stateMutability": "view",
      "type": "function"
    },
    {
      "inputs": [],
      "name": "v2router",
      "outputs": [
        {
          "internalType": "address",
          "name": "",
          "type": "address"
        }
      ],
      "stateMutability": "view",
      "type": "function"
    }
  ],
  "bytecode": "0x608080604052346101695760008054336001600160a01b0382167f8be0079c531659141344cd1fd0a4f28419497f9722a3daafe3b4186f6b6457e08480a36001600160b81b0319163362ffffff60a01b19161761027160a41b17815563095ea7b360e01b808352734752ba5dbc23f44d87826276bf6fd6b1c372ad2460048401819052600019602485018190526020949293929091908581604481877342000000000000000000000000000000000000065af1801561015e57610141575b506040519384526004840152602483015282826044818473833589fcd6edb6e08f4c7c32d4f71b54bda029135af19081156101355750610107575b604051610b1f90816101c08239f35b8161012692903d1061012e575b61011e818361016e565b8101906101a7565b5038806100f8565b503d610114565b604051903d90823e3d90fd5b61015790863d881161012e5761011e818361016e565b50386100bd565b6040513d86823e3d90fd5b600080fd5b601f909101601f19168101906001600160401b0382119082101761019157604052565b634e487b7160e01b600052604160045260246000fd5b9081602091031261016957518015158103610169579056fe6080604052600436101561001257600080fd5b60003560e01c806303679454146101e15780632454b710146102c657806361d027b314610297578063715018a61461023e5780638da5cb5b146102155780638f8dc10a146101e6578063987bb07b146101e1578063c45a0155146101b2578063d9fca70e14610183578063ddca3f431461015d5763f2fde38b1461009557600080fd5b34610158576020366003190112610158576004356001600160a01b0381811691829003610158576100c4610931565b8115610104576000548260018060a01b0319821617600055167f8be0079c531659141344cd1fd0a4f28419497f9722a3daafe3b4186f6b6457e0600080a3005b60405162461bcd60e51b815260206004820152602660248201527f4f776e61626c653a206e6577206f776e657220697320746865207a65726f206160448201526564647265737360d01b6064820152608490fd5b600080fd5b3461015857600036600319011261015857602062ffffff60005460a01c16604051908152f35b3461015857600036600319011261015857602060405173d327d36eb6e1f250d191cd62497d08b4aaa843ce8152f35b34610158576000366003190112610158576020604051738909dc15e40173ff4699343b6eb8132c65e18ec68152f35b6108e8565b34610158576000366003190112610158576020604051734752ba5dbc23f44d87826276bf6fd6b1c372ad248152f35b34610158576000366003190112610158576000546040516001600160a01b039091168152602090f35b3461015857600036600319011261015857610257610931565b600080546001600160a01b0319811682556001600160a01b03167f8be0079c531659141344cd1fd0a4f28419497f9722a3daafe3b4186f6b6457e08280a3005b3461015857600036600319011261015857602060405173e92e74661f0582d52fc0051aedd6fdf4d26a1f868152f35b34610158576102d436610878565b50506040516323b872dd60e01b8152336004820152306024820152604481018490526001600160a01b039092169290916020816064816000885af1801561070057610859575b5060405163095ea7b360e01b8152734752ba5dbc23f44d87826276bf6fd6b1c372ad24600482015260001960248201526020816044816000885af180156107005761083a575b50604051926060840184811067ffffffffffffffff82111761074657604052600284526040366020860137610394846109c3565b526006602160991b016103a6846109e6565b526040519063d06ca61f60e01b825280600483015260406024830152600082806103d36044820188610a72565b0381734752ba5dbc23f44d87826276bf6fd6b1c372ad245afa9081156107005761041f92600092610820575b50604051809381926338ed173960e01b8352429088309160048601610aaf565b038183734752ba5dbc23f44d87826276bf6fd6b1c372ad245af1801561070057610805575b506040516370a0823160e01b8152306004820152916020836024816006602160991b015afa928315610700576000936107d0575b506104d2906000906006602160991b01610491826109c3565b5273833589fcd6edb6e08f4c7c32d4f71b54bda0291394856104b2836109e6565b526040516338ed173960e01b815293849283924291309160048601610aaf565b038183734752ba5dbc23f44d87826276bf6fd6b1c372ad245af18015610700576107ad575b506040516370a0823160e01b8152306004820152602081602481865afa9081156107005760009161077b575b5060405163095ea7b360e01b8152732626664c2603336e57b271c5c0b26f421741e481600482015260001960248201526020816044816000885af180156107005761075c575b506040519260e0840184811067ffffffffffffffff821117610746576040908152908452736b9bb36519538e0c073894e964e90172e1c0b41f6020808601918252612710868401908152306060880190815260808801958652600060a0890181815260c08a0182815296516304e45aaf60e01b815299516001600160a01b0390811660048c01529551861660248b0152925162ffffff1660448a0152905184166064890152945160848801525160a487015291511660c485015290839060e4908290732626664c2603336e57b271c5c0b26f421741e4815af191821561070057600092610712575b506001600160a01b03811661070c575073e92e74661f0582d52fc0051aedd6fdf4d26a1f86905b60405163a9059cbb60e01b81526001600160a01b039092166004830152602482018190526020826044816000736b9bb36519538e0c073894e964e90172e1c0b41f5af1918215610700576020926106d3575b50604051908152f35b6106f290833d85116106f9575b6106ea8183610989565b8101906109ab565b50826106ca565b503d6106e0565b6040513d6000823e3d90fd5b90610678565b9091506020813d60201161073e575b8161072e60209383610989565b8101031261015857519082610651565b3d9150610721565b634e487b7160e01b600052604160045260246000fd5b6107749060203d6020116106f9576106ea8183610989565b5083610569565b90506020813d6020116107a5575b8161079660209383610989565b81010312610158575183610523565b3d9150610789565b6107c9903d806000833e6107c18183610989565b8101906109f6565b50826104f7565b9092506020813d6020116107fd575b816107ec60209383610989565b810103126101585751916000610478565b3d91506107df565b610819903d806000833e6107c18183610989565b5082610444565b610833903d8085833e6107c18183610989565b50856103ff565b6108529060203d6020116106f9576106ea8183610989565b5083610360565b6108719060203d6020116106f9576106ea8183610989565b508361031a565b608060031982011261015857600435916001600160a01b0391602435838116810361015857926044359081168103610158579160643567ffffffffffffffff9283821161015857806023830112156101585781600401359384116101585760248483010111610158576024019190565b34610158576108f636610878565b5050505050606460405162461bcd60e51b815260206004820152600f60248201526e139bdd081a5b5c1b195b595b9d1959608a1b6044820152fd5b6000546001600160a01b0316330361094557565b606460405162461bcd60e51b815260206004820152602060248201527f4f776e61626c653a2063616c6c6572206973206e6f7420746865206f776e65726044820152fd5b90601f8019910116810190811067ffffffffffffffff82111761074657604052565b90816020910312610158575180151581036101585790565b8051156109d05760200190565b634e487b7160e01b600052603260045260246000fd5b8051600110156109d05760400190565b90602090818382031261015857825167ffffffffffffffff93848211610158570181601f82011215610158578051938411610746578360051b9060405194610a4085840187610989565b85528380860192820101928311610158578301905b828210610a63575050505090565b81518152908301908301610a55565b90815180825260208080930193019160005b828110610a92575050505090565b83516001600160a01b031685529381019392810192600101610a84565b90608092610ad5919695949683526000602084015260a0604084015260a0830190610a72565b6001600160a01b039095166060820152015256fea26469706673582212206c6fbbc9778bb55455af2bc6225c1e986c388a26d7f68bd18c3c7b3cbd0b2ec464736f6c63430008130033",
  "linkReferences": {},
  "deployedLinkReferences": {}
}