{
  "_format": "hh-sol-artifact-1",
  "contractName": "Migration",
  "sourceName": "contracts/core/Migration.sol",
  "abi": [
    {
      "inputs": [
        {
          "internalType": "address",
          "name": "_nfpm",
          "type": "address"
        },
        {
          "internalType": "address",
          "name": "_swapRouter",
          "type": "address"
        },
        {
          "internalType": "address",
          "name": "_arrakisV2",
          "type": "address"
        },
        {
          "internalType": "address",
          "name": "_resolverV2",
          "type": "address"
        },
        {
          "internalType": "address",
          "name": "_tokenToMigrate",
          "type": "address"
        },
        {
          "internalType": "address",
          "name": "_usdc",
          "type": "address"
        },
        {
          "internalType": "uint24",
          "name": "_feeTier",
          "type": "uint24"
        }
      ],
      "stateMutability": "nonpayable",
      "type": "constructor"
    },
    {
      "inputs": [],
      "name": "arrakisV2",
      "outputs": [
        {
          "internalType": "contract IArrakisV2",
          "name": "",
          "type": "address"
        }
      ],
      "stateMutability": "view",
      "type": "function"
    },
    {
      "inputs": [],
      "name": "feeTier",
      "outputs": [
        {
          "internalType": "uint24",
          "name": "",
          "type": "uint24"
        }
      ],
      "stateMutability": "view",
      "type": "function"
    },
    {
      "inputs": [],
      "name": "nfpm",
      "outputs": [
        {
          "internalType": "contract INonfungiblePositionManager",
          "name": "",
          "type": "address"
        }
      ],
      "stateMutability": "view",
      "type": "function"
    },
    {
      "inputs": [
        {
          "internalType": "address",
          "name": "operator",
          "type": "address"
        },
        {
          "internalType": "address",
          "name": "from",
          "type": "address"
        },
        {
          "internalType": "uint256",
          "name": "tokenId",
          "type": "uint256"
        },
        {
          "internalType": "bytes",
          "name": "data",
          "type": "bytes"
        }
      ],
      "name": "onERC721Received",
      "outputs": [
        {
          "internalType": "bytes4",
          "name": "",
          "type": "bytes4"
        }
      ],
      "stateMutability": "nonpayable",
      "type": "function"
    },
    {
      "inputs": [],
      "name": "resolverV2",
      "outputs": [
        {
          "internalType": "contract IArrakisV2Resolver",
          "name": "",
          "type": "address"
        }
      ],
      "stateMutability": "view",
      "type": "function"
    },
    {
      "inputs": [],
      "name": "swapRouter",
      "outputs": [
        {
          "internalType": "contract ISwapRouter02",
          "name": "",
          "type": "address"
        }
      ],
      "stateMutability": "view",
      "type": "function"
    },
    {
      "inputs": [],
      "name": "tokenToMigrate",
      "outputs": [
        {
          "internalType": "address",
          "name": "",
          "type": "address"
        }
      ],
      "stateMutability": "view",
      "type": "function"
    },
    {
      "inputs": [],
      "name": "usdc",
      "outputs": [
        {
          "internalType": "address",
          "name": "",
          "type": "address"
        }
      ],
      "stateMutability": "view",
      "type": "function"
    }
  ],
  "bytecode": "0x61016034620002e057601f6200155638819003918201601f191683019291906001600160401b03841183851017620002e5578160e09284926040968752833981010312620002e0576200005281620002fb565b9160209062000063828401620002fb565b9362000071828501620002fb565b946200008060608601620002fb565b906200008f60808701620002fb565b9660c0620000a060a08901620002fb565b9701519562ffffff87168703620002e0576001600160a01b03948516928315620002b65785169182156200028c578516938415620002635785169485156200023957808a16156200020f57881615620001e4575060e05260805260c05260a0526101009384526101209283526101409182525191611245938462000311853960805184818160d7015281816102e50152818161037d015281816104570152610519015260a0518481816101e60152610795015260c05184818161015c0152610751015260e051848181608d0152818161057801526106fb01525183818161022b0152818161032f015281816107e8015281816108100152818161095c01528181610a1901528181610be70152610d6b0152518281816101a10152818161060b0152818161084301528181610873015261091601525181818161012201526106360152f35b60649086519062461bcd60e51b825260048201526005602482015264495553444360d81b6044820152fd5b865162461bcd60e51b815260048101839052600360248201526249544d60e81b6044820152606490fd5b865162461bcd60e51b815260048101839052600360248201526224a0a960e91b6044820152606490fd5b865162461bcd60e51b8152600481018390526002602482015261494160f01b6044820152606490fd5b865162461bcd60e51b815260048101839052600360248201526224a9a960e91b6044820152606490fd5b865162461bcd60e51b81526004808201849052602482015263494e504d60e01b6044820152606490fd5b600080fd5b634e487b7160e01b600052604160045260246000fd5b51906001600160a01b0382168203620002e05756fe608080604052600436101561001357600080fd5b60003560e01c908163150b7a021461025a57508063278f47b4146102155780632c2bf44e146101d05780633e413bee1461018b57806359414fd61461014657806372f5d98a146101065780637303e913146100c15763c31c9c071461007757600080fd5b346100bc5760003660031901126100bc576040517f00000000000000000000000000000000000000000000000000000000000000006001600160a01b03168152602090f35b600080fd5b346100bc5760003660031901126100bc576040517f00000000000000000000000000000000000000000000000000000000000000006001600160a01b03168152602090f35b346100bc5760003660031901126100bc57602060405162ffffff7f0000000000000000000000000000000000000000000000000000000000000000168152f35b346100bc5760003660031901126100bc576040517f00000000000000000000000000000000000000000000000000000000000000006001600160a01b03168152602090f35b346100bc5760003660031901126100bc576040517f00000000000000000000000000000000000000000000000000000000000000006001600160a01b03168152602090f35b346100bc5760003660031901126100bc576040517f00000000000000000000000000000000000000000000000000000000000000006001600160a01b03168152602090f35b346100bc5760003660031901126100bc576040517f00000000000000000000000000000000000000000000000000000000000000006001600160a01b03168152602090f35b346100bc5760803660031901126100bc576004356001600160a01b038116036100bc576024356001600160a01b03811690036100bc576064356001600160401b0381116100bc57366023820112156100bc5780600401356001600160401b0381116100bc57369101602401116100bc5763133f757160e31b81526044356004820152610180816024817f00000000000000000000000000000000000000000000000000000000000000006001600160a01b03165afa9081156109c357600090600092610c0f575b506001600160a01b038181167f000000000000000000000000000000000000000000000000000000000000000090911614808015610bd9575b15610bae5760405163133f757160e31b81526044356004820152610180816024817f00000000000000000000000000000000000000000000000000000000000000006001600160a01b03165afa9081156109c357600091610b71575b506001600160801b03811615610b4657604051908160a08101106001600160401b0360a084011117610a8d5760a0820160409081526044803584526001600160801b039283166020850190815260008386018181526060870182815242608089019081528651630624e65f60e11b8152985160048a0152935190961660248801525192860192909252925160648501529151608484015290829060a49082907f00000000000000000000000000000000000000000000000000000000000000006001600160a01b03165af180156109c357610b28575b50604051918260808101106001600160401b03608085011117610a8d5760808301604090815260448035855230602086019081526001600160801b0383870181815260608801828152855163fc6f786560e01b8152985160048a015292516001600160a01b0390811660248a015290518216938801939093529051166064860152849060849082906000907f0000000000000000000000000000000000000000000000000000000000000000165af19081156109c3578490600094600093610afc575b508461055c928492610d5b565b60405163095ea7b360e01b602082019081526001600160a01b037f0000000000000000000000000000000000000000000000000000000000000000166024830152604480830184905282529296926000918291906105bb606482610c3e565b5190828a5af16105c9610f80565b81610acd575b5015610aa357604051958660e08101106001600160401b0360e089011117610a8d5760e0870160405260018060a01b0316865260018060a01b037f000000000000000000000000000000000000000000000000000000000000000016602087015262ffffff7f00000000000000000000000000000000000000000000000000000000000000001660408701523060608701526080860152600060a0860152600060c0860152604051946304e45aaf60e01b865260018060a01b03815116600487015260018060a01b03602082015116602487015262ffffff604082015116604487015260018060a01b0360608201511660648701526080810151608487015260a081015160a487015260c060018060a01b039101511660c486015260208560e481600060018060a01b037f0000000000000000000000000000000000000000000000000000000000000000165af19485156109c357600095610a59575b5060009215610a1257505050905b60405163fa111ce760e01b81526001600160a01b037f000000000000000000000000000000000000000000000000000000000000000081166004830181905260248301859052604483018490529190606090829060649082907f0000000000000000000000000000000000000000000000000000000000000000165afa9081156109c357600080916000936109cf575b506040926108a0859361083d60449461080d60009960018060a01b037f000000000000000000000000000000000000000000000000000000000000000016611093565b867f00000000000000000000000000000000000000000000000000000000000000006001600160a01b03166110e4565b610870857f00000000000000000000000000000000000000000000000000000000000000006001600160a01b0316611093565b847f00000000000000000000000000000000000000000000000000000000000000006001600160a01b03166110e4565b83516394bf804d60e01b81526004810191909152602480356001600160a01b0316908201529384928391905af19283156109c357600091600094610990575b5080821061094a575b5050808210610904575b604051630a85bd0160e11b8152602090f35b6109439161091191610e04565b6024357f00000000000000000000000000000000000000000000000000000000000000006001600160a01b0316610e27565b80806108f2565b6109899161095791610e04565b6024357f00000000000000000000000000000000000000000000000000000000000000006001600160a01b0316610e27565b82806108e8565b9093506109b5915060403d6040116109bc575b6109ad8183610c3e565b810190610d45565b92846108df565b503d6109a3565b6040513d6000823e3d90fd5b925050506060813d606011610a0a575b816109ec60609383610c3e565b810103126100bc5780516020820151604090920151919060446107ca565b3d91506109df565b91939250907f00000000000000000000000000000000000000000000000000000000000000006001600160a01b03908116911614610a51575b5061073a565b915082610a4b565b9094506020813d602011610a85575b81610a7560209383610c3e565b810103126100bc5751938561072c565b3d9150610a68565b634e487b7160e01b600052604160045260246000fd5b60405162461bcd60e51b8152602060048201526002602482015261534160f01b6044820152606490fd5b8051801592508215610ae2575b5050876105cf565b610af59250602080918301019101610e71565b8780610ada565b610b1c91955061055c92935060403d6040116109bc576109ad8183610c3e565b9490809593925061054f565b610b409060403d6040116109bc576109ad8183610c3e565b5061048c565b60405162461bcd60e51b815260206004820152600360248201526204e4c560ec1b6044820152606490fd5b610b9591506101803d61018011610ba7575b610b8d8183610c3e565b810190610c95565b505050509650505050505050846103b6565b503d610b83565b606460405162461bcd60e51b81526020600482015260046024820152631253919560e21b6044820152fd5b506001600160a01b038381167f00000000000000000000000000000000000000000000000000000000000000009091161461035a565b9050610c2c91506101803d61018011610ba757610b8d8183610c3e565b50505050505050509250905082610321565b90601f801991011681019081106001600160401b03821117610a8d57604052565b51906001600160a01b03821682036100bc57565b51908160020b82036100bc57565b51906001600160801b03821682036100bc57565b9190826101809103126100bc5781516bffffffffffffffffffffffff811681036100bc5791610cc660208201610c5f565b91610cd360408301610c5f565b91610ce060608201610c5f565b91608082015162ffffff811681036100bc5791610cff60a08201610c73565b91610d0c60c08301610c73565b91610d1960e08201610c81565b916101008201519161012081015191610d42610160610d3b6101408501610c81565b9301610c81565b90565b91908260409103126100bc576020825192015190565b9293929091906001600160a01b037f00000000000000000000000000000000000000000000000000000000000000008116908083168203610d9e57505050509190565b9193909295501614600014610db1579190565b60405162461bcd60e51b815260206004820152602560248201527f4e6f206d61746368696e6720746f6b656e20666f756e6420666f72206d69677260448201526430ba34b7b760d91b6064820152608490fd5b91908203918211610e1157565b634e487b7160e01b600052601160045260246000fd5b60405163a9059cbb60e01b60208201526001600160a01b0390921660248301526044820192909252610e6f91610e6a82606481015b03601f198101845283610c3e565b610e89565b565b908160209103126100bc575180151581036100bc5790565b60408051908101916001600160a01b03166001600160401b03831182841017610a8d57610ef8926040526000806020958685527f5361666545524332303a206c6f772d6c6576656c2063616c6c206661696c656487860152868151910182855af1610ef2610f80565b91610fbf565b805190828215928315610f68575b50505015610f115750565b6084906040519062461bcd60e51b82526004820152602a60248201527f5361666545524332303a204552433230206f7065726174696f6e20646964206e6044820152691bdd081cdd58d8d9595960b21b6064820152fd5b610f789350820181019101610e71565b388281610f06565b3d15610fba573d906001600160401b038211610a8d5760405191610fae601f8201601f191660200184610c3e565b82523d6000602084013e565b606090565b919290156110215750815115610fd3575090565b3b15610fdc5790565b60405162461bcd60e51b815260206004820152601d60248201527f416464726573733a2063616c6c20746f206e6f6e2d636f6e74726163740000006044820152606490fd5b8251909150156110345750805190602001fd5b6040519062461bcd60e51b82528160208060048301528251908160248401526000935b82851061107a575050604492506000838284010152601f80199101168101030190fd5b8481018201518686016044015293810193859350611057565b60405163095ea7b360e01b60208201526001600160a01b039092166024830152600060448084019190915282526080820191906001600160401b03831182841017610a8d57610e6f92604052610e89565b91909181158015611193575b1561112f5760405163095ea7b360e01b60208201526001600160a01b0390931660248401526044830191909152610e6f9190610e6a8260648101610e5c565b60405162461bcd60e51b815260206004820152603660248201527f5361666545524332303a20617070726f76652066726f6d206e6f6e2d7a65726f60448201527520746f206e6f6e2d7a65726f20616c6c6f77616e636560501b6064820152608490fd5b50604051636eb1769f60e11b81523060048201526001600160a01b0384811660248301526020908290604490829086165afa9081156109c3576000916111db575b50156110f0565b906020823d8211611207575b816111f460209383610c3e565b81010312611204575051386111d4565b80fd5b3d91506111e756fea264697066735822122017b9deac19718d32e42406297214ca2967c4f315008e15f3482da6ef922ef0a364736f6c63430008130033",
  "linkReferences": {},
  "deployedLinkReferences": {}
}