{
  "_format": "hh-sol-artifact-1",
  "contractName": "UniswapV3ViaRouter",
  "sourceName": "contracts/core/adaptors/UniswapV3ViaRouter.sol",
  "abi": [
    {
      "inputs": [],
      "stateMutability": "nonpayable",
      "type": "constructor"
    },
    {
      "anonymous": false,
      "inputs": [
        {
          "indexed": true,
          "internalType": "address",
          "name": "previousOwner",
          "type": "address"
        },
        {
          "indexed": true,
          "internalType": "address",
          "name": "newOwner",
          "type": "address"
        }
      ],
      "name": "OwnershipTransferred",
      "type": "event"
    },
    {
      "anonymous": false,
      "inputs": [
        {
          "indexed": false,
          "internalType": "uint256",
          "name": "amount",
          "type": "uint256"
        },
        {
          "indexed": false,
          "internalType": "uint256",
          "name": "amountOut",
          "type": "uint256"
        },
        {
          "indexed": false,
          "internalType": "address",
          "name": "token",
          "type": "address"
        },
        {
          "indexed": true,
          "internalType": "address",
          "name": "recipient",
          "type": "address"
        }
      ],
      "name": "Swapped",
      "type": "event"
    },
    {
      "inputs": [],
      "name": "fee",
      "outputs": [
        {
          "internalType": "uint24",
          "name": "",
          "type": "uint24"
        }
      ],
      "stateMutability": "view",
      "type": "function"
    },
    {
      "inputs": [],
      "name": "owner",
      "outputs": [
        {
          "internalType": "address",
          "name": "",
          "type": "address"
        }
      ],
      "stateMutability": "view",
      "type": "function"
    },
    {
      "inputs": [],
      "name": "renounceOwnership",
      "outputs": [],
      "stateMutability": "nonpayable",
      "type": "function"
    },
    {
      "inputs": [
        {
          "internalType": "uint24",
          "name": "_fee",
          "type": "uint24"
        }
      ],
      "name": "setFee",
      "outputs": [],
      "stateMutability": "nonpayable",
      "type": "function"
    },
    {
      "inputs": [
        {
          "internalType": "uint256",
          "name": "amount",
          "type": "uint256"
        },
        {
          "internalType": "address",
          "name": "token",
          "type": "address"
        },
        {
          "internalType": "address",
          "name": "recipient",
          "type": "address"
        },
        {
          "internalType": "bytes",
          "name": "extraData",
          "type": "bytes"
        }
      ],
      "name": "swap",
      "outputs": [
        {
          "internalType": "uint256",
          "name": "",
          "type": "uint256"
        }
      ],
      "stateMutability": "nonpayable",
      "type": "function"
    },
    {
      "inputs": [
        {
          "internalType": "address",
          "name": "newOwner",
          "type": "address"
        }
      ],
      "name": "transferOwnership",
      "outputs": [],
      "stateMutability": "nonpayable",
      "type": "function"
    }
  ],
  "bytecode": "0x60808060405234610067576000543360018060a01b0382167f8be0079c531659141344cd1fd0a4f28419497f9722a3daafe3b4186f6b6457e0600080a36001600160b81b0319163362ffffff60a01b19161761027160a41b17600055610733908161006d8239f35b600080fdfe604060808152600436101561001357600080fd5b600090813560e01c8063715018a6146105b65780638da5cb5b1461058f578063a2c554d31461021a578063ddca3f43146101f6578063eabb56221461012b5763f2fde38b1461006157600080fd5b34610127576020366003190112610127576001600160a01b03600435818116929083900361012357610091610610565b82156100d1575082546001600160a01b0319811683178455167f8be0079c531659141344cd1fd0a4f28419497f9722a3daafe3b4186f6b6457e08380a380f35b5162461bcd60e51b815260206004820152602660248201527f4f776e61626c653a206e6577206f776e657220697320746865207a65726f206160448201526564647265737360d01b6064820152608490fd5b8380fd5b5080fd5b5034610127576020366003190112610127576004359062ffffff821680830361012357610156610610565b606481141590816101e9575b816101dc575b816101cf575b506101935750815462ffffff60a01b191660a09190911b62ffffff60a01b1617815580f35b5162461bcd60e51b8152602060048201526016602482015275556e697377617076333a20496e76616c69642066656560501b6044820152606490fd5b612710915014153861016e565b610bb88114159150610168565b6101f48114159150610162565b503461012757816003193601126101275762ffffff6020925460a01c169051908152f35b50903461048f57608036600319011261048f57602435916001600160a01b038316600435818503610123576044356001600160a01b038116929083900361058b5767ffffffffffffffff6064358181116105875736602382011215610587578060040135828111610583573691016024011161057f57845196602097888101906323b872dd60e01b82528660248201523060448201528560648201526064815260a081018181108582111761051157885251889182919082855af16102dd6106a0565b8161054f575b50156105255785518881019063095ea7b360e01b8252732626664c2603336e57b271c5c0b26f421741e481602482015285604482015260448152608081018181108582111761051157885251889283929083905af16103406106a0565b816104e1575b50156104b85762ffffff865460a01c1685519160e0830190838210908211176104a4578652828252736b9bb36519538e0c073894e964e90172e1c0b41f88830190815282870191825233606084019081526080840186815260a085018a815260c086018b81528a516304e45aaf60e01b815296516001600160a01b039081166004890152945185166024880152945162ffffff1660448701529151831660648601525160848501525160a484015290511660c4820152868160e48189732626664c2603336e57b271c5c0b26f421741e4815af1958615610499578096610463575b50507f9cd20ed773bdbb537c6e6ab86e6a1068c4271b9ef6cc9a5e1c08bba87abaa926916060918551918252868883015285820152a251908152f35b909195508682813d8311610492575b61047c8183610668565b8101031261048f57505193816060610427565b80fd5b503d610472565b8551903d90823e3d90fd5b634e487b7160e01b88526041600452602488fd5b845162461bcd60e51b8152600481018890526002602482015261534160f01b6044820152606490fd5b805180159250899083156104f9575b50505038610346565b61050993508201810191016106e0565b3888816104f0565b634e487b7160e01b8a52604160045260248afd5b855162461bcd60e51b815260048101899052600360248201526229aa2360e91b6044820152606490fd5b8051801592508a908315610567575b505050386102e3565b61057793508201810191016106e0565b38898161055e565b8580fd5b8780fd5b8680fd5b8480fd5b5034610127578160031936011261012757905490516001600160a01b039091168152602090f35b823461048f578060031936011261048f576105cf610610565b80546001600160a01b03198116825581906001600160a01b03167f8be0079c531659141344cd1fd0a4f28419497f9722a3daafe3b4186f6b6457e08280a380f35b6000546001600160a01b0316330361062457565b606460405162461bcd60e51b815260206004820152602060248201527f4f776e61626c653a2063616c6c6572206973206e6f7420746865206f776e65726044820152fd5b90601f8019910116810190811067ffffffffffffffff82111761068a57604052565b634e487b7160e01b600052604160045260246000fd5b3d156106db573d9067ffffffffffffffff821161068a57604051916106cf601f8201601f191660200184610668565b82523d6000602084013e565b606090565b908160209103126106f8575180151581036106f85790565b600080fdfea2646970667358221220f6b52fe3884a8a38142314e1f9ca1c458556dbf289b4d0ba48500c27f80e4f2f64736f6c63430008130033",
  "linkReferences": {},
  "deployedLinkReferences": {}
}