{
  "_format": "hh-sol-artifact-1",
  "contractName": "UniswapV3ViaRouterETH",
  "sourceName": "contracts/core/adaptors/UniswapV3ViaRouterETH.sol",
  "abi": [
    {
      "inputs": [],
      "stateMutability": "nonpayable",
      "type": "constructor"
    },
    {
      "anonymous": false,
      "inputs": [
        {
          "indexed": false,
          "internalType": "uint256",
          "name": "amount",
          "type": "uint256"
        },
        {
          "indexed": false,
          "internalType": "uint256",
          "name": "amountOut",
          "type": "uint256"
        },
        {
          "indexed": false,
          "internalType": "address",
          "name": "token",
          "type": "address"
        },
        {
          "indexed": true,
          "internalType": "address",
          "name": "recipient",
          "type": "address"
        }
      ],
      "name": "Bought",
      "type": "event"
    },
    {
      "anonymous": false,
      "inputs": [
        {
          "indexed": true,
          "internalType": "address",
          "name": "previousOwner",
          "type": "address"
        },
        {
          "indexed": true,
          "internalType": "address",
          "name": "newOwner",
          "type": "address"
        }
      ],
      "name": "OwnershipTransferred",
      "type": "event"
    },
    {
      "anonymous": false,
      "inputs": [
        {
          "indexed": false,
          "internalType": "uint256",
          "name": "amount",
          "type": "uint256"
        },
        {
          "indexed": false,
          "internalType": "uint256",
          "name": "amountOut",
          "type": "uint256"
        },
        {
          "indexed": false,
          "internalType": "address",
          "name": "token",
          "type": "address"
        },
        {
          "indexed": true,
          "internalType": "address",
          "name": "recipient",
          "type": "address"
        }
      ],
      "name": "Sold",
      "type": "event"
    },
    {
      "inputs": [
        {
          "internalType": "uint256",
          "name": "amount",
          "type": "uint256"
        },
        {
          "internalType": "address",
          "name": "token",
          "type": "address"
        },
        {
          "internalType": "address",
          "name": "recipient",
          "type": "address"
        },
        {
          "internalType": "bytes",
          "name": "extraData",
          "type": "bytes"
        }
      ],
      "name": "buy",
      "outputs": [
        {
          "internalType": "uint256",
          "name": "",
          "type": "uint256"
        }
      ],
      "stateMutability": "nonpayable",
      "type": "function"
    },
    {
      "inputs": [],
      "name": "fee",
      "outputs": [
        {
          "internalType": "uint24",
          "name": "",
          "type": "uint24"
        }
      ],
      "stateMutability": "view",
      "type": "function"
    },
    {
      "inputs": [],
      "name": "owner",
      "outputs": [
        {
          "internalType": "address",
          "name": "",
          "type": "address"
        }
      ],
      "stateMutability": "view",
      "type": "function"
    },
    {
      "inputs": [],
      "name": "renounceOwnership",
      "outputs": [],
      "stateMutability": "nonpayable",
      "type": "function"
    },
    {
      "inputs": [
        {
          "internalType": "uint256",
          "name": "amount",
          "type": "uint256"
        },
        {
          "internalType": "address",
          "name": "token",
          "type": "address"
        },
        {
          "internalType": "address",
          "name": "recipient",
          "type": "address"
        },
        {
          "internalType": "bytes",
          "name": "extraData",
          "type": "bytes"
        }
      ],
      "name": "sell",
      "outputs": [
        {
          "internalType": "uint256",
          "name": "",
          "type": "uint256"
        }
      ],
      "stateMutability": "nonpayable",
      "type": "function"
    },
    {
      "inputs": [
        {
          "internalType": "uint256",
          "name": "amount",
          "type": "uint256"
        },
        {
          "internalType": "address",
          "name": "token",
          "type": "address"
        },
        {
          "internalType": "address",
          "name": "recipient",
          "type": "address"
        },
        {
          "internalType": "bytes",
          "name": "extraData",
          "type": "bytes"
        }
      ],
      "name": "sellAndBuy",
      "outputs": [
        {
          "internalType": "uint256",
          "name": "",
          "type": "uint256"
        }
      ],
      "stateMutability": "nonpayable",
      "type": "function"
    },
    {
      "inputs": [
        {
          "internalType": "uint24",
          "name": "_fee",
          "type": "uint24"
        }
      ],
      "name": "setFee",
      "outputs": [],
      "stateMutability": "nonpayable",
      "type": "function"
    },
    {
      "inputs": [
        {
          "internalType": "address",
          "name": "_intermidiateToken",
          "type": "address"
        }
      ],
      "name": "setIntermidiateToken",
      "outputs": [],
      "stateMutability": "nonpayable",
      "type": "function"
    },
    {
      "inputs": [
        {
          "internalType": "address",
          "name": "newOwner",
          "type": "address"
        }
      ],
      "name": "transferOwnership",
      "outputs": [],
      "stateMutability": "nonpayable",
      "type": "function"
    }
  ],
  "bytecode": "0x6080346101ed5760008054909190336001600160a01b0382167f8be0079c531659141344cd1fd0a4f28419497f9722a3daafe3b4186f6b6457e08580a36001600160b81b0319163362ffffff60a01b19161761027160a41b178255600180546001600160a01b03191673420000000000000000000000000000000000000690811790915563095ea7b360e01b60208301908152732626664c2603336e57b271c5c0b26f421741e481602484015260001960448085019190915283526001600160401b039260808101848111828210176101d95760405251849283929083905af1913d156101d0573d8281116101bc5760405192601f8201601f19908116603f01168401908111848210176101a85760405282523d81602084013e5b82610160575b505015610136576040516109c690816101f38239f35b60405162461bcd60e51b8152602060048201526002602482015261534160f01b6044820152606490fd5b908092505191821592831561017a575b5050503880610120565b8192935090602091810103126101a457602001519081151582036101a15750388080610170565b80fd5b5080fd5b634e487b7160e01b83526041600452602483fd5b634e487b7160e01b82526041600452602482fd5b6060915061011a565b634e487b7160e01b86526041600452602486fd5b600080fdfe6040608081526004908136101561001557600080fd5b600091823560e01c806303679454146105065780632454b710146104b0578063715018a6146104565780638da5cb5b1461042e578063987bb07b146103a3578063cc3f6d5d14610241578063ddca3f4314610218578063eabb5622146101495763f2fde38b1461008457600080fd5b346101455760203660031901126101455761009d61056d565b906100a66105f8565b6001600160a01b039182169283156100f357505082546001600160a01b0319811683178455167f8be0079c531659141344cd1fd0a4f28419497f9722a3daafe3b4186f6b6457e08380a380f35b906020608492519162461bcd60e51b8352820152602660248201527f4f776e61626c653a206e6577206f776e657220697320746865207a65726f206160448201526564647265737360d01b6064820152fd5b8280fd5b50346101455760203660031901126101455780359162ffffff8316808403610214576101736105f8565b60648114159081610207575b816101fa575b816101ed575b506101b1575050815462ffffff60a01b191660a09190911b62ffffff60a01b1617815580f35b906020606492519162461bcd60e51b83528201526016602482015275556e697377617076333a20496e76616c69642066656560501b6044820152fd5b612710915014153861018b565b610bb88114159150610185565b6101f4811415915061017f565b8480fd5b50503461023d578160031936011261023d5762ffffff6020925460a01c169051908152f35b5080fd5b509034610145576020908160031936011261039f5761025e61056d565b6102666105f8565b6001600160a01b03166006602160991b018114610343578481819260018060a01b031960015416176001558351828682019163095ea7b360e01b8352732626664c2603336e57b271c5c0b26f421741e48160248201526000196044820152604481526102d181610650565b51925af16102dd6106a4565b81610313575b50156102ed578380f35b5162461bcd60e51b8152918201526002602482015261534160f01b604482015260649150fd5b8051801592508490831561032b575b505050386102e3565b61033b93508201810191016106e4565b388381610322565b505162461bcd60e51b815291820152603160248201527f556e69737761705633566961526f757465724554483a20496e76616c69642069604482015270373a32b936b4b234b0ba32903a37b5b2b760791b606482015260849150fd5b8380fd5b82843461042b5760207f4ebd6ef39c1235e69ba7dedf24ad43bdeb57deb289d98473668070d6ca9b685e836103d736610588565b505060018060a09693961b03906104226103f9858460015416848a33926106fc565b8651958652602086018190526001600160a01b0390971660408601529116929081906060820190565b0390a251908152f35b80fd5b50503461023d578160031936011261023d57905490516001600160a01b039091168152602090f35b833461042b578060031936011261042b5761046f6105f8565b80546001600160a01b03198116825581906001600160a01b03167f8be0079c531659141344cd1fd0a4f28419497f9722a3daafe3b4186f6b6457e08280a380f35b82843461042b5760207f55390ad3bffeff90968b8c54d2ed0099a7dbd2d71bc56263a1abf5643f833fec836104e436610588565b505060018060a09693961b03906104226103f98584600154168433918b6106fc565b82843461042b5760207f55390ad3bffeff90968b8c54d2ed0099a7dbd2d71bc56263a1abf5643f833fec8361053a36610588565b505060018060a09693961b03906104226103f9610560868560015416339030908c6106fc565b30848a87600154166106fc565b600435906001600160a01b038216820361058357565b600080fd5b608060031982011261058357600435916001600160a01b0391602435838116810361058357926044359081168103610583579160643567ffffffffffffffff9283821161058357806023830112156105835781600401359384116105835760248483010111610583576024019190565b6000546001600160a01b0316330361060c57565b606460405162461bcd60e51b815260206004820152602060248201527f4f776e61626c653a2063616c6c6572206973206e6f7420746865206f776e65726044820152fd5b6080810190811067ffffffffffffffff82111761066c57604052565b634e487b7160e01b600052604160045260246000fd5b90601f8019910116810190811067ffffffffffffffff82111761066c57604052565b3d156106df573d9067ffffffffffffffff821161066c57604051916106d3601f8201601f191660200184610682565b82523d6000602084013e565b606090565b90816020910312610583575180151581036105835790565b604080516323b872dd60e01b60208083019182526001600160a01b03968716602484015230604484015260648084018a90528352929795969095929467ffffffffffffffff9490939260a081018681118282101761066c578a52600080988192519082855af161076a6106a4565b81610960575b501561093657885193878088870163095ea7b360e01b8152732626664c2603336e57b271c5c0b26f421741e48197886024820152876044820152604481526107b781610650565b519082865af16107c56106a4565b81610906575b50156108dd5762ffffff885460a01c16918a519660e0880190888210908211176108c9578b52891686528816858701908152858a01918252918816606086019081526080860193845260a0860188815260c087018981528b516304e45aaf60e01b815297518b16600489015293518a166024880152915162ffffff166044870152518816606486015291516084850152905160a48401525190941660c4820152928190849081855a9260e493f19384156108be5750819361088d575b50505090565b9091809350813d83116108b7575b6108a58183610682565b8101031261042b575051388080610887565b503d61089b565b51913d9150823e3d90fd5b634e487b7160e01b8a52604160045260248afd5b895162461bcd60e51b8152600481018890526002602482015261534160f01b6044820152606490fd5b8051801592508990831561091e575b505050386107cb565b61092e93508201810191016106e4565b388881610915565b885162461bcd60e51b815260048101879052600360248201526229aa2360e91b6044820152606490fd5b80518015925088908315610978575b50505038610770565b61098893508201810191016106e4565b38878161096f56fea2646970667358221220bb2e804399d13cf926d1d17d387ca7c4a21c15a843c7b36a18347ee404ec4ac064736f6c63430008130033",
  "linkReferences": {},
  "deployedLinkReferences": {}
}