{
  "_format": "hh-sol-artifact-1",
  "contractName": "UniswapV3ViaRouter2",
  "sourceName": "contracts/core/adaptors/UniswapV3ViaRouter2.sol",
  "abi": [
    {
      "inputs": [
        {
          "internalType": "address",
          "name": "_token",
          "type": "address"
        }
      ],
      "stateMutability": "nonpayable",
      "type": "constructor"
    },
    {
      "anonymous": false,
      "inputs": [
        {
          "indexed": true,
          "internalType": "address",
          "name": "previousOwner",
          "type": "address"
        },
        {
          "indexed": true,
          "internalType": "address",
          "name": "newOwner",
          "type": "address"
        }
      ],
      "name": "OwnershipTransferred",
      "type": "event"
    },
    {
      "anonymous": false,
      "inputs": [
        {
          "indexed": false,
          "internalType": "uint256",
          "name": "amount",
          "type": "uint256"
        },
        {
          "indexed": false,
          "internalType": "uint256",
          "name": "amountOut",
          "type": "uint256"
        },
        {
          "indexed": false,
          "internalType": "address",
          "name": "token",
          "type": "address"
        },
        {
          "indexed": true,
          "internalType": "address",
          "name": "recipient",
          "type": "address"
        }
      ],
      "name": "Sold",
      "type": "event"
    },
    {
      "inputs": [],
      "name": "fee",
      "outputs": [
        {
          "internalType": "uint24",
          "name": "",
          "type": "uint24"
        }
      ],
      "stateMutability": "view",
      "type": "function"
    },
    {
      "inputs": [],
      "name": "name",
      "outputs": [
        {
          "internalType": "string",
          "name": "",
          "type": "string"
        }
      ],
      "stateMutability": "view",
      "type": "function"
    },
    {
      "inputs": [],
      "name": "owner",
      "outputs": [
        {
          "internalType": "address",
          "name": "",
          "type": "address"
        }
      ],
      "stateMutability": "view",
      "type": "function"
    },
    {
      "inputs": [],
      "name": "renounceOwnership",
      "outputs": [],
      "stateMutability": "nonpayable",
      "type": "function"
    },
    {
      "inputs": [
        {
          "internalType": "uint256",
          "name": "amount",
          "type": "uint256"
        },
        {
          "internalType": "address",
          "name": "recipient",
          "type": "address"
        }
      ],
      "name": "sell",
      "outputs": [
        {
          "internalType": "uint256",
          "name": "",
          "type": "uint256"
        }
      ],
      "stateMutability": "nonpayable",
      "type": "function"
    },
    {
      "inputs": [
        {
          "internalType": "uint24",
          "name": "_fee",
          "type": "uint24"
        }
      ],
      "name": "setFee",
      "outputs": [],
      "stateMutability": "nonpayable",
      "type": "function"
    },
    {
      "inputs": [],
      "name": "token",
      "outputs": [
        {
          "internalType": "address",
          "name": "",
          "type": "address"
        }
      ],
      "stateMutability": "view",
      "type": "function"
    },
    {
      "inputs": [
        {
          "internalType": "address",
          "name": "newOwner",
          "type": "address"
        }
      ],
      "name": "transferOwnership",
      "outputs": [],
      "stateMutability": "nonpayable",
      "type": "function"
    }
  ],
  "bytecode": "0x60a0806040523461017e5780610b47803803809161001d8285610183565b833960209283918101031261017e57516001600160a01b0380821692909183810361017e5760008054336001600160a01b031982168117835560405192959091167f8be0079c531659141344cd1fd0a4f28419497f9722a3daafe3b4186f6b6457e08680a3841561013c57508293829160805260446040518095819363095ea7b360e01b8352732626664c2603336e57b271c5c0b26f421741e481600484015260001960248401525af18015610131576100f7575b60405161098a90816101bd823960805181818160920152818161033a01526106cd0152f35b81813d831161012a575b61010b8183610183565b810103126101265751801515036101235780806100d2565b80fd5b5080fd5b503d610101565b6040513d85823e3d90fd5b62461bcd60e51b815260048101839052601560248201527f496e76616c696420746f6b656e206164647265737300000000000000000000006044820152606490fd5b600080fd5b601f909101601f19168101906001600160401b038211908210176101a657604052565b634e487b7160e01b600052604160045260246000fdfe608060408181526004918236101561001657600080fd5b600092833560e01c9184836306fdde03146106aa57505081634189a68e1461030a578163715018a6146102ad5781638da5cb5b14610285578163ddca3f4314610260578163eabb562214610194578163f2fde38b146100c5575063fc0c546a1461007f57600080fd5b346100c157816003193601126100c157517f00000000000000000000000000000000000000000000000000000000000000006001600160a01b03168152602090f35b5080fd5b91905034610190576020366003190112610190576001600160a01b0382358181169391929084900361018c576100f961083f565b831561013a57505082546001600160a01b0319811683178455167f8be0079c531659141344cd1fd0a4f28419497f9722a3daafe3b4186f6b6457e08380a380f35b906020608492519162461bcd60e51b8352820152602660248201527f4f776e61626c653a206e6577206f776e657220697320746865207a65726f206160448201526564647265737360d01b6064820152fd5b8480fd5b8280fd5b9050346101905760203660031901126101905780359162ffffff831680840361018c576101bf61083f565b60648114159081610253575b81610246575b81610239575b506101fd575050815462ffffff60a01b191660a09190911b62ffffff60a01b1617815580f35b906020606492519162461bcd60e51b83528201526016602482015275556e697377617076333a20496e76616c69642066656560501b6044820152fd5b61271091501415386101d7565b610bb881141591506101d1565b6101f481141591506101cb565b5050346100c157816003193601126100c15762ffffff6020925460a01c169051908152f35b5050346100c157816003193601126100c157905490516001600160a01b039091168152602090f35b83346103075780600319360112610307576102c661083f565b80546001600160a01b03198116825581906001600160a01b03167f8be0079c531659141344cd1fd0a4f28419497f9722a3daafe3b4186f6b6457e08280a380f35b80fd5b8383346100c157806003193601126100c157602480356001600160a01b03818116928635928490036106a65784517f0000000000000000000000000000000000000000000000000000000000000000606081901b6bffffffffffffffffffffffff191660208084019190915261027160ec1b60348401819052600360611b602160f91b016037850152607d60ea1b604b85015273833589fcd6edb6e08f4c7c32d4f71b54bda0291360601b604e8501526062840152736b9bb36519538e0c073894e964e90172e1c0b41f60601b606584015260598352989092916103ed81610897565b8751928a8401916323b872dd60e01b8352338286015260449230848701528860648701526064865260a086019567ffffffffffffffff9681811088821117610694578c52518c91829190828a5af1610443610907565b81610664575b501561063c57908b9392918b808c5196870163095ea7b360e01b8152732626664c2603336e57b271c5c0b26f421741e4819788868201528c8782015286815261049181610897565b5190828b5af18d6104a0610907565b8261060a575b5050156105e3578a519560808701908111878210176105d157938a8c8f97958f94908c6105118f93988c9960809e9c87528c52898c01968752858c0194855260608c0195898752519d8e9c8d9b8c9a63b858183f60e01b8c528b0152519189015260a488019061081a565b9451169085015251606484015251608483015203925af19687156105c6578097610574575b5050916060917f55390ad3bffeff90968b8c54d2ed0099a7dbd2d71bc56263a1abf5643f833fec93865192835287898401521685820152a251908152f35b909196508782813d83116105bf575b61058d81836108c9565b8101031261030757505194817f55390ad3bffeff90968b8c54d2ed0099a7dbd2d71bc56263a1abf5643f833fec610536565b503d610583565b8651903d90823e3d90fd5b634e487b7160e01b8d5260418552828dfd5b50895162461bcd60e51b81529283018c905260029083015261534160f01b90820152606490fd5b8091925051918215928315610624575b5050508d8f6104a6565b6106349350820181019101610937565b8e8e8161061a565b50885162461bcd60e51b81529283018b90526003908301526229aa2360e91b90820152606490fd5b8051801592508e90831561067c575b5050508d610449565b61068c9350820181019101610937565b8d8d81610673565b634e487b7160e01b8e5260418752848efd5b8580fd5b91828591346100c157816003193601126100c1576306fdde0360e01b84528390817f00000000000000000000000000000000000000000000000000000000000000006001600160a01b03165afa9182156107ed578392610769575b610765838361075360348251846107268296518092602080860191016107f7565b8101731d2ab734b9bbb0b82b19ab34b0a937baba32b91960611b60208201520360148101855201836108c9565b5191829160208352602083019061081a565b0390f35b9091503d8084833e61077b81836108c9565b8101906020818303126107e95780519067ffffffffffffffff821161018c570181601f820112156107e9578051936107b2856108eb565b926107bf855194856108c9565b858452602086840101116103075750610765936107e291602080850191016107f7565b9083610705565b8380fd5b81513d85823e3d90fd5b60005b83811061080a5750506000910152565b81810151838201526020016107fa565b90602091610833815180928185528580860191016107f7565b601f01601f1916010190565b6000546001600160a01b0316330361085357565b606460405162461bcd60e51b815260206004820152602060248201527f4f776e61626c653a2063616c6c6572206973206e6f7420746865206f776e65726044820152fd5b6080810190811067ffffffffffffffff8211176108b357604052565b634e487b7160e01b600052604160045260246000fd5b90601f8019910116810190811067ffffffffffffffff8211176108b357604052565b67ffffffffffffffff81116108b357601f01601f191660200190565b3d15610932573d90610918826108eb565b9161092660405193846108c9565b82523d6000602084013e565b606090565b9081602091031261094f5751801515810361094f5790565b600080fdfea2646970667358221220d4f0ae824fcb40a29c84cbd1f6d5ad4515cba2feed34f3007afda7e1e137986a64736f6c63430008130033",
  "linkReferences": {},
  "deployedLinkReferences": {}
}