{
  "_format": "hh-sol-artifact-1",
  "contractName": "VultMerge",
  "sourceName": "contracts/core/merge/VultMerge.sol",
  "abi": [
    {
      "inputs": [
        {
          "internalType": "address",
          "name": "_wewe",
          "type": "address"
        },
        {
          "internalType": "address",
          "name": "_vult",
          "type": "address"
        },
        {
          "internalType": "uint32",
          "name": "_vestingDuration",
          "type": "uint32"
        },
        {
          "internalType": "uint256",
          "name": "_maxSupply",
          "type": "uint256"
        }
      ],
      "stateMutability": "nonpayable",
      "type": "constructor"
    },
    {
      "inputs": [],
      "name": "InvalidTokenReceived",
      "type": "error"
    },
    {
      "inputs": [],
      "name": "MergeLocked",
      "type": "error"
    },
    {
      "inputs": [],
      "name": "VultToWeweNotAllwed",
      "type": "error"
    },
    {
      "inputs": [],
      "name": "ZeroAmount",
      "type": "error"
    },
    {
      "anonymous": false,
      "inputs": [
        {
          "indexed": false,
          "internalType": "uint256",
          "name": "amount",
          "type": "uint256"
        },
        {
          "indexed": true,
          "internalType": "address",
          "name": "account",
          "type": "address"
        }
      ],
      "name": "Merged",
      "type": "event"
    },
    {
      "anonymous": false,
      "inputs": [
        {
          "indexed": true,
          "internalType": "address",
          "name": "previousOwner",
          "type": "address"
        },
        {
          "indexed": true,
          "internalType": "address",
          "name": "newOwner",
          "type": "address"
        }
      ],
      "name": "OwnershipTransferred",
      "type": "event"
    },
    {
      "anonymous": false,
      "inputs": [
        {
          "indexed": false,
          "internalType": "address",
          "name": "account",
          "type": "address"
        }
      ],
      "name": "Paused",
      "type": "event"
    },
    {
      "anonymous": false,
      "inputs": [
        {
          "indexed": false,
          "internalType": "uint256",
          "name": "newRate",
          "type": "uint256"
        }
      ],
      "name": "RateChanged",
      "type": "event"
    },
    {
      "anonymous": false,
      "inputs": [
        {
          "indexed": false,
          "internalType": "address",
          "name": "account",
          "type": "address"
        }
      ],
      "name": "Unpaused",
      "type": "event"
    },
    {
      "inputs": [
        {
          "internalType": "address",
          "name": "account",
          "type": "address"
        }
      ],
      "name": "balanceOf",
      "outputs": [
        {
          "internalType": "uint256",
          "name": "",
          "type": "uint256"
        }
      ],
      "stateMutability": "view",
      "type": "function"
    },
    {
      "inputs": [
        {
          "internalType": "address",
          "name": "account",
          "type": "address"
        }
      ],
      "name": "canClaim",
      "outputs": [
        {
          "internalType": "bool",
          "name": "",
          "type": "bool"
        }
      ],
      "stateMutability": "view",
      "type": "function"
    },
    {
      "inputs": [],
      "name": "claim",
      "outputs": [],
      "stateMutability": "nonpayable",
      "type": "function"
    },
    {
      "inputs": [
        {
          "internalType": "uint256",
          "name": "amount",
          "type": "uint256"
        }
      ],
      "name": "deposit",
      "outputs": [],
      "stateMutability": "nonpayable",
      "type": "function"
    },
    {
      "inputs": [],
      "name": "depositRequired",
      "outputs": [],
      "stateMutability": "nonpayable",
      "type": "function"
    },
    {
      "inputs": [],
      "name": "getRate",
      "outputs": [
        {
          "internalType": "uint256",
          "name": "",
          "type": "uint256"
        }
      ],
      "stateMutability": "view",
      "type": "function"
    },
    {
      "inputs": [],
      "name": "getToken",
      "outputs": [
        {
          "internalType": "address",
          "name": "",
          "type": "address"
        }
      ],
      "stateMutability": "view",
      "type": "function"
    },
    {
      "inputs": [
        {
          "internalType": "uint256",
          "name": "spendAmount",
          "type": "uint256"
        }
      ],
      "name": "getTotalWeWe",
      "outputs": [
        {
          "internalType": "uint256",
          "name": "",
          "type": "uint256"
        }
      ],
      "stateMutability": "pure",
      "type": "function"
    },
    {
      "inputs": [],
      "name": "lockedStatus",
      "outputs": [
        {
          "internalType": "enum IMerge.LockedStatus",
          "name": "",
          "type": "uint8"
        }
      ],
      "stateMutability": "view",
      "type": "function"
    },
    {
      "inputs": [],
      "name": "maxRate",
      "outputs": [
        {
          "internalType": "int256",
          "name": "",
          "type": "int256"
        }
      ],
      "stateMutability": "view",
      "type": "function"
    },
    {
      "inputs": [],
      "name": "maxSupply",
      "outputs": [
        {
          "internalType": "uint256",
          "name": "",
          "type": "uint256"
        }
      ],
      "stateMutability": "view",
      "type": "function"
    },
    {
      "inputs": [
        {
          "internalType": "uint256",
          "name": "amount",
          "type": "uint256"
        }
      ],
      "name": "merge",
      "outputs": [],
      "stateMutability": "nonpayable",
      "type": "function"
    },
    {
      "inputs": [
        {
          "internalType": "uint256",
          "name": "amount",
          "type": "uint256"
        },
        {
          "internalType": "contract IAMM",
          "name": "amm",
          "type": "address"
        },
        {
          "internalType": "bytes",
          "name": "extraData",
          "type": "bytes"
        }
      ],
      "name": "mergeAndSell",
      "outputs": [],
      "stateMutability": "nonpayable",
      "type": "function"
    },
    {
      "inputs": [],
      "name": "minRate",
      "outputs": [
        {
          "internalType": "int256",
          "name": "",
          "type": "int256"
        }
      ],
      "stateMutability": "view",
      "type": "function"
    },
    {
      "inputs": [
        {
          "internalType": "address",
          "name": "from",
          "type": "address"
        },
        {
          "internalType": "uint256",
          "name": "amount",
          "type": "uint256"
        },
        {
          "internalType": "bytes",
          "name": "data",
          "type": "bytes"
        }
      ],
      "name": "onApprovalReceived",
      "outputs": [
        {
          "internalType": "bytes4",
          "name": "",
          "type": "bytes4"
        }
      ],
      "stateMutability": "nonpayable",
      "type": "function"
    },
    {
      "inputs": [],
      "name": "owner",
      "outputs": [
        {
          "internalType": "address",
          "name": "",
          "type": "address"
        }
      ],
      "stateMutability": "view",
      "type": "function"
    },
    {
      "inputs": [],
      "name": "paused",
      "outputs": [
        {
          "internalType": "bool",
          "name": "",
          "type": "bool"
        }
      ],
      "stateMutability": "view",
      "type": "function"
    },
    {
      "inputs": [
        {
          "internalType": "address",
          "name": "from",
          "type": "address"
        },
        {
          "internalType": "uint256",
          "name": "amount",
          "type": "uint256"
        },
        {
          "internalType": "address",
          "name": "",
          "type": "address"
        },
        {
          "internalType": "bytes",
          "name": "",
          "type": "bytes"
        }
      ],
      "name": "receiveApproval",
      "outputs": [],
      "stateMutability": "nonpayable",
      "type": "function"
    },
    {
      "inputs": [],
      "name": "renounceOwnership",
      "outputs": [],
      "stateMutability": "nonpayable",
      "type": "function"
    },
    {
      "inputs": [
        {
          "internalType": "enum IMerge.LockedStatus",
          "name": "newStatus",
          "type": "uint8"
        }
      ],
      "name": "setLockedStatus",
      "outputs": [],
      "stateMutability": "nonpayable",
      "type": "function"
    },
    {
      "inputs": [
        {
          "internalType": "address",
          "name": "_treasury",
          "type": "address"
        }
      ],
      "name": "setTreasury",
      "outputs": [],
      "stateMutability": "nonpayable",
      "type": "function"
    },
    {
      "inputs": [
        {
          "internalType": "uint32",
          "name": "duration",
          "type": "uint32"
        }
      ],
      "name": "setVestingDuration",
      "outputs": [],
      "stateMutability": "nonpayable",
      "type": "function"
    },
    {
      "inputs": [
        {
          "internalType": "uint256",
          "name": "newVirtualBalance",
          "type": "uint256"
        }
      ],
      "name": "setVirtualWeweBalance",
      "outputs": [],
      "stateMutability": "nonpayable",
      "type": "function"
    },
    {
      "inputs": [],
      "name": "slope",
      "outputs": [
        {
          "internalType": "int256",
          "name": "",
          "type": "int256"
        }
      ],
      "stateMutability": "pure",
      "type": "function"
    },
    {
      "inputs": [],
      "name": "sweep",
      "outputs": [],
      "stateMutability": "nonpayable",
      "type": "function"
    },
    {
      "inputs": [],
      "name": "togglePause",
      "outputs": [],
      "stateMutability": "nonpayable",
      "type": "function"
    },
    {
      "inputs": [],
      "name": "totalVested",
      "outputs": [
        {
          "internalType": "uint256",
          "name": "",
          "type": "uint256"
        }
      ],
      "stateMutability": "view",
      "type": "function"
    },
    {
      "inputs": [
        {
          "internalType": "address",
          "name": "newOwner",
          "type": "address"
        }
      ],
      "name": "transferOwnership",
      "outputs": [],
      "stateMutability": "nonpayable",
      "type": "function"
    },
    {
      "inputs": [],
      "name": "treasury",
      "outputs": [
        {
          "internalType": "address",
          "name": "",
          "type": "address"
        }
      ],
      "stateMutability": "view",
      "type": "function"
    },
    {
      "inputs": [],
      "name": "vestingDuration",
      "outputs": [
        {
          "internalType": "uint32",
          "name": "",
          "type": "uint32"
        }
      ],
      "stateMutability": "view",
      "type": "function"
    },
    {
      "inputs": [
        {
          "internalType": "address",
          "name": "",
          "type": "address"
        }
      ],
      "name": "vestings",
      "outputs": [
        {
          "internalType": "uint256",
          "name": "amount",
          "type": "uint256"
        },
        {
          "internalType": "uint256",
          "name": "end",
          "type": "uint256"
        }
      ],
      "stateMutability": "view",
      "type": "function"
    },
    {
      "inputs": [],
      "name": "wewe",
      "outputs": [
        {
          "internalType": "address",
          "name": "",
          "type": "address"
        }
      ],
      "stateMutability": "view",
      "type": "function"
    },
    {
      "inputs": [],
      "name": "weweBalance",
      "outputs": [
        {
          "internalType": "uint256",
          "name": "",
          "type": "uint256"
        }
      ],
      "stateMutability": "view",
      "type": "function"
    }
  ],
  "bytecode": "0x60803461010457601f61180738819003918201601f19168301916001600160401b0383118484101761010957808492608094604052833981010312610104576100478161011f565b6100536020830161011f565b9160408101519063ffffffff82168092036101045760600151916001600055600154610100600160a81b033360081b1660018060a81b03198216176001556040519460018060a01b039182339160081c167f8be0079c531659141344cd1fd0a4f28419497f9722a3daafe3b4186f6b6457e0600080a38160018060a01b031993168360035416176003551690600254161760025563ffffffff1960075416176007556006556116d390816101348239f35b600080fd5b634e487b7160e01b600052604160045260246000fd5b51906001600160a01b03821682036101045756fe60806040908082526004908136101561001757600080fd5b600092833560e01c9182630cb6044314610e57575081631514617e14610e32578163199cbc5414610e1357838263213897fe14610c015750816321df0da714610bd857816324a47aeb14610b2b5781632a9605f414610ad157816335faa4161461096f5781634e71d92d146108dd5781634f6b6085146108bb5781635394aa3f1461089a5781635825cca21461087b5781635c975abb1461085757816361d027b31461082e578163679aefce146107e657816370a08231146107ae578163715018a61461074d57816372a1789a1461070d5781637b04a2d01461063357816383caf275146106165781638da5cb5b146105e95781638f4ffcb11461051e5781639636d881146104e3578163b6b55f25146104bb578163bf3506c11461047c578163c4ae316814610397578163d5abeb0114610378578163daf4986314610336578163e1f26f221461030d578163ece1d6e5146102f1578163f0f44260146102a9578163f2fde38b146101cb575063f3a752851461019357600080fd5b346101c75760203660031901126101c7573560038110156101c7576101b6610ebb565b60ff8019600b5416911617600b5580f35b5080fd5b919050346102a55760203660031901126102a5576101e7610ea5565b6101ef610ebb565b6001600160a01b0381811693909290841561025357505060018054610100600160a81b03198116600893841b610100600160a81b031617909155901c167f8be0079c531659141344cd1fd0a4f28419497f9722a3daafe3b4186f6b6457e08380a380f35b906020608492519162461bcd60e51b8352820152602660248201527f4f776e61626c653a206e6577206f776e657220697320746865207a65726f206160448201526564647265737360d01b6064820152fd5b8280fd5b83346102ee5760203660031901126102ee576102c3610ea5565b6102cb610ebb565b600980546001600160a01b0319166001600160a01b039290921691909117905580f35b80fd5b8390346101c757816003193601126101c7576020905160788152f35b8390346101c757816003193601126101c75760035490516001600160a01b039091168152602090f35b8390346101c75760203660031901126101c7579081906001600160a01b0361035c610ea5565b1681526008602052206001815491015482519182526020820152f35b8390346101c757816003193601126101c7576020906006549051908152f35b919050346102a557826003193601126102a5576103b2610ebb565b60015460ff81161561043b57506001549060ff821615610401575060ff1916600155513381527f5db9ee0a495bf2e6ff9c91a7834c1ba4fdd244a5e8aa4e537bd38aeae4b073aa90602090a180f35b606490602084519162461bcd60e51b8352820152601460248201527314185d5cd8589b194e881b9bdd081c185d5cd95960621b6044820152fd5b602091509160017f62e78cea01bee320cd4e420270b5ea74000d11b0c9f74754ebdbfc544b05a2589361046c611038565b60ff19161760015551338152a180f35b8390346101c75760203660031901126101c75760209160019082906001600160a01b036104a7610ea5565b168152600885522001549051904210158152f35b5050346101c75760203660031901126101c7576104e0906104da610ebb565b3561165e565b80f35b5050346101c75760203660031901126101c7573563ffffffff81168091036101c75761050d610ebb565b63ffffffff19600754161760075580f35b8383346101c75760803660031901126101c757610539610ea5565b906001600160a01b03604435818116036105e55760643567ffffffffffffffff81116105e15761056c9036908401610e72565b505061057661107c565b61057e611038565b6002541690811561059e575090610597916024356110df565b6001815580f35b606490602086519162461bcd60e51b8352820152601c60248201527f45617465723a20546f6b656e2061646472657373206e6f7420736574000000006044820152fd5b8480fd5b8380fd5b8390346101c757816003193601126101c757600154905160089190911c6001600160a01b03168152602090f35b8390346101c757816003193601126101c757516045198152602090f35b919050346102a55760603660031901126102a55761064f610ea5565b9060243560443567ffffffffffffffff8111610709576106729036908401610e72565b505061067c61107c565b6002546001600160a01b031691338390036106fb5760ff600b541660038110156106e8576002036106da5781156106cc5750600192602095926106be926110df565b55516307b04a2d60e41b8152f35b8451631f2a200560e01b8152fd5b8451633c16196b60e01b8152fd5b634e487b7160e01b875260218252602487fd5b8451636d5f86d560e01b8152fd5b8580fd5b839150346101c757816003193601126101c75760ff600b5416905191600382101561073a57602083838152f35b634e487b7160e01b815260218452602490fd5b83346102ee57806003193601126102ee57610766610ebb565b60018054610100600160a81b03198116909155819060081c6001600160a01b03167f8be0079c531659141344cd1fd0a4f28419497f9722a3daafe3b4186f6b6457e08280a380f35b8390346101c75760203660031901126101c75760209181906001600160a01b036107d6610ea5565b1681526008845220549051908152f35b905082346102ee57806003193601126102ee578254600181019182821161081b576020846108148585611492565b9051908152f35b634e487b7160e01b815260118552602490fd5b8390346101c757816003193601126101c75760095490516001600160a01b039091168152602090f35b8390346101c757816003193601126101c75760209060ff6001541690519015158152f35b8390346101c757816003193601126101c757602090600a549051908152f35b905082346102ee5760203660031901126102ee575061081460209235610f96565b5050346101c75760203660031901126101c7576108d6610ebb565b3560065580f35b9050346102a557826003193601126102a5576108f7611038565b63ffffffff6007541615610962575b338352600860205260018184200154421061092457826104e06115dd565b906020606492519162461bcd60e51b8352820152601860248201527711585d195c8e8815995cdd1a5b99c81b9bdd08195b99195960421b6044820152fd5b61096a6115dd565b610906565b839150346101c757816003193601126101c75761098a610ebb565b60035481516370a0823160e01b8152308582015293602092916001600160a01b0390811691908487602481865afa968715610ac7578697610a98575b508615610a5557600154845163a9059cbb60e01b81526001600160a01b0360089290921c90921616918101918252602082018790529291849184919082908890829060400103925af1908115610a4c5750610a1f578280f35b81610a3e92903d10610a45575b610a368183610fe8565b810190611020565b5081808280f35b503d610a2c565b513d85823e3d90fd5b835162461bcd60e51b8152808301869052601a60248201527f45617465723a204e6f2062616c616e636520746f2073776565700000000000006044820152606490fd5b9096508481813d8311610ac0575b610ab08183610fe8565b81010312610709575195876109c6565b503d610aa6565b84513d88823e3d90fd5b5050346101c757816003193601126101c757610aeb610ebb565b600654815491828203918211610b18575081610b0d610b13926104e0946110d2565b90611492565b61165e565b634e487b7160e01b845260119052602483fd5b919050346102a55760203660031901126102a557803590610b4a611038565b60025483516370a0823160e01b815233928101929092526001600160a01b031690602081602481855afa938415610bcf57508493610b9a575b50610b93826104e0941015611582565b33916110df565b92506020833d8211610bc7575b81610bb460209383610fe8565b810103126105e557915191610b93610b83565b3d9150610ba7565b513d86823e3d90fd5b8390346101c757816003193601126101c75760025490516001600160a01b039091168152602090f35b92915034610e0f576060366003190112610e0f576001600160a01b03602435818116908435908290036107095760443567ffffffffffffffff8111610e0b57610c4d9036908701610e72565b969095610c5861107c565b610c60611038565b60025486516370a0823160e01b81523383820152602099918716908a81602481855afa908115610e0157908692918691610dcc575b50610cad92610ca5911015611582565b3390866110df565b600254875163095ea7b360e01b81526001600160a01b0387168482019081526020810187905290918b9183918a169082908890829060400103925af18015610dc257918a97969594939160a493610da5575b508087600954168015600014610d9f5750309a5b8860025416988b519c8d9a8b998a976302454b7160e41b8952880152602487015216604485015260806064850152816084850152848401378181018301849052601f01601f191681010301925af1908115610a4c5750610d76575b826001815580f35b813d8311610d98575b610d898183610fe8565b810103126102ee573880610d6e565b503d610d7f565b9a610d13565b610dbb90893d8b11610a4557610a368183610fe8565b5038610cff565b88513d86823e3d90fd5b8093508c8092503d8311610dfa575b610de58183610fe8565b810103126105e1579051859190610cad610c95565b503d610ddb565b89513d87823e3d90fd5b8680fd5b5050fd5b919050346102a557826003193601126102a55760209250549051908152f35b8390346101c757816003193601126101c75760209063ffffffff600754169051908152f35b8490346101c757816003193601126101c75780603260209252f35b9181601f84011215610ea05782359167ffffffffffffffff8311610ea05760208381860195010111610ea057565b600080fd5b600435906001600160a01b0382168203610ea057565b60015460081c6001600160a01b03163303610ed257565b606460405162461bcd60e51b815260206004820152602060248201527f4f776e61626c653a2063616c6c6572206973206e6f7420746865206f776e65726044820152fd5b90620186a091828102928184051490151715610f2e57565b634e487b7160e01b600052601160045260246000fd5b9062b71b009180830292830503610f2e57565b818102929160008212600160ff1b821416610f2e578184051490151715610f2e57565b91909160008382019384129112908015821691151617610f2e57565b6201116f198181029190600160ff1b8214600116610f2e57820503610f2e5762b71b009060008282019283129112908015821691151617610f2e57620186a0900560008112610fe25790565b50600090565b90601f8019910116810190811067ffffffffffffffff82111761100a57604052565b634e487b7160e01b600052604160045260246000fd5b90816020910312610ea057518015158103610ea05790565b60ff6001541661104457565b60405162461bcd60e51b815260206004820152601060248201526f14185d5cd8589b194e881c185d5cd95960821b6044820152606490fd5b60026000541461108d576002600055565b60405162461bcd60e51b815260206004820152601f60248201527f5265656e7472616e637947756172643a207265656e7472616e742063616c6c006044820152606490fd5b91908201809211610f2e57565b909291926004908154946111056110fe6110f986896110d2565b610f96565b80976110d2565b835560018060a01b0391826003541693604091825180966370a0823160e01b825230848301528160246020998a935afa9081156113c557600091611398575b5089116113395782516323b872dd60e01b81526001600160a01b03851683820190815230602082015260408101899052909187918391908290036060019082906000908a165af1801561132e57611311575b5060075463ffffffff9890891615611274576111c190858516600052600887528360002054906110d2565b97603c81600754160290811690810361125f576111de90426110d2565b978251918383019083821067ffffffffffffffff83111761124a5750986001917fadc41ba80ffa0859aab1d7cf405a6633a6af94fc3d10e5b0e0bf46cdcc0fd9c898999a8552835286830190815233600052600887528360002092518355519101555b519485521692a2565b604190634e487b7160e01b6000525260246000fd5b601182634e487b7160e01b6000525260246000fd5b600354835163a9059cbb60e01b81526001600160a01b0386169381019384526020840192909252909850859189918616908290600090829060400103925af1968715611306577fadc41ba80ffa0859aab1d7cf405a6633a6af94fc3d10e5b0e0bf46cdcc0fd9c89596976112e9575b50611241565b6112ff90853d8711610a4557610a368183610fe8565b50386112e3565b50513d6000823e3d90fd5b61132790863d8811610a4557610a368183610fe8565b5038611196565b83513d6000823e3d90fd5b5084608492519162461bcd60e51b8352820152603460248201527f44796e616d696345617465723a20496e73756666696369656e7420746f6b656e604482015273103130b630b731b2903a37903a3930b739b332b960611b6064820152fd5b908782813d83116113be575b6113ae8183610fe8565b810103126102ee57505138611144565b503d6113a4565b84513d6000823e3d90fd5b600090801561148e5780806001146114865760021461147e576001918261013383101683600b8410161761146e5760028392935b8082116114315750508260001904821161141d57500290565b634e487b7160e01b81526011600452602490fd5b90938060001904811161145a57818516611451575b800293811c90611404565b80930292611446565b634e487b7160e01b83526011600452602483fd5b929150600283910a9261141d5750565b509060049150565b505050600190565b5090565b60065490811561156c576114d86114d260026114cc6114de6114ee9660451905976114d86114d2856114cc6114c6856113d0565b8d610f57565b05610f16565b91610f44565b90610f7a565b966114e8866113d0565b90610f57565b9060008282039212818312811691831390151617610f2e57600081126115115790565b60405162461bcd60e51b815260206004820152602d60248201527f417265612063616c63756c6174696f6e20726573756c74656420696e2061206e60448201526c656761746976652076616c756560981b6064820152608490fd5b634e487b7160e01b600052601260045260246000fd5b1561158957565b60405162461bcd60e51b815260206004820152602660248201527f56756c744d657267653a20496e73756666696369656e742062616c616e6365206044820152651d1bc819585d60d21b6064820152608490fd5b336000818152600860209081526040808320805490849055600354915163a9059cbb60e01b815260048101959095526024850152909183916001600160a01b031690829081604481015b03925af18015611652576116385750565b61164f9060203d8111610a4557610a368183610fe8565b50565b6040513d6000823e3d90fd5b6003546040516323b872dd60e01b8152336004820152306024820152604481019290925260209082906001600160a01b0316816000816064810161162756fea26469706673582212203f28a4c1dabb6c22e50d8c60989388a862471bf5c0f28b2e880e0ce9dc5f546d64736f6c63430008130033",
  "linkReferences": {},
  "deployedLinkReferences": {}
}