{
  "_format": "hh-sol-artifact-1",
  "contractName": "Wrapper",
  "sourceName": "contracts/core/utils/Wrapper.sol",
  "abi": [
    {
      "inputs": [
        {
          "internalType": "address",
          "name": "_factory",
          "type": "address"
        }
      ],
      "stateMutability": "nonpayable",
      "type": "constructor"
    },
    {
      "inputs": [],
      "name": "factory",
      "outputs": [
        {
          "internalType": "contract IFactory",
          "name": "",
          "type": "address"
        }
      ],
      "stateMutability": "view",
      "type": "function"
    },
    {
      "inputs": [],
      "name": "getNumVaults",
      "outputs": [
        {
          "internalType": "uint256",
          "name": "",
          "type": "uint256"
        }
      ],
      "stateMutability": "view",
      "type": "function"
    },
    {
      "inputs": [
        {
          "internalType": "uint256",
          "name": "startIndex",
          "type": "uint256"
        },
        {
          "internalType": "uint256",
          "name": "endIndex",
          "type": "uint256"
        }
      ],
      "name": "getVaults",
      "outputs": [
        {
          "components": [
            {
              "internalType": "address",
              "name": "token0",
              "type": "address"
            },
            {
              "internalType": "address",
              "name": "token1",
              "type": "address"
            },
            {
              "internalType": "string",
              "name": "name0",
              "type": "string"
            },
            {
              "internalType": "string",
              "name": "name1",
              "type": "string"
            },
            {
              "internalType": "string",
              "name": "symbol0",
              "type": "string"
            },
            {
              "internalType": "string",
              "name": "symbol1",
              "type": "string"
            },
            {
              "internalType": "uint8",
              "name": "decimals0",
              "type": "uint8"
            },
            {
              "internalType": "uint8",
              "name": "decimals1",
              "type": "uint8"
            }
          ],
          "internalType": "struct IVault[]",
          "name": "",
          "type": "tuple[]"
        }
      ],
      "stateMutability": "view",
      "type": "function"
    }
  ],
  "bytecode": "0x60a03461007857601f6109f638819003918201601f19168301916001600160401b0383118484101761007d5780849260209460405283398101031261007857516001600160a01b03811690819003610078576080526040516109629081610094823960805181818160560152818160c1015261073f0152f35b600080fd5b634e487b7160e01b600052604160045260246000fdfe608080604052600436101561001357600080fd5b60003560e01c90816303aaee111461071c57508063b98cca371461008a5763c45a01551461004057600080fd5b34610085576000366003190112610085576040517f00000000000000000000000000000000000000000000000000000000000000006001600160a01b03168152602090f35b600080fd5b34610085576040366003190112610085576040516366a82a5160e01b815260048035908201526024803581830152906000816044817f00000000000000000000000000000000000000000000000000000000000000006001600160a01b03165afa9081156103b057600091610682575b50805161010681610851565b90610114604051928361082f565b808252610123601f1991610851565b0160005b81811061063757505060005b825181101561054e576001600160a01b0361014e828561087d565b5116604051630dfe168160e01b91828252602082600481845afa9182156103b057600092610512575b506040519163d21220a760e01b808452602084600481865afa9384156103b0576000946104d6575b50604051948552602085600481865afa9485156103b057600095610498575b5060209060046040518095819382525afa9182156103b05760009261045c575b506040516306fdde0360e01b8082526000826004816001600160a01b0387165afa9182156103b05760009261043f575b506040519081526000816004816001600160a01b0389165afa9081156103b057600091610424575b506040516395d89b4160e01b8152916000836004816001600160a01b0388165afa9283156103b057600093610407575b506040516395d89b4160e01b8152946000866004816001600160a01b038b165afa9485156103b0576004966000966103df575b5060405163313ce56760e01b81529660209188919082906001600160a01b03165afa9586156103b0576000966103bc575b5060405163313ce56760e01b81529596602090879060049082906001600160a01b03165afa9586156103b05760009661037f575b506040519761030c896107fc565b6001600160a01b03908116895216602088015260408701526060860152608085015260a084015260ff91821660c08401521660e082015261034d828461087d565b52610358818361087d565b50600019811461036a57600101610133565b83634e487b7160e01b60005260116004526000fd5b6103a291965060203d6020116103a9575b61039a818361082f565b810190610913565b948c6102fe565b503d610390565b6040513d6000823e3d90fd5b600496506103d8602091823d84116103a95761039a818361082f565b96506102ca565b6020919650610400903d806000833e6103f8818361082f565b8101906108a7565b9590610299565b61041d9193503d806000833e6103f8818361082f565b918b610266565b61043991503d806000833e6103f8818361082f565b8a610236565b6104559192503d806000833e6103f8818361082f565b908a61020e565b9091506020813d602011610490575b816104786020938361082f565b810103126100855761048990610869565b90886101de565b3d915061046b565b9094506020813d6020116104ce575b816104b46020938361082f565b81010312610085576104c7602091610869565b94906101be565b3d91506104a7565b9093506020813d60201161050a575b816104f26020938361082f565b810103126100855761050390610869565b928961019f565b3d91506104e5565b9091506020813d602011610546575b8161052e6020938361082f565b810103126100855761053f90610869565b9087610177565b3d9150610521565b5060405160209182820192808352815180945260408301938160408260051b8601019301916000955b8287106105845785850386f35b909192938280600192603f19898203018552875190848060a01b038251168152848060a01b0383830151168382015260e06106106105fd6105ea6105d760408701516101008060408901528701906107d7565b60608088015190878303908801526107d7565b60808087015190868303908701526107d7565b60a08086015190858303908601526107d7565b928160ff9160c0838183015116908601520151169101529601920196019592919092610577565b602090604051610646816107fc565b60008152826000818301526060806040840152808084015280608084015260a0830152600060c0830152600060e0830152828601015201610127565b90503d806000833e610694818361082f565b81019060209081818403126100855780519067ffffffffffffffff821161008557019180601f840112156100855782516106cd81610851565b936106db604051958661082f565b818552838086019260051b820101928311610085578301905b8282106107055750505050826100fa565b83809161071184610869565b8152019101906106f4565b34610085576000366003190112610085576304c94c4160e31b81526020816004817f00000000000000000000000000000000000000000000000000000000000000006001600160a01b03165afa80156103b057600090610782575b602090604051908152f35b506020813d82116107ac575b8161079b6020938361082f565b810103126100855760209051610777565b3d915061078e565b60005b8381106107c75750506000910152565b81810151838201526020016107b7565b906020916107f0815180928185528580860191016107b4565b601f01601f1916010190565b610100810190811067ffffffffffffffff82111761081957604052565b634e487b7160e01b600052604160045260246000fd5b90601f8019910116810190811067ffffffffffffffff82111761081957604052565b67ffffffffffffffff81116108195760051b60200190565b51906001600160a01b038216820361008557565b80518210156108915760209160051b010190565b634e487b7160e01b600052603260045260246000fd5b60208183031261008557805167ffffffffffffffff9182821161008557019082601f8301121561008557815190811161081957604051926108f2601f8301601f19166020018561082f565b818452602082840101116100855761091091602080850191016107b4565b90565b90816020910312610085575160ff81168103610085579056fea2646970667358221220d66511907647db7d3f8701d20a36ce032e480a164d2512b918e30af2ebcd7cd264736f6c63430008130033",
  "linkReferences": {},
  "deployedLinkReferences": {}
}