{
  "contracts/core/utils/Wrapper.sol": {
    "Wrapper": {
      "abi": [
        {
          "inputs": [
            {
              "internalType": "address",
              "name": "_factory",
              "type": "address"
            }
          ],
          "stateMutability": "nonpayable",
          "type": "constructor"
        },
        {
          "anonymous": false,
          "inputs": [
            {
              "indexed": true,
              "internalType": "address",
              "name": "previousOwner",
              "type": "address"
            },
            {
              "indexed": true,
              "internalType": "address",
              "name": "newOwner",
              "type": "address"
            }
          ],
          "name": "OwnershipTransferred",
          "type": "event"
        },
        {
          "inputs": [],
          "name": "factory",
          "outputs": [
            {
              "internalType": "contract IFactory",
              "name": "",
              "type": "address"
            }
          ],
          "stateMutability": "view",
          "type": "function"
        },
        {
          "inputs": [],
          "name": "getNumVaults",
          "outputs": [
            {
              "internalType": "uint256",
              "name": "",
              "type": "uint256"
            }
          ],
          "stateMutability": "view",
          "type": "function"
        },
        {
          "inputs": [
            {
              "internalType": "uint256",
              "name": "startIndex",
              "type": "uint256"
            },
            {
              "internalType": "uint256",
              "name": "endIndex",
              "type": "uint256"
            }
          ],
          "name": "getVaults",
          "outputs": [
            {
              "components": [
                {
                  "internalType": "address",
                  "name": "token0",
                  "type": "address"
                },
                {
                  "internalType": "address",
                  "name": "token1",
                  "type": "address"
                },
                {
                  "internalType": "string",
                  "name": "name0",
                  "type": "string"
                },
                {
                  "internalType": "string",
                  "name": "name1",
                  "type": "string"
                },
                {
                  "internalType": "string",
                  "name": "symbol0",
                  "type": "string"
                },
                {
                  "internalType": "string",
                  "name": "symbol1",
                  "type": "string"
                },
                {
                  "internalType": "uint8",
                  "name": "decimals0",
                  "type": "uint8"
                },
                {
                  "internalType": "uint8",
                  "name": "decimals1",
                  "type": "uint8"
                }
              ],
              "internalType": "struct IVault[]",
              "name": "",
              "type": "tuple[]"
            }
          ],
          "stateMutability": "view",
          "type": "function"
        },
        {
          "inputs": [],
          "name": "owner",
          "outputs": [
            {
              "internalType": "address",
              "name": "",
              "type": "address"
            }
          ],
          "stateMutability": "view",
          "type": "function"
        },
        {
          "inputs": [],
          "name": "renounceOwnership",
          "outputs": [],
          "stateMutability": "nonpayable",
          "type": "function"
        },
        {
          "inputs": [
            {
              "internalType": "address",
              "name": "blackListed",
              "type": "address"
            }
          ],
          "name": "setBlackListed",
          "outputs": [],
          "stateMutability": "nonpayable",
          "type": "function"
        },
        {
          "inputs": [
            {
              "internalType": "address",
              "name": "newOwner",
              "type": "address"
            }
          ],
          "name": "transferOwnership",
          "outputs": [],
          "stateMutability": "nonpayable",
          "type": "function"
        }
      ],
      "evm": {
        "bytecode": {
          "linkReferences": {},
          "object": "60a0346100b757601f610ca438819003918201601f19168301916001600160401b038311848410176100bc578084926020946040528339810103126100b757516001600160a01b0390818116908190036100b7576000543360018060a01b0319821617600055604051923391167f8be0079c531659141344cd1fd0a4f28419497f9722a3daafe3b4186f6b6457e0600080a3608052610bd190816100d3823960805181818161014a015281816101af01526109560152f35b600080fd5b634e487b7160e01b600052604160045260246000fdfe608080604052600436101561001357600080fd5b60003560e01c90816303aaee11146109335750806346f44c97146108ef578063715018a6146108965780638da5cb5b1461086d578063b98cca3714610179578063c45a0155146101345763f2fde38b1461006c57600080fd5b3461012f57602036600319011261012f576004356001600160a01b038181169182900361012f5761009b610a13565b81156100db576000548260018060a01b0319821617600055167f8be0079c531659141344cd1fd0a4f28419497f9722a3daafe3b4186f6b6457e0600080a3005b60405162461bcd60e51b815260206004820152602660248201527f4f776e61626c653a206e6577206f776e657220697320746865207a65726f206160448201526564647265737360d01b6064820152608490fd5b600080fd5b3461012f57600036600319011261012f576040517f00000000000000000000000000000000000000000000000000000000000000006001600160a01b03168152602090f35b3461012f57604036600319011261012f576040516366a82a5160e01b8152600480359082015260248035908201526000816044817f00000000000000000000000000000000000000000000000000000000000000006001600160a01b03165afa9081156105db576000916107d3575b5080516101f481610ac0565b906102026040519283610a9e565b808252610211601f1991610ac0565b0160005b818110610788576001805484919060009087906001600160a01b0316835b61032c575b505050604051918291602090818401828552835180915260408501928060408360051b8801019501936000905b8382106102725787870388f35b918496819592949698508190603f198b820301855289519060018060a01b03825116815260018060a01b0383830151168382015260e06103036102f06102dd6102ca60408701516101008060408901528701906109ee565b60608088015190878303908801526109ee565b60808087015190868303908701526109ee565b60a08086015190858303908601526109ee565b928160ff9160c08381830151169086015201511691015298019201920187969593919492610265565b81949293945184101561077f57806001600160a01b0361034c8685610aec565b51161461077a576001600160a01b036103658584610aec565b511660405190630dfe168160e01b91828152602081600481855afa9081156105db57600091610740575b5060405163d21220a760e01b815291602083600481845afa9283156105db57600093610704575b50604051938452602084600481845afa9384156105db576000946106c1575b509060206004926040519384809263d21220a760e01b82525afa9182156105db57600092610685575b506040516306fdde0360e01b81526000816004816001600160a01b0386165afa9081156105db5760009161066a575b506040516306fdde0360e01b81526000816004816001600160a01b0389165afa9081156105db5760009161064f575b506040516395d89b4160e01b8152916000836004816001600160a01b0388165afa9283156105db57600093610632575b506040516395d89b4160e01b8152946000866004816001600160a01b038b165afa9485156105db5760049660009661060a575b5060405163313ce56760e01b81529660209188919082906001600160a01b03165afa9586156105db576000966105e7575b5060405163313ce56760e01b81529596602090879060049082906001600160a01b03165afa9586156105db576000966105aa575b506040519761053289610a6b565b6001600160a01b03908116895216602088015260408701526060860152608085015260a084015260ff91821660c08401521660e08201526105738585610aec565b5261057e8484610aec565b505b600019841461059457848094019294610233565b634e487b7160e01b600052601160045260246000fd5b6105cd91965060203d6020116105d4575b6105c58183610a9e565b810190610b82565b948d610524565b503d6105bb565b6040513d6000823e3d90fd5b60049650610603602091823d84116105d4576105c58183610a9e565b96506104f0565b602091965061062b903d806000833e6106238183610a9e565b810190610b16565b95906104bf565b6106489193503d806000833e6106238183610a9e565b918c61048c565b61066491503d806000833e6106238183610a9e565b8b61045c565b61067f91503d806000833e6106238183610a9e565b8a61042d565b9091506020813d6020116106b9575b816106a160209383610a9e565b8101031261012f576106b290610ad8565b90896103fe565b3d9150610694565b919093506020823d6020116106fc575b816106de60209383610a9e565b8101031261012f5760206106f3600493610ad8565b949192506103d5565b3d91506106d1565b9092506020813d602011610738575b8161072060209383610a9e565b8101031261012f5761073190610ad8565b91896103b6565b3d9150610713565b90506020813d602011610772575b8161075b60209383610a9e565b8101031261012f5761076c90610ad8565b8861038f565b3d915061074e565b610580565b82949350610238565b60209060405161079781610a6b565b60008152826000818301526060806040840152808084015280608084015260a0830152600060c0830152600060e0830152828601015201610215565b90503d806000833e6107e58183610a9e565b8101602091828183031261012f5780519067ffffffffffffffff821161012f57019080601f8301121561012f57815161081d81610ac0565b9261082b6040519485610a9e565b818452848085019260051b82010192831161012f578401905b828210610856575050509050816101e8565b84809161086284610ad8565b815201910190610844565b3461012f57600036600319011261012f576000546040516001600160a01b039091168152602090f35b3461012f57600036600319011261012f576108af610a13565b600080546001600160a01b0319811682556001600160a01b03167f8be0079c531659141344cd1fd0a4f28419497f9722a3daafe3b4186f6b6457e08280a3005b3461012f57602036600319011261012f576004356001600160a01b0381169081900361012f5761091d610a13565b600180546001600160a01b031916919091179055005b3461012f57600036600319011261012f576304c94c4160e31b81526020816004817f00000000000000000000000000000000000000000000000000000000000000006001600160a01b03165afa80156105db57600090610999575b602090604051908152f35b506020813d82116109c3575b816109b260209383610a9e565b8101031261012f576020905161098e565b3d91506109a5565b60005b8381106109de5750506000910152565b81810151838201526020016109ce565b90602091610a07815180928185528580860191016109cb565b601f01601f1916010190565b6000546001600160a01b03163303610a2757565b606460405162461bcd60e51b815260206004820152602060248201527f4f776e61626c653a2063616c6c6572206973206e6f7420746865206f776e65726044820152fd5b610100810190811067ffffffffffffffff821117610a8857604052565b634e487b7160e01b600052604160045260246000fd5b90601f8019910116810190811067ffffffffffffffff821117610a8857604052565b67ffffffffffffffff8111610a885760051b60200190565b51906001600160a01b038216820361012f57565b8051821015610b005760209160051b010190565b634e487b7160e01b600052603260045260246000fd5b60208183031261012f57805167ffffffffffffffff9182821161012f57019082601f8301121561012f578151908111610a885760405192610b61601f8301601f191660200185610a9e565b8184526020828401011161012f57610b7f91602080850191016109cb565b90565b9081602091031261012f575160ff8116810361012f579056fea2646970667358221220d27654ed25d4ddf235469a0bfaf58aa538849752a8600d8e9da9b50e0ef1dd7c64736f6c63430008130033",
          "opcodes": "PUSH1 0xA0 CALLVALUE PUSH2 0xB7 JUMPI PUSH1 0x1F PUSH2 0xCA4 CODESIZE DUP2 SWAP1 SUB SWAP2 DUP3 ADD PUSH1 0x1F NOT AND DUP4 ADD SWAP2 PUSH1 0x1 PUSH1 0x1 PUSH1 0x40 SHL SUB DUP4 GT DUP5 DUP5 LT OR PUSH2 0xBC JUMPI DUP1 DUP5 SWAP3 PUSH1 0x20 SWAP5 PUSH1 0x40 MSTORE DUP4 CODECOPY DUP2 ADD SUB SLT PUSH2 0xB7 JUMPI MLOAD PUSH1 0x1 PUSH1 0x1 PUSH1 0xA0 SHL SUB SWAP1 DUP2 DUP2 AND SWAP1 DUP2 SWAP1 SUB PUSH2 0xB7 JUMPI PUSH1 0x0 SLOAD CALLER PUSH1 0x1 DUP1 PUSH1 0xA0 SHL SUB NOT DUP3 AND OR PUSH1 0x0 SSTORE PUSH1 0x40 MLOAD SWAP3 CALLER SWAP2 AND PUSH32 0x8BE0079C531659141344CD1FD0A4F28419497F9722A3DAAFE3B4186F6B6457E0 PUSH1 0x0 DUP1 LOG3 PUSH1 0x80 MSTORE PUSH2 0xBD1 SWAP1 DUP2 PUSH2 0xD3 DUP3 CODECOPY PUSH1 0x80 MLOAD DUP2 DUP2 DUP2 PUSH2 0x14A ADD MSTORE DUP2 DUP2 PUSH2 0x1AF ADD MSTORE PUSH2 0x956 ADD MSTORE RETURN JUMPDEST PUSH1 0x0 DUP1 REVERT JUMPDEST PUSH4 0x4E487B71 PUSH1 0xE0 SHL PUSH1 0x0 MSTORE PUSH1 0x41 PUSH1 0x4 MSTORE PUSH1 0x24 PUSH1 0x0 REVERT INVALID PUSH1 0x80 DUP1 PUSH1 0x40 MSTORE PUSH1 0x4 CALLDATASIZE LT ISZERO PUSH2 0x13 JUMPI PUSH1 0x0 DUP1 REVERT JUMPDEST PUSH1 0x0 CALLDATALOAD PUSH1 0xE0 SHR SWAP1 DUP2 PUSH4 0x3AAEE11 EQ PUSH2 0x933 JUMPI POP DUP1 PUSH4 0x46F44C97 EQ PUSH2 0x8EF JUMPI DUP1 PUSH4 0x715018A6 EQ PUSH2 0x896 JUMPI DUP1 PUSH4 0x8DA5CB5B EQ PUSH2 0x86D JUMPI DUP1 PUSH4 0xB98CCA37 EQ PUSH2 0x179 JUMPI DUP1 PUSH4 0xC45A0155 EQ PUSH2 0x134 JUMPI PUSH4 0xF2FDE38B EQ PUSH2 0x6C JUMPI PUSH1 0x0 DUP1 REVERT JUMPDEST CALLVALUE PUSH2 0x12F JUMPI PUSH1 0x20 CALLDATASIZE PUSH1 0x3 NOT ADD SLT PUSH2 0x12F JUMPI PUSH1 0x4 CALLDATALOAD PUSH1 0x1 PUSH1 0x1 PUSH1 0xA0 SHL SUB DUP2 DUP2 AND SWAP2 DUP3 SWAP1 SUB PUSH2 0x12F JUMPI PUSH2 0x9B PUSH2 0xA13 JUMP JUMPDEST DUP2 ISZERO PUSH2 0xDB JUMPI PUSH1 0x0 SLOAD DUP3 PUSH1 0x1 DUP1 PUSH1 0xA0 SHL SUB NOT DUP3 AND OR PUSH1 0x0 SSTORE AND PUSH32 0x8BE0079C531659141344CD1FD0A4F28419497F9722A3DAAFE3B4186F6B6457E0 PUSH1 0x0 DUP1 LOG3 STOP JUMPDEST PUSH1 0x40 MLOAD PUSH3 0x461BCD PUSH1 0xE5 SHL DUP2 MSTORE PUSH1 0x20 PUSH1 0x4 DUP3 ADD MSTORE PUSH1 0x26 PUSH1 0x24 DUP3 ADD MSTORE PUSH32 0x4F776E61626C653A206E6577206F776E657220697320746865207A65726F2061 PUSH1 0x44 DUP3 ADD MSTORE PUSH6 0x646472657373 PUSH1 0xD0 SHL PUSH1 0x64 DUP3 ADD MSTORE PUSH1 0x84 SWAP1 REVERT JUMPDEST PUSH1 0x0 DUP1 REVERT JUMPDEST CALLVALUE PUSH2 0x12F JUMPI PUSH1 0x0 CALLDATASIZE PUSH1 0x3 NOT ADD SLT PUSH2 0x12F JUMPI PUSH1 0x40 MLOAD PUSH32 0x0 PUSH1 0x1 PUSH1 0x1 PUSH1 0xA0 SHL SUB AND DUP2 MSTORE PUSH1 0x20 SWAP1 RETURN JUMPDEST CALLVALUE PUSH2 0x12F JUMPI PUSH1 0x40 CALLDATASIZE PUSH1 0x3 NOT ADD SLT PUSH2 0x12F JUMPI PUSH1 0x40 MLOAD PUSH4 0x66A82A51 PUSH1 0xE0 SHL DUP2 MSTORE PUSH1 0x4 DUP1 CALLDATALOAD SWAP1 DUP3 ADD MSTORE PUSH1 0x24 DUP1 CALLDATALOAD SWAP1 DUP3 ADD MSTORE PUSH1 0x0 DUP2 PUSH1 0x44 DUP2 PUSH32 0x0 PUSH1 0x1 PUSH1 0x1 PUSH1 0xA0 SHL SUB AND GAS STATICCALL SWAP1 DUP2 ISZERO PUSH2 0x5DB JUMPI PUSH1 0x0 SWAP2 PUSH2 0x7D3 JUMPI JUMPDEST POP DUP1 MLOAD PUSH2 0x1F4 DUP2 PUSH2 0xAC0 JUMP JUMPDEST SWAP1 PUSH2 0x202 PUSH1 0x40 MLOAD SWAP3 DUP4 PUSH2 0xA9E JUMP JUMPDEST DUP1 DUP3 MSTORE PUSH2 0x211 PUSH1 0x1F NOT SWAP2 PUSH2 0xAC0 JUMP JUMPDEST ADD PUSH1 0x0 JUMPDEST DUP2 DUP2 LT PUSH2 0x788 JUMPI PUSH1 0x1 DUP1 SLOAD DUP5 SWAP2 SWAP1 PUSH1 0x0 SWAP1 DUP8 SWAP1 PUSH1 0x1 PUSH1 0x1 PUSH1 0xA0 SHL SUB AND DUP4 JUMPDEST PUSH2 0x32C JUMPI JUMPDEST POP POP POP PUSH1 0x40 MLOAD SWAP2 DUP3 SWAP2 PUSH1 0x20 SWAP1 DUP2 DUP5 ADD DUP3 DUP6 MSTORE DUP4 MLOAD DUP1 SWAP2 MSTORE PUSH1 0x40 DUP6 ADD SWAP3 DUP1 PUSH1 0x40 DUP4 PUSH1 0x5 SHL DUP9 ADD ADD SWAP6 ADD SWAP4 PUSH1 0x0 SWAP1 JUMPDEST DUP4 DUP3 LT PUSH2 0x272 JUMPI DUP8 DUP8 SUB DUP9 RETURN JUMPDEST SWAP2 DUP5 SWAP7 DUP2 SWAP6 SWAP3 SWAP5 SWAP7 SWAP9 POP DUP2 SWAP1 PUSH1 0x3F NOT DUP12 DUP3 SUB ADD DUP6 MSTORE DUP10 MLOAD SWAP1 PUSH1 0x1 DUP1 PUSH1 0xA0 SHL SUB DUP3 MLOAD AND DUP2 MSTORE PUSH1 0x1 DUP1 PUSH1 0xA0 SHL SUB DUP4 DUP4 ADD MLOAD AND DUP4 DUP3 ADD MSTORE PUSH1 0xE0 PUSH2 0x303 PUSH2 0x2F0 PUSH2 0x2DD PUSH2 0x2CA PUSH1 0x40 DUP8 ADD MLOAD PUSH2 0x100 DUP1 PUSH1 0x40 DUP10 ADD MSTORE DUP8 ADD SWAP1 PUSH2 0x9EE JUMP JUMPDEST PUSH1 0x60 DUP1 DUP9 ADD MLOAD SWAP1 DUP8 DUP4 SUB SWAP1 DUP9 ADD MSTORE PUSH2 0x9EE JUMP JUMPDEST PUSH1 0x80 DUP1 DUP8 ADD MLOAD SWAP1 DUP7 DUP4 SUB SWAP1 DUP8 ADD MSTORE PUSH2 0x9EE JUMP JUMPDEST PUSH1 0xA0 DUP1 DUP7 ADD MLOAD SWAP1 DUP6 DUP4 SUB SWAP1 DUP7 ADD MSTORE PUSH2 0x9EE JUMP JUMPDEST SWAP3 DUP2 PUSH1 0xFF SWAP2 PUSH1 0xC0 DUP4 DUP2 DUP4 ADD MLOAD AND SWAP1 DUP7 ADD MSTORE ADD MLOAD AND SWAP2 ADD MSTORE SWAP9 ADD SWAP3 ADD SWAP3 ADD DUP8 SWAP7 SWAP6 SWAP4 SWAP2 SWAP5 SWAP3 PUSH2 0x265 JUMP JUMPDEST DUP2 SWAP5 SWAP3 SWAP4 SWAP5 MLOAD DUP5 LT ISZERO PUSH2 0x77F JUMPI DUP1 PUSH1 0x1 PUSH1 0x1 PUSH1 0xA0 SHL SUB PUSH2 0x34C DUP7 DUP6 PUSH2 0xAEC JUMP JUMPDEST MLOAD AND EQ PUSH2 0x77A JUMPI PUSH1 0x1 PUSH1 0x1 PUSH1 0xA0 SHL SUB PUSH2 0x365 DUP6 DUP5 PUSH2 0xAEC JUMP JUMPDEST MLOAD AND PUSH1 0x40 MLOAD SWAP1 PUSH4 0xDFE1681 PUSH1 0xE0 SHL SWAP2 DUP3 DUP2 MSTORE PUSH1 0x20 DUP2 PUSH1 0x4 DUP2 DUP6 GAS STATICCALL SWAP1 DUP2 ISZERO PUSH2 0x5DB JUMPI PUSH1 0x0 SWAP2 PUSH2 0x740 JUMPI JUMPDEST POP PUSH1 0x40 MLOAD PUSH4 0xD21220A7 PUSH1 0xE0 SHL DUP2 MSTORE SWAP2 PUSH1 0x20 DUP4 PUSH1 0x4 DUP2 DUP5 GAS STATICCALL SWAP3 DUP4 ISZERO PUSH2 0x5DB JUMPI PUSH1 0x0 SWAP4 PUSH2 0x704 JUMPI JUMPDEST POP PUSH1 0x40 MLOAD SWAP4 DUP5 MSTORE PUSH1 0x20 DUP5 PUSH1 0x4 DUP2 DUP5 GAS STATICCALL SWAP4 DUP5 ISZERO PUSH2 0x5DB JUMPI PUSH1 0x0 SWAP5 PUSH2 0x6C1 JUMPI JUMPDEST POP SWAP1 PUSH1 0x20 PUSH1 0x4 SWAP3 PUSH1 0x40 MLOAD SWAP4 DUP5 DUP1 SWAP3 PUSH4 0xD21220A7 PUSH1 0xE0 SHL DUP3 MSTORE GAS STATICCALL SWAP2 DUP3 ISZERO PUSH2 0x5DB JUMPI PUSH1 0x0 SWAP3 PUSH2 0x685 JUMPI JUMPDEST POP PUSH1 0x40 MLOAD PUSH4 0x6FDDE03 PUSH1 0xE0 SHL DUP2 MSTORE PUSH1 0x0 DUP2 PUSH1 0x4 DUP2 PUSH1 0x1 PUSH1 0x1 PUSH1 0xA0 SHL SUB DUP7 AND GAS STATICCALL SWAP1 DUP2 ISZERO PUSH2 0x5DB JUMPI PUSH1 0x0 SWAP2 PUSH2 0x66A JUMPI JUMPDEST POP PUSH1 0x40 MLOAD PUSH4 0x6FDDE03 PUSH1 0xE0 SHL DUP2 MSTORE PUSH1 0x0 DUP2 PUSH1 0x4 DUP2 PUSH1 0x1 PUSH1 0x1 PUSH1 0xA0 SHL SUB DUP10 AND GAS STATICCALL SWAP1 DUP2 ISZERO PUSH2 0x5DB JUMPI PUSH1 0x0 SWAP2 PUSH2 0x64F JUMPI JUMPDEST POP PUSH1 0x40 MLOAD PUSH4 0x95D89B41 PUSH1 0xE0 SHL DUP2 MSTORE SWAP2 PUSH1 0x0 DUP4 PUSH1 0x4 DUP2 PUSH1 0x1 PUSH1 0x1 PUSH1 0xA0 SHL SUB DUP9 AND GAS STATICCALL SWAP3 DUP4 ISZERO PUSH2 0x5DB JUMPI PUSH1 0x0 SWAP4 PUSH2 0x632 JUMPI JUMPDEST POP PUSH1 0x40 MLOAD PUSH4 0x95D89B41 PUSH1 0xE0 SHL DUP2 MSTORE SWAP5 PUSH1 0x0 DUP7 PUSH1 0x4 DUP2 PUSH1 0x1 PUSH1 0x1 PUSH1 0xA0 SHL SUB DUP12 AND GAS STATICCALL SWAP5 DUP6 ISZERO PUSH2 0x5DB JUMPI PUSH1 0x4 SWAP7 PUSH1 0x0 SWAP7 PUSH2 0x60A JUMPI JUMPDEST POP PUSH1 0x40 MLOAD PUSH4 0x313CE567 PUSH1 0xE0 SHL DUP2 MSTORE SWAP7 PUSH1 0x20 SWAP2 DUP9 SWAP2 SWAP1 DUP3 SWAP1 PUSH1 0x1 PUSH1 0x1 PUSH1 0xA0 SHL SUB AND GAS STATICCALL SWAP6 DUP7 ISZERO PUSH2 0x5DB JUMPI PUSH1 0x0 SWAP7 PUSH2 0x5E7 JUMPI JUMPDEST POP PUSH1 0x40 MLOAD PUSH4 0x313CE567 PUSH1 0xE0 SHL DUP2 MSTORE SWAP6 SWAP7 PUSH1 0x20 SWAP1 DUP8 SWAP1 PUSH1 0x4 SWAP1 DUP3 SWAP1 PUSH1 0x1 PUSH1 0x1 PUSH1 0xA0 SHL SUB AND GAS STATICCALL SWAP6 DUP7 ISZERO PUSH2 0x5DB JUMPI PUSH1 0x0 SWAP7 PUSH2 0x5AA JUMPI JUMPDEST POP PUSH1 0x40 MLOAD SWAP8 PUSH2 0x532 DUP10 PUSH2 0xA6B JUMP JUMPDEST PUSH1 0x1 PUSH1 0x1 PUSH1 0xA0 SHL SUB SWAP1 DUP2 AND DUP10 MSTORE AND PUSH1 0x20 DUP9 ADD MSTORE PUSH1 0x40 DUP8 ADD MSTORE PUSH1 0x60 DUP7 ADD MSTORE PUSH1 0x80 DUP6 ADD MSTORE PUSH1 0xA0 DUP5 ADD MSTORE PUSH1 0xFF SWAP2 DUP3 AND PUSH1 0xC0 DUP5 ADD MSTORE AND PUSH1 0xE0 DUP3 ADD MSTORE PUSH2 0x573 DUP6 DUP6 PUSH2 0xAEC JUMP JUMPDEST MSTORE PUSH2 0x57E DUP5 DUP5 PUSH2 0xAEC JUMP JUMPDEST POP JUMPDEST PUSH1 0x0 NOT DUP5 EQ PUSH2 0x594 JUMPI DUP5 DUP1 SWAP5 ADD SWAP3 SWAP5 PUSH2 0x233 JUMP JUMPDEST PUSH4 0x4E487B71 PUSH1 0xE0 SHL PUSH1 0x0 MSTORE PUSH1 0x11 PUSH1 0x4 MSTORE PUSH1 0x24 PUSH1 0x0 REVERT JUMPDEST PUSH2 0x5CD SWAP2 SWAP7 POP PUSH1 0x20 RETURNDATASIZE PUSH1 0x20 GT PUSH2 0x5D4 JUMPI JUMPDEST PUSH2 0x5C5 DUP2 DUP4 PUSH2 0xA9E JUMP JUMPDEST DUP2 ADD SWAP1 PUSH2 0xB82 JUMP JUMPDEST SWAP5 DUP14 PUSH2 0x524 JUMP JUMPDEST POP RETURNDATASIZE PUSH2 0x5BB JUMP JUMPDEST PUSH1 0x40 MLOAD RETURNDATASIZE PUSH1 0x0 DUP3 RETURNDATACOPY RETURNDATASIZE SWAP1 REVERT JUMPDEST PUSH1 0x4 SWAP7 POP PUSH2 0x603 PUSH1 0x20 SWAP2 DUP3 RETURNDATASIZE DUP5 GT PUSH2 0x5D4 JUMPI PUSH2 0x5C5 DUP2 DUP4 PUSH2 0xA9E JUMP JUMPDEST SWAP7 POP PUSH2 0x4F0 JUMP JUMPDEST PUSH1 0x20 SWAP2 SWAP7 POP PUSH2 0x62B SWAP1 RETURNDATASIZE DUP1 PUSH1 0x0 DUP4 RETURNDATACOPY PUSH2 0x623 DUP2 DUP4 PUSH2 0xA9E JUMP JUMPDEST DUP2 ADD SWAP1 PUSH2 0xB16 JUMP JUMPDEST SWAP6 SWAP1 PUSH2 0x4BF JUMP JUMPDEST PUSH2 0x648 SWAP2 SWAP4 POP RETURNDATASIZE DUP1 PUSH1 0x0 DUP4 RETURNDATACOPY PUSH2 0x623 DUP2 DUP4 PUSH2 0xA9E JUMP JUMPDEST SWAP2 DUP13 PUSH2 0x48C JUMP JUMPDEST PUSH2 0x664 SWAP2 POP RETURNDATASIZE DUP1 PUSH1 0x0 DUP4 RETURNDATACOPY PUSH2 0x623 DUP2 DUP4 PUSH2 0xA9E JUMP JUMPDEST DUP12 PUSH2 0x45C JUMP JUMPDEST PUSH2 0x67F SWAP2 POP RETURNDATASIZE DUP1 PUSH1 0x0 DUP4 RETURNDATACOPY PUSH2 0x623 DUP2 DUP4 PUSH2 0xA9E JUMP JUMPDEST DUP11 PUSH2 0x42D JUMP JUMPDEST SWAP1 SWAP2 POP PUSH1 0x20 DUP2 RETURNDATASIZE PUSH1 0x20 GT PUSH2 0x6B9 JUMPI JUMPDEST DUP2 PUSH2 0x6A1 PUSH1 0x20 SWAP4 DUP4 PUSH2 0xA9E JUMP JUMPDEST DUP2 ADD SUB SLT PUSH2 0x12F JUMPI PUSH2 0x6B2 SWAP1 PUSH2 0xAD8 JUMP JUMPDEST SWAP1 DUP10 PUSH2 0x3FE JUMP JUMPDEST RETURNDATASIZE SWAP2 POP PUSH2 0x694 JUMP JUMPDEST SWAP2 SWAP1 SWAP4 POP PUSH1 0x20 DUP3 RETURNDATASIZE PUSH1 0x20 GT PUSH2 0x6FC JUMPI JUMPDEST DUP2 PUSH2 0x6DE PUSH1 0x20 SWAP4 DUP4 PUSH2 0xA9E JUMP JUMPDEST DUP2 ADD SUB SLT PUSH2 0x12F JUMPI PUSH1 0x20 PUSH2 0x6F3 PUSH1 0x4 SWAP4 PUSH2 0xAD8 JUMP JUMPDEST SWAP5 SWAP2 SWAP3 POP PUSH2 0x3D5 JUMP JUMPDEST RETURNDATASIZE SWAP2 POP PUSH2 0x6D1 JUMP JUMPDEST SWAP1 SWAP3 POP PUSH1 0x20 DUP2 RETURNDATASIZE PUSH1 0x20 GT PUSH2 0x738 JUMPI JUMPDEST DUP2 PUSH2 0x720 PUSH1 0x20 SWAP4 DUP4 PUSH2 0xA9E JUMP JUMPDEST DUP2 ADD SUB SLT PUSH2 0x12F JUMPI PUSH2 0x731 SWAP1 PUSH2 0xAD8 JUMP JUMPDEST SWAP2 DUP10 PUSH2 0x3B6 JUMP JUMPDEST RETURNDATASIZE SWAP2 POP PUSH2 0x713 JUMP JUMPDEST SWAP1 POP PUSH1 0x20 DUP2 RETURNDATASIZE PUSH1 0x20 GT PUSH2 0x772 JUMPI JUMPDEST DUP2 PUSH2 0x75B PUSH1 0x20 SWAP4 DUP4 PUSH2 0xA9E JUMP JUMPDEST DUP2 ADD SUB SLT PUSH2 0x12F JUMPI PUSH2 0x76C SWAP1 PUSH2 0xAD8 JUMP JUMPDEST DUP9 PUSH2 0x38F JUMP JUMPDEST RETURNDATASIZE SWAP2 POP PUSH2 0x74E JUMP JUMPDEST PUSH2 0x580 JUMP JUMPDEST DUP3 SWAP5 SWAP4 POP PUSH2 0x238 JUMP JUMPDEST PUSH1 0x20 SWAP1 PUSH1 0x40 MLOAD PUSH2 0x797 DUP2 PUSH2 0xA6B JUMP JUMPDEST PUSH1 0x0 DUP2 MSTORE DUP3 PUSH1 0x0 DUP2 DUP4 ADD MSTORE PUSH1 0x60 DUP1 PUSH1 0x40 DUP5 ADD MSTORE DUP1 DUP1 DUP5 ADD MSTORE DUP1 PUSH1 0x80 DUP5 ADD MSTORE PUSH1 0xA0 DUP4 ADD MSTORE PUSH1 0x0 PUSH1 0xC0 DUP4 ADD MSTORE PUSH1 0x0 PUSH1 0xE0 DUP4 ADD MSTORE DUP3 DUP7 ADD ADD MSTORE ADD PUSH2 0x215 JUMP JUMPDEST SWAP1 POP RETURNDATASIZE DUP1 PUSH1 0x0 DUP4 RETURNDATACOPY PUSH2 0x7E5 DUP2 DUP4 PUSH2 0xA9E JUMP JUMPDEST DUP2 ADD PUSH1 0x20 SWAP2 DUP3 DUP2 DUP4 SUB SLT PUSH2 0x12F JUMPI DUP1 MLOAD SWAP1 PUSH8 0xFFFFFFFFFFFFFFFF DUP3 GT PUSH2 0x12F JUMPI ADD SWAP1 DUP1 PUSH1 0x1F DUP4 ADD SLT ISZERO PUSH2 0x12F JUMPI DUP2 MLOAD PUSH2 0x81D DUP2 PUSH2 0xAC0 JUMP JUMPDEST SWAP3 PUSH2 0x82B PUSH1 0x40 MLOAD SWAP5 DUP6 PUSH2 0xA9E JUMP JUMPDEST DUP2 DUP5 MSTORE DUP5 DUP1 DUP6 ADD SWAP3 PUSH1 0x5 SHL DUP3 ADD ADD SWAP3 DUP4 GT PUSH2 0x12F JUMPI DUP5 ADD SWAP1 JUMPDEST DUP3 DUP3 LT PUSH2 0x856 JUMPI POP POP POP SWAP1 POP DUP2 PUSH2 0x1E8 JUMP JUMPDEST DUP5 DUP1 SWAP2 PUSH2 0x862 DUP5 PUSH2 0xAD8 JUMP JUMPDEST DUP2 MSTORE ADD SWAP2 ADD SWAP1 PUSH2 0x844 JUMP JUMPDEST CALLVALUE PUSH2 0x12F JUMPI PUSH1 0x0 CALLDATASIZE PUSH1 0x3 NOT ADD SLT PUSH2 0x12F JUMPI PUSH1 0x0 SLOAD PUSH1 0x40 MLOAD PUSH1 0x1 PUSH1 0x1 PUSH1 0xA0 SHL SUB SWAP1 SWAP2 AND DUP2 MSTORE PUSH1 0x20 SWAP1 RETURN JUMPDEST CALLVALUE PUSH2 0x12F JUMPI PUSH1 0x0 CALLDATASIZE PUSH1 0x3 NOT ADD SLT PUSH2 0x12F JUMPI PUSH2 0x8AF PUSH2 0xA13 JUMP JUMPDEST PUSH1 0x0 DUP1 SLOAD PUSH1 0x1 PUSH1 0x1 PUSH1 0xA0 SHL SUB NOT DUP2 AND DUP3 SSTORE PUSH1 0x1 PUSH1 0x1 PUSH1 0xA0 SHL SUB AND PUSH32 0x8BE0079C531659141344CD1FD0A4F28419497F9722A3DAAFE3B4186F6B6457E0 DUP3 DUP1 LOG3 STOP JUMPDEST CALLVALUE PUSH2 0x12F JUMPI PUSH1 0x20 CALLDATASIZE PUSH1 0x3 NOT ADD SLT PUSH2 0x12F JUMPI PUSH1 0x4 CALLDATALOAD PUSH1 0x1 PUSH1 0x1 PUSH1 0xA0 SHL SUB DUP2 AND SWAP1 DUP2 SWAP1 SUB PUSH2 0x12F JUMPI PUSH2 0x91D PUSH2 0xA13 JUMP JUMPDEST PUSH1 0x1 DUP1 SLOAD PUSH1 0x1 PUSH1 0x1 PUSH1 0xA0 SHL SUB NOT AND SWAP2 SWAP1 SWAP2 OR SWAP1 SSTORE STOP JUMPDEST CALLVALUE PUSH2 0x12F JUMPI PUSH1 0x0 CALLDATASIZE PUSH1 0x3 NOT ADD SLT PUSH2 0x12F JUMPI PUSH4 0x4C94C41 PUSH1 0xE3 SHL DUP2 MSTORE PUSH1 0x20 DUP2 PUSH1 0x4 DUP2 PUSH32 0x0 PUSH1 0x1 PUSH1 0x1 PUSH1 0xA0 SHL SUB AND GAS STATICCALL DUP1 ISZERO PUSH2 0x5DB JUMPI PUSH1 0x0 SWAP1 PUSH2 0x999 JUMPI JUMPDEST PUSH1 0x20 SWAP1 PUSH1 0x40 MLOAD SWAP1 DUP2 MSTORE RETURN JUMPDEST POP PUSH1 0x20 DUP2 RETURNDATASIZE DUP3 GT PUSH2 0x9C3 JUMPI JUMPDEST DUP2 PUSH2 0x9B2 PUSH1 0x20 SWAP4 DUP4 PUSH2 0xA9E JUMP JUMPDEST DUP2 ADD SUB SLT PUSH2 0x12F JUMPI PUSH1 0x20 SWAP1 MLOAD PUSH2 0x98E JUMP JUMPDEST RETURNDATASIZE SWAP2 POP PUSH2 0x9A5 JUMP JUMPDEST PUSH1 0x0 JUMPDEST DUP4 DUP2 LT PUSH2 0x9DE JUMPI POP POP PUSH1 0x0 SWAP2 ADD MSTORE JUMP JUMPDEST DUP2 DUP2 ADD MLOAD DUP4 DUP3 ADD MSTORE PUSH1 0x20 ADD PUSH2 0x9CE JUMP JUMPDEST SWAP1 PUSH1 0x20 SWAP2 PUSH2 0xA07 DUP2 MLOAD DUP1 SWAP3 DUP2 DUP6 MSTORE DUP6 DUP1 DUP7 ADD SWAP2 ADD PUSH2 0x9CB JUMP JUMPDEST PUSH1 0x1F ADD PUSH1 0x1F NOT AND ADD ADD SWAP1 JUMP JUMPDEST PUSH1 0x0 SLOAD PUSH1 0x1 PUSH1 0x1 PUSH1 0xA0 SHL SUB AND CALLER SUB PUSH2 0xA27 JUMPI JUMP JUMPDEST PUSH1 0x64 PUSH1 0x40 MLOAD PUSH3 0x461BCD PUSH1 0xE5 SHL DUP2 MSTORE PUSH1 0x20 PUSH1 0x4 DUP3 ADD MSTORE PUSH1 0x20 PUSH1 0x24 DUP3 ADD MSTORE PUSH32 0x4F776E61626C653A2063616C6C6572206973206E6F7420746865206F776E6572 PUSH1 0x44 DUP3 ADD MSTORE REVERT JUMPDEST PUSH2 0x100 DUP2 ADD SWAP1 DUP2 LT PUSH8 0xFFFFFFFFFFFFFFFF DUP3 GT OR PUSH2 0xA88 JUMPI PUSH1 0x40 MSTORE JUMP JUMPDEST PUSH4 0x4E487B71 PUSH1 0xE0 SHL PUSH1 0x0 MSTORE PUSH1 0x41 PUSH1 0x4 MSTORE PUSH1 0x24 PUSH1 0x0 REVERT JUMPDEST SWAP1 PUSH1 0x1F DUP1 NOT SWAP2 ADD AND DUP2 ADD SWAP1 DUP2 LT PUSH8 0xFFFFFFFFFFFFFFFF DUP3 GT OR PUSH2 0xA88 JUMPI PUSH1 0x40 MSTORE JUMP JUMPDEST PUSH8 0xFFFFFFFFFFFFFFFF DUP2 GT PUSH2 0xA88 JUMPI PUSH1 0x5 SHL PUSH1 0x20 ADD SWAP1 JUMP JUMPDEST MLOAD SWAP1 PUSH1 0x1 PUSH1 0x1 PUSH1 0xA0 SHL SUB DUP3 AND DUP3 SUB PUSH2 0x12F JUMPI JUMP JUMPDEST DUP1 MLOAD DUP3 LT ISZERO PUSH2 0xB00 JUMPI PUSH1 0x20 SWAP2 PUSH1 0x5 SHL ADD ADD SWAP1 JUMP JUMPDEST PUSH4 0x4E487B71 PUSH1 0xE0 SHL PUSH1 0x0 MSTORE PUSH1 0x32 PUSH1 0x4 MSTORE PUSH1 0x24 PUSH1 0x0 REVERT JUMPDEST PUSH1 0x20 DUP2 DUP4 SUB SLT PUSH2 0x12F JUMPI DUP1 MLOAD PUSH8 0xFFFFFFFFFFFFFFFF SWAP2 DUP3 DUP3 GT PUSH2 0x12F JUMPI ADD SWAP1 DUP3 PUSH1 0x1F DUP4 ADD SLT ISZERO PUSH2 0x12F JUMPI DUP2 MLOAD SWAP1 DUP2 GT PUSH2 0xA88 JUMPI PUSH1 0x40 MLOAD SWAP3 PUSH2 0xB61 PUSH1 0x1F DUP4 ADD PUSH1 0x1F NOT AND PUSH1 0x20 ADD DUP6 PUSH2 0xA9E JUMP JUMPDEST DUP2 DUP5 MSTORE PUSH1 0x20 DUP3 DUP5 ADD ADD GT PUSH2 0x12F JUMPI PUSH2 0xB7F SWAP2 PUSH1 0x20 DUP1 DUP6 ADD SWAP2 ADD PUSH2 0x9CB JUMP JUMPDEST SWAP1 JUMP JUMPDEST SWAP1 DUP2 PUSH1 0x20 SWAP2 SUB SLT PUSH2 0x12F JUMPI MLOAD PUSH1 0xFF DUP2 AND DUP2 SUB PUSH2 0x12F JUMPI SWAP1 JUMP INVALID LOG2 PUSH5 0x6970667358 0x22 SLT KECCAK256 0xD2 PUSH23 0x54ED25D4DDF235469A0BFAF58AA538849752A8600D8E9D 0xA9 0xB5 0xE 0xE CALL 0xDD PUSH29 0x64736F6C63430008130033000000000000000000000000000000000000 "
        },
        "methodIdentifiers": {
          "factory()": "c45a0155",
          "getNumVaults()": "03aaee11",
          "getVaults(uint256,uint256)": "b98cca37",
          "owner()": "8da5cb5b",
          "renounceOwnership()": "715018a6",
          "setBlackListed(address)": "46f44c97",
          "transferOwnership(address)": "f2fde38b"
        }
      }
    }
  }
}