{
  "contracts/core/merge/MergeFactory.sol": {
    "MergeFactory": {
      "abi": [
        {
          "inputs": [],
          "stateMutability": "nonpayable",
          "type": "constructor"
        },
        {
          "anonymous": false,
          "inputs": [
            {
              "indexed": true,
              "internalType": "address",
              "name": "token",
              "type": "address"
            },
            {
              "indexed": true,
              "internalType": "address",
              "name": "merge",
              "type": "address"
            }
          ],
          "name": "MergeCreated",
          "type": "event"
        },
        {
          "anonymous": false,
          "inputs": [
            {
              "indexed": true,
              "internalType": "address",
              "name": "previousOwner",
              "type": "address"
            },
            {
              "indexed": true,
              "internalType": "address",
              "name": "newOwner",
              "type": "address"
            }
          ],
          "name": "OwnershipTransferred",
          "type": "event"
        },
        {
          "inputs": [
            {
              "internalType": "address",
              "name": "",
              "type": "address"
            }
          ],
          "name": "allowedDeployers",
          "outputs": [
            {
              "internalType": "bool",
              "name": "",
              "type": "bool"
            }
          ],
          "stateMutability": "view",
          "type": "function"
        },
        {
          "inputs": [
            {
              "internalType": "address",
              "name": "token",
              "type": "address"
            },
            {
              "internalType": "uint256",
              "name": "rate",
              "type": "uint256"
            }
          ],
          "name": "createMerge",
          "outputs": [
            {
              "internalType": "address",
              "name": "",
              "type": "address"
            }
          ],
          "stateMutability": "nonpayable",
          "type": "function"
        },
        {
          "inputs": [],
          "name": "getMergeCount",
          "outputs": [
            {
              "internalType": "uint256",
              "name": "",
              "type": "uint256"
            }
          ],
          "stateMutability": "view",
          "type": "function"
        },
        {
          "inputs": [
            {
              "internalType": "address",
              "name": "",
              "type": "address"
            }
          ],
          "name": "merges",
          "outputs": [
            {
              "internalType": "address",
              "name": "",
              "type": "address"
            }
          ],
          "stateMutability": "view",
          "type": "function"
        },
        {
          "inputs": [],
          "name": "owner",
          "outputs": [
            {
              "internalType": "address",
              "name": "",
              "type": "address"
            }
          ],
          "stateMutability": "view",
          "type": "function"
        },
        {
          "inputs": [],
          "name": "renounceOwnership",
          "outputs": [],
          "stateMutability": "nonpayable",
          "type": "function"
        },
        {
          "inputs": [
            {
              "internalType": "address",
              "name": "deployer",
              "type": "address"
            },
            {
              "internalType": "bool",
              "name": "allowed",
              "type": "bool"
            }
          ],
          "name": "setAllowedDeployer",
          "outputs": [],
          "stateMutability": "nonpayable",
          "type": "function"
        },
        {
          "inputs": [
            {
              "internalType": "address",
              "name": "merge",
              "type": "address"
            }
          ],
          "name": "setMerge",
          "outputs": [],
          "stateMutability": "nonpayable",
          "type": "function"
        },
        {
          "inputs": [
            {
              "internalType": "uint256",
              "name": "",
              "type": "uint256"
            }
          ],
          "name": "tokens",
          "outputs": [
            {
              "internalType": "address",
              "name": "",
              "type": "address"
            }
          ],
          "stateMutability": "view",
          "type": "function"
        },
        {
          "inputs": [
            {
              "internalType": "address",
              "name": "newOwner",
              "type": "address"
            }
          ],
          "name": "transferOwnership",
          "outputs": [],
          "stateMutability": "nonpayable",
          "type": "function"
        },
        {
          "inputs": [],
          "name": "wewe",
          "outputs": [
            {
              "internalType": "address",
              "name": "",
              "type": "address"
            }
          ],
          "stateMutability": "view",
          "type": "function"
        }
      ],
      "evm": {
        "bytecode": {
          "linkReferences": {},
          "object": "6080806040523461006f5760008054336001600160a01b0319821681178355604092916001600160a01b03167f8be0079c531659141344cd1fd0a4f28419497f9722a3daafe3b4186f6b6457e08380a3338152600360205220805460ff191660011790556116f690816100758239f35b600080fdfe6080604081815260048036101561001557600080fd5b600092833560e01c9081631d06f92b146105cc5750806339db25f7146105765780634f64b2be146105365780636d090218146104f8578063715018a61461049e5780638da5cb5b14610476578063a469ee93146102e9578063b49757a6146101cf578063e1f26f22146101a0578063e441eebf146101615763f2fde38b1461009c57600080fd5b3461015d57602036600319011261015d576100b56105e8565b906100be610634565b6001600160a01b0391821692831561010b57505082546001600160a01b0319811683178455167f8be0079c531659141344cd1fd0a4f28419497f9722a3daafe3b4186f6b6457e08380a380f35b906020608492519162461bcd60e51b8352820152602660248201527f4f776e61626c653a206e6577206f776e657220697320746865207a65726f206160448201526564647265737360d01b6064820152fd5b8280fd5b50503461019c57602036600319011261019c576020916001600160a01b039082908261018b6105e8565b168152600285522054169051908152f35b5080fd5b50503461019c578160031936011261019c5760209051736b9bb36519538e0c073894e964e90172e1c0b41f8152f35b5082903461019c5760208060031936011261015d576101ec6105e8565b916101f5610634565b84516321df0da760e01b8152916001600160a01b03818484818885165afa9384156102df578694610279575b50831615610237578461023485856106e3565b80f35b855162461bcd60e51b815291820152601b60248201527f4d65726765466163746f72793a20496e76616c6964206d657267650000000000604482015260649150fd5b909350813d83116102d8575b601f8101601f1916820167ffffffffffffffff8111838210176102c557839183918a52810103126102c1575183811681036102c1579287610221565b8580fd5b634e487b7160e01b885260418552602488fd5b503d610285565b87513d88823e3d90fd5b5091903461019c578060031936011261019c576103046105e8565b338352600360205260ff828420541615610427576001600160a01b0381811680855260026020528385205490919061033e9082161561068c565b8351610f29928382019067ffffffffffffffff948383108684111761041457918391889361079884398152736b9bb36519538e0c073894e964e90172e1c0b41f602082015203019086f0801561040a571693843b15610407578351916334fcf43760e01b8352602435878401528183602481838a5af180156103fd576103d3575b602086866103cd82886106e3565b51908152f35b82116103ea5750825260209350826103cd386103bf565b634e487b7160e01b815260418652602490fd5b85513d84823e3d90fd5b80fd5b84513d87823e3d90fd5b634e487b7160e01b895260418a52602489fd5b815162461bcd60e51b8152602081860152602360248201527f4d65726765466163746f72793a204e6f7420616c6c6f77656420746f206465706044820152626c6f7960e81b6064820152608490fd5b50503461019c578160031936011261019c57905490516001600160a01b039091168152602090f35b83346104075780600319360112610407576104b7610634565b80546001600160a01b03198116825581906001600160a01b03167f8be0079c531659141344cd1fd0a4f28419497f9722a3daafe3b4186f6b6457e08280a380f35b50503461019c57602036600319011261019c5760209160ff9082906001600160a01b036105236105e8565b1681526003855220541690519015158152f35b503461015d57602036600319011261015d5735916001548310156104075750610560602092610603565b905491519160018060a01b039160031b1c168152f35b50503461019c578060031936011261019c576105906105e8565b90602435918215158093036105c8576105a7610634565b60018060a01b03168352600360205282209060ff8019835416911617905580f35b8380fd5b84903461019c578160031936011261019c576020906001548152f35b600435906001600160a01b03821682036105fe57565b600080fd5b60015481101561061e57600160005260206000200190600090565b634e487b7160e01b600052603260045260246000fd5b6000546001600160a01b0316330361064857565b606460405162461bcd60e51b815260206004820152602060248201527f4f776e61626c653a2063616c6c6572206973206e6f7420746865206f776e65726044820152fd5b1561069357565b60405162461bcd60e51b815260206004820152602260248201527f4d65726765466163746f72793a204d6572676520616c72656164792065786973604482015261747360f01b6064820152608490fd5b6001600160a01b039081166000818152600260205260408120549192909161070d9082161561068c565b600154600160401b811015610783579061074f8260017fe413d0f68462f6240160d618a454469f475317b43867a99c353c0acc7bf4ec1b959401600155610603565b81549060031b908387831b921b19161790558382526002602052604082209416938460018060a01b031982541617905580a3565b634e487b7160e01b83526041600452602483fdfe6080346100e857601f610f2938819003918201601f19168301916001600160401b038311848410176100ed5780849260409485528339810103126100e857610052602061004b83610103565b9201610103565b6001600081815581546001600160a81b0319811633600881811b610100600160a81b03169290921790945560405195946001600160a01b03949093909290911c8416907f8be0079c531659141344cd1fd0a4f28419497f9722a3daafe3b4186f6b6457e09080a360646002558160018060a01b0319931683600454161760045516906003541617600355610e1190816101188239f35b600080fd5b634e487b7160e01b600052604160045260246000fd5b51906001600160a01b03821682036100e85756fe6080604081815260048036101561001557600080fd5b600092833560e01c90816321df0da714610c8a5750806324a47aeb14610ba057806334fcf43714610aed57806335faa416146109985780635c975abb14610974578063679aefce14610955578063715018a6146108f15780638da5cb5b146108c05780638f4ffcb1146105ae57838163b6b55f251461052157508063c4ae31681461043e578063e1f26f2214610417578063ea9f24171461019a5763f2fde38b146100bf57600080fd5b34610196576020366003190112610196576100d8610caf565b6100e0610cca565b6001600160a01b0381811693909290841561014457505060018054610100600160a81b03198116600893841b610100600160a81b031617909155901c167f8be0079c531659141344cd1fd0a4f28419497f9722a3daafe3b4186f6b6457e08380a380f35b906020608492519162461bcd60e51b8352820152602660248201527f4f776e61626c653a206e6577206f776e657220697320746865207a65726f206160448201526564647265737360d01b6064820152fd5b8280fd5b503461019657826003193601126101965760035482516370a0823160e01b808252338483015290926020926001600160a01b039081168486602481845afa9586156103335788966103e4575b506101ef610d75565b6002548087029087820414871517156103d157606490049385838554169160248a5180948193825230898301525afa9081156103c7578991610396575b50841161033d5784875180926323b872dd60e01b8252818b816102538c30338c8501610db9565b03925af1801561033357918593916102a1989593610316575b508154855163a9059cbb60e01b815233938101938452602084019490945292978893919091169183918a918391604090910190565b03925af193841561030c577fadc41ba80ffa0859aab1d7cf405a6633a6af94fc3d10e5b0e0bf46cdcc0fd9c893946102df575b50519283523392a280f35b6102fe90833d8511610305575b6102f68183610d25565b810190610d5d565b50386102d4565b503d6102ec565b81513d87823e3d90fd5b61032c90853d8711610305576102f68183610d25565b503861026c565b87513d8a823e3d90fd5b865162461bcd60e51b8152808401869052602d60248201527f45617465723a20496e73756666696369656e7420746f6b656e2062616c616e6360448201526c32903a37903a3930b739b332b960991b6064820152608490fd5b90508581813d83116103c0575b6103ad8183610d25565b810103126103bc57513861022c565b8880fd5b503d6103a3565b88513d8b823e3d90fd5b634e487b7160e01b895260118452602489fd5b9095508481813d8311610410575b6103fc8183610d25565b8101031261040c575194386101e6565b8780fd5b503d6103f2565b50346101965782600319360112610196575490516001600160a01b03909116815260209150f35b5034610196578260031936011261019657610457610cca565b60015460ff8116156104e057506001549060ff8216156104a6575060ff1916600155513381527f5db9ee0a495bf2e6ff9c91a7834c1ba4fdd244a5e8aa4e537bd38aeae4b073aa90602090a180f35b606490602084519162461bcd60e51b8352820152601460248201527314185d5cd8589b194e881b9bdd081c185d5cd95960621b6044820152fd5b602091509160017f62e78cea01bee320cd4e420270b5ea74000d11b0c9f74754ebdbfc544b05a25893610511610d75565b60ff19161760015551338152a180f35b808484346105aa5760203660031901126105aa57610572602091610543610cca565b805484516323b872dd60e01b81529586936001600160a01b039092169284928391803590309033908501610db9565b03925af19081156105a15750610586575080f35b61059d9060203d8111610305576102f68183610d25565b5080f35b513d84823e3d90fd5b5050fd5b5034610196576080366003190112610196576105c8610caf565b602480359290916001600160a01b0391604435838116036108bc5760643567ffffffffffffffff8082116103bc57366023830112156103bc57818301359081116103bc573691018501116108bc57600287541461087a576002875561062b610d75565b826003541690811561082c5761063f610d75565b60025480870290878204148715171561081a5760649004918482541695885180976370a0823160e01b82523085830152818360209a8b935afa908115610810578b916107df575b508411610788575085885180926323b872dd60e01b8252818c816106ae8d308c8b8501610db9565b03925af180156103c75791610702989391879361076b575b508054845163a9059cbb60e01b81526001600160a01b03871692810192835260208301939093529198899287169183918c918391604090910190565b03925af1958615610761577fadc41ba80ffa0859aab1d7cf405a6633a6af94fc3d10e5b0e0bf46cdcc0fd9c89596610744575b50519485521692a26001815580f35b61075a90853d8711610305576102f68183610d25565b5038610735565b81513d89823e3d90fd5b61078190843d8611610305576102f68183610d25565b50386106c6565b82602d608492898c519362461bcd60e51b85528401528201527f45617465723a20496e73756666696369656e7420746f6b656e2062616c616e6360448201526c32903a37903a3930b739b332b960991b6064820152fd5b90508781813d8311610809575b6107f68183610d25565b81010312610805575138610686565b8a80fd5b503d6107ec565b8a513d8d823e3d90fd5b634e487b7160e01b8952601182528589fd5b60849060238660208a519362461bcd60e51b85528401528201527f47656e6572696345617465723a20546f6b656e2061646472657373206e6f74206044820152621cd95d60ea1b6064820152fd5b606490601f85602089519362461bcd60e51b85528401528201527f5265656e7472616e637947756172643a207265656e7472616e742063616c6c006044820152fd5b8680fd5b5050346108ed57816003193601126108ed57600154905160089190911c6001600160a01b03168152602090f35b5080fd5b833461095257806003193601126109525761090a610cca565b60018054610100600160a81b03198116909155819060081c6001600160a01b03167f8be0079c531659141344cd1fd0a4f28419497f9722a3daafe3b4186f6b6457e08280a380f35b80fd5b5050346108ed57816003193601126108ed576020906002549051908152f35b5050346108ed57816003193601126108ed5760209060ff6001541690519015158152f35b509190346108ed57816003193601126108ed576109b3610cca565b825481516370a0823160e01b8152308186015293602092916001600160a01b0390811691908487602481865afa968715610ae3578697610ab0575b508615610a6d57600154845163a9059cbb60e01b81526001600160a01b0360089290921c90921616918101918252602082018790529291849184919082908890829060400103925af1908115610a645750610a47578280f35b81610a5d92903d10610305576102f68183610d25565b5081808280f35b513d85823e3d90fd5b835162461bcd60e51b8152808301869052601a60248201527f45617465723a204e6f2062616c616e636520746f2073776565700000000000006044820152606490fd5b9096508481813d8311610adc575b610ac88183610d25565b81010312610ad8575195386109ee565b8580fd5b503d610abe565b84513d88823e3d90fd5b50903461019657602036600319011261019657813591610b0b610cca565b8215610b5357508160025403610b1f578280f35b816020917f595a30f13a69b616c4d568e2a2b7875fdfe86e4300a049953c76ee278f8f3f109360025551908152a138808280f35b6020608492519162461bcd60e51b8352820152602260248201527f45617465723a2052617465206d7573742062652067726561746572207468616e604482015261020360f41b6064820152fd5b503461019657602080600319360112610c865760035483516370a0823160e01b8082523382860152843594909290916001600160a01b03918216908581602481855afa80156103c75787918a91610c55575b5010610c00576101ef610d75565b865162461bcd60e51b8152808401869052602960248201527f47656e657269634d657267653a20496e73756666696369656e742062616c616e60448201526818d9481d1bc819585d60ba1b6064820152608490fd5b809250878092503d8311610c7f575b610c6e8183610d25565b810103126103bc5786905138610bf2565b503d610c64565b8380fd5b8490346108ed57816003193601126108ed576003546001600160a01b03168152602090f35b600435906001600160a01b0382168203610cc557565b600080fd5b60015460081c6001600160a01b03163303610ce157565b606460405162461bcd60e51b815260206004820152602060248201527f4f776e61626c653a2063616c6c6572206973206e6f7420746865206f776e65726044820152fd5b90601f8019910116810190811067ffffffffffffffff821117610d4757604052565b634e487b7160e01b600052604160045260246000fd5b90816020910312610cc557518015158103610cc55790565b60ff60015416610d8157565b60405162461bcd60e51b815260206004820152601060248201526f14185d5cd8589b194e881c185d5cd95960821b6044820152606490fd5b6001600160a01b0391821681529116602082015260408101919091526060019056fea26469706673582212207d18175e560b9401f834c2543d952841d3640e6d6a5c91ca95e2b69374a4962064736f6c63430008130033a26469706673582212206fac6ef65967fabdf229a49807b50b531d51a1089bb17f99a789c2507022f88964736f6c63430008130033",
          "opcodes": "PUSH1 0x80 DUP1 PUSH1 0x40 MSTORE CALLVALUE PUSH2 0x6F JUMPI PUSH1 0x0 DUP1 SLOAD CALLER PUSH1 0x1 PUSH1 0x1 PUSH1 0xA0 SHL SUB NOT DUP3 AND DUP2 OR DUP4 SSTORE PUSH1 0x40 SWAP3 SWAP2 PUSH1 0x1 PUSH1 0x1 PUSH1 0xA0 SHL SUB AND PUSH32 0x8BE0079C531659141344CD1FD0A4F28419497F9722A3DAAFE3B4186F6B6457E0 DUP4 DUP1 LOG3 CALLER DUP2 MSTORE PUSH1 0x3 PUSH1 0x20 MSTORE KECCAK256 DUP1 SLOAD PUSH1 0xFF NOT AND PUSH1 0x1 OR SWAP1 SSTORE PUSH2 0x16F6 SWAP1 DUP2 PUSH2 0x75 DUP3 CODECOPY RETURN JUMPDEST PUSH1 0x0 DUP1 REVERT INVALID PUSH1 0x80 PUSH1 0x40 DUP2 DUP2 MSTORE PUSH1 0x4 DUP1 CALLDATASIZE LT ISZERO PUSH2 0x15 JUMPI PUSH1 0x0 DUP1 REVERT JUMPDEST PUSH1 0x0 SWAP3 DUP4 CALLDATALOAD PUSH1 0xE0 SHR SWAP1 DUP2 PUSH4 0x1D06F92B EQ PUSH2 0x5CC JUMPI POP DUP1 PUSH4 0x39DB25F7 EQ PUSH2 0x576 JUMPI DUP1 PUSH4 0x4F64B2BE EQ PUSH2 0x536 JUMPI DUP1 PUSH4 0x6D090218 EQ PUSH2 0x4F8 JUMPI DUP1 PUSH4 0x715018A6 EQ PUSH2 0x49E JUMPI DUP1 PUSH4 0x8DA5CB5B EQ PUSH2 0x476 JUMPI DUP1 PUSH4 0xA469EE93 EQ PUSH2 0x2E9 JUMPI DUP1 PUSH4 0xB49757A6 EQ PUSH2 0x1CF JUMPI DUP1 PUSH4 0xE1F26F22 EQ PUSH2 0x1A0 JUMPI DUP1 PUSH4 0xE441EEBF EQ PUSH2 0x161 JUMPI PUSH4 0xF2FDE38B EQ PUSH2 0x9C JUMPI PUSH1 0x0 DUP1 REVERT JUMPDEST CALLVALUE PUSH2 0x15D JUMPI PUSH1 0x20 CALLDATASIZE PUSH1 0x3 NOT ADD SLT PUSH2 0x15D JUMPI PUSH2 0xB5 PUSH2 0x5E8 JUMP JUMPDEST SWAP1 PUSH2 0xBE PUSH2 0x634 JUMP JUMPDEST PUSH1 0x1 PUSH1 0x1 PUSH1 0xA0 SHL SUB SWAP2 DUP3 AND SWAP3 DUP4 ISZERO PUSH2 0x10B JUMPI POP POP DUP3 SLOAD PUSH1 0x1 PUSH1 0x1 PUSH1 0xA0 SHL SUB NOT DUP2 AND DUP4 OR DUP5 SSTORE AND PUSH32 0x8BE0079C531659141344CD1FD0A4F28419497F9722A3DAAFE3B4186F6B6457E0 DUP4 DUP1 LOG3 DUP1 RETURN JUMPDEST SWAP1 PUSH1 0x20 PUSH1 0x84 SWAP3 MLOAD SWAP2 PUSH3 0x461BCD PUSH1 0xE5 SHL DUP4 MSTORE DUP3 ADD MSTORE PUSH1 0x26 PUSH1 0x24 DUP3 ADD MSTORE PUSH32 0x4F776E61626C653A206E6577206F776E657220697320746865207A65726F2061 PUSH1 0x44 DUP3 ADD MSTORE PUSH6 0x646472657373 PUSH1 0xD0 SHL PUSH1 0x64 DUP3 ADD MSTORE REVERT JUMPDEST DUP3 DUP1 REVERT JUMPDEST POP POP CALLVALUE PUSH2 0x19C JUMPI PUSH1 0x20 CALLDATASIZE PUSH1 0x3 NOT ADD SLT PUSH2 0x19C JUMPI PUSH1 0x20 SWAP2 PUSH1 0x1 PUSH1 0x1 PUSH1 0xA0 SHL SUB SWAP1 DUP3 SWAP1 DUP3 PUSH2 0x18B PUSH2 0x5E8 JUMP JUMPDEST AND DUP2 MSTORE PUSH1 0x2 DUP6 MSTORE KECCAK256 SLOAD AND SWAP1 MLOAD SWAP1 DUP2 MSTORE RETURN JUMPDEST POP DUP1 REVERT JUMPDEST POP POP CALLVALUE PUSH2 0x19C JUMPI DUP2 PUSH1 0x3 NOT CALLDATASIZE ADD SLT PUSH2 0x19C JUMPI PUSH1 0x20 SWAP1 MLOAD PUSH20 0x6B9BB36519538E0C073894E964E90172E1C0B41F DUP2 MSTORE RETURN JUMPDEST POP DUP3 SWAP1 CALLVALUE PUSH2 0x19C JUMPI PUSH1 0x20 DUP1 PUSH1 0x3 NOT CALLDATASIZE ADD SLT PUSH2 0x15D JUMPI PUSH2 0x1EC PUSH2 0x5E8 JUMP JUMPDEST SWAP2 PUSH2 0x1F5 PUSH2 0x634 JUMP JUMPDEST DUP5 MLOAD PUSH4 0x21DF0DA7 PUSH1 0xE0 SHL DUP2 MSTORE SWAP2 PUSH1 0x1 PUSH1 0x1 PUSH1 0xA0 SHL SUB DUP2 DUP5 DUP5 DUP2 DUP9 DUP6 AND GAS STATICCALL SWAP4 DUP5 ISZERO PUSH2 0x2DF JUMPI DUP7 SWAP5 PUSH2 0x279 JUMPI JUMPDEST POP DUP4 AND ISZERO PUSH2 0x237 JUMPI DUP5 PUSH2 0x234 DUP6 DUP6 PUSH2 0x6E3 JUMP JUMPDEST DUP1 RETURN JUMPDEST DUP6 MLOAD PUSH3 0x461BCD PUSH1 0xE5 SHL DUP2 MSTORE SWAP2 DUP3 ADD MSTORE PUSH1 0x1B PUSH1 0x24 DUP3 ADD MSTORE PUSH32 0x4D65726765466163746F72793A20496E76616C6964206D657267650000000000 PUSH1 0x44 DUP3 ADD MSTORE PUSH1 0x64 SWAP2 POP REVERT JUMPDEST SWAP1 SWAP4 POP DUP2 RETURNDATASIZE DUP4 GT PUSH2 0x2D8 JUMPI JUMPDEST PUSH1 0x1F DUP2 ADD PUSH1 0x1F NOT AND DUP3 ADD PUSH8 0xFFFFFFFFFFFFFFFF DUP2 GT DUP4 DUP3 LT OR PUSH2 0x2C5 JUMPI DUP4 SWAP2 DUP4 SWAP2 DUP11 MSTORE DUP2 ADD SUB SLT PUSH2 0x2C1 JUMPI MLOAD DUP4 DUP2 AND DUP2 SUB PUSH2 0x2C1 JUMPI SWAP3 DUP8 PUSH2 0x221 JUMP JUMPDEST DUP6 DUP1 REVERT JUMPDEST PUSH4 0x4E487B71 PUSH1 0xE0 SHL DUP9 MSTORE PUSH1 0x41 DUP6 MSTORE PUSH1 0x24 DUP9 REVERT JUMPDEST POP RETURNDATASIZE PUSH2 0x285 JUMP JUMPDEST DUP8 MLOAD RETURNDATASIZE DUP9 DUP3 RETURNDATACOPY RETURNDATASIZE SWAP1 REVERT JUMPDEST POP SWAP2 SWAP1 CALLVALUE PUSH2 0x19C JUMPI DUP1 PUSH1 0x3 NOT CALLDATASIZE ADD SLT PUSH2 0x19C JUMPI PUSH2 0x304 PUSH2 0x5E8 JUMP JUMPDEST CALLER DUP4 MSTORE PUSH1 0x3 PUSH1 0x20 MSTORE PUSH1 0xFF DUP3 DUP5 KECCAK256 SLOAD AND ISZERO PUSH2 0x427 JUMPI PUSH1 0x1 PUSH1 0x1 PUSH1 0xA0 SHL SUB DUP2 DUP2 AND DUP1 DUP6 MSTORE PUSH1 0x2 PUSH1 0x20 MSTORE DUP4 DUP6 KECCAK256 SLOAD SWAP1 SWAP2 SWAP1 PUSH2 0x33E SWAP1 DUP3 AND ISZERO PUSH2 0x68C JUMP JUMPDEST DUP4 MLOAD PUSH2 0xF29 SWAP3 DUP4 DUP3 ADD SWAP1 PUSH8 0xFFFFFFFFFFFFFFFF SWAP5 DUP4 DUP4 LT DUP7 DUP5 GT OR PUSH2 0x414 JUMPI SWAP2 DUP4 SWAP2 DUP9 SWAP4 PUSH2 0x798 DUP5 CODECOPY DUP2 MSTORE PUSH20 0x6B9BB36519538E0C073894E964E90172E1C0B41F PUSH1 0x20 DUP3 ADD MSTORE SUB ADD SWAP1 DUP7 CREATE DUP1 ISZERO PUSH2 0x40A JUMPI AND SWAP4 DUP5 EXTCODESIZE ISZERO PUSH2 0x407 JUMPI DUP4 MLOAD SWAP2 PUSH4 0x34FCF437 PUSH1 0xE0 SHL DUP4 MSTORE PUSH1 0x24 CALLDATALOAD DUP8 DUP5 ADD MSTORE DUP2 DUP4 PUSH1 0x24 DUP2 DUP4 DUP11 GAS CALL DUP1 ISZERO PUSH2 0x3FD JUMPI PUSH2 0x3D3 JUMPI JUMPDEST PUSH1 0x20 DUP7 DUP7 PUSH2 0x3CD DUP3 DUP9 PUSH2 0x6E3 JUMP JUMPDEST MLOAD SWAP1 DUP2 MSTORE RETURN JUMPDEST DUP3 GT PUSH2 0x3EA JUMPI POP DUP3 MSTORE PUSH1 0x20 SWAP4 POP DUP3 PUSH2 0x3CD CODESIZE PUSH2 0x3BF JUMP JUMPDEST PUSH4 0x4E487B71 PUSH1 0xE0 SHL DUP2 MSTORE PUSH1 0x41 DUP7 MSTORE PUSH1 0x24 SWAP1 REVERT JUMPDEST DUP6 MLOAD RETURNDATASIZE DUP5 DUP3 RETURNDATACOPY RETURNDATASIZE SWAP1 REVERT JUMPDEST DUP1 REVERT JUMPDEST DUP5 MLOAD RETURNDATASIZE DUP8 DUP3 RETURNDATACOPY RETURNDATASIZE SWAP1 REVERT JUMPDEST PUSH4 0x4E487B71 PUSH1 0xE0 SHL DUP10 MSTORE PUSH1 0x41 DUP11 MSTORE PUSH1 0x24 DUP10 REVERT JUMPDEST DUP2 MLOAD PUSH3 0x461BCD PUSH1 0xE5 SHL DUP2 MSTORE PUSH1 0x20 DUP2 DUP7 ADD MSTORE PUSH1 0x23 PUSH1 0x24 DUP3 ADD MSTORE PUSH32 0x4D65726765466163746F72793A204E6F7420616C6C6F77656420746F20646570 PUSH1 0x44 DUP3 ADD MSTORE PUSH3 0x6C6F79 PUSH1 0xE8 SHL PUSH1 0x64 DUP3 ADD MSTORE PUSH1 0x84 SWAP1 REVERT JUMPDEST POP POP CALLVALUE PUSH2 0x19C JUMPI DUP2 PUSH1 0x3 NOT CALLDATASIZE ADD SLT PUSH2 0x19C JUMPI SWAP1 SLOAD SWAP1 MLOAD PUSH1 0x1 PUSH1 0x1 PUSH1 0xA0 SHL SUB SWAP1 SWAP2 AND DUP2 MSTORE PUSH1 0x20 SWAP1 RETURN JUMPDEST DUP4 CALLVALUE PUSH2 0x407 JUMPI DUP1 PUSH1 0x3 NOT CALLDATASIZE ADD SLT PUSH2 0x407 JUMPI PUSH2 0x4B7 PUSH2 0x634 JUMP JUMPDEST DUP1 SLOAD PUSH1 0x1 PUSH1 0x1 PUSH1 0xA0 SHL SUB NOT DUP2 AND DUP3 SSTORE DUP2 SWAP1 PUSH1 0x1 PUSH1 0x1 PUSH1 0xA0 SHL SUB AND PUSH32 0x8BE0079C531659141344CD1FD0A4F28419497F9722A3DAAFE3B4186F6B6457E0 DUP3 DUP1 LOG3 DUP1 RETURN JUMPDEST POP POP CALLVALUE PUSH2 0x19C JUMPI PUSH1 0x20 CALLDATASIZE PUSH1 0x3 NOT ADD SLT PUSH2 0x19C JUMPI PUSH1 0x20 SWAP2 PUSH1 0xFF SWAP1 DUP3 SWAP1 PUSH1 0x1 PUSH1 0x1 PUSH1 0xA0 SHL SUB PUSH2 0x523 PUSH2 0x5E8 JUMP JUMPDEST AND DUP2 MSTORE PUSH1 0x3 DUP6 MSTORE KECCAK256 SLOAD AND SWAP1 MLOAD SWAP1 ISZERO ISZERO DUP2 MSTORE RETURN JUMPDEST POP CALLVALUE PUSH2 0x15D JUMPI PUSH1 0x20 CALLDATASIZE PUSH1 0x3 NOT ADD SLT PUSH2 0x15D JUMPI CALLDATALOAD SWAP2 PUSH1 0x1 SLOAD DUP4 LT ISZERO PUSH2 0x407 JUMPI POP PUSH2 0x560 PUSH1 0x20 SWAP3 PUSH2 0x603 JUMP JUMPDEST SWAP1 SLOAD SWAP2 MLOAD SWAP2 PUSH1 0x1 DUP1 PUSH1 0xA0 SHL SUB SWAP2 PUSH1 0x3 SHL SHR AND DUP2 MSTORE RETURN JUMPDEST POP POP CALLVALUE PUSH2 0x19C JUMPI DUP1 PUSH1 0x3 NOT CALLDATASIZE ADD SLT PUSH2 0x19C JUMPI PUSH2 0x590 PUSH2 0x5E8 JUMP JUMPDEST SWAP1 PUSH1 0x24 CALLDATALOAD SWAP2 DUP3 ISZERO ISZERO DUP1 SWAP4 SUB PUSH2 0x5C8 JUMPI PUSH2 0x5A7 PUSH2 0x634 JUMP JUMPDEST PUSH1 0x1 DUP1 PUSH1 0xA0 SHL SUB AND DUP4 MSTORE PUSH1 0x3 PUSH1 0x20 MSTORE DUP3 KECCAK256 SWAP1 PUSH1 0xFF DUP1 NOT DUP4 SLOAD AND SWAP2 AND OR SWAP1 SSTORE DUP1 RETURN JUMPDEST DUP4 DUP1 REVERT JUMPDEST DUP5 SWAP1 CALLVALUE PUSH2 0x19C JUMPI DUP2 PUSH1 0x3 NOT CALLDATASIZE ADD SLT PUSH2 0x19C JUMPI PUSH1 0x20 SWAP1 PUSH1 0x1 SLOAD DUP2 MSTORE RETURN JUMPDEST PUSH1 0x4 CALLDATALOAD SWAP1 PUSH1 0x1 PUSH1 0x1 PUSH1 0xA0 SHL SUB DUP3 AND DUP3 SUB PUSH2 0x5FE JUMPI JUMP JUMPDEST PUSH1 0x0 DUP1 REVERT JUMPDEST PUSH1 0x1 SLOAD DUP2 LT ISZERO PUSH2 0x61E JUMPI PUSH1 0x1 PUSH1 0x0 MSTORE PUSH1 0x20 PUSH1 0x0 KECCAK256 ADD SWAP1 PUSH1 0x0 SWAP1 JUMP JUMPDEST PUSH4 0x4E487B71 PUSH1 0xE0 SHL PUSH1 0x0 MSTORE PUSH1 0x32 PUSH1 0x4 MSTORE PUSH1 0x24 PUSH1 0x0 REVERT JUMPDEST PUSH1 0x0 SLOAD PUSH1 0x1 PUSH1 0x1 PUSH1 0xA0 SHL SUB AND CALLER SUB PUSH2 0x648 JUMPI JUMP JUMPDEST PUSH1 0x64 PUSH1 0x40 MLOAD PUSH3 0x461BCD PUSH1 0xE5 SHL DUP2 MSTORE PUSH1 0x20 PUSH1 0x4 DUP3 ADD MSTORE PUSH1 0x20 PUSH1 0x24 DUP3 ADD MSTORE PUSH32 0x4F776E61626C653A2063616C6C6572206973206E6F7420746865206F776E6572 PUSH1 0x44 DUP3 ADD MSTORE REVERT JUMPDEST ISZERO PUSH2 0x693 JUMPI JUMP JUMPDEST PUSH1 0x40 MLOAD PUSH3 0x461BCD PUSH1 0xE5 SHL DUP2 MSTORE PUSH1 0x20 PUSH1 0x4 DUP3 ADD MSTORE PUSH1 0x22 PUSH1 0x24 DUP3 ADD MSTORE PUSH32 0x4D65726765466163746F72793A204D6572676520616C72656164792065786973 PUSH1 0x44 DUP3 ADD MSTORE PUSH2 0x7473 PUSH1 0xF0 SHL PUSH1 0x64 DUP3 ADD MSTORE PUSH1 0x84 SWAP1 REVERT JUMPDEST PUSH1 0x1 PUSH1 0x1 PUSH1 0xA0 SHL SUB SWAP1 DUP2 AND PUSH1 0x0 DUP2 DUP2 MSTORE PUSH1 0x2 PUSH1 0x20 MSTORE PUSH1 0x40 DUP2 KECCAK256 SLOAD SWAP2 SWAP3 SWAP1 SWAP2 PUSH2 0x70D SWAP1 DUP3 AND ISZERO PUSH2 0x68C JUMP JUMPDEST PUSH1 0x1 SLOAD PUSH1 0x1 PUSH1 0x40 SHL DUP2 LT ISZERO PUSH2 0x783 JUMPI SWAP1 PUSH2 0x74F DUP3 PUSH1 0x1 PUSH32 0xE413D0F68462F6240160D618A454469F475317B43867A99C353C0ACC7BF4EC1B SWAP6 SWAP5 ADD PUSH1 0x1 SSTORE PUSH2 0x603 JUMP JUMPDEST DUP2 SLOAD SWAP1 PUSH1 0x3 SHL SWAP1 DUP4 DUP8 DUP4 SHL SWAP3 SHL NOT AND OR SWAP1 SSTORE DUP4 DUP3 MSTORE PUSH1 0x2 PUSH1 0x20 MSTORE PUSH1 0x40 DUP3 KECCAK256 SWAP5 AND SWAP4 DUP5 PUSH1 0x1 DUP1 PUSH1 0xA0 SHL SUB NOT DUP3 SLOAD AND OR SWAP1 SSTORE DUP1 LOG3 JUMP JUMPDEST PUSH4 0x4E487B71 PUSH1 0xE0 SHL DUP4 MSTORE PUSH1 0x41 PUSH1 0x4 MSTORE PUSH1 0x24 DUP4 REVERT INVALID PUSH1 0x80 CALLVALUE PUSH2 0xE8 JUMPI PUSH1 0x1F PUSH2 0xF29 CODESIZE DUP2 SWAP1 SUB SWAP2 DUP3 ADD PUSH1 0x1F NOT AND DUP4 ADD SWAP2 PUSH1 0x1 PUSH1 0x1 PUSH1 0x40 SHL SUB DUP4 GT DUP5 DUP5 LT OR PUSH2 0xED JUMPI DUP1 DUP5 SWAP3 PUSH1 0x40 SWAP5 DUP6 MSTORE DUP4 CODECOPY DUP2 ADD SUB SLT PUSH2 0xE8 JUMPI PUSH2 0x52 PUSH1 0x20 PUSH2 0x4B DUP4 PUSH2 0x103 JUMP JUMPDEST SWAP3 ADD PUSH2 0x103 JUMP JUMPDEST PUSH1 0x1 PUSH1 0x0 DUP2 DUP2 SSTORE DUP2 SLOAD PUSH1 0x1 PUSH1 0x1 PUSH1 0xA8 SHL SUB NOT DUP2 AND CALLER PUSH1 0x8 DUP2 DUP2 SHL PUSH2 0x100 PUSH1 0x1 PUSH1 0xA8 SHL SUB AND SWAP3 SWAP1 SWAP3 OR SWAP1 SWAP5 SSTORE PUSH1 0x40 MLOAD SWAP6 SWAP5 PUSH1 0x1 PUSH1 0x1 PUSH1 0xA0 SHL SUB SWAP5 SWAP1 SWAP4 SWAP1 SWAP3 SWAP1 SWAP2 SHR DUP5 AND SWAP1 PUSH32 0x8BE0079C531659141344CD1FD0A4F28419497F9722A3DAAFE3B4186F6B6457E0 SWAP1 DUP1 LOG3 PUSH1 0x64 PUSH1 0x2 SSTORE DUP2 PUSH1 0x1 DUP1 PUSH1 0xA0 SHL SUB NOT SWAP4 AND DUP4 PUSH1 0x4 SLOAD AND OR PUSH1 0x4 SSTORE AND SWAP1 PUSH1 0x3 SLOAD AND OR PUSH1 0x3 SSTORE PUSH2 0xE11 SWAP1 DUP2 PUSH2 0x118 DUP3 CODECOPY RETURN JUMPDEST PUSH1 0x0 DUP1 REVERT JUMPDEST PUSH4 0x4E487B71 PUSH1 0xE0 SHL PUSH1 0x0 MSTORE PUSH1 0x41 PUSH1 0x4 MSTORE PUSH1 0x24 PUSH1 0x0 REVERT JUMPDEST MLOAD SWAP1 PUSH1 0x1 PUSH1 0x1 PUSH1 0xA0 SHL SUB DUP3 AND DUP3 SUB PUSH2 0xE8 JUMPI JUMP INVALID PUSH1 0x80 PUSH1 0x40 DUP2 DUP2 MSTORE PUSH1 0x4 DUP1 CALLDATASIZE LT ISZERO PUSH2 0x15 JUMPI PUSH1 0x0 DUP1 REVERT JUMPDEST PUSH1 0x0 SWAP3 DUP4 CALLDATALOAD PUSH1 0xE0 SHR SWAP1 DUP2 PUSH4 0x21DF0DA7 EQ PUSH2 0xC8A JUMPI POP DUP1 PUSH4 0x24A47AEB EQ PUSH2 0xBA0 JUMPI DUP1 PUSH4 0x34FCF437 EQ PUSH2 0xAED JUMPI DUP1 PUSH4 0x35FAA416 EQ PUSH2 0x998 JUMPI DUP1 PUSH4 0x5C975ABB EQ PUSH2 0x974 JUMPI DUP1 PUSH4 0x679AEFCE EQ PUSH2 0x955 JUMPI DUP1 PUSH4 0x715018A6 EQ PUSH2 0x8F1 JUMPI DUP1 PUSH4 0x8DA5CB5B EQ PUSH2 0x8C0 JUMPI DUP1 PUSH4 0x8F4FFCB1 EQ PUSH2 0x5AE JUMPI DUP4 DUP2 PUSH4 0xB6B55F25 EQ PUSH2 0x521 JUMPI POP DUP1 PUSH4 0xC4AE3168 EQ PUSH2 0x43E JUMPI DUP1 PUSH4 0xE1F26F22 EQ PUSH2 0x417 JUMPI DUP1 PUSH4 0xEA9F2417 EQ PUSH2 0x19A JUMPI PUSH4 0xF2FDE38B EQ PUSH2 0xBF JUMPI PUSH1 0x0 DUP1 REVERT JUMPDEST CALLVALUE PUSH2 0x196 JUMPI PUSH1 0x20 CALLDATASIZE PUSH1 0x3 NOT ADD SLT PUSH2 0x196 JUMPI PUSH2 0xD8 PUSH2 0xCAF JUMP JUMPDEST PUSH2 0xE0 PUSH2 0xCCA JUMP JUMPDEST PUSH1 0x1 PUSH1 0x1 PUSH1 0xA0 SHL SUB DUP2 DUP2 AND SWAP4 SWAP1 SWAP3 SWAP1 DUP5 ISZERO PUSH2 0x144 JUMPI POP POP PUSH1 0x1 DUP1 SLOAD PUSH2 0x100 PUSH1 0x1 PUSH1 0xA8 SHL SUB NOT DUP2 AND PUSH1 0x8 SWAP4 DUP5 SHL PUSH2 0x100 PUSH1 0x1 PUSH1 0xA8 SHL SUB AND OR SWAP1 SWAP2 SSTORE SWAP1 SHR AND PUSH32 0x8BE0079C531659141344CD1FD0A4F28419497F9722A3DAAFE3B4186F6B6457E0 DUP4 DUP1 LOG3 DUP1 RETURN JUMPDEST SWAP1 PUSH1 0x20 PUSH1 0x84 SWAP3 MLOAD SWAP2 PUSH3 0x461BCD PUSH1 0xE5 SHL DUP4 MSTORE DUP3 ADD MSTORE PUSH1 0x26 PUSH1 0x24 DUP3 ADD MSTORE PUSH32 0x4F776E61626C653A206E6577206F776E657220697320746865207A65726F2061 PUSH1 0x44 DUP3 ADD MSTORE PUSH6 0x646472657373 PUSH1 0xD0 SHL PUSH1 0x64 DUP3 ADD MSTORE REVERT JUMPDEST DUP3 DUP1 REVERT JUMPDEST POP CALLVALUE PUSH2 0x196 JUMPI DUP3 PUSH1 0x3 NOT CALLDATASIZE ADD SLT PUSH2 0x196 JUMPI PUSH1 0x3 SLOAD DUP3 MLOAD PUSH4 0x70A08231 PUSH1 0xE0 SHL DUP1 DUP3 MSTORE CALLER DUP5 DUP4 ADD MSTORE SWAP1 SWAP3 PUSH1 0x20 SWAP3 PUSH1 0x1 PUSH1 0x1 PUSH1 0xA0 SHL SUB SWAP1 DUP2 AND DUP5 DUP7 PUSH1 0x24 DUP2 DUP5 GAS STATICCALL SWAP6 DUP7 ISZERO PUSH2 0x333 JUMPI DUP9 SWAP7 PUSH2 0x3E4 JUMPI JUMPDEST POP PUSH2 0x1EF PUSH2 0xD75 JUMP JUMPDEST PUSH1 0x2 SLOAD DUP1 DUP8 MUL SWAP1 DUP8 DUP3 DIV EQ DUP8 ISZERO OR ISZERO PUSH2 0x3D1 JUMPI PUSH1 0x64 SWAP1 DIV SWAP4 DUP6 DUP4 DUP6 SLOAD AND SWAP2 PUSH1 0x24 DUP11 MLOAD DUP1 SWAP5 DUP2 SWAP4 DUP3 MSTORE ADDRESS DUP10 DUP4 ADD MSTORE GAS STATICCALL SWAP1 DUP2 ISZERO PUSH2 0x3C7 JUMPI DUP10 SWAP2 PUSH2 0x396 JUMPI JUMPDEST POP DUP5 GT PUSH2 0x33D JUMPI DUP5 DUP8 MLOAD DUP1 SWAP3 PUSH4 0x23B872DD PUSH1 0xE0 SHL DUP3 MSTORE DUP2 DUP12 DUP2 PUSH2 0x253 DUP13 ADDRESS CALLER DUP13 DUP6 ADD PUSH2 0xDB9 JUMP JUMPDEST SUB SWAP3 GAS CALL DUP1 ISZERO PUSH2 0x333 JUMPI SWAP2 DUP6 SWAP4 SWAP2 PUSH2 0x2A1 SWAP9 SWAP6 SWAP4 PUSH2 0x316 JUMPI JUMPDEST POP DUP2 SLOAD DUP6 MLOAD PUSH4 0xA9059CBB PUSH1 0xE0 SHL DUP2 MSTORE CALLER SWAP4 DUP2 ADD SWAP4 DUP5 MSTORE PUSH1 0x20 DUP5 ADD SWAP5 SWAP1 SWAP5 MSTORE SWAP3 SWAP8 DUP9 SWAP4 SWAP2 SWAP1 SWAP2 AND SWAP2 DUP4 SWAP2 DUP11 SWAP2 DUP4 SWAP2 PUSH1 0x40 SWAP1 SWAP2 ADD SWAP1 JUMP JUMPDEST SUB SWAP3 GAS CALL SWAP4 DUP5 ISZERO PUSH2 0x30C JUMPI PUSH32 0xADC41BA80FFA0859AAB1D7CF405A6633A6AF94FC3D10E5B0E0BF46CDCC0FD9C8 SWAP4 SWAP5 PUSH2 0x2DF JUMPI JUMPDEST POP MLOAD SWAP3 DUP4 MSTORE CALLER SWAP3 LOG2 DUP1 RETURN JUMPDEST PUSH2 0x2FE SWAP1 DUP4 RETURNDATASIZE DUP6 GT PUSH2 0x305 JUMPI JUMPDEST PUSH2 0x2F6 DUP2 DUP4 PUSH2 0xD25 JUMP JUMPDEST DUP2 ADD SWAP1 PUSH2 0xD5D JUMP JUMPDEST POP CODESIZE PUSH2 0x2D4 JUMP JUMPDEST POP RETURNDATASIZE PUSH2 0x2EC JUMP JUMPDEST DUP2 MLOAD RETURNDATASIZE DUP8 DUP3 RETURNDATACOPY RETURNDATASIZE SWAP1 REVERT JUMPDEST PUSH2 0x32C SWAP1 DUP6 RETURNDATASIZE DUP8 GT PUSH2 0x305 JUMPI PUSH2 0x2F6 DUP2 DUP4 PUSH2 0xD25 JUMP JUMPDEST POP CODESIZE PUSH2 0x26C JUMP JUMPDEST DUP8 MLOAD RETURNDATASIZE DUP11 DUP3 RETURNDATACOPY RETURNDATASIZE SWAP1 REVERT JUMPDEST DUP7 MLOAD PUSH3 0x461BCD PUSH1 0xE5 SHL DUP2 MSTORE DUP1 DUP5 ADD DUP7 SWAP1 MSTORE PUSH1 0x2D PUSH1 0x24 DUP3 ADD MSTORE PUSH32 0x45617465723A20496E73756666696369656E7420746F6B656E2062616C616E63 PUSH1 0x44 DUP3 ADD MSTORE PUSH13 0x32903A37903A3930B739B332B9 PUSH1 0x99 SHL PUSH1 0x64 DUP3 ADD MSTORE PUSH1 0x84 SWAP1 REVERT JUMPDEST SWAP1 POP DUP6 DUP2 DUP2 RETURNDATASIZE DUP4 GT PUSH2 0x3C0 JUMPI JUMPDEST PUSH2 0x3AD DUP2 DUP4 PUSH2 0xD25 JUMP JUMPDEST DUP2 ADD SUB SLT PUSH2 0x3BC JUMPI MLOAD CODESIZE PUSH2 0x22C JUMP JUMPDEST DUP9 DUP1 REVERT JUMPDEST POP RETURNDATASIZE PUSH2 0x3A3 JUMP JUMPDEST DUP9 MLOAD RETURNDATASIZE DUP12 DUP3 RETURNDATACOPY RETURNDATASIZE SWAP1 REVERT JUMPDEST PUSH4 0x4E487B71 PUSH1 0xE0 SHL DUP10 MSTORE PUSH1 0x11 DUP5 MSTORE PUSH1 0x24 DUP10 REVERT JUMPDEST SWAP1 SWAP6 POP DUP5 DUP2 DUP2 RETURNDATASIZE DUP4 GT PUSH2 0x410 JUMPI JUMPDEST PUSH2 0x3FC DUP2 DUP4 PUSH2 0xD25 JUMP JUMPDEST DUP2 ADD SUB SLT PUSH2 0x40C JUMPI MLOAD SWAP5 CODESIZE PUSH2 0x1E6 JUMP JUMPDEST DUP8 DUP1 REVERT JUMPDEST POP RETURNDATASIZE PUSH2 0x3F2 JUMP JUMPDEST POP CALLVALUE PUSH2 0x196 JUMPI DUP3 PUSH1 0x3 NOT CALLDATASIZE ADD SLT PUSH2 0x196 JUMPI SLOAD SWAP1 MLOAD PUSH1 0x1 PUSH1 0x1 PUSH1 0xA0 SHL SUB SWAP1 SWAP2 AND DUP2 MSTORE PUSH1 0x20 SWAP2 POP RETURN JUMPDEST POP CALLVALUE PUSH2 0x196 JUMPI DUP3 PUSH1 0x3 NOT CALLDATASIZE ADD SLT PUSH2 0x196 JUMPI PUSH2 0x457 PUSH2 0xCCA JUMP JUMPDEST PUSH1 0x1 SLOAD PUSH1 0xFF DUP2 AND ISZERO PUSH2 0x4E0 JUMPI POP PUSH1 0x1 SLOAD SWAP1 PUSH1 0xFF DUP3 AND ISZERO PUSH2 0x4A6 JUMPI POP PUSH1 0xFF NOT AND PUSH1 0x1 SSTORE MLOAD CALLER DUP2 MSTORE PUSH32 0x5DB9EE0A495BF2E6FF9C91A7834C1BA4FDD244A5E8AA4E537BD38AEAE4B073AA SWAP1 PUSH1 0x20 SWAP1 LOG1 DUP1 RETURN JUMPDEST PUSH1 0x64 SWAP1 PUSH1 0x20 DUP5 MLOAD SWAP2 PUSH3 0x461BCD PUSH1 0xE5 SHL DUP4 MSTORE DUP3 ADD MSTORE PUSH1 0x14 PUSH1 0x24 DUP3 ADD MSTORE PUSH20 0x14185D5CD8589B194E881B9BDD081C185D5CD959 PUSH1 0x62 SHL PUSH1 0x44 DUP3 ADD MSTORE REVERT JUMPDEST PUSH1 0x20 SWAP2 POP SWAP2 PUSH1 0x1 PUSH32 0x62E78CEA01BEE320CD4E420270B5EA74000D11B0C9F74754EBDBFC544B05A258 SWAP4 PUSH2 0x511 PUSH2 0xD75 JUMP JUMPDEST PUSH1 0xFF NOT AND OR PUSH1 0x1 SSTORE MLOAD CALLER DUP2 MSTORE LOG1 DUP1 RETURN JUMPDEST DUP1 DUP5 DUP5 CALLVALUE PUSH2 0x5AA JUMPI PUSH1 0x20 CALLDATASIZE PUSH1 0x3 NOT ADD SLT PUSH2 0x5AA JUMPI PUSH2 0x572 PUSH1 0x20 SWAP2 PUSH2 0x543 PUSH2 0xCCA JUMP JUMPDEST DUP1 SLOAD DUP5 MLOAD PUSH4 0x23B872DD PUSH1 0xE0 SHL DUP2 MSTORE SWAP6 DUP7 SWAP4 PUSH1 0x1 PUSH1 0x1 PUSH1 0xA0 SHL SUB SWAP1 SWAP3 AND SWAP3 DUP5 SWAP3 DUP4 SWAP2 DUP1 CALLDATALOAD SWAP1 ADDRESS SWAP1 CALLER SWAP1 DUP6 ADD PUSH2 0xDB9 JUMP JUMPDEST SUB SWAP3 GAS CALL SWAP1 DUP2 ISZERO PUSH2 0x5A1 JUMPI POP PUSH2 0x586 JUMPI POP DUP1 RETURN JUMPDEST PUSH2 0x59D SWAP1 PUSH1 0x20 RETURNDATASIZE DUP2 GT PUSH2 0x305 JUMPI PUSH2 0x2F6 DUP2 DUP4 PUSH2 0xD25 JUMP JUMPDEST POP DUP1 RETURN JUMPDEST MLOAD RETURNDATASIZE DUP5 DUP3 RETURNDATACOPY RETURNDATASIZE SWAP1 REVERT JUMPDEST POP POP REVERT JUMPDEST POP CALLVALUE PUSH2 0x196 JUMPI PUSH1 0x80 CALLDATASIZE PUSH1 0x3 NOT ADD SLT PUSH2 0x196 JUMPI PUSH2 0x5C8 PUSH2 0xCAF JUMP JUMPDEST PUSH1 0x24 DUP1 CALLDATALOAD SWAP3 SWAP1 SWAP2 PUSH1 0x1 PUSH1 0x1 PUSH1 0xA0 SHL SUB SWAP2 PUSH1 0x44 CALLDATALOAD DUP4 DUP2 AND SUB PUSH2 0x8BC JUMPI PUSH1 0x64 CALLDATALOAD PUSH8 0xFFFFFFFFFFFFFFFF DUP1 DUP3 GT PUSH2 0x3BC JUMPI CALLDATASIZE PUSH1 0x23 DUP4 ADD SLT ISZERO PUSH2 0x3BC JUMPI DUP2 DUP4 ADD CALLDATALOAD SWAP1 DUP2 GT PUSH2 0x3BC JUMPI CALLDATASIZE SWAP2 ADD DUP6 ADD GT PUSH2 0x8BC JUMPI PUSH1 0x2 DUP8 SLOAD EQ PUSH2 0x87A JUMPI PUSH1 0x2 DUP8 SSTORE PUSH2 0x62B PUSH2 0xD75 JUMP JUMPDEST DUP3 PUSH1 0x3 SLOAD AND SWAP1 DUP2 ISZERO PUSH2 0x82C JUMPI PUSH2 0x63F PUSH2 0xD75 JUMP JUMPDEST PUSH1 0x2 SLOAD DUP1 DUP8 MUL SWAP1 DUP8 DUP3 DIV EQ DUP8 ISZERO OR ISZERO PUSH2 0x81A JUMPI PUSH1 0x64 SWAP1 DIV SWAP2 DUP5 DUP3 SLOAD AND SWAP6 DUP9 MLOAD DUP1 SWAP8 PUSH4 0x70A08231 PUSH1 0xE0 SHL DUP3 MSTORE ADDRESS DUP6 DUP4 ADD MSTORE DUP2 DUP4 PUSH1 0x20 SWAP11 DUP12 SWAP4 GAS STATICCALL SWAP1 DUP2 ISZERO PUSH2 0x810 JUMPI DUP12 SWAP2 PUSH2 0x7DF JUMPI JUMPDEST POP DUP5 GT PUSH2 0x788 JUMPI POP DUP6 DUP9 MLOAD DUP1 SWAP3 PUSH4 0x23B872DD PUSH1 0xE0 SHL DUP3 MSTORE DUP2 DUP13 DUP2 PUSH2 0x6AE DUP14 ADDRESS DUP13 DUP12 DUP6 ADD PUSH2 0xDB9 JUMP JUMPDEST SUB SWAP3 GAS CALL DUP1 ISZERO PUSH2 0x3C7 JUMPI SWAP2 PUSH2 0x702 SWAP9 SWAP4 SWAP2 DUP8 SWAP4 PUSH2 0x76B JUMPI JUMPDEST POP DUP1 SLOAD DUP5 MLOAD PUSH4 0xA9059CBB PUSH1 0xE0 SHL DUP2 MSTORE PUSH1 0x1 PUSH1 0x1 PUSH1 0xA0 SHL SUB DUP8 AND SWAP3 DUP2 ADD SWAP3 DUP4 MSTORE PUSH1 0x20 DUP4 ADD SWAP4 SWAP1 SWAP4 MSTORE SWAP2 SWAP9 DUP10 SWAP3 DUP8 AND SWAP2 DUP4 SWAP2 DUP13 SWAP2 DUP4 SWAP2 PUSH1 0x40 SWAP1 SWAP2 ADD SWAP1 JUMP JUMPDEST SUB SWAP3 GAS CALL SWAP6 DUP7 ISZERO PUSH2 0x761 JUMPI PUSH32 0xADC41BA80FFA0859AAB1D7CF405A6633A6AF94FC3D10E5B0E0BF46CDCC0FD9C8 SWAP6 SWAP7 PUSH2 0x744 JUMPI JUMPDEST POP MLOAD SWAP5 DUP6 MSTORE AND SWAP3 LOG2 PUSH1 0x1 DUP2 SSTORE DUP1 RETURN JUMPDEST PUSH2 0x75A SWAP1 DUP6 RETURNDATASIZE DUP8 GT PUSH2 0x305 JUMPI PUSH2 0x2F6 DUP2 DUP4 PUSH2 0xD25 JUMP JUMPDEST POP CODESIZE PUSH2 0x735 JUMP JUMPDEST DUP2 MLOAD RETURNDATASIZE DUP10 DUP3 RETURNDATACOPY RETURNDATASIZE SWAP1 REVERT JUMPDEST PUSH2 0x781 SWAP1 DUP5 RETURNDATASIZE DUP7 GT PUSH2 0x305 JUMPI PUSH2 0x2F6 DUP2 DUP4 PUSH2 0xD25 JUMP JUMPDEST POP CODESIZE PUSH2 0x6C6 JUMP JUMPDEST DUP3 PUSH1 0x2D PUSH1 0x84 SWAP3 DUP10 DUP13 MLOAD SWAP4 PUSH3 0x461BCD PUSH1 0xE5 SHL DUP6 MSTORE DUP5 ADD MSTORE DUP3 ADD MSTORE PUSH32 0x45617465723A20496E73756666696369656E7420746F6B656E2062616C616E63 PUSH1 0x44 DUP3 ADD MSTORE PUSH13 0x32903A37903A3930B739B332B9 PUSH1 0x99 SHL PUSH1 0x64 DUP3 ADD MSTORE REVERT JUMPDEST SWAP1 POP DUP8 DUP2 DUP2 RETURNDATASIZE DUP4 GT PUSH2 0x809 JUMPI JUMPDEST PUSH2 0x7F6 DUP2 DUP4 PUSH2 0xD25 JUMP JUMPDEST DUP2 ADD SUB SLT PUSH2 0x805 JUMPI MLOAD CODESIZE PUSH2 0x686 JUMP JUMPDEST DUP11 DUP1 REVERT JUMPDEST POP RETURNDATASIZE PUSH2 0x7EC JUMP JUMPDEST DUP11 MLOAD RETURNDATASIZE DUP14 DUP3 RETURNDATACOPY RETURNDATASIZE SWAP1 REVERT JUMPDEST PUSH4 0x4E487B71 PUSH1 0xE0 SHL DUP10 MSTORE PUSH1 0x11 DUP3 MSTORE DUP6 DUP10 REVERT JUMPDEST PUSH1 0x84 SWAP1 PUSH1 0x23 DUP7 PUSH1 0x20 DUP11 MLOAD SWAP4 PUSH3 0x461BCD PUSH1 0xE5 SHL DUP6 MSTORE DUP5 ADD MSTORE DUP3 ADD MSTORE PUSH32 0x47656E6572696345617465723A20546F6B656E2061646472657373206E6F7420 PUSH1 0x44 DUP3 ADD MSTORE PUSH3 0x1CD95D PUSH1 0xEA SHL PUSH1 0x64 DUP3 ADD MSTORE REVERT JUMPDEST PUSH1 0x64 SWAP1 PUSH1 0x1F DUP6 PUSH1 0x20 DUP10 MLOAD SWAP4 PUSH3 0x461BCD PUSH1 0xE5 SHL DUP6 MSTORE DUP5 ADD MSTORE DUP3 ADD MSTORE PUSH32 0x5265656E7472616E637947756172643A207265656E7472616E742063616C6C00 PUSH1 0x44 DUP3 ADD MSTORE REVERT JUMPDEST DUP7 DUP1 REVERT JUMPDEST POP POP CALLVALUE PUSH2 0x8ED JUMPI DUP2 PUSH1 0x3 NOT CALLDATASIZE ADD SLT PUSH2 0x8ED JUMPI PUSH1 0x1 SLOAD SWAP1 MLOAD PUSH1 0x8 SWAP2 SWAP1 SWAP2 SHR PUSH1 0x1 PUSH1 0x1 PUSH1 0xA0 SHL SUB AND DUP2 MSTORE PUSH1 0x20 SWAP1 RETURN JUMPDEST POP DUP1 REVERT JUMPDEST DUP4 CALLVALUE PUSH2 0x952 JUMPI DUP1 PUSH1 0x3 NOT CALLDATASIZE ADD SLT PUSH2 0x952 JUMPI PUSH2 0x90A PUSH2 0xCCA JUMP JUMPDEST PUSH1 0x1 DUP1 SLOAD PUSH2 0x100 PUSH1 0x1 PUSH1 0xA8 SHL SUB NOT DUP2 AND SWAP1 SWAP2 SSTORE DUP2 SWAP1 PUSH1 0x8 SHR PUSH1 0x1 PUSH1 0x1 PUSH1 0xA0 SHL SUB AND PUSH32 0x8BE0079C531659141344CD1FD0A4F28419497F9722A3DAAFE3B4186F6B6457E0 DUP3 DUP1 LOG3 DUP1 RETURN JUMPDEST DUP1 REVERT JUMPDEST POP POP CALLVALUE PUSH2 0x8ED JUMPI DUP2 PUSH1 0x3 NOT CALLDATASIZE ADD SLT PUSH2 0x8ED JUMPI PUSH1 0x20 SWAP1 PUSH1 0x2 SLOAD SWAP1 MLOAD SWAP1 DUP2 MSTORE RETURN JUMPDEST POP POP CALLVALUE PUSH2 0x8ED JUMPI DUP2 PUSH1 0x3 NOT CALLDATASIZE ADD SLT PUSH2 0x8ED JUMPI PUSH1 0x20 SWAP1 PUSH1 0xFF PUSH1 0x1 SLOAD AND SWAP1 MLOAD SWAP1 ISZERO ISZERO DUP2 MSTORE RETURN JUMPDEST POP SWAP2 SWAP1 CALLVALUE PUSH2 0x8ED JUMPI DUP2 PUSH1 0x3 NOT CALLDATASIZE ADD SLT PUSH2 0x8ED JUMPI PUSH2 0x9B3 PUSH2 0xCCA JUMP JUMPDEST DUP3 SLOAD DUP2 MLOAD PUSH4 0x70A08231 PUSH1 0xE0 SHL DUP2 MSTORE ADDRESS DUP2 DUP7 ADD MSTORE SWAP4 PUSH1 0x20 SWAP3 SWAP2 PUSH1 0x1 PUSH1 0x1 PUSH1 0xA0 SHL SUB SWAP1 DUP2 AND SWAP2 SWAP1 DUP5 DUP8 PUSH1 0x24 DUP2 DUP7 GAS STATICCALL SWAP7 DUP8 ISZERO PUSH2 0xAE3 JUMPI DUP7 SWAP8 PUSH2 0xAB0 JUMPI JUMPDEST POP DUP7 ISZERO PUSH2 0xA6D JUMPI PUSH1 0x1 SLOAD DUP5 MLOAD PUSH4 0xA9059CBB PUSH1 0xE0 SHL DUP2 MSTORE PUSH1 0x1 PUSH1 0x1 PUSH1 0xA0 SHL SUB PUSH1 0x8 SWAP3 SWAP1 SWAP3 SHR SWAP1 SWAP3 AND AND SWAP2 DUP2 ADD SWAP2 DUP3 MSTORE PUSH1 0x20 DUP3 ADD DUP8 SWAP1 MSTORE SWAP3 SWAP2 DUP5 SWAP2 DUP5 SWAP2 SWAP1 DUP3 SWAP1 DUP9 SWAP1 DUP3 SWAP1 PUSH1 0x40 ADD SUB SWAP3 GAS CALL SWAP1 DUP2 ISZERO PUSH2 0xA64 JUMPI POP PUSH2 0xA47 JUMPI DUP3 DUP1 RETURN JUMPDEST DUP2 PUSH2 0xA5D SWAP3 SWAP1 RETURNDATASIZE LT PUSH2 0x305 JUMPI PUSH2 0x2F6 DUP2 DUP4 PUSH2 0xD25 JUMP JUMPDEST POP DUP2 DUP1 DUP3 DUP1 RETURN JUMPDEST MLOAD RETURNDATASIZE DUP6 DUP3 RETURNDATACOPY RETURNDATASIZE SWAP1 REVERT JUMPDEST DUP4 MLOAD PUSH3 0x461BCD PUSH1 0xE5 SHL DUP2 MSTORE DUP1 DUP4 ADD DUP7 SWAP1 MSTORE PUSH1 0x1A PUSH1 0x24 DUP3 ADD MSTORE PUSH32 0x45617465723A204E6F2062616C616E636520746F207377656570000000000000 PUSH1 0x44 DUP3 ADD MSTORE PUSH1 0x64 SWAP1 REVERT JUMPDEST SWAP1 SWAP7 POP DUP5 DUP2 DUP2 RETURNDATASIZE DUP4 GT PUSH2 0xADC JUMPI JUMPDEST PUSH2 0xAC8 DUP2 DUP4 PUSH2 0xD25 JUMP JUMPDEST DUP2 ADD SUB SLT PUSH2 0xAD8 JUMPI MLOAD SWAP6 CODESIZE PUSH2 0x9EE JUMP JUMPDEST DUP6 DUP1 REVERT JUMPDEST POP RETURNDATASIZE PUSH2 0xABE JUMP JUMPDEST DUP5 MLOAD RETURNDATASIZE DUP9 DUP3 RETURNDATACOPY RETURNDATASIZE SWAP1 REVERT JUMPDEST POP SWAP1 CALLVALUE PUSH2 0x196 JUMPI PUSH1 0x20 CALLDATASIZE PUSH1 0x3 NOT ADD SLT PUSH2 0x196 JUMPI DUP2 CALLDATALOAD SWAP2 PUSH2 0xB0B PUSH2 0xCCA JUMP JUMPDEST DUP3 ISZERO PUSH2 0xB53 JUMPI POP DUP2 PUSH1 0x2 SLOAD SUB PUSH2 0xB1F JUMPI DUP3 DUP1 RETURN JUMPDEST DUP2 PUSH1 0x20 SWAP2 PUSH32 0x595A30F13A69B616C4D568E2A2B7875FDFE86E4300A049953C76EE278F8F3F10 SWAP4 PUSH1 0x2 SSTORE MLOAD SWAP1 DUP2 MSTORE LOG1 CODESIZE DUP1 DUP3 DUP1 RETURN JUMPDEST PUSH1 0x20 PUSH1 0x84 SWAP3 MLOAD SWAP2 PUSH3 0x461BCD PUSH1 0xE5 SHL DUP4 MSTORE DUP3 ADD MSTORE PUSH1 0x22 PUSH1 0x24 DUP3 ADD MSTORE PUSH32 0x45617465723A2052617465206D7573742062652067726561746572207468616E PUSH1 0x44 DUP3 ADD MSTORE PUSH2 0x203 PUSH1 0xF4 SHL PUSH1 0x64 DUP3 ADD MSTORE REVERT JUMPDEST POP CALLVALUE PUSH2 0x196 JUMPI PUSH1 0x20 DUP1 PUSH1 0x3 NOT CALLDATASIZE ADD SLT PUSH2 0xC86 JUMPI PUSH1 0x3 SLOAD DUP4 MLOAD PUSH4 0x70A08231 PUSH1 0xE0 SHL DUP1 DUP3 MSTORE CALLER DUP3 DUP7 ADD MSTORE DUP5 CALLDATALOAD SWAP5 SWAP1 SWAP3 SWAP1 SWAP2 PUSH1 0x1 PUSH1 0x1 PUSH1 0xA0 SHL SUB SWAP2 DUP3 AND SWAP1 DUP6 DUP2 PUSH1 0x24 DUP2 DUP6 GAS STATICCALL DUP1 ISZERO PUSH2 0x3C7 JUMPI DUP8 SWAP2 DUP11 SWAP2 PUSH2 0xC55 JUMPI JUMPDEST POP LT PUSH2 0xC00 JUMPI PUSH2 0x1EF PUSH2 0xD75 JUMP JUMPDEST DUP7 MLOAD PUSH3 0x461BCD PUSH1 0xE5 SHL DUP2 MSTORE DUP1 DUP5 ADD DUP7 SWAP1 MSTORE PUSH1 0x29 PUSH1 0x24 DUP3 ADD MSTORE PUSH32 0x47656E657269634D657267653A20496E73756666696369656E742062616C616E PUSH1 0x44 DUP3 ADD MSTORE PUSH9 0x18D9481D1BC819585D PUSH1 0xBA SHL PUSH1 0x64 DUP3 ADD MSTORE PUSH1 0x84 SWAP1 REVERT JUMPDEST DUP1 SWAP3 POP DUP8 DUP1 SWAP3 POP RETURNDATASIZE DUP4 GT PUSH2 0xC7F JUMPI JUMPDEST PUSH2 0xC6E DUP2 DUP4 PUSH2 0xD25 JUMP JUMPDEST DUP2 ADD SUB SLT PUSH2 0x3BC JUMPI DUP7 SWAP1 MLOAD CODESIZE PUSH2 0xBF2 JUMP JUMPDEST POP RETURNDATASIZE PUSH2 0xC64 JUMP JUMPDEST DUP4 DUP1 REVERT JUMPDEST DUP5 SWAP1 CALLVALUE PUSH2 0x8ED JUMPI DUP2 PUSH1 0x3 NOT CALLDATASIZE ADD SLT PUSH2 0x8ED JUMPI PUSH1 0x3 SLOAD PUSH1 0x1 PUSH1 0x1 PUSH1 0xA0 SHL SUB AND DUP2 MSTORE PUSH1 0x20 SWAP1 RETURN JUMPDEST PUSH1 0x4 CALLDATALOAD SWAP1 PUSH1 0x1 PUSH1 0x1 PUSH1 0xA0 SHL SUB DUP3 AND DUP3 SUB PUSH2 0xCC5 JUMPI JUMP JUMPDEST PUSH1 0x0 DUP1 REVERT JUMPDEST PUSH1 0x1 SLOAD PUSH1 0x8 SHR PUSH1 0x1 PUSH1 0x1 PUSH1 0xA0 SHL SUB AND CALLER SUB PUSH2 0xCE1 JUMPI JUMP JUMPDEST PUSH1 0x64 PUSH1 0x40 MLOAD PUSH3 0x461BCD PUSH1 0xE5 SHL DUP2 MSTORE PUSH1 0x20 PUSH1 0x4 DUP3 ADD MSTORE PUSH1 0x20 PUSH1 0x24 DUP3 ADD MSTORE PUSH32 0x4F776E61626C653A2063616C6C6572206973206E6F7420746865206F776E6572 PUSH1 0x44 DUP3 ADD MSTORE REVERT JUMPDEST SWAP1 PUSH1 0x1F DUP1 NOT SWAP2 ADD AND DUP2 ADD SWAP1 DUP2 LT PUSH8 0xFFFFFFFFFFFFFFFF DUP3 GT OR PUSH2 0xD47 JUMPI PUSH1 0x40 MSTORE JUMP JUMPDEST PUSH4 0x4E487B71 PUSH1 0xE0 SHL PUSH1 0x0 MSTORE PUSH1 0x41 PUSH1 0x4 MSTORE PUSH1 0x24 PUSH1 0x0 REVERT JUMPDEST SWAP1 DUP2 PUSH1 0x20 SWAP2 SUB SLT PUSH2 0xCC5 JUMPI MLOAD DUP1 ISZERO ISZERO DUP2 SUB PUSH2 0xCC5 JUMPI SWAP1 JUMP JUMPDEST PUSH1 0xFF PUSH1 0x1 SLOAD AND PUSH2 0xD81 JUMPI JUMP JUMPDEST PUSH1 0x40 MLOAD PUSH3 0x461BCD PUSH1 0xE5 SHL DUP2 MSTORE PUSH1 0x20 PUSH1 0x4 DUP3 ADD MSTORE PUSH1 0x10 PUSH1 0x24 DUP3 ADD MSTORE PUSH16 0x14185D5CD8589B194E881C185D5CD959 PUSH1 0x82 SHL PUSH1 0x44 DUP3 ADD MSTORE PUSH1 0x64 SWAP1 REVERT JUMPDEST PUSH1 0x1 PUSH1 0x1 PUSH1 0xA0 SHL SUB SWAP2 DUP3 AND DUP2 MSTORE SWAP2 AND PUSH1 0x20 DUP3 ADD MSTORE PUSH1 0x40 DUP2 ADD SWAP2 SWAP1 SWAP2 MSTORE PUSH1 0x60 ADD SWAP1 JUMP INVALID LOG2 PUSH5 0x6970667358 0x22 SLT KECCAK256 PUSH30 0x18175E560B9401F834C2543D952841D3640E6D6A5C91CA95E2B69374A496 KECCAK256 PUSH5 0x736F6C6343 STOP ADDMOD SGT STOP CALLER LOG2 PUSH5 0x6970667358 0x22 SLT KECCAK256 PUSH16 0xAC6EF65967FABDF229A49807B50B531D MLOAD LOG1 ADDMOD SWAP12 0xB1 PUSH32 0x99A789C2507022F88964736F6C63430008130033000000000000000000000000 "
        },
        "methodIdentifiers": {
          "allowedDeployers(address)": "6d090218",
          "createMerge(address,uint256)": "a469ee93",
          "getMergeCount()": "1d06f92b",
          "merges(address)": "e441eebf",
          "owner()": "8da5cb5b",
          "renounceOwnership()": "715018a6",
          "setAllowedDeployer(address,bool)": "39db25f7",
          "setMerge(address)": "b49757a6",
          "tokens(uint256)": "4f64b2be",
          "transferOwnership(address)": "f2fde38b",
          "wewe()": "e1f26f22"
        }
      }
    }
  }
}