{
  "contracts/token/CHAOS.sol": {
    "CHAOS": {
      "abi": [
        {
          "inputs": [],
          "stateMutability": "nonpayable",
          "type": "constructor"
        },
        {
          "anonymous": false,
          "inputs": [
            {
              "indexed": true,
              "internalType": "address",
              "name": "owner",
              "type": "address"
            },
            {
              "indexed": true,
              "internalType": "address",
              "name": "spender",
              "type": "address"
            },
            {
              "indexed": false,
              "internalType": "uint256",
              "name": "value",
              "type": "uint256"
            }
          ],
          "name": "Approval",
          "type": "event"
        },
        {
          "anonymous": false,
          "inputs": [
            {
              "indexed": true,
              "internalType": "address",
              "name": "previousOwner",
              "type": "address"
            },
            {
              "indexed": true,
              "internalType": "address",
              "name": "newOwner",
              "type": "address"
            }
          ],
          "name": "OwnershipTransferred",
          "type": "event"
        },
        {
          "anonymous": false,
          "inputs": [
            {
              "indexed": true,
              "internalType": "address",
              "name": "from",
              "type": "address"
            },
            {
              "indexed": true,
              "internalType": "address",
              "name": "to",
              "type": "address"
            },
            {
              "indexed": false,
              "internalType": "uint256",
              "name": "value",
              "type": "uint256"
            }
          ],
          "name": "Transfer",
          "type": "event"
        },
        {
          "inputs": [
            {
              "internalType": "address",
              "name": "owner",
              "type": "address"
            },
            {
              "internalType": "address",
              "name": "spender",
              "type": "address"
            }
          ],
          "name": "allowance",
          "outputs": [
            {
              "internalType": "uint256",
              "name": "",
              "type": "uint256"
            }
          ],
          "stateMutability": "view",
          "type": "function"
        },
        {
          "inputs": [
            {
              "internalType": "address",
              "name": "spender",
              "type": "address"
            },
            {
              "internalType": "uint256",
              "name": "amount",
              "type": "uint256"
            }
          ],
          "name": "approve",
          "outputs": [
            {
              "internalType": "bool",
              "name": "",
              "type": "bool"
            }
          ],
          "stateMutability": "nonpayable",
          "type": "function"
        },
        {
          "inputs": [
            {
              "internalType": "address",
              "name": "spender",
              "type": "address"
            },
            {
              "internalType": "uint256",
              "name": "amount",
              "type": "uint256"
            },
            {
              "internalType": "bytes",
              "name": "extraData",
              "type": "bytes"
            }
          ],
          "name": "approveAndCall",
          "outputs": [
            {
              "internalType": "bool",
              "name": "",
              "type": "bool"
            }
          ],
          "stateMutability": "nonpayable",
          "type": "function"
        },
        {
          "inputs": [
            {
              "internalType": "address",
              "name": "account",
              "type": "address"
            }
          ],
          "name": "balanceOf",
          "outputs": [
            {
              "internalType": "uint256",
              "name": "",
              "type": "uint256"
            }
          ],
          "stateMutability": "view",
          "type": "function"
        },
        {
          "inputs": [
            {
              "internalType": "uint256",
              "name": "pid",
              "type": "uint256"
            }
          ],
          "name": "collectEmissions",
          "outputs": [],
          "stateMutability": "nonpayable",
          "type": "function"
        },
        {
          "inputs": [],
          "name": "decimals",
          "outputs": [
            {
              "internalType": "uint8",
              "name": "",
              "type": "uint8"
            }
          ],
          "stateMutability": "view",
          "type": "function"
        },
        {
          "inputs": [
            {
              "internalType": "address",
              "name": "spender",
              "type": "address"
            },
            {
              "internalType": "uint256",
              "name": "subtractedValue",
              "type": "uint256"
            }
          ],
          "name": "decreaseAllowance",
          "outputs": [
            {
              "internalType": "bool",
              "name": "",
              "type": "bool"
            }
          ],
          "stateMutability": "nonpayable",
          "type": "function"
        },
        {
          "inputs": [
            {
              "internalType": "address",
              "name": "spender",
              "type": "address"
            },
            {
              "internalType": "uint256",
              "name": "addedValue",
              "type": "uint256"
            }
          ],
          "name": "increaseAllowance",
          "outputs": [
            {
              "internalType": "bool",
              "name": "",
              "type": "bool"
            }
          ],
          "stateMutability": "nonpayable",
          "type": "function"
        },
        {
          "inputs": [
            {
              "internalType": "uint256",
              "name": "amount",
              "type": "uint256"
            }
          ],
          "name": "mint",
          "outputs": [],
          "stateMutability": "nonpayable",
          "type": "function"
        },
        {
          "inputs": [
            {
              "internalType": "uint256",
              "name": "amount",
              "type": "uint256"
            }
          ],
          "name": "mintToFarm",
          "outputs": [],
          "stateMutability": "nonpayable",
          "type": "function"
        },
        {
          "inputs": [],
          "name": "name",
          "outputs": [
            {
              "internalType": "string",
              "name": "",
              "type": "string"
            }
          ],
          "stateMutability": "view",
          "type": "function"
        },
        {
          "inputs": [],
          "name": "owner",
          "outputs": [
            {
              "internalType": "address",
              "name": "",
              "type": "address"
            }
          ],
          "stateMutability": "view",
          "type": "function"
        },
        {
          "inputs": [],
          "name": "renounceOwnership",
          "outputs": [],
          "stateMutability": "nonpayable",
          "type": "function"
        },
        {
          "inputs": [
            {
              "internalType": "address",
              "name": "farm",
              "type": "address"
            }
          ],
          "name": "setFarm",
          "outputs": [],
          "stateMutability": "nonpayable",
          "type": "function"
        },
        {
          "inputs": [],
          "name": "symbol",
          "outputs": [
            {
              "internalType": "string",
              "name": "",
              "type": "string"
            }
          ],
          "stateMutability": "view",
          "type": "function"
        },
        {
          "inputs": [],
          "name": "totalSupply",
          "outputs": [
            {
              "internalType": "uint256",
              "name": "",
              "type": "uint256"
            }
          ],
          "stateMutability": "view",
          "type": "function"
        },
        {
          "inputs": [
            {
              "internalType": "address",
              "name": "to",
              "type": "address"
            },
            {
              "internalType": "uint256",
              "name": "amount",
              "type": "uint256"
            }
          ],
          "name": "transfer",
          "outputs": [
            {
              "internalType": "bool",
              "name": "",
              "type": "bool"
            }
          ],
          "stateMutability": "nonpayable",
          "type": "function"
        },
        {
          "inputs": [
            {
              "internalType": "address",
              "name": "from",
              "type": "address"
            },
            {
              "internalType": "address",
              "name": "to",
              "type": "address"
            },
            {
              "internalType": "uint256",
              "name": "amount",
              "type": "uint256"
            }
          ],
          "name": "transferFrom",
          "outputs": [
            {
              "internalType": "bool",
              "name": "",
              "type": "bool"
            }
          ],
          "stateMutability": "nonpayable",
          "type": "function"
        },
        {
          "inputs": [
            {
              "internalType": "address",
              "name": "newOwner",
              "type": "address"
            }
          ],
          "name": "transferOwnership",
          "outputs": [],
          "stateMutability": "nonpayable",
          "type": "function"
        }
      ],
      "evm": {
        "bytecode": {
          "linkReferences": {},
          "object": "6080604052346200032557620000146200032a565b6200001e6200032a565b815190916001600160401b038083116200022557600380546001948582811c92169485156200031a575b6020958684101462000304578190601f93848111620002ae575b50869084831160011462000247576000926200023b575b505060001982851b1c191690861b1782555b8551928311620002255760049384548681811c911680156200021a575b828210146200020557828111620001ba575b50809184116001146200014c57508293949560009362000140575b505082851b92600019911b1c19161790555b60058054336001600160a01b0319821681179092556040519291906001600160a01b03167f8be0079c531659141344cd1fd0a4f28419497f9722a3daafe3b4186f6b6457e0600080a3600655610e3b90816200035d8239f35b015191503880620000d5565b9190601f198416968560005283600020936000905b898210620001a25750508487989796971062000187575b50505050811b019055620000e7565b01519060f884600019921b161c191690553880808062000178565b80898597829496860151815501960193019062000161565b85600052816000208380870160051c820192848810620001fb575b0160051c019087905b828110620001ee575050620000ba565b60008155018790620001de565b92508192620001d5565b602286634e487b7160e01b6000525260246000fd5b90607f1690620000a8565b634e487b7160e01b600052604160045260246000fd5b01519050388062000079565b90889350601f1983169186600052886000209260005b8a8282106200029757505084116200027e575b505050811b0182556200008b565b015160001983871b60f8161c1916905538808062000270565b8385015186558c979095019493840193016200025d565b90915084600052866000208480850160051c820192898610620002fa575b918a91869594930160051c01915b828110620002ea57505062000062565b600081558594508a9101620002da565b92508192620002cc565b634e487b7160e01b600052602260045260246000fd5b91607f169162000048565b600080fd5b60408051919082016001600160401b03811183821017620002255760405260058252644348414f5360d81b602083015256fe6080604081815260048036101561001557600080fd5b600092833560e01c90816306fdde031461089757508063095ea7b31461086d57806318160ddd1461084e57806323b872dd14610784578063313ce5671461076857806339509351146107185780635f316876146106da57838163662c4b3b1461065a5750806370a0823114610623578063715018a6146105c55780638da5cb5b1461059c57806395d89b41146104b5578063a0712d681461048c578063a457c2d7146103e6578063a9059cbb146103b5578063cae9ca5114610259578063d4f26c5114610211578063dd62ed3e146101bf5763f2fde38b146100f657600080fd5b346101bb5760203660031901126101bb5761010f6109b8565b906101186109e9565b6001600160a01b03918216928315610169575050600580546001600160a01b031981168417909155167f8be0079c531659141344cd1fd0a4f28419497f9722a3daafe3b4186f6b6457e0600080a380f35b906020608492519162461bcd60e51b8352820152602660248201527f4f776e61626c653a206e6577206f776e657220697320746865207a65726f206160448201526564647265737360d01b6064820152fd5b8280fd5b50503461020d578060031936011261020d576020916101dc6109b8565b826101e56109d3565b6001600160a01b03928316845260018652922091166000908152908352819020549051908152f35b5080fd5b83346102565760203660031901126102565761022b6109b8565b6102336109e9565b600780546001600160a01b0319166001600160a01b039290921691909117905580f35b80fd5b50346101bb5760603660031901126101bb576102736109b8565b67ffffffffffffffff9160443591602435908484116103b157366023850112156103b157838301359485116103b15736602486860101116103b15760026006541461036e57908693929160026006556102cd828233610d03565b6001600160a01b031691823b1561036a5760a48591876024988a51998a9889978895638f4ffcb160e01b87523390870152828601523060448601526080606486015282608486015201848401378181018301849052601f01601f191681010301925af1801561035e5761034a575b60208260016006555160018152f35b6103548391610a83565b61020d578161033b565b505051903d90823e3d90fd5b8480fd5b855162461bcd60e51b8152602081850152601f60248201527f5265656e7472616e637947756172643a207265656e7472616e742063616c6c006044820152606490fd5b8680fd5b50503461020d578060031936011261020d576020906103df6103d56109b8565b6024359033610af2565b5160018152f35b5082346102565782600319360112610256576104006109b8565b91836024359233815260016020522060018060a01b03841660005260205283600020549082821061043b576020856103df8585038733610d03565b608490602086519162461bcd60e51b8352820152602560248201527f45524332303a2064656372656173656420616c6c6f77616e63652062656c6f77604482015264207a65726f60d81b6064820152fd5b83823461020d57602036600319011261020d576104b2906104ab6109e9565b3533610c60565b80f35b5091903461020d578160031936011261020d57805191809380549160019083821c92828516948515610592575b602095868610811461057f5785895290811561055b5750600114610520575b61051c8787610512828c0383610aad565b519182918261096f565b0390f35b9080949750528583205b828410610548575050508261051c9461051292820101943880610501565b805486850188015292860192810161052a565b60ff19168887015250505050151560051b83010192506105128261051c3880610501565b634e487b7160e01b845260228352602484fd5b93607f16936104e2565b50503461020d578160031936011261020d5760055490516001600160a01b039091168152602090f35b83346102565780600319360112610256576105de6109e9565b600580546001600160a01b031981169091556000906001600160a01b03167f8be0079c531659141344cd1fd0a4f28419497f9722a3daafe3b4186f6b6457e08280a380f35b50503461020d57602036600319011261020d5760209181906001600160a01b0361064b6109b8565b16815280845220549051908152f35b808484346106d65760203660031901126106d6576007546001600160a01b0316610685811515610a41565b803b156106d1576044849284519586938492630c7e663b60e11b84528035908401523360248401525af19081156106c857506106bf575080f35b6104b290610a83565b513d84823e3d90fd5b505050fd5b5050fd5b83823461020d57602036600319011261020d576104b2906106f96109e9565b6007546001600160a01b031690610711821515610a41565b3590610c60565b50503461020d578060031936011261020d576103df60209261076161073b6109b8565b338352600186528483206001600160a01b03821684528652918490205460243590610acf565b9033610d03565b50503461020d578160031936011261020d576020905160128152f35b5082903461020d57606036600319011261020d576107a06109b8565b6107a86109d3565b91846044359460018060a01b0384168152600160205281812033825260205220549060001982036107e2575b6020866103df878787610af2565b84821061080b5750918391610800602096956103df95033383610d03565b9193948193506107d4565b606490602087519162461bcd60e51b8352820152601d60248201527f45524332303a20696e73756666696369656e7420616c6c6f77616e63650000006044820152fd5b50503461020d578160031936011261020d576020906002549051908152f35b50503461020d578060031936011261020d576020906103df61088d6109b8565b6024359033610d03565b929190503461096b578360031936011261096b57600354600181811c9186908281168015610961575b602095868610821461094e575084885290811561092c57506001146108f1575b61051c8686610512828b0383610aad565b929550600383528583205b828410610919575050508261051c946105129282010194386108e0565b80548685018801529286019281016108fc565b60ff191687860152505050151560051b83010192506105128261051c386108e0565b634e487b7160e01b845260229052602483fd5b93607f16936108c0565b8380fd5b6020808252825181830181905290939260005b8281106109a457505060409293506000838284010152601f8019910116010190565b818101860151848201604001528501610982565b600435906001600160a01b03821682036109ce57565b600080fd5b602435906001600160a01b03821682036109ce57565b6005546001600160a01b031633036109fd57565b606460405162461bcd60e51b815260206004820152602060248201527f4f776e61626c653a2063616c6c6572206973206e6f7420746865206f776e65726044820152fd5b15610a4857565b60405162461bcd60e51b815260206004820152601360248201527210d21053d4ce8811985c9b481b9bdd081cd95d606a1b6044820152606490fd5b67ffffffffffffffff8111610a9757604052565b634e487b7160e01b600052604160045260246000fd5b90601f8019910116810190811067ffffffffffffffff821117610a9757604052565b91908201809211610adc57565b634e487b7160e01b600052601160045260246000fd5b6001600160a01b03908116918215610c0d5716918215610bbc57600082815280602052604081205491808310610b6857604082827fddf252ad1be2c89b69c2b068fc378daa952ba7f163c4a11628f55a4df523b3ef958760209652828652038282205586815220818154019055604051908152a3565b60405162461bcd60e51b815260206004820152602660248201527f45524332303a207472616e7366657220616d6f756e7420657863656564732062604482015265616c616e636560d01b6064820152608490fd5b60405162461bcd60e51b815260206004820152602360248201527f45524332303a207472616e7366657220746f20746865207a65726f206164647260448201526265737360e81b6064820152608490fd5b60405162461bcd60e51b815260206004820152602560248201527f45524332303a207472616e736665722066726f6d20746865207a65726f206164604482015264647265737360d81b6064820152608490fd5b6001600160a01b0316908115610cbe577fddf252ad1be2c89b69c2b068fc378daa952ba7f163c4a11628f55a4df523b3ef602082610ca2600094600254610acf565b60025584845283825260408420818154019055604051908152a3565b60405162461bcd60e51b815260206004820152601f60248201527f45524332303a206d696e7420746f20746865207a65726f2061646472657373006044820152606490fd5b6001600160a01b03908116918215610db45716918215610d645760207f8c5be1e5ebec7d5bd14f71427d1e84f3dd0314c0f7b2291e5b200ac8c7c3b925918360005260018252604060002085600052825280604060002055604051908152a3565b60405162461bcd60e51b815260206004820152602260248201527f45524332303a20617070726f766520746f20746865207a65726f206164647265604482015261737360f01b6064820152608490fd5b60405162461bcd60e51b8152602060048201526024808201527f45524332303a20617070726f76652066726f6d20746865207a65726f206164646044820152637265737360e01b6064820152608490fdfea26469706673582212207b323411595a79c29d87aef3c7b244d83781c6ba084b77549e59b6ff69839d6064736f6c63430008130033",
          "opcodes": "PUSH1 0x80 PUSH1 0x40 MSTORE CALLVALUE PUSH3 0x325 JUMPI PUSH3 0x14 PUSH3 0x32A JUMP JUMPDEST PUSH3 0x1E PUSH3 0x32A JUMP JUMPDEST DUP2 MLOAD SWAP1 SWAP2 PUSH1 0x1 PUSH1 0x1 PUSH1 0x40 SHL SUB DUP1 DUP4 GT PUSH3 0x225 JUMPI PUSH1 0x3 DUP1 SLOAD PUSH1 0x1 SWAP5 DUP6 DUP3 DUP2 SHR SWAP3 AND SWAP5 DUP6 ISZERO PUSH3 0x31A JUMPI JUMPDEST PUSH1 0x20 SWAP6 DUP7 DUP5 LT EQ PUSH3 0x304 JUMPI DUP2 SWAP1 PUSH1 0x1F SWAP4 DUP5 DUP2 GT PUSH3 0x2AE JUMPI JUMPDEST POP DUP7 SWAP1 DUP5 DUP4 GT PUSH1 0x1 EQ PUSH3 0x247 JUMPI PUSH1 0x0 SWAP3 PUSH3 0x23B JUMPI JUMPDEST POP POP PUSH1 0x0 NOT DUP3 DUP6 SHL SHR NOT AND SWAP1 DUP7 SHL OR DUP3 SSTORE JUMPDEST DUP6 MLOAD SWAP3 DUP4 GT PUSH3 0x225 JUMPI PUSH1 0x4 SWAP4 DUP5 SLOAD DUP7 DUP2 DUP2 SHR SWAP2 AND DUP1 ISZERO PUSH3 0x21A JUMPI JUMPDEST DUP3 DUP3 LT EQ PUSH3 0x205 JUMPI DUP3 DUP2 GT PUSH3 0x1BA JUMPI JUMPDEST POP DUP1 SWAP2 DUP5 GT PUSH1 0x1 EQ PUSH3 0x14C JUMPI POP DUP3 SWAP4 SWAP5 SWAP6 PUSH1 0x0 SWAP4 PUSH3 0x140 JUMPI JUMPDEST POP POP DUP3 DUP6 SHL SWAP3 PUSH1 0x0 NOT SWAP2 SHL SHR NOT AND OR SWAP1 SSTORE JUMPDEST PUSH1 0x5 DUP1 SLOAD CALLER PUSH1 0x1 PUSH1 0x1 PUSH1 0xA0 SHL SUB NOT DUP3 AND DUP2 OR SWAP1 SWAP3 SSTORE PUSH1 0x40 MLOAD SWAP3 SWAP2 SWAP1 PUSH1 0x1 PUSH1 0x1 PUSH1 0xA0 SHL SUB AND PUSH32 0x8BE0079C531659141344CD1FD0A4F28419497F9722A3DAAFE3B4186F6B6457E0 PUSH1 0x0 DUP1 LOG3 PUSH1 0x6 SSTORE PUSH2 0xE3B SWAP1 DUP2 PUSH3 0x35D DUP3 CODECOPY RETURN JUMPDEST ADD MLOAD SWAP2 POP CODESIZE DUP1 PUSH3 0xD5 JUMP JUMPDEST SWAP2 SWAP1 PUSH1 0x1F NOT DUP5 AND SWAP7 DUP6 PUSH1 0x0 MSTORE DUP4 PUSH1 0x0 KECCAK256 SWAP4 PUSH1 0x0 SWAP1 JUMPDEST DUP10 DUP3 LT PUSH3 0x1A2 JUMPI POP POP DUP5 DUP8 SWAP9 SWAP8 SWAP7 SWAP8 LT PUSH3 0x187 JUMPI JUMPDEST POP POP POP POP DUP2 SHL ADD SWAP1 SSTORE PUSH3 0xE7 JUMP JUMPDEST ADD MLOAD SWAP1 PUSH1 0xF8 DUP5 PUSH1 0x0 NOT SWAP3 SHL AND SHR NOT AND SWAP1 SSTORE CODESIZE DUP1 DUP1 DUP1 PUSH3 0x178 JUMP JUMPDEST DUP1 DUP10 DUP6 SWAP8 DUP3 SWAP5 SWAP7 DUP7 ADD MLOAD DUP2 SSTORE ADD SWAP7 ADD SWAP4 ADD SWAP1 PUSH3 0x161 JUMP JUMPDEST DUP6 PUSH1 0x0 MSTORE DUP2 PUSH1 0x0 KECCAK256 DUP4 DUP1 DUP8 ADD PUSH1 0x5 SHR DUP3 ADD SWAP3 DUP5 DUP9 LT PUSH3 0x1FB JUMPI JUMPDEST ADD PUSH1 0x5 SHR ADD SWAP1 DUP8 SWAP1 JUMPDEST DUP3 DUP2 LT PUSH3 0x1EE JUMPI POP POP PUSH3 0xBA JUMP JUMPDEST PUSH1 0x0 DUP2 SSTORE ADD DUP8 SWAP1 PUSH3 0x1DE JUMP JUMPDEST SWAP3 POP DUP2 SWAP3 PUSH3 0x1D5 JUMP JUMPDEST PUSH1 0x22 DUP7 PUSH4 0x4E487B71 PUSH1 0xE0 SHL PUSH1 0x0 MSTORE MSTORE PUSH1 0x24 PUSH1 0x0 REVERT JUMPDEST SWAP1 PUSH1 0x7F AND SWAP1 PUSH3 0xA8 JUMP JUMPDEST PUSH4 0x4E487B71 PUSH1 0xE0 SHL PUSH1 0x0 MSTORE PUSH1 0x41 PUSH1 0x4 MSTORE PUSH1 0x24 PUSH1 0x0 REVERT JUMPDEST ADD MLOAD SWAP1 POP CODESIZE DUP1 PUSH3 0x79 JUMP JUMPDEST SWAP1 DUP9 SWAP4 POP PUSH1 0x1F NOT DUP4 AND SWAP2 DUP7 PUSH1 0x0 MSTORE DUP9 PUSH1 0x0 KECCAK256 SWAP3 PUSH1 0x0 JUMPDEST DUP11 DUP3 DUP3 LT PUSH3 0x297 JUMPI POP POP DUP5 GT PUSH3 0x27E JUMPI JUMPDEST POP POP POP DUP2 SHL ADD DUP3 SSTORE PUSH3 0x8B JUMP JUMPDEST ADD MLOAD PUSH1 0x0 NOT DUP4 DUP8 SHL PUSH1 0xF8 AND SHR NOT AND SWAP1 SSTORE CODESIZE DUP1 DUP1 PUSH3 0x270 JUMP JUMPDEST DUP4 DUP6 ADD MLOAD DUP7 SSTORE DUP13 SWAP8 SWAP1 SWAP6 ADD SWAP5 SWAP4 DUP5 ADD SWAP4 ADD PUSH3 0x25D JUMP JUMPDEST SWAP1 SWAP2 POP DUP5 PUSH1 0x0 MSTORE DUP7 PUSH1 0x0 KECCAK256 DUP5 DUP1 DUP6 ADD PUSH1 0x5 SHR DUP3 ADD SWAP3 DUP10 DUP7 LT PUSH3 0x2FA JUMPI JUMPDEST SWAP2 DUP11 SWAP2 DUP7 SWAP6 SWAP5 SWAP4 ADD PUSH1 0x5 SHR ADD SWAP2 JUMPDEST DUP3 DUP2 LT PUSH3 0x2EA JUMPI POP POP PUSH3 0x62 JUMP JUMPDEST PUSH1 0x0 DUP2 SSTORE DUP6 SWAP5 POP DUP11 SWAP2 ADD PUSH3 0x2DA JUMP JUMPDEST SWAP3 POP DUP2 SWAP3 PUSH3 0x2CC JUMP JUMPDEST PUSH4 0x4E487B71 PUSH1 0xE0 SHL PUSH1 0x0 MSTORE PUSH1 0x22 PUSH1 0x4 MSTORE PUSH1 0x24 PUSH1 0x0 REVERT JUMPDEST SWAP2 PUSH1 0x7F AND SWAP2 PUSH3 0x48 JUMP JUMPDEST PUSH1 0x0 DUP1 REVERT JUMPDEST PUSH1 0x40 DUP1 MLOAD SWAP2 SWAP1 DUP3 ADD PUSH1 0x1 PUSH1 0x1 PUSH1 0x40 SHL SUB DUP2 GT DUP4 DUP3 LT OR PUSH3 0x225 JUMPI PUSH1 0x40 MSTORE PUSH1 0x5 DUP3 MSTORE PUSH5 0x4348414F53 PUSH1 0xD8 SHL PUSH1 0x20 DUP4 ADD MSTORE JUMP INVALID PUSH1 0x80 PUSH1 0x40 DUP2 DUP2 MSTORE PUSH1 0x4 DUP1 CALLDATASIZE LT ISZERO PUSH2 0x15 JUMPI PUSH1 0x0 DUP1 REVERT JUMPDEST PUSH1 0x0 SWAP3 DUP4 CALLDATALOAD PUSH1 0xE0 SHR SWAP1 DUP2 PUSH4 0x6FDDE03 EQ PUSH2 0x897 JUMPI POP DUP1 PUSH4 0x95EA7B3 EQ PUSH2 0x86D JUMPI DUP1 PUSH4 0x18160DDD EQ PUSH2 0x84E JUMPI DUP1 PUSH4 0x23B872DD EQ PUSH2 0x784 JUMPI DUP1 PUSH4 0x313CE567 EQ PUSH2 0x768 JUMPI DUP1 PUSH4 0x39509351 EQ PUSH2 0x718 JUMPI DUP1 PUSH4 0x5F316876 EQ PUSH2 0x6DA JUMPI DUP4 DUP2 PUSH4 0x662C4B3B EQ PUSH2 0x65A JUMPI POP DUP1 PUSH4 0x70A08231 EQ PUSH2 0x623 JUMPI DUP1 PUSH4 0x715018A6 EQ PUSH2 0x5C5 JUMPI DUP1 PUSH4 0x8DA5CB5B EQ PUSH2 0x59C JUMPI DUP1 PUSH4 0x95D89B41 EQ PUSH2 0x4B5 JUMPI DUP1 PUSH4 0xA0712D68 EQ PUSH2 0x48C JUMPI DUP1 PUSH4 0xA457C2D7 EQ PUSH2 0x3E6 JUMPI DUP1 PUSH4 0xA9059CBB EQ PUSH2 0x3B5 JUMPI DUP1 PUSH4 0xCAE9CA51 EQ PUSH2 0x259 JUMPI DUP1 PUSH4 0xD4F26C51 EQ PUSH2 0x211 JUMPI DUP1 PUSH4 0xDD62ED3E EQ PUSH2 0x1BF JUMPI PUSH4 0xF2FDE38B EQ PUSH2 0xF6 JUMPI PUSH1 0x0 DUP1 REVERT JUMPDEST CALLVALUE PUSH2 0x1BB JUMPI PUSH1 0x20 CALLDATASIZE PUSH1 0x3 NOT ADD SLT PUSH2 0x1BB JUMPI PUSH2 0x10F PUSH2 0x9B8 JUMP JUMPDEST SWAP1 PUSH2 0x118 PUSH2 0x9E9 JUMP JUMPDEST PUSH1 0x1 PUSH1 0x1 PUSH1 0xA0 SHL SUB SWAP2 DUP3 AND SWAP3 DUP4 ISZERO PUSH2 0x169 JUMPI POP POP PUSH1 0x5 DUP1 SLOAD PUSH1 0x1 PUSH1 0x1 PUSH1 0xA0 SHL SUB NOT DUP2 AND DUP5 OR SWAP1 SWAP2 SSTORE AND PUSH32 0x8BE0079C531659141344CD1FD0A4F28419497F9722A3DAAFE3B4186F6B6457E0 PUSH1 0x0 DUP1 LOG3 DUP1 RETURN JUMPDEST SWAP1 PUSH1 0x20 PUSH1 0x84 SWAP3 MLOAD SWAP2 PUSH3 0x461BCD PUSH1 0xE5 SHL DUP4 MSTORE DUP3 ADD MSTORE PUSH1 0x26 PUSH1 0x24 DUP3 ADD MSTORE PUSH32 0x4F776E61626C653A206E6577206F776E657220697320746865207A65726F2061 PUSH1 0x44 DUP3 ADD MSTORE PUSH6 0x646472657373 PUSH1 0xD0 SHL PUSH1 0x64 DUP3 ADD MSTORE REVERT JUMPDEST DUP3 DUP1 REVERT JUMPDEST POP POP CALLVALUE PUSH2 0x20D JUMPI DUP1 PUSH1 0x3 NOT CALLDATASIZE ADD SLT PUSH2 0x20D JUMPI PUSH1 0x20 SWAP2 PUSH2 0x1DC PUSH2 0x9B8 JUMP JUMPDEST DUP3 PUSH2 0x1E5 PUSH2 0x9D3 JUMP JUMPDEST PUSH1 0x1 PUSH1 0x1 PUSH1 0xA0 SHL SUB SWAP3 DUP4 AND DUP5 MSTORE PUSH1 0x1 DUP7 MSTORE SWAP3 KECCAK256 SWAP2 AND PUSH1 0x0 SWAP1 DUP2 MSTORE SWAP1 DUP4 MSTORE DUP2 SWAP1 KECCAK256 SLOAD SWAP1 MLOAD SWAP1 DUP2 MSTORE RETURN JUMPDEST POP DUP1 REVERT JUMPDEST DUP4 CALLVALUE PUSH2 0x256 JUMPI PUSH1 0x20 CALLDATASIZE PUSH1 0x3 NOT ADD SLT PUSH2 0x256 JUMPI PUSH2 0x22B PUSH2 0x9B8 JUMP JUMPDEST PUSH2 0x233 PUSH2 0x9E9 JUMP JUMPDEST PUSH1 0x7 DUP1 SLOAD PUSH1 0x1 PUSH1 0x1 PUSH1 0xA0 SHL SUB NOT AND PUSH1 0x1 PUSH1 0x1 PUSH1 0xA0 SHL SUB SWAP3 SWAP1 SWAP3 AND SWAP2 SWAP1 SWAP2 OR SWAP1 SSTORE DUP1 RETURN JUMPDEST DUP1 REVERT JUMPDEST POP CALLVALUE PUSH2 0x1BB JUMPI PUSH1 0x60 CALLDATASIZE PUSH1 0x3 NOT ADD SLT PUSH2 0x1BB JUMPI PUSH2 0x273 PUSH2 0x9B8 JUMP JUMPDEST PUSH8 0xFFFFFFFFFFFFFFFF SWAP2 PUSH1 0x44 CALLDATALOAD SWAP2 PUSH1 0x24 CALLDATALOAD SWAP1 DUP5 DUP5 GT PUSH2 0x3B1 JUMPI CALLDATASIZE PUSH1 0x23 DUP6 ADD SLT ISZERO PUSH2 0x3B1 JUMPI DUP4 DUP4 ADD CALLDATALOAD SWAP5 DUP6 GT PUSH2 0x3B1 JUMPI CALLDATASIZE PUSH1 0x24 DUP7 DUP7 ADD ADD GT PUSH2 0x3B1 JUMPI PUSH1 0x2 PUSH1 0x6 SLOAD EQ PUSH2 0x36E JUMPI SWAP1 DUP7 SWAP4 SWAP3 SWAP2 PUSH1 0x2 PUSH1 0x6 SSTORE PUSH2 0x2CD DUP3 DUP3 CALLER PUSH2 0xD03 JUMP JUMPDEST PUSH1 0x1 PUSH1 0x1 PUSH1 0xA0 SHL SUB AND SWAP2 DUP3 EXTCODESIZE ISZERO PUSH2 0x36A JUMPI PUSH1 0xA4 DUP6 SWAP2 DUP8 PUSH1 0x24 SWAP9 DUP11 MLOAD SWAP10 DUP11 SWAP9 DUP10 SWAP8 DUP9 SWAP6 PUSH4 0x8F4FFCB1 PUSH1 0xE0 SHL DUP8 MSTORE CALLER SWAP1 DUP8 ADD MSTORE DUP3 DUP7 ADD MSTORE ADDRESS PUSH1 0x44 DUP7 ADD MSTORE PUSH1 0x80 PUSH1 0x64 DUP7 ADD MSTORE DUP3 PUSH1 0x84 DUP7 ADD MSTORE ADD DUP5 DUP5 ADD CALLDATACOPY DUP2 DUP2 ADD DUP4 ADD DUP5 SWAP1 MSTORE PUSH1 0x1F ADD PUSH1 0x1F NOT AND DUP2 ADD SUB ADD SWAP3 GAS CALL DUP1 ISZERO PUSH2 0x35E JUMPI PUSH2 0x34A JUMPI JUMPDEST PUSH1 0x20 DUP3 PUSH1 0x1 PUSH1 0x6 SSTORE MLOAD PUSH1 0x1 DUP2 MSTORE RETURN JUMPDEST PUSH2 0x354 DUP4 SWAP2 PUSH2 0xA83 JUMP JUMPDEST PUSH2 0x20D JUMPI DUP2 PUSH2 0x33B JUMP JUMPDEST POP POP MLOAD SWAP1 RETURNDATASIZE SWAP1 DUP3 RETURNDATACOPY RETURNDATASIZE SWAP1 REVERT JUMPDEST DUP5 DUP1 REVERT JUMPDEST DUP6 MLOAD PUSH3 0x461BCD PUSH1 0xE5 SHL DUP2 MSTORE PUSH1 0x20 DUP2 DUP6 ADD MSTORE PUSH1 0x1F PUSH1 0x24 DUP3 ADD MSTORE PUSH32 0x5265656E7472616E637947756172643A207265656E7472616E742063616C6C00 PUSH1 0x44 DUP3 ADD MSTORE PUSH1 0x64 SWAP1 REVERT JUMPDEST DUP7 DUP1 REVERT JUMPDEST POP POP CALLVALUE PUSH2 0x20D JUMPI DUP1 PUSH1 0x3 NOT CALLDATASIZE ADD SLT PUSH2 0x20D JUMPI PUSH1 0x20 SWAP1 PUSH2 0x3DF PUSH2 0x3D5 PUSH2 0x9B8 JUMP JUMPDEST PUSH1 0x24 CALLDATALOAD SWAP1 CALLER PUSH2 0xAF2 JUMP JUMPDEST MLOAD PUSH1 0x1 DUP2 MSTORE RETURN JUMPDEST POP DUP3 CALLVALUE PUSH2 0x256 JUMPI DUP3 PUSH1 0x3 NOT CALLDATASIZE ADD SLT PUSH2 0x256 JUMPI PUSH2 0x400 PUSH2 0x9B8 JUMP JUMPDEST SWAP2 DUP4 PUSH1 0x24 CALLDATALOAD SWAP3 CALLER DUP2 MSTORE PUSH1 0x1 PUSH1 0x20 MSTORE KECCAK256 PUSH1 0x1 DUP1 PUSH1 0xA0 SHL SUB DUP5 AND PUSH1 0x0 MSTORE PUSH1 0x20 MSTORE DUP4 PUSH1 0x0 KECCAK256 SLOAD SWAP1 DUP3 DUP3 LT PUSH2 0x43B JUMPI PUSH1 0x20 DUP6 PUSH2 0x3DF DUP6 DUP6 SUB DUP8 CALLER PUSH2 0xD03 JUMP JUMPDEST PUSH1 0x84 SWAP1 PUSH1 0x20 DUP7 MLOAD SWAP2 PUSH3 0x461BCD PUSH1 0xE5 SHL DUP4 MSTORE DUP3 ADD MSTORE PUSH1 0x25 PUSH1 0x24 DUP3 ADD MSTORE PUSH32 0x45524332303A2064656372656173656420616C6C6F77616E63652062656C6F77 PUSH1 0x44 DUP3 ADD MSTORE PUSH5 0x207A65726F PUSH1 0xD8 SHL PUSH1 0x64 DUP3 ADD MSTORE REVERT JUMPDEST DUP4 DUP3 CALLVALUE PUSH2 0x20D JUMPI PUSH1 0x20 CALLDATASIZE PUSH1 0x3 NOT ADD SLT PUSH2 0x20D JUMPI PUSH2 0x4B2 SWAP1 PUSH2 0x4AB PUSH2 0x9E9 JUMP JUMPDEST CALLDATALOAD CALLER PUSH2 0xC60 JUMP JUMPDEST DUP1 RETURN JUMPDEST POP SWAP2 SWAP1 CALLVALUE PUSH2 0x20D JUMPI DUP2 PUSH1 0x3 NOT CALLDATASIZE ADD SLT PUSH2 0x20D JUMPI DUP1 MLOAD SWAP2 DUP1 SWAP4 DUP1 SLOAD SWAP2 PUSH1 0x1 SWAP1 DUP4 DUP3 SHR SWAP3 DUP3 DUP6 AND SWAP5 DUP6 ISZERO PUSH2 0x592 JUMPI JUMPDEST PUSH1 0x20 SWAP6 DUP7 DUP7 LT DUP2 EQ PUSH2 0x57F JUMPI DUP6 DUP10 MSTORE SWAP1 DUP2 ISZERO PUSH2 0x55B JUMPI POP PUSH1 0x1 EQ PUSH2 0x520 JUMPI JUMPDEST PUSH2 0x51C DUP8 DUP8 PUSH2 0x512 DUP3 DUP13 SUB DUP4 PUSH2 0xAAD JUMP JUMPDEST MLOAD SWAP2 DUP3 SWAP2 DUP3 PUSH2 0x96F JUMP JUMPDEST SUB SWAP1 RETURN JUMPDEST SWAP1 DUP1 SWAP5 SWAP8 POP MSTORE DUP6 DUP4 KECCAK256 JUMPDEST DUP3 DUP5 LT PUSH2 0x548 JUMPI POP POP POP DUP3 PUSH2 0x51C SWAP5 PUSH2 0x512 SWAP3 DUP3 ADD ADD SWAP5 CODESIZE DUP1 PUSH2 0x501 JUMP JUMPDEST DUP1 SLOAD DUP7 DUP6 ADD DUP9 ADD MSTORE SWAP3 DUP7 ADD SWAP3 DUP2 ADD PUSH2 0x52A JUMP JUMPDEST PUSH1 0xFF NOT AND DUP9 DUP8 ADD MSTORE POP POP POP POP ISZERO ISZERO PUSH1 0x5 SHL DUP4 ADD ADD SWAP3 POP PUSH2 0x512 DUP3 PUSH2 0x51C CODESIZE DUP1 PUSH2 0x501 JUMP JUMPDEST PUSH4 0x4E487B71 PUSH1 0xE0 SHL DUP5 MSTORE PUSH1 0x22 DUP4 MSTORE PUSH1 0x24 DUP5 REVERT JUMPDEST SWAP4 PUSH1 0x7F AND SWAP4 PUSH2 0x4E2 JUMP JUMPDEST POP POP CALLVALUE PUSH2 0x20D JUMPI DUP2 PUSH1 0x3 NOT CALLDATASIZE ADD SLT PUSH2 0x20D JUMPI PUSH1 0x5 SLOAD SWAP1 MLOAD PUSH1 0x1 PUSH1 0x1 PUSH1 0xA0 SHL SUB SWAP1 SWAP2 AND DUP2 MSTORE PUSH1 0x20 SWAP1 RETURN JUMPDEST DUP4 CALLVALUE PUSH2 0x256 JUMPI DUP1 PUSH1 0x3 NOT CALLDATASIZE ADD SLT PUSH2 0x256 JUMPI PUSH2 0x5DE PUSH2 0x9E9 JUMP JUMPDEST PUSH1 0x5 DUP1 SLOAD PUSH1 0x1 PUSH1 0x1 PUSH1 0xA0 SHL SUB NOT DUP2 AND SWAP1 SWAP2 SSTORE PUSH1 0x0 SWAP1 PUSH1 0x1 PUSH1 0x1 PUSH1 0xA0 SHL SUB AND PUSH32 0x8BE0079C531659141344CD1FD0A4F28419497F9722A3DAAFE3B4186F6B6457E0 DUP3 DUP1 LOG3 DUP1 RETURN JUMPDEST POP POP CALLVALUE PUSH2 0x20D JUMPI PUSH1 0x20 CALLDATASIZE PUSH1 0x3 NOT ADD SLT PUSH2 0x20D JUMPI PUSH1 0x20 SWAP2 DUP2 SWAP1 PUSH1 0x1 PUSH1 0x1 PUSH1 0xA0 SHL SUB PUSH2 0x64B PUSH2 0x9B8 JUMP JUMPDEST AND DUP2 MSTORE DUP1 DUP5 MSTORE KECCAK256 SLOAD SWAP1 MLOAD SWAP1 DUP2 MSTORE RETURN JUMPDEST DUP1 DUP5 DUP5 CALLVALUE PUSH2 0x6D6 JUMPI PUSH1 0x20 CALLDATASIZE PUSH1 0x3 NOT ADD SLT PUSH2 0x6D6 JUMPI PUSH1 0x7 SLOAD PUSH1 0x1 PUSH1 0x1 PUSH1 0xA0 SHL SUB AND PUSH2 0x685 DUP2 ISZERO ISZERO PUSH2 0xA41 JUMP JUMPDEST DUP1 EXTCODESIZE ISZERO PUSH2 0x6D1 JUMPI PUSH1 0x44 DUP5 SWAP3 DUP5 MLOAD SWAP6 DUP7 SWAP4 DUP5 SWAP3 PUSH4 0xC7E663B PUSH1 0xE1 SHL DUP5 MSTORE DUP1 CALLDATALOAD SWAP1 DUP5 ADD MSTORE CALLER PUSH1 0x24 DUP5 ADD MSTORE GAS CALL SWAP1 DUP2 ISZERO PUSH2 0x6C8 JUMPI POP PUSH2 0x6BF JUMPI POP DUP1 RETURN JUMPDEST PUSH2 0x4B2 SWAP1 PUSH2 0xA83 JUMP JUMPDEST MLOAD RETURNDATASIZE DUP5 DUP3 RETURNDATACOPY RETURNDATASIZE SWAP1 REVERT JUMPDEST POP POP POP REVERT JUMPDEST POP POP REVERT JUMPDEST DUP4 DUP3 CALLVALUE PUSH2 0x20D JUMPI PUSH1 0x20 CALLDATASIZE PUSH1 0x3 NOT ADD SLT PUSH2 0x20D JUMPI PUSH2 0x4B2 SWAP1 PUSH2 0x6F9 PUSH2 0x9E9 JUMP JUMPDEST PUSH1 0x7 SLOAD PUSH1 0x1 PUSH1 0x1 PUSH1 0xA0 SHL SUB AND SWAP1 PUSH2 0x711 DUP3 ISZERO ISZERO PUSH2 0xA41 JUMP JUMPDEST CALLDATALOAD SWAP1 PUSH2 0xC60 JUMP JUMPDEST POP POP CALLVALUE PUSH2 0x20D JUMPI DUP1 PUSH1 0x3 NOT CALLDATASIZE ADD SLT PUSH2 0x20D JUMPI PUSH2 0x3DF PUSH1 0x20 SWAP3 PUSH2 0x761 PUSH2 0x73B PUSH2 0x9B8 JUMP JUMPDEST CALLER DUP4 MSTORE PUSH1 0x1 DUP7 MSTORE DUP5 DUP4 KECCAK256 PUSH1 0x1 PUSH1 0x1 PUSH1 0xA0 SHL SUB DUP3 AND DUP5 MSTORE DUP7 MSTORE SWAP2 DUP5 SWAP1 KECCAK256 SLOAD PUSH1 0x24 CALLDATALOAD SWAP1 PUSH2 0xACF JUMP JUMPDEST SWAP1 CALLER PUSH2 0xD03 JUMP JUMPDEST POP POP CALLVALUE PUSH2 0x20D JUMPI DUP2 PUSH1 0x3 NOT CALLDATASIZE ADD SLT PUSH2 0x20D JUMPI PUSH1 0x20 SWAP1 MLOAD PUSH1 0x12 DUP2 MSTORE RETURN JUMPDEST POP DUP3 SWAP1 CALLVALUE PUSH2 0x20D JUMPI PUSH1 0x60 CALLDATASIZE PUSH1 0x3 NOT ADD SLT PUSH2 0x20D JUMPI PUSH2 0x7A0 PUSH2 0x9B8 JUMP JUMPDEST PUSH2 0x7A8 PUSH2 0x9D3 JUMP JUMPDEST SWAP2 DUP5 PUSH1 0x44 CALLDATALOAD SWAP5 PUSH1 0x1 DUP1 PUSH1 0xA0 SHL SUB DUP5 AND DUP2 MSTORE PUSH1 0x1 PUSH1 0x20 MSTORE DUP2 DUP2 KECCAK256 CALLER DUP3 MSTORE PUSH1 0x20 MSTORE KECCAK256 SLOAD SWAP1 PUSH1 0x0 NOT DUP3 SUB PUSH2 0x7E2 JUMPI JUMPDEST PUSH1 0x20 DUP7 PUSH2 0x3DF DUP8 DUP8 DUP8 PUSH2 0xAF2 JUMP JUMPDEST DUP5 DUP3 LT PUSH2 0x80B JUMPI POP SWAP2 DUP4 SWAP2 PUSH2 0x800 PUSH1 0x20 SWAP7 SWAP6 PUSH2 0x3DF SWAP6 SUB CALLER DUP4 PUSH2 0xD03 JUMP JUMPDEST SWAP2 SWAP4 SWAP5 DUP2 SWAP4 POP PUSH2 0x7D4 JUMP JUMPDEST PUSH1 0x64 SWAP1 PUSH1 0x20 DUP8 MLOAD SWAP2 PUSH3 0x461BCD PUSH1 0xE5 SHL DUP4 MSTORE DUP3 ADD MSTORE PUSH1 0x1D PUSH1 0x24 DUP3 ADD MSTORE PUSH32 0x45524332303A20696E73756666696369656E7420616C6C6F77616E6365000000 PUSH1 0x44 DUP3 ADD MSTORE REVERT JUMPDEST POP POP CALLVALUE PUSH2 0x20D JUMPI DUP2 PUSH1 0x3 NOT CALLDATASIZE ADD SLT PUSH2 0x20D JUMPI PUSH1 0x20 SWAP1 PUSH1 0x2 SLOAD SWAP1 MLOAD SWAP1 DUP2 MSTORE RETURN JUMPDEST POP POP CALLVALUE PUSH2 0x20D JUMPI DUP1 PUSH1 0x3 NOT CALLDATASIZE ADD SLT PUSH2 0x20D JUMPI PUSH1 0x20 SWAP1 PUSH2 0x3DF PUSH2 0x88D PUSH2 0x9B8 JUMP JUMPDEST PUSH1 0x24 CALLDATALOAD SWAP1 CALLER PUSH2 0xD03 JUMP JUMPDEST SWAP3 SWAP2 SWAP1 POP CALLVALUE PUSH2 0x96B JUMPI DUP4 PUSH1 0x3 NOT CALLDATASIZE ADD SLT PUSH2 0x96B JUMPI PUSH1 0x3 SLOAD PUSH1 0x1 DUP2 DUP2 SHR SWAP2 DUP7 SWAP1 DUP3 DUP2 AND DUP1 ISZERO PUSH2 0x961 JUMPI JUMPDEST PUSH1 0x20 SWAP6 DUP7 DUP7 LT DUP3 EQ PUSH2 0x94E JUMPI POP DUP5 DUP9 MSTORE SWAP1 DUP2 ISZERO PUSH2 0x92C JUMPI POP PUSH1 0x1 EQ PUSH2 0x8F1 JUMPI JUMPDEST PUSH2 0x51C DUP7 DUP7 PUSH2 0x512 DUP3 DUP12 SUB DUP4 PUSH2 0xAAD JUMP JUMPDEST SWAP3 SWAP6 POP PUSH1 0x3 DUP4 MSTORE DUP6 DUP4 KECCAK256 JUMPDEST DUP3 DUP5 LT PUSH2 0x919 JUMPI POP POP POP DUP3 PUSH2 0x51C SWAP5 PUSH2 0x512 SWAP3 DUP3 ADD ADD SWAP5 CODESIZE PUSH2 0x8E0 JUMP JUMPDEST DUP1 SLOAD DUP7 DUP6 ADD DUP9 ADD MSTORE SWAP3 DUP7 ADD SWAP3 DUP2 ADD PUSH2 0x8FC JUMP JUMPDEST PUSH1 0xFF NOT AND DUP8 DUP7 ADD MSTORE POP POP POP ISZERO ISZERO PUSH1 0x5 SHL DUP4 ADD ADD SWAP3 POP PUSH2 0x512 DUP3 PUSH2 0x51C CODESIZE PUSH2 0x8E0 JUMP JUMPDEST PUSH4 0x4E487B71 PUSH1 0xE0 SHL DUP5 MSTORE PUSH1 0x22 SWAP1 MSTORE PUSH1 0x24 DUP4 REVERT JUMPDEST SWAP4 PUSH1 0x7F AND SWAP4 PUSH2 0x8C0 JUMP JUMPDEST DUP4 DUP1 REVERT JUMPDEST PUSH1 0x20 DUP1 DUP3 MSTORE DUP3 MLOAD DUP2 DUP4 ADD DUP2 SWAP1 MSTORE SWAP1 SWAP4 SWAP3 PUSH1 0x0 JUMPDEST DUP3 DUP2 LT PUSH2 0x9A4 JUMPI POP POP PUSH1 0x40 SWAP3 SWAP4 POP PUSH1 0x0 DUP4 DUP3 DUP5 ADD ADD MSTORE PUSH1 0x1F DUP1 NOT SWAP2 ADD AND ADD ADD SWAP1 JUMP JUMPDEST DUP2 DUP2 ADD DUP7 ADD MLOAD DUP5 DUP3 ADD PUSH1 0x40 ADD MSTORE DUP6 ADD PUSH2 0x982 JUMP JUMPDEST PUSH1 0x4 CALLDATALOAD SWAP1 PUSH1 0x1 PUSH1 0x1 PUSH1 0xA0 SHL SUB DUP3 AND DUP3 SUB PUSH2 0x9CE JUMPI JUMP JUMPDEST PUSH1 0x0 DUP1 REVERT JUMPDEST PUSH1 0x24 CALLDATALOAD SWAP1 PUSH1 0x1 PUSH1 0x1 PUSH1 0xA0 SHL SUB DUP3 AND DUP3 SUB PUSH2 0x9CE JUMPI JUMP JUMPDEST PUSH1 0x5 SLOAD PUSH1 0x1 PUSH1 0x1 PUSH1 0xA0 SHL SUB AND CALLER SUB PUSH2 0x9FD JUMPI JUMP JUMPDEST PUSH1 0x64 PUSH1 0x40 MLOAD PUSH3 0x461BCD PUSH1 0xE5 SHL DUP2 MSTORE PUSH1 0x20 PUSH1 0x4 DUP3 ADD MSTORE PUSH1 0x20 PUSH1 0x24 DUP3 ADD MSTORE PUSH32 0x4F776E61626C653A2063616C6C6572206973206E6F7420746865206F776E6572 PUSH1 0x44 DUP3 ADD MSTORE REVERT JUMPDEST ISZERO PUSH2 0xA48 JUMPI JUMP JUMPDEST PUSH1 0x40 MLOAD PUSH3 0x461BCD PUSH1 0xE5 SHL DUP2 MSTORE PUSH1 0x20 PUSH1 0x4 DUP3 ADD MSTORE PUSH1 0x13 PUSH1 0x24 DUP3 ADD MSTORE PUSH19 0x10D21053D4CE8811985C9B481B9BDD081CD95D PUSH1 0x6A SHL PUSH1 0x44 DUP3 ADD MSTORE PUSH1 0x64 SWAP1 REVERT JUMPDEST PUSH8 0xFFFFFFFFFFFFFFFF DUP2 GT PUSH2 0xA97 JUMPI PUSH1 0x40 MSTORE JUMP JUMPDEST PUSH4 0x4E487B71 PUSH1 0xE0 SHL PUSH1 0x0 MSTORE PUSH1 0x41 PUSH1 0x4 MSTORE PUSH1 0x24 PUSH1 0x0 REVERT JUMPDEST SWAP1 PUSH1 0x1F DUP1 NOT SWAP2 ADD AND DUP2 ADD SWAP1 DUP2 LT PUSH8 0xFFFFFFFFFFFFFFFF DUP3 GT OR PUSH2 0xA97 JUMPI PUSH1 0x40 MSTORE JUMP JUMPDEST SWAP2 SWAP1 DUP3 ADD DUP1 SWAP3 GT PUSH2 0xADC JUMPI JUMP JUMPDEST PUSH4 0x4E487B71 PUSH1 0xE0 SHL PUSH1 0x0 MSTORE PUSH1 0x11 PUSH1 0x4 MSTORE PUSH1 0x24 PUSH1 0x0 REVERT JUMPDEST PUSH1 0x1 PUSH1 0x1 PUSH1 0xA0 SHL SUB SWAP1 DUP2 AND SWAP2 DUP3 ISZERO PUSH2 0xC0D JUMPI AND SWAP2 DUP3 ISZERO PUSH2 0xBBC JUMPI PUSH1 0x0 DUP3 DUP2 MSTORE DUP1 PUSH1 0x20 MSTORE PUSH1 0x40 DUP2 KECCAK256 SLOAD SWAP2 DUP1 DUP4 LT PUSH2 0xB68 JUMPI PUSH1 0x40 DUP3 DUP3 PUSH32 0xDDF252AD1BE2C89B69C2B068FC378DAA952BA7F163C4A11628F55A4DF523B3EF SWAP6 DUP8 PUSH1 0x20 SWAP7 MSTORE DUP3 DUP7 MSTORE SUB DUP3 DUP3 KECCAK256 SSTORE DUP7 DUP2 MSTORE KECCAK256 DUP2 DUP2 SLOAD ADD SWAP1 SSTORE PUSH1 0x40 MLOAD SWAP1 DUP2 MSTORE LOG3 JUMP JUMPDEST PUSH1 0x40 MLOAD PUSH3 0x461BCD PUSH1 0xE5 SHL DUP2 MSTORE PUSH1 0x20 PUSH1 0x4 DUP3 ADD MSTORE PUSH1 0x26 PUSH1 0x24 DUP3 ADD MSTORE PUSH32 0x45524332303A207472616E7366657220616D6F756E7420657863656564732062 PUSH1 0x44 DUP3 ADD MSTORE PUSH6 0x616C616E6365 PUSH1 0xD0 SHL PUSH1 0x64 DUP3 ADD MSTORE PUSH1 0x84 SWAP1 REVERT JUMPDEST PUSH1 0x40 MLOAD PUSH3 0x461BCD PUSH1 0xE5 SHL DUP2 MSTORE PUSH1 0x20 PUSH1 0x4 DUP3 ADD MSTORE PUSH1 0x23 PUSH1 0x24 DUP3 ADD MSTORE PUSH32 0x45524332303A207472616E7366657220746F20746865207A65726F2061646472 PUSH1 0x44 DUP3 ADD MSTORE PUSH3 0x657373 PUSH1 0xE8 SHL PUSH1 0x64 DUP3 ADD MSTORE PUSH1 0x84 SWAP1 REVERT JUMPDEST PUSH1 0x40 MLOAD PUSH3 0x461BCD PUSH1 0xE5 SHL DUP2 MSTORE PUSH1 0x20 PUSH1 0x4 DUP3 ADD MSTORE PUSH1 0x25 PUSH1 0x24 DUP3 ADD MSTORE PUSH32 0x45524332303A207472616E736665722066726F6D20746865207A65726F206164 PUSH1 0x44 DUP3 ADD MSTORE PUSH5 0x6472657373 PUSH1 0xD8 SHL PUSH1 0x64 DUP3 ADD MSTORE PUSH1 0x84 SWAP1 REVERT JUMPDEST PUSH1 0x1 PUSH1 0x1 PUSH1 0xA0 SHL SUB AND SWAP1 DUP2 ISZERO PUSH2 0xCBE JUMPI PUSH32 0xDDF252AD1BE2C89B69C2B068FC378DAA952BA7F163C4A11628F55A4DF523B3EF PUSH1 0x20 DUP3 PUSH2 0xCA2 PUSH1 0x0 SWAP5 PUSH1 0x2 SLOAD PUSH2 0xACF JUMP JUMPDEST PUSH1 0x2 SSTORE DUP5 DUP5 MSTORE DUP4 DUP3 MSTORE PUSH1 0x40 DUP5 KECCAK256 DUP2 DUP2 SLOAD ADD SWAP1 SSTORE PUSH1 0x40 MLOAD SWAP1 DUP2 MSTORE LOG3 JUMP JUMPDEST PUSH1 0x40 MLOAD PUSH3 0x461BCD PUSH1 0xE5 SHL DUP2 MSTORE PUSH1 0x20 PUSH1 0x4 DUP3 ADD MSTORE PUSH1 0x1F PUSH1 0x24 DUP3 ADD MSTORE PUSH32 0x45524332303A206D696E7420746F20746865207A65726F206164647265737300 PUSH1 0x44 DUP3 ADD MSTORE PUSH1 0x64 SWAP1 REVERT JUMPDEST PUSH1 0x1 PUSH1 0x1 PUSH1 0xA0 SHL SUB SWAP1 DUP2 AND SWAP2 DUP3 ISZERO PUSH2 0xDB4 JUMPI AND SWAP2 DUP3 ISZERO PUSH2 0xD64 JUMPI PUSH1 0x20 PUSH32 0x8C5BE1E5EBEC7D5BD14F71427D1E84F3DD0314C0F7B2291E5B200AC8C7C3B925 SWAP2 DUP4 PUSH1 0x0 MSTORE PUSH1 0x1 DUP3 MSTORE PUSH1 0x40 PUSH1 0x0 KECCAK256 DUP6 PUSH1 0x0 MSTORE DUP3 MSTORE DUP1 PUSH1 0x40 PUSH1 0x0 KECCAK256 SSTORE PUSH1 0x40 MLOAD SWAP1 DUP2 MSTORE LOG3 JUMP JUMPDEST PUSH1 0x40 MLOAD PUSH3 0x461BCD PUSH1 0xE5 SHL DUP2 MSTORE PUSH1 0x20 PUSH1 0x4 DUP3 ADD MSTORE PUSH1 0x22 PUSH1 0x24 DUP3 ADD MSTORE PUSH32 0x45524332303A20617070726F766520746F20746865207A65726F206164647265 PUSH1 0x44 DUP3 ADD MSTORE PUSH2 0x7373 PUSH1 0xF0 SHL PUSH1 0x64 DUP3 ADD MSTORE PUSH1 0x84 SWAP1 REVERT JUMPDEST PUSH1 0x40 MLOAD PUSH3 0x461BCD PUSH1 0xE5 SHL DUP2 MSTORE PUSH1 0x20 PUSH1 0x4 DUP3 ADD MSTORE PUSH1 0x24 DUP1 DUP3 ADD MSTORE PUSH32 0x45524332303A20617070726F76652066726F6D20746865207A65726F20616464 PUSH1 0x44 DUP3 ADD MSTORE PUSH4 0x72657373 PUSH1 0xE0 SHL PUSH1 0x64 DUP3 ADD MSTORE PUSH1 0x84 SWAP1 REVERT INVALID LOG2 PUSH5 0x6970667358 0x22 SLT KECCAK256 PUSH28 0x323411595A79C29D87AEF3C7B244D83781C6BA084B77549E59B6FF69 DUP4 SWAP14 PUSH1 0x64 PUSH20 0x6F6C634300081300330000000000000000000000 "
        },
        "methodIdentifiers": {
          "allowance(address,address)": "dd62ed3e",
          "approve(address,uint256)": "095ea7b3",
          "approveAndCall(address,uint256,bytes)": "cae9ca51",
          "balanceOf(address)": "70a08231",
          "collectEmissions(uint256)": "662c4b3b",
          "decimals()": "313ce567",
          "decreaseAllowance(address,uint256)": "a457c2d7",
          "increaseAllowance(address,uint256)": "39509351",
          "mint(uint256)": "a0712d68",
          "mintToFarm(uint256)": "5f316876",
          "name()": "06fdde03",
          "owner()": "8da5cb5b",
          "renounceOwnership()": "715018a6",
          "setFarm(address)": "d4f26c51",
          "symbol()": "95d89b41",
          "totalSupply()": "18160ddd",
          "transfer(address,uint256)": "a9059cbb",
          "transferFrom(address,address,uint256)": "23b872dd",
          "transferOwnership(address)": "f2fde38b"
        }
      }
    }
  }
}