{
  "contracts/core/Migration.sol": {
    "Migration": {
      "abi": [
        {
          "inputs": [
            {
              "internalType": "address",
              "name": "_nfpm",
              "type": "address"
            },
            {
              "internalType": "address",
              "name": "_swapRouter",
              "type": "address"
            },
            {
              "internalType": "address",
              "name": "_arrakisV2",
              "type": "address"
            },
            {
              "internalType": "address",
              "name": "_resolverV2",
              "type": "address"
            },
            {
              "internalType": "address",
              "name": "_tokenToMigrate",
              "type": "address"
            },
            {
              "internalType": "address",
              "name": "_usdc",
              "type": "address"
            },
            {
              "internalType": "uint24",
              "name": "_feeTier",
              "type": "uint24"
            }
          ],
          "stateMutability": "nonpayable",
          "type": "constructor"
        },
        {
          "inputs": [],
          "name": "arrakisV2",
          "outputs": [
            {
              "internalType": "contract IArrakisV2",
              "name": "",
              "type": "address"
            }
          ],
          "stateMutability": "view",
          "type": "function"
        },
        {
          "inputs": [],
          "name": "feeTier",
          "outputs": [
            {
              "internalType": "uint24",
              "name": "",
              "type": "uint24"
            }
          ],
          "stateMutability": "view",
          "type": "function"
        },
        {
          "inputs": [],
          "name": "nfpm",
          "outputs": [
            {
              "internalType": "contract INonfungiblePositionManager",
              "name": "",
              "type": "address"
            }
          ],
          "stateMutability": "view",
          "type": "function"
        },
        {
          "inputs": [
            {
              "internalType": "address",
              "name": "operator",
              "type": "address"
            },
            {
              "internalType": "address",
              "name": "from",
              "type": "address"
            },
            {
              "internalType": "uint256",
              "name": "tokenId",
              "type": "uint256"
            },
            {
              "internalType": "bytes",
              "name": "data",
              "type": "bytes"
            }
          ],
          "name": "onERC721Received",
          "outputs": [
            {
              "internalType": "bytes4",
              "name": "",
              "type": "bytes4"
            }
          ],
          "stateMutability": "nonpayable",
          "type": "function"
        },
        {
          "inputs": [],
          "name": "resolverV2",
          "outputs": [
            {
              "internalType": "contract IArrakisV2Resolver",
              "name": "",
              "type": "address"
            }
          ],
          "stateMutability": "view",
          "type": "function"
        },
        {
          "inputs": [],
          "name": "swapRouter",
          "outputs": [
            {
              "internalType": "contract ISwapRouter02",
              "name": "",
              "type": "address"
            }
          ],
          "stateMutability": "view",
          "type": "function"
        },
        {
          "inputs": [],
          "name": "tokenToMigrate",
          "outputs": [
            {
              "internalType": "address",
              "name": "",
              "type": "address"
            }
          ],
          "stateMutability": "view",
          "type": "function"
        },
        {
          "inputs": [],
          "name": "usdc",
          "outputs": [
            {
              "internalType": "address",
              "name": "",
              "type": "address"
            }
          ],
          "stateMutability": "view",
          "type": "function"
        }
      ],
      "evm": {
        "bytecode": {
          "linkReferences": {},
          "object": "61016034620002e057601f620015df38819003918201601f191683019291906001600160401b03841183851017620002e5578160e09284926040968752833981010312620002e0576200005281620002fb565b9160209062000063828401620002fb565b9362000071828501620002fb565b946200008060608601620002fb565b906200008f60808701620002fb565b9660c0620000a060a08901620002fb565b9701519562ffffff87168703620002e0576001600160a01b03948516928315620002b65785169182156200028c578516938415620002635785169485156200023957808a16156200020f57881615620001e4575060e05260805260c05260a05261010093845261012092835261014091825251916112ce938462000311853960805184818160d7015281816102f201528181610389015281816104640152610526015260a0518481816101e601526107cd015260c05184818161015c0152610789015260e051848181608d015281816105a4015261073301525183818161022b0152818161033c01528181610820015281816108480152818161099401528181610a5101528181610c710152610df40152518281816101a1015281816106450152818161087b015281816108ab015261094e01525181818161012201526106700152f35b60649086519062461bcd60e51b825260048201526005602482015264495553444360d81b6044820152fd5b865162461bcd60e51b815260048101839052600360248201526249544d60e81b6044820152606490fd5b865162461bcd60e51b815260048101839052600360248201526224a0a960e91b6044820152606490fd5b865162461bcd60e51b8152600481018390526002602482015261494160f01b6044820152606490fd5b865162461bcd60e51b815260048101839052600360248201526224a9a960e91b6044820152606490fd5b865162461bcd60e51b81526004808201849052602482015263494e504d60e01b6044820152606490fd5b600080fd5b634e487b7160e01b600052604160045260246000fd5b51906001600160a01b0382168203620002e05756fe608080604052600436101561001357600080fd5b60003560e01c908163150b7a021461025a57508063278f47b4146102155780632c2bf44e146101d05780633e413bee1461018b57806359414fd61461014657806372f5d98a146101065780637303e913146100c15763c31c9c071461007757600080fd5b346100bc5760003660031901126100bc576040517f00000000000000000000000000000000000000000000000000000000000000006001600160a01b03168152602090f35b600080fd5b346100bc5760003660031901126100bc576040517f00000000000000000000000000000000000000000000000000000000000000006001600160a01b03168152602090f35b346100bc5760003660031901126100bc57602060405162ffffff7f0000000000000000000000000000000000000000000000000000000000000000168152f35b346100bc5760003660031901126100bc576040517f00000000000000000000000000000000000000000000000000000000000000006001600160a01b03168152602090f35b346100bc5760003660031901126100bc576040517f00000000000000000000000000000000000000000000000000000000000000006001600160a01b03168152602090f35b346100bc5760003660031901126100bc576040517f00000000000000000000000000000000000000000000000000000000000000006001600160a01b03168152602090f35b346100bc5760003660031901126100bc576040517f00000000000000000000000000000000000000000000000000000000000000006001600160a01b03168152602090f35b346100bc5760803660031901126100bc576004356001600160a01b038116036100bc576024356001600160a01b03811690036100bc576001600160401b03606435116100bc573660236064350112156100bc576001600160401b0360643560040135116100bc57366024606435600401356064350101116100bc5763133f757160e31b815260443560048201526101809081816024817f00000000000000000000000000000000000000000000000000000000000000006001600160a01b03165afa9182156109fb57600091600093610c99575b506001600160a01b038281167f00000000000000000000000000000000000000000000000000000000000000009091161490818015610c63575b15610c385760405163133f757160e31b8152604435600482015281816024817f00000000000000000000000000000000000000000000000000000000000000006001600160a01b03165afa9182156109fb57600092610bff575b50506001600160801b03811615610bd457604051908160a08101106001600160401b0360a084011117610ac55760a0820160409081526044803584526001600160801b039283166020850190815260008386018181526060870182815242608089019081528651630624e65f60e11b8152985160048a0152935190961660248801525192860192909252925160648501529151608484015290829060a49082907f00000000000000000000000000000000000000000000000000000000000000006001600160a01b03165af180156109fb57610bb6575b50604051918260808101106001600160401b03608085011117610ac55760808301604090815260448035855230602086019081526001600160801b0383870181815260608801828152855163fc6f786560e01b8152985160048a015292516001600160a01b0390811660248a015290518216938801939093529051166064860152849060849082906000907f0000000000000000000000000000000000000000000000000000000000000000165af19081156109fb578490600094600093610b8a575b5084610569928492610de4565b9094906004606435013515610b345760206064356004810135810103126100bc5760405163095ea7b360e01b60208201526001600160a01b037f00000000000000000000000000000000000000000000000000000000000000001660248083019190915260448083018490528252606480359091013592916000918291906105f19082610cc7565b602081519101828b5af1610603611009565b81610b05575b5015610adb57604051968760e08101106001600160401b0360e08a011117610ac55760e0880160405260018060a01b0316875260018060a01b037f000000000000000000000000000000000000000000000000000000000000000016602088015262ffffff7f0000000000000000000000000000000000000000000000000000000000000000166040880152306060880152608087015260a0860152600060c0860152604051946304e45aaf60e01b865260018060a01b03815116600487015260018060a01b03602082015116602487015262ffffff604082015116604487015260018060a01b0360608201511660648701526080810151608487015260a081015160a487015260c060018060a01b039101511660c486015260208560e481600060018060a01b037f0000000000000000000000000000000000000000000000000000000000000000165af19485156109fb57600095610a91575b5060009215610a4a57505050905b60405163fa111ce760e01b81526001600160a01b037f000000000000000000000000000000000000000000000000000000000000000081166004830181905260248301859052604483018490529190606090829060649082907f0000000000000000000000000000000000000000000000000000000000000000165afa9081156109fb5760008091600093610a07575b506040926108d8859361087560449461084560009960018060a01b037f00000000000000000000000000000000000000000000000000000000000000001661111c565b867f00000000000000000000000000000000000000000000000000000000000000006001600160a01b031661116d565b6108a8857f00000000000000000000000000000000000000000000000000000000000000006001600160a01b031661111c565b847f00000000000000000000000000000000000000000000000000000000000000006001600160a01b031661116d565b83516394bf804d60e01b81526004810191909152602480356001600160a01b0316908201529384928391905af19283156109fb576000916000946109c8575b50808210610982575b505080821061093c575b604051630a85bd0160e11b8152602090f35b61097b9161094991610e8d565b6024357f00000000000000000000000000000000000000000000000000000000000000006001600160a01b0316610eb0565b808061092a565b6109c19161098f91610e8d565b6024357f00000000000000000000000000000000000000000000000000000000000000006001600160a01b0316610eb0565b8280610920565b9093506109ed915060403d6040116109f4575b6109e58183610cc7565b810190610dce565b9284610917565b503d6109db565b6040513d6000823e3d90fd5b925050506060813d606011610a42575b81610a2460609383610cc7565b810103126100bc578051602082015160409092015191906044610802565b3d9150610a17565b91939250907f00000000000000000000000000000000000000000000000000000000000000006001600160a01b03908116911614610a89575b50610772565b915082610a83565b9094506020813d602011610abd575b81610aad60209383610cc7565b810103126100bc57519385610764565b3d9150610aa0565b634e487b7160e01b600052604160045260246000fd5b60405162461bcd60e51b8152602060048201526002602482015261534160f01b6044820152606490fd5b8051801592508215610b1a575b505088610609565b610b2d9250602080918301019101610efa565b8880610b12565b60405162461bcd60e51b815260206004820152602860248201527f4461746120697320726571756972656420666f7220736c69707061676520707260448201526737ba32b1ba34b7b760c11b6064820152608490fd5b610baa91955061056992935060403d6040116109f4576109e58183610cc7565b9490809593925061055c565b610bce9060403d6040116109f4576109e58183610cc7565b50610499565b60405162461bcd60e51b815260206004820152600360248201526204e4c560ec1b6044820152606490fd5b610c1e9250803d10610c31575b610c168183610cc7565b810190610d1e565b50505050965050505050505084806103c2565b503d610c0c565b606460405162461bcd60e51b81526020600482015260046024820152631253919560e21b6044820152fd5b506001600160a01b038481167f000000000000000000000000000000000000000000000000000000000000000090911614610368565b90809350610cb392503d8411610c3157610c168183610cc7565b50505050505050509250905090918361032e565b90601f801991011681019081106001600160401b03821117610ac557604052565b51906001600160a01b03821682036100bc57565b51908160020b82036100bc57565b51906001600160801b03821682036100bc57565b9190826101809103126100bc5781516bffffffffffffffffffffffff811681036100bc5791610d4f60208201610ce8565b91610d5c60408301610ce8565b91610d6960608201610ce8565b91608082015162ffffff811681036100bc5791610d8860a08201610cfc565b91610d9560c08301610cfc565b91610da260e08201610d0a565b916101008201519161012081015191610dcb610160610dc46101408501610d0a565b9301610d0a565b90565b91908260409103126100bc576020825192015190565b9293929091906001600160a01b037f00000000000000000000000000000000000000000000000000000000000000008116908083168203610e2757505050509190565b9193909295501614600014610e3a579190565b60405162461bcd60e51b815260206004820152602560248201527f4e6f206d61746368696e6720746f6b656e20666f756e6420666f72206d69677260448201526430ba34b7b760d91b6064820152608490fd5b91908203918211610e9a57565b634e487b7160e01b600052601160045260246000fd5b60405163a9059cbb60e01b60208201526001600160a01b0390921660248301526044820192909252610ef891610ef382606481015b03601f198101845283610cc7565b610f12565b565b908160209103126100bc575180151581036100bc5790565b60408051908101916001600160a01b03166001600160401b03831182841017610ac557610f81926040526000806020958685527f5361666545524332303a206c6f772d6c6576656c2063616c6c206661696c656487860152868151910182855af1610f7b611009565b91611048565b805190828215928315610ff1575b50505015610f9a5750565b6084906040519062461bcd60e51b82526004820152602a60248201527f5361666545524332303a204552433230206f7065726174696f6e20646964206e6044820152691bdd081cdd58d8d9595960b21b6064820152fd5b6110019350820181019101610efa565b388281610f8f565b3d15611043573d906001600160401b038211610ac55760405191611037601f8201601f191660200184610cc7565b82523d6000602084013e565b606090565b919290156110aa575081511561105c575090565b3b156110655790565b60405162461bcd60e51b815260206004820152601d60248201527f416464726573733a2063616c6c20746f206e6f6e2d636f6e74726163740000006044820152606490fd5b8251909150156110bd5750805190602001fd5b6040519062461bcd60e51b82528160208060048301528251908160248401526000935b828510611103575050604492506000838284010152601f80199101168101030190fd5b84810182015186860160440152938101938593506110e0565b60405163095ea7b360e01b60208201526001600160a01b039092166024830152600060448084019190915282526080820191906001600160401b03831182841017610ac557610ef892604052610f12565b9190918115801561121c575b156111b85760405163095ea7b360e01b60208201526001600160a01b0390931660248401526044830191909152610ef89190610ef38260648101610ee5565b60405162461bcd60e51b815260206004820152603660248201527f5361666545524332303a20617070726f76652066726f6d206e6f6e2d7a65726f60448201527520746f206e6f6e2d7a65726f20616c6c6f77616e636560501b6064820152608490fd5b50604051636eb1769f60e11b81523060048201526001600160a01b0384811660248301526020908290604490829086165afa9081156109fb57600091611264575b5015611179565b906020823d8211611290575b8161127d60209383610cc7565b8101031261128d5750513861125d565b80fd5b3d915061127056fea26469706673582212208a390f0bd3520c56cc12161c4a6ab69a428643dd7fb6b17548bfd9ba3cdb967564736f6c63430008130033",
          "opcodes": "PUSH2 0x160 CALLVALUE PUSH3 0x2E0 JUMPI PUSH1 0x1F PUSH3 0x15DF CODESIZE DUP2 SWAP1 SUB SWAP2 DUP3 ADD PUSH1 0x1F NOT AND DUP4 ADD SWAP3 SWAP2 SWAP1 PUSH1 0x1 PUSH1 0x1 PUSH1 0x40 SHL SUB DUP5 GT DUP4 DUP6 LT OR PUSH3 0x2E5 JUMPI DUP2 PUSH1 0xE0 SWAP3 DUP5 SWAP3 PUSH1 0x40 SWAP7 DUP8 MSTORE DUP4 CODECOPY DUP2 ADD SUB SLT PUSH3 0x2E0 JUMPI PUSH3 0x52 DUP2 PUSH3 0x2FB JUMP JUMPDEST SWAP2 PUSH1 0x20 SWAP1 PUSH3 0x63 DUP3 DUP5 ADD PUSH3 0x2FB JUMP JUMPDEST SWAP4 PUSH3 0x71 DUP3 DUP6 ADD PUSH3 0x2FB JUMP JUMPDEST SWAP5 PUSH3 0x80 PUSH1 0x60 DUP7 ADD PUSH3 0x2FB JUMP JUMPDEST SWAP1 PUSH3 0x8F PUSH1 0x80 DUP8 ADD PUSH3 0x2FB JUMP JUMPDEST SWAP7 PUSH1 0xC0 PUSH3 0xA0 PUSH1 0xA0 DUP10 ADD PUSH3 0x2FB JUMP JUMPDEST SWAP8 ADD MLOAD SWAP6 PUSH3 0xFFFFFF DUP8 AND DUP8 SUB PUSH3 0x2E0 JUMPI PUSH1 0x1 PUSH1 0x1 PUSH1 0xA0 SHL SUB SWAP5 DUP6 AND SWAP3 DUP4 ISZERO PUSH3 0x2B6 JUMPI DUP6 AND SWAP2 DUP3 ISZERO PUSH3 0x28C JUMPI DUP6 AND SWAP4 DUP5 ISZERO PUSH3 0x263 JUMPI DUP6 AND SWAP5 DUP6 ISZERO PUSH3 0x239 JUMPI DUP1 DUP11 AND ISZERO PUSH3 0x20F JUMPI DUP9 AND ISZERO PUSH3 0x1E4 JUMPI POP PUSH1 0xE0 MSTORE PUSH1 0x80 MSTORE PUSH1 0xC0 MSTORE PUSH1 0xA0 MSTORE PUSH2 0x100 SWAP4 DUP5 MSTORE PUSH2 0x120 SWAP3 DUP4 MSTORE PUSH2 0x140 SWAP2 DUP3 MSTORE MLOAD SWAP2 PUSH2 0x12CE SWAP4 DUP5 PUSH3 0x311 DUP6 CODECOPY PUSH1 0x80 MLOAD DUP5 DUP2 DUP2 PUSH1 0xD7 ADD MSTORE DUP2 DUP2 PUSH2 0x2F2 ADD MSTORE DUP2 DUP2 PUSH2 0x389 ADD MSTORE DUP2 DUP2 PUSH2 0x464 ADD MSTORE PUSH2 0x526 ADD MSTORE PUSH1 0xA0 MLOAD DUP5 DUP2 DUP2 PUSH2 0x1E6 ADD MSTORE PUSH2 0x7CD ADD MSTORE PUSH1 0xC0 MLOAD DUP5 DUP2 DUP2 PUSH2 0x15C ADD MSTORE PUSH2 0x789 ADD MSTORE PUSH1 0xE0 MLOAD DUP5 DUP2 DUP2 PUSH1 0x8D ADD MSTORE DUP2 DUP2 PUSH2 0x5A4 ADD MSTORE PUSH2 0x733 ADD MSTORE MLOAD DUP4 DUP2 DUP2 PUSH2 0x22B ADD MSTORE DUP2 DUP2 PUSH2 0x33C ADD MSTORE DUP2 DUP2 PUSH2 0x820 ADD MSTORE DUP2 DUP2 PUSH2 0x848 ADD MSTORE DUP2 DUP2 PUSH2 0x994 ADD MSTORE DUP2 DUP2 PUSH2 0xA51 ADD MSTORE DUP2 DUP2 PUSH2 0xC71 ADD MSTORE PUSH2 0xDF4 ADD MSTORE MLOAD DUP3 DUP2 DUP2 PUSH2 0x1A1 ADD MSTORE DUP2 DUP2 PUSH2 0x645 ADD MSTORE DUP2 DUP2 PUSH2 0x87B ADD MSTORE DUP2 DUP2 PUSH2 0x8AB ADD MSTORE PUSH2 0x94E ADD MSTORE MLOAD DUP2 DUP2 DUP2 PUSH2 0x122 ADD MSTORE PUSH2 0x670 ADD MSTORE RETURN JUMPDEST PUSH1 0x64 SWAP1 DUP7 MLOAD SWAP1 PUSH3 0x461BCD PUSH1 0xE5 SHL DUP3 MSTORE PUSH1 0x4 DUP3 ADD MSTORE PUSH1 0x5 PUSH1 0x24 DUP3 ADD MSTORE PUSH5 0x4955534443 PUSH1 0xD8 SHL PUSH1 0x44 DUP3 ADD MSTORE REVERT JUMPDEST DUP7 MLOAD PUSH3 0x461BCD PUSH1 0xE5 SHL DUP2 MSTORE PUSH1 0x4 DUP2 ADD DUP4 SWAP1 MSTORE PUSH1 0x3 PUSH1 0x24 DUP3 ADD MSTORE PUSH3 0x49544D PUSH1 0xE8 SHL PUSH1 0x44 DUP3 ADD MSTORE PUSH1 0x64 SWAP1 REVERT JUMPDEST DUP7 MLOAD PUSH3 0x461BCD PUSH1 0xE5 SHL DUP2 MSTORE PUSH1 0x4 DUP2 ADD DUP4 SWAP1 MSTORE PUSH1 0x3 PUSH1 0x24 DUP3 ADD MSTORE PUSH3 0x24A0A9 PUSH1 0xE9 SHL PUSH1 0x44 DUP3 ADD MSTORE PUSH1 0x64 SWAP1 REVERT JUMPDEST DUP7 MLOAD PUSH3 0x461BCD PUSH1 0xE5 SHL DUP2 MSTORE PUSH1 0x4 DUP2 ADD DUP4 SWAP1 MSTORE PUSH1 0x2 PUSH1 0x24 DUP3 ADD MSTORE PUSH2 0x4941 PUSH1 0xF0 SHL PUSH1 0x44 DUP3 ADD MSTORE PUSH1 0x64 SWAP1 REVERT JUMPDEST DUP7 MLOAD PUSH3 0x461BCD PUSH1 0xE5 SHL DUP2 MSTORE PUSH1 0x4 DUP2 ADD DUP4 SWAP1 MSTORE PUSH1 0x3 PUSH1 0x24 DUP3 ADD MSTORE PUSH3 0x24A9A9 PUSH1 0xE9 SHL PUSH1 0x44 DUP3 ADD MSTORE PUSH1 0x64 SWAP1 REVERT JUMPDEST DUP7 MLOAD PUSH3 0x461BCD PUSH1 0xE5 SHL DUP2 MSTORE PUSH1 0x4 DUP1 DUP3 ADD DUP5 SWAP1 MSTORE PUSH1 0x24 DUP3 ADD MSTORE PUSH4 0x494E504D PUSH1 0xE0 SHL PUSH1 0x44 DUP3 ADD MSTORE PUSH1 0x64 SWAP1 REVERT JUMPDEST PUSH1 0x0 DUP1 REVERT JUMPDEST PUSH4 0x4E487B71 PUSH1 0xE0 SHL PUSH1 0x0 MSTORE PUSH1 0x41 PUSH1 0x4 MSTORE PUSH1 0x24 PUSH1 0x0 REVERT JUMPDEST MLOAD SWAP1 PUSH1 0x1 PUSH1 0x1 PUSH1 0xA0 SHL SUB DUP3 AND DUP3 SUB PUSH3 0x2E0 JUMPI JUMP INVALID PUSH1 0x80 DUP1 PUSH1 0x40 MSTORE PUSH1 0x4 CALLDATASIZE LT ISZERO PUSH2 0x13 JUMPI PUSH1 0x0 DUP1 REVERT JUMPDEST PUSH1 0x0 CALLDATALOAD PUSH1 0xE0 SHR SWAP1 DUP2 PUSH4 0x150B7A02 EQ PUSH2 0x25A JUMPI POP DUP1 PUSH4 0x278F47B4 EQ PUSH2 0x215 JUMPI DUP1 PUSH4 0x2C2BF44E EQ PUSH2 0x1D0 JUMPI DUP1 PUSH4 0x3E413BEE EQ PUSH2 0x18B JUMPI DUP1 PUSH4 0x59414FD6 EQ PUSH2 0x146 JUMPI DUP1 PUSH4 0x72F5D98A EQ PUSH2 0x106 JUMPI DUP1 PUSH4 0x7303E913 EQ PUSH2 0xC1 JUMPI PUSH4 0xC31C9C07 EQ PUSH2 0x77 JUMPI PUSH1 0x0 DUP1 REVERT JUMPDEST CALLVALUE PUSH2 0xBC JUMPI PUSH1 0x0 CALLDATASIZE PUSH1 0x3 NOT ADD SLT PUSH2 0xBC JUMPI PUSH1 0x40 MLOAD PUSH32 0x0 PUSH1 0x1 PUSH1 0x1 PUSH1 0xA0 SHL SUB AND DUP2 MSTORE PUSH1 0x20 SWAP1 RETURN JUMPDEST PUSH1 0x0 DUP1 REVERT JUMPDEST CALLVALUE PUSH2 0xBC JUMPI PUSH1 0x0 CALLDATASIZE PUSH1 0x3 NOT ADD SLT PUSH2 0xBC JUMPI PUSH1 0x40 MLOAD PUSH32 0x0 PUSH1 0x1 PUSH1 0x1 PUSH1 0xA0 SHL SUB AND DUP2 MSTORE PUSH1 0x20 SWAP1 RETURN JUMPDEST CALLVALUE PUSH2 0xBC JUMPI PUSH1 0x0 CALLDATASIZE PUSH1 0x3 NOT ADD SLT PUSH2 0xBC JUMPI PUSH1 0x20 PUSH1 0x40 MLOAD PUSH3 0xFFFFFF PUSH32 0x0 AND DUP2 MSTORE RETURN JUMPDEST CALLVALUE PUSH2 0xBC JUMPI PUSH1 0x0 CALLDATASIZE PUSH1 0x3 NOT ADD SLT PUSH2 0xBC JUMPI PUSH1 0x40 MLOAD PUSH32 0x0 PUSH1 0x1 PUSH1 0x1 PUSH1 0xA0 SHL SUB AND DUP2 MSTORE PUSH1 0x20 SWAP1 RETURN JUMPDEST CALLVALUE PUSH2 0xBC JUMPI PUSH1 0x0 CALLDATASIZE PUSH1 0x3 NOT ADD SLT PUSH2 0xBC JUMPI PUSH1 0x40 MLOAD PUSH32 0x0 PUSH1 0x1 PUSH1 0x1 PUSH1 0xA0 SHL SUB AND DUP2 MSTORE PUSH1 0x20 SWAP1 RETURN JUMPDEST CALLVALUE PUSH2 0xBC JUMPI PUSH1 0x0 CALLDATASIZE PUSH1 0x3 NOT ADD SLT PUSH2 0xBC JUMPI PUSH1 0x40 MLOAD PUSH32 0x0 PUSH1 0x1 PUSH1 0x1 PUSH1 0xA0 SHL SUB AND DUP2 MSTORE PUSH1 0x20 SWAP1 RETURN JUMPDEST CALLVALUE PUSH2 0xBC JUMPI PUSH1 0x0 CALLDATASIZE PUSH1 0x3 NOT ADD SLT PUSH2 0xBC JUMPI PUSH1 0x40 MLOAD PUSH32 0x0 PUSH1 0x1 PUSH1 0x1 PUSH1 0xA0 SHL SUB AND DUP2 MSTORE PUSH1 0x20 SWAP1 RETURN JUMPDEST CALLVALUE PUSH2 0xBC JUMPI PUSH1 0x80 CALLDATASIZE PUSH1 0x3 NOT ADD SLT PUSH2 0xBC JUMPI PUSH1 0x4 CALLDATALOAD PUSH1 0x1 PUSH1 0x1 PUSH1 0xA0 SHL SUB DUP2 AND SUB PUSH2 0xBC JUMPI PUSH1 0x24 CALLDATALOAD PUSH1 0x1 PUSH1 0x1 PUSH1 0xA0 SHL SUB DUP2 AND SWAP1 SUB PUSH2 0xBC JUMPI PUSH1 0x1 PUSH1 0x1 PUSH1 0x40 SHL SUB PUSH1 0x64 CALLDATALOAD GT PUSH2 0xBC JUMPI CALLDATASIZE PUSH1 0x23 PUSH1 0x64 CALLDATALOAD ADD SLT ISZERO PUSH2 0xBC JUMPI PUSH1 0x1 PUSH1 0x1 PUSH1 0x40 SHL SUB PUSH1 0x64 CALLDATALOAD PUSH1 0x4 ADD CALLDATALOAD GT PUSH2 0xBC JUMPI CALLDATASIZE PUSH1 0x24 PUSH1 0x64 CALLDATALOAD PUSH1 0x4 ADD CALLDATALOAD PUSH1 0x64 CALLDATALOAD ADD ADD GT PUSH2 0xBC JUMPI PUSH4 0x133F7571 PUSH1 0xE3 SHL DUP2 MSTORE PUSH1 0x44 CALLDATALOAD PUSH1 0x4 DUP3 ADD MSTORE PUSH2 0x180 SWAP1 DUP2 DUP2 PUSH1 0x24 DUP2 PUSH32 0x0 PUSH1 0x1 PUSH1 0x1 PUSH1 0xA0 SHL SUB AND GAS STATICCALL SWAP2 DUP3 ISZERO PUSH2 0x9FB JUMPI PUSH1 0x0 SWAP2 PUSH1 0x0 SWAP4 PUSH2 0xC99 JUMPI JUMPDEST POP PUSH1 0x1 PUSH1 0x1 PUSH1 0xA0 SHL SUB DUP3 DUP2 AND PUSH32 0x0 SWAP1 SWAP2 AND EQ SWAP1 DUP2 DUP1 ISZERO PUSH2 0xC63 JUMPI JUMPDEST ISZERO PUSH2 0xC38 JUMPI PUSH1 0x40 MLOAD PUSH4 0x133F7571 PUSH1 0xE3 SHL DUP2 MSTORE PUSH1 0x44 CALLDATALOAD PUSH1 0x4 DUP3 ADD MSTORE DUP2 DUP2 PUSH1 0x24 DUP2 PUSH32 0x0 PUSH1 0x1 PUSH1 0x1 PUSH1 0xA0 SHL SUB AND GAS STATICCALL SWAP2 DUP3 ISZERO PUSH2 0x9FB JUMPI PUSH1 0x0 SWAP3 PUSH2 0xBFF JUMPI JUMPDEST POP POP PUSH1 0x1 PUSH1 0x1 PUSH1 0x80 SHL SUB DUP2 AND ISZERO PUSH2 0xBD4 JUMPI PUSH1 0x40 MLOAD SWAP1 DUP2 PUSH1 0xA0 DUP2 ADD LT PUSH1 0x1 PUSH1 0x1 PUSH1 0x40 SHL SUB PUSH1 0xA0 DUP5 ADD GT OR PUSH2 0xAC5 JUMPI PUSH1 0xA0 DUP3 ADD PUSH1 0x40 SWAP1 DUP2 MSTORE PUSH1 0x44 DUP1 CALLDATALOAD DUP5 MSTORE PUSH1 0x1 PUSH1 0x1 PUSH1 0x80 SHL SUB SWAP3 DUP4 AND PUSH1 0x20 DUP6 ADD SWAP1 DUP2 MSTORE PUSH1 0x0 DUP4 DUP7 ADD DUP2 DUP2 MSTORE PUSH1 0x60 DUP8 ADD DUP3 DUP2 MSTORE TIMESTAMP PUSH1 0x80 DUP10 ADD SWAP1 DUP2 MSTORE DUP7 MLOAD PUSH4 0x624E65F PUSH1 0xE1 SHL DUP2 MSTORE SWAP9 MLOAD PUSH1 0x4 DUP11 ADD MSTORE SWAP4 MLOAD SWAP1 SWAP7 AND PUSH1 0x24 DUP9 ADD MSTORE MLOAD SWAP3 DUP7 ADD SWAP3 SWAP1 SWAP3 MSTORE SWAP3 MLOAD PUSH1 0x64 DUP6 ADD MSTORE SWAP2 MLOAD PUSH1 0x84 DUP5 ADD MSTORE SWAP1 DUP3 SWAP1 PUSH1 0xA4 SWAP1 DUP3 SWAP1 PUSH32 0x0 PUSH1 0x1 PUSH1 0x1 PUSH1 0xA0 SHL SUB AND GAS CALL DUP1 ISZERO PUSH2 0x9FB JUMPI PUSH2 0xBB6 JUMPI JUMPDEST POP PUSH1 0x40 MLOAD SWAP2 DUP3 PUSH1 0x80 DUP2 ADD LT PUSH1 0x1 PUSH1 0x1 PUSH1 0x40 SHL SUB PUSH1 0x80 DUP6 ADD GT OR PUSH2 0xAC5 JUMPI PUSH1 0x80 DUP4 ADD PUSH1 0x40 SWAP1 DUP2 MSTORE PUSH1 0x44 DUP1 CALLDATALOAD DUP6 MSTORE ADDRESS PUSH1 0x20 DUP7 ADD SWAP1 DUP2 MSTORE PUSH1 0x1 PUSH1 0x1 PUSH1 0x80 SHL SUB DUP4 DUP8 ADD DUP2 DUP2 MSTORE PUSH1 0x60 DUP9 ADD DUP3 DUP2 MSTORE DUP6 MLOAD PUSH4 0xFC6F7865 PUSH1 0xE0 SHL DUP2 MSTORE SWAP9 MLOAD PUSH1 0x4 DUP11 ADD MSTORE SWAP3 MLOAD PUSH1 0x1 PUSH1 0x1 PUSH1 0xA0 SHL SUB SWAP1 DUP2 AND PUSH1 0x24 DUP11 ADD MSTORE SWAP1 MLOAD DUP3 AND SWAP4 DUP9 ADD SWAP4 SWAP1 SWAP4 MSTORE SWAP1 MLOAD AND PUSH1 0x64 DUP7 ADD MSTORE DUP5 SWAP1 PUSH1 0x84 SWAP1 DUP3 SWAP1 PUSH1 0x0 SWAP1 PUSH32 0x0 AND GAS CALL SWAP1 DUP2 ISZERO PUSH2 0x9FB JUMPI DUP5 SWAP1 PUSH1 0x0 SWAP5 PUSH1 0x0 SWAP4 PUSH2 0xB8A JUMPI JUMPDEST POP DUP5 PUSH2 0x569 SWAP3 DUP5 SWAP3 PUSH2 0xDE4 JUMP JUMPDEST SWAP1 SWAP5 SWAP1 PUSH1 0x4 PUSH1 0x64 CALLDATALOAD ADD CALLDATALOAD ISZERO PUSH2 0xB34 JUMPI PUSH1 0x20 PUSH1 0x64 CALLDATALOAD PUSH1 0x4 DUP2 ADD CALLDATALOAD DUP2 ADD SUB SLT PUSH2 0xBC JUMPI PUSH1 0x40 MLOAD PUSH4 0x95EA7B3 PUSH1 0xE0 SHL PUSH1 0x20 DUP3 ADD MSTORE PUSH1 0x1 PUSH1 0x1 PUSH1 0xA0 SHL SUB PUSH32 0x0 AND PUSH1 0x24 DUP1 DUP4 ADD SWAP2 SWAP1 SWAP2 MSTORE PUSH1 0x44 DUP1 DUP4 ADD DUP5 SWAP1 MSTORE DUP3 MSTORE PUSH1 0x64 DUP1 CALLDATALOAD SWAP1 SWAP2 ADD CALLDATALOAD SWAP3 SWAP2 PUSH1 0x0 SWAP2 DUP3 SWAP2 SWAP1 PUSH2 0x5F1 SWAP1 DUP3 PUSH2 0xCC7 JUMP JUMPDEST PUSH1 0x20 DUP2 MLOAD SWAP2 ADD DUP3 DUP12 GAS CALL PUSH2 0x603 PUSH2 0x1009 JUMP JUMPDEST DUP2 PUSH2 0xB05 JUMPI JUMPDEST POP ISZERO PUSH2 0xADB JUMPI PUSH1 0x40 MLOAD SWAP7 DUP8 PUSH1 0xE0 DUP2 ADD LT PUSH1 0x1 PUSH1 0x1 PUSH1 0x40 SHL SUB PUSH1 0xE0 DUP11 ADD GT OR PUSH2 0xAC5 JUMPI PUSH1 0xE0 DUP9 ADD PUSH1 0x40 MSTORE PUSH1 0x1 DUP1 PUSH1 0xA0 SHL SUB AND DUP8 MSTORE PUSH1 0x1 DUP1 PUSH1 0xA0 SHL SUB PUSH32 0x0 AND PUSH1 0x20 DUP9 ADD MSTORE PUSH3 0xFFFFFF PUSH32 0x0 AND PUSH1 0x40 DUP9 ADD MSTORE ADDRESS PUSH1 0x60 DUP9 ADD MSTORE PUSH1 0x80 DUP8 ADD MSTORE PUSH1 0xA0 DUP7 ADD MSTORE PUSH1 0x0 PUSH1 0xC0 DUP7 ADD MSTORE PUSH1 0x40 MLOAD SWAP5 PUSH4 0x4E45AAF PUSH1 0xE0 SHL DUP7 MSTORE PUSH1 0x1 DUP1 PUSH1 0xA0 SHL SUB DUP2 MLOAD AND PUSH1 0x4 DUP8 ADD MSTORE PUSH1 0x1 DUP1 PUSH1 0xA0 SHL SUB PUSH1 0x20 DUP3 ADD MLOAD AND PUSH1 0x24 DUP8 ADD MSTORE PUSH3 0xFFFFFF PUSH1 0x40 DUP3 ADD MLOAD AND PUSH1 0x44 DUP8 ADD MSTORE PUSH1 0x1 DUP1 PUSH1 0xA0 SHL SUB PUSH1 0x60 DUP3 ADD MLOAD AND PUSH1 0x64 DUP8 ADD MSTORE PUSH1 0x80 DUP2 ADD MLOAD PUSH1 0x84 DUP8 ADD MSTORE PUSH1 0xA0 DUP2 ADD MLOAD PUSH1 0xA4 DUP8 ADD MSTORE PUSH1 0xC0 PUSH1 0x1 DUP1 PUSH1 0xA0 SHL SUB SWAP2 ADD MLOAD AND PUSH1 0xC4 DUP7 ADD MSTORE PUSH1 0x20 DUP6 PUSH1 0xE4 DUP2 PUSH1 0x0 PUSH1 0x1 DUP1 PUSH1 0xA0 SHL SUB PUSH32 0x0 AND GAS CALL SWAP5 DUP6 ISZERO PUSH2 0x9FB JUMPI PUSH1 0x0 SWAP6 PUSH2 0xA91 JUMPI JUMPDEST POP PUSH1 0x0 SWAP3 ISZERO PUSH2 0xA4A JUMPI POP POP POP SWAP1 JUMPDEST PUSH1 0x40 MLOAD PUSH4 0xFA111CE7 PUSH1 0xE0 SHL DUP2 MSTORE PUSH1 0x1 PUSH1 0x1 PUSH1 0xA0 SHL SUB PUSH32 0x0 DUP2 AND PUSH1 0x4 DUP4 ADD DUP2 SWAP1 MSTORE PUSH1 0x24 DUP4 ADD DUP6 SWAP1 MSTORE PUSH1 0x44 DUP4 ADD DUP5 SWAP1 MSTORE SWAP2 SWAP1 PUSH1 0x60 SWAP1 DUP3 SWAP1 PUSH1 0x64 SWAP1 DUP3 SWAP1 PUSH32 0x0 AND GAS STATICCALL SWAP1 DUP2 ISZERO PUSH2 0x9FB JUMPI PUSH1 0x0 DUP1 SWAP2 PUSH1 0x0 SWAP4 PUSH2 0xA07 JUMPI JUMPDEST POP PUSH1 0x40 SWAP3 PUSH2 0x8D8 DUP6 SWAP4 PUSH2 0x875 PUSH1 0x44 SWAP5 PUSH2 0x845 PUSH1 0x0 SWAP10 PUSH1 0x1 DUP1 PUSH1 0xA0 SHL SUB PUSH32 0x0 AND PUSH2 0x111C JUMP JUMPDEST DUP7 PUSH32 0x0 PUSH1 0x1 PUSH1 0x1 PUSH1 0xA0 SHL SUB AND PUSH2 0x116D JUMP JUMPDEST PUSH2 0x8A8 DUP6 PUSH32 0x0 PUSH1 0x1 PUSH1 0x1 PUSH1 0xA0 SHL SUB AND PUSH2 0x111C JUMP JUMPDEST DUP5 PUSH32 0x0 PUSH1 0x1 PUSH1 0x1 PUSH1 0xA0 SHL SUB AND PUSH2 0x116D JUMP JUMPDEST DUP4 MLOAD PUSH4 0x94BF804D PUSH1 0xE0 SHL DUP2 MSTORE PUSH1 0x4 DUP2 ADD SWAP2 SWAP1 SWAP2 MSTORE PUSH1 0x24 DUP1 CALLDATALOAD PUSH1 0x1 PUSH1 0x1 PUSH1 0xA0 SHL SUB AND SWAP1 DUP3 ADD MSTORE SWAP4 DUP5 SWAP3 DUP4 SWAP2 SWAP1 GAS CALL SWAP3 DUP4 ISZERO PUSH2 0x9FB JUMPI PUSH1 0x0 SWAP2 PUSH1 0x0 SWAP5 PUSH2 0x9C8 JUMPI JUMPDEST POP DUP1 DUP3 LT PUSH2 0x982 JUMPI JUMPDEST POP POP DUP1 DUP3 LT PUSH2 0x93C JUMPI JUMPDEST PUSH1 0x40 MLOAD PUSH4 0xA85BD01 PUSH1 0xE1 SHL DUP2 MSTORE PUSH1 0x20 SWAP1 RETURN JUMPDEST PUSH2 0x97B SWAP2 PUSH2 0x949 SWAP2 PUSH2 0xE8D JUMP JUMPDEST PUSH1 0x24 CALLDATALOAD PUSH32 0x0 PUSH1 0x1 PUSH1 0x1 PUSH1 0xA0 SHL SUB AND PUSH2 0xEB0 JUMP JUMPDEST DUP1 DUP1 PUSH2 0x92A JUMP JUMPDEST PUSH2 0x9C1 SWAP2 PUSH2 0x98F SWAP2 PUSH2 0xE8D JUMP JUMPDEST PUSH1 0x24 CALLDATALOAD PUSH32 0x0 PUSH1 0x1 PUSH1 0x1 PUSH1 0xA0 SHL SUB AND PUSH2 0xEB0 JUMP JUMPDEST DUP3 DUP1 PUSH2 0x920 JUMP JUMPDEST SWAP1 SWAP4 POP PUSH2 0x9ED SWAP2 POP PUSH1 0x40 RETURNDATASIZE PUSH1 0x40 GT PUSH2 0x9F4 JUMPI JUMPDEST PUSH2 0x9E5 DUP2 DUP4 PUSH2 0xCC7 JUMP JUMPDEST DUP2 ADD SWAP1 PUSH2 0xDCE JUMP JUMPDEST SWAP3 DUP5 PUSH2 0x917 JUMP JUMPDEST POP RETURNDATASIZE PUSH2 0x9DB JUMP JUMPDEST PUSH1 0x40 MLOAD RETURNDATASIZE PUSH1 0x0 DUP3 RETURNDATACOPY RETURNDATASIZE SWAP1 REVERT JUMPDEST SWAP3 POP POP POP PUSH1 0x60 DUP2 RETURNDATASIZE PUSH1 0x60 GT PUSH2 0xA42 JUMPI JUMPDEST DUP2 PUSH2 0xA24 PUSH1 0x60 SWAP4 DUP4 PUSH2 0xCC7 JUMP JUMPDEST DUP2 ADD SUB SLT PUSH2 0xBC JUMPI DUP1 MLOAD PUSH1 0x20 DUP3 ADD MLOAD PUSH1 0x40 SWAP1 SWAP3 ADD MLOAD SWAP2 SWAP1 PUSH1 0x44 PUSH2 0x802 JUMP JUMPDEST RETURNDATASIZE SWAP2 POP PUSH2 0xA17 JUMP JUMPDEST SWAP2 SWAP4 SWAP3 POP SWAP1 PUSH32 0x0 PUSH1 0x1 PUSH1 0x1 PUSH1 0xA0 SHL SUB SWAP1 DUP2 AND SWAP2 AND EQ PUSH2 0xA89 JUMPI JUMPDEST POP PUSH2 0x772 JUMP JUMPDEST SWAP2 POP DUP3 PUSH2 0xA83 JUMP JUMPDEST SWAP1 SWAP5 POP PUSH1 0x20 DUP2 RETURNDATASIZE PUSH1 0x20 GT PUSH2 0xABD JUMPI JUMPDEST DUP2 PUSH2 0xAAD PUSH1 0x20 SWAP4 DUP4 PUSH2 0xCC7 JUMP JUMPDEST DUP2 ADD SUB SLT PUSH2 0xBC JUMPI MLOAD SWAP4 DUP6 PUSH2 0x764 JUMP JUMPDEST RETURNDATASIZE SWAP2 POP PUSH2 0xAA0 JUMP JUMPDEST PUSH4 0x4E487B71 PUSH1 0xE0 SHL PUSH1 0x0 MSTORE PUSH1 0x41 PUSH1 0x4 MSTORE PUSH1 0x24 PUSH1 0x0 REVERT JUMPDEST PUSH1 0x40 MLOAD PUSH3 0x461BCD PUSH1 0xE5 SHL DUP2 MSTORE PUSH1 0x20 PUSH1 0x4 DUP3 ADD MSTORE PUSH1 0x2 PUSH1 0x24 DUP3 ADD MSTORE PUSH2 0x5341 PUSH1 0xF0 SHL PUSH1 0x44 DUP3 ADD MSTORE PUSH1 0x64 SWAP1 REVERT JUMPDEST DUP1 MLOAD DUP1 ISZERO SWAP3 POP DUP3 ISZERO PUSH2 0xB1A JUMPI JUMPDEST POP POP DUP9 PUSH2 0x609 JUMP JUMPDEST PUSH2 0xB2D SWAP3 POP PUSH1 0x20 DUP1 SWAP2 DUP4 ADD ADD SWAP2 ADD PUSH2 0xEFA JUMP JUMPDEST DUP9 DUP1 PUSH2 0xB12 JUMP JUMPDEST PUSH1 0x40 MLOAD PUSH3 0x461BCD PUSH1 0xE5 SHL DUP2 MSTORE PUSH1 0x20 PUSH1 0x4 DUP3 ADD MSTORE PUSH1 0x28 PUSH1 0x24 DUP3 ADD MSTORE PUSH32 0x4461746120697320726571756972656420666F7220736C697070616765207072 PUSH1 0x44 DUP3 ADD MSTORE PUSH8 0x37BA32B1BA34B7B7 PUSH1 0xC1 SHL PUSH1 0x64 DUP3 ADD MSTORE PUSH1 0x84 SWAP1 REVERT JUMPDEST PUSH2 0xBAA SWAP2 SWAP6 POP PUSH2 0x569 SWAP3 SWAP4 POP PUSH1 0x40 RETURNDATASIZE PUSH1 0x40 GT PUSH2 0x9F4 JUMPI PUSH2 0x9E5 DUP2 DUP4 PUSH2 0xCC7 JUMP JUMPDEST SWAP5 SWAP1 DUP1 SWAP6 SWAP4 SWAP3 POP PUSH2 0x55C JUMP JUMPDEST PUSH2 0xBCE SWAP1 PUSH1 0x40 RETURNDATASIZE PUSH1 0x40 GT PUSH2 0x9F4 JUMPI PUSH2 0x9E5 DUP2 DUP4 PUSH2 0xCC7 JUMP JUMPDEST POP PUSH2 0x499 JUMP JUMPDEST PUSH1 0x40 MLOAD PUSH3 0x461BCD PUSH1 0xE5 SHL DUP2 MSTORE PUSH1 0x20 PUSH1 0x4 DUP3 ADD MSTORE PUSH1 0x3 PUSH1 0x24 DUP3 ADD MSTORE PUSH3 0x4E4C5 PUSH1 0xEC SHL PUSH1 0x44 DUP3 ADD MSTORE PUSH1 0x64 SWAP1 REVERT JUMPDEST PUSH2 0xC1E SWAP3 POP DUP1 RETURNDATASIZE LT PUSH2 0xC31 JUMPI JUMPDEST PUSH2 0xC16 DUP2 DUP4 PUSH2 0xCC7 JUMP JUMPDEST DUP2 ADD SWAP1 PUSH2 0xD1E JUMP JUMPDEST POP POP POP POP SWAP7 POP POP POP POP POP POP POP DUP5 DUP1 PUSH2 0x3C2 JUMP JUMPDEST POP RETURNDATASIZE PUSH2 0xC0C JUMP JUMPDEST PUSH1 0x64 PUSH1 0x40 MLOAD PUSH3 0x461BCD PUSH1 0xE5 SHL DUP2 MSTORE PUSH1 0x20 PUSH1 0x4 DUP3 ADD MSTORE PUSH1 0x4 PUSH1 0x24 DUP3 ADD MSTORE PUSH4 0x12539195 PUSH1 0xE2 SHL PUSH1 0x44 DUP3 ADD MSTORE REVERT JUMPDEST POP PUSH1 0x1 PUSH1 0x1 PUSH1 0xA0 SHL SUB DUP5 DUP2 AND PUSH32 0x0 SWAP1 SWAP2 AND EQ PUSH2 0x368 JUMP JUMPDEST SWAP1 DUP1 SWAP4 POP PUSH2 0xCB3 SWAP3 POP RETURNDATASIZE DUP5 GT PUSH2 0xC31 JUMPI PUSH2 0xC16 DUP2 DUP4 PUSH2 0xCC7 JUMP JUMPDEST POP POP POP POP POP POP POP POP SWAP3 POP SWAP1 POP SWAP1 SWAP2 DUP4 PUSH2 0x32E JUMP JUMPDEST SWAP1 PUSH1 0x1F DUP1 NOT SWAP2 ADD AND DUP2 ADD SWAP1 DUP2 LT PUSH1 0x1 PUSH1 0x1 PUSH1 0x40 SHL SUB DUP3 GT OR PUSH2 0xAC5 JUMPI PUSH1 0x40 MSTORE JUMP JUMPDEST MLOAD SWAP1 PUSH1 0x1 PUSH1 0x1 PUSH1 0xA0 SHL SUB DUP3 AND DUP3 SUB PUSH2 0xBC JUMPI JUMP JUMPDEST MLOAD SWAP1 DUP2 PUSH1 0x2 SIGNEXTEND DUP3 SUB PUSH2 0xBC JUMPI JUMP JUMPDEST MLOAD SWAP1 PUSH1 0x1 PUSH1 0x1 PUSH1 0x80 SHL SUB DUP3 AND DUP3 SUB PUSH2 0xBC JUMPI JUMP JUMPDEST SWAP2 SWAP1 DUP3 PUSH2 0x180 SWAP2 SUB SLT PUSH2 0xBC JUMPI DUP2 MLOAD PUSH12 0xFFFFFFFFFFFFFFFFFFFFFFFF DUP2 AND DUP2 SUB PUSH2 0xBC JUMPI SWAP2 PUSH2 0xD4F PUSH1 0x20 DUP3 ADD PUSH2 0xCE8 JUMP JUMPDEST SWAP2 PUSH2 0xD5C PUSH1 0x40 DUP4 ADD PUSH2 0xCE8 JUMP JUMPDEST SWAP2 PUSH2 0xD69 PUSH1 0x60 DUP3 ADD PUSH2 0xCE8 JUMP JUMPDEST SWAP2 PUSH1 0x80 DUP3 ADD MLOAD PUSH3 0xFFFFFF DUP2 AND DUP2 SUB PUSH2 0xBC JUMPI SWAP2 PUSH2 0xD88 PUSH1 0xA0 DUP3 ADD PUSH2 0xCFC JUMP JUMPDEST SWAP2 PUSH2 0xD95 PUSH1 0xC0 DUP4 ADD PUSH2 0xCFC JUMP JUMPDEST SWAP2 PUSH2 0xDA2 PUSH1 0xE0 DUP3 ADD PUSH2 0xD0A JUMP JUMPDEST SWAP2 PUSH2 0x100 DUP3 ADD MLOAD SWAP2 PUSH2 0x120 DUP2 ADD MLOAD SWAP2 PUSH2 0xDCB PUSH2 0x160 PUSH2 0xDC4 PUSH2 0x140 DUP6 ADD PUSH2 0xD0A JUMP JUMPDEST SWAP4 ADD PUSH2 0xD0A JUMP JUMPDEST SWAP1 JUMP JUMPDEST SWAP2 SWAP1 DUP3 PUSH1 0x40 SWAP2 SUB SLT PUSH2 0xBC JUMPI PUSH1 0x20 DUP3 MLOAD SWAP3 ADD MLOAD SWAP1 JUMP JUMPDEST SWAP3 SWAP4 SWAP3 SWAP1 SWAP2 SWAP1 PUSH1 0x1 PUSH1 0x1 PUSH1 0xA0 SHL SUB PUSH32 0x0 DUP2 AND SWAP1 DUP1 DUP4 AND DUP3 SUB PUSH2 0xE27 JUMPI POP POP POP POP SWAP2 SWAP1 JUMP JUMPDEST SWAP2 SWAP4 SWAP1 SWAP3 SWAP6 POP AND EQ PUSH1 0x0 EQ PUSH2 0xE3A JUMPI SWAP2 SWAP1 JUMP JUMPDEST PUSH1 0x40 MLOAD PUSH3 0x461BCD PUSH1 0xE5 SHL DUP2 MSTORE PUSH1 0x20 PUSH1 0x4 DUP3 ADD MSTORE PUSH1 0x25 PUSH1 0x24 DUP3 ADD MSTORE PUSH32 0x4E6F206D61746368696E6720746F6B656E20666F756E6420666F72206D696772 PUSH1 0x44 DUP3 ADD MSTORE PUSH5 0x30BA34B7B7 PUSH1 0xD9 SHL PUSH1 0x64 DUP3 ADD MSTORE PUSH1 0x84 SWAP1 REVERT JUMPDEST SWAP2 SWAP1 DUP3 SUB SWAP2 DUP3 GT PUSH2 0xE9A JUMPI JUMP JUMPDEST PUSH4 0x4E487B71 PUSH1 0xE0 SHL PUSH1 0x0 MSTORE PUSH1 0x11 PUSH1 0x4 MSTORE PUSH1 0x24 PUSH1 0x0 REVERT JUMPDEST PUSH1 0x40 MLOAD PUSH4 0xA9059CBB PUSH1 0xE0 SHL PUSH1 0x20 DUP3 ADD MSTORE PUSH1 0x1 PUSH1 0x1 PUSH1 0xA0 SHL SUB SWAP1 SWAP3 AND PUSH1 0x24 DUP4 ADD MSTORE PUSH1 0x44 DUP3 ADD SWAP3 SWAP1 SWAP3 MSTORE PUSH2 0xEF8 SWAP2 PUSH2 0xEF3 DUP3 PUSH1 0x64 DUP2 ADD JUMPDEST SUB PUSH1 0x1F NOT DUP2 ADD DUP5 MSTORE DUP4 PUSH2 0xCC7 JUMP JUMPDEST PUSH2 0xF12 JUMP JUMPDEST JUMP JUMPDEST SWAP1 DUP2 PUSH1 0x20 SWAP2 SUB SLT PUSH2 0xBC JUMPI MLOAD DUP1 ISZERO ISZERO DUP2 SUB PUSH2 0xBC JUMPI SWAP1 JUMP JUMPDEST PUSH1 0x40 DUP1 MLOAD SWAP1 DUP2 ADD SWAP2 PUSH1 0x1 PUSH1 0x1 PUSH1 0xA0 SHL SUB AND PUSH1 0x1 PUSH1 0x1 PUSH1 0x40 SHL SUB DUP4 GT DUP3 DUP5 LT OR PUSH2 0xAC5 JUMPI PUSH2 0xF81 SWAP3 PUSH1 0x40 MSTORE PUSH1 0x0 DUP1 PUSH1 0x20 SWAP6 DUP7 DUP6 MSTORE PUSH32 0x5361666545524332303A206C6F772D6C6576656C2063616C6C206661696C6564 DUP8 DUP7 ADD MSTORE DUP7 DUP2 MLOAD SWAP2 ADD DUP3 DUP6 GAS CALL PUSH2 0xF7B PUSH2 0x1009 JUMP JUMPDEST SWAP2 PUSH2 0x1048 JUMP JUMPDEST DUP1 MLOAD SWAP1 DUP3 DUP3 ISZERO SWAP3 DUP4 ISZERO PUSH2 0xFF1 JUMPI JUMPDEST POP POP POP ISZERO PUSH2 0xF9A JUMPI POP JUMP JUMPDEST PUSH1 0x84 SWAP1 PUSH1 0x40 MLOAD SWAP1 PUSH3 0x461BCD PUSH1 0xE5 SHL DUP3 MSTORE PUSH1 0x4 DUP3 ADD MSTORE PUSH1 0x2A PUSH1 0x24 DUP3 ADD MSTORE PUSH32 0x5361666545524332303A204552433230206F7065726174696F6E20646964206E PUSH1 0x44 DUP3 ADD MSTORE PUSH10 0x1BDD081CDD58D8D95959 PUSH1 0xB2 SHL PUSH1 0x64 DUP3 ADD MSTORE REVERT JUMPDEST PUSH2 0x1001 SWAP4 POP DUP3 ADD DUP2 ADD SWAP2 ADD PUSH2 0xEFA JUMP JUMPDEST CODESIZE DUP3 DUP2 PUSH2 0xF8F JUMP JUMPDEST RETURNDATASIZE ISZERO PUSH2 0x1043 JUMPI RETURNDATASIZE SWAP1 PUSH1 0x1 PUSH1 0x1 PUSH1 0x40 SHL SUB DUP3 GT PUSH2 0xAC5 JUMPI PUSH1 0x40 MLOAD SWAP2 PUSH2 0x1037 PUSH1 0x1F DUP3 ADD PUSH1 0x1F NOT AND PUSH1 0x20 ADD DUP5 PUSH2 0xCC7 JUMP JUMPDEST DUP3 MSTORE RETURNDATASIZE PUSH1 0x0 PUSH1 0x20 DUP5 ADD RETURNDATACOPY JUMP JUMPDEST PUSH1 0x60 SWAP1 JUMP JUMPDEST SWAP2 SWAP3 SWAP1 ISZERO PUSH2 0x10AA JUMPI POP DUP2 MLOAD ISZERO PUSH2 0x105C JUMPI POP SWAP1 JUMP JUMPDEST EXTCODESIZE ISZERO PUSH2 0x1065 JUMPI SWAP1 JUMP JUMPDEST PUSH1 0x40 MLOAD PUSH3 0x461BCD PUSH1 0xE5 SHL DUP2 MSTORE PUSH1 0x20 PUSH1 0x4 DUP3 ADD MSTORE PUSH1 0x1D PUSH1 0x24 DUP3 ADD MSTORE PUSH32 0x416464726573733A2063616C6C20746F206E6F6E2D636F6E7472616374000000 PUSH1 0x44 DUP3 ADD MSTORE PUSH1 0x64 SWAP1 REVERT JUMPDEST DUP3 MLOAD SWAP1 SWAP2 POP ISZERO PUSH2 0x10BD JUMPI POP DUP1 MLOAD SWAP1 PUSH1 0x20 ADD REVERT JUMPDEST PUSH1 0x40 MLOAD SWAP1 PUSH3 0x461BCD PUSH1 0xE5 SHL DUP3 MSTORE DUP2 PUSH1 0x20 DUP1 PUSH1 0x4 DUP4 ADD MSTORE DUP3 MLOAD SWAP1 DUP2 PUSH1 0x24 DUP5 ADD MSTORE PUSH1 0x0 SWAP4 JUMPDEST DUP3 DUP6 LT PUSH2 0x1103 JUMPI POP POP PUSH1 0x44 SWAP3 POP PUSH1 0x0 DUP4 DUP3 DUP5 ADD ADD MSTORE PUSH1 0x1F DUP1 NOT SWAP2 ADD AND DUP2 ADD SUB ADD SWAP1 REVERT JUMPDEST DUP5 DUP2 ADD DUP3 ADD MLOAD DUP7 DUP7 ADD PUSH1 0x44 ADD MSTORE SWAP4 DUP2 ADD SWAP4 DUP6 SWAP4 POP PUSH2 0x10E0 JUMP JUMPDEST PUSH1 0x40 MLOAD PUSH4 0x95EA7B3 PUSH1 0xE0 SHL PUSH1 0x20 DUP3 ADD MSTORE PUSH1 0x1 PUSH1 0x1 PUSH1 0xA0 SHL SUB SWAP1 SWAP3 AND PUSH1 0x24 DUP4 ADD MSTORE PUSH1 0x0 PUSH1 0x44 DUP1 DUP5 ADD SWAP2 SWAP1 SWAP2 MSTORE DUP3 MSTORE PUSH1 0x80 DUP3 ADD SWAP2 SWAP1 PUSH1 0x1 PUSH1 0x1 PUSH1 0x40 SHL SUB DUP4 GT DUP3 DUP5 LT OR PUSH2 0xAC5 JUMPI PUSH2 0xEF8 SWAP3 PUSH1 0x40 MSTORE PUSH2 0xF12 JUMP JUMPDEST SWAP2 SWAP1 SWAP2 DUP2 ISZERO DUP1 ISZERO PUSH2 0x121C JUMPI JUMPDEST ISZERO PUSH2 0x11B8 JUMPI PUSH1 0x40 MLOAD PUSH4 0x95EA7B3 PUSH1 0xE0 SHL PUSH1 0x20 DUP3 ADD MSTORE PUSH1 0x1 PUSH1 0x1 PUSH1 0xA0 SHL SUB SWAP1 SWAP4 AND PUSH1 0x24 DUP5 ADD MSTORE PUSH1 0x44 DUP4 ADD SWAP2 SWAP1 SWAP2 MSTORE PUSH2 0xEF8 SWAP2 SWAP1 PUSH2 0xEF3 DUP3 PUSH1 0x64 DUP2 ADD PUSH2 0xEE5 JUMP JUMPDEST PUSH1 0x40 MLOAD PUSH3 0x461BCD PUSH1 0xE5 SHL DUP2 MSTORE PUSH1 0x20 PUSH1 0x4 DUP3 ADD MSTORE PUSH1 0x36 PUSH1 0x24 DUP3 ADD MSTORE PUSH32 0x5361666545524332303A20617070726F76652066726F6D206E6F6E2D7A65726F PUSH1 0x44 DUP3 ADD MSTORE PUSH22 0x20746F206E6F6E2D7A65726F20616C6C6F77616E6365 PUSH1 0x50 SHL PUSH1 0x64 DUP3 ADD MSTORE PUSH1 0x84 SWAP1 REVERT JUMPDEST POP PUSH1 0x40 MLOAD PUSH4 0x6EB1769F PUSH1 0xE1 SHL DUP2 MSTORE ADDRESS PUSH1 0x4 DUP3 ADD MSTORE PUSH1 0x1 PUSH1 0x1 PUSH1 0xA0 SHL SUB DUP5 DUP2 AND PUSH1 0x24 DUP4 ADD MSTORE PUSH1 0x20 SWAP1 DUP3 SWAP1 PUSH1 0x44 SWAP1 DUP3 SWAP1 DUP7 AND GAS STATICCALL SWAP1 DUP2 ISZERO PUSH2 0x9FB JUMPI PUSH1 0x0 SWAP2 PUSH2 0x1264 JUMPI JUMPDEST POP ISZERO PUSH2 0x1179 JUMP JUMPDEST SWAP1 PUSH1 0x20 DUP3 RETURNDATASIZE DUP3 GT PUSH2 0x1290 JUMPI JUMPDEST DUP2 PUSH2 0x127D PUSH1 0x20 SWAP4 DUP4 PUSH2 0xCC7 JUMP JUMPDEST DUP2 ADD SUB SLT PUSH2 0x128D JUMPI POP MLOAD CODESIZE PUSH2 0x125D JUMP JUMPDEST DUP1 REVERT JUMPDEST RETURNDATASIZE SWAP2 POP PUSH2 0x1270 JUMP INVALID LOG2 PUSH5 0x6970667358 0x22 SLT KECCAK256 DUP11 CODECOPY 0xF SIGNEXTEND 0xD3 MSTORE 0xC JUMP 0xCC SLT AND SHR 0x4A PUSH11 0xB69A428643DD7FB6B17548 0xBF 0xD9 0xBA EXTCODECOPY 0xDB SWAP7 PUSH22 0x64736F6C634300081300330000000000000000000000 "
        },
        "methodIdentifiers": {
          "arrakisV2()": "59414fd6",
          "feeTier()": "72f5d98a",
          "nfpm()": "7303e913",
          "onERC721Received(address,address,uint256,bytes)": "150b7a02",
          "resolverV2()": "2c2bf44e",
          "swapRouter()": "c31c9c07",
          "tokenToMigrate()": "278f47b4",
          "usdc()": "3e413bee"
        }
      }
    }
  }
}