{
  "contracts/core/merge/MergeWithMarket.sol": {
    "MergeWithMarket": {
      "abi": [
        {
          "inputs": [
            {
              "internalType": "address",
              "name": "_wewe",
              "type": "address"
            },
            {
              "internalType": "address",
              "name": "token",
              "type": "address"
            }
          ],
          "stateMutability": "nonpayable",
          "type": "constructor"
        },
        {
          "anonymous": false,
          "inputs": [
            {
              "indexed": false,
              "internalType": "uint256",
              "name": "amount",
              "type": "uint256"
            },
            {
              "indexed": true,
              "internalType": "address",
              "name": "account",
              "type": "address"
            }
          ],
          "name": "Merged",
          "type": "event"
        },
        {
          "anonymous": false,
          "inputs": [
            {
              "indexed": true,
              "internalType": "address",
              "name": "previousOwner",
              "type": "address"
            },
            {
              "indexed": true,
              "internalType": "address",
              "name": "newOwner",
              "type": "address"
            }
          ],
          "name": "OwnershipTransferred",
          "type": "event"
        },
        {
          "anonymous": false,
          "inputs": [
            {
              "indexed": false,
              "internalType": "address",
              "name": "account",
              "type": "address"
            }
          ],
          "name": "Paused",
          "type": "event"
        },
        {
          "anonymous": false,
          "inputs": [
            {
              "indexed": false,
              "internalType": "uint256",
              "name": "newRate",
              "type": "uint256"
            }
          ],
          "name": "RateChanged",
          "type": "event"
        },
        {
          "anonymous": false,
          "inputs": [
            {
              "indexed": false,
              "internalType": "address",
              "name": "account",
              "type": "address"
            }
          ],
          "name": "Unpaused",
          "type": "event"
        },
        {
          "inputs": [
            {
              "internalType": "uint256",
              "name": "amount",
              "type": "uint256"
            }
          ],
          "name": "deposit",
          "outputs": [],
          "stateMutability": "nonpayable",
          "type": "function"
        },
        {
          "inputs": [],
          "name": "getRate",
          "outputs": [
            {
              "internalType": "uint256",
              "name": "",
              "type": "uint256"
            }
          ],
          "stateMutability": "view",
          "type": "function"
        },
        {
          "inputs": [],
          "name": "getToken",
          "outputs": [
            {
              "internalType": "address",
              "name": "",
              "type": "address"
            }
          ],
          "stateMutability": "view",
          "type": "function"
        },
        {
          "inputs": [
            {
              "internalType": "uint256",
              "name": "amount",
              "type": "uint256"
            }
          ],
          "name": "merge",
          "outputs": [],
          "stateMutability": "nonpayable",
          "type": "function"
        },
        {
          "inputs": [],
          "name": "mergeAll",
          "outputs": [],
          "stateMutability": "nonpayable",
          "type": "function"
        },
        {
          "inputs": [
            {
              "internalType": "uint256",
              "name": "amount",
              "type": "uint256"
            },
            {
              "internalType": "contract IAMM",
              "name": "amm",
              "type": "address"
            },
            {
              "internalType": "bytes",
              "name": "extraData",
              "type": "bytes"
            }
          ],
          "name": "mergeAndSell",
          "outputs": [],
          "stateMutability": "nonpayable",
          "type": "function"
        },
        {
          "inputs": [],
          "name": "owner",
          "outputs": [
            {
              "internalType": "address",
              "name": "",
              "type": "address"
            }
          ],
          "stateMutability": "view",
          "type": "function"
        },
        {
          "inputs": [],
          "name": "paused",
          "outputs": [
            {
              "internalType": "bool",
              "name": "",
              "type": "bool"
            }
          ],
          "stateMutability": "view",
          "type": "function"
        },
        {
          "inputs": [
            {
              "internalType": "address",
              "name": "from",
              "type": "address"
            },
            {
              "internalType": "uint256",
              "name": "amount",
              "type": "uint256"
            },
            {
              "internalType": "address",
              "name": "",
              "type": "address"
            },
            {
              "internalType": "bytes",
              "name": "",
              "type": "bytes"
            }
          ],
          "name": "receiveApproval",
          "outputs": [],
          "stateMutability": "nonpayable",
          "type": "function"
        },
        {
          "inputs": [],
          "name": "renounceOwnership",
          "outputs": [],
          "stateMutability": "nonpayable",
          "type": "function"
        },
        {
          "inputs": [
            {
              "internalType": "uint256",
              "name": "rate",
              "type": "uint256"
            }
          ],
          "name": "setRate",
          "outputs": [],
          "stateMutability": "nonpayable",
          "type": "function"
        },
        {
          "inputs": [],
          "name": "sweep",
          "outputs": [],
          "stateMutability": "nonpayable",
          "type": "function"
        },
        {
          "inputs": [],
          "name": "togglePause",
          "outputs": [],
          "stateMutability": "nonpayable",
          "type": "function"
        },
        {
          "inputs": [
            {
              "internalType": "address",
              "name": "newOwner",
              "type": "address"
            }
          ],
          "name": "transferOwnership",
          "outputs": [],
          "stateMutability": "nonpayable",
          "type": "function"
        },
        {
          "inputs": [],
          "name": "wewe",
          "outputs": [
            {
              "internalType": "address",
              "name": "",
              "type": "address"
            }
          ],
          "stateMutability": "view",
          "type": "function"
        }
      ],
      "evm": {
        "bytecode": {
          "linkReferences": {},
          "object": "6080346100e857601f6112d738819003918201601f19168301916001600160401b038311848410176100ed5780849260409485528339810103126100e857610052602061004b83610103565b9201610103565b6001600081815581546001600160a81b0319811633600881811b610100600160a81b03169290921790945560405195946001600160a01b03949093909290911c8416907f8be0079c531659141344cd1fd0a4f28419497f9722a3daafe3b4186f6b6457e09080a360646002558160018060a01b03199316836004541617600455169060035416176003556111bf90816101188239f35b600080fd5b634e487b7160e01b600052604160045260246000fd5b51906001600160a01b03821682036100e85756fe6080604081815260048036101561001557600080fd5b600092833560e01c908163213897fe14610c245750806321df0da714610bfb57806324a47aeb14610b1157806334fcf43714610a5e57806335faa4161461091b5780635c975abb146108f7578063679aefce146108d8578063715018a6146108745780638da5cb5b146108435780638f4ffcb11461058157838163b6b55f25146104f457508063c4ae316814610411578063e1f26f22146103ea578063ea9f2417146101a55763f2fde38b146100ca57600080fd5b346101a15760203660031901126101a1576100e3611007565b6100eb61101d565b6001600160a01b0381811693909290841561014f57505060018054610100600160a81b03198116600893841b610100600160a81b031617909155901c167f8be0079c531659141344cd1fd0a4f28419497f9722a3daafe3b4186f6b6457e08380a380f35b906020608492519162461bcd60e51b8352820152602660248201527f4f776e61626c653a206e6577206f776e657220697320746865207a65726f206160448201526564647265737360d01b6064820152fd5b8280fd5b50346101a157826003193601126101a15760035482516370a0823160e01b808252338483015290926020926001600160a01b039081168486602481845afa9586156103185788966103b7575b506101fa6110e3565b6002548087029087820414871517156103a457606490049385838554169160248a5180948193825230898301525afa90811561039a578991610369575b5084116103225784875180926323b872dd60e01b8252818b8161025e8c30338c8501611127565b03925af1801561031857918593916102989895936102fb575b508154169088855180998195829463a9059cbb60e01b8452339084016110c8565b03925af19384156102f15760008051602061116a83398151915293946102c4575b50519283523392a280f35b6102e390833d85116102ea575b6102db8183611078565b8101906110b0565b50386102b9565b503d6102d1565b81513d87823e3d90fd5b61031190853d87116102ea576102db8183611078565b5038610277565b87513d8a823e3d90fd5b865162461bcd60e51b8152808401869052602d602482015260008051602061114a83398151915260448201526c32903a37903a3930b739b332b960991b6064820152608490fd5b90508581813d8311610393575b6103808183611078565b8101031261038f575138610237565b8880fd5b503d610376565b88513d8b823e3d90fd5b634e487b7160e01b895260118452602489fd5b9095508481813d83116103e3575b6103cf8183611078565b810103126103df575194386101f1565b8780fd5b503d6103c5565b50346101a157826003193601126101a1575490516001600160a01b03909116815260209150f35b50346101a157826003193601126101a15761042a61101d565b60015460ff8116156104b357506001549060ff821615610479575060ff1916600155513381527f5db9ee0a495bf2e6ff9c91a7834c1ba4fdd244a5e8aa4e537bd38aeae4b073aa90602090a180f35b606490602084519162461bcd60e51b8352820152601460248201527314185d5cd8589b194e881b9bdd081c185d5cd95960621b6044820152fd5b602091509160017f62e78cea01bee320cd4e420270b5ea74000d11b0c9f74754ebdbfc544b05a258936104e46110e3565b60ff19161760015551338152a180f35b8084843461057d57602036600319011261057d5761054560209161051661101d565b805484516323b872dd60e01b81529586936001600160a01b039092169284928391803590309033908501611127565b03925af19081156105745750610559575080f35b6105709060203d81116102ea576102db8183611078565b5080f35b513d84823e3d90fd5b5050fd5b50346101a15760803660031901126101a15761059b611007565b602480359290916001600160a01b03916044358381160361083f5760643567ffffffffffffffff81116103df576105d59036908301610fd4565b505060028754146107fd57600287556105ec6110e3565b82600354169081156107af576106006110e3565b60025480870290878204148715171561079d5760649004918482541695885180976370a0823160e01b82523085830152818360209a8b935afa908115610793578b91610762575b50841161071d575085885180926323b872dd60e01b8252818c8161066f8d308c8b8501611127565b03925af1801561039a57916106a99893918793610700575b50848a878354169286519b8c958694859363a9059cbb60e01b855284016110c8565b03925af19586156106f65760008051602061116a83398151915295966106d9575b50519485521692a26001815580f35b6106ef90853d87116102ea576102db8183611078565b50386106ca565b81513d89823e3d90fd5b61071690843d86116102ea576102db8183611078565b5038610687565b82602d608492898c519362461bcd60e51b855284015282015260008051602061114a83398151915260448201526c32903a37903a3930b739b332b960991b6064820152fd5b90508781813d831161078c575b6107798183611078565b81010312610788575138610647565b8a80fd5b503d61076f565b8a513d8d823e3d90fd5b634e487b7160e01b8952601182528589fd5b60849060238660208a519362461bcd60e51b85528401528201527f47656e6572696345617465723a20546f6b656e2061646472657373206e6f74206044820152621cd95d60ea1b6064820152fd5b606490601f85602089519362461bcd60e51b85528401528201527f5265656e7472616e637947756172643a207265656e7472616e742063616c6c006044820152fd5b8680fd5b505034610870578160031936011261087057600154905160089190911c6001600160a01b03168152602090f35b5080fd5b83346108d557806003193601126108d55761088d61101d565b60018054610100600160a81b03198116909155819060081c6001600160a01b03167f8be0079c531659141344cd1fd0a4f28419497f9722a3daafe3b4186f6b6457e08280a380f35b80fd5b5050346108705781600319360112610870576020906002549051908152f35b50503461087057816003193601126108705760209060ff6001541690519015158152f35b5091903461087057816003193601126108705761093661101d565b825481516370a0823160e01b8152308186015293602092916001600160a01b0390811691908487602481865afa968715610a54578697610a21575b5086156109de576109a49392859287899360015460081c169186519788958694859363a9059cbb60e01b855284016110c8565b03925af19081156109d557506109b8578280f35b816109ce92903d106102ea576102db8183611078565b5081808280f35b513d85823e3d90fd5b835162461bcd60e51b8152808301869052601a60248201527f45617465723a204e6f2062616c616e636520746f2073776565700000000000006044820152606490fd5b9096508481813d8311610a4d575b610a398183611078565b81010312610a4957519538610971565b8580fd5b503d610a2f565b84513d88823e3d90fd5b5090346101a15760203660031901126101a157813591610a7c61101d565b8215610ac457508160025403610a90578280f35b816020917f595a30f13a69b616c4d568e2a2b7875fdfe86e4300a049953c76ee278f8f3f109360025551908152a138808280f35b6020608492519162461bcd60e51b8352820152602260248201527f45617465723a2052617465206d7573742062652067726561746572207468616e604482015261020360f41b6064820152fd5b50346101a157602080600319360112610bf75760035483516370a0823160e01b8082523382860152843594909290916001600160a01b03918216908581602481855afa801561039a5787918a91610bc6575b5010610b71576101fa6110e3565b865162461bcd60e51b8152808401869052602960248201527f47656e657269634d657267653a20496e73756666696369656e742062616c616e60448201526818d9481d1bc819585d60ba1b6064820152608490fd5b809250878092503d8311610bf0575b610bdf8183611078565b8101031261038f5786905138610b63565b503d610bd5565b8380fd5b50503461087057816003193601126108705760035490516001600160a01b039091168152602090f35b92905034610bf7576060366003190112610bf7576001600160a01b03916024908135848116918035918390036103df5760443567ffffffffffffffff811161038f57610c739036908301610fd4565b909680600354166370a0823160e01b90818b5233858c015260209a8b818a81855afa908d8215610fc957908892610f98575b5010610f4157610cb36110e3565b600254808702908782041487151715610f2f5760649004918b84875416918a8c51809481938252308b8301525afa908115610f25578d91610ef4575b508211610eae5788516323b872dd60e01b81528c95949392918c908290818981610d1d8d3033848f01611127565b03925af18015610ea45786928d92610d5592610e87575b5084875416908c5194858094819363a9059cbb60e01b8352338c84016110c8565b03925af18015610e6057610e6a575b50875185815260008051602061116a8339815191528b3392a2600354885163095ea7b360e01b8152908b9082908416818881610da38c8e8c84016110c8565b03925af18015610e6057928b989796959492819260a495610e43575b50600354169a8a519b8c998a98899663a2c554d360e01b885287015285015230604485015260806064850152816084850152848401378181018301849052601f01601f191681010301925af19081156109d55750610e1b578280f35b813d8311610e3c575b610e2e8183611078565b810103126108d55738808280f35b503d610e24565b610e59908b3d8d116102ea576102db8183611078565b5038610dbf565b89513d87823e3d90fd5b610e80908b3d8d116102ea576102db8183611078565b5038610d64565b610e9d90843d86116102ea576102db8183611078565b5038610d34565b8a513d88823e3d90fd5b885162461bcd60e51b81528086018c9052602d818a015260008051602061114a83398151915260448201526c32903a37903a3930b739b332b960991b6064820152608490fd5b90508b81813d8311610f1e575b610f0b8183611078565b81010312610f1a575138610cef565b8c80fd5b503d610f01565b8a513d8f823e3d90fd5b634e487b7160e01b8d5260118652888dfd5b885162461bcd60e51b81528086018c9052602c818a01527f4d65726765576974684d61726b65743a20496e73756666696369656e7420626160448201526b1b185b98d9481d1bc819585d60a21b6064820152608490fd5b8092508d8092503d8311610fc2575b610fb18183611078565b81010312610f1a5786905138610ca5565b503d610fa7565b8b51903d90823e3d90fd5b9181601f840112156110025782359167ffffffffffffffff8311611002576020838186019501011161100257565b600080fd5b600435906001600160a01b038216820361100257565b60015460081c6001600160a01b0316330361103457565b606460405162461bcd60e51b815260206004820152602060248201527f4f776e61626c653a2063616c6c6572206973206e6f7420746865206f776e65726044820152fd5b90601f8019910116810190811067ffffffffffffffff82111761109a57604052565b634e487b7160e01b600052604160045260246000fd5b90816020910312611002575180151581036110025790565b6001600160a01b039091168152602081019190915260400190565b60ff600154166110ef57565b60405162461bcd60e51b815260206004820152601060248201526f14185d5cd8589b194e881c185d5cd95960821b6044820152606490fd5b6001600160a01b0391821681529116602082015260408101919091526060019056fe45617465723a20496e73756666696369656e7420746f6b656e2062616c616e63adc41ba80ffa0859aab1d7cf405a6633a6af94fc3d10e5b0e0bf46cdcc0fd9c8a2646970667358221220ecc550b5f055519d981446bfb997c6fa7f9cf2ebc057805e125dd0a1b1cf5ad264736f6c63430008130033",
          "opcodes": "PUSH1 0x80 CALLVALUE PUSH2 0xE8 JUMPI PUSH1 0x1F PUSH2 0x12D7 CODESIZE DUP2 SWAP1 SUB SWAP2 DUP3 ADD PUSH1 0x1F NOT AND DUP4 ADD SWAP2 PUSH1 0x1 PUSH1 0x1 PUSH1 0x40 SHL SUB DUP4 GT DUP5 DUP5 LT OR PUSH2 0xED JUMPI DUP1 DUP5 SWAP3 PUSH1 0x40 SWAP5 DUP6 MSTORE DUP4 CODECOPY DUP2 ADD SUB SLT PUSH2 0xE8 JUMPI PUSH2 0x52 PUSH1 0x20 PUSH2 0x4B DUP4 PUSH2 0x103 JUMP JUMPDEST SWAP3 ADD PUSH2 0x103 JUMP JUMPDEST PUSH1 0x1 PUSH1 0x0 DUP2 DUP2 SSTORE DUP2 SLOAD PUSH1 0x1 PUSH1 0x1 PUSH1 0xA8 SHL SUB NOT DUP2 AND CALLER PUSH1 0x8 DUP2 DUP2 SHL PUSH2 0x100 PUSH1 0x1 PUSH1 0xA8 SHL SUB AND SWAP3 SWAP1 SWAP3 OR SWAP1 SWAP5 SSTORE PUSH1 0x40 MLOAD SWAP6 SWAP5 PUSH1 0x1 PUSH1 0x1 PUSH1 0xA0 SHL SUB SWAP5 SWAP1 SWAP4 SWAP1 SWAP3 SWAP1 SWAP2 SHR DUP5 AND SWAP1 PUSH32 0x8BE0079C531659141344CD1FD0A4F28419497F9722A3DAAFE3B4186F6B6457E0 SWAP1 DUP1 LOG3 PUSH1 0x64 PUSH1 0x2 SSTORE DUP2 PUSH1 0x1 DUP1 PUSH1 0xA0 SHL SUB NOT SWAP4 AND DUP4 PUSH1 0x4 SLOAD AND OR PUSH1 0x4 SSTORE AND SWAP1 PUSH1 0x3 SLOAD AND OR PUSH1 0x3 SSTORE PUSH2 0x11BF SWAP1 DUP2 PUSH2 0x118 DUP3 CODECOPY RETURN JUMPDEST PUSH1 0x0 DUP1 REVERT JUMPDEST PUSH4 0x4E487B71 PUSH1 0xE0 SHL PUSH1 0x0 MSTORE PUSH1 0x41 PUSH1 0x4 MSTORE PUSH1 0x24 PUSH1 0x0 REVERT JUMPDEST MLOAD SWAP1 PUSH1 0x1 PUSH1 0x1 PUSH1 0xA0 SHL SUB DUP3 AND DUP3 SUB PUSH2 0xE8 JUMPI JUMP INVALID PUSH1 0x80 PUSH1 0x40 DUP2 DUP2 MSTORE PUSH1 0x4 DUP1 CALLDATASIZE LT ISZERO PUSH2 0x15 JUMPI PUSH1 0x0 DUP1 REVERT JUMPDEST PUSH1 0x0 SWAP3 DUP4 CALLDATALOAD PUSH1 0xE0 SHR SWAP1 DUP2 PUSH4 0x213897FE EQ PUSH2 0xC24 JUMPI POP DUP1 PUSH4 0x21DF0DA7 EQ PUSH2 0xBFB JUMPI DUP1 PUSH4 0x24A47AEB EQ PUSH2 0xB11 JUMPI DUP1 PUSH4 0x34FCF437 EQ PUSH2 0xA5E JUMPI DUP1 PUSH4 0x35FAA416 EQ PUSH2 0x91B JUMPI DUP1 PUSH4 0x5C975ABB EQ PUSH2 0x8F7 JUMPI DUP1 PUSH4 0x679AEFCE EQ PUSH2 0x8D8 JUMPI DUP1 PUSH4 0x715018A6 EQ PUSH2 0x874 JUMPI DUP1 PUSH4 0x8DA5CB5B EQ PUSH2 0x843 JUMPI DUP1 PUSH4 0x8F4FFCB1 EQ PUSH2 0x581 JUMPI DUP4 DUP2 PUSH4 0xB6B55F25 EQ PUSH2 0x4F4 JUMPI POP DUP1 PUSH4 0xC4AE3168 EQ PUSH2 0x411 JUMPI DUP1 PUSH4 0xE1F26F22 EQ PUSH2 0x3EA JUMPI DUP1 PUSH4 0xEA9F2417 EQ PUSH2 0x1A5 JUMPI PUSH4 0xF2FDE38B EQ PUSH2 0xCA JUMPI PUSH1 0x0 DUP1 REVERT JUMPDEST CALLVALUE PUSH2 0x1A1 JUMPI PUSH1 0x20 CALLDATASIZE PUSH1 0x3 NOT ADD SLT PUSH2 0x1A1 JUMPI PUSH2 0xE3 PUSH2 0x1007 JUMP JUMPDEST PUSH2 0xEB PUSH2 0x101D JUMP JUMPDEST PUSH1 0x1 PUSH1 0x1 PUSH1 0xA0 SHL SUB DUP2 DUP2 AND SWAP4 SWAP1 SWAP3 SWAP1 DUP5 ISZERO PUSH2 0x14F JUMPI POP POP PUSH1 0x1 DUP1 SLOAD PUSH2 0x100 PUSH1 0x1 PUSH1 0xA8 SHL SUB NOT DUP2 AND PUSH1 0x8 SWAP4 DUP5 SHL PUSH2 0x100 PUSH1 0x1 PUSH1 0xA8 SHL SUB AND OR SWAP1 SWAP2 SSTORE SWAP1 SHR AND PUSH32 0x8BE0079C531659141344CD1FD0A4F28419497F9722A3DAAFE3B4186F6B6457E0 DUP4 DUP1 LOG3 DUP1 RETURN JUMPDEST SWAP1 PUSH1 0x20 PUSH1 0x84 SWAP3 MLOAD SWAP2 PUSH3 0x461BCD PUSH1 0xE5 SHL DUP4 MSTORE DUP3 ADD MSTORE PUSH1 0x26 PUSH1 0x24 DUP3 ADD MSTORE PUSH32 0x4F776E61626C653A206E6577206F776E657220697320746865207A65726F2061 PUSH1 0x44 DUP3 ADD MSTORE PUSH6 0x646472657373 PUSH1 0xD0 SHL PUSH1 0x64 DUP3 ADD MSTORE REVERT JUMPDEST DUP3 DUP1 REVERT JUMPDEST POP CALLVALUE PUSH2 0x1A1 JUMPI DUP3 PUSH1 0x3 NOT CALLDATASIZE ADD SLT PUSH2 0x1A1 JUMPI PUSH1 0x3 SLOAD DUP3 MLOAD PUSH4 0x70A08231 PUSH1 0xE0 SHL DUP1 DUP3 MSTORE CALLER DUP5 DUP4 ADD MSTORE SWAP1 SWAP3 PUSH1 0x20 SWAP3 PUSH1 0x1 PUSH1 0x1 PUSH1 0xA0 SHL SUB SWAP1 DUP2 AND DUP5 DUP7 PUSH1 0x24 DUP2 DUP5 GAS STATICCALL SWAP6 DUP7 ISZERO PUSH2 0x318 JUMPI DUP9 SWAP7 PUSH2 0x3B7 JUMPI JUMPDEST POP PUSH2 0x1FA PUSH2 0x10E3 JUMP JUMPDEST PUSH1 0x2 SLOAD DUP1 DUP8 MUL SWAP1 DUP8 DUP3 DIV EQ DUP8 ISZERO OR ISZERO PUSH2 0x3A4 JUMPI PUSH1 0x64 SWAP1 DIV SWAP4 DUP6 DUP4 DUP6 SLOAD AND SWAP2 PUSH1 0x24 DUP11 MLOAD DUP1 SWAP5 DUP2 SWAP4 DUP3 MSTORE ADDRESS DUP10 DUP4 ADD MSTORE GAS STATICCALL SWAP1 DUP2 ISZERO PUSH2 0x39A JUMPI DUP10 SWAP2 PUSH2 0x369 JUMPI JUMPDEST POP DUP5 GT PUSH2 0x322 JUMPI DUP5 DUP8 MLOAD DUP1 SWAP3 PUSH4 0x23B872DD PUSH1 0xE0 SHL DUP3 MSTORE DUP2 DUP12 DUP2 PUSH2 0x25E DUP13 ADDRESS CALLER DUP13 DUP6 ADD PUSH2 0x1127 JUMP JUMPDEST SUB SWAP3 GAS CALL DUP1 ISZERO PUSH2 0x318 JUMPI SWAP2 DUP6 SWAP4 SWAP2 PUSH2 0x298 SWAP9 SWAP6 SWAP4 PUSH2 0x2FB JUMPI JUMPDEST POP DUP2 SLOAD AND SWAP1 DUP9 DUP6 MLOAD DUP1 SWAP10 DUP2 SWAP6 DUP3 SWAP5 PUSH4 0xA9059CBB PUSH1 0xE0 SHL DUP5 MSTORE CALLER SWAP1 DUP5 ADD PUSH2 0x10C8 JUMP JUMPDEST SUB SWAP3 GAS CALL SWAP4 DUP5 ISZERO PUSH2 0x2F1 JUMPI PUSH1 0x0 DUP1 MLOAD PUSH1 0x20 PUSH2 0x116A DUP4 CODECOPY DUP2 MLOAD SWAP2 MSTORE SWAP4 SWAP5 PUSH2 0x2C4 JUMPI JUMPDEST POP MLOAD SWAP3 DUP4 MSTORE CALLER SWAP3 LOG2 DUP1 RETURN JUMPDEST PUSH2 0x2E3 SWAP1 DUP4 RETURNDATASIZE DUP6 GT PUSH2 0x2EA JUMPI JUMPDEST PUSH2 0x2DB DUP2 DUP4 PUSH2 0x1078 JUMP JUMPDEST DUP2 ADD SWAP1 PUSH2 0x10B0 JUMP JUMPDEST POP CODESIZE PUSH2 0x2B9 JUMP JUMPDEST POP RETURNDATASIZE PUSH2 0x2D1 JUMP JUMPDEST DUP2 MLOAD RETURNDATASIZE DUP8 DUP3 RETURNDATACOPY RETURNDATASIZE SWAP1 REVERT JUMPDEST PUSH2 0x311 SWAP1 DUP6 RETURNDATASIZE DUP8 GT PUSH2 0x2EA JUMPI PUSH2 0x2DB DUP2 DUP4 PUSH2 0x1078 JUMP JUMPDEST POP CODESIZE PUSH2 0x277 JUMP JUMPDEST DUP8 MLOAD RETURNDATASIZE DUP11 DUP3 RETURNDATACOPY RETURNDATASIZE SWAP1 REVERT JUMPDEST DUP7 MLOAD PUSH3 0x461BCD PUSH1 0xE5 SHL DUP2 MSTORE DUP1 DUP5 ADD DUP7 SWAP1 MSTORE PUSH1 0x2D PUSH1 0x24 DUP3 ADD MSTORE PUSH1 0x0 DUP1 MLOAD PUSH1 0x20 PUSH2 0x114A DUP4 CODECOPY DUP2 MLOAD SWAP2 MSTORE PUSH1 0x44 DUP3 ADD MSTORE PUSH13 0x32903A37903A3930B739B332B9 PUSH1 0x99 SHL PUSH1 0x64 DUP3 ADD MSTORE PUSH1 0x84 SWAP1 REVERT JUMPDEST SWAP1 POP DUP6 DUP2 DUP2 RETURNDATASIZE DUP4 GT PUSH2 0x393 JUMPI JUMPDEST PUSH2 0x380 DUP2 DUP4 PUSH2 0x1078 JUMP JUMPDEST DUP2 ADD SUB SLT PUSH2 0x38F JUMPI MLOAD CODESIZE PUSH2 0x237 JUMP JUMPDEST DUP9 DUP1 REVERT JUMPDEST POP RETURNDATASIZE PUSH2 0x376 JUMP JUMPDEST DUP9 MLOAD RETURNDATASIZE DUP12 DUP3 RETURNDATACOPY RETURNDATASIZE SWAP1 REVERT JUMPDEST PUSH4 0x4E487B71 PUSH1 0xE0 SHL DUP10 MSTORE PUSH1 0x11 DUP5 MSTORE PUSH1 0x24 DUP10 REVERT JUMPDEST SWAP1 SWAP6 POP DUP5 DUP2 DUP2 RETURNDATASIZE DUP4 GT PUSH2 0x3E3 JUMPI JUMPDEST PUSH2 0x3CF DUP2 DUP4 PUSH2 0x1078 JUMP JUMPDEST DUP2 ADD SUB SLT PUSH2 0x3DF JUMPI MLOAD SWAP5 CODESIZE PUSH2 0x1F1 JUMP JUMPDEST DUP8 DUP1 REVERT JUMPDEST POP RETURNDATASIZE PUSH2 0x3C5 JUMP JUMPDEST POP CALLVALUE PUSH2 0x1A1 JUMPI DUP3 PUSH1 0x3 NOT CALLDATASIZE ADD SLT PUSH2 0x1A1 JUMPI SLOAD SWAP1 MLOAD PUSH1 0x1 PUSH1 0x1 PUSH1 0xA0 SHL SUB SWAP1 SWAP2 AND DUP2 MSTORE PUSH1 0x20 SWAP2 POP RETURN JUMPDEST POP CALLVALUE PUSH2 0x1A1 JUMPI DUP3 PUSH1 0x3 NOT CALLDATASIZE ADD SLT PUSH2 0x1A1 JUMPI PUSH2 0x42A PUSH2 0x101D JUMP JUMPDEST PUSH1 0x1 SLOAD PUSH1 0xFF DUP2 AND ISZERO PUSH2 0x4B3 JUMPI POP PUSH1 0x1 SLOAD SWAP1 PUSH1 0xFF DUP3 AND ISZERO PUSH2 0x479 JUMPI POP PUSH1 0xFF NOT AND PUSH1 0x1 SSTORE MLOAD CALLER DUP2 MSTORE PUSH32 0x5DB9EE0A495BF2E6FF9C91A7834C1BA4FDD244A5E8AA4E537BD38AEAE4B073AA SWAP1 PUSH1 0x20 SWAP1 LOG1 DUP1 RETURN JUMPDEST PUSH1 0x64 SWAP1 PUSH1 0x20 DUP5 MLOAD SWAP2 PUSH3 0x461BCD PUSH1 0xE5 SHL DUP4 MSTORE DUP3 ADD MSTORE PUSH1 0x14 PUSH1 0x24 DUP3 ADD MSTORE PUSH20 0x14185D5CD8589B194E881B9BDD081C185D5CD959 PUSH1 0x62 SHL PUSH1 0x44 DUP3 ADD MSTORE REVERT JUMPDEST PUSH1 0x20 SWAP2 POP SWAP2 PUSH1 0x1 PUSH32 0x62E78CEA01BEE320CD4E420270B5EA74000D11B0C9F74754EBDBFC544B05A258 SWAP4 PUSH2 0x4E4 PUSH2 0x10E3 JUMP JUMPDEST PUSH1 0xFF NOT AND OR PUSH1 0x1 SSTORE MLOAD CALLER DUP2 MSTORE LOG1 DUP1 RETURN JUMPDEST DUP1 DUP5 DUP5 CALLVALUE PUSH2 0x57D JUMPI PUSH1 0x20 CALLDATASIZE PUSH1 0x3 NOT ADD SLT PUSH2 0x57D JUMPI PUSH2 0x545 PUSH1 0x20 SWAP2 PUSH2 0x516 PUSH2 0x101D JUMP JUMPDEST DUP1 SLOAD DUP5 MLOAD PUSH4 0x23B872DD PUSH1 0xE0 SHL DUP2 MSTORE SWAP6 DUP7 SWAP4 PUSH1 0x1 PUSH1 0x1 PUSH1 0xA0 SHL SUB SWAP1 SWAP3 AND SWAP3 DUP5 SWAP3 DUP4 SWAP2 DUP1 CALLDATALOAD SWAP1 ADDRESS SWAP1 CALLER SWAP1 DUP6 ADD PUSH2 0x1127 JUMP JUMPDEST SUB SWAP3 GAS CALL SWAP1 DUP2 ISZERO PUSH2 0x574 JUMPI POP PUSH2 0x559 JUMPI POP DUP1 RETURN JUMPDEST PUSH2 0x570 SWAP1 PUSH1 0x20 RETURNDATASIZE DUP2 GT PUSH2 0x2EA JUMPI PUSH2 0x2DB DUP2 DUP4 PUSH2 0x1078 JUMP JUMPDEST POP DUP1 RETURN JUMPDEST MLOAD RETURNDATASIZE DUP5 DUP3 RETURNDATACOPY RETURNDATASIZE SWAP1 REVERT JUMPDEST POP POP REVERT JUMPDEST POP CALLVALUE PUSH2 0x1A1 JUMPI PUSH1 0x80 CALLDATASIZE PUSH1 0x3 NOT ADD SLT PUSH2 0x1A1 JUMPI PUSH2 0x59B PUSH2 0x1007 JUMP JUMPDEST PUSH1 0x24 DUP1 CALLDATALOAD SWAP3 SWAP1 SWAP2 PUSH1 0x1 PUSH1 0x1 PUSH1 0xA0 SHL SUB SWAP2 PUSH1 0x44 CALLDATALOAD DUP4 DUP2 AND SUB PUSH2 0x83F JUMPI PUSH1 0x64 CALLDATALOAD PUSH8 0xFFFFFFFFFFFFFFFF DUP2 GT PUSH2 0x3DF JUMPI PUSH2 0x5D5 SWAP1 CALLDATASIZE SWAP1 DUP4 ADD PUSH2 0xFD4 JUMP JUMPDEST POP POP PUSH1 0x2 DUP8 SLOAD EQ PUSH2 0x7FD JUMPI PUSH1 0x2 DUP8 SSTORE PUSH2 0x5EC PUSH2 0x10E3 JUMP JUMPDEST DUP3 PUSH1 0x3 SLOAD AND SWAP1 DUP2 ISZERO PUSH2 0x7AF JUMPI PUSH2 0x600 PUSH2 0x10E3 JUMP JUMPDEST PUSH1 0x2 SLOAD DUP1 DUP8 MUL SWAP1 DUP8 DUP3 DIV EQ DUP8 ISZERO OR ISZERO PUSH2 0x79D JUMPI PUSH1 0x64 SWAP1 DIV SWAP2 DUP5 DUP3 SLOAD AND SWAP6 DUP9 MLOAD DUP1 SWAP8 PUSH4 0x70A08231 PUSH1 0xE0 SHL DUP3 MSTORE ADDRESS DUP6 DUP4 ADD MSTORE DUP2 DUP4 PUSH1 0x20 SWAP11 DUP12 SWAP4 GAS STATICCALL SWAP1 DUP2 ISZERO PUSH2 0x793 JUMPI DUP12 SWAP2 PUSH2 0x762 JUMPI JUMPDEST POP DUP5 GT PUSH2 0x71D JUMPI POP DUP6 DUP9 MLOAD DUP1 SWAP3 PUSH4 0x23B872DD PUSH1 0xE0 SHL DUP3 MSTORE DUP2 DUP13 DUP2 PUSH2 0x66F DUP14 ADDRESS DUP13 DUP12 DUP6 ADD PUSH2 0x1127 JUMP JUMPDEST SUB SWAP3 GAS CALL DUP1 ISZERO PUSH2 0x39A JUMPI SWAP2 PUSH2 0x6A9 SWAP9 SWAP4 SWAP2 DUP8 SWAP4 PUSH2 0x700 JUMPI JUMPDEST POP DUP5 DUP11 DUP8 DUP4 SLOAD AND SWAP3 DUP7 MLOAD SWAP12 DUP13 SWAP6 DUP7 SWAP5 DUP6 SWAP4 PUSH4 0xA9059CBB PUSH1 0xE0 SHL DUP6 MSTORE DUP5 ADD PUSH2 0x10C8 JUMP JUMPDEST SUB SWAP3 GAS CALL SWAP6 DUP7 ISZERO PUSH2 0x6F6 JUMPI PUSH1 0x0 DUP1 MLOAD PUSH1 0x20 PUSH2 0x116A DUP4 CODECOPY DUP2 MLOAD SWAP2 MSTORE SWAP6 SWAP7 PUSH2 0x6D9 JUMPI JUMPDEST POP MLOAD SWAP5 DUP6 MSTORE AND SWAP3 LOG2 PUSH1 0x1 DUP2 SSTORE DUP1 RETURN JUMPDEST PUSH2 0x6EF SWAP1 DUP6 RETURNDATASIZE DUP8 GT PUSH2 0x2EA JUMPI PUSH2 0x2DB DUP2 DUP4 PUSH2 0x1078 JUMP JUMPDEST POP CODESIZE PUSH2 0x6CA JUMP JUMPDEST DUP2 MLOAD RETURNDATASIZE DUP10 DUP3 RETURNDATACOPY RETURNDATASIZE SWAP1 REVERT JUMPDEST PUSH2 0x716 SWAP1 DUP5 RETURNDATASIZE DUP7 GT PUSH2 0x2EA JUMPI PUSH2 0x2DB DUP2 DUP4 PUSH2 0x1078 JUMP JUMPDEST POP CODESIZE PUSH2 0x687 JUMP JUMPDEST DUP3 PUSH1 0x2D PUSH1 0x84 SWAP3 DUP10 DUP13 MLOAD SWAP4 PUSH3 0x461BCD PUSH1 0xE5 SHL DUP6 MSTORE DUP5 ADD MSTORE DUP3 ADD MSTORE PUSH1 0x0 DUP1 MLOAD PUSH1 0x20 PUSH2 0x114A DUP4 CODECOPY DUP2 MLOAD SWAP2 MSTORE PUSH1 0x44 DUP3 ADD MSTORE PUSH13 0x32903A37903A3930B739B332B9 PUSH1 0x99 SHL PUSH1 0x64 DUP3 ADD MSTORE REVERT JUMPDEST SWAP1 POP DUP8 DUP2 DUP2 RETURNDATASIZE DUP4 GT PUSH2 0x78C JUMPI JUMPDEST PUSH2 0x779 DUP2 DUP4 PUSH2 0x1078 JUMP JUMPDEST DUP2 ADD SUB SLT PUSH2 0x788 JUMPI MLOAD CODESIZE PUSH2 0x647 JUMP JUMPDEST DUP11 DUP1 REVERT JUMPDEST POP RETURNDATASIZE PUSH2 0x76F JUMP JUMPDEST DUP11 MLOAD RETURNDATASIZE DUP14 DUP3 RETURNDATACOPY RETURNDATASIZE SWAP1 REVERT JUMPDEST PUSH4 0x4E487B71 PUSH1 0xE0 SHL DUP10 MSTORE PUSH1 0x11 DUP3 MSTORE DUP6 DUP10 REVERT JUMPDEST PUSH1 0x84 SWAP1 PUSH1 0x23 DUP7 PUSH1 0x20 DUP11 MLOAD SWAP4 PUSH3 0x461BCD PUSH1 0xE5 SHL DUP6 MSTORE DUP5 ADD MSTORE DUP3 ADD MSTORE PUSH32 0x47656E6572696345617465723A20546F6B656E2061646472657373206E6F7420 PUSH1 0x44 DUP3 ADD MSTORE PUSH3 0x1CD95D PUSH1 0xEA SHL PUSH1 0x64 DUP3 ADD MSTORE REVERT JUMPDEST PUSH1 0x64 SWAP1 PUSH1 0x1F DUP6 PUSH1 0x20 DUP10 MLOAD SWAP4 PUSH3 0x461BCD PUSH1 0xE5 SHL DUP6 MSTORE DUP5 ADD MSTORE DUP3 ADD MSTORE PUSH32 0x5265656E7472616E637947756172643A207265656E7472616E742063616C6C00 PUSH1 0x44 DUP3 ADD MSTORE REVERT JUMPDEST DUP7 DUP1 REVERT JUMPDEST POP POP CALLVALUE PUSH2 0x870 JUMPI DUP2 PUSH1 0x3 NOT CALLDATASIZE ADD SLT PUSH2 0x870 JUMPI PUSH1 0x1 SLOAD SWAP1 MLOAD PUSH1 0x8 SWAP2 SWAP1 SWAP2 SHR PUSH1 0x1 PUSH1 0x1 PUSH1 0xA0 SHL SUB AND DUP2 MSTORE PUSH1 0x20 SWAP1 RETURN JUMPDEST POP DUP1 REVERT JUMPDEST DUP4 CALLVALUE PUSH2 0x8D5 JUMPI DUP1 PUSH1 0x3 NOT CALLDATASIZE ADD SLT PUSH2 0x8D5 JUMPI PUSH2 0x88D PUSH2 0x101D JUMP JUMPDEST PUSH1 0x1 DUP1 SLOAD PUSH2 0x100 PUSH1 0x1 PUSH1 0xA8 SHL SUB NOT DUP2 AND SWAP1 SWAP2 SSTORE DUP2 SWAP1 PUSH1 0x8 SHR PUSH1 0x1 PUSH1 0x1 PUSH1 0xA0 SHL SUB AND PUSH32 0x8BE0079C531659141344CD1FD0A4F28419497F9722A3DAAFE3B4186F6B6457E0 DUP3 DUP1 LOG3 DUP1 RETURN JUMPDEST DUP1 REVERT JUMPDEST POP POP CALLVALUE PUSH2 0x870 JUMPI DUP2 PUSH1 0x3 NOT CALLDATASIZE ADD SLT PUSH2 0x870 JUMPI PUSH1 0x20 SWAP1 PUSH1 0x2 SLOAD SWAP1 MLOAD SWAP1 DUP2 MSTORE RETURN JUMPDEST POP POP CALLVALUE PUSH2 0x870 JUMPI DUP2 PUSH1 0x3 NOT CALLDATASIZE ADD SLT PUSH2 0x870 JUMPI PUSH1 0x20 SWAP1 PUSH1 0xFF PUSH1 0x1 SLOAD AND SWAP1 MLOAD SWAP1 ISZERO ISZERO DUP2 MSTORE RETURN JUMPDEST POP SWAP2 SWAP1 CALLVALUE PUSH2 0x870 JUMPI DUP2 PUSH1 0x3 NOT CALLDATASIZE ADD SLT PUSH2 0x870 JUMPI PUSH2 0x936 PUSH2 0x101D JUMP JUMPDEST DUP3 SLOAD DUP2 MLOAD PUSH4 0x70A08231 PUSH1 0xE0 SHL DUP2 MSTORE ADDRESS DUP2 DUP7 ADD MSTORE SWAP4 PUSH1 0x20 SWAP3 SWAP2 PUSH1 0x1 PUSH1 0x1 PUSH1 0xA0 SHL SUB SWAP1 DUP2 AND SWAP2 SWAP1 DUP5 DUP8 PUSH1 0x24 DUP2 DUP7 GAS STATICCALL SWAP7 DUP8 ISZERO PUSH2 0xA54 JUMPI DUP7 SWAP8 PUSH2 0xA21 JUMPI JUMPDEST POP DUP7 ISZERO PUSH2 0x9DE JUMPI PUSH2 0x9A4 SWAP4 SWAP3 DUP6 SWAP3 DUP8 DUP10 SWAP4 PUSH1 0x1 SLOAD PUSH1 0x8 SHR AND SWAP2 DUP7 MLOAD SWAP8 DUP9 SWAP6 DUP7 SWAP5 DUP6 SWAP4 PUSH4 0xA9059CBB PUSH1 0xE0 SHL DUP6 MSTORE DUP5 ADD PUSH2 0x10C8 JUMP JUMPDEST SUB SWAP3 GAS CALL SWAP1 DUP2 ISZERO PUSH2 0x9D5 JUMPI POP PUSH2 0x9B8 JUMPI DUP3 DUP1 RETURN JUMPDEST DUP2 PUSH2 0x9CE SWAP3 SWAP1 RETURNDATASIZE LT PUSH2 0x2EA JUMPI PUSH2 0x2DB DUP2 DUP4 PUSH2 0x1078 JUMP JUMPDEST POP DUP2 DUP1 DUP3 DUP1 RETURN JUMPDEST MLOAD RETURNDATASIZE DUP6 DUP3 RETURNDATACOPY RETURNDATASIZE SWAP1 REVERT JUMPDEST DUP4 MLOAD PUSH3 0x461BCD PUSH1 0xE5 SHL DUP2 MSTORE DUP1 DUP4 ADD DUP7 SWAP1 MSTORE PUSH1 0x1A PUSH1 0x24 DUP3 ADD MSTORE PUSH32 0x45617465723A204E6F2062616C616E636520746F207377656570000000000000 PUSH1 0x44 DUP3 ADD MSTORE PUSH1 0x64 SWAP1 REVERT JUMPDEST SWAP1 SWAP7 POP DUP5 DUP2 DUP2 RETURNDATASIZE DUP4 GT PUSH2 0xA4D JUMPI JUMPDEST PUSH2 0xA39 DUP2 DUP4 PUSH2 0x1078 JUMP JUMPDEST DUP2 ADD SUB SLT PUSH2 0xA49 JUMPI MLOAD SWAP6 CODESIZE PUSH2 0x971 JUMP JUMPDEST DUP6 DUP1 REVERT JUMPDEST POP RETURNDATASIZE PUSH2 0xA2F JUMP JUMPDEST DUP5 MLOAD RETURNDATASIZE DUP9 DUP3 RETURNDATACOPY RETURNDATASIZE SWAP1 REVERT JUMPDEST POP SWAP1 CALLVALUE PUSH2 0x1A1 JUMPI PUSH1 0x20 CALLDATASIZE PUSH1 0x3 NOT ADD SLT PUSH2 0x1A1 JUMPI DUP2 CALLDATALOAD SWAP2 PUSH2 0xA7C PUSH2 0x101D JUMP JUMPDEST DUP3 ISZERO PUSH2 0xAC4 JUMPI POP DUP2 PUSH1 0x2 SLOAD SUB PUSH2 0xA90 JUMPI DUP3 DUP1 RETURN JUMPDEST DUP2 PUSH1 0x20 SWAP2 PUSH32 0x595A30F13A69B616C4D568E2A2B7875FDFE86E4300A049953C76EE278F8F3F10 SWAP4 PUSH1 0x2 SSTORE MLOAD SWAP1 DUP2 MSTORE LOG1 CODESIZE DUP1 DUP3 DUP1 RETURN JUMPDEST PUSH1 0x20 PUSH1 0x84 SWAP3 MLOAD SWAP2 PUSH3 0x461BCD PUSH1 0xE5 SHL DUP4 MSTORE DUP3 ADD MSTORE PUSH1 0x22 PUSH1 0x24 DUP3 ADD MSTORE PUSH32 0x45617465723A2052617465206D7573742062652067726561746572207468616E PUSH1 0x44 DUP3 ADD MSTORE PUSH2 0x203 PUSH1 0xF4 SHL PUSH1 0x64 DUP3 ADD MSTORE REVERT JUMPDEST POP CALLVALUE PUSH2 0x1A1 JUMPI PUSH1 0x20 DUP1 PUSH1 0x3 NOT CALLDATASIZE ADD SLT PUSH2 0xBF7 JUMPI PUSH1 0x3 SLOAD DUP4 MLOAD PUSH4 0x70A08231 PUSH1 0xE0 SHL DUP1 DUP3 MSTORE CALLER DUP3 DUP7 ADD MSTORE DUP5 CALLDATALOAD SWAP5 SWAP1 SWAP3 SWAP1 SWAP2 PUSH1 0x1 PUSH1 0x1 PUSH1 0xA0 SHL SUB SWAP2 DUP3 AND SWAP1 DUP6 DUP2 PUSH1 0x24 DUP2 DUP6 GAS STATICCALL DUP1 ISZERO PUSH2 0x39A JUMPI DUP8 SWAP2 DUP11 SWAP2 PUSH2 0xBC6 JUMPI JUMPDEST POP LT PUSH2 0xB71 JUMPI PUSH2 0x1FA PUSH2 0x10E3 JUMP JUMPDEST DUP7 MLOAD PUSH3 0x461BCD PUSH1 0xE5 SHL DUP2 MSTORE DUP1 DUP5 ADD DUP7 SWAP1 MSTORE PUSH1 0x29 PUSH1 0x24 DUP3 ADD MSTORE PUSH32 0x47656E657269634D657267653A20496E73756666696369656E742062616C616E PUSH1 0x44 DUP3 ADD MSTORE PUSH9 0x18D9481D1BC819585D PUSH1 0xBA SHL PUSH1 0x64 DUP3 ADD MSTORE PUSH1 0x84 SWAP1 REVERT JUMPDEST DUP1 SWAP3 POP DUP8 DUP1 SWAP3 POP RETURNDATASIZE DUP4 GT PUSH2 0xBF0 JUMPI JUMPDEST PUSH2 0xBDF DUP2 DUP4 PUSH2 0x1078 JUMP JUMPDEST DUP2 ADD SUB SLT PUSH2 0x38F JUMPI DUP7 SWAP1 MLOAD CODESIZE PUSH2 0xB63 JUMP JUMPDEST POP RETURNDATASIZE PUSH2 0xBD5 JUMP JUMPDEST DUP4 DUP1 REVERT JUMPDEST POP POP CALLVALUE PUSH2 0x870 JUMPI DUP2 PUSH1 0x3 NOT CALLDATASIZE ADD SLT PUSH2 0x870 JUMPI PUSH1 0x3 SLOAD SWAP1 MLOAD PUSH1 0x1 PUSH1 0x1 PUSH1 0xA0 SHL SUB SWAP1 SWAP2 AND DUP2 MSTORE PUSH1 0x20 SWAP1 RETURN JUMPDEST SWAP3 SWAP1 POP CALLVALUE PUSH2 0xBF7 JUMPI PUSH1 0x60 CALLDATASIZE PUSH1 0x3 NOT ADD SLT PUSH2 0xBF7 JUMPI PUSH1 0x1 PUSH1 0x1 PUSH1 0xA0 SHL SUB SWAP2 PUSH1 0x24 SWAP1 DUP2 CALLDATALOAD DUP5 DUP2 AND SWAP2 DUP1 CALLDATALOAD SWAP2 DUP4 SWAP1 SUB PUSH2 0x3DF JUMPI PUSH1 0x44 CALLDATALOAD PUSH8 0xFFFFFFFFFFFFFFFF DUP2 GT PUSH2 0x38F JUMPI PUSH2 0xC73 SWAP1 CALLDATASIZE SWAP1 DUP4 ADD PUSH2 0xFD4 JUMP JUMPDEST SWAP1 SWAP7 DUP1 PUSH1 0x3 SLOAD AND PUSH4 0x70A08231 PUSH1 0xE0 SHL SWAP1 DUP2 DUP12 MSTORE CALLER DUP6 DUP13 ADD MSTORE PUSH1 0x20 SWAP11 DUP12 DUP2 DUP11 DUP2 DUP6 GAS STATICCALL SWAP1 DUP14 DUP3 ISZERO PUSH2 0xFC9 JUMPI SWAP1 DUP9 SWAP3 PUSH2 0xF98 JUMPI JUMPDEST POP LT PUSH2 0xF41 JUMPI PUSH2 0xCB3 PUSH2 0x10E3 JUMP JUMPDEST PUSH1 0x2 SLOAD DUP1 DUP8 MUL SWAP1 DUP8 DUP3 DIV EQ DUP8 ISZERO OR ISZERO PUSH2 0xF2F JUMPI PUSH1 0x64 SWAP1 DIV SWAP2 DUP12 DUP5 DUP8 SLOAD AND SWAP2 DUP11 DUP13 MLOAD DUP1 SWAP5 DUP2 SWAP4 DUP3 MSTORE ADDRESS DUP12 DUP4 ADD MSTORE GAS STATICCALL SWAP1 DUP2 ISZERO PUSH2 0xF25 JUMPI DUP14 SWAP2 PUSH2 0xEF4 JUMPI JUMPDEST POP DUP3 GT PUSH2 0xEAE JUMPI DUP9 MLOAD PUSH4 0x23B872DD PUSH1 0xE0 SHL DUP2 MSTORE DUP13 SWAP6 SWAP5 SWAP4 SWAP3 SWAP2 DUP13 SWAP1 DUP3 SWAP1 DUP2 DUP10 DUP2 PUSH2 0xD1D DUP14 ADDRESS CALLER DUP5 DUP16 ADD PUSH2 0x1127 JUMP JUMPDEST SUB SWAP3 GAS CALL DUP1 ISZERO PUSH2 0xEA4 JUMPI DUP7 SWAP3 DUP14 SWAP3 PUSH2 0xD55 SWAP3 PUSH2 0xE87 JUMPI JUMPDEST POP DUP5 DUP8 SLOAD AND SWAP1 DUP13 MLOAD SWAP5 DUP6 DUP1 SWAP5 DUP2 SWAP4 PUSH4 0xA9059CBB PUSH1 0xE0 SHL DUP4 MSTORE CALLER DUP13 DUP5 ADD PUSH2 0x10C8 JUMP JUMPDEST SUB SWAP3 GAS CALL DUP1 ISZERO PUSH2 0xE60 JUMPI PUSH2 0xE6A JUMPI JUMPDEST POP DUP8 MLOAD DUP6 DUP2 MSTORE PUSH1 0x0 DUP1 MLOAD PUSH1 0x20 PUSH2 0x116A DUP4 CODECOPY DUP2 MLOAD SWAP2 MSTORE DUP12 CALLER SWAP3 LOG2 PUSH1 0x3 SLOAD DUP9 MLOAD PUSH4 0x95EA7B3 PUSH1 0xE0 SHL DUP2 MSTORE SWAP1 DUP12 SWAP1 DUP3 SWAP1 DUP5 AND DUP2 DUP9 DUP2 PUSH2 0xDA3 DUP13 DUP15 DUP13 DUP5 ADD PUSH2 0x10C8 JUMP JUMPDEST SUB SWAP3 GAS CALL DUP1 ISZERO PUSH2 0xE60 JUMPI SWAP3 DUP12 SWAP9 SWAP8 SWAP7 SWAP6 SWAP5 SWAP3 DUP2 SWAP3 PUSH1 0xA4 SWAP6 PUSH2 0xE43 JUMPI JUMPDEST POP PUSH1 0x3 SLOAD AND SWAP11 DUP11 MLOAD SWAP12 DUP13 SWAP10 DUP11 SWAP9 DUP10 SWAP7 PUSH4 0xA2C554D3 PUSH1 0xE0 SHL DUP9 MSTORE DUP8 ADD MSTORE DUP6 ADD MSTORE ADDRESS PUSH1 0x44 DUP6 ADD MSTORE PUSH1 0x80 PUSH1 0x64 DUP6 ADD MSTORE DUP2 PUSH1 0x84 DUP6 ADD MSTORE DUP5 DUP5 ADD CALLDATACOPY DUP2 DUP2 ADD DUP4 ADD DUP5 SWAP1 MSTORE PUSH1 0x1F ADD PUSH1 0x1F NOT AND DUP2 ADD SUB ADD SWAP3 GAS CALL SWAP1 DUP2 ISZERO PUSH2 0x9D5 JUMPI POP PUSH2 0xE1B JUMPI DUP3 DUP1 RETURN JUMPDEST DUP2 RETURNDATASIZE DUP4 GT PUSH2 0xE3C JUMPI JUMPDEST PUSH2 0xE2E DUP2 DUP4 PUSH2 0x1078 JUMP JUMPDEST DUP2 ADD SUB SLT PUSH2 0x8D5 JUMPI CODESIZE DUP1 DUP3 DUP1 RETURN JUMPDEST POP RETURNDATASIZE PUSH2 0xE24 JUMP JUMPDEST PUSH2 0xE59 SWAP1 DUP12 RETURNDATASIZE DUP14 GT PUSH2 0x2EA JUMPI PUSH2 0x2DB DUP2 DUP4 PUSH2 0x1078 JUMP JUMPDEST POP CODESIZE PUSH2 0xDBF JUMP JUMPDEST DUP10 MLOAD RETURNDATASIZE DUP8 DUP3 RETURNDATACOPY RETURNDATASIZE SWAP1 REVERT JUMPDEST PUSH2 0xE80 SWAP1 DUP12 RETURNDATASIZE DUP14 GT PUSH2 0x2EA JUMPI PUSH2 0x2DB DUP2 DUP4 PUSH2 0x1078 JUMP JUMPDEST POP CODESIZE PUSH2 0xD64 JUMP JUMPDEST PUSH2 0xE9D SWAP1 DUP5 RETURNDATASIZE DUP7 GT PUSH2 0x2EA JUMPI PUSH2 0x2DB DUP2 DUP4 PUSH2 0x1078 JUMP JUMPDEST POP CODESIZE PUSH2 0xD34 JUMP JUMPDEST DUP11 MLOAD RETURNDATASIZE DUP9 DUP3 RETURNDATACOPY RETURNDATASIZE SWAP1 REVERT JUMPDEST DUP9 MLOAD PUSH3 0x461BCD PUSH1 0xE5 SHL DUP2 MSTORE DUP1 DUP7 ADD DUP13 SWAP1 MSTORE PUSH1 0x2D DUP2 DUP11 ADD MSTORE PUSH1 0x0 DUP1 MLOAD PUSH1 0x20 PUSH2 0x114A DUP4 CODECOPY DUP2 MLOAD SWAP2 MSTORE PUSH1 0x44 DUP3 ADD MSTORE PUSH13 0x32903A37903A3930B739B332B9 PUSH1 0x99 SHL PUSH1 0x64 DUP3 ADD MSTORE PUSH1 0x84 SWAP1 REVERT JUMPDEST SWAP1 POP DUP12 DUP2 DUP2 RETURNDATASIZE DUP4 GT PUSH2 0xF1E JUMPI JUMPDEST PUSH2 0xF0B DUP2 DUP4 PUSH2 0x1078 JUMP JUMPDEST DUP2 ADD SUB SLT PUSH2 0xF1A JUMPI MLOAD CODESIZE PUSH2 0xCEF JUMP JUMPDEST DUP13 DUP1 REVERT JUMPDEST POP RETURNDATASIZE PUSH2 0xF01 JUMP JUMPDEST DUP11 MLOAD RETURNDATASIZE DUP16 DUP3 RETURNDATACOPY RETURNDATASIZE SWAP1 REVERT JUMPDEST PUSH4 0x4E487B71 PUSH1 0xE0 SHL DUP14 MSTORE PUSH1 0x11 DUP7 MSTORE DUP9 DUP14 REVERT JUMPDEST DUP9 MLOAD PUSH3 0x461BCD PUSH1 0xE5 SHL DUP2 MSTORE DUP1 DUP7 ADD DUP13 SWAP1 MSTORE PUSH1 0x2C DUP2 DUP11 ADD MSTORE PUSH32 0x4D65726765576974684D61726B65743A20496E73756666696369656E74206261 PUSH1 0x44 DUP3 ADD MSTORE PUSH12 0x1B185B98D9481D1BC819585D PUSH1 0xA2 SHL PUSH1 0x64 DUP3 ADD MSTORE PUSH1 0x84 SWAP1 REVERT JUMPDEST DUP1 SWAP3 POP DUP14 DUP1 SWAP3 POP RETURNDATASIZE DUP4 GT PUSH2 0xFC2 JUMPI JUMPDEST PUSH2 0xFB1 DUP2 DUP4 PUSH2 0x1078 JUMP JUMPDEST DUP2 ADD SUB SLT PUSH2 0xF1A JUMPI DUP7 SWAP1 MLOAD CODESIZE PUSH2 0xCA5 JUMP JUMPDEST POP RETURNDATASIZE PUSH2 0xFA7 JUMP JUMPDEST DUP12 MLOAD SWAP1 RETURNDATASIZE SWAP1 DUP3 RETURNDATACOPY RETURNDATASIZE SWAP1 REVERT JUMPDEST SWAP2 DUP2 PUSH1 0x1F DUP5 ADD SLT ISZERO PUSH2 0x1002 JUMPI DUP3 CALLDATALOAD SWAP2 PUSH8 0xFFFFFFFFFFFFFFFF DUP4 GT PUSH2 0x1002 JUMPI PUSH1 0x20 DUP4 DUP2 DUP7 ADD SWAP6 ADD ADD GT PUSH2 0x1002 JUMPI JUMP JUMPDEST PUSH1 0x0 DUP1 REVERT JUMPDEST PUSH1 0x4 CALLDATALOAD SWAP1 PUSH1 0x1 PUSH1 0x1 PUSH1 0xA0 SHL SUB DUP3 AND DUP3 SUB PUSH2 0x1002 JUMPI JUMP JUMPDEST PUSH1 0x1 SLOAD PUSH1 0x8 SHR PUSH1 0x1 PUSH1 0x1 PUSH1 0xA0 SHL SUB AND CALLER SUB PUSH2 0x1034 JUMPI JUMP JUMPDEST PUSH1 0x64 PUSH1 0x40 MLOAD PUSH3 0x461BCD PUSH1 0xE5 SHL DUP2 MSTORE PUSH1 0x20 PUSH1 0x4 DUP3 ADD MSTORE PUSH1 0x20 PUSH1 0x24 DUP3 ADD MSTORE PUSH32 0x4F776E61626C653A2063616C6C6572206973206E6F7420746865206F776E6572 PUSH1 0x44 DUP3 ADD MSTORE REVERT JUMPDEST SWAP1 PUSH1 0x1F DUP1 NOT SWAP2 ADD AND DUP2 ADD SWAP1 DUP2 LT PUSH8 0xFFFFFFFFFFFFFFFF DUP3 GT OR PUSH2 0x109A JUMPI PUSH1 0x40 MSTORE JUMP JUMPDEST PUSH4 0x4E487B71 PUSH1 0xE0 SHL PUSH1 0x0 MSTORE PUSH1 0x41 PUSH1 0x4 MSTORE PUSH1 0x24 PUSH1 0x0 REVERT JUMPDEST SWAP1 DUP2 PUSH1 0x20 SWAP2 SUB SLT PUSH2 0x1002 JUMPI MLOAD DUP1 ISZERO ISZERO DUP2 SUB PUSH2 0x1002 JUMPI SWAP1 JUMP JUMPDEST PUSH1 0x1 PUSH1 0x1 PUSH1 0xA0 SHL SUB SWAP1 SWAP2 AND DUP2 MSTORE PUSH1 0x20 DUP2 ADD SWAP2 SWAP1 SWAP2 MSTORE PUSH1 0x40 ADD SWAP1 JUMP JUMPDEST PUSH1 0xFF PUSH1 0x1 SLOAD AND PUSH2 0x10EF JUMPI JUMP JUMPDEST PUSH1 0x40 MLOAD PUSH3 0x461BCD PUSH1 0xE5 SHL DUP2 MSTORE PUSH1 0x20 PUSH1 0x4 DUP3 ADD MSTORE PUSH1 0x10 PUSH1 0x24 DUP3 ADD MSTORE PUSH16 0x14185D5CD8589B194E881C185D5CD959 PUSH1 0x82 SHL PUSH1 0x44 DUP3 ADD MSTORE PUSH1 0x64 SWAP1 REVERT JUMPDEST PUSH1 0x1 PUSH1 0x1 PUSH1 0xA0 SHL SUB SWAP2 DUP3 AND DUP2 MSTORE SWAP2 AND PUSH1 0x20 DUP3 ADD MSTORE PUSH1 0x40 DUP2 ADD SWAP2 SWAP1 SWAP2 MSTORE PUSH1 0x60 ADD SWAP1 JUMP INVALID GASLIMIT PUSH2 0x7465 PUSH19 0x3A20496E73756666696369656E7420746F6B65 PUSH15 0x2062616C616E63ADC41BA80FFA0859 0xAA 0xB1 0xD7 0xCF BLOCKHASH GAS PUSH7 0x33A6AF94FC3D10 0xE5 0xB0 0xE0 0xBF CHAINID 0xCD 0xCC 0xF 0xD9 0xC8 LOG2 PUSH5 0x6970667358 0x22 SLT KECCAK256 0xEC 0xC5 POP 0xB5 CREATE SSTORE MLOAD SWAP14 SWAP9 EQ CHAINID 0xBF 0xB9 SWAP8 0xC6 STATICCALL PUSH32 0x9CF2EBC057805E125DD0A1B1CF5AD264736F6C63430008130033000000000000 "
        },
        "methodIdentifiers": {
          "deposit(uint256)": "b6b55f25",
          "getRate()": "679aefce",
          "getToken()": "21df0da7",
          "merge(uint256)": "24a47aeb",
          "mergeAll()": "ea9f2417",
          "mergeAndSell(uint256,address,bytes)": "213897fe",
          "owner()": "8da5cb5b",
          "paused()": "5c975abb",
          "receiveApproval(address,uint256,address,bytes)": "8f4ffcb1",
          "renounceOwnership()": "715018a6",
          "setRate(uint256)": "34fcf437",
          "sweep()": "35faa416",
          "togglePause()": "c4ae3168",
          "transferOwnership(address)": "f2fde38b",
          "wewe()": "e1f26f22"
        }
      }
    }
  }
}