{
  "contracts/core/adaptors/UniswapV3ViaRouter.sol": {
    "UniswapV3ViaRouter": {
      "abi": [
        {
          "inputs": [],
          "stateMutability": "nonpayable",
          "type": "constructor"
        },
        {
          "anonymous": false,
          "inputs": [
            {
              "indexed": true,
              "internalType": "address",
              "name": "previousOwner",
              "type": "address"
            },
            {
              "indexed": true,
              "internalType": "address",
              "name": "newOwner",
              "type": "address"
            }
          ],
          "name": "OwnershipTransferred",
          "type": "event"
        },
        {
          "anonymous": false,
          "inputs": [
            {
              "indexed": false,
              "internalType": "uint256",
              "name": "amount",
              "type": "uint256"
            },
            {
              "indexed": false,
              "internalType": "uint256",
              "name": "amountOut",
              "type": "uint256"
            },
            {
              "indexed": false,
              "internalType": "address",
              "name": "token",
              "type": "address"
            },
            {
              "indexed": true,
              "internalType": "address",
              "name": "recipient",
              "type": "address"
            }
          ],
          "name": "Swapped",
          "type": "event"
        },
        {
          "inputs": [],
          "name": "fee",
          "outputs": [
            {
              "internalType": "uint24",
              "name": "",
              "type": "uint24"
            }
          ],
          "stateMutability": "view",
          "type": "function"
        },
        {
          "inputs": [],
          "name": "owner",
          "outputs": [
            {
              "internalType": "address",
              "name": "",
              "type": "address"
            }
          ],
          "stateMutability": "view",
          "type": "function"
        },
        {
          "inputs": [],
          "name": "renounceOwnership",
          "outputs": [],
          "stateMutability": "nonpayable",
          "type": "function"
        },
        {
          "inputs": [
            {
              "internalType": "uint24",
              "name": "_fee",
              "type": "uint24"
            }
          ],
          "name": "setFee",
          "outputs": [],
          "stateMutability": "nonpayable",
          "type": "function"
        },
        {
          "inputs": [
            {
              "internalType": "uint256",
              "name": "amount",
              "type": "uint256"
            },
            {
              "internalType": "address",
              "name": "token",
              "type": "address"
            },
            {
              "internalType": "address",
              "name": "recipient",
              "type": "address"
            },
            {
              "internalType": "bytes",
              "name": "extraData",
              "type": "bytes"
            }
          ],
          "name": "swap",
          "outputs": [
            {
              "internalType": "uint256",
              "name": "",
              "type": "uint256"
            }
          ],
          "stateMutability": "nonpayable",
          "type": "function"
        },
        {
          "inputs": [
            {
              "internalType": "address",
              "name": "newOwner",
              "type": "address"
            }
          ],
          "name": "transferOwnership",
          "outputs": [],
          "stateMutability": "nonpayable",
          "type": "function"
        }
      ],
      "evm": {
        "bytecode": {
          "linkReferences": {},
          "object": "60808060405234610067576000543360018060a01b0382167f8be0079c531659141344cd1fd0a4f28419497f9722a3daafe3b4186f6b6457e0600080a36001600160b81b0319163362ffffff60a01b19161761027160a41b17600055610733908161006d8239f35b600080fdfe604060808152600436101561001357600080fd5b600090813560e01c8063715018a6146105b65780638da5cb5b1461058f578063a2c554d31461021a578063ddca3f43146101f6578063eabb56221461012b5763f2fde38b1461006157600080fd5b34610127576020366003190112610127576001600160a01b03600435818116929083900361012357610091610610565b82156100d1575082546001600160a01b0319811683178455167f8be0079c531659141344cd1fd0a4f28419497f9722a3daafe3b4186f6b6457e08380a380f35b5162461bcd60e51b815260206004820152602660248201527f4f776e61626c653a206e6577206f776e657220697320746865207a65726f206160448201526564647265737360d01b6064820152608490fd5b8380fd5b5080fd5b5034610127576020366003190112610127576004359062ffffff821680830361012357610156610610565b606481141590816101e9575b816101dc575b816101cf575b506101935750815462ffffff60a01b191660a09190911b62ffffff60a01b1617815580f35b5162461bcd60e51b8152602060048201526016602482015275556e697377617076333a20496e76616c69642066656560501b6044820152606490fd5b612710915014153861016e565b610bb88114159150610168565b6101f48114159150610162565b503461012757816003193601126101275762ffffff6020925460a01c169051908152f35b50903461048f57608036600319011261048f57602435916001600160a01b038316600435818503610123576044356001600160a01b038116929083900361058b5767ffffffffffffffff6064358181116105875736602382011215610587578060040135828111610583573691016024011161057f57845196602097888101906323b872dd60e01b82528660248201523060448201528560648201526064815260a081018181108582111761051157885251889182919082855af16102dd6106a0565b8161054f575b50156105255785518881019063095ea7b360e01b8252732626664c2603336e57b271c5c0b26f421741e481602482015285604482015260448152608081018181108582111761051157885251889283929083905af16103406106a0565b816104e1575b50156104b85762ffffff865460a01c1685519160e0830190838210908211176104a4578652828252736b9bb36519538e0c073894e964e90172e1c0b41f88830190815282870191825233606084019081526080840186815260a085018a815260c086018b81528a516304e45aaf60e01b815296516001600160a01b039081166004890152945185166024880152945162ffffff1660448701529151831660648601525160848501525160a484015290511660c4820152868160e48189732626664c2603336e57b271c5c0b26f421741e4815af1958615610499578096610463575b50507f9cd20ed773bdbb537c6e6ab86e6a1068c4271b9ef6cc9a5e1c08bba87abaa926916060918551918252868883015285820152a251908152f35b909195508682813d8311610492575b61047c8183610668565b8101031261048f57505193816060610427565b80fd5b503d610472565b8551903d90823e3d90fd5b634e487b7160e01b88526041600452602488fd5b845162461bcd60e51b8152600481018890526002602482015261534160f01b6044820152606490fd5b805180159250899083156104f9575b50505038610346565b61050993508201810191016106e0565b3888816104f0565b634e487b7160e01b8a52604160045260248afd5b855162461bcd60e51b815260048101899052600360248201526229aa2360e91b6044820152606490fd5b8051801592508a908315610567575b505050386102e3565b61057793508201810191016106e0565b38898161055e565b8580fd5b8780fd5b8680fd5b8480fd5b5034610127578160031936011261012757905490516001600160a01b039091168152602090f35b823461048f578060031936011261048f576105cf610610565b80546001600160a01b03198116825581906001600160a01b03167f8be0079c531659141344cd1fd0a4f28419497f9722a3daafe3b4186f6b6457e08280a380f35b6000546001600160a01b0316330361062457565b606460405162461bcd60e51b815260206004820152602060248201527f4f776e61626c653a2063616c6c6572206973206e6f7420746865206f776e65726044820152fd5b90601f8019910116810190811067ffffffffffffffff82111761068a57604052565b634e487b7160e01b600052604160045260246000fd5b3d156106db573d9067ffffffffffffffff821161068a57604051916106cf601f8201601f191660200184610668565b82523d6000602084013e565b606090565b908160209103126106f8575180151581036106f85790565b600080fdfea2646970667358221220f6b52fe3884a8a38142314e1f9ca1c458556dbf289b4d0ba48500c27f80e4f2f64736f6c63430008130033",
          "opcodes": "PUSH1 0x80 DUP1 PUSH1 0x40 MSTORE CALLVALUE PUSH2 0x67 JUMPI PUSH1 0x0 SLOAD CALLER PUSH1 0x1 DUP1 PUSH1 0xA0 SHL SUB DUP3 AND PUSH32 0x8BE0079C531659141344CD1FD0A4F28419497F9722A3DAAFE3B4186F6B6457E0 PUSH1 0x0 DUP1 LOG3 PUSH1 0x1 PUSH1 0x1 PUSH1 0xB8 SHL SUB NOT AND CALLER PUSH3 0xFFFFFF PUSH1 0xA0 SHL NOT AND OR PUSH2 0x271 PUSH1 0xA4 SHL OR PUSH1 0x0 SSTORE PUSH2 0x733 SWAP1 DUP2 PUSH2 0x6D DUP3 CODECOPY RETURN JUMPDEST PUSH1 0x0 DUP1 REVERT INVALID PUSH1 0x40 PUSH1 0x80 DUP2 MSTORE PUSH1 0x4 CALLDATASIZE LT ISZERO PUSH2 0x13 JUMPI PUSH1 0x0 DUP1 REVERT JUMPDEST PUSH1 0x0 SWAP1 DUP2 CALLDATALOAD PUSH1 0xE0 SHR DUP1 PUSH4 0x715018A6 EQ PUSH2 0x5B6 JUMPI DUP1 PUSH4 0x8DA5CB5B EQ PUSH2 0x58F JUMPI DUP1 PUSH4 0xA2C554D3 EQ PUSH2 0x21A JUMPI DUP1 PUSH4 0xDDCA3F43 EQ PUSH2 0x1F6 JUMPI DUP1 PUSH4 0xEABB5622 EQ PUSH2 0x12B JUMPI PUSH4 0xF2FDE38B EQ PUSH2 0x61 JUMPI PUSH1 0x0 DUP1 REVERT JUMPDEST CALLVALUE PUSH2 0x127 JUMPI PUSH1 0x20 CALLDATASIZE PUSH1 0x3 NOT ADD SLT PUSH2 0x127 JUMPI PUSH1 0x1 PUSH1 0x1 PUSH1 0xA0 SHL SUB PUSH1 0x4 CALLDATALOAD DUP2 DUP2 AND SWAP3 SWAP1 DUP4 SWAP1 SUB PUSH2 0x123 JUMPI PUSH2 0x91 PUSH2 0x610 JUMP JUMPDEST DUP3 ISZERO PUSH2 0xD1 JUMPI POP DUP3 SLOAD PUSH1 0x1 PUSH1 0x1 PUSH1 0xA0 SHL SUB NOT DUP2 AND DUP4 OR DUP5 SSTORE AND PUSH32 0x8BE0079C531659141344CD1FD0A4F28419497F9722A3DAAFE3B4186F6B6457E0 DUP4 DUP1 LOG3 DUP1 RETURN JUMPDEST MLOAD PUSH3 0x461BCD PUSH1 0xE5 SHL DUP2 MSTORE PUSH1 0x20 PUSH1 0x4 DUP3 ADD MSTORE PUSH1 0x26 PUSH1 0x24 DUP3 ADD MSTORE PUSH32 0x4F776E61626C653A206E6577206F776E657220697320746865207A65726F2061 PUSH1 0x44 DUP3 ADD MSTORE PUSH6 0x646472657373 PUSH1 0xD0 SHL PUSH1 0x64 DUP3 ADD MSTORE PUSH1 0x84 SWAP1 REVERT JUMPDEST DUP4 DUP1 REVERT JUMPDEST POP DUP1 REVERT JUMPDEST POP CALLVALUE PUSH2 0x127 JUMPI PUSH1 0x20 CALLDATASIZE PUSH1 0x3 NOT ADD SLT PUSH2 0x127 JUMPI PUSH1 0x4 CALLDATALOAD SWAP1 PUSH3 0xFFFFFF DUP3 AND DUP1 DUP4 SUB PUSH2 0x123 JUMPI PUSH2 0x156 PUSH2 0x610 JUMP JUMPDEST PUSH1 0x64 DUP2 EQ ISZERO SWAP1 DUP2 PUSH2 0x1E9 JUMPI JUMPDEST DUP2 PUSH2 0x1DC JUMPI JUMPDEST DUP2 PUSH2 0x1CF JUMPI JUMPDEST POP PUSH2 0x193 JUMPI POP DUP2 SLOAD PUSH3 0xFFFFFF PUSH1 0xA0 SHL NOT AND PUSH1 0xA0 SWAP2 SWAP1 SWAP2 SHL PUSH3 0xFFFFFF PUSH1 0xA0 SHL AND OR DUP2 SSTORE DUP1 RETURN JUMPDEST MLOAD PUSH3 0x461BCD PUSH1 0xE5 SHL DUP2 MSTORE PUSH1 0x20 PUSH1 0x4 DUP3 ADD MSTORE PUSH1 0x16 PUSH1 0x24 DUP3 ADD MSTORE PUSH22 0x556E697377617076333A20496E76616C696420666565 PUSH1 0x50 SHL PUSH1 0x44 DUP3 ADD MSTORE PUSH1 0x64 SWAP1 REVERT JUMPDEST PUSH2 0x2710 SWAP2 POP EQ ISZERO CODESIZE PUSH2 0x16E JUMP JUMPDEST PUSH2 0xBB8 DUP2 EQ ISZERO SWAP2 POP PUSH2 0x168 JUMP JUMPDEST PUSH2 0x1F4 DUP2 EQ ISZERO SWAP2 POP PUSH2 0x162 JUMP JUMPDEST POP CALLVALUE PUSH2 0x127 JUMPI DUP2 PUSH1 0x3 NOT CALLDATASIZE ADD SLT PUSH2 0x127 JUMPI PUSH3 0xFFFFFF PUSH1 0x20 SWAP3 SLOAD PUSH1 0xA0 SHR AND SWAP1 MLOAD SWAP1 DUP2 MSTORE RETURN JUMPDEST POP SWAP1 CALLVALUE PUSH2 0x48F JUMPI PUSH1 0x80 CALLDATASIZE PUSH1 0x3 NOT ADD SLT PUSH2 0x48F JUMPI PUSH1 0x24 CALLDATALOAD SWAP2 PUSH1 0x1 PUSH1 0x1 PUSH1 0xA0 SHL SUB DUP4 AND PUSH1 0x4 CALLDATALOAD DUP2 DUP6 SUB PUSH2 0x123 JUMPI PUSH1 0x44 CALLDATALOAD PUSH1 0x1 PUSH1 0x1 PUSH1 0xA0 SHL SUB DUP2 AND SWAP3 SWAP1 DUP4 SWAP1 SUB PUSH2 0x58B JUMPI PUSH8 0xFFFFFFFFFFFFFFFF PUSH1 0x64 CALLDATALOAD DUP2 DUP2 GT PUSH2 0x587 JUMPI CALLDATASIZE PUSH1 0x23 DUP3 ADD SLT ISZERO PUSH2 0x587 JUMPI DUP1 PUSH1 0x4 ADD CALLDATALOAD DUP3 DUP2 GT PUSH2 0x583 JUMPI CALLDATASIZE SWAP2 ADD PUSH1 0x24 ADD GT PUSH2 0x57F JUMPI DUP5 MLOAD SWAP7 PUSH1 0x20 SWAP8 DUP9 DUP2 ADD SWAP1 PUSH4 0x23B872DD PUSH1 0xE0 SHL DUP3 MSTORE DUP7 PUSH1 0x24 DUP3 ADD MSTORE ADDRESS PUSH1 0x44 DUP3 ADD MSTORE DUP6 PUSH1 0x64 DUP3 ADD MSTORE PUSH1 0x64 DUP2 MSTORE PUSH1 0xA0 DUP2 ADD DUP2 DUP2 LT DUP6 DUP3 GT OR PUSH2 0x511 JUMPI DUP9 MSTORE MLOAD DUP9 SWAP2 DUP3 SWAP2 SWAP1 DUP3 DUP6 GAS CALL PUSH2 0x2DD PUSH2 0x6A0 JUMP JUMPDEST DUP2 PUSH2 0x54F JUMPI JUMPDEST POP ISZERO PUSH2 0x525 JUMPI DUP6 MLOAD DUP9 DUP2 ADD SWAP1 PUSH4 0x95EA7B3 PUSH1 0xE0 SHL DUP3 MSTORE PUSH20 0x2626664C2603336E57B271C5C0B26F421741E481 PUSH1 0x24 DUP3 ADD MSTORE DUP6 PUSH1 0x44 DUP3 ADD MSTORE PUSH1 0x44 DUP2 MSTORE PUSH1 0x80 DUP2 ADD DUP2 DUP2 LT DUP6 DUP3 GT OR PUSH2 0x511 JUMPI DUP9 MSTORE MLOAD DUP9 SWAP3 DUP4 SWAP3 SWAP1 DUP4 SWAP1 GAS CALL PUSH2 0x340 PUSH2 0x6A0 JUMP JUMPDEST DUP2 PUSH2 0x4E1 JUMPI JUMPDEST POP ISZERO PUSH2 0x4B8 JUMPI PUSH3 0xFFFFFF DUP7 SLOAD PUSH1 0xA0 SHR AND DUP6 MLOAD SWAP2 PUSH1 0xE0 DUP4 ADD SWAP1 DUP4 DUP3 LT SWAP1 DUP3 GT OR PUSH2 0x4A4 JUMPI DUP7 MSTORE DUP3 DUP3 MSTORE PUSH20 0x6B9BB36519538E0C073894E964E90172E1C0B41F DUP9 DUP4 ADD SWAP1 DUP2 MSTORE DUP3 DUP8 ADD SWAP2 DUP3 MSTORE CALLER PUSH1 0x60 DUP5 ADD SWAP1 DUP2 MSTORE PUSH1 0x80 DUP5 ADD DUP7 DUP2 MSTORE PUSH1 0xA0 DUP6 ADD DUP11 DUP2 MSTORE PUSH1 0xC0 DUP7 ADD DUP12 DUP2 MSTORE DUP11 MLOAD PUSH4 0x4E45AAF PUSH1 0xE0 SHL DUP2 MSTORE SWAP7 MLOAD PUSH1 0x1 PUSH1 0x1 PUSH1 0xA0 SHL SUB SWAP1 DUP2 AND PUSH1 0x4 DUP10 ADD MSTORE SWAP5 MLOAD DUP6 AND PUSH1 0x24 DUP9 ADD MSTORE SWAP5 MLOAD PUSH3 0xFFFFFF AND PUSH1 0x44 DUP8 ADD MSTORE SWAP2 MLOAD DUP4 AND PUSH1 0x64 DUP7 ADD MSTORE MLOAD PUSH1 0x84 DUP6 ADD MSTORE MLOAD PUSH1 0xA4 DUP5 ADD MSTORE SWAP1 MLOAD AND PUSH1 0xC4 DUP3 ADD MSTORE DUP7 DUP2 PUSH1 0xE4 DUP2 DUP10 PUSH20 0x2626664C2603336E57B271C5C0B26F421741E481 GAS CALL SWAP6 DUP7 ISZERO PUSH2 0x499 JUMPI DUP1 SWAP7 PUSH2 0x463 JUMPI JUMPDEST POP POP PUSH32 0x9CD20ED773BDBB537C6E6AB86E6A1068C4271B9EF6CC9A5E1C08BBA87ABAA926 SWAP2 PUSH1 0x60 SWAP2 DUP6 MLOAD SWAP2 DUP3 MSTORE DUP7 DUP9 DUP4 ADD MSTORE DUP6 DUP3 ADD MSTORE LOG2 MLOAD SWAP1 DUP2 MSTORE RETURN JUMPDEST SWAP1 SWAP2 SWAP6 POP DUP7 DUP3 DUP2 RETURNDATASIZE DUP4 GT PUSH2 0x492 JUMPI JUMPDEST PUSH2 0x47C DUP2 DUP4 PUSH2 0x668 JUMP JUMPDEST DUP2 ADD SUB SLT PUSH2 0x48F JUMPI POP MLOAD SWAP4 DUP2 PUSH1 0x60 PUSH2 0x427 JUMP JUMPDEST DUP1 REVERT JUMPDEST POP RETURNDATASIZE PUSH2 0x472 JUMP JUMPDEST DUP6 MLOAD SWAP1 RETURNDATASIZE SWAP1 DUP3 RETURNDATACOPY RETURNDATASIZE SWAP1 REVERT JUMPDEST PUSH4 0x4E487B71 PUSH1 0xE0 SHL DUP9 MSTORE PUSH1 0x41 PUSH1 0x4 MSTORE PUSH1 0x24 DUP9 REVERT JUMPDEST DUP5 MLOAD PUSH3 0x461BCD PUSH1 0xE5 SHL DUP2 MSTORE PUSH1 0x4 DUP2 ADD DUP9 SWAP1 MSTORE PUSH1 0x2 PUSH1 0x24 DUP3 ADD MSTORE PUSH2 0x5341 PUSH1 0xF0 SHL PUSH1 0x44 DUP3 ADD MSTORE PUSH1 0x64 SWAP1 REVERT JUMPDEST DUP1 MLOAD DUP1 ISZERO SWAP3 POP DUP10 SWAP1 DUP4 ISZERO PUSH2 0x4F9 JUMPI JUMPDEST POP POP POP CODESIZE PUSH2 0x346 JUMP JUMPDEST PUSH2 0x509 SWAP4 POP DUP3 ADD DUP2 ADD SWAP2 ADD PUSH2 0x6E0 JUMP JUMPDEST CODESIZE DUP9 DUP2 PUSH2 0x4F0 JUMP JUMPDEST PUSH4 0x4E487B71 PUSH1 0xE0 SHL DUP11 MSTORE PUSH1 0x41 PUSH1 0x4 MSTORE PUSH1 0x24 DUP11 REVERT JUMPDEST DUP6 MLOAD PUSH3 0x461BCD PUSH1 0xE5 SHL DUP2 MSTORE PUSH1 0x4 DUP2 ADD DUP10 SWAP1 MSTORE PUSH1 0x3 PUSH1 0x24 DUP3 ADD MSTORE PUSH3 0x29AA23 PUSH1 0xE9 SHL PUSH1 0x44 DUP3 ADD MSTORE PUSH1 0x64 SWAP1 REVERT JUMPDEST DUP1 MLOAD DUP1 ISZERO SWAP3 POP DUP11 SWAP1 DUP4 ISZERO PUSH2 0x567 JUMPI JUMPDEST POP POP POP CODESIZE PUSH2 0x2E3 JUMP JUMPDEST PUSH2 0x577 SWAP4 POP DUP3 ADD DUP2 ADD SWAP2 ADD PUSH2 0x6E0 JUMP JUMPDEST CODESIZE DUP10 DUP2 PUSH2 0x55E JUMP JUMPDEST DUP6 DUP1 REVERT JUMPDEST DUP8 DUP1 REVERT JUMPDEST DUP7 DUP1 REVERT JUMPDEST DUP5 DUP1 REVERT JUMPDEST POP CALLVALUE PUSH2 0x127 JUMPI DUP2 PUSH1 0x3 NOT CALLDATASIZE ADD SLT PUSH2 0x127 JUMPI SWAP1 SLOAD SWAP1 MLOAD PUSH1 0x1 PUSH1 0x1 PUSH1 0xA0 SHL SUB SWAP1 SWAP2 AND DUP2 MSTORE PUSH1 0x20 SWAP1 RETURN JUMPDEST DUP3 CALLVALUE PUSH2 0x48F JUMPI DUP1 PUSH1 0x3 NOT CALLDATASIZE ADD SLT PUSH2 0x48F JUMPI PUSH2 0x5CF PUSH2 0x610 JUMP JUMPDEST DUP1 SLOAD PUSH1 0x1 PUSH1 0x1 PUSH1 0xA0 SHL SUB NOT DUP2 AND DUP3 SSTORE DUP2 SWAP1 PUSH1 0x1 PUSH1 0x1 PUSH1 0xA0 SHL SUB AND PUSH32 0x8BE0079C531659141344CD1FD0A4F28419497F9722A3DAAFE3B4186F6B6457E0 DUP3 DUP1 LOG3 DUP1 RETURN JUMPDEST PUSH1 0x0 SLOAD PUSH1 0x1 PUSH1 0x1 PUSH1 0xA0 SHL SUB AND CALLER SUB PUSH2 0x624 JUMPI JUMP JUMPDEST PUSH1 0x64 PUSH1 0x40 MLOAD PUSH3 0x461BCD PUSH1 0xE5 SHL DUP2 MSTORE PUSH1 0x20 PUSH1 0x4 DUP3 ADD MSTORE PUSH1 0x20 PUSH1 0x24 DUP3 ADD MSTORE PUSH32 0x4F776E61626C653A2063616C6C6572206973206E6F7420746865206F776E6572 PUSH1 0x44 DUP3 ADD MSTORE REVERT JUMPDEST SWAP1 PUSH1 0x1F DUP1 NOT SWAP2 ADD AND DUP2 ADD SWAP1 DUP2 LT PUSH8 0xFFFFFFFFFFFFFFFF DUP3 GT OR PUSH2 0x68A JUMPI PUSH1 0x40 MSTORE JUMP JUMPDEST PUSH4 0x4E487B71 PUSH1 0xE0 SHL PUSH1 0x0 MSTORE PUSH1 0x41 PUSH1 0x4 MSTORE PUSH1 0x24 PUSH1 0x0 REVERT JUMPDEST RETURNDATASIZE ISZERO PUSH2 0x6DB JUMPI RETURNDATASIZE SWAP1 PUSH8 0xFFFFFFFFFFFFFFFF DUP3 GT PUSH2 0x68A JUMPI PUSH1 0x40 MLOAD SWAP2 PUSH2 0x6CF PUSH1 0x1F DUP3 ADD PUSH1 0x1F NOT AND PUSH1 0x20 ADD DUP5 PUSH2 0x668 JUMP JUMPDEST DUP3 MSTORE RETURNDATASIZE PUSH1 0x0 PUSH1 0x20 DUP5 ADD RETURNDATACOPY JUMP JUMPDEST PUSH1 0x60 SWAP1 JUMP JUMPDEST SWAP1 DUP2 PUSH1 0x20 SWAP2 SUB SLT PUSH2 0x6F8 JUMPI MLOAD DUP1 ISZERO ISZERO DUP2 SUB PUSH2 0x6F8 JUMPI SWAP1 JUMP JUMPDEST PUSH1 0x0 DUP1 REVERT INVALID LOG2 PUSH5 0x6970667358 0x22 SLT KECCAK256 0xF6 0xB5 0x2F 0xE3 DUP9 0x4A DUP11 CODESIZE EQ 0x23 EQ 0xE1 0xF9 0xCA SHR GASLIMIT DUP6 JUMP 0xDB CALLCODE DUP10 0xB4 0xD0 0xBA BASEFEE POP 0xC 0x27 0xF8 0xE 0x4F 0x2F PUSH5 0x736F6C6343 STOP ADDMOD SGT STOP CALLER "
        },
        "methodIdentifiers": {
          "fee()": "ddca3f43",
          "owner()": "8da5cb5b",
          "renounceOwnership()": "715018a6",
          "setFee(uint24)": "eabb5622",
          "swap(uint256,address,address,bytes)": "a2c554d3",
          "transferOwnership(address)": "f2fde38b"
        }
      }
    }
  }
}