{
  "contracts/core/merge/MergeFactory.sol": {
    "MergeFactory": {
      "abi": [
        {
          "inputs": [],
          "stateMutability": "nonpayable",
          "type": "constructor"
        },
        {
          "anonymous": false,
          "inputs": [
            {
              "indexed": true,
              "internalType": "address",
              "name": "token",
              "type": "address"
            },
            {
              "indexed": true,
              "internalType": "address",
              "name": "merge",
              "type": "address"
            }
          ],
          "name": "MergeCreated",
          "type": "event"
        },
        {
          "anonymous": false,
          "inputs": [
            {
              "indexed": true,
              "internalType": "address",
              "name": "previousOwner",
              "type": "address"
            },
            {
              "indexed": true,
              "internalType": "address",
              "name": "newOwner",
              "type": "address"
            }
          ],
          "name": "OwnershipTransferred",
          "type": "event"
        },
        {
          "inputs": [
            {
              "internalType": "address",
              "name": "",
              "type": "address"
            }
          ],
          "name": "allowedDeployers",
          "outputs": [
            {
              "internalType": "bool",
              "name": "",
              "type": "bool"
            }
          ],
          "stateMutability": "view",
          "type": "function"
        },
        {
          "inputs": [
            {
              "internalType": "address",
              "name": "token",
              "type": "address"
            },
            {
              "internalType": "uint256",
              "name": "rate",
              "type": "uint256"
            },
            {
              "internalType": "uint8",
              "name": "vestingDuration",
              "type": "uint8"
            }
          ],
          "name": "createMerge",
          "outputs": [
            {
              "internalType": "address",
              "name": "",
              "type": "address"
            }
          ],
          "stateMutability": "nonpayable",
          "type": "function"
        },
        {
          "inputs": [
            {
              "internalType": "address",
              "name": "token",
              "type": "address"
            },
            {
              "internalType": "uint256",
              "name": "rate",
              "type": "uint256"
            },
            {
              "internalType": "uint8",
              "name": "vestingDuration",
              "type": "uint8"
            },
            {
              "internalType": "enum MergeFactory.MergeType",
              "name": "mergeType",
              "type": "uint8"
            }
          ],
          "name": "createMergeWithType",
          "outputs": [
            {
              "internalType": "address",
              "name": "",
              "type": "address"
            }
          ],
          "stateMutability": "nonpayable",
          "type": "function"
        },
        {
          "inputs": [],
          "name": "getMergeCount",
          "outputs": [
            {
              "internalType": "uint256",
              "name": "",
              "type": "uint256"
            }
          ],
          "stateMutability": "view",
          "type": "function"
        },
        {
          "inputs": [
            {
              "internalType": "address",
              "name": "",
              "type": "address"
            }
          ],
          "name": "mergeTypes",
          "outputs": [
            {
              "internalType": "enum MergeFactory.MergeType",
              "name": "",
              "type": "uint8"
            }
          ],
          "stateMutability": "view",
          "type": "function"
        },
        {
          "inputs": [
            {
              "internalType": "address",
              "name": "",
              "type": "address"
            }
          ],
          "name": "merges",
          "outputs": [
            {
              "internalType": "address",
              "name": "",
              "type": "address"
            }
          ],
          "stateMutability": "view",
          "type": "function"
        },
        {
          "inputs": [],
          "name": "owner",
          "outputs": [
            {
              "internalType": "address",
              "name": "",
              "type": "address"
            }
          ],
          "stateMutability": "view",
          "type": "function"
        },
        {
          "inputs": [],
          "name": "renounceOwnership",
          "outputs": [],
          "stateMutability": "nonpayable",
          "type": "function"
        },
        {
          "inputs": [
            {
              "internalType": "address",
              "name": "deployer",
              "type": "address"
            },
            {
              "internalType": "bool",
              "name": "allowed",
              "type": "bool"
            }
          ],
          "name": "setAllowedDeployer",
          "outputs": [],
          "stateMutability": "nonpayable",
          "type": "function"
        },
        {
          "inputs": [
            {
              "internalType": "address",
              "name": "merge",
              "type": "address"
            }
          ],
          "name": "setMerge",
          "outputs": [],
          "stateMutability": "nonpayable",
          "type": "function"
        },
        {
          "inputs": [
            {
              "internalType": "address",
              "name": "merge",
              "type": "address"
            },
            {
              "internalType": "enum MergeFactory.MergeType",
              "name": "mergeType",
              "type": "uint8"
            }
          ],
          "name": "setMergeWithType",
          "outputs": [],
          "stateMutability": "nonpayable",
          "type": "function"
        },
        {
          "inputs": [
            {
              "internalType": "address",
              "name": "token",
              "type": "address"
            },
            {
              "internalType": "enum MergeFactory.MergeType",
              "name": "mergeType",
              "type": "uint8"
            }
          ],
          "name": "setType",
          "outputs": [],
          "stateMutability": "nonpayable",
          "type": "function"
        },
        {
          "inputs": [
            {
              "internalType": "uint256",
              "name": "",
              "type": "uint256"
            }
          ],
          "name": "tokens",
          "outputs": [
            {
              "internalType": "address",
              "name": "",
              "type": "address"
            }
          ],
          "stateMutability": "view",
          "type": "function"
        },
        {
          "inputs": [
            {
              "internalType": "address",
              "name": "newOwner",
              "type": "address"
            }
          ],
          "name": "transferOwnership",
          "outputs": [],
          "stateMutability": "nonpayable",
          "type": "function"
        },
        {
          "inputs": [],
          "name": "wewe",
          "outputs": [
            {
              "internalType": "address",
              "name": "",
              "type": "address"
            }
          ],
          "stateMutability": "view",
          "type": "function"
        }
      ],
      "evm": {
        "bytecode": {
          "linkReferences": {},
          "object": "6080806040523461006f5760008054336001600160a01b0319821681178355604092916001600160a01b03167f8be0079c531659141344cd1fd0a4f28419497f9722a3daafe3b4186f6b6457e08380a3338152600460205220805460ff1916600117905561304090816100758239f35b600080fdfe6080604081815260048036101561001557600080fd5b600092833560e01c9081631d06f92b146106a057508063346656461461063557806339db25f7146105e15780634f64b2be146105a15780636d09021814610565578063715018a61461050b5780637f389fd5146104b1578063870a6a87146103875780638da5cb5b1461035f5780639dc79be4146102c9578063a49a7cb114610294578063b49757a6146101fb578063e1f26f22146101cc578063e441eebf1461018d5763f2fde38b146100c857600080fd5b34610189576020366003190112610189576100e16106bc565b906100ea610747565b6001600160a01b0391821692831561013757505082546001600160a01b0319811683178455167f8be0079c531659141344cd1fd0a4f28419497f9722a3daafe3b4186f6b6457e08380a380f35b906020608492519162461bcd60e51b8352820152602660248201527f4f776e61626c653a206e6577206f776e657220697320746865207a65726f206160448201526564647265737360d01b6064820152fd5b8280fd5b5050346101c85760203660031901126101c8576020916001600160a01b03908290826101b76106bc565b168152600285522054169051908152f35b5080fd5b5050346101c857816003193601126101c85760209051736b9bb36519538e0c073894e964e90172e1c0b41f8152f35b5034610189576020366003190112610189576102156106bc565b9061021e610747565b82516321df0da760e01b8152906020908290816001600160a01b0386165afa9081156102875761025693508491610259575b50610b06565b80f35b61027a915060203d8111610280575b6102728183610878565b810190610ab9565b38610250565b503d610268565b50505051903d90823e3d90fd5b5050346101c857610256906102a836610718565b91906102b2610747565b6001600160a01b0316845260036020528320610ad8565b509034610189576102d936610718565b9190926102e4610747565b81516321df0da760e01b8152936001600160a01b03916020908690818585165afa90811561035557610256958792610331575b506103229082610b06565b16845260036020528320610ad8565b61032291925061034e9060203d8111610280576102728183610878565b9190610317565b83513d88823e3d90fd5b5050346101c857816003193601126101c857905490516001600160a01b039091168152602090f35b509190346101c85760603660031901126101c8576103a36106bc565b926103ac6106d7565b338452816020526103c260ff848620541661079f565b6001600160a01b038581168086526002602052848620549192916103e8908416156107f7565b84519161138f918284019284841067ffffffffffffffff85111761049e5784926060949260ff92611c7c86398352736b9bb36519538e0c073894e964e90172e1c0b41f6020840152168782015203019085f08015610287571692833b1561049b578251916334fcf43760e01b835260243590830152808260248183885af190811561049057506020946104819285926104875750610b06565b51908152f35b61027a9061084e565b8351903d90823e3d90fd5b80fd5b634e487b7160e01b895260418752602489fd5b509190346101c85760203660031901126101c8576001600160a01b036104d56106bc565b168252600360205260ff818320541690519160028210156104f857602083838152f35b634e487b7160e01b815260218452602490fd5b833461049b578060031936011261049b57610524610747565b80546001600160a01b03198116825581906001600160a01b03167f8be0079c531659141344cd1fd0a4f28419497f9722a3daafe3b4186f6b6457e08280a380f35b50346101895760203660031901126101895760209260ff918391906001600160a01b036105906106bc565b168252855220541690519015158152f35b503461018957602036600319011261018957359160015483101561049b57506105cb6020926106e7565b905491519160018060a01b039160031b1c168152f35b5090346101895780600319360112610189576105fb6106bc565b916024359283151580940361063157610612610747565b60018060a01b0316845260205282209060ff8019835416911617905580f35b8480fd5b50346101895760803660031901126101895761064f6106bc565b6106576106d7565b9060643592600284101561069c579061068260ff8660209861068b9796953382528a5220541661079f565b6024359061089a565b90516001600160a01b039091168152f35b8580fd5b8490346101c857816003193601126101c8576020906001548152f35b600435906001600160a01b03821682036106d257565b600080fd5b6044359060ff821682036106d257565b60015481101561070257600160005260206000200190600090565b634e487b7160e01b600052603260045260246000fd5b60409060031901126106d2576004356001600160a01b03811681036106d2579060243560028110156106d25790565b6000546001600160a01b0316330361075b57565b606460405162461bcd60e51b815260206004820152602060248201527f4f776e61626c653a2063616c6c6572206973206e6f7420746865206f776e65726044820152fd5b156107a657565b60405162461bcd60e51b815260206004820152602360248201527f4d65726765466163746f72793a204e6f7420616c6c6f77656420746f206465706044820152626c6f7960e81b6064820152608490fd5b156107fe57565b60405162461bcd60e51b815260206004820152602260248201527f4d65726765466163746f72793a204d6572676520616c72656164792065786973604482015261747360f01b6064820152608490fd5b67ffffffffffffffff811161086257604052565b634e487b7160e01b600052604160045260246000fd5b90601f8019910116810190811067ffffffffffffffff82111761086257604052565b9190600093849260018060a01b03918286169081885260026020526040976108c7858a83205416156107f7565b6002821015610aa55781156109fb5750600114610921576064875162461bcd60e51b815260206004820152602060248201527f4d65726765466163746f72793a20496e76616c6964206d6572676520747970656044820152fd5b86519161138f918284019284841067ffffffffffffffff8511176109e75784926060949260ff92611c7c86398352736b9bb36519538e0c073894e964e90172e1c0b41f6020840152168982015203019084f080156109dd571693843b15610189578051916334fcf43760e01b83526004830152828260248183895af19081156109d45750908492916109bc575b50506109b991610b06565b90565b8192506109c89061084e565b61049b578083916109ae565b513d84823e3d90fd5b85513d85823e3d90fd5b634e487b7160e01b88526041600452602488fd5b955050865191611079918284019284841067ffffffffffffffff8511176109e75784926060949260ff92610c038639736b9bb36519538e0c073894e964e90172e1c0b41f84526020840152168982015203019084f080156109dd571693843b15610189578051916334fcf43760e01b83526004830152828260248183895af19081156109d45750916109b993918593610a96575b5050610b06565b610a9f9061084e565b38610a8f565b634e487b7160e01b81526021600452602490fd5b908160209103126106d257516001600160a01b03811681036106d25790565b906002811015610af05760ff80198354169116179055565b634e487b7160e01b600052602160045260246000fd5b6001600160a01b03908116908115610bbd576000908282526002602052610b3381604084205416156107f7565b600154600160401b811015610ba95790610b758260017fe413d0f68462f6240160d618a454469f475317b43867a99c353c0acc7bf4ec1b9594016001556106e7565b81549060031b908387831b921b19161790558382526002602052604082209416938460018060a01b031982541617905580a3565b634e487b7160e01b83526041600452602483fd5b60405162461bcd60e51b815260206004820152601b60248201527f4d65726765466163746f72793a20496e76616c6964206d6572676500000000006044820152606490fdfe60803461010557601f61107938819003918201601f19168301916001600160401b0383118484101761010a578084926060946040528339810103126101055761004781610120565b604061005560208401610120565b9201519160ff83168303610105576001600081815581546001600160a81b031980821633600881811b610100600160a81b0316929092179095556040519791946001600160a01b039492939092911c8416907f8be0079c531659141344cd1fd0a4f28419497f9722a3daafe3b4186f6b6457e09080a3606460025581600454941660018060a01b0319600354161760035560ff60a01b9060a01b16931691161717600455610f4490816101358239f35b600080fd5b634e487b7160e01b600052604160045260246000fd5b51906001600160a01b03821682036101055756fe6080604081815260048036101561001557600080fd5b600092833560e01c90816321df0da714610a575750806324a47aeb1461095c57806334fcf437146108a957806335faa416146107615780634e71d92d146106d05780635c975abb146106ac578063679aefce1461068d57806370a0823114610655578063715018a6146105f15780638da5cb5b146105c45780638f4ffcb11461049d57838163b6b55f25146103f457508063bf3506c1146103b5578063c4ae3168146102d2578063daf498631461028c578063e1f26f2214610265578063ea9f2417146101c65763f2fde38b146100eb57600080fd5b346101c25760203660031901126101c257610104610a7c565b61010c610a97565b6001600160a01b0381811693909290841561017057505060018054610100600160a81b03198116600893841b610100600160a81b031617909155901c167f8be0079c531659141344cd1fd0a4f28419497f9722a3daafe3b4186f6b6457e08380a380f35b906020608492519162461bcd60e51b8352820152602660248201527f4f776e61626c653a206e6577206f776e657220697320746865207a65726f206160448201526564647265737360d01b6064820152fd5b8280fd5b5090346101c257826003193601126101c2576101e0610b42565b60035481516370a0823160e01b815233938101939093526001600160a01b0316602083602481845afa91821561025c57508391610227575b61022492503391610ba9565b80f35b90506020823d8211610254575b8161024160209383610af2565b810103126101c257610224915190610218565b3d9150610234565b513d85823e3d90fd5b50346101c257826003193601126101c2575490516001600160a01b03909116815260209150f35b5050346102ce5760203660031901126102ce579081906001600160a01b036102b2610a7c565b1681526005602052206001815491015482519182526020820152f35b5080fd5b50346101c257826003193601126101c2576102eb610a97565b60015460ff81161561037457506001549060ff82161561033a575060ff1916600155513381527f5db9ee0a495bf2e6ff9c91a7834c1ba4fdd244a5e8aa4e537bd38aeae4b073aa90602090a180f35b606490602084519162461bcd60e51b8352820152601460248201527314185d5cd8589b194e881b9bdd081c185d5cd95960621b6044820152fd5b602091509160017f62e78cea01bee320cd4e420270b5ea74000d11b0c9f74754ebdbfc544b05a258936103a5610b42565b60ff19161760015551338152a180f35b5050346102ce5760203660031901126102ce5760209160019082906001600160a01b036103e0610a7c565b168152600585522001549051904210158152f35b8084843461049957602036600319011261049957610451602091610416610a97565b805484516323b872dd60e01b815233818401908152306020820152923560408401529586936001600160a01b03909216928492839160600190565b03925af19081156104905750610465575080f35b6104859060203d8111610489575b61047d8183610af2565b810190610b2a565b5080f35b503d610473565b513d84823e3d90fd5b5050fd5b508290346102ce5760803660031901126102ce576104b9610a7c565b906001600160a01b03604435818116036105bc5760643567ffffffffffffffff8082116105c057366023830112156105c057818401359081116105c057369101602401116105bc5760028454146105795760028455610516610b42565b6003541690811561053657509061052f91602435610ba9565b6001815580f35b606490602086519162461bcd60e51b8352820152601c60248201527f45617465723a20546f6b656e2061646472657373206e6f7420736574000000006044820152fd5b845162461bcd60e51b8152602081840152601f60248201527f5265656e7472616e637947756172643a207265656e7472616e742063616c6c006044820152606490fd5b8380fd5b8580fd5b5050346102ce57816003193601126102ce57600154905160089190911c6001600160a01b03168152602090f35b833461065257806003193601126106525761060a610a97565b60018054610100600160a81b03198116909155819060081c6001600160a01b03167f8be0079c531659141344cd1fd0a4f28419497f9722a3daafe3b4186f6b6457e08280a380f35b80fd5b5050346102ce5760203660031901126102ce5760209181906001600160a01b0361067d610a7c565b1681526005845220549051908152f35b5050346102ce57816003193601126102ce576020906002549051908152f35b5050346102ce57816003193601126102ce5760209060ff6001541690519015158152f35b5090346101c257826003193601126101c2576106ea610b42565b60ff825460a01c1615610754575b33835260056020526001818420015442106107165782610224610e93565b906020606492519162461bcd60e51b8352820152601860248201527711585d195c8e8815995cdd1a5b99c81b9bdd08195b99195960421b6044820152fd5b61075c610e93565b6106f8565b509190346102ce57816003193601126102ce5761077c610a97565b825481516370a0823160e01b8152308186015293602092916001600160a01b0390811691908487602481865afa96871561089f578697610870575b50861561082d57600154845163a9059cbb60e01b81526001600160a01b0360089290921c90921616918101918252602082018790529291849184919082908890829060400103925af190811561025c5750610810578280f35b8161082692903d106104895761047d8183610af2565b5081808280f35b835162461bcd60e51b8152808301869052601a60248201527f45617465723a204e6f2062616c616e636520746f2073776565700000000000006044820152606490fd5b9096508481813d8311610898575b6108888183610af2565b810103126105c0575195386107b7565b503d61087e565b84513d88823e3d90fd5b5090346101c25760203660031901126101c2578135916108c7610a97565b821561090f575081600254036108db578280f35b816020917f595a30f13a69b616c4d568e2a2b7875fdfe86e4300a049953c76ee278f8f3f109360025551908152a138808280f35b6020608492519162461bcd60e51b8352820152602260248201527f45617465723a2052617465206d7573742062652067726561746572207468616e604482015261020360f41b6064820152fd5b508290346102ce576020806003193601126101c25781359161097c610b42565b60035485516370a0823160e01b815233838201526001600160a01b0390911692908181602481875afa908115610a4d579085918791610a1c575b50106109c85784610224338587610ba9565b855162461bcd60e51b815291820152602960248201527f47656e657269634d657267653a20496e73756666696369656e742062616c616e60448201526818d9481d1bc819585d60ba1b606482015260849150fd5b809250838092503d8311610a46575b610a358183610af2565b810103126105c057849051886109b6565b503d610a2b565b87513d88823e3d90fd5b8490346102ce57816003193601126102ce576003546001600160a01b03168152602090f35b600435906001600160a01b0382168203610a9257565b600080fd5b60015460081c6001600160a01b03163303610aae57565b606460405162461bcd60e51b815260206004820152602060248201527f4f776e61626c653a2063616c6c6572206973206e6f7420746865206f776e65726044820152fd5b90601f8019910116810190811067ffffffffffffffff821117610b1457604052565b634e487b7160e01b600052604160045260246000fd5b90816020910312610a9257518015158103610a925790565b60ff60015416610b4e57565b60405162461bcd60e51b815260206004820152601060248201526f14185d5cd8589b194e881c185d5cd95960821b6044820152606490fd5b91908201809211610b9357565b634e487b7160e01b600052601160045260246000fd5b929192600254808202908282041482151715610b9357606490049060018060a01b03926004958487541693604092835180966370a0823160e01b8252308b8301528160246020998a935afa908115610e8857600091610e5b575b508211610e025783516323b872dd60e01b81526001600160a01b0384168a820190815230602082015260408101879052909187918391908290036060019082906000908c165af18015610df757610dda575b5085821695866000526005865283600020549289549160ff8360a01c161515600014610d415750505090610c8891610b86565b956201518060ff825460a01c160262ffffff8116908103610d2c57610cad9042610b86565b968251918383019083821067ffffffffffffffff831117610d175750976001917fadc41ba80ffa0859aab1d7cf405a6633a6af94fc3d10e5b0e0bf46cdcc0fd9c89798998552835285830190815233600052600586528360002092518355519101555b51908152a2565b604190634e487b7160e01b6000525260246000fd5b601182634e487b7160e01b6000525260246000fd5b855163a9059cbb60e01b81526001600160a01b039092169a82019a8b5260208b019390935298869350899283916000919083906040010393165af1958615610dcf577fadc41ba80ffa0859aab1d7cf405a6633a6af94fc3d10e5b0e0bf46cdcc0fd9c8949596610db2575b50610d10565b610dc890843d86116104895761047d8183610af2565b5038610dac565b50513d6000823e3d90fd5b610df090863d88116104895761047d8183610af2565b5038610c55565b84513d6000823e3d90fd5b835162461bcd60e51b8152808a01879052602d60248201527f45617465723a20496e73756666696369656e7420746f6b656e2062616c616e6360448201526c32903a37903a3930b739b332b960991b6064820152608490fd5b908782813d8311610e81575b610e718183610af2565b8101031261065257505138610c03565b503d610e67565b85513d6000823e3d90fd5b33600081815260056020908152604080832080549084905560048054925163a9059cbb60e01b81529081019590955260248501529091839160449183916001600160a01b03165af18015610f0257610ee85750565b610eff9060203d81116104895761047d8183610af2565b50565b6040513d6000823e3d90fdfea2646970667358221220d039c1416637b14eb2da3f4db2f9e762530d94665aaec3eeb40486c7b83e9d7664736f6c6343000813003360803461010557601f61138f38819003918201601f19168301916001600160401b0383118484101761010a578084926060946040528339810103126101055761004781610120565b604061005560208401610120565b9201519160ff83168303610105576001600081815581546001600160a81b031980821633600881811b610100600160a81b0316929092179095556040519791946001600160a01b039492939092911c8416907f8be0079c531659141344cd1fd0a4f28419497f9722a3daafe3b4186f6b6457e09080a3606460025581600454941660018060a01b0319600354161760035560ff60a01b9060a01b1693169116171760045561125a90816101358239f35b600080fd5b634e487b7160e01b600052604160045260246000fd5b51906001600160a01b03821682036101055756fe6040608081526004908136101561001557600080fd5b600091823560e01c8063213897fe14610ab657806321df0da714610a8d57806324a47aeb1461099257806334fcf437146108df57806335faa416146107935780634e71d92d146107025780635c975abb146106de57806361d027b3146106b5578063679aefce1461069657806370a082311461065e578063715018a6146105fd5780638da5cb5b146105d05780638f4ffcb11461050457838163b6b55f251461045b57508063bf3506c11461041c578063c4ae316814610339578063daf49863146102f3578063e1f26f22146102cc578063ea9f24171461022d578063f0f44260146101e55763f2fde38b1461010a57600080fd5b346101e15760203660031901126101e157610123610d41565b61012b610d57565b6001600160a01b0381811693909290841561018f57505060018054610100600160a81b03198116600893841b610100600160a81b031617909155901c167f8be0079c531659141344cd1fd0a4f28419497f9722a3daafe3b4186f6b6457e08380a380f35b906020608492519162461bcd60e51b8352820152602660248201527f4f776e61626c653a206e6577206f776e657220697320746865207a65726f206160448201526564647265737360d01b6064820152fd5b8280fd5b833461022a57602036600319011261022a576101ff610d41565b610207610d57565b600680546001600160a01b0319166001600160a01b039290921691909117905580f35b80fd5b5090346101e157826003193601126101e157610247610e02565b60035481516370a0823160e01b815233938101939093526001600160a01b0316602083602481845afa9182156102c35750839161028e575b61028b92503391610ebf565b80f35b90506020823d82116102bb575b816102a860209383610db2565b810103126101e15761028b91519061027f565b3d915061029b565b513d85823e3d90fd5b50346101e157826003193601126101e1575490516001600160a01b03909116815260209150f35b505034610335576020366003190112610335579081906001600160a01b03610319610d41565b1681526005602052206001815491015482519182526020820152f35b5080fd5b50346101e157826003193601126101e157610352610d57565b60015460ff8116156103db57506001549060ff8216156103a1575060ff1916600155513381527f5db9ee0a495bf2e6ff9c91a7834c1ba4fdd244a5e8aa4e537bd38aeae4b073aa90602090a180f35b606490602084519162461bcd60e51b8352820152601460248201527314185d5cd8589b194e881b9bdd081c185d5cd95960621b6044820152fd5b602091509160017f62e78cea01bee320cd4e420270b5ea74000d11b0c9f74754ebdbfc544b05a2589361040c610e02565b60ff19161760015551338152a180f35b5050346103355760203660031901126103355760209160019082906001600160a01b03610447610d41565b168152600585522001549051904210158152f35b80848434610500576020366003190112610500576104b860209161047d610d57565b805484516323b872dd60e01b815233818401908152306020820152923560408401529586936001600160a01b03909216928492839160600190565b03925af19081156104f757506104cc575080f35b6104ec9060203d81116104f0575b6104e48183610db2565b810190610dea565b5080f35b503d6104da565b513d84823e3d90fd5b5050fd5b5082903461033557608036600319011261033557610520610d41565b906001600160a01b03604435818116036105cc5760643567ffffffffffffffff81116105c8576105539036908401610d0e565b505061055d610e46565b610565610e02565b6003541690811561058557509061057e91602435610ebf565b6001815580f35b606490602086519162461bcd60e51b8352820152601c60248201527f45617465723a20546f6b656e2061646472657373206e6f7420736574000000006044820152fd5b8480fd5b8380fd5b505034610335578160031936011261033557600154905160089190911c6001600160a01b03168152602090f35b833461022a578060031936011261022a57610616610d57565b60018054610100600160a81b03198116909155819060081c6001600160a01b03167f8be0079c531659141344cd1fd0a4f28419497f9722a3daafe3b4186f6b6457e08280a380f35b5050346103355760203660031901126103355760209181906001600160a01b03610686610d41565b1681526005845220549051908152f35b5050346103355781600319360112610335576020906002549051908152f35b50503461033557816003193601126103355760065490516001600160a01b039091168152602090f35b50503461033557816003193601126103355760209060ff6001541690519015158152f35b5090346101e157826003193601126101e15761071c610e02565b60ff825460a01c1615610786575b3383526005602052600181842001544210610748578261028b6111a9565b906020606492519162461bcd60e51b8352820152601860248201527711585d195c8e8815995cdd1a5b99c81b9bdd08195b99195960421b6044820152fd5b61078e6111a9565b61072a565b509190346103355781600319360112610335576107ae610d57565b825481516370a0823160e01b8152308186015293602092916001600160a01b0390811691908487602481865afa9687156108d55786976108a2575b50861561085f57600154845163a9059cbb60e01b81526001600160a01b0360089290921c90921616918101918252602082018790529291849184919082908890829060400103925af19081156102c35750610842578280f35b8161085892903d106104f0576104e48183610db2565b5081808280f35b835162461bcd60e51b8152808301869052601a60248201527f45617465723a204e6f2062616c616e636520746f2073776565700000000000006044820152606490fd5b9096508481813d83116108ce575b6108ba8183610db2565b810103126108ca575195386107e9565b8580fd5b503d6108b0565b84513d88823e3d90fd5b5090346101e15760203660031901126101e1578135916108fd610d57565b821561094557508160025403610911578280f35b816020917f595a30f13a69b616c4d568e2a2b7875fdfe86e4300a049953c76ee278f8f3f109360025551908152a138808280f35b6020608492519162461bcd60e51b8352820152602260248201527f45617465723a2052617465206d7573742062652067726561746572207468616e604482015261020360f41b6064820152fd5b50829034610335576020806003193601126101e1578135916109b2610e02565b60035485516370a0823160e01b815233838201526001600160a01b0390911692908181602481875afa908115610a83579085918791610a52575b50106109fe578461028b338587610ebf565b855162461bcd60e51b815291820152602960248201527f47656e657269634d657267653a20496e73756666696369656e742062616c616e60448201526818d9481d1bc819585d60ba1b606482015260849150fd5b809250838092503d8311610a7c575b610a6b8183610db2565b810103126108ca57849051886109ec565b503d610a61565b87513d88823e3d90fd5b50503461033557816003193601126103355760035490516001600160a01b039091168152602090f35b50346101e15760603660031901126101e1578035916001600160a01b03602435818116908190036108ca5760443567ffffffffffffffff8111610d0a57610b009036908601610d0e565b959094610b0b610e46565b60035485516370a0823160e01b81523383820152602098918616908981602481855afa908115610d00579085918c91610ccb575b5010610c735790610b548a9392339086610ebf565b600354875163095ea7b360e01b81526001600160a01b0387168482019081526020810187905290918b9183918a169082908890829060400103925af18015610c6957918a97969594939160a493610c4c575b508087600654168015600014610c465750309a5b8860035416988b519c8d9a8b998a976302454b7160e41b8952880152602487015216604485015260806064850152816084850152848401378181018301849052601f01601f191681010301925af19081156102c35750610c1d575b826001815580f35b813d8311610c3f575b610c308183610db2565b8101031261022a573880610c15565b503d610c26565b9a610bba565b610c6290893d8b116104f0576104e48183610db2565b5038610ba6565b88513d86823e3d90fd5b865162461bcd60e51b81528084018a9052602c60248201527f4d65726765576974684d61726b65743a20496e73756666696369656e7420626160448201526b1b185b98d9481d1bc819585d60a21b6064820152608490fd5b8092508b8092503d8311610cf9575b610ce48183610db2565b81010312610cf55784905138610b3f565b8a80fd5b503d610cda565b88513d8d823e3d90fd5b8680fd5b9181601f84011215610d3c5782359167ffffffffffffffff8311610d3c5760208381860195010111610d3c57565b600080fd5b600435906001600160a01b0382168203610d3c57565b60015460081c6001600160a01b03163303610d6e57565b606460405162461bcd60e51b815260206004820152602060248201527f4f776e61626c653a2063616c6c6572206973206e6f7420746865206f776e65726044820152fd5b90601f8019910116810190811067ffffffffffffffff821117610dd457604052565b634e487b7160e01b600052604160045260246000fd5b90816020910312610d3c57518015158103610d3c5790565b60ff60015416610e0e57565b60405162461bcd60e51b815260206004820152601060248201526f14185d5cd8589b194e881c185d5cd95960821b6044820152606490fd5b600260005414610e57576002600055565b60405162461bcd60e51b815260206004820152601f60248201527f5265656e7472616e637947756172643a207265656e7472616e742063616c6c006044820152606490fd5b91908201809211610ea957565b634e487b7160e01b600052601160045260246000fd5b929192600254808202908282041482151715610ea957606490049060018060a01b03926004958487541693604092835180966370a0823160e01b8252308b8301528160246020998a935afa90811561119e57600091611171575b5082116111185783516323b872dd60e01b81526001600160a01b0384168a820190815230602082015260408101879052909187918391908290036060019082906000908c165af1801561110d576110f0575b5085821695866000526005865283600020549289549160ff8360a01c1615156000146110575750505090610f9e91610e9c565b956201518060ff825460a01c160262ffffff811690810361104257610fc39042610e9c565b968251918383019083821067ffffffffffffffff83111761102d5750976001917fadc41ba80ffa0859aab1d7cf405a6633a6af94fc3d10e5b0e0bf46cdcc0fd9c89798998552835285830190815233600052600586528360002092518355519101555b51908152a2565b604190634e487b7160e01b6000525260246000fd5b601182634e487b7160e01b6000525260246000fd5b855163a9059cbb60e01b81526001600160a01b039092169a82019a8b5260208b019390935298869350899283916000919083906040010393165af19586156110e5577fadc41ba80ffa0859aab1d7cf405a6633a6af94fc3d10e5b0e0bf46cdcc0fd9c89495966110c8575b50611026565b6110de90843d86116104f0576104e48183610db2565b50386110c2565b50513d6000823e3d90fd5b61110690863d88116104f0576104e48183610db2565b5038610f6b565b84513d6000823e3d90fd5b835162461bcd60e51b8152808a01879052602d60248201527f45617465723a20496e73756666696369656e7420746f6b656e2062616c616e6360448201526c32903a37903a3930b739b332b960991b6064820152608490fd5b908782813d8311611197575b6111878183610db2565b8101031261022a57505138610f19565b503d61117d565b85513d6000823e3d90fd5b33600081815260056020908152604080832080549084905560048054925163a9059cbb60e01b81529081019590955260248501529091839160449183916001600160a01b03165af18015611218576111fe5750565b6112159060203d81116104f0576104e48183610db2565b50565b6040513d6000823e3d90fdfea264697066735822122069d0e25764841f89a970bb88a3f00e302952ae3d61039c42b3101e1bcd7a98b164736f6c63430008130033a26469706673582212203c60116314a4ee4502681755213a3e5652ac5dfbcf72fe3b438b2d335dcecf0464736f6c63430008130033",
          "opcodes": "PUSH1 0x80 DUP1 PUSH1 0x40 MSTORE CALLVALUE PUSH2 0x6F JUMPI PUSH1 0x0 DUP1 SLOAD CALLER PUSH1 0x1 PUSH1 0x1 PUSH1 0xA0 SHL SUB NOT DUP3 AND DUP2 OR DUP4 SSTORE PUSH1 0x40 SWAP3 SWAP2 PUSH1 0x1 PUSH1 0x1 PUSH1 0xA0 SHL SUB AND PUSH32 0x8BE0079C531659141344CD1FD0A4F28419497F9722A3DAAFE3B4186F6B6457E0 DUP4 DUP1 LOG3 CALLER DUP2 MSTORE PUSH1 0x4 PUSH1 0x20 MSTORE KECCAK256 DUP1 SLOAD PUSH1 0xFF NOT AND PUSH1 0x1 OR SWAP1 SSTORE PUSH2 0x3040 SWAP1 DUP2 PUSH2 0x75 DUP3 CODECOPY RETURN JUMPDEST PUSH1 0x0 DUP1 REVERT INVALID PUSH1 0x80 PUSH1 0x40 DUP2 DUP2 MSTORE PUSH1 0x4 DUP1 CALLDATASIZE LT ISZERO PUSH2 0x15 JUMPI PUSH1 0x0 DUP1 REVERT JUMPDEST PUSH1 0x0 SWAP3 DUP4 CALLDATALOAD PUSH1 0xE0 SHR SWAP1 DUP2 PUSH4 0x1D06F92B EQ PUSH2 0x6A0 JUMPI POP DUP1 PUSH4 0x34665646 EQ PUSH2 0x635 JUMPI DUP1 PUSH4 0x39DB25F7 EQ PUSH2 0x5E1 JUMPI DUP1 PUSH4 0x4F64B2BE EQ PUSH2 0x5A1 JUMPI DUP1 PUSH4 0x6D090218 EQ PUSH2 0x565 JUMPI DUP1 PUSH4 0x715018A6 EQ PUSH2 0x50B JUMPI DUP1 PUSH4 0x7F389FD5 EQ PUSH2 0x4B1 JUMPI DUP1 PUSH4 0x870A6A87 EQ PUSH2 0x387 JUMPI DUP1 PUSH4 0x8DA5CB5B EQ PUSH2 0x35F JUMPI DUP1 PUSH4 0x9DC79BE4 EQ PUSH2 0x2C9 JUMPI DUP1 PUSH4 0xA49A7CB1 EQ PUSH2 0x294 JUMPI DUP1 PUSH4 0xB49757A6 EQ PUSH2 0x1FB JUMPI DUP1 PUSH4 0xE1F26F22 EQ PUSH2 0x1CC JUMPI DUP1 PUSH4 0xE441EEBF EQ PUSH2 0x18D JUMPI PUSH4 0xF2FDE38B EQ PUSH2 0xC8 JUMPI PUSH1 0x0 DUP1 REVERT JUMPDEST CALLVALUE PUSH2 0x189 JUMPI PUSH1 0x20 CALLDATASIZE PUSH1 0x3 NOT ADD SLT PUSH2 0x189 JUMPI PUSH2 0xE1 PUSH2 0x6BC JUMP JUMPDEST SWAP1 PUSH2 0xEA PUSH2 0x747 JUMP JUMPDEST PUSH1 0x1 PUSH1 0x1 PUSH1 0xA0 SHL SUB SWAP2 DUP3 AND SWAP3 DUP4 ISZERO PUSH2 0x137 JUMPI POP POP DUP3 SLOAD PUSH1 0x1 PUSH1 0x1 PUSH1 0xA0 SHL SUB NOT DUP2 AND DUP4 OR DUP5 SSTORE AND PUSH32 0x8BE0079C531659141344CD1FD0A4F28419497F9722A3DAAFE3B4186F6B6457E0 DUP4 DUP1 LOG3 DUP1 RETURN JUMPDEST SWAP1 PUSH1 0x20 PUSH1 0x84 SWAP3 MLOAD SWAP2 PUSH3 0x461BCD PUSH1 0xE5 SHL DUP4 MSTORE DUP3 ADD MSTORE PUSH1 0x26 PUSH1 0x24 DUP3 ADD MSTORE PUSH32 0x4F776E61626C653A206E6577206F776E657220697320746865207A65726F2061 PUSH1 0x44 DUP3 ADD MSTORE PUSH6 0x646472657373 PUSH1 0xD0 SHL PUSH1 0x64 DUP3 ADD MSTORE REVERT JUMPDEST DUP3 DUP1 REVERT JUMPDEST POP POP CALLVALUE PUSH2 0x1C8 JUMPI PUSH1 0x20 CALLDATASIZE PUSH1 0x3 NOT ADD SLT PUSH2 0x1C8 JUMPI PUSH1 0x20 SWAP2 PUSH1 0x1 PUSH1 0x1 PUSH1 0xA0 SHL SUB SWAP1 DUP3 SWAP1 DUP3 PUSH2 0x1B7 PUSH2 0x6BC JUMP JUMPDEST AND DUP2 MSTORE PUSH1 0x2 DUP6 MSTORE KECCAK256 SLOAD AND SWAP1 MLOAD SWAP1 DUP2 MSTORE RETURN JUMPDEST POP DUP1 REVERT JUMPDEST POP POP CALLVALUE PUSH2 0x1C8 JUMPI DUP2 PUSH1 0x3 NOT CALLDATASIZE ADD SLT PUSH2 0x1C8 JUMPI PUSH1 0x20 SWAP1 MLOAD PUSH20 0x6B9BB36519538E0C073894E964E90172E1C0B41F DUP2 MSTORE RETURN JUMPDEST POP CALLVALUE PUSH2 0x189 JUMPI PUSH1 0x20 CALLDATASIZE PUSH1 0x3 NOT ADD SLT PUSH2 0x189 JUMPI PUSH2 0x215 PUSH2 0x6BC JUMP JUMPDEST SWAP1 PUSH2 0x21E PUSH2 0x747 JUMP JUMPDEST DUP3 MLOAD PUSH4 0x21DF0DA7 PUSH1 0xE0 SHL DUP2 MSTORE SWAP1 PUSH1 0x20 SWAP1 DUP3 SWAP1 DUP2 PUSH1 0x1 PUSH1 0x1 PUSH1 0xA0 SHL SUB DUP7 AND GAS STATICCALL SWAP1 DUP2 ISZERO PUSH2 0x287 JUMPI PUSH2 0x256 SWAP4 POP DUP5 SWAP2 PUSH2 0x259 JUMPI JUMPDEST POP PUSH2 0xB06 JUMP JUMPDEST DUP1 RETURN JUMPDEST PUSH2 0x27A SWAP2 POP PUSH1 0x20 RETURNDATASIZE DUP2 GT PUSH2 0x280 JUMPI JUMPDEST PUSH2 0x272 DUP2 DUP4 PUSH2 0x878 JUMP JUMPDEST DUP2 ADD SWAP1 PUSH2 0xAB9 JUMP JUMPDEST CODESIZE PUSH2 0x250 JUMP JUMPDEST POP RETURNDATASIZE PUSH2 0x268 JUMP JUMPDEST POP POP POP MLOAD SWAP1 RETURNDATASIZE SWAP1 DUP3 RETURNDATACOPY RETURNDATASIZE SWAP1 REVERT JUMPDEST POP POP CALLVALUE PUSH2 0x1C8 JUMPI PUSH2 0x256 SWAP1 PUSH2 0x2A8 CALLDATASIZE PUSH2 0x718 JUMP JUMPDEST SWAP2 SWAP1 PUSH2 0x2B2 PUSH2 0x747 JUMP JUMPDEST PUSH1 0x1 PUSH1 0x1 PUSH1 0xA0 SHL SUB AND DUP5 MSTORE PUSH1 0x3 PUSH1 0x20 MSTORE DUP4 KECCAK256 PUSH2 0xAD8 JUMP JUMPDEST POP SWAP1 CALLVALUE PUSH2 0x189 JUMPI PUSH2 0x2D9 CALLDATASIZE PUSH2 0x718 JUMP JUMPDEST SWAP2 SWAP1 SWAP3 PUSH2 0x2E4 PUSH2 0x747 JUMP JUMPDEST DUP2 MLOAD PUSH4 0x21DF0DA7 PUSH1 0xE0 SHL DUP2 MSTORE SWAP4 PUSH1 0x1 PUSH1 0x1 PUSH1 0xA0 SHL SUB SWAP2 PUSH1 0x20 SWAP1 DUP7 SWAP1 DUP2 DUP6 DUP6 AND GAS STATICCALL SWAP1 DUP2 ISZERO PUSH2 0x355 JUMPI PUSH2 0x256 SWAP6 DUP8 SWAP3 PUSH2 0x331 JUMPI JUMPDEST POP PUSH2 0x322 SWAP1 DUP3 PUSH2 0xB06 JUMP JUMPDEST AND DUP5 MSTORE PUSH1 0x3 PUSH1 0x20 MSTORE DUP4 KECCAK256 PUSH2 0xAD8 JUMP JUMPDEST PUSH2 0x322 SWAP2 SWAP3 POP PUSH2 0x34E SWAP1 PUSH1 0x20 RETURNDATASIZE DUP2 GT PUSH2 0x280 JUMPI PUSH2 0x272 DUP2 DUP4 PUSH2 0x878 JUMP JUMPDEST SWAP2 SWAP1 PUSH2 0x317 JUMP JUMPDEST DUP4 MLOAD RETURNDATASIZE DUP9 DUP3 RETURNDATACOPY RETURNDATASIZE SWAP1 REVERT JUMPDEST POP POP CALLVALUE PUSH2 0x1C8 JUMPI DUP2 PUSH1 0x3 NOT CALLDATASIZE ADD SLT PUSH2 0x1C8 JUMPI SWAP1 SLOAD SWAP1 MLOAD PUSH1 0x1 PUSH1 0x1 PUSH1 0xA0 SHL SUB SWAP1 SWAP2 AND DUP2 MSTORE PUSH1 0x20 SWAP1 RETURN JUMPDEST POP SWAP2 SWAP1 CALLVALUE PUSH2 0x1C8 JUMPI PUSH1 0x60 CALLDATASIZE PUSH1 0x3 NOT ADD SLT PUSH2 0x1C8 JUMPI PUSH2 0x3A3 PUSH2 0x6BC JUMP JUMPDEST SWAP3 PUSH2 0x3AC PUSH2 0x6D7 JUMP JUMPDEST CALLER DUP5 MSTORE DUP2 PUSH1 0x20 MSTORE PUSH2 0x3C2 PUSH1 0xFF DUP5 DUP7 KECCAK256 SLOAD AND PUSH2 0x79F JUMP JUMPDEST PUSH1 0x1 PUSH1 0x1 PUSH1 0xA0 SHL SUB DUP6 DUP2 AND DUP1 DUP7 MSTORE PUSH1 0x2 PUSH1 0x20 MSTORE DUP5 DUP7 KECCAK256 SLOAD SWAP2 SWAP3 SWAP2 PUSH2 0x3E8 SWAP1 DUP5 AND ISZERO PUSH2 0x7F7 JUMP JUMPDEST DUP5 MLOAD SWAP2 PUSH2 0x138F SWAP2 DUP3 DUP5 ADD SWAP3 DUP5 DUP5 LT PUSH8 0xFFFFFFFFFFFFFFFF DUP6 GT OR PUSH2 0x49E JUMPI DUP5 SWAP3 PUSH1 0x60 SWAP5 SWAP3 PUSH1 0xFF SWAP3 PUSH2 0x1C7C DUP7 CODECOPY DUP4 MSTORE PUSH20 0x6B9BB36519538E0C073894E964E90172E1C0B41F PUSH1 0x20 DUP5 ADD MSTORE AND DUP8 DUP3 ADD MSTORE SUB ADD SWAP1 DUP6 CREATE DUP1 ISZERO PUSH2 0x287 JUMPI AND SWAP3 DUP4 EXTCODESIZE ISZERO PUSH2 0x49B JUMPI DUP3 MLOAD SWAP2 PUSH4 0x34FCF437 PUSH1 0xE0 SHL DUP4 MSTORE PUSH1 0x24 CALLDATALOAD SWAP1 DUP4 ADD MSTORE DUP1 DUP3 PUSH1 0x24 DUP2 DUP4 DUP9 GAS CALL SWAP1 DUP2 ISZERO PUSH2 0x490 JUMPI POP PUSH1 0x20 SWAP5 PUSH2 0x481 SWAP3 DUP6 SWAP3 PUSH2 0x487 JUMPI POP PUSH2 0xB06 JUMP JUMPDEST MLOAD SWAP1 DUP2 MSTORE RETURN JUMPDEST PUSH2 0x27A SWAP1 PUSH2 0x84E JUMP JUMPDEST DUP4 MLOAD SWAP1 RETURNDATASIZE SWAP1 DUP3 RETURNDATACOPY RETURNDATASIZE SWAP1 REVERT JUMPDEST DUP1 REVERT JUMPDEST PUSH4 0x4E487B71 PUSH1 0xE0 SHL DUP10 MSTORE PUSH1 0x41 DUP8 MSTORE PUSH1 0x24 DUP10 REVERT JUMPDEST POP SWAP2 SWAP1 CALLVALUE PUSH2 0x1C8 JUMPI PUSH1 0x20 CALLDATASIZE PUSH1 0x3 NOT ADD SLT PUSH2 0x1C8 JUMPI PUSH1 0x1 PUSH1 0x1 PUSH1 0xA0 SHL SUB PUSH2 0x4D5 PUSH2 0x6BC JUMP JUMPDEST AND DUP3 MSTORE PUSH1 0x3 PUSH1 0x20 MSTORE PUSH1 0xFF DUP2 DUP4 KECCAK256 SLOAD AND SWAP1 MLOAD SWAP2 PUSH1 0x2 DUP3 LT ISZERO PUSH2 0x4F8 JUMPI PUSH1 0x20 DUP4 DUP4 DUP2 MSTORE RETURN JUMPDEST PUSH4 0x4E487B71 PUSH1 0xE0 SHL DUP2 MSTORE PUSH1 0x21 DUP5 MSTORE PUSH1 0x24 SWAP1 REVERT JUMPDEST DUP4 CALLVALUE PUSH2 0x49B JUMPI DUP1 PUSH1 0x3 NOT CALLDATASIZE ADD SLT PUSH2 0x49B JUMPI PUSH2 0x524 PUSH2 0x747 JUMP JUMPDEST DUP1 SLOAD PUSH1 0x1 PUSH1 0x1 PUSH1 0xA0 SHL SUB NOT DUP2 AND DUP3 SSTORE DUP2 SWAP1 PUSH1 0x1 PUSH1 0x1 PUSH1 0xA0 SHL SUB AND PUSH32 0x8BE0079C531659141344CD1FD0A4F28419497F9722A3DAAFE3B4186F6B6457E0 DUP3 DUP1 LOG3 DUP1 RETURN JUMPDEST POP CALLVALUE PUSH2 0x189 JUMPI PUSH1 0x20 CALLDATASIZE PUSH1 0x3 NOT ADD SLT PUSH2 0x189 JUMPI PUSH1 0x20 SWAP3 PUSH1 0xFF SWAP2 DUP4 SWAP2 SWAP1 PUSH1 0x1 PUSH1 0x1 PUSH1 0xA0 SHL SUB PUSH2 0x590 PUSH2 0x6BC JUMP JUMPDEST AND DUP3 MSTORE DUP6 MSTORE KECCAK256 SLOAD AND SWAP1 MLOAD SWAP1 ISZERO ISZERO DUP2 MSTORE RETURN JUMPDEST POP CALLVALUE PUSH2 0x189 JUMPI PUSH1 0x20 CALLDATASIZE PUSH1 0x3 NOT ADD SLT PUSH2 0x189 JUMPI CALLDATALOAD SWAP2 PUSH1 0x1 SLOAD DUP4 LT ISZERO PUSH2 0x49B JUMPI POP PUSH2 0x5CB PUSH1 0x20 SWAP3 PUSH2 0x6E7 JUMP JUMPDEST SWAP1 SLOAD SWAP2 MLOAD SWAP2 PUSH1 0x1 DUP1 PUSH1 0xA0 SHL SUB SWAP2 PUSH1 0x3 SHL SHR AND DUP2 MSTORE RETURN JUMPDEST POP SWAP1 CALLVALUE PUSH2 0x189 JUMPI DUP1 PUSH1 0x3 NOT CALLDATASIZE ADD SLT PUSH2 0x189 JUMPI PUSH2 0x5FB PUSH2 0x6BC JUMP JUMPDEST SWAP2 PUSH1 0x24 CALLDATALOAD SWAP3 DUP4 ISZERO ISZERO DUP1 SWAP5 SUB PUSH2 0x631 JUMPI PUSH2 0x612 PUSH2 0x747 JUMP JUMPDEST PUSH1 0x1 DUP1 PUSH1 0xA0 SHL SUB AND DUP5 MSTORE PUSH1 0x20 MSTORE DUP3 KECCAK256 SWAP1 PUSH1 0xFF DUP1 NOT DUP4 SLOAD AND SWAP2 AND OR SWAP1 SSTORE DUP1 RETURN JUMPDEST DUP5 DUP1 REVERT JUMPDEST POP CALLVALUE PUSH2 0x189 JUMPI PUSH1 0x80 CALLDATASIZE PUSH1 0x3 NOT ADD SLT PUSH2 0x189 JUMPI PUSH2 0x64F PUSH2 0x6BC JUMP JUMPDEST PUSH2 0x657 PUSH2 0x6D7 JUMP JUMPDEST SWAP1 PUSH1 0x64 CALLDATALOAD SWAP3 PUSH1 0x2 DUP5 LT ISZERO PUSH2 0x69C JUMPI SWAP1 PUSH2 0x682 PUSH1 0xFF DUP7 PUSH1 0x20 SWAP9 PUSH2 0x68B SWAP8 SWAP7 SWAP6 CALLER DUP3 MSTORE DUP11 MSTORE KECCAK256 SLOAD AND PUSH2 0x79F JUMP JUMPDEST PUSH1 0x24 CALLDATALOAD SWAP1 PUSH2 0x89A JUMP JUMPDEST SWAP1 MLOAD PUSH1 0x1 PUSH1 0x1 PUSH1 0xA0 SHL SUB SWAP1 SWAP2 AND DUP2 MSTORE RETURN JUMPDEST DUP6 DUP1 REVERT JUMPDEST DUP5 SWAP1 CALLVALUE PUSH2 0x1C8 JUMPI DUP2 PUSH1 0x3 NOT CALLDATASIZE ADD SLT PUSH2 0x1C8 JUMPI PUSH1 0x20 SWAP1 PUSH1 0x1 SLOAD DUP2 MSTORE RETURN JUMPDEST PUSH1 0x4 CALLDATALOAD SWAP1 PUSH1 0x1 PUSH1 0x1 PUSH1 0xA0 SHL SUB DUP3 AND DUP3 SUB PUSH2 0x6D2 JUMPI JUMP JUMPDEST PUSH1 0x0 DUP1 REVERT JUMPDEST PUSH1 0x44 CALLDATALOAD SWAP1 PUSH1 0xFF DUP3 AND DUP3 SUB PUSH2 0x6D2 JUMPI JUMP JUMPDEST PUSH1 0x1 SLOAD DUP2 LT ISZERO PUSH2 0x702 JUMPI PUSH1 0x1 PUSH1 0x0 MSTORE PUSH1 0x20 PUSH1 0x0 KECCAK256 ADD SWAP1 PUSH1 0x0 SWAP1 JUMP JUMPDEST PUSH4 0x4E487B71 PUSH1 0xE0 SHL PUSH1 0x0 MSTORE PUSH1 0x32 PUSH1 0x4 MSTORE PUSH1 0x24 PUSH1 0x0 REVERT JUMPDEST PUSH1 0x40 SWAP1 PUSH1 0x3 NOT ADD SLT PUSH2 0x6D2 JUMPI PUSH1 0x4 CALLDATALOAD PUSH1 0x1 PUSH1 0x1 PUSH1 0xA0 SHL SUB DUP2 AND DUP2 SUB PUSH2 0x6D2 JUMPI SWAP1 PUSH1 0x24 CALLDATALOAD PUSH1 0x2 DUP2 LT ISZERO PUSH2 0x6D2 JUMPI SWAP1 JUMP JUMPDEST PUSH1 0x0 SLOAD PUSH1 0x1 PUSH1 0x1 PUSH1 0xA0 SHL SUB AND CALLER SUB PUSH2 0x75B JUMPI JUMP JUMPDEST PUSH1 0x64 PUSH1 0x40 MLOAD PUSH3 0x461BCD PUSH1 0xE5 SHL DUP2 MSTORE PUSH1 0x20 PUSH1 0x4 DUP3 ADD MSTORE PUSH1 0x20 PUSH1 0x24 DUP3 ADD MSTORE PUSH32 0x4F776E61626C653A2063616C6C6572206973206E6F7420746865206F776E6572 PUSH1 0x44 DUP3 ADD MSTORE REVERT JUMPDEST ISZERO PUSH2 0x7A6 JUMPI JUMP JUMPDEST PUSH1 0x40 MLOAD PUSH3 0x461BCD PUSH1 0xE5 SHL DUP2 MSTORE PUSH1 0x20 PUSH1 0x4 DUP3 ADD MSTORE PUSH1 0x23 PUSH1 0x24 DUP3 ADD MSTORE PUSH32 0x4D65726765466163746F72793A204E6F7420616C6C6F77656420746F20646570 PUSH1 0x44 DUP3 ADD MSTORE PUSH3 0x6C6F79 PUSH1 0xE8 SHL PUSH1 0x64 DUP3 ADD MSTORE PUSH1 0x84 SWAP1 REVERT JUMPDEST ISZERO PUSH2 0x7FE JUMPI JUMP JUMPDEST PUSH1 0x40 MLOAD PUSH3 0x461BCD PUSH1 0xE5 SHL DUP2 MSTORE PUSH1 0x20 PUSH1 0x4 DUP3 ADD MSTORE PUSH1 0x22 PUSH1 0x24 DUP3 ADD MSTORE PUSH32 0x4D65726765466163746F72793A204D6572676520616C72656164792065786973 PUSH1 0x44 DUP3 ADD MSTORE PUSH2 0x7473 PUSH1 0xF0 SHL PUSH1 0x64 DUP3 ADD MSTORE PUSH1 0x84 SWAP1 REVERT JUMPDEST PUSH8 0xFFFFFFFFFFFFFFFF DUP2 GT PUSH2 0x862 JUMPI PUSH1 0x40 MSTORE JUMP JUMPDEST PUSH4 0x4E487B71 PUSH1 0xE0 SHL PUSH1 0x0 MSTORE PUSH1 0x41 PUSH1 0x4 MSTORE PUSH1 0x24 PUSH1 0x0 REVERT JUMPDEST SWAP1 PUSH1 0x1F DUP1 NOT SWAP2 ADD AND DUP2 ADD SWAP1 DUP2 LT PUSH8 0xFFFFFFFFFFFFFFFF DUP3 GT OR PUSH2 0x862 JUMPI PUSH1 0x40 MSTORE JUMP JUMPDEST SWAP2 SWAP1 PUSH1 0x0 SWAP4 DUP5 SWAP3 PUSH1 0x1 DUP1 PUSH1 0xA0 SHL SUB SWAP2 DUP3 DUP7 AND SWAP1 DUP2 DUP9 MSTORE PUSH1 0x2 PUSH1 0x20 MSTORE PUSH1 0x40 SWAP8 PUSH2 0x8C7 DUP6 DUP11 DUP4 KECCAK256 SLOAD AND ISZERO PUSH2 0x7F7 JUMP JUMPDEST PUSH1 0x2 DUP3 LT ISZERO PUSH2 0xAA5 JUMPI DUP2 ISZERO PUSH2 0x9FB JUMPI POP PUSH1 0x1 EQ PUSH2 0x921 JUMPI PUSH1 0x64 DUP8 MLOAD PUSH3 0x461BCD PUSH1 0xE5 SHL DUP2 MSTORE PUSH1 0x20 PUSH1 0x4 DUP3 ADD MSTORE PUSH1 0x20 PUSH1 0x24 DUP3 ADD MSTORE PUSH32 0x4D65726765466163746F72793A20496E76616C6964206D657267652074797065 PUSH1 0x44 DUP3 ADD MSTORE REVERT JUMPDEST DUP7 MLOAD SWAP2 PUSH2 0x138F SWAP2 DUP3 DUP5 ADD SWAP3 DUP5 DUP5 LT PUSH8 0xFFFFFFFFFFFFFFFF DUP6 GT OR PUSH2 0x9E7 JUMPI DUP5 SWAP3 PUSH1 0x60 SWAP5 SWAP3 PUSH1 0xFF SWAP3 PUSH2 0x1C7C DUP7 CODECOPY DUP4 MSTORE PUSH20 0x6B9BB36519538E0C073894E964E90172E1C0B41F PUSH1 0x20 DUP5 ADD MSTORE AND DUP10 DUP3 ADD MSTORE SUB ADD SWAP1 DUP5 CREATE DUP1 ISZERO PUSH2 0x9DD JUMPI AND SWAP4 DUP5 EXTCODESIZE ISZERO PUSH2 0x189 JUMPI DUP1 MLOAD SWAP2 PUSH4 0x34FCF437 PUSH1 0xE0 SHL DUP4 MSTORE PUSH1 0x4 DUP4 ADD MSTORE DUP3 DUP3 PUSH1 0x24 DUP2 DUP4 DUP10 GAS CALL SWAP1 DUP2 ISZERO PUSH2 0x9D4 JUMPI POP SWAP1 DUP5 SWAP3 SWAP2 PUSH2 0x9BC JUMPI JUMPDEST POP POP PUSH2 0x9B9 SWAP2 PUSH2 0xB06 JUMP JUMPDEST SWAP1 JUMP JUMPDEST DUP2 SWAP3 POP PUSH2 0x9C8 SWAP1 PUSH2 0x84E JUMP JUMPDEST PUSH2 0x49B JUMPI DUP1 DUP4 SWAP2 PUSH2 0x9AE JUMP JUMPDEST MLOAD RETURNDATASIZE DUP5 DUP3 RETURNDATACOPY RETURNDATASIZE SWAP1 REVERT JUMPDEST DUP6 MLOAD RETURNDATASIZE DUP6 DUP3 RETURNDATACOPY RETURNDATASIZE SWAP1 REVERT JUMPDEST PUSH4 0x4E487B71 PUSH1 0xE0 SHL DUP9 MSTORE PUSH1 0x41 PUSH1 0x4 MSTORE PUSH1 0x24 DUP9 REVERT JUMPDEST SWAP6 POP POP DUP7 MLOAD SWAP2 PUSH2 0x1079 SWAP2 DUP3 DUP5 ADD SWAP3 DUP5 DUP5 LT PUSH8 0xFFFFFFFFFFFFFFFF DUP6 GT OR PUSH2 0x9E7 JUMPI DUP5 SWAP3 PUSH1 0x60 SWAP5 SWAP3 PUSH1 0xFF SWAP3 PUSH2 0xC03 DUP7 CODECOPY PUSH20 0x6B9BB36519538E0C073894E964E90172E1C0B41F DUP5 MSTORE PUSH1 0x20 DUP5 ADD MSTORE AND DUP10 DUP3 ADD MSTORE SUB ADD SWAP1 DUP5 CREATE DUP1 ISZERO PUSH2 0x9DD JUMPI AND SWAP4 DUP5 EXTCODESIZE ISZERO PUSH2 0x189 JUMPI DUP1 MLOAD SWAP2 PUSH4 0x34FCF437 PUSH1 0xE0 SHL DUP4 MSTORE PUSH1 0x4 DUP4 ADD MSTORE DUP3 DUP3 PUSH1 0x24 DUP2 DUP4 DUP10 GAS CALL SWAP1 DUP2 ISZERO PUSH2 0x9D4 JUMPI POP SWAP2 PUSH2 0x9B9 SWAP4 SWAP2 DUP6 SWAP4 PUSH2 0xA96 JUMPI JUMPDEST POP POP PUSH2 0xB06 JUMP JUMPDEST PUSH2 0xA9F SWAP1 PUSH2 0x84E JUMP JUMPDEST CODESIZE PUSH2 0xA8F JUMP JUMPDEST PUSH4 0x4E487B71 PUSH1 0xE0 SHL DUP2 MSTORE PUSH1 0x21 PUSH1 0x4 MSTORE PUSH1 0x24 SWAP1 REVERT JUMPDEST SWAP1 DUP2 PUSH1 0x20 SWAP2 SUB SLT PUSH2 0x6D2 JUMPI MLOAD PUSH1 0x1 PUSH1 0x1 PUSH1 0xA0 SHL SUB DUP2 AND DUP2 SUB PUSH2 0x6D2 JUMPI SWAP1 JUMP JUMPDEST SWAP1 PUSH1 0x2 DUP2 LT ISZERO PUSH2 0xAF0 JUMPI PUSH1 0xFF DUP1 NOT DUP4 SLOAD AND SWAP2 AND OR SWAP1 SSTORE JUMP JUMPDEST PUSH4 0x4E487B71 PUSH1 0xE0 SHL PUSH1 0x0 MSTORE PUSH1 0x21 PUSH1 0x4 MSTORE PUSH1 0x24 PUSH1 0x0 REVERT JUMPDEST PUSH1 0x1 PUSH1 0x1 PUSH1 0xA0 SHL SUB SWAP1 DUP2 AND SWAP1 DUP2 ISZERO PUSH2 0xBBD JUMPI PUSH1 0x0 SWAP1 DUP3 DUP3 MSTORE PUSH1 0x2 PUSH1 0x20 MSTORE PUSH2 0xB33 DUP2 PUSH1 0x40 DUP5 KECCAK256 SLOAD AND ISZERO PUSH2 0x7F7 JUMP JUMPDEST PUSH1 0x1 SLOAD PUSH1 0x1 PUSH1 0x40 SHL DUP2 LT ISZERO PUSH2 0xBA9 JUMPI SWAP1 PUSH2 0xB75 DUP3 PUSH1 0x1 PUSH32 0xE413D0F68462F6240160D618A454469F475317B43867A99C353C0ACC7BF4EC1B SWAP6 SWAP5 ADD PUSH1 0x1 SSTORE PUSH2 0x6E7 JUMP JUMPDEST DUP2 SLOAD SWAP1 PUSH1 0x3 SHL SWAP1 DUP4 DUP8 DUP4 SHL SWAP3 SHL NOT AND OR SWAP1 SSTORE DUP4 DUP3 MSTORE PUSH1 0x2 PUSH1 0x20 MSTORE PUSH1 0x40 DUP3 KECCAK256 SWAP5 AND SWAP4 DUP5 PUSH1 0x1 DUP1 PUSH1 0xA0 SHL SUB NOT DUP3 SLOAD AND OR SWAP1 SSTORE DUP1 LOG3 JUMP JUMPDEST PUSH4 0x4E487B71 PUSH1 0xE0 SHL DUP4 MSTORE PUSH1 0x41 PUSH1 0x4 MSTORE PUSH1 0x24 DUP4 REVERT JUMPDEST PUSH1 0x40 MLOAD PUSH3 0x461BCD PUSH1 0xE5 SHL DUP2 MSTORE PUSH1 0x20 PUSH1 0x4 DUP3 ADD MSTORE PUSH1 0x1B PUSH1 0x24 DUP3 ADD MSTORE PUSH32 0x4D65726765466163746F72793A20496E76616C6964206D657267650000000000 PUSH1 0x44 DUP3 ADD MSTORE PUSH1 0x64 SWAP1 REVERT INVALID PUSH1 0x80 CALLVALUE PUSH2 0x105 JUMPI PUSH1 0x1F PUSH2 0x1079 CODESIZE DUP2 SWAP1 SUB SWAP2 DUP3 ADD PUSH1 0x1F NOT AND DUP4 ADD SWAP2 PUSH1 0x1 PUSH1 0x1 PUSH1 0x40 SHL SUB DUP4 GT DUP5 DUP5 LT OR PUSH2 0x10A JUMPI DUP1 DUP5 SWAP3 PUSH1 0x60 SWAP5 PUSH1 0x40 MSTORE DUP4 CODECOPY DUP2 ADD SUB SLT PUSH2 0x105 JUMPI PUSH2 0x47 DUP2 PUSH2 0x120 JUMP JUMPDEST PUSH1 0x40 PUSH2 0x55 PUSH1 0x20 DUP5 ADD PUSH2 0x120 JUMP JUMPDEST SWAP3 ADD MLOAD SWAP2 PUSH1 0xFF DUP4 AND DUP4 SUB PUSH2 0x105 JUMPI PUSH1 0x1 PUSH1 0x0 DUP2 DUP2 SSTORE DUP2 SLOAD PUSH1 0x1 PUSH1 0x1 PUSH1 0xA8 SHL SUB NOT DUP1 DUP3 AND CALLER PUSH1 0x8 DUP2 DUP2 SHL PUSH2 0x100 PUSH1 0x1 PUSH1 0xA8 SHL SUB AND SWAP3 SWAP1 SWAP3 OR SWAP1 SWAP6 SSTORE PUSH1 0x40 MLOAD SWAP8 SWAP2 SWAP5 PUSH1 0x1 PUSH1 0x1 PUSH1 0xA0 SHL SUB SWAP5 SWAP3 SWAP4 SWAP1 SWAP3 SWAP2 SHR DUP5 AND SWAP1 PUSH32 0x8BE0079C531659141344CD1FD0A4F28419497F9722A3DAAFE3B4186F6B6457E0 SWAP1 DUP1 LOG3 PUSH1 0x64 PUSH1 0x2 SSTORE DUP2 PUSH1 0x4 SLOAD SWAP5 AND PUSH1 0x1 DUP1 PUSH1 0xA0 SHL SUB NOT PUSH1 0x3 SLOAD AND OR PUSH1 0x3 SSTORE PUSH1 0xFF PUSH1 0xA0 SHL SWAP1 PUSH1 0xA0 SHL AND SWAP4 AND SWAP2 AND OR OR PUSH1 0x4 SSTORE PUSH2 0xF44 SWAP1 DUP2 PUSH2 0x135 DUP3 CODECOPY RETURN JUMPDEST PUSH1 0x0 DUP1 REVERT JUMPDEST PUSH4 0x4E487B71 PUSH1 0xE0 SHL PUSH1 0x0 MSTORE PUSH1 0x41 PUSH1 0x4 MSTORE PUSH1 0x24 PUSH1 0x0 REVERT JUMPDEST MLOAD SWAP1 PUSH1 0x1 PUSH1 0x1 PUSH1 0xA0 SHL SUB DUP3 AND DUP3 SUB PUSH2 0x105 JUMPI JUMP INVALID PUSH1 0x80 PUSH1 0x40 DUP2 DUP2 MSTORE PUSH1 0x4 DUP1 CALLDATASIZE LT ISZERO PUSH2 0x15 JUMPI PUSH1 0x0 DUP1 REVERT JUMPDEST PUSH1 0x0 SWAP3 DUP4 CALLDATALOAD PUSH1 0xE0 SHR SWAP1 DUP2 PUSH4 0x21DF0DA7 EQ PUSH2 0xA57 JUMPI POP DUP1 PUSH4 0x24A47AEB EQ PUSH2 0x95C JUMPI DUP1 PUSH4 0x34FCF437 EQ PUSH2 0x8A9 JUMPI DUP1 PUSH4 0x35FAA416 EQ PUSH2 0x761 JUMPI DUP1 PUSH4 0x4E71D92D EQ PUSH2 0x6D0 JUMPI DUP1 PUSH4 0x5C975ABB EQ PUSH2 0x6AC JUMPI DUP1 PUSH4 0x679AEFCE EQ PUSH2 0x68D JUMPI DUP1 PUSH4 0x70A08231 EQ PUSH2 0x655 JUMPI DUP1 PUSH4 0x715018A6 EQ PUSH2 0x5F1 JUMPI DUP1 PUSH4 0x8DA5CB5B EQ PUSH2 0x5C4 JUMPI DUP1 PUSH4 0x8F4FFCB1 EQ PUSH2 0x49D JUMPI DUP4 DUP2 PUSH4 0xB6B55F25 EQ PUSH2 0x3F4 JUMPI POP DUP1 PUSH4 0xBF3506C1 EQ PUSH2 0x3B5 JUMPI DUP1 PUSH4 0xC4AE3168 EQ PUSH2 0x2D2 JUMPI DUP1 PUSH4 0xDAF49863 EQ PUSH2 0x28C JUMPI DUP1 PUSH4 0xE1F26F22 EQ PUSH2 0x265 JUMPI DUP1 PUSH4 0xEA9F2417 EQ PUSH2 0x1C6 JUMPI PUSH4 0xF2FDE38B EQ PUSH2 0xEB JUMPI PUSH1 0x0 DUP1 REVERT JUMPDEST CALLVALUE PUSH2 0x1C2 JUMPI PUSH1 0x20 CALLDATASIZE PUSH1 0x3 NOT ADD SLT PUSH2 0x1C2 JUMPI PUSH2 0x104 PUSH2 0xA7C JUMP JUMPDEST PUSH2 0x10C PUSH2 0xA97 JUMP JUMPDEST PUSH1 0x1 PUSH1 0x1 PUSH1 0xA0 SHL SUB DUP2 DUP2 AND SWAP4 SWAP1 SWAP3 SWAP1 DUP5 ISZERO PUSH2 0x170 JUMPI POP POP PUSH1 0x1 DUP1 SLOAD PUSH2 0x100 PUSH1 0x1 PUSH1 0xA8 SHL SUB NOT DUP2 AND PUSH1 0x8 SWAP4 DUP5 SHL PUSH2 0x100 PUSH1 0x1 PUSH1 0xA8 SHL SUB AND OR SWAP1 SWAP2 SSTORE SWAP1 SHR AND PUSH32 0x8BE0079C531659141344CD1FD0A4F28419497F9722A3DAAFE3B4186F6B6457E0 DUP4 DUP1 LOG3 DUP1 RETURN JUMPDEST SWAP1 PUSH1 0x20 PUSH1 0x84 SWAP3 MLOAD SWAP2 PUSH3 0x461BCD PUSH1 0xE5 SHL DUP4 MSTORE DUP3 ADD MSTORE PUSH1 0x26 PUSH1 0x24 DUP3 ADD MSTORE PUSH32 0x4F776E61626C653A206E6577206F776E657220697320746865207A65726F2061 PUSH1 0x44 DUP3 ADD MSTORE PUSH6 0x646472657373 PUSH1 0xD0 SHL PUSH1 0x64 DUP3 ADD MSTORE REVERT JUMPDEST DUP3 DUP1 REVERT JUMPDEST POP SWAP1 CALLVALUE PUSH2 0x1C2 JUMPI DUP3 PUSH1 0x3 NOT CALLDATASIZE ADD SLT PUSH2 0x1C2 JUMPI PUSH2 0x1E0 PUSH2 0xB42 JUMP JUMPDEST PUSH1 0x3 SLOAD DUP2 MLOAD PUSH4 0x70A08231 PUSH1 0xE0 SHL DUP2 MSTORE CALLER SWAP4 DUP2 ADD SWAP4 SWAP1 SWAP4 MSTORE PUSH1 0x1 PUSH1 0x1 PUSH1 0xA0 SHL SUB AND PUSH1 0x20 DUP4 PUSH1 0x24 DUP2 DUP5 GAS STATICCALL SWAP2 DUP3 ISZERO PUSH2 0x25C JUMPI POP DUP4 SWAP2 PUSH2 0x227 JUMPI JUMPDEST PUSH2 0x224 SWAP3 POP CALLER SWAP2 PUSH2 0xBA9 JUMP JUMPDEST DUP1 RETURN JUMPDEST SWAP1 POP PUSH1 0x20 DUP3 RETURNDATASIZE DUP3 GT PUSH2 0x254 JUMPI JUMPDEST DUP2 PUSH2 0x241 PUSH1 0x20 SWAP4 DUP4 PUSH2 0xAF2 JUMP JUMPDEST DUP2 ADD SUB SLT PUSH2 0x1C2 JUMPI PUSH2 0x224 SWAP2 MLOAD SWAP1 PUSH2 0x218 JUMP JUMPDEST RETURNDATASIZE SWAP2 POP PUSH2 0x234 JUMP JUMPDEST MLOAD RETURNDATASIZE DUP6 DUP3 RETURNDATACOPY RETURNDATASIZE SWAP1 REVERT JUMPDEST POP CALLVALUE PUSH2 0x1C2 JUMPI DUP3 PUSH1 0x3 NOT CALLDATASIZE ADD SLT PUSH2 0x1C2 JUMPI SLOAD SWAP1 MLOAD PUSH1 0x1 PUSH1 0x1 PUSH1 0xA0 SHL SUB SWAP1 SWAP2 AND DUP2 MSTORE PUSH1 0x20 SWAP2 POP RETURN JUMPDEST POP POP CALLVALUE PUSH2 0x2CE JUMPI PUSH1 0x20 CALLDATASIZE PUSH1 0x3 NOT ADD SLT PUSH2 0x2CE JUMPI SWAP1 DUP2 SWAP1 PUSH1 0x1 PUSH1 0x1 PUSH1 0xA0 SHL SUB PUSH2 0x2B2 PUSH2 0xA7C JUMP JUMPDEST AND DUP2 MSTORE PUSH1 0x5 PUSH1 0x20 MSTORE KECCAK256 PUSH1 0x1 DUP2 SLOAD SWAP2 ADD SLOAD DUP3 MLOAD SWAP2 DUP3 MSTORE PUSH1 0x20 DUP3 ADD MSTORE RETURN JUMPDEST POP DUP1 REVERT JUMPDEST POP CALLVALUE PUSH2 0x1C2 JUMPI DUP3 PUSH1 0x3 NOT CALLDATASIZE ADD SLT PUSH2 0x1C2 JUMPI PUSH2 0x2EB PUSH2 0xA97 JUMP JUMPDEST PUSH1 0x1 SLOAD PUSH1 0xFF DUP2 AND ISZERO PUSH2 0x374 JUMPI POP PUSH1 0x1 SLOAD SWAP1 PUSH1 0xFF DUP3 AND ISZERO PUSH2 0x33A JUMPI POP PUSH1 0xFF NOT AND PUSH1 0x1 SSTORE MLOAD CALLER DUP2 MSTORE PUSH32 0x5DB9EE0A495BF2E6FF9C91A7834C1BA4FDD244A5E8AA4E537BD38AEAE4B073AA SWAP1 PUSH1 0x20 SWAP1 LOG1 DUP1 RETURN JUMPDEST PUSH1 0x64 SWAP1 PUSH1 0x20 DUP5 MLOAD SWAP2 PUSH3 0x461BCD PUSH1 0xE5 SHL DUP4 MSTORE DUP3 ADD MSTORE PUSH1 0x14 PUSH1 0x24 DUP3 ADD MSTORE PUSH20 0x14185D5CD8589B194E881B9BDD081C185D5CD959 PUSH1 0x62 SHL PUSH1 0x44 DUP3 ADD MSTORE REVERT JUMPDEST PUSH1 0x20 SWAP2 POP SWAP2 PUSH1 0x1 PUSH32 0x62E78CEA01BEE320CD4E420270B5EA74000D11B0C9F74754EBDBFC544B05A258 SWAP4 PUSH2 0x3A5 PUSH2 0xB42 JUMP JUMPDEST PUSH1 0xFF NOT AND OR PUSH1 0x1 SSTORE MLOAD CALLER DUP2 MSTORE LOG1 DUP1 RETURN JUMPDEST POP POP CALLVALUE PUSH2 0x2CE JUMPI PUSH1 0x20 CALLDATASIZE PUSH1 0x3 NOT ADD SLT PUSH2 0x2CE JUMPI PUSH1 0x20 SWAP2 PUSH1 0x1 SWAP1 DUP3 SWAP1 PUSH1 0x1 PUSH1 0x1 PUSH1 0xA0 SHL SUB PUSH2 0x3E0 PUSH2 0xA7C JUMP JUMPDEST AND DUP2 MSTORE PUSH1 0x5 DUP6 MSTORE KECCAK256 ADD SLOAD SWAP1 MLOAD SWAP1 TIMESTAMP LT ISZERO DUP2 MSTORE RETURN JUMPDEST DUP1 DUP5 DUP5 CALLVALUE PUSH2 0x499 JUMPI PUSH1 0x20 CALLDATASIZE PUSH1 0x3 NOT ADD SLT PUSH2 0x499 JUMPI PUSH2 0x451 PUSH1 0x20 SWAP2 PUSH2 0x416 PUSH2 0xA97 JUMP JUMPDEST DUP1 SLOAD DUP5 MLOAD PUSH4 0x23B872DD PUSH1 0xE0 SHL DUP2 MSTORE CALLER DUP2 DUP5 ADD SWAP1 DUP2 MSTORE ADDRESS PUSH1 0x20 DUP3 ADD MSTORE SWAP3 CALLDATALOAD PUSH1 0x40 DUP5 ADD MSTORE SWAP6 DUP7 SWAP4 PUSH1 0x1 PUSH1 0x1 PUSH1 0xA0 SHL SUB SWAP1 SWAP3 AND SWAP3 DUP5 SWAP3 DUP4 SWAP2 PUSH1 0x60 ADD SWAP1 JUMP JUMPDEST SUB SWAP3 GAS CALL SWAP1 DUP2 ISZERO PUSH2 0x490 JUMPI POP PUSH2 0x465 JUMPI POP DUP1 RETURN JUMPDEST PUSH2 0x485 SWAP1 PUSH1 0x20 RETURNDATASIZE DUP2 GT PUSH2 0x489 JUMPI JUMPDEST PUSH2 0x47D DUP2 DUP4 PUSH2 0xAF2 JUMP JUMPDEST DUP2 ADD SWAP1 PUSH2 0xB2A JUMP JUMPDEST POP DUP1 RETURN JUMPDEST POP RETURNDATASIZE PUSH2 0x473 JUMP JUMPDEST MLOAD RETURNDATASIZE DUP5 DUP3 RETURNDATACOPY RETURNDATASIZE SWAP1 REVERT JUMPDEST POP POP REVERT JUMPDEST POP DUP3 SWAP1 CALLVALUE PUSH2 0x2CE JUMPI PUSH1 0x80 CALLDATASIZE PUSH1 0x3 NOT ADD SLT PUSH2 0x2CE JUMPI PUSH2 0x4B9 PUSH2 0xA7C JUMP JUMPDEST SWAP1 PUSH1 0x1 PUSH1 0x1 PUSH1 0xA0 SHL SUB PUSH1 0x44 CALLDATALOAD DUP2 DUP2 AND SUB PUSH2 0x5BC JUMPI PUSH1 0x64 CALLDATALOAD PUSH8 0xFFFFFFFFFFFFFFFF DUP1 DUP3 GT PUSH2 0x5C0 JUMPI CALLDATASIZE PUSH1 0x23 DUP4 ADD SLT ISZERO PUSH2 0x5C0 JUMPI DUP2 DUP5 ADD CALLDATALOAD SWAP1 DUP2 GT PUSH2 0x5C0 JUMPI CALLDATASIZE SWAP2 ADD PUSH1 0x24 ADD GT PUSH2 0x5BC JUMPI PUSH1 0x2 DUP5 SLOAD EQ PUSH2 0x579 JUMPI PUSH1 0x2 DUP5 SSTORE PUSH2 0x516 PUSH2 0xB42 JUMP JUMPDEST PUSH1 0x3 SLOAD AND SWAP1 DUP2 ISZERO PUSH2 0x536 JUMPI POP SWAP1 PUSH2 0x52F SWAP2 PUSH1 0x24 CALLDATALOAD PUSH2 0xBA9 JUMP JUMPDEST PUSH1 0x1 DUP2 SSTORE DUP1 RETURN JUMPDEST PUSH1 0x64 SWAP1 PUSH1 0x20 DUP7 MLOAD SWAP2 PUSH3 0x461BCD PUSH1 0xE5 SHL DUP4 MSTORE DUP3 ADD MSTORE PUSH1 0x1C PUSH1 0x24 DUP3 ADD MSTORE PUSH32 0x45617465723A20546F6B656E2061646472657373206E6F742073657400000000 PUSH1 0x44 DUP3 ADD MSTORE REVERT JUMPDEST DUP5 MLOAD PUSH3 0x461BCD PUSH1 0xE5 SHL DUP2 MSTORE PUSH1 0x20 DUP2 DUP5 ADD MSTORE PUSH1 0x1F PUSH1 0x24 DUP3 ADD MSTORE PUSH32 0x5265656E7472616E637947756172643A207265656E7472616E742063616C6C00 PUSH1 0x44 DUP3 ADD MSTORE PUSH1 0x64 SWAP1 REVERT JUMPDEST DUP4 DUP1 REVERT JUMPDEST DUP6 DUP1 REVERT JUMPDEST POP POP CALLVALUE PUSH2 0x2CE JUMPI DUP2 PUSH1 0x3 NOT CALLDATASIZE ADD SLT PUSH2 0x2CE JUMPI PUSH1 0x1 SLOAD SWAP1 MLOAD PUSH1 0x8 SWAP2 SWAP1 SWAP2 SHR PUSH1 0x1 PUSH1 0x1 PUSH1 0xA0 SHL SUB AND DUP2 MSTORE PUSH1 0x20 SWAP1 RETURN JUMPDEST DUP4 CALLVALUE PUSH2 0x652 JUMPI DUP1 PUSH1 0x3 NOT CALLDATASIZE ADD SLT PUSH2 0x652 JUMPI PUSH2 0x60A PUSH2 0xA97 JUMP JUMPDEST PUSH1 0x1 DUP1 SLOAD PUSH2 0x100 PUSH1 0x1 PUSH1 0xA8 SHL SUB NOT DUP2 AND SWAP1 SWAP2 SSTORE DUP2 SWAP1 PUSH1 0x8 SHR PUSH1 0x1 PUSH1 0x1 PUSH1 0xA0 SHL SUB AND PUSH32 0x8BE0079C531659141344CD1FD0A4F28419497F9722A3DAAFE3B4186F6B6457E0 DUP3 DUP1 LOG3 DUP1 RETURN JUMPDEST DUP1 REVERT JUMPDEST POP POP CALLVALUE PUSH2 0x2CE JUMPI PUSH1 0x20 CALLDATASIZE PUSH1 0x3 NOT ADD SLT PUSH2 0x2CE JUMPI PUSH1 0x20 SWAP2 DUP2 SWAP1 PUSH1 0x1 PUSH1 0x1 PUSH1 0xA0 SHL SUB PUSH2 0x67D PUSH2 0xA7C JUMP JUMPDEST AND DUP2 MSTORE PUSH1 0x5 DUP5 MSTORE KECCAK256 SLOAD SWAP1 MLOAD SWAP1 DUP2 MSTORE RETURN JUMPDEST POP POP CALLVALUE PUSH2 0x2CE JUMPI DUP2 PUSH1 0x3 NOT CALLDATASIZE ADD SLT PUSH2 0x2CE JUMPI PUSH1 0x20 SWAP1 PUSH1 0x2 SLOAD SWAP1 MLOAD SWAP1 DUP2 MSTORE RETURN JUMPDEST POP POP CALLVALUE PUSH2 0x2CE JUMPI DUP2 PUSH1 0x3 NOT CALLDATASIZE ADD SLT PUSH2 0x2CE JUMPI PUSH1 0x20 SWAP1 PUSH1 0xFF PUSH1 0x1 SLOAD AND SWAP1 MLOAD SWAP1 ISZERO ISZERO DUP2 MSTORE RETURN JUMPDEST POP SWAP1 CALLVALUE PUSH2 0x1C2 JUMPI DUP3 PUSH1 0x3 NOT CALLDATASIZE ADD SLT PUSH2 0x1C2 JUMPI PUSH2 0x6EA PUSH2 0xB42 JUMP JUMPDEST PUSH1 0xFF DUP3 SLOAD PUSH1 0xA0 SHR AND ISZERO PUSH2 0x754 JUMPI JUMPDEST CALLER DUP4 MSTORE PUSH1 0x5 PUSH1 0x20 MSTORE PUSH1 0x1 DUP2 DUP5 KECCAK256 ADD SLOAD TIMESTAMP LT PUSH2 0x716 JUMPI DUP3 PUSH2 0x224 PUSH2 0xE93 JUMP JUMPDEST SWAP1 PUSH1 0x20 PUSH1 0x64 SWAP3 MLOAD SWAP2 PUSH3 0x461BCD PUSH1 0xE5 SHL DUP4 MSTORE DUP3 ADD MSTORE PUSH1 0x18 PUSH1 0x24 DUP3 ADD MSTORE PUSH24 0x11585D195C8E8815995CDD1A5B99C81B9BDD08195B991959 PUSH1 0x42 SHL PUSH1 0x44 DUP3 ADD MSTORE REVERT JUMPDEST PUSH2 0x75C PUSH2 0xE93 JUMP JUMPDEST PUSH2 0x6F8 JUMP JUMPDEST POP SWAP2 SWAP1 CALLVALUE PUSH2 0x2CE JUMPI DUP2 PUSH1 0x3 NOT CALLDATASIZE ADD SLT PUSH2 0x2CE JUMPI PUSH2 0x77C PUSH2 0xA97 JUMP JUMPDEST DUP3 SLOAD DUP2 MLOAD PUSH4 0x70A08231 PUSH1 0xE0 SHL DUP2 MSTORE ADDRESS DUP2 DUP7 ADD MSTORE SWAP4 PUSH1 0x20 SWAP3 SWAP2 PUSH1 0x1 PUSH1 0x1 PUSH1 0xA0 SHL SUB SWAP1 DUP2 AND SWAP2 SWAP1 DUP5 DUP8 PUSH1 0x24 DUP2 DUP7 GAS STATICCALL SWAP7 DUP8 ISZERO PUSH2 0x89F JUMPI DUP7 SWAP8 PUSH2 0x870 JUMPI JUMPDEST POP DUP7 ISZERO PUSH2 0x82D JUMPI PUSH1 0x1 SLOAD DUP5 MLOAD PUSH4 0xA9059CBB PUSH1 0xE0 SHL DUP2 MSTORE PUSH1 0x1 PUSH1 0x1 PUSH1 0xA0 SHL SUB PUSH1 0x8 SWAP3 SWAP1 SWAP3 SHR SWAP1 SWAP3 AND AND SWAP2 DUP2 ADD SWAP2 DUP3 MSTORE PUSH1 0x20 DUP3 ADD DUP8 SWAP1 MSTORE SWAP3 SWAP2 DUP5 SWAP2 DUP5 SWAP2 SWAP1 DUP3 SWAP1 DUP9 SWAP1 DUP3 SWAP1 PUSH1 0x40 ADD SUB SWAP3 GAS CALL SWAP1 DUP2 ISZERO PUSH2 0x25C JUMPI POP PUSH2 0x810 JUMPI DUP3 DUP1 RETURN JUMPDEST DUP2 PUSH2 0x826 SWAP3 SWAP1 RETURNDATASIZE LT PUSH2 0x489 JUMPI PUSH2 0x47D DUP2 DUP4 PUSH2 0xAF2 JUMP JUMPDEST POP DUP2 DUP1 DUP3 DUP1 RETURN JUMPDEST DUP4 MLOAD PUSH3 0x461BCD PUSH1 0xE5 SHL DUP2 MSTORE DUP1 DUP4 ADD DUP7 SWAP1 MSTORE PUSH1 0x1A PUSH1 0x24 DUP3 ADD MSTORE PUSH32 0x45617465723A204E6F2062616C616E636520746F207377656570000000000000 PUSH1 0x44 DUP3 ADD MSTORE PUSH1 0x64 SWAP1 REVERT JUMPDEST SWAP1 SWAP7 POP DUP5 DUP2 DUP2 RETURNDATASIZE DUP4 GT PUSH2 0x898 JUMPI JUMPDEST PUSH2 0x888 DUP2 DUP4 PUSH2 0xAF2 JUMP JUMPDEST DUP2 ADD SUB SLT PUSH2 0x5C0 JUMPI MLOAD SWAP6 CODESIZE PUSH2 0x7B7 JUMP JUMPDEST POP RETURNDATASIZE PUSH2 0x87E JUMP JUMPDEST DUP5 MLOAD RETURNDATASIZE DUP9 DUP3 RETURNDATACOPY RETURNDATASIZE SWAP1 REVERT JUMPDEST POP SWAP1 CALLVALUE PUSH2 0x1C2 JUMPI PUSH1 0x20 CALLDATASIZE PUSH1 0x3 NOT ADD SLT PUSH2 0x1C2 JUMPI DUP2 CALLDATALOAD SWAP2 PUSH2 0x8C7 PUSH2 0xA97 JUMP JUMPDEST DUP3 ISZERO PUSH2 0x90F JUMPI POP DUP2 PUSH1 0x2 SLOAD SUB PUSH2 0x8DB JUMPI DUP3 DUP1 RETURN JUMPDEST DUP2 PUSH1 0x20 SWAP2 PUSH32 0x595A30F13A69B616C4D568E2A2B7875FDFE86E4300A049953C76EE278F8F3F10 SWAP4 PUSH1 0x2 SSTORE MLOAD SWAP1 DUP2 MSTORE LOG1 CODESIZE DUP1 DUP3 DUP1 RETURN JUMPDEST PUSH1 0x20 PUSH1 0x84 SWAP3 MLOAD SWAP2 PUSH3 0x461BCD PUSH1 0xE5 SHL DUP4 MSTORE DUP3 ADD MSTORE PUSH1 0x22 PUSH1 0x24 DUP3 ADD MSTORE PUSH32 0x45617465723A2052617465206D7573742062652067726561746572207468616E PUSH1 0x44 DUP3 ADD MSTORE PUSH2 0x203 PUSH1 0xF4 SHL PUSH1 0x64 DUP3 ADD MSTORE REVERT JUMPDEST POP DUP3 SWAP1 CALLVALUE PUSH2 0x2CE JUMPI PUSH1 0x20 DUP1 PUSH1 0x3 NOT CALLDATASIZE ADD SLT PUSH2 0x1C2 JUMPI DUP2 CALLDATALOAD SWAP2 PUSH2 0x97C PUSH2 0xB42 JUMP JUMPDEST PUSH1 0x3 SLOAD DUP6 MLOAD PUSH4 0x70A08231 PUSH1 0xE0 SHL DUP2 MSTORE CALLER DUP4 DUP3 ADD MSTORE PUSH1 0x1 PUSH1 0x1 PUSH1 0xA0 SHL SUB SWAP1 SWAP2 AND SWAP3 SWAP1 DUP2 DUP2 PUSH1 0x24 DUP2 DUP8 GAS STATICCALL SWAP1 DUP2 ISZERO PUSH2 0xA4D JUMPI SWAP1 DUP6 SWAP2 DUP8 SWAP2 PUSH2 0xA1C JUMPI JUMPDEST POP LT PUSH2 0x9C8 JUMPI DUP5 PUSH2 0x224 CALLER DUP6 DUP8 PUSH2 0xBA9 JUMP JUMPDEST DUP6 MLOAD PUSH3 0x461BCD PUSH1 0xE5 SHL DUP2 MSTORE SWAP2 DUP3 ADD MSTORE PUSH1 0x29 PUSH1 0x24 DUP3 ADD MSTORE PUSH32 0x47656E657269634D657267653A20496E73756666696369656E742062616C616E PUSH1 0x44 DUP3 ADD MSTORE PUSH9 0x18D9481D1BC819585D PUSH1 0xBA SHL PUSH1 0x64 DUP3 ADD MSTORE PUSH1 0x84 SWAP2 POP REVERT JUMPDEST DUP1 SWAP3 POP DUP4 DUP1 SWAP3 POP RETURNDATASIZE DUP4 GT PUSH2 0xA46 JUMPI JUMPDEST PUSH2 0xA35 DUP2 DUP4 PUSH2 0xAF2 JUMP JUMPDEST DUP2 ADD SUB SLT PUSH2 0x5C0 JUMPI DUP5 SWAP1 MLOAD DUP9 PUSH2 0x9B6 JUMP JUMPDEST POP RETURNDATASIZE PUSH2 0xA2B JUMP JUMPDEST DUP8 MLOAD RETURNDATASIZE DUP9 DUP3 RETURNDATACOPY RETURNDATASIZE SWAP1 REVERT JUMPDEST DUP5 SWAP1 CALLVALUE PUSH2 0x2CE JUMPI DUP2 PUSH1 0x3 NOT CALLDATASIZE ADD SLT PUSH2 0x2CE JUMPI PUSH1 0x3 SLOAD PUSH1 0x1 PUSH1 0x1 PUSH1 0xA0 SHL SUB AND DUP2 MSTORE PUSH1 0x20 SWAP1 RETURN JUMPDEST PUSH1 0x4 CALLDATALOAD SWAP1 PUSH1 0x1 PUSH1 0x1 PUSH1 0xA0 SHL SUB DUP3 AND DUP3 SUB PUSH2 0xA92 JUMPI JUMP JUMPDEST PUSH1 0x0 DUP1 REVERT JUMPDEST PUSH1 0x1 SLOAD PUSH1 0x8 SHR PUSH1 0x1 PUSH1 0x1 PUSH1 0xA0 SHL SUB AND CALLER SUB PUSH2 0xAAE JUMPI JUMP JUMPDEST PUSH1 0x64 PUSH1 0x40 MLOAD PUSH3 0x461BCD PUSH1 0xE5 SHL DUP2 MSTORE PUSH1 0x20 PUSH1 0x4 DUP3 ADD MSTORE PUSH1 0x20 PUSH1 0x24 DUP3 ADD MSTORE PUSH32 0x4F776E61626C653A2063616C6C6572206973206E6F7420746865206F776E6572 PUSH1 0x44 DUP3 ADD MSTORE REVERT JUMPDEST SWAP1 PUSH1 0x1F DUP1 NOT SWAP2 ADD AND DUP2 ADD SWAP1 DUP2 LT PUSH8 0xFFFFFFFFFFFFFFFF DUP3 GT OR PUSH2 0xB14 JUMPI PUSH1 0x40 MSTORE JUMP JUMPDEST PUSH4 0x4E487B71 PUSH1 0xE0 SHL PUSH1 0x0 MSTORE PUSH1 0x41 PUSH1 0x4 MSTORE PUSH1 0x24 PUSH1 0x0 REVERT JUMPDEST SWAP1 DUP2 PUSH1 0x20 SWAP2 SUB SLT PUSH2 0xA92 JUMPI MLOAD DUP1 ISZERO ISZERO DUP2 SUB PUSH2 0xA92 JUMPI SWAP1 JUMP JUMPDEST PUSH1 0xFF PUSH1 0x1 SLOAD AND PUSH2 0xB4E JUMPI JUMP JUMPDEST PUSH1 0x40 MLOAD PUSH3 0x461BCD PUSH1 0xE5 SHL DUP2 MSTORE PUSH1 0x20 PUSH1 0x4 DUP3 ADD MSTORE PUSH1 0x10 PUSH1 0x24 DUP3 ADD MSTORE PUSH16 0x14185D5CD8589B194E881C185D5CD959 PUSH1 0x82 SHL PUSH1 0x44 DUP3 ADD MSTORE PUSH1 0x64 SWAP1 REVERT JUMPDEST SWAP2 SWAP1 DUP3 ADD DUP1 SWAP3 GT PUSH2 0xB93 JUMPI JUMP JUMPDEST PUSH4 0x4E487B71 PUSH1 0xE0 SHL PUSH1 0x0 MSTORE PUSH1 0x11 PUSH1 0x4 MSTORE PUSH1 0x24 PUSH1 0x0 REVERT JUMPDEST SWAP3 SWAP2 SWAP3 PUSH1 0x2 SLOAD DUP1 DUP3 MUL SWAP1 DUP3 DUP3 DIV EQ DUP3 ISZERO OR ISZERO PUSH2 0xB93 JUMPI PUSH1 0x64 SWAP1 DIV SWAP1 PUSH1 0x1 DUP1 PUSH1 0xA0 SHL SUB SWAP3 PUSH1 0x4 SWAP6 DUP5 DUP8 SLOAD AND SWAP4 PUSH1 0x40 SWAP3 DUP4 MLOAD DUP1 SWAP7 PUSH4 0x70A08231 PUSH1 0xE0 SHL DUP3 MSTORE ADDRESS DUP12 DUP4 ADD MSTORE DUP2 PUSH1 0x24 PUSH1 0x20 SWAP10 DUP11 SWAP4 GAS STATICCALL SWAP1 DUP2 ISZERO PUSH2 0xE88 JUMPI PUSH1 0x0 SWAP2 PUSH2 0xE5B JUMPI JUMPDEST POP DUP3 GT PUSH2 0xE02 JUMPI DUP4 MLOAD PUSH4 0x23B872DD PUSH1 0xE0 SHL DUP2 MSTORE PUSH1 0x1 PUSH1 0x1 PUSH1 0xA0 SHL SUB DUP5 AND DUP11 DUP3 ADD SWAP1 DUP2 MSTORE ADDRESS PUSH1 0x20 DUP3 ADD MSTORE PUSH1 0x40 DUP2 ADD DUP8 SWAP1 MSTORE SWAP1 SWAP2 DUP8 SWAP2 DUP4 SWAP2 SWAP1 DUP3 SWAP1 SUB PUSH1 0x60 ADD SWAP1 DUP3 SWAP1 PUSH1 0x0 SWAP1 DUP13 AND GAS CALL DUP1 ISZERO PUSH2 0xDF7 JUMPI PUSH2 0xDDA JUMPI JUMPDEST POP DUP6 DUP3 AND SWAP6 DUP7 PUSH1 0x0 MSTORE PUSH1 0x5 DUP7 MSTORE DUP4 PUSH1 0x0 KECCAK256 SLOAD SWAP3 DUP10 SLOAD SWAP2 PUSH1 0xFF DUP4 PUSH1 0xA0 SHR AND ISZERO ISZERO PUSH1 0x0 EQ PUSH2 0xD41 JUMPI POP POP POP SWAP1 PUSH2 0xC88 SWAP2 PUSH2 0xB86 JUMP JUMPDEST SWAP6 PUSH3 0x15180 PUSH1 0xFF DUP3 SLOAD PUSH1 0xA0 SHR AND MUL PUSH3 0xFFFFFF DUP2 AND SWAP1 DUP2 SUB PUSH2 0xD2C JUMPI PUSH2 0xCAD SWAP1 TIMESTAMP PUSH2 0xB86 JUMP JUMPDEST SWAP7 DUP3 MLOAD SWAP2 DUP4 DUP4 ADD SWAP1 DUP4 DUP3 LT PUSH8 0xFFFFFFFFFFFFFFFF DUP4 GT OR PUSH2 0xD17 JUMPI POP SWAP8 PUSH1 0x1 SWAP2 PUSH32 0xADC41BA80FFA0859AAB1D7CF405A6633A6AF94FC3D10E5B0E0BF46CDCC0FD9C8 SWAP8 SWAP9 SWAP10 DUP6 MSTORE DUP4 MSTORE DUP6 DUP4 ADD SWAP1 DUP2 MSTORE CALLER PUSH1 0x0 MSTORE PUSH1 0x5 DUP7 MSTORE DUP4 PUSH1 0x0 KECCAK256 SWAP3 MLOAD DUP4 SSTORE MLOAD SWAP2 ADD SSTORE JUMPDEST MLOAD SWAP1 DUP2 MSTORE LOG2 JUMP JUMPDEST PUSH1 0x41 SWAP1 PUSH4 0x4E487B71 PUSH1 0xE0 SHL PUSH1 0x0 MSTORE MSTORE PUSH1 0x24 PUSH1 0x0 REVERT JUMPDEST PUSH1 0x11 DUP3 PUSH4 0x4E487B71 PUSH1 0xE0 SHL PUSH1 0x0 MSTORE MSTORE PUSH1 0x24 PUSH1 0x0 REVERT JUMPDEST DUP6 MLOAD PUSH4 0xA9059CBB PUSH1 0xE0 SHL DUP2 MSTORE PUSH1 0x1 PUSH1 0x1 PUSH1 0xA0 SHL SUB SWAP1 SWAP3 AND SWAP11 DUP3 ADD SWAP11 DUP12 MSTORE PUSH1 0x20 DUP12 ADD SWAP4 SWAP1 SWAP4 MSTORE SWAP9 DUP7 SWAP4 POP DUP10 SWAP3 DUP4 SWAP2 PUSH1 0x0 SWAP2 SWAP1 DUP4 SWAP1 PUSH1 0x40 ADD SUB SWAP4 AND GAS CALL SWAP6 DUP7 ISZERO PUSH2 0xDCF JUMPI PUSH32 0xADC41BA80FFA0859AAB1D7CF405A6633A6AF94FC3D10E5B0E0BF46CDCC0FD9C8 SWAP5 SWAP6 SWAP7 PUSH2 0xDB2 JUMPI JUMPDEST POP PUSH2 0xD10 JUMP JUMPDEST PUSH2 0xDC8 SWAP1 DUP5 RETURNDATASIZE DUP7 GT PUSH2 0x489 JUMPI PUSH2 0x47D DUP2 DUP4 PUSH2 0xAF2 JUMP JUMPDEST POP CODESIZE PUSH2 0xDAC JUMP JUMPDEST POP MLOAD RETURNDATASIZE PUSH1 0x0 DUP3 RETURNDATACOPY RETURNDATASIZE SWAP1 REVERT JUMPDEST PUSH2 0xDF0 SWAP1 DUP7 RETURNDATASIZE DUP9 GT PUSH2 0x489 JUMPI PUSH2 0x47D DUP2 DUP4 PUSH2 0xAF2 JUMP JUMPDEST POP CODESIZE PUSH2 0xC55 JUMP JUMPDEST DUP5 MLOAD RETURNDATASIZE PUSH1 0x0 DUP3 RETURNDATACOPY RETURNDATASIZE SWAP1 REVERT JUMPDEST DUP4 MLOAD PUSH3 0x461BCD PUSH1 0xE5 SHL DUP2 MSTORE DUP1 DUP11 ADD DUP8 SWAP1 MSTORE PUSH1 0x2D PUSH1 0x24 DUP3 ADD MSTORE PUSH32 0x45617465723A20496E73756666696369656E7420746F6B656E2062616C616E63 PUSH1 0x44 DUP3 ADD MSTORE PUSH13 0x32903A37903A3930B739B332B9 PUSH1 0x99 SHL PUSH1 0x64 DUP3 ADD MSTORE PUSH1 0x84 SWAP1 REVERT JUMPDEST SWAP1 DUP8 DUP3 DUP2 RETURNDATASIZE DUP4 GT PUSH2 0xE81 JUMPI JUMPDEST PUSH2 0xE71 DUP2 DUP4 PUSH2 0xAF2 JUMP JUMPDEST DUP2 ADD SUB SLT PUSH2 0x652 JUMPI POP MLOAD CODESIZE PUSH2 0xC03 JUMP JUMPDEST POP RETURNDATASIZE PUSH2 0xE67 JUMP JUMPDEST DUP6 MLOAD RETURNDATASIZE PUSH1 0x0 DUP3 RETURNDATACOPY RETURNDATASIZE SWAP1 REVERT JUMPDEST CALLER PUSH1 0x0 DUP2 DUP2 MSTORE PUSH1 0x5 PUSH1 0x20 SWAP1 DUP2 MSTORE PUSH1 0x40 DUP1 DUP4 KECCAK256 DUP1 SLOAD SWAP1 DUP5 SWAP1 SSTORE PUSH1 0x4 DUP1 SLOAD SWAP3 MLOAD PUSH4 0xA9059CBB PUSH1 0xE0 SHL DUP2 MSTORE SWAP1 DUP2 ADD SWAP6 SWAP1 SWAP6 MSTORE PUSH1 0x24 DUP6 ADD MSTORE SWAP1 SWAP2 DUP4 SWAP2 PUSH1 0x44 SWAP2 DUP4 SWAP2 PUSH1 0x1 PUSH1 0x1 PUSH1 0xA0 SHL SUB AND GAS CALL DUP1 ISZERO PUSH2 0xF02 JUMPI PUSH2 0xEE8 JUMPI POP JUMP JUMPDEST PUSH2 0xEFF SWAP1 PUSH1 0x20 RETURNDATASIZE DUP2 GT PUSH2 0x489 JUMPI PUSH2 0x47D DUP2 DUP4 PUSH2 0xAF2 JUMP JUMPDEST POP JUMP JUMPDEST PUSH1 0x40 MLOAD RETURNDATASIZE PUSH1 0x0 DUP3 RETURNDATACOPY RETURNDATASIZE SWAP1 REVERT INVALID LOG2 PUSH5 0x6970667358 0x22 SLT KECCAK256 0xD0 CODECOPY 0xC1 COINBASE PUSH7 0x37B14EB2DA3F4D 0xB2 0xF9 0xE7 PUSH3 0x530D94 PUSH7 0x5AAEC3EEB40486 0xC7 0xB8 RETURNDATACOPY SWAP14 PUSH23 0x64736F6C6343000813003360803461010557601F61138F CODESIZE DUP2 SWAP1 SUB SWAP2 DUP3 ADD PUSH1 0x1F NOT AND DUP4 ADD SWAP2 PUSH1 0x1 PUSH1 0x1 PUSH1 0x40 SHL SUB DUP4 GT DUP5 DUP5 LT OR PUSH2 0x10A JUMPI DUP1 DUP5 SWAP3 PUSH1 0x60 SWAP5 PUSH1 0x40 MSTORE DUP4 CODECOPY DUP2 ADD SUB SLT PUSH2 0x105 JUMPI PUSH2 0x47 DUP2 PUSH2 0x120 JUMP JUMPDEST PUSH1 0x40 PUSH2 0x55 PUSH1 0x20 DUP5 ADD PUSH2 0x120 JUMP JUMPDEST SWAP3 ADD MLOAD SWAP2 PUSH1 0xFF DUP4 AND DUP4 SUB PUSH2 0x105 JUMPI PUSH1 0x1 PUSH1 0x0 DUP2 DUP2 SSTORE DUP2 SLOAD PUSH1 0x1 PUSH1 0x1 PUSH1 0xA8 SHL SUB NOT DUP1 DUP3 AND CALLER PUSH1 0x8 DUP2 DUP2 SHL PUSH2 0x100 PUSH1 0x1 PUSH1 0xA8 SHL SUB AND SWAP3 SWAP1 SWAP3 OR SWAP1 SWAP6 SSTORE PUSH1 0x40 MLOAD SWAP8 SWAP2 SWAP5 PUSH1 0x1 PUSH1 0x1 PUSH1 0xA0 SHL SUB SWAP5 SWAP3 SWAP4 SWAP1 SWAP3 SWAP2 SHR DUP5 AND SWAP1 PUSH32 0x8BE0079C531659141344CD1FD0A4F28419497F9722A3DAAFE3B4186F6B6457E0 SWAP1 DUP1 LOG3 PUSH1 0x64 PUSH1 0x2 SSTORE DUP2 PUSH1 0x4 SLOAD SWAP5 AND PUSH1 0x1 DUP1 PUSH1 0xA0 SHL SUB NOT PUSH1 0x3 SLOAD AND OR PUSH1 0x3 SSTORE PUSH1 0xFF PUSH1 0xA0 SHL SWAP1 PUSH1 0xA0 SHL AND SWAP4 AND SWAP2 AND OR OR PUSH1 0x4 SSTORE PUSH2 0x125A SWAP1 DUP2 PUSH2 0x135 DUP3 CODECOPY RETURN JUMPDEST PUSH1 0x0 DUP1 REVERT JUMPDEST PUSH4 0x4E487B71 PUSH1 0xE0 SHL PUSH1 0x0 MSTORE PUSH1 0x41 PUSH1 0x4 MSTORE PUSH1 0x24 PUSH1 0x0 REVERT JUMPDEST MLOAD SWAP1 PUSH1 0x1 PUSH1 0x1 PUSH1 0xA0 SHL SUB DUP3 AND DUP3 SUB PUSH2 0x105 JUMPI JUMP INVALID PUSH1 0x40 PUSH1 0x80 DUP2 MSTORE PUSH1 0x4 SWAP1 DUP2 CALLDATASIZE LT ISZERO PUSH2 0x15 JUMPI PUSH1 0x0 DUP1 REVERT JUMPDEST PUSH1 0x0 SWAP2 DUP3 CALLDATALOAD PUSH1 0xE0 SHR DUP1 PUSH4 0x213897FE EQ PUSH2 0xAB6 JUMPI DUP1 PUSH4 0x21DF0DA7 EQ PUSH2 0xA8D JUMPI DUP1 PUSH4 0x24A47AEB EQ PUSH2 0x992 JUMPI DUP1 PUSH4 0x34FCF437 EQ PUSH2 0x8DF JUMPI DUP1 PUSH4 0x35FAA416 EQ PUSH2 0x793 JUMPI DUP1 PUSH4 0x4E71D92D EQ PUSH2 0x702 JUMPI DUP1 PUSH4 0x5C975ABB EQ PUSH2 0x6DE JUMPI DUP1 PUSH4 0x61D027B3 EQ PUSH2 0x6B5 JUMPI DUP1 PUSH4 0x679AEFCE EQ PUSH2 0x696 JUMPI DUP1 PUSH4 0x70A08231 EQ PUSH2 0x65E JUMPI DUP1 PUSH4 0x715018A6 EQ PUSH2 0x5FD JUMPI DUP1 PUSH4 0x8DA5CB5B EQ PUSH2 0x5D0 JUMPI DUP1 PUSH4 0x8F4FFCB1 EQ PUSH2 0x504 JUMPI DUP4 DUP2 PUSH4 0xB6B55F25 EQ PUSH2 0x45B JUMPI POP DUP1 PUSH4 0xBF3506C1 EQ PUSH2 0x41C JUMPI DUP1 PUSH4 0xC4AE3168 EQ PUSH2 0x339 JUMPI DUP1 PUSH4 0xDAF49863 EQ PUSH2 0x2F3 JUMPI DUP1 PUSH4 0xE1F26F22 EQ PUSH2 0x2CC JUMPI DUP1 PUSH4 0xEA9F2417 EQ PUSH2 0x22D JUMPI DUP1 PUSH4 0xF0F44260 EQ PUSH2 0x1E5 JUMPI PUSH4 0xF2FDE38B EQ PUSH2 0x10A JUMPI PUSH1 0x0 DUP1 REVERT JUMPDEST CALLVALUE PUSH2 0x1E1 JUMPI PUSH1 0x20 CALLDATASIZE PUSH1 0x3 NOT ADD SLT PUSH2 0x1E1 JUMPI PUSH2 0x123 PUSH2 0xD41 JUMP JUMPDEST PUSH2 0x12B PUSH2 0xD57 JUMP JUMPDEST PUSH1 0x1 PUSH1 0x1 PUSH1 0xA0 SHL SUB DUP2 DUP2 AND SWAP4 SWAP1 SWAP3 SWAP1 DUP5 ISZERO PUSH2 0x18F JUMPI POP POP PUSH1 0x1 DUP1 SLOAD PUSH2 0x100 PUSH1 0x1 PUSH1 0xA8 SHL SUB NOT DUP2 AND PUSH1 0x8 SWAP4 DUP5 SHL PUSH2 0x100 PUSH1 0x1 PUSH1 0xA8 SHL SUB AND OR SWAP1 SWAP2 SSTORE SWAP1 SHR AND PUSH32 0x8BE0079C531659141344CD1FD0A4F28419497F9722A3DAAFE3B4186F6B6457E0 DUP4 DUP1 LOG3 DUP1 RETURN JUMPDEST SWAP1 PUSH1 0x20 PUSH1 0x84 SWAP3 MLOAD SWAP2 PUSH3 0x461BCD PUSH1 0xE5 SHL DUP4 MSTORE DUP3 ADD MSTORE PUSH1 0x26 PUSH1 0x24 DUP3 ADD MSTORE PUSH32 0x4F776E61626C653A206E6577206F776E657220697320746865207A65726F2061 PUSH1 0x44 DUP3 ADD MSTORE PUSH6 0x646472657373 PUSH1 0xD0 SHL PUSH1 0x64 DUP3 ADD MSTORE REVERT JUMPDEST DUP3 DUP1 REVERT JUMPDEST DUP4 CALLVALUE PUSH2 0x22A JUMPI PUSH1 0x20 CALLDATASIZE PUSH1 0x3 NOT ADD SLT PUSH2 0x22A JUMPI PUSH2 0x1FF PUSH2 0xD41 JUMP JUMPDEST PUSH2 0x207 PUSH2 0xD57 JUMP JUMPDEST PUSH1 0x6 DUP1 SLOAD PUSH1 0x1 PUSH1 0x1 PUSH1 0xA0 SHL SUB NOT AND PUSH1 0x1 PUSH1 0x1 PUSH1 0xA0 SHL SUB SWAP3 SWAP1 SWAP3 AND SWAP2 SWAP1 SWAP2 OR SWAP1 SSTORE DUP1 RETURN JUMPDEST DUP1 REVERT JUMPDEST POP SWAP1 CALLVALUE PUSH2 0x1E1 JUMPI DUP3 PUSH1 0x3 NOT CALLDATASIZE ADD SLT PUSH2 0x1E1 JUMPI PUSH2 0x247 PUSH2 0xE02 JUMP JUMPDEST PUSH1 0x3 SLOAD DUP2 MLOAD PUSH4 0x70A08231 PUSH1 0xE0 SHL DUP2 MSTORE CALLER SWAP4 DUP2 ADD SWAP4 SWAP1 SWAP4 MSTORE PUSH1 0x1 PUSH1 0x1 PUSH1 0xA0 SHL SUB AND PUSH1 0x20 DUP4 PUSH1 0x24 DUP2 DUP5 GAS STATICCALL SWAP2 DUP3 ISZERO PUSH2 0x2C3 JUMPI POP DUP4 SWAP2 PUSH2 0x28E JUMPI JUMPDEST PUSH2 0x28B SWAP3 POP CALLER SWAP2 PUSH2 0xEBF JUMP JUMPDEST DUP1 RETURN JUMPDEST SWAP1 POP PUSH1 0x20 DUP3 RETURNDATASIZE DUP3 GT PUSH2 0x2BB JUMPI JUMPDEST DUP2 PUSH2 0x2A8 PUSH1 0x20 SWAP4 DUP4 PUSH2 0xDB2 JUMP JUMPDEST DUP2 ADD SUB SLT PUSH2 0x1E1 JUMPI PUSH2 0x28B SWAP2 MLOAD SWAP1 PUSH2 0x27F JUMP JUMPDEST RETURNDATASIZE SWAP2 POP PUSH2 0x29B JUMP JUMPDEST MLOAD RETURNDATASIZE DUP6 DUP3 RETURNDATACOPY RETURNDATASIZE SWAP1 REVERT JUMPDEST POP CALLVALUE PUSH2 0x1E1 JUMPI DUP3 PUSH1 0x3 NOT CALLDATASIZE ADD SLT PUSH2 0x1E1 JUMPI SLOAD SWAP1 MLOAD PUSH1 0x1 PUSH1 0x1 PUSH1 0xA0 SHL SUB SWAP1 SWAP2 AND DUP2 MSTORE PUSH1 0x20 SWAP2 POP RETURN JUMPDEST POP POP CALLVALUE PUSH2 0x335 JUMPI PUSH1 0x20 CALLDATASIZE PUSH1 0x3 NOT ADD SLT PUSH2 0x335 JUMPI SWAP1 DUP2 SWAP1 PUSH1 0x1 PUSH1 0x1 PUSH1 0xA0 SHL SUB PUSH2 0x319 PUSH2 0xD41 JUMP JUMPDEST AND DUP2 MSTORE PUSH1 0x5 PUSH1 0x20 MSTORE KECCAK256 PUSH1 0x1 DUP2 SLOAD SWAP2 ADD SLOAD DUP3 MLOAD SWAP2 DUP3 MSTORE PUSH1 0x20 DUP3 ADD MSTORE RETURN JUMPDEST POP DUP1 REVERT JUMPDEST POP CALLVALUE PUSH2 0x1E1 JUMPI DUP3 PUSH1 0x3 NOT CALLDATASIZE ADD SLT PUSH2 0x1E1 JUMPI PUSH2 0x352 PUSH2 0xD57 JUMP JUMPDEST PUSH1 0x1 SLOAD PUSH1 0xFF DUP2 AND ISZERO PUSH2 0x3DB JUMPI POP PUSH1 0x1 SLOAD SWAP1 PUSH1 0xFF DUP3 AND ISZERO PUSH2 0x3A1 JUMPI POP PUSH1 0xFF NOT AND PUSH1 0x1 SSTORE MLOAD CALLER DUP2 MSTORE PUSH32 0x5DB9EE0A495BF2E6FF9C91A7834C1BA4FDD244A5E8AA4E537BD38AEAE4B073AA SWAP1 PUSH1 0x20 SWAP1 LOG1 DUP1 RETURN JUMPDEST PUSH1 0x64 SWAP1 PUSH1 0x20 DUP5 MLOAD SWAP2 PUSH3 0x461BCD PUSH1 0xE5 SHL DUP4 MSTORE DUP3 ADD MSTORE PUSH1 0x14 PUSH1 0x24 DUP3 ADD MSTORE PUSH20 0x14185D5CD8589B194E881B9BDD081C185D5CD959 PUSH1 0x62 SHL PUSH1 0x44 DUP3 ADD MSTORE REVERT JUMPDEST PUSH1 0x20 SWAP2 POP SWAP2 PUSH1 0x1 PUSH32 0x62E78CEA01BEE320CD4E420270B5EA74000D11B0C9F74754EBDBFC544B05A258 SWAP4 PUSH2 0x40C PUSH2 0xE02 JUMP JUMPDEST PUSH1 0xFF NOT AND OR PUSH1 0x1 SSTORE MLOAD CALLER DUP2 MSTORE LOG1 DUP1 RETURN JUMPDEST POP POP CALLVALUE PUSH2 0x335 JUMPI PUSH1 0x20 CALLDATASIZE PUSH1 0x3 NOT ADD SLT PUSH2 0x335 JUMPI PUSH1 0x20 SWAP2 PUSH1 0x1 SWAP1 DUP3 SWAP1 PUSH1 0x1 PUSH1 0x1 PUSH1 0xA0 SHL SUB PUSH2 0x447 PUSH2 0xD41 JUMP JUMPDEST AND DUP2 MSTORE PUSH1 0x5 DUP6 MSTORE KECCAK256 ADD SLOAD SWAP1 MLOAD SWAP1 TIMESTAMP LT ISZERO DUP2 MSTORE RETURN JUMPDEST DUP1 DUP5 DUP5 CALLVALUE PUSH2 0x500 JUMPI PUSH1 0x20 CALLDATASIZE PUSH1 0x3 NOT ADD SLT PUSH2 0x500 JUMPI PUSH2 0x4B8 PUSH1 0x20 SWAP2 PUSH2 0x47D PUSH2 0xD57 JUMP JUMPDEST DUP1 SLOAD DUP5 MLOAD PUSH4 0x23B872DD PUSH1 0xE0 SHL DUP2 MSTORE CALLER DUP2 DUP5 ADD SWAP1 DUP2 MSTORE ADDRESS PUSH1 0x20 DUP3 ADD MSTORE SWAP3 CALLDATALOAD PUSH1 0x40 DUP5 ADD MSTORE SWAP6 DUP7 SWAP4 PUSH1 0x1 PUSH1 0x1 PUSH1 0xA0 SHL SUB SWAP1 SWAP3 AND SWAP3 DUP5 SWAP3 DUP4 SWAP2 PUSH1 0x60 ADD SWAP1 JUMP JUMPDEST SUB SWAP3 GAS CALL SWAP1 DUP2 ISZERO PUSH2 0x4F7 JUMPI POP PUSH2 0x4CC JUMPI POP DUP1 RETURN JUMPDEST PUSH2 0x4EC SWAP1 PUSH1 0x20 RETURNDATASIZE DUP2 GT PUSH2 0x4F0 JUMPI JUMPDEST PUSH2 0x4E4 DUP2 DUP4 PUSH2 0xDB2 JUMP JUMPDEST DUP2 ADD SWAP1 PUSH2 0xDEA JUMP JUMPDEST POP DUP1 RETURN JUMPDEST POP RETURNDATASIZE PUSH2 0x4DA JUMP JUMPDEST MLOAD RETURNDATASIZE DUP5 DUP3 RETURNDATACOPY RETURNDATASIZE SWAP1 REVERT JUMPDEST POP POP REVERT JUMPDEST POP DUP3 SWAP1 CALLVALUE PUSH2 0x335 JUMPI PUSH1 0x80 CALLDATASIZE PUSH1 0x3 NOT ADD SLT PUSH2 0x335 JUMPI PUSH2 0x520 PUSH2 0xD41 JUMP JUMPDEST SWAP1 PUSH1 0x1 PUSH1 0x1 PUSH1 0xA0 SHL SUB PUSH1 0x44 CALLDATALOAD DUP2 DUP2 AND SUB PUSH2 0x5CC JUMPI PUSH1 0x64 CALLDATALOAD PUSH8 0xFFFFFFFFFFFFFFFF DUP2 GT PUSH2 0x5C8 JUMPI PUSH2 0x553 SWAP1 CALLDATASIZE SWAP1 DUP5 ADD PUSH2 0xD0E JUMP JUMPDEST POP POP PUSH2 0x55D PUSH2 0xE46 JUMP JUMPDEST PUSH2 0x565 PUSH2 0xE02 JUMP JUMPDEST PUSH1 0x3 SLOAD AND SWAP1 DUP2 ISZERO PUSH2 0x585 JUMPI POP SWAP1 PUSH2 0x57E SWAP2 PUSH1 0x24 CALLDATALOAD PUSH2 0xEBF JUMP JUMPDEST PUSH1 0x1 DUP2 SSTORE DUP1 RETURN JUMPDEST PUSH1 0x64 SWAP1 PUSH1 0x20 DUP7 MLOAD SWAP2 PUSH3 0x461BCD PUSH1 0xE5 SHL DUP4 MSTORE DUP3 ADD MSTORE PUSH1 0x1C PUSH1 0x24 DUP3 ADD MSTORE PUSH32 0x45617465723A20546F6B656E2061646472657373206E6F742073657400000000 PUSH1 0x44 DUP3 ADD MSTORE REVERT JUMPDEST DUP5 DUP1 REVERT JUMPDEST DUP4 DUP1 REVERT JUMPDEST POP POP CALLVALUE PUSH2 0x335 JUMPI DUP2 PUSH1 0x3 NOT CALLDATASIZE ADD SLT PUSH2 0x335 JUMPI PUSH1 0x1 SLOAD SWAP1 MLOAD PUSH1 0x8 SWAP2 SWAP1 SWAP2 SHR PUSH1 0x1 PUSH1 0x1 PUSH1 0xA0 SHL SUB AND DUP2 MSTORE PUSH1 0x20 SWAP1 RETURN JUMPDEST DUP4 CALLVALUE PUSH2 0x22A JUMPI DUP1 PUSH1 0x3 NOT CALLDATASIZE ADD SLT PUSH2 0x22A JUMPI PUSH2 0x616 PUSH2 0xD57 JUMP JUMPDEST PUSH1 0x1 DUP1 SLOAD PUSH2 0x100 PUSH1 0x1 PUSH1 0xA8 SHL SUB NOT DUP2 AND SWAP1 SWAP2 SSTORE DUP2 SWAP1 PUSH1 0x8 SHR PUSH1 0x1 PUSH1 0x1 PUSH1 0xA0 SHL SUB AND PUSH32 0x8BE0079C531659141344CD1FD0A4F28419497F9722A3DAAFE3B4186F6B6457E0 DUP3 DUP1 LOG3 DUP1 RETURN JUMPDEST POP POP CALLVALUE PUSH2 0x335 JUMPI PUSH1 0x20 CALLDATASIZE PUSH1 0x3 NOT ADD SLT PUSH2 0x335 JUMPI PUSH1 0x20 SWAP2 DUP2 SWAP1 PUSH1 0x1 PUSH1 0x1 PUSH1 0xA0 SHL SUB PUSH2 0x686 PUSH2 0xD41 JUMP JUMPDEST AND DUP2 MSTORE PUSH1 0x5 DUP5 MSTORE KECCAK256 SLOAD SWAP1 MLOAD SWAP1 DUP2 MSTORE RETURN JUMPDEST POP POP CALLVALUE PUSH2 0x335 JUMPI DUP2 PUSH1 0x3 NOT CALLDATASIZE ADD SLT PUSH2 0x335 JUMPI PUSH1 0x20 SWAP1 PUSH1 0x2 SLOAD SWAP1 MLOAD SWAP1 DUP2 MSTORE RETURN JUMPDEST POP POP CALLVALUE PUSH2 0x335 JUMPI DUP2 PUSH1 0x3 NOT CALLDATASIZE ADD SLT PUSH2 0x335 JUMPI PUSH1 0x6 SLOAD SWAP1 MLOAD PUSH1 0x1 PUSH1 0x1 PUSH1 0xA0 SHL SUB SWAP1 SWAP2 AND DUP2 MSTORE PUSH1 0x20 SWAP1 RETURN JUMPDEST POP POP CALLVALUE PUSH2 0x335 JUMPI DUP2 PUSH1 0x3 NOT CALLDATASIZE ADD SLT PUSH2 0x335 JUMPI PUSH1 0x20 SWAP1 PUSH1 0xFF PUSH1 0x1 SLOAD AND SWAP1 MLOAD SWAP1 ISZERO ISZERO DUP2 MSTORE RETURN JUMPDEST POP SWAP1 CALLVALUE PUSH2 0x1E1 JUMPI DUP3 PUSH1 0x3 NOT CALLDATASIZE ADD SLT PUSH2 0x1E1 JUMPI PUSH2 0x71C PUSH2 0xE02 JUMP JUMPDEST PUSH1 0xFF DUP3 SLOAD PUSH1 0xA0 SHR AND ISZERO PUSH2 0x786 JUMPI JUMPDEST CALLER DUP4 MSTORE PUSH1 0x5 PUSH1 0x20 MSTORE PUSH1 0x1 DUP2 DUP5 KECCAK256 ADD SLOAD TIMESTAMP LT PUSH2 0x748 JUMPI DUP3 PUSH2 0x28B PUSH2 0x11A9 JUMP JUMPDEST SWAP1 PUSH1 0x20 PUSH1 0x64 SWAP3 MLOAD SWAP2 PUSH3 0x461BCD PUSH1 0xE5 SHL DUP4 MSTORE DUP3 ADD MSTORE PUSH1 0x18 PUSH1 0x24 DUP3 ADD MSTORE PUSH24 0x11585D195C8E8815995CDD1A5B99C81B9BDD08195B991959 PUSH1 0x42 SHL PUSH1 0x44 DUP3 ADD MSTORE REVERT JUMPDEST PUSH2 0x78E PUSH2 0x11A9 JUMP JUMPDEST PUSH2 0x72A JUMP JUMPDEST POP SWAP2 SWAP1 CALLVALUE PUSH2 0x335 JUMPI DUP2 PUSH1 0x3 NOT CALLDATASIZE ADD SLT PUSH2 0x335 JUMPI PUSH2 0x7AE PUSH2 0xD57 JUMP JUMPDEST DUP3 SLOAD DUP2 MLOAD PUSH4 0x70A08231 PUSH1 0xE0 SHL DUP2 MSTORE ADDRESS DUP2 DUP7 ADD MSTORE SWAP4 PUSH1 0x20 SWAP3 SWAP2 PUSH1 0x1 PUSH1 0x1 PUSH1 0xA0 SHL SUB SWAP1 DUP2 AND SWAP2 SWAP1 DUP5 DUP8 PUSH1 0x24 DUP2 DUP7 GAS STATICCALL SWAP7 DUP8 ISZERO PUSH2 0x8D5 JUMPI DUP7 SWAP8 PUSH2 0x8A2 JUMPI JUMPDEST POP DUP7 ISZERO PUSH2 0x85F JUMPI PUSH1 0x1 SLOAD DUP5 MLOAD PUSH4 0xA9059CBB PUSH1 0xE0 SHL DUP2 MSTORE PUSH1 0x1 PUSH1 0x1 PUSH1 0xA0 SHL SUB PUSH1 0x8 SWAP3 SWAP1 SWAP3 SHR SWAP1 SWAP3 AND AND SWAP2 DUP2 ADD SWAP2 DUP3 MSTORE PUSH1 0x20 DUP3 ADD DUP8 SWAP1 MSTORE SWAP3 SWAP2 DUP5 SWAP2 DUP5 SWAP2 SWAP1 DUP3 SWAP1 DUP9 SWAP1 DUP3 SWAP1 PUSH1 0x40 ADD SUB SWAP3 GAS CALL SWAP1 DUP2 ISZERO PUSH2 0x2C3 JUMPI POP PUSH2 0x842 JUMPI DUP3 DUP1 RETURN JUMPDEST DUP2 PUSH2 0x858 SWAP3 SWAP1 RETURNDATASIZE LT PUSH2 0x4F0 JUMPI PUSH2 0x4E4 DUP2 DUP4 PUSH2 0xDB2 JUMP JUMPDEST POP DUP2 DUP1 DUP3 DUP1 RETURN JUMPDEST DUP4 MLOAD PUSH3 0x461BCD PUSH1 0xE5 SHL DUP2 MSTORE DUP1 DUP4 ADD DUP7 SWAP1 MSTORE PUSH1 0x1A PUSH1 0x24 DUP3 ADD MSTORE PUSH32 0x45617465723A204E6F2062616C616E636520746F207377656570000000000000 PUSH1 0x44 DUP3 ADD MSTORE PUSH1 0x64 SWAP1 REVERT JUMPDEST SWAP1 SWAP7 POP DUP5 DUP2 DUP2 RETURNDATASIZE DUP4 GT PUSH2 0x8CE JUMPI JUMPDEST PUSH2 0x8BA DUP2 DUP4 PUSH2 0xDB2 JUMP JUMPDEST DUP2 ADD SUB SLT PUSH2 0x8CA JUMPI MLOAD SWAP6 CODESIZE PUSH2 0x7E9 JUMP JUMPDEST DUP6 DUP1 REVERT JUMPDEST POP RETURNDATASIZE PUSH2 0x8B0 JUMP JUMPDEST DUP5 MLOAD RETURNDATASIZE DUP9 DUP3 RETURNDATACOPY RETURNDATASIZE SWAP1 REVERT JUMPDEST POP SWAP1 CALLVALUE PUSH2 0x1E1 JUMPI PUSH1 0x20 CALLDATASIZE PUSH1 0x3 NOT ADD SLT PUSH2 0x1E1 JUMPI DUP2 CALLDATALOAD SWAP2 PUSH2 0x8FD PUSH2 0xD57 JUMP JUMPDEST DUP3 ISZERO PUSH2 0x945 JUMPI POP DUP2 PUSH1 0x2 SLOAD SUB PUSH2 0x911 JUMPI DUP3 DUP1 RETURN JUMPDEST DUP2 PUSH1 0x20 SWAP2 PUSH32 0x595A30F13A69B616C4D568E2A2B7875FDFE86E4300A049953C76EE278F8F3F10 SWAP4 PUSH1 0x2 SSTORE MLOAD SWAP1 DUP2 MSTORE LOG1 CODESIZE DUP1 DUP3 DUP1 RETURN JUMPDEST PUSH1 0x20 PUSH1 0x84 SWAP3 MLOAD SWAP2 PUSH3 0x461BCD PUSH1 0xE5 SHL DUP4 MSTORE DUP3 ADD MSTORE PUSH1 0x22 PUSH1 0x24 DUP3 ADD MSTORE PUSH32 0x45617465723A2052617465206D7573742062652067726561746572207468616E PUSH1 0x44 DUP3 ADD MSTORE PUSH2 0x203 PUSH1 0xF4 SHL PUSH1 0x64 DUP3 ADD MSTORE REVERT JUMPDEST POP DUP3 SWAP1 CALLVALUE PUSH2 0x335 JUMPI PUSH1 0x20 DUP1 PUSH1 0x3 NOT CALLDATASIZE ADD SLT PUSH2 0x1E1 JUMPI DUP2 CALLDATALOAD SWAP2 PUSH2 0x9B2 PUSH2 0xE02 JUMP JUMPDEST PUSH1 0x3 SLOAD DUP6 MLOAD PUSH4 0x70A08231 PUSH1 0xE0 SHL DUP2 MSTORE CALLER DUP4 DUP3 ADD MSTORE PUSH1 0x1 PUSH1 0x1 PUSH1 0xA0 SHL SUB SWAP1 SWAP2 AND SWAP3 SWAP1 DUP2 DUP2 PUSH1 0x24 DUP2 DUP8 GAS STATICCALL SWAP1 DUP2 ISZERO PUSH2 0xA83 JUMPI SWAP1 DUP6 SWAP2 DUP8 SWAP2 PUSH2 0xA52 JUMPI JUMPDEST POP LT PUSH2 0x9FE JUMPI DUP5 PUSH2 0x28B CALLER DUP6 DUP8 PUSH2 0xEBF JUMP JUMPDEST DUP6 MLOAD PUSH3 0x461BCD PUSH1 0xE5 SHL DUP2 MSTORE SWAP2 DUP3 ADD MSTORE PUSH1 0x29 PUSH1 0x24 DUP3 ADD MSTORE PUSH32 0x47656E657269634D657267653A20496E73756666696369656E742062616C616E PUSH1 0x44 DUP3 ADD MSTORE PUSH9 0x18D9481D1BC819585D PUSH1 0xBA SHL PUSH1 0x64 DUP3 ADD MSTORE PUSH1 0x84 SWAP2 POP REVERT JUMPDEST DUP1 SWAP3 POP DUP4 DUP1 SWAP3 POP RETURNDATASIZE DUP4 GT PUSH2 0xA7C JUMPI JUMPDEST PUSH2 0xA6B DUP2 DUP4 PUSH2 0xDB2 JUMP JUMPDEST DUP2 ADD SUB SLT PUSH2 0x8CA JUMPI DUP5 SWAP1 MLOAD DUP9 PUSH2 0x9EC JUMP JUMPDEST POP RETURNDATASIZE PUSH2 0xA61 JUMP JUMPDEST DUP8 MLOAD RETURNDATASIZE DUP9 DUP3 RETURNDATACOPY RETURNDATASIZE SWAP1 REVERT JUMPDEST POP POP CALLVALUE PUSH2 0x335 JUMPI DUP2 PUSH1 0x3 NOT CALLDATASIZE ADD SLT PUSH2 0x335 JUMPI PUSH1 0x3 SLOAD SWAP1 MLOAD PUSH1 0x1 PUSH1 0x1 PUSH1 0xA0 SHL SUB SWAP1 SWAP2 AND DUP2 MSTORE PUSH1 0x20 SWAP1 RETURN JUMPDEST POP CALLVALUE PUSH2 0x1E1 JUMPI PUSH1 0x60 CALLDATASIZE PUSH1 0x3 NOT ADD SLT PUSH2 0x1E1 JUMPI DUP1 CALLDATALOAD SWAP2 PUSH1 0x1 PUSH1 0x1 PUSH1 0xA0 SHL SUB PUSH1 0x24 CALLDATALOAD DUP2 DUP2 AND SWAP1 DUP2 SWAP1 SUB PUSH2 0x8CA JUMPI PUSH1 0x44 CALLDATALOAD PUSH8 0xFFFFFFFFFFFFFFFF DUP2 GT PUSH2 0xD0A JUMPI PUSH2 0xB00 SWAP1 CALLDATASIZE SWAP1 DUP7 ADD PUSH2 0xD0E JUMP JUMPDEST SWAP6 SWAP1 SWAP5 PUSH2 0xB0B PUSH2 0xE46 JUMP JUMPDEST PUSH1 0x3 SLOAD DUP6 MLOAD PUSH4 0x70A08231 PUSH1 0xE0 SHL DUP2 MSTORE CALLER DUP4 DUP3 ADD MSTORE PUSH1 0x20 SWAP9 SWAP2 DUP7 AND SWAP1 DUP10 DUP2 PUSH1 0x24 DUP2 DUP6 GAS STATICCALL SWAP1 DUP2 ISZERO PUSH2 0xD00 JUMPI SWAP1 DUP6 SWAP2 DUP13 SWAP2 PUSH2 0xCCB JUMPI JUMPDEST POP LT PUSH2 0xC73 JUMPI SWAP1 PUSH2 0xB54 DUP11 SWAP4 SWAP3 CALLER SWAP1 DUP7 PUSH2 0xEBF JUMP JUMPDEST PUSH1 0x3 SLOAD DUP8 MLOAD PUSH4 0x95EA7B3 PUSH1 0xE0 SHL DUP2 MSTORE PUSH1 0x1 PUSH1 0x1 PUSH1 0xA0 SHL SUB DUP8 AND DUP5 DUP3 ADD SWAP1 DUP2 MSTORE PUSH1 0x20 DUP2 ADD DUP8 SWAP1 MSTORE SWAP1 SWAP2 DUP12 SWAP2 DUP4 SWAP2 DUP11 AND SWAP1 DUP3 SWAP1 DUP9 SWAP1 DUP3 SWAP1 PUSH1 0x40 ADD SUB SWAP3 GAS CALL DUP1 ISZERO PUSH2 0xC69 JUMPI SWAP2 DUP11 SWAP8 SWAP7 SWAP6 SWAP5 SWAP4 SWAP2 PUSH1 0xA4 SWAP4 PUSH2 0xC4C JUMPI JUMPDEST POP DUP1 DUP8 PUSH1 0x6 SLOAD AND DUP1 ISZERO PUSH1 0x0 EQ PUSH2 0xC46 JUMPI POP ADDRESS SWAP11 JUMPDEST DUP9 PUSH1 0x3 SLOAD AND SWAP9 DUP12 MLOAD SWAP13 DUP14 SWAP11 DUP12 SWAP10 DUP11 SWAP8 PUSH4 0x2454B71 PUSH1 0xE4 SHL DUP10 MSTORE DUP9 ADD MSTORE PUSH1 0x24 DUP8 ADD MSTORE AND PUSH1 0x44 DUP6 ADD MSTORE PUSH1 0x80 PUSH1 0x64 DUP6 ADD MSTORE DUP2 PUSH1 0x84 DUP6 ADD MSTORE DUP5 DUP5 ADD CALLDATACOPY DUP2 DUP2 ADD DUP4 ADD DUP5 SWAP1 MSTORE PUSH1 0x1F ADD PUSH1 0x1F NOT AND DUP2 ADD SUB ADD SWAP3 GAS CALL SWAP1 DUP2 ISZERO PUSH2 0x2C3 JUMPI POP PUSH2 0xC1D JUMPI JUMPDEST DUP3 PUSH1 0x1 DUP2 SSTORE DUP1 RETURN JUMPDEST DUP2 RETURNDATASIZE DUP4 GT PUSH2 0xC3F JUMPI JUMPDEST PUSH2 0xC30 DUP2 DUP4 PUSH2 0xDB2 JUMP JUMPDEST DUP2 ADD SUB SLT PUSH2 0x22A JUMPI CODESIZE DUP1 PUSH2 0xC15 JUMP JUMPDEST POP RETURNDATASIZE PUSH2 0xC26 JUMP JUMPDEST SWAP11 PUSH2 0xBBA JUMP JUMPDEST PUSH2 0xC62 SWAP1 DUP10 RETURNDATASIZE DUP12 GT PUSH2 0x4F0 JUMPI PUSH2 0x4E4 DUP2 DUP4 PUSH2 0xDB2 JUMP JUMPDEST POP CODESIZE PUSH2 0xBA6 JUMP JUMPDEST DUP9 MLOAD RETURNDATASIZE DUP7 DUP3 RETURNDATACOPY RETURNDATASIZE SWAP1 REVERT JUMPDEST DUP7 MLOAD PUSH3 0x461BCD PUSH1 0xE5 SHL DUP2 MSTORE DUP1 DUP5 ADD DUP11 SWAP1 MSTORE PUSH1 0x2C PUSH1 0x24 DUP3 ADD MSTORE PUSH32 0x4D65726765576974684D61726B65743A20496E73756666696369656E74206261 PUSH1 0x44 DUP3 ADD MSTORE PUSH12 0x1B185B98D9481D1BC819585D PUSH1 0xA2 SHL PUSH1 0x64 DUP3 ADD MSTORE PUSH1 0x84 SWAP1 REVERT JUMPDEST DUP1 SWAP3 POP DUP12 DUP1 SWAP3 POP RETURNDATASIZE DUP4 GT PUSH2 0xCF9 JUMPI JUMPDEST PUSH2 0xCE4 DUP2 DUP4 PUSH2 0xDB2 JUMP JUMPDEST DUP2 ADD SUB SLT PUSH2 0xCF5 JUMPI DUP5 SWAP1 MLOAD CODESIZE PUSH2 0xB3F JUMP JUMPDEST DUP11 DUP1 REVERT JUMPDEST POP RETURNDATASIZE PUSH2 0xCDA JUMP JUMPDEST DUP9 MLOAD RETURNDATASIZE DUP14 DUP3 RETURNDATACOPY RETURNDATASIZE SWAP1 REVERT JUMPDEST DUP7 DUP1 REVERT JUMPDEST SWAP2 DUP2 PUSH1 0x1F DUP5 ADD SLT ISZERO PUSH2 0xD3C JUMPI DUP3 CALLDATALOAD SWAP2 PUSH8 0xFFFFFFFFFFFFFFFF DUP4 GT PUSH2 0xD3C JUMPI PUSH1 0x20 DUP4 DUP2 DUP7 ADD SWAP6 ADD ADD GT PUSH2 0xD3C JUMPI JUMP JUMPDEST PUSH1 0x0 DUP1 REVERT JUMPDEST PUSH1 0x4 CALLDATALOAD SWAP1 PUSH1 0x1 PUSH1 0x1 PUSH1 0xA0 SHL SUB DUP3 AND DUP3 SUB PUSH2 0xD3C JUMPI JUMP JUMPDEST PUSH1 0x1 SLOAD PUSH1 0x8 SHR PUSH1 0x1 PUSH1 0x1 PUSH1 0xA0 SHL SUB AND CALLER SUB PUSH2 0xD6E JUMPI JUMP JUMPDEST PUSH1 0x64 PUSH1 0x40 MLOAD PUSH3 0x461BCD PUSH1 0xE5 SHL DUP2 MSTORE PUSH1 0x20 PUSH1 0x4 DUP3 ADD MSTORE PUSH1 0x20 PUSH1 0x24 DUP3 ADD MSTORE PUSH32 0x4F776E61626C653A2063616C6C6572206973206E6F7420746865206F776E6572 PUSH1 0x44 DUP3 ADD MSTORE REVERT JUMPDEST SWAP1 PUSH1 0x1F DUP1 NOT SWAP2 ADD AND DUP2 ADD SWAP1 DUP2 LT PUSH8 0xFFFFFFFFFFFFFFFF DUP3 GT OR PUSH2 0xDD4 JUMPI PUSH1 0x40 MSTORE JUMP JUMPDEST PUSH4 0x4E487B71 PUSH1 0xE0 SHL PUSH1 0x0 MSTORE PUSH1 0x41 PUSH1 0x4 MSTORE PUSH1 0x24 PUSH1 0x0 REVERT JUMPDEST SWAP1 DUP2 PUSH1 0x20 SWAP2 SUB SLT PUSH2 0xD3C JUMPI MLOAD DUP1 ISZERO ISZERO DUP2 SUB PUSH2 0xD3C JUMPI SWAP1 JUMP JUMPDEST PUSH1 0xFF PUSH1 0x1 SLOAD AND PUSH2 0xE0E JUMPI JUMP JUMPDEST PUSH1 0x40 MLOAD PUSH3 0x461BCD PUSH1 0xE5 SHL DUP2 MSTORE PUSH1 0x20 PUSH1 0x4 DUP3 ADD MSTORE PUSH1 0x10 PUSH1 0x24 DUP3 ADD MSTORE PUSH16 0x14185D5CD8589B194E881C185D5CD959 PUSH1 0x82 SHL PUSH1 0x44 DUP3 ADD MSTORE PUSH1 0x64 SWAP1 REVERT JUMPDEST PUSH1 0x2 PUSH1 0x0 SLOAD EQ PUSH2 0xE57 JUMPI PUSH1 0x2 PUSH1 0x0 SSTORE JUMP JUMPDEST PUSH1 0x40 MLOAD PUSH3 0x461BCD PUSH1 0xE5 SHL DUP2 MSTORE PUSH1 0x20 PUSH1 0x4 DUP3 ADD MSTORE PUSH1 0x1F PUSH1 0x24 DUP3 ADD MSTORE PUSH32 0x5265656E7472616E637947756172643A207265656E7472616E742063616C6C00 PUSH1 0x44 DUP3 ADD MSTORE PUSH1 0x64 SWAP1 REVERT JUMPDEST SWAP2 SWAP1 DUP3 ADD DUP1 SWAP3 GT PUSH2 0xEA9 JUMPI JUMP JUMPDEST PUSH4 0x4E487B71 PUSH1 0xE0 SHL PUSH1 0x0 MSTORE PUSH1 0x11 PUSH1 0x4 MSTORE PUSH1 0x24 PUSH1 0x0 REVERT JUMPDEST SWAP3 SWAP2 SWAP3 PUSH1 0x2 SLOAD DUP1 DUP3 MUL SWAP1 DUP3 DUP3 DIV EQ DUP3 ISZERO OR ISZERO PUSH2 0xEA9 JUMPI PUSH1 0x64 SWAP1 DIV SWAP1 PUSH1 0x1 DUP1 PUSH1 0xA0 SHL SUB SWAP3 PUSH1 0x4 SWAP6 DUP5 DUP8 SLOAD AND SWAP4 PUSH1 0x40 SWAP3 DUP4 MLOAD DUP1 SWAP7 PUSH4 0x70A08231 PUSH1 0xE0 SHL DUP3 MSTORE ADDRESS DUP12 DUP4 ADD MSTORE DUP2 PUSH1 0x24 PUSH1 0x20 SWAP10 DUP11 SWAP4 GAS STATICCALL SWAP1 DUP2 ISZERO PUSH2 0x119E JUMPI PUSH1 0x0 SWAP2 PUSH2 0x1171 JUMPI JUMPDEST POP DUP3 GT PUSH2 0x1118 JUMPI DUP4 MLOAD PUSH4 0x23B872DD PUSH1 0xE0 SHL DUP2 MSTORE PUSH1 0x1 PUSH1 0x1 PUSH1 0xA0 SHL SUB DUP5 AND DUP11 DUP3 ADD SWAP1 DUP2 MSTORE ADDRESS PUSH1 0x20 DUP3 ADD MSTORE PUSH1 0x40 DUP2 ADD DUP8 SWAP1 MSTORE SWAP1 SWAP2 DUP8 SWAP2 DUP4 SWAP2 SWAP1 DUP3 SWAP1 SUB PUSH1 0x60 ADD SWAP1 DUP3 SWAP1 PUSH1 0x0 SWAP1 DUP13 AND GAS CALL DUP1 ISZERO PUSH2 0x110D JUMPI PUSH2 0x10F0 JUMPI JUMPDEST POP DUP6 DUP3 AND SWAP6 DUP7 PUSH1 0x0 MSTORE PUSH1 0x5 DUP7 MSTORE DUP4 PUSH1 0x0 KECCAK256 SLOAD SWAP3 DUP10 SLOAD SWAP2 PUSH1 0xFF DUP4 PUSH1 0xA0 SHR AND ISZERO ISZERO PUSH1 0x0 EQ PUSH2 0x1057 JUMPI POP POP POP SWAP1 PUSH2 0xF9E SWAP2 PUSH2 0xE9C JUMP JUMPDEST SWAP6 PUSH3 0x15180 PUSH1 0xFF DUP3 SLOAD PUSH1 0xA0 SHR AND MUL PUSH3 0xFFFFFF DUP2 AND SWAP1 DUP2 SUB PUSH2 0x1042 JUMPI PUSH2 0xFC3 SWAP1 TIMESTAMP PUSH2 0xE9C JUMP JUMPDEST SWAP7 DUP3 MLOAD SWAP2 DUP4 DUP4 ADD SWAP1 DUP4 DUP3 LT PUSH8 0xFFFFFFFFFFFFFFFF DUP4 GT OR PUSH2 0x102D JUMPI POP SWAP8 PUSH1 0x1 SWAP2 PUSH32 0xADC41BA80FFA0859AAB1D7CF405A6633A6AF94FC3D10E5B0E0BF46CDCC0FD9C8 SWAP8 SWAP9 SWAP10 DUP6 MSTORE DUP4 MSTORE DUP6 DUP4 ADD SWAP1 DUP2 MSTORE CALLER PUSH1 0x0 MSTORE PUSH1 0x5 DUP7 MSTORE DUP4 PUSH1 0x0 KECCAK256 SWAP3 MLOAD DUP4 SSTORE MLOAD SWAP2 ADD SSTORE JUMPDEST MLOAD SWAP1 DUP2 MSTORE LOG2 JUMP JUMPDEST PUSH1 0x41 SWAP1 PUSH4 0x4E487B71 PUSH1 0xE0 SHL PUSH1 0x0 MSTORE MSTORE PUSH1 0x24 PUSH1 0x0 REVERT JUMPDEST PUSH1 0x11 DUP3 PUSH4 0x4E487B71 PUSH1 0xE0 SHL PUSH1 0x0 MSTORE MSTORE PUSH1 0x24 PUSH1 0x0 REVERT JUMPDEST DUP6 MLOAD PUSH4 0xA9059CBB PUSH1 0xE0 SHL DUP2 MSTORE PUSH1 0x1 PUSH1 0x1 PUSH1 0xA0 SHL SUB SWAP1 SWAP3 AND SWAP11 DUP3 ADD SWAP11 DUP12 MSTORE PUSH1 0x20 DUP12 ADD SWAP4 SWAP1 SWAP4 MSTORE SWAP9 DUP7 SWAP4 POP DUP10 SWAP3 DUP4 SWAP2 PUSH1 0x0 SWAP2 SWAP1 DUP4 SWAP1 PUSH1 0x40 ADD SUB SWAP4 AND GAS CALL SWAP6 DUP7 ISZERO PUSH2 0x10E5 JUMPI PUSH32 0xADC41BA80FFA0859AAB1D7CF405A6633A6AF94FC3D10E5B0E0BF46CDCC0FD9C8 SWAP5 SWAP6 SWAP7 PUSH2 0x10C8 JUMPI JUMPDEST POP PUSH2 0x1026 JUMP JUMPDEST PUSH2 0x10DE SWAP1 DUP5 RETURNDATASIZE DUP7 GT PUSH2 0x4F0 JUMPI PUSH2 0x4E4 DUP2 DUP4 PUSH2 0xDB2 JUMP JUMPDEST POP CODESIZE PUSH2 0x10C2 JUMP JUMPDEST POP MLOAD RETURNDATASIZE PUSH1 0x0 DUP3 RETURNDATACOPY RETURNDATASIZE SWAP1 REVERT JUMPDEST PUSH2 0x1106 SWAP1 DUP7 RETURNDATASIZE DUP9 GT PUSH2 0x4F0 JUMPI PUSH2 0x4E4 DUP2 DUP4 PUSH2 0xDB2 JUMP JUMPDEST POP CODESIZE PUSH2 0xF6B JUMP JUMPDEST DUP5 MLOAD RETURNDATASIZE PUSH1 0x0 DUP3 RETURNDATACOPY RETURNDATASIZE SWAP1 REVERT JUMPDEST DUP4 MLOAD PUSH3 0x461BCD PUSH1 0xE5 SHL DUP2 MSTORE DUP1 DUP11 ADD DUP8 SWAP1 MSTORE PUSH1 0x2D PUSH1 0x24 DUP3 ADD MSTORE PUSH32 0x45617465723A20496E73756666696369656E7420746F6B656E2062616C616E63 PUSH1 0x44 DUP3 ADD MSTORE PUSH13 0x32903A37903A3930B739B332B9 PUSH1 0x99 SHL PUSH1 0x64 DUP3 ADD MSTORE PUSH1 0x84 SWAP1 REVERT JUMPDEST SWAP1 DUP8 DUP3 DUP2 RETURNDATASIZE DUP4 GT PUSH2 0x1197 JUMPI JUMPDEST PUSH2 0x1187 DUP2 DUP4 PUSH2 0xDB2 JUMP JUMPDEST DUP2 ADD SUB SLT PUSH2 0x22A JUMPI POP MLOAD CODESIZE PUSH2 0xF19 JUMP JUMPDEST POP RETURNDATASIZE PUSH2 0x117D JUMP JUMPDEST DUP6 MLOAD RETURNDATASIZE PUSH1 0x0 DUP3 RETURNDATACOPY RETURNDATASIZE SWAP1 REVERT JUMPDEST CALLER PUSH1 0x0 DUP2 DUP2 MSTORE PUSH1 0x5 PUSH1 0x20 SWAP1 DUP2 MSTORE PUSH1 0x40 DUP1 DUP4 KECCAK256 DUP1 SLOAD SWAP1 DUP5 SWAP1 SSTORE PUSH1 0x4 DUP1 SLOAD SWAP3 MLOAD PUSH4 0xA9059CBB PUSH1 0xE0 SHL DUP2 MSTORE SWAP1 DUP2 ADD SWAP6 SWAP1 SWAP6 MSTORE PUSH1 0x24 DUP6 ADD MSTORE SWAP1 SWAP2 DUP4 SWAP2 PUSH1 0x44 SWAP2 DUP4 SWAP2 PUSH1 0x1 PUSH1 0x1 PUSH1 0xA0 SHL SUB AND GAS CALL DUP1 ISZERO PUSH2 0x1218 JUMPI PUSH2 0x11FE JUMPI POP JUMP JUMPDEST PUSH2 0x1215 SWAP1 PUSH1 0x20 RETURNDATASIZE DUP2 GT PUSH2 0x4F0 JUMPI PUSH2 0x4E4 DUP2 DUP4 PUSH2 0xDB2 JUMP JUMPDEST POP JUMP JUMPDEST PUSH1 0x40 MLOAD RETURNDATASIZE PUSH1 0x0 DUP3 RETURNDATACOPY RETURNDATASIZE SWAP1 REVERT INVALID LOG2 PUSH5 0x6970667358 0x22 SLT KECCAK256 PUSH10 0xD0E25764841F89A970BB DUP9 LOG3 CREATE 0xE ADDRESS 0x29 MSTORE 0xAE RETURNDATASIZE PUSH2 0x39C TIMESTAMP 0xB3 LT 0x1E SHL 0xCD PUSH27 0x98B164736F6C63430008130033A26469706673582212203C601163 EQ LOG4 0xEE GASLIMIT MUL PUSH9 0x1755213A3E5652AC5D 0xFB 0xCF PUSH19 0xFE3B438B2D335DCECF0464736F6C6343000813 STOP CALLER "
        },
        "methodIdentifiers": {
          "allowedDeployers(address)": "6d090218",
          "createMerge(address,uint256,uint8)": "870a6a87",
          "createMergeWithType(address,uint256,uint8,uint8)": "34665646",
          "getMergeCount()": "1d06f92b",
          "mergeTypes(address)": "7f389fd5",
          "merges(address)": "e441eebf",
          "owner()": "8da5cb5b",
          "renounceOwnership()": "715018a6",
          "setAllowedDeployer(address,bool)": "39db25f7",
          "setMerge(address)": "b49757a6",
          "setMergeWithType(address,uint8)": "9dc79be4",
          "setType(address,uint8)": "a49a7cb1",
          "tokens(uint256)": "4f64b2be",
          "transferOwnership(address)": "f2fde38b",
          "wewe()": "e1f26f22"
        }
      }
    }
  }
}