{
  "contracts/core/adaptors/UniswapV3ViaRouter.sol": {
    "UniswapV3ViaRouter": {
      "abi": [
        {
          "inputs": [],
          "stateMutability": "nonpayable",
          "type": "constructor"
        },
        {
          "anonymous": false,
          "inputs": [
            {
              "indexed": false,
              "internalType": "uint256",
              "name": "amount",
              "type": "uint256"
            },
            {
              "indexed": false,
              "internalType": "uint256",
              "name": "amountOut",
              "type": "uint256"
            },
            {
              "indexed": false,
              "internalType": "address",
              "name": "token",
              "type": "address"
            },
            {
              "indexed": true,
              "internalType": "address",
              "name": "recipient",
              "type": "address"
            }
          ],
          "name": "Bought",
          "type": "event"
        },
        {
          "anonymous": false,
          "inputs": [
            {
              "indexed": true,
              "internalType": "address",
              "name": "previousOwner",
              "type": "address"
            },
            {
              "indexed": true,
              "internalType": "address",
              "name": "newOwner",
              "type": "address"
            }
          ],
          "name": "OwnershipTransferred",
          "type": "event"
        },
        {
          "anonymous": false,
          "inputs": [
            {
              "indexed": false,
              "internalType": "uint256",
              "name": "amount",
              "type": "uint256"
            },
            {
              "indexed": false,
              "internalType": "uint256",
              "name": "amountOut",
              "type": "uint256"
            },
            {
              "indexed": false,
              "internalType": "address",
              "name": "token",
              "type": "address"
            },
            {
              "indexed": true,
              "internalType": "address",
              "name": "recipient",
              "type": "address"
            }
          ],
          "name": "Sold",
          "type": "event"
        },
        {
          "inputs": [
            {
              "internalType": "uint256",
              "name": "amount",
              "type": "uint256"
            },
            {
              "internalType": "address",
              "name": "token",
              "type": "address"
            },
            {
              "internalType": "address",
              "name": "recipient",
              "type": "address"
            },
            {
              "internalType": "bytes",
              "name": "extraData",
              "type": "bytes"
            }
          ],
          "name": "buy",
          "outputs": [
            {
              "internalType": "uint256",
              "name": "",
              "type": "uint256"
            }
          ],
          "stateMutability": "nonpayable",
          "type": "function"
        },
        {
          "inputs": [],
          "name": "fee",
          "outputs": [
            {
              "internalType": "uint24",
              "name": "",
              "type": "uint24"
            }
          ],
          "stateMutability": "view",
          "type": "function"
        },
        {
          "inputs": [],
          "name": "owner",
          "outputs": [
            {
              "internalType": "address",
              "name": "",
              "type": "address"
            }
          ],
          "stateMutability": "view",
          "type": "function"
        },
        {
          "inputs": [],
          "name": "renounceOwnership",
          "outputs": [],
          "stateMutability": "nonpayable",
          "type": "function"
        },
        {
          "inputs": [
            {
              "internalType": "uint256",
              "name": "amount",
              "type": "uint256"
            },
            {
              "internalType": "address",
              "name": "token",
              "type": "address"
            },
            {
              "internalType": "address",
              "name": "recipient",
              "type": "address"
            },
            {
              "internalType": "bytes",
              "name": "extraData",
              "type": "bytes"
            }
          ],
          "name": "sell",
          "outputs": [
            {
              "internalType": "uint256",
              "name": "",
              "type": "uint256"
            }
          ],
          "stateMutability": "nonpayable",
          "type": "function"
        },
        {
          "inputs": [
            {
              "internalType": "uint256",
              "name": "amount",
              "type": "uint256"
            },
            {
              "internalType": "address",
              "name": "token",
              "type": "address"
            },
            {
              "internalType": "address",
              "name": "recipient",
              "type": "address"
            },
            {
              "internalType": "bytes",
              "name": "extraData",
              "type": "bytes"
            }
          ],
          "name": "sellAndBuy",
          "outputs": [
            {
              "internalType": "uint256",
              "name": "",
              "type": "uint256"
            }
          ],
          "stateMutability": "nonpayable",
          "type": "function"
        },
        {
          "inputs": [
            {
              "internalType": "uint24",
              "name": "_fee",
              "type": "uint24"
            }
          ],
          "name": "setFee",
          "outputs": [],
          "stateMutability": "nonpayable",
          "type": "function"
        },
        {
          "inputs": [
            {
              "internalType": "address",
              "name": "newOwner",
              "type": "address"
            }
          ],
          "name": "transferOwnership",
          "outputs": [],
          "stateMutability": "nonpayable",
          "type": "function"
        }
      ],
      "evm": {
        "bytecode": {
          "linkReferences": {},
          "object": "60808060405234610067576000543360018060a01b0382167f8be0079c531659141344cd1fd0a4f28419497f9722a3daafe3b4186f6b6457e0600080a36001600160b81b0319163362ffffff60a01b19161761027160a41b17600055610a7f908161006d8239f35b600080fdfe604060808152600436101561001357600080fd5b600090813560e01c806303679454146103775780632454b7101461032f578063715018a6146102d55780638da5cb5b146102ae578063987bb07b14610230578063ddca3f431461020c578063eabb5622146101415763f2fde38b1461007757600080fd5b3461013d57602036600319011261013d576001600160a01b036004358181169290839003610139576100a7610421565b82156100e7575082546001600160a01b0319811683178455167f8be0079c531659141344cd1fd0a4f28419497f9722a3daafe3b4186f6b6457e08380a380f35b5162461bcd60e51b815260206004820152602660248201527f4f776e61626c653a206e6577206f776e657220697320746865207a65726f206160448201526564647265737360d01b6064820152608490fd5b8380fd5b5080fd5b503461013d57602036600319011261013d576004359062ffffff82168083036101395761016c610421565b606481141590816101ff575b816101f2575b816101e5575b506101a95750815462ffffff60a01b191660a09190911b62ffffff60a01b1617815580f35b5162461bcd60e51b8152602060048201526016602482015275556e697377617076333a20496e76616c69642066656560501b6044820152606490fd5b6127109150141538610184565b610bb8811415915061017e565b6101f48114159150610178565b503461013d578160031936011261013d5762ffffff6020925460a01c169051908152f35b5090346102ab5760206102a2837f4ebd6ef39c1235e69ba7dedf24ad43bdeb57deb289d98473668070d6ca9b685e610267366103ac565b505061027883829594953385610798565b8551948552602085018190526001600160a01b039283166040860152959116929081906060820190565b0390a251908152f35b80fd5b503461013d578160031936011261013d57905490516001600160a01b039091168152602090f35b82346102ab57806003193601126102ab576102ee610421565b80546001600160a01b03198116825581906001600160a01b03167f8be0079c531659141344cd1fd0a4f28419497f9722a3daafe3b4186f6b6457e08280a380f35b5090346102ab5760206102a2837f55390ad3bffeff90968b8c54d2ed0099a7dbd2d71bc56263a1abf5643f833fec610366366103ac565b505061027883829594953385610505565b503461013d576020906103a561039d61038f366103ac565b505091929092333085610505565b913090610798565b9051908152f35b608060031982011261041c57600435916001600160a01b0391602435838116810361041c5792604435908116810361041c579160643567ffffffffffffffff9283821161041c578060238301121561041c57816004013593841161041c576024848301011161041c576024019190565b600080fd5b6000546001600160a01b0316330361043557565b606460405162461bcd60e51b815260206004820152602060248201527f4f776e61626c653a2063616c6c6572206973206e6f7420746865206f776e65726044820152fd5b60e0810190811067ffffffffffffffff82111761049557604052565b634e487b7160e01b600052604160045260246000fd5b60a0810190811067ffffffffffffffff82111761049557604052565b6080810190811067ffffffffffffffff82111761049557604052565b90601f8019910116810190811067ffffffffffffffff82111761049557604052565b6040516323b872dd60e01b602082019081526001600160a01b03909316602482015230604482015260648082018690528152919392916000908190610549816104ab565b51736b9bb36519538e0c073894e964e90172e1c0b41f9682885af161056c6109f1565b81610769575b501561073e57600080604051602081019063095ea7b360e01b8252732626664c2603336e57b271c5c0b26f421741e4816024820152866044820152604481526105ba816104c7565b519082885af16105c86109f1565b8161070f575b50156106e55762ffffff9060005490604051956105ea87610479565b86526001600160a01b03908116602080880191825260a093841c9490941660408089019182529583166060890190815260808901978852600094890185815260c08a0186815297516304e45aaf60e01b81529951851660048b01529251841660248a0152905162ffffff166044890152518216606488015294516084870152935160a4860152915190921660c4840152829060e4908290732626664c2603336e57b271c5c0b26f421741e4815af19081156106d9576000916106aa575090565b90506020813d6020116106d1575b816106c5602093836104e3565b8101031261041c575190565b3d91506106b8565b6040513d6000823e3d90fd5b60405162461bcd60e51b8152602060048201526002602482015261534160f01b6044820152606490fd5b8051801592508215610724575b5050386105ce565b6107379250602080918301019101610a31565b388061071c565b60405162461bcd60e51b815260206004820152600360248201526229aa2360e91b6044820152606490fd5b805180159250821561077e575b505038610572565b6107919250602080918301019101610a31565b3880610776565b91929092600080604095865160208101916323b872dd60e01b835260018060a01b03166024820152306044820152856064820152606481526107d9816104ab565b519082875af16107e76109f1565b816109c2575b5015610998576000808551602081019063095ea7b360e01b8252732626664c2603336e57b271c5c0b26f421741e481602482015285604482015260448152610834816104c7565b519082875af16108426109f1565b81610969575b50156109405762ffffff60005485519461086186610479565b6001600160a01b039081168652736b9bb36519538e0c073894e964e90172e1c0b41f602080880191825260a093841c949094168888019081529482166060880190815260808801968752600093880184815260c089018581528a516304e45aaf60e01b81529951851660048b01529251841660248a0152955162ffffff166044890152518216606488015294516084870152925160a4860152925190911660c484015290829060e4908290732626664c2603336e57b271c5c0b26f421741e4815af191821561093657506000916106aa575090565b513d6000823e3d90fd5b835162461bcd60e51b8152602060048201526002602482015261534160f01b6044820152606490fd5b805180159250821561097e575b505038610848565b6109919250602080918301019101610a31565b3880610976565b835162461bcd60e51b815260206004820152600360248201526229aa2360e91b6044820152606490fd5b80518015925082156109d7575b5050386107ed565b6109ea9250602080918301019101610a31565b38806109cf565b3d15610a2c573d9067ffffffffffffffff82116104955760405191610a20601f8201601f1916602001846104e3565b82523d6000602084013e565b606090565b9081602091031261041c5751801515810361041c579056fea264697066735822122024634c66a5ba851ad377bc4a393528b7eb9f1562ce3e6e73026c1618402d1e0264736f6c63430008130033",
          "opcodes": "PUSH1 0x80 DUP1 PUSH1 0x40 MSTORE CALLVALUE PUSH2 0x67 JUMPI PUSH1 0x0 SLOAD CALLER PUSH1 0x1 DUP1 PUSH1 0xA0 SHL SUB DUP3 AND PUSH32 0x8BE0079C531659141344CD1FD0A4F28419497F9722A3DAAFE3B4186F6B6457E0 PUSH1 0x0 DUP1 LOG3 PUSH1 0x1 PUSH1 0x1 PUSH1 0xB8 SHL SUB NOT AND CALLER PUSH3 0xFFFFFF PUSH1 0xA0 SHL NOT AND OR PUSH2 0x271 PUSH1 0xA4 SHL OR PUSH1 0x0 SSTORE PUSH2 0xA7F SWAP1 DUP2 PUSH2 0x6D DUP3 CODECOPY RETURN JUMPDEST PUSH1 0x0 DUP1 REVERT INVALID PUSH1 0x40 PUSH1 0x80 DUP2 MSTORE PUSH1 0x4 CALLDATASIZE LT ISZERO PUSH2 0x13 JUMPI PUSH1 0x0 DUP1 REVERT JUMPDEST PUSH1 0x0 SWAP1 DUP2 CALLDATALOAD PUSH1 0xE0 SHR DUP1 PUSH4 0x3679454 EQ PUSH2 0x377 JUMPI DUP1 PUSH4 0x2454B710 EQ PUSH2 0x32F JUMPI DUP1 PUSH4 0x715018A6 EQ PUSH2 0x2D5 JUMPI DUP1 PUSH4 0x8DA5CB5B EQ PUSH2 0x2AE JUMPI DUP1 PUSH4 0x987BB07B EQ PUSH2 0x230 JUMPI DUP1 PUSH4 0xDDCA3F43 EQ PUSH2 0x20C JUMPI DUP1 PUSH4 0xEABB5622 EQ PUSH2 0x141 JUMPI PUSH4 0xF2FDE38B EQ PUSH2 0x77 JUMPI PUSH1 0x0 DUP1 REVERT JUMPDEST CALLVALUE PUSH2 0x13D JUMPI PUSH1 0x20 CALLDATASIZE PUSH1 0x3 NOT ADD SLT PUSH2 0x13D JUMPI PUSH1 0x1 PUSH1 0x1 PUSH1 0xA0 SHL SUB PUSH1 0x4 CALLDATALOAD DUP2 DUP2 AND SWAP3 SWAP1 DUP4 SWAP1 SUB PUSH2 0x139 JUMPI PUSH2 0xA7 PUSH2 0x421 JUMP JUMPDEST DUP3 ISZERO PUSH2 0xE7 JUMPI POP DUP3 SLOAD PUSH1 0x1 PUSH1 0x1 PUSH1 0xA0 SHL SUB NOT DUP2 AND DUP4 OR DUP5 SSTORE AND PUSH32 0x8BE0079C531659141344CD1FD0A4F28419497F9722A3DAAFE3B4186F6B6457E0 DUP4 DUP1 LOG3 DUP1 RETURN JUMPDEST MLOAD PUSH3 0x461BCD PUSH1 0xE5 SHL DUP2 MSTORE PUSH1 0x20 PUSH1 0x4 DUP3 ADD MSTORE PUSH1 0x26 PUSH1 0x24 DUP3 ADD MSTORE PUSH32 0x4F776E61626C653A206E6577206F776E657220697320746865207A65726F2061 PUSH1 0x44 DUP3 ADD MSTORE PUSH6 0x646472657373 PUSH1 0xD0 SHL PUSH1 0x64 DUP3 ADD MSTORE PUSH1 0x84 SWAP1 REVERT JUMPDEST DUP4 DUP1 REVERT JUMPDEST POP DUP1 REVERT JUMPDEST POP CALLVALUE PUSH2 0x13D JUMPI PUSH1 0x20 CALLDATASIZE PUSH1 0x3 NOT ADD SLT PUSH2 0x13D JUMPI PUSH1 0x4 CALLDATALOAD SWAP1 PUSH3 0xFFFFFF DUP3 AND DUP1 DUP4 SUB PUSH2 0x139 JUMPI PUSH2 0x16C PUSH2 0x421 JUMP JUMPDEST PUSH1 0x64 DUP2 EQ ISZERO SWAP1 DUP2 PUSH2 0x1FF JUMPI JUMPDEST DUP2 PUSH2 0x1F2 JUMPI JUMPDEST DUP2 PUSH2 0x1E5 JUMPI JUMPDEST POP PUSH2 0x1A9 JUMPI POP DUP2 SLOAD PUSH3 0xFFFFFF PUSH1 0xA0 SHL NOT AND PUSH1 0xA0 SWAP2 SWAP1 SWAP2 SHL PUSH3 0xFFFFFF PUSH1 0xA0 SHL AND OR DUP2 SSTORE DUP1 RETURN JUMPDEST MLOAD PUSH3 0x461BCD PUSH1 0xE5 SHL DUP2 MSTORE PUSH1 0x20 PUSH1 0x4 DUP3 ADD MSTORE PUSH1 0x16 PUSH1 0x24 DUP3 ADD MSTORE PUSH22 0x556E697377617076333A20496E76616C696420666565 PUSH1 0x50 SHL PUSH1 0x44 DUP3 ADD MSTORE PUSH1 0x64 SWAP1 REVERT JUMPDEST PUSH2 0x2710 SWAP2 POP EQ ISZERO CODESIZE PUSH2 0x184 JUMP JUMPDEST PUSH2 0xBB8 DUP2 EQ ISZERO SWAP2 POP PUSH2 0x17E JUMP JUMPDEST PUSH2 0x1F4 DUP2 EQ ISZERO SWAP2 POP PUSH2 0x178 JUMP JUMPDEST POP CALLVALUE PUSH2 0x13D JUMPI DUP2 PUSH1 0x3 NOT CALLDATASIZE ADD SLT PUSH2 0x13D JUMPI PUSH3 0xFFFFFF PUSH1 0x20 SWAP3 SLOAD PUSH1 0xA0 SHR AND SWAP1 MLOAD SWAP1 DUP2 MSTORE RETURN JUMPDEST POP SWAP1 CALLVALUE PUSH2 0x2AB JUMPI PUSH1 0x20 PUSH2 0x2A2 DUP4 PUSH32 0x4EBD6EF39C1235E69BA7DEDF24AD43BDEB57DEB289D98473668070D6CA9B685E PUSH2 0x267 CALLDATASIZE PUSH2 0x3AC JUMP JUMPDEST POP POP PUSH2 0x278 DUP4 DUP3 SWAP6 SWAP5 SWAP6 CALLER DUP6 PUSH2 0x798 JUMP JUMPDEST DUP6 MLOAD SWAP5 DUP6 MSTORE PUSH1 0x20 DUP6 ADD DUP2 SWAP1 MSTORE PUSH1 0x1 PUSH1 0x1 PUSH1 0xA0 SHL SUB SWAP3 DUP4 AND PUSH1 0x40 DUP7 ADD MSTORE SWAP6 SWAP2 AND SWAP3 SWAP1 DUP2 SWAP1 PUSH1 0x60 DUP3 ADD SWAP1 JUMP JUMPDEST SUB SWAP1 LOG2 MLOAD SWAP1 DUP2 MSTORE RETURN JUMPDEST DUP1 REVERT JUMPDEST POP CALLVALUE PUSH2 0x13D JUMPI DUP2 PUSH1 0x3 NOT CALLDATASIZE ADD SLT PUSH2 0x13D JUMPI SWAP1 SLOAD SWAP1 MLOAD PUSH1 0x1 PUSH1 0x1 PUSH1 0xA0 SHL SUB SWAP1 SWAP2 AND DUP2 MSTORE PUSH1 0x20 SWAP1 RETURN JUMPDEST DUP3 CALLVALUE PUSH2 0x2AB JUMPI DUP1 PUSH1 0x3 NOT CALLDATASIZE ADD SLT PUSH2 0x2AB JUMPI PUSH2 0x2EE PUSH2 0x421 JUMP JUMPDEST DUP1 SLOAD PUSH1 0x1 PUSH1 0x1 PUSH1 0xA0 SHL SUB NOT DUP2 AND DUP3 SSTORE DUP2 SWAP1 PUSH1 0x1 PUSH1 0x1 PUSH1 0xA0 SHL SUB AND PUSH32 0x8BE0079C531659141344CD1FD0A4F28419497F9722A3DAAFE3B4186F6B6457E0 DUP3 DUP1 LOG3 DUP1 RETURN JUMPDEST POP SWAP1 CALLVALUE PUSH2 0x2AB JUMPI PUSH1 0x20 PUSH2 0x2A2 DUP4 PUSH32 0x55390AD3BFFEFF90968B8C54D2ED0099A7DBD2D71BC56263A1ABF5643F833FEC PUSH2 0x366 CALLDATASIZE PUSH2 0x3AC JUMP JUMPDEST POP POP PUSH2 0x278 DUP4 DUP3 SWAP6 SWAP5 SWAP6 CALLER DUP6 PUSH2 0x505 JUMP JUMPDEST POP CALLVALUE PUSH2 0x13D JUMPI PUSH1 0x20 SWAP1 PUSH2 0x3A5 PUSH2 0x39D PUSH2 0x38F CALLDATASIZE PUSH2 0x3AC JUMP JUMPDEST POP POP SWAP2 SWAP3 SWAP1 SWAP3 CALLER ADDRESS DUP6 PUSH2 0x505 JUMP JUMPDEST SWAP2 ADDRESS SWAP1 PUSH2 0x798 JUMP JUMPDEST SWAP1 MLOAD SWAP1 DUP2 MSTORE RETURN JUMPDEST PUSH1 0x80 PUSH1 0x3 NOT DUP3 ADD SLT PUSH2 0x41C JUMPI PUSH1 0x4 CALLDATALOAD SWAP2 PUSH1 0x1 PUSH1 0x1 PUSH1 0xA0 SHL SUB SWAP2 PUSH1 0x24 CALLDATALOAD DUP4 DUP2 AND DUP2 SUB PUSH2 0x41C JUMPI SWAP3 PUSH1 0x44 CALLDATALOAD SWAP1 DUP2 AND DUP2 SUB PUSH2 0x41C JUMPI SWAP2 PUSH1 0x64 CALLDATALOAD PUSH8 0xFFFFFFFFFFFFFFFF SWAP3 DUP4 DUP3 GT PUSH2 0x41C JUMPI DUP1 PUSH1 0x23 DUP4 ADD SLT ISZERO PUSH2 0x41C JUMPI DUP2 PUSH1 0x4 ADD CALLDATALOAD SWAP4 DUP5 GT PUSH2 0x41C JUMPI PUSH1 0x24 DUP5 DUP4 ADD ADD GT PUSH2 0x41C JUMPI PUSH1 0x24 ADD SWAP2 SWAP1 JUMP JUMPDEST PUSH1 0x0 DUP1 REVERT JUMPDEST PUSH1 0x0 SLOAD PUSH1 0x1 PUSH1 0x1 PUSH1 0xA0 SHL SUB AND CALLER SUB PUSH2 0x435 JUMPI JUMP JUMPDEST PUSH1 0x64 PUSH1 0x40 MLOAD PUSH3 0x461BCD PUSH1 0xE5 SHL DUP2 MSTORE PUSH1 0x20 PUSH1 0x4 DUP3 ADD MSTORE PUSH1 0x20 PUSH1 0x24 DUP3 ADD MSTORE PUSH32 0x4F776E61626C653A2063616C6C6572206973206E6F7420746865206F776E6572 PUSH1 0x44 DUP3 ADD MSTORE REVERT JUMPDEST PUSH1 0xE0 DUP2 ADD SWAP1 DUP2 LT PUSH8 0xFFFFFFFFFFFFFFFF DUP3 GT OR PUSH2 0x495 JUMPI PUSH1 0x40 MSTORE JUMP JUMPDEST PUSH4 0x4E487B71 PUSH1 0xE0 SHL PUSH1 0x0 MSTORE PUSH1 0x41 PUSH1 0x4 MSTORE PUSH1 0x24 PUSH1 0x0 REVERT JUMPDEST PUSH1 0xA0 DUP2 ADD SWAP1 DUP2 LT PUSH8 0xFFFFFFFFFFFFFFFF DUP3 GT OR PUSH2 0x495 JUMPI PUSH1 0x40 MSTORE JUMP JUMPDEST PUSH1 0x80 DUP2 ADD SWAP1 DUP2 LT PUSH8 0xFFFFFFFFFFFFFFFF DUP3 GT OR PUSH2 0x495 JUMPI PUSH1 0x40 MSTORE JUMP JUMPDEST SWAP1 PUSH1 0x1F DUP1 NOT SWAP2 ADD AND DUP2 ADD SWAP1 DUP2 LT PUSH8 0xFFFFFFFFFFFFFFFF DUP3 GT OR PUSH2 0x495 JUMPI PUSH1 0x40 MSTORE JUMP JUMPDEST PUSH1 0x40 MLOAD PUSH4 0x23B872DD PUSH1 0xE0 SHL PUSH1 0x20 DUP3 ADD SWAP1 DUP2 MSTORE PUSH1 0x1 PUSH1 0x1 PUSH1 0xA0 SHL SUB SWAP1 SWAP4 AND PUSH1 0x24 DUP3 ADD MSTORE ADDRESS PUSH1 0x44 DUP3 ADD MSTORE PUSH1 0x64 DUP1 DUP3 ADD DUP7 SWAP1 MSTORE DUP2 MSTORE SWAP2 SWAP4 SWAP3 SWAP2 PUSH1 0x0 SWAP1 DUP2 SWAP1 PUSH2 0x549 DUP2 PUSH2 0x4AB JUMP JUMPDEST MLOAD PUSH20 0x6B9BB36519538E0C073894E964E90172E1C0B41F SWAP7 DUP3 DUP9 GAS CALL PUSH2 0x56C PUSH2 0x9F1 JUMP JUMPDEST DUP2 PUSH2 0x769 JUMPI JUMPDEST POP ISZERO PUSH2 0x73E JUMPI PUSH1 0x0 DUP1 PUSH1 0x40 MLOAD PUSH1 0x20 DUP2 ADD SWAP1 PUSH4 0x95EA7B3 PUSH1 0xE0 SHL DUP3 MSTORE PUSH20 0x2626664C2603336E57B271C5C0B26F421741E481 PUSH1 0x24 DUP3 ADD MSTORE DUP7 PUSH1 0x44 DUP3 ADD MSTORE PUSH1 0x44 DUP2 MSTORE PUSH2 0x5BA DUP2 PUSH2 0x4C7 JUMP JUMPDEST MLOAD SWAP1 DUP3 DUP9 GAS CALL PUSH2 0x5C8 PUSH2 0x9F1 JUMP JUMPDEST DUP2 PUSH2 0x70F JUMPI JUMPDEST POP ISZERO PUSH2 0x6E5 JUMPI PUSH3 0xFFFFFF SWAP1 PUSH1 0x0 SLOAD SWAP1 PUSH1 0x40 MLOAD SWAP6 PUSH2 0x5EA DUP8 PUSH2 0x479 JUMP JUMPDEST DUP7 MSTORE PUSH1 0x1 PUSH1 0x1 PUSH1 0xA0 SHL SUB SWAP1 DUP2 AND PUSH1 0x20 DUP1 DUP9 ADD SWAP2 DUP3 MSTORE PUSH1 0xA0 SWAP4 DUP5 SHR SWAP5 SWAP1 SWAP5 AND PUSH1 0x40 DUP1 DUP10 ADD SWAP2 DUP3 MSTORE SWAP6 DUP4 AND PUSH1 0x60 DUP10 ADD SWAP1 DUP2 MSTORE PUSH1 0x80 DUP10 ADD SWAP8 DUP9 MSTORE PUSH1 0x0 SWAP5 DUP10 ADD DUP6 DUP2 MSTORE PUSH1 0xC0 DUP11 ADD DUP7 DUP2 MSTORE SWAP8 MLOAD PUSH4 0x4E45AAF PUSH1 0xE0 SHL DUP2 MSTORE SWAP10 MLOAD DUP6 AND PUSH1 0x4 DUP12 ADD MSTORE SWAP3 MLOAD DUP5 AND PUSH1 0x24 DUP11 ADD MSTORE SWAP1 MLOAD PUSH3 0xFFFFFF AND PUSH1 0x44 DUP10 ADD MSTORE MLOAD DUP3 AND PUSH1 0x64 DUP9 ADD MSTORE SWAP5 MLOAD PUSH1 0x84 DUP8 ADD MSTORE SWAP4 MLOAD PUSH1 0xA4 DUP7 ADD MSTORE SWAP2 MLOAD SWAP1 SWAP3 AND PUSH1 0xC4 DUP5 ADD MSTORE DUP3 SWAP1 PUSH1 0xE4 SWAP1 DUP3 SWAP1 PUSH20 0x2626664C2603336E57B271C5C0B26F421741E481 GAS CALL SWAP1 DUP2 ISZERO PUSH2 0x6D9 JUMPI PUSH1 0x0 SWAP2 PUSH2 0x6AA JUMPI POP SWAP1 JUMP JUMPDEST SWAP1 POP PUSH1 0x20 DUP2 RETURNDATASIZE PUSH1 0x20 GT PUSH2 0x6D1 JUMPI JUMPDEST DUP2 PUSH2 0x6C5 PUSH1 0x20 SWAP4 DUP4 PUSH2 0x4E3 JUMP JUMPDEST DUP2 ADD SUB SLT PUSH2 0x41C JUMPI MLOAD SWAP1 JUMP JUMPDEST RETURNDATASIZE SWAP2 POP PUSH2 0x6B8 JUMP JUMPDEST PUSH1 0x40 MLOAD RETURNDATASIZE PUSH1 0x0 DUP3 RETURNDATACOPY RETURNDATASIZE SWAP1 REVERT JUMPDEST PUSH1 0x40 MLOAD PUSH3 0x461BCD PUSH1 0xE5 SHL DUP2 MSTORE PUSH1 0x20 PUSH1 0x4 DUP3 ADD MSTORE PUSH1 0x2 PUSH1 0x24 DUP3 ADD MSTORE PUSH2 0x5341 PUSH1 0xF0 SHL PUSH1 0x44 DUP3 ADD MSTORE PUSH1 0x64 SWAP1 REVERT JUMPDEST DUP1 MLOAD DUP1 ISZERO SWAP3 POP DUP3 ISZERO PUSH2 0x724 JUMPI JUMPDEST POP POP CODESIZE PUSH2 0x5CE JUMP JUMPDEST PUSH2 0x737 SWAP3 POP PUSH1 0x20 DUP1 SWAP2 DUP4 ADD ADD SWAP2 ADD PUSH2 0xA31 JUMP JUMPDEST CODESIZE DUP1 PUSH2 0x71C JUMP JUMPDEST PUSH1 0x40 MLOAD PUSH3 0x461BCD PUSH1 0xE5 SHL DUP2 MSTORE PUSH1 0x20 PUSH1 0x4 DUP3 ADD MSTORE PUSH1 0x3 PUSH1 0x24 DUP3 ADD MSTORE PUSH3 0x29AA23 PUSH1 0xE9 SHL PUSH1 0x44 DUP3 ADD MSTORE PUSH1 0x64 SWAP1 REVERT JUMPDEST DUP1 MLOAD DUP1 ISZERO SWAP3 POP DUP3 ISZERO PUSH2 0x77E JUMPI JUMPDEST POP POP CODESIZE PUSH2 0x572 JUMP JUMPDEST PUSH2 0x791 SWAP3 POP PUSH1 0x20 DUP1 SWAP2 DUP4 ADD ADD SWAP2 ADD PUSH2 0xA31 JUMP JUMPDEST CODESIZE DUP1 PUSH2 0x776 JUMP JUMPDEST SWAP2 SWAP3 SWAP1 SWAP3 PUSH1 0x0 DUP1 PUSH1 0x40 SWAP6 DUP7 MLOAD PUSH1 0x20 DUP2 ADD SWAP2 PUSH4 0x23B872DD PUSH1 0xE0 SHL DUP4 MSTORE PUSH1 0x1 DUP1 PUSH1 0xA0 SHL SUB AND PUSH1 0x24 DUP3 ADD MSTORE ADDRESS PUSH1 0x44 DUP3 ADD MSTORE DUP6 PUSH1 0x64 DUP3 ADD MSTORE PUSH1 0x64 DUP2 MSTORE PUSH2 0x7D9 DUP2 PUSH2 0x4AB JUMP JUMPDEST MLOAD SWAP1 DUP3 DUP8 GAS CALL PUSH2 0x7E7 PUSH2 0x9F1 JUMP JUMPDEST DUP2 PUSH2 0x9C2 JUMPI JUMPDEST POP ISZERO PUSH2 0x998 JUMPI PUSH1 0x0 DUP1 DUP6 MLOAD PUSH1 0x20 DUP2 ADD SWAP1 PUSH4 0x95EA7B3 PUSH1 0xE0 SHL DUP3 MSTORE PUSH20 0x2626664C2603336E57B271C5C0B26F421741E481 PUSH1 0x24 DUP3 ADD MSTORE DUP6 PUSH1 0x44 DUP3 ADD MSTORE PUSH1 0x44 DUP2 MSTORE PUSH2 0x834 DUP2 PUSH2 0x4C7 JUMP JUMPDEST MLOAD SWAP1 DUP3 DUP8 GAS CALL PUSH2 0x842 PUSH2 0x9F1 JUMP JUMPDEST DUP2 PUSH2 0x969 JUMPI JUMPDEST POP ISZERO PUSH2 0x940 JUMPI PUSH3 0xFFFFFF PUSH1 0x0 SLOAD DUP6 MLOAD SWAP5 PUSH2 0x861 DUP7 PUSH2 0x479 JUMP JUMPDEST PUSH1 0x1 PUSH1 0x1 PUSH1 0xA0 SHL SUB SWAP1 DUP2 AND DUP7 MSTORE PUSH20 0x6B9BB36519538E0C073894E964E90172E1C0B41F PUSH1 0x20 DUP1 DUP9 ADD SWAP2 DUP3 MSTORE PUSH1 0xA0 SWAP4 DUP5 SHR SWAP5 SWAP1 SWAP5 AND DUP9 DUP9 ADD SWAP1 DUP2 MSTORE SWAP5 DUP3 AND PUSH1 0x60 DUP9 ADD SWAP1 DUP2 MSTORE PUSH1 0x80 DUP9 ADD SWAP7 DUP8 MSTORE PUSH1 0x0 SWAP4 DUP9 ADD DUP5 DUP2 MSTORE PUSH1 0xC0 DUP10 ADD DUP6 DUP2 MSTORE DUP11 MLOAD PUSH4 0x4E45AAF PUSH1 0xE0 SHL DUP2 MSTORE SWAP10 MLOAD DUP6 AND PUSH1 0x4 DUP12 ADD MSTORE SWAP3 MLOAD DUP5 AND PUSH1 0x24 DUP11 ADD MSTORE SWAP6 MLOAD PUSH3 0xFFFFFF AND PUSH1 0x44 DUP10 ADD MSTORE MLOAD DUP3 AND PUSH1 0x64 DUP9 ADD MSTORE SWAP5 MLOAD PUSH1 0x84 DUP8 ADD MSTORE SWAP3 MLOAD PUSH1 0xA4 DUP7 ADD MSTORE SWAP3 MLOAD SWAP1 SWAP2 AND PUSH1 0xC4 DUP5 ADD MSTORE SWAP1 DUP3 SWAP1 PUSH1 0xE4 SWAP1 DUP3 SWAP1 PUSH20 0x2626664C2603336E57B271C5C0B26F421741E481 GAS CALL SWAP2 DUP3 ISZERO PUSH2 0x936 JUMPI POP PUSH1 0x0 SWAP2 PUSH2 0x6AA JUMPI POP SWAP1 JUMP JUMPDEST MLOAD RETURNDATASIZE PUSH1 0x0 DUP3 RETURNDATACOPY RETURNDATASIZE SWAP1 REVERT JUMPDEST DUP4 MLOAD PUSH3 0x461BCD PUSH1 0xE5 SHL DUP2 MSTORE PUSH1 0x20 PUSH1 0x4 DUP3 ADD MSTORE PUSH1 0x2 PUSH1 0x24 DUP3 ADD MSTORE PUSH2 0x5341 PUSH1 0xF0 SHL PUSH1 0x44 DUP3 ADD MSTORE PUSH1 0x64 SWAP1 REVERT JUMPDEST DUP1 MLOAD DUP1 ISZERO SWAP3 POP DUP3 ISZERO PUSH2 0x97E JUMPI JUMPDEST POP POP CODESIZE PUSH2 0x848 JUMP JUMPDEST PUSH2 0x991 SWAP3 POP PUSH1 0x20 DUP1 SWAP2 DUP4 ADD ADD SWAP2 ADD PUSH2 0xA31 JUMP JUMPDEST CODESIZE DUP1 PUSH2 0x976 JUMP JUMPDEST DUP4 MLOAD PUSH3 0x461BCD PUSH1 0xE5 SHL DUP2 MSTORE PUSH1 0x20 PUSH1 0x4 DUP3 ADD MSTORE PUSH1 0x3 PUSH1 0x24 DUP3 ADD MSTORE PUSH3 0x29AA23 PUSH1 0xE9 SHL PUSH1 0x44 DUP3 ADD MSTORE PUSH1 0x64 SWAP1 REVERT JUMPDEST DUP1 MLOAD DUP1 ISZERO SWAP3 POP DUP3 ISZERO PUSH2 0x9D7 JUMPI JUMPDEST POP POP CODESIZE PUSH2 0x7ED JUMP JUMPDEST PUSH2 0x9EA SWAP3 POP PUSH1 0x20 DUP1 SWAP2 DUP4 ADD ADD SWAP2 ADD PUSH2 0xA31 JUMP JUMPDEST CODESIZE DUP1 PUSH2 0x9CF JUMP JUMPDEST RETURNDATASIZE ISZERO PUSH2 0xA2C JUMPI RETURNDATASIZE SWAP1 PUSH8 0xFFFFFFFFFFFFFFFF DUP3 GT PUSH2 0x495 JUMPI PUSH1 0x40 MLOAD SWAP2 PUSH2 0xA20 PUSH1 0x1F DUP3 ADD PUSH1 0x1F NOT AND PUSH1 0x20 ADD DUP5 PUSH2 0x4E3 JUMP JUMPDEST DUP3 MSTORE RETURNDATASIZE PUSH1 0x0 PUSH1 0x20 DUP5 ADD RETURNDATACOPY JUMP JUMPDEST PUSH1 0x60 SWAP1 JUMP JUMPDEST SWAP1 DUP2 PUSH1 0x20 SWAP2 SUB SLT PUSH2 0x41C JUMPI MLOAD DUP1 ISZERO ISZERO DUP2 SUB PUSH2 0x41C JUMPI SWAP1 JUMP INVALID LOG2 PUSH5 0x6970667358 0x22 SLT KECCAK256 0x24 PUSH4 0x4C66A5BA DUP6 BYTE 0xD3 PUSH24 0xBC4A393528B7EB9F1562CE3E6E73026C1618402D1E026473 PUSH16 0x6C634300081300330000000000000000 "
        },
        "methodIdentifiers": {
          "buy(uint256,address,address,bytes)": "987bb07b",
          "fee()": "ddca3f43",
          "owner()": "8da5cb5b",
          "renounceOwnership()": "715018a6",
          "sell(uint256,address,address,bytes)": "2454b710",
          "sellAndBuy(uint256,address,address,bytes)": "03679454",
          "setFee(uint24)": "eabb5622",
          "transferOwnership(address)": "f2fde38b"
        }
      }
    }
  }
}