{
  "contracts/core/adaptors/UniswapV3ViaRouterETH.sol": {
    "UniswapV3ViaRouterETH": {
      "abi": [
        {
          "inputs": [],
          "stateMutability": "nonpayable",
          "type": "constructor"
        },
        {
          "anonymous": false,
          "inputs": [
            {
              "indexed": false,
              "internalType": "uint256",
              "name": "amount",
              "type": "uint256"
            },
            {
              "indexed": false,
              "internalType": "uint256",
              "name": "amountOut",
              "type": "uint256"
            },
            {
              "indexed": false,
              "internalType": "address",
              "name": "token",
              "type": "address"
            },
            {
              "indexed": true,
              "internalType": "address",
              "name": "recipient",
              "type": "address"
            }
          ],
          "name": "Bought",
          "type": "event"
        },
        {
          "anonymous": false,
          "inputs": [
            {
              "indexed": true,
              "internalType": "address",
              "name": "previousOwner",
              "type": "address"
            },
            {
              "indexed": true,
              "internalType": "address",
              "name": "newOwner",
              "type": "address"
            }
          ],
          "name": "OwnershipTransferred",
          "type": "event"
        },
        {
          "anonymous": false,
          "inputs": [
            {
              "indexed": false,
              "internalType": "uint256",
              "name": "amount",
              "type": "uint256"
            },
            {
              "indexed": false,
              "internalType": "uint256",
              "name": "amountOut",
              "type": "uint256"
            },
            {
              "indexed": false,
              "internalType": "address",
              "name": "token",
              "type": "address"
            },
            {
              "indexed": true,
              "internalType": "address",
              "name": "recipient",
              "type": "address"
            }
          ],
          "name": "Sold",
          "type": "event"
        },
        {
          "inputs": [
            {
              "internalType": "uint256",
              "name": "amount",
              "type": "uint256"
            },
            {
              "internalType": "address",
              "name": "token",
              "type": "address"
            },
            {
              "internalType": "address",
              "name": "recipient",
              "type": "address"
            },
            {
              "internalType": "bytes",
              "name": "extraData",
              "type": "bytes"
            }
          ],
          "name": "buy",
          "outputs": [
            {
              "internalType": "uint256",
              "name": "",
              "type": "uint256"
            }
          ],
          "stateMutability": "nonpayable",
          "type": "function"
        },
        {
          "inputs": [],
          "name": "fee",
          "outputs": [
            {
              "internalType": "uint24",
              "name": "",
              "type": "uint24"
            }
          ],
          "stateMutability": "view",
          "type": "function"
        },
        {
          "inputs": [],
          "name": "owner",
          "outputs": [
            {
              "internalType": "address",
              "name": "",
              "type": "address"
            }
          ],
          "stateMutability": "view",
          "type": "function"
        },
        {
          "inputs": [],
          "name": "renounceOwnership",
          "outputs": [],
          "stateMutability": "nonpayable",
          "type": "function"
        },
        {
          "inputs": [
            {
              "internalType": "uint256",
              "name": "amount",
              "type": "uint256"
            },
            {
              "internalType": "address",
              "name": "token",
              "type": "address"
            },
            {
              "internalType": "address",
              "name": "recipient",
              "type": "address"
            },
            {
              "internalType": "bytes",
              "name": "extraData",
              "type": "bytes"
            }
          ],
          "name": "sell",
          "outputs": [
            {
              "internalType": "uint256",
              "name": "",
              "type": "uint256"
            }
          ],
          "stateMutability": "nonpayable",
          "type": "function"
        },
        {
          "inputs": [
            {
              "internalType": "uint256",
              "name": "amount",
              "type": "uint256"
            },
            {
              "internalType": "address",
              "name": "token",
              "type": "address"
            },
            {
              "internalType": "address",
              "name": "recipient",
              "type": "address"
            },
            {
              "internalType": "bytes",
              "name": "extraData",
              "type": "bytes"
            }
          ],
          "name": "sellAndBuy",
          "outputs": [
            {
              "internalType": "uint256",
              "name": "",
              "type": "uint256"
            }
          ],
          "stateMutability": "nonpayable",
          "type": "function"
        },
        {
          "inputs": [
            {
              "internalType": "uint24",
              "name": "_fee",
              "type": "uint24"
            }
          ],
          "name": "setFee",
          "outputs": [],
          "stateMutability": "nonpayable",
          "type": "function"
        },
        {
          "inputs": [
            {
              "internalType": "address",
              "name": "_intermidiateToken",
              "type": "address"
            }
          ],
          "name": "setIntermidiateToken",
          "outputs": [],
          "stateMutability": "nonpayable",
          "type": "function"
        },
        {
          "inputs": [
            {
              "internalType": "address",
              "name": "newOwner",
              "type": "address"
            }
          ],
          "name": "transferOwnership",
          "outputs": [],
          "stateMutability": "nonpayable",
          "type": "function"
        }
      ],
      "evm": {
        "bytecode": {
          "linkReferences": {},
          "object": "6080346101ed5760008054909190336001600160a01b0382167f8be0079c531659141344cd1fd0a4f28419497f9722a3daafe3b4186f6b6457e08580a36001600160b81b0319163362ffffff60a01b19161761027160a41b178255600180546001600160a01b03191673420000000000000000000000000000000000000690811790915563095ea7b360e01b60208301908152732626664c2603336e57b271c5c0b26f421741e481602484015260001960448085019190915283526001600160401b039260808101848111828210176101d95760405251849283929083905af1913d156101d0573d8281116101bc5760405192601f8201601f19908116603f01168401908111848210176101a85760405282523d81602084013e5b82610160575b505015610136576040516109c690816101f38239f35b60405162461bcd60e51b8152602060048201526002602482015261534160f01b6044820152606490fd5b908092505191821592831561017a575b5050503880610120565b8192935090602091810103126101a457602001519081151582036101a15750388080610170565b80fd5b5080fd5b634e487b7160e01b83526041600452602483fd5b634e487b7160e01b82526041600452602482fd5b6060915061011a565b634e487b7160e01b86526041600452602486fd5b600080fdfe6040608081526004908136101561001557600080fd5b600091823560e01c806303679454146105065780632454b710146104b0578063715018a6146104565780638da5cb5b1461042e578063987bb07b146103a3578063cc3f6d5d14610241578063ddca3f4314610218578063eabb5622146101495763f2fde38b1461008457600080fd5b346101455760203660031901126101455761009d61056d565b906100a66105f8565b6001600160a01b039182169283156100f357505082546001600160a01b0319811683178455167f8be0079c531659141344cd1fd0a4f28419497f9722a3daafe3b4186f6b6457e08380a380f35b906020608492519162461bcd60e51b8352820152602660248201527f4f776e61626c653a206e6577206f776e657220697320746865207a65726f206160448201526564647265737360d01b6064820152fd5b8280fd5b50346101455760203660031901126101455780359162ffffff8316808403610214576101736105f8565b60648114159081610207575b816101fa575b816101ed575b506101b1575050815462ffffff60a01b191660a09190911b62ffffff60a01b1617815580f35b906020606492519162461bcd60e51b83528201526016602482015275556e697377617076333a20496e76616c69642066656560501b6044820152fd5b612710915014153861018b565b610bb88114159150610185565b6101f4811415915061017f565b8480fd5b50503461023d578160031936011261023d5762ffffff6020925460a01c169051908152f35b5080fd5b509034610145576020908160031936011261039f5761025e61056d565b6102666105f8565b6001600160a01b03166006602160991b018114610343578481819260018060a01b031960015416176001558351828682019163095ea7b360e01b8352732626664c2603336e57b271c5c0b26f421741e48160248201526000196044820152604481526102d181610650565b51925af16102dd6106a4565b81610313575b50156102ed578380f35b5162461bcd60e51b8152918201526002602482015261534160f01b604482015260649150fd5b8051801592508490831561032b575b505050386102e3565b61033b93508201810191016106e4565b388381610322565b505162461bcd60e51b815291820152603160248201527f556e69737761705633566961526f757465724554483a20496e76616c69642069604482015270373a32b936b4b234b0ba32903a37b5b2b760791b606482015260849150fd5b8380fd5b82843461042b5760207f4ebd6ef39c1235e69ba7dedf24ad43bdeb57deb289d98473668070d6ca9b685e836103d736610588565b505060018060a09693961b03906104226103f9858460015416848a33926106fc565b8651958652602086018190526001600160a01b0390971660408601529116929081906060820190565b0390a251908152f35b80fd5b50503461023d578160031936011261023d57905490516001600160a01b039091168152602090f35b833461042b578060031936011261042b5761046f6105f8565b80546001600160a01b03198116825581906001600160a01b03167f8be0079c531659141344cd1fd0a4f28419497f9722a3daafe3b4186f6b6457e08280a380f35b82843461042b5760207f55390ad3bffeff90968b8c54d2ed0099a7dbd2d71bc56263a1abf5643f833fec836104e436610588565b505060018060a09693961b03906104226103f98584600154168433918b6106fc565b82843461042b5760207f55390ad3bffeff90968b8c54d2ed0099a7dbd2d71bc56263a1abf5643f833fec8361053a36610588565b505060018060a09693961b03906104226103f9610560868560015416339030908c6106fc565b30848a87600154166106fc565b600435906001600160a01b038216820361058357565b600080fd5b608060031982011261058357600435916001600160a01b0391602435838116810361058357926044359081168103610583579160643567ffffffffffffffff9283821161058357806023830112156105835781600401359384116105835760248483010111610583576024019190565b6000546001600160a01b0316330361060c57565b606460405162461bcd60e51b815260206004820152602060248201527f4f776e61626c653a2063616c6c6572206973206e6f7420746865206f776e65726044820152fd5b6080810190811067ffffffffffffffff82111761066c57604052565b634e487b7160e01b600052604160045260246000fd5b90601f8019910116810190811067ffffffffffffffff82111761066c57604052565b3d156106df573d9067ffffffffffffffff821161066c57604051916106d3601f8201601f191660200184610682565b82523d6000602084013e565b606090565b90816020910312610583575180151581036105835790565b604080516323b872dd60e01b60208083019182526001600160a01b03968716602484015230604484015260648084018a90528352929795969095929467ffffffffffffffff9490939260a081018681118282101761066c578a52600080988192519082855af161076a6106a4565b81610960575b501561093657885193878088870163095ea7b360e01b8152732626664c2603336e57b271c5c0b26f421741e48197886024820152876044820152604481526107b781610650565b519082865af16107c56106a4565b81610906575b50156108dd5762ffffff885460a01c16918a519660e0880190888210908211176108c9578b52891686528816858701908152858a01918252918816606086019081526080860193845260a0860188815260c087018981528b516304e45aaf60e01b815297518b16600489015293518a166024880152915162ffffff166044870152518816606486015291516084850152905160a48401525190941660c4820152928190849081855a9260e493f19384156108be5750819361088d575b50505090565b9091809350813d83116108b7575b6108a58183610682565b8101031261042b575051388080610887565b503d61089b565b51913d9150823e3d90fd5b634e487b7160e01b8a52604160045260248afd5b895162461bcd60e51b8152600481018890526002602482015261534160f01b6044820152606490fd5b8051801592508990831561091e575b505050386107cb565b61092e93508201810191016106e4565b388881610915565b885162461bcd60e51b815260048101879052600360248201526229aa2360e91b6044820152606490fd5b80518015925088908315610978575b50505038610770565b61098893508201810191016106e4565b38878161096f56fea2646970667358221220bb2e804399d13cf926d1d17d387ca7c4a21c15a843c7b36a18347ee404ec4ac064736f6c63430008130033",
          "opcodes": "PUSH1 0x80 CALLVALUE PUSH2 0x1ED JUMPI PUSH1 0x0 DUP1 SLOAD SWAP1 SWAP2 SWAP1 CALLER PUSH1 0x1 PUSH1 0x1 PUSH1 0xA0 SHL SUB DUP3 AND PUSH32 0x8BE0079C531659141344CD1FD0A4F28419497F9722A3DAAFE3B4186F6B6457E0 DUP6 DUP1 LOG3 PUSH1 0x1 PUSH1 0x1 PUSH1 0xB8 SHL SUB NOT AND CALLER PUSH3 0xFFFFFF PUSH1 0xA0 SHL NOT AND OR PUSH2 0x271 PUSH1 0xA4 SHL OR DUP3 SSTORE PUSH1 0x1 DUP1 SLOAD PUSH1 0x1 PUSH1 0x1 PUSH1 0xA0 SHL SUB NOT AND PUSH20 0x4200000000000000000000000000000000000006 SWAP1 DUP2 OR SWAP1 SWAP2 SSTORE PUSH4 0x95EA7B3 PUSH1 0xE0 SHL PUSH1 0x20 DUP4 ADD SWAP1 DUP2 MSTORE PUSH20 0x2626664C2603336E57B271C5C0B26F421741E481 PUSH1 0x24 DUP5 ADD MSTORE PUSH1 0x0 NOT PUSH1 0x44 DUP1 DUP6 ADD SWAP2 SWAP1 SWAP2 MSTORE DUP4 MSTORE PUSH1 0x1 PUSH1 0x1 PUSH1 0x40 SHL SUB SWAP3 PUSH1 0x80 DUP2 ADD DUP5 DUP2 GT DUP3 DUP3 LT OR PUSH2 0x1D9 JUMPI PUSH1 0x40 MSTORE MLOAD DUP5 SWAP3 DUP4 SWAP3 SWAP1 DUP4 SWAP1 GAS CALL SWAP2 RETURNDATASIZE ISZERO PUSH2 0x1D0 JUMPI RETURNDATASIZE DUP3 DUP2 GT PUSH2 0x1BC JUMPI PUSH1 0x40 MLOAD SWAP3 PUSH1 0x1F DUP3 ADD PUSH1 0x1F NOT SWAP1 DUP2 AND PUSH1 0x3F ADD AND DUP5 ADD SWAP1 DUP2 GT DUP5 DUP3 LT OR PUSH2 0x1A8 JUMPI PUSH1 0x40 MSTORE DUP3 MSTORE RETURNDATASIZE DUP2 PUSH1 0x20 DUP5 ADD RETURNDATACOPY JUMPDEST DUP3 PUSH2 0x160 JUMPI JUMPDEST POP POP ISZERO PUSH2 0x136 JUMPI PUSH1 0x40 MLOAD PUSH2 0x9C6 SWAP1 DUP2 PUSH2 0x1F3 DUP3 CODECOPY RETURN JUMPDEST PUSH1 0x40 MLOAD PUSH3 0x461BCD PUSH1 0xE5 SHL DUP2 MSTORE PUSH1 0x20 PUSH1 0x4 DUP3 ADD MSTORE PUSH1 0x2 PUSH1 0x24 DUP3 ADD MSTORE PUSH2 0x5341 PUSH1 0xF0 SHL PUSH1 0x44 DUP3 ADD MSTORE PUSH1 0x64 SWAP1 REVERT JUMPDEST SWAP1 DUP1 SWAP3 POP MLOAD SWAP2 DUP3 ISZERO SWAP3 DUP4 ISZERO PUSH2 0x17A JUMPI JUMPDEST POP POP POP CODESIZE DUP1 PUSH2 0x120 JUMP JUMPDEST DUP2 SWAP3 SWAP4 POP SWAP1 PUSH1 0x20 SWAP2 DUP2 ADD SUB SLT PUSH2 0x1A4 JUMPI PUSH1 0x20 ADD MLOAD SWAP1 DUP2 ISZERO ISZERO DUP3 SUB PUSH2 0x1A1 JUMPI POP CODESIZE DUP1 DUP1 PUSH2 0x170 JUMP JUMPDEST DUP1 REVERT JUMPDEST POP DUP1 REVERT JUMPDEST PUSH4 0x4E487B71 PUSH1 0xE0 SHL DUP4 MSTORE PUSH1 0x41 PUSH1 0x4 MSTORE PUSH1 0x24 DUP4 REVERT JUMPDEST PUSH4 0x4E487B71 PUSH1 0xE0 SHL DUP3 MSTORE PUSH1 0x41 PUSH1 0x4 MSTORE PUSH1 0x24 DUP3 REVERT JUMPDEST PUSH1 0x60 SWAP2 POP PUSH2 0x11A JUMP JUMPDEST PUSH4 0x4E487B71 PUSH1 0xE0 SHL DUP7 MSTORE PUSH1 0x41 PUSH1 0x4 MSTORE PUSH1 0x24 DUP7 REVERT JUMPDEST PUSH1 0x0 DUP1 REVERT INVALID PUSH1 0x40 PUSH1 0x80 DUP2 MSTORE PUSH1 0x4 SWAP1 DUP2 CALLDATASIZE LT ISZERO PUSH2 0x15 JUMPI PUSH1 0x0 DUP1 REVERT JUMPDEST PUSH1 0x0 SWAP2 DUP3 CALLDATALOAD PUSH1 0xE0 SHR DUP1 PUSH4 0x3679454 EQ PUSH2 0x506 JUMPI DUP1 PUSH4 0x2454B710 EQ PUSH2 0x4B0 JUMPI DUP1 PUSH4 0x715018A6 EQ PUSH2 0x456 JUMPI DUP1 PUSH4 0x8DA5CB5B EQ PUSH2 0x42E JUMPI DUP1 PUSH4 0x987BB07B EQ PUSH2 0x3A3 JUMPI DUP1 PUSH4 0xCC3F6D5D EQ PUSH2 0x241 JUMPI DUP1 PUSH4 0xDDCA3F43 EQ PUSH2 0x218 JUMPI DUP1 PUSH4 0xEABB5622 EQ PUSH2 0x149 JUMPI PUSH4 0xF2FDE38B EQ PUSH2 0x84 JUMPI PUSH1 0x0 DUP1 REVERT JUMPDEST CALLVALUE PUSH2 0x145 JUMPI PUSH1 0x20 CALLDATASIZE PUSH1 0x3 NOT ADD SLT PUSH2 0x145 JUMPI PUSH2 0x9D PUSH2 0x56D JUMP JUMPDEST SWAP1 PUSH2 0xA6 PUSH2 0x5F8 JUMP JUMPDEST PUSH1 0x1 PUSH1 0x1 PUSH1 0xA0 SHL SUB SWAP2 DUP3 AND SWAP3 DUP4 ISZERO PUSH2 0xF3 JUMPI POP POP DUP3 SLOAD PUSH1 0x1 PUSH1 0x1 PUSH1 0xA0 SHL SUB NOT DUP2 AND DUP4 OR DUP5 SSTORE AND PUSH32 0x8BE0079C531659141344CD1FD0A4F28419497F9722A3DAAFE3B4186F6B6457E0 DUP4 DUP1 LOG3 DUP1 RETURN JUMPDEST SWAP1 PUSH1 0x20 PUSH1 0x84 SWAP3 MLOAD SWAP2 PUSH3 0x461BCD PUSH1 0xE5 SHL DUP4 MSTORE DUP3 ADD MSTORE PUSH1 0x26 PUSH1 0x24 DUP3 ADD MSTORE PUSH32 0x4F776E61626C653A206E6577206F776E657220697320746865207A65726F2061 PUSH1 0x44 DUP3 ADD MSTORE PUSH6 0x646472657373 PUSH1 0xD0 SHL PUSH1 0x64 DUP3 ADD MSTORE REVERT JUMPDEST DUP3 DUP1 REVERT JUMPDEST POP CALLVALUE PUSH2 0x145 JUMPI PUSH1 0x20 CALLDATASIZE PUSH1 0x3 NOT ADD SLT PUSH2 0x145 JUMPI DUP1 CALLDATALOAD SWAP2 PUSH3 0xFFFFFF DUP4 AND DUP1 DUP5 SUB PUSH2 0x214 JUMPI PUSH2 0x173 PUSH2 0x5F8 JUMP JUMPDEST PUSH1 0x64 DUP2 EQ ISZERO SWAP1 DUP2 PUSH2 0x207 JUMPI JUMPDEST DUP2 PUSH2 0x1FA JUMPI JUMPDEST DUP2 PUSH2 0x1ED JUMPI JUMPDEST POP PUSH2 0x1B1 JUMPI POP POP DUP2 SLOAD PUSH3 0xFFFFFF PUSH1 0xA0 SHL NOT AND PUSH1 0xA0 SWAP2 SWAP1 SWAP2 SHL PUSH3 0xFFFFFF PUSH1 0xA0 SHL AND OR DUP2 SSTORE DUP1 RETURN JUMPDEST SWAP1 PUSH1 0x20 PUSH1 0x64 SWAP3 MLOAD SWAP2 PUSH3 0x461BCD PUSH1 0xE5 SHL DUP4 MSTORE DUP3 ADD MSTORE PUSH1 0x16 PUSH1 0x24 DUP3 ADD MSTORE PUSH22 0x556E697377617076333A20496E76616C696420666565 PUSH1 0x50 SHL PUSH1 0x44 DUP3 ADD MSTORE REVERT JUMPDEST PUSH2 0x2710 SWAP2 POP EQ ISZERO CODESIZE PUSH2 0x18B JUMP JUMPDEST PUSH2 0xBB8 DUP2 EQ ISZERO SWAP2 POP PUSH2 0x185 JUMP JUMPDEST PUSH2 0x1F4 DUP2 EQ ISZERO SWAP2 POP PUSH2 0x17F JUMP JUMPDEST DUP5 DUP1 REVERT JUMPDEST POP POP CALLVALUE PUSH2 0x23D JUMPI DUP2 PUSH1 0x3 NOT CALLDATASIZE ADD SLT PUSH2 0x23D JUMPI PUSH3 0xFFFFFF PUSH1 0x20 SWAP3 SLOAD PUSH1 0xA0 SHR AND SWAP1 MLOAD SWAP1 DUP2 MSTORE RETURN JUMPDEST POP DUP1 REVERT JUMPDEST POP SWAP1 CALLVALUE PUSH2 0x145 JUMPI PUSH1 0x20 SWAP1 DUP2 PUSH1 0x3 NOT CALLDATASIZE ADD SLT PUSH2 0x39F JUMPI PUSH2 0x25E PUSH2 0x56D JUMP JUMPDEST PUSH2 0x266 PUSH2 0x5F8 JUMP JUMPDEST PUSH1 0x1 PUSH1 0x1 PUSH1 0xA0 SHL SUB AND PUSH1 0x6 PUSH1 0x21 PUSH1 0x99 SHL ADD DUP2 EQ PUSH2 0x343 JUMPI DUP5 DUP2 DUP2 SWAP3 PUSH1 0x1 DUP1 PUSH1 0xA0 SHL SUB NOT PUSH1 0x1 SLOAD AND OR PUSH1 0x1 SSTORE DUP4 MLOAD DUP3 DUP7 DUP3 ADD SWAP2 PUSH4 0x95EA7B3 PUSH1 0xE0 SHL DUP4 MSTORE PUSH20 0x2626664C2603336E57B271C5C0B26F421741E481 PUSH1 0x24 DUP3 ADD MSTORE PUSH1 0x0 NOT PUSH1 0x44 DUP3 ADD MSTORE PUSH1 0x44 DUP2 MSTORE PUSH2 0x2D1 DUP2 PUSH2 0x650 JUMP JUMPDEST MLOAD SWAP3 GAS CALL PUSH2 0x2DD PUSH2 0x6A4 JUMP JUMPDEST DUP2 PUSH2 0x313 JUMPI JUMPDEST POP ISZERO PUSH2 0x2ED JUMPI DUP4 DUP1 RETURN JUMPDEST MLOAD PUSH3 0x461BCD PUSH1 0xE5 SHL DUP2 MSTORE SWAP2 DUP3 ADD MSTORE PUSH1 0x2 PUSH1 0x24 DUP3 ADD MSTORE PUSH2 0x5341 PUSH1 0xF0 SHL PUSH1 0x44 DUP3 ADD MSTORE PUSH1 0x64 SWAP2 POP REVERT JUMPDEST DUP1 MLOAD DUP1 ISZERO SWAP3 POP DUP5 SWAP1 DUP4 ISZERO PUSH2 0x32B JUMPI JUMPDEST POP POP POP CODESIZE PUSH2 0x2E3 JUMP JUMPDEST PUSH2 0x33B SWAP4 POP DUP3 ADD DUP2 ADD SWAP2 ADD PUSH2 0x6E4 JUMP JUMPDEST CODESIZE DUP4 DUP2 PUSH2 0x322 JUMP JUMPDEST POP MLOAD PUSH3 0x461BCD PUSH1 0xE5 SHL DUP2 MSTORE SWAP2 DUP3 ADD MSTORE PUSH1 0x31 PUSH1 0x24 DUP3 ADD MSTORE PUSH32 0x556E69737761705633566961526F757465724554483A20496E76616C69642069 PUSH1 0x44 DUP3 ADD MSTORE PUSH17 0x373A32B936B4B234B0BA32903A37B5B2B7 PUSH1 0x79 SHL PUSH1 0x64 DUP3 ADD MSTORE PUSH1 0x84 SWAP2 POP REVERT JUMPDEST DUP4 DUP1 REVERT JUMPDEST DUP3 DUP5 CALLVALUE PUSH2 0x42B JUMPI PUSH1 0x20 PUSH32 0x4EBD6EF39C1235E69BA7DEDF24AD43BDEB57DEB289D98473668070D6CA9B685E DUP4 PUSH2 0x3D7 CALLDATASIZE PUSH2 0x588 JUMP JUMPDEST POP POP PUSH1 0x1 DUP1 PUSH1 0xA0 SWAP7 SWAP4 SWAP7 SHL SUB SWAP1 PUSH2 0x422 PUSH2 0x3F9 DUP6 DUP5 PUSH1 0x1 SLOAD AND DUP5 DUP11 CALLER SWAP3 PUSH2 0x6FC JUMP JUMPDEST DUP7 MLOAD SWAP6 DUP7 MSTORE PUSH1 0x20 DUP7 ADD DUP2 SWAP1 MSTORE PUSH1 0x1 PUSH1 0x1 PUSH1 0xA0 SHL SUB SWAP1 SWAP8 AND PUSH1 0x40 DUP7 ADD MSTORE SWAP2 AND SWAP3 SWAP1 DUP2 SWAP1 PUSH1 0x60 DUP3 ADD SWAP1 JUMP JUMPDEST SUB SWAP1 LOG2 MLOAD SWAP1 DUP2 MSTORE RETURN JUMPDEST DUP1 REVERT JUMPDEST POP POP CALLVALUE PUSH2 0x23D JUMPI DUP2 PUSH1 0x3 NOT CALLDATASIZE ADD SLT PUSH2 0x23D JUMPI SWAP1 SLOAD SWAP1 MLOAD PUSH1 0x1 PUSH1 0x1 PUSH1 0xA0 SHL SUB SWAP1 SWAP2 AND DUP2 MSTORE PUSH1 0x20 SWAP1 RETURN JUMPDEST DUP4 CALLVALUE PUSH2 0x42B JUMPI DUP1 PUSH1 0x3 NOT CALLDATASIZE ADD SLT PUSH2 0x42B JUMPI PUSH2 0x46F PUSH2 0x5F8 JUMP JUMPDEST DUP1 SLOAD PUSH1 0x1 PUSH1 0x1 PUSH1 0xA0 SHL SUB NOT DUP2 AND DUP3 SSTORE DUP2 SWAP1 PUSH1 0x1 PUSH1 0x1 PUSH1 0xA0 SHL SUB AND PUSH32 0x8BE0079C531659141344CD1FD0A4F28419497F9722A3DAAFE3B4186F6B6457E0 DUP3 DUP1 LOG3 DUP1 RETURN JUMPDEST DUP3 DUP5 CALLVALUE PUSH2 0x42B JUMPI PUSH1 0x20 PUSH32 0x55390AD3BFFEFF90968B8C54D2ED0099A7DBD2D71BC56263A1ABF5643F833FEC DUP4 PUSH2 0x4E4 CALLDATASIZE PUSH2 0x588 JUMP JUMPDEST POP POP PUSH1 0x1 DUP1 PUSH1 0xA0 SWAP7 SWAP4 SWAP7 SHL SUB SWAP1 PUSH2 0x422 PUSH2 0x3F9 DUP6 DUP5 PUSH1 0x1 SLOAD AND DUP5 CALLER SWAP2 DUP12 PUSH2 0x6FC JUMP JUMPDEST DUP3 DUP5 CALLVALUE PUSH2 0x42B JUMPI PUSH1 0x20 PUSH32 0x55390AD3BFFEFF90968B8C54D2ED0099A7DBD2D71BC56263A1ABF5643F833FEC DUP4 PUSH2 0x53A CALLDATASIZE PUSH2 0x588 JUMP JUMPDEST POP POP PUSH1 0x1 DUP1 PUSH1 0xA0 SWAP7 SWAP4 SWAP7 SHL SUB SWAP1 PUSH2 0x422 PUSH2 0x3F9 PUSH2 0x560 DUP7 DUP6 PUSH1 0x1 SLOAD AND CALLER SWAP1 ADDRESS SWAP1 DUP13 PUSH2 0x6FC JUMP JUMPDEST ADDRESS DUP5 DUP11 DUP8 PUSH1 0x1 SLOAD AND PUSH2 0x6FC JUMP JUMPDEST PUSH1 0x4 CALLDATALOAD SWAP1 PUSH1 0x1 PUSH1 0x1 PUSH1 0xA0 SHL SUB DUP3 AND DUP3 SUB PUSH2 0x583 JUMPI JUMP JUMPDEST PUSH1 0x0 DUP1 REVERT JUMPDEST PUSH1 0x80 PUSH1 0x3 NOT DUP3 ADD SLT PUSH2 0x583 JUMPI PUSH1 0x4 CALLDATALOAD SWAP2 PUSH1 0x1 PUSH1 0x1 PUSH1 0xA0 SHL SUB SWAP2 PUSH1 0x24 CALLDATALOAD DUP4 DUP2 AND DUP2 SUB PUSH2 0x583 JUMPI SWAP3 PUSH1 0x44 CALLDATALOAD SWAP1 DUP2 AND DUP2 SUB PUSH2 0x583 JUMPI SWAP2 PUSH1 0x64 CALLDATALOAD PUSH8 0xFFFFFFFFFFFFFFFF SWAP3 DUP4 DUP3 GT PUSH2 0x583 JUMPI DUP1 PUSH1 0x23 DUP4 ADD SLT ISZERO PUSH2 0x583 JUMPI DUP2 PUSH1 0x4 ADD CALLDATALOAD SWAP4 DUP5 GT PUSH2 0x583 JUMPI PUSH1 0x24 DUP5 DUP4 ADD ADD GT PUSH2 0x583 JUMPI PUSH1 0x24 ADD SWAP2 SWAP1 JUMP JUMPDEST PUSH1 0x0 SLOAD PUSH1 0x1 PUSH1 0x1 PUSH1 0xA0 SHL SUB AND CALLER SUB PUSH2 0x60C JUMPI JUMP JUMPDEST PUSH1 0x64 PUSH1 0x40 MLOAD PUSH3 0x461BCD PUSH1 0xE5 SHL DUP2 MSTORE PUSH1 0x20 PUSH1 0x4 DUP3 ADD MSTORE PUSH1 0x20 PUSH1 0x24 DUP3 ADD MSTORE PUSH32 0x4F776E61626C653A2063616C6C6572206973206E6F7420746865206F776E6572 PUSH1 0x44 DUP3 ADD MSTORE REVERT JUMPDEST PUSH1 0x80 DUP2 ADD SWAP1 DUP2 LT PUSH8 0xFFFFFFFFFFFFFFFF DUP3 GT OR PUSH2 0x66C JUMPI PUSH1 0x40 MSTORE JUMP JUMPDEST PUSH4 0x4E487B71 PUSH1 0xE0 SHL PUSH1 0x0 MSTORE PUSH1 0x41 PUSH1 0x4 MSTORE PUSH1 0x24 PUSH1 0x0 REVERT JUMPDEST SWAP1 PUSH1 0x1F DUP1 NOT SWAP2 ADD AND DUP2 ADD SWAP1 DUP2 LT PUSH8 0xFFFFFFFFFFFFFFFF DUP3 GT OR PUSH2 0x66C JUMPI PUSH1 0x40 MSTORE JUMP JUMPDEST RETURNDATASIZE ISZERO PUSH2 0x6DF JUMPI RETURNDATASIZE SWAP1 PUSH8 0xFFFFFFFFFFFFFFFF DUP3 GT PUSH2 0x66C JUMPI PUSH1 0x40 MLOAD SWAP2 PUSH2 0x6D3 PUSH1 0x1F DUP3 ADD PUSH1 0x1F NOT AND PUSH1 0x20 ADD DUP5 PUSH2 0x682 JUMP JUMPDEST DUP3 MSTORE RETURNDATASIZE PUSH1 0x0 PUSH1 0x20 DUP5 ADD RETURNDATACOPY JUMP JUMPDEST PUSH1 0x60 SWAP1 JUMP JUMPDEST SWAP1 DUP2 PUSH1 0x20 SWAP2 SUB SLT PUSH2 0x583 JUMPI MLOAD DUP1 ISZERO ISZERO DUP2 SUB PUSH2 0x583 JUMPI SWAP1 JUMP JUMPDEST PUSH1 0x40 DUP1 MLOAD PUSH4 0x23B872DD PUSH1 0xE0 SHL PUSH1 0x20 DUP1 DUP4 ADD SWAP2 DUP3 MSTORE PUSH1 0x1 PUSH1 0x1 PUSH1 0xA0 SHL SUB SWAP7 DUP8 AND PUSH1 0x24 DUP5 ADD MSTORE ADDRESS PUSH1 0x44 DUP5 ADD MSTORE PUSH1 0x64 DUP1 DUP5 ADD DUP11 SWAP1 MSTORE DUP4 MSTORE SWAP3 SWAP8 SWAP6 SWAP7 SWAP1 SWAP6 SWAP3 SWAP5 PUSH8 0xFFFFFFFFFFFFFFFF SWAP5 SWAP1 SWAP4 SWAP3 PUSH1 0xA0 DUP2 ADD DUP7 DUP2 GT DUP3 DUP3 LT OR PUSH2 0x66C JUMPI DUP11 MSTORE PUSH1 0x0 DUP1 SWAP9 DUP2 SWAP3 MLOAD SWAP1 DUP3 DUP6 GAS CALL PUSH2 0x76A PUSH2 0x6A4 JUMP JUMPDEST DUP2 PUSH2 0x960 JUMPI JUMPDEST POP ISZERO PUSH2 0x936 JUMPI DUP9 MLOAD SWAP4 DUP8 DUP1 DUP9 DUP8 ADD PUSH4 0x95EA7B3 PUSH1 0xE0 SHL DUP2 MSTORE PUSH20 0x2626664C2603336E57B271C5C0B26F421741E481 SWAP8 DUP9 PUSH1 0x24 DUP3 ADD MSTORE DUP8 PUSH1 0x44 DUP3 ADD MSTORE PUSH1 0x44 DUP2 MSTORE PUSH2 0x7B7 DUP2 PUSH2 0x650 JUMP JUMPDEST MLOAD SWAP1 DUP3 DUP7 GAS CALL PUSH2 0x7C5 PUSH2 0x6A4 JUMP JUMPDEST DUP2 PUSH2 0x906 JUMPI JUMPDEST POP ISZERO PUSH2 0x8DD JUMPI PUSH3 0xFFFFFF DUP9 SLOAD PUSH1 0xA0 SHR AND SWAP2 DUP11 MLOAD SWAP7 PUSH1 0xE0 DUP9 ADD SWAP1 DUP9 DUP3 LT SWAP1 DUP3 GT OR PUSH2 0x8C9 JUMPI DUP12 MSTORE DUP10 AND DUP7 MSTORE DUP9 AND DUP6 DUP8 ADD SWAP1 DUP2 MSTORE DUP6 DUP11 ADD SWAP2 DUP3 MSTORE SWAP2 DUP9 AND PUSH1 0x60 DUP7 ADD SWAP1 DUP2 MSTORE PUSH1 0x80 DUP7 ADD SWAP4 DUP5 MSTORE PUSH1 0xA0 DUP7 ADD DUP9 DUP2 MSTORE PUSH1 0xC0 DUP8 ADD DUP10 DUP2 MSTORE DUP12 MLOAD PUSH4 0x4E45AAF PUSH1 0xE0 SHL DUP2 MSTORE SWAP8 MLOAD DUP12 AND PUSH1 0x4 DUP10 ADD MSTORE SWAP4 MLOAD DUP11 AND PUSH1 0x24 DUP9 ADD MSTORE SWAP2 MLOAD PUSH3 0xFFFFFF AND PUSH1 0x44 DUP8 ADD MSTORE MLOAD DUP9 AND PUSH1 0x64 DUP7 ADD MSTORE SWAP2 MLOAD PUSH1 0x84 DUP6 ADD MSTORE SWAP1 MLOAD PUSH1 0xA4 DUP5 ADD MSTORE MLOAD SWAP1 SWAP5 AND PUSH1 0xC4 DUP3 ADD MSTORE SWAP3 DUP2 SWAP1 DUP5 SWAP1 DUP2 DUP6 GAS SWAP3 PUSH1 0xE4 SWAP4 CALL SWAP4 DUP5 ISZERO PUSH2 0x8BE JUMPI POP DUP2 SWAP4 PUSH2 0x88D JUMPI JUMPDEST POP POP POP SWAP1 JUMP JUMPDEST SWAP1 SWAP2 DUP1 SWAP4 POP DUP2 RETURNDATASIZE DUP4 GT PUSH2 0x8B7 JUMPI JUMPDEST PUSH2 0x8A5 DUP2 DUP4 PUSH2 0x682 JUMP JUMPDEST DUP2 ADD SUB SLT PUSH2 0x42B JUMPI POP MLOAD CODESIZE DUP1 DUP1 PUSH2 0x887 JUMP JUMPDEST POP RETURNDATASIZE PUSH2 0x89B JUMP JUMPDEST MLOAD SWAP2 RETURNDATASIZE SWAP2 POP DUP3 RETURNDATACOPY RETURNDATASIZE SWAP1 REVERT JUMPDEST PUSH4 0x4E487B71 PUSH1 0xE0 SHL DUP11 MSTORE PUSH1 0x41 PUSH1 0x4 MSTORE PUSH1 0x24 DUP11 REVERT JUMPDEST DUP10 MLOAD PUSH3 0x461BCD PUSH1 0xE5 SHL DUP2 MSTORE PUSH1 0x4 DUP2 ADD DUP9 SWAP1 MSTORE PUSH1 0x2 PUSH1 0x24 DUP3 ADD MSTORE PUSH2 0x5341 PUSH1 0xF0 SHL PUSH1 0x44 DUP3 ADD MSTORE PUSH1 0x64 SWAP1 REVERT JUMPDEST DUP1 MLOAD DUP1 ISZERO SWAP3 POP DUP10 SWAP1 DUP4 ISZERO PUSH2 0x91E JUMPI JUMPDEST POP POP POP CODESIZE PUSH2 0x7CB JUMP JUMPDEST PUSH2 0x92E SWAP4 POP DUP3 ADD DUP2 ADD SWAP2 ADD PUSH2 0x6E4 JUMP JUMPDEST CODESIZE DUP9 DUP2 PUSH2 0x915 JUMP JUMPDEST DUP9 MLOAD PUSH3 0x461BCD PUSH1 0xE5 SHL DUP2 MSTORE PUSH1 0x4 DUP2 ADD DUP8 SWAP1 MSTORE PUSH1 0x3 PUSH1 0x24 DUP3 ADD MSTORE PUSH3 0x29AA23 PUSH1 0xE9 SHL PUSH1 0x44 DUP3 ADD MSTORE PUSH1 0x64 SWAP1 REVERT JUMPDEST DUP1 MLOAD DUP1 ISZERO SWAP3 POP DUP9 SWAP1 DUP4 ISZERO PUSH2 0x978 JUMPI JUMPDEST POP POP POP CODESIZE PUSH2 0x770 JUMP JUMPDEST PUSH2 0x988 SWAP4 POP DUP3 ADD DUP2 ADD SWAP2 ADD PUSH2 0x6E4 JUMP JUMPDEST CODESIZE DUP8 DUP2 PUSH2 0x96F JUMP INVALID LOG2 PUSH5 0x6970667358 0x22 SLT KECCAK256 0xBB 0x2E DUP1 NUMBER SWAP10 0xD1 EXTCODECOPY 0xF9 0x26 0xD1 0xD1 PUSH30 0x387CA7C4A21C15A843C7B36A18347EE404EC4AC064736F6C634300081300 CALLER "
        },
        "methodIdentifiers": {
          "buy(uint256,address,address,bytes)": "987bb07b",
          "fee()": "ddca3f43",
          "owner()": "8da5cb5b",
          "renounceOwnership()": "715018a6",
          "sell(uint256,address,address,bytes)": "2454b710",
          "sellAndBuy(uint256,address,address,bytes)": "03679454",
          "setFee(uint24)": "eabb5622",
          "setIntermidiateToken(address)": "cc3f6d5d",
          "transferOwnership(address)": "f2fde38b"
        }
      }
    }
  }
}