{
  "contracts/core/adaptors/UniswapV3ViaRouterFomo.sol": {
    "UniswapV3ViaRouterFomo": {
      "abi": [
        {
          "inputs": [],
          "stateMutability": "nonpayable",
          "type": "constructor"
        },
        {
          "anonymous": false,
          "inputs": [
            {
              "indexed": false,
              "internalType": "uint256",
              "name": "amount",
              "type": "uint256"
            },
            {
              "indexed": false,
              "internalType": "uint256",
              "name": "amountOut",
              "type": "uint256"
            },
            {
              "indexed": false,
              "internalType": "address",
              "name": "token",
              "type": "address"
            },
            {
              "indexed": true,
              "internalType": "address",
              "name": "recipient",
              "type": "address"
            }
          ],
          "name": "Bought",
          "type": "event"
        },
        {
          "anonymous": false,
          "inputs": [
            {
              "indexed": true,
              "internalType": "address",
              "name": "previousOwner",
              "type": "address"
            },
            {
              "indexed": true,
              "internalType": "address",
              "name": "newOwner",
              "type": "address"
            }
          ],
          "name": "OwnershipTransferred",
          "type": "event"
        },
        {
          "anonymous": false,
          "inputs": [
            {
              "indexed": false,
              "internalType": "uint256",
              "name": "amount",
              "type": "uint256"
            },
            {
              "indexed": false,
              "internalType": "uint256",
              "name": "amountOut",
              "type": "uint256"
            },
            {
              "indexed": false,
              "internalType": "address",
              "name": "token",
              "type": "address"
            },
            {
              "indexed": true,
              "internalType": "address",
              "name": "recipient",
              "type": "address"
            }
          ],
          "name": "Sold",
          "type": "event"
        },
        {
          "inputs": [
            {
              "internalType": "uint256",
              "name": "amount",
              "type": "uint256"
            },
            {
              "internalType": "address",
              "name": "token",
              "type": "address"
            },
            {
              "internalType": "address",
              "name": "recipient",
              "type": "address"
            },
            {
              "internalType": "bytes",
              "name": "extraData",
              "type": "bytes"
            }
          ],
          "name": "buy",
          "outputs": [
            {
              "internalType": "uint256",
              "name": "",
              "type": "uint256"
            }
          ],
          "stateMutability": "nonpayable",
          "type": "function"
        },
        {
          "inputs": [],
          "name": "fee",
          "outputs": [
            {
              "internalType": "uint24",
              "name": "",
              "type": "uint24"
            }
          ],
          "stateMutability": "view",
          "type": "function"
        },
        {
          "inputs": [],
          "name": "owner",
          "outputs": [
            {
              "internalType": "address",
              "name": "",
              "type": "address"
            }
          ],
          "stateMutability": "view",
          "type": "function"
        },
        {
          "inputs": [],
          "name": "renounceOwnership",
          "outputs": [],
          "stateMutability": "nonpayable",
          "type": "function"
        },
        {
          "inputs": [
            {
              "internalType": "uint256",
              "name": "amount",
              "type": "uint256"
            },
            {
              "internalType": "address",
              "name": "token",
              "type": "address"
            },
            {
              "internalType": "address",
              "name": "recipient",
              "type": "address"
            },
            {
              "internalType": "bytes",
              "name": "extraData",
              "type": "bytes"
            }
          ],
          "name": "sell",
          "outputs": [
            {
              "internalType": "uint256",
              "name": "",
              "type": "uint256"
            }
          ],
          "stateMutability": "nonpayable",
          "type": "function"
        },
        {
          "inputs": [
            {
              "internalType": "uint256",
              "name": "amount",
              "type": "uint256"
            },
            {
              "internalType": "address",
              "name": "token",
              "type": "address"
            },
            {
              "internalType": "address",
              "name": "recipient",
              "type": "address"
            },
            {
              "internalType": "bytes",
              "name": "extraData",
              "type": "bytes"
            }
          ],
          "name": "sellAndBuy",
          "outputs": [
            {
              "internalType": "uint256",
              "name": "",
              "type": "uint256"
            }
          ],
          "stateMutability": "nonpayable",
          "type": "function"
        },
        {
          "inputs": [
            {
              "internalType": "uint24",
              "name": "_fee",
              "type": "uint24"
            }
          ],
          "name": "setFee",
          "outputs": [],
          "stateMutability": "nonpayable",
          "type": "function"
        },
        {
          "inputs": [
            {
              "internalType": "address",
              "name": "newOwner",
              "type": "address"
            }
          ],
          "name": "transferOwnership",
          "outputs": [],
          "stateMutability": "nonpayable",
          "type": "function"
        }
      ],
      "evm": {
        "bytecode": {
          "linkReferences": {},
          "object": "60808060405234610067576000543360018060a01b0382167f8be0079c531659141344cd1fd0a4f28419497f9722a3daafe3b4186f6b6457e0600080a36001600160b81b0319163362ffffff60a01b19161761027160a41b17600055610d1d908161006d8239f35b600080fdfe608080604052600436101561001357600080fd5b60003560e01c9081630367945414610671575080632454b71014610322578063715018a6146102c95780638da5cb5b146102a0578063987bb07b14610233578063ddca3f431461020d578063eabb56221461013f5763f2fde38b1461007757600080fd5b3461013a57602036600319011261013a576004356001600160a01b038181169182900361013a576100a6610923565b81156100e6576000548260018060a01b0319821617600055167f8be0079c531659141344cd1fd0a4f28419497f9722a3daafe3b4186f6b6457e0600080a3005b60405162461bcd60e51b815260206004820152602660248201527f4f776e61626c653a206e6577206f776e657220697320746865207a65726f206160448201526564647265737360d01b6064820152608490fd5b600080fd5b3461013a57602036600319011261013a5760043562ffffff811680820361013a57610168610923565b60648114159081610200575b816101f3575b816101e6575b506101a8576000805462ffffff60a01b191660a09290921b62ffffff60a01b16919091179055005b60405162461bcd60e51b8152602060048201526016602482015275556e697377617076333a20496e76616c69642066656560501b6044820152606490fd5b6127109150141582610180565b610bb8811415915061017a565b6101f48114159150610174565b3461013a57600036600319011261013a57602062ffffff60005460a01c16604051908152f35b3461013a5760207f4ebd6ef39c1235e69ba7dedf24ad43bdeb57deb289d98473668070d6ca9b685e6060610266366108b3565b50509391929061027884863384610a07565b604080519586528786018290526001600160a01b0392831690860152941692a2604051908152f35b3461013a57600036600319011261013a576000546040516001600160a01b039091168152602090f35b3461013a57600036600319011261013a576102e2610923565b600080546001600160a01b0319811682556001600160a01b03167f8be0079c531659141344cd1fd0a4f28419497f9722a3daafe3b4186f6b6457e08280a3005b3461013a57610330366108b3565b505091905060008060405160208101906323b872dd60e01b825233602482015230604482015284606482015260648152610369816109ad565b51908273d327d36eb6e1f250d191cd62497d08b4aaa843ce5af161038b610c8f565b81610642575b501561061757600080604051602081019063095ea7b360e01b8252732626664c2603336e57b271c5c0b26f421741e4816024820152846044820152604481526103d9816109c9565b51908273d327d36eb6e1f250d191cd62497d08b4aaa843ce5af16103fb610c8f565b816105e8575b50156105be576000549062ffffff6040519261041c8461097b565b73d327d36eb6e1f250d191cd62497d08b4aaa843ce8452736b9bb36519538e0c073894e964e90172e1c0b41f602080860191825260a092831c9390931660408087019182526001600160a01b0388811660608901908152608089018881526000968a0187815260c08b0188815294516304e45aaf60e01b81529a51841660048c01529551831660248b0152935162ffffff1660448a0152518116606489015291516084880152915160a487015290511660c4850152839060e4908290732626664c2603336e57b271c5c0b26f421741e4815af19182156105b25760009261055c575b507f55390ad3bffeff90968b8c54d2ed0099a7dbd2d71bc56263a1abf5643f833fec6060602094604051938452848685015273d327d36eb6e1f250d191cd62497d08b4aaa843ce604085015260018060a01b031692a2604051908152f35b9291506020833d6020116105aa575b81610578602093836109e5565b8101031261013a57915190917f55390ad3bffeff90968b8c54d2ed0099a7dbd2d71bc56263a1abf5643f833fec6104fe565b3d915061056b565b6040513d6000823e3d90fd5b60405162461bcd60e51b8152602060048201526002602482015261534160f01b6044820152606490fd5b80518015925082156105fd575b505083610401565b6106109250602080918301019101610ccf565b83806105f5565b60405162461bcd60e51b815260206004820152600360248201526229aa2360e91b6044820152606490fd5b8051801592508215610657575b505083610391565b61066a9250602080918301019101610ccf565b838061064f565b3461013a5761067f366108b3565b50509260008060208301926323b872dd60e01b8452306024820152306044820152856064820152606481526106b3816109ad565b51736b9bb36519538e0c073894e964e90172e1c0b41f9382855af16106d6610c8f565b81610884575b501561061757600080604051602081019063095ea7b360e01b8252732626664c2603336e57b271c5c0b26f421741e481602482015286604482015260448152610724816109c9565b519082855af1610732610c8f565b81610855575b50156105be576000546040519161074e8361097b565b82526001600160a01b03838116602080850191825262ffffff60a094851c811660408088019182523360608901908152608089019a8b52600097890188815260c08a0189815292516304e45aaf60e01b81529951881660048b01529551871660248a015291519092166044880152518416606487015296516084860152905160a485015294511660c4830152909290839060e4908290732626664c2603336e57b271c5c0b26f421741e4815af19182156105b257600092610820575b602061081884863086610a07565b604051908152f35b91506020823d60201161084d575b8161083b602093836109e5565b8101031261013a57905190602061080a565b3d915061082e565b805180159250821561086a575b505085610738565b61087d9250602080918301019101610ccf565b8580610862565b8051801592508215610899575b5050856106dc565b6108ac9250602080918301019101610ccf565b8580610891565b608060031982011261013a57600435916001600160a01b0391602435838116810361013a5792604435908116810361013a579160643567ffffffffffffffff9283821161013a578060238301121561013a57816004013593841161013a576024848301011161013a576024019190565b6000546001600160a01b0316330361093757565b606460405162461bcd60e51b815260206004820152602060248201527f4f776e61626c653a2063616c6c6572206973206e6f7420746865206f776e65726044820152fd5b60e0810190811067ffffffffffffffff82111761099757604052565b634e487b7160e01b600052604160045260246000fd5b60a0810190811067ffffffffffffffff82111761099757604052565b6080810190811067ffffffffffffffff82111761099757604052565b90601f8019910116810190811067ffffffffffffffff82111761099757604052565b91929092600080604095865160208101916323b872dd60e01b835260018060a01b0316602482015230604482015285606482015260648152610a48816109ad565b519082875af1610a56610c8f565b81610c60575b5015610c36576000808551602081019063095ea7b360e01b8252732626664c2603336e57b271c5c0b26f421741e481602482015285604482015260448152610aa3816109c9565b519082875af1610ab1610c8f565b81610c07575b5015610bde5762ffffff600054855194610ad08661097b565b6001600160a01b039081168652736b9bb36519538e0c073894e964e90172e1c0b41f602080880191825260a093841c949094168888019081529482166060880190815260808801968752600093880184815260c089018581528a516304e45aaf60e01b81529951851660048b01529251841660248a0152955162ffffff166044890152518216606488015294516084870152925160a4860152925190911660c484015290829060e4908290732626664c2603336e57b271c5c0b26f421741e4815af1918215610bd45750600091610ba5575090565b90506020813d602011610bcc575b81610bc0602093836109e5565b8101031261013a575190565b3d9150610bb3565b513d6000823e3d90fd5b835162461bcd60e51b8152602060048201526002602482015261534160f01b6044820152606490fd5b8051801592508215610c1c575b505038610ab7565b610c2f9250602080918301019101610ccf565b3880610c14565b835162461bcd60e51b815260206004820152600360248201526229aa2360e91b6044820152606490fd5b8051801592508215610c75575b505038610a5c565b610c889250602080918301019101610ccf565b3880610c6d565b3d15610cca573d9067ffffffffffffffff82116109975760405191610cbe601f8201601f1916602001846109e5565b82523d6000602084013e565b606090565b9081602091031261013a5751801515810361013a579056fea264697066735822122063c50b6a76a098bc2014500605fc7c6f2a2d38118022ef581210e6810d34405d64736f6c63430008130033",
          "opcodes": "PUSH1 0x80 DUP1 PUSH1 0x40 MSTORE CALLVALUE PUSH2 0x67 JUMPI PUSH1 0x0 SLOAD CALLER PUSH1 0x1 DUP1 PUSH1 0xA0 SHL SUB DUP3 AND PUSH32 0x8BE0079C531659141344CD1FD0A4F28419497F9722A3DAAFE3B4186F6B6457E0 PUSH1 0x0 DUP1 LOG3 PUSH1 0x1 PUSH1 0x1 PUSH1 0xB8 SHL SUB NOT AND CALLER PUSH3 0xFFFFFF PUSH1 0xA0 SHL NOT AND OR PUSH2 0x271 PUSH1 0xA4 SHL OR PUSH1 0x0 SSTORE PUSH2 0xD1D SWAP1 DUP2 PUSH2 0x6D DUP3 CODECOPY RETURN JUMPDEST PUSH1 0x0 DUP1 REVERT INVALID PUSH1 0x80 DUP1 PUSH1 0x40 MSTORE PUSH1 0x4 CALLDATASIZE LT ISZERO PUSH2 0x13 JUMPI PUSH1 0x0 DUP1 REVERT JUMPDEST PUSH1 0x0 CALLDATALOAD PUSH1 0xE0 SHR SWAP1 DUP2 PUSH4 0x3679454 EQ PUSH2 0x671 JUMPI POP DUP1 PUSH4 0x2454B710 EQ PUSH2 0x322 JUMPI DUP1 PUSH4 0x715018A6 EQ PUSH2 0x2C9 JUMPI DUP1 PUSH4 0x8DA5CB5B EQ PUSH2 0x2A0 JUMPI DUP1 PUSH4 0x987BB07B EQ PUSH2 0x233 JUMPI DUP1 PUSH4 0xDDCA3F43 EQ PUSH2 0x20D JUMPI DUP1 PUSH4 0xEABB5622 EQ PUSH2 0x13F JUMPI PUSH4 0xF2FDE38B EQ PUSH2 0x77 JUMPI PUSH1 0x0 DUP1 REVERT JUMPDEST CALLVALUE PUSH2 0x13A JUMPI PUSH1 0x20 CALLDATASIZE PUSH1 0x3 NOT ADD SLT PUSH2 0x13A JUMPI PUSH1 0x4 CALLDATALOAD PUSH1 0x1 PUSH1 0x1 PUSH1 0xA0 SHL SUB DUP2 DUP2 AND SWAP2 DUP3 SWAP1 SUB PUSH2 0x13A JUMPI PUSH2 0xA6 PUSH2 0x923 JUMP JUMPDEST DUP2 ISZERO PUSH2 0xE6 JUMPI PUSH1 0x0 SLOAD DUP3 PUSH1 0x1 DUP1 PUSH1 0xA0 SHL SUB NOT DUP3 AND OR PUSH1 0x0 SSTORE AND PUSH32 0x8BE0079C531659141344CD1FD0A4F28419497F9722A3DAAFE3B4186F6B6457E0 PUSH1 0x0 DUP1 LOG3 STOP JUMPDEST PUSH1 0x40 MLOAD PUSH3 0x461BCD PUSH1 0xE5 SHL DUP2 MSTORE PUSH1 0x20 PUSH1 0x4 DUP3 ADD MSTORE PUSH1 0x26 PUSH1 0x24 DUP3 ADD MSTORE PUSH32 0x4F776E61626C653A206E6577206F776E657220697320746865207A65726F2061 PUSH1 0x44 DUP3 ADD MSTORE PUSH6 0x646472657373 PUSH1 0xD0 SHL PUSH1 0x64 DUP3 ADD MSTORE PUSH1 0x84 SWAP1 REVERT JUMPDEST PUSH1 0x0 DUP1 REVERT JUMPDEST CALLVALUE PUSH2 0x13A JUMPI PUSH1 0x20 CALLDATASIZE PUSH1 0x3 NOT ADD SLT PUSH2 0x13A JUMPI PUSH1 0x4 CALLDATALOAD PUSH3 0xFFFFFF DUP2 AND DUP1 DUP3 SUB PUSH2 0x13A JUMPI PUSH2 0x168 PUSH2 0x923 JUMP JUMPDEST PUSH1 0x64 DUP2 EQ ISZERO SWAP1 DUP2 PUSH2 0x200 JUMPI JUMPDEST DUP2 PUSH2 0x1F3 JUMPI JUMPDEST DUP2 PUSH2 0x1E6 JUMPI JUMPDEST POP PUSH2 0x1A8 JUMPI PUSH1 0x0 DUP1 SLOAD PUSH3 0xFFFFFF PUSH1 0xA0 SHL NOT AND PUSH1 0xA0 SWAP3 SWAP1 SWAP3 SHL PUSH3 0xFFFFFF PUSH1 0xA0 SHL AND SWAP2 SWAP1 SWAP2 OR SWAP1 SSTORE STOP JUMPDEST PUSH1 0x40 MLOAD PUSH3 0x461BCD PUSH1 0xE5 SHL DUP2 MSTORE PUSH1 0x20 PUSH1 0x4 DUP3 ADD MSTORE PUSH1 0x16 PUSH1 0x24 DUP3 ADD MSTORE PUSH22 0x556E697377617076333A20496E76616C696420666565 PUSH1 0x50 SHL PUSH1 0x44 DUP3 ADD MSTORE PUSH1 0x64 SWAP1 REVERT JUMPDEST PUSH2 0x2710 SWAP2 POP EQ ISZERO DUP3 PUSH2 0x180 JUMP JUMPDEST PUSH2 0xBB8 DUP2 EQ ISZERO SWAP2 POP PUSH2 0x17A JUMP JUMPDEST PUSH2 0x1F4 DUP2 EQ ISZERO SWAP2 POP PUSH2 0x174 JUMP JUMPDEST CALLVALUE PUSH2 0x13A JUMPI PUSH1 0x0 CALLDATASIZE PUSH1 0x3 NOT ADD SLT PUSH2 0x13A JUMPI PUSH1 0x20 PUSH3 0xFFFFFF PUSH1 0x0 SLOAD PUSH1 0xA0 SHR AND PUSH1 0x40 MLOAD SWAP1 DUP2 MSTORE RETURN JUMPDEST CALLVALUE PUSH2 0x13A JUMPI PUSH1 0x20 PUSH32 0x4EBD6EF39C1235E69BA7DEDF24AD43BDEB57DEB289D98473668070D6CA9B685E PUSH1 0x60 PUSH2 0x266 CALLDATASIZE PUSH2 0x8B3 JUMP JUMPDEST POP POP SWAP4 SWAP2 SWAP3 SWAP1 PUSH2 0x278 DUP5 DUP7 CALLER DUP5 PUSH2 0xA07 JUMP JUMPDEST PUSH1 0x40 DUP1 MLOAD SWAP6 DUP7 MSTORE DUP8 DUP7 ADD DUP3 SWAP1 MSTORE PUSH1 0x1 PUSH1 0x1 PUSH1 0xA0 SHL SUB SWAP3 DUP4 AND SWAP1 DUP7 ADD MSTORE SWAP5 AND SWAP3 LOG2 PUSH1 0x40 MLOAD SWAP1 DUP2 MSTORE RETURN JUMPDEST CALLVALUE PUSH2 0x13A JUMPI PUSH1 0x0 CALLDATASIZE PUSH1 0x3 NOT ADD SLT PUSH2 0x13A JUMPI PUSH1 0x0 SLOAD PUSH1 0x40 MLOAD PUSH1 0x1 PUSH1 0x1 PUSH1 0xA0 SHL SUB SWAP1 SWAP2 AND DUP2 MSTORE PUSH1 0x20 SWAP1 RETURN JUMPDEST CALLVALUE PUSH2 0x13A JUMPI PUSH1 0x0 CALLDATASIZE PUSH1 0x3 NOT ADD SLT PUSH2 0x13A JUMPI PUSH2 0x2E2 PUSH2 0x923 JUMP JUMPDEST PUSH1 0x0 DUP1 SLOAD PUSH1 0x1 PUSH1 0x1 PUSH1 0xA0 SHL SUB NOT DUP2 AND DUP3 SSTORE PUSH1 0x1 PUSH1 0x1 PUSH1 0xA0 SHL SUB AND PUSH32 0x8BE0079C531659141344CD1FD0A4F28419497F9722A3DAAFE3B4186F6B6457E0 DUP3 DUP1 LOG3 STOP JUMPDEST CALLVALUE PUSH2 0x13A JUMPI PUSH2 0x330 CALLDATASIZE PUSH2 0x8B3 JUMP JUMPDEST POP POP SWAP2 SWAP1 POP PUSH1 0x0 DUP1 PUSH1 0x40 MLOAD PUSH1 0x20 DUP2 ADD SWAP1 PUSH4 0x23B872DD PUSH1 0xE0 SHL DUP3 MSTORE CALLER PUSH1 0x24 DUP3 ADD MSTORE ADDRESS PUSH1 0x44 DUP3 ADD MSTORE DUP5 PUSH1 0x64 DUP3 ADD MSTORE PUSH1 0x64 DUP2 MSTORE PUSH2 0x369 DUP2 PUSH2 0x9AD JUMP JUMPDEST MLOAD SWAP1 DUP3 PUSH20 0xD327D36EB6E1F250D191CD62497D08B4AAA843CE GAS CALL PUSH2 0x38B PUSH2 0xC8F JUMP JUMPDEST DUP2 PUSH2 0x642 JUMPI JUMPDEST POP ISZERO PUSH2 0x617 JUMPI PUSH1 0x0 DUP1 PUSH1 0x40 MLOAD PUSH1 0x20 DUP2 ADD SWAP1 PUSH4 0x95EA7B3 PUSH1 0xE0 SHL DUP3 MSTORE PUSH20 0x2626664C2603336E57B271C5C0B26F421741E481 PUSH1 0x24 DUP3 ADD MSTORE DUP5 PUSH1 0x44 DUP3 ADD MSTORE PUSH1 0x44 DUP2 MSTORE PUSH2 0x3D9 DUP2 PUSH2 0x9C9 JUMP JUMPDEST MLOAD SWAP1 DUP3 PUSH20 0xD327D36EB6E1F250D191CD62497D08B4AAA843CE GAS CALL PUSH2 0x3FB PUSH2 0xC8F JUMP JUMPDEST DUP2 PUSH2 0x5E8 JUMPI JUMPDEST POP ISZERO PUSH2 0x5BE JUMPI PUSH1 0x0 SLOAD SWAP1 PUSH3 0xFFFFFF PUSH1 0x40 MLOAD SWAP3 PUSH2 0x41C DUP5 PUSH2 0x97B JUMP JUMPDEST PUSH20 0xD327D36EB6E1F250D191CD62497D08B4AAA843CE DUP5 MSTORE PUSH20 0x6B9BB36519538E0C073894E964E90172E1C0B41F PUSH1 0x20 DUP1 DUP7 ADD SWAP2 DUP3 MSTORE PUSH1 0xA0 SWAP3 DUP4 SHR SWAP4 SWAP1 SWAP4 AND PUSH1 0x40 DUP1 DUP8 ADD SWAP2 DUP3 MSTORE PUSH1 0x1 PUSH1 0x1 PUSH1 0xA0 SHL SUB DUP9 DUP2 AND PUSH1 0x60 DUP10 ADD SWAP1 DUP2 MSTORE PUSH1 0x80 DUP10 ADD DUP9 DUP2 MSTORE PUSH1 0x0 SWAP7 DUP11 ADD DUP8 DUP2 MSTORE PUSH1 0xC0 DUP12 ADD DUP9 DUP2 MSTORE SWAP5 MLOAD PUSH4 0x4E45AAF PUSH1 0xE0 SHL DUP2 MSTORE SWAP11 MLOAD DUP5 AND PUSH1 0x4 DUP13 ADD MSTORE SWAP6 MLOAD DUP4 AND PUSH1 0x24 DUP12 ADD MSTORE SWAP4 MLOAD PUSH3 0xFFFFFF AND PUSH1 0x44 DUP11 ADD MSTORE MLOAD DUP2 AND PUSH1 0x64 DUP10 ADD MSTORE SWAP2 MLOAD PUSH1 0x84 DUP9 ADD MSTORE SWAP2 MLOAD PUSH1 0xA4 DUP8 ADD MSTORE SWAP1 MLOAD AND PUSH1 0xC4 DUP6 ADD MSTORE DUP4 SWAP1 PUSH1 0xE4 SWAP1 DUP3 SWAP1 PUSH20 0x2626664C2603336E57B271C5C0B26F421741E481 GAS CALL SWAP2 DUP3 ISZERO PUSH2 0x5B2 JUMPI PUSH1 0x0 SWAP3 PUSH2 0x55C JUMPI JUMPDEST POP PUSH32 0x55390AD3BFFEFF90968B8C54D2ED0099A7DBD2D71BC56263A1ABF5643F833FEC PUSH1 0x60 PUSH1 0x20 SWAP5 PUSH1 0x40 MLOAD SWAP4 DUP5 MSTORE DUP5 DUP7 DUP6 ADD MSTORE PUSH20 0xD327D36EB6E1F250D191CD62497D08B4AAA843CE PUSH1 0x40 DUP6 ADD MSTORE PUSH1 0x1 DUP1 PUSH1 0xA0 SHL SUB AND SWAP3 LOG2 PUSH1 0x40 MLOAD SWAP1 DUP2 MSTORE RETURN JUMPDEST SWAP3 SWAP2 POP PUSH1 0x20 DUP4 RETURNDATASIZE PUSH1 0x20 GT PUSH2 0x5AA JUMPI JUMPDEST DUP2 PUSH2 0x578 PUSH1 0x20 SWAP4 DUP4 PUSH2 0x9E5 JUMP JUMPDEST DUP2 ADD SUB SLT PUSH2 0x13A JUMPI SWAP2 MLOAD SWAP1 SWAP2 PUSH32 0x55390AD3BFFEFF90968B8C54D2ED0099A7DBD2D71BC56263A1ABF5643F833FEC PUSH2 0x4FE JUMP JUMPDEST RETURNDATASIZE SWAP2 POP PUSH2 0x56B JUMP JUMPDEST PUSH1 0x40 MLOAD RETURNDATASIZE PUSH1 0x0 DUP3 RETURNDATACOPY RETURNDATASIZE SWAP1 REVERT JUMPDEST PUSH1 0x40 MLOAD PUSH3 0x461BCD PUSH1 0xE5 SHL DUP2 MSTORE PUSH1 0x20 PUSH1 0x4 DUP3 ADD MSTORE PUSH1 0x2 PUSH1 0x24 DUP3 ADD MSTORE PUSH2 0x5341 PUSH1 0xF0 SHL PUSH1 0x44 DUP3 ADD MSTORE PUSH1 0x64 SWAP1 REVERT JUMPDEST DUP1 MLOAD DUP1 ISZERO SWAP3 POP DUP3 ISZERO PUSH2 0x5FD JUMPI JUMPDEST POP POP DUP4 PUSH2 0x401 JUMP JUMPDEST PUSH2 0x610 SWAP3 POP PUSH1 0x20 DUP1 SWAP2 DUP4 ADD ADD SWAP2 ADD PUSH2 0xCCF JUMP JUMPDEST DUP4 DUP1 PUSH2 0x5F5 JUMP JUMPDEST PUSH1 0x40 MLOAD PUSH3 0x461BCD PUSH1 0xE5 SHL DUP2 MSTORE PUSH1 0x20 PUSH1 0x4 DUP3 ADD MSTORE PUSH1 0x3 PUSH1 0x24 DUP3 ADD MSTORE PUSH3 0x29AA23 PUSH1 0xE9 SHL PUSH1 0x44 DUP3 ADD MSTORE PUSH1 0x64 SWAP1 REVERT JUMPDEST DUP1 MLOAD DUP1 ISZERO SWAP3 POP DUP3 ISZERO PUSH2 0x657 JUMPI JUMPDEST POP POP DUP4 PUSH2 0x391 JUMP JUMPDEST PUSH2 0x66A SWAP3 POP PUSH1 0x20 DUP1 SWAP2 DUP4 ADD ADD SWAP2 ADD PUSH2 0xCCF JUMP JUMPDEST DUP4 DUP1 PUSH2 0x64F JUMP JUMPDEST CALLVALUE PUSH2 0x13A JUMPI PUSH2 0x67F CALLDATASIZE PUSH2 0x8B3 JUMP JUMPDEST POP POP SWAP3 PUSH1 0x0 DUP1 PUSH1 0x20 DUP4 ADD SWAP3 PUSH4 0x23B872DD PUSH1 0xE0 SHL DUP5 MSTORE ADDRESS PUSH1 0x24 DUP3 ADD MSTORE ADDRESS PUSH1 0x44 DUP3 ADD MSTORE DUP6 PUSH1 0x64 DUP3 ADD MSTORE PUSH1 0x64 DUP2 MSTORE PUSH2 0x6B3 DUP2 PUSH2 0x9AD JUMP JUMPDEST MLOAD PUSH20 0x6B9BB36519538E0C073894E964E90172E1C0B41F SWAP4 DUP3 DUP6 GAS CALL PUSH2 0x6D6 PUSH2 0xC8F JUMP JUMPDEST DUP2 PUSH2 0x884 JUMPI JUMPDEST POP ISZERO PUSH2 0x617 JUMPI PUSH1 0x0 DUP1 PUSH1 0x40 MLOAD PUSH1 0x20 DUP2 ADD SWAP1 PUSH4 0x95EA7B3 PUSH1 0xE0 SHL DUP3 MSTORE PUSH20 0x2626664C2603336E57B271C5C0B26F421741E481 PUSH1 0x24 DUP3 ADD MSTORE DUP7 PUSH1 0x44 DUP3 ADD MSTORE PUSH1 0x44 DUP2 MSTORE PUSH2 0x724 DUP2 PUSH2 0x9C9 JUMP JUMPDEST MLOAD SWAP1 DUP3 DUP6 GAS CALL PUSH2 0x732 PUSH2 0xC8F JUMP JUMPDEST DUP2 PUSH2 0x855 JUMPI JUMPDEST POP ISZERO PUSH2 0x5BE JUMPI PUSH1 0x0 SLOAD PUSH1 0x40 MLOAD SWAP2 PUSH2 0x74E DUP4 PUSH2 0x97B JUMP JUMPDEST DUP3 MSTORE PUSH1 0x1 PUSH1 0x1 PUSH1 0xA0 SHL SUB DUP4 DUP2 AND PUSH1 0x20 DUP1 DUP6 ADD SWAP2 DUP3 MSTORE PUSH3 0xFFFFFF PUSH1 0xA0 SWAP5 DUP6 SHR DUP2 AND PUSH1 0x40 DUP1 DUP9 ADD SWAP2 DUP3 MSTORE CALLER PUSH1 0x60 DUP10 ADD SWAP1 DUP2 MSTORE PUSH1 0x80 DUP10 ADD SWAP11 DUP12 MSTORE PUSH1 0x0 SWAP8 DUP10 ADD DUP9 DUP2 MSTORE PUSH1 0xC0 DUP11 ADD DUP10 DUP2 MSTORE SWAP3 MLOAD PUSH4 0x4E45AAF PUSH1 0xE0 SHL DUP2 MSTORE SWAP10 MLOAD DUP9 AND PUSH1 0x4 DUP12 ADD MSTORE SWAP6 MLOAD DUP8 AND PUSH1 0x24 DUP11 ADD MSTORE SWAP2 MLOAD SWAP1 SWAP3 AND PUSH1 0x44 DUP9 ADD MSTORE MLOAD DUP5 AND PUSH1 0x64 DUP8 ADD MSTORE SWAP7 MLOAD PUSH1 0x84 DUP7 ADD MSTORE SWAP1 MLOAD PUSH1 0xA4 DUP6 ADD MSTORE SWAP5 MLOAD AND PUSH1 0xC4 DUP4 ADD MSTORE SWAP1 SWAP3 SWAP1 DUP4 SWAP1 PUSH1 0xE4 SWAP1 DUP3 SWAP1 PUSH20 0x2626664C2603336E57B271C5C0B26F421741E481 GAS CALL SWAP2 DUP3 ISZERO PUSH2 0x5B2 JUMPI PUSH1 0x0 SWAP3 PUSH2 0x820 JUMPI JUMPDEST PUSH1 0x20 PUSH2 0x818 DUP5 DUP7 ADDRESS DUP7 PUSH2 0xA07 JUMP JUMPDEST PUSH1 0x40 MLOAD SWAP1 DUP2 MSTORE RETURN JUMPDEST SWAP2 POP PUSH1 0x20 DUP3 RETURNDATASIZE PUSH1 0x20 GT PUSH2 0x84D JUMPI JUMPDEST DUP2 PUSH2 0x83B PUSH1 0x20 SWAP4 DUP4 PUSH2 0x9E5 JUMP JUMPDEST DUP2 ADD SUB SLT PUSH2 0x13A JUMPI SWAP1 MLOAD SWAP1 PUSH1 0x20 PUSH2 0x80A JUMP JUMPDEST RETURNDATASIZE SWAP2 POP PUSH2 0x82E JUMP JUMPDEST DUP1 MLOAD DUP1 ISZERO SWAP3 POP DUP3 ISZERO PUSH2 0x86A JUMPI JUMPDEST POP POP DUP6 PUSH2 0x738 JUMP JUMPDEST PUSH2 0x87D SWAP3 POP PUSH1 0x20 DUP1 SWAP2 DUP4 ADD ADD SWAP2 ADD PUSH2 0xCCF JUMP JUMPDEST DUP6 DUP1 PUSH2 0x862 JUMP JUMPDEST DUP1 MLOAD DUP1 ISZERO SWAP3 POP DUP3 ISZERO PUSH2 0x899 JUMPI JUMPDEST POP POP DUP6 PUSH2 0x6DC JUMP JUMPDEST PUSH2 0x8AC SWAP3 POP PUSH1 0x20 DUP1 SWAP2 DUP4 ADD ADD SWAP2 ADD PUSH2 0xCCF JUMP JUMPDEST DUP6 DUP1 PUSH2 0x891 JUMP JUMPDEST PUSH1 0x80 PUSH1 0x3 NOT DUP3 ADD SLT PUSH2 0x13A JUMPI PUSH1 0x4 CALLDATALOAD SWAP2 PUSH1 0x1 PUSH1 0x1 PUSH1 0xA0 SHL SUB SWAP2 PUSH1 0x24 CALLDATALOAD DUP4 DUP2 AND DUP2 SUB PUSH2 0x13A JUMPI SWAP3 PUSH1 0x44 CALLDATALOAD SWAP1 DUP2 AND DUP2 SUB PUSH2 0x13A JUMPI SWAP2 PUSH1 0x64 CALLDATALOAD PUSH8 0xFFFFFFFFFFFFFFFF SWAP3 DUP4 DUP3 GT PUSH2 0x13A JUMPI DUP1 PUSH1 0x23 DUP4 ADD SLT ISZERO PUSH2 0x13A JUMPI DUP2 PUSH1 0x4 ADD CALLDATALOAD SWAP4 DUP5 GT PUSH2 0x13A JUMPI PUSH1 0x24 DUP5 DUP4 ADD ADD GT PUSH2 0x13A JUMPI PUSH1 0x24 ADD SWAP2 SWAP1 JUMP JUMPDEST PUSH1 0x0 SLOAD PUSH1 0x1 PUSH1 0x1 PUSH1 0xA0 SHL SUB AND CALLER SUB PUSH2 0x937 JUMPI JUMP JUMPDEST PUSH1 0x64 PUSH1 0x40 MLOAD PUSH3 0x461BCD PUSH1 0xE5 SHL DUP2 MSTORE PUSH1 0x20 PUSH1 0x4 DUP3 ADD MSTORE PUSH1 0x20 PUSH1 0x24 DUP3 ADD MSTORE PUSH32 0x4F776E61626C653A2063616C6C6572206973206E6F7420746865206F776E6572 PUSH1 0x44 DUP3 ADD MSTORE REVERT JUMPDEST PUSH1 0xE0 DUP2 ADD SWAP1 DUP2 LT PUSH8 0xFFFFFFFFFFFFFFFF DUP3 GT OR PUSH2 0x997 JUMPI PUSH1 0x40 MSTORE JUMP JUMPDEST PUSH4 0x4E487B71 PUSH1 0xE0 SHL PUSH1 0x0 MSTORE PUSH1 0x41 PUSH1 0x4 MSTORE PUSH1 0x24 PUSH1 0x0 REVERT JUMPDEST PUSH1 0xA0 DUP2 ADD SWAP1 DUP2 LT PUSH8 0xFFFFFFFFFFFFFFFF DUP3 GT OR PUSH2 0x997 JUMPI PUSH1 0x40 MSTORE JUMP JUMPDEST PUSH1 0x80 DUP2 ADD SWAP1 DUP2 LT PUSH8 0xFFFFFFFFFFFFFFFF DUP3 GT OR PUSH2 0x997 JUMPI PUSH1 0x40 MSTORE JUMP JUMPDEST SWAP1 PUSH1 0x1F DUP1 NOT SWAP2 ADD AND DUP2 ADD SWAP1 DUP2 LT PUSH8 0xFFFFFFFFFFFFFFFF DUP3 GT OR PUSH2 0x997 JUMPI PUSH1 0x40 MSTORE JUMP JUMPDEST SWAP2 SWAP3 SWAP1 SWAP3 PUSH1 0x0 DUP1 PUSH1 0x40 SWAP6 DUP7 MLOAD PUSH1 0x20 DUP2 ADD SWAP2 PUSH4 0x23B872DD PUSH1 0xE0 SHL DUP4 MSTORE PUSH1 0x1 DUP1 PUSH1 0xA0 SHL SUB AND PUSH1 0x24 DUP3 ADD MSTORE ADDRESS PUSH1 0x44 DUP3 ADD MSTORE DUP6 PUSH1 0x64 DUP3 ADD MSTORE PUSH1 0x64 DUP2 MSTORE PUSH2 0xA48 DUP2 PUSH2 0x9AD JUMP JUMPDEST MLOAD SWAP1 DUP3 DUP8 GAS CALL PUSH2 0xA56 PUSH2 0xC8F JUMP JUMPDEST DUP2 PUSH2 0xC60 JUMPI JUMPDEST POP ISZERO PUSH2 0xC36 JUMPI PUSH1 0x0 DUP1 DUP6 MLOAD PUSH1 0x20 DUP2 ADD SWAP1 PUSH4 0x95EA7B3 PUSH1 0xE0 SHL DUP3 MSTORE PUSH20 0x2626664C2603336E57B271C5C0B26F421741E481 PUSH1 0x24 DUP3 ADD MSTORE DUP6 PUSH1 0x44 DUP3 ADD MSTORE PUSH1 0x44 DUP2 MSTORE PUSH2 0xAA3 DUP2 PUSH2 0x9C9 JUMP JUMPDEST MLOAD SWAP1 DUP3 DUP8 GAS CALL PUSH2 0xAB1 PUSH2 0xC8F JUMP JUMPDEST DUP2 PUSH2 0xC07 JUMPI JUMPDEST POP ISZERO PUSH2 0xBDE JUMPI PUSH3 0xFFFFFF PUSH1 0x0 SLOAD DUP6 MLOAD SWAP5 PUSH2 0xAD0 DUP7 PUSH2 0x97B JUMP JUMPDEST PUSH1 0x1 PUSH1 0x1 PUSH1 0xA0 SHL SUB SWAP1 DUP2 AND DUP7 MSTORE PUSH20 0x6B9BB36519538E0C073894E964E90172E1C0B41F PUSH1 0x20 DUP1 DUP9 ADD SWAP2 DUP3 MSTORE PUSH1 0xA0 SWAP4 DUP5 SHR SWAP5 SWAP1 SWAP5 AND DUP9 DUP9 ADD SWAP1 DUP2 MSTORE SWAP5 DUP3 AND PUSH1 0x60 DUP9 ADD SWAP1 DUP2 MSTORE PUSH1 0x80 DUP9 ADD SWAP7 DUP8 MSTORE PUSH1 0x0 SWAP4 DUP9 ADD DUP5 DUP2 MSTORE PUSH1 0xC0 DUP10 ADD DUP6 DUP2 MSTORE DUP11 MLOAD PUSH4 0x4E45AAF PUSH1 0xE0 SHL DUP2 MSTORE SWAP10 MLOAD DUP6 AND PUSH1 0x4 DUP12 ADD MSTORE SWAP3 MLOAD DUP5 AND PUSH1 0x24 DUP11 ADD MSTORE SWAP6 MLOAD PUSH3 0xFFFFFF AND PUSH1 0x44 DUP10 ADD MSTORE MLOAD DUP3 AND PUSH1 0x64 DUP9 ADD MSTORE SWAP5 MLOAD PUSH1 0x84 DUP8 ADD MSTORE SWAP3 MLOAD PUSH1 0xA4 DUP7 ADD MSTORE SWAP3 MLOAD SWAP1 SWAP2 AND PUSH1 0xC4 DUP5 ADD MSTORE SWAP1 DUP3 SWAP1 PUSH1 0xE4 SWAP1 DUP3 SWAP1 PUSH20 0x2626664C2603336E57B271C5C0B26F421741E481 GAS CALL SWAP2 DUP3 ISZERO PUSH2 0xBD4 JUMPI POP PUSH1 0x0 SWAP2 PUSH2 0xBA5 JUMPI POP SWAP1 JUMP JUMPDEST SWAP1 POP PUSH1 0x20 DUP2 RETURNDATASIZE PUSH1 0x20 GT PUSH2 0xBCC JUMPI JUMPDEST DUP2 PUSH2 0xBC0 PUSH1 0x20 SWAP4 DUP4 PUSH2 0x9E5 JUMP JUMPDEST DUP2 ADD SUB SLT PUSH2 0x13A JUMPI MLOAD SWAP1 JUMP JUMPDEST RETURNDATASIZE SWAP2 POP PUSH2 0xBB3 JUMP JUMPDEST MLOAD RETURNDATASIZE PUSH1 0x0 DUP3 RETURNDATACOPY RETURNDATASIZE SWAP1 REVERT JUMPDEST DUP4 MLOAD PUSH3 0x461BCD PUSH1 0xE5 SHL DUP2 MSTORE PUSH1 0x20 PUSH1 0x4 DUP3 ADD MSTORE PUSH1 0x2 PUSH1 0x24 DUP3 ADD MSTORE PUSH2 0x5341 PUSH1 0xF0 SHL PUSH1 0x44 DUP3 ADD MSTORE PUSH1 0x64 SWAP1 REVERT JUMPDEST DUP1 MLOAD DUP1 ISZERO SWAP3 POP DUP3 ISZERO PUSH2 0xC1C JUMPI JUMPDEST POP POP CODESIZE PUSH2 0xAB7 JUMP JUMPDEST PUSH2 0xC2F SWAP3 POP PUSH1 0x20 DUP1 SWAP2 DUP4 ADD ADD SWAP2 ADD PUSH2 0xCCF JUMP JUMPDEST CODESIZE DUP1 PUSH2 0xC14 JUMP JUMPDEST DUP4 MLOAD PUSH3 0x461BCD PUSH1 0xE5 SHL DUP2 MSTORE PUSH1 0x20 PUSH1 0x4 DUP3 ADD MSTORE PUSH1 0x3 PUSH1 0x24 DUP3 ADD MSTORE PUSH3 0x29AA23 PUSH1 0xE9 SHL PUSH1 0x44 DUP3 ADD MSTORE PUSH1 0x64 SWAP1 REVERT JUMPDEST DUP1 MLOAD DUP1 ISZERO SWAP3 POP DUP3 ISZERO PUSH2 0xC75 JUMPI JUMPDEST POP POP CODESIZE PUSH2 0xA5C JUMP JUMPDEST PUSH2 0xC88 SWAP3 POP PUSH1 0x20 DUP1 SWAP2 DUP4 ADD ADD SWAP2 ADD PUSH2 0xCCF JUMP JUMPDEST CODESIZE DUP1 PUSH2 0xC6D JUMP JUMPDEST RETURNDATASIZE ISZERO PUSH2 0xCCA JUMPI RETURNDATASIZE SWAP1 PUSH8 0xFFFFFFFFFFFFFFFF DUP3 GT PUSH2 0x997 JUMPI PUSH1 0x40 MLOAD SWAP2 PUSH2 0xCBE PUSH1 0x1F DUP3 ADD PUSH1 0x1F NOT AND PUSH1 0x20 ADD DUP5 PUSH2 0x9E5 JUMP JUMPDEST DUP3 MSTORE RETURNDATASIZE PUSH1 0x0 PUSH1 0x20 DUP5 ADD RETURNDATACOPY JUMP JUMPDEST PUSH1 0x60 SWAP1 JUMP JUMPDEST SWAP1 DUP2 PUSH1 0x20 SWAP2 SUB SLT PUSH2 0x13A JUMPI MLOAD DUP1 ISZERO ISZERO DUP2 SUB PUSH2 0x13A JUMPI SWAP1 JUMP INVALID LOG2 PUSH5 0x6970667358 0x22 SLT KECCAK256 PUSH4 0xC50B6A76 LOG0 SWAP9 0xBC KECCAK256 EQ POP MOD SDIV 0xFC PUSH29 0x6F2A2D38118022EF581210E6810D34405D64736F6C6343000813003300 "
        },
        "methodIdentifiers": {
          "buy(uint256,address,address,bytes)": "987bb07b",
          "fee()": "ddca3f43",
          "owner()": "8da5cb5b",
          "renounceOwnership()": "715018a6",
          "sell(uint256,address,address,bytes)": "2454b710",
          "sellAndBuy(uint256,address,address,bytes)": "03679454",
          "setFee(uint24)": "eabb5622",
          "transferOwnership(address)": "f2fde38b"
        }
      }
    }
  }
}