{
  "contracts/core/eaters/BroEater.sol": {
    "BroEater": {
      "abi": [
        {
          "inputs": [
            {
              "internalType": "address",
              "name": "_wewe",
              "type": "address"
            }
          ],
          "stateMutability": "nonpayable",
          "type": "constructor"
        },
        {
          "anonymous": false,
          "inputs": [
            {
              "indexed": false,
              "internalType": "uint256",
              "name": "amount",
              "type": "uint256"
            },
            {
              "indexed": true,
              "internalType": "address",
              "name": "account",
              "type": "address"
            }
          ],
          "name": "Eaten",
          "type": "event"
        },
        {
          "anonymous": false,
          "inputs": [
            {
              "indexed": true,
              "internalType": "address",
              "name": "previousOwner",
              "type": "address"
            },
            {
              "indexed": true,
              "internalType": "address",
              "name": "newOwner",
              "type": "address"
            }
          ],
          "name": "OwnershipTransferred",
          "type": "event"
        },
        {
          "inputs": [
            {
              "internalType": "uint256",
              "name": "amount",
              "type": "uint256"
            }
          ],
          "name": "eat",
          "outputs": [],
          "stateMutability": "nonpayable",
          "type": "function"
        },
        {
          "inputs": [],
          "name": "eatAll",
          "outputs": [],
          "stateMutability": "nonpayable",
          "type": "function"
        },
        {
          "inputs": [],
          "name": "getRate",
          "outputs": [
            {
              "internalType": "uint256",
              "name": "",
              "type": "uint256"
            }
          ],
          "stateMutability": "view",
          "type": "function"
        },
        {
          "inputs": [],
          "name": "owner",
          "outputs": [
            {
              "internalType": "address",
              "name": "",
              "type": "address"
            }
          ],
          "stateMutability": "view",
          "type": "function"
        },
        {
          "inputs": [
            {
              "internalType": "address",
              "name": "from",
              "type": "address"
            },
            {
              "internalType": "uint256",
              "name": "amount",
              "type": "uint256"
            },
            {
              "internalType": "address",
              "name": "token",
              "type": "address"
            },
            {
              "internalType": "bytes",
              "name": "",
              "type": "bytes"
            }
          ],
          "name": "receiveApproval",
          "outputs": [],
          "stateMutability": "nonpayable",
          "type": "function"
        },
        {
          "inputs": [],
          "name": "renounceOwnership",
          "outputs": [],
          "stateMutability": "nonpayable",
          "type": "function"
        },
        {
          "inputs": [
            {
              "internalType": "uint256",
              "name": "rate",
              "type": "uint256"
            }
          ],
          "name": "setRate",
          "outputs": [],
          "stateMutability": "nonpayable",
          "type": "function"
        },
        {
          "inputs": [
            {
              "internalType": "address",
              "name": "newOwner",
              "type": "address"
            }
          ],
          "name": "transferOwnership",
          "outputs": [],
          "stateMutability": "nonpayable",
          "type": "function"
        },
        {
          "inputs": [],
          "name": "underlying",
          "outputs": [
            {
              "internalType": "address",
              "name": "",
              "type": "address"
            }
          ],
          "stateMutability": "view",
          "type": "function"
        }
      ],
      "evm": {
        "bytecode": {
          "linkReferences": {},
          "object": "6080346100b157601f61096138819003918201601f19168301916001600160401b038311848410176100b6578084926020946040528339810103126100b157516001600160a01b0390818116908190036100b15760005460018060a01b0319903382821617600055604051933391167f8be0079c531659141344cd1fd0a4f28419497f9722a3daafe3b4186f6b6457e0600080a360016003556064600155600254161760025561089490816100cd8239f35b600080fd5b634e487b7160e01b600052604160045260246000fdfe6040608081526004908136101561001557600080fd5b600091823560e01c806334fcf4371461050f578063679aefce146104f05780636f307dc3146104c1578063715018a61461046457806385e0ebaf146103705780638da5cb5b146103485780638f4ffcb1146101e8578063c8bb723c146101495763f2fde38b1461008457600080fd5b346101455760203660031901126101455761009d610595565b906100a66105b0565b6001600160a01b039182169283156100f357505082546001600160a01b0319811683178455167f8be0079c531659141344cd1fd0a4f28419497f9722a3daafe3b4186f6b6457e08380a380f35b906020608492519162461bcd60e51b8352820152602660248201527f4f776e61626c653a206e6577206f776e657220697320746865207a65726f206160448201526564647265737360d01b6064820152fd5b8280fd5b5090346101455782600319360112610145578051916370a0823160e01b835233908301526020826024817393750140c2ecea27a53c6ed30380829607815a315afa9081156101df575082906101a8575b6101a591503390610658565b80f35b506020813d82116101d7575b816101c160209383610608565b810103126101d3576101a59051610199565b5080fd5b3d91506101b4565b513d84823e3d90fd5b503461014557608036600319011261014557610202610595565b916044356001600160a01b03818116918290036103405760643567ffffffffffffffff808211610344573660238301121561034457818601359081116103445736910160240111610340576002600354146102fd57600260035560025416908133036102bf5703610282578361027a84602435610658565b600160035580f35b906020606492519162461bcd60e51b83528201526017602482015276213937a2b0ba32b91d1024b73b30b634b2103a37b5b2b760491b6044820152fd5b825162461bcd60e51b81526020818601526018602482015277213937a2b0ba32b91d1024b73b30b634b21039b2b73232b960411b6044820152606490fd5b825162461bcd60e51b8152602081860152601f60248201527f5265656e7472616e637947756172643a207265656e7472616e742063616c6c006044820152606490fd5b8580fd5b8780fd5b5050346101d357816003193601126101d357905490516001600160a01b039091168152602090f35b5034610145576020806003193601126104605782516370a0823160e01b815233818401528235939082816024817393750140c2ecea27a53c6ed30380829607815a315afa908115610456579085918791610425575b50106103d657846101a53386610658565b5162461bcd60e51b815291820152602560248201527f42726f45617465723a20496e73756666696369656e742062616c616e636520746044820152641bc819585d60da1b606482015260849150fd5b809250848092503d831161044f575b61043e8183610608565b8101031261034057849051386103c5565b503d610434565b82513d88823e3d90fd5b8380fd5b83346104be57806003193601126104be5761047d6105b0565b80546001600160a01b03198116825581906001600160a01b03167f8be0079c531659141344cd1fd0a4f28419497f9722a3daafe3b4186f6b6457e08280a380f35b80fd5b5050346101d357816003193601126101d357602090517393750140c2ecea27a53c6ed30380829607815a318152f35b5050346101d357816003193601126101d3576020906001549051908152f35b50346101455760203660031901126101455780359161052c6105b0565b82156105475750508060015403610541575080f35b60015580f35b906020608492519162461bcd60e51b8352820152602260248201527f45617465723a2052617465206d7573742062652067726561746572207468616e604482015261020360f41b6064820152fd5b600435906001600160a01b03821682036105ab57565b600080fd5b6000546001600160a01b031633036105c457565b606460405162461bcd60e51b815260206004820152602060248201527f4f776e61626c653a2063616c6c6572206973206e6f7420746865206f776e65726044820152fd5b90601f8019910116810190811067ffffffffffffffff82111761062a57604052565b634e487b7160e01b600052604160045260246000fd5b908160209103126105ab575180151581036105ab5790565b9190600154808402908482041484151715610848576064900460018060a01b0393846002541691604095865180946370a0823160e01b825230600483015281602460209788935afa9081156107bc5760009161081b575b5082116107c757808751956323b872dd60e01b87521694856004820152306024820152836044820152848160648160007393750140c2ecea27a53c6ed30380829607815a315af180156107bc578592600099949260449261079f575b5060025416918451998a93849263a9059cbb60e01b84528a600485015260248401525af1958615610794577fb6653926b7a3eed46d45f9afdd63c25ddeb3bc891f5c5cd0eb79656f07ff6f11949596610767575b5051908152a2565b61078690843d861161078d575b61077e8183610608565b810190610640565b503861075f565b503d610774565b50513d6000823e3d90fd5b6107b590853d871161078d5761077e8183610608565b503861070b565b88513d6000823e3d90fd5b865162461bcd60e51b815260048101859052602760248201527f45617465723a20496e73756666696369656e742062616c616e636520746f20746044820152663930b739b332b960c91b6064820152608490fd5b908582813d8311610841575b6108318183610608565b810103126104be575051386106af565b503d610827565b634e487b7160e01b600052601160045260246000fdfea26469706673582212205a9b54528acfdfad0483888b1d3d457bf6d91d6f70977211327d7bd50a4ebb6864736f6c63430008130033",
          "opcodes": "PUSH1 0x80 CALLVALUE PUSH2 0xB1 JUMPI PUSH1 0x1F PUSH2 0x961 CODESIZE DUP2 SWAP1 SUB SWAP2 DUP3 ADD PUSH1 0x1F NOT AND DUP4 ADD SWAP2 PUSH1 0x1 PUSH1 0x1 PUSH1 0x40 SHL SUB DUP4 GT DUP5 DUP5 LT OR PUSH2 0xB6 JUMPI DUP1 DUP5 SWAP3 PUSH1 0x20 SWAP5 PUSH1 0x40 MSTORE DUP4 CODECOPY DUP2 ADD SUB SLT PUSH2 0xB1 JUMPI MLOAD PUSH1 0x1 PUSH1 0x1 PUSH1 0xA0 SHL SUB SWAP1 DUP2 DUP2 AND SWAP1 DUP2 SWAP1 SUB PUSH2 0xB1 JUMPI PUSH1 0x0 SLOAD PUSH1 0x1 DUP1 PUSH1 0xA0 SHL SUB NOT SWAP1 CALLER DUP3 DUP3 AND OR PUSH1 0x0 SSTORE PUSH1 0x40 MLOAD SWAP4 CALLER SWAP2 AND PUSH32 0x8BE0079C531659141344CD1FD0A4F28419497F9722A3DAAFE3B4186F6B6457E0 PUSH1 0x0 DUP1 LOG3 PUSH1 0x1 PUSH1 0x3 SSTORE PUSH1 0x64 PUSH1 0x1 SSTORE PUSH1 0x2 SLOAD AND OR PUSH1 0x2 SSTORE PUSH2 0x894 SWAP1 DUP2 PUSH2 0xCD DUP3 CODECOPY RETURN JUMPDEST PUSH1 0x0 DUP1 REVERT JUMPDEST PUSH4 0x4E487B71 PUSH1 0xE0 SHL PUSH1 0x0 MSTORE PUSH1 0x41 PUSH1 0x4 MSTORE PUSH1 0x24 PUSH1 0x0 REVERT INVALID PUSH1 0x40 PUSH1 0x80 DUP2 MSTORE PUSH1 0x4 SWAP1 DUP2 CALLDATASIZE LT ISZERO PUSH2 0x15 JUMPI PUSH1 0x0 DUP1 REVERT JUMPDEST PUSH1 0x0 SWAP2 DUP3 CALLDATALOAD PUSH1 0xE0 SHR DUP1 PUSH4 0x34FCF437 EQ PUSH2 0x50F JUMPI DUP1 PUSH4 0x679AEFCE EQ PUSH2 0x4F0 JUMPI DUP1 PUSH4 0x6F307DC3 EQ PUSH2 0x4C1 JUMPI DUP1 PUSH4 0x715018A6 EQ PUSH2 0x464 JUMPI DUP1 PUSH4 0x85E0EBAF EQ PUSH2 0x370 JUMPI DUP1 PUSH4 0x8DA5CB5B EQ PUSH2 0x348 JUMPI DUP1 PUSH4 0x8F4FFCB1 EQ PUSH2 0x1E8 JUMPI DUP1 PUSH4 0xC8BB723C EQ PUSH2 0x149 JUMPI PUSH4 0xF2FDE38B EQ PUSH2 0x84 JUMPI PUSH1 0x0 DUP1 REVERT JUMPDEST CALLVALUE PUSH2 0x145 JUMPI PUSH1 0x20 CALLDATASIZE PUSH1 0x3 NOT ADD SLT PUSH2 0x145 JUMPI PUSH2 0x9D PUSH2 0x595 JUMP JUMPDEST SWAP1 PUSH2 0xA6 PUSH2 0x5B0 JUMP JUMPDEST PUSH1 0x1 PUSH1 0x1 PUSH1 0xA0 SHL SUB SWAP2 DUP3 AND SWAP3 DUP4 ISZERO PUSH2 0xF3 JUMPI POP POP DUP3 SLOAD PUSH1 0x1 PUSH1 0x1 PUSH1 0xA0 SHL SUB NOT DUP2 AND DUP4 OR DUP5 SSTORE AND PUSH32 0x8BE0079C531659141344CD1FD0A4F28419497F9722A3DAAFE3B4186F6B6457E0 DUP4 DUP1 LOG3 DUP1 RETURN JUMPDEST SWAP1 PUSH1 0x20 PUSH1 0x84 SWAP3 MLOAD SWAP2 PUSH3 0x461BCD PUSH1 0xE5 SHL DUP4 MSTORE DUP3 ADD MSTORE PUSH1 0x26 PUSH1 0x24 DUP3 ADD MSTORE PUSH32 0x4F776E61626C653A206E6577206F776E657220697320746865207A65726F2061 PUSH1 0x44 DUP3 ADD MSTORE PUSH6 0x646472657373 PUSH1 0xD0 SHL PUSH1 0x64 DUP3 ADD MSTORE REVERT JUMPDEST DUP3 DUP1 REVERT JUMPDEST POP SWAP1 CALLVALUE PUSH2 0x145 JUMPI DUP3 PUSH1 0x3 NOT CALLDATASIZE ADD SLT PUSH2 0x145 JUMPI DUP1 MLOAD SWAP2 PUSH4 0x70A08231 PUSH1 0xE0 SHL DUP4 MSTORE CALLER SWAP1 DUP4 ADD MSTORE PUSH1 0x20 DUP3 PUSH1 0x24 DUP2 PUSH20 0x93750140C2ECEA27A53C6ED30380829607815A31 GAS STATICCALL SWAP1 DUP2 ISZERO PUSH2 0x1DF JUMPI POP DUP3 SWAP1 PUSH2 0x1A8 JUMPI JUMPDEST PUSH2 0x1A5 SWAP2 POP CALLER SWAP1 PUSH2 0x658 JUMP JUMPDEST DUP1 RETURN JUMPDEST POP PUSH1 0x20 DUP2 RETURNDATASIZE DUP3 GT PUSH2 0x1D7 JUMPI JUMPDEST DUP2 PUSH2 0x1C1 PUSH1 0x20 SWAP4 DUP4 PUSH2 0x608 JUMP JUMPDEST DUP2 ADD SUB SLT PUSH2 0x1D3 JUMPI PUSH2 0x1A5 SWAP1 MLOAD PUSH2 0x199 JUMP JUMPDEST POP DUP1 REVERT JUMPDEST RETURNDATASIZE SWAP2 POP PUSH2 0x1B4 JUMP JUMPDEST MLOAD RETURNDATASIZE DUP5 DUP3 RETURNDATACOPY RETURNDATASIZE SWAP1 REVERT JUMPDEST POP CALLVALUE PUSH2 0x145 JUMPI PUSH1 0x80 CALLDATASIZE PUSH1 0x3 NOT ADD SLT PUSH2 0x145 JUMPI PUSH2 0x202 PUSH2 0x595 JUMP JUMPDEST SWAP2 PUSH1 0x44 CALLDATALOAD PUSH1 0x1 PUSH1 0x1 PUSH1 0xA0 SHL SUB DUP2 DUP2 AND SWAP2 DUP3 SWAP1 SUB PUSH2 0x340 JUMPI PUSH1 0x64 CALLDATALOAD PUSH8 0xFFFFFFFFFFFFFFFF DUP1 DUP3 GT PUSH2 0x344 JUMPI CALLDATASIZE PUSH1 0x23 DUP4 ADD SLT ISZERO PUSH2 0x344 JUMPI DUP2 DUP7 ADD CALLDATALOAD SWAP1 DUP2 GT PUSH2 0x344 JUMPI CALLDATASIZE SWAP2 ADD PUSH1 0x24 ADD GT PUSH2 0x340 JUMPI PUSH1 0x2 PUSH1 0x3 SLOAD EQ PUSH2 0x2FD JUMPI PUSH1 0x2 PUSH1 0x3 SSTORE PUSH1 0x2 SLOAD AND SWAP1 DUP2 CALLER SUB PUSH2 0x2BF JUMPI SUB PUSH2 0x282 JUMPI DUP4 PUSH2 0x27A DUP5 PUSH1 0x24 CALLDATALOAD PUSH2 0x658 JUMP JUMPDEST PUSH1 0x1 PUSH1 0x3 SSTORE DUP1 RETURN JUMPDEST SWAP1 PUSH1 0x20 PUSH1 0x64 SWAP3 MLOAD SWAP2 PUSH3 0x461BCD PUSH1 0xE5 SHL DUP4 MSTORE DUP3 ADD MSTORE PUSH1 0x17 PUSH1 0x24 DUP3 ADD MSTORE PUSH23 0x213937A2B0BA32B91D1024B73B30B634B2103A37B5B2B7 PUSH1 0x49 SHL PUSH1 0x44 DUP3 ADD MSTORE REVERT JUMPDEST DUP3 MLOAD PUSH3 0x461BCD PUSH1 0xE5 SHL DUP2 MSTORE PUSH1 0x20 DUP2 DUP7 ADD MSTORE PUSH1 0x18 PUSH1 0x24 DUP3 ADD MSTORE PUSH24 0x213937A2B0BA32B91D1024B73B30B634B21039B2B73232B9 PUSH1 0x41 SHL PUSH1 0x44 DUP3 ADD MSTORE PUSH1 0x64 SWAP1 REVERT JUMPDEST DUP3 MLOAD PUSH3 0x461BCD PUSH1 0xE5 SHL DUP2 MSTORE PUSH1 0x20 DUP2 DUP7 ADD MSTORE PUSH1 0x1F PUSH1 0x24 DUP3 ADD MSTORE PUSH32 0x5265656E7472616E637947756172643A207265656E7472616E742063616C6C00 PUSH1 0x44 DUP3 ADD MSTORE PUSH1 0x64 SWAP1 REVERT JUMPDEST DUP6 DUP1 REVERT JUMPDEST DUP8 DUP1 REVERT JUMPDEST POP POP CALLVALUE PUSH2 0x1D3 JUMPI DUP2 PUSH1 0x3 NOT CALLDATASIZE ADD SLT PUSH2 0x1D3 JUMPI SWAP1 SLOAD SWAP1 MLOAD PUSH1 0x1 PUSH1 0x1 PUSH1 0xA0 SHL SUB SWAP1 SWAP2 AND DUP2 MSTORE PUSH1 0x20 SWAP1 RETURN JUMPDEST POP CALLVALUE PUSH2 0x145 JUMPI PUSH1 0x20 DUP1 PUSH1 0x3 NOT CALLDATASIZE ADD SLT PUSH2 0x460 JUMPI DUP3 MLOAD PUSH4 0x70A08231 PUSH1 0xE0 SHL DUP2 MSTORE CALLER DUP2 DUP5 ADD MSTORE DUP3 CALLDATALOAD SWAP4 SWAP1 DUP3 DUP2 PUSH1 0x24 DUP2 PUSH20 0x93750140C2ECEA27A53C6ED30380829607815A31 GAS STATICCALL SWAP1 DUP2 ISZERO PUSH2 0x456 JUMPI SWAP1 DUP6 SWAP2 DUP8 SWAP2 PUSH2 0x425 JUMPI JUMPDEST POP LT PUSH2 0x3D6 JUMPI DUP5 PUSH2 0x1A5 CALLER DUP7 PUSH2 0x658 JUMP JUMPDEST MLOAD PUSH3 0x461BCD PUSH1 0xE5 SHL DUP2 MSTORE SWAP2 DUP3 ADD MSTORE PUSH1 0x25 PUSH1 0x24 DUP3 ADD MSTORE PUSH32 0x42726F45617465723A20496E73756666696369656E742062616C616E63652074 PUSH1 0x44 DUP3 ADD MSTORE PUSH5 0x1BC819585D PUSH1 0xDA SHL PUSH1 0x64 DUP3 ADD MSTORE PUSH1 0x84 SWAP2 POP REVERT JUMPDEST DUP1 SWAP3 POP DUP5 DUP1 SWAP3 POP RETURNDATASIZE DUP4 GT PUSH2 0x44F JUMPI JUMPDEST PUSH2 0x43E DUP2 DUP4 PUSH2 0x608 JUMP JUMPDEST DUP2 ADD SUB SLT PUSH2 0x340 JUMPI DUP5 SWAP1 MLOAD CODESIZE PUSH2 0x3C5 JUMP JUMPDEST POP RETURNDATASIZE PUSH2 0x434 JUMP JUMPDEST DUP3 MLOAD RETURNDATASIZE DUP9 DUP3 RETURNDATACOPY RETURNDATASIZE SWAP1 REVERT JUMPDEST DUP4 DUP1 REVERT JUMPDEST DUP4 CALLVALUE PUSH2 0x4BE JUMPI DUP1 PUSH1 0x3 NOT CALLDATASIZE ADD SLT PUSH2 0x4BE JUMPI PUSH2 0x47D PUSH2 0x5B0 JUMP JUMPDEST DUP1 SLOAD PUSH1 0x1 PUSH1 0x1 PUSH1 0xA0 SHL SUB NOT DUP2 AND DUP3 SSTORE DUP2 SWAP1 PUSH1 0x1 PUSH1 0x1 PUSH1 0xA0 SHL SUB AND PUSH32 0x8BE0079C531659141344CD1FD0A4F28419497F9722A3DAAFE3B4186F6B6457E0 DUP3 DUP1 LOG3 DUP1 RETURN JUMPDEST DUP1 REVERT JUMPDEST POP POP CALLVALUE PUSH2 0x1D3 JUMPI DUP2 PUSH1 0x3 NOT CALLDATASIZE ADD SLT PUSH2 0x1D3 JUMPI PUSH1 0x20 SWAP1 MLOAD PUSH20 0x93750140C2ECEA27A53C6ED30380829607815A31 DUP2 MSTORE RETURN JUMPDEST POP POP CALLVALUE PUSH2 0x1D3 JUMPI DUP2 PUSH1 0x3 NOT CALLDATASIZE ADD SLT PUSH2 0x1D3 JUMPI PUSH1 0x20 SWAP1 PUSH1 0x1 SLOAD SWAP1 MLOAD SWAP1 DUP2 MSTORE RETURN JUMPDEST POP CALLVALUE PUSH2 0x145 JUMPI PUSH1 0x20 CALLDATASIZE PUSH1 0x3 NOT ADD SLT PUSH2 0x145 JUMPI DUP1 CALLDATALOAD SWAP2 PUSH2 0x52C PUSH2 0x5B0 JUMP JUMPDEST DUP3 ISZERO PUSH2 0x547 JUMPI POP POP DUP1 PUSH1 0x1 SLOAD SUB PUSH2 0x541 JUMPI POP DUP1 RETURN JUMPDEST PUSH1 0x1 SSTORE DUP1 RETURN JUMPDEST SWAP1 PUSH1 0x20 PUSH1 0x84 SWAP3 MLOAD SWAP2 PUSH3 0x461BCD PUSH1 0xE5 SHL DUP4 MSTORE DUP3 ADD MSTORE PUSH1 0x22 PUSH1 0x24 DUP3 ADD MSTORE PUSH32 0x45617465723A2052617465206D7573742062652067726561746572207468616E PUSH1 0x44 DUP3 ADD MSTORE PUSH2 0x203 PUSH1 0xF4 SHL PUSH1 0x64 DUP3 ADD MSTORE REVERT JUMPDEST PUSH1 0x4 CALLDATALOAD SWAP1 PUSH1 0x1 PUSH1 0x1 PUSH1 0xA0 SHL SUB DUP3 AND DUP3 SUB PUSH2 0x5AB JUMPI JUMP JUMPDEST PUSH1 0x0 DUP1 REVERT JUMPDEST PUSH1 0x0 SLOAD PUSH1 0x1 PUSH1 0x1 PUSH1 0xA0 SHL SUB AND CALLER SUB PUSH2 0x5C4 JUMPI JUMP JUMPDEST PUSH1 0x64 PUSH1 0x40 MLOAD PUSH3 0x461BCD PUSH1 0xE5 SHL DUP2 MSTORE PUSH1 0x20 PUSH1 0x4 DUP3 ADD MSTORE PUSH1 0x20 PUSH1 0x24 DUP3 ADD MSTORE PUSH32 0x4F776E61626C653A2063616C6C6572206973206E6F7420746865206F776E6572 PUSH1 0x44 DUP3 ADD MSTORE REVERT JUMPDEST SWAP1 PUSH1 0x1F DUP1 NOT SWAP2 ADD AND DUP2 ADD SWAP1 DUP2 LT PUSH8 0xFFFFFFFFFFFFFFFF DUP3 GT OR PUSH2 0x62A JUMPI PUSH1 0x40 MSTORE JUMP JUMPDEST PUSH4 0x4E487B71 PUSH1 0xE0 SHL PUSH1 0x0 MSTORE PUSH1 0x41 PUSH1 0x4 MSTORE PUSH1 0x24 PUSH1 0x0 REVERT JUMPDEST SWAP1 DUP2 PUSH1 0x20 SWAP2 SUB SLT PUSH2 0x5AB JUMPI MLOAD DUP1 ISZERO ISZERO DUP2 SUB PUSH2 0x5AB JUMPI SWAP1 JUMP JUMPDEST SWAP2 SWAP1 PUSH1 0x1 SLOAD DUP1 DUP5 MUL SWAP1 DUP5 DUP3 DIV EQ DUP5 ISZERO OR ISZERO PUSH2 0x848 JUMPI PUSH1 0x64 SWAP1 DIV PUSH1 0x1 DUP1 PUSH1 0xA0 SHL SUB SWAP4 DUP5 PUSH1 0x2 SLOAD AND SWAP2 PUSH1 0x40 SWAP6 DUP7 MLOAD DUP1 SWAP5 PUSH4 0x70A08231 PUSH1 0xE0 SHL DUP3 MSTORE ADDRESS PUSH1 0x4 DUP4 ADD MSTORE DUP2 PUSH1 0x24 PUSH1 0x20 SWAP8 DUP9 SWAP4 GAS STATICCALL SWAP1 DUP2 ISZERO PUSH2 0x7BC JUMPI PUSH1 0x0 SWAP2 PUSH2 0x81B JUMPI JUMPDEST POP DUP3 GT PUSH2 0x7C7 JUMPI DUP1 DUP8 MLOAD SWAP6 PUSH4 0x23B872DD PUSH1 0xE0 SHL DUP8 MSTORE AND SWAP5 DUP6 PUSH1 0x4 DUP3 ADD MSTORE ADDRESS PUSH1 0x24 DUP3 ADD MSTORE DUP4 PUSH1 0x44 DUP3 ADD MSTORE DUP5 DUP2 PUSH1 0x64 DUP2 PUSH1 0x0 PUSH20 0x93750140C2ECEA27A53C6ED30380829607815A31 GAS CALL DUP1 ISZERO PUSH2 0x7BC JUMPI DUP6 SWAP3 PUSH1 0x0 SWAP10 SWAP5 SWAP3 PUSH1 0x44 SWAP3 PUSH2 0x79F JUMPI JUMPDEST POP PUSH1 0x2 SLOAD AND SWAP2 DUP5 MLOAD SWAP10 DUP11 SWAP4 DUP5 SWAP3 PUSH4 0xA9059CBB PUSH1 0xE0 SHL DUP5 MSTORE DUP11 PUSH1 0x4 DUP6 ADD MSTORE PUSH1 0x24 DUP5 ADD MSTORE GAS CALL SWAP6 DUP7 ISZERO PUSH2 0x794 JUMPI PUSH32 0xB6653926B7A3EED46D45F9AFDD63C25DDEB3BC891F5C5CD0EB79656F07FF6F11 SWAP5 SWAP6 SWAP7 PUSH2 0x767 JUMPI JUMPDEST POP MLOAD SWAP1 DUP2 MSTORE LOG2 JUMP JUMPDEST PUSH2 0x786 SWAP1 DUP5 RETURNDATASIZE DUP7 GT PUSH2 0x78D JUMPI JUMPDEST PUSH2 0x77E DUP2 DUP4 PUSH2 0x608 JUMP JUMPDEST DUP2 ADD SWAP1 PUSH2 0x640 JUMP JUMPDEST POP CODESIZE PUSH2 0x75F JUMP JUMPDEST POP RETURNDATASIZE PUSH2 0x774 JUMP JUMPDEST POP MLOAD RETURNDATASIZE PUSH1 0x0 DUP3 RETURNDATACOPY RETURNDATASIZE SWAP1 REVERT JUMPDEST PUSH2 0x7B5 SWAP1 DUP6 RETURNDATASIZE DUP8 GT PUSH2 0x78D JUMPI PUSH2 0x77E DUP2 DUP4 PUSH2 0x608 JUMP JUMPDEST POP CODESIZE PUSH2 0x70B JUMP JUMPDEST DUP9 MLOAD RETURNDATASIZE PUSH1 0x0 DUP3 RETURNDATACOPY RETURNDATASIZE SWAP1 REVERT JUMPDEST DUP7 MLOAD PUSH3 0x461BCD PUSH1 0xE5 SHL DUP2 MSTORE PUSH1 0x4 DUP2 ADD DUP6 SWAP1 MSTORE PUSH1 0x27 PUSH1 0x24 DUP3 ADD MSTORE PUSH32 0x45617465723A20496E73756666696369656E742062616C616E636520746F2074 PUSH1 0x44 DUP3 ADD MSTORE PUSH7 0x3930B739B332B9 PUSH1 0xC9 SHL PUSH1 0x64 DUP3 ADD MSTORE PUSH1 0x84 SWAP1 REVERT JUMPDEST SWAP1 DUP6 DUP3 DUP2 RETURNDATASIZE DUP4 GT PUSH2 0x841 JUMPI JUMPDEST PUSH2 0x831 DUP2 DUP4 PUSH2 0x608 JUMP JUMPDEST DUP2 ADD SUB SLT PUSH2 0x4BE JUMPI POP MLOAD CODESIZE PUSH2 0x6AF JUMP JUMPDEST POP RETURNDATASIZE PUSH2 0x827 JUMP JUMPDEST PUSH4 0x4E487B71 PUSH1 0xE0 SHL PUSH1 0x0 MSTORE PUSH1 0x11 PUSH1 0x4 MSTORE PUSH1 0x24 PUSH1 0x0 REVERT INVALID LOG2 PUSH5 0x6970667358 0x22 SLT KECCAK256 GAS SWAP12 SLOAD MSTORE DUP11 0xCF 0xDF 0xAD DIV DUP4 DUP9 DUP12 SAR RETURNDATASIZE GASLIMIT PUSH28 0xF6D91D6F70977211327D7BD50A4EBB6864736F6C6343000813003300 "
        },
        "methodIdentifiers": {
          "eat(uint256)": "85e0ebaf",
          "eatAll()": "c8bb723c",
          "getRate()": "679aefce",
          "owner()": "8da5cb5b",
          "receiveApproval(address,uint256,address,bytes)": "8f4ffcb1",
          "renounceOwnership()": "715018a6",
          "setRate(uint256)": "34fcf437",
          "transferOwnership(address)": "f2fde38b",
          "underlying()": "6f307dc3"
        }
      }
    }
  }
}