{
  "contracts/core/eaters/GenericEater.sol": {
    "GenericEater": {
      "abi": [
        {
          "inputs": [
            {
              "internalType": "address",
              "name": "_wewe",
              "type": "address"
            },
            {
              "internalType": "address",
              "name": "_underlying",
              "type": "address"
            }
          ],
          "stateMutability": "nonpayable",
          "type": "constructor"
        },
        {
          "anonymous": false,
          "inputs": [
            {
              "indexed": false,
              "internalType": "uint256",
              "name": "amount",
              "type": "uint256"
            },
            {
              "indexed": true,
              "internalType": "address",
              "name": "account",
              "type": "address"
            }
          ],
          "name": "Eaten",
          "type": "event"
        },
        {
          "anonymous": false,
          "inputs": [
            {
              "indexed": true,
              "internalType": "address",
              "name": "previousOwner",
              "type": "address"
            },
            {
              "indexed": true,
              "internalType": "address",
              "name": "newOwner",
              "type": "address"
            }
          ],
          "name": "OwnershipTransferred",
          "type": "event"
        },
        {
          "inputs": [
            {
              "internalType": "uint256",
              "name": "amount",
              "type": "uint256"
            }
          ],
          "name": "eat",
          "outputs": [],
          "stateMutability": "nonpayable",
          "type": "function"
        },
        {
          "inputs": [],
          "name": "eatAll",
          "outputs": [],
          "stateMutability": "nonpayable",
          "type": "function"
        },
        {
          "inputs": [],
          "name": "getRate",
          "outputs": [
            {
              "internalType": "uint256",
              "name": "",
              "type": "uint256"
            }
          ],
          "stateMutability": "view",
          "type": "function"
        },
        {
          "inputs": [],
          "name": "owner",
          "outputs": [
            {
              "internalType": "address",
              "name": "",
              "type": "address"
            }
          ],
          "stateMutability": "view",
          "type": "function"
        },
        {
          "inputs": [
            {
              "internalType": "address",
              "name": "from",
              "type": "address"
            },
            {
              "internalType": "uint256",
              "name": "amount",
              "type": "uint256"
            },
            {
              "internalType": "address",
              "name": "token",
              "type": "address"
            },
            {
              "internalType": "bytes",
              "name": "",
              "type": "bytes"
            }
          ],
          "name": "receiveApproval",
          "outputs": [],
          "stateMutability": "nonpayable",
          "type": "function"
        },
        {
          "inputs": [],
          "name": "renounceOwnership",
          "outputs": [],
          "stateMutability": "nonpayable",
          "type": "function"
        },
        {
          "inputs": [
            {
              "internalType": "uint256",
              "name": "rate",
              "type": "uint256"
            }
          ],
          "name": "setRate",
          "outputs": [],
          "stateMutability": "nonpayable",
          "type": "function"
        },
        {
          "inputs": [
            {
              "internalType": "address",
              "name": "newOwner",
              "type": "address"
            }
          ],
          "name": "transferOwnership",
          "outputs": [],
          "stateMutability": "nonpayable",
          "type": "function"
        },
        {
          "inputs": [],
          "name": "underlying",
          "outputs": [
            {
              "internalType": "address",
              "name": "",
              "type": "address"
            }
          ],
          "stateMutability": "view",
          "type": "function"
        }
      ],
      "evm": {
        "bytecode": {
          "linkReferences": {},
          "object": "60a0346100df57601f610a1c38819003918201601f19168301916001600160401b038311848410176100e45780849260409485528339810103126100df57610052602061004b836100fa565b92016100fa565b600080546001600160a01b03198082163390811784556040519591936001600160a01b03938416907f8be0079c531659141344cd1fd0a4f28419497f9722a3daafe3b4186f6b6457e09080a3600160035560646001551690600254161760025560805261090d908161010f82396080518181816101710152818161028a015281816103e101526105380152f35b600080fd5b634e487b7160e01b600052604160045260246000fd5b51906001600160a01b03821682036100df5756fe6040608081526004908136101561001557600080fd5b600091823560e01c806334fcf43714610586578063679aefce146105675780636f307dc314610523578063715018a6146104c657806385e0ebaf146103b65780638da5cb5b1461038a5780638f4ffcb1146101fe578063c8bb723c146101495763f2fde38b1461008457600080fd5b346101455760203660031901126101455761009d61060c565b906100a6610627565b6001600160a01b039182169283156100f357505082546001600160a01b0319811683178455167f8be0079c531659141344cd1fd0a4f28419497f9722a3daafe3b4186f6b6457e08380a380f35b906020608492519162461bcd60e51b8352820152602660248201527f4f776e61626c653a206e6577206f776e657220697320746865207a65726f206160448201526564647265737360d01b6064820152fd5b8280fd5b50903461014557826003193601126101455780516370a0823160e01b815233928101929092527f00000000000000000000000000000000000000000000000000000000000000006020836024816001600160a01b0385165afa9182156101f5575083916101c0575b6101bd925033916106cf565b80f35b90506020823d82116101ed575b816101da6020938361067f565b81010312610145576101bd9151906101b1565b3d91506101cd565b513d85823e3d90fd5b50346101455760803660031901126101455761021861060c565b916044356001600160a01b03818116918290036103825760643567ffffffffffffffff8082116103865736602383011215610386578186013590811161038657369101602401116103825760026003541461033f57600260035560025416908133036102fc57036102b957836102b1847f00000000000000000000000000000000000000000000000000000000000000006024356106cf565b600160035580f35b906020606492519162461bcd60e51b8352820152601b60248201527f47656e6572696345617465723a20496e76616c696420746f6b656e00000000006044820152fd5b825162461bcd60e51b8152602081860152601c60248201527f47656e6572696345617465723a20496e76616c69642073656e646572000000006044820152606490fd5b825162461bcd60e51b8152602081860152601f60248201527f5265656e7472616e637947756172643a207265656e7472616e742063616c6c006044820152606490fd5b8580fd5b8780fd5b5050346103b257816003193601126103b257905490516001600160a01b039091168152602090f35b5080fd5b508290346103b2576020806003193601126101455783516370a0823160e01b815233818401528235927f000000000000000000000000000000000000000000000000000000000000000092909181816024816001600160a01b0388165afa9081156104bc57908591879161048b575b501061043757846101bd3385876106cf565b855162461bcd60e51b815291820152602960248201527f47656e6572696345617465723a20496e73756666696369656e742062616c616e60448201526818d9481d1bc819585d60ba1b606482015260849150fd5b809250838092503d83116104b5575b6104a4818361067f565b810103126103825784905188610425565b503d61049a565b87513d88823e3d90fd5b83346105205780600319360112610520576104df610627565b80546001600160a01b03198116825581906001600160a01b03167f8be0079c531659141344cd1fd0a4f28419497f9722a3daafe3b4186f6b6457e08280a380f35b80fd5b5050346103b257816003193601126103b257517f00000000000000000000000000000000000000000000000000000000000000006001600160a01b03168152602090f35b5050346103b257816003193601126103b2576020906001549051908152f35b5034610145576020366003190112610145578035916105a3610627565b82156105be57505080600154036105b8575080f35b60015580f35b906020608492519162461bcd60e51b8352820152602260248201527f45617465723a2052617465206d7573742062652067726561746572207468616e604482015261020360f41b6064820152fd5b600435906001600160a01b038216820361062257565b600080fd5b6000546001600160a01b0316330361063b57565b606460405162461bcd60e51b815260206004820152602060248201527f4f776e61626c653a2063616c6c6572206973206e6f7420746865206f776e65726044820152fd5b90601f8019910116810190811067ffffffffffffffff8211176106a157604052565b634e487b7160e01b600052604160045260246000fd5b90816020910312610622575180151581036106225790565b9291926001548082029082820414821517156108c157600254604080516370a0823160e01b815230600482015290966020949360649004926001600160a01b03929086908290602490829087165afa9081156108b657600091610889575b5083116108355784826064819360008c5195869485936323b872dd60e01b8552169b8c60048501523060248501528a6044850152165af1801561082a578592600099949260449261080d575b5060025416918451998a93849263a9059cbb60e01b84528a600485015260248401525af1958615610802577fb6653926b7a3eed46d45f9afdd63c25ddeb3bc891f5c5cd0eb79656f07ff6f119495966107d5575b5051908152a2565b6107f490843d86116107fb575b6107ec818361067f565b8101906106b7565b50386107cd565b503d6107e2565b50513d6000823e3d90fd5b61082390853d87116107fb576107ec818361067f565b5038610779565b88513d6000823e3d90fd5b875162461bcd60e51b815260048101869052602760248201527f45617465723a20496e73756666696369656e742062616c616e636520746f20746044820152663930b739b332b960c91b6064820152608490fd5b908682813d83116108af575b61089f818361067f565b810103126105205750513861072d565b503d610895565b89513d6000823e3d90fd5b634e487b7160e01b600052601160045260246000fdfea2646970667358221220e142f4b289158ca8a861efe52429dd63e2e7bab7f8e2e5a576cf3d4c8ed0408264736f6c63430008130033",
          "opcodes": "PUSH1 0xA0 CALLVALUE PUSH2 0xDF JUMPI PUSH1 0x1F PUSH2 0xA1C CODESIZE DUP2 SWAP1 SUB SWAP2 DUP3 ADD PUSH1 0x1F NOT AND DUP4 ADD SWAP2 PUSH1 0x1 PUSH1 0x1 PUSH1 0x40 SHL SUB DUP4 GT DUP5 DUP5 LT OR PUSH2 0xE4 JUMPI DUP1 DUP5 SWAP3 PUSH1 0x40 SWAP5 DUP6 MSTORE DUP4 CODECOPY DUP2 ADD SUB SLT PUSH2 0xDF JUMPI PUSH2 0x52 PUSH1 0x20 PUSH2 0x4B DUP4 PUSH2 0xFA JUMP JUMPDEST SWAP3 ADD PUSH2 0xFA JUMP JUMPDEST PUSH1 0x0 DUP1 SLOAD PUSH1 0x1 PUSH1 0x1 PUSH1 0xA0 SHL SUB NOT DUP1 DUP3 AND CALLER SWAP1 DUP2 OR DUP5 SSTORE PUSH1 0x40 MLOAD SWAP6 SWAP2 SWAP4 PUSH1 0x1 PUSH1 0x1 PUSH1 0xA0 SHL SUB SWAP4 DUP5 AND SWAP1 PUSH32 0x8BE0079C531659141344CD1FD0A4F28419497F9722A3DAAFE3B4186F6B6457E0 SWAP1 DUP1 LOG3 PUSH1 0x1 PUSH1 0x3 SSTORE PUSH1 0x64 PUSH1 0x1 SSTORE AND SWAP1 PUSH1 0x2 SLOAD AND OR PUSH1 0x2 SSTORE PUSH1 0x80 MSTORE PUSH2 0x90D SWAP1 DUP2 PUSH2 0x10F DUP3 CODECOPY PUSH1 0x80 MLOAD DUP2 DUP2 DUP2 PUSH2 0x171 ADD MSTORE DUP2 DUP2 PUSH2 0x28A ADD MSTORE DUP2 DUP2 PUSH2 0x3E1 ADD MSTORE PUSH2 0x538 ADD MSTORE RETURN JUMPDEST PUSH1 0x0 DUP1 REVERT JUMPDEST PUSH4 0x4E487B71 PUSH1 0xE0 SHL PUSH1 0x0 MSTORE PUSH1 0x41 PUSH1 0x4 MSTORE PUSH1 0x24 PUSH1 0x0 REVERT JUMPDEST MLOAD SWAP1 PUSH1 0x1 PUSH1 0x1 PUSH1 0xA0 SHL SUB DUP3 AND DUP3 SUB PUSH2 0xDF JUMPI JUMP INVALID PUSH1 0x40 PUSH1 0x80 DUP2 MSTORE PUSH1 0x4 SWAP1 DUP2 CALLDATASIZE LT ISZERO PUSH2 0x15 JUMPI PUSH1 0x0 DUP1 REVERT JUMPDEST PUSH1 0x0 SWAP2 DUP3 CALLDATALOAD PUSH1 0xE0 SHR DUP1 PUSH4 0x34FCF437 EQ PUSH2 0x586 JUMPI DUP1 PUSH4 0x679AEFCE EQ PUSH2 0x567 JUMPI DUP1 PUSH4 0x6F307DC3 EQ PUSH2 0x523 JUMPI DUP1 PUSH4 0x715018A6 EQ PUSH2 0x4C6 JUMPI DUP1 PUSH4 0x85E0EBAF EQ PUSH2 0x3B6 JUMPI DUP1 PUSH4 0x8DA5CB5B EQ PUSH2 0x38A JUMPI DUP1 PUSH4 0x8F4FFCB1 EQ PUSH2 0x1FE JUMPI DUP1 PUSH4 0xC8BB723C EQ PUSH2 0x149 JUMPI PUSH4 0xF2FDE38B EQ PUSH2 0x84 JUMPI PUSH1 0x0 DUP1 REVERT JUMPDEST CALLVALUE PUSH2 0x145 JUMPI PUSH1 0x20 CALLDATASIZE PUSH1 0x3 NOT ADD SLT PUSH2 0x145 JUMPI PUSH2 0x9D PUSH2 0x60C JUMP JUMPDEST SWAP1 PUSH2 0xA6 PUSH2 0x627 JUMP JUMPDEST PUSH1 0x1 PUSH1 0x1 PUSH1 0xA0 SHL SUB SWAP2 DUP3 AND SWAP3 DUP4 ISZERO PUSH2 0xF3 JUMPI POP POP DUP3 SLOAD PUSH1 0x1 PUSH1 0x1 PUSH1 0xA0 SHL SUB NOT DUP2 AND DUP4 OR DUP5 SSTORE AND PUSH32 0x8BE0079C531659141344CD1FD0A4F28419497F9722A3DAAFE3B4186F6B6457E0 DUP4 DUP1 LOG3 DUP1 RETURN JUMPDEST SWAP1 PUSH1 0x20 PUSH1 0x84 SWAP3 MLOAD SWAP2 PUSH3 0x461BCD PUSH1 0xE5 SHL DUP4 MSTORE DUP3 ADD MSTORE PUSH1 0x26 PUSH1 0x24 DUP3 ADD MSTORE PUSH32 0x4F776E61626C653A206E6577206F776E657220697320746865207A65726F2061 PUSH1 0x44 DUP3 ADD MSTORE PUSH6 0x646472657373 PUSH1 0xD0 SHL PUSH1 0x64 DUP3 ADD MSTORE REVERT JUMPDEST DUP3 DUP1 REVERT JUMPDEST POP SWAP1 CALLVALUE PUSH2 0x145 JUMPI DUP3 PUSH1 0x3 NOT CALLDATASIZE ADD SLT PUSH2 0x145 JUMPI DUP1 MLOAD PUSH4 0x70A08231 PUSH1 0xE0 SHL DUP2 MSTORE CALLER SWAP3 DUP2 ADD SWAP3 SWAP1 SWAP3 MSTORE PUSH32 0x0 PUSH1 0x20 DUP4 PUSH1 0x24 DUP2 PUSH1 0x1 PUSH1 0x1 PUSH1 0xA0 SHL SUB DUP6 AND GAS STATICCALL SWAP2 DUP3 ISZERO PUSH2 0x1F5 JUMPI POP DUP4 SWAP2 PUSH2 0x1C0 JUMPI JUMPDEST PUSH2 0x1BD SWAP3 POP CALLER SWAP2 PUSH2 0x6CF JUMP JUMPDEST DUP1 RETURN JUMPDEST SWAP1 POP PUSH1 0x20 DUP3 RETURNDATASIZE DUP3 GT PUSH2 0x1ED JUMPI JUMPDEST DUP2 PUSH2 0x1DA PUSH1 0x20 SWAP4 DUP4 PUSH2 0x67F JUMP JUMPDEST DUP2 ADD SUB SLT PUSH2 0x145 JUMPI PUSH2 0x1BD SWAP2 MLOAD SWAP1 PUSH2 0x1B1 JUMP JUMPDEST RETURNDATASIZE SWAP2 POP PUSH2 0x1CD JUMP JUMPDEST MLOAD RETURNDATASIZE DUP6 DUP3 RETURNDATACOPY RETURNDATASIZE SWAP1 REVERT JUMPDEST POP CALLVALUE PUSH2 0x145 JUMPI PUSH1 0x80 CALLDATASIZE PUSH1 0x3 NOT ADD SLT PUSH2 0x145 JUMPI PUSH2 0x218 PUSH2 0x60C JUMP JUMPDEST SWAP2 PUSH1 0x44 CALLDATALOAD PUSH1 0x1 PUSH1 0x1 PUSH1 0xA0 SHL SUB DUP2 DUP2 AND SWAP2 DUP3 SWAP1 SUB PUSH2 0x382 JUMPI PUSH1 0x64 CALLDATALOAD PUSH8 0xFFFFFFFFFFFFFFFF DUP1 DUP3 GT PUSH2 0x386 JUMPI CALLDATASIZE PUSH1 0x23 DUP4 ADD SLT ISZERO PUSH2 0x386 JUMPI DUP2 DUP7 ADD CALLDATALOAD SWAP1 DUP2 GT PUSH2 0x386 JUMPI CALLDATASIZE SWAP2 ADD PUSH1 0x24 ADD GT PUSH2 0x382 JUMPI PUSH1 0x2 PUSH1 0x3 SLOAD EQ PUSH2 0x33F JUMPI PUSH1 0x2 PUSH1 0x3 SSTORE PUSH1 0x2 SLOAD AND SWAP1 DUP2 CALLER SUB PUSH2 0x2FC JUMPI SUB PUSH2 0x2B9 JUMPI DUP4 PUSH2 0x2B1 DUP5 PUSH32 0x0 PUSH1 0x24 CALLDATALOAD PUSH2 0x6CF JUMP JUMPDEST PUSH1 0x1 PUSH1 0x3 SSTORE DUP1 RETURN JUMPDEST SWAP1 PUSH1 0x20 PUSH1 0x64 SWAP3 MLOAD SWAP2 PUSH3 0x461BCD PUSH1 0xE5 SHL DUP4 MSTORE DUP3 ADD MSTORE PUSH1 0x1B PUSH1 0x24 DUP3 ADD MSTORE PUSH32 0x47656E6572696345617465723A20496E76616C696420746F6B656E0000000000 PUSH1 0x44 DUP3 ADD MSTORE REVERT JUMPDEST DUP3 MLOAD PUSH3 0x461BCD PUSH1 0xE5 SHL DUP2 MSTORE PUSH1 0x20 DUP2 DUP7 ADD MSTORE PUSH1 0x1C PUSH1 0x24 DUP3 ADD MSTORE PUSH32 0x47656E6572696345617465723A20496E76616C69642073656E64657200000000 PUSH1 0x44 DUP3 ADD MSTORE PUSH1 0x64 SWAP1 REVERT JUMPDEST DUP3 MLOAD PUSH3 0x461BCD PUSH1 0xE5 SHL DUP2 MSTORE PUSH1 0x20 DUP2 DUP7 ADD MSTORE PUSH1 0x1F PUSH1 0x24 DUP3 ADD MSTORE PUSH32 0x5265656E7472616E637947756172643A207265656E7472616E742063616C6C00 PUSH1 0x44 DUP3 ADD MSTORE PUSH1 0x64 SWAP1 REVERT JUMPDEST DUP6 DUP1 REVERT JUMPDEST DUP8 DUP1 REVERT JUMPDEST POP POP CALLVALUE PUSH2 0x3B2 JUMPI DUP2 PUSH1 0x3 NOT CALLDATASIZE ADD SLT PUSH2 0x3B2 JUMPI SWAP1 SLOAD SWAP1 MLOAD PUSH1 0x1 PUSH1 0x1 PUSH1 0xA0 SHL SUB SWAP1 SWAP2 AND DUP2 MSTORE PUSH1 0x20 SWAP1 RETURN JUMPDEST POP DUP1 REVERT JUMPDEST POP DUP3 SWAP1 CALLVALUE PUSH2 0x3B2 JUMPI PUSH1 0x20 DUP1 PUSH1 0x3 NOT CALLDATASIZE ADD SLT PUSH2 0x145 JUMPI DUP4 MLOAD PUSH4 0x70A08231 PUSH1 0xE0 SHL DUP2 MSTORE CALLER DUP2 DUP5 ADD MSTORE DUP3 CALLDATALOAD SWAP3 PUSH32 0x0 SWAP3 SWAP1 SWAP2 DUP2 DUP2 PUSH1 0x24 DUP2 PUSH1 0x1 PUSH1 0x1 PUSH1 0xA0 SHL SUB DUP9 AND GAS STATICCALL SWAP1 DUP2 ISZERO PUSH2 0x4BC JUMPI SWAP1 DUP6 SWAP2 DUP8 SWAP2 PUSH2 0x48B JUMPI JUMPDEST POP LT PUSH2 0x437 JUMPI DUP5 PUSH2 0x1BD CALLER DUP6 DUP8 PUSH2 0x6CF JUMP JUMPDEST DUP6 MLOAD PUSH3 0x461BCD PUSH1 0xE5 SHL DUP2 MSTORE SWAP2 DUP3 ADD MSTORE PUSH1 0x29 PUSH1 0x24 DUP3 ADD MSTORE PUSH32 0x47656E6572696345617465723A20496E73756666696369656E742062616C616E PUSH1 0x44 DUP3 ADD MSTORE PUSH9 0x18D9481D1BC819585D PUSH1 0xBA SHL PUSH1 0x64 DUP3 ADD MSTORE PUSH1 0x84 SWAP2 POP REVERT JUMPDEST DUP1 SWAP3 POP DUP4 DUP1 SWAP3 POP RETURNDATASIZE DUP4 GT PUSH2 0x4B5 JUMPI JUMPDEST PUSH2 0x4A4 DUP2 DUP4 PUSH2 0x67F JUMP JUMPDEST DUP2 ADD SUB SLT PUSH2 0x382 JUMPI DUP5 SWAP1 MLOAD DUP9 PUSH2 0x425 JUMP JUMPDEST POP RETURNDATASIZE PUSH2 0x49A JUMP JUMPDEST DUP8 MLOAD RETURNDATASIZE DUP9 DUP3 RETURNDATACOPY RETURNDATASIZE SWAP1 REVERT JUMPDEST DUP4 CALLVALUE PUSH2 0x520 JUMPI DUP1 PUSH1 0x3 NOT CALLDATASIZE ADD SLT PUSH2 0x520 JUMPI PUSH2 0x4DF PUSH2 0x627 JUMP JUMPDEST DUP1 SLOAD PUSH1 0x1 PUSH1 0x1 PUSH1 0xA0 SHL SUB NOT DUP2 AND DUP3 SSTORE DUP2 SWAP1 PUSH1 0x1 PUSH1 0x1 PUSH1 0xA0 SHL SUB AND PUSH32 0x8BE0079C531659141344CD1FD0A4F28419497F9722A3DAAFE3B4186F6B6457E0 DUP3 DUP1 LOG3 DUP1 RETURN JUMPDEST DUP1 REVERT JUMPDEST POP POP CALLVALUE PUSH2 0x3B2 JUMPI DUP2 PUSH1 0x3 NOT CALLDATASIZE ADD SLT PUSH2 0x3B2 JUMPI MLOAD PUSH32 0x0 PUSH1 0x1 PUSH1 0x1 PUSH1 0xA0 SHL SUB AND DUP2 MSTORE PUSH1 0x20 SWAP1 RETURN JUMPDEST POP POP CALLVALUE PUSH2 0x3B2 JUMPI DUP2 PUSH1 0x3 NOT CALLDATASIZE ADD SLT PUSH2 0x3B2 JUMPI PUSH1 0x20 SWAP1 PUSH1 0x1 SLOAD SWAP1 MLOAD SWAP1 DUP2 MSTORE RETURN JUMPDEST POP CALLVALUE PUSH2 0x145 JUMPI PUSH1 0x20 CALLDATASIZE PUSH1 0x3 NOT ADD SLT PUSH2 0x145 JUMPI DUP1 CALLDATALOAD SWAP2 PUSH2 0x5A3 PUSH2 0x627 JUMP JUMPDEST DUP3 ISZERO PUSH2 0x5BE JUMPI POP POP DUP1 PUSH1 0x1 SLOAD SUB PUSH2 0x5B8 JUMPI POP DUP1 RETURN JUMPDEST PUSH1 0x1 SSTORE DUP1 RETURN JUMPDEST SWAP1 PUSH1 0x20 PUSH1 0x84 SWAP3 MLOAD SWAP2 PUSH3 0x461BCD PUSH1 0xE5 SHL DUP4 MSTORE DUP3 ADD MSTORE PUSH1 0x22 PUSH1 0x24 DUP3 ADD MSTORE PUSH32 0x45617465723A2052617465206D7573742062652067726561746572207468616E PUSH1 0x44 DUP3 ADD MSTORE PUSH2 0x203 PUSH1 0xF4 SHL PUSH1 0x64 DUP3 ADD MSTORE REVERT JUMPDEST PUSH1 0x4 CALLDATALOAD SWAP1 PUSH1 0x1 PUSH1 0x1 PUSH1 0xA0 SHL SUB DUP3 AND DUP3 SUB PUSH2 0x622 JUMPI JUMP JUMPDEST PUSH1 0x0 DUP1 REVERT JUMPDEST PUSH1 0x0 SLOAD PUSH1 0x1 PUSH1 0x1 PUSH1 0xA0 SHL SUB AND CALLER SUB PUSH2 0x63B JUMPI JUMP JUMPDEST PUSH1 0x64 PUSH1 0x40 MLOAD PUSH3 0x461BCD PUSH1 0xE5 SHL DUP2 MSTORE PUSH1 0x20 PUSH1 0x4 DUP3 ADD MSTORE PUSH1 0x20 PUSH1 0x24 DUP3 ADD MSTORE PUSH32 0x4F776E61626C653A2063616C6C6572206973206E6F7420746865206F776E6572 PUSH1 0x44 DUP3 ADD MSTORE REVERT JUMPDEST SWAP1 PUSH1 0x1F DUP1 NOT SWAP2 ADD AND DUP2 ADD SWAP1 DUP2 LT PUSH8 0xFFFFFFFFFFFFFFFF DUP3 GT OR PUSH2 0x6A1 JUMPI PUSH1 0x40 MSTORE JUMP JUMPDEST PUSH4 0x4E487B71 PUSH1 0xE0 SHL PUSH1 0x0 MSTORE PUSH1 0x41 PUSH1 0x4 MSTORE PUSH1 0x24 PUSH1 0x0 REVERT JUMPDEST SWAP1 DUP2 PUSH1 0x20 SWAP2 SUB SLT PUSH2 0x622 JUMPI MLOAD DUP1 ISZERO ISZERO DUP2 SUB PUSH2 0x622 JUMPI SWAP1 JUMP JUMPDEST SWAP3 SWAP2 SWAP3 PUSH1 0x1 SLOAD DUP1 DUP3 MUL SWAP1 DUP3 DUP3 DIV EQ DUP3 ISZERO OR ISZERO PUSH2 0x8C1 JUMPI PUSH1 0x2 SLOAD PUSH1 0x40 DUP1 MLOAD PUSH4 0x70A08231 PUSH1 0xE0 SHL DUP2 MSTORE ADDRESS PUSH1 0x4 DUP3 ADD MSTORE SWAP1 SWAP7 PUSH1 0x20 SWAP5 SWAP4 PUSH1 0x64 SWAP1 DIV SWAP3 PUSH1 0x1 PUSH1 0x1 PUSH1 0xA0 SHL SUB SWAP3 SWAP1 DUP7 SWAP1 DUP3 SWAP1 PUSH1 0x24 SWAP1 DUP3 SWAP1 DUP8 AND GAS STATICCALL SWAP1 DUP2 ISZERO PUSH2 0x8B6 JUMPI PUSH1 0x0 SWAP2 PUSH2 0x889 JUMPI JUMPDEST POP DUP4 GT PUSH2 0x835 JUMPI DUP5 DUP3 PUSH1 0x64 DUP2 SWAP4 PUSH1 0x0 DUP13 MLOAD SWAP6 DUP7 SWAP5 DUP6 SWAP4 PUSH4 0x23B872DD PUSH1 0xE0 SHL DUP6 MSTORE AND SWAP12 DUP13 PUSH1 0x4 DUP6 ADD MSTORE ADDRESS PUSH1 0x24 DUP6 ADD MSTORE DUP11 PUSH1 0x44 DUP6 ADD MSTORE AND GAS CALL DUP1 ISZERO PUSH2 0x82A JUMPI DUP6 SWAP3 PUSH1 0x0 SWAP10 SWAP5 SWAP3 PUSH1 0x44 SWAP3 PUSH2 0x80D JUMPI JUMPDEST POP PUSH1 0x2 SLOAD AND SWAP2 DUP5 MLOAD SWAP10 DUP11 SWAP4 DUP5 SWAP3 PUSH4 0xA9059CBB PUSH1 0xE0 SHL DUP5 MSTORE DUP11 PUSH1 0x4 DUP6 ADD MSTORE PUSH1 0x24 DUP5 ADD MSTORE GAS CALL SWAP6 DUP7 ISZERO PUSH2 0x802 JUMPI PUSH32 0xB6653926B7A3EED46D45F9AFDD63C25DDEB3BC891F5C5CD0EB79656F07FF6F11 SWAP5 SWAP6 SWAP7 PUSH2 0x7D5 JUMPI JUMPDEST POP MLOAD SWAP1 DUP2 MSTORE LOG2 JUMP JUMPDEST PUSH2 0x7F4 SWAP1 DUP5 RETURNDATASIZE DUP7 GT PUSH2 0x7FB JUMPI JUMPDEST PUSH2 0x7EC DUP2 DUP4 PUSH2 0x67F JUMP JUMPDEST DUP2 ADD SWAP1 PUSH2 0x6B7 JUMP JUMPDEST POP CODESIZE PUSH2 0x7CD JUMP JUMPDEST POP RETURNDATASIZE PUSH2 0x7E2 JUMP JUMPDEST POP MLOAD RETURNDATASIZE PUSH1 0x0 DUP3 RETURNDATACOPY RETURNDATASIZE SWAP1 REVERT JUMPDEST PUSH2 0x823 SWAP1 DUP6 RETURNDATASIZE DUP8 GT PUSH2 0x7FB JUMPI PUSH2 0x7EC DUP2 DUP4 PUSH2 0x67F JUMP JUMPDEST POP CODESIZE PUSH2 0x779 JUMP JUMPDEST DUP9 MLOAD RETURNDATASIZE PUSH1 0x0 DUP3 RETURNDATACOPY RETURNDATASIZE SWAP1 REVERT JUMPDEST DUP8 MLOAD PUSH3 0x461BCD PUSH1 0xE5 SHL DUP2 MSTORE PUSH1 0x4 DUP2 ADD DUP7 SWAP1 MSTORE PUSH1 0x27 PUSH1 0x24 DUP3 ADD MSTORE PUSH32 0x45617465723A20496E73756666696369656E742062616C616E636520746F2074 PUSH1 0x44 DUP3 ADD MSTORE PUSH7 0x3930B739B332B9 PUSH1 0xC9 SHL PUSH1 0x64 DUP3 ADD MSTORE PUSH1 0x84 SWAP1 REVERT JUMPDEST SWAP1 DUP7 DUP3 DUP2 RETURNDATASIZE DUP4 GT PUSH2 0x8AF JUMPI JUMPDEST PUSH2 0x89F DUP2 DUP4 PUSH2 0x67F JUMP JUMPDEST DUP2 ADD SUB SLT PUSH2 0x520 JUMPI POP MLOAD CODESIZE PUSH2 0x72D JUMP JUMPDEST POP RETURNDATASIZE PUSH2 0x895 JUMP JUMPDEST DUP10 MLOAD RETURNDATASIZE PUSH1 0x0 DUP3 RETURNDATACOPY RETURNDATASIZE SWAP1 REVERT JUMPDEST PUSH4 0x4E487B71 PUSH1 0xE0 SHL PUSH1 0x0 MSTORE PUSH1 0x11 PUSH1 0x4 MSTORE PUSH1 0x24 PUSH1 0x0 REVERT INVALID LOG2 PUSH5 0x6970667358 0x22 SLT KECCAK256 0xE1 TIMESTAMP DELEGATECALL 0xB2 DUP10 ISZERO DUP13 0xA8 0xA8 PUSH2 0xEFE5 0x24 0x29 0xDD PUSH4 0xE2E7BAB7 0xF8 0xE2 0xE5 0xA5 PUSH23 0xCF3D4C8ED0408264736F6C634300081300330000000000 "
        },
        "methodIdentifiers": {
          "eat(uint256)": "85e0ebaf",
          "eatAll()": "c8bb723c",
          "getRate()": "679aefce",
          "owner()": "8da5cb5b",
          "receiveApproval(address,uint256,address,bytes)": "8f4ffcb1",
          "renounceOwnership()": "715018a6",
          "setRate(uint256)": "34fcf437",
          "transferOwnership(address)": "f2fde38b",
          "underlying()": "6f307dc3"
        }
      }
    }
  }
}