{
  "contracts/core/merge/DynamicEater.sol": {
    "DynamicEater": {
      "abi": [
        {
          "inputs": [
            {
              "internalType": "address",
              "name": "_wewe",
              "type": "address"
            },
            {
              "internalType": "address",
              "name": "_token",
              "type": "address"
            },
            {
              "internalType": "uint32",
              "name": "_vestingDuration",
              "type": "uint32"
            },
            {
              "internalType": "uint256",
              "name": "_virtualFOMO",
              "type": "uint256"
            },
            {
              "internalType": "uint256",
              "name": "_virtualWEWE",
              "type": "uint256"
            }
          ],
          "stateMutability": "nonpayable",
          "type": "constructor"
        },
        {
          "anonymous": false,
          "inputs": [
            {
              "indexed": false,
              "internalType": "uint256",
              "name": "amount",
              "type": "uint256"
            },
            {
              "indexed": true,
              "internalType": "address",
              "name": "account",
              "type": "address"
            },
            {
              "indexed": false,
              "internalType": "uint256",
              "name": "weweAmount",
              "type": "uint256"
            }
          ],
          "name": "Merged",
          "type": "event"
        },
        {
          "anonymous": false,
          "inputs": [
            {
              "indexed": true,
              "internalType": "address",
              "name": "previousOwner",
              "type": "address"
            },
            {
              "indexed": true,
              "internalType": "address",
              "name": "newOwner",
              "type": "address"
            }
          ],
          "name": "OwnershipTransferred",
          "type": "event"
        },
        {
          "anonymous": false,
          "inputs": [
            {
              "indexed": false,
              "internalType": "address",
              "name": "account",
              "type": "address"
            }
          ],
          "name": "Paused",
          "type": "event"
        },
        {
          "anonymous": false,
          "inputs": [
            {
              "indexed": false,
              "internalType": "uint256",
              "name": "newRate",
              "type": "uint256"
            }
          ],
          "name": "RateChanged",
          "type": "event"
        },
        {
          "anonymous": false,
          "inputs": [
            {
              "indexed": false,
              "internalType": "address",
              "name": "account",
              "type": "address"
            }
          ],
          "name": "Unpaused",
          "type": "event"
        },
        {
          "inputs": [
            {
              "internalType": "uint256",
              "name": "x",
              "type": "uint256"
            }
          ],
          "name": "_calculateTokensOut",
          "outputs": [
            {
              "internalType": "uint256",
              "name": "",
              "type": "uint256"
            }
          ],
          "stateMutability": "view",
          "type": "function"
        },
        {
          "inputs": [
            {
              "internalType": "address",
              "name": "account",
              "type": "address"
            }
          ],
          "name": "balanceOf",
          "outputs": [
            {
              "internalType": "uint256",
              "name": "",
              "type": "uint256"
            }
          ],
          "stateMutability": "view",
          "type": "function"
        },
        {
          "inputs": [
            {
              "internalType": "uint256",
              "name": "x",
              "type": "uint256"
            }
          ],
          "name": "calculateTokensOut",
          "outputs": [
            {
              "internalType": "uint256",
              "name": "",
              "type": "uint256"
            }
          ],
          "stateMutability": "view",
          "type": "function"
        },
        {
          "inputs": [
            {
              "internalType": "address",
              "name": "account",
              "type": "address"
            }
          ],
          "name": "canClaim",
          "outputs": [
            {
              "internalType": "bool",
              "name": "",
              "type": "bool"
            }
          ],
          "stateMutability": "view",
          "type": "function"
        },
        {
          "inputs": [],
          "name": "claim",
          "outputs": [],
          "stateMutability": "nonpayable",
          "type": "function"
        },
        {
          "inputs": [
            {
              "internalType": "uint256",
              "name": "amount",
              "type": "uint256"
            }
          ],
          "name": "deposit",
          "outputs": [],
          "stateMutability": "nonpayable",
          "type": "function"
        },
        {
          "inputs": [],
          "name": "getCurrentPrice",
          "outputs": [
            {
              "internalType": "uint256",
              "name": "",
              "type": "uint256"
            }
          ],
          "stateMutability": "view",
          "type": "function"
        },
        {
          "inputs": [],
          "name": "getRate",
          "outputs": [
            {
              "internalType": "uint256",
              "name": "",
              "type": "uint256"
            }
          ],
          "stateMutability": "view",
          "type": "function"
        },
        {
          "inputs": [],
          "name": "getToken",
          "outputs": [
            {
              "internalType": "address",
              "name": "",
              "type": "address"
            }
          ],
          "stateMutability": "view",
          "type": "function"
        },
        {
          "inputs": [],
          "name": "maxSupply",
          "outputs": [
            {
              "internalType": "uint256",
              "name": "",
              "type": "uint256"
            }
          ],
          "stateMutability": "view",
          "type": "function"
        },
        {
          "inputs": [
            {
              "internalType": "uint256",
              "name": "amount",
              "type": "uint256"
            }
          ],
          "name": "merge",
          "outputs": [
            {
              "internalType": "uint256",
              "name": "",
              "type": "uint256"
            }
          ],
          "stateMutability": "nonpayable",
          "type": "function"
        },
        {
          "inputs": [],
          "name": "mergeAll",
          "outputs": [
            {
              "internalType": "uint256",
              "name": "",
              "type": "uint256"
            }
          ],
          "stateMutability": "nonpayable",
          "type": "function"
        },
        {
          "inputs": [
            {
              "internalType": "uint256",
              "name": "amount",
              "type": "uint256"
            },
            {
              "internalType": "contract IAMM",
              "name": "amm",
              "type": "address"
            },
            {
              "internalType": "bytes",
              "name": "extraData",
              "type": "bytes"
            }
          ],
          "name": "mergeAndSell",
          "outputs": [],
          "stateMutability": "nonpayable",
          "type": "function"
        },
        {
          "inputs": [],
          "name": "owner",
          "outputs": [
            {
              "internalType": "address",
              "name": "",
              "type": "address"
            }
          ],
          "stateMutability": "view",
          "type": "function"
        },
        {
          "inputs": [],
          "name": "paused",
          "outputs": [
            {
              "internalType": "bool",
              "name": "",
              "type": "bool"
            }
          ],
          "stateMutability": "view",
          "type": "function"
        },
        {
          "inputs": [
            {
              "internalType": "address",
              "name": "from",
              "type": "address"
            },
            {
              "internalType": "uint256",
              "name": "amount",
              "type": "uint256"
            },
            {
              "internalType": "address",
              "name": "",
              "type": "address"
            },
            {
              "internalType": "bytes",
              "name": "",
              "type": "bytes"
            }
          ],
          "name": "receiveApproval",
          "outputs": [],
          "stateMutability": "nonpayable",
          "type": "function"
        },
        {
          "inputs": [],
          "name": "renounceOwnership",
          "outputs": [],
          "stateMutability": "nonpayable",
          "type": "function"
        },
        {
          "inputs": [
            {
              "internalType": "address",
              "name": "_treasury",
              "type": "address"
            }
          ],
          "name": "setTreasury",
          "outputs": [],
          "stateMutability": "nonpayable",
          "type": "function"
        },
        {
          "inputs": [
            {
              "internalType": "uint32",
              "name": "duration",
              "type": "uint32"
            }
          ],
          "name": "setVestingDuration",
          "outputs": [],
          "stateMutability": "nonpayable",
          "type": "function"
        },
        {
          "inputs": [
            {
              "internalType": "address",
              "name": "account",
              "type": "address"
            }
          ],
          "name": "setWhiteList",
          "outputs": [],
          "stateMutability": "nonpayable",
          "type": "function"
        },
        {
          "inputs": [],
          "name": "sweep",
          "outputs": [],
          "stateMutability": "nonpayable",
          "type": "function"
        },
        {
          "inputs": [],
          "name": "togglePause",
          "outputs": [],
          "stateMutability": "nonpayable",
          "type": "function"
        },
        {
          "inputs": [],
          "name": "totalVested",
          "outputs": [
            {
              "internalType": "uint256",
              "name": "",
              "type": "uint256"
            }
          ],
          "stateMutability": "view",
          "type": "function"
        },
        {
          "inputs": [
            {
              "internalType": "address",
              "name": "newOwner",
              "type": "address"
            }
          ],
          "name": "transferOwnership",
          "outputs": [],
          "stateMutability": "nonpayable",
          "type": "function"
        },
        {
          "inputs": [],
          "name": "treasury",
          "outputs": [
            {
              "internalType": "address",
              "name": "",
              "type": "address"
            }
          ],
          "stateMutability": "view",
          "type": "function"
        },
        {
          "inputs": [],
          "name": "vestingDuration",
          "outputs": [
            {
              "internalType": "uint32",
              "name": "",
              "type": "uint32"
            }
          ],
          "stateMutability": "view",
          "type": "function"
        },
        {
          "inputs": [
            {
              "internalType": "address",
              "name": "",
              "type": "address"
            }
          ],
          "name": "vestings",
          "outputs": [
            {
              "internalType": "uint256",
              "name": "amount",
              "type": "uint256"
            },
            {
              "internalType": "uint256",
              "name": "end",
              "type": "uint256"
            }
          ],
          "stateMutability": "view",
          "type": "function"
        },
        {
          "inputs": [],
          "name": "virtualFOMO",
          "outputs": [
            {
              "internalType": "uint256",
              "name": "",
              "type": "uint256"
            }
          ],
          "stateMutability": "view",
          "type": "function"
        },
        {
          "inputs": [],
          "name": "virtualWEWE",
          "outputs": [
            {
              "internalType": "uint256",
              "name": "",
              "type": "uint256"
            }
          ],
          "stateMutability": "view",
          "type": "function"
        },
        {
          "inputs": [],
          "name": "wewe",
          "outputs": [
            {
              "internalType": "address",
              "name": "",
              "type": "address"
            }
          ],
          "stateMutability": "view",
          "type": "function"
        },
        {
          "inputs": [
            {
              "internalType": "address",
              "name": "",
              "type": "address"
            }
          ],
          "name": "whiteList",
          "outputs": [
            {
              "internalType": "bool",
              "name": "",
              "type": "bool"
            }
          ],
          "stateMutability": "view",
          "type": "function"
        }
      ],
      "evm": {
        "bytecode": {
          "linkReferences": {},
          "object": "60808060405234620001f25760a081620019638038038091620000238285620001f7565b833981010312620001f257620000398162000231565b620000476020830162000231565b9160408101519263ffffffff8416809403620001f25760806060830151920151936020839460046000946001865560015492610100600160a81b033360081b1660018060a81b0319851617600155604051958694859360018060a01b039182339160081c167f8be0079c531659141344cd1fd0a4f28419497f9722a3daafe3b4186f6b6457e08c80a38160018060a01b03199416846003541617600355168092600254161760025563ffffffff19600854161760085563313ce56760e01b82525afa8015620001e7578290620001a0575b60ff9150166012811062000140575b505050600b55600c5560405161171c9081620002478239f35b90919250601203601281116200018c57604d81116200018c57600a0a9182810292818404149015171562000178575038808062000127565b634e487b7160e01b81526011600452602490fd5b634e487b7160e01b82526011600452602482fd5b506020813d8211620001de575b81620001bc60209383620001f7565b81010312620001da575160ff81168103620001da5760ff9062000118565b5080fd5b3d9150620001ad565b6040513d84823e3d90fd5b600080fd5b601f909101601f19168101906001600160401b038211908210176200021b57604052565b634e487b7160e01b600052604160045260246000fd5b51906001600160a01b0382168203620001f25756fe6080604081815260048036101561001557600080fd5b600092833560e01c9081631514617e1461102957508063199cbc541461100a57838163213897fe14610dfc5750806321df0da714610dd357806324a47aeb14610d0457806329b30c8d14610ce557806335faa41614610b85578063372c12b114610b4757806339e899ee14610b045780634e71d92d14610a6a5780634fa1f104146109495780635c975abb1461092557806361d027b3146108fe578063679aefce146108c757806370a082311461088f578063715018a61461082e5780638da5cb5b146108015780638f4ffcb1146107285780639636d881146106ed5780639ed4527e146106ce57838163b6b55f251461062457508063bf3506c1146105e5578063c4ae316814610502578063d5abeb01146104e3578063daf49863146104a1578063e1f26f2214610478578063ea9f241714610344578063eb91d37e146102eb578063ec4f67a21461029c578063f0f44260146102575763f2fde38b1461017c57600080fd5b346102535760203660031901126102535761019561107e565b61019d611094565b6001600160a01b0381811693909290841561020157505060018054610100600160a81b03198116600893841b610100600160a81b031617909155901c167f8be0079c531659141344cd1fd0a4f28419497f9722a3daafe3b4186f6b6457e08380a380f35b906020608492519162461bcd60e51b8352820152602660248201527f4f776e61626c653a206e6577206f776e657220697320746865207a65726f206160448201526564647265737360d01b6064820152fd5b8280fd5b8382346102985760203660031901126102985761027261107e565b61027a611094565b81546001600160a01b0319166001600160a01b039190911617905580f35b5080fd5b5091346102e85760203660031901126102e857506102e1602092356102dc6102c682600b54611196565b916102d6600c5460055490611138565b906110ef565b611118565b9051908152f35b80fd5b5091346102e857806003193601126102e85761030c600c5460055490611138565b926103e893848102948186041490151715610331576020836102e186600b5490611118565b634e487b7160e01b825260119052602490fd5b5091346102e857806003193601126102e85761035e611219565b60025482516370a0823160e01b815233858201526020946001600160a01b0390921692918582602481875afa91821561046e57839261043f575b508192855163313ce56760e01b815287818481895afa908115610435579060ff918391610408575b5016601281106103da575b505050506102e19133916112c1565b909192935060120391601283116103315750506102e192916102d66103fe926112b3565b90913880806103cb565b6104289150893d8b1161042e575b6104208183611145565b81019061117d565b386103c0565b503d610416565b87513d84823e3d90fd5b9091508581813d8311610467575b6104578183611145565b8101031261025357519038610398565b503d61044d565b85513d85823e3d90fd5b50503461029857816003193601126102985760035490516001600160a01b039091168152602090f35b505034610298576020366003190112610298579081906001600160a01b036104c761107e565b1681526009602052206001815491015482519182526020820152f35b5050346102985781600319360112610298576020906007549051908152f35b503461025357826003193601126102535761051b611094565b60015460ff8116156105a457506001549060ff82161561056a575060ff1916600155513381527f5db9ee0a495bf2e6ff9c91a7834c1ba4fdd244a5e8aa4e537bd38aeae4b073aa90602090a180f35b606490602084519162461bcd60e51b8352820152601460248201527314185d5cd8589b194e881b9bdd081c185d5cd95960621b6044820152fd5b602091509160017f62e78cea01bee320cd4e420270b5ea74000d11b0c9f74754ebdbfc544b05a258936105d5611219565b60ff19161760015551338152a180f35b5050346102985760203660031901126102985760209160019082906001600160a01b0361061061107e565b168152600985522001549051904210158152f35b808484346106ca5760203660031901126106ca57610682602091610646611094565b60035484516323b872dd60e01b815233838201908152306020820152923560408401529586936001600160a01b03909216928492839160600190565b03925af19081156106c15750610696575080f35b6106b69060203d81116106ba575b6106ae8183611145565b810190611201565b5080f35b503d6106a4565b513d84823e3d90fd5b5050fd5b505034610298578160031936011261029857602090600c549051908152f35b838234610298576020366003190112610298573563ffffffff811680910361029857610717611094565b63ffffffff19600854161760085580f35b508290346102985760803660031901126102985761074461107e565b906001600160a01b03604435818116036107fd5760643567ffffffffffffffff81116107f957610777903690840161104b565b505061078161125d565b610789611219565b600254169081156107aa5750906107a2916024356112c1565b506001815580f35b608490602086519162461bcd60e51b8352820152602360248201527f44796e616d696345617465723a20546f6b656e2061646472657373206e6f74206044820152621cd95d60ea1b6064820152fd5b8480fd5b8380fd5b505034610298578160031936011261029857600154905160089190911c6001600160a01b03168152602090f35b83346102e857806003193601126102e857610847611094565b60018054610100600160a81b03198116909155819060081c6001600160a01b03167f8be0079c531659141344cd1fd0a4f28419497f9722a3daafe3b4186f6b6457e08280a380f35b5050346102985760203660031901126102985760209181906001600160a01b036108b761107e565b1681526009845220549051908152f35b5091346102e857806003193601126102e857600b549260018401809411610331576020836102e1866102dc600c5460055490611138565b50346102535782600319360112610253575490516001600160a01b03909116815260209150f35b50503461029857816003193601126102985760209060ff6001541690519015158152f35b5091346102e8576020928360031936011261029857600254835163313ce56760e01b808252833594926001600160a01b03169187818681865afa908115610a605760ff8993926012928791610a43575b5016106109b6575b50856102e1866102dc6102c682600b54611196565b8487518094819382525afa908115610a39579060ff918391610a1c575b501660120360ff8111610a095760ff1691604d83116103315750506102e1916109ff91600a0a906110ef565b90388085816109a1565b506011602492634e487b7160e01b835252fd5b610a339150873d891161042e576104208183611145565b386109d3565b85513d84823e3d90fd5b610a5a9150853d871161042e576104208183611145565b38610999565b87513d86823e3d90fd5b509034610253578260031936011261025357610a84611219565b63ffffffff6008541615610af7575b3383526009602052600181842001544210610ab45782610ab161166b565b80f35b906020606492519162461bcd60e51b8352820152601f60248201527f44796e616d696345617465723a2056657374696e67206e6f7420656e646564006044820152fd5b610aff61166b565b610a93565b50503461029857602036600319011261029857610b1f61107e565b610b27611094565b6001600160a01b03168252600a6020528120805460ff1916600117905580f35b5050346102985760203660031901126102985760209160ff9082906001600160a01b03610b7261107e565b168152600a855220541690519015158152f35b50919034610298578160031936011261029857610ba0611094565b60035481516370a0823160e01b8152308582015293602092916001600160a01b0390811691908487602481865afa968715610cdb578697610ca8575b508615610c5b57600154845163a9059cbb60e01b81526001600160a01b0360089290921c90921616918101918252602082018790529291849184919082908890829060400103925af1908115610c525750610c35578280f35b81610c4b92903d106106ba576106ae8183611145565b5081808280f35b513d85823e3d90fd5b835162461bcd60e51b8152808301869052602160248201527f44796e616d696345617465723a204e6f2062616c616e636520746f20737765656044820152600760fc1b6064820152608490fd5b9096508481813d8311610cd4575b610cc08183611145565b81010312610cd057519538610bdc565b8580fd5b503d610cb6565b84513d88823e3d90fd5b505034610298578160031936011261029857602090600b549051908152f35b5091346102e85760209283600319360112610298578035610d23611219565b809160018060a01b03600254169385516370a0823160e01b815233838201528781602481895afa80156104355784908390610da2575b610d65925010156111a3565b855163313ce56760e01b815287818481895afa908115610435579060ff918391610408575016601281106103da57505050506102e19133916112c1565b50508781813d8311610dcc575b610db98183611145565b810103126102985783610d659151610d59565b503d610daf565b50503461029857816003193601126102985760025490516001600160a01b039091168152602090f35b929050346106ca5760603660031901126106ca576001600160a01b0360243581811690843590829003610cd05760443567ffffffffffffffff811161100657610e48903690870161104b565b969095610e5361125d565b610e5b611219565b60025486516370a0823160e01b81523383820152602099918716908a81602481855afa908115610ffc57908692918691610fc7575b50610ea892610ea09110156111a3565b3390866112c1565b50600254875163095ea7b360e01b81526001600160a01b0387168482019081526020810187905290918b9183918a169082908890829060400103925af18015610fbd57918a97969594939160a493610fa0575b5080878354168015600014610f9a5750309a5b8860025416988b519c8d9a8b998a976302454b7160e41b8952880152602487015216604485015260806064850152816084850152848401378181018301849052601f01601f191681010301925af1908115610c525750610f71575b826001815580f35b813d8311610f93575b610f848183611145565b810103126102e8573880610f69565b503d610f7a565b9a610f0e565b610fb690893d8b116106ba576106ae8183611145565b5038610efb565b88513d86823e3d90fd5b8093508c8092503d8311610ff5575b610fe08183611145565b810103126107f9579051859190610ea8610e90565b503d610fd6565b89513d87823e3d90fd5b8680fd5b5050346102985781600319360112610298576020906005549051908152f35b84903461029857816003193601126102985760209063ffffffff600854168152f35b9181601f840112156110795782359167ffffffffffffffff8311611079576020838186019501011161107957565b600080fd5b600435906001600160a01b038216820361107957565b60015460081c6001600160a01b031633036110ab57565b606460405162461bcd60e51b815260206004820152602060248201527f4f776e61626c653a2063616c6c6572206973206e6f7420746865206f776e65726044820152fd5b8181029291811591840414171561110257565b634e487b7160e01b600052601160045260246000fd5b8115611122570490565b634e487b7160e01b600052601260045260246000fd5b9190820391821161110257565b90601f8019910116810190811067ffffffffffffffff82111761116757604052565b634e487b7160e01b600052604160045260246000fd5b90816020910312611079575160ff811681036110795790565b9190820180921161110257565b156111aa57565b60405162461bcd60e51b815260206004820152602960248201527f44796e616d696345617465723a20496e73756666696369656e742062616c616e60448201526818d9481d1bc819585d60ba1b6064820152608490fd5b90816020910312611079575180151581036110795790565b60ff6001541661122557565b60405162461bcd60e51b815260206004820152601060248201526f14185d5cd8589b194e881c185d5cd95960821b6044820152606490fd5b60026000541461126e576002600055565b60405162461bcd60e51b815260206004820152601f60248201527f5265656e7472616e637947756172643a207265656e7472616e742063616c6c006044820152606490fd5b604d811161110257600a0a90565b906112e96112d183600b54611196565b6102dc6112e3600c5460055490611138565b856110ef565b9260018060a01b03908160035416926040938451916370a0823160e01b835282600492308483015281602460209687935afa9081156115d45760009161163e575b5088116115df578183866002541688519283809263313ce56760e01b82525afa9081156115d4579060ff916000916115b7575b501660128110611579575b5085516323b872dd60e01b81526001600160a01b038516838201908152306020820152604081018990529091849183919082906000908a9083906060015b0393165af1801561156e57611551575b5063ffffffff8288826008541615156000146114b257505084841680600052600984526113e787600020548a611196565b91603c81600854160290811690810361149d576114049042611196565b918751938885019085821067ffffffffffffffff8311176114885750928a94926001928a999897957fabe5455971bdcd932e7251d16cd53f88cd4410bf4df21530e88bf13dade6a7d49b5284528484019182526000526009845287600020925183555191015561147682600554611196565b6005555b84519687528601521692a290565b604190634e487b7160e01b6000525260246000fd5b601184634e487b7160e01b6000525260246000fd5b600354885163a9059cbb60e01b81526001600160a01b03881695810195865260208601929092529093919250839182900360400190829060009089165af18015611546579187917fabe5455971bdcd932e7251d16cd53f88cd4410bf4df21530e88bf13dade6a7d496959493611529575b5061147a565b61153f90823d84116106ba576106ae8183611145565b5038611523565b85513d6000823e3d90fd5b61156790833d85116106ba576106ae8183611145565b50386113b6565b86513d6000823e3d90fd5b601297919703601281116115a2576113a661159987936102d687946112b3565b98925050611368565b601183634e487b7160e01b6000525260246000fd5b6115ce9150853d871161042e576104208183611145565b3861135d565b87513d6000823e3d90fd5b5060849185519162461bcd60e51b8352820152603460248201527f44796e616d696345617465723a20496e73756666696369656e7420746f6b656e604482015273103130b630b731b2903a37903a3930b739b332b960611b6064820152fd5b908482813d8311611664575b6116548183611145565b810103126102e85750513861132a565b503d61164a565b336000818152600960209081526040808320805490849055600354915163a9059cbb60e01b8152600481019590955260248501529091839160449183916001600160a01b03165af180156116da576116c05750565b6116d79060203d81116106ba576106ae8183611145565b50565b6040513d6000823e3d90fdfea2646970667358221220d4db47ad489075d8cc364b560f29d3f302f5d7d83b0b27820e587036ca2d36f264736f6c63430008130033",
          "opcodes": "PUSH1 0x80 DUP1 PUSH1 0x40 MSTORE CALLVALUE PUSH3 0x1F2 JUMPI PUSH1 0xA0 DUP2 PUSH3 0x1963 DUP1 CODESIZE SUB DUP1 SWAP2 PUSH3 0x23 DUP3 DUP6 PUSH3 0x1F7 JUMP JUMPDEST DUP4 CODECOPY DUP2 ADD SUB SLT PUSH3 0x1F2 JUMPI PUSH3 0x39 DUP2 PUSH3 0x231 JUMP JUMPDEST PUSH3 0x47 PUSH1 0x20 DUP4 ADD PUSH3 0x231 JUMP JUMPDEST SWAP2 PUSH1 0x40 DUP2 ADD MLOAD SWAP3 PUSH4 0xFFFFFFFF DUP5 AND DUP1 SWAP5 SUB PUSH3 0x1F2 JUMPI PUSH1 0x80 PUSH1 0x60 DUP4 ADD MLOAD SWAP3 ADD MLOAD SWAP4 PUSH1 0x20 DUP4 SWAP5 PUSH1 0x4 PUSH1 0x0 SWAP5 PUSH1 0x1 DUP7 SSTORE PUSH1 0x1 SLOAD SWAP3 PUSH2 0x100 PUSH1 0x1 PUSH1 0xA8 SHL SUB CALLER PUSH1 0x8 SHL AND PUSH1 0x1 DUP1 PUSH1 0xA8 SHL SUB NOT DUP6 AND OR PUSH1 0x1 SSTORE PUSH1 0x40 MLOAD SWAP6 DUP7 SWAP5 DUP6 SWAP4 PUSH1 0x1 DUP1 PUSH1 0xA0 SHL SUB SWAP2 DUP3 CALLER SWAP2 PUSH1 0x8 SHR AND PUSH32 0x8BE0079C531659141344CD1FD0A4F28419497F9722A3DAAFE3B4186F6B6457E0 DUP13 DUP1 LOG3 DUP2 PUSH1 0x1 DUP1 PUSH1 0xA0 SHL SUB NOT SWAP5 AND DUP5 PUSH1 0x3 SLOAD AND OR PUSH1 0x3 SSTORE AND DUP1 SWAP3 PUSH1 0x2 SLOAD AND OR PUSH1 0x2 SSTORE PUSH4 0xFFFFFFFF NOT PUSH1 0x8 SLOAD AND OR PUSH1 0x8 SSTORE PUSH4 0x313CE567 PUSH1 0xE0 SHL DUP3 MSTORE GAS STATICCALL DUP1 ISZERO PUSH3 0x1E7 JUMPI DUP3 SWAP1 PUSH3 0x1A0 JUMPI JUMPDEST PUSH1 0xFF SWAP2 POP AND PUSH1 0x12 DUP2 LT PUSH3 0x140 JUMPI JUMPDEST POP POP POP PUSH1 0xB SSTORE PUSH1 0xC SSTORE PUSH1 0x40 MLOAD PUSH2 0x171C SWAP1 DUP2 PUSH3 0x247 DUP3 CODECOPY RETURN JUMPDEST SWAP1 SWAP2 SWAP3 POP PUSH1 0x12 SUB PUSH1 0x12 DUP2 GT PUSH3 0x18C JUMPI PUSH1 0x4D DUP2 GT PUSH3 0x18C JUMPI PUSH1 0xA EXP SWAP2 DUP3 DUP2 MUL SWAP3 DUP2 DUP5 DIV EQ SWAP1 ISZERO OR ISZERO PUSH3 0x178 JUMPI POP CODESIZE DUP1 DUP1 PUSH3 0x127 JUMP JUMPDEST PUSH4 0x4E487B71 PUSH1 0xE0 SHL DUP2 MSTORE PUSH1 0x11 PUSH1 0x4 MSTORE PUSH1 0x24 SWAP1 REVERT JUMPDEST PUSH4 0x4E487B71 PUSH1 0xE0 SHL DUP3 MSTORE PUSH1 0x11 PUSH1 0x4 MSTORE PUSH1 0x24 DUP3 REVERT JUMPDEST POP PUSH1 0x20 DUP2 RETURNDATASIZE DUP3 GT PUSH3 0x1DE JUMPI JUMPDEST DUP2 PUSH3 0x1BC PUSH1 0x20 SWAP4 DUP4 PUSH3 0x1F7 JUMP JUMPDEST DUP2 ADD SUB SLT PUSH3 0x1DA JUMPI MLOAD PUSH1 0xFF DUP2 AND DUP2 SUB PUSH3 0x1DA JUMPI PUSH1 0xFF SWAP1 PUSH3 0x118 JUMP JUMPDEST POP DUP1 REVERT JUMPDEST RETURNDATASIZE SWAP2 POP PUSH3 0x1AD JUMP JUMPDEST PUSH1 0x40 MLOAD RETURNDATASIZE DUP5 DUP3 RETURNDATACOPY RETURNDATASIZE SWAP1 REVERT JUMPDEST PUSH1 0x0 DUP1 REVERT JUMPDEST PUSH1 0x1F SWAP1 SWAP2 ADD PUSH1 0x1F NOT AND DUP2 ADD SWAP1 PUSH1 0x1 PUSH1 0x1 PUSH1 0x40 SHL SUB DUP3 GT SWAP1 DUP3 LT OR PUSH3 0x21B JUMPI PUSH1 0x40 MSTORE JUMP JUMPDEST PUSH4 0x4E487B71 PUSH1 0xE0 SHL PUSH1 0x0 MSTORE PUSH1 0x41 PUSH1 0x4 MSTORE PUSH1 0x24 PUSH1 0x0 REVERT JUMPDEST MLOAD SWAP1 PUSH1 0x1 PUSH1 0x1 PUSH1 0xA0 SHL SUB DUP3 AND DUP3 SUB PUSH3 0x1F2 JUMPI JUMP INVALID PUSH1 0x80 PUSH1 0x40 DUP2 DUP2 MSTORE PUSH1 0x4 DUP1 CALLDATASIZE LT ISZERO PUSH2 0x15 JUMPI PUSH1 0x0 DUP1 REVERT JUMPDEST PUSH1 0x0 SWAP3 DUP4 CALLDATALOAD PUSH1 0xE0 SHR SWAP1 DUP2 PUSH4 0x1514617E EQ PUSH2 0x1029 JUMPI POP DUP1 PUSH4 0x199CBC54 EQ PUSH2 0x100A JUMPI DUP4 DUP2 PUSH4 0x213897FE EQ PUSH2 0xDFC JUMPI POP DUP1 PUSH4 0x21DF0DA7 EQ PUSH2 0xDD3 JUMPI DUP1 PUSH4 0x24A47AEB EQ PUSH2 0xD04 JUMPI DUP1 PUSH4 0x29B30C8D EQ PUSH2 0xCE5 JUMPI DUP1 PUSH4 0x35FAA416 EQ PUSH2 0xB85 JUMPI DUP1 PUSH4 0x372C12B1 EQ PUSH2 0xB47 JUMPI DUP1 PUSH4 0x39E899EE EQ PUSH2 0xB04 JUMPI DUP1 PUSH4 0x4E71D92D EQ PUSH2 0xA6A JUMPI DUP1 PUSH4 0x4FA1F104 EQ PUSH2 0x949 JUMPI DUP1 PUSH4 0x5C975ABB EQ PUSH2 0x925 JUMPI DUP1 PUSH4 0x61D027B3 EQ PUSH2 0x8FE JUMPI DUP1 PUSH4 0x679AEFCE EQ PUSH2 0x8C7 JUMPI DUP1 PUSH4 0x70A08231 EQ PUSH2 0x88F JUMPI DUP1 PUSH4 0x715018A6 EQ PUSH2 0x82E JUMPI DUP1 PUSH4 0x8DA5CB5B EQ PUSH2 0x801 JUMPI DUP1 PUSH4 0x8F4FFCB1 EQ PUSH2 0x728 JUMPI DUP1 PUSH4 0x9636D881 EQ PUSH2 0x6ED JUMPI DUP1 PUSH4 0x9ED4527E EQ PUSH2 0x6CE JUMPI DUP4 DUP2 PUSH4 0xB6B55F25 EQ PUSH2 0x624 JUMPI POP DUP1 PUSH4 0xBF3506C1 EQ PUSH2 0x5E5 JUMPI DUP1 PUSH4 0xC4AE3168 EQ PUSH2 0x502 JUMPI DUP1 PUSH4 0xD5ABEB01 EQ PUSH2 0x4E3 JUMPI DUP1 PUSH4 0xDAF49863 EQ PUSH2 0x4A1 JUMPI DUP1 PUSH4 0xE1F26F22 EQ PUSH2 0x478 JUMPI DUP1 PUSH4 0xEA9F2417 EQ PUSH2 0x344 JUMPI DUP1 PUSH4 0xEB91D37E EQ PUSH2 0x2EB JUMPI DUP1 PUSH4 0xEC4F67A2 EQ PUSH2 0x29C JUMPI DUP1 PUSH4 0xF0F44260 EQ PUSH2 0x257 JUMPI PUSH4 0xF2FDE38B EQ PUSH2 0x17C JUMPI PUSH1 0x0 DUP1 REVERT JUMPDEST CALLVALUE PUSH2 0x253 JUMPI PUSH1 0x20 CALLDATASIZE PUSH1 0x3 NOT ADD SLT PUSH2 0x253 JUMPI PUSH2 0x195 PUSH2 0x107E JUMP JUMPDEST PUSH2 0x19D PUSH2 0x1094 JUMP JUMPDEST PUSH1 0x1 PUSH1 0x1 PUSH1 0xA0 SHL SUB DUP2 DUP2 AND SWAP4 SWAP1 SWAP3 SWAP1 DUP5 ISZERO PUSH2 0x201 JUMPI POP POP PUSH1 0x1 DUP1 SLOAD PUSH2 0x100 PUSH1 0x1 PUSH1 0xA8 SHL SUB NOT DUP2 AND PUSH1 0x8 SWAP4 DUP5 SHL PUSH2 0x100 PUSH1 0x1 PUSH1 0xA8 SHL SUB AND OR SWAP1 SWAP2 SSTORE SWAP1 SHR AND PUSH32 0x8BE0079C531659141344CD1FD0A4F28419497F9722A3DAAFE3B4186F6B6457E0 DUP4 DUP1 LOG3 DUP1 RETURN JUMPDEST SWAP1 PUSH1 0x20 PUSH1 0x84 SWAP3 MLOAD SWAP2 PUSH3 0x461BCD PUSH1 0xE5 SHL DUP4 MSTORE DUP3 ADD MSTORE PUSH1 0x26 PUSH1 0x24 DUP3 ADD MSTORE PUSH32 0x4F776E61626C653A206E6577206F776E657220697320746865207A65726F2061 PUSH1 0x44 DUP3 ADD MSTORE PUSH6 0x646472657373 PUSH1 0xD0 SHL PUSH1 0x64 DUP3 ADD MSTORE REVERT JUMPDEST DUP3 DUP1 REVERT JUMPDEST DUP4 DUP3 CALLVALUE PUSH2 0x298 JUMPI PUSH1 0x20 CALLDATASIZE PUSH1 0x3 NOT ADD SLT PUSH2 0x298 JUMPI PUSH2 0x272 PUSH2 0x107E JUMP JUMPDEST PUSH2 0x27A PUSH2 0x1094 JUMP JUMPDEST DUP2 SLOAD PUSH1 0x1 PUSH1 0x1 PUSH1 0xA0 SHL SUB NOT AND PUSH1 0x1 PUSH1 0x1 PUSH1 0xA0 SHL SUB SWAP2 SWAP1 SWAP2 AND OR SWAP1 SSTORE DUP1 RETURN JUMPDEST POP DUP1 REVERT JUMPDEST POP SWAP2 CALLVALUE PUSH2 0x2E8 JUMPI PUSH1 0x20 CALLDATASIZE PUSH1 0x3 NOT ADD SLT PUSH2 0x2E8 JUMPI POP PUSH2 0x2E1 PUSH1 0x20 SWAP3 CALLDATALOAD PUSH2 0x2DC PUSH2 0x2C6 DUP3 PUSH1 0xB SLOAD PUSH2 0x1196 JUMP JUMPDEST SWAP2 PUSH2 0x2D6 PUSH1 0xC SLOAD PUSH1 0x5 SLOAD SWAP1 PUSH2 0x1138 JUMP JUMPDEST SWAP1 PUSH2 0x10EF JUMP JUMPDEST PUSH2 0x1118 JUMP JUMPDEST SWAP1 MLOAD SWAP1 DUP2 MSTORE RETURN JUMPDEST DUP1 REVERT JUMPDEST POP SWAP2 CALLVALUE PUSH2 0x2E8 JUMPI DUP1 PUSH1 0x3 NOT CALLDATASIZE ADD SLT PUSH2 0x2E8 JUMPI PUSH2 0x30C PUSH1 0xC SLOAD PUSH1 0x5 SLOAD SWAP1 PUSH2 0x1138 JUMP JUMPDEST SWAP3 PUSH2 0x3E8 SWAP4 DUP5 DUP2 MUL SWAP5 DUP2 DUP7 DIV EQ SWAP1 ISZERO OR ISZERO PUSH2 0x331 JUMPI PUSH1 0x20 DUP4 PUSH2 0x2E1 DUP7 PUSH1 0xB SLOAD SWAP1 PUSH2 0x1118 JUMP JUMPDEST PUSH4 0x4E487B71 PUSH1 0xE0 SHL DUP3 MSTORE PUSH1 0x11 SWAP1 MSTORE PUSH1 0x24 SWAP1 REVERT JUMPDEST POP SWAP2 CALLVALUE PUSH2 0x2E8 JUMPI DUP1 PUSH1 0x3 NOT CALLDATASIZE ADD SLT PUSH2 0x2E8 JUMPI PUSH2 0x35E PUSH2 0x1219 JUMP JUMPDEST PUSH1 0x2 SLOAD DUP3 MLOAD PUSH4 0x70A08231 PUSH1 0xE0 SHL DUP2 MSTORE CALLER DUP6 DUP3 ADD MSTORE PUSH1 0x20 SWAP5 PUSH1 0x1 PUSH1 0x1 PUSH1 0xA0 SHL SUB SWAP1 SWAP3 AND SWAP3 SWAP2 DUP6 DUP3 PUSH1 0x24 DUP2 DUP8 GAS STATICCALL SWAP2 DUP3 ISZERO PUSH2 0x46E JUMPI DUP4 SWAP3 PUSH2 0x43F JUMPI JUMPDEST POP DUP2 SWAP3 DUP6 MLOAD PUSH4 0x313CE567 PUSH1 0xE0 SHL DUP2 MSTORE DUP8 DUP2 DUP5 DUP2 DUP10 GAS STATICCALL SWAP1 DUP2 ISZERO PUSH2 0x435 JUMPI SWAP1 PUSH1 0xFF SWAP2 DUP4 SWAP2 PUSH2 0x408 JUMPI JUMPDEST POP AND PUSH1 0x12 DUP2 LT PUSH2 0x3DA JUMPI JUMPDEST POP POP POP POP PUSH2 0x2E1 SWAP2 CALLER SWAP2 PUSH2 0x12C1 JUMP JUMPDEST SWAP1 SWAP2 SWAP3 SWAP4 POP PUSH1 0x12 SUB SWAP2 PUSH1 0x12 DUP4 GT PUSH2 0x331 JUMPI POP POP PUSH2 0x2E1 SWAP3 SWAP2 PUSH2 0x2D6 PUSH2 0x3FE SWAP3 PUSH2 0x12B3 JUMP JUMPDEST SWAP1 SWAP2 CODESIZE DUP1 DUP1 PUSH2 0x3CB JUMP JUMPDEST PUSH2 0x428 SWAP2 POP DUP10 RETURNDATASIZE DUP12 GT PUSH2 0x42E JUMPI JUMPDEST PUSH2 0x420 DUP2 DUP4 PUSH2 0x1145 JUMP JUMPDEST DUP2 ADD SWAP1 PUSH2 0x117D JUMP JUMPDEST CODESIZE PUSH2 0x3C0 JUMP JUMPDEST POP RETURNDATASIZE PUSH2 0x416 JUMP JUMPDEST DUP8 MLOAD RETURNDATASIZE DUP5 DUP3 RETURNDATACOPY RETURNDATASIZE SWAP1 REVERT JUMPDEST SWAP1 SWAP2 POP DUP6 DUP2 DUP2 RETURNDATASIZE DUP4 GT PUSH2 0x467 JUMPI JUMPDEST PUSH2 0x457 DUP2 DUP4 PUSH2 0x1145 JUMP JUMPDEST DUP2 ADD SUB SLT PUSH2 0x253 JUMPI MLOAD SWAP1 CODESIZE PUSH2 0x398 JUMP JUMPDEST POP RETURNDATASIZE PUSH2 0x44D JUMP JUMPDEST DUP6 MLOAD RETURNDATASIZE DUP6 DUP3 RETURNDATACOPY RETURNDATASIZE SWAP1 REVERT JUMPDEST POP POP CALLVALUE PUSH2 0x298 JUMPI DUP2 PUSH1 0x3 NOT CALLDATASIZE ADD SLT PUSH2 0x298 JUMPI PUSH1 0x3 SLOAD SWAP1 MLOAD PUSH1 0x1 PUSH1 0x1 PUSH1 0xA0 SHL SUB SWAP1 SWAP2 AND DUP2 MSTORE PUSH1 0x20 SWAP1 RETURN JUMPDEST POP POP CALLVALUE PUSH2 0x298 JUMPI PUSH1 0x20 CALLDATASIZE PUSH1 0x3 NOT ADD SLT PUSH2 0x298 JUMPI SWAP1 DUP2 SWAP1 PUSH1 0x1 PUSH1 0x1 PUSH1 0xA0 SHL SUB PUSH2 0x4C7 PUSH2 0x107E JUMP JUMPDEST AND DUP2 MSTORE PUSH1 0x9 PUSH1 0x20 MSTORE KECCAK256 PUSH1 0x1 DUP2 SLOAD SWAP2 ADD SLOAD DUP3 MLOAD SWAP2 DUP3 MSTORE PUSH1 0x20 DUP3 ADD MSTORE RETURN JUMPDEST POP POP CALLVALUE PUSH2 0x298 JUMPI DUP2 PUSH1 0x3 NOT CALLDATASIZE ADD SLT PUSH2 0x298 JUMPI PUSH1 0x20 SWAP1 PUSH1 0x7 SLOAD SWAP1 MLOAD SWAP1 DUP2 MSTORE RETURN JUMPDEST POP CALLVALUE PUSH2 0x253 JUMPI DUP3 PUSH1 0x3 NOT CALLDATASIZE ADD SLT PUSH2 0x253 JUMPI PUSH2 0x51B PUSH2 0x1094 JUMP JUMPDEST PUSH1 0x1 SLOAD PUSH1 0xFF DUP2 AND ISZERO PUSH2 0x5A4 JUMPI POP PUSH1 0x1 SLOAD SWAP1 PUSH1 0xFF DUP3 AND ISZERO PUSH2 0x56A JUMPI POP PUSH1 0xFF NOT AND PUSH1 0x1 SSTORE MLOAD CALLER DUP2 MSTORE PUSH32 0x5DB9EE0A495BF2E6FF9C91A7834C1BA4FDD244A5E8AA4E537BD38AEAE4B073AA SWAP1 PUSH1 0x20 SWAP1 LOG1 DUP1 RETURN JUMPDEST PUSH1 0x64 SWAP1 PUSH1 0x20 DUP5 MLOAD SWAP2 PUSH3 0x461BCD PUSH1 0xE5 SHL DUP4 MSTORE DUP3 ADD MSTORE PUSH1 0x14 PUSH1 0x24 DUP3 ADD MSTORE PUSH20 0x14185D5CD8589B194E881B9BDD081C185D5CD959 PUSH1 0x62 SHL PUSH1 0x44 DUP3 ADD MSTORE REVERT JUMPDEST PUSH1 0x20 SWAP2 POP SWAP2 PUSH1 0x1 PUSH32 0x62E78CEA01BEE320CD4E420270B5EA74000D11B0C9F74754EBDBFC544B05A258 SWAP4 PUSH2 0x5D5 PUSH2 0x1219 JUMP JUMPDEST PUSH1 0xFF NOT AND OR PUSH1 0x1 SSTORE MLOAD CALLER DUP2 MSTORE LOG1 DUP1 RETURN JUMPDEST POP POP CALLVALUE PUSH2 0x298 JUMPI PUSH1 0x20 CALLDATASIZE PUSH1 0x3 NOT ADD SLT PUSH2 0x298 JUMPI PUSH1 0x20 SWAP2 PUSH1 0x1 SWAP1 DUP3 SWAP1 PUSH1 0x1 PUSH1 0x1 PUSH1 0xA0 SHL SUB PUSH2 0x610 PUSH2 0x107E JUMP JUMPDEST AND DUP2 MSTORE PUSH1 0x9 DUP6 MSTORE KECCAK256 ADD SLOAD SWAP1 MLOAD SWAP1 TIMESTAMP LT ISZERO DUP2 MSTORE RETURN JUMPDEST DUP1 DUP5 DUP5 CALLVALUE PUSH2 0x6CA JUMPI PUSH1 0x20 CALLDATASIZE PUSH1 0x3 NOT ADD SLT PUSH2 0x6CA JUMPI PUSH2 0x682 PUSH1 0x20 SWAP2 PUSH2 0x646 PUSH2 0x1094 JUMP JUMPDEST PUSH1 0x3 SLOAD DUP5 MLOAD PUSH4 0x23B872DD PUSH1 0xE0 SHL DUP2 MSTORE CALLER DUP4 DUP3 ADD SWAP1 DUP2 MSTORE ADDRESS PUSH1 0x20 DUP3 ADD MSTORE SWAP3 CALLDATALOAD PUSH1 0x40 DUP5 ADD MSTORE SWAP6 DUP7 SWAP4 PUSH1 0x1 PUSH1 0x1 PUSH1 0xA0 SHL SUB SWAP1 SWAP3 AND SWAP3 DUP5 SWAP3 DUP4 SWAP2 PUSH1 0x60 ADD SWAP1 JUMP JUMPDEST SUB SWAP3 GAS CALL SWAP1 DUP2 ISZERO PUSH2 0x6C1 JUMPI POP PUSH2 0x696 JUMPI POP DUP1 RETURN JUMPDEST PUSH2 0x6B6 SWAP1 PUSH1 0x20 RETURNDATASIZE DUP2 GT PUSH2 0x6BA JUMPI JUMPDEST PUSH2 0x6AE DUP2 DUP4 PUSH2 0x1145 JUMP JUMPDEST DUP2 ADD SWAP1 PUSH2 0x1201 JUMP JUMPDEST POP DUP1 RETURN JUMPDEST POP RETURNDATASIZE PUSH2 0x6A4 JUMP JUMPDEST MLOAD RETURNDATASIZE DUP5 DUP3 RETURNDATACOPY RETURNDATASIZE SWAP1 REVERT JUMPDEST POP POP REVERT JUMPDEST POP POP CALLVALUE PUSH2 0x298 JUMPI DUP2 PUSH1 0x3 NOT CALLDATASIZE ADD SLT PUSH2 0x298 JUMPI PUSH1 0x20 SWAP1 PUSH1 0xC SLOAD SWAP1 MLOAD SWAP1 DUP2 MSTORE RETURN JUMPDEST DUP4 DUP3 CALLVALUE PUSH2 0x298 JUMPI PUSH1 0x20 CALLDATASIZE PUSH1 0x3 NOT ADD SLT PUSH2 0x298 JUMPI CALLDATALOAD PUSH4 0xFFFFFFFF DUP2 AND DUP1 SWAP2 SUB PUSH2 0x298 JUMPI PUSH2 0x717 PUSH2 0x1094 JUMP JUMPDEST PUSH4 0xFFFFFFFF NOT PUSH1 0x8 SLOAD AND OR PUSH1 0x8 SSTORE DUP1 RETURN JUMPDEST POP DUP3 SWAP1 CALLVALUE PUSH2 0x298 JUMPI PUSH1 0x80 CALLDATASIZE PUSH1 0x3 NOT ADD SLT PUSH2 0x298 JUMPI PUSH2 0x744 PUSH2 0x107E JUMP JUMPDEST SWAP1 PUSH1 0x1 PUSH1 0x1 PUSH1 0xA0 SHL SUB PUSH1 0x44 CALLDATALOAD DUP2 DUP2 AND SUB PUSH2 0x7FD JUMPI PUSH1 0x64 CALLDATALOAD PUSH8 0xFFFFFFFFFFFFFFFF DUP2 GT PUSH2 0x7F9 JUMPI PUSH2 0x777 SWAP1 CALLDATASIZE SWAP1 DUP5 ADD PUSH2 0x104B JUMP JUMPDEST POP POP PUSH2 0x781 PUSH2 0x125D JUMP JUMPDEST PUSH2 0x789 PUSH2 0x1219 JUMP JUMPDEST PUSH1 0x2 SLOAD AND SWAP1 DUP2 ISZERO PUSH2 0x7AA JUMPI POP SWAP1 PUSH2 0x7A2 SWAP2 PUSH1 0x24 CALLDATALOAD PUSH2 0x12C1 JUMP JUMPDEST POP PUSH1 0x1 DUP2 SSTORE DUP1 RETURN JUMPDEST PUSH1 0x84 SWAP1 PUSH1 0x20 DUP7 MLOAD SWAP2 PUSH3 0x461BCD PUSH1 0xE5 SHL DUP4 MSTORE DUP3 ADD MSTORE PUSH1 0x23 PUSH1 0x24 DUP3 ADD MSTORE PUSH32 0x44796E616D696345617465723A20546F6B656E2061646472657373206E6F7420 PUSH1 0x44 DUP3 ADD MSTORE PUSH3 0x1CD95D PUSH1 0xEA SHL PUSH1 0x64 DUP3 ADD MSTORE REVERT JUMPDEST DUP5 DUP1 REVERT JUMPDEST DUP4 DUP1 REVERT JUMPDEST POP POP CALLVALUE PUSH2 0x298 JUMPI DUP2 PUSH1 0x3 NOT CALLDATASIZE ADD SLT PUSH2 0x298 JUMPI PUSH1 0x1 SLOAD SWAP1 MLOAD PUSH1 0x8 SWAP2 SWAP1 SWAP2 SHR PUSH1 0x1 PUSH1 0x1 PUSH1 0xA0 SHL SUB AND DUP2 MSTORE PUSH1 0x20 SWAP1 RETURN JUMPDEST DUP4 CALLVALUE PUSH2 0x2E8 JUMPI DUP1 PUSH1 0x3 NOT CALLDATASIZE ADD SLT PUSH2 0x2E8 JUMPI PUSH2 0x847 PUSH2 0x1094 JUMP JUMPDEST PUSH1 0x1 DUP1 SLOAD PUSH2 0x100 PUSH1 0x1 PUSH1 0xA8 SHL SUB NOT DUP2 AND SWAP1 SWAP2 SSTORE DUP2 SWAP1 PUSH1 0x8 SHR PUSH1 0x1 PUSH1 0x1 PUSH1 0xA0 SHL SUB AND PUSH32 0x8BE0079C531659141344CD1FD0A4F28419497F9722A3DAAFE3B4186F6B6457E0 DUP3 DUP1 LOG3 DUP1 RETURN JUMPDEST POP POP CALLVALUE PUSH2 0x298 JUMPI PUSH1 0x20 CALLDATASIZE PUSH1 0x3 NOT ADD SLT PUSH2 0x298 JUMPI PUSH1 0x20 SWAP2 DUP2 SWAP1 PUSH1 0x1 PUSH1 0x1 PUSH1 0xA0 SHL SUB PUSH2 0x8B7 PUSH2 0x107E JUMP JUMPDEST AND DUP2 MSTORE PUSH1 0x9 DUP5 MSTORE KECCAK256 SLOAD SWAP1 MLOAD SWAP1 DUP2 MSTORE RETURN JUMPDEST POP SWAP2 CALLVALUE PUSH2 0x2E8 JUMPI DUP1 PUSH1 0x3 NOT CALLDATASIZE ADD SLT PUSH2 0x2E8 JUMPI PUSH1 0xB SLOAD SWAP3 PUSH1 0x1 DUP5 ADD DUP1 SWAP5 GT PUSH2 0x331 JUMPI PUSH1 0x20 DUP4 PUSH2 0x2E1 DUP7 PUSH2 0x2DC PUSH1 0xC SLOAD PUSH1 0x5 SLOAD SWAP1 PUSH2 0x1138 JUMP JUMPDEST POP CALLVALUE PUSH2 0x253 JUMPI DUP3 PUSH1 0x3 NOT CALLDATASIZE ADD SLT PUSH2 0x253 JUMPI SLOAD SWAP1 MLOAD PUSH1 0x1 PUSH1 0x1 PUSH1 0xA0 SHL SUB SWAP1 SWAP2 AND DUP2 MSTORE PUSH1 0x20 SWAP2 POP RETURN JUMPDEST POP POP CALLVALUE PUSH2 0x298 JUMPI DUP2 PUSH1 0x3 NOT CALLDATASIZE ADD SLT PUSH2 0x298 JUMPI PUSH1 0x20 SWAP1 PUSH1 0xFF PUSH1 0x1 SLOAD AND SWAP1 MLOAD SWAP1 ISZERO ISZERO DUP2 MSTORE RETURN JUMPDEST POP SWAP2 CALLVALUE PUSH2 0x2E8 JUMPI PUSH1 0x20 SWAP3 DUP4 PUSH1 0x3 NOT CALLDATASIZE ADD SLT PUSH2 0x298 JUMPI PUSH1 0x2 SLOAD DUP4 MLOAD PUSH4 0x313CE567 PUSH1 0xE0 SHL DUP1 DUP3 MSTORE DUP4 CALLDATALOAD SWAP5 SWAP3 PUSH1 0x1 PUSH1 0x1 PUSH1 0xA0 SHL SUB AND SWAP2 DUP8 DUP2 DUP7 DUP2 DUP7 GAS STATICCALL SWAP1 DUP2 ISZERO PUSH2 0xA60 JUMPI PUSH1 0xFF DUP10 SWAP4 SWAP3 PUSH1 0x12 SWAP3 DUP8 SWAP2 PUSH2 0xA43 JUMPI JUMPDEST POP AND LT PUSH2 0x9B6 JUMPI JUMPDEST POP DUP6 PUSH2 0x2E1 DUP7 PUSH2 0x2DC PUSH2 0x2C6 DUP3 PUSH1 0xB SLOAD PUSH2 0x1196 JUMP JUMPDEST DUP5 DUP8 MLOAD DUP1 SWAP5 DUP2 SWAP4 DUP3 MSTORE GAS STATICCALL SWAP1 DUP2 ISZERO PUSH2 0xA39 JUMPI SWAP1 PUSH1 0xFF SWAP2 DUP4 SWAP2 PUSH2 0xA1C JUMPI JUMPDEST POP AND PUSH1 0x12 SUB PUSH1 0xFF DUP2 GT PUSH2 0xA09 JUMPI PUSH1 0xFF AND SWAP2 PUSH1 0x4D DUP4 GT PUSH2 0x331 JUMPI POP POP PUSH2 0x2E1 SWAP2 PUSH2 0x9FF SWAP2 PUSH1 0xA EXP SWAP1 PUSH2 0x10EF JUMP JUMPDEST SWAP1 CODESIZE DUP1 DUP6 DUP2 PUSH2 0x9A1 JUMP JUMPDEST POP PUSH1 0x11 PUSH1 0x24 SWAP3 PUSH4 0x4E487B71 PUSH1 0xE0 SHL DUP4 MSTORE MSTORE REVERT JUMPDEST PUSH2 0xA33 SWAP2 POP DUP8 RETURNDATASIZE DUP10 GT PUSH2 0x42E JUMPI PUSH2 0x420 DUP2 DUP4 PUSH2 0x1145 JUMP JUMPDEST CODESIZE PUSH2 0x9D3 JUMP JUMPDEST DUP6 MLOAD RETURNDATASIZE DUP5 DUP3 RETURNDATACOPY RETURNDATASIZE SWAP1 REVERT JUMPDEST PUSH2 0xA5A SWAP2 POP DUP6 RETURNDATASIZE DUP8 GT PUSH2 0x42E JUMPI PUSH2 0x420 DUP2 DUP4 PUSH2 0x1145 JUMP JUMPDEST CODESIZE PUSH2 0x999 JUMP JUMPDEST DUP8 MLOAD RETURNDATASIZE DUP7 DUP3 RETURNDATACOPY RETURNDATASIZE SWAP1 REVERT JUMPDEST POP SWAP1 CALLVALUE PUSH2 0x253 JUMPI DUP3 PUSH1 0x3 NOT CALLDATASIZE ADD SLT PUSH2 0x253 JUMPI PUSH2 0xA84 PUSH2 0x1219 JUMP JUMPDEST PUSH4 0xFFFFFFFF PUSH1 0x8 SLOAD AND ISZERO PUSH2 0xAF7 JUMPI JUMPDEST CALLER DUP4 MSTORE PUSH1 0x9 PUSH1 0x20 MSTORE PUSH1 0x1 DUP2 DUP5 KECCAK256 ADD SLOAD TIMESTAMP LT PUSH2 0xAB4 JUMPI DUP3 PUSH2 0xAB1 PUSH2 0x166B JUMP JUMPDEST DUP1 RETURN JUMPDEST SWAP1 PUSH1 0x20 PUSH1 0x64 SWAP3 MLOAD SWAP2 PUSH3 0x461BCD PUSH1 0xE5 SHL DUP4 MSTORE DUP3 ADD MSTORE PUSH1 0x1F PUSH1 0x24 DUP3 ADD MSTORE PUSH32 0x44796E616D696345617465723A2056657374696E67206E6F7420656E64656400 PUSH1 0x44 DUP3 ADD MSTORE REVERT JUMPDEST PUSH2 0xAFF PUSH2 0x166B JUMP JUMPDEST PUSH2 0xA93 JUMP JUMPDEST POP POP CALLVALUE PUSH2 0x298 JUMPI PUSH1 0x20 CALLDATASIZE PUSH1 0x3 NOT ADD SLT PUSH2 0x298 JUMPI PUSH2 0xB1F PUSH2 0x107E JUMP JUMPDEST PUSH2 0xB27 PUSH2 0x1094 JUMP JUMPDEST PUSH1 0x1 PUSH1 0x1 PUSH1 0xA0 SHL SUB AND DUP3 MSTORE PUSH1 0xA PUSH1 0x20 MSTORE DUP2 KECCAK256 DUP1 SLOAD PUSH1 0xFF NOT AND PUSH1 0x1 OR SWAP1 SSTORE DUP1 RETURN JUMPDEST POP POP CALLVALUE PUSH2 0x298 JUMPI PUSH1 0x20 CALLDATASIZE PUSH1 0x3 NOT ADD SLT PUSH2 0x298 JUMPI PUSH1 0x20 SWAP2 PUSH1 0xFF SWAP1 DUP3 SWAP1 PUSH1 0x1 PUSH1 0x1 PUSH1 0xA0 SHL SUB PUSH2 0xB72 PUSH2 0x107E JUMP JUMPDEST AND DUP2 MSTORE PUSH1 0xA DUP6 MSTORE KECCAK256 SLOAD AND SWAP1 MLOAD SWAP1 ISZERO ISZERO DUP2 MSTORE RETURN JUMPDEST POP SWAP2 SWAP1 CALLVALUE PUSH2 0x298 JUMPI DUP2 PUSH1 0x3 NOT CALLDATASIZE ADD SLT PUSH2 0x298 JUMPI PUSH2 0xBA0 PUSH2 0x1094 JUMP JUMPDEST PUSH1 0x3 SLOAD DUP2 MLOAD PUSH4 0x70A08231 PUSH1 0xE0 SHL DUP2 MSTORE ADDRESS DUP6 DUP3 ADD MSTORE SWAP4 PUSH1 0x20 SWAP3 SWAP2 PUSH1 0x1 PUSH1 0x1 PUSH1 0xA0 SHL SUB SWAP1 DUP2 AND SWAP2 SWAP1 DUP5 DUP8 PUSH1 0x24 DUP2 DUP7 GAS STATICCALL SWAP7 DUP8 ISZERO PUSH2 0xCDB JUMPI DUP7 SWAP8 PUSH2 0xCA8 JUMPI JUMPDEST POP DUP7 ISZERO PUSH2 0xC5B JUMPI PUSH1 0x1 SLOAD DUP5 MLOAD PUSH4 0xA9059CBB PUSH1 0xE0 SHL DUP2 MSTORE PUSH1 0x1 PUSH1 0x1 PUSH1 0xA0 SHL SUB PUSH1 0x8 SWAP3 SWAP1 SWAP3 SHR SWAP1 SWAP3 AND AND SWAP2 DUP2 ADD SWAP2 DUP3 MSTORE PUSH1 0x20 DUP3 ADD DUP8 SWAP1 MSTORE SWAP3 SWAP2 DUP5 SWAP2 DUP5 SWAP2 SWAP1 DUP3 SWAP1 DUP9 SWAP1 DUP3 SWAP1 PUSH1 0x40 ADD SUB SWAP3 GAS CALL SWAP1 DUP2 ISZERO PUSH2 0xC52 JUMPI POP PUSH2 0xC35 JUMPI DUP3 DUP1 RETURN JUMPDEST DUP2 PUSH2 0xC4B SWAP3 SWAP1 RETURNDATASIZE LT PUSH2 0x6BA JUMPI PUSH2 0x6AE DUP2 DUP4 PUSH2 0x1145 JUMP JUMPDEST POP DUP2 DUP1 DUP3 DUP1 RETURN JUMPDEST MLOAD RETURNDATASIZE DUP6 DUP3 RETURNDATACOPY RETURNDATASIZE SWAP1 REVERT JUMPDEST DUP4 MLOAD PUSH3 0x461BCD PUSH1 0xE5 SHL DUP2 MSTORE DUP1 DUP4 ADD DUP7 SWAP1 MSTORE PUSH1 0x21 PUSH1 0x24 DUP3 ADD MSTORE PUSH32 0x44796E616D696345617465723A204E6F2062616C616E636520746F2073776565 PUSH1 0x44 DUP3 ADD MSTORE PUSH1 0x7 PUSH1 0xFC SHL PUSH1 0x64 DUP3 ADD MSTORE PUSH1 0x84 SWAP1 REVERT JUMPDEST SWAP1 SWAP7 POP DUP5 DUP2 DUP2 RETURNDATASIZE DUP4 GT PUSH2 0xCD4 JUMPI JUMPDEST PUSH2 0xCC0 DUP2 DUP4 PUSH2 0x1145 JUMP JUMPDEST DUP2 ADD SUB SLT PUSH2 0xCD0 JUMPI MLOAD SWAP6 CODESIZE PUSH2 0xBDC JUMP JUMPDEST DUP6 DUP1 REVERT JUMPDEST POP RETURNDATASIZE PUSH2 0xCB6 JUMP JUMPDEST DUP5 MLOAD RETURNDATASIZE DUP9 DUP3 RETURNDATACOPY RETURNDATASIZE SWAP1 REVERT JUMPDEST POP POP CALLVALUE PUSH2 0x298 JUMPI DUP2 PUSH1 0x3 NOT CALLDATASIZE ADD SLT PUSH2 0x298 JUMPI PUSH1 0x20 SWAP1 PUSH1 0xB SLOAD SWAP1 MLOAD SWAP1 DUP2 MSTORE RETURN JUMPDEST POP SWAP2 CALLVALUE PUSH2 0x2E8 JUMPI PUSH1 0x20 SWAP3 DUP4 PUSH1 0x3 NOT CALLDATASIZE ADD SLT PUSH2 0x298 JUMPI DUP1 CALLDATALOAD PUSH2 0xD23 PUSH2 0x1219 JUMP JUMPDEST DUP1 SWAP2 PUSH1 0x1 DUP1 PUSH1 0xA0 SHL SUB PUSH1 0x2 SLOAD AND SWAP4 DUP6 MLOAD PUSH4 0x70A08231 PUSH1 0xE0 SHL DUP2 MSTORE CALLER DUP4 DUP3 ADD MSTORE DUP8 DUP2 PUSH1 0x24 DUP2 DUP10 GAS STATICCALL DUP1 ISZERO PUSH2 0x435 JUMPI DUP5 SWAP1 DUP4 SWAP1 PUSH2 0xDA2 JUMPI JUMPDEST PUSH2 0xD65 SWAP3 POP LT ISZERO PUSH2 0x11A3 JUMP JUMPDEST DUP6 MLOAD PUSH4 0x313CE567 PUSH1 0xE0 SHL DUP2 MSTORE DUP8 DUP2 DUP5 DUP2 DUP10 GAS STATICCALL SWAP1 DUP2 ISZERO PUSH2 0x435 JUMPI SWAP1 PUSH1 0xFF SWAP2 DUP4 SWAP2 PUSH2 0x408 JUMPI POP AND PUSH1 0x12 DUP2 LT PUSH2 0x3DA JUMPI POP POP POP POP PUSH2 0x2E1 SWAP2 CALLER SWAP2 PUSH2 0x12C1 JUMP JUMPDEST POP POP DUP8 DUP2 DUP2 RETURNDATASIZE DUP4 GT PUSH2 0xDCC JUMPI JUMPDEST PUSH2 0xDB9 DUP2 DUP4 PUSH2 0x1145 JUMP JUMPDEST DUP2 ADD SUB SLT PUSH2 0x298 JUMPI DUP4 PUSH2 0xD65 SWAP2 MLOAD PUSH2 0xD59 JUMP JUMPDEST POP RETURNDATASIZE PUSH2 0xDAF JUMP JUMPDEST POP POP CALLVALUE PUSH2 0x298 JUMPI DUP2 PUSH1 0x3 NOT CALLDATASIZE ADD SLT PUSH2 0x298 JUMPI PUSH1 0x2 SLOAD SWAP1 MLOAD PUSH1 0x1 PUSH1 0x1 PUSH1 0xA0 SHL SUB SWAP1 SWAP2 AND DUP2 MSTORE PUSH1 0x20 SWAP1 RETURN JUMPDEST SWAP3 SWAP1 POP CALLVALUE PUSH2 0x6CA JUMPI PUSH1 0x60 CALLDATASIZE PUSH1 0x3 NOT ADD SLT PUSH2 0x6CA JUMPI PUSH1 0x1 PUSH1 0x1 PUSH1 0xA0 SHL SUB PUSH1 0x24 CALLDATALOAD DUP2 DUP2 AND SWAP1 DUP5 CALLDATALOAD SWAP1 DUP3 SWAP1 SUB PUSH2 0xCD0 JUMPI PUSH1 0x44 CALLDATALOAD PUSH8 0xFFFFFFFFFFFFFFFF DUP2 GT PUSH2 0x1006 JUMPI PUSH2 0xE48 SWAP1 CALLDATASIZE SWAP1 DUP8 ADD PUSH2 0x104B JUMP JUMPDEST SWAP7 SWAP1 SWAP6 PUSH2 0xE53 PUSH2 0x125D JUMP JUMPDEST PUSH2 0xE5B PUSH2 0x1219 JUMP JUMPDEST PUSH1 0x2 SLOAD DUP7 MLOAD PUSH4 0x70A08231 PUSH1 0xE0 SHL DUP2 MSTORE CALLER DUP4 DUP3 ADD MSTORE PUSH1 0x20 SWAP10 SWAP2 DUP8 AND SWAP1 DUP11 DUP2 PUSH1 0x24 DUP2 DUP6 GAS STATICCALL SWAP1 DUP2 ISZERO PUSH2 0xFFC JUMPI SWAP1 DUP7 SWAP3 SWAP2 DUP7 SWAP2 PUSH2 0xFC7 JUMPI JUMPDEST POP PUSH2 0xEA8 SWAP3 PUSH2 0xEA0 SWAP2 LT ISZERO PUSH2 0x11A3 JUMP JUMPDEST CALLER SWAP1 DUP7 PUSH2 0x12C1 JUMP JUMPDEST POP PUSH1 0x2 SLOAD DUP8 MLOAD PUSH4 0x95EA7B3 PUSH1 0xE0 SHL DUP2 MSTORE PUSH1 0x1 PUSH1 0x1 PUSH1 0xA0 SHL SUB DUP8 AND DUP5 DUP3 ADD SWAP1 DUP2 MSTORE PUSH1 0x20 DUP2 ADD DUP8 SWAP1 MSTORE SWAP1 SWAP2 DUP12 SWAP2 DUP4 SWAP2 DUP11 AND SWAP1 DUP3 SWAP1 DUP9 SWAP1 DUP3 SWAP1 PUSH1 0x40 ADD SUB SWAP3 GAS CALL DUP1 ISZERO PUSH2 0xFBD JUMPI SWAP2 DUP11 SWAP8 SWAP7 SWAP6 SWAP5 SWAP4 SWAP2 PUSH1 0xA4 SWAP4 PUSH2 0xFA0 JUMPI JUMPDEST POP DUP1 DUP8 DUP4 SLOAD AND DUP1 ISZERO PUSH1 0x0 EQ PUSH2 0xF9A JUMPI POP ADDRESS SWAP11 JUMPDEST DUP9 PUSH1 0x2 SLOAD AND SWAP9 DUP12 MLOAD SWAP13 DUP14 SWAP11 DUP12 SWAP10 DUP11 SWAP8 PUSH4 0x2454B71 PUSH1 0xE4 SHL DUP10 MSTORE DUP9 ADD MSTORE PUSH1 0x24 DUP8 ADD MSTORE AND PUSH1 0x44 DUP6 ADD MSTORE PUSH1 0x80 PUSH1 0x64 DUP6 ADD MSTORE DUP2 PUSH1 0x84 DUP6 ADD MSTORE DUP5 DUP5 ADD CALLDATACOPY DUP2 DUP2 ADD DUP4 ADD DUP5 SWAP1 MSTORE PUSH1 0x1F ADD PUSH1 0x1F NOT AND DUP2 ADD SUB ADD SWAP3 GAS CALL SWAP1 DUP2 ISZERO PUSH2 0xC52 JUMPI POP PUSH2 0xF71 JUMPI JUMPDEST DUP3 PUSH1 0x1 DUP2 SSTORE DUP1 RETURN JUMPDEST DUP2 RETURNDATASIZE DUP4 GT PUSH2 0xF93 JUMPI JUMPDEST PUSH2 0xF84 DUP2 DUP4 PUSH2 0x1145 JUMP JUMPDEST DUP2 ADD SUB SLT PUSH2 0x2E8 JUMPI CODESIZE DUP1 PUSH2 0xF69 JUMP JUMPDEST POP RETURNDATASIZE PUSH2 0xF7A JUMP JUMPDEST SWAP11 PUSH2 0xF0E JUMP JUMPDEST PUSH2 0xFB6 SWAP1 DUP10 RETURNDATASIZE DUP12 GT PUSH2 0x6BA JUMPI PUSH2 0x6AE DUP2 DUP4 PUSH2 0x1145 JUMP JUMPDEST POP CODESIZE PUSH2 0xEFB JUMP JUMPDEST DUP9 MLOAD RETURNDATASIZE DUP7 DUP3 RETURNDATACOPY RETURNDATASIZE SWAP1 REVERT JUMPDEST DUP1 SWAP4 POP DUP13 DUP1 SWAP3 POP RETURNDATASIZE DUP4 GT PUSH2 0xFF5 JUMPI JUMPDEST PUSH2 0xFE0 DUP2 DUP4 PUSH2 0x1145 JUMP JUMPDEST DUP2 ADD SUB SLT PUSH2 0x7F9 JUMPI SWAP1 MLOAD DUP6 SWAP2 SWAP1 PUSH2 0xEA8 PUSH2 0xE90 JUMP JUMPDEST POP RETURNDATASIZE PUSH2 0xFD6 JUMP JUMPDEST DUP10 MLOAD RETURNDATASIZE DUP8 DUP3 RETURNDATACOPY RETURNDATASIZE SWAP1 REVERT JUMPDEST DUP7 DUP1 REVERT JUMPDEST POP POP CALLVALUE PUSH2 0x298 JUMPI DUP2 PUSH1 0x3 NOT CALLDATASIZE ADD SLT PUSH2 0x298 JUMPI PUSH1 0x20 SWAP1 PUSH1 0x5 SLOAD SWAP1 MLOAD SWAP1 DUP2 MSTORE RETURN JUMPDEST DUP5 SWAP1 CALLVALUE PUSH2 0x298 JUMPI DUP2 PUSH1 0x3 NOT CALLDATASIZE ADD SLT PUSH2 0x298 JUMPI PUSH1 0x20 SWAP1 PUSH4 0xFFFFFFFF PUSH1 0x8 SLOAD AND DUP2 MSTORE RETURN JUMPDEST SWAP2 DUP2 PUSH1 0x1F DUP5 ADD SLT ISZERO PUSH2 0x1079 JUMPI DUP3 CALLDATALOAD SWAP2 PUSH8 0xFFFFFFFFFFFFFFFF DUP4 GT PUSH2 0x1079 JUMPI PUSH1 0x20 DUP4 DUP2 DUP7 ADD SWAP6 ADD ADD GT PUSH2 0x1079 JUMPI JUMP JUMPDEST PUSH1 0x0 DUP1 REVERT JUMPDEST PUSH1 0x4 CALLDATALOAD SWAP1 PUSH1 0x1 PUSH1 0x1 PUSH1 0xA0 SHL SUB DUP3 AND DUP3 SUB PUSH2 0x1079 JUMPI JUMP JUMPDEST PUSH1 0x1 SLOAD PUSH1 0x8 SHR PUSH1 0x1 PUSH1 0x1 PUSH1 0xA0 SHL SUB AND CALLER SUB PUSH2 0x10AB JUMPI JUMP JUMPDEST PUSH1 0x64 PUSH1 0x40 MLOAD PUSH3 0x461BCD PUSH1 0xE5 SHL DUP2 MSTORE PUSH1 0x20 PUSH1 0x4 DUP3 ADD MSTORE PUSH1 0x20 PUSH1 0x24 DUP3 ADD MSTORE PUSH32 0x4F776E61626C653A2063616C6C6572206973206E6F7420746865206F776E6572 PUSH1 0x44 DUP3 ADD MSTORE REVERT JUMPDEST DUP2 DUP2 MUL SWAP3 SWAP2 DUP2 ISZERO SWAP2 DUP5 DIV EQ OR ISZERO PUSH2 0x1102 JUMPI JUMP JUMPDEST PUSH4 0x4E487B71 PUSH1 0xE0 SHL PUSH1 0x0 MSTORE PUSH1 0x11 PUSH1 0x4 MSTORE PUSH1 0x24 PUSH1 0x0 REVERT JUMPDEST DUP2 ISZERO PUSH2 0x1122 JUMPI DIV SWAP1 JUMP JUMPDEST PUSH4 0x4E487B71 PUSH1 0xE0 SHL PUSH1 0x0 MSTORE PUSH1 0x12 PUSH1 0x4 MSTORE PUSH1 0x24 PUSH1 0x0 REVERT JUMPDEST SWAP2 SWAP1 DUP3 SUB SWAP2 DUP3 GT PUSH2 0x1102 JUMPI JUMP JUMPDEST SWAP1 PUSH1 0x1F DUP1 NOT SWAP2 ADD AND DUP2 ADD SWAP1 DUP2 LT PUSH8 0xFFFFFFFFFFFFFFFF DUP3 GT OR PUSH2 0x1167 JUMPI PUSH1 0x40 MSTORE JUMP JUMPDEST PUSH4 0x4E487B71 PUSH1 0xE0 SHL PUSH1 0x0 MSTORE PUSH1 0x41 PUSH1 0x4 MSTORE PUSH1 0x24 PUSH1 0x0 REVERT JUMPDEST SWAP1 DUP2 PUSH1 0x20 SWAP2 SUB SLT PUSH2 0x1079 JUMPI MLOAD PUSH1 0xFF DUP2 AND DUP2 SUB PUSH2 0x1079 JUMPI SWAP1 JUMP JUMPDEST SWAP2 SWAP1 DUP3 ADD DUP1 SWAP3 GT PUSH2 0x1102 JUMPI JUMP JUMPDEST ISZERO PUSH2 0x11AA JUMPI JUMP JUMPDEST PUSH1 0x40 MLOAD PUSH3 0x461BCD PUSH1 0xE5 SHL DUP2 MSTORE PUSH1 0x20 PUSH1 0x4 DUP3 ADD MSTORE PUSH1 0x29 PUSH1 0x24 DUP3 ADD MSTORE PUSH32 0x44796E616D696345617465723A20496E73756666696369656E742062616C616E PUSH1 0x44 DUP3 ADD MSTORE PUSH9 0x18D9481D1BC819585D PUSH1 0xBA SHL PUSH1 0x64 DUP3 ADD MSTORE PUSH1 0x84 SWAP1 REVERT JUMPDEST SWAP1 DUP2 PUSH1 0x20 SWAP2 SUB SLT PUSH2 0x1079 JUMPI MLOAD DUP1 ISZERO ISZERO DUP2 SUB PUSH2 0x1079 JUMPI SWAP1 JUMP JUMPDEST PUSH1 0xFF PUSH1 0x1 SLOAD AND PUSH2 0x1225 JUMPI JUMP JUMPDEST PUSH1 0x40 MLOAD PUSH3 0x461BCD PUSH1 0xE5 SHL DUP2 MSTORE PUSH1 0x20 PUSH1 0x4 DUP3 ADD MSTORE PUSH1 0x10 PUSH1 0x24 DUP3 ADD MSTORE PUSH16 0x14185D5CD8589B194E881C185D5CD959 PUSH1 0x82 SHL PUSH1 0x44 DUP3 ADD MSTORE PUSH1 0x64 SWAP1 REVERT JUMPDEST PUSH1 0x2 PUSH1 0x0 SLOAD EQ PUSH2 0x126E JUMPI PUSH1 0x2 PUSH1 0x0 SSTORE JUMP JUMPDEST PUSH1 0x40 MLOAD PUSH3 0x461BCD PUSH1 0xE5 SHL DUP2 MSTORE PUSH1 0x20 PUSH1 0x4 DUP3 ADD MSTORE PUSH1 0x1F PUSH1 0x24 DUP3 ADD MSTORE PUSH32 0x5265656E7472616E637947756172643A207265656E7472616E742063616C6C00 PUSH1 0x44 DUP3 ADD MSTORE PUSH1 0x64 SWAP1 REVERT JUMPDEST PUSH1 0x4D DUP2 GT PUSH2 0x1102 JUMPI PUSH1 0xA EXP SWAP1 JUMP JUMPDEST SWAP1 PUSH2 0x12E9 PUSH2 0x12D1 DUP4 PUSH1 0xB SLOAD PUSH2 0x1196 JUMP JUMPDEST PUSH2 0x2DC PUSH2 0x12E3 PUSH1 0xC SLOAD PUSH1 0x5 SLOAD SWAP1 PUSH2 0x1138 JUMP JUMPDEST DUP6 PUSH2 0x10EF JUMP JUMPDEST SWAP3 PUSH1 0x1 DUP1 PUSH1 0xA0 SHL SUB SWAP1 DUP2 PUSH1 0x3 SLOAD AND SWAP3 PUSH1 0x40 SWAP4 DUP5 MLOAD SWAP2 PUSH4 0x70A08231 PUSH1 0xE0 SHL DUP4 MSTORE DUP3 PUSH1 0x4 SWAP3 ADDRESS DUP5 DUP4 ADD MSTORE DUP2 PUSH1 0x24 PUSH1 0x20 SWAP7 DUP8 SWAP4 GAS STATICCALL SWAP1 DUP2 ISZERO PUSH2 0x15D4 JUMPI PUSH1 0x0 SWAP2 PUSH2 0x163E JUMPI JUMPDEST POP DUP9 GT PUSH2 0x15DF JUMPI DUP2 DUP4 DUP7 PUSH1 0x2 SLOAD AND DUP9 MLOAD SWAP3 DUP4 DUP1 SWAP3 PUSH4 0x313CE567 PUSH1 0xE0 SHL DUP3 MSTORE GAS STATICCALL SWAP1 DUP2 ISZERO PUSH2 0x15D4 JUMPI SWAP1 PUSH1 0xFF SWAP2 PUSH1 0x0 SWAP2 PUSH2 0x15B7 JUMPI JUMPDEST POP AND PUSH1 0x12 DUP2 LT PUSH2 0x1579 JUMPI JUMPDEST POP DUP6 MLOAD PUSH4 0x23B872DD PUSH1 0xE0 SHL DUP2 MSTORE PUSH1 0x1 PUSH1 0x1 PUSH1 0xA0 SHL SUB DUP6 AND DUP4 DUP3 ADD SWAP1 DUP2 MSTORE ADDRESS PUSH1 0x20 DUP3 ADD MSTORE PUSH1 0x40 DUP2 ADD DUP10 SWAP1 MSTORE SWAP1 SWAP2 DUP5 SWAP2 DUP4 SWAP2 SWAP1 DUP3 SWAP1 PUSH1 0x0 SWAP1 DUP11 SWAP1 DUP4 SWAP1 PUSH1 0x60 ADD JUMPDEST SUB SWAP4 AND GAS CALL DUP1 ISZERO PUSH2 0x156E JUMPI PUSH2 0x1551 JUMPI JUMPDEST POP PUSH4 0xFFFFFFFF DUP3 DUP9 DUP3 PUSH1 0x8 SLOAD AND ISZERO ISZERO PUSH1 0x0 EQ PUSH2 0x14B2 JUMPI POP POP DUP5 DUP5 AND DUP1 PUSH1 0x0 MSTORE PUSH1 0x9 DUP5 MSTORE PUSH2 0x13E7 DUP8 PUSH1 0x0 KECCAK256 SLOAD DUP11 PUSH2 0x1196 JUMP JUMPDEST SWAP2 PUSH1 0x3C DUP2 PUSH1 0x8 SLOAD AND MUL SWAP1 DUP2 AND SWAP1 DUP2 SUB PUSH2 0x149D JUMPI PUSH2 0x1404 SWAP1 TIMESTAMP PUSH2 0x1196 JUMP JUMPDEST SWAP2 DUP8 MLOAD SWAP4 DUP9 DUP6 ADD SWAP1 DUP6 DUP3 LT PUSH8 0xFFFFFFFFFFFFFFFF DUP4 GT OR PUSH2 0x1488 JUMPI POP SWAP3 DUP11 SWAP5 SWAP3 PUSH1 0x1 SWAP3 DUP11 SWAP10 SWAP9 SWAP8 SWAP6 PUSH32 0xABE5455971BDCD932E7251D16CD53F88CD4410BF4DF21530E88BF13DADE6A7D4 SWAP12 MSTORE DUP5 MSTORE DUP5 DUP5 ADD SWAP2 DUP3 MSTORE PUSH1 0x0 MSTORE PUSH1 0x9 DUP5 MSTORE DUP8 PUSH1 0x0 KECCAK256 SWAP3 MLOAD DUP4 SSTORE MLOAD SWAP2 ADD SSTORE PUSH2 0x1476 DUP3 PUSH1 0x5 SLOAD PUSH2 0x1196 JUMP JUMPDEST PUSH1 0x5 SSTORE JUMPDEST DUP5 MLOAD SWAP7 DUP8 MSTORE DUP7 ADD MSTORE AND SWAP3 LOG2 SWAP1 JUMP JUMPDEST PUSH1 0x41 SWAP1 PUSH4 0x4E487B71 PUSH1 0xE0 SHL PUSH1 0x0 MSTORE MSTORE PUSH1 0x24 PUSH1 0x0 REVERT JUMPDEST PUSH1 0x11 DUP5 PUSH4 0x4E487B71 PUSH1 0xE0 SHL PUSH1 0x0 MSTORE MSTORE PUSH1 0x24 PUSH1 0x0 REVERT JUMPDEST PUSH1 0x3 SLOAD DUP9 MLOAD PUSH4 0xA9059CBB PUSH1 0xE0 SHL DUP2 MSTORE PUSH1 0x1 PUSH1 0x1 PUSH1 0xA0 SHL SUB DUP9 AND SWAP6 DUP2 ADD SWAP6 DUP7 MSTORE PUSH1 0x20 DUP7 ADD SWAP3 SWAP1 SWAP3 MSTORE SWAP1 SWAP4 SWAP2 SWAP3 POP DUP4 SWAP2 DUP3 SWAP1 SUB PUSH1 0x40 ADD SWAP1 DUP3 SWAP1 PUSH1 0x0 SWAP1 DUP10 AND GAS CALL DUP1 ISZERO PUSH2 0x1546 JUMPI SWAP2 DUP8 SWAP2 PUSH32 0xABE5455971BDCD932E7251D16CD53F88CD4410BF4DF21530E88BF13DADE6A7D4 SWAP7 SWAP6 SWAP5 SWAP4 PUSH2 0x1529 JUMPI JUMPDEST POP PUSH2 0x147A JUMP JUMPDEST PUSH2 0x153F SWAP1 DUP3 RETURNDATASIZE DUP5 GT PUSH2 0x6BA JUMPI PUSH2 0x6AE DUP2 DUP4 PUSH2 0x1145 JUMP JUMPDEST POP CODESIZE PUSH2 0x1523 JUMP JUMPDEST DUP6 MLOAD RETURNDATASIZE PUSH1 0x0 DUP3 RETURNDATACOPY RETURNDATASIZE SWAP1 REVERT JUMPDEST PUSH2 0x1567 SWAP1 DUP4 RETURNDATASIZE DUP6 GT PUSH2 0x6BA JUMPI PUSH2 0x6AE DUP2 DUP4 PUSH2 0x1145 JUMP JUMPDEST POP CODESIZE PUSH2 0x13B6 JUMP JUMPDEST DUP7 MLOAD RETURNDATASIZE PUSH1 0x0 DUP3 RETURNDATACOPY RETURNDATASIZE SWAP1 REVERT JUMPDEST PUSH1 0x12 SWAP8 SWAP2 SWAP8 SUB PUSH1 0x12 DUP2 GT PUSH2 0x15A2 JUMPI PUSH2 0x13A6 PUSH2 0x1599 DUP8 SWAP4 PUSH2 0x2D6 DUP8 SWAP5 PUSH2 0x12B3 JUMP JUMPDEST SWAP9 SWAP3 POP POP PUSH2 0x1368 JUMP JUMPDEST PUSH1 0x11 DUP4 PUSH4 0x4E487B71 PUSH1 0xE0 SHL PUSH1 0x0 MSTORE MSTORE PUSH1 0x24 PUSH1 0x0 REVERT JUMPDEST PUSH2 0x15CE SWAP2 POP DUP6 RETURNDATASIZE DUP8 GT PUSH2 0x42E JUMPI PUSH2 0x420 DUP2 DUP4 PUSH2 0x1145 JUMP JUMPDEST CODESIZE PUSH2 0x135D JUMP JUMPDEST DUP8 MLOAD RETURNDATASIZE PUSH1 0x0 DUP3 RETURNDATACOPY RETURNDATASIZE SWAP1 REVERT JUMPDEST POP PUSH1 0x84 SWAP2 DUP6 MLOAD SWAP2 PUSH3 0x461BCD PUSH1 0xE5 SHL DUP4 MSTORE DUP3 ADD MSTORE PUSH1 0x34 PUSH1 0x24 DUP3 ADD MSTORE PUSH32 0x44796E616D696345617465723A20496E73756666696369656E7420746F6B656E PUSH1 0x44 DUP3 ADD MSTORE PUSH20 0x103130B630B731B2903A37903A3930B739B332B9 PUSH1 0x61 SHL PUSH1 0x64 DUP3 ADD MSTORE REVERT JUMPDEST SWAP1 DUP5 DUP3 DUP2 RETURNDATASIZE DUP4 GT PUSH2 0x1664 JUMPI JUMPDEST PUSH2 0x1654 DUP2 DUP4 PUSH2 0x1145 JUMP JUMPDEST DUP2 ADD SUB SLT PUSH2 0x2E8 JUMPI POP MLOAD CODESIZE PUSH2 0x132A JUMP JUMPDEST POP RETURNDATASIZE PUSH2 0x164A JUMP JUMPDEST CALLER PUSH1 0x0 DUP2 DUP2 MSTORE PUSH1 0x9 PUSH1 0x20 SWAP1 DUP2 MSTORE PUSH1 0x40 DUP1 DUP4 KECCAK256 DUP1 SLOAD SWAP1 DUP5 SWAP1 SSTORE PUSH1 0x3 SLOAD SWAP2 MLOAD PUSH4 0xA9059CBB PUSH1 0xE0 SHL DUP2 MSTORE PUSH1 0x4 DUP2 ADD SWAP6 SWAP1 SWAP6 MSTORE PUSH1 0x24 DUP6 ADD MSTORE SWAP1 SWAP2 DUP4 SWAP2 PUSH1 0x44 SWAP2 DUP4 SWAP2 PUSH1 0x1 PUSH1 0x1 PUSH1 0xA0 SHL SUB AND GAS CALL DUP1 ISZERO PUSH2 0x16DA JUMPI PUSH2 0x16C0 JUMPI POP JUMP JUMPDEST PUSH2 0x16D7 SWAP1 PUSH1 0x20 RETURNDATASIZE DUP2 GT PUSH2 0x6BA JUMPI PUSH2 0x6AE DUP2 DUP4 PUSH2 0x1145 JUMP JUMPDEST POP JUMP JUMPDEST PUSH1 0x40 MLOAD RETURNDATASIZE PUSH1 0x0 DUP3 RETURNDATACOPY RETURNDATASIZE SWAP1 REVERT INVALID LOG2 PUSH5 0x6970667358 0x22 SLT KECCAK256 0xD4 0xDB SELFBALANCE 0xAD BASEFEE SWAP1 PUSH22 0xD8CC364B560F29D3F302F5D7D83B0B27820E587036CA 0x2D CALLDATASIZE CALLCODE PUSH5 0x736F6C6343 STOP ADDMOD SGT STOP CALLER "
        },
        "methodIdentifiers": {
          "_calculateTokensOut(uint256)": "ec4f67a2",
          "balanceOf(address)": "70a08231",
          "calculateTokensOut(uint256)": "4fa1f104",
          "canClaim(address)": "bf3506c1",
          "claim()": "4e71d92d",
          "deposit(uint256)": "b6b55f25",
          "getCurrentPrice()": "eb91d37e",
          "getRate()": "679aefce",
          "getToken()": "21df0da7",
          "maxSupply()": "d5abeb01",
          "merge(uint256)": "24a47aeb",
          "mergeAll()": "ea9f2417",
          "mergeAndSell(uint256,address,bytes)": "213897fe",
          "owner()": "8da5cb5b",
          "paused()": "5c975abb",
          "receiveApproval(address,uint256,address,bytes)": "8f4ffcb1",
          "renounceOwnership()": "715018a6",
          "setTreasury(address)": "f0f44260",
          "setVestingDuration(uint32)": "9636d881",
          "setWhiteList(address)": "39e899ee",
          "sweep()": "35faa416",
          "togglePause()": "c4ae3168",
          "totalVested()": "199cbc54",
          "transferOwnership(address)": "f2fde38b",
          "treasury()": "61d027b3",
          "vestingDuration()": "1514617e",
          "vestings(address)": "daf49863",
          "virtualFOMO()": "29b30c8d",
          "virtualWEWE()": "9ed4527e",
          "wewe()": "e1f26f22",
          "whiteList(address)": "372c12b1"
        }
      }
    }
  }
}