{
  "contracts/core/Farm.sol": {
    "Farm": {
      "abi": [
        {
          "inputs": [
            {
              "internalType": "contract IERC20",
              "name": "_reward",
              "type": "address"
            }
          ],
          "stateMutability": "nonpayable",
          "type": "constructor"
        },
        {
          "anonymous": false,
          "inputs": [
            {
              "indexed": true,
              "internalType": "address",
              "name": "user",
              "type": "address"
            },
            {
              "indexed": true,
              "internalType": "uint256",
              "name": "pid",
              "type": "uint256"
            },
            {
              "indexed": false,
              "internalType": "uint256",
              "name": "amount",
              "type": "uint256"
            },
            {
              "indexed": true,
              "internalType": "address",
              "name": "to",
              "type": "address"
            }
          ],
          "name": "Deposit",
          "type": "event"
        },
        {
          "anonymous": false,
          "inputs": [
            {
              "indexed": true,
              "internalType": "address",
              "name": "user",
              "type": "address"
            },
            {
              "indexed": true,
              "internalType": "uint256",
              "name": "pid",
              "type": "uint256"
            },
            {
              "indexed": false,
              "internalType": "uint256",
              "name": "amount",
              "type": "uint256"
            },
            {
              "indexed": true,
              "internalType": "address",
              "name": "to",
              "type": "address"
            }
          ],
          "name": "EmergencyWithdraw",
          "type": "event"
        },
        {
          "anonymous": false,
          "inputs": [
            {
              "indexed": true,
              "internalType": "address",
              "name": "user",
              "type": "address"
            },
            {
              "indexed": true,
              "internalType": "uint256",
              "name": "pid",
              "type": "uint256"
            },
            {
              "indexed": false,
              "internalType": "uint256",
              "name": "amount",
              "type": "uint256"
            }
          ],
          "name": "Harvest",
          "type": "event"
        },
        {
          "anonymous": false,
          "inputs": [
            {
              "indexed": true,
              "internalType": "uint256",
              "name": "pid",
              "type": "uint256"
            },
            {
              "indexed": false,
              "internalType": "uint256",
              "name": "allocPoint",
              "type": "uint256"
            },
            {
              "indexed": true,
              "internalType": "contract IERC20",
              "name": "lpToken",
              "type": "address"
            },
            {
              "indexed": true,
              "internalType": "contract IRewarder",
              "name": "rewarder",
              "type": "address"
            }
          ],
          "name": "LogPoolAddition",
          "type": "event"
        },
        {
          "anonymous": false,
          "inputs": [
            {
              "indexed": true,
              "internalType": "uint256",
              "name": "pid",
              "type": "uint256"
            },
            {
              "indexed": false,
              "internalType": "uint256",
              "name": "amount",
              "type": "uint256"
            }
          ],
          "name": "LogPoolAllocation",
          "type": "event"
        },
        {
          "anonymous": false,
          "inputs": [
            {
              "indexed": false,
              "internalType": "uint256",
              "name": "amount",
              "type": "uint256"
            }
          ],
          "name": "LogSetEmissionsPerBlock",
          "type": "event"
        },
        {
          "anonymous": false,
          "inputs": [
            {
              "indexed": true,
              "internalType": "uint256",
              "name": "pid",
              "type": "uint256"
            },
            {
              "indexed": false,
              "internalType": "uint256",
              "name": "allocPoint",
              "type": "uint256"
            },
            {
              "indexed": true,
              "internalType": "contract IRewarder",
              "name": "rewarder",
              "type": "address"
            },
            {
              "indexed": false,
              "internalType": "bool",
              "name": "overwrite",
              "type": "bool"
            }
          ],
          "name": "LogSetPool",
          "type": "event"
        },
        {
          "anonymous": false,
          "inputs": [
            {
              "indexed": true,
              "internalType": "uint256",
              "name": "pid",
              "type": "uint256"
            },
            {
              "indexed": false,
              "internalType": "uint8",
              "name": "weight",
              "type": "uint8"
            }
          ],
          "name": "LogSetPoolWeight",
          "type": "event"
        },
        {
          "anonymous": false,
          "inputs": [
            {
              "indexed": true,
              "internalType": "uint256",
              "name": "pid",
              "type": "uint256"
            },
            {
              "indexed": false,
              "internalType": "uint64",
              "name": "lastRewardBlock",
              "type": "uint64"
            },
            {
              "indexed": false,
              "internalType": "uint256",
              "name": "lpSupply",
              "type": "uint256"
            },
            {
              "indexed": false,
              "internalType": "uint256",
              "name": "accChaosPerShare",
              "type": "uint256"
            }
          ],
          "name": "LogUpdatePool",
          "type": "event"
        },
        {
          "anonymous": false,
          "inputs": [
            {
              "indexed": true,
              "internalType": "address",
              "name": "previousOwner",
              "type": "address"
            },
            {
              "indexed": true,
              "internalType": "address",
              "name": "newOwner",
              "type": "address"
            }
          ],
          "name": "OwnershipTransferred",
          "type": "event"
        },
        {
          "anonymous": false,
          "inputs": [
            {
              "indexed": false,
              "internalType": "uint256",
              "name": "amount",
              "type": "uint256"
            }
          ],
          "name": "Refunded",
          "type": "event"
        },
        {
          "anonymous": false,
          "inputs": [
            {
              "indexed": true,
              "internalType": "address",
              "name": "user",
              "type": "address"
            },
            {
              "indexed": true,
              "internalType": "uint256",
              "name": "pid",
              "type": "uint256"
            },
            {
              "indexed": false,
              "internalType": "uint256",
              "name": "amount",
              "type": "uint256"
            },
            {
              "indexed": true,
              "internalType": "address",
              "name": "to",
              "type": "address"
            }
          ],
          "name": "Withdraw",
          "type": "event"
        },
        {
          "inputs": [],
          "name": "CHAOS_TOKEN",
          "outputs": [
            {
              "internalType": "contract IERC20",
              "name": "",
              "type": "address"
            }
          ],
          "stateMutability": "view",
          "type": "function"
        },
        {
          "inputs": [
            {
              "internalType": "uint256",
              "name": "allocPoint",
              "type": "uint256"
            },
            {
              "internalType": "contract IERC20",
              "name": "_lpToken",
              "type": "address"
            },
            {
              "internalType": "contract IRewarder",
              "name": "_rewarder",
              "type": "address"
            }
          ],
          "name": "add",
          "outputs": [],
          "stateMutability": "nonpayable",
          "type": "function"
        },
        {
          "inputs": [
            {
              "internalType": "uint256",
              "name": "pid",
              "type": "uint256"
            },
            {
              "internalType": "uint256",
              "name": "amount",
              "type": "uint256"
            }
          ],
          "name": "allocateTokens",
          "outputs": [],
          "stateMutability": "nonpayable",
          "type": "function"
        },
        {
          "inputs": [
            {
              "internalType": "uint256",
              "name": "pid",
              "type": "uint256"
            },
            {
              "internalType": "uint256",
              "name": "amount",
              "type": "uint256"
            },
            {
              "internalType": "address",
              "name": "to",
              "type": "address"
            }
          ],
          "name": "deposit",
          "outputs": [],
          "stateMutability": "nonpayable",
          "type": "function"
        },
        {
          "inputs": [
            {
              "internalType": "uint256",
              "name": "pid",
              "type": "uint256"
            }
          ],
          "name": "emergencyWithdraw",
          "outputs": [],
          "stateMutability": "nonpayable",
          "type": "function"
        },
        {
          "inputs": [
            {
              "internalType": "uint256",
              "name": "pid",
              "type": "uint256"
            }
          ],
          "name": "getPoolInfo",
          "outputs": [
            {
              "components": [
                {
                  "internalType": "uint128",
                  "name": "accChaosPerShare",
                  "type": "uint128"
                },
                {
                  "internalType": "uint64",
                  "name": "lastRewardBlock",
                  "type": "uint64"
                },
                {
                  "internalType": "uint64",
                  "name": "allocPoint",
                  "type": "uint64"
                },
                {
                  "internalType": "uint256",
                  "name": "totalSupply",
                  "type": "uint256"
                },
                {
                  "internalType": "uint8",
                  "name": "weight",
                  "type": "uint8"
                }
              ],
              "internalType": "struct IFarm.PoolInfo",
              "name": "",
              "type": "tuple"
            }
          ],
          "stateMutability": "view",
          "type": "function"
        },
        {
          "inputs": [
            {
              "internalType": "uint256",
              "name": "pid",
              "type": "uint256"
            }
          ],
          "name": "getPoolWeightAsPercentage",
          "outputs": [
            {
              "internalType": "uint256",
              "name": "",
              "type": "uint256"
            }
          ],
          "stateMutability": "view",
          "type": "function"
        },
        {
          "inputs": [
            {
              "internalType": "uint256",
              "name": "pid",
              "type": "uint256"
            },
            {
              "internalType": "address",
              "name": "to",
              "type": "address"
            }
          ],
          "name": "harvest",
          "outputs": [],
          "stateMutability": "nonpayable",
          "type": "function"
        },
        {
          "inputs": [
            {
              "internalType": "uint256",
              "name": "",
              "type": "uint256"
            }
          ],
          "name": "lpToken",
          "outputs": [
            {
              "internalType": "contract IERC20",
              "name": "",
              "type": "address"
            }
          ],
          "stateMutability": "view",
          "type": "function"
        },
        {
          "inputs": [
            {
              "internalType": "uint256[]",
              "name": "pids",
              "type": "uint256[]"
            }
          ],
          "name": "massUpdatePools",
          "outputs": [],
          "stateMutability": "nonpayable",
          "type": "function"
        },
        {
          "inputs": [
            {
              "internalType": "uint256",
              "name": "_pid",
              "type": "uint256"
            }
          ],
          "name": "migrate",
          "outputs": [],
          "stateMutability": "nonpayable",
          "type": "function"
        },
        {
          "inputs": [],
          "name": "migrator",
          "outputs": [
            {
              "internalType": "contract IMigratorChef",
              "name": "",
              "type": "address"
            }
          ],
          "stateMutability": "view",
          "type": "function"
        },
        {
          "inputs": [],
          "name": "owner",
          "outputs": [
            {
              "internalType": "address",
              "name": "",
              "type": "address"
            }
          ],
          "stateMutability": "view",
          "type": "function"
        },
        {
          "inputs": [
            {
              "internalType": "uint256",
              "name": "_pid",
              "type": "uint256"
            },
            {
              "internalType": "address",
              "name": "_user",
              "type": "address"
            }
          ],
          "name": "pendingRewards",
          "outputs": [
            {
              "internalType": "uint256",
              "name": "pending",
              "type": "uint256"
            }
          ],
          "stateMutability": "view",
          "type": "function"
        },
        {
          "inputs": [
            {
              "internalType": "uint256",
              "name": "",
              "type": "uint256"
            }
          ],
          "name": "poolInfo",
          "outputs": [
            {
              "internalType": "uint128",
              "name": "accChaosPerShare",
              "type": "uint128"
            },
            {
              "internalType": "uint64",
              "name": "lastRewardBlock",
              "type": "uint64"
            },
            {
              "internalType": "uint64",
              "name": "allocPoint",
              "type": "uint64"
            },
            {
              "internalType": "uint256",
              "name": "totalSupply",
              "type": "uint256"
            },
            {
              "internalType": "uint8",
              "name": "weight",
              "type": "uint8"
            }
          ],
          "stateMutability": "view",
          "type": "function"
        },
        {
          "inputs": [],
          "name": "poolLength",
          "outputs": [
            {
              "internalType": "uint256",
              "name": "pools",
              "type": "uint256"
            }
          ],
          "stateMutability": "view",
          "type": "function"
        },
        {
          "inputs": [
            {
              "internalType": "address",
              "name": "from",
              "type": "address"
            },
            {
              "internalType": "uint256",
              "name": "amount",
              "type": "uint256"
            },
            {
              "internalType": "address",
              "name": "token",
              "type": "address"
            },
            {
              "internalType": "bytes",
              "name": "extraData",
              "type": "bytes"
            }
          ],
          "name": "receiveApproval",
          "outputs": [],
          "stateMutability": "nonpayable",
          "type": "function"
        },
        {
          "inputs": [
            {
              "internalType": "uint256",
              "name": "amount",
              "type": "uint256"
            }
          ],
          "name": "refund",
          "outputs": [],
          "stateMutability": "nonpayable",
          "type": "function"
        },
        {
          "inputs": [],
          "name": "refundAll",
          "outputs": [],
          "stateMutability": "nonpayable",
          "type": "function"
        },
        {
          "inputs": [],
          "name": "renounceOwnership",
          "outputs": [],
          "stateMutability": "nonpayable",
          "type": "function"
        },
        {
          "inputs": [
            {
              "internalType": "uint256",
              "name": "",
              "type": "uint256"
            }
          ],
          "name": "rewarder",
          "outputs": [
            {
              "internalType": "contract IRewarder",
              "name": "",
              "type": "address"
            }
          ],
          "stateMutability": "view",
          "type": "function"
        },
        {
          "inputs": [
            {
              "internalType": "uint256",
              "name": "pid",
              "type": "uint256"
            }
          ],
          "name": "rewardsPerBlock",
          "outputs": [
            {
              "internalType": "uint256",
              "name": "amount",
              "type": "uint256"
            }
          ],
          "stateMutability": "view",
          "type": "function"
        },
        {
          "inputs": [
            {
              "internalType": "uint256",
              "name": "_pid",
              "type": "uint256"
            },
            {
              "internalType": "uint256",
              "name": "_allocPoint",
              "type": "uint256"
            },
            {
              "internalType": "contract IRewarder",
              "name": "_rewarder",
              "type": "address"
            },
            {
              "internalType": "bool",
              "name": "overwrite",
              "type": "bool"
            }
          ],
          "name": "set",
          "outputs": [],
          "stateMutability": "nonpayable",
          "type": "function"
        },
        {
          "inputs": [
            {
              "internalType": "uint256",
              "name": "amount",
              "type": "uint256"
            }
          ],
          "name": "setEmissionsPerBlock",
          "outputs": [],
          "stateMutability": "nonpayable",
          "type": "function"
        },
        {
          "inputs": [
            {
              "internalType": "contract IMigratorChef",
              "name": "_migrator",
              "type": "address"
            }
          ],
          "name": "setMigrator",
          "outputs": [],
          "stateMutability": "nonpayable",
          "type": "function"
        },
        {
          "inputs": [
            {
              "internalType": "uint256",
              "name": "pid",
              "type": "uint256"
            },
            {
              "internalType": "uint8",
              "name": "weight",
              "type": "uint8"
            }
          ],
          "name": "setVaultWeight",
          "outputs": [],
          "stateMutability": "nonpayable",
          "type": "function"
        },
        {
          "inputs": [],
          "name": "tokensPerBlock",
          "outputs": [
            {
              "internalType": "uint256",
              "name": "",
              "type": "uint256"
            }
          ],
          "stateMutability": "view",
          "type": "function"
        },
        {
          "inputs": [],
          "name": "totalAllocPoint",
          "outputs": [
            {
              "internalType": "uint256",
              "name": "",
              "type": "uint256"
            }
          ],
          "stateMutability": "view",
          "type": "function"
        },
        {
          "inputs": [
            {
              "internalType": "address",
              "name": "newOwner",
              "type": "address"
            }
          ],
          "name": "transferOwnership",
          "outputs": [],
          "stateMutability": "nonpayable",
          "type": "function"
        },
        {
          "inputs": [
            {
              "internalType": "uint256",
              "name": "pid",
              "type": "uint256"
            }
          ],
          "name": "updatePool",
          "outputs": [
            {
              "components": [
                {
                  "internalType": "uint128",
                  "name": "accChaosPerShare",
                  "type": "uint128"
                },
                {
                  "internalType": "uint64",
                  "name": "lastRewardBlock",
                  "type": "uint64"
                },
                {
                  "internalType": "uint64",
                  "name": "allocPoint",
                  "type": "uint64"
                },
                {
                  "internalType": "uint256",
                  "name": "totalSupply",
                  "type": "uint256"
                },
                {
                  "internalType": "uint8",
                  "name": "weight",
                  "type": "uint8"
                }
              ],
              "internalType": "struct IFarm.PoolInfo",
              "name": "pool",
              "type": "tuple"
            }
          ],
          "stateMutability": "nonpayable",
          "type": "function"
        },
        {
          "inputs": [
            {
              "internalType": "uint256",
              "name": "",
              "type": "uint256"
            },
            {
              "internalType": "address",
              "name": "",
              "type": "address"
            }
          ],
          "name": "userInfo",
          "outputs": [
            {
              "internalType": "uint256",
              "name": "amount",
              "type": "uint256"
            },
            {
              "internalType": "int256",
              "name": "rewardDebt",
              "type": "int256"
            }
          ],
          "stateMutability": "view",
          "type": "function"
        },
        {
          "inputs": [
            {
              "internalType": "uint256",
              "name": "pid",
              "type": "uint256"
            },
            {
              "internalType": "uint256",
              "name": "amount",
              "type": "uint256"
            },
            {
              "internalType": "address",
              "name": "to",
              "type": "address"
            }
          ],
          "name": "withdraw",
          "outputs": [],
          "stateMutability": "nonpayable",
          "type": "function"
        },
        {
          "inputs": [
            {
              "internalType": "uint256",
              "name": "pid",
              "type": "uint256"
            },
            {
              "internalType": "uint256",
              "name": "amount",
              "type": "uint256"
            },
            {
              "internalType": "address",
              "name": "to",
              "type": "address"
            }
          ],
          "name": "withdrawAndHarvest",
          "outputs": [],
          "stateMutability": "nonpayable",
          "type": "function"
        }
      ],
      "evm": {
        "bytecode": {
          "linkReferences": {},
          "object": "60c03461010157601f61279538819003918201601f19168301916001600160401b038311848410176101065780849260209460405283398101031261010157516001600160a01b03908181168103610101576000543360018060a01b0319821617600055604051923391167f8be0079c531659141344cd1fd0a4f28419497f9722a3daafe3b4186f6b6457e0600080a36080523060a052612678908161011d823960805181818161026c01528181610352015281816107e00152818161131b015281816123da015261245f015260a0518181816107b101528181611059015281816112ec01528181611ace01528181611ced01528181611f49015261242f0152f35b600080fd5b634e487b7160e01b600052604160045260246000fdfe6080604081815260048036101561001557600080fd5b600092833560e01c908163081e3eda1461169a575080630ad58d2f1461153757806312ef2464146115175780631526fe27146114a757806317caf6f11461148857806318fccc76146114645780631a1cb01f1461144557806323cf3118146113f1578063278ecde1146113cc5780632f380b351461139957806338e771ab146112b8578063454b06081461100357806350cfc63c14610fb657806351eb05a614610f425780635312ea8e14610e1b57806357a5b58c14610d8c578063715018a614610d3257806378ed5d1f14610d085780637cd07e4714610cdb57806388bba42f14610ba75780638cebd2ba14610a3a5780638da5cb5b14610a125780638dbdbe6d146109fa5780638f4ffcb1146108d55780638fc264e01461077757806393f1a40b1461072b5780639733894e1461070b578063ab7de09814610529578063c346253d146104e9578063d18df53c146104b757838163d1abb9071461029f57508063ded844d2146102575763f2fde38b1461019057600080fd5b34610253576020366003190112610253576101a96116cc565b906101b261178d565b6001600160a01b039182169283156102015750506000548260018060a01b0319821617600055167f8be0079c531659141344cd1fd0a4f28419497f9722a3daafe3b4186f6b6457e0600080a380f35b906020608492519162461bcd60e51b8352820152602660248201527f4f776e61626c653a206e6577206f776e657220697320746865207a65726f206160448201526564647265737360d01b6064820152fd5b8280fd5b50503461029b578160031936011261029b57517f00000000000000000000000000000000000000000000000000000000000000006001600160a01b03168152602090f35b5080fd5b8281853461029b576102b0366116f8565b6102bc83969293611c86565b868652600760205284862033600052602052846000209081549064e8d4a510009060018060801b0391806102f3848451168661194e565b0492600186019283548086039c8d91128680831282169213901516176104a4575161031f91168961194e565b04918b838203931281841281169184139015161761049157868b938b979695936103499355611a41565b815561037688847f0000000000000000000000000000000000000000000000000000000000000000612233565b61037f85611757565b90546001600160a01b039560039290921b1c85169182610414575b505050506103ba8482846103ad87611772565b90549060031b1c16612233565b845193845216917f8166bf25f8a2b7ed3c85049207da4358d16edbed977d23fa2ee6f0dde3ec213260203392a4519081527f71bab65ced2e5750775a0613be067df48ef06cf92a496ebf7663ae066092495460203392a380f35b9091929394955054823b1561048d5788928492838c61044a89958d5198899788968795632337492560e21b875233918701612271565b03925af1801561048357908894939291610466575b808061039a565b610472919294506117e5565b61047f578591878961045f565b8680fd5b86513d84823e3d90fd5b8380fd5b634e487b7160e01b8b526011865260248bfd5b634e487b7160e01b8e526011895260248efd5b5091346104e657816003193601126104e657506104df6020926104d86116b6565b9035611a66565b9051908152f35b80fd5b50346102535760203660031901126102535735916006548310156104e65750610513602092611757565b905491519160018060a01b039160031b1c168152f35b509034610253576060366003190112610253576001600160a01b03916024803584811693833592909185900361047f576105616116e2565b61056961178d565b610575846008546118a0565b600855600554600160401b9190828110156106f9576105bb61059e8260018b9401600555611772565b819391549060031b9160018060a01b03809116831b921b19161790565b9055600654828110156106f9576105db8160016105fc9301600655611757565b99909216809983549060031b9160018060a01b03809116831b921b19161790565b9055600354600160ff82160160ff81116106e55760ff169060ff191617600355610625846125d8565b9061062f436125d8565b84519261063b8461180e565b8a84526001600160401b0380921660208501521684830152886060830152600160808301528554908110156106d3579061067d82600161068394018855611722565b906119c6565b6005546000198101949085116106c25750507f81ee0f8c5c46e2cb41984886f77a84181724abb86c32a5f6de539b07509d45e59160209151908152a480f35b634e487b7160e01b88526011905286fd5b634e487b7160e01b8952604186528289fd5b83601188634e487b7160e01b600052526000fd5b634e487b7160e01b8a5260418752838afd5b5091346104e65760203660031901126104e657506104df60209235611981565b5082346104e657826003193601126104e65782906107476116b6565b923581526007602052209060018060a01b0316600052602052806000206001815491015482519182526020820152f35b5090346102535780600319360112610253578135916024602081359261079b61178d565b84516370a0823160e01b81526001600160a01b037f000000000000000000000000000000000000000000000000000000000000000081169282019290925292839182907f0000000000000000000000000000000000000000000000000000000000000000165afa9081156108cb578591610873575b50907fcdd8c438c177c1b7298106f22ac8fc3588caa838ec239042bf4da8cec4fad00c9261084260209383111561184a565b61084e826001546118a0565b600155600161085c86611722565b50016108698382546118a0565b905551908152a280f35b9190506020823d82116108c3575b8161088e60209383611829565b810103126108be5790517fcdd8c438c177c1b7298106f22ac8fc3588caa838ec239042bf4da8cec4fad00c610810565b600080fd5b3d9150610881565b83513d87823e3d90fd5b5082903461029b57608036600319011261029b576108f16116cc565b906108fa6116e2565b906064356001600160401b038082116109f657366023830112156109f657818301359081116109f65781013660248201116109f6578160209103126108be5760240135916005548310156109ba5761095183611772565b90546001600160a01b0360039290921b1c811691160361097d57509061097a9160243590611e84565b80f35b606490602086519162461bcd60e51b8352820152601760248201527621b430b7b99d1024b73b30b634b2102628103a37b5b2b760491b6044820152fd5b855162461bcd60e51b8152602081840152601660248201527510da185bdcce88125b9d985b1a59081c1bdbdb08125160521b6044820152606490fd5b8580fd5b83346104e65761097a610a0c366116f8565b91611e84565b50503461029b578160031936011261029b57905490516001600160a01b039091168152602090f35b503461025357816003193601126102535780359160ff602435818116939084810361047f57610a6761178d565b84610ade57505091602091837fcca7be0ce2046924923362617977e6d03c4004e88c4c3eb96459b0d3315e04dd946002610aa088611722565b5001541690610ab4600354928284166118c3565b169060ff191617600355610ac785611722565b5080546001600160c01b031690555b51908152a280f35b826002610aea88611722565b50015416851115610b8857610b0f90836002610b0589611722565b50015416906118c3565b905b8260035492168383160190838211610b73575091602093917fcca7be0ce2046924923362617977e6d03c4004e88c4c3eb96459b0d3315e04dd959360ff1992839116911617600355826002610b6588611722565b500191825416179055610ad6565b601190634e487b7160e01b6000525260246000fd5b610ba190836002610b9889611722565b500154166118c3565b90610b11565b5034610253576080366003190112610253573560243591610bc66116e2565b90606435918215159081840361047f577f95895a6ab1df54420d241b55243258a33e61b2194db66c1179ec521aae8e186593610c0061178d565b610c2387610c1e600854610c138a611722565b505460c01c90611a41565b6118a0565b60085580610c60610c33896125d8565b610c3c89611722565b5080546001600160c01b031660c09290921b6001600160c01b031916919091179055565b610ca6575b15610c8457905b825195865260208601526001600160a01b031693a380f35b50610c8e84611757565b905460039190911b1c6001600160a01b031690610c6c565b610cd4610cb287611757565b815491926001600160a01b0386811660039390931b92831b921b199092161790565b9055610c65565b50503461029b578160031936011261029b57600354905160089190911c6001600160a01b03168152602090f35b50346102535760203660031901126102535735916005548310156104e65750610513602092611772565b83346104e657806003193601126104e657610d4b61178d565b600080546001600160a01b0319811682556001600160a01b03167f8be0079c531659141344cd1fd0a4f28419497f9722a3daafe3b4186f6b6457e08280a380f35b83823461029b57602036600319011261029b578035906001600160401b039081831161048d573660238401121561048d578281013591821161048d576024926005368585831b840101116109f657855b848110610de7578680f35b610df78682841b85010135611c86565b506000198114610e0957600101610ddc565b634e487b7160e01b8752601184528587fd5b50903461025357602036600319011261025357813590818452600760205280842033600052602052806000209284600185549582815501558385610e5e85611757565b90546001600160a01b039460039290921b1c84169081610ec9575b505050610e9a91610e8985611772565b9190913392549060031b1c16612233565b5191825233917f2cac5e20e1541d836381527a43f651851e302817b71dc8e810284e69210c1c6b60203392a480f35b90809293503b15610253578560a484928388519586948593632337492560e21b85528401523360248401523360448401528160648401528160848401525af18015610f385790869291610f1d575b80610e79565b610f289192506117e5565b610f3457838538610f17565b8480fd5b84513d84823e3d90fd5b5091346104e65760203660031901126104e65750610f63610fb29235611c86565b905191829182919091608060ff8160a0840195600180831b0381511685526001600160401b03806020830151166020870152604082015116604086015260608101516060860152015116910152565b0390f35b5034610253576020366003190112610253577f09c7175dc5acabada721d84fad025a613a3729f53c9d5402bd9278ef82a2a769916020913590610ff761178d565b8160025551908152a180f35b5034610253576020908160031936011261048d5760035460081c6001600160a01b039081169382359391851561127d578061103d86611772565b90549060031b1c1690825190886370a0823160e01b93848452827f000000000000000000000000000000000000000000000000000000000000000016998a898601528785602481855afa94851561123f579088918496611249575b50875163095ea7b360e01b81526001600160a01b03909116818b019081526020810187905290919082908190604001038186865af1801561123f5790889291611212575b5060248460035460081c16918851948593849263ce5494bb60e01b84528d8401525af1908115611208578a916111ce575b50169683519283528583015283826024818a5afa9182156111c4578892611195575b50036111495750505061059e61114491611772565b905580f35b5162461bcd60e51b815291820152602260248201527f4368616f733a206d696772617465642062616c616e6365206d757374206d61746044820152610c6d60f31b606482015260849150fd5b9091508381813d83116111bd575b6111ad8183611829565b810103126108be5751903861112f565b503d6111a3565b83513d8a823e3d90fd5b90508581813d8311611201575b6111e58183611829565b810103126111fd575181811681036111fd573861110d565b8980fd5b503d6111db565b85513d8c823e3d90fd5b61123190833d8511611238575b6112298183611829565b810190611a4e565b50386110dc565b503d61121f565b87513d85823e3d90fd5b9350945082813d8311611276575b6112618183611829565b810103126108be5786938b9251949038611098565b503d611257565b505162461bcd60e51b815291820152601660248201527510da185bdcce881b9bc81b5a59dc985d1bdc881cd95d60521b604482015260649150fd5b503461025357826003193601126102535760206024916112d661178d565b83516370a0823160e01b81526001600160a01b037f000000000000000000000000000000000000000000000000000000000000000081169282019290925292839182907f0000000000000000000000000000000000000000000000000000000000000000165afa9182156113905750829161135f575b5080611356575080f35b61097a90612417565b90506020813d8211611388575b8161137960209383611829565b810103126108be57513861134c565b3d915061136c565b513d84823e3d90fd5b5091346104e65760203660031901126104e65750610f636113c6610fb2936113bf6118d7565b5035611722565b50611902565b83823461029b57602036600319011261029b5761097a906113eb61178d565b35612417565b83823461029b57602036600319011261029b57356001600160a01b038116810361029b5761141d61178d565b60038054610100600160a81b03191660089290921b610100600160a81b031691909117905580f35b50503461029b578160031936011261029b576020906002549051908152f35b5090346102535736600319011261029b5761097a906114816116b6565b90356122a1565b50503461029b578160031936011261029b576020906008549051908152f35b5091346104e65760203660031901126104e657823592548310156104e657506114d160a092611722565b509081549160ff60026001830154920154169180519360018060801b03811685526001600160401b038160801c16602086015260c01c9084015260608301526080820152f35b5091346104e65760203660031901126104e657506104df60209235611c5a565b50903461025357611547366116f8565b9093919261155484611c86565b8487526007602052818720338852602052818720906001820164e8d4a5100061158982549360018060801b039051168a61194e565b049189838203931281841281169184139015161761168757558054868110156115b0578780f35b866115ba91611a41565b809155866115c786611757565b90546001600160a01b03969160031b1c861680611629575b505050506115f28583856103ad88611772565b5193845216917f8166bf25f8a2b7ed3c85049207da4358d16edbed977d23fa2ee6f0dde3ec213260203392a4388080808080808780f35b803b156102535785918389611653885197889687958694632337492560e21b865233918601611e55565b03925af1801561167d5761166a575b8681806115df565b611676909691966117e5565b9438611662565b82513d89823e3d90fd5b634e487b7160e01b895260118652602489fd5b9250503461025357826003193601126102535760209250548152f35b602435906001600160a01b03821682036108be57565b600435906001600160a01b03821682036108be57565b604435906001600160a01b03821682036108be57565b60609060031901126108be5760043590602435906044356001600160a01b03811681036108be5790565b6004548110156117415760046000526003602060002091020190600090565b634e487b7160e01b600052603260045260246000fd5b60065481101561174157600660005260206000200190600090565b60055481101561174157600560005260206000200190600090565b6000546001600160a01b031633036117a157565b606460405162461bcd60e51b815260206004820152602060248201527f4f776e61626c653a2063616c6c6572206973206e6f7420746865206f776e65726044820152fd5b6001600160401b0381116117f857604052565b634e487b7160e01b600052604160045260246000fd5b60a081019081106001600160401b038211176117f857604052565b90601f801991011681019081106001600160401b038211176117f857604052565b1561185157565b60405162461bcd60e51b815260206004820152602160248201527f4368616f733a20496e73756666696369656e74204348414f532062616c616e636044820152606560f81b6064820152608490fd5b919082018092116118ad57565b634e487b7160e01b600052601160045260246000fd5b9060ff8091169116039060ff82116118ad57565b604051906118e48261180e565b60006080838281528260208201528260408201528260608201520152565b9060405161190f8161180e565b608060ff600283958054600180861b03811686526001600160401b0381861c16602087015260c01c604086015260018101546060860152015416910152565b818102929181159184041417156118ad57565b811561196b570490565b634e487b7160e01b600052601260045260246000fd5b60ff600354169081156119bf57600261199b60ff92611722565b50015416906064820291808304606414901517156118ad576119bc91611961565b90565b5050600090565b90611a2b578151602083015160408401516001600160c01b031960c09190911b166001600160801b0390921667ffffffffffffffff60801b608092831b161791909117825560ff9160029060608501516001820155019201511660ff19825416179055565b634e487b7160e01b600052600060045260246000fd5b919082039182116118ad57565b908160209103126108be575180151581036108be5790565b90611a736113c683611722565b91600091818352602093600785526040842060018060a01b0380931685528552604084209460018060801b03825116938415611c5057816024611ab583611772565b9190549160405197889384926370a0823160e01b8452827f000000000000000000000000000000000000000000000000000000000000000016600485015260031b1c165afa938415611c45578694611c16575b506001600160401b0380928401511680431180611c0d575b80611c02575b611b76575b505050505064e8d4a51000611b43600192855461194e565b0492015491818382039312818412811691841390151617611b62575090565b634e487b7160e01b81526011600452602490fd5b916040611b9d611bb09593611b97611b91611ba79743611a41565b91611c5a565b9061194e565b920151169061194e565b60085490611961565b64e8d4a5100090818102918183041490151715611bee57611be6600193611be064e8d4a5100094611b4394611961565b906118a0565b923880611b2b565b634e487b7160e01b84526011600452602484fd5b506008541515611b26565b50841515611b20565b9093508181813d8311611c3e575b611c2e8183611829565b810103126109f657519238611b08565b503d611c24565b6040513d88823e3d90fd5b5050505050905090565b611c7a6119bc9160ff6002611c70815493611722565b500154169061194e565b60ff6003541690611961565b90611c8f6118d7565b50611c9c6113c683611722565b9160208084016001600160401b0380825116431180611e4a575b611cc1575b50505050565b8291611ccc85611772565b9490546024604051809781936370a0823160e01b835260018060a01b0391827f000000000000000000000000000000000000000000000000000000000000000016600485015260031b1c165afa938415611e3e57600094611e0f575b5083611d96575b91816060937f0fc9545022a542541ad085d091fb09a2ab36fee366a4576ab63714ea907ad3539593611d60436125d8565b168152611d708961067d89611722565b51169160018060801b03885116916040519384528301526040820152a238808080611cbb565b91611dc3611ba7611db6611dad8587511643611a41565b611b9789611c5a565b8460408b0151169061194e565b9164e8d4a51000928381029381850414901517156118ad576001600160801b0394928590611df2908590611961565b168589511601938585116118ad5793909416875290929091611d2f565b90938382813d8311611e37575b611e268183611829565b810103126104e65750519238611d28565b503d611e1c565b6040513d6000823e3d90fd5b506008541515611cb6565b9081526001600160a01b0391821660208201529116604082015260006060820152608081019190915260a00190565b90611e8e82611c86565b60009383855260076020526040918286209560018060a01b039283811697888352602052848220926001611ec38886546118a0565b80865594018054915164e8d4a5100090611ee6906001600160801b03168a61194e565b0491848382019384129112908015821691151617611bee575583611f0988611757565b90549060031b1c1680611fb2575b5050505080611f8691611f2986611772565b90549060031b1c168351916323b872dd60e01b60208401523360248401527f000000000000000000000000000000000000000000000000000000000000000016604483015284606483015260648252611f818261180e565b612017565b519081527f02d7e648dd130fc184d383e55bb126ac4c9c60e8f94bf05acdf557ba2d540b4760203392a4565b803b156102535790829181838a611fde8a5198899687958694632337492560e21b865260048601611e55565b03925af190811561200c575090611f869291611ffd575b819281611f17565b612006906117e5565b38611ff5565b8451903d90823e3d90fd5b604080516001600160401b0394936001600160a01b039093169290918201858111838210176117f8576040526020928383527f5361666545524332303a206c6f772d6c6576656c2063616c6c206661696c6564848401526000808386829551910182855af1903d15612152573d96871161213e576120b6949596604051906120a888601f19601f8401160183611829565b81528093873d92013e61215f565b805190828215928315612126575b505050156120cf5750565b6084906040519062461bcd60e51b82526004820152602a60248201527f5361666545524332303a204552433230206f7065726174696f6e20646964206e6044820152691bdd081cdd58d8d9595960b21b6064820152fd5b6121369350820181019101611a4e565b3882816120c4565b634e487b7160e01b83526041600452602483fd5b91506120b6939495506060915b919290156121c15750815115612173575090565b3b1561217c5790565b60405162461bcd60e51b815260206004820152601d60248201527f416464726573733a2063616c6c20746f206e6f6e2d636f6e74726163740000006044820152606490fd5b8251909150156121d45750805190602001fd5b6040519062461bcd60e51b82528160208060048301528251908160248401526000935b82851061221a575050604492506000838284010152601f80199101168101030190fd5b84810182015186860160440152938101938593506121f7565b60405163a9059cbb60e01b60208201526001600160a01b0392909216602483015260448083019390935291815261226f91611f81606483611829565b565b9081526001600160a01b039182166020820152911660408201526060810191909152608081019190915260a00190565b906122ab82611c86565b80516001600160801b039290831615611cbb5764e8d4a510006122ec600093868552600760205260408520338652602052604085209586549151169061194e565b04926001810193845490818103958583128288128116908389139015161761240357819055036123d3575b61232085611757565b905460039190911b1c6001600160a01b0316908161236b575b505050506040519081527f71bab65ced2e5750775a0613be067df48ef06cf92a496ebf7663ae066092495460203392a3565b5491813b1561048d5791839291858461239f969460405197889586948593632337492560e21b85528d339060048701612271565b03925af19081156123c757506123b8575b808080612339565b6123c1906117e5565b386123b0565b604051903d90823e3d90fd5b6123fe84837f0000000000000000000000000000000000000000000000000000000000000000612233565b612317565b634e487b7160e01b86526011600452602486fd5b604080516370a0823160e01b81526001600160a01b037f00000000000000000000000000000000000000000000000000000000000000008116600483015291939260209290917f00000000000000000000000000000000000000000000000000000000000000008083169290918581602481875afa9384156125cd578691600095612595575b506124ac60009587111561184a565b6004895180968193638da5cb5b60e01b83525af192831561258a57600093612550575b5082161561250c57827f3d2a04f53164bedf9a8a46353305d6b2d2261410406df3b41f99ce6489dc003c95969261250592612233565b51908152a1565b855162461bcd60e51b815260048101859052601c60248201527f4368616f733a20496e76616c6964206f776e65722061646472657373000000006044820152606490fd5b8581819593953d8311612583575b6125688183611829565b8101031261029b57519083821682036104e6575091386124cf565b503d61255e565b87513d6000823e3d90fd5b91828196929495963d83116125c6575b6125af8183611829565b810103126104e657505192919085906124ac61249d565b503d6125a5565b88513d6000823e3d90fd5b6001600160401b03908181116125ec571690565b60405162461bcd60e51b815260206004820152602860248201527f536166654361737436343a2076616c756520646f65736e27742066697420696e604482015267203634206269747360c01b6064820152608490fdfea2646970667358221220024808a1e31d53348b62d3f7bec7a8ac8a1ed4584dc76ba57c10c379f627e79764736f6c63430008130033",
          "opcodes": "PUSH1 0xC0 CALLVALUE PUSH2 0x101 JUMPI PUSH1 0x1F PUSH2 0x2795 CODESIZE DUP2 SWAP1 SUB SWAP2 DUP3 ADD PUSH1 0x1F NOT AND DUP4 ADD SWAP2 PUSH1 0x1 PUSH1 0x1 PUSH1 0x40 SHL SUB DUP4 GT DUP5 DUP5 LT OR PUSH2 0x106 JUMPI DUP1 DUP5 SWAP3 PUSH1 0x20 SWAP5 PUSH1 0x40 MSTORE DUP4 CODECOPY DUP2 ADD SUB SLT PUSH2 0x101 JUMPI MLOAD PUSH1 0x1 PUSH1 0x1 PUSH1 0xA0 SHL SUB SWAP1 DUP2 DUP2 AND DUP2 SUB PUSH2 0x101 JUMPI PUSH1 0x0 SLOAD CALLER PUSH1 0x1 DUP1 PUSH1 0xA0 SHL SUB NOT DUP3 AND OR PUSH1 0x0 SSTORE PUSH1 0x40 MLOAD SWAP3 CALLER SWAP2 AND PUSH32 0x8BE0079C531659141344CD1FD0A4F28419497F9722A3DAAFE3B4186F6B6457E0 PUSH1 0x0 DUP1 LOG3 PUSH1 0x80 MSTORE ADDRESS PUSH1 0xA0 MSTORE PUSH2 0x2678 SWAP1 DUP2 PUSH2 0x11D DUP3 CODECOPY PUSH1 0x80 MLOAD DUP2 DUP2 DUP2 PUSH2 0x26C ADD MSTORE DUP2 DUP2 PUSH2 0x352 ADD MSTORE DUP2 DUP2 PUSH2 0x7E0 ADD MSTORE DUP2 DUP2 PUSH2 0x131B ADD MSTORE DUP2 DUP2 PUSH2 0x23DA ADD MSTORE PUSH2 0x245F ADD MSTORE PUSH1 0xA0 MLOAD DUP2 DUP2 DUP2 PUSH2 0x7B1 ADD MSTORE DUP2 DUP2 PUSH2 0x1059 ADD MSTORE DUP2 DUP2 PUSH2 0x12EC ADD MSTORE DUP2 DUP2 PUSH2 0x1ACE ADD MSTORE DUP2 DUP2 PUSH2 0x1CED ADD MSTORE DUP2 DUP2 PUSH2 0x1F49 ADD MSTORE PUSH2 0x242F ADD MSTORE RETURN JUMPDEST PUSH1 0x0 DUP1 REVERT JUMPDEST PUSH4 0x4E487B71 PUSH1 0xE0 SHL PUSH1 0x0 MSTORE PUSH1 0x41 PUSH1 0x4 MSTORE PUSH1 0x24 PUSH1 0x0 REVERT INVALID PUSH1 0x80 PUSH1 0x40 DUP2 DUP2 MSTORE PUSH1 0x4 DUP1 CALLDATASIZE LT ISZERO PUSH2 0x15 JUMPI PUSH1 0x0 DUP1 REVERT JUMPDEST PUSH1 0x0 SWAP3 DUP4 CALLDATALOAD PUSH1 0xE0 SHR SWAP1 DUP2 PUSH4 0x81E3EDA EQ PUSH2 0x169A JUMPI POP DUP1 PUSH4 0xAD58D2F EQ PUSH2 0x1537 JUMPI DUP1 PUSH4 0x12EF2464 EQ PUSH2 0x1517 JUMPI DUP1 PUSH4 0x1526FE27 EQ PUSH2 0x14A7 JUMPI DUP1 PUSH4 0x17CAF6F1 EQ PUSH2 0x1488 JUMPI DUP1 PUSH4 0x18FCCC76 EQ PUSH2 0x1464 JUMPI DUP1 PUSH4 0x1A1CB01F EQ PUSH2 0x1445 JUMPI DUP1 PUSH4 0x23CF3118 EQ PUSH2 0x13F1 JUMPI DUP1 PUSH4 0x278ECDE1 EQ PUSH2 0x13CC JUMPI DUP1 PUSH4 0x2F380B35 EQ PUSH2 0x1399 JUMPI DUP1 PUSH4 0x38E771AB EQ PUSH2 0x12B8 JUMPI DUP1 PUSH4 0x454B0608 EQ PUSH2 0x1003 JUMPI DUP1 PUSH4 0x50CFC63C EQ PUSH2 0xFB6 JUMPI DUP1 PUSH4 0x51EB05A6 EQ PUSH2 0xF42 JUMPI DUP1 PUSH4 0x5312EA8E EQ PUSH2 0xE1B JUMPI DUP1 PUSH4 0x57A5B58C EQ PUSH2 0xD8C JUMPI DUP1 PUSH4 0x715018A6 EQ PUSH2 0xD32 JUMPI DUP1 PUSH4 0x78ED5D1F EQ PUSH2 0xD08 JUMPI DUP1 PUSH4 0x7CD07E47 EQ PUSH2 0xCDB JUMPI DUP1 PUSH4 0x88BBA42F EQ PUSH2 0xBA7 JUMPI DUP1 PUSH4 0x8CEBD2BA EQ PUSH2 0xA3A JUMPI DUP1 PUSH4 0x8DA5CB5B EQ PUSH2 0xA12 JUMPI DUP1 PUSH4 0x8DBDBE6D EQ PUSH2 0x9FA JUMPI DUP1 PUSH4 0x8F4FFCB1 EQ PUSH2 0x8D5 JUMPI DUP1 PUSH4 0x8FC264E0 EQ PUSH2 0x777 JUMPI DUP1 PUSH4 0x93F1A40B EQ PUSH2 0x72B JUMPI DUP1 PUSH4 0x9733894E EQ PUSH2 0x70B JUMPI DUP1 PUSH4 0xAB7DE098 EQ PUSH2 0x529 JUMPI DUP1 PUSH4 0xC346253D EQ PUSH2 0x4E9 JUMPI DUP1 PUSH4 0xD18DF53C EQ PUSH2 0x4B7 JUMPI DUP4 DUP2 PUSH4 0xD1ABB907 EQ PUSH2 0x29F JUMPI POP DUP1 PUSH4 0xDED844D2 EQ PUSH2 0x257 JUMPI PUSH4 0xF2FDE38B EQ PUSH2 0x190 JUMPI PUSH1 0x0 DUP1 REVERT JUMPDEST CALLVALUE PUSH2 0x253 JUMPI PUSH1 0x20 CALLDATASIZE PUSH1 0x3 NOT ADD SLT PUSH2 0x253 JUMPI PUSH2 0x1A9 PUSH2 0x16CC JUMP JUMPDEST SWAP1 PUSH2 0x1B2 PUSH2 0x178D JUMP JUMPDEST PUSH1 0x1 PUSH1 0x1 PUSH1 0xA0 SHL SUB SWAP2 DUP3 AND SWAP3 DUP4 ISZERO PUSH2 0x201 JUMPI POP POP PUSH1 0x0 SLOAD DUP3 PUSH1 0x1 DUP1 PUSH1 0xA0 SHL SUB NOT DUP3 AND OR PUSH1 0x0 SSTORE AND PUSH32 0x8BE0079C531659141344CD1FD0A4F28419497F9722A3DAAFE3B4186F6B6457E0 PUSH1 0x0 DUP1 LOG3 DUP1 RETURN JUMPDEST SWAP1 PUSH1 0x20 PUSH1 0x84 SWAP3 MLOAD SWAP2 PUSH3 0x461BCD PUSH1 0xE5 SHL DUP4 MSTORE DUP3 ADD MSTORE PUSH1 0x26 PUSH1 0x24 DUP3 ADD MSTORE PUSH32 0x4F776E61626C653A206E6577206F776E657220697320746865207A65726F2061 PUSH1 0x44 DUP3 ADD MSTORE PUSH6 0x646472657373 PUSH1 0xD0 SHL PUSH1 0x64 DUP3 ADD MSTORE REVERT JUMPDEST DUP3 DUP1 REVERT JUMPDEST POP POP CALLVALUE PUSH2 0x29B JUMPI DUP2 PUSH1 0x3 NOT CALLDATASIZE ADD SLT PUSH2 0x29B JUMPI MLOAD PUSH32 0x0 PUSH1 0x1 PUSH1 0x1 PUSH1 0xA0 SHL SUB AND DUP2 MSTORE PUSH1 0x20 SWAP1 RETURN JUMPDEST POP DUP1 REVERT JUMPDEST DUP3 DUP2 DUP6 CALLVALUE PUSH2 0x29B JUMPI PUSH2 0x2B0 CALLDATASIZE PUSH2 0x16F8 JUMP JUMPDEST PUSH2 0x2BC DUP4 SWAP7 SWAP3 SWAP4 PUSH2 0x1C86 JUMP JUMPDEST DUP7 DUP7 MSTORE PUSH1 0x7 PUSH1 0x20 MSTORE DUP5 DUP7 KECCAK256 CALLER PUSH1 0x0 MSTORE PUSH1 0x20 MSTORE DUP5 PUSH1 0x0 KECCAK256 SWAP1 DUP2 SLOAD SWAP1 PUSH5 0xE8D4A51000 SWAP1 PUSH1 0x1 DUP1 PUSH1 0x80 SHL SUB SWAP2 DUP1 PUSH2 0x2F3 DUP5 DUP5 MLOAD AND DUP7 PUSH2 0x194E JUMP JUMPDEST DIV SWAP3 PUSH1 0x1 DUP7 ADD SWAP3 DUP4 SLOAD DUP1 DUP7 SUB SWAP13 DUP14 SWAP2 SLT DUP7 DUP1 DUP4 SLT DUP3 AND SWAP3 SGT SWAP1 ISZERO AND OR PUSH2 0x4A4 JUMPI MLOAD PUSH2 0x31F SWAP2 AND DUP10 PUSH2 0x194E JUMP JUMPDEST DIV SWAP2 DUP12 DUP4 DUP3 SUB SWAP4 SLT DUP2 DUP5 SLT DUP2 AND SWAP2 DUP5 SGT SWAP1 ISZERO AND OR PUSH2 0x491 JUMPI DUP7 DUP12 SWAP4 DUP12 SWAP8 SWAP7 SWAP6 SWAP4 PUSH2 0x349 SWAP4 SSTORE PUSH2 0x1A41 JUMP JUMPDEST DUP2 SSTORE PUSH2 0x376 DUP9 DUP5 PUSH32 0x0 PUSH2 0x2233 JUMP JUMPDEST PUSH2 0x37F DUP6 PUSH2 0x1757 JUMP JUMPDEST SWAP1 SLOAD PUSH1 0x1 PUSH1 0x1 PUSH1 0xA0 SHL SUB SWAP6 PUSH1 0x3 SWAP3 SWAP1 SWAP3 SHL SHR DUP6 AND SWAP2 DUP3 PUSH2 0x414 JUMPI JUMPDEST POP POP POP POP PUSH2 0x3BA DUP5 DUP3 DUP5 PUSH2 0x3AD DUP8 PUSH2 0x1772 JUMP JUMPDEST SWAP1 SLOAD SWAP1 PUSH1 0x3 SHL SHR AND PUSH2 0x2233 JUMP JUMPDEST DUP5 MLOAD SWAP4 DUP5 MSTORE AND SWAP2 PUSH32 0x8166BF25F8A2B7ED3C85049207DA4358D16EDBED977D23FA2EE6F0DDE3EC2132 PUSH1 0x20 CALLER SWAP3 LOG4 MLOAD SWAP1 DUP2 MSTORE PUSH32 0x71BAB65CED2E5750775A0613BE067DF48EF06CF92A496EBF7663AE0660924954 PUSH1 0x20 CALLER SWAP3 LOG3 DUP1 RETURN JUMPDEST SWAP1 SWAP2 SWAP3 SWAP4 SWAP5 SWAP6 POP SLOAD DUP3 EXTCODESIZE ISZERO PUSH2 0x48D JUMPI DUP9 SWAP3 DUP5 SWAP3 DUP4 DUP13 PUSH2 0x44A DUP10 SWAP6 DUP14 MLOAD SWAP9 DUP10 SWAP8 DUP9 SWAP7 DUP8 SWAP6 PUSH4 0x23374925 PUSH1 0xE2 SHL DUP8 MSTORE CALLER SWAP2 DUP8 ADD PUSH2 0x2271 JUMP JUMPDEST SUB SWAP3 GAS CALL DUP1 ISZERO PUSH2 0x483 JUMPI SWAP1 DUP9 SWAP5 SWAP4 SWAP3 SWAP2 PUSH2 0x466 JUMPI JUMPDEST DUP1 DUP1 PUSH2 0x39A JUMP JUMPDEST PUSH2 0x472 SWAP2 SWAP3 SWAP5 POP PUSH2 0x17E5 JUMP JUMPDEST PUSH2 0x47F JUMPI DUP6 SWAP2 DUP8 DUP10 PUSH2 0x45F JUMP JUMPDEST DUP7 DUP1 REVERT JUMPDEST DUP7 MLOAD RETURNDATASIZE DUP5 DUP3 RETURNDATACOPY RETURNDATASIZE SWAP1 REVERT JUMPDEST DUP4 DUP1 REVERT JUMPDEST PUSH4 0x4E487B71 PUSH1 0xE0 SHL DUP12 MSTORE PUSH1 0x11 DUP7 MSTORE PUSH1 0x24 DUP12 REVERT JUMPDEST PUSH4 0x4E487B71 PUSH1 0xE0 SHL DUP15 MSTORE PUSH1 0x11 DUP10 MSTORE PUSH1 0x24 DUP15 REVERT JUMPDEST POP SWAP2 CALLVALUE PUSH2 0x4E6 JUMPI DUP2 PUSH1 0x3 NOT CALLDATASIZE ADD SLT PUSH2 0x4E6 JUMPI POP PUSH2 0x4DF PUSH1 0x20 SWAP3 PUSH2 0x4D8 PUSH2 0x16B6 JUMP JUMPDEST SWAP1 CALLDATALOAD PUSH2 0x1A66 JUMP JUMPDEST SWAP1 MLOAD SWAP1 DUP2 MSTORE RETURN JUMPDEST DUP1 REVERT JUMPDEST POP CALLVALUE PUSH2 0x253 JUMPI PUSH1 0x20 CALLDATASIZE PUSH1 0x3 NOT ADD SLT PUSH2 0x253 JUMPI CALLDATALOAD SWAP2 PUSH1 0x6 SLOAD DUP4 LT ISZERO PUSH2 0x4E6 JUMPI POP PUSH2 0x513 PUSH1 0x20 SWAP3 PUSH2 0x1757 JUMP JUMPDEST SWAP1 SLOAD SWAP2 MLOAD SWAP2 PUSH1 0x1 DUP1 PUSH1 0xA0 SHL SUB SWAP2 PUSH1 0x3 SHL SHR AND DUP2 MSTORE RETURN JUMPDEST POP SWAP1 CALLVALUE PUSH2 0x253 JUMPI PUSH1 0x60 CALLDATASIZE PUSH1 0x3 NOT ADD SLT PUSH2 0x253 JUMPI PUSH1 0x1 PUSH1 0x1 PUSH1 0xA0 SHL SUB SWAP2 PUSH1 0x24 DUP1 CALLDATALOAD DUP5 DUP2 AND SWAP4 DUP4 CALLDATALOAD SWAP3 SWAP1 SWAP2 DUP6 SWAP1 SUB PUSH2 0x47F JUMPI PUSH2 0x561 PUSH2 0x16E2 JUMP JUMPDEST PUSH2 0x569 PUSH2 0x178D JUMP JUMPDEST PUSH2 0x575 DUP5 PUSH1 0x8 SLOAD PUSH2 0x18A0 JUMP JUMPDEST PUSH1 0x8 SSTORE PUSH1 0x5 SLOAD PUSH1 0x1 PUSH1 0x40 SHL SWAP2 SWAP1 DUP3 DUP2 LT ISZERO PUSH2 0x6F9 JUMPI PUSH2 0x5BB PUSH2 0x59E DUP3 PUSH1 0x1 DUP12 SWAP5 ADD PUSH1 0x5 SSTORE PUSH2 0x1772 JUMP JUMPDEST DUP2 SWAP4 SWAP2 SLOAD SWAP1 PUSH1 0x3 SHL SWAP2 PUSH1 0x1 DUP1 PUSH1 0xA0 SHL SUB DUP1 SWAP2 AND DUP4 SHL SWAP3 SHL NOT AND OR SWAP1 JUMP JUMPDEST SWAP1 SSTORE PUSH1 0x6 SLOAD DUP3 DUP2 LT ISZERO PUSH2 0x6F9 JUMPI PUSH2 0x5DB DUP2 PUSH1 0x1 PUSH2 0x5FC SWAP4 ADD PUSH1 0x6 SSTORE PUSH2 0x1757 JUMP JUMPDEST SWAP10 SWAP1 SWAP3 AND DUP1 SWAP10 DUP4 SLOAD SWAP1 PUSH1 0x3 SHL SWAP2 PUSH1 0x1 DUP1 PUSH1 0xA0 SHL SUB DUP1 SWAP2 AND DUP4 SHL SWAP3 SHL NOT AND OR SWAP1 JUMP JUMPDEST SWAP1 SSTORE PUSH1 0x3 SLOAD PUSH1 0x1 PUSH1 0xFF DUP3 AND ADD PUSH1 0xFF DUP2 GT PUSH2 0x6E5 JUMPI PUSH1 0xFF AND SWAP1 PUSH1 0xFF NOT AND OR PUSH1 0x3 SSTORE PUSH2 0x625 DUP5 PUSH2 0x25D8 JUMP JUMPDEST SWAP1 PUSH2 0x62F NUMBER PUSH2 0x25D8 JUMP JUMPDEST DUP5 MLOAD SWAP3 PUSH2 0x63B DUP5 PUSH2 0x180E JUMP JUMPDEST DUP11 DUP5 MSTORE PUSH1 0x1 PUSH1 0x1 PUSH1 0x40 SHL SUB DUP1 SWAP3 AND PUSH1 0x20 DUP6 ADD MSTORE AND DUP5 DUP4 ADD MSTORE DUP9 PUSH1 0x60 DUP4 ADD MSTORE PUSH1 0x1 PUSH1 0x80 DUP4 ADD MSTORE DUP6 SLOAD SWAP1 DUP2 LT ISZERO PUSH2 0x6D3 JUMPI SWAP1 PUSH2 0x67D DUP3 PUSH1 0x1 PUSH2 0x683 SWAP5 ADD DUP9 SSTORE PUSH2 0x1722 JUMP JUMPDEST SWAP1 PUSH2 0x19C6 JUMP JUMPDEST PUSH1 0x5 SLOAD PUSH1 0x0 NOT DUP2 ADD SWAP5 SWAP1 DUP6 GT PUSH2 0x6C2 JUMPI POP POP PUSH32 0x81EE0F8C5C46E2CB41984886F77A84181724ABB86C32A5F6DE539B07509D45E5 SWAP2 PUSH1 0x20 SWAP2 MLOAD SWAP1 DUP2 MSTORE LOG4 DUP1 RETURN JUMPDEST PUSH4 0x4E487B71 PUSH1 0xE0 SHL DUP9 MSTORE PUSH1 0x11 SWAP1 MSTORE DUP7 REVERT JUMPDEST PUSH4 0x4E487B71 PUSH1 0xE0 SHL DUP10 MSTORE PUSH1 0x41 DUP7 MSTORE DUP3 DUP10 REVERT JUMPDEST DUP4 PUSH1 0x11 DUP9 PUSH4 0x4E487B71 PUSH1 0xE0 SHL PUSH1 0x0 MSTORE MSTORE PUSH1 0x0 REVERT JUMPDEST PUSH4 0x4E487B71 PUSH1 0xE0 SHL DUP11 MSTORE PUSH1 0x41 DUP8 MSTORE DUP4 DUP11 REVERT JUMPDEST POP SWAP2 CALLVALUE PUSH2 0x4E6 JUMPI PUSH1 0x20 CALLDATASIZE PUSH1 0x3 NOT ADD SLT PUSH2 0x4E6 JUMPI POP PUSH2 0x4DF PUSH1 0x20 SWAP3 CALLDATALOAD PUSH2 0x1981 JUMP JUMPDEST POP DUP3 CALLVALUE PUSH2 0x4E6 JUMPI DUP3 PUSH1 0x3 NOT CALLDATASIZE ADD SLT PUSH2 0x4E6 JUMPI DUP3 SWAP1 PUSH2 0x747 PUSH2 0x16B6 JUMP JUMPDEST SWAP3 CALLDATALOAD DUP2 MSTORE PUSH1 0x7 PUSH1 0x20 MSTORE KECCAK256 SWAP1 PUSH1 0x1 DUP1 PUSH1 0xA0 SHL SUB AND PUSH1 0x0 MSTORE PUSH1 0x20 MSTORE DUP1 PUSH1 0x0 KECCAK256 PUSH1 0x1 DUP2 SLOAD SWAP2 ADD SLOAD DUP3 MLOAD SWAP2 DUP3 MSTORE PUSH1 0x20 DUP3 ADD MSTORE RETURN JUMPDEST POP SWAP1 CALLVALUE PUSH2 0x253 JUMPI DUP1 PUSH1 0x3 NOT CALLDATASIZE ADD SLT PUSH2 0x253 JUMPI DUP2 CALLDATALOAD SWAP2 PUSH1 0x24 PUSH1 0x20 DUP2 CALLDATALOAD SWAP3 PUSH2 0x79B PUSH2 0x178D JUMP JUMPDEST DUP5 MLOAD PUSH4 0x70A08231 PUSH1 0xE0 SHL DUP2 MSTORE PUSH1 0x1 PUSH1 0x1 PUSH1 0xA0 SHL SUB PUSH32 0x0 DUP2 AND SWAP3 DUP3 ADD SWAP3 SWAP1 SWAP3 MSTORE SWAP3 DUP4 SWAP2 DUP3 SWAP1 PUSH32 0x0 AND GAS STATICCALL SWAP1 DUP2 ISZERO PUSH2 0x8CB JUMPI DUP6 SWAP2 PUSH2 0x873 JUMPI JUMPDEST POP SWAP1 PUSH32 0xCDD8C438C177C1B7298106F22AC8FC3588CAA838EC239042BF4DA8CEC4FAD00C SWAP3 PUSH2 0x842 PUSH1 0x20 SWAP4 DUP4 GT ISZERO PUSH2 0x184A JUMP JUMPDEST PUSH2 0x84E DUP3 PUSH1 0x1 SLOAD PUSH2 0x18A0 JUMP JUMPDEST PUSH1 0x1 SSTORE PUSH1 0x1 PUSH2 0x85C DUP7 PUSH2 0x1722 JUMP JUMPDEST POP ADD PUSH2 0x869 DUP4 DUP3 SLOAD PUSH2 0x18A0 JUMP JUMPDEST SWAP1 SSTORE MLOAD SWAP1 DUP2 MSTORE LOG2 DUP1 RETURN JUMPDEST SWAP2 SWAP1 POP PUSH1 0x20 DUP3 RETURNDATASIZE DUP3 GT PUSH2 0x8C3 JUMPI JUMPDEST DUP2 PUSH2 0x88E PUSH1 0x20 SWAP4 DUP4 PUSH2 0x1829 JUMP JUMPDEST DUP2 ADD SUB SLT PUSH2 0x8BE JUMPI SWAP1 MLOAD PUSH32 0xCDD8C438C177C1B7298106F22AC8FC3588CAA838EC239042BF4DA8CEC4FAD00C PUSH2 0x810 JUMP JUMPDEST PUSH1 0x0 DUP1 REVERT JUMPDEST RETURNDATASIZE SWAP2 POP PUSH2 0x881 JUMP JUMPDEST DUP4 MLOAD RETURNDATASIZE DUP8 DUP3 RETURNDATACOPY RETURNDATASIZE SWAP1 REVERT JUMPDEST POP DUP3 SWAP1 CALLVALUE PUSH2 0x29B JUMPI PUSH1 0x80 CALLDATASIZE PUSH1 0x3 NOT ADD SLT PUSH2 0x29B JUMPI PUSH2 0x8F1 PUSH2 0x16CC JUMP JUMPDEST SWAP1 PUSH2 0x8FA PUSH2 0x16E2 JUMP JUMPDEST SWAP1 PUSH1 0x64 CALLDATALOAD PUSH1 0x1 PUSH1 0x1 PUSH1 0x40 SHL SUB DUP1 DUP3 GT PUSH2 0x9F6 JUMPI CALLDATASIZE PUSH1 0x23 DUP4 ADD SLT ISZERO PUSH2 0x9F6 JUMPI DUP2 DUP4 ADD CALLDATALOAD SWAP1 DUP2 GT PUSH2 0x9F6 JUMPI DUP2 ADD CALLDATASIZE PUSH1 0x24 DUP3 ADD GT PUSH2 0x9F6 JUMPI DUP2 PUSH1 0x20 SWAP2 SUB SLT PUSH2 0x8BE JUMPI PUSH1 0x24 ADD CALLDATALOAD SWAP2 PUSH1 0x5 SLOAD DUP4 LT ISZERO PUSH2 0x9BA JUMPI PUSH2 0x951 DUP4 PUSH2 0x1772 JUMP JUMPDEST SWAP1 SLOAD PUSH1 0x1 PUSH1 0x1 PUSH1 0xA0 SHL SUB PUSH1 0x3 SWAP3 SWAP1 SWAP3 SHL SHR DUP2 AND SWAP2 AND SUB PUSH2 0x97D JUMPI POP SWAP1 PUSH2 0x97A SWAP2 PUSH1 0x24 CALLDATALOAD SWAP1 PUSH2 0x1E84 JUMP JUMPDEST DUP1 RETURN JUMPDEST PUSH1 0x64 SWAP1 PUSH1 0x20 DUP7 MLOAD SWAP2 PUSH3 0x461BCD PUSH1 0xE5 SHL DUP4 MSTORE DUP3 ADD MSTORE PUSH1 0x17 PUSH1 0x24 DUP3 ADD MSTORE PUSH23 0x21B430B7B99D1024B73B30B634B2102628103A37B5B2B7 PUSH1 0x49 SHL PUSH1 0x44 DUP3 ADD MSTORE REVERT JUMPDEST DUP6 MLOAD PUSH3 0x461BCD PUSH1 0xE5 SHL DUP2 MSTORE PUSH1 0x20 DUP2 DUP5 ADD MSTORE PUSH1 0x16 PUSH1 0x24 DUP3 ADD MSTORE PUSH22 0x10DA185BDCCE88125B9D985B1A59081C1BDBDB081251 PUSH1 0x52 SHL PUSH1 0x44 DUP3 ADD MSTORE PUSH1 0x64 SWAP1 REVERT JUMPDEST DUP6 DUP1 REVERT JUMPDEST DUP4 CALLVALUE PUSH2 0x4E6 JUMPI PUSH2 0x97A PUSH2 0xA0C CALLDATASIZE PUSH2 0x16F8 JUMP JUMPDEST SWAP2 PUSH2 0x1E84 JUMP JUMPDEST POP POP CALLVALUE PUSH2 0x29B JUMPI DUP2 PUSH1 0x3 NOT CALLDATASIZE ADD SLT PUSH2 0x29B JUMPI SWAP1 SLOAD SWAP1 MLOAD PUSH1 0x1 PUSH1 0x1 PUSH1 0xA0 SHL SUB SWAP1 SWAP2 AND DUP2 MSTORE PUSH1 0x20 SWAP1 RETURN JUMPDEST POP CALLVALUE PUSH2 0x253 JUMPI DUP2 PUSH1 0x3 NOT CALLDATASIZE ADD SLT PUSH2 0x253 JUMPI DUP1 CALLDATALOAD SWAP2 PUSH1 0xFF PUSH1 0x24 CALLDATALOAD DUP2 DUP2 AND SWAP4 SWAP1 DUP5 DUP2 SUB PUSH2 0x47F JUMPI PUSH2 0xA67 PUSH2 0x178D JUMP JUMPDEST DUP5 PUSH2 0xADE JUMPI POP POP SWAP2 PUSH1 0x20 SWAP2 DUP4 PUSH32 0xCCA7BE0CE2046924923362617977E6D03C4004E88C4C3EB96459B0D3315E04DD SWAP5 PUSH1 0x2 PUSH2 0xAA0 DUP9 PUSH2 0x1722 JUMP JUMPDEST POP ADD SLOAD AND SWAP1 PUSH2 0xAB4 PUSH1 0x3 SLOAD SWAP3 DUP3 DUP5 AND PUSH2 0x18C3 JUMP JUMPDEST AND SWAP1 PUSH1 0xFF NOT AND OR PUSH1 0x3 SSTORE PUSH2 0xAC7 DUP6 PUSH2 0x1722 JUMP JUMPDEST POP DUP1 SLOAD PUSH1 0x1 PUSH1 0x1 PUSH1 0xC0 SHL SUB AND SWAP1 SSTORE JUMPDEST MLOAD SWAP1 DUP2 MSTORE LOG2 DUP1 RETURN JUMPDEST DUP3 PUSH1 0x2 PUSH2 0xAEA DUP9 PUSH2 0x1722 JUMP JUMPDEST POP ADD SLOAD AND DUP6 GT ISZERO PUSH2 0xB88 JUMPI PUSH2 0xB0F SWAP1 DUP4 PUSH1 0x2 PUSH2 0xB05 DUP10 PUSH2 0x1722 JUMP JUMPDEST POP ADD SLOAD AND SWAP1 PUSH2 0x18C3 JUMP JUMPDEST SWAP1 JUMPDEST DUP3 PUSH1 0x3 SLOAD SWAP3 AND DUP4 DUP4 AND ADD SWAP1 DUP4 DUP3 GT PUSH2 0xB73 JUMPI POP SWAP2 PUSH1 0x20 SWAP4 SWAP2 PUSH32 0xCCA7BE0CE2046924923362617977E6D03C4004E88C4C3EB96459B0D3315E04DD SWAP6 SWAP4 PUSH1 0xFF NOT SWAP3 DUP4 SWAP2 AND SWAP2 AND OR PUSH1 0x3 SSTORE DUP3 PUSH1 0x2 PUSH2 0xB65 DUP9 PUSH2 0x1722 JUMP JUMPDEST POP ADD SWAP2 DUP3 SLOAD AND OR SWAP1 SSTORE PUSH2 0xAD6 JUMP JUMPDEST PUSH1 0x11 SWAP1 PUSH4 0x4E487B71 PUSH1 0xE0 SHL PUSH1 0x0 MSTORE MSTORE PUSH1 0x24 PUSH1 0x0 REVERT JUMPDEST PUSH2 0xBA1 SWAP1 DUP4 PUSH1 0x2 PUSH2 0xB98 DUP10 PUSH2 0x1722 JUMP JUMPDEST POP ADD SLOAD AND PUSH2 0x18C3 JUMP JUMPDEST SWAP1 PUSH2 0xB11 JUMP JUMPDEST POP CALLVALUE PUSH2 0x253 JUMPI PUSH1 0x80 CALLDATASIZE PUSH1 0x3 NOT ADD SLT PUSH2 0x253 JUMPI CALLDATALOAD PUSH1 0x24 CALLDATALOAD SWAP2 PUSH2 0xBC6 PUSH2 0x16E2 JUMP JUMPDEST SWAP1 PUSH1 0x64 CALLDATALOAD SWAP2 DUP3 ISZERO ISZERO SWAP1 DUP2 DUP5 SUB PUSH2 0x47F JUMPI PUSH32 0x95895A6AB1DF54420D241B55243258A33E61B2194DB66C1179EC521AAE8E1865 SWAP4 PUSH2 0xC00 PUSH2 0x178D JUMP JUMPDEST PUSH2 0xC23 DUP8 PUSH2 0xC1E PUSH1 0x8 SLOAD PUSH2 0xC13 DUP11 PUSH2 0x1722 JUMP JUMPDEST POP SLOAD PUSH1 0xC0 SHR SWAP1 PUSH2 0x1A41 JUMP JUMPDEST PUSH2 0x18A0 JUMP JUMPDEST PUSH1 0x8 SSTORE DUP1 PUSH2 0xC60 PUSH2 0xC33 DUP10 PUSH2 0x25D8 JUMP JUMPDEST PUSH2 0xC3C DUP10 PUSH2 0x1722 JUMP JUMPDEST POP DUP1 SLOAD PUSH1 0x1 PUSH1 0x1 PUSH1 0xC0 SHL SUB AND PUSH1 0xC0 SWAP3 SWAP1 SWAP3 SHL PUSH1 0x1 PUSH1 0x1 PUSH1 0xC0 SHL SUB NOT AND SWAP2 SWAP1 SWAP2 OR SWAP1 SSTORE JUMP JUMPDEST PUSH2 0xCA6 JUMPI JUMPDEST ISZERO PUSH2 0xC84 JUMPI SWAP1 JUMPDEST DUP3 MLOAD SWAP6 DUP7 MSTORE PUSH1 0x20 DUP7 ADD MSTORE PUSH1 0x1 PUSH1 0x1 PUSH1 0xA0 SHL SUB AND SWAP4 LOG3 DUP1 RETURN JUMPDEST POP PUSH2 0xC8E DUP5 PUSH2 0x1757 JUMP JUMPDEST SWAP1 SLOAD PUSH1 0x3 SWAP2 SWAP1 SWAP2 SHL SHR PUSH1 0x1 PUSH1 0x1 PUSH1 0xA0 SHL SUB AND SWAP1 PUSH2 0xC6C JUMP JUMPDEST PUSH2 0xCD4 PUSH2 0xCB2 DUP8 PUSH2 0x1757 JUMP JUMPDEST DUP2 SLOAD SWAP2 SWAP3 PUSH1 0x1 PUSH1 0x1 PUSH1 0xA0 SHL SUB DUP7 DUP2 AND PUSH1 0x3 SWAP4 SWAP1 SWAP4 SHL SWAP3 DUP4 SHL SWAP3 SHL NOT SWAP1 SWAP3 AND OR SWAP1 JUMP JUMPDEST SWAP1 SSTORE PUSH2 0xC65 JUMP JUMPDEST POP POP CALLVALUE PUSH2 0x29B JUMPI DUP2 PUSH1 0x3 NOT CALLDATASIZE ADD SLT PUSH2 0x29B JUMPI PUSH1 0x3 SLOAD SWAP1 MLOAD PUSH1 0x8 SWAP2 SWAP1 SWAP2 SHR PUSH1 0x1 PUSH1 0x1 PUSH1 0xA0 SHL SUB AND DUP2 MSTORE PUSH1 0x20 SWAP1 RETURN JUMPDEST POP CALLVALUE PUSH2 0x253 JUMPI PUSH1 0x20 CALLDATASIZE PUSH1 0x3 NOT ADD SLT PUSH2 0x253 JUMPI CALLDATALOAD SWAP2 PUSH1 0x5 SLOAD DUP4 LT ISZERO PUSH2 0x4E6 JUMPI POP PUSH2 0x513 PUSH1 0x20 SWAP3 PUSH2 0x1772 JUMP JUMPDEST DUP4 CALLVALUE PUSH2 0x4E6 JUMPI DUP1 PUSH1 0x3 NOT CALLDATASIZE ADD SLT PUSH2 0x4E6 JUMPI PUSH2 0xD4B PUSH2 0x178D JUMP JUMPDEST PUSH1 0x0 DUP1 SLOAD PUSH1 0x1 PUSH1 0x1 PUSH1 0xA0 SHL SUB NOT DUP2 AND DUP3 SSTORE PUSH1 0x1 PUSH1 0x1 PUSH1 0xA0 SHL SUB AND PUSH32 0x8BE0079C531659141344CD1FD0A4F28419497F9722A3DAAFE3B4186F6B6457E0 DUP3 DUP1 LOG3 DUP1 RETURN JUMPDEST DUP4 DUP3 CALLVALUE PUSH2 0x29B JUMPI PUSH1 0x20 CALLDATASIZE PUSH1 0x3 NOT ADD SLT PUSH2 0x29B JUMPI DUP1 CALLDATALOAD SWAP1 PUSH1 0x1 PUSH1 0x1 PUSH1 0x40 SHL SUB SWAP1 DUP2 DUP4 GT PUSH2 0x48D JUMPI CALLDATASIZE PUSH1 0x23 DUP5 ADD SLT ISZERO PUSH2 0x48D JUMPI DUP3 DUP2 ADD CALLDATALOAD SWAP2 DUP3 GT PUSH2 0x48D JUMPI PUSH1 0x24 SWAP3 PUSH1 0x5 CALLDATASIZE DUP6 DUP6 DUP4 SHL DUP5 ADD ADD GT PUSH2 0x9F6 JUMPI DUP6 JUMPDEST DUP5 DUP2 LT PUSH2 0xDE7 JUMPI DUP7 DUP1 RETURN JUMPDEST PUSH2 0xDF7 DUP7 DUP3 DUP5 SHL DUP6 ADD ADD CALLDATALOAD PUSH2 0x1C86 JUMP JUMPDEST POP PUSH1 0x0 NOT DUP2 EQ PUSH2 0xE09 JUMPI PUSH1 0x1 ADD PUSH2 0xDDC JUMP JUMPDEST PUSH4 0x4E487B71 PUSH1 0xE0 SHL DUP8 MSTORE PUSH1 0x11 DUP5 MSTORE DUP6 DUP8 REVERT JUMPDEST POP SWAP1 CALLVALUE PUSH2 0x253 JUMPI PUSH1 0x20 CALLDATASIZE PUSH1 0x3 NOT ADD SLT PUSH2 0x253 JUMPI DUP2 CALLDATALOAD SWAP1 DUP2 DUP5 MSTORE PUSH1 0x7 PUSH1 0x20 MSTORE DUP1 DUP5 KECCAK256 CALLER PUSH1 0x0 MSTORE PUSH1 0x20 MSTORE DUP1 PUSH1 0x0 KECCAK256 SWAP3 DUP5 PUSH1 0x1 DUP6 SLOAD SWAP6 DUP3 DUP2 SSTORE ADD SSTORE DUP4 DUP6 PUSH2 0xE5E DUP6 PUSH2 0x1757 JUMP JUMPDEST SWAP1 SLOAD PUSH1 0x1 PUSH1 0x1 PUSH1 0xA0 SHL SUB SWAP5 PUSH1 0x3 SWAP3 SWAP1 SWAP3 SHL SHR DUP5 AND SWAP1 DUP2 PUSH2 0xEC9 JUMPI JUMPDEST POP POP POP PUSH2 0xE9A SWAP2 PUSH2 0xE89 DUP6 PUSH2 0x1772 JUMP JUMPDEST SWAP2 SWAP1 SWAP2 CALLER SWAP3 SLOAD SWAP1 PUSH1 0x3 SHL SHR AND PUSH2 0x2233 JUMP JUMPDEST MLOAD SWAP2 DUP3 MSTORE CALLER SWAP2 PUSH32 0x2CAC5E20E1541D836381527A43F651851E302817B71DC8E810284E69210C1C6B PUSH1 0x20 CALLER SWAP3 LOG4 DUP1 RETURN JUMPDEST SWAP1 DUP1 SWAP3 SWAP4 POP EXTCODESIZE ISZERO PUSH2 0x253 JUMPI DUP6 PUSH1 0xA4 DUP5 SWAP3 DUP4 DUP9 MLOAD SWAP6 DUP7 SWAP5 DUP6 SWAP4 PUSH4 0x23374925 PUSH1 0xE2 SHL DUP6 MSTORE DUP5 ADD MSTORE CALLER PUSH1 0x24 DUP5 ADD MSTORE CALLER PUSH1 0x44 DUP5 ADD MSTORE DUP2 PUSH1 0x64 DUP5 ADD MSTORE DUP2 PUSH1 0x84 DUP5 ADD MSTORE GAS CALL DUP1 ISZERO PUSH2 0xF38 JUMPI SWAP1 DUP7 SWAP3 SWAP2 PUSH2 0xF1D JUMPI JUMPDEST DUP1 PUSH2 0xE79 JUMP JUMPDEST PUSH2 0xF28 SWAP2 SWAP3 POP PUSH2 0x17E5 JUMP JUMPDEST PUSH2 0xF34 JUMPI DUP4 DUP6 CODESIZE PUSH2 0xF17 JUMP JUMPDEST DUP5 DUP1 REVERT JUMPDEST DUP5 MLOAD RETURNDATASIZE DUP5 DUP3 RETURNDATACOPY RETURNDATASIZE SWAP1 REVERT JUMPDEST POP SWAP2 CALLVALUE PUSH2 0x4E6 JUMPI PUSH1 0x20 CALLDATASIZE PUSH1 0x3 NOT ADD SLT PUSH2 0x4E6 JUMPI POP PUSH2 0xF63 PUSH2 0xFB2 SWAP3 CALLDATALOAD PUSH2 0x1C86 JUMP JUMPDEST SWAP1 MLOAD SWAP2 DUP3 SWAP2 DUP3 SWAP2 SWAP1 SWAP2 PUSH1 0x80 PUSH1 0xFF DUP2 PUSH1 0xA0 DUP5 ADD SWAP6 PUSH1 0x1 DUP1 DUP4 SHL SUB DUP2 MLOAD AND DUP6 MSTORE PUSH1 0x1 PUSH1 0x1 PUSH1 0x40 SHL SUB DUP1 PUSH1 0x20 DUP4 ADD MLOAD AND PUSH1 0x20 DUP8 ADD MSTORE PUSH1 0x40 DUP3 ADD MLOAD AND PUSH1 0x40 DUP7 ADD MSTORE PUSH1 0x60 DUP2 ADD MLOAD PUSH1 0x60 DUP7 ADD MSTORE ADD MLOAD AND SWAP2 ADD MSTORE JUMP JUMPDEST SUB SWAP1 RETURN JUMPDEST POP CALLVALUE PUSH2 0x253 JUMPI PUSH1 0x20 CALLDATASIZE PUSH1 0x3 NOT ADD SLT PUSH2 0x253 JUMPI PUSH32 0x9C7175DC5ACABADA721D84FAD025A613A3729F53C9D5402BD9278EF82A2A769 SWAP2 PUSH1 0x20 SWAP2 CALLDATALOAD SWAP1 PUSH2 0xFF7 PUSH2 0x178D JUMP JUMPDEST DUP2 PUSH1 0x2 SSTORE MLOAD SWAP1 DUP2 MSTORE LOG1 DUP1 RETURN JUMPDEST POP CALLVALUE PUSH2 0x253 JUMPI PUSH1 0x20 SWAP1 DUP2 PUSH1 0x3 NOT CALLDATASIZE ADD SLT PUSH2 0x48D JUMPI PUSH1 0x3 SLOAD PUSH1 0x8 SHR PUSH1 0x1 PUSH1 0x1 PUSH1 0xA0 SHL SUB SWAP1 DUP2 AND SWAP4 DUP3 CALLDATALOAD SWAP4 SWAP2 DUP6 ISZERO PUSH2 0x127D JUMPI DUP1 PUSH2 0x103D DUP7 PUSH2 0x1772 JUMP JUMPDEST SWAP1 SLOAD SWAP1 PUSH1 0x3 SHL SHR AND SWAP1 DUP3 MLOAD SWAP1 DUP9 PUSH4 0x70A08231 PUSH1 0xE0 SHL SWAP4 DUP5 DUP5 MSTORE DUP3 PUSH32 0x0 AND SWAP10 DUP11 DUP10 DUP7 ADD MSTORE DUP8 DUP6 PUSH1 0x24 DUP2 DUP6 GAS STATICCALL SWAP5 DUP6 ISZERO PUSH2 0x123F JUMPI SWAP1 DUP9 SWAP2 DUP5 SWAP7 PUSH2 0x1249 JUMPI JUMPDEST POP DUP8 MLOAD PUSH4 0x95EA7B3 PUSH1 0xE0 SHL DUP2 MSTORE PUSH1 0x1 PUSH1 0x1 PUSH1 0xA0 SHL SUB SWAP1 SWAP2 AND DUP2 DUP12 ADD SWAP1 DUP2 MSTORE PUSH1 0x20 DUP2 ADD DUP8 SWAP1 MSTORE SWAP1 SWAP2 SWAP1 DUP3 SWAP1 DUP2 SWAP1 PUSH1 0x40 ADD SUB DUP2 DUP7 DUP7 GAS CALL DUP1 ISZERO PUSH2 0x123F JUMPI SWAP1 DUP9 SWAP3 SWAP2 PUSH2 0x1212 JUMPI JUMPDEST POP PUSH1 0x24 DUP5 PUSH1 0x3 SLOAD PUSH1 0x8 SHR AND SWAP2 DUP9 MLOAD SWAP5 DUP6 SWAP4 DUP5 SWAP3 PUSH4 0xCE5494BB PUSH1 0xE0 SHL DUP5 MSTORE DUP14 DUP5 ADD MSTORE GAS CALL SWAP1 DUP2 ISZERO PUSH2 0x1208 JUMPI DUP11 SWAP2 PUSH2 0x11CE JUMPI JUMPDEST POP AND SWAP7 DUP4 MLOAD SWAP3 DUP4 MSTORE DUP6 DUP4 ADD MSTORE DUP4 DUP3 PUSH1 0x24 DUP2 DUP11 GAS STATICCALL SWAP2 DUP3 ISZERO PUSH2 0x11C4 JUMPI DUP9 SWAP3 PUSH2 0x1195 JUMPI JUMPDEST POP SUB PUSH2 0x1149 JUMPI POP POP POP PUSH2 0x59E PUSH2 0x1144 SWAP2 PUSH2 0x1772 JUMP JUMPDEST SWAP1 SSTORE DUP1 RETURN JUMPDEST MLOAD PUSH3 0x461BCD PUSH1 0xE5 SHL DUP2 MSTORE SWAP2 DUP3 ADD MSTORE PUSH1 0x22 PUSH1 0x24 DUP3 ADD MSTORE PUSH32 0x4368616F733A206D696772617465642062616C616E6365206D757374206D6174 PUSH1 0x44 DUP3 ADD MSTORE PUSH2 0xC6D PUSH1 0xF3 SHL PUSH1 0x64 DUP3 ADD MSTORE PUSH1 0x84 SWAP2 POP REVERT JUMPDEST SWAP1 SWAP2 POP DUP4 DUP2 DUP2 RETURNDATASIZE DUP4 GT PUSH2 0x11BD JUMPI JUMPDEST PUSH2 0x11AD DUP2 DUP4 PUSH2 0x1829 JUMP JUMPDEST DUP2 ADD SUB SLT PUSH2 0x8BE JUMPI MLOAD SWAP1 CODESIZE PUSH2 0x112F JUMP JUMPDEST POP RETURNDATASIZE PUSH2 0x11A3 JUMP JUMPDEST DUP4 MLOAD RETURNDATASIZE DUP11 DUP3 RETURNDATACOPY RETURNDATASIZE SWAP1 REVERT JUMPDEST SWAP1 POP DUP6 DUP2 DUP2 RETURNDATASIZE DUP4 GT PUSH2 0x1201 JUMPI JUMPDEST PUSH2 0x11E5 DUP2 DUP4 PUSH2 0x1829 JUMP JUMPDEST DUP2 ADD SUB SLT PUSH2 0x11FD JUMPI MLOAD DUP2 DUP2 AND DUP2 SUB PUSH2 0x11FD JUMPI CODESIZE PUSH2 0x110D JUMP JUMPDEST DUP10 DUP1 REVERT JUMPDEST POP RETURNDATASIZE PUSH2 0x11DB JUMP JUMPDEST DUP6 MLOAD RETURNDATASIZE DUP13 DUP3 RETURNDATACOPY RETURNDATASIZE SWAP1 REVERT JUMPDEST PUSH2 0x1231 SWAP1 DUP4 RETURNDATASIZE DUP6 GT PUSH2 0x1238 JUMPI JUMPDEST PUSH2 0x1229 DUP2 DUP4 PUSH2 0x1829 JUMP JUMPDEST DUP2 ADD SWAP1 PUSH2 0x1A4E JUMP JUMPDEST POP CODESIZE PUSH2 0x10DC JUMP JUMPDEST POP RETURNDATASIZE PUSH2 0x121F JUMP JUMPDEST DUP8 MLOAD RETURNDATASIZE DUP6 DUP3 RETURNDATACOPY RETURNDATASIZE SWAP1 REVERT JUMPDEST SWAP4 POP SWAP5 POP DUP3 DUP2 RETURNDATASIZE DUP4 GT PUSH2 0x1276 JUMPI JUMPDEST PUSH2 0x1261 DUP2 DUP4 PUSH2 0x1829 JUMP JUMPDEST DUP2 ADD SUB SLT PUSH2 0x8BE JUMPI DUP7 SWAP4 DUP12 SWAP3 MLOAD SWAP5 SWAP1 CODESIZE PUSH2 0x1098 JUMP JUMPDEST POP RETURNDATASIZE PUSH2 0x1257 JUMP JUMPDEST POP MLOAD PUSH3 0x461BCD PUSH1 0xE5 SHL DUP2 MSTORE SWAP2 DUP3 ADD MSTORE PUSH1 0x16 PUSH1 0x24 DUP3 ADD MSTORE PUSH22 0x10DA185BDCCE881B9BC81B5A59DC985D1BDC881CD95D PUSH1 0x52 SHL PUSH1 0x44 DUP3 ADD MSTORE PUSH1 0x64 SWAP2 POP REVERT JUMPDEST POP CALLVALUE PUSH2 0x253 JUMPI DUP3 PUSH1 0x3 NOT CALLDATASIZE ADD SLT PUSH2 0x253 JUMPI PUSH1 0x20 PUSH1 0x24 SWAP2 PUSH2 0x12D6 PUSH2 0x178D JUMP JUMPDEST DUP4 MLOAD PUSH4 0x70A08231 PUSH1 0xE0 SHL DUP2 MSTORE PUSH1 0x1 PUSH1 0x1 PUSH1 0xA0 SHL SUB PUSH32 0x0 DUP2 AND SWAP3 DUP3 ADD SWAP3 SWAP1 SWAP3 MSTORE SWAP3 DUP4 SWAP2 DUP3 SWAP1 PUSH32 0x0 AND GAS STATICCALL SWAP2 DUP3 ISZERO PUSH2 0x1390 JUMPI POP DUP3 SWAP2 PUSH2 0x135F JUMPI JUMPDEST POP DUP1 PUSH2 0x1356 JUMPI POP DUP1 RETURN JUMPDEST PUSH2 0x97A SWAP1 PUSH2 0x2417 JUMP JUMPDEST SWAP1 POP PUSH1 0x20 DUP2 RETURNDATASIZE DUP3 GT PUSH2 0x1388 JUMPI JUMPDEST DUP2 PUSH2 0x1379 PUSH1 0x20 SWAP4 DUP4 PUSH2 0x1829 JUMP JUMPDEST DUP2 ADD SUB SLT PUSH2 0x8BE JUMPI MLOAD CODESIZE PUSH2 0x134C JUMP JUMPDEST RETURNDATASIZE SWAP2 POP PUSH2 0x136C JUMP JUMPDEST MLOAD RETURNDATASIZE DUP5 DUP3 RETURNDATACOPY RETURNDATASIZE SWAP1 REVERT JUMPDEST POP SWAP2 CALLVALUE PUSH2 0x4E6 JUMPI PUSH1 0x20 CALLDATASIZE PUSH1 0x3 NOT ADD SLT PUSH2 0x4E6 JUMPI POP PUSH2 0xF63 PUSH2 0x13C6 PUSH2 0xFB2 SWAP4 PUSH2 0x13BF PUSH2 0x18D7 JUMP JUMPDEST POP CALLDATALOAD PUSH2 0x1722 JUMP JUMPDEST POP PUSH2 0x1902 JUMP JUMPDEST DUP4 DUP3 CALLVALUE PUSH2 0x29B JUMPI PUSH1 0x20 CALLDATASIZE PUSH1 0x3 NOT ADD SLT PUSH2 0x29B JUMPI PUSH2 0x97A SWAP1 PUSH2 0x13EB PUSH2 0x178D JUMP JUMPDEST CALLDATALOAD PUSH2 0x2417 JUMP JUMPDEST DUP4 DUP3 CALLVALUE PUSH2 0x29B JUMPI PUSH1 0x20 CALLDATASIZE PUSH1 0x3 NOT ADD SLT PUSH2 0x29B JUMPI CALLDATALOAD PUSH1 0x1 PUSH1 0x1 PUSH1 0xA0 SHL SUB DUP2 AND DUP2 SUB PUSH2 0x29B JUMPI PUSH2 0x141D PUSH2 0x178D JUMP JUMPDEST PUSH1 0x3 DUP1 SLOAD PUSH2 0x100 PUSH1 0x1 PUSH1 0xA8 SHL SUB NOT AND PUSH1 0x8 SWAP3 SWAP1 SWAP3 SHL PUSH2 0x100 PUSH1 0x1 PUSH1 0xA8 SHL SUB AND SWAP2 SWAP1 SWAP2 OR SWAP1 SSTORE DUP1 RETURN JUMPDEST POP POP CALLVALUE PUSH2 0x29B JUMPI DUP2 PUSH1 0x3 NOT CALLDATASIZE ADD SLT PUSH2 0x29B JUMPI PUSH1 0x20 SWAP1 PUSH1 0x2 SLOAD SWAP1 MLOAD SWAP1 DUP2 MSTORE RETURN JUMPDEST POP SWAP1 CALLVALUE PUSH2 0x253 JUMPI CALLDATASIZE PUSH1 0x3 NOT ADD SLT PUSH2 0x29B JUMPI PUSH2 0x97A SWAP1 PUSH2 0x1481 PUSH2 0x16B6 JUMP JUMPDEST SWAP1 CALLDATALOAD PUSH2 0x22A1 JUMP JUMPDEST POP POP CALLVALUE PUSH2 0x29B JUMPI DUP2 PUSH1 0x3 NOT CALLDATASIZE ADD SLT PUSH2 0x29B JUMPI PUSH1 0x20 SWAP1 PUSH1 0x8 SLOAD SWAP1 MLOAD SWAP1 DUP2 MSTORE RETURN JUMPDEST POP SWAP2 CALLVALUE PUSH2 0x4E6 JUMPI PUSH1 0x20 CALLDATASIZE PUSH1 0x3 NOT ADD SLT PUSH2 0x4E6 JUMPI DUP3 CALLDATALOAD SWAP3 SLOAD DUP4 LT ISZERO PUSH2 0x4E6 JUMPI POP PUSH2 0x14D1 PUSH1 0xA0 SWAP3 PUSH2 0x1722 JUMP JUMPDEST POP SWAP1 DUP2 SLOAD SWAP2 PUSH1 0xFF PUSH1 0x2 PUSH1 0x1 DUP4 ADD SLOAD SWAP3 ADD SLOAD AND SWAP2 DUP1 MLOAD SWAP4 PUSH1 0x1 DUP1 PUSH1 0x80 SHL SUB DUP2 AND DUP6 MSTORE PUSH1 0x1 PUSH1 0x1 PUSH1 0x40 SHL SUB DUP2 PUSH1 0x80 SHR AND PUSH1 0x20 DUP7 ADD MSTORE PUSH1 0xC0 SHR SWAP1 DUP5 ADD MSTORE PUSH1 0x60 DUP4 ADD MSTORE PUSH1 0x80 DUP3 ADD MSTORE RETURN JUMPDEST POP SWAP2 CALLVALUE PUSH2 0x4E6 JUMPI PUSH1 0x20 CALLDATASIZE PUSH1 0x3 NOT ADD SLT PUSH2 0x4E6 JUMPI POP PUSH2 0x4DF PUSH1 0x20 SWAP3 CALLDATALOAD PUSH2 0x1C5A JUMP JUMPDEST POP SWAP1 CALLVALUE PUSH2 0x253 JUMPI PUSH2 0x1547 CALLDATASIZE PUSH2 0x16F8 JUMP JUMPDEST SWAP1 SWAP4 SWAP2 SWAP3 PUSH2 0x1554 DUP5 PUSH2 0x1C86 JUMP JUMPDEST DUP5 DUP8 MSTORE PUSH1 0x7 PUSH1 0x20 MSTORE DUP2 DUP8 KECCAK256 CALLER DUP9 MSTORE PUSH1 0x20 MSTORE DUP2 DUP8 KECCAK256 SWAP1 PUSH1 0x1 DUP3 ADD PUSH5 0xE8D4A51000 PUSH2 0x1589 DUP3 SLOAD SWAP4 PUSH1 0x1 DUP1 PUSH1 0x80 SHL SUB SWAP1 MLOAD AND DUP11 PUSH2 0x194E JUMP JUMPDEST DIV SWAP2 DUP10 DUP4 DUP3 SUB SWAP4 SLT DUP2 DUP5 SLT DUP2 AND SWAP2 DUP5 SGT SWAP1 ISZERO AND OR PUSH2 0x1687 JUMPI SSTORE DUP1 SLOAD DUP7 DUP2 LT ISZERO PUSH2 0x15B0 JUMPI DUP8 DUP1 RETURN JUMPDEST DUP7 PUSH2 0x15BA SWAP2 PUSH2 0x1A41 JUMP JUMPDEST DUP1 SWAP2 SSTORE DUP7 PUSH2 0x15C7 DUP7 PUSH2 0x1757 JUMP JUMPDEST SWAP1 SLOAD PUSH1 0x1 PUSH1 0x1 PUSH1 0xA0 SHL SUB SWAP7 SWAP2 PUSH1 0x3 SHL SHR DUP7 AND DUP1 PUSH2 0x1629 JUMPI JUMPDEST POP POP POP POP PUSH2 0x15F2 DUP6 DUP4 DUP6 PUSH2 0x3AD DUP9 PUSH2 0x1772 JUMP JUMPDEST MLOAD SWAP4 DUP5 MSTORE AND SWAP2 PUSH32 0x8166BF25F8A2B7ED3C85049207DA4358D16EDBED977D23FA2EE6F0DDE3EC2132 PUSH1 0x20 CALLER SWAP3 LOG4 CODESIZE DUP1 DUP1 DUP1 DUP1 DUP1 DUP1 DUP8 DUP1 RETURN JUMPDEST DUP1 EXTCODESIZE ISZERO PUSH2 0x253 JUMPI DUP6 SWAP2 DUP4 DUP10 PUSH2 0x1653 DUP9 MLOAD SWAP8 DUP9 SWAP7 DUP8 SWAP6 DUP7 SWAP5 PUSH4 0x23374925 PUSH1 0xE2 SHL DUP7 MSTORE CALLER SWAP2 DUP7 ADD PUSH2 0x1E55 JUMP JUMPDEST SUB SWAP3 GAS CALL DUP1 ISZERO PUSH2 0x167D JUMPI PUSH2 0x166A JUMPI JUMPDEST DUP7 DUP2 DUP1 PUSH2 0x15DF JUMP JUMPDEST PUSH2 0x1676 SWAP1 SWAP7 SWAP2 SWAP7 PUSH2 0x17E5 JUMP JUMPDEST SWAP5 CODESIZE PUSH2 0x1662 JUMP JUMPDEST DUP3 MLOAD RETURNDATASIZE DUP10 DUP3 RETURNDATACOPY RETURNDATASIZE SWAP1 REVERT JUMPDEST PUSH4 0x4E487B71 PUSH1 0xE0 SHL DUP10 MSTORE PUSH1 0x11 DUP7 MSTORE PUSH1 0x24 DUP10 REVERT JUMPDEST SWAP3 POP POP CALLVALUE PUSH2 0x253 JUMPI DUP3 PUSH1 0x3 NOT CALLDATASIZE ADD SLT PUSH2 0x253 JUMPI PUSH1 0x20 SWAP3 POP SLOAD DUP2 MSTORE RETURN JUMPDEST PUSH1 0x24 CALLDATALOAD SWAP1 PUSH1 0x1 PUSH1 0x1 PUSH1 0xA0 SHL SUB DUP3 AND DUP3 SUB PUSH2 0x8BE JUMPI JUMP JUMPDEST PUSH1 0x4 CALLDATALOAD SWAP1 PUSH1 0x1 PUSH1 0x1 PUSH1 0xA0 SHL SUB DUP3 AND DUP3 SUB PUSH2 0x8BE JUMPI JUMP JUMPDEST PUSH1 0x44 CALLDATALOAD SWAP1 PUSH1 0x1 PUSH1 0x1 PUSH1 0xA0 SHL SUB DUP3 AND DUP3 SUB PUSH2 0x8BE JUMPI JUMP JUMPDEST PUSH1 0x60 SWAP1 PUSH1 0x3 NOT ADD SLT PUSH2 0x8BE JUMPI PUSH1 0x4 CALLDATALOAD SWAP1 PUSH1 0x24 CALLDATALOAD SWAP1 PUSH1 0x44 CALLDATALOAD PUSH1 0x1 PUSH1 0x1 PUSH1 0xA0 SHL SUB DUP2 AND DUP2 SUB PUSH2 0x8BE JUMPI SWAP1 JUMP JUMPDEST PUSH1 0x4 SLOAD DUP2 LT ISZERO PUSH2 0x1741 JUMPI PUSH1 0x4 PUSH1 0x0 MSTORE PUSH1 0x3 PUSH1 0x20 PUSH1 0x0 KECCAK256 SWAP2 MUL ADD SWAP1 PUSH1 0x0 SWAP1 JUMP JUMPDEST PUSH4 0x4E487B71 PUSH1 0xE0 SHL PUSH1 0x0 MSTORE PUSH1 0x32 PUSH1 0x4 MSTORE PUSH1 0x24 PUSH1 0x0 REVERT JUMPDEST PUSH1 0x6 SLOAD DUP2 LT ISZERO PUSH2 0x1741 JUMPI PUSH1 0x6 PUSH1 0x0 MSTORE PUSH1 0x20 PUSH1 0x0 KECCAK256 ADD SWAP1 PUSH1 0x0 SWAP1 JUMP JUMPDEST PUSH1 0x5 SLOAD DUP2 LT ISZERO PUSH2 0x1741 JUMPI PUSH1 0x5 PUSH1 0x0 MSTORE PUSH1 0x20 PUSH1 0x0 KECCAK256 ADD SWAP1 PUSH1 0x0 SWAP1 JUMP JUMPDEST PUSH1 0x0 SLOAD PUSH1 0x1 PUSH1 0x1 PUSH1 0xA0 SHL SUB AND CALLER SUB PUSH2 0x17A1 JUMPI JUMP JUMPDEST PUSH1 0x64 PUSH1 0x40 MLOAD PUSH3 0x461BCD PUSH1 0xE5 SHL DUP2 MSTORE PUSH1 0x20 PUSH1 0x4 DUP3 ADD MSTORE PUSH1 0x20 PUSH1 0x24 DUP3 ADD MSTORE PUSH32 0x4F776E61626C653A2063616C6C6572206973206E6F7420746865206F776E6572 PUSH1 0x44 DUP3 ADD MSTORE REVERT JUMPDEST PUSH1 0x1 PUSH1 0x1 PUSH1 0x40 SHL SUB DUP2 GT PUSH2 0x17F8 JUMPI PUSH1 0x40 MSTORE JUMP JUMPDEST PUSH4 0x4E487B71 PUSH1 0xE0 SHL PUSH1 0x0 MSTORE PUSH1 0x41 PUSH1 0x4 MSTORE PUSH1 0x24 PUSH1 0x0 REVERT JUMPDEST PUSH1 0xA0 DUP2 ADD SWAP1 DUP2 LT PUSH1 0x1 PUSH1 0x1 PUSH1 0x40 SHL SUB DUP3 GT OR PUSH2 0x17F8 JUMPI PUSH1 0x40 MSTORE JUMP JUMPDEST SWAP1 PUSH1 0x1F DUP1 NOT SWAP2 ADD AND DUP2 ADD SWAP1 DUP2 LT PUSH1 0x1 PUSH1 0x1 PUSH1 0x40 SHL SUB DUP3 GT OR PUSH2 0x17F8 JUMPI PUSH1 0x40 MSTORE JUMP JUMPDEST ISZERO PUSH2 0x1851 JUMPI JUMP JUMPDEST PUSH1 0x40 MLOAD PUSH3 0x461BCD PUSH1 0xE5 SHL DUP2 MSTORE PUSH1 0x20 PUSH1 0x4 DUP3 ADD MSTORE PUSH1 0x21 PUSH1 0x24 DUP3 ADD MSTORE PUSH32 0x4368616F733A20496E73756666696369656E74204348414F532062616C616E63 PUSH1 0x44 DUP3 ADD MSTORE PUSH1 0x65 PUSH1 0xF8 SHL PUSH1 0x64 DUP3 ADD MSTORE PUSH1 0x84 SWAP1 REVERT JUMPDEST SWAP2 SWAP1 DUP3 ADD DUP1 SWAP3 GT PUSH2 0x18AD JUMPI JUMP JUMPDEST PUSH4 0x4E487B71 PUSH1 0xE0 SHL PUSH1 0x0 MSTORE PUSH1 0x11 PUSH1 0x4 MSTORE PUSH1 0x24 PUSH1 0x0 REVERT JUMPDEST SWAP1 PUSH1 0xFF DUP1 SWAP2 AND SWAP2 AND SUB SWAP1 PUSH1 0xFF DUP3 GT PUSH2 0x18AD JUMPI JUMP JUMPDEST PUSH1 0x40 MLOAD SWAP1 PUSH2 0x18E4 DUP3 PUSH2 0x180E JUMP JUMPDEST PUSH1 0x0 PUSH1 0x80 DUP4 DUP3 DUP2 MSTORE DUP3 PUSH1 0x20 DUP3 ADD MSTORE DUP3 PUSH1 0x40 DUP3 ADD MSTORE DUP3 PUSH1 0x60 DUP3 ADD MSTORE ADD MSTORE JUMP JUMPDEST SWAP1 PUSH1 0x40 MLOAD PUSH2 0x190F DUP2 PUSH2 0x180E JUMP JUMPDEST PUSH1 0x80 PUSH1 0xFF PUSH1 0x2 DUP4 SWAP6 DUP1 SLOAD PUSH1 0x1 DUP1 DUP7 SHL SUB DUP2 AND DUP7 MSTORE PUSH1 0x1 PUSH1 0x1 PUSH1 0x40 SHL SUB DUP2 DUP7 SHR AND PUSH1 0x20 DUP8 ADD MSTORE PUSH1 0xC0 SHR PUSH1 0x40 DUP7 ADD MSTORE PUSH1 0x1 DUP2 ADD SLOAD PUSH1 0x60 DUP7 ADD MSTORE ADD SLOAD AND SWAP2 ADD MSTORE JUMP JUMPDEST DUP2 DUP2 MUL SWAP3 SWAP2 DUP2 ISZERO SWAP2 DUP5 DIV EQ OR ISZERO PUSH2 0x18AD JUMPI JUMP JUMPDEST DUP2 ISZERO PUSH2 0x196B JUMPI DIV SWAP1 JUMP JUMPDEST PUSH4 0x4E487B71 PUSH1 0xE0 SHL PUSH1 0x0 MSTORE PUSH1 0x12 PUSH1 0x4 MSTORE PUSH1 0x24 PUSH1 0x0 REVERT JUMPDEST PUSH1 0xFF PUSH1 0x3 SLOAD AND SWAP1 DUP2 ISZERO PUSH2 0x19BF JUMPI PUSH1 0x2 PUSH2 0x199B PUSH1 0xFF SWAP3 PUSH2 0x1722 JUMP JUMPDEST POP ADD SLOAD AND SWAP1 PUSH1 0x64 DUP3 MUL SWAP2 DUP1 DUP4 DIV PUSH1 0x64 EQ SWAP1 ISZERO OR ISZERO PUSH2 0x18AD JUMPI PUSH2 0x19BC SWAP2 PUSH2 0x1961 JUMP JUMPDEST SWAP1 JUMP JUMPDEST POP POP PUSH1 0x0 SWAP1 JUMP JUMPDEST SWAP1 PUSH2 0x1A2B JUMPI DUP2 MLOAD PUSH1 0x20 DUP4 ADD MLOAD PUSH1 0x40 DUP5 ADD MLOAD PUSH1 0x1 PUSH1 0x1 PUSH1 0xC0 SHL SUB NOT PUSH1 0xC0 SWAP2 SWAP1 SWAP2 SHL AND PUSH1 0x1 PUSH1 0x1 PUSH1 0x80 SHL SUB SWAP1 SWAP3 AND PUSH8 0xFFFFFFFFFFFFFFFF PUSH1 0x80 SHL PUSH1 0x80 SWAP3 DUP4 SHL AND OR SWAP2 SWAP1 SWAP2 OR DUP3 SSTORE PUSH1 0xFF SWAP2 PUSH1 0x2 SWAP1 PUSH1 0x60 DUP6 ADD MLOAD PUSH1 0x1 DUP3 ADD SSTORE ADD SWAP3 ADD MLOAD AND PUSH1 0xFF NOT DUP3 SLOAD AND OR SWAP1 SSTORE JUMP JUMPDEST PUSH4 0x4E487B71 PUSH1 0xE0 SHL PUSH1 0x0 MSTORE PUSH1 0x0 PUSH1 0x4 MSTORE PUSH1 0x24 PUSH1 0x0 REVERT JUMPDEST SWAP2 SWAP1 DUP3 SUB SWAP2 DUP3 GT PUSH2 0x18AD JUMPI JUMP JUMPDEST SWAP1 DUP2 PUSH1 0x20 SWAP2 SUB SLT PUSH2 0x8BE JUMPI MLOAD DUP1 ISZERO ISZERO DUP2 SUB PUSH2 0x8BE JUMPI SWAP1 JUMP JUMPDEST SWAP1 PUSH2 0x1A73 PUSH2 0x13C6 DUP4 PUSH2 0x1722 JUMP JUMPDEST SWAP2 PUSH1 0x0 SWAP2 DUP2 DUP4 MSTORE PUSH1 0x20 SWAP4 PUSH1 0x7 DUP6 MSTORE PUSH1 0x40 DUP5 KECCAK256 PUSH1 0x1 DUP1 PUSH1 0xA0 SHL SUB DUP1 SWAP4 AND DUP6 MSTORE DUP6 MSTORE PUSH1 0x40 DUP5 KECCAK256 SWAP5 PUSH1 0x1 DUP1 PUSH1 0x80 SHL SUB DUP3 MLOAD AND SWAP4 DUP5 ISZERO PUSH2 0x1C50 JUMPI DUP2 PUSH1 0x24 PUSH2 0x1AB5 DUP4 PUSH2 0x1772 JUMP JUMPDEST SWAP2 SWAP1 SLOAD SWAP2 PUSH1 0x40 MLOAD SWAP8 DUP9 SWAP4 DUP5 SWAP3 PUSH4 0x70A08231 PUSH1 0xE0 SHL DUP5 MSTORE DUP3 PUSH32 0x0 AND PUSH1 0x4 DUP6 ADD MSTORE PUSH1 0x3 SHL SHR AND GAS STATICCALL SWAP4 DUP5 ISZERO PUSH2 0x1C45 JUMPI DUP7 SWAP5 PUSH2 0x1C16 JUMPI JUMPDEST POP PUSH1 0x1 PUSH1 0x1 PUSH1 0x40 SHL SUB DUP1 SWAP3 DUP5 ADD MLOAD AND DUP1 NUMBER GT DUP1 PUSH2 0x1C0D JUMPI JUMPDEST DUP1 PUSH2 0x1C02 JUMPI JUMPDEST PUSH2 0x1B76 JUMPI JUMPDEST POP POP POP POP POP PUSH5 0xE8D4A51000 PUSH2 0x1B43 PUSH1 0x1 SWAP3 DUP6 SLOAD PUSH2 0x194E JUMP JUMPDEST DIV SWAP3 ADD SLOAD SWAP2 DUP2 DUP4 DUP3 SUB SWAP4 SLT DUP2 DUP5 SLT DUP2 AND SWAP2 DUP5 SGT SWAP1 ISZERO AND OR PUSH2 0x1B62 JUMPI POP SWAP1 JUMP JUMPDEST PUSH4 0x4E487B71 PUSH1 0xE0 SHL DUP2 MSTORE PUSH1 0x11 PUSH1 0x4 MSTORE PUSH1 0x24 SWAP1 REVERT JUMPDEST SWAP2 PUSH1 0x40 PUSH2 0x1B9D PUSH2 0x1BB0 SWAP6 SWAP4 PUSH2 0x1B97 PUSH2 0x1B91 PUSH2 0x1BA7 SWAP8 NUMBER PUSH2 0x1A41 JUMP JUMPDEST SWAP2 PUSH2 0x1C5A JUMP JUMPDEST SWAP1 PUSH2 0x194E JUMP JUMPDEST SWAP3 ADD MLOAD AND SWAP1 PUSH2 0x194E JUMP JUMPDEST PUSH1 0x8 SLOAD SWAP1 PUSH2 0x1961 JUMP JUMPDEST PUSH5 0xE8D4A51000 SWAP1 DUP2 DUP2 MUL SWAP2 DUP2 DUP4 DIV EQ SWAP1 ISZERO OR ISZERO PUSH2 0x1BEE JUMPI PUSH2 0x1BE6 PUSH1 0x1 SWAP4 PUSH2 0x1BE0 PUSH5 0xE8D4A51000 SWAP5 PUSH2 0x1B43 SWAP5 PUSH2 0x1961 JUMP JUMPDEST SWAP1 PUSH2 0x18A0 JUMP JUMPDEST SWAP3 CODESIZE DUP1 PUSH2 0x1B2B JUMP JUMPDEST PUSH4 0x4E487B71 PUSH1 0xE0 SHL DUP5 MSTORE PUSH1 0x11 PUSH1 0x4 MSTORE PUSH1 0x24 DUP5 REVERT JUMPDEST POP PUSH1 0x8 SLOAD ISZERO ISZERO PUSH2 0x1B26 JUMP JUMPDEST POP DUP5 ISZERO ISZERO PUSH2 0x1B20 JUMP JUMPDEST SWAP1 SWAP4 POP DUP2 DUP2 DUP2 RETURNDATASIZE DUP4 GT PUSH2 0x1C3E JUMPI JUMPDEST PUSH2 0x1C2E DUP2 DUP4 PUSH2 0x1829 JUMP JUMPDEST DUP2 ADD SUB SLT PUSH2 0x9F6 JUMPI MLOAD SWAP3 CODESIZE PUSH2 0x1B08 JUMP JUMPDEST POP RETURNDATASIZE PUSH2 0x1C24 JUMP JUMPDEST PUSH1 0x40 MLOAD RETURNDATASIZE DUP9 DUP3 RETURNDATACOPY RETURNDATASIZE SWAP1 REVERT JUMPDEST POP POP POP POP POP SWAP1 POP SWAP1 JUMP JUMPDEST PUSH2 0x1C7A PUSH2 0x19BC SWAP2 PUSH1 0xFF PUSH1 0x2 PUSH2 0x1C70 DUP2 SLOAD SWAP4 PUSH2 0x1722 JUMP JUMPDEST POP ADD SLOAD AND SWAP1 PUSH2 0x194E JUMP JUMPDEST PUSH1 0xFF PUSH1 0x3 SLOAD AND SWAP1 PUSH2 0x1961 JUMP JUMPDEST SWAP1 PUSH2 0x1C8F PUSH2 0x18D7 JUMP JUMPDEST POP PUSH2 0x1C9C PUSH2 0x13C6 DUP4 PUSH2 0x1722 JUMP JUMPDEST SWAP2 PUSH1 0x20 DUP1 DUP5 ADD PUSH1 0x1 PUSH1 0x1 PUSH1 0x40 SHL SUB DUP1 DUP3 MLOAD AND NUMBER GT DUP1 PUSH2 0x1E4A JUMPI JUMPDEST PUSH2 0x1CC1 JUMPI JUMPDEST POP POP POP POP JUMP JUMPDEST DUP3 SWAP2 PUSH2 0x1CCC DUP6 PUSH2 0x1772 JUMP JUMPDEST SWAP5 SWAP1 SLOAD PUSH1 0x24 PUSH1 0x40 MLOAD DUP1 SWAP8 DUP2 SWAP4 PUSH4 0x70A08231 PUSH1 0xE0 SHL DUP4 MSTORE PUSH1 0x1 DUP1 PUSH1 0xA0 SHL SUB SWAP2 DUP3 PUSH32 0x0 AND PUSH1 0x4 DUP6 ADD MSTORE PUSH1 0x3 SHL SHR AND GAS STATICCALL SWAP4 DUP5 ISZERO PUSH2 0x1E3E JUMPI PUSH1 0x0 SWAP5 PUSH2 0x1E0F JUMPI JUMPDEST POP DUP4 PUSH2 0x1D96 JUMPI JUMPDEST SWAP2 DUP2 PUSH1 0x60 SWAP4 PUSH32 0xFC9545022A542541AD085D091FB09A2AB36FEE366A4576AB63714EA907AD353 SWAP6 SWAP4 PUSH2 0x1D60 NUMBER PUSH2 0x25D8 JUMP JUMPDEST AND DUP2 MSTORE PUSH2 0x1D70 DUP10 PUSH2 0x67D DUP10 PUSH2 0x1722 JUMP JUMPDEST MLOAD AND SWAP2 PUSH1 0x1 DUP1 PUSH1 0x80 SHL SUB DUP9 MLOAD AND SWAP2 PUSH1 0x40 MLOAD SWAP4 DUP5 MSTORE DUP4 ADD MSTORE PUSH1 0x40 DUP3 ADD MSTORE LOG2 CODESIZE DUP1 DUP1 DUP1 PUSH2 0x1CBB JUMP JUMPDEST SWAP2 PUSH2 0x1DC3 PUSH2 0x1BA7 PUSH2 0x1DB6 PUSH2 0x1DAD DUP6 DUP8 MLOAD AND NUMBER PUSH2 0x1A41 JUMP JUMPDEST PUSH2 0x1B97 DUP10 PUSH2 0x1C5A JUMP JUMPDEST DUP5 PUSH1 0x40 DUP12 ADD MLOAD AND SWAP1 PUSH2 0x194E JUMP JUMPDEST SWAP2 PUSH5 0xE8D4A51000 SWAP3 DUP4 DUP2 MUL SWAP4 DUP2 DUP6 DIV EQ SWAP1 ISZERO OR ISZERO PUSH2 0x18AD JUMPI PUSH1 0x1 PUSH1 0x1 PUSH1 0x80 SHL SUB SWAP5 SWAP3 DUP6 SWAP1 PUSH2 0x1DF2 SWAP1 DUP6 SWAP1 PUSH2 0x1961 JUMP JUMPDEST AND DUP6 DUP10 MLOAD AND ADD SWAP4 DUP6 DUP6 GT PUSH2 0x18AD JUMPI SWAP4 SWAP1 SWAP5 AND DUP8 MSTORE SWAP1 SWAP3 SWAP1 SWAP2 PUSH2 0x1D2F JUMP JUMPDEST SWAP1 SWAP4 DUP4 DUP3 DUP2 RETURNDATASIZE DUP4 GT PUSH2 0x1E37 JUMPI JUMPDEST PUSH2 0x1E26 DUP2 DUP4 PUSH2 0x1829 JUMP JUMPDEST DUP2 ADD SUB SLT PUSH2 0x4E6 JUMPI POP MLOAD SWAP3 CODESIZE PUSH2 0x1D28 JUMP JUMPDEST POP RETURNDATASIZE PUSH2 0x1E1C JUMP JUMPDEST PUSH1 0x40 MLOAD RETURNDATASIZE PUSH1 0x0 DUP3 RETURNDATACOPY RETURNDATASIZE SWAP1 REVERT JUMPDEST POP PUSH1 0x8 SLOAD ISZERO ISZERO PUSH2 0x1CB6 JUMP JUMPDEST SWAP1 DUP2 MSTORE PUSH1 0x1 PUSH1 0x1 PUSH1 0xA0 SHL SUB SWAP2 DUP3 AND PUSH1 0x20 DUP3 ADD MSTORE SWAP2 AND PUSH1 0x40 DUP3 ADD MSTORE PUSH1 0x0 PUSH1 0x60 DUP3 ADD MSTORE PUSH1 0x80 DUP2 ADD SWAP2 SWAP1 SWAP2 MSTORE PUSH1 0xA0 ADD SWAP1 JUMP JUMPDEST SWAP1 PUSH2 0x1E8E DUP3 PUSH2 0x1C86 JUMP JUMPDEST PUSH1 0x0 SWAP4 DUP4 DUP6 MSTORE PUSH1 0x7 PUSH1 0x20 MSTORE PUSH1 0x40 SWAP2 DUP3 DUP7 KECCAK256 SWAP6 PUSH1 0x1 DUP1 PUSH1 0xA0 SHL SUB SWAP3 DUP4 DUP2 AND SWAP8 DUP9 DUP4 MSTORE PUSH1 0x20 MSTORE DUP5 DUP3 KECCAK256 SWAP3 PUSH1 0x1 PUSH2 0x1EC3 DUP9 DUP7 SLOAD PUSH2 0x18A0 JUMP JUMPDEST DUP1 DUP7 SSTORE SWAP5 ADD DUP1 SLOAD SWAP2 MLOAD PUSH5 0xE8D4A51000 SWAP1 PUSH2 0x1EE6 SWAP1 PUSH1 0x1 PUSH1 0x1 PUSH1 0x80 SHL SUB AND DUP11 PUSH2 0x194E JUMP JUMPDEST DIV SWAP2 DUP5 DUP4 DUP3 ADD SWAP4 DUP5 SLT SWAP2 SLT SWAP1 DUP1 ISZERO DUP3 AND SWAP2 ISZERO AND OR PUSH2 0x1BEE JUMPI SSTORE DUP4 PUSH2 0x1F09 DUP9 PUSH2 0x1757 JUMP JUMPDEST SWAP1 SLOAD SWAP1 PUSH1 0x3 SHL SHR AND DUP1 PUSH2 0x1FB2 JUMPI JUMPDEST POP POP POP POP DUP1 PUSH2 0x1F86 SWAP2 PUSH2 0x1F29 DUP7 PUSH2 0x1772 JUMP JUMPDEST SWAP1 SLOAD SWAP1 PUSH1 0x3 SHL SHR AND DUP4 MLOAD SWAP2 PUSH4 0x23B872DD PUSH1 0xE0 SHL PUSH1 0x20 DUP5 ADD MSTORE CALLER PUSH1 0x24 DUP5 ADD MSTORE PUSH32 0x0 AND PUSH1 0x44 DUP4 ADD MSTORE DUP5 PUSH1 0x64 DUP4 ADD MSTORE PUSH1 0x64 DUP3 MSTORE PUSH2 0x1F81 DUP3 PUSH2 0x180E JUMP JUMPDEST PUSH2 0x2017 JUMP JUMPDEST MLOAD SWAP1 DUP2 MSTORE PUSH32 0x2D7E648DD130FC184D383E55BB126AC4C9C60E8F94BF05ACDF557BA2D540B47 PUSH1 0x20 CALLER SWAP3 LOG4 JUMP JUMPDEST DUP1 EXTCODESIZE ISZERO PUSH2 0x253 JUMPI SWAP1 DUP3 SWAP2 DUP2 DUP4 DUP11 PUSH2 0x1FDE DUP11 MLOAD SWAP9 DUP10 SWAP7 DUP8 SWAP6 DUP7 SWAP5 PUSH4 0x23374925 PUSH1 0xE2 SHL DUP7 MSTORE PUSH1 0x4 DUP7 ADD PUSH2 0x1E55 JUMP JUMPDEST SUB SWAP3 GAS CALL SWAP1 DUP2 ISZERO PUSH2 0x200C JUMPI POP SWAP1 PUSH2 0x1F86 SWAP3 SWAP2 PUSH2 0x1FFD JUMPI JUMPDEST DUP2 SWAP3 DUP2 PUSH2 0x1F17 JUMP JUMPDEST PUSH2 0x2006 SWAP1 PUSH2 0x17E5 JUMP JUMPDEST CODESIZE PUSH2 0x1FF5 JUMP JUMPDEST DUP5 MLOAD SWAP1 RETURNDATASIZE SWAP1 DUP3 RETURNDATACOPY RETURNDATASIZE SWAP1 REVERT JUMPDEST PUSH1 0x40 DUP1 MLOAD PUSH1 0x1 PUSH1 0x1 PUSH1 0x40 SHL SUB SWAP5 SWAP4 PUSH1 0x1 PUSH1 0x1 PUSH1 0xA0 SHL SUB SWAP1 SWAP4 AND SWAP3 SWAP1 SWAP2 DUP3 ADD DUP6 DUP2 GT DUP4 DUP3 LT OR PUSH2 0x17F8 JUMPI PUSH1 0x40 MSTORE PUSH1 0x20 SWAP3 DUP4 DUP4 MSTORE PUSH32 0x5361666545524332303A206C6F772D6C6576656C2063616C6C206661696C6564 DUP5 DUP5 ADD MSTORE PUSH1 0x0 DUP1 DUP4 DUP7 DUP3 SWAP6 MLOAD SWAP2 ADD DUP3 DUP6 GAS CALL SWAP1 RETURNDATASIZE ISZERO PUSH2 0x2152 JUMPI RETURNDATASIZE SWAP7 DUP8 GT PUSH2 0x213E JUMPI PUSH2 0x20B6 SWAP5 SWAP6 SWAP7 PUSH1 0x40 MLOAD SWAP1 PUSH2 0x20A8 DUP9 PUSH1 0x1F NOT PUSH1 0x1F DUP5 ADD AND ADD DUP4 PUSH2 0x1829 JUMP JUMPDEST DUP2 MSTORE DUP1 SWAP4 DUP8 RETURNDATASIZE SWAP3 ADD RETURNDATACOPY PUSH2 0x215F JUMP JUMPDEST DUP1 MLOAD SWAP1 DUP3 DUP3 ISZERO SWAP3 DUP4 ISZERO PUSH2 0x2126 JUMPI JUMPDEST POP POP POP ISZERO PUSH2 0x20CF JUMPI POP JUMP JUMPDEST PUSH1 0x84 SWAP1 PUSH1 0x40 MLOAD SWAP1 PUSH3 0x461BCD PUSH1 0xE5 SHL DUP3 MSTORE PUSH1 0x4 DUP3 ADD MSTORE PUSH1 0x2A PUSH1 0x24 DUP3 ADD MSTORE PUSH32 0x5361666545524332303A204552433230206F7065726174696F6E20646964206E PUSH1 0x44 DUP3 ADD MSTORE PUSH10 0x1BDD081CDD58D8D95959 PUSH1 0xB2 SHL PUSH1 0x64 DUP3 ADD MSTORE REVERT JUMPDEST PUSH2 0x2136 SWAP4 POP DUP3 ADD DUP2 ADD SWAP2 ADD PUSH2 0x1A4E JUMP JUMPDEST CODESIZE DUP3 DUP2 PUSH2 0x20C4 JUMP JUMPDEST PUSH4 0x4E487B71 PUSH1 0xE0 SHL DUP4 MSTORE PUSH1 0x41 PUSH1 0x4 MSTORE PUSH1 0x24 DUP4 REVERT JUMPDEST SWAP2 POP PUSH2 0x20B6 SWAP4 SWAP5 SWAP6 POP PUSH1 0x60 SWAP2 JUMPDEST SWAP2 SWAP3 SWAP1 ISZERO PUSH2 0x21C1 JUMPI POP DUP2 MLOAD ISZERO PUSH2 0x2173 JUMPI POP SWAP1 JUMP JUMPDEST EXTCODESIZE ISZERO PUSH2 0x217C JUMPI SWAP1 JUMP JUMPDEST PUSH1 0x40 MLOAD PUSH3 0x461BCD PUSH1 0xE5 SHL DUP2 MSTORE PUSH1 0x20 PUSH1 0x4 DUP3 ADD MSTORE PUSH1 0x1D PUSH1 0x24 DUP3 ADD MSTORE PUSH32 0x416464726573733A2063616C6C20746F206E6F6E2D636F6E7472616374000000 PUSH1 0x44 DUP3 ADD MSTORE PUSH1 0x64 SWAP1 REVERT JUMPDEST DUP3 MLOAD SWAP1 SWAP2 POP ISZERO PUSH2 0x21D4 JUMPI POP DUP1 MLOAD SWAP1 PUSH1 0x20 ADD REVERT JUMPDEST PUSH1 0x40 MLOAD SWAP1 PUSH3 0x461BCD PUSH1 0xE5 SHL DUP3 MSTORE DUP2 PUSH1 0x20 DUP1 PUSH1 0x4 DUP4 ADD MSTORE DUP3 MLOAD SWAP1 DUP2 PUSH1 0x24 DUP5 ADD MSTORE PUSH1 0x0 SWAP4 JUMPDEST DUP3 DUP6 LT PUSH2 0x221A JUMPI POP POP PUSH1 0x44 SWAP3 POP PUSH1 0x0 DUP4 DUP3 DUP5 ADD ADD MSTORE PUSH1 0x1F DUP1 NOT SWAP2 ADD AND DUP2 ADD SUB ADD SWAP1 REVERT JUMPDEST DUP5 DUP2 ADD DUP3 ADD MLOAD DUP7 DUP7 ADD PUSH1 0x44 ADD MSTORE SWAP4 DUP2 ADD SWAP4 DUP6 SWAP4 POP PUSH2 0x21F7 JUMP JUMPDEST PUSH1 0x40 MLOAD PUSH4 0xA9059CBB PUSH1 0xE0 SHL PUSH1 0x20 DUP3 ADD MSTORE PUSH1 0x1 PUSH1 0x1 PUSH1 0xA0 SHL SUB SWAP3 SWAP1 SWAP3 AND PUSH1 0x24 DUP4 ADD MSTORE PUSH1 0x44 DUP1 DUP4 ADD SWAP4 SWAP1 SWAP4 MSTORE SWAP2 DUP2 MSTORE PUSH2 0x226F SWAP2 PUSH2 0x1F81 PUSH1 0x64 DUP4 PUSH2 0x1829 JUMP JUMPDEST JUMP JUMPDEST SWAP1 DUP2 MSTORE PUSH1 0x1 PUSH1 0x1 PUSH1 0xA0 SHL SUB SWAP2 DUP3 AND PUSH1 0x20 DUP3 ADD MSTORE SWAP2 AND PUSH1 0x40 DUP3 ADD MSTORE PUSH1 0x60 DUP2 ADD SWAP2 SWAP1 SWAP2 MSTORE PUSH1 0x80 DUP2 ADD SWAP2 SWAP1 SWAP2 MSTORE PUSH1 0xA0 ADD SWAP1 JUMP JUMPDEST SWAP1 PUSH2 0x22AB DUP3 PUSH2 0x1C86 JUMP JUMPDEST DUP1 MLOAD PUSH1 0x1 PUSH1 0x1 PUSH1 0x80 SHL SUB SWAP3 SWAP1 DUP4 AND ISZERO PUSH2 0x1CBB JUMPI PUSH5 0xE8D4A51000 PUSH2 0x22EC PUSH1 0x0 SWAP4 DUP7 DUP6 MSTORE PUSH1 0x7 PUSH1 0x20 MSTORE PUSH1 0x40 DUP6 KECCAK256 CALLER DUP7 MSTORE PUSH1 0x20 MSTORE PUSH1 0x40 DUP6 KECCAK256 SWAP6 DUP7 SLOAD SWAP2 MLOAD AND SWAP1 PUSH2 0x194E JUMP JUMPDEST DIV SWAP3 PUSH1 0x1 DUP2 ADD SWAP4 DUP5 SLOAD SWAP1 DUP2 DUP2 SUB SWAP6 DUP6 DUP4 SLT DUP3 DUP9 SLT DUP2 AND SWAP1 DUP4 DUP10 SGT SWAP1 ISZERO AND OR PUSH2 0x2403 JUMPI DUP2 SWAP1 SSTORE SUB PUSH2 0x23D3 JUMPI JUMPDEST PUSH2 0x2320 DUP6 PUSH2 0x1757 JUMP JUMPDEST SWAP1 SLOAD PUSH1 0x3 SWAP2 SWAP1 SWAP2 SHL SHR PUSH1 0x1 PUSH1 0x1 PUSH1 0xA0 SHL SUB AND SWAP1 DUP2 PUSH2 0x236B JUMPI JUMPDEST POP POP POP POP PUSH1 0x40 MLOAD SWAP1 DUP2 MSTORE PUSH32 0x71BAB65CED2E5750775A0613BE067DF48EF06CF92A496EBF7663AE0660924954 PUSH1 0x20 CALLER SWAP3 LOG3 JUMP JUMPDEST SLOAD SWAP2 DUP2 EXTCODESIZE ISZERO PUSH2 0x48D JUMPI SWAP2 DUP4 SWAP3 SWAP2 DUP6 DUP5 PUSH2 0x239F SWAP7 SWAP5 PUSH1 0x40 MLOAD SWAP8 DUP9 SWAP6 DUP7 SWAP5 DUP6 SWAP4 PUSH4 0x23374925 PUSH1 0xE2 SHL DUP6 MSTORE DUP14 CALLER SWAP1 PUSH1 0x4 DUP8 ADD PUSH2 0x2271 JUMP JUMPDEST SUB SWAP3 GAS CALL SWAP1 DUP2 ISZERO PUSH2 0x23C7 JUMPI POP PUSH2 0x23B8 JUMPI JUMPDEST DUP1 DUP1 DUP1 PUSH2 0x2339 JUMP JUMPDEST PUSH2 0x23C1 SWAP1 PUSH2 0x17E5 JUMP JUMPDEST CODESIZE PUSH2 0x23B0 JUMP JUMPDEST PUSH1 0x40 MLOAD SWAP1 RETURNDATASIZE SWAP1 DUP3 RETURNDATACOPY RETURNDATASIZE SWAP1 REVERT JUMPDEST PUSH2 0x23FE DUP5 DUP4 PUSH32 0x0 PUSH2 0x2233 JUMP JUMPDEST PUSH2 0x2317 JUMP JUMPDEST PUSH4 0x4E487B71 PUSH1 0xE0 SHL DUP7 MSTORE PUSH1 0x11 PUSH1 0x4 MSTORE PUSH1 0x24 DUP7 REVERT JUMPDEST PUSH1 0x40 DUP1 MLOAD PUSH4 0x70A08231 PUSH1 0xE0 SHL DUP2 MSTORE PUSH1 0x1 PUSH1 0x1 PUSH1 0xA0 SHL SUB PUSH32 0x0 DUP2 AND PUSH1 0x4 DUP4 ADD MSTORE SWAP2 SWAP4 SWAP3 PUSH1 0x20 SWAP3 SWAP1 SWAP2 PUSH32 0x0 DUP1 DUP4 AND SWAP3 SWAP1 SWAP2 DUP6 DUP2 PUSH1 0x24 DUP2 DUP8 GAS STATICCALL SWAP4 DUP5 ISZERO PUSH2 0x25CD JUMPI DUP7 SWAP2 PUSH1 0x0 SWAP6 PUSH2 0x2595 JUMPI JUMPDEST POP PUSH2 0x24AC PUSH1 0x0 SWAP6 DUP8 GT ISZERO PUSH2 0x184A JUMP JUMPDEST PUSH1 0x4 DUP10 MLOAD DUP1 SWAP7 DUP2 SWAP4 PUSH4 0x8DA5CB5B PUSH1 0xE0 SHL DUP4 MSTORE GAS CALL SWAP3 DUP4 ISZERO PUSH2 0x258A JUMPI PUSH1 0x0 SWAP4 PUSH2 0x2550 JUMPI JUMPDEST POP DUP3 AND ISZERO PUSH2 0x250C JUMPI DUP3 PUSH32 0x3D2A04F53164BEDF9A8A46353305D6B2D2261410406DF3B41F99CE6489DC003C SWAP6 SWAP7 SWAP3 PUSH2 0x2505 SWAP3 PUSH2 0x2233 JUMP JUMPDEST MLOAD SWAP1 DUP2 MSTORE LOG1 JUMP JUMPDEST DUP6 MLOAD PUSH3 0x461BCD PUSH1 0xE5 SHL DUP2 MSTORE PUSH1 0x4 DUP2 ADD DUP6 SWAP1 MSTORE PUSH1 0x1C PUSH1 0x24 DUP3 ADD MSTORE PUSH32 0x4368616F733A20496E76616C6964206F776E6572206164647265737300000000 PUSH1 0x44 DUP3 ADD MSTORE PUSH1 0x64 SWAP1 REVERT JUMPDEST DUP6 DUP2 DUP2 SWAP6 SWAP4 SWAP6 RETURNDATASIZE DUP4 GT PUSH2 0x2583 JUMPI JUMPDEST PUSH2 0x2568 DUP2 DUP4 PUSH2 0x1829 JUMP JUMPDEST DUP2 ADD SUB SLT PUSH2 0x29B JUMPI MLOAD SWAP1 DUP4 DUP3 AND DUP3 SUB PUSH2 0x4E6 JUMPI POP SWAP2 CODESIZE PUSH2 0x24CF JUMP JUMPDEST POP RETURNDATASIZE PUSH2 0x255E JUMP JUMPDEST DUP8 MLOAD RETURNDATASIZE PUSH1 0x0 DUP3 RETURNDATACOPY RETURNDATASIZE SWAP1 REVERT JUMPDEST SWAP2 DUP3 DUP2 SWAP7 SWAP3 SWAP5 SWAP6 SWAP7 RETURNDATASIZE DUP4 GT PUSH2 0x25C6 JUMPI JUMPDEST PUSH2 0x25AF DUP2 DUP4 PUSH2 0x1829 JUMP JUMPDEST DUP2 ADD SUB SLT PUSH2 0x4E6 JUMPI POP MLOAD SWAP3 SWAP2 SWAP1 DUP6 SWAP1 PUSH2 0x24AC PUSH2 0x249D JUMP JUMPDEST POP RETURNDATASIZE PUSH2 0x25A5 JUMP JUMPDEST DUP9 MLOAD RETURNDATASIZE PUSH1 0x0 DUP3 RETURNDATACOPY RETURNDATASIZE SWAP1 REVERT JUMPDEST PUSH1 0x1 PUSH1 0x1 PUSH1 0x40 SHL SUB SWAP1 DUP2 DUP2 GT PUSH2 0x25EC JUMPI AND SWAP1 JUMP JUMPDEST PUSH1 0x40 MLOAD PUSH3 0x461BCD PUSH1 0xE5 SHL DUP2 MSTORE PUSH1 0x20 PUSH1 0x4 DUP3 ADD MSTORE PUSH1 0x28 PUSH1 0x24 DUP3 ADD MSTORE PUSH32 0x536166654361737436343A2076616C756520646F65736E27742066697420696E PUSH1 0x44 DUP3 ADD MSTORE PUSH8 0x2036342062697473 PUSH1 0xC0 SHL PUSH1 0x64 DUP3 ADD MSTORE PUSH1 0x84 SWAP1 REVERT INVALID LOG2 PUSH5 0x6970667358 0x22 SLT KECCAK256 MUL BASEFEE ADDMOD LOG1 0xE3 SAR MSTORE8 CALLVALUE DUP12 PUSH3 0xD3F7BE 0xC7 0xA8 0xAC DUP11 0x1E 0xD4 PC 0x4D 0xC7 PUSH12 0xA57C10C379F627E79764736F PUSH13 0x63430008130033000000000000 "
        },
        "methodIdentifiers": {
          "CHAOS_TOKEN()": "ded844d2",
          "add(uint256,address,address)": "ab7de098",
          "allocateTokens(uint256,uint256)": "8fc264e0",
          "deposit(uint256,uint256,address)": "8dbdbe6d",
          "emergencyWithdraw(uint256)": "5312ea8e",
          "getPoolInfo(uint256)": "2f380b35",
          "getPoolWeightAsPercentage(uint256)": "9733894e",
          "harvest(uint256,address)": "18fccc76",
          "lpToken(uint256)": "78ed5d1f",
          "massUpdatePools(uint256[])": "57a5b58c",
          "migrate(uint256)": "454b0608",
          "migrator()": "7cd07e47",
          "owner()": "8da5cb5b",
          "pendingRewards(uint256,address)": "d18df53c",
          "poolInfo(uint256)": "1526fe27",
          "poolLength()": "081e3eda",
          "receiveApproval(address,uint256,address,bytes)": "8f4ffcb1",
          "refund(uint256)": "278ecde1",
          "refundAll()": "38e771ab",
          "renounceOwnership()": "715018a6",
          "rewarder(uint256)": "c346253d",
          "rewardsPerBlock(uint256)": "12ef2464",
          "set(uint256,uint256,address,bool)": "88bba42f",
          "setEmissionsPerBlock(uint256)": "50cfc63c",
          "setMigrator(address)": "23cf3118",
          "setVaultWeight(uint256,uint8)": "8cebd2ba",
          "tokensPerBlock()": "1a1cb01f",
          "totalAllocPoint()": "17caf6f1",
          "transferOwnership(address)": "f2fde38b",
          "updatePool(uint256)": "51eb05a6",
          "userInfo(uint256,address)": "93f1a40b",
          "withdraw(uint256,uint256,address)": "0ad58d2f",
          "withdrawAndHarvest(uint256,uint256,address)": "d1abb907"
        }
      }
    }
  }
}