{
  "contracts/core/merge/VultMerge.sol": {
    "VultMerge": {
      "abi": [
        {
          "inputs": [
            {
              "internalType": "address",
              "name": "_wewe",
              "type": "address"
            },
            {
              "internalType": "address",
              "name": "_vult",
              "type": "address"
            },
            {
              "internalType": "uint32",
              "name": "_vestingDuration",
              "type": "uint32"
            }
          ],
          "stateMutability": "nonpayable",
          "type": "constructor"
        },
        {
          "inputs": [],
          "name": "InvalidTokenReceived",
          "type": "error"
        },
        {
          "inputs": [],
          "name": "MergeLocked",
          "type": "error"
        },
        {
          "inputs": [],
          "name": "VultToWeweNotAllwed",
          "type": "error"
        },
        {
          "inputs": [],
          "name": "ZeroAmount",
          "type": "error"
        },
        {
          "anonymous": false,
          "inputs": [
            {
              "indexed": false,
              "internalType": "uint256",
              "name": "amount",
              "type": "uint256"
            },
            {
              "indexed": true,
              "internalType": "address",
              "name": "account",
              "type": "address"
            }
          ],
          "name": "Merged",
          "type": "event"
        },
        {
          "anonymous": false,
          "inputs": [
            {
              "indexed": true,
              "internalType": "address",
              "name": "previousOwner",
              "type": "address"
            },
            {
              "indexed": true,
              "internalType": "address",
              "name": "newOwner",
              "type": "address"
            }
          ],
          "name": "OwnershipTransferred",
          "type": "event"
        },
        {
          "anonymous": false,
          "inputs": [
            {
              "indexed": false,
              "internalType": "address",
              "name": "account",
              "type": "address"
            }
          ],
          "name": "Paused",
          "type": "event"
        },
        {
          "anonymous": false,
          "inputs": [
            {
              "indexed": false,
              "internalType": "uint256",
              "name": "newRate",
              "type": "uint256"
            }
          ],
          "name": "RateChanged",
          "type": "event"
        },
        {
          "anonymous": false,
          "inputs": [
            {
              "indexed": false,
              "internalType": "address",
              "name": "account",
              "type": "address"
            }
          ],
          "name": "Unpaused",
          "type": "event"
        },
        {
          "inputs": [
            {
              "internalType": "address",
              "name": "account",
              "type": "address"
            }
          ],
          "name": "balanceOf",
          "outputs": [
            {
              "internalType": "uint256",
              "name": "",
              "type": "uint256"
            }
          ],
          "stateMutability": "view",
          "type": "function"
        },
        {
          "inputs": [
            {
              "internalType": "address",
              "name": "account",
              "type": "address"
            }
          ],
          "name": "canClaim",
          "outputs": [
            {
              "internalType": "bool",
              "name": "",
              "type": "bool"
            }
          ],
          "stateMutability": "view",
          "type": "function"
        },
        {
          "inputs": [],
          "name": "claim",
          "outputs": [],
          "stateMutability": "nonpayable",
          "type": "function"
        },
        {
          "inputs": [
            {
              "internalType": "uint256",
              "name": "amount",
              "type": "uint256"
            }
          ],
          "name": "deposit",
          "outputs": [],
          "stateMutability": "nonpayable",
          "type": "function"
        },
        {
          "inputs": [],
          "name": "getRate",
          "outputs": [
            {
              "internalType": "uint256",
              "name": "",
              "type": "uint256"
            }
          ],
          "stateMutability": "view",
          "type": "function"
        },
        {
          "inputs": [],
          "name": "getToken",
          "outputs": [
            {
              "internalType": "address",
              "name": "",
              "type": "address"
            }
          ],
          "stateMutability": "view",
          "type": "function"
        },
        {
          "inputs": [],
          "name": "lockedStatus",
          "outputs": [
            {
              "internalType": "enum IMerge.LockedStatus",
              "name": "",
              "type": "uint8"
            }
          ],
          "stateMutability": "view",
          "type": "function"
        },
        {
          "inputs": [],
          "name": "maxRate",
          "outputs": [
            {
              "internalType": "uint256",
              "name": "",
              "type": "uint256"
            }
          ],
          "stateMutability": "view",
          "type": "function"
        },
        {
          "inputs": [
            {
              "internalType": "uint256",
              "name": "amount",
              "type": "uint256"
            }
          ],
          "name": "merge",
          "outputs": [],
          "stateMutability": "nonpayable",
          "type": "function"
        },
        {
          "inputs": [
            {
              "internalType": "uint256",
              "name": "amount",
              "type": "uint256"
            },
            {
              "internalType": "contract IAMM",
              "name": "amm",
              "type": "address"
            },
            {
              "internalType": "bytes",
              "name": "extraData",
              "type": "bytes"
            }
          ],
          "name": "mergeAndSell",
          "outputs": [],
          "stateMutability": "nonpayable",
          "type": "function"
        },
        {
          "inputs": [],
          "name": "minRate",
          "outputs": [
            {
              "internalType": "uint256",
              "name": "",
              "type": "uint256"
            }
          ],
          "stateMutability": "view",
          "type": "function"
        },
        {
          "inputs": [
            {
              "internalType": "address",
              "name": "from",
              "type": "address"
            },
            {
              "internalType": "uint256",
              "name": "amount",
              "type": "uint256"
            },
            {
              "internalType": "bytes",
              "name": "data",
              "type": "bytes"
            }
          ],
          "name": "onApprovalReceived",
          "outputs": [
            {
              "internalType": "bytes4",
              "name": "",
              "type": "bytes4"
            }
          ],
          "stateMutability": "nonpayable",
          "type": "function"
        },
        {
          "inputs": [],
          "name": "owner",
          "outputs": [
            {
              "internalType": "address",
              "name": "",
              "type": "address"
            }
          ],
          "stateMutability": "view",
          "type": "function"
        },
        {
          "inputs": [],
          "name": "paused",
          "outputs": [
            {
              "internalType": "bool",
              "name": "",
              "type": "bool"
            }
          ],
          "stateMutability": "view",
          "type": "function"
        },
        {
          "inputs": [
            {
              "internalType": "address",
              "name": "from",
              "type": "address"
            },
            {
              "internalType": "uint256",
              "name": "amount",
              "type": "uint256"
            },
            {
              "internalType": "address",
              "name": "",
              "type": "address"
            },
            {
              "internalType": "bytes",
              "name": "",
              "type": "bytes"
            }
          ],
          "name": "receiveApproval",
          "outputs": [],
          "stateMutability": "nonpayable",
          "type": "function"
        },
        {
          "inputs": [],
          "name": "renounceOwnership",
          "outputs": [],
          "stateMutability": "nonpayable",
          "type": "function"
        },
        {
          "inputs": [
            {
              "internalType": "enum IMerge.LockedStatus",
              "name": "newStatus",
              "type": "uint8"
            }
          ],
          "name": "setLockedStatus",
          "outputs": [],
          "stateMutability": "nonpayable",
          "type": "function"
        },
        {
          "inputs": [
            {
              "internalType": "address",
              "name": "_treasury",
              "type": "address"
            }
          ],
          "name": "setTreasury",
          "outputs": [],
          "stateMutability": "nonpayable",
          "type": "function"
        },
        {
          "inputs": [
            {
              "internalType": "uint32",
              "name": "duration",
              "type": "uint32"
            }
          ],
          "name": "setVestingDuration",
          "outputs": [],
          "stateMutability": "nonpayable",
          "type": "function"
        },
        {
          "inputs": [
            {
              "internalType": "uint256",
              "name": "newVirtualBalance",
              "type": "uint256"
            }
          ],
          "name": "setVirtualWeweBalance",
          "outputs": [],
          "stateMutability": "nonpayable",
          "type": "function"
        },
        {
          "inputs": [],
          "name": "sweep",
          "outputs": [],
          "stateMutability": "nonpayable",
          "type": "function"
        },
        {
          "inputs": [],
          "name": "togglePause",
          "outputs": [],
          "stateMutability": "nonpayable",
          "type": "function"
        },
        {
          "inputs": [],
          "name": "totalVested",
          "outputs": [
            {
              "internalType": "uint256",
              "name": "",
              "type": "uint256"
            }
          ],
          "stateMutability": "view",
          "type": "function"
        },
        {
          "inputs": [
            {
              "internalType": "address",
              "name": "newOwner",
              "type": "address"
            }
          ],
          "name": "transferOwnership",
          "outputs": [],
          "stateMutability": "nonpayable",
          "type": "function"
        },
        {
          "inputs": [],
          "name": "treasury",
          "outputs": [
            {
              "internalType": "address",
              "name": "",
              "type": "address"
            }
          ],
          "stateMutability": "view",
          "type": "function"
        },
        {
          "inputs": [],
          "name": "vestingDuration",
          "outputs": [
            {
              "internalType": "uint32",
              "name": "",
              "type": "uint32"
            }
          ],
          "stateMutability": "view",
          "type": "function"
        },
        {
          "inputs": [
            {
              "internalType": "address",
              "name": "",
              "type": "address"
            }
          ],
          "name": "vestings",
          "outputs": [
            {
              "internalType": "uint256",
              "name": "amount",
              "type": "uint256"
            },
            {
              "internalType": "uint256",
              "name": "end",
              "type": "uint256"
            }
          ],
          "stateMutability": "view",
          "type": "function"
        },
        {
          "inputs": [],
          "name": "virtualWeweBalance",
          "outputs": [
            {
              "internalType": "uint256",
              "name": "",
              "type": "uint256"
            }
          ],
          "stateMutability": "view",
          "type": "function"
        },
        {
          "inputs": [],
          "name": "vult",
          "outputs": [
            {
              "internalType": "contract IERC20",
              "name": "",
              "type": "address"
            }
          ],
          "stateMutability": "view",
          "type": "function"
        },
        {
          "inputs": [],
          "name": "vultBalance",
          "outputs": [
            {
              "internalType": "uint256",
              "name": "",
              "type": "uint256"
            }
          ],
          "stateMutability": "view",
          "type": "function"
        },
        {
          "inputs": [],
          "name": "wewe",
          "outputs": [
            {
              "internalType": "address",
              "name": "",
              "type": "address"
            }
          ],
          "stateMutability": "view",
          "type": "function"
        },
        {
          "inputs": [],
          "name": "weweBalance",
          "outputs": [
            {
              "internalType": "uint256",
              "name": "",
              "type": "uint256"
            }
          ],
          "stateMutability": "view",
          "type": "function"
        }
      ],
      "evm": {
        "bytecode": {
          "linkReferences": {},
          "object": "60a03461011c57601f62001a7c38819003918201601f19168301916001600160401b038311848410176101215780849260609460405283398101031261011c5761004881610137565b604061005660208401610137565b9201519063ffffffff821680920361011c576001600081815581546001600160a81b0319811633600881811b610100600160a81b031692909217909455604051966001600160a01b039590948694919390921c8416907f8be0079c531659141344cd1fd0a4f28419497f9722a3daafe3b4186f6b6457e09080a36000600655620186a06007551660018060a01b031960035416176003551660805263ffffffff19600854161760085561193090816200014c823960805181818161031c015261071b0152f35b600080fd5b634e487b7160e01b600052604160045260246000fd5b51906001600160a01b038216820361011c5756fe60806040908082526004908136101561001757600080fd5b600092833560e01c9182630cb6044314611061575081631514617e1461103c578163199cbc541461101d57838263213897fe14610d8d5750816321df0da714610d6457816324a47aeb14610c2757816335faa41614610ad15781634e71d92d14610a3c5781634f6b608514610a1a5781635825cca2146109fb5781635c975abb146109d757816361d027b3146109ae578163679aefce1461098a578163707962cb1461096b57816370a0823114610933578163715018a6146108d257816372a1789a146108925781637b04a2d0146106c95781638da5cb5b1461069c5781638f4ffcb1146105d25781639636d8811461059757838263b6b55f25146104f957508163bf3506c1146104ba578163c4ae3168146103d5578163daf4986314610393578163e0dd597414610374578163e1f26f221461034b578163ec21ac8714610307578163ece1d6e5146102e8578163f0f44260146102a0578163f2fde38b146101c2575063f3a752851461018a57600080fd5b346101be5760203660031901126101be573560038110156101be576101ad6110c5565b60ff8019600e5416911617600e5580f35b5080fd5b9190503461029c57602036600319011261029c576101de6110af565b6101e66110c5565b6001600160a01b0381811693909290841561024a57505060018054610100600160a81b03198116600893841b610100600160a81b031617909155901c167f8be0079c531659141344cd1fd0a4f28419497f9722a3daafe3b4186f6b6457e08380a380f35b906020608492519162461bcd60e51b8352820152602660248201527f4f776e61626c653a206e6577206f776e657220697320746865207a65726f206160448201526564647265737360d01b6064820152fd5b8280fd5b83346102e55760203660031901126102e5576102ba6110af565b6102c26110c5565b600a80546001600160a01b0319166001600160a01b039290921691909117905580f35b80fd5b8390346101be57816003193601126101be576020906007549051908152f35b8390346101be57816003193601126101be57517f00000000000000000000000000000000000000000000000000000000000000006001600160a01b03168152602090f35b8390346101be57816003193601126101be5760035490516001600160a01b039091168152602090f35b8390346101be57816003193601126101be57602090600d549051908152f35b8390346101be5760203660031901126101be579081906001600160a01b036103b96110af565b1681526009602052206001815491015482519182526020820152f35b9190503461029c578260031936011261029c576103f06110c5565b60015460ff81161561047957506001549060ff82161561043f575060ff1916600155513381527f5db9ee0a495bf2e6ff9c91a7834c1ba4fdd244a5e8aa4e537bd38aeae4b073aa90602090a180f35b606490602084519162461bcd60e51b8352820152601460248201527314185d5cd8589b194e881b9bdd081c185d5cd95960621b6044820152fd5b602091509160017f62e78cea01bee320cd4e420270b5ea74000d11b0c9f74754ebdbfc544b05a258936104aa61116f565b60ff19161760015551338152a180f35b8390346101be5760203660031901126101be5760209160019082906001600160a01b036104e56110af565b168152600985522001549051904210158152f35b809184346105935760203660031901126105935761054b60209161051b6110c5565b60035484516323b872dd60e01b81529586936001600160a01b03909216928492839180359030903390850161123f565b03925af190811561058a575061055f575080f35b61057f9060203d8111610583575b6105778183611120565b810190611157565b5080f35b503d61056d565b513d84823e3d90fd5b5050fd5b5050346101be5760203660031901126101be573563ffffffff81168091036101be576105c16110c5565b63ffffffff19600854161760085580f35b8383346101be5760803660031901126101be576105ed6110af565b906001600160a01b0360443581811603610698576064356001600160401b0381116106945761061f903690840161107d565b50506106296111b3565b61063161116f565b6002541690811561065157509061064a91602435611261565b6001815580f35b606490602086519162461bcd60e51b8352820152601c60248201527f45617465723a20546f6b656e2061646472657373206e6f7420736574000000006044820152fd5b8480fd5b8380fd5b8390346101be57816003193601126101be57600154905160089190911c6001600160a01b03168152602090f35b905082346102e55760603660031901126102e5576106e56110af565b6024356044356001600160401b03811161069857610706903690870161107d565b50506107106111b3565b6001600160a01b03917f000000000000000000000000000000000000000000000000000000000000000083811633036108825760ff600e5416600381101561086f5760020361085f57821561084f576107708361076b611548565b611209565b93620186a09485810295818704149015171561083c578695936108188661082b956107d460019996610820966107d960209e516323b872dd60e01b6020820152806107c08a30896024850161123f565b03936107d4601f1995868101845283611120565b611591565b6003548d5163a9059cbb60e01b60208201526001600160a01b039590951660248601526044850195909552606491820184529293929092169183611120565b600d54611232565b600d55600c5461153b565b600c5555516307b04a2d60e41b8152f35b634e487b7160e01b865260118852602486fd5b8551631f2a200560e01b81528790fd5b8551633c16196b60e01b81528790fd5b634e487b7160e01b865260218852602486fd5b8551636d5f86d560e01b81528790fd5b839150346101be57816003193601126101be5760ff600e541690519160038210156108bf57602083838152f35b634e487b7160e01b815260218452602490fd5b83346102e557806003193601126102e5576108eb6110c5565b60018054610100600160a81b03198116909155819060081c6001600160a01b03167f8be0079c531659141344cd1fd0a4f28419497f9722a3daafe3b4186f6b6457e08280a380f35b8390346101be5760203660031901126101be5760209181906001600160a01b0361095b6110af565b1681526009845220549051908152f35b8390346101be57816003193601126101be57602090600b549051908152f35b8390346101be57816003193601126101be576020906109a7611548565b9051908152f35b8390346101be57816003193601126101be57600a5490516001600160a01b039091168152602090f35b8390346101be57816003193601126101be5760209060ff6001541690519015158152f35b8390346101be57816003193601126101be57602090600c549051908152f35b5050346101be5760203660031901126101be57610a356110c5565b35600b5580f35b90503461029c578260031936011261029c57610a5661116f565b63ffffffff6008541615610ac4575b3383526009602052600181842001544210610a865782610a83611853565b80f35b906020606492519162461bcd60e51b8352820152601860248201527711585d195c8e8815995cdd1a5b99c81b9bdd08195b99195960421b6044820152fd5b610acc611853565b610a65565b839150346101be57816003193601126101be57610aec6110c5565b60035481516370a0823160e01b8152308582015293602092916001600160a01b0390811691908487602481865afa968715610c1d578697610bea575b508615610ba757600154845163a9059cbb60e01b81526001600160a01b0360089290921c90921616918101918252602082018790529291849184919082908890829060400103925af1908115610b9e5750610b81578280f35b81610b9792903d10610583576105778183611120565b5081808280f35b513d85823e3d90fd5b835162461bcd60e51b8152808301869052601a60248201527f45617465723a204e6f2062616c616e636520746f2073776565700000000000006044820152606490fd5b9096508481813d8311610c16575b610c028183611120565b81010312610c1257519587610b28565b8580fd5b503d610bf8565b84513d88823e3d90fd5b9190503461029c576020908160031936011261069857803591610c4861116f565b620186a0610c5d610c57611548565b85611209565b049060018060a01b0380600354169286519083826024816370a0823160e01b98898252308b8301525afa918215610d5a578992610d25575b5090610ca5610cac928754611232565b11156117ad565b6002541692855192835233908301528082602481865afa948515610d1c57508594610cea575b5050610ce382610a839410156117f8565b3391611261565b90809450813d8311610d15575b610d018183611120565b8101031261069857915191610ce382610cd2565b503d610cf7565b513d87823e3d90fd5b91508382813d8311610d53575b610d3c8183611120565b81010312610d4f57905190610ca5610c95565b8880fd5b503d610d32565b88513d8b823e3d90fd5b8390346101be57816003193601126101be5760025490516001600160a01b039091168152602090f35b92915034610593576060366003190112610593576001600160a01b0360243581811690843590829003610c12576044356001600160401b03811161101957610dd8903690870161107d565b969095610de36111b3565b610deb61116f565b620186a0610dfa610c57611548565b049785600354168751809a6370a0823160e01b92838352308684015282602460209e8f935afa91821561100f578692610fde575b5090610ca5610e3e928654611232565b866002541690885190815233848201528a81602481855afa908115610fd457908692918691610f9f575b50610e8092610e789110156117f8565b339086611261565b600254875163095ea7b360e01b81526001600160a01b0387168482019081526020810187905290918b9183918a169082908890829060400103925af18015610f9557918a97969594939160a493610f78575b508087600a54168015600014610f725750309a5b8860025416988b519c8d9a8b998a976302454b7160e41b8952880152602487015216604485015260806064850152816084850152848401378181018301849052601f01601f191681010301925af1908115610b9e5750610f49575b826001815580f35b813d8311610f6b575b610f5c8183611120565b810103126102e5573880610f41565b503d610f52565b9a610ee6565b610f8e90893d8b11610583576105778183611120565b5038610ed2565b88513d86823e3d90fd5b8093508c8092503d8311610fcd575b610fb88183611120565b81010312610694579051859190610e80610e68565b503d610fae565b89513d87823e3d90fd5b91508b82813d8311611008575b610ff58183611120565b81010312610c1257905190610ca5610e2e565b503d610feb565b8a513d88823e3d90fd5b8680fd5b9190503461029c578260031936011261029c5760209250549051908152f35b8390346101be57816003193601126101be5760209063ffffffff600854169051908152f35b8490346101be57816003193601126101be576020906006548152f35b9181601f840112156110aa578235916001600160401b0383116110aa57602083818601950101116110aa57565b600080fd5b600435906001600160a01b03821682036110aa57565b60015460081c6001600160a01b031633036110dc57565b606460405162461bcd60e51b815260206004820152602060248201527f4f776e61626c653a2063616c6c6572206973206e6f7420746865206f776e65726044820152fd5b90601f801991011681019081106001600160401b0382111761114157604052565b634e487b7160e01b600052604160045260246000fd5b908160209103126110aa575180151581036110aa5790565b60ff6001541661117b57565b60405162461bcd60e51b815260206004820152601060248201526f14185d5cd8589b194e881c185d5cd95960821b6044820152606490fd5b6002600054146111c4576002600055565b60405162461bcd60e51b815260206004820152601f60248201527f5265656e7472616e637947756172643a207265656e7472616e742063616c6c006044820152606490fd5b8181029291811591840414171561121c57565b634e487b7160e01b600052601160045260246000fd5b9190820180921161121c57565b6001600160a01b03918216815291166020820152604081019190915260600190565b909291620186a0611279611273611548565b84611209565b0491600494611289848754611232565b865560018060a01b0395866003541693604092835180966370a0823160e01b825230858301528160246020998a935afa90811561153057600091611503575b5087116114aa5785845180926323b872dd60e01b82528160008d826112f18c308b8d850161123f565b0393165af1801561149f57611482575b5087811695866000526009865283600020549163ffffffff998a6008541615156000146113e45750509061133491611232565b96603c8160085416029081169081036113cf576113519042611232565b96825191838301908382106001600160401b038311176113ba5750976001917fadc41ba80ffa0859aab1d7cf405a6633a6af94fc3d10e5b0e0bf46cdcc0fd9c89798998552835285830190815233600052600986528360002092518355519101555b51908152a2565b604190634e487b7160e01b6000525260246000fd5b601182634e487b7160e01b6000525260246000fd5b600354865163a9059cbb60e01b81526001600160a01b0393909316958301958652602086019390935290995086938a9350839003604001918391600091165af1958615611477577fadc41ba80ffa0859aab1d7cf405a6633a6af94fc3d10e5b0e0bf46cdcc0fd9c894959661145a575b506113b3565b61147090843d8611610583576105778183611120565b5038611454565b50513d6000823e3d90fd5b61149890863d8811610583576105778183611120565b5038611301565b84513d6000823e3d90fd5b835162461bcd60e51b8152808401879052602d60248201527f45617465723a20496e73756666696369656e7420746f6b656e2062616c616e6360448201526c32903a37903a3930b739b332b960991b6064820152608490fd5b908782813d8311611529575b6115198183611120565b810103126102e5575051386112c8565b503d61150f565b85513d6000823e3d90fd5b9190820391821161121c57565b60065461156361155a8260075461153b565b60055490611209565b90600454801561157b57611578920490611232565b90565b634e487b7160e01b600052601260045260246000fd5b604080516001600160401b0394936001600160a01b03909316929091820185811183821017611141576040526020928383527f5361666545524332303a206c6f772d6c6576656c2063616c6c206661696c6564848401526000808386829551910182855af1903d156116cc573d9687116116b8576116309495966040519061162288601f19601f8401160183611120565b81528093873d92013e6116d9565b8051908282159283156116a0575b505050156116495750565b6084906040519062461bcd60e51b82526004820152602a60248201527f5361666545524332303a204552433230206f7065726174696f6e20646964206e6044820152691bdd081cdd58d8d9595960b21b6064820152fd5b6116b09350820181019101611157565b38828161163e565b634e487b7160e01b83526041600452602483fd5b9150611630939495506060915b9192901561173b57508151156116ed575090565b3b156116f65790565b60405162461bcd60e51b815260206004820152601d60248201527f416464726573733a2063616c6c20746f206e6f6e2d636f6e74726163740000006044820152606490fd5b82519091501561174e5750805190602001fd5b6040519062461bcd60e51b82528160208060048301528251908160248401526000935b828510611794575050604492506000838284010152601f80199101168101030190fd5b8481018201518686016044015293810193859350611771565b156117b457565b606460405162461bcd60e51b815260206004820152602060248201527f45617465723a20496e73756666696369656e7420576577652062616c616e63656044820152fd5b156117ff57565b60405162461bcd60e51b815260206004820152602660248201527f56756c744d657267653a20496e73756666696369656e742062616c616e6365206044820152651d1bc819585d60d21b6064820152608490fd5b600033815260096020528060206118c160408320546118748160055461153b565b60055533808552600984526040808620869055600354905163a9059cbb60e01b8152600481019290925260248201929092529485926001600160a01b039092169183919082906044820190565b03925af19081156118ee57506118d45750565b6118eb9060203d8111610583576105778183611120565b50565b604051903d90823e3d90fdfea264697066735822122043cd720bf01822906282724fd37f8f8d3c81533d82464b31f6c540540b93de7064736f6c63430008130033",
          "opcodes": "PUSH1 0xA0 CALLVALUE PUSH2 0x11C JUMPI PUSH1 0x1F PUSH3 0x1A7C CODESIZE DUP2 SWAP1 SUB SWAP2 DUP3 ADD PUSH1 0x1F NOT AND DUP4 ADD SWAP2 PUSH1 0x1 PUSH1 0x1 PUSH1 0x40 SHL SUB DUP4 GT DUP5 DUP5 LT OR PUSH2 0x121 JUMPI DUP1 DUP5 SWAP3 PUSH1 0x60 SWAP5 PUSH1 0x40 MSTORE DUP4 CODECOPY DUP2 ADD SUB SLT PUSH2 0x11C JUMPI PUSH2 0x48 DUP2 PUSH2 0x137 JUMP JUMPDEST PUSH1 0x40 PUSH2 0x56 PUSH1 0x20 DUP5 ADD PUSH2 0x137 JUMP JUMPDEST SWAP3 ADD MLOAD SWAP1 PUSH4 0xFFFFFFFF DUP3 AND DUP1 SWAP3 SUB PUSH2 0x11C JUMPI PUSH1 0x1 PUSH1 0x0 DUP2 DUP2 SSTORE DUP2 SLOAD PUSH1 0x1 PUSH1 0x1 PUSH1 0xA8 SHL SUB NOT DUP2 AND CALLER PUSH1 0x8 DUP2 DUP2 SHL PUSH2 0x100 PUSH1 0x1 PUSH1 0xA8 SHL SUB AND SWAP3 SWAP1 SWAP3 OR SWAP1 SWAP5 SSTORE PUSH1 0x40 MLOAD SWAP7 PUSH1 0x1 PUSH1 0x1 PUSH1 0xA0 SHL SUB SWAP6 SWAP1 SWAP5 DUP7 SWAP5 SWAP2 SWAP4 SWAP1 SWAP3 SHR DUP5 AND SWAP1 PUSH32 0x8BE0079C531659141344CD1FD0A4F28419497F9722A3DAAFE3B4186F6B6457E0 SWAP1 DUP1 LOG3 PUSH1 0x0 PUSH1 0x6 SSTORE PUSH3 0x186A0 PUSH1 0x7 SSTORE AND PUSH1 0x1 DUP1 PUSH1 0xA0 SHL SUB NOT PUSH1 0x3 SLOAD AND OR PUSH1 0x3 SSTORE AND PUSH1 0x80 MSTORE PUSH4 0xFFFFFFFF NOT PUSH1 0x8 SLOAD AND OR PUSH1 0x8 SSTORE PUSH2 0x1930 SWAP1 DUP2 PUSH3 0x14C DUP3 CODECOPY PUSH1 0x80 MLOAD DUP2 DUP2 DUP2 PUSH2 0x31C ADD MSTORE PUSH2 0x71B ADD MSTORE RETURN JUMPDEST PUSH1 0x0 DUP1 REVERT JUMPDEST PUSH4 0x4E487B71 PUSH1 0xE0 SHL PUSH1 0x0 MSTORE PUSH1 0x41 PUSH1 0x4 MSTORE PUSH1 0x24 PUSH1 0x0 REVERT JUMPDEST MLOAD SWAP1 PUSH1 0x1 PUSH1 0x1 PUSH1 0xA0 SHL SUB DUP3 AND DUP3 SUB PUSH2 0x11C JUMPI JUMP INVALID PUSH1 0x80 PUSH1 0x40 SWAP1 DUP1 DUP3 MSTORE PUSH1 0x4 SWAP1 DUP2 CALLDATASIZE LT ISZERO PUSH2 0x17 JUMPI PUSH1 0x0 DUP1 REVERT JUMPDEST PUSH1 0x0 SWAP3 DUP4 CALLDATALOAD PUSH1 0xE0 SHR SWAP2 DUP3 PUSH4 0xCB60443 EQ PUSH2 0x1061 JUMPI POP DUP2 PUSH4 0x1514617E EQ PUSH2 0x103C JUMPI DUP2 PUSH4 0x199CBC54 EQ PUSH2 0x101D JUMPI DUP4 DUP3 PUSH4 0x213897FE EQ PUSH2 0xD8D JUMPI POP DUP2 PUSH4 0x21DF0DA7 EQ PUSH2 0xD64 JUMPI DUP2 PUSH4 0x24A47AEB EQ PUSH2 0xC27 JUMPI DUP2 PUSH4 0x35FAA416 EQ PUSH2 0xAD1 JUMPI DUP2 PUSH4 0x4E71D92D EQ PUSH2 0xA3C JUMPI DUP2 PUSH4 0x4F6B6085 EQ PUSH2 0xA1A JUMPI DUP2 PUSH4 0x5825CCA2 EQ PUSH2 0x9FB JUMPI DUP2 PUSH4 0x5C975ABB EQ PUSH2 0x9D7 JUMPI DUP2 PUSH4 0x61D027B3 EQ PUSH2 0x9AE JUMPI DUP2 PUSH4 0x679AEFCE EQ PUSH2 0x98A JUMPI DUP2 PUSH4 0x707962CB EQ PUSH2 0x96B JUMPI DUP2 PUSH4 0x70A08231 EQ PUSH2 0x933 JUMPI DUP2 PUSH4 0x715018A6 EQ PUSH2 0x8D2 JUMPI DUP2 PUSH4 0x72A1789A EQ PUSH2 0x892 JUMPI DUP2 PUSH4 0x7B04A2D0 EQ PUSH2 0x6C9 JUMPI DUP2 PUSH4 0x8DA5CB5B EQ PUSH2 0x69C JUMPI DUP2 PUSH4 0x8F4FFCB1 EQ PUSH2 0x5D2 JUMPI DUP2 PUSH4 0x9636D881 EQ PUSH2 0x597 JUMPI DUP4 DUP3 PUSH4 0xB6B55F25 EQ PUSH2 0x4F9 JUMPI POP DUP2 PUSH4 0xBF3506C1 EQ PUSH2 0x4BA JUMPI DUP2 PUSH4 0xC4AE3168 EQ PUSH2 0x3D5 JUMPI DUP2 PUSH4 0xDAF49863 EQ PUSH2 0x393 JUMPI DUP2 PUSH4 0xE0DD5974 EQ PUSH2 0x374 JUMPI DUP2 PUSH4 0xE1F26F22 EQ PUSH2 0x34B JUMPI DUP2 PUSH4 0xEC21AC87 EQ PUSH2 0x307 JUMPI DUP2 PUSH4 0xECE1D6E5 EQ PUSH2 0x2E8 JUMPI DUP2 PUSH4 0xF0F44260 EQ PUSH2 0x2A0 JUMPI DUP2 PUSH4 0xF2FDE38B EQ PUSH2 0x1C2 JUMPI POP PUSH4 0xF3A75285 EQ PUSH2 0x18A JUMPI PUSH1 0x0 DUP1 REVERT JUMPDEST CALLVALUE PUSH2 0x1BE JUMPI PUSH1 0x20 CALLDATASIZE PUSH1 0x3 NOT ADD SLT PUSH2 0x1BE JUMPI CALLDATALOAD PUSH1 0x3 DUP2 LT ISZERO PUSH2 0x1BE JUMPI PUSH2 0x1AD PUSH2 0x10C5 JUMP JUMPDEST PUSH1 0xFF DUP1 NOT PUSH1 0xE SLOAD AND SWAP2 AND OR PUSH1 0xE SSTORE DUP1 RETURN JUMPDEST POP DUP1 REVERT JUMPDEST SWAP2 SWAP1 POP CALLVALUE PUSH2 0x29C JUMPI PUSH1 0x20 CALLDATASIZE PUSH1 0x3 NOT ADD SLT PUSH2 0x29C JUMPI PUSH2 0x1DE PUSH2 0x10AF JUMP JUMPDEST PUSH2 0x1E6 PUSH2 0x10C5 JUMP JUMPDEST PUSH1 0x1 PUSH1 0x1 PUSH1 0xA0 SHL SUB DUP2 DUP2 AND SWAP4 SWAP1 SWAP3 SWAP1 DUP5 ISZERO PUSH2 0x24A JUMPI POP POP PUSH1 0x1 DUP1 SLOAD PUSH2 0x100 PUSH1 0x1 PUSH1 0xA8 SHL SUB NOT DUP2 AND PUSH1 0x8 SWAP4 DUP5 SHL PUSH2 0x100 PUSH1 0x1 PUSH1 0xA8 SHL SUB AND OR SWAP1 SWAP2 SSTORE SWAP1 SHR AND PUSH32 0x8BE0079C531659141344CD1FD0A4F28419497F9722A3DAAFE3B4186F6B6457E0 DUP4 DUP1 LOG3 DUP1 RETURN JUMPDEST SWAP1 PUSH1 0x20 PUSH1 0x84 SWAP3 MLOAD SWAP2 PUSH3 0x461BCD PUSH1 0xE5 SHL DUP4 MSTORE DUP3 ADD MSTORE PUSH1 0x26 PUSH1 0x24 DUP3 ADD MSTORE PUSH32 0x4F776E61626C653A206E6577206F776E657220697320746865207A65726F2061 PUSH1 0x44 DUP3 ADD MSTORE PUSH6 0x646472657373 PUSH1 0xD0 SHL PUSH1 0x64 DUP3 ADD MSTORE REVERT JUMPDEST DUP3 DUP1 REVERT JUMPDEST DUP4 CALLVALUE PUSH2 0x2E5 JUMPI PUSH1 0x20 CALLDATASIZE PUSH1 0x3 NOT ADD SLT PUSH2 0x2E5 JUMPI PUSH2 0x2BA PUSH2 0x10AF JUMP JUMPDEST PUSH2 0x2C2 PUSH2 0x10C5 JUMP JUMPDEST PUSH1 0xA DUP1 SLOAD PUSH1 0x1 PUSH1 0x1 PUSH1 0xA0 SHL SUB NOT AND PUSH1 0x1 PUSH1 0x1 PUSH1 0xA0 SHL SUB SWAP3 SWAP1 SWAP3 AND SWAP2 SWAP1 SWAP2 OR SWAP1 SSTORE DUP1 RETURN JUMPDEST DUP1 REVERT JUMPDEST DUP4 SWAP1 CALLVALUE PUSH2 0x1BE JUMPI DUP2 PUSH1 0x3 NOT CALLDATASIZE ADD SLT PUSH2 0x1BE JUMPI PUSH1 0x20 SWAP1 PUSH1 0x7 SLOAD SWAP1 MLOAD SWAP1 DUP2 MSTORE RETURN JUMPDEST DUP4 SWAP1 CALLVALUE PUSH2 0x1BE JUMPI DUP2 PUSH1 0x3 NOT CALLDATASIZE ADD SLT PUSH2 0x1BE JUMPI MLOAD PUSH32 0x0 PUSH1 0x1 PUSH1 0x1 PUSH1 0xA0 SHL SUB AND DUP2 MSTORE PUSH1 0x20 SWAP1 RETURN JUMPDEST DUP4 SWAP1 CALLVALUE PUSH2 0x1BE JUMPI DUP2 PUSH1 0x3 NOT CALLDATASIZE ADD SLT PUSH2 0x1BE JUMPI PUSH1 0x3 SLOAD SWAP1 MLOAD PUSH1 0x1 PUSH1 0x1 PUSH1 0xA0 SHL SUB SWAP1 SWAP2 AND DUP2 MSTORE PUSH1 0x20 SWAP1 RETURN JUMPDEST DUP4 SWAP1 CALLVALUE PUSH2 0x1BE JUMPI DUP2 PUSH1 0x3 NOT CALLDATASIZE ADD SLT PUSH2 0x1BE JUMPI PUSH1 0x20 SWAP1 PUSH1 0xD SLOAD SWAP1 MLOAD SWAP1 DUP2 MSTORE RETURN JUMPDEST DUP4 SWAP1 CALLVALUE PUSH2 0x1BE JUMPI PUSH1 0x20 CALLDATASIZE PUSH1 0x3 NOT ADD SLT PUSH2 0x1BE JUMPI SWAP1 DUP2 SWAP1 PUSH1 0x1 PUSH1 0x1 PUSH1 0xA0 SHL SUB PUSH2 0x3B9 PUSH2 0x10AF JUMP JUMPDEST AND DUP2 MSTORE PUSH1 0x9 PUSH1 0x20 MSTORE KECCAK256 PUSH1 0x1 DUP2 SLOAD SWAP2 ADD SLOAD DUP3 MLOAD SWAP2 DUP3 MSTORE PUSH1 0x20 DUP3 ADD MSTORE RETURN JUMPDEST SWAP2 SWAP1 POP CALLVALUE PUSH2 0x29C JUMPI DUP3 PUSH1 0x3 NOT CALLDATASIZE ADD SLT PUSH2 0x29C JUMPI PUSH2 0x3F0 PUSH2 0x10C5 JUMP JUMPDEST PUSH1 0x1 SLOAD PUSH1 0xFF DUP2 AND ISZERO PUSH2 0x479 JUMPI POP PUSH1 0x1 SLOAD SWAP1 PUSH1 0xFF DUP3 AND ISZERO PUSH2 0x43F JUMPI POP PUSH1 0xFF NOT AND PUSH1 0x1 SSTORE MLOAD CALLER DUP2 MSTORE PUSH32 0x5DB9EE0A495BF2E6FF9C91A7834C1BA4FDD244A5E8AA4E537BD38AEAE4B073AA SWAP1 PUSH1 0x20 SWAP1 LOG1 DUP1 RETURN JUMPDEST PUSH1 0x64 SWAP1 PUSH1 0x20 DUP5 MLOAD SWAP2 PUSH3 0x461BCD PUSH1 0xE5 SHL DUP4 MSTORE DUP3 ADD MSTORE PUSH1 0x14 PUSH1 0x24 DUP3 ADD MSTORE PUSH20 0x14185D5CD8589B194E881B9BDD081C185D5CD959 PUSH1 0x62 SHL PUSH1 0x44 DUP3 ADD MSTORE REVERT JUMPDEST PUSH1 0x20 SWAP2 POP SWAP2 PUSH1 0x1 PUSH32 0x62E78CEA01BEE320CD4E420270B5EA74000D11B0C9F74754EBDBFC544B05A258 SWAP4 PUSH2 0x4AA PUSH2 0x116F JUMP JUMPDEST PUSH1 0xFF NOT AND OR PUSH1 0x1 SSTORE MLOAD CALLER DUP2 MSTORE LOG1 DUP1 RETURN JUMPDEST DUP4 SWAP1 CALLVALUE PUSH2 0x1BE JUMPI PUSH1 0x20 CALLDATASIZE PUSH1 0x3 NOT ADD SLT PUSH2 0x1BE JUMPI PUSH1 0x20 SWAP2 PUSH1 0x1 SWAP1 DUP3 SWAP1 PUSH1 0x1 PUSH1 0x1 PUSH1 0xA0 SHL SUB PUSH2 0x4E5 PUSH2 0x10AF JUMP JUMPDEST AND DUP2 MSTORE PUSH1 0x9 DUP6 MSTORE KECCAK256 ADD SLOAD SWAP1 MLOAD SWAP1 TIMESTAMP LT ISZERO DUP2 MSTORE RETURN JUMPDEST DUP1 SWAP2 DUP5 CALLVALUE PUSH2 0x593 JUMPI PUSH1 0x20 CALLDATASIZE PUSH1 0x3 NOT ADD SLT PUSH2 0x593 JUMPI PUSH2 0x54B PUSH1 0x20 SWAP2 PUSH2 0x51B PUSH2 0x10C5 JUMP JUMPDEST PUSH1 0x3 SLOAD DUP5 MLOAD PUSH4 0x23B872DD PUSH1 0xE0 SHL DUP2 MSTORE SWAP6 DUP7 SWAP4 PUSH1 0x1 PUSH1 0x1 PUSH1 0xA0 SHL SUB SWAP1 SWAP3 AND SWAP3 DUP5 SWAP3 DUP4 SWAP2 DUP1 CALLDATALOAD SWAP1 ADDRESS SWAP1 CALLER SWAP1 DUP6 ADD PUSH2 0x123F JUMP JUMPDEST SUB SWAP3 GAS CALL SWAP1 DUP2 ISZERO PUSH2 0x58A JUMPI POP PUSH2 0x55F JUMPI POP DUP1 RETURN JUMPDEST PUSH2 0x57F SWAP1 PUSH1 0x20 RETURNDATASIZE DUP2 GT PUSH2 0x583 JUMPI JUMPDEST PUSH2 0x577 DUP2 DUP4 PUSH2 0x1120 JUMP JUMPDEST DUP2 ADD SWAP1 PUSH2 0x1157 JUMP JUMPDEST POP DUP1 RETURN JUMPDEST POP RETURNDATASIZE PUSH2 0x56D JUMP JUMPDEST MLOAD RETURNDATASIZE DUP5 DUP3 RETURNDATACOPY RETURNDATASIZE SWAP1 REVERT JUMPDEST POP POP REVERT JUMPDEST POP POP CALLVALUE PUSH2 0x1BE JUMPI PUSH1 0x20 CALLDATASIZE PUSH1 0x3 NOT ADD SLT PUSH2 0x1BE JUMPI CALLDATALOAD PUSH4 0xFFFFFFFF DUP2 AND DUP1 SWAP2 SUB PUSH2 0x1BE JUMPI PUSH2 0x5C1 PUSH2 0x10C5 JUMP JUMPDEST PUSH4 0xFFFFFFFF NOT PUSH1 0x8 SLOAD AND OR PUSH1 0x8 SSTORE DUP1 RETURN JUMPDEST DUP4 DUP4 CALLVALUE PUSH2 0x1BE JUMPI PUSH1 0x80 CALLDATASIZE PUSH1 0x3 NOT ADD SLT PUSH2 0x1BE JUMPI PUSH2 0x5ED PUSH2 0x10AF JUMP JUMPDEST SWAP1 PUSH1 0x1 PUSH1 0x1 PUSH1 0xA0 SHL SUB PUSH1 0x44 CALLDATALOAD DUP2 DUP2 AND SUB PUSH2 0x698 JUMPI PUSH1 0x64 CALLDATALOAD PUSH1 0x1 PUSH1 0x1 PUSH1 0x40 SHL SUB DUP2 GT PUSH2 0x694 JUMPI PUSH2 0x61F SWAP1 CALLDATASIZE SWAP1 DUP5 ADD PUSH2 0x107D JUMP JUMPDEST POP POP PUSH2 0x629 PUSH2 0x11B3 JUMP JUMPDEST PUSH2 0x631 PUSH2 0x116F JUMP JUMPDEST PUSH1 0x2 SLOAD AND SWAP1 DUP2 ISZERO PUSH2 0x651 JUMPI POP SWAP1 PUSH2 0x64A SWAP2 PUSH1 0x24 CALLDATALOAD PUSH2 0x1261 JUMP JUMPDEST PUSH1 0x1 DUP2 SSTORE DUP1 RETURN JUMPDEST PUSH1 0x64 SWAP1 PUSH1 0x20 DUP7 MLOAD SWAP2 PUSH3 0x461BCD PUSH1 0xE5 SHL DUP4 MSTORE DUP3 ADD MSTORE PUSH1 0x1C PUSH1 0x24 DUP3 ADD MSTORE PUSH32 0x45617465723A20546F6B656E2061646472657373206E6F742073657400000000 PUSH1 0x44 DUP3 ADD MSTORE REVERT JUMPDEST DUP5 DUP1 REVERT JUMPDEST DUP4 DUP1 REVERT JUMPDEST DUP4 SWAP1 CALLVALUE PUSH2 0x1BE JUMPI DUP2 PUSH1 0x3 NOT CALLDATASIZE ADD SLT PUSH2 0x1BE JUMPI PUSH1 0x1 SLOAD SWAP1 MLOAD PUSH1 0x8 SWAP2 SWAP1 SWAP2 SHR PUSH1 0x1 PUSH1 0x1 PUSH1 0xA0 SHL SUB AND DUP2 MSTORE PUSH1 0x20 SWAP1 RETURN JUMPDEST SWAP1 POP DUP3 CALLVALUE PUSH2 0x2E5 JUMPI PUSH1 0x60 CALLDATASIZE PUSH1 0x3 NOT ADD SLT PUSH2 0x2E5 JUMPI PUSH2 0x6E5 PUSH2 0x10AF JUMP JUMPDEST PUSH1 0x24 CALLDATALOAD PUSH1 0x44 CALLDATALOAD PUSH1 0x1 PUSH1 0x1 PUSH1 0x40 SHL SUB DUP2 GT PUSH2 0x698 JUMPI PUSH2 0x706 SWAP1 CALLDATASIZE SWAP1 DUP8 ADD PUSH2 0x107D JUMP JUMPDEST POP POP PUSH2 0x710 PUSH2 0x11B3 JUMP JUMPDEST PUSH1 0x1 PUSH1 0x1 PUSH1 0xA0 SHL SUB SWAP2 PUSH32 0x0 DUP4 DUP2 AND CALLER SUB PUSH2 0x882 JUMPI PUSH1 0xFF PUSH1 0xE SLOAD AND PUSH1 0x3 DUP2 LT ISZERO PUSH2 0x86F JUMPI PUSH1 0x2 SUB PUSH2 0x85F JUMPI DUP3 ISZERO PUSH2 0x84F JUMPI PUSH2 0x770 DUP4 PUSH2 0x76B PUSH2 0x1548 JUMP JUMPDEST PUSH2 0x1209 JUMP JUMPDEST SWAP4 PUSH3 0x186A0 SWAP5 DUP6 DUP2 MUL SWAP6 DUP2 DUP8 DIV EQ SWAP1 ISZERO OR ISZERO PUSH2 0x83C JUMPI DUP7 SWAP6 SWAP4 PUSH2 0x818 DUP7 PUSH2 0x82B SWAP6 PUSH2 0x7D4 PUSH1 0x1 SWAP10 SWAP7 PUSH2 0x820 SWAP7 PUSH2 0x7D9 PUSH1 0x20 SWAP15 MLOAD PUSH4 0x23B872DD PUSH1 0xE0 SHL PUSH1 0x20 DUP3 ADD MSTORE DUP1 PUSH2 0x7C0 DUP11 ADDRESS DUP10 PUSH1 0x24 DUP6 ADD PUSH2 0x123F JUMP JUMPDEST SUB SWAP4 PUSH2 0x7D4 PUSH1 0x1F NOT SWAP6 DUP7 DUP2 ADD DUP5 MSTORE DUP4 PUSH2 0x1120 JUMP JUMPDEST PUSH2 0x1591 JUMP JUMPDEST PUSH1 0x3 SLOAD DUP14 MLOAD PUSH4 0xA9059CBB PUSH1 0xE0 SHL PUSH1 0x20 DUP3 ADD MSTORE PUSH1 0x1 PUSH1 0x1 PUSH1 0xA0 SHL SUB SWAP6 SWAP1 SWAP6 AND PUSH1 0x24 DUP7 ADD MSTORE PUSH1 0x44 DUP6 ADD SWAP6 SWAP1 SWAP6 MSTORE PUSH1 0x64 SWAP2 DUP3 ADD DUP5 MSTORE SWAP3 SWAP4 SWAP3 SWAP1 SWAP3 AND SWAP2 DUP4 PUSH2 0x1120 JUMP JUMPDEST PUSH1 0xD SLOAD PUSH2 0x1232 JUMP JUMPDEST PUSH1 0xD SSTORE PUSH1 0xC SLOAD PUSH2 0x153B JUMP JUMPDEST PUSH1 0xC SSTORE SSTORE MLOAD PUSH4 0x7B04A2D PUSH1 0xE4 SHL DUP2 MSTORE RETURN JUMPDEST PUSH4 0x4E487B71 PUSH1 0xE0 SHL DUP7 MSTORE PUSH1 0x11 DUP9 MSTORE PUSH1 0x24 DUP7 REVERT JUMPDEST DUP6 MLOAD PUSH4 0x1F2A2005 PUSH1 0xE0 SHL DUP2 MSTORE DUP8 SWAP1 REVERT JUMPDEST DUP6 MLOAD PUSH4 0x3C16196B PUSH1 0xE0 SHL DUP2 MSTORE DUP8 SWAP1 REVERT JUMPDEST PUSH4 0x4E487B71 PUSH1 0xE0 SHL DUP7 MSTORE PUSH1 0x21 DUP9 MSTORE PUSH1 0x24 DUP7 REVERT JUMPDEST DUP6 MLOAD PUSH4 0x6D5F86D5 PUSH1 0xE0 SHL DUP2 MSTORE DUP8 SWAP1 REVERT JUMPDEST DUP4 SWAP2 POP CALLVALUE PUSH2 0x1BE JUMPI DUP2 PUSH1 0x3 NOT CALLDATASIZE ADD SLT PUSH2 0x1BE JUMPI PUSH1 0xFF PUSH1 0xE SLOAD AND SWAP1 MLOAD SWAP2 PUSH1 0x3 DUP3 LT ISZERO PUSH2 0x8BF JUMPI PUSH1 0x20 DUP4 DUP4 DUP2 MSTORE RETURN JUMPDEST PUSH4 0x4E487B71 PUSH1 0xE0 SHL DUP2 MSTORE PUSH1 0x21 DUP5 MSTORE PUSH1 0x24 SWAP1 REVERT JUMPDEST DUP4 CALLVALUE PUSH2 0x2E5 JUMPI DUP1 PUSH1 0x3 NOT CALLDATASIZE ADD SLT PUSH2 0x2E5 JUMPI PUSH2 0x8EB PUSH2 0x10C5 JUMP JUMPDEST PUSH1 0x1 DUP1 SLOAD PUSH2 0x100 PUSH1 0x1 PUSH1 0xA8 SHL SUB NOT DUP2 AND SWAP1 SWAP2 SSTORE DUP2 SWAP1 PUSH1 0x8 SHR PUSH1 0x1 PUSH1 0x1 PUSH1 0xA0 SHL SUB AND PUSH32 0x8BE0079C531659141344CD1FD0A4F28419497F9722A3DAAFE3B4186F6B6457E0 DUP3 DUP1 LOG3 DUP1 RETURN JUMPDEST DUP4 SWAP1 CALLVALUE PUSH2 0x1BE JUMPI PUSH1 0x20 CALLDATASIZE PUSH1 0x3 NOT ADD SLT PUSH2 0x1BE JUMPI PUSH1 0x20 SWAP2 DUP2 SWAP1 PUSH1 0x1 PUSH1 0x1 PUSH1 0xA0 SHL SUB PUSH2 0x95B PUSH2 0x10AF JUMP JUMPDEST AND DUP2 MSTORE PUSH1 0x9 DUP5 MSTORE KECCAK256 SLOAD SWAP1 MLOAD SWAP1 DUP2 MSTORE RETURN JUMPDEST DUP4 SWAP1 CALLVALUE PUSH2 0x1BE JUMPI DUP2 PUSH1 0x3 NOT CALLDATASIZE ADD SLT PUSH2 0x1BE JUMPI PUSH1 0x20 SWAP1 PUSH1 0xB SLOAD SWAP1 MLOAD SWAP1 DUP2 MSTORE RETURN JUMPDEST DUP4 SWAP1 CALLVALUE PUSH2 0x1BE JUMPI DUP2 PUSH1 0x3 NOT CALLDATASIZE ADD SLT PUSH2 0x1BE JUMPI PUSH1 0x20 SWAP1 PUSH2 0x9A7 PUSH2 0x1548 JUMP JUMPDEST SWAP1 MLOAD SWAP1 DUP2 MSTORE RETURN JUMPDEST DUP4 SWAP1 CALLVALUE PUSH2 0x1BE JUMPI DUP2 PUSH1 0x3 NOT CALLDATASIZE ADD SLT PUSH2 0x1BE JUMPI PUSH1 0xA SLOAD SWAP1 MLOAD PUSH1 0x1 PUSH1 0x1 PUSH1 0xA0 SHL SUB SWAP1 SWAP2 AND DUP2 MSTORE PUSH1 0x20 SWAP1 RETURN JUMPDEST DUP4 SWAP1 CALLVALUE PUSH2 0x1BE JUMPI DUP2 PUSH1 0x3 NOT CALLDATASIZE ADD SLT PUSH2 0x1BE JUMPI PUSH1 0x20 SWAP1 PUSH1 0xFF PUSH1 0x1 SLOAD AND SWAP1 MLOAD SWAP1 ISZERO ISZERO DUP2 MSTORE RETURN JUMPDEST DUP4 SWAP1 CALLVALUE PUSH2 0x1BE JUMPI DUP2 PUSH1 0x3 NOT CALLDATASIZE ADD SLT PUSH2 0x1BE JUMPI PUSH1 0x20 SWAP1 PUSH1 0xC SLOAD SWAP1 MLOAD SWAP1 DUP2 MSTORE RETURN JUMPDEST POP POP CALLVALUE PUSH2 0x1BE JUMPI PUSH1 0x20 CALLDATASIZE PUSH1 0x3 NOT ADD SLT PUSH2 0x1BE JUMPI PUSH2 0xA35 PUSH2 0x10C5 JUMP JUMPDEST CALLDATALOAD PUSH1 0xB SSTORE DUP1 RETURN JUMPDEST SWAP1 POP CALLVALUE PUSH2 0x29C JUMPI DUP3 PUSH1 0x3 NOT CALLDATASIZE ADD SLT PUSH2 0x29C JUMPI PUSH2 0xA56 PUSH2 0x116F JUMP JUMPDEST PUSH4 0xFFFFFFFF PUSH1 0x8 SLOAD AND ISZERO PUSH2 0xAC4 JUMPI JUMPDEST CALLER DUP4 MSTORE PUSH1 0x9 PUSH1 0x20 MSTORE PUSH1 0x1 DUP2 DUP5 KECCAK256 ADD SLOAD TIMESTAMP LT PUSH2 0xA86 JUMPI DUP3 PUSH2 0xA83 PUSH2 0x1853 JUMP JUMPDEST DUP1 RETURN JUMPDEST SWAP1 PUSH1 0x20 PUSH1 0x64 SWAP3 MLOAD SWAP2 PUSH3 0x461BCD PUSH1 0xE5 SHL DUP4 MSTORE DUP3 ADD MSTORE PUSH1 0x18 PUSH1 0x24 DUP3 ADD MSTORE PUSH24 0x11585D195C8E8815995CDD1A5B99C81B9BDD08195B991959 PUSH1 0x42 SHL PUSH1 0x44 DUP3 ADD MSTORE REVERT JUMPDEST PUSH2 0xACC PUSH2 0x1853 JUMP JUMPDEST PUSH2 0xA65 JUMP JUMPDEST DUP4 SWAP2 POP CALLVALUE PUSH2 0x1BE JUMPI DUP2 PUSH1 0x3 NOT CALLDATASIZE ADD SLT PUSH2 0x1BE JUMPI PUSH2 0xAEC PUSH2 0x10C5 JUMP JUMPDEST PUSH1 0x3 SLOAD DUP2 MLOAD PUSH4 0x70A08231 PUSH1 0xE0 SHL DUP2 MSTORE ADDRESS DUP6 DUP3 ADD MSTORE SWAP4 PUSH1 0x20 SWAP3 SWAP2 PUSH1 0x1 PUSH1 0x1 PUSH1 0xA0 SHL SUB SWAP1 DUP2 AND SWAP2 SWAP1 DUP5 DUP8 PUSH1 0x24 DUP2 DUP7 GAS STATICCALL SWAP7 DUP8 ISZERO PUSH2 0xC1D JUMPI DUP7 SWAP8 PUSH2 0xBEA JUMPI JUMPDEST POP DUP7 ISZERO PUSH2 0xBA7 JUMPI PUSH1 0x1 SLOAD DUP5 MLOAD PUSH4 0xA9059CBB PUSH1 0xE0 SHL DUP2 MSTORE PUSH1 0x1 PUSH1 0x1 PUSH1 0xA0 SHL SUB PUSH1 0x8 SWAP3 SWAP1 SWAP3 SHR SWAP1 SWAP3 AND AND SWAP2 DUP2 ADD SWAP2 DUP3 MSTORE PUSH1 0x20 DUP3 ADD DUP8 SWAP1 MSTORE SWAP3 SWAP2 DUP5 SWAP2 DUP5 SWAP2 SWAP1 DUP3 SWAP1 DUP9 SWAP1 DUP3 SWAP1 PUSH1 0x40 ADD SUB SWAP3 GAS CALL SWAP1 DUP2 ISZERO PUSH2 0xB9E JUMPI POP PUSH2 0xB81 JUMPI DUP3 DUP1 RETURN JUMPDEST DUP2 PUSH2 0xB97 SWAP3 SWAP1 RETURNDATASIZE LT PUSH2 0x583 JUMPI PUSH2 0x577 DUP2 DUP4 PUSH2 0x1120 JUMP JUMPDEST POP DUP2 DUP1 DUP3 DUP1 RETURN JUMPDEST MLOAD RETURNDATASIZE DUP6 DUP3 RETURNDATACOPY RETURNDATASIZE SWAP1 REVERT JUMPDEST DUP4 MLOAD PUSH3 0x461BCD PUSH1 0xE5 SHL DUP2 MSTORE DUP1 DUP4 ADD DUP7 SWAP1 MSTORE PUSH1 0x1A PUSH1 0x24 DUP3 ADD MSTORE PUSH32 0x45617465723A204E6F2062616C616E636520746F207377656570000000000000 PUSH1 0x44 DUP3 ADD MSTORE PUSH1 0x64 SWAP1 REVERT JUMPDEST SWAP1 SWAP7 POP DUP5 DUP2 DUP2 RETURNDATASIZE DUP4 GT PUSH2 0xC16 JUMPI JUMPDEST PUSH2 0xC02 DUP2 DUP4 PUSH2 0x1120 JUMP JUMPDEST DUP2 ADD SUB SLT PUSH2 0xC12 JUMPI MLOAD SWAP6 DUP8 PUSH2 0xB28 JUMP JUMPDEST DUP6 DUP1 REVERT JUMPDEST POP RETURNDATASIZE PUSH2 0xBF8 JUMP JUMPDEST DUP5 MLOAD RETURNDATASIZE DUP9 DUP3 RETURNDATACOPY RETURNDATASIZE SWAP1 REVERT JUMPDEST SWAP2 SWAP1 POP CALLVALUE PUSH2 0x29C JUMPI PUSH1 0x20 SWAP1 DUP2 PUSH1 0x3 NOT CALLDATASIZE ADD SLT PUSH2 0x698 JUMPI DUP1 CALLDATALOAD SWAP2 PUSH2 0xC48 PUSH2 0x116F JUMP JUMPDEST PUSH3 0x186A0 PUSH2 0xC5D PUSH2 0xC57 PUSH2 0x1548 JUMP JUMPDEST DUP6 PUSH2 0x1209 JUMP JUMPDEST DIV SWAP1 PUSH1 0x1 DUP1 PUSH1 0xA0 SHL SUB DUP1 PUSH1 0x3 SLOAD AND SWAP3 DUP7 MLOAD SWAP1 DUP4 DUP3 PUSH1 0x24 DUP2 PUSH4 0x70A08231 PUSH1 0xE0 SHL SWAP9 DUP10 DUP3 MSTORE ADDRESS DUP12 DUP4 ADD MSTORE GAS STATICCALL SWAP2 DUP3 ISZERO PUSH2 0xD5A JUMPI DUP10 SWAP3 PUSH2 0xD25 JUMPI JUMPDEST POP SWAP1 PUSH2 0xCA5 PUSH2 0xCAC SWAP3 DUP8 SLOAD PUSH2 0x1232 JUMP JUMPDEST GT ISZERO PUSH2 0x17AD JUMP JUMPDEST PUSH1 0x2 SLOAD AND SWAP3 DUP6 MLOAD SWAP3 DUP4 MSTORE CALLER SWAP1 DUP4 ADD MSTORE DUP1 DUP3 PUSH1 0x24 DUP2 DUP7 GAS STATICCALL SWAP5 DUP6 ISZERO PUSH2 0xD1C JUMPI POP DUP6 SWAP5 PUSH2 0xCEA JUMPI JUMPDEST POP POP PUSH2 0xCE3 DUP3 PUSH2 0xA83 SWAP5 LT ISZERO PUSH2 0x17F8 JUMP JUMPDEST CALLER SWAP2 PUSH2 0x1261 JUMP JUMPDEST SWAP1 DUP1 SWAP5 POP DUP2 RETURNDATASIZE DUP4 GT PUSH2 0xD15 JUMPI JUMPDEST PUSH2 0xD01 DUP2 DUP4 PUSH2 0x1120 JUMP JUMPDEST DUP2 ADD SUB SLT PUSH2 0x698 JUMPI SWAP2 MLOAD SWAP2 PUSH2 0xCE3 DUP3 PUSH2 0xCD2 JUMP JUMPDEST POP RETURNDATASIZE PUSH2 0xCF7 JUMP JUMPDEST MLOAD RETURNDATASIZE DUP8 DUP3 RETURNDATACOPY RETURNDATASIZE SWAP1 REVERT JUMPDEST SWAP2 POP DUP4 DUP3 DUP2 RETURNDATASIZE DUP4 GT PUSH2 0xD53 JUMPI JUMPDEST PUSH2 0xD3C DUP2 DUP4 PUSH2 0x1120 JUMP JUMPDEST DUP2 ADD SUB SLT PUSH2 0xD4F JUMPI SWAP1 MLOAD SWAP1 PUSH2 0xCA5 PUSH2 0xC95 JUMP JUMPDEST DUP9 DUP1 REVERT JUMPDEST POP RETURNDATASIZE PUSH2 0xD32 JUMP JUMPDEST DUP9 MLOAD RETURNDATASIZE DUP12 DUP3 RETURNDATACOPY RETURNDATASIZE SWAP1 REVERT JUMPDEST DUP4 SWAP1 CALLVALUE PUSH2 0x1BE JUMPI DUP2 PUSH1 0x3 NOT CALLDATASIZE ADD SLT PUSH2 0x1BE JUMPI PUSH1 0x2 SLOAD SWAP1 MLOAD PUSH1 0x1 PUSH1 0x1 PUSH1 0xA0 SHL SUB SWAP1 SWAP2 AND DUP2 MSTORE PUSH1 0x20 SWAP1 RETURN JUMPDEST SWAP3 SWAP2 POP CALLVALUE PUSH2 0x593 JUMPI PUSH1 0x60 CALLDATASIZE PUSH1 0x3 NOT ADD SLT PUSH2 0x593 JUMPI PUSH1 0x1 PUSH1 0x1 PUSH1 0xA0 SHL SUB PUSH1 0x24 CALLDATALOAD DUP2 DUP2 AND SWAP1 DUP5 CALLDATALOAD SWAP1 DUP3 SWAP1 SUB PUSH2 0xC12 JUMPI PUSH1 0x44 CALLDATALOAD PUSH1 0x1 PUSH1 0x1 PUSH1 0x40 SHL SUB DUP2 GT PUSH2 0x1019 JUMPI PUSH2 0xDD8 SWAP1 CALLDATASIZE SWAP1 DUP8 ADD PUSH2 0x107D JUMP JUMPDEST SWAP7 SWAP1 SWAP6 PUSH2 0xDE3 PUSH2 0x11B3 JUMP JUMPDEST PUSH2 0xDEB PUSH2 0x116F JUMP JUMPDEST PUSH3 0x186A0 PUSH2 0xDFA PUSH2 0xC57 PUSH2 0x1548 JUMP JUMPDEST DIV SWAP8 DUP6 PUSH1 0x3 SLOAD AND DUP8 MLOAD DUP1 SWAP11 PUSH4 0x70A08231 PUSH1 0xE0 SHL SWAP3 DUP4 DUP4 MSTORE ADDRESS DUP7 DUP5 ADD MSTORE DUP3 PUSH1 0x24 PUSH1 0x20 SWAP15 DUP16 SWAP4 GAS STATICCALL SWAP2 DUP3 ISZERO PUSH2 0x100F JUMPI DUP7 SWAP3 PUSH2 0xFDE JUMPI JUMPDEST POP SWAP1 PUSH2 0xCA5 PUSH2 0xE3E SWAP3 DUP7 SLOAD PUSH2 0x1232 JUMP JUMPDEST DUP7 PUSH1 0x2 SLOAD AND SWAP1 DUP9 MLOAD SWAP1 DUP2 MSTORE CALLER DUP5 DUP3 ADD MSTORE DUP11 DUP2 PUSH1 0x24 DUP2 DUP6 GAS STATICCALL SWAP1 DUP2 ISZERO PUSH2 0xFD4 JUMPI SWAP1 DUP7 SWAP3 SWAP2 DUP7 SWAP2 PUSH2 0xF9F JUMPI JUMPDEST POP PUSH2 0xE80 SWAP3 PUSH2 0xE78 SWAP2 LT ISZERO PUSH2 0x17F8 JUMP JUMPDEST CALLER SWAP1 DUP7 PUSH2 0x1261 JUMP JUMPDEST PUSH1 0x2 SLOAD DUP8 MLOAD PUSH4 0x95EA7B3 PUSH1 0xE0 SHL DUP2 MSTORE PUSH1 0x1 PUSH1 0x1 PUSH1 0xA0 SHL SUB DUP8 AND DUP5 DUP3 ADD SWAP1 DUP2 MSTORE PUSH1 0x20 DUP2 ADD DUP8 SWAP1 MSTORE SWAP1 SWAP2 DUP12 SWAP2 DUP4 SWAP2 DUP11 AND SWAP1 DUP3 SWAP1 DUP9 SWAP1 DUP3 SWAP1 PUSH1 0x40 ADD SUB SWAP3 GAS CALL DUP1 ISZERO PUSH2 0xF95 JUMPI SWAP2 DUP11 SWAP8 SWAP7 SWAP6 SWAP5 SWAP4 SWAP2 PUSH1 0xA4 SWAP4 PUSH2 0xF78 JUMPI JUMPDEST POP DUP1 DUP8 PUSH1 0xA SLOAD AND DUP1 ISZERO PUSH1 0x0 EQ PUSH2 0xF72 JUMPI POP ADDRESS SWAP11 JUMPDEST DUP9 PUSH1 0x2 SLOAD AND SWAP9 DUP12 MLOAD SWAP13 DUP14 SWAP11 DUP12 SWAP10 DUP11 SWAP8 PUSH4 0x2454B71 PUSH1 0xE4 SHL DUP10 MSTORE DUP9 ADD MSTORE PUSH1 0x24 DUP8 ADD MSTORE AND PUSH1 0x44 DUP6 ADD MSTORE PUSH1 0x80 PUSH1 0x64 DUP6 ADD MSTORE DUP2 PUSH1 0x84 DUP6 ADD MSTORE DUP5 DUP5 ADD CALLDATACOPY DUP2 DUP2 ADD DUP4 ADD DUP5 SWAP1 MSTORE PUSH1 0x1F ADD PUSH1 0x1F NOT AND DUP2 ADD SUB ADD SWAP3 GAS CALL SWAP1 DUP2 ISZERO PUSH2 0xB9E JUMPI POP PUSH2 0xF49 JUMPI JUMPDEST DUP3 PUSH1 0x1 DUP2 SSTORE DUP1 RETURN JUMPDEST DUP2 RETURNDATASIZE DUP4 GT PUSH2 0xF6B JUMPI JUMPDEST PUSH2 0xF5C DUP2 DUP4 PUSH2 0x1120 JUMP JUMPDEST DUP2 ADD SUB SLT PUSH2 0x2E5 JUMPI CODESIZE DUP1 PUSH2 0xF41 JUMP JUMPDEST POP RETURNDATASIZE PUSH2 0xF52 JUMP JUMPDEST SWAP11 PUSH2 0xEE6 JUMP JUMPDEST PUSH2 0xF8E SWAP1 DUP10 RETURNDATASIZE DUP12 GT PUSH2 0x583 JUMPI PUSH2 0x577 DUP2 DUP4 PUSH2 0x1120 JUMP JUMPDEST POP CODESIZE PUSH2 0xED2 JUMP JUMPDEST DUP9 MLOAD RETURNDATASIZE DUP7 DUP3 RETURNDATACOPY RETURNDATASIZE SWAP1 REVERT JUMPDEST DUP1 SWAP4 POP DUP13 DUP1 SWAP3 POP RETURNDATASIZE DUP4 GT PUSH2 0xFCD JUMPI JUMPDEST PUSH2 0xFB8 DUP2 DUP4 PUSH2 0x1120 JUMP JUMPDEST DUP2 ADD SUB SLT PUSH2 0x694 JUMPI SWAP1 MLOAD DUP6 SWAP2 SWAP1 PUSH2 0xE80 PUSH2 0xE68 JUMP JUMPDEST POP RETURNDATASIZE PUSH2 0xFAE JUMP JUMPDEST DUP10 MLOAD RETURNDATASIZE DUP8 DUP3 RETURNDATACOPY RETURNDATASIZE SWAP1 REVERT JUMPDEST SWAP2 POP DUP12 DUP3 DUP2 RETURNDATASIZE DUP4 GT PUSH2 0x1008 JUMPI JUMPDEST PUSH2 0xFF5 DUP2 DUP4 PUSH2 0x1120 JUMP JUMPDEST DUP2 ADD SUB SLT PUSH2 0xC12 JUMPI SWAP1 MLOAD SWAP1 PUSH2 0xCA5 PUSH2 0xE2E JUMP JUMPDEST POP RETURNDATASIZE PUSH2 0xFEB JUMP JUMPDEST DUP11 MLOAD RETURNDATASIZE DUP9 DUP3 RETURNDATACOPY RETURNDATASIZE SWAP1 REVERT JUMPDEST DUP7 DUP1 REVERT JUMPDEST SWAP2 SWAP1 POP CALLVALUE PUSH2 0x29C JUMPI DUP3 PUSH1 0x3 NOT CALLDATASIZE ADD SLT PUSH2 0x29C JUMPI PUSH1 0x20 SWAP3 POP SLOAD SWAP1 MLOAD SWAP1 DUP2 MSTORE RETURN JUMPDEST DUP4 SWAP1 CALLVALUE PUSH2 0x1BE JUMPI DUP2 PUSH1 0x3 NOT CALLDATASIZE ADD SLT PUSH2 0x1BE JUMPI PUSH1 0x20 SWAP1 PUSH4 0xFFFFFFFF PUSH1 0x8 SLOAD AND SWAP1 MLOAD SWAP1 DUP2 MSTORE RETURN JUMPDEST DUP5 SWAP1 CALLVALUE PUSH2 0x1BE JUMPI DUP2 PUSH1 0x3 NOT CALLDATASIZE ADD SLT PUSH2 0x1BE JUMPI PUSH1 0x20 SWAP1 PUSH1 0x6 SLOAD DUP2 MSTORE RETURN JUMPDEST SWAP2 DUP2 PUSH1 0x1F DUP5 ADD SLT ISZERO PUSH2 0x10AA JUMPI DUP3 CALLDATALOAD SWAP2 PUSH1 0x1 PUSH1 0x1 PUSH1 0x40 SHL SUB DUP4 GT PUSH2 0x10AA JUMPI PUSH1 0x20 DUP4 DUP2 DUP7 ADD SWAP6 ADD ADD GT PUSH2 0x10AA JUMPI JUMP JUMPDEST PUSH1 0x0 DUP1 REVERT JUMPDEST PUSH1 0x4 CALLDATALOAD SWAP1 PUSH1 0x1 PUSH1 0x1 PUSH1 0xA0 SHL SUB DUP3 AND DUP3 SUB PUSH2 0x10AA JUMPI JUMP JUMPDEST PUSH1 0x1 SLOAD PUSH1 0x8 SHR PUSH1 0x1 PUSH1 0x1 PUSH1 0xA0 SHL SUB AND CALLER SUB PUSH2 0x10DC JUMPI JUMP JUMPDEST PUSH1 0x64 PUSH1 0x40 MLOAD PUSH3 0x461BCD PUSH1 0xE5 SHL DUP2 MSTORE PUSH1 0x20 PUSH1 0x4 DUP3 ADD MSTORE PUSH1 0x20 PUSH1 0x24 DUP3 ADD MSTORE PUSH32 0x4F776E61626C653A2063616C6C6572206973206E6F7420746865206F776E6572 PUSH1 0x44 DUP3 ADD MSTORE REVERT JUMPDEST SWAP1 PUSH1 0x1F DUP1 NOT SWAP2 ADD AND DUP2 ADD SWAP1 DUP2 LT PUSH1 0x1 PUSH1 0x1 PUSH1 0x40 SHL SUB DUP3 GT OR PUSH2 0x1141 JUMPI PUSH1 0x40 MSTORE JUMP JUMPDEST PUSH4 0x4E487B71 PUSH1 0xE0 SHL PUSH1 0x0 MSTORE PUSH1 0x41 PUSH1 0x4 MSTORE PUSH1 0x24 PUSH1 0x0 REVERT JUMPDEST SWAP1 DUP2 PUSH1 0x20 SWAP2 SUB SLT PUSH2 0x10AA JUMPI MLOAD DUP1 ISZERO ISZERO DUP2 SUB PUSH2 0x10AA JUMPI SWAP1 JUMP JUMPDEST PUSH1 0xFF PUSH1 0x1 SLOAD AND PUSH2 0x117B JUMPI JUMP JUMPDEST PUSH1 0x40 MLOAD PUSH3 0x461BCD PUSH1 0xE5 SHL DUP2 MSTORE PUSH1 0x20 PUSH1 0x4 DUP3 ADD MSTORE PUSH1 0x10 PUSH1 0x24 DUP3 ADD MSTORE PUSH16 0x14185D5CD8589B194E881C185D5CD959 PUSH1 0x82 SHL PUSH1 0x44 DUP3 ADD MSTORE PUSH1 0x64 SWAP1 REVERT JUMPDEST PUSH1 0x2 PUSH1 0x0 SLOAD EQ PUSH2 0x11C4 JUMPI PUSH1 0x2 PUSH1 0x0 SSTORE JUMP JUMPDEST PUSH1 0x40 MLOAD PUSH3 0x461BCD PUSH1 0xE5 SHL DUP2 MSTORE PUSH1 0x20 PUSH1 0x4 DUP3 ADD MSTORE PUSH1 0x1F PUSH1 0x24 DUP3 ADD MSTORE PUSH32 0x5265656E7472616E637947756172643A207265656E7472616E742063616C6C00 PUSH1 0x44 DUP3 ADD MSTORE PUSH1 0x64 SWAP1 REVERT JUMPDEST DUP2 DUP2 MUL SWAP3 SWAP2 DUP2 ISZERO SWAP2 DUP5 DIV EQ OR ISZERO PUSH2 0x121C JUMPI JUMP JUMPDEST PUSH4 0x4E487B71 PUSH1 0xE0 SHL PUSH1 0x0 MSTORE PUSH1 0x11 PUSH1 0x4 MSTORE PUSH1 0x24 PUSH1 0x0 REVERT JUMPDEST SWAP2 SWAP1 DUP3 ADD DUP1 SWAP3 GT PUSH2 0x121C JUMPI JUMP JUMPDEST PUSH1 0x1 PUSH1 0x1 PUSH1 0xA0 SHL SUB SWAP2 DUP3 AND DUP2 MSTORE SWAP2 AND PUSH1 0x20 DUP3 ADD MSTORE PUSH1 0x40 DUP2 ADD SWAP2 SWAP1 SWAP2 MSTORE PUSH1 0x60 ADD SWAP1 JUMP JUMPDEST SWAP1 SWAP3 SWAP2 PUSH3 0x186A0 PUSH2 0x1279 PUSH2 0x1273 PUSH2 0x1548 JUMP JUMPDEST DUP5 PUSH2 0x1209 JUMP JUMPDEST DIV SWAP2 PUSH1 0x4 SWAP5 PUSH2 0x1289 DUP5 DUP8 SLOAD PUSH2 0x1232 JUMP JUMPDEST DUP7 SSTORE PUSH1 0x1 DUP1 PUSH1 0xA0 SHL SUB SWAP6 DUP7 PUSH1 0x3 SLOAD AND SWAP4 PUSH1 0x40 SWAP3 DUP4 MLOAD DUP1 SWAP7 PUSH4 0x70A08231 PUSH1 0xE0 SHL DUP3 MSTORE ADDRESS DUP6 DUP4 ADD MSTORE DUP2 PUSH1 0x24 PUSH1 0x20 SWAP10 DUP11 SWAP4 GAS STATICCALL SWAP1 DUP2 ISZERO PUSH2 0x1530 JUMPI PUSH1 0x0 SWAP2 PUSH2 0x1503 JUMPI JUMPDEST POP DUP8 GT PUSH2 0x14AA JUMPI DUP6 DUP5 MLOAD DUP1 SWAP3 PUSH4 0x23B872DD PUSH1 0xE0 SHL DUP3 MSTORE DUP2 PUSH1 0x0 DUP14 DUP3 PUSH2 0x12F1 DUP13 ADDRESS DUP12 DUP14 DUP6 ADD PUSH2 0x123F JUMP JUMPDEST SUB SWAP4 AND GAS CALL DUP1 ISZERO PUSH2 0x149F JUMPI PUSH2 0x1482 JUMPI JUMPDEST POP DUP8 DUP2 AND SWAP6 DUP7 PUSH1 0x0 MSTORE PUSH1 0x9 DUP7 MSTORE DUP4 PUSH1 0x0 KECCAK256 SLOAD SWAP2 PUSH4 0xFFFFFFFF SWAP10 DUP11 PUSH1 0x8 SLOAD AND ISZERO ISZERO PUSH1 0x0 EQ PUSH2 0x13E4 JUMPI POP POP SWAP1 PUSH2 0x1334 SWAP2 PUSH2 0x1232 JUMP JUMPDEST SWAP7 PUSH1 0x3C DUP2 PUSH1 0x8 SLOAD AND MUL SWAP1 DUP2 AND SWAP1 DUP2 SUB PUSH2 0x13CF JUMPI PUSH2 0x1351 SWAP1 TIMESTAMP PUSH2 0x1232 JUMP JUMPDEST SWAP7 DUP3 MLOAD SWAP2 DUP4 DUP4 ADD SWAP1 DUP4 DUP3 LT PUSH1 0x1 PUSH1 0x1 PUSH1 0x40 SHL SUB DUP4 GT OR PUSH2 0x13BA JUMPI POP SWAP8 PUSH1 0x1 SWAP2 PUSH32 0xADC41BA80FFA0859AAB1D7CF405A6633A6AF94FC3D10E5B0E0BF46CDCC0FD9C8 SWAP8 SWAP9 SWAP10 DUP6 MSTORE DUP4 MSTORE DUP6 DUP4 ADD SWAP1 DUP2 MSTORE CALLER PUSH1 0x0 MSTORE PUSH1 0x9 DUP7 MSTORE DUP4 PUSH1 0x0 KECCAK256 SWAP3 MLOAD DUP4 SSTORE MLOAD SWAP2 ADD SSTORE JUMPDEST MLOAD SWAP1 DUP2 MSTORE LOG2 JUMP JUMPDEST PUSH1 0x41 SWAP1 PUSH4 0x4E487B71 PUSH1 0xE0 SHL PUSH1 0x0 MSTORE MSTORE PUSH1 0x24 PUSH1 0x0 REVERT JUMPDEST PUSH1 0x11 DUP3 PUSH4 0x4E487B71 PUSH1 0xE0 SHL PUSH1 0x0 MSTORE MSTORE PUSH1 0x24 PUSH1 0x0 REVERT JUMPDEST PUSH1 0x3 SLOAD DUP7 MLOAD PUSH4 0xA9059CBB PUSH1 0xE0 SHL DUP2 MSTORE PUSH1 0x1 PUSH1 0x1 PUSH1 0xA0 SHL SUB SWAP4 SWAP1 SWAP4 AND SWAP6 DUP4 ADD SWAP6 DUP7 MSTORE PUSH1 0x20 DUP7 ADD SWAP4 SWAP1 SWAP4 MSTORE SWAP1 SWAP10 POP DUP7 SWAP4 DUP11 SWAP4 POP DUP4 SWAP1 SUB PUSH1 0x40 ADD SWAP2 DUP4 SWAP2 PUSH1 0x0 SWAP2 AND GAS CALL SWAP6 DUP7 ISZERO PUSH2 0x1477 JUMPI PUSH32 0xADC41BA80FFA0859AAB1D7CF405A6633A6AF94FC3D10E5B0E0BF46CDCC0FD9C8 SWAP5 SWAP6 SWAP7 PUSH2 0x145A JUMPI JUMPDEST POP PUSH2 0x13B3 JUMP JUMPDEST PUSH2 0x1470 SWAP1 DUP5 RETURNDATASIZE DUP7 GT PUSH2 0x583 JUMPI PUSH2 0x577 DUP2 DUP4 PUSH2 0x1120 JUMP JUMPDEST POP CODESIZE PUSH2 0x1454 JUMP JUMPDEST POP MLOAD RETURNDATASIZE PUSH1 0x0 DUP3 RETURNDATACOPY RETURNDATASIZE SWAP1 REVERT JUMPDEST PUSH2 0x1498 SWAP1 DUP7 RETURNDATASIZE DUP9 GT PUSH2 0x583 JUMPI PUSH2 0x577 DUP2 DUP4 PUSH2 0x1120 JUMP JUMPDEST POP CODESIZE PUSH2 0x1301 JUMP JUMPDEST DUP5 MLOAD RETURNDATASIZE PUSH1 0x0 DUP3 RETURNDATACOPY RETURNDATASIZE SWAP1 REVERT JUMPDEST DUP4 MLOAD PUSH3 0x461BCD PUSH1 0xE5 SHL DUP2 MSTORE DUP1 DUP5 ADD DUP8 SWAP1 MSTORE PUSH1 0x2D PUSH1 0x24 DUP3 ADD MSTORE PUSH32 0x45617465723A20496E73756666696369656E7420746F6B656E2062616C616E63 PUSH1 0x44 DUP3 ADD MSTORE PUSH13 0x32903A37903A3930B739B332B9 PUSH1 0x99 SHL PUSH1 0x64 DUP3 ADD MSTORE PUSH1 0x84 SWAP1 REVERT JUMPDEST SWAP1 DUP8 DUP3 DUP2 RETURNDATASIZE DUP4 GT PUSH2 0x1529 JUMPI JUMPDEST PUSH2 0x1519 DUP2 DUP4 PUSH2 0x1120 JUMP JUMPDEST DUP2 ADD SUB SLT PUSH2 0x2E5 JUMPI POP MLOAD CODESIZE PUSH2 0x12C8 JUMP JUMPDEST POP RETURNDATASIZE PUSH2 0x150F JUMP JUMPDEST DUP6 MLOAD RETURNDATASIZE PUSH1 0x0 DUP3 RETURNDATACOPY RETURNDATASIZE SWAP1 REVERT JUMPDEST SWAP2 SWAP1 DUP3 SUB SWAP2 DUP3 GT PUSH2 0x121C JUMPI JUMP JUMPDEST PUSH1 0x6 SLOAD PUSH2 0x1563 PUSH2 0x155A DUP3 PUSH1 0x7 SLOAD PUSH2 0x153B JUMP JUMPDEST PUSH1 0x5 SLOAD SWAP1 PUSH2 0x1209 JUMP JUMPDEST SWAP1 PUSH1 0x4 SLOAD DUP1 ISZERO PUSH2 0x157B JUMPI PUSH2 0x1578 SWAP3 DIV SWAP1 PUSH2 0x1232 JUMP JUMPDEST SWAP1 JUMP JUMPDEST PUSH4 0x4E487B71 PUSH1 0xE0 SHL PUSH1 0x0 MSTORE PUSH1 0x12 PUSH1 0x4 MSTORE PUSH1 0x24 PUSH1 0x0 REVERT JUMPDEST PUSH1 0x40 DUP1 MLOAD PUSH1 0x1 PUSH1 0x1 PUSH1 0x40 SHL SUB SWAP5 SWAP4 PUSH1 0x1 PUSH1 0x1 PUSH1 0xA0 SHL SUB SWAP1 SWAP4 AND SWAP3 SWAP1 SWAP2 DUP3 ADD DUP6 DUP2 GT DUP4 DUP3 LT OR PUSH2 0x1141 JUMPI PUSH1 0x40 MSTORE PUSH1 0x20 SWAP3 DUP4 DUP4 MSTORE PUSH32 0x5361666545524332303A206C6F772D6C6576656C2063616C6C206661696C6564 DUP5 DUP5 ADD MSTORE PUSH1 0x0 DUP1 DUP4 DUP7 DUP3 SWAP6 MLOAD SWAP2 ADD DUP3 DUP6 GAS CALL SWAP1 RETURNDATASIZE ISZERO PUSH2 0x16CC JUMPI RETURNDATASIZE SWAP7 DUP8 GT PUSH2 0x16B8 JUMPI PUSH2 0x1630 SWAP5 SWAP6 SWAP7 PUSH1 0x40 MLOAD SWAP1 PUSH2 0x1622 DUP9 PUSH1 0x1F NOT PUSH1 0x1F DUP5 ADD AND ADD DUP4 PUSH2 0x1120 JUMP JUMPDEST DUP2 MSTORE DUP1 SWAP4 DUP8 RETURNDATASIZE SWAP3 ADD RETURNDATACOPY PUSH2 0x16D9 JUMP JUMPDEST DUP1 MLOAD SWAP1 DUP3 DUP3 ISZERO SWAP3 DUP4 ISZERO PUSH2 0x16A0 JUMPI JUMPDEST POP POP POP ISZERO PUSH2 0x1649 JUMPI POP JUMP JUMPDEST PUSH1 0x84 SWAP1 PUSH1 0x40 MLOAD SWAP1 PUSH3 0x461BCD PUSH1 0xE5 SHL DUP3 MSTORE PUSH1 0x4 DUP3 ADD MSTORE PUSH1 0x2A PUSH1 0x24 DUP3 ADD MSTORE PUSH32 0x5361666545524332303A204552433230206F7065726174696F6E20646964206E PUSH1 0x44 DUP3 ADD MSTORE PUSH10 0x1BDD081CDD58D8D95959 PUSH1 0xB2 SHL PUSH1 0x64 DUP3 ADD MSTORE REVERT JUMPDEST PUSH2 0x16B0 SWAP4 POP DUP3 ADD DUP2 ADD SWAP2 ADD PUSH2 0x1157 JUMP JUMPDEST CODESIZE DUP3 DUP2 PUSH2 0x163E JUMP JUMPDEST PUSH4 0x4E487B71 PUSH1 0xE0 SHL DUP4 MSTORE PUSH1 0x41 PUSH1 0x4 MSTORE PUSH1 0x24 DUP4 REVERT JUMPDEST SWAP2 POP PUSH2 0x1630 SWAP4 SWAP5 SWAP6 POP PUSH1 0x60 SWAP2 JUMPDEST SWAP2 SWAP3 SWAP1 ISZERO PUSH2 0x173B JUMPI POP DUP2 MLOAD ISZERO PUSH2 0x16ED JUMPI POP SWAP1 JUMP JUMPDEST EXTCODESIZE ISZERO PUSH2 0x16F6 JUMPI SWAP1 JUMP JUMPDEST PUSH1 0x40 MLOAD PUSH3 0x461BCD PUSH1 0xE5 SHL DUP2 MSTORE PUSH1 0x20 PUSH1 0x4 DUP3 ADD MSTORE PUSH1 0x1D PUSH1 0x24 DUP3 ADD MSTORE PUSH32 0x416464726573733A2063616C6C20746F206E6F6E2D636F6E7472616374000000 PUSH1 0x44 DUP3 ADD MSTORE PUSH1 0x64 SWAP1 REVERT JUMPDEST DUP3 MLOAD SWAP1 SWAP2 POP ISZERO PUSH2 0x174E JUMPI POP DUP1 MLOAD SWAP1 PUSH1 0x20 ADD REVERT JUMPDEST PUSH1 0x40 MLOAD SWAP1 PUSH3 0x461BCD PUSH1 0xE5 SHL DUP3 MSTORE DUP2 PUSH1 0x20 DUP1 PUSH1 0x4 DUP4 ADD MSTORE DUP3 MLOAD SWAP1 DUP2 PUSH1 0x24 DUP5 ADD MSTORE PUSH1 0x0 SWAP4 JUMPDEST DUP3 DUP6 LT PUSH2 0x1794 JUMPI POP POP PUSH1 0x44 SWAP3 POP PUSH1 0x0 DUP4 DUP3 DUP5 ADD ADD MSTORE PUSH1 0x1F DUP1 NOT SWAP2 ADD AND DUP2 ADD SUB ADD SWAP1 REVERT JUMPDEST DUP5 DUP2 ADD DUP3 ADD MLOAD DUP7 DUP7 ADD PUSH1 0x44 ADD MSTORE SWAP4 DUP2 ADD SWAP4 DUP6 SWAP4 POP PUSH2 0x1771 JUMP JUMPDEST ISZERO PUSH2 0x17B4 JUMPI JUMP JUMPDEST PUSH1 0x64 PUSH1 0x40 MLOAD PUSH3 0x461BCD PUSH1 0xE5 SHL DUP2 MSTORE PUSH1 0x20 PUSH1 0x4 DUP3 ADD MSTORE PUSH1 0x20 PUSH1 0x24 DUP3 ADD MSTORE PUSH32 0x45617465723A20496E73756666696369656E7420576577652062616C616E6365 PUSH1 0x44 DUP3 ADD MSTORE REVERT JUMPDEST ISZERO PUSH2 0x17FF JUMPI JUMP JUMPDEST PUSH1 0x40 MLOAD PUSH3 0x461BCD PUSH1 0xE5 SHL DUP2 MSTORE PUSH1 0x20 PUSH1 0x4 DUP3 ADD MSTORE PUSH1 0x26 PUSH1 0x24 DUP3 ADD MSTORE PUSH32 0x56756C744D657267653A20496E73756666696369656E742062616C616E636520 PUSH1 0x44 DUP3 ADD MSTORE PUSH6 0x1D1BC819585D PUSH1 0xD2 SHL PUSH1 0x64 DUP3 ADD MSTORE PUSH1 0x84 SWAP1 REVERT JUMPDEST PUSH1 0x0 CALLER DUP2 MSTORE PUSH1 0x9 PUSH1 0x20 MSTORE DUP1 PUSH1 0x20 PUSH2 0x18C1 PUSH1 0x40 DUP4 KECCAK256 SLOAD PUSH2 0x1874 DUP2 PUSH1 0x5 SLOAD PUSH2 0x153B JUMP JUMPDEST PUSH1 0x5 SSTORE CALLER DUP1 DUP6 MSTORE PUSH1 0x9 DUP5 MSTORE PUSH1 0x40 DUP1 DUP7 KECCAK256 DUP7 SWAP1 SSTORE PUSH1 0x3 SLOAD SWAP1 MLOAD PUSH4 0xA9059CBB PUSH1 0xE0 SHL DUP2 MSTORE PUSH1 0x4 DUP2 ADD SWAP3 SWAP1 SWAP3 MSTORE PUSH1 0x24 DUP3 ADD SWAP3 SWAP1 SWAP3 MSTORE SWAP5 DUP6 SWAP3 PUSH1 0x1 PUSH1 0x1 PUSH1 0xA0 SHL SUB SWAP1 SWAP3 AND SWAP2 DUP4 SWAP2 SWAP1 DUP3 SWAP1 PUSH1 0x44 DUP3 ADD SWAP1 JUMP JUMPDEST SUB SWAP3 GAS CALL SWAP1 DUP2 ISZERO PUSH2 0x18EE JUMPI POP PUSH2 0x18D4 JUMPI POP JUMP JUMPDEST PUSH2 0x18EB SWAP1 PUSH1 0x20 RETURNDATASIZE DUP2 GT PUSH2 0x583 JUMPI PUSH2 0x577 DUP2 DUP4 PUSH2 0x1120 JUMP JUMPDEST POP JUMP JUMPDEST PUSH1 0x40 MLOAD SWAP1 RETURNDATASIZE SWAP1 DUP3 RETURNDATACOPY RETURNDATASIZE SWAP1 REVERT INVALID LOG2 PUSH5 0x6970667358 0x22 SLT KECCAK256 NUMBER 0xCD PUSH19 0xBF01822906282724FD37F8F8D3C81533D8246 0x4B BALANCE 0xF6 0xC5 BLOCKHASH SLOAD SIGNEXTEND SWAP4 0xDE PUSH17 0x64736F6C63430008130033000000000000 "
        },
        "methodIdentifiers": {
          "balanceOf(address)": "70a08231",
          "canClaim(address)": "bf3506c1",
          "claim()": "4e71d92d",
          "deposit(uint256)": "b6b55f25",
          "getRate()": "679aefce",
          "getToken()": "21df0da7",
          "lockedStatus()": "72a1789a",
          "maxRate()": "ece1d6e5",
          "merge(uint256)": "24a47aeb",
          "mergeAndSell(uint256,address,bytes)": "213897fe",
          "minRate()": "0cb60443",
          "onApprovalReceived(address,uint256,bytes)": "7b04a2d0",
          "owner()": "8da5cb5b",
          "paused()": "5c975abb",
          "receiveApproval(address,uint256,address,bytes)": "8f4ffcb1",
          "renounceOwnership()": "715018a6",
          "setLockedStatus(uint8)": "f3a75285",
          "setTreasury(address)": "f0f44260",
          "setVestingDuration(uint32)": "9636d881",
          "setVirtualWeweBalance(uint256)": "4f6b6085",
          "sweep()": "35faa416",
          "togglePause()": "c4ae3168",
          "totalVested()": "199cbc54",
          "transferOwnership(address)": "f2fde38b",
          "treasury()": "61d027b3",
          "vestingDuration()": "1514617e",
          "vestings(address)": "daf49863",
          "virtualWeweBalance()": "707962cb",
          "vult()": "ec21ac87",
          "vultBalance()": "e0dd5974",
          "wewe()": "e1f26f22",
          "weweBalance()": "5825cca2"
        }
      }
    }
  }
}