{
  "contracts/core/merge/DynamicEater.sol": {
    "DynamicEater": {
      "abi": [
        {
          "inputs": [
            {
              "internalType": "address",
              "name": "_wewe",
              "type": "address"
            },
            {
              "internalType": "address",
              "name": "_token",
              "type": "address"
            },
            {
              "internalType": "uint32",
              "name": "_vestingDuration",
              "type": "uint32"
            },
            {
              "internalType": "uint256",
              "name": "_virtualToken",
              "type": "uint256"
            },
            {
              "internalType": "uint256",
              "name": "_virtualWEWE",
              "type": "uint256"
            }
          ],
          "stateMutability": "nonpayable",
          "type": "constructor"
        },
        {
          "anonymous": false,
          "inputs": [
            {
              "indexed": false,
              "internalType": "uint256",
              "name": "amount",
              "type": "uint256"
            }
          ],
          "name": "Dumped",
          "type": "event"
        },
        {
          "anonymous": false,
          "inputs": [
            {
              "indexed": false,
              "internalType": "uint256",
              "name": "amount",
              "type": "uint256"
            },
            {
              "indexed": true,
              "internalType": "address",
              "name": "account",
              "type": "address"
            },
            {
              "indexed": false,
              "internalType": "uint256",
              "name": "weweAmount",
              "type": "uint256"
            }
          ],
          "name": "Merged",
          "type": "event"
        },
        {
          "anonymous": false,
          "inputs": [
            {
              "indexed": true,
              "internalType": "address",
              "name": "previousOwner",
              "type": "address"
            },
            {
              "indexed": true,
              "internalType": "address",
              "name": "newOwner",
              "type": "address"
            }
          ],
          "name": "OwnershipTransferred",
          "type": "event"
        },
        {
          "anonymous": false,
          "inputs": [
            {
              "indexed": false,
              "internalType": "address",
              "name": "account",
              "type": "address"
            }
          ],
          "name": "Paused",
          "type": "event"
        },
        {
          "anonymous": false,
          "inputs": [
            {
              "indexed": false,
              "internalType": "uint256",
              "name": "newRate",
              "type": "uint256"
            }
          ],
          "name": "RateChanged",
          "type": "event"
        },
        {
          "anonymous": false,
          "inputs": [
            {
              "indexed": false,
              "internalType": "address",
              "name": "account",
              "type": "address"
            }
          ],
          "name": "Unpaused",
          "type": "event"
        },
        {
          "inputs": [],
          "name": "adaptor",
          "outputs": [
            {
              "internalType": "address",
              "name": "",
              "type": "address"
            }
          ],
          "stateMutability": "view",
          "type": "function"
        },
        {
          "inputs": [
            {
              "internalType": "address",
              "name": "account",
              "type": "address"
            }
          ],
          "name": "balanceOf",
          "outputs": [
            {
              "internalType": "uint256",
              "name": "",
              "type": "uint256"
            }
          ],
          "stateMutability": "view",
          "type": "function"
        },
        {
          "inputs": [
            {
              "internalType": "uint256",
              "name": "x",
              "type": "uint256"
            }
          ],
          "name": "calculateTokensOut",
          "outputs": [
            {
              "internalType": "uint256",
              "name": "",
              "type": "uint256"
            }
          ],
          "stateMutability": "view",
          "type": "function"
        },
        {
          "inputs": [
            {
              "internalType": "address",
              "name": "account",
              "type": "address"
            }
          ],
          "name": "canClaim",
          "outputs": [
            {
              "internalType": "bool",
              "name": "",
              "type": "bool"
            }
          ],
          "stateMutability": "view",
          "type": "function"
        },
        {
          "inputs": [],
          "name": "claim",
          "outputs": [],
          "stateMutability": "nonpayable",
          "type": "function"
        },
        {
          "inputs": [
            {
              "internalType": "uint256",
              "name": "amount",
              "type": "uint256"
            }
          ],
          "name": "deposit",
          "outputs": [],
          "stateMutability": "nonpayable",
          "type": "function"
        },
        {
          "inputs": [],
          "name": "dump",
          "outputs": [],
          "stateMutability": "nonpayable",
          "type": "function"
        },
        {
          "inputs": [],
          "name": "getCurrentPrice",
          "outputs": [
            {
              "internalType": "uint256",
              "name": "",
              "type": "uint256"
            }
          ],
          "stateMutability": "view",
          "type": "function"
        },
        {
          "inputs": [],
          "name": "getRate",
          "outputs": [
            {
              "internalType": "uint256",
              "name": "",
              "type": "uint256"
            }
          ],
          "stateMutability": "view",
          "type": "function"
        },
        {
          "inputs": [],
          "name": "getToken",
          "outputs": [
            {
              "internalType": "address",
              "name": "",
              "type": "address"
            }
          ],
          "stateMutability": "view",
          "type": "function"
        },
        {
          "inputs": [],
          "name": "maxSupply",
          "outputs": [
            {
              "internalType": "uint256",
              "name": "",
              "type": "uint256"
            }
          ],
          "stateMutability": "view",
          "type": "function"
        },
        {
          "inputs": [
            {
              "internalType": "uint256",
              "name": "amount",
              "type": "uint256"
            }
          ],
          "name": "merge",
          "outputs": [
            {
              "internalType": "uint256",
              "name": "",
              "type": "uint256"
            }
          ],
          "stateMutability": "nonpayable",
          "type": "function"
        },
        {
          "inputs": [],
          "name": "mergeAll",
          "outputs": [
            {
              "internalType": "uint256",
              "name": "",
              "type": "uint256"
            }
          ],
          "stateMutability": "nonpayable",
          "type": "function"
        },
        {
          "inputs": [
            {
              "internalType": "uint256",
              "name": "allocation",
              "type": "uint256"
            },
            {
              "internalType": "uint256",
              "name": "amount",
              "type": "uint256"
            },
            {
              "internalType": "bytes32[]",
              "name": "proof",
              "type": "bytes32[]"
            }
          ],
          "name": "mergeWithProof",
          "outputs": [
            {
              "internalType": "uint256",
              "name": "",
              "type": "uint256"
            }
          ],
          "stateMutability": "nonpayable",
          "type": "function"
        },
        {
          "inputs": [],
          "name": "merkleRoot",
          "outputs": [
            {
              "internalType": "bytes32",
              "name": "",
              "type": "bytes32"
            }
          ],
          "stateMutability": "view",
          "type": "function"
        },
        {
          "inputs": [],
          "name": "name",
          "outputs": [
            {
              "internalType": "string",
              "name": "",
              "type": "string"
            }
          ],
          "stateMutability": "view",
          "type": "function"
        },
        {
          "inputs": [],
          "name": "owner",
          "outputs": [
            {
              "internalType": "address",
              "name": "",
              "type": "address"
            }
          ],
          "stateMutability": "view",
          "type": "function"
        },
        {
          "inputs": [],
          "name": "paused",
          "outputs": [
            {
              "internalType": "bool",
              "name": "",
              "type": "bool"
            }
          ],
          "stateMutability": "view",
          "type": "function"
        },
        {
          "inputs": [
            {
              "internalType": "address",
              "name": "from",
              "type": "address"
            },
            {
              "internalType": "uint256",
              "name": "amount",
              "type": "uint256"
            },
            {
              "internalType": "address",
              "name": "",
              "type": "address"
            },
            {
              "internalType": "bytes",
              "name": "",
              "type": "bytes"
            }
          ],
          "name": "receiveApproval",
          "outputs": [],
          "stateMutability": "nonpayable",
          "type": "function"
        },
        {
          "inputs": [],
          "name": "renounceOwnership",
          "outputs": [],
          "stateMutability": "nonpayable",
          "type": "function"
        },
        {
          "inputs": [
            {
              "internalType": "address",
              "name": "amm",
              "type": "address"
            }
          ],
          "name": "setAdaptor",
          "outputs": [],
          "stateMutability": "nonpayable",
          "type": "function"
        },
        {
          "inputs": [
            {
              "internalType": "uint256",
              "name": "value",
              "type": "uint256"
            }
          ],
          "name": "setMaxSupply",
          "outputs": [],
          "stateMutability": "nonpayable",
          "type": "function"
        },
        {
          "inputs": [
            {
              "internalType": "bytes32",
              "name": "root",
              "type": "bytes32"
            }
          ],
          "name": "setMerkleRoot",
          "outputs": [],
          "stateMutability": "nonpayable",
          "type": "function"
        },
        {
          "inputs": [
            {
              "internalType": "address",
              "name": "_treasury",
              "type": "address"
            }
          ],
          "name": "setTreasury",
          "outputs": [],
          "stateMutability": "nonpayable",
          "type": "function"
        },
        {
          "inputs": [
            {
              "internalType": "uint32",
              "name": "duration",
              "type": "uint32"
            }
          ],
          "name": "setVestingDuration",
          "outputs": [],
          "stateMutability": "nonpayable",
          "type": "function"
        },
        {
          "inputs": [
            {
              "internalType": "uint256",
              "name": "value",
              "type": "uint256"
            }
          ],
          "name": "setVirtualTokenBalance",
          "outputs": [],
          "stateMutability": "nonpayable",
          "type": "function"
        },
        {
          "inputs": [
            {
              "internalType": "uint256",
              "name": "value",
              "type": "uint256"
            }
          ],
          "name": "setVirtualWeWEBalance",
          "outputs": [],
          "stateMutability": "nonpayable",
          "type": "function"
        },
        {
          "inputs": [],
          "name": "sweep",
          "outputs": [],
          "stateMutability": "nonpayable",
          "type": "function"
        },
        {
          "inputs": [],
          "name": "togglePause",
          "outputs": [],
          "stateMutability": "nonpayable",
          "type": "function"
        },
        {
          "inputs": [],
          "name": "totalMerged",
          "outputs": [
            {
              "internalType": "uint256",
              "name": "",
              "type": "uint256"
            }
          ],
          "stateMutability": "view",
          "type": "function"
        },
        {
          "inputs": [],
          "name": "totalVested",
          "outputs": [
            {
              "internalType": "uint256",
              "name": "",
              "type": "uint256"
            }
          ],
          "stateMutability": "view",
          "type": "function"
        },
        {
          "inputs": [
            {
              "internalType": "address",
              "name": "newOwner",
              "type": "address"
            }
          ],
          "name": "transferOwnership",
          "outputs": [],
          "stateMutability": "nonpayable",
          "type": "function"
        },
        {
          "inputs": [],
          "name": "treasury",
          "outputs": [
            {
              "internalType": "address",
              "name": "",
              "type": "address"
            }
          ],
          "stateMutability": "view",
          "type": "function"
        },
        {
          "inputs": [],
          "name": "vestingDuration",
          "outputs": [
            {
              "internalType": "uint32",
              "name": "",
              "type": "uint32"
            }
          ],
          "stateMutability": "view",
          "type": "function"
        },
        {
          "inputs": [
            {
              "internalType": "address",
              "name": "",
              "type": "address"
            }
          ],
          "name": "vestings",
          "outputs": [
            {
              "internalType": "uint256",
              "name": "amount",
              "type": "uint256"
            },
            {
              "internalType": "uint256",
              "name": "end",
              "type": "uint256"
            },
            {
              "internalType": "uint256",
              "name": "merged",
              "type": "uint256"
            }
          ],
          "stateMutability": "view",
          "type": "function"
        },
        {
          "inputs": [],
          "name": "virtualToken",
          "outputs": [
            {
              "internalType": "uint256",
              "name": "",
              "type": "uint256"
            }
          ],
          "stateMutability": "view",
          "type": "function"
        },
        {
          "inputs": [],
          "name": "virtualWEWE",
          "outputs": [
            {
              "internalType": "uint256",
              "name": "",
              "type": "uint256"
            }
          ],
          "stateMutability": "view",
          "type": "function"
        },
        {
          "inputs": [],
          "name": "wewe",
          "outputs": [
            {
              "internalType": "address",
              "name": "",
              "type": "address"
            }
          ],
          "stateMutability": "view",
          "type": "function"
        }
      ],
      "evm": {
        "bytecode": {
          "linkReferences": {},
          "object": "608060409080825234620002ae5760a081620021f88038038091620000258285620002b3565b833981010312620002ae576200003b81620002ed565b906020906200004c828201620002ed565b92848201519263ffffffff8416809403620002ae576060830151608090930151600160008181558154610100600160a81b0333600881811b929092166001600160a81b03198416179094558a51949997988998939790946001600160a01b03949385931c83167f8be0079c531659141344cd1fd0a4f28419497f9722a3daafe3b4186f6b6457e08a80a31693841562000261575016918215620002115791839291816004959360018060a01b031990816003541617600355600254161760025563ffffffff19600854161760085588519384809263313ce56760e01b82525afa90811562000207578391620001c3575b5060ff9150166012811062000163575b505050600b55600c5551611ef59081620003038239f35b9091925060120360128111620001af57604d8111620001af57600a0a918281029281840414901517156200019b57503880806200014c565b634e487b7160e01b81526011600452602490fd5b634e487b7160e01b82526011600452602482fd5b905081813d8311620001ff575b620001dc8183620002b3565b81010312620001fb575160ff81168103620001fb5760ff90386200013c565b5080fd5b503d620001d0565b87513d85823e3d90fd5b885162461bcd60e51b815260048101859052602360248201527f44796e616d696345617465723a20496e76616c696420746f6b656e206164647260448201526265737360e81b6064820152608490fd5b62461bcd60e51b815260048101869052602260248201527f44796e616d696345617465723a20496e76616c69642057455745206164647265604482015261737360f01b6064820152608490fd5b600080fd5b601f909101601f19168101906001600160401b03821190821017620002d757604052565b634e487b7160e01b600052604160045260246000fd5b51906001600160a01b0382168203620002ae5756fe6040608081526004908136101561001557600080fd5b600091823560e01c80621688b11461132557806306fdde03146111cc5780631514617e146111a7578063199cbc54146111885780631f514c521461116957806321df0da71461114057806324a47aeb14610f535780632eb4a7ab14610f34578063301fc2ff14610f155780633586d51414610e6f57806335faa41614610d1d5780634e71d92d14610c835780634fa1f10414610b625780635c975abb14610b3e57806361d027b314610b17578063655a9ac214610af5578063679aefce14610a445780636f8b44b014610a2257806370a08231146109ea578063715018a6146109895780637cb64759146109675780638da5cb5b1461093a5780638f4ffcb1146107ef5780639636d881146107b45780639ed4527e1461079557838163b6b55f25146106f757508063bf3506c1146106b8578063c2cd9b2b1461068f578063c4ae3168146105ac578063d5abeb011461058d578063daf498631461053f578063dece1baa1461051d578063e1f26f22146104f4578063e4330545146103f1578063ea9f241714610340578063eb91d37e146102e4578063f0f442601461029f5763f2fde38b146101c457600080fd5b3461029b57602036600319011261029b576101dd6116ae565b6101e56116c9565b6001600160a01b0381811693909290841561024957505060018054610100600160a81b03198116600893841b610100600160a81b031617909155901c167f8be0079c531659141344cd1fd0a4f28419497f9722a3daafe3b4186f6b6457e08380a380f35b906020608492519162461bcd60e51b8352820152602660248201527f4f776e61626c653a206e6577206f776e657220697320746865207a65726f206160448201526564647265737360d01b6064820152fd5b8280fd5b8382346102e05760203660031901126102e0576102ba6116ae565b6102c26116c9565b81546001600160a01b0319166001600160a01b039190911617905580f35b5080fd5b50913461033d578060031936011261033d576102fe6117b2565b926103e89384810294818604149015171561032a5760208361032386600b5490611785565b9051908152f35b634e487b7160e01b825260119052602490fd5b80fd5b503461029b578260031936011261029b576103596118e1565b610365600a5415611878565b60025482516370a0823160e01b81523392810192909252602090829060249082906001600160a01b03165afa9283156103e65780936103ad575b602083610323303388611c67565b9092506020833d82116103de575b816103c860209383611724565b8101031261033d5750610323602092519261039f565b3d91506103bb565b8251903d90823e3d90fd5b509190346102e057816003193601126102e05760035481516370a0823160e01b8152308582015293602092918390869060249082906001600160a01b03165afa9485156104ea5784956104b7575b50841561047b57506104727fa7a5838120ec6c2ca5291f32459f820c6230c6b5d0fa06a111e49badb5e6c84b9394611e04565b9051908152a180f35b82606492519162461bcd60e51b83528201526018602482015277064756d703a204e6f2062616c616e636520746f2064756d760441b6044820152fd5b9094508281813d83116104e3575b6104cf8183611724565b810103126104df5751933861043f565b8380fd5b503d6104c5565b82513d86823e3d90fd5b5050346102e057816003193601126102e05760035490516001600160a01b039091168152602090f35b8382346102e05760203660031901126102e0576105386116c9565b35600c5580f35b5050346102e05760203660031901126102e05760609181906001600160a01b036105676116ae565b168152600960205220805491600260018301549201549181519384526020840152820152f35b5050346102e057816003193601126102e0576020906007549051908152f35b503461029b578260031936011261029b576105c56116c9565b60015460ff81161561064e57506001549060ff821615610614575060ff1916600155513381527f5db9ee0a495bf2e6ff9c91a7834c1ba4fdd244a5e8aa4e537bd38aeae4b073aa90602090a180f35b606490602084519162461bcd60e51b8352820152601460248201527314185d5cd8589b194e881b9bdd081c185d5cd95960621b6044820152fd5b602091509160017f62e78cea01bee320cd4e420270b5ea74000d11b0c9f74754ebdbfc544b05a2589361067f6118e1565b60ff19161760015551338152a180f35b5050346102e057816003193601126102e057600d5490516001600160a01b039091168152602090f35b5050346102e05760203660031901126102e05760209160019082906001600160a01b036106e36116ae565b168152600985522001549051904210158152f35b80848434610791576020366003190112610791576107496020916107196116c9565b60035484516323b872dd60e01b81529586936001600160a01b0390921692849283918035903090339085016118bf565b03925af1908115610788575061075d575080f35b61077d9060203d8111610781575b6107758183611724565b810190611853565b5080f35b503d61076b565b513d84823e3d90fd5b5050fd5b5050346102e057816003193601126102e057602090600c549051908152f35b8382346102e05760203660031901126102e0573563ffffffff81168091036102e0576107de6116c9565b63ffffffff19600854161760085580f35b503461029b57608036600319011261029b576108096116ae565b90602435906001600160a01b03604435818116036109325760643567ffffffffffffffff8082116109365736602383011215610936578184013590811161093657369101602401116109325761085d611c11565b6108656118e1565b600254169081156108e05782610896926020928888518096819582946323b872dd60e01b84523090339085016118bf565b03925af180156108d6576108b094506108b8575b50611925565b506001815580f35b6108cf9060203d8111610781576107758183611724565b50386108aa565b84513d87823e3d90fd5b608490602086519162461bcd60e51b8352820152602660248201527f72656365697665417070726f76616c3a20546f6b656e2061646472657373206e6044820152651bdd081cd95d60d21b6064820152fd5b8580fd5b8780fd5b5050346102e057816003193601126102e057600154905160089190911c6001600160a01b03168152602090f35b8382346102e05760203660031901126102e0576109826116c9565b35600a5580f35b833461033d578060031936011261033d576109a26116c9565b60018054610100600160a81b03198116909155819060081c6001600160a01b03167f8be0079c531659141344cd1fd0a4f28419497f9722a3daafe3b4186f6b6457e08280a380f35b5050346102e05760203660031901126102e05760209181906001600160a01b03610a126116ae565b1681526009845220549051908152f35b8382346102e05760203660031901126102e057610a3d6116c9565b3560075580f35b503461029b578260031936011261029b57600254825163313ce56760e01b81529160209183919082906001600160a01b03165afa908115610ae95760ff61032392610a999260209691610abc575b5016611845565b610ab7610aa882600b5461186b565b91610ab16117b2565b9061175c565b611785565b610adc9150863d8111610ae2575b610ad48183611724565b81019061182c565b38610a92565b503d610aca565b505051903d90823e3d90fd5b8382346102e05760203660031901126102e057610b106116c9565b35600b5580f35b503461029b578260031936011261029b575490516001600160a01b03909116815260209150f35b5050346102e057816003193601126102e05760209060ff6001541690519015158152f35b50913461033d57602092836003193601126102e057600254835163313ce56760e01b808252833594926001600160a01b03169187818681865afa908115610c795760ff8993926012928791610c5c575b501610610bcf575b508561032386610ab7610aa882600b5461186b565b8487518094819382525afa908115610c52579060ff918391610c35575b501660120360ff8111610c225760ff1691604d831161032a57505061032391610c1891600a0a9061175c565b9038808581610bba565b506011602492634e487b7160e01b835252fd5b610c4c9150873d8911610ae257610ad48183611724565b38610bec565b85513d84823e3d90fd5b610c739150853d8711610ae257610ad48183611724565b38610bb2565b87513d86823e3d90fd5b50903461029b578260031936011261029b57610c9d6118e1565b63ffffffff6008541615610d10575b3383526009602052600181842001544210610ccd5782610cca611d89565b80f35b906020606492519162461bcd60e51b8352820152602060248201527f7768656e436c61696d61626c653a2056657374696e67206e6f7420656e6465646044820152fd5b610d18611d89565b610cac565b509190346102e057816003193601126102e057610d386116c9565b60035481516370a0823160e01b8152308582015293602092916001600160a01b0390811691908487602481865afa968715610e65578697610e36575b508615610df357600154845163a9059cbb60e01b81526001600160a01b0360089290921c90921616918101918252602082018790529291849184919082908890829060400103925af1908115610dea5750610dcd578280f35b81610de392903d10610781576107758183611724565b5081808280f35b513d85823e3d90fd5b835162461bcd60e51b8152808301869052601a60248201527f73776565703a204e6f2062616c616e636520746f2073776565700000000000006044820152606490fd5b9096508481813d8311610e5e575b610e4e8183611724565b8101031261093257519538610d74565b503d610e44565b84513d88823e3d90fd5b50903461029b57602036600319011261029b57610e8a6116ae565b610e926116c9565b600d80546001600160a01b0319166001600160a01b0392831690811790915580610eba578480f35b60446020926002541694868551968794859363095ea7b360e01b855284015260001960248401525af19081156107885750610ef7575b8080808480f35b610f0e9060203d8111610781576107758183611724565b5038610ef0565b5050346102e057816003193601126102e0576020906006549051908152f35b5050346102e057816003193601126102e057602090600a549051908152f35b503461029b576020928360031936011261033d57813591610f726118e1565b60025484516370a0823160e01b815233838201528493916001600160a01b0391908216908881602481855afa908115611136579087918591611105575b50106110b757610fc1600a5415611878565b87875180926323b872dd60e01b8252818681610fe18c30338d85016118bf565b03925af180156110ad579188918593611090575b50610fff87611e04565b506002541687519283809263313ce56760e01b82525afa908115611086579060ff918391611069575b50166012811061103f575b86866103233387611925565b90919250601203916012831161032a57505061032391610ab161106192611845565b388080611033565b6110809150883d8a11610ae257610ad48183611724565b38611028565b86513d84823e3d90fd5b6110a690833d8511610781576107758183611724565b5038610ff5565b87513d85823e3d90fd5b865162461bcd60e51b8152808501899052602260248201527f6d657267653a20496e73756666696369656e742062616c616e636520746f2065604482015261185d60f21b6064820152608490fd5b8092508a8092503d831161112f575b61111e8183611724565b810103126104df5786905138610faf565b503d611114565b88513d86823e3d90fd5b5050346102e057816003193601126102e05760025490516001600160a01b039091168152602090f35b5050346102e057816003193601126102e057602090600b549051908152f35b5050346102e057816003193601126102e0576020906005549051908152f35b5050346102e057816003193601126102e05760209063ffffffff600854169051908152f35b50913461033d578060031936011261033d5760025482516306fdde0360e01b815293919081908590849082906001600160a01b03165afa91821561131957819261127c575b61126e848481519061125360268360208101936502bb2abb29d160d51b8552611243815180926020868601910161168b565b8101036006810185520183611724565b8251938492602084525180928160208601528585019061168b565b601f01601f19168101030190f35b9091503d8083863e61128e8186611724565b84019160208584031261033d57845167ffffffffffffffff9586821161029b57019183601f840112156102e057825195861161130657508351926112dc601f8701601f191660200185611724565b8584526020868401011161033d575061126e936112ff916020808501910161168b565b3880611211565b634e487b7160e01b825260419052602490fd5b508251903d90823e3d90fd5b50823461033d57606036600319011261033d5760249267ffffffffffffffff9290604480358335873587831161168757366023840112156116875782860135918883116109365760059183831b948b868201019036821161168357611388611c11565b6113906118e1565b8851956113a1602080990188611724565b86528c01868087015b8383106116735750505050600a54998a1561162557338a5260098652826002898c20015410156115e35787513387820190815260208101859052906113fb816040840103601f198101835282611724565b51902088518781019182528781529091818a01908111828210176115d15789525190209589965b85518810156114765787851b86018701519081811015611469578b528652878a205b9660001981146114575760010196611422565b634e487b7160e01b8b5260118a528c8bfd5b908b528652878a20611444565b86938b938b8f93948f8d960361159057829483851061153f5783151580611537575b156114f657505050916114cf91600193338752600988526114bf60028789200154836117a5565b106114d7575b5030903390611c67565b925551908152f35b6114f091503386526009875260028587200154906117a5565b866114c5565b865162461bcd60e51b8152928301899052601e908301527f6d657267655769746850726f6f663a20496e76616c696420616d6f756e74000090820152606490fd5b506001611498565b865162461bcd60e51b81529283018990526027908301527f6d657267655769746850726f6f663a20496e73756666696369656e7420616c6c908201526637b1b0ba34b7b760c91b6064820152608490fd5b855162461bcd60e51b8152918201889052601e828601527f6f6e6c7957686974654c69737465643a20496e76616c69642070726f6f66000090820152606490fd5b634e487b7160e01b8c5260418b528d8cfd5b50865162461bcd60e51b8152808901869052601f818d01527f6f6e6c7957686974654c69737465643a20416c7265616479206d65726765640081880152606490fd5b50865162461bcd60e51b81528089018690526023818d01527f6f6e6c7957686974654c69737465643a205768697465206c697374206e6f742081880152621cd95d60ea1b6064820152608490fd5b82358152918101918891016113aa565b8a80fd5b8680fd5b60005b83811061169e5750506000910152565b818101518382015260200161168e565b600435906001600160a01b03821682036116c457565b600080fd5b60015460081c6001600160a01b031633036116e057565b606460405162461bcd60e51b815260206004820152602060248201527f4f776e61626c653a2063616c6c6572206973206e6f7420746865206f776e65726044820152fd5b90601f8019910116810190811067ffffffffffffffff82111761174657604052565b634e487b7160e01b600052604160045260246000fd5b8181029291811591840414171561176f57565b634e487b7160e01b600052601160045260246000fd5b811561178f570490565b634e487b7160e01b600052601260045260246000fd5b9190820391821161176f57565b600c546005548082106117cb576117c8916117a5565b90565b60405162461bcd60e51b815260206004820152603360248201527f5f6765745765776542616c616e63653a207669727475616c57455745206c65736044820152721cc81d1a185b881d1bdd185b081d995cdd1959606a1b6064820152608490fd5b908160209103126116c4575160ff811681036116c45790565b604d811161176f57600a0a90565b908160209103126116c4575180151581036116c45790565b9190820180921161176f57565b1561187f57565b60405162461bcd60e51b81526020600482015260186024820152771b595c99d94e8815da1a5d19481b1a5cdd081a5cc81cd95d60421b6044820152606490fd5b6001600160a01b03918216815291166020820152604081019190915260600190565b60ff600154166118ed57565b60405162461bcd60e51b815260206004820152601060248201526f14185d5cd8589b194e881c185d5cd95960821b6044820152606490fd5b6007546119346006548361186b565b811090811591611c08575b5015611bc35761196561195482600b5461186b565b610ab761195f6117b2565b8461175c565b600354604080516370a0823160e01b8152306004820152929460209391926001600160a01b0392908316908581602481855afa908115611b3057600091611b96575b508711611b3b5760085463ffffffff9190821615611aa15750828216948560005260098152846000206119e160028254920154918a61186b565b92603c81600854160290811690810361176f5788611a02611a08924261186b565b9261186b565b90865191606083019183831067ffffffffffffffff841117611746577fabe5455971bdcd932e7251d16cd53f88cd4410bf4df21530e88bf13dade6a7d4998c966002948b52855285850191825289850192835260005260098552886000209351845551600184015551910155611a808260055461186b565b6005555b611a908760065461186b565b60065584519687528601521692a290565b845163a9059cbb60e01b81526001600160a01b0384166004820152602481018990529495939492939291508290829060449082906000905af18015611b30579187917fabe5455971bdcd932e7251d16cd53f88cd4410bf4df21530e88bf13dade6a7d496959493611b13575b50611a84565b611b2990823d8411610781576107758183611724565b5038611b0d565b85513d6000823e3d90fd5b835162461bcd60e51b815260048101869052602e60248201527f5f6d657267653a20496e73756666696369656e7420746f6b656e2062616c616e60448201526d31b2903a37903a3930b739b332b960911b6064820152608490fd5b908682813d8311611bbc575b611bac8183611724565b8101031261033d575051386119a7565b503d611ba2565b60405162461bcd60e51b815260206004820152601c60248201527f5f6d657267653a204d6f7265207468616e206d617820737570706c79000000006044820152606490fd5b9050153861193f565b600260005414611c22576002600055565b60405162461bcd60e51b815260206004820152601f60248201527f5265656e7472616e637947756172643a207265656e7472616e742063616c6c006044820152606490fd5b90918160018060a01b03806002541692604051906323b872dd60e01b82528180611c9960209687948b600485016118bf565b0381600080985af18015611d7e57918391600493611d61575b50611cbc86611e04565b50600254166040519283809263313ce56760e01b82525afa918215611d56579060ff92918492611d39575b50501660128110611cff575b5050906117c891611925565b6012039060128211611d2557506117c89291610ab1611d1d92611845565b909138611cf3565b634e487b7160e01b81526011600452602490fd5b611d4f9250803d10610ae257610ad48183611724565b3880611ce7565b6040513d85823e3d90fd5b611d7790833d8511610781576107758183611724565b5038611cb2565b6040513d86823e3d90fd5b336000818152600960209081526040808320805490849055600354915163a9059cbb60e01b8152600481019590955260248501529091839160449183916001600160a01b03165af18015611df857611dde5750565b611df59060203d8111610781576107758183611724565b50565b6040513d6000823e3d90fd5b600d546001600160a01b0390811691908215611eb7578060045416908115611eae5760025416604051926302454b7160e41b84526004840152602483015260448201526080606482015260208160a481600080968160848401525af1918215611ea2578092611e7257505090565b9091506020823d8211611e9a575b81611e8d60209383611724565b8101031261033d57505190565b3d9150611e80565b604051903d90823e3d90fd5b50505050600090565b50505060009056fea264697066735822122015bf795202224b8190fdbb677c73d8531cc13d39724fd11a153c35a13f09a24064736f6c63430008130033",
          "opcodes": "PUSH1 0x80 PUSH1 0x40 SWAP1 DUP1 DUP3 MSTORE CALLVALUE PUSH3 0x2AE JUMPI PUSH1 0xA0 DUP2 PUSH3 0x21F8 DUP1 CODESIZE SUB DUP1 SWAP2 PUSH3 0x25 DUP3 DUP6 PUSH3 0x2B3 JUMP JUMPDEST DUP4 CODECOPY DUP2 ADD SUB SLT PUSH3 0x2AE JUMPI PUSH3 0x3B DUP2 PUSH3 0x2ED JUMP JUMPDEST SWAP1 PUSH1 0x20 SWAP1 PUSH3 0x4C DUP3 DUP3 ADD PUSH3 0x2ED JUMP JUMPDEST SWAP3 DUP5 DUP3 ADD MLOAD SWAP3 PUSH4 0xFFFFFFFF DUP5 AND DUP1 SWAP5 SUB PUSH3 0x2AE JUMPI PUSH1 0x60 DUP4 ADD MLOAD PUSH1 0x80 SWAP1 SWAP4 ADD MLOAD PUSH1 0x1 PUSH1 0x0 DUP2 DUP2 SSTORE DUP2 SLOAD PUSH2 0x100 PUSH1 0x1 PUSH1 0xA8 SHL SUB CALLER PUSH1 0x8 DUP2 DUP2 SHL SWAP3 SWAP1 SWAP3 AND PUSH1 0x1 PUSH1 0x1 PUSH1 0xA8 SHL SUB NOT DUP5 AND OR SWAP1 SWAP5 SSTORE DUP11 MLOAD SWAP5 SWAP10 SWAP8 SWAP9 DUP10 SWAP9 SWAP4 SWAP8 SWAP1 SWAP5 PUSH1 0x1 PUSH1 0x1 PUSH1 0xA0 SHL SUB SWAP5 SWAP4 DUP6 SWAP4 SHR DUP4 AND PUSH32 0x8BE0079C531659141344CD1FD0A4F28419497F9722A3DAAFE3B4186F6B6457E0 DUP11 DUP1 LOG3 AND SWAP4 DUP5 ISZERO PUSH3 0x261 JUMPI POP AND SWAP2 DUP3 ISZERO PUSH3 0x211 JUMPI SWAP2 DUP4 SWAP3 SWAP2 DUP2 PUSH1 0x4 SWAP6 SWAP4 PUSH1 0x1 DUP1 PUSH1 0xA0 SHL SUB NOT SWAP1 DUP2 PUSH1 0x3 SLOAD AND OR PUSH1 0x3 SSTORE PUSH1 0x2 SLOAD AND OR PUSH1 0x2 SSTORE PUSH4 0xFFFFFFFF NOT PUSH1 0x8 SLOAD AND OR PUSH1 0x8 SSTORE DUP9 MLOAD SWAP4 DUP5 DUP1 SWAP3 PUSH4 0x313CE567 PUSH1 0xE0 SHL DUP3 MSTORE GAS STATICCALL SWAP1 DUP2 ISZERO PUSH3 0x207 JUMPI DUP4 SWAP2 PUSH3 0x1C3 JUMPI JUMPDEST POP PUSH1 0xFF SWAP2 POP AND PUSH1 0x12 DUP2 LT PUSH3 0x163 JUMPI JUMPDEST POP POP POP PUSH1 0xB SSTORE PUSH1 0xC SSTORE MLOAD PUSH2 0x1EF5 SWAP1 DUP2 PUSH3 0x303 DUP3 CODECOPY RETURN JUMPDEST SWAP1 SWAP2 SWAP3 POP PUSH1 0x12 SUB PUSH1 0x12 DUP2 GT PUSH3 0x1AF JUMPI PUSH1 0x4D DUP2 GT PUSH3 0x1AF JUMPI PUSH1 0xA EXP SWAP2 DUP3 DUP2 MUL SWAP3 DUP2 DUP5 DIV EQ SWAP1 ISZERO OR ISZERO PUSH3 0x19B JUMPI POP CODESIZE DUP1 DUP1 PUSH3 0x14C JUMP JUMPDEST PUSH4 0x4E487B71 PUSH1 0xE0 SHL DUP2 MSTORE PUSH1 0x11 PUSH1 0x4 MSTORE PUSH1 0x24 SWAP1 REVERT JUMPDEST PUSH4 0x4E487B71 PUSH1 0xE0 SHL DUP3 MSTORE PUSH1 0x11 PUSH1 0x4 MSTORE PUSH1 0x24 DUP3 REVERT JUMPDEST SWAP1 POP DUP2 DUP2 RETURNDATASIZE DUP4 GT PUSH3 0x1FF JUMPI JUMPDEST PUSH3 0x1DC DUP2 DUP4 PUSH3 0x2B3 JUMP JUMPDEST DUP2 ADD SUB SLT PUSH3 0x1FB JUMPI MLOAD PUSH1 0xFF DUP2 AND DUP2 SUB PUSH3 0x1FB JUMPI PUSH1 0xFF SWAP1 CODESIZE PUSH3 0x13C JUMP JUMPDEST POP DUP1 REVERT JUMPDEST POP RETURNDATASIZE PUSH3 0x1D0 JUMP JUMPDEST DUP8 MLOAD RETURNDATASIZE DUP6 DUP3 RETURNDATACOPY RETURNDATASIZE SWAP1 REVERT JUMPDEST DUP9 MLOAD PUSH3 0x461BCD PUSH1 0xE5 SHL DUP2 MSTORE PUSH1 0x4 DUP2 ADD DUP6 SWAP1 MSTORE PUSH1 0x23 PUSH1 0x24 DUP3 ADD MSTORE PUSH32 0x44796E616D696345617465723A20496E76616C696420746F6B656E2061646472 PUSH1 0x44 DUP3 ADD MSTORE PUSH3 0x657373 PUSH1 0xE8 SHL PUSH1 0x64 DUP3 ADD MSTORE PUSH1 0x84 SWAP1 REVERT JUMPDEST PUSH3 0x461BCD PUSH1 0xE5 SHL DUP2 MSTORE PUSH1 0x4 DUP2 ADD DUP7 SWAP1 MSTORE PUSH1 0x22 PUSH1 0x24 DUP3 ADD MSTORE PUSH32 0x44796E616D696345617465723A20496E76616C69642057455745206164647265 PUSH1 0x44 DUP3 ADD MSTORE PUSH2 0x7373 PUSH1 0xF0 SHL PUSH1 0x64 DUP3 ADD MSTORE PUSH1 0x84 SWAP1 REVERT JUMPDEST PUSH1 0x0 DUP1 REVERT JUMPDEST PUSH1 0x1F SWAP1 SWAP2 ADD PUSH1 0x1F NOT AND DUP2 ADD SWAP1 PUSH1 0x1 PUSH1 0x1 PUSH1 0x40 SHL SUB DUP3 GT SWAP1 DUP3 LT OR PUSH3 0x2D7 JUMPI PUSH1 0x40 MSTORE JUMP JUMPDEST PUSH4 0x4E487B71 PUSH1 0xE0 SHL PUSH1 0x0 MSTORE PUSH1 0x41 PUSH1 0x4 MSTORE PUSH1 0x24 PUSH1 0x0 REVERT JUMPDEST MLOAD SWAP1 PUSH1 0x1 PUSH1 0x1 PUSH1 0xA0 SHL SUB DUP3 AND DUP3 SUB PUSH3 0x2AE JUMPI JUMP INVALID PUSH1 0x40 PUSH1 0x80 DUP2 MSTORE PUSH1 0x4 SWAP1 DUP2 CALLDATASIZE LT ISZERO PUSH2 0x15 JUMPI PUSH1 0x0 DUP1 REVERT JUMPDEST PUSH1 0x0 SWAP2 DUP3 CALLDATALOAD PUSH1 0xE0 SHR DUP1 PUSH3 0x1688B1 EQ PUSH2 0x1325 JUMPI DUP1 PUSH4 0x6FDDE03 EQ PUSH2 0x11CC JUMPI DUP1 PUSH4 0x1514617E EQ PUSH2 0x11A7 JUMPI DUP1 PUSH4 0x199CBC54 EQ PUSH2 0x1188 JUMPI DUP1 PUSH4 0x1F514C52 EQ PUSH2 0x1169 JUMPI DUP1 PUSH4 0x21DF0DA7 EQ PUSH2 0x1140 JUMPI DUP1 PUSH4 0x24A47AEB EQ PUSH2 0xF53 JUMPI DUP1 PUSH4 0x2EB4A7AB EQ PUSH2 0xF34 JUMPI DUP1 PUSH4 0x301FC2FF EQ PUSH2 0xF15 JUMPI DUP1 PUSH4 0x3586D514 EQ PUSH2 0xE6F JUMPI DUP1 PUSH4 0x35FAA416 EQ PUSH2 0xD1D JUMPI DUP1 PUSH4 0x4E71D92D EQ PUSH2 0xC83 JUMPI DUP1 PUSH4 0x4FA1F104 EQ PUSH2 0xB62 JUMPI DUP1 PUSH4 0x5C975ABB EQ PUSH2 0xB3E JUMPI DUP1 PUSH4 0x61D027B3 EQ PUSH2 0xB17 JUMPI DUP1 PUSH4 0x655A9AC2 EQ PUSH2 0xAF5 JUMPI DUP1 PUSH4 0x679AEFCE EQ PUSH2 0xA44 JUMPI DUP1 PUSH4 0x6F8B44B0 EQ PUSH2 0xA22 JUMPI DUP1 PUSH4 0x70A08231 EQ PUSH2 0x9EA JUMPI DUP1 PUSH4 0x715018A6 EQ PUSH2 0x989 JUMPI DUP1 PUSH4 0x7CB64759 EQ PUSH2 0x967 JUMPI DUP1 PUSH4 0x8DA5CB5B EQ PUSH2 0x93A JUMPI DUP1 PUSH4 0x8F4FFCB1 EQ PUSH2 0x7EF JUMPI DUP1 PUSH4 0x9636D881 EQ PUSH2 0x7B4 JUMPI DUP1 PUSH4 0x9ED4527E EQ PUSH2 0x795 JUMPI DUP4 DUP2 PUSH4 0xB6B55F25 EQ PUSH2 0x6F7 JUMPI POP DUP1 PUSH4 0xBF3506C1 EQ PUSH2 0x6B8 JUMPI DUP1 PUSH4 0xC2CD9B2B EQ PUSH2 0x68F JUMPI DUP1 PUSH4 0xC4AE3168 EQ PUSH2 0x5AC JUMPI DUP1 PUSH4 0xD5ABEB01 EQ PUSH2 0x58D JUMPI DUP1 PUSH4 0xDAF49863 EQ PUSH2 0x53F JUMPI DUP1 PUSH4 0xDECE1BAA EQ PUSH2 0x51D JUMPI DUP1 PUSH4 0xE1F26F22 EQ PUSH2 0x4F4 JUMPI DUP1 PUSH4 0xE4330545 EQ PUSH2 0x3F1 JUMPI DUP1 PUSH4 0xEA9F2417 EQ PUSH2 0x340 JUMPI DUP1 PUSH4 0xEB91D37E EQ PUSH2 0x2E4 JUMPI DUP1 PUSH4 0xF0F44260 EQ PUSH2 0x29F JUMPI PUSH4 0xF2FDE38B EQ PUSH2 0x1C4 JUMPI PUSH1 0x0 DUP1 REVERT JUMPDEST CALLVALUE PUSH2 0x29B JUMPI PUSH1 0x20 CALLDATASIZE PUSH1 0x3 NOT ADD SLT PUSH2 0x29B JUMPI PUSH2 0x1DD PUSH2 0x16AE JUMP JUMPDEST PUSH2 0x1E5 PUSH2 0x16C9 JUMP JUMPDEST PUSH1 0x1 PUSH1 0x1 PUSH1 0xA0 SHL SUB DUP2 DUP2 AND SWAP4 SWAP1 SWAP3 SWAP1 DUP5 ISZERO PUSH2 0x249 JUMPI POP POP PUSH1 0x1 DUP1 SLOAD PUSH2 0x100 PUSH1 0x1 PUSH1 0xA8 SHL SUB NOT DUP2 AND PUSH1 0x8 SWAP4 DUP5 SHL PUSH2 0x100 PUSH1 0x1 PUSH1 0xA8 SHL SUB AND OR SWAP1 SWAP2 SSTORE SWAP1 SHR AND PUSH32 0x8BE0079C531659141344CD1FD0A4F28419497F9722A3DAAFE3B4186F6B6457E0 DUP4 DUP1 LOG3 DUP1 RETURN JUMPDEST SWAP1 PUSH1 0x20 PUSH1 0x84 SWAP3 MLOAD SWAP2 PUSH3 0x461BCD PUSH1 0xE5 SHL DUP4 MSTORE DUP3 ADD MSTORE PUSH1 0x26 PUSH1 0x24 DUP3 ADD MSTORE PUSH32 0x4F776E61626C653A206E6577206F776E657220697320746865207A65726F2061 PUSH1 0x44 DUP3 ADD MSTORE PUSH6 0x646472657373 PUSH1 0xD0 SHL PUSH1 0x64 DUP3 ADD MSTORE REVERT JUMPDEST DUP3 DUP1 REVERT JUMPDEST DUP4 DUP3 CALLVALUE PUSH2 0x2E0 JUMPI PUSH1 0x20 CALLDATASIZE PUSH1 0x3 NOT ADD SLT PUSH2 0x2E0 JUMPI PUSH2 0x2BA PUSH2 0x16AE JUMP JUMPDEST PUSH2 0x2C2 PUSH2 0x16C9 JUMP JUMPDEST DUP2 SLOAD PUSH1 0x1 PUSH1 0x1 PUSH1 0xA0 SHL SUB NOT AND PUSH1 0x1 PUSH1 0x1 PUSH1 0xA0 SHL SUB SWAP2 SWAP1 SWAP2 AND OR SWAP1 SSTORE DUP1 RETURN JUMPDEST POP DUP1 REVERT JUMPDEST POP SWAP2 CALLVALUE PUSH2 0x33D JUMPI DUP1 PUSH1 0x3 NOT CALLDATASIZE ADD SLT PUSH2 0x33D JUMPI PUSH2 0x2FE PUSH2 0x17B2 JUMP JUMPDEST SWAP3 PUSH2 0x3E8 SWAP4 DUP5 DUP2 MUL SWAP5 DUP2 DUP7 DIV EQ SWAP1 ISZERO OR ISZERO PUSH2 0x32A JUMPI PUSH1 0x20 DUP4 PUSH2 0x323 DUP7 PUSH1 0xB SLOAD SWAP1 PUSH2 0x1785 JUMP JUMPDEST SWAP1 MLOAD SWAP1 DUP2 MSTORE RETURN JUMPDEST PUSH4 0x4E487B71 PUSH1 0xE0 SHL DUP3 MSTORE PUSH1 0x11 SWAP1 MSTORE PUSH1 0x24 SWAP1 REVERT JUMPDEST DUP1 REVERT JUMPDEST POP CALLVALUE PUSH2 0x29B JUMPI DUP3 PUSH1 0x3 NOT CALLDATASIZE ADD SLT PUSH2 0x29B JUMPI PUSH2 0x359 PUSH2 0x18E1 JUMP JUMPDEST PUSH2 0x365 PUSH1 0xA SLOAD ISZERO PUSH2 0x1878 JUMP JUMPDEST PUSH1 0x2 SLOAD DUP3 MLOAD PUSH4 0x70A08231 PUSH1 0xE0 SHL DUP2 MSTORE CALLER SWAP3 DUP2 ADD SWAP3 SWAP1 SWAP3 MSTORE PUSH1 0x20 SWAP1 DUP3 SWAP1 PUSH1 0x24 SWAP1 DUP3 SWAP1 PUSH1 0x1 PUSH1 0x1 PUSH1 0xA0 SHL SUB AND GAS STATICCALL SWAP3 DUP4 ISZERO PUSH2 0x3E6 JUMPI DUP1 SWAP4 PUSH2 0x3AD JUMPI JUMPDEST PUSH1 0x20 DUP4 PUSH2 0x323 ADDRESS CALLER DUP9 PUSH2 0x1C67 JUMP JUMPDEST SWAP1 SWAP3 POP PUSH1 0x20 DUP4 RETURNDATASIZE DUP3 GT PUSH2 0x3DE JUMPI JUMPDEST DUP2 PUSH2 0x3C8 PUSH1 0x20 SWAP4 DUP4 PUSH2 0x1724 JUMP JUMPDEST DUP2 ADD SUB SLT PUSH2 0x33D JUMPI POP PUSH2 0x323 PUSH1 0x20 SWAP3 MLOAD SWAP3 PUSH2 0x39F JUMP JUMPDEST RETURNDATASIZE SWAP2 POP PUSH2 0x3BB JUMP JUMPDEST DUP3 MLOAD SWAP1 RETURNDATASIZE SWAP1 DUP3 RETURNDATACOPY RETURNDATASIZE SWAP1 REVERT JUMPDEST POP SWAP2 SWAP1 CALLVALUE PUSH2 0x2E0 JUMPI DUP2 PUSH1 0x3 NOT CALLDATASIZE ADD SLT PUSH2 0x2E0 JUMPI PUSH1 0x3 SLOAD DUP2 MLOAD PUSH4 0x70A08231 PUSH1 0xE0 SHL DUP2 MSTORE ADDRESS DUP6 DUP3 ADD MSTORE SWAP4 PUSH1 0x20 SWAP3 SWAP2 DUP4 SWAP1 DUP7 SWAP1 PUSH1 0x24 SWAP1 DUP3 SWAP1 PUSH1 0x1 PUSH1 0x1 PUSH1 0xA0 SHL SUB AND GAS STATICCALL SWAP5 DUP6 ISZERO PUSH2 0x4EA JUMPI DUP5 SWAP6 PUSH2 0x4B7 JUMPI JUMPDEST POP DUP5 ISZERO PUSH2 0x47B JUMPI POP PUSH2 0x472 PUSH32 0xA7A5838120EC6C2CA5291F32459F820C6230C6B5D0FA06A111E49BADB5E6C84B SWAP4 SWAP5 PUSH2 0x1E04 JUMP JUMPDEST SWAP1 MLOAD SWAP1 DUP2 MSTORE LOG1 DUP1 RETURN JUMPDEST DUP3 PUSH1 0x64 SWAP3 MLOAD SWAP2 PUSH3 0x461BCD PUSH1 0xE5 SHL DUP4 MSTORE DUP3 ADD MSTORE PUSH1 0x18 PUSH1 0x24 DUP3 ADD MSTORE PUSH24 0x64756D703A204E6F2062616C616E636520746F2064756D7 PUSH1 0x44 SHL PUSH1 0x44 DUP3 ADD MSTORE REVERT JUMPDEST SWAP1 SWAP5 POP DUP3 DUP2 DUP2 RETURNDATASIZE DUP4 GT PUSH2 0x4E3 JUMPI JUMPDEST PUSH2 0x4CF DUP2 DUP4 PUSH2 0x1724 JUMP JUMPDEST DUP2 ADD SUB SLT PUSH2 0x4DF JUMPI MLOAD SWAP4 CODESIZE PUSH2 0x43F JUMP JUMPDEST DUP4 DUP1 REVERT JUMPDEST POP RETURNDATASIZE PUSH2 0x4C5 JUMP JUMPDEST DUP3 MLOAD RETURNDATASIZE DUP7 DUP3 RETURNDATACOPY RETURNDATASIZE SWAP1 REVERT JUMPDEST POP POP CALLVALUE PUSH2 0x2E0 JUMPI DUP2 PUSH1 0x3 NOT CALLDATASIZE ADD SLT PUSH2 0x2E0 JUMPI PUSH1 0x3 SLOAD SWAP1 MLOAD PUSH1 0x1 PUSH1 0x1 PUSH1 0xA0 SHL SUB SWAP1 SWAP2 AND DUP2 MSTORE PUSH1 0x20 SWAP1 RETURN JUMPDEST DUP4 DUP3 CALLVALUE PUSH2 0x2E0 JUMPI PUSH1 0x20 CALLDATASIZE PUSH1 0x3 NOT ADD SLT PUSH2 0x2E0 JUMPI PUSH2 0x538 PUSH2 0x16C9 JUMP JUMPDEST CALLDATALOAD PUSH1 0xC SSTORE DUP1 RETURN JUMPDEST POP POP CALLVALUE PUSH2 0x2E0 JUMPI PUSH1 0x20 CALLDATASIZE PUSH1 0x3 NOT ADD SLT PUSH2 0x2E0 JUMPI PUSH1 0x60 SWAP2 DUP2 SWAP1 PUSH1 0x1 PUSH1 0x1 PUSH1 0xA0 SHL SUB PUSH2 0x567 PUSH2 0x16AE JUMP JUMPDEST AND DUP2 MSTORE PUSH1 0x9 PUSH1 0x20 MSTORE KECCAK256 DUP1 SLOAD SWAP2 PUSH1 0x2 PUSH1 0x1 DUP4 ADD SLOAD SWAP3 ADD SLOAD SWAP2 DUP2 MLOAD SWAP4 DUP5 MSTORE PUSH1 0x20 DUP5 ADD MSTORE DUP3 ADD MSTORE RETURN JUMPDEST POP POP CALLVALUE PUSH2 0x2E0 JUMPI DUP2 PUSH1 0x3 NOT CALLDATASIZE ADD SLT PUSH2 0x2E0 JUMPI PUSH1 0x20 SWAP1 PUSH1 0x7 SLOAD SWAP1 MLOAD SWAP1 DUP2 MSTORE RETURN JUMPDEST POP CALLVALUE PUSH2 0x29B JUMPI DUP3 PUSH1 0x3 NOT CALLDATASIZE ADD SLT PUSH2 0x29B JUMPI PUSH2 0x5C5 PUSH2 0x16C9 JUMP JUMPDEST PUSH1 0x1 SLOAD PUSH1 0xFF DUP2 AND ISZERO PUSH2 0x64E JUMPI POP PUSH1 0x1 SLOAD SWAP1 PUSH1 0xFF DUP3 AND ISZERO PUSH2 0x614 JUMPI POP PUSH1 0xFF NOT AND PUSH1 0x1 SSTORE MLOAD CALLER DUP2 MSTORE PUSH32 0x5DB9EE0A495BF2E6FF9C91A7834C1BA4FDD244A5E8AA4E537BD38AEAE4B073AA SWAP1 PUSH1 0x20 SWAP1 LOG1 DUP1 RETURN JUMPDEST PUSH1 0x64 SWAP1 PUSH1 0x20 DUP5 MLOAD SWAP2 PUSH3 0x461BCD PUSH1 0xE5 SHL DUP4 MSTORE DUP3 ADD MSTORE PUSH1 0x14 PUSH1 0x24 DUP3 ADD MSTORE PUSH20 0x14185D5CD8589B194E881B9BDD081C185D5CD959 PUSH1 0x62 SHL PUSH1 0x44 DUP3 ADD MSTORE REVERT JUMPDEST PUSH1 0x20 SWAP2 POP SWAP2 PUSH1 0x1 PUSH32 0x62E78CEA01BEE320CD4E420270B5EA74000D11B0C9F74754EBDBFC544B05A258 SWAP4 PUSH2 0x67F PUSH2 0x18E1 JUMP JUMPDEST PUSH1 0xFF NOT AND OR PUSH1 0x1 SSTORE MLOAD CALLER DUP2 MSTORE LOG1 DUP1 RETURN JUMPDEST POP POP CALLVALUE PUSH2 0x2E0 JUMPI DUP2 PUSH1 0x3 NOT CALLDATASIZE ADD SLT PUSH2 0x2E0 JUMPI PUSH1 0xD SLOAD SWAP1 MLOAD PUSH1 0x1 PUSH1 0x1 PUSH1 0xA0 SHL SUB SWAP1 SWAP2 AND DUP2 MSTORE PUSH1 0x20 SWAP1 RETURN JUMPDEST POP POP CALLVALUE PUSH2 0x2E0 JUMPI PUSH1 0x20 CALLDATASIZE PUSH1 0x3 NOT ADD SLT PUSH2 0x2E0 JUMPI PUSH1 0x20 SWAP2 PUSH1 0x1 SWAP1 DUP3 SWAP1 PUSH1 0x1 PUSH1 0x1 PUSH1 0xA0 SHL SUB PUSH2 0x6E3 PUSH2 0x16AE JUMP JUMPDEST AND DUP2 MSTORE PUSH1 0x9 DUP6 MSTORE KECCAK256 ADD SLOAD SWAP1 MLOAD SWAP1 TIMESTAMP LT ISZERO DUP2 MSTORE RETURN JUMPDEST DUP1 DUP5 DUP5 CALLVALUE PUSH2 0x791 JUMPI PUSH1 0x20 CALLDATASIZE PUSH1 0x3 NOT ADD SLT PUSH2 0x791 JUMPI PUSH2 0x749 PUSH1 0x20 SWAP2 PUSH2 0x719 PUSH2 0x16C9 JUMP JUMPDEST PUSH1 0x3 SLOAD DUP5 MLOAD PUSH4 0x23B872DD PUSH1 0xE0 SHL DUP2 MSTORE SWAP6 DUP7 SWAP4 PUSH1 0x1 PUSH1 0x1 PUSH1 0xA0 SHL SUB SWAP1 SWAP3 AND SWAP3 DUP5 SWAP3 DUP4 SWAP2 DUP1 CALLDATALOAD SWAP1 ADDRESS SWAP1 CALLER SWAP1 DUP6 ADD PUSH2 0x18BF JUMP JUMPDEST SUB SWAP3 GAS CALL SWAP1 DUP2 ISZERO PUSH2 0x788 JUMPI POP PUSH2 0x75D JUMPI POP DUP1 RETURN JUMPDEST PUSH2 0x77D SWAP1 PUSH1 0x20 RETURNDATASIZE DUP2 GT PUSH2 0x781 JUMPI JUMPDEST PUSH2 0x775 DUP2 DUP4 PUSH2 0x1724 JUMP JUMPDEST DUP2 ADD SWAP1 PUSH2 0x1853 JUMP JUMPDEST POP DUP1 RETURN JUMPDEST POP RETURNDATASIZE PUSH2 0x76B JUMP JUMPDEST MLOAD RETURNDATASIZE DUP5 DUP3 RETURNDATACOPY RETURNDATASIZE SWAP1 REVERT JUMPDEST POP POP REVERT JUMPDEST POP POP CALLVALUE PUSH2 0x2E0 JUMPI DUP2 PUSH1 0x3 NOT CALLDATASIZE ADD SLT PUSH2 0x2E0 JUMPI PUSH1 0x20 SWAP1 PUSH1 0xC SLOAD SWAP1 MLOAD SWAP1 DUP2 MSTORE RETURN JUMPDEST DUP4 DUP3 CALLVALUE PUSH2 0x2E0 JUMPI PUSH1 0x20 CALLDATASIZE PUSH1 0x3 NOT ADD SLT PUSH2 0x2E0 JUMPI CALLDATALOAD PUSH4 0xFFFFFFFF DUP2 AND DUP1 SWAP2 SUB PUSH2 0x2E0 JUMPI PUSH2 0x7DE PUSH2 0x16C9 JUMP JUMPDEST PUSH4 0xFFFFFFFF NOT PUSH1 0x8 SLOAD AND OR PUSH1 0x8 SSTORE DUP1 RETURN JUMPDEST POP CALLVALUE PUSH2 0x29B JUMPI PUSH1 0x80 CALLDATASIZE PUSH1 0x3 NOT ADD SLT PUSH2 0x29B JUMPI PUSH2 0x809 PUSH2 0x16AE JUMP JUMPDEST SWAP1 PUSH1 0x24 CALLDATALOAD SWAP1 PUSH1 0x1 PUSH1 0x1 PUSH1 0xA0 SHL SUB PUSH1 0x44 CALLDATALOAD DUP2 DUP2 AND SUB PUSH2 0x932 JUMPI PUSH1 0x64 CALLDATALOAD PUSH8 0xFFFFFFFFFFFFFFFF DUP1 DUP3 GT PUSH2 0x936 JUMPI CALLDATASIZE PUSH1 0x23 DUP4 ADD SLT ISZERO PUSH2 0x936 JUMPI DUP2 DUP5 ADD CALLDATALOAD SWAP1 DUP2 GT PUSH2 0x936 JUMPI CALLDATASIZE SWAP2 ADD PUSH1 0x24 ADD GT PUSH2 0x932 JUMPI PUSH2 0x85D PUSH2 0x1C11 JUMP JUMPDEST PUSH2 0x865 PUSH2 0x18E1 JUMP JUMPDEST PUSH1 0x2 SLOAD AND SWAP1 DUP2 ISZERO PUSH2 0x8E0 JUMPI DUP3 PUSH2 0x896 SWAP3 PUSH1 0x20 SWAP3 DUP9 DUP9 MLOAD DUP1 SWAP7 DUP2 SWAP6 DUP3 SWAP5 PUSH4 0x23B872DD PUSH1 0xE0 SHL DUP5 MSTORE ADDRESS SWAP1 CALLER SWAP1 DUP6 ADD PUSH2 0x18BF JUMP JUMPDEST SUB SWAP3 GAS CALL DUP1 ISZERO PUSH2 0x8D6 JUMPI PUSH2 0x8B0 SWAP5 POP PUSH2 0x8B8 JUMPI JUMPDEST POP PUSH2 0x1925 JUMP JUMPDEST POP PUSH1 0x1 DUP2 SSTORE DUP1 RETURN JUMPDEST PUSH2 0x8CF SWAP1 PUSH1 0x20 RETURNDATASIZE DUP2 GT PUSH2 0x781 JUMPI PUSH2 0x775 DUP2 DUP4 PUSH2 0x1724 JUMP JUMPDEST POP CODESIZE PUSH2 0x8AA JUMP JUMPDEST DUP5 MLOAD RETURNDATASIZE DUP8 DUP3 RETURNDATACOPY RETURNDATASIZE SWAP1 REVERT JUMPDEST PUSH1 0x84 SWAP1 PUSH1 0x20 DUP7 MLOAD SWAP2 PUSH3 0x461BCD PUSH1 0xE5 SHL DUP4 MSTORE DUP3 ADD MSTORE PUSH1 0x26 PUSH1 0x24 DUP3 ADD MSTORE PUSH32 0x72656365697665417070726F76616C3A20546F6B656E2061646472657373206E PUSH1 0x44 DUP3 ADD MSTORE PUSH6 0x1BDD081CD95D PUSH1 0xD2 SHL PUSH1 0x64 DUP3 ADD MSTORE REVERT JUMPDEST DUP6 DUP1 REVERT JUMPDEST DUP8 DUP1 REVERT JUMPDEST POP POP CALLVALUE PUSH2 0x2E0 JUMPI DUP2 PUSH1 0x3 NOT CALLDATASIZE ADD SLT PUSH2 0x2E0 JUMPI PUSH1 0x1 SLOAD SWAP1 MLOAD PUSH1 0x8 SWAP2 SWAP1 SWAP2 SHR PUSH1 0x1 PUSH1 0x1 PUSH1 0xA0 SHL SUB AND DUP2 MSTORE PUSH1 0x20 SWAP1 RETURN JUMPDEST DUP4 DUP3 CALLVALUE PUSH2 0x2E0 JUMPI PUSH1 0x20 CALLDATASIZE PUSH1 0x3 NOT ADD SLT PUSH2 0x2E0 JUMPI PUSH2 0x982 PUSH2 0x16C9 JUMP JUMPDEST CALLDATALOAD PUSH1 0xA SSTORE DUP1 RETURN JUMPDEST DUP4 CALLVALUE PUSH2 0x33D JUMPI DUP1 PUSH1 0x3 NOT CALLDATASIZE ADD SLT PUSH2 0x33D JUMPI PUSH2 0x9A2 PUSH2 0x16C9 JUMP JUMPDEST PUSH1 0x1 DUP1 SLOAD PUSH2 0x100 PUSH1 0x1 PUSH1 0xA8 SHL SUB NOT DUP2 AND SWAP1 SWAP2 SSTORE DUP2 SWAP1 PUSH1 0x8 SHR PUSH1 0x1 PUSH1 0x1 PUSH1 0xA0 SHL SUB AND PUSH32 0x8BE0079C531659141344CD1FD0A4F28419497F9722A3DAAFE3B4186F6B6457E0 DUP3 DUP1 LOG3 DUP1 RETURN JUMPDEST POP POP CALLVALUE PUSH2 0x2E0 JUMPI PUSH1 0x20 CALLDATASIZE PUSH1 0x3 NOT ADD SLT PUSH2 0x2E0 JUMPI PUSH1 0x20 SWAP2 DUP2 SWAP1 PUSH1 0x1 PUSH1 0x1 PUSH1 0xA0 SHL SUB PUSH2 0xA12 PUSH2 0x16AE JUMP JUMPDEST AND DUP2 MSTORE PUSH1 0x9 DUP5 MSTORE KECCAK256 SLOAD SWAP1 MLOAD SWAP1 DUP2 MSTORE RETURN JUMPDEST DUP4 DUP3 CALLVALUE PUSH2 0x2E0 JUMPI PUSH1 0x20 CALLDATASIZE PUSH1 0x3 NOT ADD SLT PUSH2 0x2E0 JUMPI PUSH2 0xA3D PUSH2 0x16C9 JUMP JUMPDEST CALLDATALOAD PUSH1 0x7 SSTORE DUP1 RETURN JUMPDEST POP CALLVALUE PUSH2 0x29B JUMPI DUP3 PUSH1 0x3 NOT CALLDATASIZE ADD SLT PUSH2 0x29B JUMPI PUSH1 0x2 SLOAD DUP3 MLOAD PUSH4 0x313CE567 PUSH1 0xE0 SHL DUP2 MSTORE SWAP2 PUSH1 0x20 SWAP2 DUP4 SWAP2 SWAP1 DUP3 SWAP1 PUSH1 0x1 PUSH1 0x1 PUSH1 0xA0 SHL SUB AND GAS STATICCALL SWAP1 DUP2 ISZERO PUSH2 0xAE9 JUMPI PUSH1 0xFF PUSH2 0x323 SWAP3 PUSH2 0xA99 SWAP3 PUSH1 0x20 SWAP7 SWAP2 PUSH2 0xABC JUMPI JUMPDEST POP AND PUSH2 0x1845 JUMP JUMPDEST PUSH2 0xAB7 PUSH2 0xAA8 DUP3 PUSH1 0xB SLOAD PUSH2 0x186B JUMP JUMPDEST SWAP2 PUSH2 0xAB1 PUSH2 0x17B2 JUMP JUMPDEST SWAP1 PUSH2 0x175C JUMP JUMPDEST PUSH2 0x1785 JUMP JUMPDEST PUSH2 0xADC SWAP2 POP DUP7 RETURNDATASIZE DUP2 GT PUSH2 0xAE2 JUMPI JUMPDEST PUSH2 0xAD4 DUP2 DUP4 PUSH2 0x1724 JUMP JUMPDEST DUP2 ADD SWAP1 PUSH2 0x182C JUMP JUMPDEST CODESIZE PUSH2 0xA92 JUMP JUMPDEST POP RETURNDATASIZE PUSH2 0xACA JUMP JUMPDEST POP POP MLOAD SWAP1 RETURNDATASIZE SWAP1 DUP3 RETURNDATACOPY RETURNDATASIZE SWAP1 REVERT JUMPDEST DUP4 DUP3 CALLVALUE PUSH2 0x2E0 JUMPI PUSH1 0x20 CALLDATASIZE PUSH1 0x3 NOT ADD SLT PUSH2 0x2E0 JUMPI PUSH2 0xB10 PUSH2 0x16C9 JUMP JUMPDEST CALLDATALOAD PUSH1 0xB SSTORE DUP1 RETURN JUMPDEST POP CALLVALUE PUSH2 0x29B JUMPI DUP3 PUSH1 0x3 NOT CALLDATASIZE ADD SLT PUSH2 0x29B JUMPI SLOAD SWAP1 MLOAD PUSH1 0x1 PUSH1 0x1 PUSH1 0xA0 SHL SUB SWAP1 SWAP2 AND DUP2 MSTORE PUSH1 0x20 SWAP2 POP RETURN JUMPDEST POP POP CALLVALUE PUSH2 0x2E0 JUMPI DUP2 PUSH1 0x3 NOT CALLDATASIZE ADD SLT PUSH2 0x2E0 JUMPI PUSH1 0x20 SWAP1 PUSH1 0xFF PUSH1 0x1 SLOAD AND SWAP1 MLOAD SWAP1 ISZERO ISZERO DUP2 MSTORE RETURN JUMPDEST POP SWAP2 CALLVALUE PUSH2 0x33D JUMPI PUSH1 0x20 SWAP3 DUP4 PUSH1 0x3 NOT CALLDATASIZE ADD SLT PUSH2 0x2E0 JUMPI PUSH1 0x2 SLOAD DUP4 MLOAD PUSH4 0x313CE567 PUSH1 0xE0 SHL DUP1 DUP3 MSTORE DUP4 CALLDATALOAD SWAP5 SWAP3 PUSH1 0x1 PUSH1 0x1 PUSH1 0xA0 SHL SUB AND SWAP2 DUP8 DUP2 DUP7 DUP2 DUP7 GAS STATICCALL SWAP1 DUP2 ISZERO PUSH2 0xC79 JUMPI PUSH1 0xFF DUP10 SWAP4 SWAP3 PUSH1 0x12 SWAP3 DUP8 SWAP2 PUSH2 0xC5C JUMPI JUMPDEST POP AND LT PUSH2 0xBCF JUMPI JUMPDEST POP DUP6 PUSH2 0x323 DUP7 PUSH2 0xAB7 PUSH2 0xAA8 DUP3 PUSH1 0xB SLOAD PUSH2 0x186B JUMP JUMPDEST DUP5 DUP8 MLOAD DUP1 SWAP5 DUP2 SWAP4 DUP3 MSTORE GAS STATICCALL SWAP1 DUP2 ISZERO PUSH2 0xC52 JUMPI SWAP1 PUSH1 0xFF SWAP2 DUP4 SWAP2 PUSH2 0xC35 JUMPI JUMPDEST POP AND PUSH1 0x12 SUB PUSH1 0xFF DUP2 GT PUSH2 0xC22 JUMPI PUSH1 0xFF AND SWAP2 PUSH1 0x4D DUP4 GT PUSH2 0x32A JUMPI POP POP PUSH2 0x323 SWAP2 PUSH2 0xC18 SWAP2 PUSH1 0xA EXP SWAP1 PUSH2 0x175C JUMP JUMPDEST SWAP1 CODESIZE DUP1 DUP6 DUP2 PUSH2 0xBBA JUMP JUMPDEST POP PUSH1 0x11 PUSH1 0x24 SWAP3 PUSH4 0x4E487B71 PUSH1 0xE0 SHL DUP4 MSTORE MSTORE REVERT JUMPDEST PUSH2 0xC4C SWAP2 POP DUP8 RETURNDATASIZE DUP10 GT PUSH2 0xAE2 JUMPI PUSH2 0xAD4 DUP2 DUP4 PUSH2 0x1724 JUMP JUMPDEST CODESIZE PUSH2 0xBEC JUMP JUMPDEST DUP6 MLOAD RETURNDATASIZE DUP5 DUP3 RETURNDATACOPY RETURNDATASIZE SWAP1 REVERT JUMPDEST PUSH2 0xC73 SWAP2 POP DUP6 RETURNDATASIZE DUP8 GT PUSH2 0xAE2 JUMPI PUSH2 0xAD4 DUP2 DUP4 PUSH2 0x1724 JUMP JUMPDEST CODESIZE PUSH2 0xBB2 JUMP JUMPDEST DUP8 MLOAD RETURNDATASIZE DUP7 DUP3 RETURNDATACOPY RETURNDATASIZE SWAP1 REVERT JUMPDEST POP SWAP1 CALLVALUE PUSH2 0x29B JUMPI DUP3 PUSH1 0x3 NOT CALLDATASIZE ADD SLT PUSH2 0x29B JUMPI PUSH2 0xC9D PUSH2 0x18E1 JUMP JUMPDEST PUSH4 0xFFFFFFFF PUSH1 0x8 SLOAD AND ISZERO PUSH2 0xD10 JUMPI JUMPDEST CALLER DUP4 MSTORE PUSH1 0x9 PUSH1 0x20 MSTORE PUSH1 0x1 DUP2 DUP5 KECCAK256 ADD SLOAD TIMESTAMP LT PUSH2 0xCCD JUMPI DUP3 PUSH2 0xCCA PUSH2 0x1D89 JUMP JUMPDEST DUP1 RETURN JUMPDEST SWAP1 PUSH1 0x20 PUSH1 0x64 SWAP3 MLOAD SWAP2 PUSH3 0x461BCD PUSH1 0xE5 SHL DUP4 MSTORE DUP3 ADD MSTORE PUSH1 0x20 PUSH1 0x24 DUP3 ADD MSTORE PUSH32 0x7768656E436C61696D61626C653A2056657374696E67206E6F7420656E646564 PUSH1 0x44 DUP3 ADD MSTORE REVERT JUMPDEST PUSH2 0xD18 PUSH2 0x1D89 JUMP JUMPDEST PUSH2 0xCAC JUMP JUMPDEST POP SWAP2 SWAP1 CALLVALUE PUSH2 0x2E0 JUMPI DUP2 PUSH1 0x3 NOT CALLDATASIZE ADD SLT PUSH2 0x2E0 JUMPI PUSH2 0xD38 PUSH2 0x16C9 JUMP JUMPDEST PUSH1 0x3 SLOAD DUP2 MLOAD PUSH4 0x70A08231 PUSH1 0xE0 SHL DUP2 MSTORE ADDRESS DUP6 DUP3 ADD MSTORE SWAP4 PUSH1 0x20 SWAP3 SWAP2 PUSH1 0x1 PUSH1 0x1 PUSH1 0xA0 SHL SUB SWAP1 DUP2 AND SWAP2 SWAP1 DUP5 DUP8 PUSH1 0x24 DUP2 DUP7 GAS STATICCALL SWAP7 DUP8 ISZERO PUSH2 0xE65 JUMPI DUP7 SWAP8 PUSH2 0xE36 JUMPI JUMPDEST POP DUP7 ISZERO PUSH2 0xDF3 JUMPI PUSH1 0x1 SLOAD DUP5 MLOAD PUSH4 0xA9059CBB PUSH1 0xE0 SHL DUP2 MSTORE PUSH1 0x1 PUSH1 0x1 PUSH1 0xA0 SHL SUB PUSH1 0x8 SWAP3 SWAP1 SWAP3 SHR SWAP1 SWAP3 AND AND SWAP2 DUP2 ADD SWAP2 DUP3 MSTORE PUSH1 0x20 DUP3 ADD DUP8 SWAP1 MSTORE SWAP3 SWAP2 DUP5 SWAP2 DUP5 SWAP2 SWAP1 DUP3 SWAP1 DUP9 SWAP1 DUP3 SWAP1 PUSH1 0x40 ADD SUB SWAP3 GAS CALL SWAP1 DUP2 ISZERO PUSH2 0xDEA JUMPI POP PUSH2 0xDCD JUMPI DUP3 DUP1 RETURN JUMPDEST DUP2 PUSH2 0xDE3 SWAP3 SWAP1 RETURNDATASIZE LT PUSH2 0x781 JUMPI PUSH2 0x775 DUP2 DUP4 PUSH2 0x1724 JUMP JUMPDEST POP DUP2 DUP1 DUP3 DUP1 RETURN JUMPDEST MLOAD RETURNDATASIZE DUP6 DUP3 RETURNDATACOPY RETURNDATASIZE SWAP1 REVERT JUMPDEST DUP4 MLOAD PUSH3 0x461BCD PUSH1 0xE5 SHL DUP2 MSTORE DUP1 DUP4 ADD DUP7 SWAP1 MSTORE PUSH1 0x1A PUSH1 0x24 DUP3 ADD MSTORE PUSH32 0x73776565703A204E6F2062616C616E636520746F207377656570000000000000 PUSH1 0x44 DUP3 ADD MSTORE PUSH1 0x64 SWAP1 REVERT JUMPDEST SWAP1 SWAP7 POP DUP5 DUP2 DUP2 RETURNDATASIZE DUP4 GT PUSH2 0xE5E JUMPI JUMPDEST PUSH2 0xE4E DUP2 DUP4 PUSH2 0x1724 JUMP JUMPDEST DUP2 ADD SUB SLT PUSH2 0x932 JUMPI MLOAD SWAP6 CODESIZE PUSH2 0xD74 JUMP JUMPDEST POP RETURNDATASIZE PUSH2 0xE44 JUMP JUMPDEST DUP5 MLOAD RETURNDATASIZE DUP9 DUP3 RETURNDATACOPY RETURNDATASIZE SWAP1 REVERT JUMPDEST POP SWAP1 CALLVALUE PUSH2 0x29B JUMPI PUSH1 0x20 CALLDATASIZE PUSH1 0x3 NOT ADD SLT PUSH2 0x29B JUMPI PUSH2 0xE8A PUSH2 0x16AE JUMP JUMPDEST PUSH2 0xE92 PUSH2 0x16C9 JUMP JUMPDEST PUSH1 0xD DUP1 SLOAD PUSH1 0x1 PUSH1 0x1 PUSH1 0xA0 SHL SUB NOT AND PUSH1 0x1 PUSH1 0x1 PUSH1 0xA0 SHL SUB SWAP3 DUP4 AND SWAP1 DUP2 OR SWAP1 SWAP2 SSTORE DUP1 PUSH2 0xEBA JUMPI DUP5 DUP1 RETURN JUMPDEST PUSH1 0x44 PUSH1 0x20 SWAP3 PUSH1 0x2 SLOAD AND SWAP5 DUP7 DUP6 MLOAD SWAP7 DUP8 SWAP5 DUP6 SWAP4 PUSH4 0x95EA7B3 PUSH1 0xE0 SHL DUP6 MSTORE DUP5 ADD MSTORE PUSH1 0x0 NOT PUSH1 0x24 DUP5 ADD MSTORE GAS CALL SWAP1 DUP2 ISZERO PUSH2 0x788 JUMPI POP PUSH2 0xEF7 JUMPI JUMPDEST DUP1 DUP1 DUP1 DUP5 DUP1 RETURN JUMPDEST PUSH2 0xF0E SWAP1 PUSH1 0x20 RETURNDATASIZE DUP2 GT PUSH2 0x781 JUMPI PUSH2 0x775 DUP2 DUP4 PUSH2 0x1724 JUMP JUMPDEST POP CODESIZE PUSH2 0xEF0 JUMP JUMPDEST POP POP CALLVALUE PUSH2 0x2E0 JUMPI DUP2 PUSH1 0x3 NOT CALLDATASIZE ADD SLT PUSH2 0x2E0 JUMPI PUSH1 0x20 SWAP1 PUSH1 0x6 SLOAD SWAP1 MLOAD SWAP1 DUP2 MSTORE RETURN JUMPDEST POP POP CALLVALUE PUSH2 0x2E0 JUMPI DUP2 PUSH1 0x3 NOT CALLDATASIZE ADD SLT PUSH2 0x2E0 JUMPI PUSH1 0x20 SWAP1 PUSH1 0xA SLOAD SWAP1 MLOAD SWAP1 DUP2 MSTORE RETURN JUMPDEST POP CALLVALUE PUSH2 0x29B JUMPI PUSH1 0x20 SWAP3 DUP4 PUSH1 0x3 NOT CALLDATASIZE ADD SLT PUSH2 0x33D JUMPI DUP2 CALLDATALOAD SWAP2 PUSH2 0xF72 PUSH2 0x18E1 JUMP JUMPDEST PUSH1 0x2 SLOAD DUP5 MLOAD PUSH4 0x70A08231 PUSH1 0xE0 SHL DUP2 MSTORE CALLER DUP4 DUP3 ADD MSTORE DUP5 SWAP4 SWAP2 PUSH1 0x1 PUSH1 0x1 PUSH1 0xA0 SHL SUB SWAP2 SWAP1 DUP3 AND SWAP1 DUP9 DUP2 PUSH1 0x24 DUP2 DUP6 GAS STATICCALL SWAP1 DUP2 ISZERO PUSH2 0x1136 JUMPI SWAP1 DUP8 SWAP2 DUP6 SWAP2 PUSH2 0x1105 JUMPI JUMPDEST POP LT PUSH2 0x10B7 JUMPI PUSH2 0xFC1 PUSH1 0xA SLOAD ISZERO PUSH2 0x1878 JUMP JUMPDEST DUP8 DUP8 MLOAD DUP1 SWAP3 PUSH4 0x23B872DD PUSH1 0xE0 SHL DUP3 MSTORE DUP2 DUP7 DUP2 PUSH2 0xFE1 DUP13 ADDRESS CALLER DUP14 DUP6 ADD PUSH2 0x18BF JUMP JUMPDEST SUB SWAP3 GAS CALL DUP1 ISZERO PUSH2 0x10AD JUMPI SWAP2 DUP9 SWAP2 DUP6 SWAP4 PUSH2 0x1090 JUMPI JUMPDEST POP PUSH2 0xFFF DUP8 PUSH2 0x1E04 JUMP JUMPDEST POP PUSH1 0x2 SLOAD AND DUP8 MLOAD SWAP3 DUP4 DUP1 SWAP3 PUSH4 0x313CE567 PUSH1 0xE0 SHL DUP3 MSTORE GAS STATICCALL SWAP1 DUP2 ISZERO PUSH2 0x1086 JUMPI SWAP1 PUSH1 0xFF SWAP2 DUP4 SWAP2 PUSH2 0x1069 JUMPI JUMPDEST POP AND PUSH1 0x12 DUP2 LT PUSH2 0x103F JUMPI JUMPDEST DUP7 DUP7 PUSH2 0x323 CALLER DUP8 PUSH2 0x1925 JUMP JUMPDEST SWAP1 SWAP2 SWAP3 POP PUSH1 0x12 SUB SWAP2 PUSH1 0x12 DUP4 GT PUSH2 0x32A JUMPI POP POP PUSH2 0x323 SWAP2 PUSH2 0xAB1 PUSH2 0x1061 SWAP3 PUSH2 0x1845 JUMP JUMPDEST CODESIZE DUP1 DUP1 PUSH2 0x1033 JUMP JUMPDEST PUSH2 0x1080 SWAP2 POP DUP9 RETURNDATASIZE DUP11 GT PUSH2 0xAE2 JUMPI PUSH2 0xAD4 DUP2 DUP4 PUSH2 0x1724 JUMP JUMPDEST CODESIZE PUSH2 0x1028 JUMP JUMPDEST DUP7 MLOAD RETURNDATASIZE DUP5 DUP3 RETURNDATACOPY RETURNDATASIZE SWAP1 REVERT JUMPDEST PUSH2 0x10A6 SWAP1 DUP4 RETURNDATASIZE DUP6 GT PUSH2 0x781 JUMPI PUSH2 0x775 DUP2 DUP4 PUSH2 0x1724 JUMP JUMPDEST POP CODESIZE PUSH2 0xFF5 JUMP JUMPDEST DUP8 MLOAD RETURNDATASIZE DUP6 DUP3 RETURNDATACOPY RETURNDATASIZE SWAP1 REVERT JUMPDEST DUP7 MLOAD PUSH3 0x461BCD PUSH1 0xE5 SHL DUP2 MSTORE DUP1 DUP6 ADD DUP10 SWAP1 MSTORE PUSH1 0x22 PUSH1 0x24 DUP3 ADD MSTORE PUSH32 0x6D657267653A20496E73756666696369656E742062616C616E636520746F2065 PUSH1 0x44 DUP3 ADD MSTORE PUSH2 0x185D PUSH1 0xF2 SHL PUSH1 0x64 DUP3 ADD MSTORE PUSH1 0x84 SWAP1 REVERT JUMPDEST DUP1 SWAP3 POP DUP11 DUP1 SWAP3 POP RETURNDATASIZE DUP4 GT PUSH2 0x112F JUMPI JUMPDEST PUSH2 0x111E DUP2 DUP4 PUSH2 0x1724 JUMP JUMPDEST DUP2 ADD SUB SLT PUSH2 0x4DF JUMPI DUP7 SWAP1 MLOAD CODESIZE PUSH2 0xFAF JUMP JUMPDEST POP RETURNDATASIZE PUSH2 0x1114 JUMP JUMPDEST DUP9 MLOAD RETURNDATASIZE DUP7 DUP3 RETURNDATACOPY RETURNDATASIZE SWAP1 REVERT JUMPDEST POP POP CALLVALUE PUSH2 0x2E0 JUMPI DUP2 PUSH1 0x3 NOT CALLDATASIZE ADD SLT PUSH2 0x2E0 JUMPI PUSH1 0x2 SLOAD SWAP1 MLOAD PUSH1 0x1 PUSH1 0x1 PUSH1 0xA0 SHL SUB SWAP1 SWAP2 AND DUP2 MSTORE PUSH1 0x20 SWAP1 RETURN JUMPDEST POP POP CALLVALUE PUSH2 0x2E0 JUMPI DUP2 PUSH1 0x3 NOT CALLDATASIZE ADD SLT PUSH2 0x2E0 JUMPI PUSH1 0x20 SWAP1 PUSH1 0xB SLOAD SWAP1 MLOAD SWAP1 DUP2 MSTORE RETURN JUMPDEST POP POP CALLVALUE PUSH2 0x2E0 JUMPI DUP2 PUSH1 0x3 NOT CALLDATASIZE ADD SLT PUSH2 0x2E0 JUMPI PUSH1 0x20 SWAP1 PUSH1 0x5 SLOAD SWAP1 MLOAD SWAP1 DUP2 MSTORE RETURN JUMPDEST POP POP CALLVALUE PUSH2 0x2E0 JUMPI DUP2 PUSH1 0x3 NOT CALLDATASIZE ADD SLT PUSH2 0x2E0 JUMPI PUSH1 0x20 SWAP1 PUSH4 0xFFFFFFFF PUSH1 0x8 SLOAD AND SWAP1 MLOAD SWAP1 DUP2 MSTORE RETURN JUMPDEST POP SWAP2 CALLVALUE PUSH2 0x33D JUMPI DUP1 PUSH1 0x3 NOT CALLDATASIZE ADD SLT PUSH2 0x33D JUMPI PUSH1 0x2 SLOAD DUP3 MLOAD PUSH4 0x6FDDE03 PUSH1 0xE0 SHL DUP2 MSTORE SWAP4 SWAP2 SWAP1 DUP2 SWAP1 DUP6 SWAP1 DUP5 SWAP1 DUP3 SWAP1 PUSH1 0x1 PUSH1 0x1 PUSH1 0xA0 SHL SUB AND GAS STATICCALL SWAP2 DUP3 ISZERO PUSH2 0x1319 JUMPI DUP2 SWAP3 PUSH2 0x127C JUMPI JUMPDEST PUSH2 0x126E DUP5 DUP5 DUP2 MLOAD SWAP1 PUSH2 0x1253 PUSH1 0x26 DUP4 PUSH1 0x20 DUP2 ADD SWAP4 PUSH6 0x2BB2ABB29D1 PUSH1 0xD5 SHL DUP6 MSTORE PUSH2 0x1243 DUP2 MLOAD DUP1 SWAP3 PUSH1 0x20 DUP7 DUP7 ADD SWAP2 ADD PUSH2 0x168B JUMP JUMPDEST DUP2 ADD SUB PUSH1 0x6 DUP2 ADD DUP6 MSTORE ADD DUP4 PUSH2 0x1724 JUMP JUMPDEST DUP3 MLOAD SWAP4 DUP5 SWAP3 PUSH1 0x20 DUP5 MSTORE MLOAD DUP1 SWAP3 DUP2 PUSH1 0x20 DUP7 ADD MSTORE DUP6 DUP6 ADD SWAP1 PUSH2 0x168B JUMP JUMPDEST PUSH1 0x1F ADD PUSH1 0x1F NOT AND DUP2 ADD SUB ADD SWAP1 RETURN JUMPDEST SWAP1 SWAP2 POP RETURNDATASIZE DUP1 DUP4 DUP7 RETURNDATACOPY PUSH2 0x128E DUP2 DUP7 PUSH2 0x1724 JUMP JUMPDEST DUP5 ADD SWAP2 PUSH1 0x20 DUP6 DUP5 SUB SLT PUSH2 0x33D JUMPI DUP5 MLOAD PUSH8 0xFFFFFFFFFFFFFFFF SWAP6 DUP7 DUP3 GT PUSH2 0x29B JUMPI ADD SWAP2 DUP4 PUSH1 0x1F DUP5 ADD SLT ISZERO PUSH2 0x2E0 JUMPI DUP3 MLOAD SWAP6 DUP7 GT PUSH2 0x1306 JUMPI POP DUP4 MLOAD SWAP3 PUSH2 0x12DC PUSH1 0x1F DUP8 ADD PUSH1 0x1F NOT AND PUSH1 0x20 ADD DUP6 PUSH2 0x1724 JUMP JUMPDEST DUP6 DUP5 MSTORE PUSH1 0x20 DUP7 DUP5 ADD ADD GT PUSH2 0x33D JUMPI POP PUSH2 0x126E SWAP4 PUSH2 0x12FF SWAP2 PUSH1 0x20 DUP1 DUP6 ADD SWAP2 ADD PUSH2 0x168B JUMP JUMPDEST CODESIZE DUP1 PUSH2 0x1211 JUMP JUMPDEST PUSH4 0x4E487B71 PUSH1 0xE0 SHL DUP3 MSTORE PUSH1 0x41 SWAP1 MSTORE PUSH1 0x24 SWAP1 REVERT JUMPDEST POP DUP3 MLOAD SWAP1 RETURNDATASIZE SWAP1 DUP3 RETURNDATACOPY RETURNDATASIZE SWAP1 REVERT JUMPDEST POP DUP3 CALLVALUE PUSH2 0x33D JUMPI PUSH1 0x60 CALLDATASIZE PUSH1 0x3 NOT ADD SLT PUSH2 0x33D JUMPI PUSH1 0x24 SWAP3 PUSH8 0xFFFFFFFFFFFFFFFF SWAP3 SWAP1 PUSH1 0x44 DUP1 CALLDATALOAD DUP4 CALLDATALOAD DUP8 CALLDATALOAD DUP8 DUP4 GT PUSH2 0x1687 JUMPI CALLDATASIZE PUSH1 0x23 DUP5 ADD SLT ISZERO PUSH2 0x1687 JUMPI DUP3 DUP7 ADD CALLDATALOAD SWAP2 DUP9 DUP4 GT PUSH2 0x936 JUMPI PUSH1 0x5 SWAP2 DUP4 DUP4 SHL SWAP5 DUP12 DUP7 DUP3 ADD ADD SWAP1 CALLDATASIZE DUP3 GT PUSH2 0x1683 JUMPI PUSH2 0x1388 PUSH2 0x1C11 JUMP JUMPDEST PUSH2 0x1390 PUSH2 0x18E1 JUMP JUMPDEST DUP9 MLOAD SWAP6 PUSH2 0x13A1 PUSH1 0x20 DUP1 SWAP10 ADD DUP9 PUSH2 0x1724 JUMP JUMPDEST DUP7 MSTORE DUP13 ADD DUP7 DUP1 DUP8 ADD JUMPDEST DUP4 DUP4 LT PUSH2 0x1673 JUMPI POP POP POP POP PUSH1 0xA SLOAD SWAP10 DUP11 ISZERO PUSH2 0x1625 JUMPI CALLER DUP11 MSTORE PUSH1 0x9 DUP7 MSTORE DUP3 PUSH1 0x2 DUP10 DUP13 KECCAK256 ADD SLOAD LT ISZERO PUSH2 0x15E3 JUMPI DUP8 MLOAD CALLER DUP8 DUP3 ADD SWAP1 DUP2 MSTORE PUSH1 0x20 DUP2 ADD DUP6 SWAP1 MSTORE SWAP1 PUSH2 0x13FB DUP2 PUSH1 0x40 DUP5 ADD SUB PUSH1 0x1F NOT DUP2 ADD DUP4 MSTORE DUP3 PUSH2 0x1724 JUMP JUMPDEST MLOAD SWAP1 KECCAK256 DUP9 MLOAD DUP8 DUP2 ADD SWAP2 DUP3 MSTORE DUP8 DUP2 MSTORE SWAP1 SWAP2 DUP2 DUP11 ADD SWAP1 DUP2 GT DUP3 DUP3 LT OR PUSH2 0x15D1 JUMPI DUP10 MSTORE MLOAD SWAP1 KECCAK256 SWAP6 DUP10 SWAP7 JUMPDEST DUP6 MLOAD DUP9 LT ISZERO PUSH2 0x1476 JUMPI DUP8 DUP6 SHL DUP7 ADD DUP8 ADD MLOAD SWAP1 DUP2 DUP2 LT ISZERO PUSH2 0x1469 JUMPI DUP12 MSTORE DUP7 MSTORE DUP8 DUP11 KECCAK256 JUMPDEST SWAP7 PUSH1 0x0 NOT DUP2 EQ PUSH2 0x1457 JUMPI PUSH1 0x1 ADD SWAP7 PUSH2 0x1422 JUMP JUMPDEST PUSH4 0x4E487B71 PUSH1 0xE0 SHL DUP12 MSTORE PUSH1 0x11 DUP11 MSTORE DUP13 DUP12 REVERT JUMPDEST SWAP1 DUP12 MSTORE DUP7 MSTORE DUP8 DUP11 KECCAK256 PUSH2 0x1444 JUMP JUMPDEST DUP7 SWAP4 DUP12 SWAP4 DUP12 DUP16 SWAP4 SWAP5 DUP16 DUP14 SWAP7 SUB PUSH2 0x1590 JUMPI DUP3 SWAP5 DUP4 DUP6 LT PUSH2 0x153F JUMPI DUP4 ISZERO ISZERO DUP1 PUSH2 0x1537 JUMPI JUMPDEST ISZERO PUSH2 0x14F6 JUMPI POP POP POP SWAP2 PUSH2 0x14CF SWAP2 PUSH1 0x1 SWAP4 CALLER DUP8 MSTORE PUSH1 0x9 DUP9 MSTORE PUSH2 0x14BF PUSH1 0x2 DUP8 DUP10 KECCAK256 ADD SLOAD DUP4 PUSH2 0x17A5 JUMP JUMPDEST LT PUSH2 0x14D7 JUMPI JUMPDEST POP ADDRESS SWAP1 CALLER SWAP1 PUSH2 0x1C67 JUMP JUMPDEST SWAP3 SSTORE MLOAD SWAP1 DUP2 MSTORE RETURN JUMPDEST PUSH2 0x14F0 SWAP2 POP CALLER DUP7 MSTORE PUSH1 0x9 DUP8 MSTORE PUSH1 0x2 DUP6 DUP8 KECCAK256 ADD SLOAD SWAP1 PUSH2 0x17A5 JUMP JUMPDEST DUP7 PUSH2 0x14C5 JUMP JUMPDEST DUP7 MLOAD PUSH3 0x461BCD PUSH1 0xE5 SHL DUP2 MSTORE SWAP3 DUP4 ADD DUP10 SWAP1 MSTORE PUSH1 0x1E SWAP1 DUP4 ADD MSTORE PUSH32 0x6D657267655769746850726F6F663A20496E76616C696420616D6F756E740000 SWAP1 DUP3 ADD MSTORE PUSH1 0x64 SWAP1 REVERT JUMPDEST POP PUSH1 0x1 PUSH2 0x1498 JUMP JUMPDEST DUP7 MLOAD PUSH3 0x461BCD PUSH1 0xE5 SHL DUP2 MSTORE SWAP3 DUP4 ADD DUP10 SWAP1 MSTORE PUSH1 0x27 SWAP1 DUP4 ADD MSTORE PUSH32 0x6D657267655769746850726F6F663A20496E73756666696369656E7420616C6C SWAP1 DUP3 ADD MSTORE PUSH7 0x37B1B0BA34B7B7 PUSH1 0xC9 SHL PUSH1 0x64 DUP3 ADD MSTORE PUSH1 0x84 SWAP1 REVERT JUMPDEST DUP6 MLOAD PUSH3 0x461BCD PUSH1 0xE5 SHL DUP2 MSTORE SWAP2 DUP3 ADD DUP9 SWAP1 MSTORE PUSH1 0x1E DUP3 DUP7 ADD MSTORE PUSH32 0x6F6E6C7957686974654C69737465643A20496E76616C69642070726F6F660000 SWAP1 DUP3 ADD MSTORE PUSH1 0x64 SWAP1 REVERT JUMPDEST PUSH4 0x4E487B71 PUSH1 0xE0 SHL DUP13 MSTORE PUSH1 0x41 DUP12 MSTORE DUP14 DUP13 REVERT JUMPDEST POP DUP7 MLOAD PUSH3 0x461BCD PUSH1 0xE5 SHL DUP2 MSTORE DUP1 DUP10 ADD DUP7 SWAP1 MSTORE PUSH1 0x1F DUP2 DUP14 ADD MSTORE PUSH32 0x6F6E6C7957686974654C69737465643A20416C7265616479206D657267656400 DUP2 DUP9 ADD MSTORE PUSH1 0x64 SWAP1 REVERT JUMPDEST POP DUP7 MLOAD PUSH3 0x461BCD PUSH1 0xE5 SHL DUP2 MSTORE DUP1 DUP10 ADD DUP7 SWAP1 MSTORE PUSH1 0x23 DUP2 DUP14 ADD MSTORE PUSH32 0x6F6E6C7957686974654C69737465643A205768697465206C697374206E6F7420 DUP2 DUP9 ADD MSTORE PUSH3 0x1CD95D PUSH1 0xEA SHL PUSH1 0x64 DUP3 ADD MSTORE PUSH1 0x84 SWAP1 REVERT JUMPDEST DUP3 CALLDATALOAD DUP2 MSTORE SWAP2 DUP2 ADD SWAP2 DUP9 SWAP2 ADD PUSH2 0x13AA JUMP JUMPDEST DUP11 DUP1 REVERT JUMPDEST DUP7 DUP1 REVERT JUMPDEST PUSH1 0x0 JUMPDEST DUP4 DUP2 LT PUSH2 0x169E JUMPI POP POP PUSH1 0x0 SWAP2 ADD MSTORE JUMP JUMPDEST DUP2 DUP2 ADD MLOAD DUP4 DUP3 ADD MSTORE PUSH1 0x20 ADD PUSH2 0x168E JUMP JUMPDEST PUSH1 0x4 CALLDATALOAD SWAP1 PUSH1 0x1 PUSH1 0x1 PUSH1 0xA0 SHL SUB DUP3 AND DUP3 SUB PUSH2 0x16C4 JUMPI JUMP JUMPDEST PUSH1 0x0 DUP1 REVERT JUMPDEST PUSH1 0x1 SLOAD PUSH1 0x8 SHR PUSH1 0x1 PUSH1 0x1 PUSH1 0xA0 SHL SUB AND CALLER SUB PUSH2 0x16E0 JUMPI JUMP JUMPDEST PUSH1 0x64 PUSH1 0x40 MLOAD PUSH3 0x461BCD PUSH1 0xE5 SHL DUP2 MSTORE PUSH1 0x20 PUSH1 0x4 DUP3 ADD MSTORE PUSH1 0x20 PUSH1 0x24 DUP3 ADD MSTORE PUSH32 0x4F776E61626C653A2063616C6C6572206973206E6F7420746865206F776E6572 PUSH1 0x44 DUP3 ADD MSTORE REVERT JUMPDEST SWAP1 PUSH1 0x1F DUP1 NOT SWAP2 ADD AND DUP2 ADD SWAP1 DUP2 LT PUSH8 0xFFFFFFFFFFFFFFFF DUP3 GT OR PUSH2 0x1746 JUMPI PUSH1 0x40 MSTORE JUMP JUMPDEST PUSH4 0x4E487B71 PUSH1 0xE0 SHL PUSH1 0x0 MSTORE PUSH1 0x41 PUSH1 0x4 MSTORE PUSH1 0x24 PUSH1 0x0 REVERT JUMPDEST DUP2 DUP2 MUL SWAP3 SWAP2 DUP2 ISZERO SWAP2 DUP5 DIV EQ OR ISZERO PUSH2 0x176F JUMPI JUMP JUMPDEST PUSH4 0x4E487B71 PUSH1 0xE0 SHL PUSH1 0x0 MSTORE PUSH1 0x11 PUSH1 0x4 MSTORE PUSH1 0x24 PUSH1 0x0 REVERT JUMPDEST DUP2 ISZERO PUSH2 0x178F JUMPI DIV SWAP1 JUMP JUMPDEST PUSH4 0x4E487B71 PUSH1 0xE0 SHL PUSH1 0x0 MSTORE PUSH1 0x12 PUSH1 0x4 MSTORE PUSH1 0x24 PUSH1 0x0 REVERT JUMPDEST SWAP2 SWAP1 DUP3 SUB SWAP2 DUP3 GT PUSH2 0x176F JUMPI JUMP JUMPDEST PUSH1 0xC SLOAD PUSH1 0x5 SLOAD DUP1 DUP3 LT PUSH2 0x17CB JUMPI PUSH2 0x17C8 SWAP2 PUSH2 0x17A5 JUMP JUMPDEST SWAP1 JUMP JUMPDEST PUSH1 0x40 MLOAD PUSH3 0x461BCD PUSH1 0xE5 SHL DUP2 MSTORE PUSH1 0x20 PUSH1 0x4 DUP3 ADD MSTORE PUSH1 0x33 PUSH1 0x24 DUP3 ADD MSTORE PUSH32 0x5F6765745765776542616C616E63653A207669727475616C57455745206C6573 PUSH1 0x44 DUP3 ADD MSTORE PUSH19 0x1CC81D1A185B881D1BDD185B081D995CDD1959 PUSH1 0x6A SHL PUSH1 0x64 DUP3 ADD MSTORE PUSH1 0x84 SWAP1 REVERT JUMPDEST SWAP1 DUP2 PUSH1 0x20 SWAP2 SUB SLT PUSH2 0x16C4 JUMPI MLOAD PUSH1 0xFF DUP2 AND DUP2 SUB PUSH2 0x16C4 JUMPI SWAP1 JUMP JUMPDEST PUSH1 0x4D DUP2 GT PUSH2 0x176F JUMPI PUSH1 0xA EXP SWAP1 JUMP JUMPDEST SWAP1 DUP2 PUSH1 0x20 SWAP2 SUB SLT PUSH2 0x16C4 JUMPI MLOAD DUP1 ISZERO ISZERO DUP2 SUB PUSH2 0x16C4 JUMPI SWAP1 JUMP JUMPDEST SWAP2 SWAP1 DUP3 ADD DUP1 SWAP3 GT PUSH2 0x176F JUMPI JUMP JUMPDEST ISZERO PUSH2 0x187F JUMPI JUMP JUMPDEST PUSH1 0x40 MLOAD PUSH3 0x461BCD PUSH1 0xE5 SHL DUP2 MSTORE PUSH1 0x20 PUSH1 0x4 DUP3 ADD MSTORE PUSH1 0x18 PUSH1 0x24 DUP3 ADD MSTORE PUSH24 0x1B595C99D94E8815DA1A5D19481B1A5CDD081A5CC81CD95D PUSH1 0x42 SHL PUSH1 0x44 DUP3 ADD MSTORE PUSH1 0x64 SWAP1 REVERT JUMPDEST PUSH1 0x1 PUSH1 0x1 PUSH1 0xA0 SHL SUB SWAP2 DUP3 AND DUP2 MSTORE SWAP2 AND PUSH1 0x20 DUP3 ADD MSTORE PUSH1 0x40 DUP2 ADD SWAP2 SWAP1 SWAP2 MSTORE PUSH1 0x60 ADD SWAP1 JUMP JUMPDEST PUSH1 0xFF PUSH1 0x1 SLOAD AND PUSH2 0x18ED JUMPI JUMP JUMPDEST PUSH1 0x40 MLOAD PUSH3 0x461BCD PUSH1 0xE5 SHL DUP2 MSTORE PUSH1 0x20 PUSH1 0x4 DUP3 ADD MSTORE PUSH1 0x10 PUSH1 0x24 DUP3 ADD MSTORE PUSH16 0x14185D5CD8589B194E881C185D5CD959 PUSH1 0x82 SHL PUSH1 0x44 DUP3 ADD MSTORE PUSH1 0x64 SWAP1 REVERT JUMPDEST PUSH1 0x7 SLOAD PUSH2 0x1934 PUSH1 0x6 SLOAD DUP4 PUSH2 0x186B JUMP JUMPDEST DUP2 LT SWAP1 DUP2 ISZERO SWAP2 PUSH2 0x1C08 JUMPI JUMPDEST POP ISZERO PUSH2 0x1BC3 JUMPI PUSH2 0x1965 PUSH2 0x1954 DUP3 PUSH1 0xB SLOAD PUSH2 0x186B JUMP JUMPDEST PUSH2 0xAB7 PUSH2 0x195F PUSH2 0x17B2 JUMP JUMPDEST DUP5 PUSH2 0x175C JUMP JUMPDEST PUSH1 0x3 SLOAD PUSH1 0x40 DUP1 MLOAD PUSH4 0x70A08231 PUSH1 0xE0 SHL DUP2 MSTORE ADDRESS PUSH1 0x4 DUP3 ADD MSTORE SWAP3 SWAP5 PUSH1 0x20 SWAP4 SWAP2 SWAP3 PUSH1 0x1 PUSH1 0x1 PUSH1 0xA0 SHL SUB SWAP3 SWAP1 DUP4 AND SWAP1 DUP6 DUP2 PUSH1 0x24 DUP2 DUP6 GAS STATICCALL SWAP1 DUP2 ISZERO PUSH2 0x1B30 JUMPI PUSH1 0x0 SWAP2 PUSH2 0x1B96 JUMPI JUMPDEST POP DUP8 GT PUSH2 0x1B3B JUMPI PUSH1 0x8 SLOAD PUSH4 0xFFFFFFFF SWAP2 SWAP1 DUP3 AND ISZERO PUSH2 0x1AA1 JUMPI POP DUP3 DUP3 AND SWAP5 DUP6 PUSH1 0x0 MSTORE PUSH1 0x9 DUP2 MSTORE DUP5 PUSH1 0x0 KECCAK256 PUSH2 0x19E1 PUSH1 0x2 DUP3 SLOAD SWAP3 ADD SLOAD SWAP2 DUP11 PUSH2 0x186B JUMP JUMPDEST SWAP3 PUSH1 0x3C DUP2 PUSH1 0x8 SLOAD AND MUL SWAP1 DUP2 AND SWAP1 DUP2 SUB PUSH2 0x176F JUMPI DUP9 PUSH2 0x1A02 PUSH2 0x1A08 SWAP3 TIMESTAMP PUSH2 0x186B JUMP JUMPDEST SWAP3 PUSH2 0x186B JUMP JUMPDEST SWAP1 DUP7 MLOAD SWAP2 PUSH1 0x60 DUP4 ADD SWAP2 DUP4 DUP4 LT PUSH8 0xFFFFFFFFFFFFFFFF DUP5 GT OR PUSH2 0x1746 JUMPI PUSH32 0xABE5455971BDCD932E7251D16CD53F88CD4410BF4DF21530E88BF13DADE6A7D4 SWAP10 DUP13 SWAP7 PUSH1 0x2 SWAP5 DUP12 MSTORE DUP6 MSTORE DUP6 DUP6 ADD SWAP2 DUP3 MSTORE DUP10 DUP6 ADD SWAP3 DUP4 MSTORE PUSH1 0x0 MSTORE PUSH1 0x9 DUP6 MSTORE DUP9 PUSH1 0x0 KECCAK256 SWAP4 MLOAD DUP5 SSTORE MLOAD PUSH1 0x1 DUP5 ADD SSTORE MLOAD SWAP2 ADD SSTORE PUSH2 0x1A80 DUP3 PUSH1 0x5 SLOAD PUSH2 0x186B JUMP JUMPDEST PUSH1 0x5 SSTORE JUMPDEST PUSH2 0x1A90 DUP8 PUSH1 0x6 SLOAD PUSH2 0x186B JUMP JUMPDEST PUSH1 0x6 SSTORE DUP5 MLOAD SWAP7 DUP8 MSTORE DUP7 ADD MSTORE AND SWAP3 LOG2 SWAP1 JUMP JUMPDEST DUP5 MLOAD PUSH4 0xA9059CBB PUSH1 0xE0 SHL DUP2 MSTORE PUSH1 0x1 PUSH1 0x1 PUSH1 0xA0 SHL SUB DUP5 AND PUSH1 0x4 DUP3 ADD MSTORE PUSH1 0x24 DUP2 ADD DUP10 SWAP1 MSTORE SWAP5 SWAP6 SWAP4 SWAP5 SWAP3 SWAP4 SWAP3 SWAP2 POP DUP3 SWAP1 DUP3 SWAP1 PUSH1 0x44 SWAP1 DUP3 SWAP1 PUSH1 0x0 SWAP1 GAS CALL DUP1 ISZERO PUSH2 0x1B30 JUMPI SWAP2 DUP8 SWAP2 PUSH32 0xABE5455971BDCD932E7251D16CD53F88CD4410BF4DF21530E88BF13DADE6A7D4 SWAP7 SWAP6 SWAP5 SWAP4 PUSH2 0x1B13 JUMPI JUMPDEST POP PUSH2 0x1A84 JUMP JUMPDEST PUSH2 0x1B29 SWAP1 DUP3 RETURNDATASIZE DUP5 GT PUSH2 0x781 JUMPI PUSH2 0x775 DUP2 DUP4 PUSH2 0x1724 JUMP JUMPDEST POP CODESIZE PUSH2 0x1B0D JUMP JUMPDEST DUP6 MLOAD RETURNDATASIZE PUSH1 0x0 DUP3 RETURNDATACOPY RETURNDATASIZE SWAP1 REVERT JUMPDEST DUP4 MLOAD PUSH3 0x461BCD PUSH1 0xE5 SHL DUP2 MSTORE PUSH1 0x4 DUP2 ADD DUP7 SWAP1 MSTORE PUSH1 0x2E PUSH1 0x24 DUP3 ADD MSTORE PUSH32 0x5F6D657267653A20496E73756666696369656E7420746F6B656E2062616C616E PUSH1 0x44 DUP3 ADD MSTORE PUSH14 0x31B2903A37903A3930B739B332B9 PUSH1 0x91 SHL PUSH1 0x64 DUP3 ADD MSTORE PUSH1 0x84 SWAP1 REVERT JUMPDEST SWAP1 DUP7 DUP3 DUP2 RETURNDATASIZE DUP4 GT PUSH2 0x1BBC JUMPI JUMPDEST PUSH2 0x1BAC DUP2 DUP4 PUSH2 0x1724 JUMP JUMPDEST DUP2 ADD SUB SLT PUSH2 0x33D JUMPI POP MLOAD CODESIZE PUSH2 0x19A7 JUMP JUMPDEST POP RETURNDATASIZE PUSH2 0x1BA2 JUMP JUMPDEST PUSH1 0x40 MLOAD PUSH3 0x461BCD PUSH1 0xE5 SHL DUP2 MSTORE PUSH1 0x20 PUSH1 0x4 DUP3 ADD MSTORE PUSH1 0x1C PUSH1 0x24 DUP3 ADD MSTORE PUSH32 0x5F6D657267653A204D6F7265207468616E206D617820737570706C7900000000 PUSH1 0x44 DUP3 ADD MSTORE PUSH1 0x64 SWAP1 REVERT JUMPDEST SWAP1 POP ISZERO CODESIZE PUSH2 0x193F JUMP JUMPDEST PUSH1 0x2 PUSH1 0x0 SLOAD EQ PUSH2 0x1C22 JUMPI PUSH1 0x2 PUSH1 0x0 SSTORE JUMP JUMPDEST PUSH1 0x40 MLOAD PUSH3 0x461BCD PUSH1 0xE5 SHL DUP2 MSTORE PUSH1 0x20 PUSH1 0x4 DUP3 ADD MSTORE PUSH1 0x1F PUSH1 0x24 DUP3 ADD MSTORE PUSH32 0x5265656E7472616E637947756172643A207265656E7472616E742063616C6C00 PUSH1 0x44 DUP3 ADD MSTORE PUSH1 0x64 SWAP1 REVERT JUMPDEST SWAP1 SWAP2 DUP2 PUSH1 0x1 DUP1 PUSH1 0xA0 SHL SUB DUP1 PUSH1 0x2 SLOAD AND SWAP3 PUSH1 0x40 MLOAD SWAP1 PUSH4 0x23B872DD PUSH1 0xE0 SHL DUP3 MSTORE DUP2 DUP1 PUSH2 0x1C99 PUSH1 0x20 SWAP7 DUP8 SWAP5 DUP12 PUSH1 0x4 DUP6 ADD PUSH2 0x18BF JUMP JUMPDEST SUB DUP2 PUSH1 0x0 DUP1 SWAP9 GAS CALL DUP1 ISZERO PUSH2 0x1D7E JUMPI SWAP2 DUP4 SWAP2 PUSH1 0x4 SWAP4 PUSH2 0x1D61 JUMPI JUMPDEST POP PUSH2 0x1CBC DUP7 PUSH2 0x1E04 JUMP JUMPDEST POP PUSH1 0x2 SLOAD AND PUSH1 0x40 MLOAD SWAP3 DUP4 DUP1 SWAP3 PUSH4 0x313CE567 PUSH1 0xE0 SHL DUP3 MSTORE GAS STATICCALL SWAP2 DUP3 ISZERO PUSH2 0x1D56 JUMPI SWAP1 PUSH1 0xFF SWAP3 SWAP2 DUP5 SWAP3 PUSH2 0x1D39 JUMPI JUMPDEST POP POP AND PUSH1 0x12 DUP2 LT PUSH2 0x1CFF JUMPI JUMPDEST POP POP SWAP1 PUSH2 0x17C8 SWAP2 PUSH2 0x1925 JUMP JUMPDEST PUSH1 0x12 SUB SWAP1 PUSH1 0x12 DUP3 GT PUSH2 0x1D25 JUMPI POP PUSH2 0x17C8 SWAP3 SWAP2 PUSH2 0xAB1 PUSH2 0x1D1D SWAP3 PUSH2 0x1845 JUMP JUMPDEST SWAP1 SWAP2 CODESIZE PUSH2 0x1CF3 JUMP JUMPDEST PUSH4 0x4E487B71 PUSH1 0xE0 SHL DUP2 MSTORE PUSH1 0x11 PUSH1 0x4 MSTORE PUSH1 0x24 SWAP1 REVERT JUMPDEST PUSH2 0x1D4F SWAP3 POP DUP1 RETURNDATASIZE LT PUSH2 0xAE2 JUMPI PUSH2 0xAD4 DUP2 DUP4 PUSH2 0x1724 JUMP JUMPDEST CODESIZE DUP1 PUSH2 0x1CE7 JUMP JUMPDEST PUSH1 0x40 MLOAD RETURNDATASIZE DUP6 DUP3 RETURNDATACOPY RETURNDATASIZE SWAP1 REVERT JUMPDEST PUSH2 0x1D77 SWAP1 DUP4 RETURNDATASIZE DUP6 GT PUSH2 0x781 JUMPI PUSH2 0x775 DUP2 DUP4 PUSH2 0x1724 JUMP JUMPDEST POP CODESIZE PUSH2 0x1CB2 JUMP JUMPDEST PUSH1 0x40 MLOAD RETURNDATASIZE DUP7 DUP3 RETURNDATACOPY RETURNDATASIZE SWAP1 REVERT JUMPDEST CALLER PUSH1 0x0 DUP2 DUP2 MSTORE PUSH1 0x9 PUSH1 0x20 SWAP1 DUP2 MSTORE PUSH1 0x40 DUP1 DUP4 KECCAK256 DUP1 SLOAD SWAP1 DUP5 SWAP1 SSTORE PUSH1 0x3 SLOAD SWAP2 MLOAD PUSH4 0xA9059CBB PUSH1 0xE0 SHL DUP2 MSTORE PUSH1 0x4 DUP2 ADD SWAP6 SWAP1 SWAP6 MSTORE PUSH1 0x24 DUP6 ADD MSTORE SWAP1 SWAP2 DUP4 SWAP2 PUSH1 0x44 SWAP2 DUP4 SWAP2 PUSH1 0x1 PUSH1 0x1 PUSH1 0xA0 SHL SUB AND GAS CALL DUP1 ISZERO PUSH2 0x1DF8 JUMPI PUSH2 0x1DDE JUMPI POP JUMP JUMPDEST PUSH2 0x1DF5 SWAP1 PUSH1 0x20 RETURNDATASIZE DUP2 GT PUSH2 0x781 JUMPI PUSH2 0x775 DUP2 DUP4 PUSH2 0x1724 JUMP JUMPDEST POP JUMP JUMPDEST PUSH1 0x40 MLOAD RETURNDATASIZE PUSH1 0x0 DUP3 RETURNDATACOPY RETURNDATASIZE SWAP1 REVERT JUMPDEST PUSH1 0xD SLOAD PUSH1 0x1 PUSH1 0x1 PUSH1 0xA0 SHL SUB SWAP1 DUP2 AND SWAP2 SWAP1 DUP3 ISZERO PUSH2 0x1EB7 JUMPI DUP1 PUSH1 0x4 SLOAD AND SWAP1 DUP2 ISZERO PUSH2 0x1EAE JUMPI PUSH1 0x2 SLOAD AND PUSH1 0x40 MLOAD SWAP3 PUSH4 0x2454B71 PUSH1 0xE4 SHL DUP5 MSTORE PUSH1 0x4 DUP5 ADD MSTORE PUSH1 0x24 DUP4 ADD MSTORE PUSH1 0x44 DUP3 ADD MSTORE PUSH1 0x80 PUSH1 0x64 DUP3 ADD MSTORE PUSH1 0x20 DUP2 PUSH1 0xA4 DUP2 PUSH1 0x0 DUP1 SWAP7 DUP2 PUSH1 0x84 DUP5 ADD MSTORE GAS CALL SWAP2 DUP3 ISZERO PUSH2 0x1EA2 JUMPI DUP1 SWAP3 PUSH2 0x1E72 JUMPI POP POP SWAP1 JUMP JUMPDEST SWAP1 SWAP2 POP PUSH1 0x20 DUP3 RETURNDATASIZE DUP3 GT PUSH2 0x1E9A JUMPI JUMPDEST DUP2 PUSH2 0x1E8D PUSH1 0x20 SWAP4 DUP4 PUSH2 0x1724 JUMP JUMPDEST DUP2 ADD SUB SLT PUSH2 0x33D JUMPI POP MLOAD SWAP1 JUMP JUMPDEST RETURNDATASIZE SWAP2 POP PUSH2 0x1E80 JUMP JUMPDEST PUSH1 0x40 MLOAD SWAP1 RETURNDATASIZE SWAP1 DUP3 RETURNDATACOPY RETURNDATASIZE SWAP1 REVERT JUMPDEST POP POP POP POP PUSH1 0x0 SWAP1 JUMP JUMPDEST POP POP POP PUSH1 0x0 SWAP1 JUMP INVALID LOG2 PUSH5 0x6970667358 0x22 SLT KECCAK256 ISZERO 0xBF PUSH26 0x5202224B8190FDBB677C73D8531CC13D39724FD11A153C35A13F MULMOD LOG2 BLOCKHASH PUSH5 0x736F6C6343 STOP ADDMOD SGT STOP CALLER "
        },
        "methodIdentifiers": {
          "adaptor()": "c2cd9b2b",
          "balanceOf(address)": "70a08231",
          "calculateTokensOut(uint256)": "4fa1f104",
          "canClaim(address)": "bf3506c1",
          "claim()": "4e71d92d",
          "deposit(uint256)": "b6b55f25",
          "dump()": "e4330545",
          "getCurrentPrice()": "eb91d37e",
          "getRate()": "679aefce",
          "getToken()": "21df0da7",
          "maxSupply()": "d5abeb01",
          "merge(uint256)": "24a47aeb",
          "mergeAll()": "ea9f2417",
          "mergeWithProof(uint256,uint256,bytes32[])": "001688b1",
          "merkleRoot()": "2eb4a7ab",
          "name()": "06fdde03",
          "owner()": "8da5cb5b",
          "paused()": "5c975abb",
          "receiveApproval(address,uint256,address,bytes)": "8f4ffcb1",
          "renounceOwnership()": "715018a6",
          "setAdaptor(address)": "3586d514",
          "setMaxSupply(uint256)": "6f8b44b0",
          "setMerkleRoot(bytes32)": "7cb64759",
          "setTreasury(address)": "f0f44260",
          "setVestingDuration(uint32)": "9636d881",
          "setVirtualTokenBalance(uint256)": "655a9ac2",
          "setVirtualWeWEBalance(uint256)": "dece1baa",
          "sweep()": "35faa416",
          "togglePause()": "c4ae3168",
          "totalMerged()": "301fc2ff",
          "totalVested()": "199cbc54",
          "transferOwnership(address)": "f2fde38b",
          "treasury()": "61d027b3",
          "vestingDuration()": "1514617e",
          "vestings(address)": "daf49863",
          "virtualToken()": "1f514c52",
          "virtualWEWE()": "9ed4527e",
          "wewe()": "e1f26f22"
        }
      }
    }
  }
}