{
  "contracts/core/adaptors/Fomo.sol": {
    "Fomo": {
      "abi": [
        {
          "inputs": [],
          "stateMutability": "nonpayable",
          "type": "constructor"
        },
        {
          "anonymous": false,
          "inputs": [
            {
              "indexed": false,
              "internalType": "uint256",
              "name": "amount",
              "type": "uint256"
            },
            {
              "indexed": false,
              "internalType": "uint256",
              "name": "amountOut",
              "type": "uint256"
            },
            {
              "indexed": false,
              "internalType": "address",
              "name": "token",
              "type": "address"
            },
            {
              "indexed": true,
              "internalType": "address",
              "name": "recipient",
              "type": "address"
            }
          ],
          "name": "Bought",
          "type": "event"
        },
        {
          "anonymous": false,
          "inputs": [
            {
              "indexed": true,
              "internalType": "address",
              "name": "previousOwner",
              "type": "address"
            },
            {
              "indexed": true,
              "internalType": "address",
              "name": "newOwner",
              "type": "address"
            }
          ],
          "name": "OwnershipTransferred",
          "type": "event"
        },
        {
          "anonymous": false,
          "inputs": [
            {
              "indexed": false,
              "internalType": "uint256",
              "name": "amount",
              "type": "uint256"
            },
            {
              "indexed": false,
              "internalType": "uint256",
              "name": "amountOut",
              "type": "uint256"
            },
            {
              "indexed": false,
              "internalType": "address",
              "name": "token",
              "type": "address"
            },
            {
              "indexed": true,
              "internalType": "address",
              "name": "recipient",
              "type": "address"
            }
          ],
          "name": "Sold",
          "type": "event"
        },
        {
          "inputs": [
            {
              "internalType": "uint256",
              "name": "amount",
              "type": "uint256"
            },
            {
              "internalType": "address",
              "name": "token",
              "type": "address"
            },
            {
              "internalType": "address",
              "name": "recipient",
              "type": "address"
            },
            {
              "internalType": "bytes",
              "name": "extraData",
              "type": "bytes"
            }
          ],
          "name": "buy",
          "outputs": [
            {
              "internalType": "uint256",
              "name": "",
              "type": "uint256"
            }
          ],
          "stateMutability": "nonpayable",
          "type": "function"
        },
        {
          "inputs": [],
          "name": "factory",
          "outputs": [
            {
              "internalType": "address",
              "name": "",
              "type": "address"
            }
          ],
          "stateMutability": "view",
          "type": "function"
        },
        {
          "inputs": [],
          "name": "fee",
          "outputs": [
            {
              "internalType": "uint24",
              "name": "",
              "type": "uint24"
            }
          ],
          "stateMutability": "view",
          "type": "function"
        },
        {
          "inputs": [],
          "name": "fomo",
          "outputs": [
            {
              "internalType": "address",
              "name": "",
              "type": "address"
            }
          ],
          "stateMutability": "view",
          "type": "function"
        },
        {
          "inputs": [],
          "name": "owner",
          "outputs": [
            {
              "internalType": "address",
              "name": "",
              "type": "address"
            }
          ],
          "stateMutability": "view",
          "type": "function"
        },
        {
          "inputs": [],
          "name": "renounceOwnership",
          "outputs": [],
          "stateMutability": "nonpayable",
          "type": "function"
        },
        {
          "inputs": [
            {
              "internalType": "uint256",
              "name": "amount",
              "type": "uint256"
            },
            {
              "internalType": "address",
              "name": "token",
              "type": "address"
            },
            {
              "internalType": "address",
              "name": "recipient",
              "type": "address"
            },
            {
              "internalType": "bytes",
              "name": "extraData",
              "type": "bytes"
            }
          ],
          "name": "sell",
          "outputs": [
            {
              "internalType": "uint256",
              "name": "",
              "type": "uint256"
            }
          ],
          "stateMutability": "nonpayable",
          "type": "function"
        },
        {
          "inputs": [
            {
              "internalType": "uint256",
              "name": "amount",
              "type": "uint256"
            },
            {
              "internalType": "address",
              "name": "token",
              "type": "address"
            },
            {
              "internalType": "address",
              "name": "recipient",
              "type": "address"
            },
            {
              "internalType": "bytes",
              "name": "extraData",
              "type": "bytes"
            }
          ],
          "name": "sellAndBuy",
          "outputs": [
            {
              "internalType": "uint256",
              "name": "",
              "type": "uint256"
            }
          ],
          "stateMutability": "nonpayable",
          "type": "function"
        },
        {
          "inputs": [
            {
              "internalType": "address",
              "name": "newOwner",
              "type": "address"
            }
          ],
          "name": "transferOwnership",
          "outputs": [],
          "stateMutability": "nonpayable",
          "type": "function"
        },
        {
          "inputs": [],
          "name": "treasury",
          "outputs": [
            {
              "internalType": "address",
              "name": "",
              "type": "address"
            }
          ],
          "stateMutability": "view",
          "type": "function"
        },
        {
          "inputs": [],
          "name": "v2router",
          "outputs": [
            {
              "internalType": "address",
              "name": "",
              "type": "address"
            }
          ],
          "stateMutability": "view",
          "type": "function"
        }
      ],
      "evm": {
        "bytecode": {
          "linkReferences": {},
          "object": "608080604052346101695760008054336001600160a01b0382167f8be0079c531659141344cd1fd0a4f28419497f9722a3daafe3b4186f6b6457e08480a36001600160b81b0319163362ffffff60a01b19161761027160a41b17815563095ea7b360e01b808352734752ba5dbc23f44d87826276bf6fd6b1c372ad2460048401819052600019602485018190526020949293929091908581604481877342000000000000000000000000000000000000065af1801561015e57610141575b506040519384526004840152602483015282826044818473833589fcd6edb6e08f4c7c32d4f71b54bda029135af19081156101355750610107575b604051610b1f90816101c08239f35b8161012692903d1061012e575b61011e818361016e565b8101906101a7565b5038806100f8565b503d610114565b604051903d90823e3d90fd5b61015790863d881161012e5761011e818361016e565b50386100bd565b6040513d86823e3d90fd5b600080fd5b601f909101601f19168101906001600160401b0382119082101761019157604052565b634e487b7160e01b600052604160045260246000fd5b9081602091031261016957518015158103610169579056fe6080604052600436101561001257600080fd5b60003560e01c806303679454146101e15780632454b710146102c657806361d027b314610297578063715018a61461023e5780638da5cb5b146102155780638f8dc10a146101e6578063987bb07b146101e1578063c45a0155146101b2578063d9fca70e14610183578063ddca3f431461015d5763f2fde38b1461009557600080fd5b34610158576020366003190112610158576004356001600160a01b0381811691829003610158576100c4610931565b8115610104576000548260018060a01b0319821617600055167f8be0079c531659141344cd1fd0a4f28419497f9722a3daafe3b4186f6b6457e0600080a3005b60405162461bcd60e51b815260206004820152602660248201527f4f776e61626c653a206e6577206f776e657220697320746865207a65726f206160448201526564647265737360d01b6064820152608490fd5b600080fd5b3461015857600036600319011261015857602062ffffff60005460a01c16604051908152f35b3461015857600036600319011261015857602060405173d327d36eb6e1f250d191cd62497d08b4aaa843ce8152f35b34610158576000366003190112610158576020604051738909dc15e40173ff4699343b6eb8132c65e18ec68152f35b6108e8565b34610158576000366003190112610158576020604051734752ba5dbc23f44d87826276bf6fd6b1c372ad248152f35b34610158576000366003190112610158576000546040516001600160a01b039091168152602090f35b3461015857600036600319011261015857610257610931565b600080546001600160a01b0319811682556001600160a01b03167f8be0079c531659141344cd1fd0a4f28419497f9722a3daafe3b4186f6b6457e08280a3005b3461015857600036600319011261015857602060405173e92e74661f0582d52fc0051aedd6fdf4d26a1f868152f35b34610158576102d436610878565b50506040516323b872dd60e01b8152336004820152306024820152604481018490526001600160a01b039092169290916020816064816000885af1801561070057610859575b5060405163095ea7b360e01b8152734752ba5dbc23f44d87826276bf6fd6b1c372ad24600482015260001960248201526020816044816000885af180156107005761083a575b50604051926060840184811067ffffffffffffffff82111761074657604052600284526040366020860137610394846109c3565b526006602160991b016103a6846109e6565b526040519063d06ca61f60e01b825280600483015260406024830152600082806103d36044820188610a72565b0381734752ba5dbc23f44d87826276bf6fd6b1c372ad245afa9081156107005761041f92600092610820575b50604051809381926338ed173960e01b8352429088309160048601610aaf565b038183734752ba5dbc23f44d87826276bf6fd6b1c372ad245af1801561070057610805575b506040516370a0823160e01b8152306004820152916020836024816006602160991b015afa928315610700576000936107d0575b506104d2906000906006602160991b01610491826109c3565b5273833589fcd6edb6e08f4c7c32d4f71b54bda0291394856104b2836109e6565b526040516338ed173960e01b815293849283924291309160048601610aaf565b038183734752ba5dbc23f44d87826276bf6fd6b1c372ad245af18015610700576107ad575b506040516370a0823160e01b8152306004820152602081602481865afa9081156107005760009161077b575b5060405163095ea7b360e01b8152732626664c2603336e57b271c5c0b26f421741e481600482015260001960248201526020816044816000885af180156107005761075c575b506040519260e0840184811067ffffffffffffffff821117610746576040908152908452736b9bb36519538e0c073894e964e90172e1c0b41f6020808601918252612710868401908152306060880190815260808801958652600060a0890181815260c08a0182815296516304e45aaf60e01b815299516001600160a01b0390811660048c01529551861660248b0152925162ffffff1660448a0152905184166064890152945160848801525160a487015291511660c485015290839060e4908290732626664c2603336e57b271c5c0b26f421741e4815af191821561070057600092610712575b506001600160a01b03811661070c575073e92e74661f0582d52fc0051aedd6fdf4d26a1f86905b60405163a9059cbb60e01b81526001600160a01b039092166004830152602482018190526020826044816000736b9bb36519538e0c073894e964e90172e1c0b41f5af1918215610700576020926106d3575b50604051908152f35b6106f290833d85116106f9575b6106ea8183610989565b8101906109ab565b50826106ca565b503d6106e0565b6040513d6000823e3d90fd5b90610678565b9091506020813d60201161073e575b8161072e60209383610989565b8101031261015857519082610651565b3d9150610721565b634e487b7160e01b600052604160045260246000fd5b6107749060203d6020116106f9576106ea8183610989565b5083610569565b90506020813d6020116107a5575b8161079660209383610989565b81010312610158575183610523565b3d9150610789565b6107c9903d806000833e6107c18183610989565b8101906109f6565b50826104f7565b9092506020813d6020116107fd575b816107ec60209383610989565b810103126101585751916000610478565b3d91506107df565b610819903d806000833e6107c18183610989565b5082610444565b610833903d8085833e6107c18183610989565b50856103ff565b6108529060203d6020116106f9576106ea8183610989565b5083610360565b6108719060203d6020116106f9576106ea8183610989565b508361031a565b608060031982011261015857600435916001600160a01b0391602435838116810361015857926044359081168103610158579160643567ffffffffffffffff9283821161015857806023830112156101585781600401359384116101585760248483010111610158576024019190565b34610158576108f636610878565b5050505050606460405162461bcd60e51b815260206004820152600f60248201526e139bdd081a5b5c1b195b595b9d1959608a1b6044820152fd5b6000546001600160a01b0316330361094557565b606460405162461bcd60e51b815260206004820152602060248201527f4f776e61626c653a2063616c6c6572206973206e6f7420746865206f776e65726044820152fd5b90601f8019910116810190811067ffffffffffffffff82111761074657604052565b90816020910312610158575180151581036101585790565b8051156109d05760200190565b634e487b7160e01b600052603260045260246000fd5b8051600110156109d05760400190565b90602090818382031261015857825167ffffffffffffffff93848211610158570181601f82011215610158578051938411610746578360051b9060405194610a4085840187610989565b85528380860192820101928311610158578301905b828210610a63575050505090565b81518152908301908301610a55565b90815180825260208080930193019160005b828110610a92575050505090565b83516001600160a01b031685529381019392810192600101610a84565b90608092610ad5919695949683526000602084015260a0604084015260a0830190610a72565b6001600160a01b039095166060820152015256fea26469706673582212206c6fbbc9778bb55455af2bc6225c1e986c388a26d7f68bd18c3c7b3cbd0b2ec464736f6c63430008130033",
          "opcodes": "PUSH1 0x80 DUP1 PUSH1 0x40 MSTORE CALLVALUE PUSH2 0x169 JUMPI PUSH1 0x0 DUP1 SLOAD CALLER PUSH1 0x1 PUSH1 0x1 PUSH1 0xA0 SHL SUB DUP3 AND PUSH32 0x8BE0079C531659141344CD1FD0A4F28419497F9722A3DAAFE3B4186F6B6457E0 DUP5 DUP1 LOG3 PUSH1 0x1 PUSH1 0x1 PUSH1 0xB8 SHL SUB NOT AND CALLER PUSH3 0xFFFFFF PUSH1 0xA0 SHL NOT AND OR PUSH2 0x271 PUSH1 0xA4 SHL OR DUP2 SSTORE PUSH4 0x95EA7B3 PUSH1 0xE0 SHL DUP1 DUP4 MSTORE PUSH20 0x4752BA5DBC23F44D87826276BF6FD6B1C372AD24 PUSH1 0x4 DUP5 ADD DUP2 SWAP1 MSTORE PUSH1 0x0 NOT PUSH1 0x24 DUP6 ADD DUP2 SWAP1 MSTORE PUSH1 0x20 SWAP5 SWAP3 SWAP4 SWAP3 SWAP1 SWAP2 SWAP1 DUP6 DUP2 PUSH1 0x44 DUP2 DUP8 PUSH20 0x4200000000000000000000000000000000000006 GAS CALL DUP1 ISZERO PUSH2 0x15E JUMPI PUSH2 0x141 JUMPI JUMPDEST POP PUSH1 0x40 MLOAD SWAP4 DUP5 MSTORE PUSH1 0x4 DUP5 ADD MSTORE PUSH1 0x24 DUP4 ADD MSTORE DUP3 DUP3 PUSH1 0x44 DUP2 DUP5 PUSH20 0x833589FCD6EDB6E08F4C7C32D4F71B54BDA02913 GAS CALL SWAP1 DUP2 ISZERO PUSH2 0x135 JUMPI POP PUSH2 0x107 JUMPI JUMPDEST PUSH1 0x40 MLOAD PUSH2 0xB1F SWAP1 DUP2 PUSH2 0x1C0 DUP3 CODECOPY RETURN JUMPDEST DUP2 PUSH2 0x126 SWAP3 SWAP1 RETURNDATASIZE LT PUSH2 0x12E JUMPI JUMPDEST PUSH2 0x11E DUP2 DUP4 PUSH2 0x16E JUMP JUMPDEST DUP2 ADD SWAP1 PUSH2 0x1A7 JUMP JUMPDEST POP CODESIZE DUP1 PUSH2 0xF8 JUMP JUMPDEST POP RETURNDATASIZE PUSH2 0x114 JUMP JUMPDEST PUSH1 0x40 MLOAD SWAP1 RETURNDATASIZE SWAP1 DUP3 RETURNDATACOPY RETURNDATASIZE SWAP1 REVERT JUMPDEST PUSH2 0x157 SWAP1 DUP7 RETURNDATASIZE DUP9 GT PUSH2 0x12E JUMPI PUSH2 0x11E DUP2 DUP4 PUSH2 0x16E JUMP JUMPDEST POP CODESIZE PUSH2 0xBD JUMP JUMPDEST PUSH1 0x40 MLOAD RETURNDATASIZE DUP7 DUP3 RETURNDATACOPY RETURNDATASIZE SWAP1 REVERT JUMPDEST PUSH1 0x0 DUP1 REVERT JUMPDEST PUSH1 0x1F SWAP1 SWAP2 ADD PUSH1 0x1F NOT AND DUP2 ADD SWAP1 PUSH1 0x1 PUSH1 0x1 PUSH1 0x40 SHL SUB DUP3 GT SWAP1 DUP3 LT OR PUSH2 0x191 JUMPI PUSH1 0x40 MSTORE JUMP JUMPDEST PUSH4 0x4E487B71 PUSH1 0xE0 SHL PUSH1 0x0 MSTORE PUSH1 0x41 PUSH1 0x4 MSTORE PUSH1 0x24 PUSH1 0x0 REVERT JUMPDEST SWAP1 DUP2 PUSH1 0x20 SWAP2 SUB SLT PUSH2 0x169 JUMPI MLOAD DUP1 ISZERO ISZERO DUP2 SUB PUSH2 0x169 JUMPI SWAP1 JUMP INVALID PUSH1 0x80 PUSH1 0x40 MSTORE PUSH1 0x4 CALLDATASIZE LT ISZERO PUSH2 0x12 JUMPI PUSH1 0x0 DUP1 REVERT JUMPDEST PUSH1 0x0 CALLDATALOAD PUSH1 0xE0 SHR DUP1 PUSH4 0x3679454 EQ PUSH2 0x1E1 JUMPI DUP1 PUSH4 0x2454B710 EQ PUSH2 0x2C6 JUMPI DUP1 PUSH4 0x61D027B3 EQ PUSH2 0x297 JUMPI DUP1 PUSH4 0x715018A6 EQ PUSH2 0x23E JUMPI DUP1 PUSH4 0x8DA5CB5B EQ PUSH2 0x215 JUMPI DUP1 PUSH4 0x8F8DC10A EQ PUSH2 0x1E6 JUMPI DUP1 PUSH4 0x987BB07B EQ PUSH2 0x1E1 JUMPI DUP1 PUSH4 0xC45A0155 EQ PUSH2 0x1B2 JUMPI DUP1 PUSH4 0xD9FCA70E EQ PUSH2 0x183 JUMPI DUP1 PUSH4 0xDDCA3F43 EQ PUSH2 0x15D JUMPI PUSH4 0xF2FDE38B EQ PUSH2 0x95 JUMPI PUSH1 0x0 DUP1 REVERT JUMPDEST CALLVALUE PUSH2 0x158 JUMPI PUSH1 0x20 CALLDATASIZE PUSH1 0x3 NOT ADD SLT PUSH2 0x158 JUMPI PUSH1 0x4 CALLDATALOAD PUSH1 0x1 PUSH1 0x1 PUSH1 0xA0 SHL SUB DUP2 DUP2 AND SWAP2 DUP3 SWAP1 SUB PUSH2 0x158 JUMPI PUSH2 0xC4 PUSH2 0x931 JUMP JUMPDEST DUP2 ISZERO PUSH2 0x104 JUMPI PUSH1 0x0 SLOAD DUP3 PUSH1 0x1 DUP1 PUSH1 0xA0 SHL SUB NOT DUP3 AND OR PUSH1 0x0 SSTORE AND PUSH32 0x8BE0079C531659141344CD1FD0A4F28419497F9722A3DAAFE3B4186F6B6457E0 PUSH1 0x0 DUP1 LOG3 STOP JUMPDEST PUSH1 0x40 MLOAD PUSH3 0x461BCD PUSH1 0xE5 SHL DUP2 MSTORE PUSH1 0x20 PUSH1 0x4 DUP3 ADD MSTORE PUSH1 0x26 PUSH1 0x24 DUP3 ADD MSTORE PUSH32 0x4F776E61626C653A206E6577206F776E657220697320746865207A65726F2061 PUSH1 0x44 DUP3 ADD MSTORE PUSH6 0x646472657373 PUSH1 0xD0 SHL PUSH1 0x64 DUP3 ADD MSTORE PUSH1 0x84 SWAP1 REVERT JUMPDEST PUSH1 0x0 DUP1 REVERT JUMPDEST CALLVALUE PUSH2 0x158 JUMPI PUSH1 0x0 CALLDATASIZE PUSH1 0x3 NOT ADD SLT PUSH2 0x158 JUMPI PUSH1 0x20 PUSH3 0xFFFFFF PUSH1 0x0 SLOAD PUSH1 0xA0 SHR AND PUSH1 0x40 MLOAD SWAP1 DUP2 MSTORE RETURN JUMPDEST CALLVALUE PUSH2 0x158 JUMPI PUSH1 0x0 CALLDATASIZE PUSH1 0x3 NOT ADD SLT PUSH2 0x158 JUMPI PUSH1 0x20 PUSH1 0x40 MLOAD PUSH20 0xD327D36EB6E1F250D191CD62497D08B4AAA843CE DUP2 MSTORE RETURN JUMPDEST CALLVALUE PUSH2 0x158 JUMPI PUSH1 0x0 CALLDATASIZE PUSH1 0x3 NOT ADD SLT PUSH2 0x158 JUMPI PUSH1 0x20 PUSH1 0x40 MLOAD PUSH20 0x8909DC15E40173FF4699343B6EB8132C65E18EC6 DUP2 MSTORE RETURN JUMPDEST PUSH2 0x8E8 JUMP JUMPDEST CALLVALUE PUSH2 0x158 JUMPI PUSH1 0x0 CALLDATASIZE PUSH1 0x3 NOT ADD SLT PUSH2 0x158 JUMPI PUSH1 0x20 PUSH1 0x40 MLOAD PUSH20 0x4752BA5DBC23F44D87826276BF6FD6B1C372AD24 DUP2 MSTORE RETURN JUMPDEST CALLVALUE PUSH2 0x158 JUMPI PUSH1 0x0 CALLDATASIZE PUSH1 0x3 NOT ADD SLT PUSH2 0x158 JUMPI PUSH1 0x0 SLOAD PUSH1 0x40 MLOAD PUSH1 0x1 PUSH1 0x1 PUSH1 0xA0 SHL SUB SWAP1 SWAP2 AND DUP2 MSTORE PUSH1 0x20 SWAP1 RETURN JUMPDEST CALLVALUE PUSH2 0x158 JUMPI PUSH1 0x0 CALLDATASIZE PUSH1 0x3 NOT ADD SLT PUSH2 0x158 JUMPI PUSH2 0x257 PUSH2 0x931 JUMP JUMPDEST PUSH1 0x0 DUP1 SLOAD PUSH1 0x1 PUSH1 0x1 PUSH1 0xA0 SHL SUB NOT DUP2 AND DUP3 SSTORE PUSH1 0x1 PUSH1 0x1 PUSH1 0xA0 SHL SUB AND PUSH32 0x8BE0079C531659141344CD1FD0A4F28419497F9722A3DAAFE3B4186F6B6457E0 DUP3 DUP1 LOG3 STOP JUMPDEST CALLVALUE PUSH2 0x158 JUMPI PUSH1 0x0 CALLDATASIZE PUSH1 0x3 NOT ADD SLT PUSH2 0x158 JUMPI PUSH1 0x20 PUSH1 0x40 MLOAD PUSH20 0xE92E74661F0582D52FC0051AEDD6FDF4D26A1F86 DUP2 MSTORE RETURN JUMPDEST CALLVALUE PUSH2 0x158 JUMPI PUSH2 0x2D4 CALLDATASIZE PUSH2 0x878 JUMP JUMPDEST POP POP PUSH1 0x40 MLOAD PUSH4 0x23B872DD PUSH1 0xE0 SHL DUP2 MSTORE CALLER PUSH1 0x4 DUP3 ADD MSTORE ADDRESS PUSH1 0x24 DUP3 ADD MSTORE PUSH1 0x44 DUP2 ADD DUP5 SWAP1 MSTORE PUSH1 0x1 PUSH1 0x1 PUSH1 0xA0 SHL SUB SWAP1 SWAP3 AND SWAP3 SWAP1 SWAP2 PUSH1 0x20 DUP2 PUSH1 0x64 DUP2 PUSH1 0x0 DUP9 GAS CALL DUP1 ISZERO PUSH2 0x700 JUMPI PUSH2 0x859 JUMPI JUMPDEST POP PUSH1 0x40 MLOAD PUSH4 0x95EA7B3 PUSH1 0xE0 SHL DUP2 MSTORE PUSH20 0x4752BA5DBC23F44D87826276BF6FD6B1C372AD24 PUSH1 0x4 DUP3 ADD MSTORE PUSH1 0x0 NOT PUSH1 0x24 DUP3 ADD MSTORE PUSH1 0x20 DUP2 PUSH1 0x44 DUP2 PUSH1 0x0 DUP9 GAS CALL DUP1 ISZERO PUSH2 0x700 JUMPI PUSH2 0x83A JUMPI JUMPDEST POP PUSH1 0x40 MLOAD SWAP3 PUSH1 0x60 DUP5 ADD DUP5 DUP2 LT PUSH8 0xFFFFFFFFFFFFFFFF DUP3 GT OR PUSH2 0x746 JUMPI PUSH1 0x40 MSTORE PUSH1 0x2 DUP5 MSTORE PUSH1 0x40 CALLDATASIZE PUSH1 0x20 DUP7 ADD CALLDATACOPY PUSH2 0x394 DUP5 PUSH2 0x9C3 JUMP JUMPDEST MSTORE PUSH1 0x6 PUSH1 0x21 PUSH1 0x99 SHL ADD PUSH2 0x3A6 DUP5 PUSH2 0x9E6 JUMP JUMPDEST MSTORE PUSH1 0x40 MLOAD SWAP1 PUSH4 0xD06CA61F PUSH1 0xE0 SHL DUP3 MSTORE DUP1 PUSH1 0x4 DUP4 ADD MSTORE PUSH1 0x40 PUSH1 0x24 DUP4 ADD MSTORE PUSH1 0x0 DUP3 DUP1 PUSH2 0x3D3 PUSH1 0x44 DUP3 ADD DUP9 PUSH2 0xA72 JUMP JUMPDEST SUB DUP2 PUSH20 0x4752BA5DBC23F44D87826276BF6FD6B1C372AD24 GAS STATICCALL SWAP1 DUP2 ISZERO PUSH2 0x700 JUMPI PUSH2 0x41F SWAP3 PUSH1 0x0 SWAP3 PUSH2 0x820 JUMPI JUMPDEST POP PUSH1 0x40 MLOAD DUP1 SWAP4 DUP2 SWAP3 PUSH4 0x38ED1739 PUSH1 0xE0 SHL DUP4 MSTORE TIMESTAMP SWAP1 DUP9 ADDRESS SWAP2 PUSH1 0x4 DUP7 ADD PUSH2 0xAAF JUMP JUMPDEST SUB DUP2 DUP4 PUSH20 0x4752BA5DBC23F44D87826276BF6FD6B1C372AD24 GAS CALL DUP1 ISZERO PUSH2 0x700 JUMPI PUSH2 0x805 JUMPI JUMPDEST POP PUSH1 0x40 MLOAD PUSH4 0x70A08231 PUSH1 0xE0 SHL DUP2 MSTORE ADDRESS PUSH1 0x4 DUP3 ADD MSTORE SWAP2 PUSH1 0x20 DUP4 PUSH1 0x24 DUP2 PUSH1 0x6 PUSH1 0x21 PUSH1 0x99 SHL ADD GAS STATICCALL SWAP3 DUP4 ISZERO PUSH2 0x700 JUMPI PUSH1 0x0 SWAP4 PUSH2 0x7D0 JUMPI JUMPDEST POP PUSH2 0x4D2 SWAP1 PUSH1 0x0 SWAP1 PUSH1 0x6 PUSH1 0x21 PUSH1 0x99 SHL ADD PUSH2 0x491 DUP3 PUSH2 0x9C3 JUMP JUMPDEST MSTORE PUSH20 0x833589FCD6EDB6E08F4C7C32D4F71B54BDA02913 SWAP5 DUP6 PUSH2 0x4B2 DUP4 PUSH2 0x9E6 JUMP JUMPDEST MSTORE PUSH1 0x40 MLOAD PUSH4 0x38ED1739 PUSH1 0xE0 SHL DUP2 MSTORE SWAP4 DUP5 SWAP3 DUP4 SWAP3 TIMESTAMP SWAP2 ADDRESS SWAP2 PUSH1 0x4 DUP7 ADD PUSH2 0xAAF JUMP JUMPDEST SUB DUP2 DUP4 PUSH20 0x4752BA5DBC23F44D87826276BF6FD6B1C372AD24 GAS CALL DUP1 ISZERO PUSH2 0x700 JUMPI PUSH2 0x7AD JUMPI JUMPDEST POP PUSH1 0x40 MLOAD PUSH4 0x70A08231 PUSH1 0xE0 SHL DUP2 MSTORE ADDRESS PUSH1 0x4 DUP3 ADD MSTORE PUSH1 0x20 DUP2 PUSH1 0x24 DUP2 DUP7 GAS STATICCALL SWAP1 DUP2 ISZERO PUSH2 0x700 JUMPI PUSH1 0x0 SWAP2 PUSH2 0x77B JUMPI JUMPDEST POP PUSH1 0x40 MLOAD PUSH4 0x95EA7B3 PUSH1 0xE0 SHL DUP2 MSTORE PUSH20 0x2626664C2603336E57B271C5C0B26F421741E481 PUSH1 0x4 DUP3 ADD MSTORE PUSH1 0x0 NOT PUSH1 0x24 DUP3 ADD MSTORE PUSH1 0x20 DUP2 PUSH1 0x44 DUP2 PUSH1 0x0 DUP9 GAS CALL DUP1 ISZERO PUSH2 0x700 JUMPI PUSH2 0x75C JUMPI JUMPDEST POP PUSH1 0x40 MLOAD SWAP3 PUSH1 0xE0 DUP5 ADD DUP5 DUP2 LT PUSH8 0xFFFFFFFFFFFFFFFF DUP3 GT OR PUSH2 0x746 JUMPI PUSH1 0x40 SWAP1 DUP2 MSTORE SWAP1 DUP5 MSTORE PUSH20 0x6B9BB36519538E0C073894E964E90172E1C0B41F PUSH1 0x20 DUP1 DUP7 ADD SWAP2 DUP3 MSTORE PUSH2 0x2710 DUP7 DUP5 ADD SWAP1 DUP2 MSTORE ADDRESS PUSH1 0x60 DUP9 ADD SWAP1 DUP2 MSTORE PUSH1 0x80 DUP9 ADD SWAP6 DUP7 MSTORE PUSH1 0x0 PUSH1 0xA0 DUP10 ADD DUP2 DUP2 MSTORE PUSH1 0xC0 DUP11 ADD DUP3 DUP2 MSTORE SWAP7 MLOAD PUSH4 0x4E45AAF PUSH1 0xE0 SHL DUP2 MSTORE SWAP10 MLOAD PUSH1 0x1 PUSH1 0x1 PUSH1 0xA0 SHL SUB SWAP1 DUP2 AND PUSH1 0x4 DUP13 ADD MSTORE SWAP6 MLOAD DUP7 AND PUSH1 0x24 DUP12 ADD MSTORE SWAP3 MLOAD PUSH3 0xFFFFFF AND PUSH1 0x44 DUP11 ADD MSTORE SWAP1 MLOAD DUP5 AND PUSH1 0x64 DUP10 ADD MSTORE SWAP5 MLOAD PUSH1 0x84 DUP9 ADD MSTORE MLOAD PUSH1 0xA4 DUP8 ADD MSTORE SWAP2 MLOAD AND PUSH1 0xC4 DUP6 ADD MSTORE SWAP1 DUP4 SWAP1 PUSH1 0xE4 SWAP1 DUP3 SWAP1 PUSH20 0x2626664C2603336E57B271C5C0B26F421741E481 GAS CALL SWAP2 DUP3 ISZERO PUSH2 0x700 JUMPI PUSH1 0x0 SWAP3 PUSH2 0x712 JUMPI JUMPDEST POP PUSH1 0x1 PUSH1 0x1 PUSH1 0xA0 SHL SUB DUP2 AND PUSH2 0x70C JUMPI POP PUSH20 0xE92E74661F0582D52FC0051AEDD6FDF4D26A1F86 SWAP1 JUMPDEST PUSH1 0x40 MLOAD PUSH4 0xA9059CBB PUSH1 0xE0 SHL DUP2 MSTORE PUSH1 0x1 PUSH1 0x1 PUSH1 0xA0 SHL SUB SWAP1 SWAP3 AND PUSH1 0x4 DUP4 ADD MSTORE PUSH1 0x24 DUP3 ADD DUP2 SWAP1 MSTORE PUSH1 0x20 DUP3 PUSH1 0x44 DUP2 PUSH1 0x0 PUSH20 0x6B9BB36519538E0C073894E964E90172E1C0B41F GAS CALL SWAP2 DUP3 ISZERO PUSH2 0x700 JUMPI PUSH1 0x20 SWAP3 PUSH2 0x6D3 JUMPI JUMPDEST POP PUSH1 0x40 MLOAD SWAP1 DUP2 MSTORE RETURN JUMPDEST PUSH2 0x6F2 SWAP1 DUP4 RETURNDATASIZE DUP6 GT PUSH2 0x6F9 JUMPI JUMPDEST PUSH2 0x6EA DUP2 DUP4 PUSH2 0x989 JUMP JUMPDEST DUP2 ADD SWAP1 PUSH2 0x9AB JUMP JUMPDEST POP DUP3 PUSH2 0x6CA JUMP JUMPDEST POP RETURNDATASIZE PUSH2 0x6E0 JUMP JUMPDEST PUSH1 0x40 MLOAD RETURNDATASIZE PUSH1 0x0 DUP3 RETURNDATACOPY RETURNDATASIZE SWAP1 REVERT JUMPDEST SWAP1 PUSH2 0x678 JUMP JUMPDEST SWAP1 SWAP2 POP PUSH1 0x20 DUP2 RETURNDATASIZE PUSH1 0x20 GT PUSH2 0x73E JUMPI JUMPDEST DUP2 PUSH2 0x72E PUSH1 0x20 SWAP4 DUP4 PUSH2 0x989 JUMP JUMPDEST DUP2 ADD SUB SLT PUSH2 0x158 JUMPI MLOAD SWAP1 DUP3 PUSH2 0x651 JUMP JUMPDEST RETURNDATASIZE SWAP2 POP PUSH2 0x721 JUMP JUMPDEST PUSH4 0x4E487B71 PUSH1 0xE0 SHL PUSH1 0x0 MSTORE PUSH1 0x41 PUSH1 0x4 MSTORE PUSH1 0x24 PUSH1 0x0 REVERT JUMPDEST PUSH2 0x774 SWAP1 PUSH1 0x20 RETURNDATASIZE PUSH1 0x20 GT PUSH2 0x6F9 JUMPI PUSH2 0x6EA DUP2 DUP4 PUSH2 0x989 JUMP JUMPDEST POP DUP4 PUSH2 0x569 JUMP JUMPDEST SWAP1 POP PUSH1 0x20 DUP2 RETURNDATASIZE PUSH1 0x20 GT PUSH2 0x7A5 JUMPI JUMPDEST DUP2 PUSH2 0x796 PUSH1 0x20 SWAP4 DUP4 PUSH2 0x989 JUMP JUMPDEST DUP2 ADD SUB SLT PUSH2 0x158 JUMPI MLOAD DUP4 PUSH2 0x523 JUMP JUMPDEST RETURNDATASIZE SWAP2 POP PUSH2 0x789 JUMP JUMPDEST PUSH2 0x7C9 SWAP1 RETURNDATASIZE DUP1 PUSH1 0x0 DUP4 RETURNDATACOPY PUSH2 0x7C1 DUP2 DUP4 PUSH2 0x989 JUMP JUMPDEST DUP2 ADD SWAP1 PUSH2 0x9F6 JUMP JUMPDEST POP DUP3 PUSH2 0x4F7 JUMP JUMPDEST SWAP1 SWAP3 POP PUSH1 0x20 DUP2 RETURNDATASIZE PUSH1 0x20 GT PUSH2 0x7FD JUMPI JUMPDEST DUP2 PUSH2 0x7EC PUSH1 0x20 SWAP4 DUP4 PUSH2 0x989 JUMP JUMPDEST DUP2 ADD SUB SLT PUSH2 0x158 JUMPI MLOAD SWAP2 PUSH1 0x0 PUSH2 0x478 JUMP JUMPDEST RETURNDATASIZE SWAP2 POP PUSH2 0x7DF JUMP JUMPDEST PUSH2 0x819 SWAP1 RETURNDATASIZE DUP1 PUSH1 0x0 DUP4 RETURNDATACOPY PUSH2 0x7C1 DUP2 DUP4 PUSH2 0x989 JUMP JUMPDEST POP DUP3 PUSH2 0x444 JUMP JUMPDEST PUSH2 0x833 SWAP1 RETURNDATASIZE DUP1 DUP6 DUP4 RETURNDATACOPY PUSH2 0x7C1 DUP2 DUP4 PUSH2 0x989 JUMP JUMPDEST POP DUP6 PUSH2 0x3FF JUMP JUMPDEST PUSH2 0x852 SWAP1 PUSH1 0x20 RETURNDATASIZE PUSH1 0x20 GT PUSH2 0x6F9 JUMPI PUSH2 0x6EA DUP2 DUP4 PUSH2 0x989 JUMP JUMPDEST POP DUP4 PUSH2 0x360 JUMP JUMPDEST PUSH2 0x871 SWAP1 PUSH1 0x20 RETURNDATASIZE PUSH1 0x20 GT PUSH2 0x6F9 JUMPI PUSH2 0x6EA DUP2 DUP4 PUSH2 0x989 JUMP JUMPDEST POP DUP4 PUSH2 0x31A JUMP JUMPDEST PUSH1 0x80 PUSH1 0x3 NOT DUP3 ADD SLT PUSH2 0x158 JUMPI PUSH1 0x4 CALLDATALOAD SWAP2 PUSH1 0x1 PUSH1 0x1 PUSH1 0xA0 SHL SUB SWAP2 PUSH1 0x24 CALLDATALOAD DUP4 DUP2 AND DUP2 SUB PUSH2 0x158 JUMPI SWAP3 PUSH1 0x44 CALLDATALOAD SWAP1 DUP2 AND DUP2 SUB PUSH2 0x158 JUMPI SWAP2 PUSH1 0x64 CALLDATALOAD PUSH8 0xFFFFFFFFFFFFFFFF SWAP3 DUP4 DUP3 GT PUSH2 0x158 JUMPI DUP1 PUSH1 0x23 DUP4 ADD SLT ISZERO PUSH2 0x158 JUMPI DUP2 PUSH1 0x4 ADD CALLDATALOAD SWAP4 DUP5 GT PUSH2 0x158 JUMPI PUSH1 0x24 DUP5 DUP4 ADD ADD GT PUSH2 0x158 JUMPI PUSH1 0x24 ADD SWAP2 SWAP1 JUMP JUMPDEST CALLVALUE PUSH2 0x158 JUMPI PUSH2 0x8F6 CALLDATASIZE PUSH2 0x878 JUMP JUMPDEST POP POP POP POP POP PUSH1 0x64 PUSH1 0x40 MLOAD PUSH3 0x461BCD PUSH1 0xE5 SHL DUP2 MSTORE PUSH1 0x20 PUSH1 0x4 DUP3 ADD MSTORE PUSH1 0xF PUSH1 0x24 DUP3 ADD MSTORE PUSH15 0x139BDD081A5B5C1B195B595B9D1959 PUSH1 0x8A SHL PUSH1 0x44 DUP3 ADD MSTORE REVERT JUMPDEST PUSH1 0x0 SLOAD PUSH1 0x1 PUSH1 0x1 PUSH1 0xA0 SHL SUB AND CALLER SUB PUSH2 0x945 JUMPI JUMP JUMPDEST PUSH1 0x64 PUSH1 0x40 MLOAD PUSH3 0x461BCD PUSH1 0xE5 SHL DUP2 MSTORE PUSH1 0x20 PUSH1 0x4 DUP3 ADD MSTORE PUSH1 0x20 PUSH1 0x24 DUP3 ADD MSTORE PUSH32 0x4F776E61626C653A2063616C6C6572206973206E6F7420746865206F776E6572 PUSH1 0x44 DUP3 ADD MSTORE REVERT JUMPDEST SWAP1 PUSH1 0x1F DUP1 NOT SWAP2 ADD AND DUP2 ADD SWAP1 DUP2 LT PUSH8 0xFFFFFFFFFFFFFFFF DUP3 GT OR PUSH2 0x746 JUMPI PUSH1 0x40 MSTORE JUMP JUMPDEST SWAP1 DUP2 PUSH1 0x20 SWAP2 SUB SLT PUSH2 0x158 JUMPI MLOAD DUP1 ISZERO ISZERO DUP2 SUB PUSH2 0x158 JUMPI SWAP1 JUMP JUMPDEST DUP1 MLOAD ISZERO PUSH2 0x9D0 JUMPI PUSH1 0x20 ADD SWAP1 JUMP JUMPDEST PUSH4 0x4E487B71 PUSH1 0xE0 SHL PUSH1 0x0 MSTORE PUSH1 0x32 PUSH1 0x4 MSTORE PUSH1 0x24 PUSH1 0x0 REVERT JUMPDEST DUP1 MLOAD PUSH1 0x1 LT ISZERO PUSH2 0x9D0 JUMPI PUSH1 0x40 ADD SWAP1 JUMP JUMPDEST SWAP1 PUSH1 0x20 SWAP1 DUP2 DUP4 DUP3 SUB SLT PUSH2 0x158 JUMPI DUP3 MLOAD PUSH8 0xFFFFFFFFFFFFFFFF SWAP4 DUP5 DUP3 GT PUSH2 0x158 JUMPI ADD DUP2 PUSH1 0x1F DUP3 ADD SLT ISZERO PUSH2 0x158 JUMPI DUP1 MLOAD SWAP4 DUP5 GT PUSH2 0x746 JUMPI DUP4 PUSH1 0x5 SHL SWAP1 PUSH1 0x40 MLOAD SWAP5 PUSH2 0xA40 DUP6 DUP5 ADD DUP8 PUSH2 0x989 JUMP JUMPDEST DUP6 MSTORE DUP4 DUP1 DUP7 ADD SWAP3 DUP3 ADD ADD SWAP3 DUP4 GT PUSH2 0x158 JUMPI DUP4 ADD SWAP1 JUMPDEST DUP3 DUP3 LT PUSH2 0xA63 JUMPI POP POP POP POP SWAP1 JUMP JUMPDEST DUP2 MLOAD DUP2 MSTORE SWAP1 DUP4 ADD SWAP1 DUP4 ADD PUSH2 0xA55 JUMP JUMPDEST SWAP1 DUP2 MLOAD DUP1 DUP3 MSTORE PUSH1 0x20 DUP1 DUP1 SWAP4 ADD SWAP4 ADD SWAP2 PUSH1 0x0 JUMPDEST DUP3 DUP2 LT PUSH2 0xA92 JUMPI POP POP POP POP SWAP1 JUMP JUMPDEST DUP4 MLOAD PUSH1 0x1 PUSH1 0x1 PUSH1 0xA0 SHL SUB AND DUP6 MSTORE SWAP4 DUP2 ADD SWAP4 SWAP3 DUP2 ADD SWAP3 PUSH1 0x1 ADD PUSH2 0xA84 JUMP JUMPDEST SWAP1 PUSH1 0x80 SWAP3 PUSH2 0xAD5 SWAP2 SWAP7 SWAP6 SWAP5 SWAP7 DUP4 MSTORE PUSH1 0x0 PUSH1 0x20 DUP5 ADD MSTORE PUSH1 0xA0 PUSH1 0x40 DUP5 ADD MSTORE PUSH1 0xA0 DUP4 ADD SWAP1 PUSH2 0xA72 JUMP JUMPDEST PUSH1 0x1 PUSH1 0x1 PUSH1 0xA0 SHL SUB SWAP1 SWAP6 AND PUSH1 0x60 DUP3 ADD MSTORE ADD MSTORE JUMP INVALID LOG2 PUSH5 0x6970667358 0x22 SLT KECCAK256 PUSH13 0x6FBBC9778BB55455AF2BC6225C 0x1E SWAP9 PUSH13 0x388A26D7F68BD18C3C7B3CBD0B 0x2E 0xC4 PUSH5 0x736F6C6343 STOP ADDMOD SGT STOP CALLER "
        },
        "methodIdentifiers": {
          "buy(uint256,address,address,bytes)": "987bb07b",
          "factory()": "c45a0155",
          "fee()": "ddca3f43",
          "fomo()": "d9fca70e",
          "owner()": "8da5cb5b",
          "renounceOwnership()": "715018a6",
          "sell(uint256,address,address,bytes)": "2454b710",
          "sellAndBuy(uint256,address,address,bytes)": "03679454",
          "transferOwnership(address)": "f2fde38b",
          "treasury()": "61d027b3",
          "v2router()": "8f8dc10a"
        }
      }
    }
  }
}