{
	"contracts/core/merge/DynamicEater.sol": {
		"DynamicEater": {
			"abi": [
				{
					"inputs": [
						{
							"internalType": "address",
							"name": "_wewe",
							"type": "address"
						},
						{
							"internalType": "address",
							"name": "_token",
							"type": "address"
						},
						{
							"internalType": "uint32",
							"name": "_vestingDuration",
							"type": "uint32"
						},
						{
							"internalType": "uint256",
							"name": "_virtualFOMO",
							"type": "uint256"
						},
						{
							"internalType": "uint256",
							"name": "_virtualWEWE",
							"type": "uint256"
						}
					],
					"stateMutability": "nonpayable",
					"type": "constructor"
				},
				{
					"anonymous": false,
					"inputs": [
						{
							"indexed": false,
							"internalType": "uint256",
							"name": "amount",
							"type": "uint256"
						},
						{
							"indexed": true,
							"internalType": "address",
							"name": "account",
							"type": "address"
						},
						{
							"indexed": false,
							"internalType": "uint256",
							"name": "weweAmount",
							"type": "uint256"
						}
					],
					"name": "Merged",
					"type": "event"
				},
				{
					"anonymous": false,
					"inputs": [
						{
							"indexed": true,
							"internalType": "address",
							"name": "previousOwner",
							"type": "address"
						},
						{
							"indexed": true,
							"internalType": "address",
							"name": "newOwner",
							"type": "address"
						}
					],
					"name": "OwnershipTransferred",
					"type": "event"
				},
				{
					"anonymous": false,
					"inputs": [
						{
							"indexed": false,
							"internalType": "address",
							"name": "account",
							"type": "address"
						}
					],
					"name": "Paused",
					"type": "event"
				},
				{
					"anonymous": false,
					"inputs": [
						{
							"indexed": false,
							"internalType": "uint256",
							"name": "newRate",
							"type": "uint256"
						}
					],
					"name": "RateChanged",
					"type": "event"
				},
				{
					"anonymous": false,
					"inputs": [
						{
							"indexed": false,
							"internalType": "address",
							"name": "account",
							"type": "address"
						}
					],
					"name": "Unpaused",
					"type": "event"
				},
				{
					"inputs": [
						{
							"internalType": "address",
							"name": "account",
							"type": "address"
						}
					],
					"name": "balanceOf",
					"outputs": [
						{
							"internalType": "uint256",
							"name": "",
							"type": "uint256"
						}
					],
					"stateMutability": "view",
					"type": "function"
				},
				{
					"inputs": [
						{
							"internalType": "uint256",
							"name": "x",
							"type": "uint256"
						}
					],
					"name": "calculateTokensOut",
					"outputs": [
						{
							"internalType": "uint256",
							"name": "",
							"type": "uint256"
						}
					],
					"stateMutability": "view",
					"type": "function"
				},
				{
					"inputs": [
						{
							"internalType": "address",
							"name": "account",
							"type": "address"
						}
					],
					"name": "canClaim",
					"outputs": [
						{
							"internalType": "bool",
							"name": "",
							"type": "bool"
						}
					],
					"stateMutability": "view",
					"type": "function"
				},
				{
					"inputs": [],
					"name": "claim",
					"outputs": [],
					"stateMutability": "nonpayable",
					"type": "function"
				},
				{
					"inputs": [
						{
							"internalType": "uint256",
							"name": "amount",
							"type": "uint256"
						}
					],
					"name": "deposit",
					"outputs": [],
					"stateMutability": "nonpayable",
					"type": "function"
				},
				{
					"inputs": [],
					"name": "getCurrentPrice",
					"outputs": [
						{
							"internalType": "uint256",
							"name": "",
							"type": "uint256"
						}
					],
					"stateMutability": "view",
					"type": "function"
				},
				{
					"inputs": [],
					"name": "getRate",
					"outputs": [
						{
							"internalType": "uint256",
							"name": "",
							"type": "uint256"
						}
					],
					"stateMutability": "view",
					"type": "function"
				},
				{
					"inputs": [],
					"name": "getToken",
					"outputs": [
						{
							"internalType": "address",
							"name": "",
							"type": "address"
						}
					],
					"stateMutability": "view",
					"type": "function"
				},
				{
					"inputs": [],
					"name": "maxSupply",
					"outputs": [
						{
							"internalType": "uint256",
							"name": "",
							"type": "uint256"
						}
					],
					"stateMutability": "view",
					"type": "function"
				},
				{
					"inputs": [
						{
							"internalType": "uint256",
							"name": "amount",
							"type": "uint256"
						}
					],
					"name": "merge",
					"outputs": [
						{
							"internalType": "uint256",
							"name": "",
							"type": "uint256"
						}
					],
					"stateMutability": "nonpayable",
					"type": "function"
				},
				{
					"inputs": [],
					"name": "mergeAll",
					"outputs": [
						{
							"internalType": "uint256",
							"name": "",
							"type": "uint256"
						}
					],
					"stateMutability": "nonpayable",
					"type": "function"
				},
				{
					"inputs": [
						{
							"internalType": "uint256",
							"name": "amount",
							"type": "uint256"
						},
						{
							"internalType": "contract IAMM",
							"name": "amm",
							"type": "address"
						},
						{
							"internalType": "bytes",
							"name": "extraData",
							"type": "bytes"
						}
					],
					"name": "mergeAndSell",
					"outputs": [],
					"stateMutability": "nonpayable",
					"type": "function"
				},
				{
					"inputs": [],
					"name": "owner",
					"outputs": [
						{
							"internalType": "address",
							"name": "",
							"type": "address"
						}
					],
					"stateMutability": "view",
					"type": "function"
				},
				{
					"inputs": [],
					"name": "paused",
					"outputs": [
						{
							"internalType": "bool",
							"name": "",
							"type": "bool"
						}
					],
					"stateMutability": "view",
					"type": "function"
				},
				{
					"inputs": [
						{
							"internalType": "address",
							"name": "from",
							"type": "address"
						},
						{
							"internalType": "uint256",
							"name": "amount",
							"type": "uint256"
						},
						{
							"internalType": "address",
							"name": "",
							"type": "address"
						},
						{
							"internalType": "bytes",
							"name": "",
							"type": "bytes"
						}
					],
					"name": "receiveApproval",
					"outputs": [],
					"stateMutability": "nonpayable",
					"type": "function"
				},
				{
					"inputs": [],
					"name": "renounceOwnership",
					"outputs": [],
					"stateMutability": "nonpayable",
					"type": "function"
				},
				{
					"inputs": [
						{
							"internalType": "address",
							"name": "_treasury",
							"type": "address"
						}
					],
					"name": "setTreasury",
					"outputs": [],
					"stateMutability": "nonpayable",
					"type": "function"
				},
				{
					"inputs": [
						{
							"internalType": "uint32",
							"name": "duration",
							"type": "uint32"
						}
					],
					"name": "setVestingDuration",
					"outputs": [],
					"stateMutability": "nonpayable",
					"type": "function"
				},
				{
					"inputs": [
						{
							"internalType": "uint256",
							"name": "value",
							"type": "uint256"
						}
					],
					"name": "setVitualTokenBalance",
					"outputs": [],
					"stateMutability": "nonpayable",
					"type": "function"
				},
				{
					"inputs": [
						{
							"internalType": "uint256",
							"name": "value",
							"type": "uint256"
						}
					],
					"name": "setVitualWeWEBalance",
					"outputs": [],
					"stateMutability": "nonpayable",
					"type": "function"
				},
				{
					"inputs": [
						{
							"internalType": "address",
							"name": "account",
							"type": "address"
						}
					],
					"name": "setWhiteList",
					"outputs": [],
					"stateMutability": "nonpayable",
					"type": "function"
				},
				{
					"inputs": [],
					"name": "sweep",
					"outputs": [],
					"stateMutability": "nonpayable",
					"type": "function"
				},
				{
					"inputs": [],
					"name": "togglePause",
					"outputs": [],
					"stateMutability": "nonpayable",
					"type": "function"
				},
				{
					"inputs": [],
					"name": "totalVested",
					"outputs": [
						{
							"internalType": "uint256",
							"name": "",
							"type": "uint256"
						}
					],
					"stateMutability": "view",
					"type": "function"
				},
				{
					"inputs": [
						{
							"internalType": "address",
							"name": "newOwner",
							"type": "address"
						}
					],
					"name": "transferOwnership",
					"outputs": [],
					"stateMutability": "nonpayable",
					"type": "function"
				},
				{
					"inputs": [],
					"name": "treasury",
					"outputs": [
						{
							"internalType": "address",
							"name": "",
							"type": "address"
						}
					],
					"stateMutability": "view",
					"type": "function"
				},
				{
					"inputs": [],
					"name": "vestingDuration",
					"outputs": [
						{
							"internalType": "uint32",
							"name": "",
							"type": "uint32"
						}
					],
					"stateMutability": "view",
					"type": "function"
				},
				{
					"inputs": [
						{
							"internalType": "address",
							"name": "",
							"type": "address"
						}
					],
					"name": "vestings",
					"outputs": [
						{
							"internalType": "uint256",
							"name": "amount",
							"type": "uint256"
						},
						{
							"internalType": "uint256",
							"name": "end",
							"type": "uint256"
						}
					],
					"stateMutability": "view",
					"type": "function"
				},
				{
					"inputs": [],
					"name": "virtualFOMO",
					"outputs": [
						{
							"internalType": "uint256",
							"name": "",
							"type": "uint256"
						}
					],
					"stateMutability": "view",
					"type": "function"
				},
				{
					"inputs": [],
					"name": "virtualWEWE",
					"outputs": [
						{
							"internalType": "uint256",
							"name": "",
							"type": "uint256"
						}
					],
					"stateMutability": "view",
					"type": "function"
				},
				{
					"inputs": [],
					"name": "wewe",
					"outputs": [
						{
							"internalType": "address",
							"name": "",
							"type": "address"
						}
					],
					"stateMutability": "view",
					"type": "function"
				},
				{
					"inputs": [
						{
							"internalType": "address",
							"name": "",
							"type": "address"
						}
					],
					"name": "whiteList",
					"outputs": [
						{
							"internalType": "bool",
							"name": "",
							"type": "bool"
						}
					],
					"stateMutability": "view",
					"type": "function"
				}
			],
			"evm": {
				"bytecode": {
					"linkReferences": {},
					"object": "60808060405234620001f25760a081620019638038038091620000238285620001f7565b833981010312620001f257620000398162000231565b620000476020830162000231565b9160408101519263ffffffff8416809403620001f25760806060830151920151936020839460046000946001865560015492610100600160a81b033360081b1660018060a81b0319851617600155604051958694859360018060a01b039182339160081c167f8be0079c531659141344cd1fd0a4f28419497f9722a3daafe3b4186f6b6457e08c80a38160018060a01b03199416846003541617600355168092600254161760025563ffffffff19600854161760085563313ce56760e01b82525afa8015620001e7578290620001a0575b60ff9150166012811062000140575b505050600b55600c5560405161171c9081620002478239f35b90919250601203601281116200018c57604d81116200018c57600a0a9182810292818404149015171562000178575038808062000127565b634e487b7160e01b81526011600452602490fd5b634e487b7160e01b82526011600452602482fd5b506020813d8211620001de575b81620001bc60209383620001f7565b81010312620001da575160ff81168103620001da5760ff9062000118565b5080fd5b3d9150620001ad565b6040513d84823e3d90fd5b600080fd5b601f909101601f19168101906001600160401b038211908210176200021b57604052565b634e487b7160e01b600052604160045260246000fd5b51906001600160a01b0382168203620001f25756fe6080604081815260048036101561001557600080fd5b600092833560e01c9081631514617e1461114757508063199cbc541461112857838163213897fe14610ee05750806321df0da714610eb757806324a47aeb14610df257806329b30c8d14610dd357806335faa41614610c77578063372c12b114610c3957806339e899ee14610bf65780634e71d92d14610b5c5780634fa1f10414610a455780635c975abb14610a2157806361d027b3146109fa578063679aefce1461097757806370a082311461093f578063715018a6146108de5780638da5cb5b146108b15780638f4ffcb11461077c5780639636d8811461074157806398d722d71461071f5780639ed4527e14610700578063b3781272146106de57838163b6b55f251461065057508063bf3506c114610611578063c4ae31681461052e578063d5abeb011461050f578063daf49863146104cd578063e1f26f22146104a4578063ea9f24171461030a578063eb91d37e146102a7578063f0f44260146102625763f2fde38b1461018757600080fd5b3461025e57602036600319011261025e576101a061119c565b6101a86111b2565b6001600160a01b0381811693909290841561020c57505060018054610100600160a81b03198116600893841b610100600160a81b031617909155901c167f8be0079c531659141344cd1fd0a4f28419497f9722a3daafe3b4186f6b6457e08380a380f35b906020608492519162461bcd60e51b8352820152602660248201527f4f776e61626c653a206e6577206f776e657220697320746865207a65726f206160448201526564647265737360d01b6064820152fd5b8280fd5b8382346102a35760203660031901126102a35761027d61119c565b6102856111b2565b81546001600160a01b0319166001600160a01b039190911617905580f35b5080fd5b5091346103075780600319360112610307576102c8600c5460055490611256565b926103e8938481029481860414901517156102f4576020836102ed86600b5490611236565b9051908152f35b634e487b7160e01b825260119052602490fd5b80fd5b509134610307578060031936011261030757610324611392565b60025482516370a0823160e01b8152338186015260209490926001600160a01b03928316928685602481875afa948515610434578295610475575b5085516323b872dd60e01b81528594889082908186816103838b30338d8501611370565b03925af1801561046b57918891859361043e575b506002541687519283809263313ce56760e01b82525afa908115610434579060ff918391610407575b5016601281106103d7575b86866102ed338761142c565b9091925060120391601283116102f45750506102ed916103f96103ff926112b4565b9061120d565b3880806103cb565b6104279150883d8a1161042d575b61041f8183611263565b81019061129b565b386103c0565b503d610415565b86513d84823e3d90fd5b61045d90833d8511610464575b6104558183611263565b810190611358565b5038610397565b503d61044b565b87513d85823e3d90fd5b9094508681813d831161049d575b61048d8183611263565b810103126102a35751933861035f565b503d610483565b5050346102a357816003193601126102a35760035490516001600160a01b039091168152602090f35b5050346102a35760203660031901126102a3579081906001600160a01b036104f361119c565b1681526009602052206001815491015482519182526020820152f35b5050346102a357816003193601126102a3576020906007549051908152f35b503461025e578260031936011261025e576105476111b2565b60015460ff8116156105d057506001549060ff821615610596575060ff1916600155513381527f5db9ee0a495bf2e6ff9c91a7834c1ba4fdd244a5e8aa4e537bd38aeae4b073aa90602090a180f35b606490602084519162461bcd60e51b8352820152601460248201527314185d5cd8589b194e881b9bdd081c185d5cd95960621b6044820152fd5b602091509160017f62e78cea01bee320cd4e420270b5ea74000d11b0c9f74754ebdbfc544b05a25893610601611392565b60ff19161760015551338152a180f35b5050346102a35760203660031901126102a35760209160019082906001600160a01b0361063c61119c565b168152600985522001549051904210158152f35b808484346106da5760203660031901126106da576106a26020916106726111b2565b60035484516323b872dd60e01b81529586936001600160a01b039092169284928391803590309033908501611370565b03925af19081156106d157506106b6575080f35b6106cd9060203d8111610464576104558183611263565b5080f35b513d84823e3d90fd5b5050fd5b8382346102a35760203660031901126102a3576106f96111b2565b35600c5580f35b5050346102a357816003193601126102a357602090600c549051908152f35b8382346102a35760203660031901126102a35761073a6111b2565b35600b5580f35b8382346102a35760203660031901126102a3573563ffffffff81168091036102a35761076b6111b2565b63ffffffff19600854161760085580f35b503461025e57608036600319011261025e5761079661119c565b90602435906001600160a01b03604435818116036108ad5760643567ffffffffffffffff81116108a9576107cd9036908401611169565b50506107d76113d6565b6107df611392565b6002541690811561085a5782610810926020928888518096819582946323b872dd60e01b8452309033908501611370565b03925af180156108505761082a9450610832575b5061142c565b506001815580f35b6108499060203d8111610464576104558183611263565b5038610824565b84513d87823e3d90fd5b608490602086519162461bcd60e51b8352820152602360248201527f44796e616d696345617465723a20546f6b656e2061646472657373206e6f74206044820152621cd95d60ea1b6064820152fd5b8680fd5b8580fd5b5050346102a357816003193601126102a357600154905160089190911c6001600160a01b03168152602090f35b83346103075780600319360112610307576108f76111b2565b60018054610100600160a81b03198116909155819060081c6001600160a01b03167f8be0079c531659141344cd1fd0a4f28419497f9722a3daafe3b4186f6b6457e08280a380f35b5050346102a35760203660031901126102a35760209181906001600160a01b0361096761119c565b1681526009845220549051908152f35b503461025e578260031936011261025e57600254825163313ce56760e01b81529160209183919082906001600160a01b03165afa9081156109ee5760ff6102ed926109cc92602096916109d1575b50166112b4565b6112cf565b6109e89150863d811161042d5761041f8183611263565b386109c5565b505051903d90823e3d90fd5b503461025e578260031936011261025e575490516001600160a01b03909116815260209150f35b5050346102a357816003193601126102a35760209060ff6001541690519015158152f35b50913461030757602092836003193601126102a357600254835163313ce56760e01b808252833594926001600160a01b03169187818681865afa908115610b525760ff8993926012928791610b35575b501610610aa8575b50856102ed866112cf565b8487518094819382525afa908115610b2b579060ff918391610b0e575b501660120360ff8111610afb5760ff1691604d83116102f45750506102ed91610af191600a0a9061120d565b9038808581610a9d565b506011602492634e487b7160e01b835252fd5b610b259150873d891161042d5761041f8183611263565b38610ac5565b85513d84823e3d90fd5b610b4c9150853d871161042d5761041f8183611263565b38610a95565b87513d86823e3d90fd5b50903461025e578260031936011261025e57610b76611392565b63ffffffff6008541615610be9575b3383526009602052600181842001544210610ba65782610ba361166b565b80f35b906020606492519162461bcd60e51b8352820152601f60248201527f44796e616d696345617465723a2056657374696e67206e6f7420656e646564006044820152fd5b610bf161166b565b610b85565b5050346102a35760203660031901126102a357610c1161119c565b610c196111b2565b6001600160a01b03168252600a6020528120805460ff1916600117905580f35b5050346102a35760203660031901126102a35760209160ff9082906001600160a01b03610c6461119c565b168152600a855220541690519015158152f35b509190346102a357816003193601126102a357610c926111b2565b60035481516370a0823160e01b8152308582015293602092916001600160a01b0390811691908487602481865afa968715610dc9578697610d9a575b508615610d4d57600154845163a9059cbb60e01b81526001600160a01b0360089290921c90921616918101918252602082018790529291849184919082908890829060400103925af1908115610d445750610d27578280f35b81610d3d92903d10610464576104558183611263565b5081808280f35b513d85823e3d90fd5b835162461bcd60e51b8152808301869052602160248201527f44796e616d696345617465723a204e6f2062616c616e636520746f20737765656044820152600760fc1b6064820152608490fd5b9096508481813d8311610dc2575b610db28183611263565b810103126108ad57519538610cce565b503d610da8565b84513d88823e3d90fd5b5050346102a357816003193601126102a357602090600b549051908152f35b503461025e576020928360031936011261030757813591610e11611392565b60025484516370a0823160e01b815233838201528493916001600160a01b0391908216908881602481855afa8015610ead5787908590610e78575b610e58925010156112fa565b87875180926323b872dd60e01b82528186816103838c30338d8501611370565b50508881813d8311610ea6575b610e8f8183611263565b81010312610ea25786610e589151610e4c565b8380fd5b503d610e85565b88513d86823e3d90fd5b5050346102a357816003193601126102a35760025490516001600160a01b039091168152602090f35b929050346106da5760603660031901126106da576001600160a01b03602435818116908435908290036108ad5760443567ffffffffffffffff81116108a957610f2c9036908701611169565b969095610f376113d6565b610f3f611392565b60025486516370a0823160e01b81523383820152602099918716908a81602481855afa801561111e57869086906110e9575b610f7d925010156112fa565b89885180926323b872dd60e01b8252818781610f9d8b30338c8501611370565b03925af18015610ead576110cc575b50610fb7338561142c565b50600254875163095ea7b360e01b81526001600160a01b0387168482019081526020810187905290918b9183918a169082908890829060400103925af18015610ead57918a97969594939160a4936110af575b50808783541680156000146110a95750309a5b8860025416988b519c8d9a8b998a976302454b7160e41b8952880152602487015216604485015260806064850152816084850152848401378181018301849052601f01601f191681010301925af1908115610d445750611080575b826001815580f35b813d83116110a2575b6110938183611263565b81010312610307573880611078565b503d611089565b9a61101d565b6110c590893d8b11610464576104558183611263565b503861100a565b6110e2908a3d8c11610464576104558183611263565b5038610fac565b50508a81813d8311611117575b6111008183611263565b810103126111135785610f7d9151610f71565b8480fd5b503d6110f6565b89513d87823e3d90fd5b5050346102a357816003193601126102a3576020906005549051908152f35b8490346102a357816003193601126102a35760209063ffffffff600854168152f35b9181601f840112156111975782359167ffffffffffffffff8311611197576020838186019501011161119757565b600080fd5b600435906001600160a01b038216820361119757565b60015460081c6001600160a01b031633036111c957565b606460405162461bcd60e51b815260206004820152602060248201527f4f776e61626c653a2063616c6c6572206973206e6f7420746865206f776e65726044820152fd5b8181029291811591840414171561122057565b634e487b7160e01b600052601160045260246000fd5b8115611240570490565b634e487b7160e01b600052601260045260246000fd5b9190820391821161122057565b90601f8019910116810190811067ffffffffffffffff82111761128557604052565b634e487b7160e01b600052604160045260246000fd5b90816020910312611197575160ff811681036111975790565b604d811161122057600a0a90565b9190820180921161122057565b6112f7906112f26112e282600b546112c2565b916103f9600c5460055490611256565b611236565b90565b1561130157565b60405162461bcd60e51b815260206004820152602960248201527f44796e616d696345617465723a20496e73756666696369656e742062616c616e60448201526818d9481d1bc819585d60ba1b6064820152608490fd5b90816020910312611197575180151581036111975790565b6001600160a01b03918216815291166020820152604081019190915260600190565b60ff6001541661139e57565b60405162461bcd60e51b815260206004820152601060248201526f14185d5cd8589b194e881c185d5cd95960821b6044820152606490fd5b6002600054146113e7576002600055565b60405162461bcd60e51b815260206004820152601f60248201527f5265656e7472616e637947756172643a207265656e7472616e742063616c6c006044820152606490fd5b611435816112cf565b600354604080516370a0823160e01b8152306004820152929460209391926001600160a01b0392908316908581602481855afa9081156115d25760009161163e575b5087116115dd5760085463ffffffff919082161561154357508282169485600052600981526114aa8560002054896112c2565b91603c816008541602908116908103611220576114c790426112c2565b8551908682019082821067ffffffffffffffff831117611285577fabe5455971bdcd932e7251d16cd53f88cd4410bf4df21530e88bf13dade6a7d4988b956001938a52845284840191825260005260098452876000209251835551910155611531826005546112c2565b6005555b84519687528601521692a290565b845163a9059cbb60e01b81526001600160a01b0384166004820152602481018990529495939492939291508290829060449082906000905af180156115d2579187917fabe5455971bdcd932e7251d16cd53f88cd4410bf4df21530e88bf13dade6a7d4969594936115b5575b50611535565b6115cb90823d8411610464576104558183611263565b50386115af565b85513d6000823e3d90fd5b835162461bcd60e51b815260048101869052603460248201527f44796e616d696345617465723a20496e73756666696369656e7420746f6b656e604482015273103130b630b731b2903a37903a3930b739b332b960611b6064820152608490fd5b908682813d8311611664575b6116548183611263565b8101031261030757505138611477565b503d61164a565b336000818152600960209081526040808320805490849055600354915163a9059cbb60e01b8152600481019590955260248501529091839160449183916001600160a01b03165af180156116da576116c05750565b6116d79060203d8111610464576104558183611263565b50565b6040513d6000823e3d90fdfea26469706673582212202397e8e01bd23a52552f6b46b965c5d7168b51b1098082c11d10ac8aac6077dd64736f6c63430008130033",
					"opcodes": "PUSH1 0x80 DUP1 PUSH1 0x40 MSTORE CALLVALUE PUSH3 0x1F2 JUMPI PUSH1 0xA0 DUP2 PUSH3 0x1963 DUP1 CODESIZE SUB DUP1 SWAP2 PUSH3 0x23 DUP3 DUP6 PUSH3 0x1F7 JUMP JUMPDEST DUP4 CODECOPY DUP2 ADD SUB SLT PUSH3 0x1F2 JUMPI PUSH3 0x39 DUP2 PUSH3 0x231 JUMP JUMPDEST PUSH3 0x47 PUSH1 0x20 DUP4 ADD PUSH3 0x231 JUMP JUMPDEST SWAP2 PUSH1 0x40 DUP2 ADD MLOAD SWAP3 PUSH4 0xFFFFFFFF DUP5 AND DUP1 SWAP5 SUB PUSH3 0x1F2 JUMPI PUSH1 0x80 PUSH1 0x60 DUP4 ADD MLOAD SWAP3 ADD MLOAD SWAP4 PUSH1 0x20 DUP4 SWAP5 PUSH1 0x4 PUSH1 0x0 SWAP5 PUSH1 0x1 DUP7 SSTORE PUSH1 0x1 SLOAD SWAP3 PUSH2 0x100 PUSH1 0x1 PUSH1 0xA8 SHL SUB CALLER PUSH1 0x8 SHL AND PUSH1 0x1 DUP1 PUSH1 0xA8 SHL SUB NOT DUP6 AND OR PUSH1 0x1 SSTORE PUSH1 0x40 MLOAD SWAP6 DUP7 SWAP5 DUP6 SWAP4 PUSH1 0x1 DUP1 PUSH1 0xA0 SHL SUB SWAP2 DUP3 CALLER SWAP2 PUSH1 0x8 SHR AND PUSH32 0x8BE0079C531659141344CD1FD0A4F28419497F9722A3DAAFE3B4186F6B6457E0 DUP13 DUP1 LOG3 DUP2 PUSH1 0x1 DUP1 PUSH1 0xA0 SHL SUB NOT SWAP5 AND DUP5 PUSH1 0x3 SLOAD AND OR PUSH1 0x3 SSTORE AND DUP1 SWAP3 PUSH1 0x2 SLOAD AND OR PUSH1 0x2 SSTORE PUSH4 0xFFFFFFFF NOT PUSH1 0x8 SLOAD AND OR PUSH1 0x8 SSTORE PUSH4 0x313CE567 PUSH1 0xE0 SHL DUP3 MSTORE GAS STATICCALL DUP1 ISZERO PUSH3 0x1E7 JUMPI DUP3 SWAP1 PUSH3 0x1A0 JUMPI JUMPDEST PUSH1 0xFF SWAP2 POP AND PUSH1 0x12 DUP2 LT PUSH3 0x140 JUMPI JUMPDEST POP POP POP PUSH1 0xB SSTORE PUSH1 0xC SSTORE PUSH1 0x40 MLOAD PUSH2 0x171C SWAP1 DUP2 PUSH3 0x247 DUP3 CODECOPY RETURN JUMPDEST SWAP1 SWAP2 SWAP3 POP PUSH1 0x12 SUB PUSH1 0x12 DUP2 GT PUSH3 0x18C JUMPI PUSH1 0x4D DUP2 GT PUSH3 0x18C JUMPI PUSH1 0xA EXP SWAP2 DUP3 DUP2 MUL SWAP3 DUP2 DUP5 DIV EQ SWAP1 ISZERO OR ISZERO PUSH3 0x178 JUMPI POP CODESIZE DUP1 DUP1 PUSH3 0x127 JUMP JUMPDEST PUSH4 0x4E487B71 PUSH1 0xE0 SHL DUP2 MSTORE PUSH1 0x11 PUSH1 0x4 MSTORE PUSH1 0x24 SWAP1 REVERT JUMPDEST PUSH4 0x4E487B71 PUSH1 0xE0 SHL DUP3 MSTORE PUSH1 0x11 PUSH1 0x4 MSTORE PUSH1 0x24 DUP3 REVERT JUMPDEST POP PUSH1 0x20 DUP2 RETURNDATASIZE DUP3 GT PUSH3 0x1DE JUMPI JUMPDEST DUP2 PUSH3 0x1BC PUSH1 0x20 SWAP4 DUP4 PUSH3 0x1F7 JUMP JUMPDEST DUP2 ADD SUB SLT PUSH3 0x1DA JUMPI MLOAD PUSH1 0xFF DUP2 AND DUP2 SUB PUSH3 0x1DA JUMPI PUSH1 0xFF SWAP1 PUSH3 0x118 JUMP JUMPDEST POP DUP1 REVERT JUMPDEST RETURNDATASIZE SWAP2 POP PUSH3 0x1AD JUMP JUMPDEST PUSH1 0x40 MLOAD RETURNDATASIZE DUP5 DUP3 RETURNDATACOPY RETURNDATASIZE SWAP1 REVERT JUMPDEST PUSH1 0x0 DUP1 REVERT JUMPDEST PUSH1 0x1F SWAP1 SWAP2 ADD PUSH1 0x1F NOT AND DUP2 ADD SWAP1 PUSH1 0x1 PUSH1 0x1 PUSH1 0x40 SHL SUB DUP3 GT SWAP1 DUP3 LT OR PUSH3 0x21B JUMPI PUSH1 0x40 MSTORE JUMP JUMPDEST PUSH4 0x4E487B71 PUSH1 0xE0 SHL PUSH1 0x0 MSTORE PUSH1 0x41 PUSH1 0x4 MSTORE PUSH1 0x24 PUSH1 0x0 REVERT JUMPDEST MLOAD SWAP1 PUSH1 0x1 PUSH1 0x1 PUSH1 0xA0 SHL SUB DUP3 AND DUP3 SUB PUSH3 0x1F2 JUMPI JUMP INVALID PUSH1 0x80 PUSH1 0x40 DUP2 DUP2 MSTORE PUSH1 0x4 DUP1 CALLDATASIZE LT ISZERO PUSH2 0x15 JUMPI PUSH1 0x0 DUP1 REVERT JUMPDEST PUSH1 0x0 SWAP3 DUP4 CALLDATALOAD PUSH1 0xE0 SHR SWAP1 DUP2 PUSH4 0x1514617E EQ PUSH2 0x1147 JUMPI POP DUP1 PUSH4 0x199CBC54 EQ PUSH2 0x1128 JUMPI DUP4 DUP2 PUSH4 0x213897FE EQ PUSH2 0xEE0 JUMPI POP DUP1 PUSH4 0x21DF0DA7 EQ PUSH2 0xEB7 JUMPI DUP1 PUSH4 0x24A47AEB EQ PUSH2 0xDF2 JUMPI DUP1 PUSH4 0x29B30C8D EQ PUSH2 0xDD3 JUMPI DUP1 PUSH4 0x35FAA416 EQ PUSH2 0xC77 JUMPI DUP1 PUSH4 0x372C12B1 EQ PUSH2 0xC39 JUMPI DUP1 PUSH4 0x39E899EE EQ PUSH2 0xBF6 JUMPI DUP1 PUSH4 0x4E71D92D EQ PUSH2 0xB5C JUMPI DUP1 PUSH4 0x4FA1F104 EQ PUSH2 0xA45 JUMPI DUP1 PUSH4 0x5C975ABB EQ PUSH2 0xA21 JUMPI DUP1 PUSH4 0x61D027B3 EQ PUSH2 0x9FA JUMPI DUP1 PUSH4 0x679AEFCE EQ PUSH2 0x977 JUMPI DUP1 PUSH4 0x70A08231 EQ PUSH2 0x93F JUMPI DUP1 PUSH4 0x715018A6 EQ PUSH2 0x8DE JUMPI DUP1 PUSH4 0x8DA5CB5B EQ PUSH2 0x8B1 JUMPI DUP1 PUSH4 0x8F4FFCB1 EQ PUSH2 0x77C JUMPI DUP1 PUSH4 0x9636D881 EQ PUSH2 0x741 JUMPI DUP1 PUSH4 0x98D722D7 EQ PUSH2 0x71F JUMPI DUP1 PUSH4 0x9ED4527E EQ PUSH2 0x700 JUMPI DUP1 PUSH4 0xB3781272 EQ PUSH2 0x6DE JUMPI DUP4 DUP2 PUSH4 0xB6B55F25 EQ PUSH2 0x650 JUMPI POP DUP1 PUSH4 0xBF3506C1 EQ PUSH2 0x611 JUMPI DUP1 PUSH4 0xC4AE3168 EQ PUSH2 0x52E JUMPI DUP1 PUSH4 0xD5ABEB01 EQ PUSH2 0x50F JUMPI DUP1 PUSH4 0xDAF49863 EQ PUSH2 0x4CD JUMPI DUP1 PUSH4 0xE1F26F22 EQ PUSH2 0x4A4 JUMPI DUP1 PUSH4 0xEA9F2417 EQ PUSH2 0x30A JUMPI DUP1 PUSH4 0xEB91D37E EQ PUSH2 0x2A7 JUMPI DUP1 PUSH4 0xF0F44260 EQ PUSH2 0x262 JUMPI PUSH4 0xF2FDE38B EQ PUSH2 0x187 JUMPI PUSH1 0x0 DUP1 REVERT JUMPDEST CALLVALUE PUSH2 0x25E JUMPI PUSH1 0x20 CALLDATASIZE PUSH1 0x3 NOT ADD SLT PUSH2 0x25E JUMPI PUSH2 0x1A0 PUSH2 0x119C JUMP JUMPDEST PUSH2 0x1A8 PUSH2 0x11B2 JUMP JUMPDEST PUSH1 0x1 PUSH1 0x1 PUSH1 0xA0 SHL SUB DUP2 DUP2 AND SWAP4 SWAP1 SWAP3 SWAP1 DUP5 ISZERO PUSH2 0x20C JUMPI POP POP PUSH1 0x1 DUP1 SLOAD PUSH2 0x100 PUSH1 0x1 PUSH1 0xA8 SHL SUB NOT DUP2 AND PUSH1 0x8 SWAP4 DUP5 SHL PUSH2 0x100 PUSH1 0x1 PUSH1 0xA8 SHL SUB AND OR SWAP1 SWAP2 SSTORE SWAP1 SHR AND PUSH32 0x8BE0079C531659141344CD1FD0A4F28419497F9722A3DAAFE3B4186F6B6457E0 DUP4 DUP1 LOG3 DUP1 RETURN JUMPDEST SWAP1 PUSH1 0x20 PUSH1 0x84 SWAP3 MLOAD SWAP2 PUSH3 0x461BCD PUSH1 0xE5 SHL DUP4 MSTORE DUP3 ADD MSTORE PUSH1 0x26 PUSH1 0x24 DUP3 ADD MSTORE PUSH32 0x4F776E61626C653A206E6577206F776E657220697320746865207A65726F2061 PUSH1 0x44 DUP3 ADD MSTORE PUSH6 0x646472657373 PUSH1 0xD0 SHL PUSH1 0x64 DUP3 ADD MSTORE REVERT JUMPDEST DUP3 DUP1 REVERT JUMPDEST DUP4 DUP3 CALLVALUE PUSH2 0x2A3 JUMPI PUSH1 0x20 CALLDATASIZE PUSH1 0x3 NOT ADD SLT PUSH2 0x2A3 JUMPI PUSH2 0x27D PUSH2 0x119C JUMP JUMPDEST PUSH2 0x285 PUSH2 0x11B2 JUMP JUMPDEST DUP2 SLOAD PUSH1 0x1 PUSH1 0x1 PUSH1 0xA0 SHL SUB NOT AND PUSH1 0x1 PUSH1 0x1 PUSH1 0xA0 SHL SUB SWAP2 SWAP1 SWAP2 AND OR SWAP1 SSTORE DUP1 RETURN JUMPDEST POP DUP1 REVERT JUMPDEST POP SWAP2 CALLVALUE PUSH2 0x307 JUMPI DUP1 PUSH1 0x3 NOT CALLDATASIZE ADD SLT PUSH2 0x307 JUMPI PUSH2 0x2C8 PUSH1 0xC SLOAD PUSH1 0x5 SLOAD SWAP1 PUSH2 0x1256 JUMP JUMPDEST SWAP3 PUSH2 0x3E8 SWAP4 DUP5 DUP2 MUL SWAP5 DUP2 DUP7 DIV EQ SWAP1 ISZERO OR ISZERO PUSH2 0x2F4 JUMPI PUSH1 0x20 DUP4 PUSH2 0x2ED DUP7 PUSH1 0xB SLOAD SWAP1 PUSH2 0x1236 JUMP JUMPDEST SWAP1 MLOAD SWAP1 DUP2 MSTORE RETURN JUMPDEST PUSH4 0x4E487B71 PUSH1 0xE0 SHL DUP3 MSTORE PUSH1 0x11 SWAP1 MSTORE PUSH1 0x24 SWAP1 REVERT JUMPDEST DUP1 REVERT JUMPDEST POP SWAP2 CALLVALUE PUSH2 0x307 JUMPI DUP1 PUSH1 0x3 NOT CALLDATASIZE ADD SLT PUSH2 0x307 JUMPI PUSH2 0x324 PUSH2 0x1392 JUMP JUMPDEST PUSH1 0x2 SLOAD DUP3 MLOAD PUSH4 0x70A08231 PUSH1 0xE0 SHL DUP2 MSTORE CALLER DUP2 DUP7 ADD MSTORE PUSH1 0x20 SWAP5 SWAP1 SWAP3 PUSH1 0x1 PUSH1 0x1 PUSH1 0xA0 SHL SUB SWAP3 DUP4 AND SWAP3 DUP7 DUP6 PUSH1 0x24 DUP2 DUP8 GAS STATICCALL SWAP5 DUP6 ISZERO PUSH2 0x434 JUMPI DUP3 SWAP6 PUSH2 0x475 JUMPI JUMPDEST POP DUP6 MLOAD PUSH4 0x23B872DD PUSH1 0xE0 SHL DUP2 MSTORE DUP6 SWAP5 DUP9 SWAP1 DUP3 SWAP1 DUP2 DUP7 DUP2 PUSH2 0x383 DUP12 ADDRESS CALLER DUP14 DUP6 ADD PUSH2 0x1370 JUMP JUMPDEST SUB SWAP3 GAS CALL DUP1 ISZERO PUSH2 0x46B JUMPI SWAP2 DUP9 SWAP2 DUP6 SWAP4 PUSH2 0x43E JUMPI JUMPDEST POP PUSH1 0x2 SLOAD AND DUP8 MLOAD SWAP3 DUP4 DUP1 SWAP3 PUSH4 0x313CE567 PUSH1 0xE0 SHL DUP3 MSTORE GAS STATICCALL SWAP1 DUP2 ISZERO PUSH2 0x434 JUMPI SWAP1 PUSH1 0xFF SWAP2 DUP4 SWAP2 PUSH2 0x407 JUMPI JUMPDEST POP AND PUSH1 0x12 DUP2 LT PUSH2 0x3D7 JUMPI JUMPDEST DUP7 DUP7 PUSH2 0x2ED CALLER DUP8 PUSH2 0x142C JUMP JUMPDEST SWAP1 SWAP2 SWAP3 POP PUSH1 0x12 SUB SWAP2 PUSH1 0x12 DUP4 GT PUSH2 0x2F4 JUMPI POP POP PUSH2 0x2ED SWAP2 PUSH2 0x3F9 PUSH2 0x3FF SWAP3 PUSH2 0x12B4 JUMP JUMPDEST SWAP1 PUSH2 0x120D JUMP JUMPDEST CODESIZE DUP1 DUP1 PUSH2 0x3CB JUMP JUMPDEST PUSH2 0x427 SWAP2 POP DUP9 RETURNDATASIZE DUP11 GT PUSH2 0x42D JUMPI JUMPDEST PUSH2 0x41F DUP2 DUP4 PUSH2 0x1263 JUMP JUMPDEST DUP2 ADD SWAP1 PUSH2 0x129B JUMP JUMPDEST CODESIZE PUSH2 0x3C0 JUMP JUMPDEST POP RETURNDATASIZE PUSH2 0x415 JUMP JUMPDEST DUP7 MLOAD RETURNDATASIZE DUP5 DUP3 RETURNDATACOPY RETURNDATASIZE SWAP1 REVERT JUMPDEST PUSH2 0x45D SWAP1 DUP4 RETURNDATASIZE DUP6 GT PUSH2 0x464 JUMPI JUMPDEST PUSH2 0x455 DUP2 DUP4 PUSH2 0x1263 JUMP JUMPDEST DUP2 ADD SWAP1 PUSH2 0x1358 JUMP JUMPDEST POP CODESIZE PUSH2 0x397 JUMP JUMPDEST POP RETURNDATASIZE PUSH2 0x44B JUMP JUMPDEST DUP8 MLOAD RETURNDATASIZE DUP6 DUP3 RETURNDATACOPY RETURNDATASIZE SWAP1 REVERT JUMPDEST SWAP1 SWAP5 POP DUP7 DUP2 DUP2 RETURNDATASIZE DUP4 GT PUSH2 0x49D JUMPI JUMPDEST PUSH2 0x48D DUP2 DUP4 PUSH2 0x1263 JUMP JUMPDEST DUP2 ADD SUB SLT PUSH2 0x2A3 JUMPI MLOAD SWAP4 CODESIZE PUSH2 0x35F JUMP JUMPDEST POP RETURNDATASIZE PUSH2 0x483 JUMP JUMPDEST POP POP CALLVALUE PUSH2 0x2A3 JUMPI DUP2 PUSH1 0x3 NOT CALLDATASIZE ADD SLT PUSH2 0x2A3 JUMPI PUSH1 0x3 SLOAD SWAP1 MLOAD PUSH1 0x1 PUSH1 0x1 PUSH1 0xA0 SHL SUB SWAP1 SWAP2 AND DUP2 MSTORE PUSH1 0x20 SWAP1 RETURN JUMPDEST POP POP CALLVALUE PUSH2 0x2A3 JUMPI PUSH1 0x20 CALLDATASIZE PUSH1 0x3 NOT ADD SLT PUSH2 0x2A3 JUMPI SWAP1 DUP2 SWAP1 PUSH1 0x1 PUSH1 0x1 PUSH1 0xA0 SHL SUB PUSH2 0x4F3 PUSH2 0x119C JUMP JUMPDEST AND DUP2 MSTORE PUSH1 0x9 PUSH1 0x20 MSTORE KECCAK256 PUSH1 0x1 DUP2 SLOAD SWAP2 ADD SLOAD DUP3 MLOAD SWAP2 DUP3 MSTORE PUSH1 0x20 DUP3 ADD MSTORE RETURN JUMPDEST POP POP CALLVALUE PUSH2 0x2A3 JUMPI DUP2 PUSH1 0x3 NOT CALLDATASIZE ADD SLT PUSH2 0x2A3 JUMPI PUSH1 0x20 SWAP1 PUSH1 0x7 SLOAD SWAP1 MLOAD SWAP1 DUP2 MSTORE RETURN JUMPDEST POP CALLVALUE PUSH2 0x25E JUMPI DUP3 PUSH1 0x3 NOT CALLDATASIZE ADD SLT PUSH2 0x25E JUMPI PUSH2 0x547 PUSH2 0x11B2 JUMP JUMPDEST PUSH1 0x1 SLOAD PUSH1 0xFF DUP2 AND ISZERO PUSH2 0x5D0 JUMPI POP PUSH1 0x1 SLOAD SWAP1 PUSH1 0xFF DUP3 AND ISZERO PUSH2 0x596 JUMPI POP PUSH1 0xFF NOT AND PUSH1 0x1 SSTORE MLOAD CALLER DUP2 MSTORE PUSH32 0x5DB9EE0A495BF2E6FF9C91A7834C1BA4FDD244A5E8AA4E537BD38AEAE4B073AA SWAP1 PUSH1 0x20 SWAP1 LOG1 DUP1 RETURN JUMPDEST PUSH1 0x64 SWAP1 PUSH1 0x20 DUP5 MLOAD SWAP2 PUSH3 0x461BCD PUSH1 0xE5 SHL DUP4 MSTORE DUP3 ADD MSTORE PUSH1 0x14 PUSH1 0x24 DUP3 ADD MSTORE PUSH20 0x14185D5CD8589B194E881B9BDD081C185D5CD959 PUSH1 0x62 SHL PUSH1 0x44 DUP3 ADD MSTORE REVERT JUMPDEST PUSH1 0x20 SWAP2 POP SWAP2 PUSH1 0x1 PUSH32 0x62E78CEA01BEE320CD4E420270B5EA74000D11B0C9F74754EBDBFC544B05A258 SWAP4 PUSH2 0x601 PUSH2 0x1392 JUMP JUMPDEST PUSH1 0xFF NOT AND OR PUSH1 0x1 SSTORE MLOAD CALLER DUP2 MSTORE LOG1 DUP1 RETURN JUMPDEST POP POP CALLVALUE PUSH2 0x2A3 JUMPI PUSH1 0x20 CALLDATASIZE PUSH1 0x3 NOT ADD SLT PUSH2 0x2A3 JUMPI PUSH1 0x20 SWAP2 PUSH1 0x1 SWAP1 DUP3 SWAP1 PUSH1 0x1 PUSH1 0x1 PUSH1 0xA0 SHL SUB PUSH2 0x63C PUSH2 0x119C JUMP JUMPDEST AND DUP2 MSTORE PUSH1 0x9 DUP6 MSTORE KECCAK256 ADD SLOAD SWAP1 MLOAD SWAP1 TIMESTAMP LT ISZERO DUP2 MSTORE RETURN JUMPDEST DUP1 DUP5 DUP5 CALLVALUE PUSH2 0x6DA JUMPI PUSH1 0x20 CALLDATASIZE PUSH1 0x3 NOT ADD SLT PUSH2 0x6DA JUMPI PUSH2 0x6A2 PUSH1 0x20 SWAP2 PUSH2 0x672 PUSH2 0x11B2 JUMP JUMPDEST PUSH1 0x3 SLOAD DUP5 MLOAD PUSH4 0x23B872DD PUSH1 0xE0 SHL DUP2 MSTORE SWAP6 DUP7 SWAP4 PUSH1 0x1 PUSH1 0x1 PUSH1 0xA0 SHL SUB SWAP1 SWAP3 AND SWAP3 DUP5 SWAP3 DUP4 SWAP2 DUP1 CALLDATALOAD SWAP1 ADDRESS SWAP1 CALLER SWAP1 DUP6 ADD PUSH2 0x1370 JUMP JUMPDEST SUB SWAP3 GAS CALL SWAP1 DUP2 ISZERO PUSH2 0x6D1 JUMPI POP PUSH2 0x6B6 JUMPI POP DUP1 RETURN JUMPDEST PUSH2 0x6CD SWAP1 PUSH1 0x20 RETURNDATASIZE DUP2 GT PUSH2 0x464 JUMPI PUSH2 0x455 DUP2 DUP4 PUSH2 0x1263 JUMP JUMPDEST POP DUP1 RETURN JUMPDEST MLOAD RETURNDATASIZE DUP5 DUP3 RETURNDATACOPY RETURNDATASIZE SWAP1 REVERT JUMPDEST POP POP REVERT JUMPDEST DUP4 DUP3 CALLVALUE PUSH2 0x2A3 JUMPI PUSH1 0x20 CALLDATASIZE PUSH1 0x3 NOT ADD SLT PUSH2 0x2A3 JUMPI PUSH2 0x6F9 PUSH2 0x11B2 JUMP JUMPDEST CALLDATALOAD PUSH1 0xC SSTORE DUP1 RETURN JUMPDEST POP POP CALLVALUE PUSH2 0x2A3 JUMPI DUP2 PUSH1 0x3 NOT CALLDATASIZE ADD SLT PUSH2 0x2A3 JUMPI PUSH1 0x20 SWAP1 PUSH1 0xC SLOAD SWAP1 MLOAD SWAP1 DUP2 MSTORE RETURN JUMPDEST DUP4 DUP3 CALLVALUE PUSH2 0x2A3 JUMPI PUSH1 0x20 CALLDATASIZE PUSH1 0x3 NOT ADD SLT PUSH2 0x2A3 JUMPI PUSH2 0x73A PUSH2 0x11B2 JUMP JUMPDEST CALLDATALOAD PUSH1 0xB SSTORE DUP1 RETURN JUMPDEST DUP4 DUP3 CALLVALUE PUSH2 0x2A3 JUMPI PUSH1 0x20 CALLDATASIZE PUSH1 0x3 NOT ADD SLT PUSH2 0x2A3 JUMPI CALLDATALOAD PUSH4 0xFFFFFFFF DUP2 AND DUP1 SWAP2 SUB PUSH2 0x2A3 JUMPI PUSH2 0x76B PUSH2 0x11B2 JUMP JUMPDEST PUSH4 0xFFFFFFFF NOT PUSH1 0x8 SLOAD AND OR PUSH1 0x8 SSTORE DUP1 RETURN JUMPDEST POP CALLVALUE PUSH2 0x25E JUMPI PUSH1 0x80 CALLDATASIZE PUSH1 0x3 NOT ADD SLT PUSH2 0x25E JUMPI PUSH2 0x796 PUSH2 0x119C JUMP JUMPDEST SWAP1 PUSH1 0x24 CALLDATALOAD SWAP1 PUSH1 0x1 PUSH1 0x1 PUSH1 0xA0 SHL SUB PUSH1 0x44 CALLDATALOAD DUP2 DUP2 AND SUB PUSH2 0x8AD JUMPI PUSH1 0x64 CALLDATALOAD PUSH8 0xFFFFFFFFFFFFFFFF DUP2 GT PUSH2 0x8A9 JUMPI PUSH2 0x7CD SWAP1 CALLDATASIZE SWAP1 DUP5 ADD PUSH2 0x1169 JUMP JUMPDEST POP POP PUSH2 0x7D7 PUSH2 0x13D6 JUMP JUMPDEST PUSH2 0x7DF PUSH2 0x1392 JUMP JUMPDEST PUSH1 0x2 SLOAD AND SWAP1 DUP2 ISZERO PUSH2 0x85A JUMPI DUP3 PUSH2 0x810 SWAP3 PUSH1 0x20 SWAP3 DUP9 DUP9 MLOAD DUP1 SWAP7 DUP2 SWAP6 DUP3 SWAP5 PUSH4 0x23B872DD PUSH1 0xE0 SHL DUP5 MSTORE ADDRESS SWAP1 CALLER SWAP1 DUP6 ADD PUSH2 0x1370 JUMP JUMPDEST SUB SWAP3 GAS CALL DUP1 ISZERO PUSH2 0x850 JUMPI PUSH2 0x82A SWAP5 POP PUSH2 0x832 JUMPI JUMPDEST POP PUSH2 0x142C JUMP JUMPDEST POP PUSH1 0x1 DUP2 SSTORE DUP1 RETURN JUMPDEST PUSH2 0x849 SWAP1 PUSH1 0x20 RETURNDATASIZE DUP2 GT PUSH2 0x464 JUMPI PUSH2 0x455 DUP2 DUP4 PUSH2 0x1263 JUMP JUMPDEST POP CODESIZE PUSH2 0x824 JUMP JUMPDEST DUP5 MLOAD RETURNDATASIZE DUP8 DUP3 RETURNDATACOPY RETURNDATASIZE SWAP1 REVERT JUMPDEST PUSH1 0x84 SWAP1 PUSH1 0x20 DUP7 MLOAD SWAP2 PUSH3 0x461BCD PUSH1 0xE5 SHL DUP4 MSTORE DUP3 ADD MSTORE PUSH1 0x23 PUSH1 0x24 DUP3 ADD MSTORE PUSH32 0x44796E616D696345617465723A20546F6B656E2061646472657373206E6F7420 PUSH1 0x44 DUP3 ADD MSTORE PUSH3 0x1CD95D PUSH1 0xEA SHL PUSH1 0x64 DUP3 ADD MSTORE REVERT JUMPDEST DUP7 DUP1 REVERT JUMPDEST DUP6 DUP1 REVERT JUMPDEST POP POP CALLVALUE PUSH2 0x2A3 JUMPI DUP2 PUSH1 0x3 NOT CALLDATASIZE ADD SLT PUSH2 0x2A3 JUMPI PUSH1 0x1 SLOAD SWAP1 MLOAD PUSH1 0x8 SWAP2 SWAP1 SWAP2 SHR PUSH1 0x1 PUSH1 0x1 PUSH1 0xA0 SHL SUB AND DUP2 MSTORE PUSH1 0x20 SWAP1 RETURN JUMPDEST DUP4 CALLVALUE PUSH2 0x307 JUMPI DUP1 PUSH1 0x3 NOT CALLDATASIZE ADD SLT PUSH2 0x307 JUMPI PUSH2 0x8F7 PUSH2 0x11B2 JUMP JUMPDEST PUSH1 0x1 DUP1 SLOAD PUSH2 0x100 PUSH1 0x1 PUSH1 0xA8 SHL SUB NOT DUP2 AND SWAP1 SWAP2 SSTORE DUP2 SWAP1 PUSH1 0x8 SHR PUSH1 0x1 PUSH1 0x1 PUSH1 0xA0 SHL SUB AND PUSH32 0x8BE0079C531659141344CD1FD0A4F28419497F9722A3DAAFE3B4186F6B6457E0 DUP3 DUP1 LOG3 DUP1 RETURN JUMPDEST POP POP CALLVALUE PUSH2 0x2A3 JUMPI PUSH1 0x20 CALLDATASIZE PUSH1 0x3 NOT ADD SLT PUSH2 0x2A3 JUMPI PUSH1 0x20 SWAP2 DUP2 SWAP1 PUSH1 0x1 PUSH1 0x1 PUSH1 0xA0 SHL SUB PUSH2 0x967 PUSH2 0x119C JUMP JUMPDEST AND DUP2 MSTORE PUSH1 0x9 DUP5 MSTORE KECCAK256 SLOAD SWAP1 MLOAD SWAP1 DUP2 MSTORE RETURN JUMPDEST POP CALLVALUE PUSH2 0x25E JUMPI DUP3 PUSH1 0x3 NOT CALLDATASIZE ADD SLT PUSH2 0x25E JUMPI PUSH1 0x2 SLOAD DUP3 MLOAD PUSH4 0x313CE567 PUSH1 0xE0 SHL DUP2 MSTORE SWAP2 PUSH1 0x20 SWAP2 DUP4 SWAP2 SWAP1 DUP3 SWAP1 PUSH1 0x1 PUSH1 0x1 PUSH1 0xA0 SHL SUB AND GAS STATICCALL SWAP1 DUP2 ISZERO PUSH2 0x9EE JUMPI PUSH1 0xFF PUSH2 0x2ED SWAP3 PUSH2 0x9CC SWAP3 PUSH1 0x20 SWAP7 SWAP2 PUSH2 0x9D1 JUMPI JUMPDEST POP AND PUSH2 0x12B4 JUMP JUMPDEST PUSH2 0x12CF JUMP JUMPDEST PUSH2 0x9E8 SWAP2 POP DUP7 RETURNDATASIZE DUP2 GT PUSH2 0x42D JUMPI PUSH2 0x41F DUP2 DUP4 PUSH2 0x1263 JUMP JUMPDEST CODESIZE PUSH2 0x9C5 JUMP JUMPDEST POP POP MLOAD SWAP1 RETURNDATASIZE SWAP1 DUP3 RETURNDATACOPY RETURNDATASIZE SWAP1 REVERT JUMPDEST POP CALLVALUE PUSH2 0x25E JUMPI DUP3 PUSH1 0x3 NOT CALLDATASIZE ADD SLT PUSH2 0x25E JUMPI SLOAD SWAP1 MLOAD PUSH1 0x1 PUSH1 0x1 PUSH1 0xA0 SHL SUB SWAP1 SWAP2 AND DUP2 MSTORE PUSH1 0x20 SWAP2 POP RETURN JUMPDEST POP POP CALLVALUE PUSH2 0x2A3 JUMPI DUP2 PUSH1 0x3 NOT CALLDATASIZE ADD SLT PUSH2 0x2A3 JUMPI PUSH1 0x20 SWAP1 PUSH1 0xFF PUSH1 0x1 SLOAD AND SWAP1 MLOAD SWAP1 ISZERO ISZERO DUP2 MSTORE RETURN JUMPDEST POP SWAP2 CALLVALUE PUSH2 0x307 JUMPI PUSH1 0x20 SWAP3 DUP4 PUSH1 0x3 NOT CALLDATASIZE ADD SLT PUSH2 0x2A3 JUMPI PUSH1 0x2 SLOAD DUP4 MLOAD PUSH4 0x313CE567 PUSH1 0xE0 SHL DUP1 DUP3 MSTORE DUP4 CALLDATALOAD SWAP5 SWAP3 PUSH1 0x1 PUSH1 0x1 PUSH1 0xA0 SHL SUB AND SWAP2 DUP8 DUP2 DUP7 DUP2 DUP7 GAS STATICCALL SWAP1 DUP2 ISZERO PUSH2 0xB52 JUMPI PUSH1 0xFF DUP10 SWAP4 SWAP3 PUSH1 0x12 SWAP3 DUP8 SWAP2 PUSH2 0xB35 JUMPI JUMPDEST POP AND LT PUSH2 0xAA8 JUMPI JUMPDEST POP DUP6 PUSH2 0x2ED DUP7 PUSH2 0x12CF JUMP JUMPDEST DUP5 DUP8 MLOAD DUP1 SWAP5 DUP2 SWAP4 DUP3 MSTORE GAS STATICCALL SWAP1 DUP2 ISZERO PUSH2 0xB2B JUMPI SWAP1 PUSH1 0xFF SWAP2 DUP4 SWAP2 PUSH2 0xB0E JUMPI JUMPDEST POP AND PUSH1 0x12 SUB PUSH1 0xFF DUP2 GT PUSH2 0xAFB JUMPI PUSH1 0xFF AND SWAP2 PUSH1 0x4D DUP4 GT PUSH2 0x2F4 JUMPI POP POP PUSH2 0x2ED SWAP2 PUSH2 0xAF1 SWAP2 PUSH1 0xA EXP SWAP1 PUSH2 0x120D JUMP JUMPDEST SWAP1 CODESIZE DUP1 DUP6 DUP2 PUSH2 0xA9D JUMP JUMPDEST POP PUSH1 0x11 PUSH1 0x24 SWAP3 PUSH4 0x4E487B71 PUSH1 0xE0 SHL DUP4 MSTORE MSTORE REVERT JUMPDEST PUSH2 0xB25 SWAP2 POP DUP8 RETURNDATASIZE DUP10 GT PUSH2 0x42D JUMPI PUSH2 0x41F DUP2 DUP4 PUSH2 0x1263 JUMP JUMPDEST CODESIZE PUSH2 0xAC5 JUMP JUMPDEST DUP6 MLOAD RETURNDATASIZE DUP5 DUP3 RETURNDATACOPY RETURNDATASIZE SWAP1 REVERT JUMPDEST PUSH2 0xB4C SWAP2 POP DUP6 RETURNDATASIZE DUP8 GT PUSH2 0x42D JUMPI PUSH2 0x41F DUP2 DUP4 PUSH2 0x1263 JUMP JUMPDEST CODESIZE PUSH2 0xA95 JUMP JUMPDEST DUP8 MLOAD RETURNDATASIZE DUP7 DUP3 RETURNDATACOPY RETURNDATASIZE SWAP1 REVERT JUMPDEST POP SWAP1 CALLVALUE PUSH2 0x25E JUMPI DUP3 PUSH1 0x3 NOT CALLDATASIZE ADD SLT PUSH2 0x25E JUMPI PUSH2 0xB76 PUSH2 0x1392 JUMP JUMPDEST PUSH4 0xFFFFFFFF PUSH1 0x8 SLOAD AND ISZERO PUSH2 0xBE9 JUMPI JUMPDEST CALLER DUP4 MSTORE PUSH1 0x9 PUSH1 0x20 MSTORE PUSH1 0x1 DUP2 DUP5 KECCAK256 ADD SLOAD TIMESTAMP LT PUSH2 0xBA6 JUMPI DUP3 PUSH2 0xBA3 PUSH2 0x166B JUMP JUMPDEST DUP1 RETURN JUMPDEST SWAP1 PUSH1 0x20 PUSH1 0x64 SWAP3 MLOAD SWAP2 PUSH3 0x461BCD PUSH1 0xE5 SHL DUP4 MSTORE DUP3 ADD MSTORE PUSH1 0x1F PUSH1 0x24 DUP3 ADD MSTORE PUSH32 0x44796E616D696345617465723A2056657374696E67206E6F7420656E64656400 PUSH1 0x44 DUP3 ADD MSTORE REVERT JUMPDEST PUSH2 0xBF1 PUSH2 0x166B JUMP JUMPDEST PUSH2 0xB85 JUMP JUMPDEST POP POP CALLVALUE PUSH2 0x2A3 JUMPI PUSH1 0x20 CALLDATASIZE PUSH1 0x3 NOT ADD SLT PUSH2 0x2A3 JUMPI PUSH2 0xC11 PUSH2 0x119C JUMP JUMPDEST PUSH2 0xC19 PUSH2 0x11B2 JUMP JUMPDEST PUSH1 0x1 PUSH1 0x1 PUSH1 0xA0 SHL SUB AND DUP3 MSTORE PUSH1 0xA PUSH1 0x20 MSTORE DUP2 KECCAK256 DUP1 SLOAD PUSH1 0xFF NOT AND PUSH1 0x1 OR SWAP1 SSTORE DUP1 RETURN JUMPDEST POP POP CALLVALUE PUSH2 0x2A3 JUMPI PUSH1 0x20 CALLDATASIZE PUSH1 0x3 NOT ADD SLT PUSH2 0x2A3 JUMPI PUSH1 0x20 SWAP2 PUSH1 0xFF SWAP1 DUP3 SWAP1 PUSH1 0x1 PUSH1 0x1 PUSH1 0xA0 SHL SUB PUSH2 0xC64 PUSH2 0x119C JUMP JUMPDEST AND DUP2 MSTORE PUSH1 0xA DUP6 MSTORE KECCAK256 SLOAD AND SWAP1 MLOAD SWAP1 ISZERO ISZERO DUP2 MSTORE RETURN JUMPDEST POP SWAP2 SWAP1 CALLVALUE PUSH2 0x2A3 JUMPI DUP2 PUSH1 0x3 NOT CALLDATASIZE ADD SLT PUSH2 0x2A3 JUMPI PUSH2 0xC92 PUSH2 0x11B2 JUMP JUMPDEST PUSH1 0x3 SLOAD DUP2 MLOAD PUSH4 0x70A08231 PUSH1 0xE0 SHL DUP2 MSTORE ADDRESS DUP6 DUP3 ADD MSTORE SWAP4 PUSH1 0x20 SWAP3 SWAP2 PUSH1 0x1 PUSH1 0x1 PUSH1 0xA0 SHL SUB SWAP1 DUP2 AND SWAP2 SWAP1 DUP5 DUP8 PUSH1 0x24 DUP2 DUP7 GAS STATICCALL SWAP7 DUP8 ISZERO PUSH2 0xDC9 JUMPI DUP7 SWAP8 PUSH2 0xD9A JUMPI JUMPDEST POP DUP7 ISZERO PUSH2 0xD4D JUMPI PUSH1 0x1 SLOAD DUP5 MLOAD PUSH4 0xA9059CBB PUSH1 0xE0 SHL DUP2 MSTORE PUSH1 0x1 PUSH1 0x1 PUSH1 0xA0 SHL SUB PUSH1 0x8 SWAP3 SWAP1 SWAP3 SHR SWAP1 SWAP3 AND AND SWAP2 DUP2 ADD SWAP2 DUP3 MSTORE PUSH1 0x20 DUP3 ADD DUP8 SWAP1 MSTORE SWAP3 SWAP2 DUP5 SWAP2 DUP5 SWAP2 SWAP1 DUP3 SWAP1 DUP9 SWAP1 DUP3 SWAP1 PUSH1 0x40 ADD SUB SWAP3 GAS CALL SWAP1 DUP2 ISZERO PUSH2 0xD44 JUMPI POP PUSH2 0xD27 JUMPI DUP3 DUP1 RETURN JUMPDEST DUP2 PUSH2 0xD3D SWAP3 SWAP1 RETURNDATASIZE LT PUSH2 0x464 JUMPI PUSH2 0x455 DUP2 DUP4 PUSH2 0x1263 JUMP JUMPDEST POP DUP2 DUP1 DUP3 DUP1 RETURN JUMPDEST MLOAD RETURNDATASIZE DUP6 DUP3 RETURNDATACOPY RETURNDATASIZE SWAP1 REVERT JUMPDEST DUP4 MLOAD PUSH3 0x461BCD PUSH1 0xE5 SHL DUP2 MSTORE DUP1 DUP4 ADD DUP7 SWAP1 MSTORE PUSH1 0x21 PUSH1 0x24 DUP3 ADD MSTORE PUSH32 0x44796E616D696345617465723A204E6F2062616C616E636520746F2073776565 PUSH1 0x44 DUP3 ADD MSTORE PUSH1 0x7 PUSH1 0xFC SHL PUSH1 0x64 DUP3 ADD MSTORE PUSH1 0x84 SWAP1 REVERT JUMPDEST SWAP1 SWAP7 POP DUP5 DUP2 DUP2 RETURNDATASIZE DUP4 GT PUSH2 0xDC2 JUMPI JUMPDEST PUSH2 0xDB2 DUP2 DUP4 PUSH2 0x1263 JUMP JUMPDEST DUP2 ADD SUB SLT PUSH2 0x8AD JUMPI MLOAD SWAP6 CODESIZE PUSH2 0xCCE JUMP JUMPDEST POP RETURNDATASIZE PUSH2 0xDA8 JUMP JUMPDEST DUP5 MLOAD RETURNDATASIZE DUP9 DUP3 RETURNDATACOPY RETURNDATASIZE SWAP1 REVERT JUMPDEST POP POP CALLVALUE PUSH2 0x2A3 JUMPI DUP2 PUSH1 0x3 NOT CALLDATASIZE ADD SLT PUSH2 0x2A3 JUMPI PUSH1 0x20 SWAP1 PUSH1 0xB SLOAD SWAP1 MLOAD SWAP1 DUP2 MSTORE RETURN JUMPDEST POP CALLVALUE PUSH2 0x25E JUMPI PUSH1 0x20 SWAP3 DUP4 PUSH1 0x3 NOT CALLDATASIZE ADD SLT PUSH2 0x307 JUMPI DUP2 CALLDATALOAD SWAP2 PUSH2 0xE11 PUSH2 0x1392 JUMP JUMPDEST PUSH1 0x2 SLOAD DUP5 MLOAD PUSH4 0x70A08231 PUSH1 0xE0 SHL DUP2 MSTORE CALLER DUP4 DUP3 ADD MSTORE DUP5 SWAP4 SWAP2 PUSH1 0x1 PUSH1 0x1 PUSH1 0xA0 SHL SUB SWAP2 SWAP1 DUP3 AND SWAP1 DUP9 DUP2 PUSH1 0x24 DUP2 DUP6 GAS STATICCALL DUP1 ISZERO PUSH2 0xEAD JUMPI DUP8 SWAP1 DUP6 SWAP1 PUSH2 0xE78 JUMPI JUMPDEST PUSH2 0xE58 SWAP3 POP LT ISZERO PUSH2 0x12FA JUMP JUMPDEST DUP8 DUP8 MLOAD DUP1 SWAP3 PUSH4 0x23B872DD PUSH1 0xE0 SHL DUP3 MSTORE DUP2 DUP7 DUP2 PUSH2 0x383 DUP13 ADDRESS CALLER DUP14 DUP6 ADD PUSH2 0x1370 JUMP JUMPDEST POP POP DUP9 DUP2 DUP2 RETURNDATASIZE DUP4 GT PUSH2 0xEA6 JUMPI JUMPDEST PUSH2 0xE8F DUP2 DUP4 PUSH2 0x1263 JUMP JUMPDEST DUP2 ADD SUB SLT PUSH2 0xEA2 JUMPI DUP7 PUSH2 0xE58 SWAP2 MLOAD PUSH2 0xE4C JUMP JUMPDEST DUP4 DUP1 REVERT JUMPDEST POP RETURNDATASIZE PUSH2 0xE85 JUMP JUMPDEST DUP9 MLOAD RETURNDATASIZE DUP7 DUP3 RETURNDATACOPY RETURNDATASIZE SWAP1 REVERT JUMPDEST POP POP CALLVALUE PUSH2 0x2A3 JUMPI DUP2 PUSH1 0x3 NOT CALLDATASIZE ADD SLT PUSH2 0x2A3 JUMPI PUSH1 0x2 SLOAD SWAP1 MLOAD PUSH1 0x1 PUSH1 0x1 PUSH1 0xA0 SHL SUB SWAP1 SWAP2 AND DUP2 MSTORE PUSH1 0x20 SWAP1 RETURN JUMPDEST SWAP3 SWAP1 POP CALLVALUE PUSH2 0x6DA JUMPI PUSH1 0x60 CALLDATASIZE PUSH1 0x3 NOT ADD SLT PUSH2 0x6DA JUMPI PUSH1 0x1 PUSH1 0x1 PUSH1 0xA0 SHL SUB PUSH1 0x24 CALLDATALOAD DUP2 DUP2 AND SWAP1 DUP5 CALLDATALOAD SWAP1 DUP3 SWAP1 SUB PUSH2 0x8AD JUMPI PUSH1 0x44 CALLDATALOAD PUSH8 0xFFFFFFFFFFFFFFFF DUP2 GT PUSH2 0x8A9 JUMPI PUSH2 0xF2C SWAP1 CALLDATASIZE SWAP1 DUP8 ADD PUSH2 0x1169 JUMP JUMPDEST SWAP7 SWAP1 SWAP6 PUSH2 0xF37 PUSH2 0x13D6 JUMP JUMPDEST PUSH2 0xF3F PUSH2 0x1392 JUMP JUMPDEST PUSH1 0x2 SLOAD DUP7 MLOAD PUSH4 0x70A08231 PUSH1 0xE0 SHL DUP2 MSTORE CALLER DUP4 DUP3 ADD MSTORE PUSH1 0x20 SWAP10 SWAP2 DUP8 AND SWAP1 DUP11 DUP2 PUSH1 0x24 DUP2 DUP6 GAS STATICCALL DUP1 ISZERO PUSH2 0x111E JUMPI DUP7 SWAP1 DUP7 SWAP1 PUSH2 0x10E9 JUMPI JUMPDEST PUSH2 0xF7D SWAP3 POP LT ISZERO PUSH2 0x12FA JUMP JUMPDEST DUP10 DUP9 MLOAD DUP1 SWAP3 PUSH4 0x23B872DD PUSH1 0xE0 SHL DUP3 MSTORE DUP2 DUP8 DUP2 PUSH2 0xF9D DUP12 ADDRESS CALLER DUP13 DUP6 ADD PUSH2 0x1370 JUMP JUMPDEST SUB SWAP3 GAS CALL DUP1 ISZERO PUSH2 0xEAD JUMPI PUSH2 0x10CC JUMPI JUMPDEST POP PUSH2 0xFB7 CALLER DUP6 PUSH2 0x142C JUMP JUMPDEST POP PUSH1 0x2 SLOAD DUP8 MLOAD PUSH4 0x95EA7B3 PUSH1 0xE0 SHL DUP2 MSTORE PUSH1 0x1 PUSH1 0x1 PUSH1 0xA0 SHL SUB DUP8 AND DUP5 DUP3 ADD SWAP1 DUP2 MSTORE PUSH1 0x20 DUP2 ADD DUP8 SWAP1 MSTORE SWAP1 SWAP2 DUP12 SWAP2 DUP4 SWAP2 DUP11 AND SWAP1 DUP3 SWAP1 DUP9 SWAP1 DUP3 SWAP1 PUSH1 0x40 ADD SUB SWAP3 GAS CALL DUP1 ISZERO PUSH2 0xEAD JUMPI SWAP2 DUP11 SWAP8 SWAP7 SWAP6 SWAP5 SWAP4 SWAP2 PUSH1 0xA4 SWAP4 PUSH2 0x10AF JUMPI JUMPDEST POP DUP1 DUP8 DUP4 SLOAD AND DUP1 ISZERO PUSH1 0x0 EQ PUSH2 0x10A9 JUMPI POP ADDRESS SWAP11 JUMPDEST DUP9 PUSH1 0x2 SLOAD AND SWAP9 DUP12 MLOAD SWAP13 DUP14 SWAP11 DUP12 SWAP10 DUP11 SWAP8 PUSH4 0x2454B71 PUSH1 0xE4 SHL DUP10 MSTORE DUP9 ADD MSTORE PUSH1 0x24 DUP8 ADD MSTORE AND PUSH1 0x44 DUP6 ADD MSTORE PUSH1 0x80 PUSH1 0x64 DUP6 ADD MSTORE DUP2 PUSH1 0x84 DUP6 ADD MSTORE DUP5 DUP5 ADD CALLDATACOPY DUP2 DUP2 ADD DUP4 ADD DUP5 SWAP1 MSTORE PUSH1 0x1F ADD PUSH1 0x1F NOT AND DUP2 ADD SUB ADD SWAP3 GAS CALL SWAP1 DUP2 ISZERO PUSH2 0xD44 JUMPI POP PUSH2 0x1080 JUMPI JUMPDEST DUP3 PUSH1 0x1 DUP2 SSTORE DUP1 RETURN JUMPDEST DUP2 RETURNDATASIZE DUP4 GT PUSH2 0x10A2 JUMPI JUMPDEST PUSH2 0x1093 DUP2 DUP4 PUSH2 0x1263 JUMP JUMPDEST DUP2 ADD SUB SLT PUSH2 0x307 JUMPI CODESIZE DUP1 PUSH2 0x1078 JUMP JUMPDEST POP RETURNDATASIZE PUSH2 0x1089 JUMP JUMPDEST SWAP11 PUSH2 0x101D JUMP JUMPDEST PUSH2 0x10C5 SWAP1 DUP10 RETURNDATASIZE DUP12 GT PUSH2 0x464 JUMPI PUSH2 0x455 DUP2 DUP4 PUSH2 0x1263 JUMP JUMPDEST POP CODESIZE PUSH2 0x100A JUMP JUMPDEST PUSH2 0x10E2 SWAP1 DUP11 RETURNDATASIZE DUP13 GT PUSH2 0x464 JUMPI PUSH2 0x455 DUP2 DUP4 PUSH2 0x1263 JUMP JUMPDEST POP CODESIZE PUSH2 0xFAC JUMP JUMPDEST POP POP DUP11 DUP2 DUP2 RETURNDATASIZE DUP4 GT PUSH2 0x1117 JUMPI JUMPDEST PUSH2 0x1100 DUP2 DUP4 PUSH2 0x1263 JUMP JUMPDEST DUP2 ADD SUB SLT PUSH2 0x1113 JUMPI DUP6 PUSH2 0xF7D SWAP2 MLOAD PUSH2 0xF71 JUMP JUMPDEST DUP5 DUP1 REVERT JUMPDEST POP RETURNDATASIZE PUSH2 0x10F6 JUMP JUMPDEST DUP10 MLOAD RETURNDATASIZE DUP8 DUP3 RETURNDATACOPY RETURNDATASIZE SWAP1 REVERT JUMPDEST POP POP CALLVALUE PUSH2 0x2A3 JUMPI DUP2 PUSH1 0x3 NOT CALLDATASIZE ADD SLT PUSH2 0x2A3 JUMPI PUSH1 0x20 SWAP1 PUSH1 0x5 SLOAD SWAP1 MLOAD SWAP1 DUP2 MSTORE RETURN JUMPDEST DUP5 SWAP1 CALLVALUE PUSH2 0x2A3 JUMPI DUP2 PUSH1 0x3 NOT CALLDATASIZE ADD SLT PUSH2 0x2A3 JUMPI PUSH1 0x20 SWAP1 PUSH4 0xFFFFFFFF PUSH1 0x8 SLOAD AND DUP2 MSTORE RETURN JUMPDEST SWAP2 DUP2 PUSH1 0x1F DUP5 ADD SLT ISZERO PUSH2 0x1197 JUMPI DUP3 CALLDATALOAD SWAP2 PUSH8 0xFFFFFFFFFFFFFFFF DUP4 GT PUSH2 0x1197 JUMPI PUSH1 0x20 DUP4 DUP2 DUP7 ADD SWAP6 ADD ADD GT PUSH2 0x1197 JUMPI JUMP JUMPDEST PUSH1 0x0 DUP1 REVERT JUMPDEST PUSH1 0x4 CALLDATALOAD SWAP1 PUSH1 0x1 PUSH1 0x1 PUSH1 0xA0 SHL SUB DUP3 AND DUP3 SUB PUSH2 0x1197 JUMPI JUMP JUMPDEST PUSH1 0x1 SLOAD PUSH1 0x8 SHR PUSH1 0x1 PUSH1 0x1 PUSH1 0xA0 SHL SUB AND CALLER SUB PUSH2 0x11C9 JUMPI JUMP JUMPDEST PUSH1 0x64 PUSH1 0x40 MLOAD PUSH3 0x461BCD PUSH1 0xE5 SHL DUP2 MSTORE PUSH1 0x20 PUSH1 0x4 DUP3 ADD MSTORE PUSH1 0x20 PUSH1 0x24 DUP3 ADD MSTORE PUSH32 0x4F776E61626C653A2063616C6C6572206973206E6F7420746865206F776E6572 PUSH1 0x44 DUP3 ADD MSTORE REVERT JUMPDEST DUP2 DUP2 MUL SWAP3 SWAP2 DUP2 ISZERO SWAP2 DUP5 DIV EQ OR ISZERO PUSH2 0x1220 JUMPI JUMP JUMPDEST PUSH4 0x4E487B71 PUSH1 0xE0 SHL PUSH1 0x0 MSTORE PUSH1 0x11 PUSH1 0x4 MSTORE PUSH1 0x24 PUSH1 0x0 REVERT JUMPDEST DUP2 ISZERO PUSH2 0x1240 JUMPI DIV SWAP1 JUMP JUMPDEST PUSH4 0x4E487B71 PUSH1 0xE0 SHL PUSH1 0x0 MSTORE PUSH1 0x12 PUSH1 0x4 MSTORE PUSH1 0x24 PUSH1 0x0 REVERT JUMPDEST SWAP2 SWAP1 DUP3 SUB SWAP2 DUP3 GT PUSH2 0x1220 JUMPI JUMP JUMPDEST SWAP1 PUSH1 0x1F DUP1 NOT SWAP2 ADD AND DUP2 ADD SWAP1 DUP2 LT PUSH8 0xFFFFFFFFFFFFFFFF DUP3 GT OR PUSH2 0x1285 JUMPI PUSH1 0x40 MSTORE JUMP JUMPDEST PUSH4 0x4E487B71 PUSH1 0xE0 SHL PUSH1 0x0 MSTORE PUSH1 0x41 PUSH1 0x4 MSTORE PUSH1 0x24 PUSH1 0x0 REVERT JUMPDEST SWAP1 DUP2 PUSH1 0x20 SWAP2 SUB SLT PUSH2 0x1197 JUMPI MLOAD PUSH1 0xFF DUP2 AND DUP2 SUB PUSH2 0x1197 JUMPI SWAP1 JUMP JUMPDEST PUSH1 0x4D DUP2 GT PUSH2 0x1220 JUMPI PUSH1 0xA EXP SWAP1 JUMP JUMPDEST SWAP2 SWAP1 DUP3 ADD DUP1 SWAP3 GT PUSH2 0x1220 JUMPI JUMP JUMPDEST PUSH2 0x12F7 SWAP1 PUSH2 0x12F2 PUSH2 0x12E2 DUP3 PUSH1 0xB SLOAD PUSH2 0x12C2 JUMP JUMPDEST SWAP2 PUSH2 0x3F9 PUSH1 0xC SLOAD PUSH1 0x5 SLOAD SWAP1 PUSH2 0x1256 JUMP JUMPDEST PUSH2 0x1236 JUMP JUMPDEST SWAP1 JUMP JUMPDEST ISZERO PUSH2 0x1301 JUMPI JUMP JUMPDEST PUSH1 0x40 MLOAD PUSH3 0x461BCD PUSH1 0xE5 SHL DUP2 MSTORE PUSH1 0x20 PUSH1 0x4 DUP3 ADD MSTORE PUSH1 0x29 PUSH1 0x24 DUP3 ADD MSTORE PUSH32 0x44796E616D696345617465723A20496E73756666696369656E742062616C616E PUSH1 0x44 DUP3 ADD MSTORE PUSH9 0x18D9481D1BC819585D PUSH1 0xBA SHL PUSH1 0x64 DUP3 ADD MSTORE PUSH1 0x84 SWAP1 REVERT JUMPDEST SWAP1 DUP2 PUSH1 0x20 SWAP2 SUB SLT PUSH2 0x1197 JUMPI MLOAD DUP1 ISZERO ISZERO DUP2 SUB PUSH2 0x1197 JUMPI SWAP1 JUMP JUMPDEST PUSH1 0x1 PUSH1 0x1 PUSH1 0xA0 SHL SUB SWAP2 DUP3 AND DUP2 MSTORE SWAP2 AND PUSH1 0x20 DUP3 ADD MSTORE PUSH1 0x40 DUP2 ADD SWAP2 SWAP1 SWAP2 MSTORE PUSH1 0x60 ADD SWAP1 JUMP JUMPDEST PUSH1 0xFF PUSH1 0x1 SLOAD AND PUSH2 0x139E JUMPI JUMP JUMPDEST PUSH1 0x40 MLOAD PUSH3 0x461BCD PUSH1 0xE5 SHL DUP2 MSTORE PUSH1 0x20 PUSH1 0x4 DUP3 ADD MSTORE PUSH1 0x10 PUSH1 0x24 DUP3 ADD MSTORE PUSH16 0x14185D5CD8589B194E881C185D5CD959 PUSH1 0x82 SHL PUSH1 0x44 DUP3 ADD MSTORE PUSH1 0x64 SWAP1 REVERT JUMPDEST PUSH1 0x2 PUSH1 0x0 SLOAD EQ PUSH2 0x13E7 JUMPI PUSH1 0x2 PUSH1 0x0 SSTORE JUMP JUMPDEST PUSH1 0x40 MLOAD PUSH3 0x461BCD PUSH1 0xE5 SHL DUP2 MSTORE PUSH1 0x20 PUSH1 0x4 DUP3 ADD MSTORE PUSH1 0x1F PUSH1 0x24 DUP3 ADD MSTORE PUSH32 0x5265656E7472616E637947756172643A207265656E7472616E742063616C6C00 PUSH1 0x44 DUP3 ADD MSTORE PUSH1 0x64 SWAP1 REVERT JUMPDEST PUSH2 0x1435 DUP2 PUSH2 0x12CF JUMP JUMPDEST PUSH1 0x3 SLOAD PUSH1 0x40 DUP1 MLOAD PUSH4 0x70A08231 PUSH1 0xE0 SHL DUP2 MSTORE ADDRESS PUSH1 0x4 DUP3 ADD MSTORE SWAP3 SWAP5 PUSH1 0x20 SWAP4 SWAP2 SWAP3 PUSH1 0x1 PUSH1 0x1 PUSH1 0xA0 SHL SUB SWAP3 SWAP1 DUP4 AND SWAP1 DUP6 DUP2 PUSH1 0x24 DUP2 DUP6 GAS STATICCALL SWAP1 DUP2 ISZERO PUSH2 0x15D2 JUMPI PUSH1 0x0 SWAP2 PUSH2 0x163E JUMPI JUMPDEST POP DUP8 GT PUSH2 0x15DD JUMPI PUSH1 0x8 SLOAD PUSH4 0xFFFFFFFF SWAP2 SWAP1 DUP3 AND ISZERO PUSH2 0x1543 JUMPI POP DUP3 DUP3 AND SWAP5 DUP6 PUSH1 0x0 MSTORE PUSH1 0x9 DUP2 MSTORE PUSH2 0x14AA DUP6 PUSH1 0x0 KECCAK256 SLOAD DUP10 PUSH2 0x12C2 JUMP JUMPDEST SWAP2 PUSH1 0x3C DUP2 PUSH1 0x8 SLOAD AND MUL SWAP1 DUP2 AND SWAP1 DUP2 SUB PUSH2 0x1220 JUMPI PUSH2 0x14C7 SWAP1 TIMESTAMP PUSH2 0x12C2 JUMP JUMPDEST DUP6 MLOAD SWAP1 DUP7 DUP3 ADD SWAP1 DUP3 DUP3 LT PUSH8 0xFFFFFFFFFFFFFFFF DUP4 GT OR PUSH2 0x1285 JUMPI PUSH32 0xABE5455971BDCD932E7251D16CD53F88CD4410BF4DF21530E88BF13DADE6A7D4 SWAP9 DUP12 SWAP6 PUSH1 0x1 SWAP4 DUP11 MSTORE DUP5 MSTORE DUP5 DUP5 ADD SWAP2 DUP3 MSTORE PUSH1 0x0 MSTORE PUSH1 0x9 DUP5 MSTORE DUP8 PUSH1 0x0 KECCAK256 SWAP3 MLOAD DUP4 SSTORE MLOAD SWAP2 ADD SSTORE PUSH2 0x1531 DUP3 PUSH1 0x5 SLOAD PUSH2 0x12C2 JUMP JUMPDEST PUSH1 0x5 SSTORE JUMPDEST DUP5 MLOAD SWAP7 DUP8 MSTORE DUP7 ADD MSTORE AND SWAP3 LOG2 SWAP1 JUMP JUMPDEST DUP5 MLOAD PUSH4 0xA9059CBB PUSH1 0xE0 SHL DUP2 MSTORE PUSH1 0x1 PUSH1 0x1 PUSH1 0xA0 SHL SUB DUP5 AND PUSH1 0x4 DUP3 ADD MSTORE PUSH1 0x24 DUP2 ADD DUP10 SWAP1 MSTORE SWAP5 SWAP6 SWAP4 SWAP5 SWAP3 SWAP4 SWAP3 SWAP2 POP DUP3 SWAP1 DUP3 SWAP1 PUSH1 0x44 SWAP1 DUP3 SWAP1 PUSH1 0x0 SWAP1 GAS CALL DUP1 ISZERO PUSH2 0x15D2 JUMPI SWAP2 DUP8 SWAP2 PUSH32 0xABE5455971BDCD932E7251D16CD53F88CD4410BF4DF21530E88BF13DADE6A7D4 SWAP7 SWAP6 SWAP5 SWAP4 PUSH2 0x15B5 JUMPI JUMPDEST POP PUSH2 0x1535 JUMP JUMPDEST PUSH2 0x15CB SWAP1 DUP3 RETURNDATASIZE DUP5 GT PUSH2 0x464 JUMPI PUSH2 0x455 DUP2 DUP4 PUSH2 0x1263 JUMP JUMPDEST POP CODESIZE PUSH2 0x15AF JUMP JUMPDEST DUP6 MLOAD RETURNDATASIZE PUSH1 0x0 DUP3 RETURNDATACOPY RETURNDATASIZE SWAP1 REVERT JUMPDEST DUP4 MLOAD PUSH3 0x461BCD PUSH1 0xE5 SHL DUP2 MSTORE PUSH1 0x4 DUP2 ADD DUP7 SWAP1 MSTORE PUSH1 0x34 PUSH1 0x24 DUP3 ADD MSTORE PUSH32 0x44796E616D696345617465723A20496E73756666696369656E7420746F6B656E PUSH1 0x44 DUP3 ADD MSTORE PUSH20 0x103130B630B731B2903A37903A3930B739B332B9 PUSH1 0x61 SHL PUSH1 0x64 DUP3 ADD MSTORE PUSH1 0x84 SWAP1 REVERT JUMPDEST SWAP1 DUP7 DUP3 DUP2 RETURNDATASIZE DUP4 GT PUSH2 0x1664 JUMPI JUMPDEST PUSH2 0x1654 DUP2 DUP4 PUSH2 0x1263 JUMP JUMPDEST DUP2 ADD SUB SLT PUSH2 0x307 JUMPI POP MLOAD CODESIZE PUSH2 0x1477 JUMP JUMPDEST POP RETURNDATASIZE PUSH2 0x164A JUMP JUMPDEST CALLER PUSH1 0x0 DUP2 DUP2 MSTORE PUSH1 0x9 PUSH1 0x20 SWAP1 DUP2 MSTORE PUSH1 0x40 DUP1 DUP4 KECCAK256 DUP1 SLOAD SWAP1 DUP5 SWAP1 SSTORE PUSH1 0x3 SLOAD SWAP2 MLOAD PUSH4 0xA9059CBB PUSH1 0xE0 SHL DUP2 MSTORE PUSH1 0x4 DUP2 ADD SWAP6 SWAP1 SWAP6 MSTORE PUSH1 0x24 DUP6 ADD MSTORE SWAP1 SWAP2 DUP4 SWAP2 PUSH1 0x44 SWAP2 DUP4 SWAP2 PUSH1 0x1 PUSH1 0x1 PUSH1 0xA0 SHL SUB AND GAS CALL DUP1 ISZERO PUSH2 0x16DA JUMPI PUSH2 0x16C0 JUMPI POP JUMP JUMPDEST PUSH2 0x16D7 SWAP1 PUSH1 0x20 RETURNDATASIZE DUP2 GT PUSH2 0x464 JUMPI PUSH2 0x455 DUP2 DUP4 PUSH2 0x1263 JUMP JUMPDEST POP JUMP JUMPDEST PUSH1 0x40 MLOAD RETURNDATASIZE PUSH1 0x0 DUP3 RETURNDATACOPY RETURNDATASIZE SWAP1 REVERT INVALID LOG2 PUSH5 0x6970667358 0x22 SLT KECCAK256 0x23 SWAP8 0xE8 0xE0 SHL 0xD2 GASPRICE MSTORE SSTORE 0x2F PUSH12 0x46B965C5D7168B51B1098082 0xC1 SAR LT 0xAC DUP11 0xAC PUSH1 0x77 0xDD PUSH5 0x736F6C6343 STOP ADDMOD SGT STOP CALLER "
				},
				"methodIdentifiers": {
					"balanceOf(address)": "70a08231",
					"calculateTokensOut(uint256)": "4fa1f104",
					"canClaim(address)": "bf3506c1",
					"claim()": "4e71d92d",
					"deposit(uint256)": "b6b55f25",
					"getCurrentPrice()": "eb91d37e",
					"getRate()": "679aefce",
					"getToken()": "21df0da7",
					"maxSupply()": "d5abeb01",
					"merge(uint256)": "24a47aeb",
					"mergeAll()": "ea9f2417",
					"mergeAndSell(uint256,address,bytes)": "213897fe",
					"owner()": "8da5cb5b",
					"paused()": "5c975abb",
					"receiveApproval(address,uint256,address,bytes)": "8f4ffcb1",
					"renounceOwnership()": "715018a6",
					"setTreasury(address)": "f0f44260",
					"setVestingDuration(uint32)": "9636d881",
					"setVitualTokenBalance(uint256)": "98d722d7",
					"setVitualWeWEBalance(uint256)": "b3781272",
					"setWhiteList(address)": "39e899ee",
					"sweep()": "35faa416",
					"togglePause()": "c4ae3168",
					"totalVested()": "199cbc54",
					"transferOwnership(address)": "f2fde38b",
					"treasury()": "61d027b3",
					"vestingDuration()": "1514617e",
					"vestings(address)": "daf49863",
					"virtualFOMO()": "29b30c8d",
					"virtualWEWE()": "9ed4527e",
					"wewe()": "e1f26f22",
					"whiteList(address)": "372c12b1"
				}
			}
		}
	}
}