{
  "contracts/core/adaptors/Hack.sol": {
    "Hack": {
      "abi": [
        {
          "anonymous": false,
          "inputs": [
            {
              "indexed": false,
              "internalType": "uint256",
              "name": "amount",
              "type": "uint256"
            },
            {
              "indexed": false,
              "internalType": "uint256",
              "name": "amountOut",
              "type": "uint256"
            },
            {
              "indexed": false,
              "internalType": "address",
              "name": "token",
              "type": "address"
            },
            {
              "indexed": true,
              "internalType": "address",
              "name": "recipient",
              "type": "address"
            }
          ],
          "name": "Bought",
          "type": "event"
        },
        {
          "anonymous": false,
          "inputs": [
            {
              "indexed": false,
              "internalType": "uint256",
              "name": "amount",
              "type": "uint256"
            },
            {
              "indexed": false,
              "internalType": "uint256",
              "name": "amountOut",
              "type": "uint256"
            },
            {
              "indexed": false,
              "internalType": "address",
              "name": "token",
              "type": "address"
            },
            {
              "indexed": true,
              "internalType": "address",
              "name": "recipient",
              "type": "address"
            }
          ],
          "name": "Sold",
          "type": "event"
        },
        {
          "inputs": [
            {
              "internalType": "uint256",
              "name": "amount",
              "type": "uint256"
            },
            {
              "internalType": "address",
              "name": "token",
              "type": "address"
            },
            {
              "internalType": "address",
              "name": "recipient",
              "type": "address"
            },
            {
              "internalType": "bytes",
              "name": "extraData",
              "type": "bytes"
            }
          ],
          "name": "buy",
          "outputs": [
            {
              "internalType": "uint256",
              "name": "",
              "type": "uint256"
            }
          ],
          "stateMutability": "nonpayable",
          "type": "function"
        },
        {
          "inputs": [
            {
              "internalType": "uint256",
              "name": "amount",
              "type": "uint256"
            },
            {
              "internalType": "address",
              "name": "token",
              "type": "address"
            },
            {
              "internalType": "address",
              "name": "recipient",
              "type": "address"
            },
            {
              "internalType": "bytes",
              "name": "extraData",
              "type": "bytes"
            }
          ],
          "name": "sell",
          "outputs": [
            {
              "internalType": "uint256",
              "name": "",
              "type": "uint256"
            }
          ],
          "stateMutability": "nonpayable",
          "type": "function"
        },
        {
          "inputs": [
            {
              "internalType": "uint256",
              "name": "amount",
              "type": "uint256"
            },
            {
              "internalType": "address",
              "name": "token",
              "type": "address"
            },
            {
              "internalType": "address",
              "name": "recipient",
              "type": "address"
            },
            {
              "internalType": "bytes",
              "name": "extraData",
              "type": "bytes"
            }
          ],
          "name": "sellAndBuy",
          "outputs": [
            {
              "internalType": "uint256",
              "name": "",
              "type": "uint256"
            }
          ],
          "stateMutability": "nonpayable",
          "type": "function"
        }
      ],
      "evm": {
        "bytecode": {
          "linkReferences": {},
          "object": "60808060405234610016576101ee908161001c8239f35b600080fdfe608080604052600436101561001357600080fd5b600090813560e01c90816303679454146101385781632454b7101461005b575063987bb07b1461004257600080fd5b346100585761005036610143565b505050505080fd5b80fd5b90503461010e576020816064818561007236610143565b50506323b872dd60e01b85525033600485015273e92e74661f0582d52fc0051aedd6fdf4d26a1f86602485015260448401919091526001600160a01b03165af1801561012d576100c8575b602082604051908152f35b60203d8111610126575b601f8101601f1916820167ffffffffffffffff8111838210176101125760209183916040528101031261010e57518015150361005857386100bd565b5080fd5b634e487b7160e01b84526041600452602484fd5b503d6100d2565b6040513d84823e3d90fd5b823461005857610050365b60806003198201126101b357600435916001600160a01b039160243583811681036101b3579260443590811681036101b3579160643567ffffffffffffffff928382116101b357806023830112156101b35781600401359384116101b357602484830101116101b3576024019190565b600080fdfea2646970667358221220a880bab5f7c69efc0239af79b5432ab9ff5a4a1584454aaf6e6b54720023f95064736f6c63430008130033",
          "opcodes": "PUSH1 0x80 DUP1 PUSH1 0x40 MSTORE CALLVALUE PUSH2 0x16 JUMPI PUSH2 0x1EE SWAP1 DUP2 PUSH2 0x1C DUP3 CODECOPY RETURN JUMPDEST PUSH1 0x0 DUP1 REVERT INVALID PUSH1 0x80 DUP1 PUSH1 0x40 MSTORE PUSH1 0x4 CALLDATASIZE LT ISZERO PUSH2 0x13 JUMPI PUSH1 0x0 DUP1 REVERT JUMPDEST PUSH1 0x0 SWAP1 DUP2 CALLDATALOAD PUSH1 0xE0 SHR SWAP1 DUP2 PUSH4 0x3679454 EQ PUSH2 0x138 JUMPI DUP2 PUSH4 0x2454B710 EQ PUSH2 0x5B JUMPI POP PUSH4 0x987BB07B EQ PUSH2 0x42 JUMPI PUSH1 0x0 DUP1 REVERT JUMPDEST CALLVALUE PUSH2 0x58 JUMPI PUSH2 0x50 CALLDATASIZE PUSH2 0x143 JUMP JUMPDEST POP POP POP POP POP DUP1 REVERT JUMPDEST DUP1 REVERT JUMPDEST SWAP1 POP CALLVALUE PUSH2 0x10E JUMPI PUSH1 0x20 DUP2 PUSH1 0x64 DUP2 DUP6 PUSH2 0x72 CALLDATASIZE PUSH2 0x143 JUMP JUMPDEST POP POP PUSH4 0x23B872DD PUSH1 0xE0 SHL DUP6 MSTORE POP CALLER PUSH1 0x4 DUP6 ADD MSTORE PUSH20 0xE92E74661F0582D52FC0051AEDD6FDF4D26A1F86 PUSH1 0x24 DUP6 ADD MSTORE PUSH1 0x44 DUP5 ADD SWAP2 SWAP1 SWAP2 MSTORE PUSH1 0x1 PUSH1 0x1 PUSH1 0xA0 SHL SUB AND GAS CALL DUP1 ISZERO PUSH2 0x12D JUMPI PUSH2 0xC8 JUMPI JUMPDEST PUSH1 0x20 DUP3 PUSH1 0x40 MLOAD SWAP1 DUP2 MSTORE RETURN JUMPDEST PUSH1 0x20 RETURNDATASIZE DUP2 GT PUSH2 0x126 JUMPI JUMPDEST PUSH1 0x1F DUP2 ADD PUSH1 0x1F NOT AND DUP3 ADD PUSH8 0xFFFFFFFFFFFFFFFF DUP2 GT DUP4 DUP3 LT OR PUSH2 0x112 JUMPI PUSH1 0x20 SWAP2 DUP4 SWAP2 PUSH1 0x40 MSTORE DUP2 ADD SUB SLT PUSH2 0x10E JUMPI MLOAD DUP1 ISZERO ISZERO SUB PUSH2 0x58 JUMPI CODESIZE PUSH2 0xBD JUMP JUMPDEST POP DUP1 REVERT JUMPDEST PUSH4 0x4E487B71 PUSH1 0xE0 SHL DUP5 MSTORE PUSH1 0x41 PUSH1 0x4 MSTORE PUSH1 0x24 DUP5 REVERT JUMPDEST POP RETURNDATASIZE PUSH2 0xD2 JUMP JUMPDEST PUSH1 0x40 MLOAD RETURNDATASIZE DUP5 DUP3 RETURNDATACOPY RETURNDATASIZE SWAP1 REVERT JUMPDEST DUP3 CALLVALUE PUSH2 0x58 JUMPI PUSH2 0x50 CALLDATASIZE JUMPDEST PUSH1 0x80 PUSH1 0x3 NOT DUP3 ADD SLT PUSH2 0x1B3 JUMPI PUSH1 0x4 CALLDATALOAD SWAP2 PUSH1 0x1 PUSH1 0x1 PUSH1 0xA0 SHL SUB SWAP2 PUSH1 0x24 CALLDATALOAD DUP4 DUP2 AND DUP2 SUB PUSH2 0x1B3 JUMPI SWAP3 PUSH1 0x44 CALLDATALOAD SWAP1 DUP2 AND DUP2 SUB PUSH2 0x1B3 JUMPI SWAP2 PUSH1 0x64 CALLDATALOAD PUSH8 0xFFFFFFFFFFFFFFFF SWAP3 DUP4 DUP3 GT PUSH2 0x1B3 JUMPI DUP1 PUSH1 0x23 DUP4 ADD SLT ISZERO PUSH2 0x1B3 JUMPI DUP2 PUSH1 0x4 ADD CALLDATALOAD SWAP4 DUP5 GT PUSH2 0x1B3 JUMPI PUSH1 0x24 DUP5 DUP4 ADD ADD GT PUSH2 0x1B3 JUMPI PUSH1 0x24 ADD SWAP2 SWAP1 JUMP JUMPDEST PUSH1 0x0 DUP1 REVERT INVALID LOG2 PUSH5 0x6970667358 0x22 SLT KECCAK256 0xA8 DUP1 0xBA 0xB5 0xF7 0xC6 SWAP15 0xFC MUL CODECOPY 0xAF PUSH26 0xB5432AB9FF5A4A1584454AAF6E6B54720023F95064736F6C6343 STOP ADDMOD SGT STOP CALLER "
        },
        "methodIdentifiers": {
          "buy(uint256,address,address,bytes)": "987bb07b",
          "sell(uint256,address,address,bytes)": "2454b710",
          "sellAndBuy(uint256,address,address,bytes)": "03679454"
        }
      }
    }
  }
}