{
  "contracts/core/merge/MergeFactory.sol": {
    "MergeFactory": {
      "abi": [
        {
          "inputs": [],
          "stateMutability": "nonpayable",
          "type": "constructor"
        },
        {
          "anonymous": false,
          "inputs": [
            {
              "indexed": true,
              "internalType": "address",
              "name": "token",
              "type": "address"
            },
            {
              "indexed": true,
              "internalType": "address",
              "name": "merge",
              "type": "address"
            }
          ],
          "name": "MergeCreated",
          "type": "event"
        },
        {
          "anonymous": false,
          "inputs": [
            {
              "indexed": true,
              "internalType": "address",
              "name": "previousOwner",
              "type": "address"
            },
            {
              "indexed": true,
              "internalType": "address",
              "name": "newOwner",
              "type": "address"
            }
          ],
          "name": "OwnershipTransferred",
          "type": "event"
        },
        {
          "inputs": [
            {
              "internalType": "address",
              "name": "",
              "type": "address"
            }
          ],
          "name": "allowedDeployers",
          "outputs": [
            {
              "internalType": "bool",
              "name": "",
              "type": "bool"
            }
          ],
          "stateMutability": "view",
          "type": "function"
        },
        {
          "inputs": [
            {
              "internalType": "address",
              "name": "token",
              "type": "address"
            },
            {
              "internalType": "uint256",
              "name": "rate",
              "type": "uint256"
            },
            {
              "internalType": "uint32",
              "name": "vestingDuration",
              "type": "uint32"
            },
            {
              "internalType": "enum MergeFactory.MergeType",
              "name": "mergeType",
              "type": "uint8"
            }
          ],
          "name": "createMergeWith",
          "outputs": [
            {
              "internalType": "address",
              "name": "",
              "type": "address"
            }
          ],
          "stateMutability": "nonpayable",
          "type": "function"
        },
        {
          "inputs": [],
          "name": "getMergeCount",
          "outputs": [
            {
              "internalType": "uint256",
              "name": "",
              "type": "uint256"
            }
          ],
          "stateMutability": "view",
          "type": "function"
        },
        {
          "inputs": [
            {
              "internalType": "address",
              "name": "",
              "type": "address"
            }
          ],
          "name": "mergeTypes",
          "outputs": [
            {
              "internalType": "enum MergeFactory.MergeType",
              "name": "",
              "type": "uint8"
            }
          ],
          "stateMutability": "view",
          "type": "function"
        },
        {
          "inputs": [
            {
              "internalType": "address",
              "name": "",
              "type": "address"
            }
          ],
          "name": "merges",
          "outputs": [
            {
              "internalType": "address",
              "name": "",
              "type": "address"
            }
          ],
          "stateMutability": "view",
          "type": "function"
        },
        {
          "inputs": [],
          "name": "owner",
          "outputs": [
            {
              "internalType": "address",
              "name": "",
              "type": "address"
            }
          ],
          "stateMutability": "view",
          "type": "function"
        },
        {
          "inputs": [],
          "name": "renounceOwnership",
          "outputs": [],
          "stateMutability": "nonpayable",
          "type": "function"
        },
        {
          "inputs": [
            {
              "internalType": "address",
              "name": "deployer",
              "type": "address"
            },
            {
              "internalType": "bool",
              "name": "allowed",
              "type": "bool"
            }
          ],
          "name": "setAllowedDeployer",
          "outputs": [],
          "stateMutability": "nonpayable",
          "type": "function"
        },
        {
          "inputs": [
            {
              "internalType": "address",
              "name": "merge",
              "type": "address"
            }
          ],
          "name": "setMerge",
          "outputs": [],
          "stateMutability": "nonpayable",
          "type": "function"
        },
        {
          "inputs": [
            {
              "internalType": "address",
              "name": "merge",
              "type": "address"
            },
            {
              "internalType": "enum MergeFactory.MergeType",
              "name": "mergeType",
              "type": "uint8"
            }
          ],
          "name": "setMergeWithType",
          "outputs": [],
          "stateMutability": "nonpayable",
          "type": "function"
        },
        {
          "inputs": [
            {
              "internalType": "address",
              "name": "token",
              "type": "address"
            },
            {
              "internalType": "enum MergeFactory.MergeType",
              "name": "mergeType",
              "type": "uint8"
            }
          ],
          "name": "setType",
          "outputs": [],
          "stateMutability": "nonpayable",
          "type": "function"
        },
        {
          "inputs": [
            {
              "internalType": "uint256",
              "name": "",
              "type": "uint256"
            }
          ],
          "name": "tokens",
          "outputs": [
            {
              "internalType": "address",
              "name": "",
              "type": "address"
            }
          ],
          "stateMutability": "view",
          "type": "function"
        },
        {
          "inputs": [
            {
              "internalType": "address",
              "name": "newOwner",
              "type": "address"
            }
          ],
          "name": "transferOwnership",
          "outputs": [],
          "stateMutability": "nonpayable",
          "type": "function"
        },
        {
          "inputs": [],
          "name": "wewe",
          "outputs": [
            {
              "internalType": "address",
              "name": "",
              "type": "address"
            }
          ],
          "stateMutability": "view",
          "type": "function"
        }
      ],
      "evm": {
        "bytecode": {
          "linkReferences": {},
          "object": "6080806040523461006f5760008054336001600160a01b0319821681178355604092916001600160a01b03167f8be0079c531659141344cd1fd0a4f28419497f9722a3daafe3b4186f6b6457e08380a3338152600460205220805460ff19166001179055611c2d90816100758239f35b600080fdfe6080604081815260048036101561001557600080fd5b600092833560e01c9081631bec146414610522575080631d06f92b1461050357806339db25f7146104af5780634f64b2be1461046f5780636d09021814610433578063715018a6146103d65780637f389fd51461037c5780638da5cb5b146103545780639dc79be4146102be578063a49a7cb114610289578063b49757a6146101f0578063e1f26f22146101c1578063e441eebf146101825763f2fde38b146100bd57600080fd5b3461017e57602036600319011261017e576100d66105e3565b906100df61065e565b6001600160a01b0391821692831561012c57505082546001600160a01b0319811683178455167f8be0079c531659141344cd1fd0a4f28419497f9722a3daafe3b4186f6b6457e08380a380f35b906020608492519162461bcd60e51b8352820152602660248201527f4f776e61626c653a206e6577206f776e657220697320746865207a65726f206160448201526564647265737360d01b6064820152fd5b8280fd5b5050346101bd5760203660031901126101bd576020916001600160a01b03908290826101ac6105e3565b168152600285522054169051908152f35b5080fd5b5050346101bd57816003193601126101bd5760209051736b9bb36519538e0c073894e964e90172e1c0b41f8152f35b503461017e57602036600319011261017e5761020a6105e3565b9061021361065e565b82516321df0da760e01b8152906020908290816001600160a01b0386165afa90811561027c5761024b9350849161024e575b5061090f565b80f35b61026f915060203d8111610275575b610267818361070d565b8101906108c2565b38610245565b503d61025d565b50505051903d90823e3d90fd5b5050346101bd5761024b9061029d3661062f565b91906102a761065e565b6001600160a01b03168452600360205283206108e1565b50903461017e576102ce3661062f565b9190926102d961065e565b81516321df0da760e01b8152936001600160a01b03916020908690818585165afa90811561034a5761024b958792610326575b50610317908261090f565b168452600360205283206108e1565b6103179192506103439060203d811161027557610267818361070d565b919061030c565b83513d88823e3d90fd5b5050346101bd57816003193601126101bd57905490516001600160a01b039091168152602090f35b509190346101bd5760203660031901126101bd576001600160a01b036103a06105e3565b168252600360205260ff818320541690519160028210156103c357602083838152f35b634e487b7160e01b815260218452602490fd5b83346104305780600319360112610430576103ef61065e565b80546001600160a01b03198116825581906001600160a01b03167f8be0079c531659141344cd1fd0a4f28419497f9722a3daafe3b4186f6b6457e08280a380f35b80fd5b503461017e57602036600319011261017e5760209260ff918391906001600160a01b0361045e6105e3565b168252855220541690519015158152f35b503461017e57602036600319011261017e57359160015483101561043057506104996020926105fe565b905491519160018060a01b039160031b1c168152f35b50903461017e578060031936011261017e576104c96105e3565b91602435928315158094036104ff576104e061065e565b60018060a01b0316845260205282209060ff8019835416911617905580f35b8480fd5b5050346101bd57816003193601126101bd576020906001549051908152f35b83858492346101bd5760803660031901126101bd5761053f6105e3565b6044359163ffffffff831683036105df57606435936002851015610430578560ff91338152886020522054161561059257602085610581868660243587610745565b90516001600160a01b039091168152f35b62461bcd60e51b8152602086820152602360248201527f4d65726765466163746f72793a204e6f7420616c6c6f77656420746f206465706044820152626c6f7960e81b6064820152608490fd5b8380fd5b600435906001600160a01b03821682036105f957565b600080fd5b60015481101561061957600160005260206000200190600090565b634e487b7160e01b600052603260045260246000fd5b60409060031901126105f9576004356001600160a01b03811681036105f9579060243560028110156105f95790565b6000546001600160a01b0316330361067257565b606460405162461bcd60e51b815260206004820152602060248201527f4f776e61626c653a2063616c6c6572206973206e6f7420746865206f776e65726044820152fd5b156106bd57565b60405162461bcd60e51b815260206004820152602260248201527f4d65726765466163746f72793a204d6572676520616c72656164792065786973604482015261747360f01b6064820152608490fd5b90601f8019910116810190811067ffffffffffffffff82111761072f57604052565b634e487b7160e01b600052604160045260246000fd5b90600060018060a01b03808416808352600260205260409661076c838986205416156106b6565b60028110156108ae57156107bd576064875162461bcd60e51b815260206004820152602060248201527f4d65726765466163746f72793a20496e76616c6964206d6572676520747970656044820152fd5b869394959651906111ec978883019167ffffffffffffffff998484108b85111761089a5784926060949263ffffffff92610a0c8639736b9bb36519538e0c073894e964e90172e1c0b41f84526020840152168782015203019083f08015610890571694853b156101bd578251936334fcf43760e01b855260048501528184602481838a5af1801561089057908694939291610863575b505050506108609161090f565b90565b9091928094501161087c57505281610860388080610853565b634e487b7160e01b81526041600452602490fd5b83513d84823e3d90fd5b634e487b7160e01b87526041600452602487fd5b634e487b7160e01b84526021600452602484fd5b908160209103126105f957516001600160a01b03811681036105f95790565b9060028110156108f95760ff80198354169116179055565b634e487b7160e01b600052602160045260246000fd5b6001600160a01b039081169081156109c657600090828252600260205261093c81604084205416156106b6565b600154600160401b8110156109b2579061097e8260017fe413d0f68462f6240160d618a454469f475317b43867a99c353c0acc7bf4ec1b9594016001556105fe565b81549060031b908387831b921b19161790558382526002602052604082209416938460018060a01b031982541617905580a3565b634e487b7160e01b83526041600452602483fd5b60405162461bcd60e51b815260206004820152601b60248201527f4d65726765466163746f72793a20496e76616c6964206d6572676500000000006044820152606490fdfe60a03461011957601f6111ec38819003918201601f19168301916001600160401b0383118484101761011e578084926060946040528339810103126101195761004781610134565b604061005560208401610134565b9201519063ffffffff8216809203610119576001600081815581546001600160a81b0319811633600881811b610100600160a81b031692909217909455604051966001600160a01b03949093909290911c8416907f8be0079c531659141344cd1fd0a4f28419497f9722a3daafe3b4186f6b6457e09080a3620186a0806080526002558160018060a01b031993168360045416176004551690600354161760035563ffffffff1960065416176006556110a3908161014982396080518161096b0152f35b600080fd5b634e487b7160e01b600052604160045260246000fd5b51906001600160a01b03821682036101195756fe6080604081815260048036101561001557600080fd5b600092833560e01c9081631514617e14610b4e5750806321df0da714610b2557806324a47aeb1461093a57806334fcf4371461088757806335faa416146107365780634e71d92d146106a15780635c975abb1461067d578063679aefce1461065e57806370a0823114610626578063715018a6146105c25780638da5cb5b146105955780638f4ffcb11461046e5780639636d8811461043357838163b6b55f251461038a57508063bf3506c11461034b578063c4ae316814610268578063cdb2aeab14610249578063daf4986314610203578063e1f26f22146101dc5763f2fde38b1461010157600080fd5b346101d85760203660031901126101d85761011a610b70565b610122610b8b565b6001600160a01b0381811693909290841561018657505060018054610100600160a81b03198116600893841b610100600160a81b031617909155901c167f8be0079c531659141344cd1fd0a4f28419497f9722a3daafe3b4186f6b6457e08380a380f35b906020608492519162461bcd60e51b8352820152602660248201527f4f776e61626c653a206e6577206f776e657220697320746865207a65726f206160448201526564647265737360d01b6064820152fd5b8280fd5b50346101d857826003193601126101d8575490516001600160a01b03909116815260209150f35b505034610245576020366003190112610245579081906001600160a01b03610229610b70565b1681526007602052206001815491015482519182526020820152f35b5080fd5b5050346102455781600319360112610245576020906005549051908152f35b50346101d857826003193601126101d857610281610b8b565b60015460ff81161561030a57506001549060ff8216156102d0575060ff1916600155513381527f5db9ee0a495bf2e6ff9c91a7834c1ba4fdd244a5e8aa4e537bd38aeae4b073aa90602090a180f35b606490602084519162461bcd60e51b8352820152601460248201527314185d5cd8589b194e881b9bdd081c185d5cd95960621b6044820152fd5b602091509160017f62e78cea01bee320cd4e420270b5ea74000d11b0c9f74754ebdbfc544b05a2589361033b610c36565b60ff19161760015551338152a180f35b5050346102455760203660031901126102455760209160019082906001600160a01b03610376610b70565b168152600785522001549051904210158152f35b8084843461042f57602036600319011261042f576103e76020916103ac610b8b565b805484516323b872dd60e01b815233818401908152306020820152923560408401529586936001600160a01b03909216928492839160600190565b03925af190811561042657506103fb575080f35b61041b9060203d811161041f575b6104138183610be6565b810190610c1e565b5080f35b503d610409565b513d84823e3d90fd5b5050fd5b838234610245576020366003190112610245573563ffffffff81168091036102455761045d610b8b565b63ffffffff19600654161760065580f35b508290346102455760803660031901126102455761048a610b70565b906001600160a01b036044358181160361058d5760643567ffffffffffffffff80821161059157366023830112156105915781840135908111610591573691016024011161058d57600284541461054a57600284556104e7610c36565b6003541690811561050757509061050091602435610cd0565b6001815580f35b606490602086519162461bcd60e51b8352820152601c60248201527f45617465723a20546f6b656e2061646472657373206e6f7420736574000000006044820152fd5b845162461bcd60e51b8152602081840152601f60248201527f5265656e7472616e637947756172643a207265656e7472616e742063616c6c006044820152606490fd5b8380fd5b8580fd5b505034610245578160031936011261024557600154905160089190911c6001600160a01b03168152602090f35b83346106235780600319360112610623576105db610b8b565b60018054610100600160a81b03198116909155819060081c6001600160a01b03167f8be0079c531659141344cd1fd0a4f28419497f9722a3daafe3b4186f6b6457e08280a380f35b80fd5b5050346102455760203660031901126102455760209181906001600160a01b0361064e610b70565b1681526007845220549051908152f35b5050346102455781600319360112610245576020906002549051908152f35b50503461024557816003193601126102455760209060ff6001541690519015158152f35b5090346101d857826003193601126101d8576106bb610c36565b63ffffffff6006541615610729575b33835260076020526001818420015442106106eb57826106e8610fbc565b80f35b906020606492519162461bcd60e51b8352820152601860248201527711585d195c8e8815995cdd1a5b99c81b9bdd08195b99195960421b6044820152fd5b610731610fbc565b6106ca565b50919034610245578160031936011261024557610751610b8b565b825481516370a0823160e01b8152308186015293602092916001600160a01b0390811691908487602481865afa96871561087d57869761084e575b50861561080b57600154845163a9059cbb60e01b81526001600160a01b0360089290921c90921616918101918252602082018790529291849184919082908890829060400103925af190811561080257506107e5578280f35b816107fb92903d1061041f576104138183610be6565b5081808280f35b513d85823e3d90fd5b835162461bcd60e51b8152808301869052601a60248201527f45617465723a204e6f2062616c616e636520746f2073776565700000000000006044820152606490fd5b9096508481813d8311610876575b6108668183610be6565b810103126105915751953861078c565b503d61085c565b84513d88823e3d90fd5b5090346101d85760203660031901126101d8578135916108a5610b8b565b82156108ed575081600254036108b9578280f35b816020917f595a30f13a69b616c4d568e2a2b7875fdfe86e4300a049953c76ee278f8f3f109360025551908152a138808280f35b6020608492519162461bcd60e51b8352820152602260248201527f45617465723a2052617465206d7573742062652067726561746572207468616e604482015261020360f41b6064820152fd5b50829034610245576020806003193601126101d85781359161095a610c36565b61099061096960025485610c7a565b7f000000000000000000000000000000000000000000000000000000000000000090610ca3565b815486516370a0823160e01b808252308286015294926001600160a01b039284908390602490829087165afa918215610b1b578892610ae6575b506109d790600554610cc3565b11610aa5576003541692865190815233838201528181602481875afa908115610a9b579085918791610a6a575b5010610a1657846106e8338587610cd0565b855162461bcd60e51b815291820152602960248201527f47656e657269634d657267653a20496e73756666696369656e742062616c616e60448201526818d9481d1bc819585d60ba1b606482015260849150fd5b809250838092503d8311610a94575b610a838183610be6565b810103126105915784905188610a04565b503d610a79565b87513d88823e3d90fd5b60648383808a519262461bcd60e51b845283015260248201527f45617465723a20496e73756666696369656e7420576577652062616c616e63656044820152fd5b9091508381813d8311610b14575b610afe8183610be6565b81010312610b105751906109d76109ca565b8780fd5b503d610af4565b89513d8a823e3d90fd5b50503461024557816003193601126102455760035490516001600160a01b039091168152602090f35b84903461024557816003193601126102455760209063ffffffff600654168152f35b600435906001600160a01b0382168203610b8657565b600080fd5b60015460081c6001600160a01b03163303610ba257565b606460405162461bcd60e51b815260206004820152602060248201527f4f776e61626c653a2063616c6c6572206973206e6f7420746865206f776e65726044820152fd5b90601f8019910116810190811067ffffffffffffffff821117610c0857604052565b634e487b7160e01b600052604160045260246000fd5b90816020910312610b8657518015158103610b865790565b60ff60015416610c4257565b60405162461bcd60e51b815260206004820152601060248201526f14185d5cd8589b194e881c185d5cd95960821b6044820152606490fd5b81810292918115918404141715610c8d57565b634e487b7160e01b600052601160045260246000fd5b8115610cad570490565b634e487b7160e01b600052601260045260246000fd5b91908201809211610c8d57565b909291610ce261096960025484610c7a565b91610cef83600554610cc3565b60055560018060a01b039460048681541693604092835180966370a0823160e01b825230858301528160246020998a935afa908115610fb157600091610f84575b508711610f2b5783516323b872dd60e01b81526001600160a01b03831684820190815230602082015260408101879052909187918391908290036060019082906000908e165af18015610f2057610f03575b5087811695866000526007865283600020549163ffffffff998a600654161515600014610e6657505090610db591610cc3565b96603c816006541602908116908103610e5157610dd29042610cc3565b968251918383019083821067ffffffffffffffff831117610e3c5750976001917fadc41ba80ffa0859aab1d7cf405a6633a6af94fc3d10e5b0e0bf46cdcc0fd9c89798998552835285830190815233600052600786528360002092518355519101555b51908152a2565b604190634e487b7160e01b6000525260246000fd5b601182634e487b7160e01b6000525260246000fd5b8454865163a9059cbb60e01b81526001600160a01b0393909316958301958652602086019390935290995086938a9350839003604001918391600091165af1958615610ef8577fadc41ba80ffa0859aab1d7cf405a6633a6af94fc3d10e5b0e0bf46cdcc0fd9c8949596610edb575b50610e35565b610ef190843d861161041f576104138183610be6565b5038610ed5565b50513d6000823e3d90fd5b610f1990863d881161041f576104138183610be6565b5038610d82565b84513d6000823e3d90fd5b835162461bcd60e51b8152808401879052602d60248201527f45617465723a20496e73756666696369656e7420746f6b656e2062616c616e6360448201526c32903a37903a3930b739b332b960991b6064820152608490fd5b908782813d8311610faa575b610f9a8183610be6565b8101031261062357505138610d30565b503d610f90565b85513d6000823e3d90fd5b600033815260076020526040812054600554818103908111611059576005553380835260076020908152604080852085905560048054915163a9059cbb60e01b81529081019390935260248301939093529092918390604490829085906001600160a01b03165af190811561104d57506110335750565b61104a9060203d811161041f576104138183610be6565b50565b604051903d90823e3d90fd5b634e487b7160e01b83526011600452602483fdfea2646970667358221220570fd0c8ef865af99a21364aa728cbb633cc651c15b77686d720e64952835a6664736f6c63430008130033a2646970667358221220dcc59dbaf4d0e7366265fba70058dce983ee0badd3dca6b4ec69e5f13d4d4e4964736f6c63430008130033",
          "opcodes": "PUSH1 0x80 DUP1 PUSH1 0x40 MSTORE CALLVALUE PUSH2 0x6F JUMPI PUSH1 0x0 DUP1 SLOAD CALLER PUSH1 0x1 PUSH1 0x1 PUSH1 0xA0 SHL SUB NOT DUP3 AND DUP2 OR DUP4 SSTORE PUSH1 0x40 SWAP3 SWAP2 PUSH1 0x1 PUSH1 0x1 PUSH1 0xA0 SHL SUB AND PUSH32 0x8BE0079C531659141344CD1FD0A4F28419497F9722A3DAAFE3B4186F6B6457E0 DUP4 DUP1 LOG3 CALLER DUP2 MSTORE PUSH1 0x4 PUSH1 0x20 MSTORE KECCAK256 DUP1 SLOAD PUSH1 0xFF NOT AND PUSH1 0x1 OR SWAP1 SSTORE PUSH2 0x1C2D SWAP1 DUP2 PUSH2 0x75 DUP3 CODECOPY RETURN JUMPDEST PUSH1 0x0 DUP1 REVERT INVALID PUSH1 0x80 PUSH1 0x40 DUP2 DUP2 MSTORE PUSH1 0x4 DUP1 CALLDATASIZE LT ISZERO PUSH2 0x15 JUMPI PUSH1 0x0 DUP1 REVERT JUMPDEST PUSH1 0x0 SWAP3 DUP4 CALLDATALOAD PUSH1 0xE0 SHR SWAP1 DUP2 PUSH4 0x1BEC1464 EQ PUSH2 0x522 JUMPI POP DUP1 PUSH4 0x1D06F92B EQ PUSH2 0x503 JUMPI DUP1 PUSH4 0x39DB25F7 EQ PUSH2 0x4AF JUMPI DUP1 PUSH4 0x4F64B2BE EQ PUSH2 0x46F JUMPI DUP1 PUSH4 0x6D090218 EQ PUSH2 0x433 JUMPI DUP1 PUSH4 0x715018A6 EQ PUSH2 0x3D6 JUMPI DUP1 PUSH4 0x7F389FD5 EQ PUSH2 0x37C JUMPI DUP1 PUSH4 0x8DA5CB5B EQ PUSH2 0x354 JUMPI DUP1 PUSH4 0x9DC79BE4 EQ PUSH2 0x2BE JUMPI DUP1 PUSH4 0xA49A7CB1 EQ PUSH2 0x289 JUMPI DUP1 PUSH4 0xB49757A6 EQ PUSH2 0x1F0 JUMPI DUP1 PUSH4 0xE1F26F22 EQ PUSH2 0x1C1 JUMPI DUP1 PUSH4 0xE441EEBF EQ PUSH2 0x182 JUMPI PUSH4 0xF2FDE38B EQ PUSH2 0xBD JUMPI PUSH1 0x0 DUP1 REVERT JUMPDEST CALLVALUE PUSH2 0x17E JUMPI PUSH1 0x20 CALLDATASIZE PUSH1 0x3 NOT ADD SLT PUSH2 0x17E JUMPI PUSH2 0xD6 PUSH2 0x5E3 JUMP JUMPDEST SWAP1 PUSH2 0xDF PUSH2 0x65E JUMP JUMPDEST PUSH1 0x1 PUSH1 0x1 PUSH1 0xA0 SHL SUB SWAP2 DUP3 AND SWAP3 DUP4 ISZERO PUSH2 0x12C JUMPI POP POP DUP3 SLOAD PUSH1 0x1 PUSH1 0x1 PUSH1 0xA0 SHL SUB NOT DUP2 AND DUP4 OR DUP5 SSTORE AND PUSH32 0x8BE0079C531659141344CD1FD0A4F28419497F9722A3DAAFE3B4186F6B6457E0 DUP4 DUP1 LOG3 DUP1 RETURN JUMPDEST SWAP1 PUSH1 0x20 PUSH1 0x84 SWAP3 MLOAD SWAP2 PUSH3 0x461BCD PUSH1 0xE5 SHL DUP4 MSTORE DUP3 ADD MSTORE PUSH1 0x26 PUSH1 0x24 DUP3 ADD MSTORE PUSH32 0x4F776E61626C653A206E6577206F776E657220697320746865207A65726F2061 PUSH1 0x44 DUP3 ADD MSTORE PUSH6 0x646472657373 PUSH1 0xD0 SHL PUSH1 0x64 DUP3 ADD MSTORE REVERT JUMPDEST DUP3 DUP1 REVERT JUMPDEST POP POP CALLVALUE PUSH2 0x1BD JUMPI PUSH1 0x20 CALLDATASIZE PUSH1 0x3 NOT ADD SLT PUSH2 0x1BD JUMPI PUSH1 0x20 SWAP2 PUSH1 0x1 PUSH1 0x1 PUSH1 0xA0 SHL SUB SWAP1 DUP3 SWAP1 DUP3 PUSH2 0x1AC PUSH2 0x5E3 JUMP JUMPDEST AND DUP2 MSTORE PUSH1 0x2 DUP6 MSTORE KECCAK256 SLOAD AND SWAP1 MLOAD SWAP1 DUP2 MSTORE RETURN JUMPDEST POP DUP1 REVERT JUMPDEST POP POP CALLVALUE PUSH2 0x1BD JUMPI DUP2 PUSH1 0x3 NOT CALLDATASIZE ADD SLT PUSH2 0x1BD JUMPI PUSH1 0x20 SWAP1 MLOAD PUSH20 0x6B9BB36519538E0C073894E964E90172E1C0B41F DUP2 MSTORE RETURN JUMPDEST POP CALLVALUE PUSH2 0x17E JUMPI PUSH1 0x20 CALLDATASIZE PUSH1 0x3 NOT ADD SLT PUSH2 0x17E JUMPI PUSH2 0x20A PUSH2 0x5E3 JUMP JUMPDEST SWAP1 PUSH2 0x213 PUSH2 0x65E JUMP JUMPDEST DUP3 MLOAD PUSH4 0x21DF0DA7 PUSH1 0xE0 SHL DUP2 MSTORE SWAP1 PUSH1 0x20 SWAP1 DUP3 SWAP1 DUP2 PUSH1 0x1 PUSH1 0x1 PUSH1 0xA0 SHL SUB DUP7 AND GAS STATICCALL SWAP1 DUP2 ISZERO PUSH2 0x27C JUMPI PUSH2 0x24B SWAP4 POP DUP5 SWAP2 PUSH2 0x24E JUMPI JUMPDEST POP PUSH2 0x90F JUMP JUMPDEST DUP1 RETURN JUMPDEST PUSH2 0x26F SWAP2 POP PUSH1 0x20 RETURNDATASIZE DUP2 GT PUSH2 0x275 JUMPI JUMPDEST PUSH2 0x267 DUP2 DUP4 PUSH2 0x70D JUMP JUMPDEST DUP2 ADD SWAP1 PUSH2 0x8C2 JUMP JUMPDEST CODESIZE PUSH2 0x245 JUMP JUMPDEST POP RETURNDATASIZE PUSH2 0x25D JUMP JUMPDEST POP POP POP MLOAD SWAP1 RETURNDATASIZE SWAP1 DUP3 RETURNDATACOPY RETURNDATASIZE SWAP1 REVERT JUMPDEST POP POP CALLVALUE PUSH2 0x1BD JUMPI PUSH2 0x24B SWAP1 PUSH2 0x29D CALLDATASIZE PUSH2 0x62F JUMP JUMPDEST SWAP2 SWAP1 PUSH2 0x2A7 PUSH2 0x65E JUMP JUMPDEST PUSH1 0x1 PUSH1 0x1 PUSH1 0xA0 SHL SUB AND DUP5 MSTORE PUSH1 0x3 PUSH1 0x20 MSTORE DUP4 KECCAK256 PUSH2 0x8E1 JUMP JUMPDEST POP SWAP1 CALLVALUE PUSH2 0x17E JUMPI PUSH2 0x2CE CALLDATASIZE PUSH2 0x62F JUMP JUMPDEST SWAP2 SWAP1 SWAP3 PUSH2 0x2D9 PUSH2 0x65E JUMP JUMPDEST DUP2 MLOAD PUSH4 0x21DF0DA7 PUSH1 0xE0 SHL DUP2 MSTORE SWAP4 PUSH1 0x1 PUSH1 0x1 PUSH1 0xA0 SHL SUB SWAP2 PUSH1 0x20 SWAP1 DUP7 SWAP1 DUP2 DUP6 DUP6 AND GAS STATICCALL SWAP1 DUP2 ISZERO PUSH2 0x34A JUMPI PUSH2 0x24B SWAP6 DUP8 SWAP3 PUSH2 0x326 JUMPI JUMPDEST POP PUSH2 0x317 SWAP1 DUP3 PUSH2 0x90F JUMP JUMPDEST AND DUP5 MSTORE PUSH1 0x3 PUSH1 0x20 MSTORE DUP4 KECCAK256 PUSH2 0x8E1 JUMP JUMPDEST PUSH2 0x317 SWAP2 SWAP3 POP PUSH2 0x343 SWAP1 PUSH1 0x20 RETURNDATASIZE DUP2 GT PUSH2 0x275 JUMPI PUSH2 0x267 DUP2 DUP4 PUSH2 0x70D JUMP JUMPDEST SWAP2 SWAP1 PUSH2 0x30C JUMP JUMPDEST DUP4 MLOAD RETURNDATASIZE DUP9 DUP3 RETURNDATACOPY RETURNDATASIZE SWAP1 REVERT JUMPDEST POP POP CALLVALUE PUSH2 0x1BD JUMPI DUP2 PUSH1 0x3 NOT CALLDATASIZE ADD SLT PUSH2 0x1BD JUMPI SWAP1 SLOAD SWAP1 MLOAD PUSH1 0x1 PUSH1 0x1 PUSH1 0xA0 SHL SUB SWAP1 SWAP2 AND DUP2 MSTORE PUSH1 0x20 SWAP1 RETURN JUMPDEST POP SWAP2 SWAP1 CALLVALUE PUSH2 0x1BD JUMPI PUSH1 0x20 CALLDATASIZE PUSH1 0x3 NOT ADD SLT PUSH2 0x1BD JUMPI PUSH1 0x1 PUSH1 0x1 PUSH1 0xA0 SHL SUB PUSH2 0x3A0 PUSH2 0x5E3 JUMP JUMPDEST AND DUP3 MSTORE PUSH1 0x3 PUSH1 0x20 MSTORE PUSH1 0xFF DUP2 DUP4 KECCAK256 SLOAD AND SWAP1 MLOAD SWAP2 PUSH1 0x2 DUP3 LT ISZERO PUSH2 0x3C3 JUMPI PUSH1 0x20 DUP4 DUP4 DUP2 MSTORE RETURN JUMPDEST PUSH4 0x4E487B71 PUSH1 0xE0 SHL DUP2 MSTORE PUSH1 0x21 DUP5 MSTORE PUSH1 0x24 SWAP1 REVERT JUMPDEST DUP4 CALLVALUE PUSH2 0x430 JUMPI DUP1 PUSH1 0x3 NOT CALLDATASIZE ADD SLT PUSH2 0x430 JUMPI PUSH2 0x3EF PUSH2 0x65E JUMP JUMPDEST DUP1 SLOAD PUSH1 0x1 PUSH1 0x1 PUSH1 0xA0 SHL SUB NOT DUP2 AND DUP3 SSTORE DUP2 SWAP1 PUSH1 0x1 PUSH1 0x1 PUSH1 0xA0 SHL SUB AND PUSH32 0x8BE0079C531659141344CD1FD0A4F28419497F9722A3DAAFE3B4186F6B6457E0 DUP3 DUP1 LOG3 DUP1 RETURN JUMPDEST DUP1 REVERT JUMPDEST POP CALLVALUE PUSH2 0x17E JUMPI PUSH1 0x20 CALLDATASIZE PUSH1 0x3 NOT ADD SLT PUSH2 0x17E JUMPI PUSH1 0x20 SWAP3 PUSH1 0xFF SWAP2 DUP4 SWAP2 SWAP1 PUSH1 0x1 PUSH1 0x1 PUSH1 0xA0 SHL SUB PUSH2 0x45E PUSH2 0x5E3 JUMP JUMPDEST AND DUP3 MSTORE DUP6 MSTORE KECCAK256 SLOAD AND SWAP1 MLOAD SWAP1 ISZERO ISZERO DUP2 MSTORE RETURN JUMPDEST POP CALLVALUE PUSH2 0x17E JUMPI PUSH1 0x20 CALLDATASIZE PUSH1 0x3 NOT ADD SLT PUSH2 0x17E JUMPI CALLDATALOAD SWAP2 PUSH1 0x1 SLOAD DUP4 LT ISZERO PUSH2 0x430 JUMPI POP PUSH2 0x499 PUSH1 0x20 SWAP3 PUSH2 0x5FE JUMP JUMPDEST SWAP1 SLOAD SWAP2 MLOAD SWAP2 PUSH1 0x1 DUP1 PUSH1 0xA0 SHL SUB SWAP2 PUSH1 0x3 SHL SHR AND DUP2 MSTORE RETURN JUMPDEST POP SWAP1 CALLVALUE PUSH2 0x17E JUMPI DUP1 PUSH1 0x3 NOT CALLDATASIZE ADD SLT PUSH2 0x17E JUMPI PUSH2 0x4C9 PUSH2 0x5E3 JUMP JUMPDEST SWAP2 PUSH1 0x24 CALLDATALOAD SWAP3 DUP4 ISZERO ISZERO DUP1 SWAP5 SUB PUSH2 0x4FF JUMPI PUSH2 0x4E0 PUSH2 0x65E JUMP JUMPDEST PUSH1 0x1 DUP1 PUSH1 0xA0 SHL SUB AND DUP5 MSTORE PUSH1 0x20 MSTORE DUP3 KECCAK256 SWAP1 PUSH1 0xFF DUP1 NOT DUP4 SLOAD AND SWAP2 AND OR SWAP1 SSTORE DUP1 RETURN JUMPDEST DUP5 DUP1 REVERT JUMPDEST POP POP CALLVALUE PUSH2 0x1BD JUMPI DUP2 PUSH1 0x3 NOT CALLDATASIZE ADD SLT PUSH2 0x1BD JUMPI PUSH1 0x20 SWAP1 PUSH1 0x1 SLOAD SWAP1 MLOAD SWAP1 DUP2 MSTORE RETURN JUMPDEST DUP4 DUP6 DUP5 SWAP3 CALLVALUE PUSH2 0x1BD JUMPI PUSH1 0x80 CALLDATASIZE PUSH1 0x3 NOT ADD SLT PUSH2 0x1BD JUMPI PUSH2 0x53F PUSH2 0x5E3 JUMP JUMPDEST PUSH1 0x44 CALLDATALOAD SWAP2 PUSH4 0xFFFFFFFF DUP4 AND DUP4 SUB PUSH2 0x5DF JUMPI PUSH1 0x64 CALLDATALOAD SWAP4 PUSH1 0x2 DUP6 LT ISZERO PUSH2 0x430 JUMPI DUP6 PUSH1 0xFF SWAP2 CALLER DUP2 MSTORE DUP9 PUSH1 0x20 MSTORE KECCAK256 SLOAD AND ISZERO PUSH2 0x592 JUMPI PUSH1 0x20 DUP6 PUSH2 0x581 DUP7 DUP7 PUSH1 0x24 CALLDATALOAD DUP8 PUSH2 0x745 JUMP JUMPDEST SWAP1 MLOAD PUSH1 0x1 PUSH1 0x1 PUSH1 0xA0 SHL SUB SWAP1 SWAP2 AND DUP2 MSTORE RETURN JUMPDEST PUSH3 0x461BCD PUSH1 0xE5 SHL DUP2 MSTORE PUSH1 0x20 DUP7 DUP3 ADD MSTORE PUSH1 0x23 PUSH1 0x24 DUP3 ADD MSTORE PUSH32 0x4D65726765466163746F72793A204E6F7420616C6C6F77656420746F20646570 PUSH1 0x44 DUP3 ADD MSTORE PUSH3 0x6C6F79 PUSH1 0xE8 SHL PUSH1 0x64 DUP3 ADD MSTORE PUSH1 0x84 SWAP1 REVERT JUMPDEST DUP4 DUP1 REVERT JUMPDEST PUSH1 0x4 CALLDATALOAD SWAP1 PUSH1 0x1 PUSH1 0x1 PUSH1 0xA0 SHL SUB DUP3 AND DUP3 SUB PUSH2 0x5F9 JUMPI JUMP JUMPDEST PUSH1 0x0 DUP1 REVERT JUMPDEST PUSH1 0x1 SLOAD DUP2 LT ISZERO PUSH2 0x619 JUMPI PUSH1 0x1 PUSH1 0x0 MSTORE PUSH1 0x20 PUSH1 0x0 KECCAK256 ADD SWAP1 PUSH1 0x0 SWAP1 JUMP JUMPDEST PUSH4 0x4E487B71 PUSH1 0xE0 SHL PUSH1 0x0 MSTORE PUSH1 0x32 PUSH1 0x4 MSTORE PUSH1 0x24 PUSH1 0x0 REVERT JUMPDEST PUSH1 0x40 SWAP1 PUSH1 0x3 NOT ADD SLT PUSH2 0x5F9 JUMPI PUSH1 0x4 CALLDATALOAD PUSH1 0x1 PUSH1 0x1 PUSH1 0xA0 SHL SUB DUP2 AND DUP2 SUB PUSH2 0x5F9 JUMPI SWAP1 PUSH1 0x24 CALLDATALOAD PUSH1 0x2 DUP2 LT ISZERO PUSH2 0x5F9 JUMPI SWAP1 JUMP JUMPDEST PUSH1 0x0 SLOAD PUSH1 0x1 PUSH1 0x1 PUSH1 0xA0 SHL SUB AND CALLER SUB PUSH2 0x672 JUMPI JUMP JUMPDEST PUSH1 0x64 PUSH1 0x40 MLOAD PUSH3 0x461BCD PUSH1 0xE5 SHL DUP2 MSTORE PUSH1 0x20 PUSH1 0x4 DUP3 ADD MSTORE PUSH1 0x20 PUSH1 0x24 DUP3 ADD MSTORE PUSH32 0x4F776E61626C653A2063616C6C6572206973206E6F7420746865206F776E6572 PUSH1 0x44 DUP3 ADD MSTORE REVERT JUMPDEST ISZERO PUSH2 0x6BD JUMPI JUMP JUMPDEST PUSH1 0x40 MLOAD PUSH3 0x461BCD PUSH1 0xE5 SHL DUP2 MSTORE PUSH1 0x20 PUSH1 0x4 DUP3 ADD MSTORE PUSH1 0x22 PUSH1 0x24 DUP3 ADD MSTORE PUSH32 0x4D65726765466163746F72793A204D6572676520616C72656164792065786973 PUSH1 0x44 DUP3 ADD MSTORE PUSH2 0x7473 PUSH1 0xF0 SHL PUSH1 0x64 DUP3 ADD MSTORE PUSH1 0x84 SWAP1 REVERT JUMPDEST SWAP1 PUSH1 0x1F DUP1 NOT SWAP2 ADD AND DUP2 ADD SWAP1 DUP2 LT PUSH8 0xFFFFFFFFFFFFFFFF DUP3 GT OR PUSH2 0x72F JUMPI PUSH1 0x40 MSTORE JUMP JUMPDEST PUSH4 0x4E487B71 PUSH1 0xE0 SHL PUSH1 0x0 MSTORE PUSH1 0x41 PUSH1 0x4 MSTORE PUSH1 0x24 PUSH1 0x0 REVERT JUMPDEST SWAP1 PUSH1 0x0 PUSH1 0x1 DUP1 PUSH1 0xA0 SHL SUB DUP1 DUP5 AND DUP1 DUP4 MSTORE PUSH1 0x2 PUSH1 0x20 MSTORE PUSH1 0x40 SWAP7 PUSH2 0x76C DUP4 DUP10 DUP7 KECCAK256 SLOAD AND ISZERO PUSH2 0x6B6 JUMP JUMPDEST PUSH1 0x2 DUP2 LT ISZERO PUSH2 0x8AE JUMPI ISZERO PUSH2 0x7BD JUMPI PUSH1 0x64 DUP8 MLOAD PUSH3 0x461BCD PUSH1 0xE5 SHL DUP2 MSTORE PUSH1 0x20 PUSH1 0x4 DUP3 ADD MSTORE PUSH1 0x20 PUSH1 0x24 DUP3 ADD MSTORE PUSH32 0x4D65726765466163746F72793A20496E76616C6964206D657267652074797065 PUSH1 0x44 DUP3 ADD MSTORE REVERT JUMPDEST DUP7 SWAP4 SWAP5 SWAP6 SWAP7 MLOAD SWAP1 PUSH2 0x11EC SWAP8 DUP9 DUP4 ADD SWAP2 PUSH8 0xFFFFFFFFFFFFFFFF SWAP10 DUP5 DUP5 LT DUP12 DUP6 GT OR PUSH2 0x89A JUMPI DUP5 SWAP3 PUSH1 0x60 SWAP5 SWAP3 PUSH4 0xFFFFFFFF SWAP3 PUSH2 0xA0C DUP7 CODECOPY PUSH20 0x6B9BB36519538E0C073894E964E90172E1C0B41F DUP5 MSTORE PUSH1 0x20 DUP5 ADD MSTORE AND DUP8 DUP3 ADD MSTORE SUB ADD SWAP1 DUP4 CREATE DUP1 ISZERO PUSH2 0x890 JUMPI AND SWAP5 DUP6 EXTCODESIZE ISZERO PUSH2 0x1BD JUMPI DUP3 MLOAD SWAP4 PUSH4 0x34FCF437 PUSH1 0xE0 SHL DUP6 MSTORE PUSH1 0x4 DUP6 ADD MSTORE DUP2 DUP5 PUSH1 0x24 DUP2 DUP4 DUP11 GAS CALL DUP1 ISZERO PUSH2 0x890 JUMPI SWAP1 DUP7 SWAP5 SWAP4 SWAP3 SWAP2 PUSH2 0x863 JUMPI JUMPDEST POP POP POP POP PUSH2 0x860 SWAP2 PUSH2 0x90F JUMP JUMPDEST SWAP1 JUMP JUMPDEST SWAP1 SWAP2 SWAP3 DUP1 SWAP5 POP GT PUSH2 0x87C JUMPI POP MSTORE DUP2 PUSH2 0x860 CODESIZE DUP1 DUP1 PUSH2 0x853 JUMP JUMPDEST PUSH4 0x4E487B71 PUSH1 0xE0 SHL DUP2 MSTORE PUSH1 0x41 PUSH1 0x4 MSTORE PUSH1 0x24 SWAP1 REVERT JUMPDEST DUP4 MLOAD RETURNDATASIZE DUP5 DUP3 RETURNDATACOPY RETURNDATASIZE SWAP1 REVERT JUMPDEST PUSH4 0x4E487B71 PUSH1 0xE0 SHL DUP8 MSTORE PUSH1 0x41 PUSH1 0x4 MSTORE PUSH1 0x24 DUP8 REVERT JUMPDEST PUSH4 0x4E487B71 PUSH1 0xE0 SHL DUP5 MSTORE PUSH1 0x21 PUSH1 0x4 MSTORE PUSH1 0x24 DUP5 REVERT JUMPDEST SWAP1 DUP2 PUSH1 0x20 SWAP2 SUB SLT PUSH2 0x5F9 JUMPI MLOAD PUSH1 0x1 PUSH1 0x1 PUSH1 0xA0 SHL SUB DUP2 AND DUP2 SUB PUSH2 0x5F9 JUMPI SWAP1 JUMP JUMPDEST SWAP1 PUSH1 0x2 DUP2 LT ISZERO PUSH2 0x8F9 JUMPI PUSH1 0xFF DUP1 NOT DUP4 SLOAD AND SWAP2 AND OR SWAP1 SSTORE JUMP JUMPDEST PUSH4 0x4E487B71 PUSH1 0xE0 SHL PUSH1 0x0 MSTORE PUSH1 0x21 PUSH1 0x4 MSTORE PUSH1 0x24 PUSH1 0x0 REVERT JUMPDEST PUSH1 0x1 PUSH1 0x1 PUSH1 0xA0 SHL SUB SWAP1 DUP2 AND SWAP1 DUP2 ISZERO PUSH2 0x9C6 JUMPI PUSH1 0x0 SWAP1 DUP3 DUP3 MSTORE PUSH1 0x2 PUSH1 0x20 MSTORE PUSH2 0x93C DUP2 PUSH1 0x40 DUP5 KECCAK256 SLOAD AND ISZERO PUSH2 0x6B6 JUMP JUMPDEST PUSH1 0x1 SLOAD PUSH1 0x1 PUSH1 0x40 SHL DUP2 LT ISZERO PUSH2 0x9B2 JUMPI SWAP1 PUSH2 0x97E DUP3 PUSH1 0x1 PUSH32 0xE413D0F68462F6240160D618A454469F475317B43867A99C353C0ACC7BF4EC1B SWAP6 SWAP5 ADD PUSH1 0x1 SSTORE PUSH2 0x5FE JUMP JUMPDEST DUP2 SLOAD SWAP1 PUSH1 0x3 SHL SWAP1 DUP4 DUP8 DUP4 SHL SWAP3 SHL NOT AND OR SWAP1 SSTORE DUP4 DUP3 MSTORE PUSH1 0x2 PUSH1 0x20 MSTORE PUSH1 0x40 DUP3 KECCAK256 SWAP5 AND SWAP4 DUP5 PUSH1 0x1 DUP1 PUSH1 0xA0 SHL SUB NOT DUP3 SLOAD AND OR SWAP1 SSTORE DUP1 LOG3 JUMP JUMPDEST PUSH4 0x4E487B71 PUSH1 0xE0 SHL DUP4 MSTORE PUSH1 0x41 PUSH1 0x4 MSTORE PUSH1 0x24 DUP4 REVERT JUMPDEST PUSH1 0x40 MLOAD PUSH3 0x461BCD PUSH1 0xE5 SHL DUP2 MSTORE PUSH1 0x20 PUSH1 0x4 DUP3 ADD MSTORE PUSH1 0x1B PUSH1 0x24 DUP3 ADD MSTORE PUSH32 0x4D65726765466163746F72793A20496E76616C6964206D657267650000000000 PUSH1 0x44 DUP3 ADD MSTORE PUSH1 0x64 SWAP1 REVERT INVALID PUSH1 0xA0 CALLVALUE PUSH2 0x119 JUMPI PUSH1 0x1F PUSH2 0x11EC CODESIZE DUP2 SWAP1 SUB SWAP2 DUP3 ADD PUSH1 0x1F NOT AND DUP4 ADD SWAP2 PUSH1 0x1 PUSH1 0x1 PUSH1 0x40 SHL SUB DUP4 GT DUP5 DUP5 LT OR PUSH2 0x11E JUMPI DUP1 DUP5 SWAP3 PUSH1 0x60 SWAP5 PUSH1 0x40 MSTORE DUP4 CODECOPY DUP2 ADD SUB SLT PUSH2 0x119 JUMPI PUSH2 0x47 DUP2 PUSH2 0x134 JUMP JUMPDEST PUSH1 0x40 PUSH2 0x55 PUSH1 0x20 DUP5 ADD PUSH2 0x134 JUMP JUMPDEST SWAP3 ADD MLOAD SWAP1 PUSH4 0xFFFFFFFF DUP3 AND DUP1 SWAP3 SUB PUSH2 0x119 JUMPI PUSH1 0x1 PUSH1 0x0 DUP2 DUP2 SSTORE DUP2 SLOAD PUSH1 0x1 PUSH1 0x1 PUSH1 0xA8 SHL SUB NOT DUP2 AND CALLER PUSH1 0x8 DUP2 DUP2 SHL PUSH2 0x100 PUSH1 0x1 PUSH1 0xA8 SHL SUB AND SWAP3 SWAP1 SWAP3 OR SWAP1 SWAP5 SSTORE PUSH1 0x40 MLOAD SWAP7 PUSH1 0x1 PUSH1 0x1 PUSH1 0xA0 SHL SUB SWAP5 SWAP1 SWAP4 SWAP1 SWAP3 SWAP1 SWAP2 SHR DUP5 AND SWAP1 PUSH32 0x8BE0079C531659141344CD1FD0A4F28419497F9722A3DAAFE3B4186F6B6457E0 SWAP1 DUP1 LOG3 PUSH3 0x186A0 DUP1 PUSH1 0x80 MSTORE PUSH1 0x2 SSTORE DUP2 PUSH1 0x1 DUP1 PUSH1 0xA0 SHL SUB NOT SWAP4 AND DUP4 PUSH1 0x4 SLOAD AND OR PUSH1 0x4 SSTORE AND SWAP1 PUSH1 0x3 SLOAD AND OR PUSH1 0x3 SSTORE PUSH4 0xFFFFFFFF NOT PUSH1 0x6 SLOAD AND OR PUSH1 0x6 SSTORE PUSH2 0x10A3 SWAP1 DUP2 PUSH2 0x149 DUP3 CODECOPY PUSH1 0x80 MLOAD DUP2 PUSH2 0x96B ADD MSTORE RETURN JUMPDEST PUSH1 0x0 DUP1 REVERT JUMPDEST PUSH4 0x4E487B71 PUSH1 0xE0 SHL PUSH1 0x0 MSTORE PUSH1 0x41 PUSH1 0x4 MSTORE PUSH1 0x24 PUSH1 0x0 REVERT JUMPDEST MLOAD SWAP1 PUSH1 0x1 PUSH1 0x1 PUSH1 0xA0 SHL SUB DUP3 AND DUP3 SUB PUSH2 0x119 JUMPI JUMP INVALID PUSH1 0x80 PUSH1 0x40 DUP2 DUP2 MSTORE PUSH1 0x4 DUP1 CALLDATASIZE LT ISZERO PUSH2 0x15 JUMPI PUSH1 0x0 DUP1 REVERT JUMPDEST PUSH1 0x0 SWAP3 DUP4 CALLDATALOAD PUSH1 0xE0 SHR SWAP1 DUP2 PUSH4 0x1514617E EQ PUSH2 0xB4E JUMPI POP DUP1 PUSH4 0x21DF0DA7 EQ PUSH2 0xB25 JUMPI DUP1 PUSH4 0x24A47AEB EQ PUSH2 0x93A JUMPI DUP1 PUSH4 0x34FCF437 EQ PUSH2 0x887 JUMPI DUP1 PUSH4 0x35FAA416 EQ PUSH2 0x736 JUMPI DUP1 PUSH4 0x4E71D92D EQ PUSH2 0x6A1 JUMPI DUP1 PUSH4 0x5C975ABB EQ PUSH2 0x67D JUMPI DUP1 PUSH4 0x679AEFCE EQ PUSH2 0x65E JUMPI DUP1 PUSH4 0x70A08231 EQ PUSH2 0x626 JUMPI DUP1 PUSH4 0x715018A6 EQ PUSH2 0x5C2 JUMPI DUP1 PUSH4 0x8DA5CB5B EQ PUSH2 0x595 JUMPI DUP1 PUSH4 0x8F4FFCB1 EQ PUSH2 0x46E JUMPI DUP1 PUSH4 0x9636D881 EQ PUSH2 0x433 JUMPI DUP4 DUP2 PUSH4 0xB6B55F25 EQ PUSH2 0x38A JUMPI POP DUP1 PUSH4 0xBF3506C1 EQ PUSH2 0x34B JUMPI DUP1 PUSH4 0xC4AE3168 EQ PUSH2 0x268 JUMPI DUP1 PUSH4 0xCDB2AEAB EQ PUSH2 0x249 JUMPI DUP1 PUSH4 0xDAF49863 EQ PUSH2 0x203 JUMPI DUP1 PUSH4 0xE1F26F22 EQ PUSH2 0x1DC JUMPI PUSH4 0xF2FDE38B EQ PUSH2 0x101 JUMPI PUSH1 0x0 DUP1 REVERT JUMPDEST CALLVALUE PUSH2 0x1D8 JUMPI PUSH1 0x20 CALLDATASIZE PUSH1 0x3 NOT ADD SLT PUSH2 0x1D8 JUMPI PUSH2 0x11A PUSH2 0xB70 JUMP JUMPDEST PUSH2 0x122 PUSH2 0xB8B JUMP JUMPDEST PUSH1 0x1 PUSH1 0x1 PUSH1 0xA0 SHL SUB DUP2 DUP2 AND SWAP4 SWAP1 SWAP3 SWAP1 DUP5 ISZERO PUSH2 0x186 JUMPI POP POP PUSH1 0x1 DUP1 SLOAD PUSH2 0x100 PUSH1 0x1 PUSH1 0xA8 SHL SUB NOT DUP2 AND PUSH1 0x8 SWAP4 DUP5 SHL PUSH2 0x100 PUSH1 0x1 PUSH1 0xA8 SHL SUB AND OR SWAP1 SWAP2 SSTORE SWAP1 SHR AND PUSH32 0x8BE0079C531659141344CD1FD0A4F28419497F9722A3DAAFE3B4186F6B6457E0 DUP4 DUP1 LOG3 DUP1 RETURN JUMPDEST SWAP1 PUSH1 0x20 PUSH1 0x84 SWAP3 MLOAD SWAP2 PUSH3 0x461BCD PUSH1 0xE5 SHL DUP4 MSTORE DUP3 ADD MSTORE PUSH1 0x26 PUSH1 0x24 DUP3 ADD MSTORE PUSH32 0x4F776E61626C653A206E6577206F776E657220697320746865207A65726F2061 PUSH1 0x44 DUP3 ADD MSTORE PUSH6 0x646472657373 PUSH1 0xD0 SHL PUSH1 0x64 DUP3 ADD MSTORE REVERT JUMPDEST DUP3 DUP1 REVERT JUMPDEST POP CALLVALUE PUSH2 0x1D8 JUMPI DUP3 PUSH1 0x3 NOT CALLDATASIZE ADD SLT PUSH2 0x1D8 JUMPI SLOAD SWAP1 MLOAD PUSH1 0x1 PUSH1 0x1 PUSH1 0xA0 SHL SUB SWAP1 SWAP2 AND DUP2 MSTORE PUSH1 0x20 SWAP2 POP RETURN JUMPDEST POP POP CALLVALUE PUSH2 0x245 JUMPI PUSH1 0x20 CALLDATASIZE PUSH1 0x3 NOT ADD SLT PUSH2 0x245 JUMPI SWAP1 DUP2 SWAP1 PUSH1 0x1 PUSH1 0x1 PUSH1 0xA0 SHL SUB PUSH2 0x229 PUSH2 0xB70 JUMP JUMPDEST AND DUP2 MSTORE PUSH1 0x7 PUSH1 0x20 MSTORE KECCAK256 PUSH1 0x1 DUP2 SLOAD SWAP2 ADD SLOAD DUP3 MLOAD SWAP2 DUP3 MSTORE PUSH1 0x20 DUP3 ADD MSTORE RETURN JUMPDEST POP DUP1 REVERT JUMPDEST POP POP CALLVALUE PUSH2 0x245 JUMPI DUP2 PUSH1 0x3 NOT CALLDATASIZE ADD SLT PUSH2 0x245 JUMPI PUSH1 0x20 SWAP1 PUSH1 0x5 SLOAD SWAP1 MLOAD SWAP1 DUP2 MSTORE RETURN JUMPDEST POP CALLVALUE PUSH2 0x1D8 JUMPI DUP3 PUSH1 0x3 NOT CALLDATASIZE ADD SLT PUSH2 0x1D8 JUMPI PUSH2 0x281 PUSH2 0xB8B JUMP JUMPDEST PUSH1 0x1 SLOAD PUSH1 0xFF DUP2 AND ISZERO PUSH2 0x30A JUMPI POP PUSH1 0x1 SLOAD SWAP1 PUSH1 0xFF DUP3 AND ISZERO PUSH2 0x2D0 JUMPI POP PUSH1 0xFF NOT AND PUSH1 0x1 SSTORE MLOAD CALLER DUP2 MSTORE PUSH32 0x5DB9EE0A495BF2E6FF9C91A7834C1BA4FDD244A5E8AA4E537BD38AEAE4B073AA SWAP1 PUSH1 0x20 SWAP1 LOG1 DUP1 RETURN JUMPDEST PUSH1 0x64 SWAP1 PUSH1 0x20 DUP5 MLOAD SWAP2 PUSH3 0x461BCD PUSH1 0xE5 SHL DUP4 MSTORE DUP3 ADD MSTORE PUSH1 0x14 PUSH1 0x24 DUP3 ADD MSTORE PUSH20 0x14185D5CD8589B194E881B9BDD081C185D5CD959 PUSH1 0x62 SHL PUSH1 0x44 DUP3 ADD MSTORE REVERT JUMPDEST PUSH1 0x20 SWAP2 POP SWAP2 PUSH1 0x1 PUSH32 0x62E78CEA01BEE320CD4E420270B5EA74000D11B0C9F74754EBDBFC544B05A258 SWAP4 PUSH2 0x33B PUSH2 0xC36 JUMP JUMPDEST PUSH1 0xFF NOT AND OR PUSH1 0x1 SSTORE MLOAD CALLER DUP2 MSTORE LOG1 DUP1 RETURN JUMPDEST POP POP CALLVALUE PUSH2 0x245 JUMPI PUSH1 0x20 CALLDATASIZE PUSH1 0x3 NOT ADD SLT PUSH2 0x245 JUMPI PUSH1 0x20 SWAP2 PUSH1 0x1 SWAP1 DUP3 SWAP1 PUSH1 0x1 PUSH1 0x1 PUSH1 0xA0 SHL SUB PUSH2 0x376 PUSH2 0xB70 JUMP JUMPDEST AND DUP2 MSTORE PUSH1 0x7 DUP6 MSTORE KECCAK256 ADD SLOAD SWAP1 MLOAD SWAP1 TIMESTAMP LT ISZERO DUP2 MSTORE RETURN JUMPDEST DUP1 DUP5 DUP5 CALLVALUE PUSH2 0x42F JUMPI PUSH1 0x20 CALLDATASIZE PUSH1 0x3 NOT ADD SLT PUSH2 0x42F JUMPI PUSH2 0x3E7 PUSH1 0x20 SWAP2 PUSH2 0x3AC PUSH2 0xB8B JUMP JUMPDEST DUP1 SLOAD DUP5 MLOAD PUSH4 0x23B872DD PUSH1 0xE0 SHL DUP2 MSTORE CALLER DUP2 DUP5 ADD SWAP1 DUP2 MSTORE ADDRESS PUSH1 0x20 DUP3 ADD MSTORE SWAP3 CALLDATALOAD PUSH1 0x40 DUP5 ADD MSTORE SWAP6 DUP7 SWAP4 PUSH1 0x1 PUSH1 0x1 PUSH1 0xA0 SHL SUB SWAP1 SWAP3 AND SWAP3 DUP5 SWAP3 DUP4 SWAP2 PUSH1 0x60 ADD SWAP1 JUMP JUMPDEST SUB SWAP3 GAS CALL SWAP1 DUP2 ISZERO PUSH2 0x426 JUMPI POP PUSH2 0x3FB JUMPI POP DUP1 RETURN JUMPDEST PUSH2 0x41B SWAP1 PUSH1 0x20 RETURNDATASIZE DUP2 GT PUSH2 0x41F JUMPI JUMPDEST PUSH2 0x413 DUP2 DUP4 PUSH2 0xBE6 JUMP JUMPDEST DUP2 ADD SWAP1 PUSH2 0xC1E JUMP JUMPDEST POP DUP1 RETURN JUMPDEST POP RETURNDATASIZE PUSH2 0x409 JUMP JUMPDEST MLOAD RETURNDATASIZE DUP5 DUP3 RETURNDATACOPY RETURNDATASIZE SWAP1 REVERT JUMPDEST POP POP REVERT JUMPDEST DUP4 DUP3 CALLVALUE PUSH2 0x245 JUMPI PUSH1 0x20 CALLDATASIZE PUSH1 0x3 NOT ADD SLT PUSH2 0x245 JUMPI CALLDATALOAD PUSH4 0xFFFFFFFF DUP2 AND DUP1 SWAP2 SUB PUSH2 0x245 JUMPI PUSH2 0x45D PUSH2 0xB8B JUMP JUMPDEST PUSH4 0xFFFFFFFF NOT PUSH1 0x6 SLOAD AND OR PUSH1 0x6 SSTORE DUP1 RETURN JUMPDEST POP DUP3 SWAP1 CALLVALUE PUSH2 0x245 JUMPI PUSH1 0x80 CALLDATASIZE PUSH1 0x3 NOT ADD SLT PUSH2 0x245 JUMPI PUSH2 0x48A PUSH2 0xB70 JUMP JUMPDEST SWAP1 PUSH1 0x1 PUSH1 0x1 PUSH1 0xA0 SHL SUB PUSH1 0x44 CALLDATALOAD DUP2 DUP2 AND SUB PUSH2 0x58D JUMPI PUSH1 0x64 CALLDATALOAD PUSH8 0xFFFFFFFFFFFFFFFF DUP1 DUP3 GT PUSH2 0x591 JUMPI CALLDATASIZE PUSH1 0x23 DUP4 ADD SLT ISZERO PUSH2 0x591 JUMPI DUP2 DUP5 ADD CALLDATALOAD SWAP1 DUP2 GT PUSH2 0x591 JUMPI CALLDATASIZE SWAP2 ADD PUSH1 0x24 ADD GT PUSH2 0x58D JUMPI PUSH1 0x2 DUP5 SLOAD EQ PUSH2 0x54A JUMPI PUSH1 0x2 DUP5 SSTORE PUSH2 0x4E7 PUSH2 0xC36 JUMP JUMPDEST PUSH1 0x3 SLOAD AND SWAP1 DUP2 ISZERO PUSH2 0x507 JUMPI POP SWAP1 PUSH2 0x500 SWAP2 PUSH1 0x24 CALLDATALOAD PUSH2 0xCD0 JUMP JUMPDEST PUSH1 0x1 DUP2 SSTORE DUP1 RETURN JUMPDEST PUSH1 0x64 SWAP1 PUSH1 0x20 DUP7 MLOAD SWAP2 PUSH3 0x461BCD PUSH1 0xE5 SHL DUP4 MSTORE DUP3 ADD MSTORE PUSH1 0x1C PUSH1 0x24 DUP3 ADD MSTORE PUSH32 0x45617465723A20546F6B656E2061646472657373206E6F742073657400000000 PUSH1 0x44 DUP3 ADD MSTORE REVERT JUMPDEST DUP5 MLOAD PUSH3 0x461BCD PUSH1 0xE5 SHL DUP2 MSTORE PUSH1 0x20 DUP2 DUP5 ADD MSTORE PUSH1 0x1F PUSH1 0x24 DUP3 ADD MSTORE PUSH32 0x5265656E7472616E637947756172643A207265656E7472616E742063616C6C00 PUSH1 0x44 DUP3 ADD MSTORE PUSH1 0x64 SWAP1 REVERT JUMPDEST DUP4 DUP1 REVERT JUMPDEST DUP6 DUP1 REVERT JUMPDEST POP POP CALLVALUE PUSH2 0x245 JUMPI DUP2 PUSH1 0x3 NOT CALLDATASIZE ADD SLT PUSH2 0x245 JUMPI PUSH1 0x1 SLOAD SWAP1 MLOAD PUSH1 0x8 SWAP2 SWAP1 SWAP2 SHR PUSH1 0x1 PUSH1 0x1 PUSH1 0xA0 SHL SUB AND DUP2 MSTORE PUSH1 0x20 SWAP1 RETURN JUMPDEST DUP4 CALLVALUE PUSH2 0x623 JUMPI DUP1 PUSH1 0x3 NOT CALLDATASIZE ADD SLT PUSH2 0x623 JUMPI PUSH2 0x5DB PUSH2 0xB8B JUMP JUMPDEST PUSH1 0x1 DUP1 SLOAD PUSH2 0x100 PUSH1 0x1 PUSH1 0xA8 SHL SUB NOT DUP2 AND SWAP1 SWAP2 SSTORE DUP2 SWAP1 PUSH1 0x8 SHR PUSH1 0x1 PUSH1 0x1 PUSH1 0xA0 SHL SUB AND PUSH32 0x8BE0079C531659141344CD1FD0A4F28419497F9722A3DAAFE3B4186F6B6457E0 DUP3 DUP1 LOG3 DUP1 RETURN JUMPDEST DUP1 REVERT JUMPDEST POP POP CALLVALUE PUSH2 0x245 JUMPI PUSH1 0x20 CALLDATASIZE PUSH1 0x3 NOT ADD SLT PUSH2 0x245 JUMPI PUSH1 0x20 SWAP2 DUP2 SWAP1 PUSH1 0x1 PUSH1 0x1 PUSH1 0xA0 SHL SUB PUSH2 0x64E PUSH2 0xB70 JUMP JUMPDEST AND DUP2 MSTORE PUSH1 0x7 DUP5 MSTORE KECCAK256 SLOAD SWAP1 MLOAD SWAP1 DUP2 MSTORE RETURN JUMPDEST POP POP CALLVALUE PUSH2 0x245 JUMPI DUP2 PUSH1 0x3 NOT CALLDATASIZE ADD SLT PUSH2 0x245 JUMPI PUSH1 0x20 SWAP1 PUSH1 0x2 SLOAD SWAP1 MLOAD SWAP1 DUP2 MSTORE RETURN JUMPDEST POP POP CALLVALUE PUSH2 0x245 JUMPI DUP2 PUSH1 0x3 NOT CALLDATASIZE ADD SLT PUSH2 0x245 JUMPI PUSH1 0x20 SWAP1 PUSH1 0xFF PUSH1 0x1 SLOAD AND SWAP1 MLOAD SWAP1 ISZERO ISZERO DUP2 MSTORE RETURN JUMPDEST POP SWAP1 CALLVALUE PUSH2 0x1D8 JUMPI DUP3 PUSH1 0x3 NOT CALLDATASIZE ADD SLT PUSH2 0x1D8 JUMPI PUSH2 0x6BB PUSH2 0xC36 JUMP JUMPDEST PUSH4 0xFFFFFFFF PUSH1 0x6 SLOAD AND ISZERO PUSH2 0x729 JUMPI JUMPDEST CALLER DUP4 MSTORE PUSH1 0x7 PUSH1 0x20 MSTORE PUSH1 0x1 DUP2 DUP5 KECCAK256 ADD SLOAD TIMESTAMP LT PUSH2 0x6EB JUMPI DUP3 PUSH2 0x6E8 PUSH2 0xFBC JUMP JUMPDEST DUP1 RETURN JUMPDEST SWAP1 PUSH1 0x20 PUSH1 0x64 SWAP3 MLOAD SWAP2 PUSH3 0x461BCD PUSH1 0xE5 SHL DUP4 MSTORE DUP3 ADD MSTORE PUSH1 0x18 PUSH1 0x24 DUP3 ADD MSTORE PUSH24 0x11585D195C8E8815995CDD1A5B99C81B9BDD08195B991959 PUSH1 0x42 SHL PUSH1 0x44 DUP3 ADD MSTORE REVERT JUMPDEST PUSH2 0x731 PUSH2 0xFBC JUMP JUMPDEST PUSH2 0x6CA JUMP JUMPDEST POP SWAP2 SWAP1 CALLVALUE PUSH2 0x245 JUMPI DUP2 PUSH1 0x3 NOT CALLDATASIZE ADD SLT PUSH2 0x245 JUMPI PUSH2 0x751 PUSH2 0xB8B JUMP JUMPDEST DUP3 SLOAD DUP2 MLOAD PUSH4 0x70A08231 PUSH1 0xE0 SHL DUP2 MSTORE ADDRESS DUP2 DUP7 ADD MSTORE SWAP4 PUSH1 0x20 SWAP3 SWAP2 PUSH1 0x1 PUSH1 0x1 PUSH1 0xA0 SHL SUB SWAP1 DUP2 AND SWAP2 SWAP1 DUP5 DUP8 PUSH1 0x24 DUP2 DUP7 GAS STATICCALL SWAP7 DUP8 ISZERO PUSH2 0x87D JUMPI DUP7 SWAP8 PUSH2 0x84E JUMPI JUMPDEST POP DUP7 ISZERO PUSH2 0x80B JUMPI PUSH1 0x1 SLOAD DUP5 MLOAD PUSH4 0xA9059CBB PUSH1 0xE0 SHL DUP2 MSTORE PUSH1 0x1 PUSH1 0x1 PUSH1 0xA0 SHL SUB PUSH1 0x8 SWAP3 SWAP1 SWAP3 SHR SWAP1 SWAP3 AND AND SWAP2 DUP2 ADD SWAP2 DUP3 MSTORE PUSH1 0x20 DUP3 ADD DUP8 SWAP1 MSTORE SWAP3 SWAP2 DUP5 SWAP2 DUP5 SWAP2 SWAP1 DUP3 SWAP1 DUP9 SWAP1 DUP3 SWAP1 PUSH1 0x40 ADD SUB SWAP3 GAS CALL SWAP1 DUP2 ISZERO PUSH2 0x802 JUMPI POP PUSH2 0x7E5 JUMPI DUP3 DUP1 RETURN JUMPDEST DUP2 PUSH2 0x7FB SWAP3 SWAP1 RETURNDATASIZE LT PUSH2 0x41F JUMPI PUSH2 0x413 DUP2 DUP4 PUSH2 0xBE6 JUMP JUMPDEST POP DUP2 DUP1 DUP3 DUP1 RETURN JUMPDEST MLOAD RETURNDATASIZE DUP6 DUP3 RETURNDATACOPY RETURNDATASIZE SWAP1 REVERT JUMPDEST DUP4 MLOAD PUSH3 0x461BCD PUSH1 0xE5 SHL DUP2 MSTORE DUP1 DUP4 ADD DUP7 SWAP1 MSTORE PUSH1 0x1A PUSH1 0x24 DUP3 ADD MSTORE PUSH32 0x45617465723A204E6F2062616C616E636520746F207377656570000000000000 PUSH1 0x44 DUP3 ADD MSTORE PUSH1 0x64 SWAP1 REVERT JUMPDEST SWAP1 SWAP7 POP DUP5 DUP2 DUP2 RETURNDATASIZE DUP4 GT PUSH2 0x876 JUMPI JUMPDEST PUSH2 0x866 DUP2 DUP4 PUSH2 0xBE6 JUMP JUMPDEST DUP2 ADD SUB SLT PUSH2 0x591 JUMPI MLOAD SWAP6 CODESIZE PUSH2 0x78C JUMP JUMPDEST POP RETURNDATASIZE PUSH2 0x85C JUMP JUMPDEST DUP5 MLOAD RETURNDATASIZE DUP9 DUP3 RETURNDATACOPY RETURNDATASIZE SWAP1 REVERT JUMPDEST POP SWAP1 CALLVALUE PUSH2 0x1D8 JUMPI PUSH1 0x20 CALLDATASIZE PUSH1 0x3 NOT ADD SLT PUSH2 0x1D8 JUMPI DUP2 CALLDATALOAD SWAP2 PUSH2 0x8A5 PUSH2 0xB8B JUMP JUMPDEST DUP3 ISZERO PUSH2 0x8ED JUMPI POP DUP2 PUSH1 0x2 SLOAD SUB PUSH2 0x8B9 JUMPI DUP3 DUP1 RETURN JUMPDEST DUP2 PUSH1 0x20 SWAP2 PUSH32 0x595A30F13A69B616C4D568E2A2B7875FDFE86E4300A049953C76EE278F8F3F10 SWAP4 PUSH1 0x2 SSTORE MLOAD SWAP1 DUP2 MSTORE LOG1 CODESIZE DUP1 DUP3 DUP1 RETURN JUMPDEST PUSH1 0x20 PUSH1 0x84 SWAP3 MLOAD SWAP2 PUSH3 0x461BCD PUSH1 0xE5 SHL DUP4 MSTORE DUP3 ADD MSTORE PUSH1 0x22 PUSH1 0x24 DUP3 ADD MSTORE PUSH32 0x45617465723A2052617465206D7573742062652067726561746572207468616E PUSH1 0x44 DUP3 ADD MSTORE PUSH2 0x203 PUSH1 0xF4 SHL PUSH1 0x64 DUP3 ADD MSTORE REVERT JUMPDEST POP DUP3 SWAP1 CALLVALUE PUSH2 0x245 JUMPI PUSH1 0x20 DUP1 PUSH1 0x3 NOT CALLDATASIZE ADD SLT PUSH2 0x1D8 JUMPI DUP2 CALLDATALOAD SWAP2 PUSH2 0x95A PUSH2 0xC36 JUMP JUMPDEST PUSH2 0x990 PUSH2 0x969 PUSH1 0x2 SLOAD DUP6 PUSH2 0xC7A JUMP JUMPDEST PUSH32 0x0 SWAP1 PUSH2 0xCA3 JUMP JUMPDEST DUP2 SLOAD DUP7 MLOAD PUSH4 0x70A08231 PUSH1 0xE0 SHL DUP1 DUP3 MSTORE ADDRESS DUP3 DUP7 ADD MSTORE SWAP5 SWAP3 PUSH1 0x1 PUSH1 0x1 PUSH1 0xA0 SHL SUB SWAP3 DUP5 SWAP1 DUP4 SWAP1 PUSH1 0x24 SWAP1 DUP3 SWAP1 DUP8 AND GAS STATICCALL SWAP2 DUP3 ISZERO PUSH2 0xB1B JUMPI DUP9 SWAP3 PUSH2 0xAE6 JUMPI JUMPDEST POP PUSH2 0x9D7 SWAP1 PUSH1 0x5 SLOAD PUSH2 0xCC3 JUMP JUMPDEST GT PUSH2 0xAA5 JUMPI PUSH1 0x3 SLOAD AND SWAP3 DUP7 MLOAD SWAP1 DUP2 MSTORE CALLER DUP4 DUP3 ADD MSTORE DUP2 DUP2 PUSH1 0x24 DUP2 DUP8 GAS STATICCALL SWAP1 DUP2 ISZERO PUSH2 0xA9B JUMPI SWAP1 DUP6 SWAP2 DUP8 SWAP2 PUSH2 0xA6A JUMPI JUMPDEST POP LT PUSH2 0xA16 JUMPI DUP5 PUSH2 0x6E8 CALLER DUP6 DUP8 PUSH2 0xCD0 JUMP JUMPDEST DUP6 MLOAD PUSH3 0x461BCD PUSH1 0xE5 SHL DUP2 MSTORE SWAP2 DUP3 ADD MSTORE PUSH1 0x29 PUSH1 0x24 DUP3 ADD MSTORE PUSH32 0x47656E657269634D657267653A20496E73756666696369656E742062616C616E PUSH1 0x44 DUP3 ADD MSTORE PUSH9 0x18D9481D1BC819585D PUSH1 0xBA SHL PUSH1 0x64 DUP3 ADD MSTORE PUSH1 0x84 SWAP2 POP REVERT JUMPDEST DUP1 SWAP3 POP DUP4 DUP1 SWAP3 POP RETURNDATASIZE DUP4 GT PUSH2 0xA94 JUMPI JUMPDEST PUSH2 0xA83 DUP2 DUP4 PUSH2 0xBE6 JUMP JUMPDEST DUP2 ADD SUB SLT PUSH2 0x591 JUMPI DUP5 SWAP1 MLOAD DUP9 PUSH2 0xA04 JUMP JUMPDEST POP RETURNDATASIZE PUSH2 0xA79 JUMP JUMPDEST DUP8 MLOAD RETURNDATASIZE DUP9 DUP3 RETURNDATACOPY RETURNDATASIZE SWAP1 REVERT JUMPDEST PUSH1 0x64 DUP4 DUP4 DUP1 DUP11 MLOAD SWAP3 PUSH3 0x461BCD PUSH1 0xE5 SHL DUP5 MSTORE DUP4 ADD MSTORE PUSH1 0x24 DUP3 ADD MSTORE PUSH32 0x45617465723A20496E73756666696369656E7420576577652062616C616E6365 PUSH1 0x44 DUP3 ADD MSTORE REVERT JUMPDEST SWAP1 SWAP2 POP DUP4 DUP2 DUP2 RETURNDATASIZE DUP4 GT PUSH2 0xB14 JUMPI JUMPDEST PUSH2 0xAFE DUP2 DUP4 PUSH2 0xBE6 JUMP JUMPDEST DUP2 ADD SUB SLT PUSH2 0xB10 JUMPI MLOAD SWAP1 PUSH2 0x9D7 PUSH2 0x9CA JUMP JUMPDEST DUP8 DUP1 REVERT JUMPDEST POP RETURNDATASIZE PUSH2 0xAF4 JUMP JUMPDEST DUP10 MLOAD RETURNDATASIZE DUP11 DUP3 RETURNDATACOPY RETURNDATASIZE SWAP1 REVERT JUMPDEST POP POP CALLVALUE PUSH2 0x245 JUMPI DUP2 PUSH1 0x3 NOT CALLDATASIZE ADD SLT PUSH2 0x245 JUMPI PUSH1 0x3 SLOAD SWAP1 MLOAD PUSH1 0x1 PUSH1 0x1 PUSH1 0xA0 SHL SUB SWAP1 SWAP2 AND DUP2 MSTORE PUSH1 0x20 SWAP1 RETURN JUMPDEST DUP5 SWAP1 CALLVALUE PUSH2 0x245 JUMPI DUP2 PUSH1 0x3 NOT CALLDATASIZE ADD SLT PUSH2 0x245 JUMPI PUSH1 0x20 SWAP1 PUSH4 0xFFFFFFFF PUSH1 0x6 SLOAD AND DUP2 MSTORE RETURN JUMPDEST PUSH1 0x4 CALLDATALOAD SWAP1 PUSH1 0x1 PUSH1 0x1 PUSH1 0xA0 SHL SUB DUP3 AND DUP3 SUB PUSH2 0xB86 JUMPI JUMP JUMPDEST PUSH1 0x0 DUP1 REVERT JUMPDEST PUSH1 0x1 SLOAD PUSH1 0x8 SHR PUSH1 0x1 PUSH1 0x1 PUSH1 0xA0 SHL SUB AND CALLER SUB PUSH2 0xBA2 JUMPI JUMP JUMPDEST PUSH1 0x64 PUSH1 0x40 MLOAD PUSH3 0x461BCD PUSH1 0xE5 SHL DUP2 MSTORE PUSH1 0x20 PUSH1 0x4 DUP3 ADD MSTORE PUSH1 0x20 PUSH1 0x24 DUP3 ADD MSTORE PUSH32 0x4F776E61626C653A2063616C6C6572206973206E6F7420746865206F776E6572 PUSH1 0x44 DUP3 ADD MSTORE REVERT JUMPDEST SWAP1 PUSH1 0x1F DUP1 NOT SWAP2 ADD AND DUP2 ADD SWAP1 DUP2 LT PUSH8 0xFFFFFFFFFFFFFFFF DUP3 GT OR PUSH2 0xC08 JUMPI PUSH1 0x40 MSTORE JUMP JUMPDEST PUSH4 0x4E487B71 PUSH1 0xE0 SHL PUSH1 0x0 MSTORE PUSH1 0x41 PUSH1 0x4 MSTORE PUSH1 0x24 PUSH1 0x0 REVERT JUMPDEST SWAP1 DUP2 PUSH1 0x20 SWAP2 SUB SLT PUSH2 0xB86 JUMPI MLOAD DUP1 ISZERO ISZERO DUP2 SUB PUSH2 0xB86 JUMPI SWAP1 JUMP JUMPDEST PUSH1 0xFF PUSH1 0x1 SLOAD AND PUSH2 0xC42 JUMPI JUMP JUMPDEST PUSH1 0x40 MLOAD PUSH3 0x461BCD PUSH1 0xE5 SHL DUP2 MSTORE PUSH1 0x20 PUSH1 0x4 DUP3 ADD MSTORE PUSH1 0x10 PUSH1 0x24 DUP3 ADD MSTORE PUSH16 0x14185D5CD8589B194E881C185D5CD959 PUSH1 0x82 SHL PUSH1 0x44 DUP3 ADD MSTORE PUSH1 0x64 SWAP1 REVERT JUMPDEST DUP2 DUP2 MUL SWAP3 SWAP2 DUP2 ISZERO SWAP2 DUP5 DIV EQ OR ISZERO PUSH2 0xC8D JUMPI JUMP JUMPDEST PUSH4 0x4E487B71 PUSH1 0xE0 SHL PUSH1 0x0 MSTORE PUSH1 0x11 PUSH1 0x4 MSTORE PUSH1 0x24 PUSH1 0x0 REVERT JUMPDEST DUP2 ISZERO PUSH2 0xCAD JUMPI DIV SWAP1 JUMP JUMPDEST PUSH4 0x4E487B71 PUSH1 0xE0 SHL PUSH1 0x0 MSTORE PUSH1 0x12 PUSH1 0x4 MSTORE PUSH1 0x24 PUSH1 0x0 REVERT JUMPDEST SWAP2 SWAP1 DUP3 ADD DUP1 SWAP3 GT PUSH2 0xC8D JUMPI JUMP JUMPDEST SWAP1 SWAP3 SWAP2 PUSH2 0xCE2 PUSH2 0x969 PUSH1 0x2 SLOAD DUP5 PUSH2 0xC7A JUMP JUMPDEST SWAP2 PUSH2 0xCEF DUP4 PUSH1 0x5 SLOAD PUSH2 0xCC3 JUMP JUMPDEST PUSH1 0x5 SSTORE PUSH1 0x1 DUP1 PUSH1 0xA0 SHL SUB SWAP5 PUSH1 0x4 DUP7 DUP2 SLOAD AND SWAP4 PUSH1 0x40 SWAP3 DUP4 MLOAD DUP1 SWAP7 PUSH4 0x70A08231 PUSH1 0xE0 SHL DUP3 MSTORE ADDRESS DUP6 DUP4 ADD MSTORE DUP2 PUSH1 0x24 PUSH1 0x20 SWAP10 DUP11 SWAP4 GAS STATICCALL SWAP1 DUP2 ISZERO PUSH2 0xFB1 JUMPI PUSH1 0x0 SWAP2 PUSH2 0xF84 JUMPI JUMPDEST POP DUP8 GT PUSH2 0xF2B JUMPI DUP4 MLOAD PUSH4 0x23B872DD PUSH1 0xE0 SHL DUP2 MSTORE PUSH1 0x1 PUSH1 0x1 PUSH1 0xA0 SHL SUB DUP4 AND DUP5 DUP3 ADD SWAP1 DUP2 MSTORE ADDRESS PUSH1 0x20 DUP3 ADD MSTORE PUSH1 0x40 DUP2 ADD DUP8 SWAP1 MSTORE SWAP1 SWAP2 DUP8 SWAP2 DUP4 SWAP2 SWAP1 DUP3 SWAP1 SUB PUSH1 0x60 ADD SWAP1 DUP3 SWAP1 PUSH1 0x0 SWAP1 DUP15 AND GAS CALL DUP1 ISZERO PUSH2 0xF20 JUMPI PUSH2 0xF03 JUMPI JUMPDEST POP DUP8 DUP2 AND SWAP6 DUP7 PUSH1 0x0 MSTORE PUSH1 0x7 DUP7 MSTORE DUP4 PUSH1 0x0 KECCAK256 SLOAD SWAP2 PUSH4 0xFFFFFFFF SWAP10 DUP11 PUSH1 0x6 SLOAD AND ISZERO ISZERO PUSH1 0x0 EQ PUSH2 0xE66 JUMPI POP POP SWAP1 PUSH2 0xDB5 SWAP2 PUSH2 0xCC3 JUMP JUMPDEST SWAP7 PUSH1 0x3C DUP2 PUSH1 0x6 SLOAD AND MUL SWAP1 DUP2 AND SWAP1 DUP2 SUB PUSH2 0xE51 JUMPI PUSH2 0xDD2 SWAP1 TIMESTAMP PUSH2 0xCC3 JUMP JUMPDEST SWAP7 DUP3 MLOAD SWAP2 DUP4 DUP4 ADD SWAP1 DUP4 DUP3 LT PUSH8 0xFFFFFFFFFFFFFFFF DUP4 GT OR PUSH2 0xE3C JUMPI POP SWAP8 PUSH1 0x1 SWAP2 PUSH32 0xADC41BA80FFA0859AAB1D7CF405A6633A6AF94FC3D10E5B0E0BF46CDCC0FD9C8 SWAP8 SWAP9 SWAP10 DUP6 MSTORE DUP4 MSTORE DUP6 DUP4 ADD SWAP1 DUP2 MSTORE CALLER PUSH1 0x0 MSTORE PUSH1 0x7 DUP7 MSTORE DUP4 PUSH1 0x0 KECCAK256 SWAP3 MLOAD DUP4 SSTORE MLOAD SWAP2 ADD SSTORE JUMPDEST MLOAD SWAP1 DUP2 MSTORE LOG2 JUMP JUMPDEST PUSH1 0x41 SWAP1 PUSH4 0x4E487B71 PUSH1 0xE0 SHL PUSH1 0x0 MSTORE MSTORE PUSH1 0x24 PUSH1 0x0 REVERT JUMPDEST PUSH1 0x11 DUP3 PUSH4 0x4E487B71 PUSH1 0xE0 SHL PUSH1 0x0 MSTORE MSTORE PUSH1 0x24 PUSH1 0x0 REVERT JUMPDEST DUP5 SLOAD DUP7 MLOAD PUSH4 0xA9059CBB PUSH1 0xE0 SHL DUP2 MSTORE PUSH1 0x1 PUSH1 0x1 PUSH1 0xA0 SHL SUB SWAP4 SWAP1 SWAP4 AND SWAP6 DUP4 ADD SWAP6 DUP7 MSTORE PUSH1 0x20 DUP7 ADD SWAP4 SWAP1 SWAP4 MSTORE SWAP1 SWAP10 POP DUP7 SWAP4 DUP11 SWAP4 POP DUP4 SWAP1 SUB PUSH1 0x40 ADD SWAP2 DUP4 SWAP2 PUSH1 0x0 SWAP2 AND GAS CALL SWAP6 DUP7 ISZERO PUSH2 0xEF8 JUMPI PUSH32 0xADC41BA80FFA0859AAB1D7CF405A6633A6AF94FC3D10E5B0E0BF46CDCC0FD9C8 SWAP5 SWAP6 SWAP7 PUSH2 0xEDB JUMPI JUMPDEST POP PUSH2 0xE35 JUMP JUMPDEST PUSH2 0xEF1 SWAP1 DUP5 RETURNDATASIZE DUP7 GT PUSH2 0x41F JUMPI PUSH2 0x413 DUP2 DUP4 PUSH2 0xBE6 JUMP JUMPDEST POP CODESIZE PUSH2 0xED5 JUMP JUMPDEST POP MLOAD RETURNDATASIZE PUSH1 0x0 DUP3 RETURNDATACOPY RETURNDATASIZE SWAP1 REVERT JUMPDEST PUSH2 0xF19 SWAP1 DUP7 RETURNDATASIZE DUP9 GT PUSH2 0x41F JUMPI PUSH2 0x413 DUP2 DUP4 PUSH2 0xBE6 JUMP JUMPDEST POP CODESIZE PUSH2 0xD82 JUMP JUMPDEST DUP5 MLOAD RETURNDATASIZE PUSH1 0x0 DUP3 RETURNDATACOPY RETURNDATASIZE SWAP1 REVERT JUMPDEST DUP4 MLOAD PUSH3 0x461BCD PUSH1 0xE5 SHL DUP2 MSTORE DUP1 DUP5 ADD DUP8 SWAP1 MSTORE PUSH1 0x2D PUSH1 0x24 DUP3 ADD MSTORE PUSH32 0x45617465723A20496E73756666696369656E7420746F6B656E2062616C616E63 PUSH1 0x44 DUP3 ADD MSTORE PUSH13 0x32903A37903A3930B739B332B9 PUSH1 0x99 SHL PUSH1 0x64 DUP3 ADD MSTORE PUSH1 0x84 SWAP1 REVERT JUMPDEST SWAP1 DUP8 DUP3 DUP2 RETURNDATASIZE DUP4 GT PUSH2 0xFAA JUMPI JUMPDEST PUSH2 0xF9A DUP2 DUP4 PUSH2 0xBE6 JUMP JUMPDEST DUP2 ADD SUB SLT PUSH2 0x623 JUMPI POP MLOAD CODESIZE PUSH2 0xD30 JUMP JUMPDEST POP RETURNDATASIZE PUSH2 0xF90 JUMP JUMPDEST DUP6 MLOAD RETURNDATASIZE PUSH1 0x0 DUP3 RETURNDATACOPY RETURNDATASIZE SWAP1 REVERT JUMPDEST PUSH1 0x0 CALLER DUP2 MSTORE PUSH1 0x7 PUSH1 0x20 MSTORE PUSH1 0x40 DUP2 KECCAK256 SLOAD PUSH1 0x5 SLOAD DUP2 DUP2 SUB SWAP1 DUP2 GT PUSH2 0x1059 JUMPI PUSH1 0x5 SSTORE CALLER DUP1 DUP4 MSTORE PUSH1 0x7 PUSH1 0x20 SWAP1 DUP2 MSTORE PUSH1 0x40 DUP1 DUP6 KECCAK256 DUP6 SWAP1 SSTORE PUSH1 0x4 DUP1 SLOAD SWAP2 MLOAD PUSH4 0xA9059CBB PUSH1 0xE0 SHL DUP2 MSTORE SWAP1 DUP2 ADD SWAP4 SWAP1 SWAP4 MSTORE PUSH1 0x24 DUP4 ADD SWAP4 SWAP1 SWAP4 MSTORE SWAP1 SWAP3 SWAP2 DUP4 SWAP1 PUSH1 0x44 SWAP1 DUP3 SWAP1 DUP6 SWAP1 PUSH1 0x1 PUSH1 0x1 PUSH1 0xA0 SHL SUB AND GAS CALL SWAP1 DUP2 ISZERO PUSH2 0x104D JUMPI POP PUSH2 0x1033 JUMPI POP JUMP JUMPDEST PUSH2 0x104A SWAP1 PUSH1 0x20 RETURNDATASIZE DUP2 GT PUSH2 0x41F JUMPI PUSH2 0x413 DUP2 DUP4 PUSH2 0xBE6 JUMP JUMPDEST POP JUMP JUMPDEST PUSH1 0x40 MLOAD SWAP1 RETURNDATASIZE SWAP1 DUP3 RETURNDATACOPY RETURNDATASIZE SWAP1 REVERT JUMPDEST PUSH4 0x4E487B71 PUSH1 0xE0 SHL DUP4 MSTORE PUSH1 0x11 PUSH1 0x4 MSTORE PUSH1 0x24 DUP4 REVERT INVALID LOG2 PUSH5 0x6970667358 0x22 SLT KECCAK256 JUMPI 0xF 0xD0 0xC8 0xEF DUP7 GAS 0xF9 SWAP11 0x21 CALLDATASIZE 0x4A 0xA7 0x28 0xCB 0xB6 CALLER 0xCC PUSH6 0x1C15B77686D7 KECCAK256 0xE6 0x49 MSTORE DUP4 GAS PUSH7 0x64736F6C634300 ADDMOD SGT STOP CALLER LOG2 PUSH5 0x6970667358 0x22 SLT KECCAK256 0xDC 0xC5 SWAP14 0xBA DELEGATECALL 0xD0 0xE7 CALLDATASIZE PUSH3 0x65FBA7 STOP PC 0xDC 0xE9 DUP4 0xEE SIGNEXTEND 0xAD 0xD3 0xDC 0xA6 0xB4 0xEC PUSH10 0xE5F13D4D4E4964736F6C PUSH4 0x43000813 STOP CALLER "
        },
        "methodIdentifiers": {
          "allowedDeployers(address)": "6d090218",
          "createMergeWith(address,uint256,uint32,uint8)": "1bec1464",
          "getMergeCount()": "1d06f92b",
          "mergeTypes(address)": "7f389fd5",
          "merges(address)": "e441eebf",
          "owner()": "8da5cb5b",
          "renounceOwnership()": "715018a6",
          "setAllowedDeployer(address,bool)": "39db25f7",
          "setMerge(address)": "b49757a6",
          "setMergeWithType(address,uint8)": "9dc79be4",
          "setType(address,uint8)": "a49a7cb1",
          "tokens(uint256)": "4f64b2be",
          "transferOwnership(address)": "f2fde38b",
          "wewe()": "e1f26f22"
        }
      }
    }
  }
}