{
  "contracts/core/merge/DynamicEater.sol": {
    "DynamicEater": {
      "abi": [
        {
          "inputs": [
            {
              "internalType": "address",
              "name": "_wewe",
              "type": "address"
            },
            {
              "internalType": "address",
              "name": "_token",
              "type": "address"
            },
            {
              "internalType": "uint32",
              "name": "_vestingDuration",
              "type": "uint32"
            },
            {
              "internalType": "uint256",
              "name": "_virtualToken",
              "type": "uint256"
            },
            {
              "internalType": "uint256",
              "name": "_virtualWEWE",
              "type": "uint256"
            }
          ],
          "stateMutability": "nonpayable",
          "type": "constructor"
        },
        {
          "anonymous": false,
          "inputs": [
            {
              "indexed": false,
              "internalType": "uint256",
              "name": "amount",
              "type": "uint256"
            }
          ],
          "name": "Dumped",
          "type": "event"
        },
        {
          "anonymous": false,
          "inputs": [
            {
              "indexed": false,
              "internalType": "uint256",
              "name": "amount",
              "type": "uint256"
            },
            {
              "indexed": true,
              "internalType": "address",
              "name": "account",
              "type": "address"
            },
            {
              "indexed": false,
              "internalType": "uint256",
              "name": "weweAmount",
              "type": "uint256"
            }
          ],
          "name": "Merged",
          "type": "event"
        },
        {
          "anonymous": false,
          "inputs": [
            {
              "indexed": true,
              "internalType": "address",
              "name": "previousOwner",
              "type": "address"
            },
            {
              "indexed": true,
              "internalType": "address",
              "name": "newOwner",
              "type": "address"
            }
          ],
          "name": "OwnershipTransferred",
          "type": "event"
        },
        {
          "anonymous": false,
          "inputs": [
            {
              "indexed": false,
              "internalType": "address",
              "name": "account",
              "type": "address"
            }
          ],
          "name": "Paused",
          "type": "event"
        },
        {
          "anonymous": false,
          "inputs": [
            {
              "indexed": false,
              "internalType": "uint256",
              "name": "newRate",
              "type": "uint256"
            }
          ],
          "name": "RateChanged",
          "type": "event"
        },
        {
          "anonymous": false,
          "inputs": [
            {
              "indexed": false,
              "internalType": "address",
              "name": "account",
              "type": "address"
            }
          ],
          "name": "Unpaused",
          "type": "event"
        },
        {
          "inputs": [],
          "name": "adaptor",
          "outputs": [
            {
              "internalType": "address",
              "name": "",
              "type": "address"
            }
          ],
          "stateMutability": "view",
          "type": "function"
        },
        {
          "inputs": [
            {
              "internalType": "address",
              "name": "account",
              "type": "address"
            }
          ],
          "name": "balanceOf",
          "outputs": [
            {
              "internalType": "uint256",
              "name": "",
              "type": "uint256"
            }
          ],
          "stateMutability": "view",
          "type": "function"
        },
        {
          "inputs": [
            {
              "internalType": "uint256",
              "name": "x",
              "type": "uint256"
            }
          ],
          "name": "calculateTokensOut",
          "outputs": [
            {
              "internalType": "uint256",
              "name": "",
              "type": "uint256"
            }
          ],
          "stateMutability": "view",
          "type": "function"
        },
        {
          "inputs": [
            {
              "internalType": "address",
              "name": "account",
              "type": "address"
            }
          ],
          "name": "canClaim",
          "outputs": [
            {
              "internalType": "bool",
              "name": "",
              "type": "bool"
            }
          ],
          "stateMutability": "view",
          "type": "function"
        },
        {
          "inputs": [],
          "name": "claim",
          "outputs": [],
          "stateMutability": "nonpayable",
          "type": "function"
        },
        {
          "inputs": [
            {
              "internalType": "uint256",
              "name": "amount",
              "type": "uint256"
            }
          ],
          "name": "deposit",
          "outputs": [],
          "stateMutability": "nonpayable",
          "type": "function"
        },
        {
          "inputs": [],
          "name": "dump",
          "outputs": [],
          "stateMutability": "nonpayable",
          "type": "function"
        },
        {
          "inputs": [],
          "name": "getCurrentPrice",
          "outputs": [
            {
              "internalType": "uint256",
              "name": "",
              "type": "uint256"
            }
          ],
          "stateMutability": "view",
          "type": "function"
        },
        {
          "inputs": [],
          "name": "getRate",
          "outputs": [
            {
              "internalType": "uint256",
              "name": "",
              "type": "uint256"
            }
          ],
          "stateMutability": "view",
          "type": "function"
        },
        {
          "inputs": [],
          "name": "getToken",
          "outputs": [
            {
              "internalType": "address",
              "name": "",
              "type": "address"
            }
          ],
          "stateMutability": "view",
          "type": "function"
        },
        {
          "inputs": [],
          "name": "maxSupply",
          "outputs": [
            {
              "internalType": "uint256",
              "name": "",
              "type": "uint256"
            }
          ],
          "stateMutability": "view",
          "type": "function"
        },
        {
          "inputs": [
            {
              "internalType": "uint256",
              "name": "amount",
              "type": "uint256"
            }
          ],
          "name": "merge",
          "outputs": [
            {
              "internalType": "uint256",
              "name": "",
              "type": "uint256"
            }
          ],
          "stateMutability": "nonpayable",
          "type": "function"
        },
        {
          "inputs": [],
          "name": "mergeAll",
          "outputs": [
            {
              "internalType": "uint256",
              "name": "",
              "type": "uint256"
            }
          ],
          "stateMutability": "nonpayable",
          "type": "function"
        },
        {
          "inputs": [
            {
              "internalType": "uint256",
              "name": "amount",
              "type": "uint256"
            },
            {
              "internalType": "bytes32[]",
              "name": "proof",
              "type": "bytes32[]"
            }
          ],
          "name": "mergeWithProof",
          "outputs": [
            {
              "internalType": "uint256",
              "name": "",
              "type": "uint256"
            }
          ],
          "stateMutability": "nonpayable",
          "type": "function"
        },
        {
          "inputs": [],
          "name": "merkleRoot",
          "outputs": [
            {
              "internalType": "bytes32",
              "name": "",
              "type": "bytes32"
            }
          ],
          "stateMutability": "view",
          "type": "function"
        },
        {
          "inputs": [],
          "name": "name",
          "outputs": [
            {
              "internalType": "string",
              "name": "",
              "type": "string"
            }
          ],
          "stateMutability": "view",
          "type": "function"
        },
        {
          "inputs": [],
          "name": "owner",
          "outputs": [
            {
              "internalType": "address",
              "name": "",
              "type": "address"
            }
          ],
          "stateMutability": "view",
          "type": "function"
        },
        {
          "inputs": [],
          "name": "paused",
          "outputs": [
            {
              "internalType": "bool",
              "name": "",
              "type": "bool"
            }
          ],
          "stateMutability": "view",
          "type": "function"
        },
        {
          "inputs": [
            {
              "internalType": "address",
              "name": "from",
              "type": "address"
            },
            {
              "internalType": "uint256",
              "name": "amount",
              "type": "uint256"
            },
            {
              "internalType": "address",
              "name": "",
              "type": "address"
            },
            {
              "internalType": "bytes",
              "name": "",
              "type": "bytes"
            }
          ],
          "name": "receiveApproval",
          "outputs": [],
          "stateMutability": "nonpayable",
          "type": "function"
        },
        {
          "inputs": [],
          "name": "renounceOwnership",
          "outputs": [],
          "stateMutability": "nonpayable",
          "type": "function"
        },
        {
          "inputs": [
            {
              "internalType": "address",
              "name": "amm",
              "type": "address"
            }
          ],
          "name": "setAdaptor",
          "outputs": [],
          "stateMutability": "nonpayable",
          "type": "function"
        },
        {
          "inputs": [
            {
              "internalType": "uint256",
              "name": "value",
              "type": "uint256"
            }
          ],
          "name": "setMaxSupply",
          "outputs": [],
          "stateMutability": "nonpayable",
          "type": "function"
        },
        {
          "inputs": [
            {
              "internalType": "bytes32",
              "name": "root",
              "type": "bytes32"
            }
          ],
          "name": "setMerkleRoot",
          "outputs": [],
          "stateMutability": "nonpayable",
          "type": "function"
        },
        {
          "inputs": [
            {
              "internalType": "address",
              "name": "_treasury",
              "type": "address"
            }
          ],
          "name": "setTreasury",
          "outputs": [],
          "stateMutability": "nonpayable",
          "type": "function"
        },
        {
          "inputs": [
            {
              "internalType": "uint32",
              "name": "duration",
              "type": "uint32"
            }
          ],
          "name": "setVestingDuration",
          "outputs": [],
          "stateMutability": "nonpayable",
          "type": "function"
        },
        {
          "inputs": [
            {
              "internalType": "uint256",
              "name": "value",
              "type": "uint256"
            }
          ],
          "name": "setVirtualTokenBalance",
          "outputs": [],
          "stateMutability": "nonpayable",
          "type": "function"
        },
        {
          "inputs": [
            {
              "internalType": "uint256",
              "name": "value",
              "type": "uint256"
            }
          ],
          "name": "setVirtualWeWEBalance",
          "outputs": [],
          "stateMutability": "nonpayable",
          "type": "function"
        },
        {
          "inputs": [],
          "name": "sweep",
          "outputs": [],
          "stateMutability": "nonpayable",
          "type": "function"
        },
        {
          "inputs": [],
          "name": "togglePause",
          "outputs": [],
          "stateMutability": "nonpayable",
          "type": "function"
        },
        {
          "inputs": [],
          "name": "totalVested",
          "outputs": [
            {
              "internalType": "uint256",
              "name": "",
              "type": "uint256"
            }
          ],
          "stateMutability": "view",
          "type": "function"
        },
        {
          "inputs": [
            {
              "internalType": "address",
              "name": "newOwner",
              "type": "address"
            }
          ],
          "name": "transferOwnership",
          "outputs": [],
          "stateMutability": "nonpayable",
          "type": "function"
        },
        {
          "inputs": [],
          "name": "treasury",
          "outputs": [
            {
              "internalType": "address",
              "name": "",
              "type": "address"
            }
          ],
          "stateMutability": "view",
          "type": "function"
        },
        {
          "inputs": [],
          "name": "vestingDuration",
          "outputs": [
            {
              "internalType": "uint32",
              "name": "",
              "type": "uint32"
            }
          ],
          "stateMutability": "view",
          "type": "function"
        },
        {
          "inputs": [
            {
              "internalType": "address",
              "name": "",
              "type": "address"
            }
          ],
          "name": "vestings",
          "outputs": [
            {
              "internalType": "uint256",
              "name": "amount",
              "type": "uint256"
            },
            {
              "internalType": "uint256",
              "name": "end",
              "type": "uint256"
            },
            {
              "internalType": "uint256",
              "name": "merged",
              "type": "uint256"
            }
          ],
          "stateMutability": "view",
          "type": "function"
        },
        {
          "inputs": [],
          "name": "virtualToken",
          "outputs": [
            {
              "internalType": "uint256",
              "name": "",
              "type": "uint256"
            }
          ],
          "stateMutability": "view",
          "type": "function"
        },
        {
          "inputs": [],
          "name": "virtualWEWE",
          "outputs": [
            {
              "internalType": "uint256",
              "name": "",
              "type": "uint256"
            }
          ],
          "stateMutability": "view",
          "type": "function"
        },
        {
          "inputs": [],
          "name": "wewe",
          "outputs": [
            {
              "internalType": "address",
              "name": "",
              "type": "address"
            }
          ],
          "stateMutability": "view",
          "type": "function"
        }
      ],
      "evm": {
        "bytecode": {
          "linkReferences": {},
          "object": "608060409080825234620002ae5760a081620020a18038038091620000258285620002b3565b833981010312620002ae576200003b81620002ed565b906020906200004c828201620002ed565b92848201519263ffffffff8416809403620002ae576060830151608090930151600160008181558154610100600160a81b0333600881811b929092166001600160a81b03198416179094558a51949997988998939790946001600160a01b03949385931c83167f8be0079c531659141344cd1fd0a4f28419497f9722a3daafe3b4186f6b6457e08a80a31693841562000261575016918215620002115791839291816004959360018060a01b031990816003541617600355600254161760025563ffffffff19600854161760085588519384809263313ce56760e01b82525afa90811562000207578391620001c3575b5060ff9150166012811062000163575b505050600b55600c5551611d9e9081620003038239f35b9091925060120360128111620001af57604d8111620001af57600a0a918281029281840414901517156200019b57503880806200014c565b634e487b7160e01b81526011600452602490fd5b634e487b7160e01b82526011600452602482fd5b905081813d8311620001ff575b620001dc8183620002b3565b81010312620001fb575160ff81168103620001fb5760ff90386200013c565b5080fd5b503d620001d0565b87513d85823e3d90fd5b885162461bcd60e51b815260048101859052602360248201527f44796e616d696345617465723a20496e76616c696420746f6b656e206164647260448201526265737360e81b6064820152608490fd5b62461bcd60e51b815260048101869052602260248201527f44796e616d696345617465723a20496e76616c69642057455745206164647265604482015261737360f01b6064820152608490fd5b600080fd5b601f909101601f19168101906001600160401b03821190821017620002d757604052565b634e487b7160e01b600052604160045260246000fd5b51906001600160a01b0382168203620002ae5756fe6080604081815260048036101561001557600080fd5b600092833560e01c90816306fdde031461144f575080631514617e1461142a578063199cbc541461140b5780631f514c52146113ec57806321df0da7146113c357806324a47aeb146111d65780632eb4a7ab146111b75780633586d5141461111157806335faa41614610fbf5780634e71d92d14610f255780634fa1f10414610e045780635c975abb14610de057806361d027b314610db9578063655a9ac214610d97578063679aefce14610ce65780636f8b44b014610cc457806370a0823114610c8c578063715018a614610c2b5780637cb6475914610c095780638da5cb5b14610bdc5780638f4ffcb114610a4d5780639636d88114610a125780639ed4527e146109f357838163b6b55f251461095557508063bf3506c114610916578063c2cd9b2b146108ed578063c4ae31681461080a578063d3e40296146105a4578063d5abeb0114610585578063daf4986314610537578063dece1baa14610515578063e1f26f22146104ec578063e4330545146103e9578063ea9f241714610338578063eb91d37e146102dc578063f0f44260146102975763f2fde38b146101bc57600080fd5b34610293576020366003190112610293576101d56115c7565b6101dd6115e2565b6001600160a01b0381811693909290841561024157505060018054610100600160a81b03198116600893841b610100600160a81b031617909155901c167f8be0079c531659141344cd1fd0a4f28419497f9722a3daafe3b4186f6b6457e08380a380f35b906020608492519162461bcd60e51b8352820152602660248201527f4f776e61626c653a206e6577206f776e657220697320746865207a65726f206160448201526564647265737360d01b6064820152fd5b8280fd5b8382346102d85760203660031901126102d8576102b26115c7565b6102ba6115e2565b81546001600160a01b0319166001600160a01b039190911617905580f35b5080fd5b5091346103355780600319360112610335576102f66116be565b926103e8938481029481860414901517156103225760208361031b86600b549061169e565b9051908152f35b634e487b7160e01b825260119052602490fd5b80fd5b50346102935782600319360112610293576103516117ed565b61035d600a5415611784565b60025482516370a0823160e01b81523392810192909252602090829060249082906001600160a01b03165afa9283156103de5780936103a5575b60208361031b303388611b0d565b9092506020833d82116103d6575b816103c06020938361163d565b81010312610335575061031b6020925192610397565b3d91506103b3565b8251903d90823e3d90fd5b509190346102d857816003193601126102d85760035481516370a0823160e01b8152308582015293602092918390869060249082906001600160a01b03165afa9485156104e25784956104af575b508415610473575061046a7fa7a5838120ec6c2ca5291f32459f820c6230c6b5d0fa06a111e49badb5e6c84b9394611cad565b9051908152a180f35b82606492519162461bcd60e51b83528201526018602482015277064756d703a204e6f2062616c616e636520746f2064756d760441b6044820152fd5b9094508281813d83116104db575b6104c7818361163d565b810103126104d757519338610437565b8380fd5b503d6104bd565b82513d86823e3d90fd5b5050346102d857816003193601126102d85760035490516001600160a01b039091168152602090f35b8382346102d85760203660031901126102d8576105306115e2565b35600c5580f35b5050346102d85760203660031901126102d85760609181906001600160a01b0361055f6115c7565b168152600960205220805491600260018301549201549181519384526020840152820152f35b5050346102d857816003193601126102d8576020906007549051908152f35b50823461033557826003193601126103355760249267ffffffffffffffff9290813585358581116108065736602382011215610806578084013586811161080257600581811b928984820101903682116107fe576106006117ed565b86519361061160208097018661163d565b84528a01848085015b8383106107ee5750505050600a549788156107a05733885260098452600286892001546106478187611777565b111561075e578551338582019081526020810187905290610674816040840103601f19810183528261163d565b519020865185810191825285815290918188019081118282101761074c5787525190209387945b83518610156106ef5785831b840185015190818110156106e257895284528588205b9460001981146106d0576001019461069b565b634e487b7160e01b8952601188528a89fd5b90895284528588206106bd565b8491888c8c8a940361070a57505061031b9030903390611b0d565b835162461bcd60e51b8152918201859052601e908201527f6f6e6c7957686974654c69737465643a20496e76616c69642070726f6f6600006044820152606490fd5b634e487b7160e01b8a52604189528b8afd5b855162461bcd60e51b8152808801859052601f818c01527f6f6e6c7957686974654c69737465643a20416c7265616479206d6572676564006044820152606490fd5b855162461bcd60e51b81528088018590526023818c01527f6f6e6c7957686974654c69737465643a205768697465206c697374206e6f74206044820152621cd95d60ea1b6064820152608490fd5b823581529181019186910161061a565b8880fd5b8580fd5b8480fd5b50346102935782600319360112610293576108236115e2565b60015460ff8116156108ac57506001549060ff821615610872575060ff1916600155513381527f5db9ee0a495bf2e6ff9c91a7834c1ba4fdd244a5e8aa4e537bd38aeae4b073aa90602090a180f35b606490602084519162461bcd60e51b8352820152601460248201527314185d5cd8589b194e881b9bdd081c185d5cd95960621b6044820152fd5b602091509160017f62e78cea01bee320cd4e420270b5ea74000d11b0c9f74754ebdbfc544b05a258936108dd6117ed565b60ff19161760015551338152a180f35b5050346102d857816003193601126102d857600d5490516001600160a01b039091168152602090f35b5050346102d85760203660031901126102d85760209160019082906001600160a01b036109416115c7565b168152600985522001549051904210158152f35b808484346109ef5760203660031901126109ef576109a76020916109776115e2565b60035484516323b872dd60e01b81529586936001600160a01b0390921692849283918035903090339085016117cb565b03925af19081156109e657506109bb575080f35b6109db9060203d81116109df575b6109d3818361163d565b81019061175f565b5080f35b503d6109c9565b513d84823e3d90fd5b5050fd5b5050346102d857816003193601126102d857602090600c549051908152f35b8382346102d85760203660031901126102d8573563ffffffff81168091036102d857610a3c6115e2565b63ffffffff19600854161760085580f35b503461029357608036600319011261029357610a676115c7565b90602435906001600160a01b03604435818116036108025760643567ffffffffffffffff808211610bd85736602383011215610bd85781840135908111610bd85736910160240111610802576002865414610b955760028655610ac86117ed565b60025416908115610b435782610af9926020928888518096819582946323b872dd60e01b84523090339085016117cb565b03925af18015610b3957610b139450610b1b575b50611831565b506001815580f35b610b329060203d81116109df576109d3818361163d565b5038610b0d565b84513d87823e3d90fd5b608490602086519162461bcd60e51b8352820152602660248201527f72656365697665417070726f76616c3a20546f6b656e2061646472657373206e6044820152651bdd081cd95d60d21b6064820152fd5b845162461bcd60e51b8152602081840152601f60248201527f5265656e7472616e637947756172643a207265656e7472616e742063616c6c006044820152606490fd5b8780fd5b5050346102d857816003193601126102d857600154905160089190911c6001600160a01b03168152602090f35b8382346102d85760203660031901126102d857610c246115e2565b35600a5580f35b8334610335578060031936011261033557610c446115e2565b60018054610100600160a81b03198116909155819060081c6001600160a01b03167f8be0079c531659141344cd1fd0a4f28419497f9722a3daafe3b4186f6b6457e08280a380f35b5050346102d85760203660031901126102d85760209181906001600160a01b03610cb46115c7565b1681526009845220549051908152f35b8382346102d85760203660031901126102d857610cdf6115e2565b3560075580f35b5034610293578260031936011261029357600254825163313ce56760e01b81529160209183919082906001600160a01b03165afa908115610d8b5760ff61031b92610d3b9260209691610d5e575b5016611751565b610d59610d4a82600b54611777565b91610d536116be565b90611675565b61169e565b610d7e9150863d8111610d84575b610d76818361163d565b810190611738565b38610d34565b503d610d6c565b505051903d90823e3d90fd5b8382346102d85760203660031901126102d857610db26115e2565b35600b5580f35b50346102935782600319360112610293575490516001600160a01b03909116815260209150f35b5050346102d857816003193601126102d85760209060ff6001541690519015158152f35b50913461033557602092836003193601126102d857600254835163313ce56760e01b808252833594926001600160a01b03169187818681865afa908115610f1b5760ff8993926012928791610efe575b501610610e71575b508561031b86610d59610d4a82600b54611777565b8487518094819382525afa908115610ef4579060ff918391610ed7575b501660120360ff8111610ec45760ff1691604d831161032257505061031b91610eba91600a0a90611675565b9038808581610e5c565b506011602492634e487b7160e01b835252fd5b610eee9150873d8911610d8457610d76818361163d565b38610e8e565b85513d84823e3d90fd5b610f159150853d8711610d8457610d76818361163d565b38610e54565b87513d86823e3d90fd5b509034610293578260031936011261029357610f3f6117ed565b63ffffffff6008541615610fb2575b3383526009602052600181842001544210610f6f5782610f6c611c32565b80f35b906020606492519162461bcd60e51b8352820152602060248201527f7768656e436c61696d61626c653a2056657374696e67206e6f7420656e6465646044820152fd5b610fba611c32565b610f4e565b509190346102d857816003193601126102d857610fda6115e2565b60035481516370a0823160e01b8152308582015293602092916001600160a01b0390811691908487602481865afa9687156111075786976110d8575b50861561109557600154845163a9059cbb60e01b81526001600160a01b0360089290921c90921616918101918252602082018790529291849184919082908890829060400103925af190811561108c575061106f578280f35b8161108592903d106109df576109d3818361163d565b5081808280f35b513d85823e3d90fd5b835162461bcd60e51b8152808301869052601a60248201527f73776565703a204e6f2062616c616e636520746f2073776565700000000000006044820152606490fd5b9096508481813d8311611100575b6110f0818361163d565b8101031261080257519538611016565b503d6110e6565b84513d88823e3d90fd5b5090346102935760203660031901126102935761112c6115c7565b6111346115e2565b600d80546001600160a01b0319166001600160a01b039283169081179091558061115c578480f35b60446020926002541694868551968794859363095ea7b360e01b855284015260001960248401525af19081156109e65750611199575b8080808480f35b6111b09060203d81116109df576109d3818361163d565b5038611192565b5050346102d857816003193601126102d857602090600a549051908152f35b50346102935760209283600319360112610335578135916111f56117ed565b60025484516370a0823160e01b815233838201528493916001600160a01b0391908216908881602481855afa9081156113b9579087918591611388575b501061133a57611244600a5415611784565b87875180926323b872dd60e01b82528186816112648c30338d85016117cb565b03925af18015611330579188918593611313575b5061128287611cad565b506002541687519283809263313ce56760e01b82525afa908115611309579060ff9183916112ec575b5016601281106112c2575b868661031b3387611831565b90919250601203916012831161032257505061031b91610d536112e492611751565b3880806112b6565b6113039150883d8a11610d8457610d76818361163d565b386112ab565b86513d84823e3d90fd5b61132990833d85116109df576109d3818361163d565b5038611278565b87513d85823e3d90fd5b865162461bcd60e51b8152808501899052602260248201527f6d657267653a20496e73756666696369656e742062616c616e636520746f2065604482015261185d60f21b6064820152608490fd5b8092508a8092503d83116113b2575b6113a1818361163d565b810103126104d75786905138611232565b503d611397565b88513d86823e3d90fd5b5050346102d857816003193601126102d85760025490516001600160a01b039091168152602090f35b5050346102d857816003193601126102d857602090600b549051908152f35b5050346102d857816003193601126102d8576020906005549051908152f35b5050346102d857816003193601126102d85760209063ffffffff600854169051908152f35b939050346103355780600319360112610335576002546306fdde0360e01b855281908590849082906001600160a01b03165afa9182156115985781926114fb575b6114ed84848151906114d260268360208101936502bb2abb29d160d51b85526114c281518092602086860191016115a4565b810103600681018552018361163d565b825193849260208452518092816020860152858501906115a4565b601f01601f19168101030190f35b9091503d8083863e61150d818661163d565b84019160208584031261033557845167ffffffffffffffff9586821161029357019183601f840112156102d8578251958611611585575083519261155b601f8701601f19166020018561163d565b8584526020868401011161033557506114ed9361157e91602080850191016115a4565b3880611490565b634e487b7160e01b825260419052602490fd5b508251903d90823e3d90fd5b60005b8381106115b75750506000910152565b81810151838201526020016115a7565b600435906001600160a01b03821682036115dd57565b600080fd5b60015460081c6001600160a01b031633036115f957565b606460405162461bcd60e51b815260206004820152602060248201527f4f776e61626c653a2063616c6c6572206973206e6f7420746865206f776e65726044820152fd5b90601f8019910116810190811067ffffffffffffffff82111761165f57604052565b634e487b7160e01b600052604160045260246000fd5b8181029291811591840414171561168857565b634e487b7160e01b600052601160045260246000fd5b81156116a8570490565b634e487b7160e01b600052601260045260246000fd5b600c546005548082106116d75781039081116116885790565b60405162461bcd60e51b815260206004820152603360248201527f5f6765745765776542616c616e63653a207669727475616c57455745206c65736044820152721cc81d1a185b881d1bdd185b081d995cdd1959606a1b6064820152608490fd5b908160209103126115dd575160ff811681036115dd5790565b604d811161168857600a0a90565b908160209103126115dd575180151581036115dd5790565b9190820180921161168857565b1561178b57565b60405162461bcd60e51b81526020600482015260186024820152771b595c99d94e8815da1a5d19481b1a5cdd081a5cc81cd95d60421b6044820152606490fd5b6001600160a01b03918216815291166020820152604081019190915260600190565b60ff600154166117f957565b60405162461bcd60e51b815260206004820152601060248201526f14185d5cd8589b194e881c185d5cd95960821b6044820152606490fd5b60075461184060065483611777565b811090811591611b04575b5015611abf5761187161186082600b54611777565b610d5961186b6116be565b84611675565b600354604080516370a0823160e01b8152306004820152929460209391926001600160a01b0392908316908581602481855afa908115611a2c57600091611a92575b508711611a375760085463ffffffff919082161561199d57508282169485600052600981526118e6856000205489611777565b91603c816008541602908116908103611688576119039042611777565b95855190606082019082821067ffffffffffffffff83111761165f577fabe5455971bdcd932e7251d16cd53f88cd4410bf4df21530e88bf13dade6a7d4988b956002938a528452848401908152888401918b83526000526009855288600020935184555160018401555191015561197c82600554611777565b6005555b61198c87600654611777565b60065584519687528601521692a290565b845163a9059cbb60e01b81526001600160a01b0384166004820152602481018990529495939492939291508290829060449082906000905af18015611a2c579187917fabe5455971bdcd932e7251d16cd53f88cd4410bf4df21530e88bf13dade6a7d496959493611a0f575b50611980565b611a2590823d84116109df576109d3818361163d565b5038611a09565b85513d6000823e3d90fd5b835162461bcd60e51b815260048101869052602e60248201527f5f6d657267653a20496e73756666696369656e7420746f6b656e2062616c616e60448201526d31b2903a37903a3930b739b332b960911b6064820152608490fd5b908682813d8311611ab8575b611aa8818361163d565b81010312610335575051386118b3565b503d611a9e565b60405162461bcd60e51b815260206004820152601c60248201527f5f6d657267653a204d6f7265207468616e206d617820737570706c79000000006044820152606490fd5b9050153861184b565b90918160018060a01b03806002541692604051906323b872dd60e01b82528180611b3f60209687948b600485016117cb565b0381600080985af18015611c2757918391600493611c0a575b50611b6286611cad565b50600254166040519283809263313ce56760e01b82525afa918215611bff579060ff92918492611be2575b50501660128110611ba8575b505090611ba591611831565b90565b6012039060128211611bce5750611ba59291610d53611bc692611751565b909138611b99565b634e487b7160e01b81526011600452602490fd5b611bf89250803d10610d8457610d76818361163d565b3880611b8d565b6040513d85823e3d90fd5b611c2090833d85116109df576109d3818361163d565b5038611b58565b6040513d86823e3d90fd5b336000818152600960209081526040808320805490849055600354915163a9059cbb60e01b8152600481019590955260248501529091839160449183916001600160a01b03165af18015611ca157611c875750565b611c9e9060203d81116109df576109d3818361163d565b50565b6040513d6000823e3d90fd5b600d546001600160a01b0390811691908215611d60578060045416908115611d575760025416604051926302454b7160e41b84526004840152602483015260448201526080606482015260208160a481600080968160848401525af1918215611d4b578092611d1b57505090565b9091506020823d8211611d43575b81611d366020938361163d565b8101031261033557505190565b3d9150611d29565b604051903d90823e3d90fd5b50505050600090565b50505060009056fea2646970667358221220406c7aa4895b2f2066875a24e8e4b0bc78025212e4a3c5087e0a9c0159ebf93364736f6c63430008130033",
          "opcodes": "PUSH1 0x80 PUSH1 0x40 SWAP1 DUP1 DUP3 MSTORE CALLVALUE PUSH3 0x2AE JUMPI PUSH1 0xA0 DUP2 PUSH3 0x20A1 DUP1 CODESIZE SUB DUP1 SWAP2 PUSH3 0x25 DUP3 DUP6 PUSH3 0x2B3 JUMP JUMPDEST DUP4 CODECOPY DUP2 ADD SUB SLT PUSH3 0x2AE JUMPI PUSH3 0x3B DUP2 PUSH3 0x2ED JUMP JUMPDEST SWAP1 PUSH1 0x20 SWAP1 PUSH3 0x4C DUP3 DUP3 ADD PUSH3 0x2ED JUMP JUMPDEST SWAP3 DUP5 DUP3 ADD MLOAD SWAP3 PUSH4 0xFFFFFFFF DUP5 AND DUP1 SWAP5 SUB PUSH3 0x2AE JUMPI PUSH1 0x60 DUP4 ADD MLOAD PUSH1 0x80 SWAP1 SWAP4 ADD MLOAD PUSH1 0x1 PUSH1 0x0 DUP2 DUP2 SSTORE DUP2 SLOAD PUSH2 0x100 PUSH1 0x1 PUSH1 0xA8 SHL SUB CALLER PUSH1 0x8 DUP2 DUP2 SHL SWAP3 SWAP1 SWAP3 AND PUSH1 0x1 PUSH1 0x1 PUSH1 0xA8 SHL SUB NOT DUP5 AND OR SWAP1 SWAP5 SSTORE DUP11 MLOAD SWAP5 SWAP10 SWAP8 SWAP9 DUP10 SWAP9 SWAP4 SWAP8 SWAP1 SWAP5 PUSH1 0x1 PUSH1 0x1 PUSH1 0xA0 SHL SUB SWAP5 SWAP4 DUP6 SWAP4 SHR DUP4 AND PUSH32 0x8BE0079C531659141344CD1FD0A4F28419497F9722A3DAAFE3B4186F6B6457E0 DUP11 DUP1 LOG3 AND SWAP4 DUP5 ISZERO PUSH3 0x261 JUMPI POP AND SWAP2 DUP3 ISZERO PUSH3 0x211 JUMPI SWAP2 DUP4 SWAP3 SWAP2 DUP2 PUSH1 0x4 SWAP6 SWAP4 PUSH1 0x1 DUP1 PUSH1 0xA0 SHL SUB NOT SWAP1 DUP2 PUSH1 0x3 SLOAD AND OR PUSH1 0x3 SSTORE PUSH1 0x2 SLOAD AND OR PUSH1 0x2 SSTORE PUSH4 0xFFFFFFFF NOT PUSH1 0x8 SLOAD AND OR PUSH1 0x8 SSTORE DUP9 MLOAD SWAP4 DUP5 DUP1 SWAP3 PUSH4 0x313CE567 PUSH1 0xE0 SHL DUP3 MSTORE GAS STATICCALL SWAP1 DUP2 ISZERO PUSH3 0x207 JUMPI DUP4 SWAP2 PUSH3 0x1C3 JUMPI JUMPDEST POP PUSH1 0xFF SWAP2 POP AND PUSH1 0x12 DUP2 LT PUSH3 0x163 JUMPI JUMPDEST POP POP POP PUSH1 0xB SSTORE PUSH1 0xC SSTORE MLOAD PUSH2 0x1D9E SWAP1 DUP2 PUSH3 0x303 DUP3 CODECOPY RETURN JUMPDEST SWAP1 SWAP2 SWAP3 POP PUSH1 0x12 SUB PUSH1 0x12 DUP2 GT PUSH3 0x1AF JUMPI PUSH1 0x4D DUP2 GT PUSH3 0x1AF JUMPI PUSH1 0xA EXP SWAP2 DUP3 DUP2 MUL SWAP3 DUP2 DUP5 DIV EQ SWAP1 ISZERO OR ISZERO PUSH3 0x19B JUMPI POP CODESIZE DUP1 DUP1 PUSH3 0x14C JUMP JUMPDEST PUSH4 0x4E487B71 PUSH1 0xE0 SHL DUP2 MSTORE PUSH1 0x11 PUSH1 0x4 MSTORE PUSH1 0x24 SWAP1 REVERT JUMPDEST PUSH4 0x4E487B71 PUSH1 0xE0 SHL DUP3 MSTORE PUSH1 0x11 PUSH1 0x4 MSTORE PUSH1 0x24 DUP3 REVERT JUMPDEST SWAP1 POP DUP2 DUP2 RETURNDATASIZE DUP4 GT PUSH3 0x1FF JUMPI JUMPDEST PUSH3 0x1DC DUP2 DUP4 PUSH3 0x2B3 JUMP JUMPDEST DUP2 ADD SUB SLT PUSH3 0x1FB JUMPI MLOAD PUSH1 0xFF DUP2 AND DUP2 SUB PUSH3 0x1FB JUMPI PUSH1 0xFF SWAP1 CODESIZE PUSH3 0x13C JUMP JUMPDEST POP DUP1 REVERT JUMPDEST POP RETURNDATASIZE PUSH3 0x1D0 JUMP JUMPDEST DUP8 MLOAD RETURNDATASIZE DUP6 DUP3 RETURNDATACOPY RETURNDATASIZE SWAP1 REVERT JUMPDEST DUP9 MLOAD PUSH3 0x461BCD PUSH1 0xE5 SHL DUP2 MSTORE PUSH1 0x4 DUP2 ADD DUP6 SWAP1 MSTORE PUSH1 0x23 PUSH1 0x24 DUP3 ADD MSTORE PUSH32 0x44796E616D696345617465723A20496E76616C696420746F6B656E2061646472 PUSH1 0x44 DUP3 ADD MSTORE PUSH3 0x657373 PUSH1 0xE8 SHL PUSH1 0x64 DUP3 ADD MSTORE PUSH1 0x84 SWAP1 REVERT JUMPDEST PUSH3 0x461BCD PUSH1 0xE5 SHL DUP2 MSTORE PUSH1 0x4 DUP2 ADD DUP7 SWAP1 MSTORE PUSH1 0x22 PUSH1 0x24 DUP3 ADD MSTORE PUSH32 0x44796E616D696345617465723A20496E76616C69642057455745206164647265 PUSH1 0x44 DUP3 ADD MSTORE PUSH2 0x7373 PUSH1 0xF0 SHL PUSH1 0x64 DUP3 ADD MSTORE PUSH1 0x84 SWAP1 REVERT JUMPDEST PUSH1 0x0 DUP1 REVERT JUMPDEST PUSH1 0x1F SWAP1 SWAP2 ADD PUSH1 0x1F NOT AND DUP2 ADD SWAP1 PUSH1 0x1 PUSH1 0x1 PUSH1 0x40 SHL SUB DUP3 GT SWAP1 DUP3 LT OR PUSH3 0x2D7 JUMPI PUSH1 0x40 MSTORE JUMP JUMPDEST PUSH4 0x4E487B71 PUSH1 0xE0 SHL PUSH1 0x0 MSTORE PUSH1 0x41 PUSH1 0x4 MSTORE PUSH1 0x24 PUSH1 0x0 REVERT JUMPDEST MLOAD SWAP1 PUSH1 0x1 PUSH1 0x1 PUSH1 0xA0 SHL SUB DUP3 AND DUP3 SUB PUSH3 0x2AE JUMPI JUMP INVALID PUSH1 0x80 PUSH1 0x40 DUP2 DUP2 MSTORE PUSH1 0x4 DUP1 CALLDATASIZE LT ISZERO PUSH2 0x15 JUMPI PUSH1 0x0 DUP1 REVERT JUMPDEST PUSH1 0x0 SWAP3 DUP4 CALLDATALOAD PUSH1 0xE0 SHR SWAP1 DUP2 PUSH4 0x6FDDE03 EQ PUSH2 0x144F JUMPI POP DUP1 PUSH4 0x1514617E EQ PUSH2 0x142A JUMPI DUP1 PUSH4 0x199CBC54 EQ PUSH2 0x140B JUMPI DUP1 PUSH4 0x1F514C52 EQ PUSH2 0x13EC JUMPI DUP1 PUSH4 0x21DF0DA7 EQ PUSH2 0x13C3 JUMPI DUP1 PUSH4 0x24A47AEB EQ PUSH2 0x11D6 JUMPI DUP1 PUSH4 0x2EB4A7AB EQ PUSH2 0x11B7 JUMPI DUP1 PUSH4 0x3586D514 EQ PUSH2 0x1111 JUMPI DUP1 PUSH4 0x35FAA416 EQ PUSH2 0xFBF JUMPI DUP1 PUSH4 0x4E71D92D EQ PUSH2 0xF25 JUMPI DUP1 PUSH4 0x4FA1F104 EQ PUSH2 0xE04 JUMPI DUP1 PUSH4 0x5C975ABB EQ PUSH2 0xDE0 JUMPI DUP1 PUSH4 0x61D027B3 EQ PUSH2 0xDB9 JUMPI DUP1 PUSH4 0x655A9AC2 EQ PUSH2 0xD97 JUMPI DUP1 PUSH4 0x679AEFCE EQ PUSH2 0xCE6 JUMPI DUP1 PUSH4 0x6F8B44B0 EQ PUSH2 0xCC4 JUMPI DUP1 PUSH4 0x70A08231 EQ PUSH2 0xC8C JUMPI DUP1 PUSH4 0x715018A6 EQ PUSH2 0xC2B JUMPI DUP1 PUSH4 0x7CB64759 EQ PUSH2 0xC09 JUMPI DUP1 PUSH4 0x8DA5CB5B EQ PUSH2 0xBDC JUMPI DUP1 PUSH4 0x8F4FFCB1 EQ PUSH2 0xA4D JUMPI DUP1 PUSH4 0x9636D881 EQ PUSH2 0xA12 JUMPI DUP1 PUSH4 0x9ED4527E EQ PUSH2 0x9F3 JUMPI DUP4 DUP2 PUSH4 0xB6B55F25 EQ PUSH2 0x955 JUMPI POP DUP1 PUSH4 0xBF3506C1 EQ PUSH2 0x916 JUMPI DUP1 PUSH4 0xC2CD9B2B EQ PUSH2 0x8ED JUMPI DUP1 PUSH4 0xC4AE3168 EQ PUSH2 0x80A JUMPI DUP1 PUSH4 0xD3E40296 EQ PUSH2 0x5A4 JUMPI DUP1 PUSH4 0xD5ABEB01 EQ PUSH2 0x585 JUMPI DUP1 PUSH4 0xDAF49863 EQ PUSH2 0x537 JUMPI DUP1 PUSH4 0xDECE1BAA EQ PUSH2 0x515 JUMPI DUP1 PUSH4 0xE1F26F22 EQ PUSH2 0x4EC JUMPI DUP1 PUSH4 0xE4330545 EQ PUSH2 0x3E9 JUMPI DUP1 PUSH4 0xEA9F2417 EQ PUSH2 0x338 JUMPI DUP1 PUSH4 0xEB91D37E EQ PUSH2 0x2DC JUMPI DUP1 PUSH4 0xF0F44260 EQ PUSH2 0x297 JUMPI PUSH4 0xF2FDE38B EQ PUSH2 0x1BC JUMPI PUSH1 0x0 DUP1 REVERT JUMPDEST CALLVALUE PUSH2 0x293 JUMPI PUSH1 0x20 CALLDATASIZE PUSH1 0x3 NOT ADD SLT PUSH2 0x293 JUMPI PUSH2 0x1D5 PUSH2 0x15C7 JUMP JUMPDEST PUSH2 0x1DD PUSH2 0x15E2 JUMP JUMPDEST PUSH1 0x1 PUSH1 0x1 PUSH1 0xA0 SHL SUB DUP2 DUP2 AND SWAP4 SWAP1 SWAP3 SWAP1 DUP5 ISZERO PUSH2 0x241 JUMPI POP POP PUSH1 0x1 DUP1 SLOAD PUSH2 0x100 PUSH1 0x1 PUSH1 0xA8 SHL SUB NOT DUP2 AND PUSH1 0x8 SWAP4 DUP5 SHL PUSH2 0x100 PUSH1 0x1 PUSH1 0xA8 SHL SUB AND OR SWAP1 SWAP2 SSTORE SWAP1 SHR AND PUSH32 0x8BE0079C531659141344CD1FD0A4F28419497F9722A3DAAFE3B4186F6B6457E0 DUP4 DUP1 LOG3 DUP1 RETURN JUMPDEST SWAP1 PUSH1 0x20 PUSH1 0x84 SWAP3 MLOAD SWAP2 PUSH3 0x461BCD PUSH1 0xE5 SHL DUP4 MSTORE DUP3 ADD MSTORE PUSH1 0x26 PUSH1 0x24 DUP3 ADD MSTORE PUSH32 0x4F776E61626C653A206E6577206F776E657220697320746865207A65726F2061 PUSH1 0x44 DUP3 ADD MSTORE PUSH6 0x646472657373 PUSH1 0xD0 SHL PUSH1 0x64 DUP3 ADD MSTORE REVERT JUMPDEST DUP3 DUP1 REVERT JUMPDEST DUP4 DUP3 CALLVALUE PUSH2 0x2D8 JUMPI PUSH1 0x20 CALLDATASIZE PUSH1 0x3 NOT ADD SLT PUSH2 0x2D8 JUMPI PUSH2 0x2B2 PUSH2 0x15C7 JUMP JUMPDEST PUSH2 0x2BA PUSH2 0x15E2 JUMP JUMPDEST DUP2 SLOAD PUSH1 0x1 PUSH1 0x1 PUSH1 0xA0 SHL SUB NOT AND PUSH1 0x1 PUSH1 0x1 PUSH1 0xA0 SHL SUB SWAP2 SWAP1 SWAP2 AND OR SWAP1 SSTORE DUP1 RETURN JUMPDEST POP DUP1 REVERT JUMPDEST POP SWAP2 CALLVALUE PUSH2 0x335 JUMPI DUP1 PUSH1 0x3 NOT CALLDATASIZE ADD SLT PUSH2 0x335 JUMPI PUSH2 0x2F6 PUSH2 0x16BE JUMP JUMPDEST SWAP3 PUSH2 0x3E8 SWAP4 DUP5 DUP2 MUL SWAP5 DUP2 DUP7 DIV EQ SWAP1 ISZERO OR ISZERO PUSH2 0x322 JUMPI PUSH1 0x20 DUP4 PUSH2 0x31B DUP7 PUSH1 0xB SLOAD SWAP1 PUSH2 0x169E JUMP JUMPDEST SWAP1 MLOAD SWAP1 DUP2 MSTORE RETURN JUMPDEST PUSH4 0x4E487B71 PUSH1 0xE0 SHL DUP3 MSTORE PUSH1 0x11 SWAP1 MSTORE PUSH1 0x24 SWAP1 REVERT JUMPDEST DUP1 REVERT JUMPDEST POP CALLVALUE PUSH2 0x293 JUMPI DUP3 PUSH1 0x3 NOT CALLDATASIZE ADD SLT PUSH2 0x293 JUMPI PUSH2 0x351 PUSH2 0x17ED JUMP JUMPDEST PUSH2 0x35D PUSH1 0xA SLOAD ISZERO PUSH2 0x1784 JUMP JUMPDEST PUSH1 0x2 SLOAD DUP3 MLOAD PUSH4 0x70A08231 PUSH1 0xE0 SHL DUP2 MSTORE CALLER SWAP3 DUP2 ADD SWAP3 SWAP1 SWAP3 MSTORE PUSH1 0x20 SWAP1 DUP3 SWAP1 PUSH1 0x24 SWAP1 DUP3 SWAP1 PUSH1 0x1 PUSH1 0x1 PUSH1 0xA0 SHL SUB AND GAS STATICCALL SWAP3 DUP4 ISZERO PUSH2 0x3DE JUMPI DUP1 SWAP4 PUSH2 0x3A5 JUMPI JUMPDEST PUSH1 0x20 DUP4 PUSH2 0x31B ADDRESS CALLER DUP9 PUSH2 0x1B0D JUMP JUMPDEST SWAP1 SWAP3 POP PUSH1 0x20 DUP4 RETURNDATASIZE DUP3 GT PUSH2 0x3D6 JUMPI JUMPDEST DUP2 PUSH2 0x3C0 PUSH1 0x20 SWAP4 DUP4 PUSH2 0x163D JUMP JUMPDEST DUP2 ADD SUB SLT PUSH2 0x335 JUMPI POP PUSH2 0x31B PUSH1 0x20 SWAP3 MLOAD SWAP3 PUSH2 0x397 JUMP JUMPDEST RETURNDATASIZE SWAP2 POP PUSH2 0x3B3 JUMP JUMPDEST DUP3 MLOAD SWAP1 RETURNDATASIZE SWAP1 DUP3 RETURNDATACOPY RETURNDATASIZE SWAP1 REVERT JUMPDEST POP SWAP2 SWAP1 CALLVALUE PUSH2 0x2D8 JUMPI DUP2 PUSH1 0x3 NOT CALLDATASIZE ADD SLT PUSH2 0x2D8 JUMPI PUSH1 0x3 SLOAD DUP2 MLOAD PUSH4 0x70A08231 PUSH1 0xE0 SHL DUP2 MSTORE ADDRESS DUP6 DUP3 ADD MSTORE SWAP4 PUSH1 0x20 SWAP3 SWAP2 DUP4 SWAP1 DUP7 SWAP1 PUSH1 0x24 SWAP1 DUP3 SWAP1 PUSH1 0x1 PUSH1 0x1 PUSH1 0xA0 SHL SUB AND GAS STATICCALL SWAP5 DUP6 ISZERO PUSH2 0x4E2 JUMPI DUP5 SWAP6 PUSH2 0x4AF JUMPI JUMPDEST POP DUP5 ISZERO PUSH2 0x473 JUMPI POP PUSH2 0x46A PUSH32 0xA7A5838120EC6C2CA5291F32459F820C6230C6B5D0FA06A111E49BADB5E6C84B SWAP4 SWAP5 PUSH2 0x1CAD JUMP JUMPDEST SWAP1 MLOAD SWAP1 DUP2 MSTORE LOG1 DUP1 RETURN JUMPDEST DUP3 PUSH1 0x64 SWAP3 MLOAD SWAP2 PUSH3 0x461BCD PUSH1 0xE5 SHL DUP4 MSTORE DUP3 ADD MSTORE PUSH1 0x18 PUSH1 0x24 DUP3 ADD MSTORE PUSH24 0x64756D703A204E6F2062616C616E636520746F2064756D7 PUSH1 0x44 SHL PUSH1 0x44 DUP3 ADD MSTORE REVERT JUMPDEST SWAP1 SWAP5 POP DUP3 DUP2 DUP2 RETURNDATASIZE DUP4 GT PUSH2 0x4DB JUMPI JUMPDEST PUSH2 0x4C7 DUP2 DUP4 PUSH2 0x163D JUMP JUMPDEST DUP2 ADD SUB SLT PUSH2 0x4D7 JUMPI MLOAD SWAP4 CODESIZE PUSH2 0x437 JUMP JUMPDEST DUP4 DUP1 REVERT JUMPDEST POP RETURNDATASIZE PUSH2 0x4BD JUMP JUMPDEST DUP3 MLOAD RETURNDATASIZE DUP7 DUP3 RETURNDATACOPY RETURNDATASIZE SWAP1 REVERT JUMPDEST POP POP CALLVALUE PUSH2 0x2D8 JUMPI DUP2 PUSH1 0x3 NOT CALLDATASIZE ADD SLT PUSH2 0x2D8 JUMPI PUSH1 0x3 SLOAD SWAP1 MLOAD PUSH1 0x1 PUSH1 0x1 PUSH1 0xA0 SHL SUB SWAP1 SWAP2 AND DUP2 MSTORE PUSH1 0x20 SWAP1 RETURN JUMPDEST DUP4 DUP3 CALLVALUE PUSH2 0x2D8 JUMPI PUSH1 0x20 CALLDATASIZE PUSH1 0x3 NOT ADD SLT PUSH2 0x2D8 JUMPI PUSH2 0x530 PUSH2 0x15E2 JUMP JUMPDEST CALLDATALOAD PUSH1 0xC SSTORE DUP1 RETURN JUMPDEST POP POP CALLVALUE PUSH2 0x2D8 JUMPI PUSH1 0x20 CALLDATASIZE PUSH1 0x3 NOT ADD SLT PUSH2 0x2D8 JUMPI PUSH1 0x60 SWAP2 DUP2 SWAP1 PUSH1 0x1 PUSH1 0x1 PUSH1 0xA0 SHL SUB PUSH2 0x55F PUSH2 0x15C7 JUMP JUMPDEST AND DUP2 MSTORE PUSH1 0x9 PUSH1 0x20 MSTORE KECCAK256 DUP1 SLOAD SWAP2 PUSH1 0x2 PUSH1 0x1 DUP4 ADD SLOAD SWAP3 ADD SLOAD SWAP2 DUP2 MLOAD SWAP4 DUP5 MSTORE PUSH1 0x20 DUP5 ADD MSTORE DUP3 ADD MSTORE RETURN JUMPDEST POP POP CALLVALUE PUSH2 0x2D8 JUMPI DUP2 PUSH1 0x3 NOT CALLDATASIZE ADD SLT PUSH2 0x2D8 JUMPI PUSH1 0x20 SWAP1 PUSH1 0x7 SLOAD SWAP1 MLOAD SWAP1 DUP2 MSTORE RETURN JUMPDEST POP DUP3 CALLVALUE PUSH2 0x335 JUMPI DUP3 PUSH1 0x3 NOT CALLDATASIZE ADD SLT PUSH2 0x335 JUMPI PUSH1 0x24 SWAP3 PUSH8 0xFFFFFFFFFFFFFFFF SWAP3 SWAP1 DUP2 CALLDATALOAD DUP6 CALLDATALOAD DUP6 DUP2 GT PUSH2 0x806 JUMPI CALLDATASIZE PUSH1 0x23 DUP3 ADD SLT ISZERO PUSH2 0x806 JUMPI DUP1 DUP5 ADD CALLDATALOAD DUP7 DUP2 GT PUSH2 0x802 JUMPI PUSH1 0x5 DUP2 DUP2 SHL SWAP3 DUP10 DUP5 DUP3 ADD ADD SWAP1 CALLDATASIZE DUP3 GT PUSH2 0x7FE JUMPI PUSH2 0x600 PUSH2 0x17ED JUMP JUMPDEST DUP7 MLOAD SWAP4 PUSH2 0x611 PUSH1 0x20 DUP1 SWAP8 ADD DUP7 PUSH2 0x163D JUMP JUMPDEST DUP5 MSTORE DUP11 ADD DUP5 DUP1 DUP6 ADD JUMPDEST DUP4 DUP4 LT PUSH2 0x7EE JUMPI POP POP POP POP PUSH1 0xA SLOAD SWAP8 DUP9 ISZERO PUSH2 0x7A0 JUMPI CALLER DUP9 MSTORE PUSH1 0x9 DUP5 MSTORE PUSH1 0x2 DUP7 DUP10 KECCAK256 ADD SLOAD PUSH2 0x647 DUP2 DUP8 PUSH2 0x1777 JUMP JUMPDEST GT ISZERO PUSH2 0x75E JUMPI DUP6 MLOAD CALLER DUP6 DUP3 ADD SWAP1 DUP2 MSTORE PUSH1 0x20 DUP2 ADD DUP8 SWAP1 MSTORE SWAP1 PUSH2 0x674 DUP2 PUSH1 0x40 DUP5 ADD SUB PUSH1 0x1F NOT DUP2 ADD DUP4 MSTORE DUP3 PUSH2 0x163D JUMP JUMPDEST MLOAD SWAP1 KECCAK256 DUP7 MLOAD DUP6 DUP2 ADD SWAP2 DUP3 MSTORE DUP6 DUP2 MSTORE SWAP1 SWAP2 DUP2 DUP9 ADD SWAP1 DUP2 GT DUP3 DUP3 LT OR PUSH2 0x74C JUMPI DUP8 MSTORE MLOAD SWAP1 KECCAK256 SWAP4 DUP8 SWAP5 JUMPDEST DUP4 MLOAD DUP7 LT ISZERO PUSH2 0x6EF JUMPI DUP6 DUP4 SHL DUP5 ADD DUP6 ADD MLOAD SWAP1 DUP2 DUP2 LT ISZERO PUSH2 0x6E2 JUMPI DUP10 MSTORE DUP5 MSTORE DUP6 DUP9 KECCAK256 JUMPDEST SWAP5 PUSH1 0x0 NOT DUP2 EQ PUSH2 0x6D0 JUMPI PUSH1 0x1 ADD SWAP5 PUSH2 0x69B JUMP JUMPDEST PUSH4 0x4E487B71 PUSH1 0xE0 SHL DUP10 MSTORE PUSH1 0x11 DUP9 MSTORE DUP11 DUP10 REVERT JUMPDEST SWAP1 DUP10 MSTORE DUP5 MSTORE DUP6 DUP9 KECCAK256 PUSH2 0x6BD JUMP JUMPDEST DUP5 SWAP2 DUP9 DUP13 DUP13 DUP11 SWAP5 SUB PUSH2 0x70A JUMPI POP POP PUSH2 0x31B SWAP1 ADDRESS SWAP1 CALLER SWAP1 PUSH2 0x1B0D JUMP JUMPDEST DUP4 MLOAD PUSH3 0x461BCD PUSH1 0xE5 SHL DUP2 MSTORE SWAP2 DUP3 ADD DUP6 SWAP1 MSTORE PUSH1 0x1E SWAP1 DUP3 ADD MSTORE PUSH32 0x6F6E6C7957686974654C69737465643A20496E76616C69642070726F6F660000 PUSH1 0x44 DUP3 ADD MSTORE PUSH1 0x64 SWAP1 REVERT JUMPDEST PUSH4 0x4E487B71 PUSH1 0xE0 SHL DUP11 MSTORE PUSH1 0x41 DUP10 MSTORE DUP12 DUP11 REVERT JUMPDEST DUP6 MLOAD PUSH3 0x461BCD PUSH1 0xE5 SHL DUP2 MSTORE DUP1 DUP9 ADD DUP6 SWAP1 MSTORE PUSH1 0x1F DUP2 DUP13 ADD MSTORE PUSH32 0x6F6E6C7957686974654C69737465643A20416C7265616479206D657267656400 PUSH1 0x44 DUP3 ADD MSTORE PUSH1 0x64 SWAP1 REVERT JUMPDEST DUP6 MLOAD PUSH3 0x461BCD PUSH1 0xE5 SHL DUP2 MSTORE DUP1 DUP9 ADD DUP6 SWAP1 MSTORE PUSH1 0x23 DUP2 DUP13 ADD MSTORE PUSH32 0x6F6E6C7957686974654C69737465643A205768697465206C697374206E6F7420 PUSH1 0x44 DUP3 ADD MSTORE PUSH3 0x1CD95D PUSH1 0xEA SHL PUSH1 0x64 DUP3 ADD MSTORE PUSH1 0x84 SWAP1 REVERT JUMPDEST DUP3 CALLDATALOAD DUP2 MSTORE SWAP2 DUP2 ADD SWAP2 DUP7 SWAP2 ADD PUSH2 0x61A JUMP JUMPDEST DUP9 DUP1 REVERT JUMPDEST DUP6 DUP1 REVERT JUMPDEST DUP5 DUP1 REVERT JUMPDEST POP CALLVALUE PUSH2 0x293 JUMPI DUP3 PUSH1 0x3 NOT CALLDATASIZE ADD SLT PUSH2 0x293 JUMPI PUSH2 0x823 PUSH2 0x15E2 JUMP JUMPDEST PUSH1 0x1 SLOAD PUSH1 0xFF DUP2 AND ISZERO PUSH2 0x8AC JUMPI POP PUSH1 0x1 SLOAD SWAP1 PUSH1 0xFF DUP3 AND ISZERO PUSH2 0x872 JUMPI POP PUSH1 0xFF NOT AND PUSH1 0x1 SSTORE MLOAD CALLER DUP2 MSTORE PUSH32 0x5DB9EE0A495BF2E6FF9C91A7834C1BA4FDD244A5E8AA4E537BD38AEAE4B073AA SWAP1 PUSH1 0x20 SWAP1 LOG1 DUP1 RETURN JUMPDEST PUSH1 0x64 SWAP1 PUSH1 0x20 DUP5 MLOAD SWAP2 PUSH3 0x461BCD PUSH1 0xE5 SHL DUP4 MSTORE DUP3 ADD MSTORE PUSH1 0x14 PUSH1 0x24 DUP3 ADD MSTORE PUSH20 0x14185D5CD8589B194E881B9BDD081C185D5CD959 PUSH1 0x62 SHL PUSH1 0x44 DUP3 ADD MSTORE REVERT JUMPDEST PUSH1 0x20 SWAP2 POP SWAP2 PUSH1 0x1 PUSH32 0x62E78CEA01BEE320CD4E420270B5EA74000D11B0C9F74754EBDBFC544B05A258 SWAP4 PUSH2 0x8DD PUSH2 0x17ED JUMP JUMPDEST PUSH1 0xFF NOT AND OR PUSH1 0x1 SSTORE MLOAD CALLER DUP2 MSTORE LOG1 DUP1 RETURN JUMPDEST POP POP CALLVALUE PUSH2 0x2D8 JUMPI DUP2 PUSH1 0x3 NOT CALLDATASIZE ADD SLT PUSH2 0x2D8 JUMPI PUSH1 0xD SLOAD SWAP1 MLOAD PUSH1 0x1 PUSH1 0x1 PUSH1 0xA0 SHL SUB SWAP1 SWAP2 AND DUP2 MSTORE PUSH1 0x20 SWAP1 RETURN JUMPDEST POP POP CALLVALUE PUSH2 0x2D8 JUMPI PUSH1 0x20 CALLDATASIZE PUSH1 0x3 NOT ADD SLT PUSH2 0x2D8 JUMPI PUSH1 0x20 SWAP2 PUSH1 0x1 SWAP1 DUP3 SWAP1 PUSH1 0x1 PUSH1 0x1 PUSH1 0xA0 SHL SUB PUSH2 0x941 PUSH2 0x15C7 JUMP JUMPDEST AND DUP2 MSTORE PUSH1 0x9 DUP6 MSTORE KECCAK256 ADD SLOAD SWAP1 MLOAD SWAP1 TIMESTAMP LT ISZERO DUP2 MSTORE RETURN JUMPDEST DUP1 DUP5 DUP5 CALLVALUE PUSH2 0x9EF JUMPI PUSH1 0x20 CALLDATASIZE PUSH1 0x3 NOT ADD SLT PUSH2 0x9EF JUMPI PUSH2 0x9A7 PUSH1 0x20 SWAP2 PUSH2 0x977 PUSH2 0x15E2 JUMP JUMPDEST PUSH1 0x3 SLOAD DUP5 MLOAD PUSH4 0x23B872DD PUSH1 0xE0 SHL DUP2 MSTORE SWAP6 DUP7 SWAP4 PUSH1 0x1 PUSH1 0x1 PUSH1 0xA0 SHL SUB SWAP1 SWAP3 AND SWAP3 DUP5 SWAP3 DUP4 SWAP2 DUP1 CALLDATALOAD SWAP1 ADDRESS SWAP1 CALLER SWAP1 DUP6 ADD PUSH2 0x17CB JUMP JUMPDEST SUB SWAP3 GAS CALL SWAP1 DUP2 ISZERO PUSH2 0x9E6 JUMPI POP PUSH2 0x9BB JUMPI POP DUP1 RETURN JUMPDEST PUSH2 0x9DB SWAP1 PUSH1 0x20 RETURNDATASIZE DUP2 GT PUSH2 0x9DF JUMPI JUMPDEST PUSH2 0x9D3 DUP2 DUP4 PUSH2 0x163D JUMP JUMPDEST DUP2 ADD SWAP1 PUSH2 0x175F JUMP JUMPDEST POP DUP1 RETURN JUMPDEST POP RETURNDATASIZE PUSH2 0x9C9 JUMP JUMPDEST MLOAD RETURNDATASIZE DUP5 DUP3 RETURNDATACOPY RETURNDATASIZE SWAP1 REVERT JUMPDEST POP POP REVERT JUMPDEST POP POP CALLVALUE PUSH2 0x2D8 JUMPI DUP2 PUSH1 0x3 NOT CALLDATASIZE ADD SLT PUSH2 0x2D8 JUMPI PUSH1 0x20 SWAP1 PUSH1 0xC SLOAD SWAP1 MLOAD SWAP1 DUP2 MSTORE RETURN JUMPDEST DUP4 DUP3 CALLVALUE PUSH2 0x2D8 JUMPI PUSH1 0x20 CALLDATASIZE PUSH1 0x3 NOT ADD SLT PUSH2 0x2D8 JUMPI CALLDATALOAD PUSH4 0xFFFFFFFF DUP2 AND DUP1 SWAP2 SUB PUSH2 0x2D8 JUMPI PUSH2 0xA3C PUSH2 0x15E2 JUMP JUMPDEST PUSH4 0xFFFFFFFF NOT PUSH1 0x8 SLOAD AND OR PUSH1 0x8 SSTORE DUP1 RETURN JUMPDEST POP CALLVALUE PUSH2 0x293 JUMPI PUSH1 0x80 CALLDATASIZE PUSH1 0x3 NOT ADD SLT PUSH2 0x293 JUMPI PUSH2 0xA67 PUSH2 0x15C7 JUMP JUMPDEST SWAP1 PUSH1 0x24 CALLDATALOAD SWAP1 PUSH1 0x1 PUSH1 0x1 PUSH1 0xA0 SHL SUB PUSH1 0x44 CALLDATALOAD DUP2 DUP2 AND SUB PUSH2 0x802 JUMPI PUSH1 0x64 CALLDATALOAD PUSH8 0xFFFFFFFFFFFFFFFF DUP1 DUP3 GT PUSH2 0xBD8 JUMPI CALLDATASIZE PUSH1 0x23 DUP4 ADD SLT ISZERO PUSH2 0xBD8 JUMPI DUP2 DUP5 ADD CALLDATALOAD SWAP1 DUP2 GT PUSH2 0xBD8 JUMPI CALLDATASIZE SWAP2 ADD PUSH1 0x24 ADD GT PUSH2 0x802 JUMPI PUSH1 0x2 DUP7 SLOAD EQ PUSH2 0xB95 JUMPI PUSH1 0x2 DUP7 SSTORE PUSH2 0xAC8 PUSH2 0x17ED JUMP JUMPDEST PUSH1 0x2 SLOAD AND SWAP1 DUP2 ISZERO PUSH2 0xB43 JUMPI DUP3 PUSH2 0xAF9 SWAP3 PUSH1 0x20 SWAP3 DUP9 DUP9 MLOAD DUP1 SWAP7 DUP2 SWAP6 DUP3 SWAP5 PUSH4 0x23B872DD PUSH1 0xE0 SHL DUP5 MSTORE ADDRESS SWAP1 CALLER SWAP1 DUP6 ADD PUSH2 0x17CB JUMP JUMPDEST SUB SWAP3 GAS CALL DUP1 ISZERO PUSH2 0xB39 JUMPI PUSH2 0xB13 SWAP5 POP PUSH2 0xB1B JUMPI JUMPDEST POP PUSH2 0x1831 JUMP JUMPDEST POP PUSH1 0x1 DUP2 SSTORE DUP1 RETURN JUMPDEST PUSH2 0xB32 SWAP1 PUSH1 0x20 RETURNDATASIZE DUP2 GT PUSH2 0x9DF JUMPI PUSH2 0x9D3 DUP2 DUP4 PUSH2 0x163D JUMP JUMPDEST POP CODESIZE PUSH2 0xB0D JUMP JUMPDEST DUP5 MLOAD RETURNDATASIZE DUP8 DUP3 RETURNDATACOPY RETURNDATASIZE SWAP1 REVERT JUMPDEST PUSH1 0x84 SWAP1 PUSH1 0x20 DUP7 MLOAD SWAP2 PUSH3 0x461BCD PUSH1 0xE5 SHL DUP4 MSTORE DUP3 ADD MSTORE PUSH1 0x26 PUSH1 0x24 DUP3 ADD MSTORE PUSH32 0x72656365697665417070726F76616C3A20546F6B656E2061646472657373206E PUSH1 0x44 DUP3 ADD MSTORE PUSH6 0x1BDD081CD95D PUSH1 0xD2 SHL PUSH1 0x64 DUP3 ADD MSTORE REVERT JUMPDEST DUP5 MLOAD PUSH3 0x461BCD PUSH1 0xE5 SHL DUP2 MSTORE PUSH1 0x20 DUP2 DUP5 ADD MSTORE PUSH1 0x1F PUSH1 0x24 DUP3 ADD MSTORE PUSH32 0x5265656E7472616E637947756172643A207265656E7472616E742063616C6C00 PUSH1 0x44 DUP3 ADD MSTORE PUSH1 0x64 SWAP1 REVERT JUMPDEST DUP8 DUP1 REVERT JUMPDEST POP POP CALLVALUE PUSH2 0x2D8 JUMPI DUP2 PUSH1 0x3 NOT CALLDATASIZE ADD SLT PUSH2 0x2D8 JUMPI PUSH1 0x1 SLOAD SWAP1 MLOAD PUSH1 0x8 SWAP2 SWAP1 SWAP2 SHR PUSH1 0x1 PUSH1 0x1 PUSH1 0xA0 SHL SUB AND DUP2 MSTORE PUSH1 0x20 SWAP1 RETURN JUMPDEST DUP4 DUP3 CALLVALUE PUSH2 0x2D8 JUMPI PUSH1 0x20 CALLDATASIZE PUSH1 0x3 NOT ADD SLT PUSH2 0x2D8 JUMPI PUSH2 0xC24 PUSH2 0x15E2 JUMP JUMPDEST CALLDATALOAD PUSH1 0xA SSTORE DUP1 RETURN JUMPDEST DUP4 CALLVALUE PUSH2 0x335 JUMPI DUP1 PUSH1 0x3 NOT CALLDATASIZE ADD SLT PUSH2 0x335 JUMPI PUSH2 0xC44 PUSH2 0x15E2 JUMP JUMPDEST PUSH1 0x1 DUP1 SLOAD PUSH2 0x100 PUSH1 0x1 PUSH1 0xA8 SHL SUB NOT DUP2 AND SWAP1 SWAP2 SSTORE DUP2 SWAP1 PUSH1 0x8 SHR PUSH1 0x1 PUSH1 0x1 PUSH1 0xA0 SHL SUB AND PUSH32 0x8BE0079C531659141344CD1FD0A4F28419497F9722A3DAAFE3B4186F6B6457E0 DUP3 DUP1 LOG3 DUP1 RETURN JUMPDEST POP POP CALLVALUE PUSH2 0x2D8 JUMPI PUSH1 0x20 CALLDATASIZE PUSH1 0x3 NOT ADD SLT PUSH2 0x2D8 JUMPI PUSH1 0x20 SWAP2 DUP2 SWAP1 PUSH1 0x1 PUSH1 0x1 PUSH1 0xA0 SHL SUB PUSH2 0xCB4 PUSH2 0x15C7 JUMP JUMPDEST AND DUP2 MSTORE PUSH1 0x9 DUP5 MSTORE KECCAK256 SLOAD SWAP1 MLOAD SWAP1 DUP2 MSTORE RETURN JUMPDEST DUP4 DUP3 CALLVALUE PUSH2 0x2D8 JUMPI PUSH1 0x20 CALLDATASIZE PUSH1 0x3 NOT ADD SLT PUSH2 0x2D8 JUMPI PUSH2 0xCDF PUSH2 0x15E2 JUMP JUMPDEST CALLDATALOAD PUSH1 0x7 SSTORE DUP1 RETURN JUMPDEST POP CALLVALUE PUSH2 0x293 JUMPI DUP3 PUSH1 0x3 NOT CALLDATASIZE ADD SLT PUSH2 0x293 JUMPI PUSH1 0x2 SLOAD DUP3 MLOAD PUSH4 0x313CE567 PUSH1 0xE0 SHL DUP2 MSTORE SWAP2 PUSH1 0x20 SWAP2 DUP4 SWAP2 SWAP1 DUP3 SWAP1 PUSH1 0x1 PUSH1 0x1 PUSH1 0xA0 SHL SUB AND GAS STATICCALL SWAP1 DUP2 ISZERO PUSH2 0xD8B JUMPI PUSH1 0xFF PUSH2 0x31B SWAP3 PUSH2 0xD3B SWAP3 PUSH1 0x20 SWAP7 SWAP2 PUSH2 0xD5E JUMPI JUMPDEST POP AND PUSH2 0x1751 JUMP JUMPDEST PUSH2 0xD59 PUSH2 0xD4A DUP3 PUSH1 0xB SLOAD PUSH2 0x1777 JUMP JUMPDEST SWAP2 PUSH2 0xD53 PUSH2 0x16BE JUMP JUMPDEST SWAP1 PUSH2 0x1675 JUMP JUMPDEST PUSH2 0x169E JUMP JUMPDEST PUSH2 0xD7E SWAP2 POP DUP7 RETURNDATASIZE DUP2 GT PUSH2 0xD84 JUMPI JUMPDEST PUSH2 0xD76 DUP2 DUP4 PUSH2 0x163D JUMP JUMPDEST DUP2 ADD SWAP1 PUSH2 0x1738 JUMP JUMPDEST CODESIZE PUSH2 0xD34 JUMP JUMPDEST POP RETURNDATASIZE PUSH2 0xD6C JUMP JUMPDEST POP POP MLOAD SWAP1 RETURNDATASIZE SWAP1 DUP3 RETURNDATACOPY RETURNDATASIZE SWAP1 REVERT JUMPDEST DUP4 DUP3 CALLVALUE PUSH2 0x2D8 JUMPI PUSH1 0x20 CALLDATASIZE PUSH1 0x3 NOT ADD SLT PUSH2 0x2D8 JUMPI PUSH2 0xDB2 PUSH2 0x15E2 JUMP JUMPDEST CALLDATALOAD PUSH1 0xB SSTORE DUP1 RETURN JUMPDEST POP CALLVALUE PUSH2 0x293 JUMPI DUP3 PUSH1 0x3 NOT CALLDATASIZE ADD SLT PUSH2 0x293 JUMPI SLOAD SWAP1 MLOAD PUSH1 0x1 PUSH1 0x1 PUSH1 0xA0 SHL SUB SWAP1 SWAP2 AND DUP2 MSTORE PUSH1 0x20 SWAP2 POP RETURN JUMPDEST POP POP CALLVALUE PUSH2 0x2D8 JUMPI DUP2 PUSH1 0x3 NOT CALLDATASIZE ADD SLT PUSH2 0x2D8 JUMPI PUSH1 0x20 SWAP1 PUSH1 0xFF PUSH1 0x1 SLOAD AND SWAP1 MLOAD SWAP1 ISZERO ISZERO DUP2 MSTORE RETURN JUMPDEST POP SWAP2 CALLVALUE PUSH2 0x335 JUMPI PUSH1 0x20 SWAP3 DUP4 PUSH1 0x3 NOT CALLDATASIZE ADD SLT PUSH2 0x2D8 JUMPI PUSH1 0x2 SLOAD DUP4 MLOAD PUSH4 0x313CE567 PUSH1 0xE0 SHL DUP1 DUP3 MSTORE DUP4 CALLDATALOAD SWAP5 SWAP3 PUSH1 0x1 PUSH1 0x1 PUSH1 0xA0 SHL SUB AND SWAP2 DUP8 DUP2 DUP7 DUP2 DUP7 GAS STATICCALL SWAP1 DUP2 ISZERO PUSH2 0xF1B JUMPI PUSH1 0xFF DUP10 SWAP4 SWAP3 PUSH1 0x12 SWAP3 DUP8 SWAP2 PUSH2 0xEFE JUMPI JUMPDEST POP AND LT PUSH2 0xE71 JUMPI JUMPDEST POP DUP6 PUSH2 0x31B DUP7 PUSH2 0xD59 PUSH2 0xD4A DUP3 PUSH1 0xB SLOAD PUSH2 0x1777 JUMP JUMPDEST DUP5 DUP8 MLOAD DUP1 SWAP5 DUP2 SWAP4 DUP3 MSTORE GAS STATICCALL SWAP1 DUP2 ISZERO PUSH2 0xEF4 JUMPI SWAP1 PUSH1 0xFF SWAP2 DUP4 SWAP2 PUSH2 0xED7 JUMPI JUMPDEST POP AND PUSH1 0x12 SUB PUSH1 0xFF DUP2 GT PUSH2 0xEC4 JUMPI PUSH1 0xFF AND SWAP2 PUSH1 0x4D DUP4 GT PUSH2 0x322 JUMPI POP POP PUSH2 0x31B SWAP2 PUSH2 0xEBA SWAP2 PUSH1 0xA EXP SWAP1 PUSH2 0x1675 JUMP JUMPDEST SWAP1 CODESIZE DUP1 DUP6 DUP2 PUSH2 0xE5C JUMP JUMPDEST POP PUSH1 0x11 PUSH1 0x24 SWAP3 PUSH4 0x4E487B71 PUSH1 0xE0 SHL DUP4 MSTORE MSTORE REVERT JUMPDEST PUSH2 0xEEE SWAP2 POP DUP8 RETURNDATASIZE DUP10 GT PUSH2 0xD84 JUMPI PUSH2 0xD76 DUP2 DUP4 PUSH2 0x163D JUMP JUMPDEST CODESIZE PUSH2 0xE8E JUMP JUMPDEST DUP6 MLOAD RETURNDATASIZE DUP5 DUP3 RETURNDATACOPY RETURNDATASIZE SWAP1 REVERT JUMPDEST PUSH2 0xF15 SWAP2 POP DUP6 RETURNDATASIZE DUP8 GT PUSH2 0xD84 JUMPI PUSH2 0xD76 DUP2 DUP4 PUSH2 0x163D JUMP JUMPDEST CODESIZE PUSH2 0xE54 JUMP JUMPDEST DUP8 MLOAD RETURNDATASIZE DUP7 DUP3 RETURNDATACOPY RETURNDATASIZE SWAP1 REVERT JUMPDEST POP SWAP1 CALLVALUE PUSH2 0x293 JUMPI DUP3 PUSH1 0x3 NOT CALLDATASIZE ADD SLT PUSH2 0x293 JUMPI PUSH2 0xF3F PUSH2 0x17ED JUMP JUMPDEST PUSH4 0xFFFFFFFF PUSH1 0x8 SLOAD AND ISZERO PUSH2 0xFB2 JUMPI JUMPDEST CALLER DUP4 MSTORE PUSH1 0x9 PUSH1 0x20 MSTORE PUSH1 0x1 DUP2 DUP5 KECCAK256 ADD SLOAD TIMESTAMP LT PUSH2 0xF6F JUMPI DUP3 PUSH2 0xF6C PUSH2 0x1C32 JUMP JUMPDEST DUP1 RETURN JUMPDEST SWAP1 PUSH1 0x20 PUSH1 0x64 SWAP3 MLOAD SWAP2 PUSH3 0x461BCD PUSH1 0xE5 SHL DUP4 MSTORE DUP3 ADD MSTORE PUSH1 0x20 PUSH1 0x24 DUP3 ADD MSTORE PUSH32 0x7768656E436C61696D61626C653A2056657374696E67206E6F7420656E646564 PUSH1 0x44 DUP3 ADD MSTORE REVERT JUMPDEST PUSH2 0xFBA PUSH2 0x1C32 JUMP JUMPDEST PUSH2 0xF4E JUMP JUMPDEST POP SWAP2 SWAP1 CALLVALUE PUSH2 0x2D8 JUMPI DUP2 PUSH1 0x3 NOT CALLDATASIZE ADD SLT PUSH2 0x2D8 JUMPI PUSH2 0xFDA PUSH2 0x15E2 JUMP JUMPDEST PUSH1 0x3 SLOAD DUP2 MLOAD PUSH4 0x70A08231 PUSH1 0xE0 SHL DUP2 MSTORE ADDRESS DUP6 DUP3 ADD MSTORE SWAP4 PUSH1 0x20 SWAP3 SWAP2 PUSH1 0x1 PUSH1 0x1 PUSH1 0xA0 SHL SUB SWAP1 DUP2 AND SWAP2 SWAP1 DUP5 DUP8 PUSH1 0x24 DUP2 DUP7 GAS STATICCALL SWAP7 DUP8 ISZERO PUSH2 0x1107 JUMPI DUP7 SWAP8 PUSH2 0x10D8 JUMPI JUMPDEST POP DUP7 ISZERO PUSH2 0x1095 JUMPI PUSH1 0x1 SLOAD DUP5 MLOAD PUSH4 0xA9059CBB PUSH1 0xE0 SHL DUP2 MSTORE PUSH1 0x1 PUSH1 0x1 PUSH1 0xA0 SHL SUB PUSH1 0x8 SWAP3 SWAP1 SWAP3 SHR SWAP1 SWAP3 AND AND SWAP2 DUP2 ADD SWAP2 DUP3 MSTORE PUSH1 0x20 DUP3 ADD DUP8 SWAP1 MSTORE SWAP3 SWAP2 DUP5 SWAP2 DUP5 SWAP2 SWAP1 DUP3 SWAP1 DUP9 SWAP1 DUP3 SWAP1 PUSH1 0x40 ADD SUB SWAP3 GAS CALL SWAP1 DUP2 ISZERO PUSH2 0x108C JUMPI POP PUSH2 0x106F JUMPI DUP3 DUP1 RETURN JUMPDEST DUP2 PUSH2 0x1085 SWAP3 SWAP1 RETURNDATASIZE LT PUSH2 0x9DF JUMPI PUSH2 0x9D3 DUP2 DUP4 PUSH2 0x163D JUMP JUMPDEST POP DUP2 DUP1 DUP3 DUP1 RETURN JUMPDEST MLOAD RETURNDATASIZE DUP6 DUP3 RETURNDATACOPY RETURNDATASIZE SWAP1 REVERT JUMPDEST DUP4 MLOAD PUSH3 0x461BCD PUSH1 0xE5 SHL DUP2 MSTORE DUP1 DUP4 ADD DUP7 SWAP1 MSTORE PUSH1 0x1A PUSH1 0x24 DUP3 ADD MSTORE PUSH32 0x73776565703A204E6F2062616C616E636520746F207377656570000000000000 PUSH1 0x44 DUP3 ADD MSTORE PUSH1 0x64 SWAP1 REVERT JUMPDEST SWAP1 SWAP7 POP DUP5 DUP2 DUP2 RETURNDATASIZE DUP4 GT PUSH2 0x1100 JUMPI JUMPDEST PUSH2 0x10F0 DUP2 DUP4 PUSH2 0x163D JUMP JUMPDEST DUP2 ADD SUB SLT PUSH2 0x802 JUMPI MLOAD SWAP6 CODESIZE PUSH2 0x1016 JUMP JUMPDEST POP RETURNDATASIZE PUSH2 0x10E6 JUMP JUMPDEST DUP5 MLOAD RETURNDATASIZE DUP9 DUP3 RETURNDATACOPY RETURNDATASIZE SWAP1 REVERT JUMPDEST POP SWAP1 CALLVALUE PUSH2 0x293 JUMPI PUSH1 0x20 CALLDATASIZE PUSH1 0x3 NOT ADD SLT PUSH2 0x293 JUMPI PUSH2 0x112C PUSH2 0x15C7 JUMP JUMPDEST PUSH2 0x1134 PUSH2 0x15E2 JUMP JUMPDEST PUSH1 0xD DUP1 SLOAD PUSH1 0x1 PUSH1 0x1 PUSH1 0xA0 SHL SUB NOT AND PUSH1 0x1 PUSH1 0x1 PUSH1 0xA0 SHL SUB SWAP3 DUP4 AND SWAP1 DUP2 OR SWAP1 SWAP2 SSTORE DUP1 PUSH2 0x115C JUMPI DUP5 DUP1 RETURN JUMPDEST PUSH1 0x44 PUSH1 0x20 SWAP3 PUSH1 0x2 SLOAD AND SWAP5 DUP7 DUP6 MLOAD SWAP7 DUP8 SWAP5 DUP6 SWAP4 PUSH4 0x95EA7B3 PUSH1 0xE0 SHL DUP6 MSTORE DUP5 ADD MSTORE PUSH1 0x0 NOT PUSH1 0x24 DUP5 ADD MSTORE GAS CALL SWAP1 DUP2 ISZERO PUSH2 0x9E6 JUMPI POP PUSH2 0x1199 JUMPI JUMPDEST DUP1 DUP1 DUP1 DUP5 DUP1 RETURN JUMPDEST PUSH2 0x11B0 SWAP1 PUSH1 0x20 RETURNDATASIZE DUP2 GT PUSH2 0x9DF JUMPI PUSH2 0x9D3 DUP2 DUP4 PUSH2 0x163D JUMP JUMPDEST POP CODESIZE PUSH2 0x1192 JUMP JUMPDEST POP POP CALLVALUE PUSH2 0x2D8 JUMPI DUP2 PUSH1 0x3 NOT CALLDATASIZE ADD SLT PUSH2 0x2D8 JUMPI PUSH1 0x20 SWAP1 PUSH1 0xA SLOAD SWAP1 MLOAD SWAP1 DUP2 MSTORE RETURN JUMPDEST POP CALLVALUE PUSH2 0x293 JUMPI PUSH1 0x20 SWAP3 DUP4 PUSH1 0x3 NOT CALLDATASIZE ADD SLT PUSH2 0x335 JUMPI DUP2 CALLDATALOAD SWAP2 PUSH2 0x11F5 PUSH2 0x17ED JUMP JUMPDEST PUSH1 0x2 SLOAD DUP5 MLOAD PUSH4 0x70A08231 PUSH1 0xE0 SHL DUP2 MSTORE CALLER DUP4 DUP3 ADD MSTORE DUP5 SWAP4 SWAP2 PUSH1 0x1 PUSH1 0x1 PUSH1 0xA0 SHL SUB SWAP2 SWAP1 DUP3 AND SWAP1 DUP9 DUP2 PUSH1 0x24 DUP2 DUP6 GAS STATICCALL SWAP1 DUP2 ISZERO PUSH2 0x13B9 JUMPI SWAP1 DUP8 SWAP2 DUP6 SWAP2 PUSH2 0x1388 JUMPI JUMPDEST POP LT PUSH2 0x133A JUMPI PUSH2 0x1244 PUSH1 0xA SLOAD ISZERO PUSH2 0x1784 JUMP JUMPDEST DUP8 DUP8 MLOAD DUP1 SWAP3 PUSH4 0x23B872DD PUSH1 0xE0 SHL DUP3 MSTORE DUP2 DUP7 DUP2 PUSH2 0x1264 DUP13 ADDRESS CALLER DUP14 DUP6 ADD PUSH2 0x17CB JUMP JUMPDEST SUB SWAP3 GAS CALL DUP1 ISZERO PUSH2 0x1330 JUMPI SWAP2 DUP9 SWAP2 DUP6 SWAP4 PUSH2 0x1313 JUMPI JUMPDEST POP PUSH2 0x1282 DUP8 PUSH2 0x1CAD JUMP JUMPDEST POP PUSH1 0x2 SLOAD AND DUP8 MLOAD SWAP3 DUP4 DUP1 SWAP3 PUSH4 0x313CE567 PUSH1 0xE0 SHL DUP3 MSTORE GAS STATICCALL SWAP1 DUP2 ISZERO PUSH2 0x1309 JUMPI SWAP1 PUSH1 0xFF SWAP2 DUP4 SWAP2 PUSH2 0x12EC JUMPI JUMPDEST POP AND PUSH1 0x12 DUP2 LT PUSH2 0x12C2 JUMPI JUMPDEST DUP7 DUP7 PUSH2 0x31B CALLER DUP8 PUSH2 0x1831 JUMP JUMPDEST SWAP1 SWAP2 SWAP3 POP PUSH1 0x12 SUB SWAP2 PUSH1 0x12 DUP4 GT PUSH2 0x322 JUMPI POP POP PUSH2 0x31B SWAP2 PUSH2 0xD53 PUSH2 0x12E4 SWAP3 PUSH2 0x1751 JUMP JUMPDEST CODESIZE DUP1 DUP1 PUSH2 0x12B6 JUMP JUMPDEST PUSH2 0x1303 SWAP2 POP DUP9 RETURNDATASIZE DUP11 GT PUSH2 0xD84 JUMPI PUSH2 0xD76 DUP2 DUP4 PUSH2 0x163D JUMP JUMPDEST CODESIZE PUSH2 0x12AB JUMP JUMPDEST DUP7 MLOAD RETURNDATASIZE DUP5 DUP3 RETURNDATACOPY RETURNDATASIZE SWAP1 REVERT JUMPDEST PUSH2 0x1329 SWAP1 DUP4 RETURNDATASIZE DUP6 GT PUSH2 0x9DF JUMPI PUSH2 0x9D3 DUP2 DUP4 PUSH2 0x163D JUMP JUMPDEST POP CODESIZE PUSH2 0x1278 JUMP JUMPDEST DUP8 MLOAD RETURNDATASIZE DUP6 DUP3 RETURNDATACOPY RETURNDATASIZE SWAP1 REVERT JUMPDEST DUP7 MLOAD PUSH3 0x461BCD PUSH1 0xE5 SHL DUP2 MSTORE DUP1 DUP6 ADD DUP10 SWAP1 MSTORE PUSH1 0x22 PUSH1 0x24 DUP3 ADD MSTORE PUSH32 0x6D657267653A20496E73756666696369656E742062616C616E636520746F2065 PUSH1 0x44 DUP3 ADD MSTORE PUSH2 0x185D PUSH1 0xF2 SHL PUSH1 0x64 DUP3 ADD MSTORE PUSH1 0x84 SWAP1 REVERT JUMPDEST DUP1 SWAP3 POP DUP11 DUP1 SWAP3 POP RETURNDATASIZE DUP4 GT PUSH2 0x13B2 JUMPI JUMPDEST PUSH2 0x13A1 DUP2 DUP4 PUSH2 0x163D JUMP JUMPDEST DUP2 ADD SUB SLT PUSH2 0x4D7 JUMPI DUP7 SWAP1 MLOAD CODESIZE PUSH2 0x1232 JUMP JUMPDEST POP RETURNDATASIZE PUSH2 0x1397 JUMP JUMPDEST DUP9 MLOAD RETURNDATASIZE DUP7 DUP3 RETURNDATACOPY RETURNDATASIZE SWAP1 REVERT JUMPDEST POP POP CALLVALUE PUSH2 0x2D8 JUMPI DUP2 PUSH1 0x3 NOT CALLDATASIZE ADD SLT PUSH2 0x2D8 JUMPI PUSH1 0x2 SLOAD SWAP1 MLOAD PUSH1 0x1 PUSH1 0x1 PUSH1 0xA0 SHL SUB SWAP1 SWAP2 AND DUP2 MSTORE PUSH1 0x20 SWAP1 RETURN JUMPDEST POP POP CALLVALUE PUSH2 0x2D8 JUMPI DUP2 PUSH1 0x3 NOT CALLDATASIZE ADD SLT PUSH2 0x2D8 JUMPI PUSH1 0x20 SWAP1 PUSH1 0xB SLOAD SWAP1 MLOAD SWAP1 DUP2 MSTORE RETURN JUMPDEST POP POP CALLVALUE PUSH2 0x2D8 JUMPI DUP2 PUSH1 0x3 NOT CALLDATASIZE ADD SLT PUSH2 0x2D8 JUMPI PUSH1 0x20 SWAP1 PUSH1 0x5 SLOAD SWAP1 MLOAD SWAP1 DUP2 MSTORE RETURN JUMPDEST POP POP CALLVALUE PUSH2 0x2D8 JUMPI DUP2 PUSH1 0x3 NOT CALLDATASIZE ADD SLT PUSH2 0x2D8 JUMPI PUSH1 0x20 SWAP1 PUSH4 0xFFFFFFFF PUSH1 0x8 SLOAD AND SWAP1 MLOAD SWAP1 DUP2 MSTORE RETURN JUMPDEST SWAP4 SWAP1 POP CALLVALUE PUSH2 0x335 JUMPI DUP1 PUSH1 0x3 NOT CALLDATASIZE ADD SLT PUSH2 0x335 JUMPI PUSH1 0x2 SLOAD PUSH4 0x6FDDE03 PUSH1 0xE0 SHL DUP6 MSTORE DUP2 SWAP1 DUP6 SWAP1 DUP5 SWAP1 DUP3 SWAP1 PUSH1 0x1 PUSH1 0x1 PUSH1 0xA0 SHL SUB AND GAS STATICCALL SWAP2 DUP3 ISZERO PUSH2 0x1598 JUMPI DUP2 SWAP3 PUSH2 0x14FB JUMPI JUMPDEST PUSH2 0x14ED DUP5 DUP5 DUP2 MLOAD SWAP1 PUSH2 0x14D2 PUSH1 0x26 DUP4 PUSH1 0x20 DUP2 ADD SWAP4 PUSH6 0x2BB2ABB29D1 PUSH1 0xD5 SHL DUP6 MSTORE PUSH2 0x14C2 DUP2 MLOAD DUP1 SWAP3 PUSH1 0x20 DUP7 DUP7 ADD SWAP2 ADD PUSH2 0x15A4 JUMP JUMPDEST DUP2 ADD SUB PUSH1 0x6 DUP2 ADD DUP6 MSTORE ADD DUP4 PUSH2 0x163D JUMP JUMPDEST DUP3 MLOAD SWAP4 DUP5 SWAP3 PUSH1 0x20 DUP5 MSTORE MLOAD DUP1 SWAP3 DUP2 PUSH1 0x20 DUP7 ADD MSTORE DUP6 DUP6 ADD SWAP1 PUSH2 0x15A4 JUMP JUMPDEST PUSH1 0x1F ADD PUSH1 0x1F NOT AND DUP2 ADD SUB ADD SWAP1 RETURN JUMPDEST SWAP1 SWAP2 POP RETURNDATASIZE DUP1 DUP4 DUP7 RETURNDATACOPY PUSH2 0x150D DUP2 DUP7 PUSH2 0x163D JUMP JUMPDEST DUP5 ADD SWAP2 PUSH1 0x20 DUP6 DUP5 SUB SLT PUSH2 0x335 JUMPI DUP5 MLOAD PUSH8 0xFFFFFFFFFFFFFFFF SWAP6 DUP7 DUP3 GT PUSH2 0x293 JUMPI ADD SWAP2 DUP4 PUSH1 0x1F DUP5 ADD SLT ISZERO PUSH2 0x2D8 JUMPI DUP3 MLOAD SWAP6 DUP7 GT PUSH2 0x1585 JUMPI POP DUP4 MLOAD SWAP3 PUSH2 0x155B PUSH1 0x1F DUP8 ADD PUSH1 0x1F NOT AND PUSH1 0x20 ADD DUP6 PUSH2 0x163D JUMP JUMPDEST DUP6 DUP5 MSTORE PUSH1 0x20 DUP7 DUP5 ADD ADD GT PUSH2 0x335 JUMPI POP PUSH2 0x14ED SWAP4 PUSH2 0x157E SWAP2 PUSH1 0x20 DUP1 DUP6 ADD SWAP2 ADD PUSH2 0x15A4 JUMP JUMPDEST CODESIZE DUP1 PUSH2 0x1490 JUMP JUMPDEST PUSH4 0x4E487B71 PUSH1 0xE0 SHL DUP3 MSTORE PUSH1 0x41 SWAP1 MSTORE PUSH1 0x24 SWAP1 REVERT JUMPDEST POP DUP3 MLOAD SWAP1 RETURNDATASIZE SWAP1 DUP3 RETURNDATACOPY RETURNDATASIZE SWAP1 REVERT JUMPDEST PUSH1 0x0 JUMPDEST DUP4 DUP2 LT PUSH2 0x15B7 JUMPI POP POP PUSH1 0x0 SWAP2 ADD MSTORE JUMP JUMPDEST DUP2 DUP2 ADD MLOAD DUP4 DUP3 ADD MSTORE PUSH1 0x20 ADD PUSH2 0x15A7 JUMP JUMPDEST PUSH1 0x4 CALLDATALOAD SWAP1 PUSH1 0x1 PUSH1 0x1 PUSH1 0xA0 SHL SUB DUP3 AND DUP3 SUB PUSH2 0x15DD JUMPI JUMP JUMPDEST PUSH1 0x0 DUP1 REVERT JUMPDEST PUSH1 0x1 SLOAD PUSH1 0x8 SHR PUSH1 0x1 PUSH1 0x1 PUSH1 0xA0 SHL SUB AND CALLER SUB PUSH2 0x15F9 JUMPI JUMP JUMPDEST PUSH1 0x64 PUSH1 0x40 MLOAD PUSH3 0x461BCD PUSH1 0xE5 SHL DUP2 MSTORE PUSH1 0x20 PUSH1 0x4 DUP3 ADD MSTORE PUSH1 0x20 PUSH1 0x24 DUP3 ADD MSTORE PUSH32 0x4F776E61626C653A2063616C6C6572206973206E6F7420746865206F776E6572 PUSH1 0x44 DUP3 ADD MSTORE REVERT JUMPDEST SWAP1 PUSH1 0x1F DUP1 NOT SWAP2 ADD AND DUP2 ADD SWAP1 DUP2 LT PUSH8 0xFFFFFFFFFFFFFFFF DUP3 GT OR PUSH2 0x165F JUMPI PUSH1 0x40 MSTORE JUMP JUMPDEST PUSH4 0x4E487B71 PUSH1 0xE0 SHL PUSH1 0x0 MSTORE PUSH1 0x41 PUSH1 0x4 MSTORE PUSH1 0x24 PUSH1 0x0 REVERT JUMPDEST DUP2 DUP2 MUL SWAP3 SWAP2 DUP2 ISZERO SWAP2 DUP5 DIV EQ OR ISZERO PUSH2 0x1688 JUMPI JUMP JUMPDEST PUSH4 0x4E487B71 PUSH1 0xE0 SHL PUSH1 0x0 MSTORE PUSH1 0x11 PUSH1 0x4 MSTORE PUSH1 0x24 PUSH1 0x0 REVERT JUMPDEST DUP2 ISZERO PUSH2 0x16A8 JUMPI DIV SWAP1 JUMP JUMPDEST PUSH4 0x4E487B71 PUSH1 0xE0 SHL PUSH1 0x0 MSTORE PUSH1 0x12 PUSH1 0x4 MSTORE PUSH1 0x24 PUSH1 0x0 REVERT JUMPDEST PUSH1 0xC SLOAD PUSH1 0x5 SLOAD DUP1 DUP3 LT PUSH2 0x16D7 JUMPI DUP2 SUB SWAP1 DUP2 GT PUSH2 0x1688 JUMPI SWAP1 JUMP JUMPDEST PUSH1 0x40 MLOAD PUSH3 0x461BCD PUSH1 0xE5 SHL DUP2 MSTORE PUSH1 0x20 PUSH1 0x4 DUP3 ADD MSTORE PUSH1 0x33 PUSH1 0x24 DUP3 ADD MSTORE PUSH32 0x5F6765745765776542616C616E63653A207669727475616C57455745206C6573 PUSH1 0x44 DUP3 ADD MSTORE PUSH19 0x1CC81D1A185B881D1BDD185B081D995CDD1959 PUSH1 0x6A SHL PUSH1 0x64 DUP3 ADD MSTORE PUSH1 0x84 SWAP1 REVERT JUMPDEST SWAP1 DUP2 PUSH1 0x20 SWAP2 SUB SLT PUSH2 0x15DD JUMPI MLOAD PUSH1 0xFF DUP2 AND DUP2 SUB PUSH2 0x15DD JUMPI SWAP1 JUMP JUMPDEST PUSH1 0x4D DUP2 GT PUSH2 0x1688 JUMPI PUSH1 0xA EXP SWAP1 JUMP JUMPDEST SWAP1 DUP2 PUSH1 0x20 SWAP2 SUB SLT PUSH2 0x15DD JUMPI MLOAD DUP1 ISZERO ISZERO DUP2 SUB PUSH2 0x15DD JUMPI SWAP1 JUMP JUMPDEST SWAP2 SWAP1 DUP3 ADD DUP1 SWAP3 GT PUSH2 0x1688 JUMPI JUMP JUMPDEST ISZERO PUSH2 0x178B JUMPI JUMP JUMPDEST PUSH1 0x40 MLOAD PUSH3 0x461BCD PUSH1 0xE5 SHL DUP2 MSTORE PUSH1 0x20 PUSH1 0x4 DUP3 ADD MSTORE PUSH1 0x18 PUSH1 0x24 DUP3 ADD MSTORE PUSH24 0x1B595C99D94E8815DA1A5D19481B1A5CDD081A5CC81CD95D PUSH1 0x42 SHL PUSH1 0x44 DUP3 ADD MSTORE PUSH1 0x64 SWAP1 REVERT JUMPDEST PUSH1 0x1 PUSH1 0x1 PUSH1 0xA0 SHL SUB SWAP2 DUP3 AND DUP2 MSTORE SWAP2 AND PUSH1 0x20 DUP3 ADD MSTORE PUSH1 0x40 DUP2 ADD SWAP2 SWAP1 SWAP2 MSTORE PUSH1 0x60 ADD SWAP1 JUMP JUMPDEST PUSH1 0xFF PUSH1 0x1 SLOAD AND PUSH2 0x17F9 JUMPI JUMP JUMPDEST PUSH1 0x40 MLOAD PUSH3 0x461BCD PUSH1 0xE5 SHL DUP2 MSTORE PUSH1 0x20 PUSH1 0x4 DUP3 ADD MSTORE PUSH1 0x10 PUSH1 0x24 DUP3 ADD MSTORE PUSH16 0x14185D5CD8589B194E881C185D5CD959 PUSH1 0x82 SHL PUSH1 0x44 DUP3 ADD MSTORE PUSH1 0x64 SWAP1 REVERT JUMPDEST PUSH1 0x7 SLOAD PUSH2 0x1840 PUSH1 0x6 SLOAD DUP4 PUSH2 0x1777 JUMP JUMPDEST DUP2 LT SWAP1 DUP2 ISZERO SWAP2 PUSH2 0x1B04 JUMPI JUMPDEST POP ISZERO PUSH2 0x1ABF JUMPI PUSH2 0x1871 PUSH2 0x1860 DUP3 PUSH1 0xB SLOAD PUSH2 0x1777 JUMP JUMPDEST PUSH2 0xD59 PUSH2 0x186B PUSH2 0x16BE JUMP JUMPDEST DUP5 PUSH2 0x1675 JUMP JUMPDEST PUSH1 0x3 SLOAD PUSH1 0x40 DUP1 MLOAD PUSH4 0x70A08231 PUSH1 0xE0 SHL DUP2 MSTORE ADDRESS PUSH1 0x4 DUP3 ADD MSTORE SWAP3 SWAP5 PUSH1 0x20 SWAP4 SWAP2 SWAP3 PUSH1 0x1 PUSH1 0x1 PUSH1 0xA0 SHL SUB SWAP3 SWAP1 DUP4 AND SWAP1 DUP6 DUP2 PUSH1 0x24 DUP2 DUP6 GAS STATICCALL SWAP1 DUP2 ISZERO PUSH2 0x1A2C JUMPI PUSH1 0x0 SWAP2 PUSH2 0x1A92 JUMPI JUMPDEST POP DUP8 GT PUSH2 0x1A37 JUMPI PUSH1 0x8 SLOAD PUSH4 0xFFFFFFFF SWAP2 SWAP1 DUP3 AND ISZERO PUSH2 0x199D JUMPI POP DUP3 DUP3 AND SWAP5 DUP6 PUSH1 0x0 MSTORE PUSH1 0x9 DUP2 MSTORE PUSH2 0x18E6 DUP6 PUSH1 0x0 KECCAK256 SLOAD DUP10 PUSH2 0x1777 JUMP JUMPDEST SWAP2 PUSH1 0x3C DUP2 PUSH1 0x8 SLOAD AND MUL SWAP1 DUP2 AND SWAP1 DUP2 SUB PUSH2 0x1688 JUMPI PUSH2 0x1903 SWAP1 TIMESTAMP PUSH2 0x1777 JUMP JUMPDEST SWAP6 DUP6 MLOAD SWAP1 PUSH1 0x60 DUP3 ADD SWAP1 DUP3 DUP3 LT PUSH8 0xFFFFFFFFFFFFFFFF DUP4 GT OR PUSH2 0x165F JUMPI PUSH32 0xABE5455971BDCD932E7251D16CD53F88CD4410BF4DF21530E88BF13DADE6A7D4 SWAP9 DUP12 SWAP6 PUSH1 0x2 SWAP4 DUP11 MSTORE DUP5 MSTORE DUP5 DUP5 ADD SWAP1 DUP2 MSTORE DUP9 DUP5 ADD SWAP2 DUP12 DUP4 MSTORE PUSH1 0x0 MSTORE PUSH1 0x9 DUP6 MSTORE DUP9 PUSH1 0x0 KECCAK256 SWAP4 MLOAD DUP5 SSTORE MLOAD PUSH1 0x1 DUP5 ADD SSTORE MLOAD SWAP2 ADD SSTORE PUSH2 0x197C DUP3 PUSH1 0x5 SLOAD PUSH2 0x1777 JUMP JUMPDEST PUSH1 0x5 SSTORE JUMPDEST PUSH2 0x198C DUP8 PUSH1 0x6 SLOAD PUSH2 0x1777 JUMP JUMPDEST PUSH1 0x6 SSTORE DUP5 MLOAD SWAP7 DUP8 MSTORE DUP7 ADD MSTORE AND SWAP3 LOG2 SWAP1 JUMP JUMPDEST DUP5 MLOAD PUSH4 0xA9059CBB PUSH1 0xE0 SHL DUP2 MSTORE PUSH1 0x1 PUSH1 0x1 PUSH1 0xA0 SHL SUB DUP5 AND PUSH1 0x4 DUP3 ADD MSTORE PUSH1 0x24 DUP2 ADD DUP10 SWAP1 MSTORE SWAP5 SWAP6 SWAP4 SWAP5 SWAP3 SWAP4 SWAP3 SWAP2 POP DUP3 SWAP1 DUP3 SWAP1 PUSH1 0x44 SWAP1 DUP3 SWAP1 PUSH1 0x0 SWAP1 GAS CALL DUP1 ISZERO PUSH2 0x1A2C JUMPI SWAP2 DUP8 SWAP2 PUSH32 0xABE5455971BDCD932E7251D16CD53F88CD4410BF4DF21530E88BF13DADE6A7D4 SWAP7 SWAP6 SWAP5 SWAP4 PUSH2 0x1A0F JUMPI JUMPDEST POP PUSH2 0x1980 JUMP JUMPDEST PUSH2 0x1A25 SWAP1 DUP3 RETURNDATASIZE DUP5 GT PUSH2 0x9DF JUMPI PUSH2 0x9D3 DUP2 DUP4 PUSH2 0x163D JUMP JUMPDEST POP CODESIZE PUSH2 0x1A09 JUMP JUMPDEST DUP6 MLOAD RETURNDATASIZE PUSH1 0x0 DUP3 RETURNDATACOPY RETURNDATASIZE SWAP1 REVERT JUMPDEST DUP4 MLOAD PUSH3 0x461BCD PUSH1 0xE5 SHL DUP2 MSTORE PUSH1 0x4 DUP2 ADD DUP7 SWAP1 MSTORE PUSH1 0x2E PUSH1 0x24 DUP3 ADD MSTORE PUSH32 0x5F6D657267653A20496E73756666696369656E7420746F6B656E2062616C616E PUSH1 0x44 DUP3 ADD MSTORE PUSH14 0x31B2903A37903A3930B739B332B9 PUSH1 0x91 SHL PUSH1 0x64 DUP3 ADD MSTORE PUSH1 0x84 SWAP1 REVERT JUMPDEST SWAP1 DUP7 DUP3 DUP2 RETURNDATASIZE DUP4 GT PUSH2 0x1AB8 JUMPI JUMPDEST PUSH2 0x1AA8 DUP2 DUP4 PUSH2 0x163D JUMP JUMPDEST DUP2 ADD SUB SLT PUSH2 0x335 JUMPI POP MLOAD CODESIZE PUSH2 0x18B3 JUMP JUMPDEST POP RETURNDATASIZE PUSH2 0x1A9E JUMP JUMPDEST PUSH1 0x40 MLOAD PUSH3 0x461BCD PUSH1 0xE5 SHL DUP2 MSTORE PUSH1 0x20 PUSH1 0x4 DUP3 ADD MSTORE PUSH1 0x1C PUSH1 0x24 DUP3 ADD MSTORE PUSH32 0x5F6D657267653A204D6F7265207468616E206D617820737570706C7900000000 PUSH1 0x44 DUP3 ADD MSTORE PUSH1 0x64 SWAP1 REVERT JUMPDEST SWAP1 POP ISZERO CODESIZE PUSH2 0x184B JUMP JUMPDEST SWAP1 SWAP2 DUP2 PUSH1 0x1 DUP1 PUSH1 0xA0 SHL SUB DUP1 PUSH1 0x2 SLOAD AND SWAP3 PUSH1 0x40 MLOAD SWAP1 PUSH4 0x23B872DD PUSH1 0xE0 SHL DUP3 MSTORE DUP2 DUP1 PUSH2 0x1B3F PUSH1 0x20 SWAP7 DUP8 SWAP5 DUP12 PUSH1 0x4 DUP6 ADD PUSH2 0x17CB JUMP JUMPDEST SUB DUP2 PUSH1 0x0 DUP1 SWAP9 GAS CALL DUP1 ISZERO PUSH2 0x1C27 JUMPI SWAP2 DUP4 SWAP2 PUSH1 0x4 SWAP4 PUSH2 0x1C0A JUMPI JUMPDEST POP PUSH2 0x1B62 DUP7 PUSH2 0x1CAD JUMP JUMPDEST POP PUSH1 0x2 SLOAD AND PUSH1 0x40 MLOAD SWAP3 DUP4 DUP1 SWAP3 PUSH4 0x313CE567 PUSH1 0xE0 SHL DUP3 MSTORE GAS STATICCALL SWAP2 DUP3 ISZERO PUSH2 0x1BFF JUMPI SWAP1 PUSH1 0xFF SWAP3 SWAP2 DUP5 SWAP3 PUSH2 0x1BE2 JUMPI JUMPDEST POP POP AND PUSH1 0x12 DUP2 LT PUSH2 0x1BA8 JUMPI JUMPDEST POP POP SWAP1 PUSH2 0x1BA5 SWAP2 PUSH2 0x1831 JUMP JUMPDEST SWAP1 JUMP JUMPDEST PUSH1 0x12 SUB SWAP1 PUSH1 0x12 DUP3 GT PUSH2 0x1BCE JUMPI POP PUSH2 0x1BA5 SWAP3 SWAP2 PUSH2 0xD53 PUSH2 0x1BC6 SWAP3 PUSH2 0x1751 JUMP JUMPDEST SWAP1 SWAP2 CODESIZE PUSH2 0x1B99 JUMP JUMPDEST PUSH4 0x4E487B71 PUSH1 0xE0 SHL DUP2 MSTORE PUSH1 0x11 PUSH1 0x4 MSTORE PUSH1 0x24 SWAP1 REVERT JUMPDEST PUSH2 0x1BF8 SWAP3 POP DUP1 RETURNDATASIZE LT PUSH2 0xD84 JUMPI PUSH2 0xD76 DUP2 DUP4 PUSH2 0x163D JUMP JUMPDEST CODESIZE DUP1 PUSH2 0x1B8D JUMP JUMPDEST PUSH1 0x40 MLOAD RETURNDATASIZE DUP6 DUP3 RETURNDATACOPY RETURNDATASIZE SWAP1 REVERT JUMPDEST PUSH2 0x1C20 SWAP1 DUP4 RETURNDATASIZE DUP6 GT PUSH2 0x9DF JUMPI PUSH2 0x9D3 DUP2 DUP4 PUSH2 0x163D JUMP JUMPDEST POP CODESIZE PUSH2 0x1B58 JUMP JUMPDEST PUSH1 0x40 MLOAD RETURNDATASIZE DUP7 DUP3 RETURNDATACOPY RETURNDATASIZE SWAP1 REVERT JUMPDEST CALLER PUSH1 0x0 DUP2 DUP2 MSTORE PUSH1 0x9 PUSH1 0x20 SWAP1 DUP2 MSTORE PUSH1 0x40 DUP1 DUP4 KECCAK256 DUP1 SLOAD SWAP1 DUP5 SWAP1 SSTORE PUSH1 0x3 SLOAD SWAP2 MLOAD PUSH4 0xA9059CBB PUSH1 0xE0 SHL DUP2 MSTORE PUSH1 0x4 DUP2 ADD SWAP6 SWAP1 SWAP6 MSTORE PUSH1 0x24 DUP6 ADD MSTORE SWAP1 SWAP2 DUP4 SWAP2 PUSH1 0x44 SWAP2 DUP4 SWAP2 PUSH1 0x1 PUSH1 0x1 PUSH1 0xA0 SHL SUB AND GAS CALL DUP1 ISZERO PUSH2 0x1CA1 JUMPI PUSH2 0x1C87 JUMPI POP JUMP JUMPDEST PUSH2 0x1C9E SWAP1 PUSH1 0x20 RETURNDATASIZE DUP2 GT PUSH2 0x9DF JUMPI PUSH2 0x9D3 DUP2 DUP4 PUSH2 0x163D JUMP JUMPDEST POP JUMP JUMPDEST PUSH1 0x40 MLOAD RETURNDATASIZE PUSH1 0x0 DUP3 RETURNDATACOPY RETURNDATASIZE SWAP1 REVERT JUMPDEST PUSH1 0xD SLOAD PUSH1 0x1 PUSH1 0x1 PUSH1 0xA0 SHL SUB SWAP1 DUP2 AND SWAP2 SWAP1 DUP3 ISZERO PUSH2 0x1D60 JUMPI DUP1 PUSH1 0x4 SLOAD AND SWAP1 DUP2 ISZERO PUSH2 0x1D57 JUMPI PUSH1 0x2 SLOAD AND PUSH1 0x40 MLOAD SWAP3 PUSH4 0x2454B71 PUSH1 0xE4 SHL DUP5 MSTORE PUSH1 0x4 DUP5 ADD MSTORE PUSH1 0x24 DUP4 ADD MSTORE PUSH1 0x44 DUP3 ADD MSTORE PUSH1 0x80 PUSH1 0x64 DUP3 ADD MSTORE PUSH1 0x20 DUP2 PUSH1 0xA4 DUP2 PUSH1 0x0 DUP1 SWAP7 DUP2 PUSH1 0x84 DUP5 ADD MSTORE GAS CALL SWAP2 DUP3 ISZERO PUSH2 0x1D4B JUMPI DUP1 SWAP3 PUSH2 0x1D1B JUMPI POP POP SWAP1 JUMP JUMPDEST SWAP1 SWAP2 POP PUSH1 0x20 DUP3 RETURNDATASIZE DUP3 GT PUSH2 0x1D43 JUMPI JUMPDEST DUP2 PUSH2 0x1D36 PUSH1 0x20 SWAP4 DUP4 PUSH2 0x163D JUMP JUMPDEST DUP2 ADD SUB SLT PUSH2 0x335 JUMPI POP MLOAD SWAP1 JUMP JUMPDEST RETURNDATASIZE SWAP2 POP PUSH2 0x1D29 JUMP JUMPDEST PUSH1 0x40 MLOAD SWAP1 RETURNDATASIZE SWAP1 DUP3 RETURNDATACOPY RETURNDATASIZE SWAP1 REVERT JUMPDEST POP POP POP POP PUSH1 0x0 SWAP1 JUMP JUMPDEST POP POP POP PUSH1 0x0 SWAP1 JUMP INVALID LOG2 PUSH5 0x6970667358 0x22 SLT KECCAK256 BLOCKHASH PUSH13 0x7AA4895B2F2066875A24E8E4B0 0xBC PUSH25 0x25212E4A3C5087E0A9C0159EBF93364736F6C634300081300 CALLER "
        },
        "methodIdentifiers": {
          "adaptor()": "c2cd9b2b",
          "balanceOf(address)": "70a08231",
          "calculateTokensOut(uint256)": "4fa1f104",
          "canClaim(address)": "bf3506c1",
          "claim()": "4e71d92d",
          "deposit(uint256)": "b6b55f25",
          "dump()": "e4330545",
          "getCurrentPrice()": "eb91d37e",
          "getRate()": "679aefce",
          "getToken()": "21df0da7",
          "maxSupply()": "d5abeb01",
          "merge(uint256)": "24a47aeb",
          "mergeAll()": "ea9f2417",
          "mergeWithProof(uint256,bytes32[])": "d3e40296",
          "merkleRoot()": "2eb4a7ab",
          "name()": "06fdde03",
          "owner()": "8da5cb5b",
          "paused()": "5c975abb",
          "receiveApproval(address,uint256,address,bytes)": "8f4ffcb1",
          "renounceOwnership()": "715018a6",
          "setAdaptor(address)": "3586d514",
          "setMaxSupply(uint256)": "6f8b44b0",
          "setMerkleRoot(bytes32)": "7cb64759",
          "setTreasury(address)": "f0f44260",
          "setVestingDuration(uint32)": "9636d881",
          "setVirtualTokenBalance(uint256)": "655a9ac2",
          "setVirtualWeWEBalance(uint256)": "dece1baa",
          "sweep()": "35faa416",
          "togglePause()": "c4ae3168",
          "totalVested()": "199cbc54",
          "transferOwnership(address)": "f2fde38b",
          "treasury()": "61d027b3",
          "vestingDuration()": "1514617e",
          "vestings(address)": "daf49863",
          "virtualToken()": "1f514c52",
          "virtualWEWE()": "9ed4527e",
          "wewe()": "e1f26f22"
        }
      }
    }
  }
}