{
  "contracts/core/merge/MergeWithMarket.sol": {
    "MergeWithMarket": {
      "abi": [
        {
          "inputs": [
            {
              "internalType": "address",
              "name": "_wewe",
              "type": "address"
            },
            {
              "internalType": "address",
              "name": "token",
              "type": "address"
            },
            {
              "internalType": "uint8",
              "name": "_vestingDuration",
              "type": "uint8"
            }
          ],
          "stateMutability": "nonpayable",
          "type": "constructor"
        },
        {
          "anonymous": false,
          "inputs": [
            {
              "indexed": false,
              "internalType": "uint256",
              "name": "amount",
              "type": "uint256"
            },
            {
              "indexed": true,
              "internalType": "address",
              "name": "account",
              "type": "address"
            }
          ],
          "name": "Merged",
          "type": "event"
        },
        {
          "anonymous": false,
          "inputs": [
            {
              "indexed": true,
              "internalType": "address",
              "name": "previousOwner",
              "type": "address"
            },
            {
              "indexed": true,
              "internalType": "address",
              "name": "newOwner",
              "type": "address"
            }
          ],
          "name": "OwnershipTransferred",
          "type": "event"
        },
        {
          "anonymous": false,
          "inputs": [
            {
              "indexed": false,
              "internalType": "address",
              "name": "account",
              "type": "address"
            }
          ],
          "name": "Paused",
          "type": "event"
        },
        {
          "anonymous": false,
          "inputs": [
            {
              "indexed": false,
              "internalType": "uint256",
              "name": "newRate",
              "type": "uint256"
            }
          ],
          "name": "RateChanged",
          "type": "event"
        },
        {
          "anonymous": false,
          "inputs": [
            {
              "indexed": false,
              "internalType": "address",
              "name": "account",
              "type": "address"
            }
          ],
          "name": "Unpaused",
          "type": "event"
        },
        {
          "inputs": [
            {
              "internalType": "address",
              "name": "account",
              "type": "address"
            }
          ],
          "name": "balanceOf",
          "outputs": [
            {
              "internalType": "uint256",
              "name": "",
              "type": "uint256"
            }
          ],
          "stateMutability": "view",
          "type": "function"
        },
        {
          "inputs": [
            {
              "internalType": "address",
              "name": "account",
              "type": "address"
            }
          ],
          "name": "canClaim",
          "outputs": [
            {
              "internalType": "bool",
              "name": "",
              "type": "bool"
            }
          ],
          "stateMutability": "view",
          "type": "function"
        },
        {
          "inputs": [],
          "name": "claim",
          "outputs": [],
          "stateMutability": "nonpayable",
          "type": "function"
        },
        {
          "inputs": [
            {
              "internalType": "uint256",
              "name": "amount",
              "type": "uint256"
            }
          ],
          "name": "deposit",
          "outputs": [],
          "stateMutability": "nonpayable",
          "type": "function"
        },
        {
          "inputs": [],
          "name": "getRate",
          "outputs": [
            {
              "internalType": "uint256",
              "name": "",
              "type": "uint256"
            }
          ],
          "stateMutability": "view",
          "type": "function"
        },
        {
          "inputs": [],
          "name": "getToken",
          "outputs": [
            {
              "internalType": "address",
              "name": "",
              "type": "address"
            }
          ],
          "stateMutability": "view",
          "type": "function"
        },
        {
          "inputs": [
            {
              "internalType": "uint256",
              "name": "amount",
              "type": "uint256"
            }
          ],
          "name": "merge",
          "outputs": [],
          "stateMutability": "nonpayable",
          "type": "function"
        },
        {
          "inputs": [],
          "name": "mergeAll",
          "outputs": [],
          "stateMutability": "nonpayable",
          "type": "function"
        },
        {
          "inputs": [
            {
              "internalType": "uint256",
              "name": "amount",
              "type": "uint256"
            },
            {
              "internalType": "contract IAMM",
              "name": "amm",
              "type": "address"
            },
            {
              "internalType": "bytes",
              "name": "extraData",
              "type": "bytes"
            }
          ],
          "name": "mergeAndSell",
          "outputs": [],
          "stateMutability": "nonpayable",
          "type": "function"
        },
        {
          "inputs": [],
          "name": "owner",
          "outputs": [
            {
              "internalType": "address",
              "name": "",
              "type": "address"
            }
          ],
          "stateMutability": "view",
          "type": "function"
        },
        {
          "inputs": [],
          "name": "paused",
          "outputs": [
            {
              "internalType": "bool",
              "name": "",
              "type": "bool"
            }
          ],
          "stateMutability": "view",
          "type": "function"
        },
        {
          "inputs": [
            {
              "internalType": "address",
              "name": "from",
              "type": "address"
            },
            {
              "internalType": "uint256",
              "name": "amount",
              "type": "uint256"
            },
            {
              "internalType": "address",
              "name": "",
              "type": "address"
            },
            {
              "internalType": "bytes",
              "name": "",
              "type": "bytes"
            }
          ],
          "name": "receiveApproval",
          "outputs": [],
          "stateMutability": "nonpayable",
          "type": "function"
        },
        {
          "inputs": [],
          "name": "renounceOwnership",
          "outputs": [],
          "stateMutability": "nonpayable",
          "type": "function"
        },
        {
          "inputs": [
            {
              "internalType": "uint256",
              "name": "rate",
              "type": "uint256"
            }
          ],
          "name": "setRate",
          "outputs": [],
          "stateMutability": "nonpayable",
          "type": "function"
        },
        {
          "inputs": [
            {
              "internalType": "address",
              "name": "_treasury",
              "type": "address"
            }
          ],
          "name": "setTreasury",
          "outputs": [],
          "stateMutability": "nonpayable",
          "type": "function"
        },
        {
          "inputs": [],
          "name": "sweep",
          "outputs": [],
          "stateMutability": "nonpayable",
          "type": "function"
        },
        {
          "inputs": [],
          "name": "togglePause",
          "outputs": [],
          "stateMutability": "nonpayable",
          "type": "function"
        },
        {
          "inputs": [
            {
              "internalType": "address",
              "name": "newOwner",
              "type": "address"
            }
          ],
          "name": "transferOwnership",
          "outputs": [],
          "stateMutability": "nonpayable",
          "type": "function"
        },
        {
          "inputs": [],
          "name": "treasury",
          "outputs": [
            {
              "internalType": "address",
              "name": "",
              "type": "address"
            }
          ],
          "stateMutability": "view",
          "type": "function"
        },
        {
          "inputs": [
            {
              "internalType": "address",
              "name": "",
              "type": "address"
            }
          ],
          "name": "vestings",
          "outputs": [
            {
              "internalType": "uint256",
              "name": "amount",
              "type": "uint256"
            },
            {
              "internalType": "uint256",
              "name": "end",
              "type": "uint256"
            }
          ],
          "stateMutability": "view",
          "type": "function"
        },
        {
          "inputs": [],
          "name": "wewe",
          "outputs": [
            {
              "internalType": "address",
              "name": "",
              "type": "address"
            }
          ],
          "stateMutability": "view",
          "type": "function"
        }
      ],
      "evm": {
        "bytecode": {
          "linkReferences": {},
          "object": "60803461010557601f61139638819003918201601f19168301916001600160401b0383118484101761010a578084926060946040528339810103126101055761004781610120565b604061005560208401610120565b9201519160ff83168303610105576001600081815581546001600160a81b031980821633600881811b610100600160a81b0316929092179095556040519791946001600160a01b039492939092911c8416907f8be0079c531659141344cd1fd0a4f28419497f9722a3daafe3b4186f6b6457e09080a3606460025581600454941660018060a01b0319600354161760035560ff60a01b9060a01b1693169116171760045561126190816101358239f35b600080fd5b634e487b7160e01b600052604160045260246000fd5b51906001600160a01b03821682036101055756fe6040608081526004908136101561001557600080fd5b600091823560e01c8063213897fe14610ab657806321df0da714610a8d57806324a47aeb1461099257806334fcf437146108df57806335faa416146107935780634e71d92d146107025780635c975abb146106de57806361d027b3146106b5578063679aefce1461069657806370a082311461065e578063715018a6146105fd5780638da5cb5b146105d05780638f4ffcb11461050457838163b6b55f251461045b57508063bf3506c11461041c578063c4ae316814610339578063daf49863146102f3578063e1f26f22146102cc578063ea9f24171461022d578063f0f44260146101e55763f2fde38b1461010a57600080fd5b346101e15760203660031901126101e157610123610d41565b61012b610d57565b6001600160a01b0381811693909290841561018f57505060018054610100600160a81b03198116600893841b610100600160a81b031617909155901c167f8be0079c531659141344cd1fd0a4f28419497f9722a3daafe3b4186f6b6457e08380a380f35b906020608492519162461bcd60e51b8352820152602660248201527f4f776e61626c653a206e6577206f776e657220697320746865207a65726f206160448201526564647265737360d01b6064820152fd5b8280fd5b833461022a57602036600319011261022a576101ff610d41565b610207610d57565b600680546001600160a01b0319166001600160a01b039290921691909117905580f35b80fd5b5090346101e157826003193601126101e157610247610e02565b60035481516370a0823160e01b815233938101939093526001600160a01b0316602083602481845afa9182156102c35750839161028e575b61028b92503391610ebf565b80f35b90506020823d82116102bb575b816102a860209383610db2565b810103126101e15761028b91519061027f565b3d915061029b565b513d85823e3d90fd5b50346101e157826003193601126101e1575490516001600160a01b03909116815260209150f35b505034610335576020366003190112610335579081906001600160a01b03610319610d41565b1681526005602052206001815491015482519182526020820152f35b5080fd5b50346101e157826003193601126101e157610352610d57565b60015460ff8116156103db57506001549060ff8216156103a1575060ff1916600155513381527f5db9ee0a495bf2e6ff9c91a7834c1ba4fdd244a5e8aa4e537bd38aeae4b073aa90602090a180f35b606490602084519162461bcd60e51b8352820152601460248201527314185d5cd8589b194e881b9bdd081c185d5cd95960621b6044820152fd5b602091509160017f62e78cea01bee320cd4e420270b5ea74000d11b0c9f74754ebdbfc544b05a2589361040c610e02565b60ff19161760015551338152a180f35b5050346103355760203660031901126103355760209160019082906001600160a01b03610447610d41565b168152600585522001549051904210158152f35b80848434610500576020366003190112610500576104b860209161047d610d57565b805484516323b872dd60e01b815233818401908152306020820152923560408401529586936001600160a01b03909216928492839160600190565b03925af19081156104f757506104cc575080f35b6104ec9060203d81116104f0575b6104e48183610db2565b810190610dea565b5080f35b503d6104da565b513d84823e3d90fd5b5050fd5b5082903461033557608036600319011261033557610520610d41565b906001600160a01b03604435818116036105cc5760643567ffffffffffffffff81116105c8576105539036908401610d0e565b505061055d610e46565b610565610e02565b6003541690811561058557509061057e91602435610ebf565b6001815580f35b606490602086519162461bcd60e51b8352820152601c60248201527f45617465723a20546f6b656e2061646472657373206e6f7420736574000000006044820152fd5b8480fd5b8380fd5b505034610335578160031936011261033557600154905160089190911c6001600160a01b03168152602090f35b833461022a578060031936011261022a57610616610d57565b60018054610100600160a81b03198116909155819060081c6001600160a01b03167f8be0079c531659141344cd1fd0a4f28419497f9722a3daafe3b4186f6b6457e08280a380f35b5050346103355760203660031901126103355760209181906001600160a01b03610686610d41565b1681526005845220549051908152f35b5050346103355781600319360112610335576020906002549051908152f35b50503461033557816003193601126103355760065490516001600160a01b039091168152602090f35b50503461033557816003193601126103355760209060ff6001541690519015158152f35b5090346101e157826003193601126101e15761071c610e02565b60ff825460a01c1615610786575b3383526005602052600181842001544210610748578261028b6111b0565b906020606492519162461bcd60e51b8352820152601860248201527711585d195c8e8815995cdd1a5b99c81b9bdd08195b99195960421b6044820152fd5b61078e6111b0565b61072a565b509190346103355781600319360112610335576107ae610d57565b825481516370a0823160e01b8152308186015293602092916001600160a01b0390811691908487602481865afa9687156108d55786976108a2575b50861561085f57600154845163a9059cbb60e01b81526001600160a01b0360089290921c90921616918101918252602082018790529291849184919082908890829060400103925af19081156102c35750610842578280f35b8161085892903d106104f0576104e48183610db2565b5081808280f35b835162461bcd60e51b8152808301869052601a60248201527f45617465723a204e6f2062616c616e636520746f2073776565700000000000006044820152606490fd5b9096508481813d83116108ce575b6108ba8183610db2565b810103126108ca575195386107e9565b8580fd5b503d6108b0565b84513d88823e3d90fd5b5090346101e15760203660031901126101e1578135916108fd610d57565b821561094557508160025403610911578280f35b816020917f595a30f13a69b616c4d568e2a2b7875fdfe86e4300a049953c76ee278f8f3f109360025551908152a138808280f35b6020608492519162461bcd60e51b8352820152602260248201527f45617465723a2052617465206d7573742062652067726561746572207468616e604482015261020360f41b6064820152fd5b50829034610335576020806003193601126101e1578135916109b2610e02565b60035485516370a0823160e01b815233838201526001600160a01b0390911692908181602481875afa908115610a83579085918791610a52575b50106109fe578461028b338587610ebf565b855162461bcd60e51b815291820152602960248201527f47656e657269634d657267653a20496e73756666696369656e742062616c616e60448201526818d9481d1bc819585d60ba1b606482015260849150fd5b809250838092503d8311610a7c575b610a6b8183610db2565b810103126108ca57849051886109ec565b503d610a61565b87513d88823e3d90fd5b50503461033557816003193601126103355760035490516001600160a01b039091168152602090f35b50346101e15760603660031901126101e1578035916001600160a01b03602435818116908190036108ca5760443567ffffffffffffffff8111610d0a57610b009036908601610d0e565b959094610b0b610e46565b60035485516370a0823160e01b81523383820152602098918616908981602481855afa908115610d00579085918c91610ccb575b5010610c735790610b548a9392339086610ebf565b600354875163095ea7b360e01b81526001600160a01b0387168482019081526020810187905290918b9183918a169082908890829060400103925af18015610c6957918a97969594939160a493610c4c575b508087600654168015600014610c465750309a5b8860035416988b519c8d9a8b998a976302454b7160e41b8952880152602487015216604485015260806064850152816084850152848401378181018301849052601f01601f191681010301925af19081156102c35750610c1d575b826001815580f35b813d8311610c3f575b610c308183610db2565b8101031261022a573880610c15565b503d610c26565b9a610bba565b610c6290893d8b116104f0576104e48183610db2565b5038610ba6565b88513d86823e3d90fd5b865162461bcd60e51b81528084018a9052602c60248201527f4d65726765576974684d61726b65743a20496e73756666696369656e7420626160448201526b1b185b98d9481d1bc819585d60a21b6064820152608490fd5b8092508b8092503d8311610cf9575b610ce48183610db2565b81010312610cf55784905138610b3f565b8a80fd5b503d610cda565b88513d8d823e3d90fd5b8680fd5b9181601f84011215610d3c5782359167ffffffffffffffff8311610d3c5760208381860195010111610d3c57565b600080fd5b600435906001600160a01b0382168203610d3c57565b60015460081c6001600160a01b03163303610d6e57565b606460405162461bcd60e51b815260206004820152602060248201527f4f776e61626c653a2063616c6c6572206973206e6f7420746865206f776e65726044820152fd5b90601f8019910116810190811067ffffffffffffffff821117610dd457604052565b634e487b7160e01b600052604160045260246000fd5b90816020910312610d3c57518015158103610d3c5790565b60ff60015416610e0e57565b60405162461bcd60e51b815260206004820152601060248201526f14185d5cd8589b194e881c185d5cd95960821b6044820152606490fd5b600260005414610e57576002600055565b60405162461bcd60e51b815260206004820152601f60248201527f5265656e7472616e637947756172643a207265656e7472616e742063616c6c006044820152606490fd5b91908201809211610ea957565b634e487b7160e01b600052601160045260246000fd5b90929160018060a01b039182821692600092848452602093600585526040928382205460025480870290878204148715171561119c57906064610f03920490610e9c565b92600499828b5416888c60248951809481936370a0823160e01b835230908301525afa908115611192578591611165575b50851161110c5785516323b872dd60e01b81526001600160a01b0383168c82019081523060208201526040810189905290918991839190829003606001908290889088165af18015611102576110e5575b5089549160a083901c60ff161561104b575050506201518060ff895460a01c160262ffffff811690810361103857610fbd9042610e9c565b9083519284840184811067ffffffffffffffff821117611025577fadc41ba80ffa0859aab1d7cf405a6633a6af94fc3d10e5b0e0bf46cdcc0fd9c898999a509185916001949383528552878501928352338152600588522092518355519101555b51908152a2565b634e487b7160e01b835260418b52602483fd5b634e487b7160e01b825260118952602482fd5b855163a9059cbb60e01b81526001600160a01b039092169a82019a8b5260208b019490945291989192869284929183918c919083906040010393165af180156110db577fadc41ba80ffa0859aab1d7cf405a6633a6af94fc3d10e5b0e0bf46cdcc0fd9c8959697506110be575b5061101e565b6110d490843d86116104f0576104e48183610db2565b50386110b8565b82513d89823e3d90fd5b6110fb90883d8a116104f0576104e48183610db2565b5038610f85565b86513d86823e3d90fd5b855162461bcd60e51b8152808c01899052602d60248201527f45617465723a20496e73756666696369656e7420746f6b656e2062616c616e6360448201526c32903a37903a3930b739b332b960991b6064820152608490fd5b90508881813d831161118b575b61117c8183610db2565b810103126105c8575138610f34565b503d611172565b87513d87823e3d90fd5b634e487b7160e01b84526011600452602484fd5b33600081815260056020908152604080832080549084905560048054925163a9059cbb60e01b81529081019590955260248501529091839160449183916001600160a01b03165af1801561121f576112055750565b61121c9060203d81116104f0576104e48183610db2565b50565b6040513d6000823e3d90fdfea2646970667358221220954ef735ee8819364a9c258753fcca5addf47509606a1dbdb8fa745f7544bed064736f6c63430008130033",
          "opcodes": "PUSH1 0x80 CALLVALUE PUSH2 0x105 JUMPI PUSH1 0x1F PUSH2 0x1396 CODESIZE DUP2 SWAP1 SUB SWAP2 DUP3 ADD PUSH1 0x1F NOT AND DUP4 ADD SWAP2 PUSH1 0x1 PUSH1 0x1 PUSH1 0x40 SHL SUB DUP4 GT DUP5 DUP5 LT OR PUSH2 0x10A JUMPI DUP1 DUP5 SWAP3 PUSH1 0x60 SWAP5 PUSH1 0x40 MSTORE DUP4 CODECOPY DUP2 ADD SUB SLT PUSH2 0x105 JUMPI PUSH2 0x47 DUP2 PUSH2 0x120 JUMP JUMPDEST PUSH1 0x40 PUSH2 0x55 PUSH1 0x20 DUP5 ADD PUSH2 0x120 JUMP JUMPDEST SWAP3 ADD MLOAD SWAP2 PUSH1 0xFF DUP4 AND DUP4 SUB PUSH2 0x105 JUMPI PUSH1 0x1 PUSH1 0x0 DUP2 DUP2 SSTORE DUP2 SLOAD PUSH1 0x1 PUSH1 0x1 PUSH1 0xA8 SHL SUB NOT DUP1 DUP3 AND CALLER PUSH1 0x8 DUP2 DUP2 SHL PUSH2 0x100 PUSH1 0x1 PUSH1 0xA8 SHL SUB AND SWAP3 SWAP1 SWAP3 OR SWAP1 SWAP6 SSTORE PUSH1 0x40 MLOAD SWAP8 SWAP2 SWAP5 PUSH1 0x1 PUSH1 0x1 PUSH1 0xA0 SHL SUB SWAP5 SWAP3 SWAP4 SWAP1 SWAP3 SWAP2 SHR DUP5 AND SWAP1 PUSH32 0x8BE0079C531659141344CD1FD0A4F28419497F9722A3DAAFE3B4186F6B6457E0 SWAP1 DUP1 LOG3 PUSH1 0x64 PUSH1 0x2 SSTORE DUP2 PUSH1 0x4 SLOAD SWAP5 AND PUSH1 0x1 DUP1 PUSH1 0xA0 SHL SUB NOT PUSH1 0x3 SLOAD AND OR PUSH1 0x3 SSTORE PUSH1 0xFF PUSH1 0xA0 SHL SWAP1 PUSH1 0xA0 SHL AND SWAP4 AND SWAP2 AND OR OR PUSH1 0x4 SSTORE PUSH2 0x1261 SWAP1 DUP2 PUSH2 0x135 DUP3 CODECOPY RETURN JUMPDEST PUSH1 0x0 DUP1 REVERT JUMPDEST PUSH4 0x4E487B71 PUSH1 0xE0 SHL PUSH1 0x0 MSTORE PUSH1 0x41 PUSH1 0x4 MSTORE PUSH1 0x24 PUSH1 0x0 REVERT JUMPDEST MLOAD SWAP1 PUSH1 0x1 PUSH1 0x1 PUSH1 0xA0 SHL SUB DUP3 AND DUP3 SUB PUSH2 0x105 JUMPI JUMP INVALID PUSH1 0x40 PUSH1 0x80 DUP2 MSTORE PUSH1 0x4 SWAP1 DUP2 CALLDATASIZE LT ISZERO PUSH2 0x15 JUMPI PUSH1 0x0 DUP1 REVERT JUMPDEST PUSH1 0x0 SWAP2 DUP3 CALLDATALOAD PUSH1 0xE0 SHR DUP1 PUSH4 0x213897FE EQ PUSH2 0xAB6 JUMPI DUP1 PUSH4 0x21DF0DA7 EQ PUSH2 0xA8D JUMPI DUP1 PUSH4 0x24A47AEB EQ PUSH2 0x992 JUMPI DUP1 PUSH4 0x34FCF437 EQ PUSH2 0x8DF JUMPI DUP1 PUSH4 0x35FAA416 EQ PUSH2 0x793 JUMPI DUP1 PUSH4 0x4E71D92D EQ PUSH2 0x702 JUMPI DUP1 PUSH4 0x5C975ABB EQ PUSH2 0x6DE JUMPI DUP1 PUSH4 0x61D027B3 EQ PUSH2 0x6B5 JUMPI DUP1 PUSH4 0x679AEFCE EQ PUSH2 0x696 JUMPI DUP1 PUSH4 0x70A08231 EQ PUSH2 0x65E JUMPI DUP1 PUSH4 0x715018A6 EQ PUSH2 0x5FD JUMPI DUP1 PUSH4 0x8DA5CB5B EQ PUSH2 0x5D0 JUMPI DUP1 PUSH4 0x8F4FFCB1 EQ PUSH2 0x504 JUMPI DUP4 DUP2 PUSH4 0xB6B55F25 EQ PUSH2 0x45B JUMPI POP DUP1 PUSH4 0xBF3506C1 EQ PUSH2 0x41C JUMPI DUP1 PUSH4 0xC4AE3168 EQ PUSH2 0x339 JUMPI DUP1 PUSH4 0xDAF49863 EQ PUSH2 0x2F3 JUMPI DUP1 PUSH4 0xE1F26F22 EQ PUSH2 0x2CC JUMPI DUP1 PUSH4 0xEA9F2417 EQ PUSH2 0x22D JUMPI DUP1 PUSH4 0xF0F44260 EQ PUSH2 0x1E5 JUMPI PUSH4 0xF2FDE38B EQ PUSH2 0x10A JUMPI PUSH1 0x0 DUP1 REVERT JUMPDEST CALLVALUE PUSH2 0x1E1 JUMPI PUSH1 0x20 CALLDATASIZE PUSH1 0x3 NOT ADD SLT PUSH2 0x1E1 JUMPI PUSH2 0x123 PUSH2 0xD41 JUMP JUMPDEST PUSH2 0x12B PUSH2 0xD57 JUMP JUMPDEST PUSH1 0x1 PUSH1 0x1 PUSH1 0xA0 SHL SUB DUP2 DUP2 AND SWAP4 SWAP1 SWAP3 SWAP1 DUP5 ISZERO PUSH2 0x18F JUMPI POP POP PUSH1 0x1 DUP1 SLOAD PUSH2 0x100 PUSH1 0x1 PUSH1 0xA8 SHL SUB NOT DUP2 AND PUSH1 0x8 SWAP4 DUP5 SHL PUSH2 0x100 PUSH1 0x1 PUSH1 0xA8 SHL SUB AND OR SWAP1 SWAP2 SSTORE SWAP1 SHR AND PUSH32 0x8BE0079C531659141344CD1FD0A4F28419497F9722A3DAAFE3B4186F6B6457E0 DUP4 DUP1 LOG3 DUP1 RETURN JUMPDEST SWAP1 PUSH1 0x20 PUSH1 0x84 SWAP3 MLOAD SWAP2 PUSH3 0x461BCD PUSH1 0xE5 SHL DUP4 MSTORE DUP3 ADD MSTORE PUSH1 0x26 PUSH1 0x24 DUP3 ADD MSTORE PUSH32 0x4F776E61626C653A206E6577206F776E657220697320746865207A65726F2061 PUSH1 0x44 DUP3 ADD MSTORE PUSH6 0x646472657373 PUSH1 0xD0 SHL PUSH1 0x64 DUP3 ADD MSTORE REVERT JUMPDEST DUP3 DUP1 REVERT JUMPDEST DUP4 CALLVALUE PUSH2 0x22A JUMPI PUSH1 0x20 CALLDATASIZE PUSH1 0x3 NOT ADD SLT PUSH2 0x22A JUMPI PUSH2 0x1FF PUSH2 0xD41 JUMP JUMPDEST PUSH2 0x207 PUSH2 0xD57 JUMP JUMPDEST PUSH1 0x6 DUP1 SLOAD PUSH1 0x1 PUSH1 0x1 PUSH1 0xA0 SHL SUB NOT AND PUSH1 0x1 PUSH1 0x1 PUSH1 0xA0 SHL SUB SWAP3 SWAP1 SWAP3 AND SWAP2 SWAP1 SWAP2 OR SWAP1 SSTORE DUP1 RETURN JUMPDEST DUP1 REVERT JUMPDEST POP SWAP1 CALLVALUE PUSH2 0x1E1 JUMPI DUP3 PUSH1 0x3 NOT CALLDATASIZE ADD SLT PUSH2 0x1E1 JUMPI PUSH2 0x247 PUSH2 0xE02 JUMP JUMPDEST PUSH1 0x3 SLOAD DUP2 MLOAD PUSH4 0x70A08231 PUSH1 0xE0 SHL DUP2 MSTORE CALLER SWAP4 DUP2 ADD SWAP4 SWAP1 SWAP4 MSTORE PUSH1 0x1 PUSH1 0x1 PUSH1 0xA0 SHL SUB AND PUSH1 0x20 DUP4 PUSH1 0x24 DUP2 DUP5 GAS STATICCALL SWAP2 DUP3 ISZERO PUSH2 0x2C3 JUMPI POP DUP4 SWAP2 PUSH2 0x28E JUMPI JUMPDEST PUSH2 0x28B SWAP3 POP CALLER SWAP2 PUSH2 0xEBF JUMP JUMPDEST DUP1 RETURN JUMPDEST SWAP1 POP PUSH1 0x20 DUP3 RETURNDATASIZE DUP3 GT PUSH2 0x2BB JUMPI JUMPDEST DUP2 PUSH2 0x2A8 PUSH1 0x20 SWAP4 DUP4 PUSH2 0xDB2 JUMP JUMPDEST DUP2 ADD SUB SLT PUSH2 0x1E1 JUMPI PUSH2 0x28B SWAP2 MLOAD SWAP1 PUSH2 0x27F JUMP JUMPDEST RETURNDATASIZE SWAP2 POP PUSH2 0x29B JUMP JUMPDEST MLOAD RETURNDATASIZE DUP6 DUP3 RETURNDATACOPY RETURNDATASIZE SWAP1 REVERT JUMPDEST POP CALLVALUE PUSH2 0x1E1 JUMPI DUP3 PUSH1 0x3 NOT CALLDATASIZE ADD SLT PUSH2 0x1E1 JUMPI SLOAD SWAP1 MLOAD PUSH1 0x1 PUSH1 0x1 PUSH1 0xA0 SHL SUB SWAP1 SWAP2 AND DUP2 MSTORE PUSH1 0x20 SWAP2 POP RETURN JUMPDEST POP POP CALLVALUE PUSH2 0x335 JUMPI PUSH1 0x20 CALLDATASIZE PUSH1 0x3 NOT ADD SLT PUSH2 0x335 JUMPI SWAP1 DUP2 SWAP1 PUSH1 0x1 PUSH1 0x1 PUSH1 0xA0 SHL SUB PUSH2 0x319 PUSH2 0xD41 JUMP JUMPDEST AND DUP2 MSTORE PUSH1 0x5 PUSH1 0x20 MSTORE KECCAK256 PUSH1 0x1 DUP2 SLOAD SWAP2 ADD SLOAD DUP3 MLOAD SWAP2 DUP3 MSTORE PUSH1 0x20 DUP3 ADD MSTORE RETURN JUMPDEST POP DUP1 REVERT JUMPDEST POP CALLVALUE PUSH2 0x1E1 JUMPI DUP3 PUSH1 0x3 NOT CALLDATASIZE ADD SLT PUSH2 0x1E1 JUMPI PUSH2 0x352 PUSH2 0xD57 JUMP JUMPDEST PUSH1 0x1 SLOAD PUSH1 0xFF DUP2 AND ISZERO PUSH2 0x3DB JUMPI POP PUSH1 0x1 SLOAD SWAP1 PUSH1 0xFF DUP3 AND ISZERO PUSH2 0x3A1 JUMPI POP PUSH1 0xFF NOT AND PUSH1 0x1 SSTORE MLOAD CALLER DUP2 MSTORE PUSH32 0x5DB9EE0A495BF2E6FF9C91A7834C1BA4FDD244A5E8AA4E537BD38AEAE4B073AA SWAP1 PUSH1 0x20 SWAP1 LOG1 DUP1 RETURN JUMPDEST PUSH1 0x64 SWAP1 PUSH1 0x20 DUP5 MLOAD SWAP2 PUSH3 0x461BCD PUSH1 0xE5 SHL DUP4 MSTORE DUP3 ADD MSTORE PUSH1 0x14 PUSH1 0x24 DUP3 ADD MSTORE PUSH20 0x14185D5CD8589B194E881B9BDD081C185D5CD959 PUSH1 0x62 SHL PUSH1 0x44 DUP3 ADD MSTORE REVERT JUMPDEST PUSH1 0x20 SWAP2 POP SWAP2 PUSH1 0x1 PUSH32 0x62E78CEA01BEE320CD4E420270B5EA74000D11B0C9F74754EBDBFC544B05A258 SWAP4 PUSH2 0x40C PUSH2 0xE02 JUMP JUMPDEST PUSH1 0xFF NOT AND OR PUSH1 0x1 SSTORE MLOAD CALLER DUP2 MSTORE LOG1 DUP1 RETURN JUMPDEST POP POP CALLVALUE PUSH2 0x335 JUMPI PUSH1 0x20 CALLDATASIZE PUSH1 0x3 NOT ADD SLT PUSH2 0x335 JUMPI PUSH1 0x20 SWAP2 PUSH1 0x1 SWAP1 DUP3 SWAP1 PUSH1 0x1 PUSH1 0x1 PUSH1 0xA0 SHL SUB PUSH2 0x447 PUSH2 0xD41 JUMP JUMPDEST AND DUP2 MSTORE PUSH1 0x5 DUP6 MSTORE KECCAK256 ADD SLOAD SWAP1 MLOAD SWAP1 TIMESTAMP LT ISZERO DUP2 MSTORE RETURN JUMPDEST DUP1 DUP5 DUP5 CALLVALUE PUSH2 0x500 JUMPI PUSH1 0x20 CALLDATASIZE PUSH1 0x3 NOT ADD SLT PUSH2 0x500 JUMPI PUSH2 0x4B8 PUSH1 0x20 SWAP2 PUSH2 0x47D PUSH2 0xD57 JUMP JUMPDEST DUP1 SLOAD DUP5 MLOAD PUSH4 0x23B872DD PUSH1 0xE0 SHL DUP2 MSTORE CALLER DUP2 DUP5 ADD SWAP1 DUP2 MSTORE ADDRESS PUSH1 0x20 DUP3 ADD MSTORE SWAP3 CALLDATALOAD PUSH1 0x40 DUP5 ADD MSTORE SWAP6 DUP7 SWAP4 PUSH1 0x1 PUSH1 0x1 PUSH1 0xA0 SHL SUB SWAP1 SWAP3 AND SWAP3 DUP5 SWAP3 DUP4 SWAP2 PUSH1 0x60 ADD SWAP1 JUMP JUMPDEST SUB SWAP3 GAS CALL SWAP1 DUP2 ISZERO PUSH2 0x4F7 JUMPI POP PUSH2 0x4CC JUMPI POP DUP1 RETURN JUMPDEST PUSH2 0x4EC SWAP1 PUSH1 0x20 RETURNDATASIZE DUP2 GT PUSH2 0x4F0 JUMPI JUMPDEST PUSH2 0x4E4 DUP2 DUP4 PUSH2 0xDB2 JUMP JUMPDEST DUP2 ADD SWAP1 PUSH2 0xDEA JUMP JUMPDEST POP DUP1 RETURN JUMPDEST POP RETURNDATASIZE PUSH2 0x4DA JUMP JUMPDEST MLOAD RETURNDATASIZE DUP5 DUP3 RETURNDATACOPY RETURNDATASIZE SWAP1 REVERT JUMPDEST POP POP REVERT JUMPDEST POP DUP3 SWAP1 CALLVALUE PUSH2 0x335 JUMPI PUSH1 0x80 CALLDATASIZE PUSH1 0x3 NOT ADD SLT PUSH2 0x335 JUMPI PUSH2 0x520 PUSH2 0xD41 JUMP JUMPDEST SWAP1 PUSH1 0x1 PUSH1 0x1 PUSH1 0xA0 SHL SUB PUSH1 0x44 CALLDATALOAD DUP2 DUP2 AND SUB PUSH2 0x5CC JUMPI PUSH1 0x64 CALLDATALOAD PUSH8 0xFFFFFFFFFFFFFFFF DUP2 GT PUSH2 0x5C8 JUMPI PUSH2 0x553 SWAP1 CALLDATASIZE SWAP1 DUP5 ADD PUSH2 0xD0E JUMP JUMPDEST POP POP PUSH2 0x55D PUSH2 0xE46 JUMP JUMPDEST PUSH2 0x565 PUSH2 0xE02 JUMP JUMPDEST PUSH1 0x3 SLOAD AND SWAP1 DUP2 ISZERO PUSH2 0x585 JUMPI POP SWAP1 PUSH2 0x57E SWAP2 PUSH1 0x24 CALLDATALOAD PUSH2 0xEBF JUMP JUMPDEST PUSH1 0x1 DUP2 SSTORE DUP1 RETURN JUMPDEST PUSH1 0x64 SWAP1 PUSH1 0x20 DUP7 MLOAD SWAP2 PUSH3 0x461BCD PUSH1 0xE5 SHL DUP4 MSTORE DUP3 ADD MSTORE PUSH1 0x1C PUSH1 0x24 DUP3 ADD MSTORE PUSH32 0x45617465723A20546F6B656E2061646472657373206E6F742073657400000000 PUSH1 0x44 DUP3 ADD MSTORE REVERT JUMPDEST DUP5 DUP1 REVERT JUMPDEST DUP4 DUP1 REVERT JUMPDEST POP POP CALLVALUE PUSH2 0x335 JUMPI DUP2 PUSH1 0x3 NOT CALLDATASIZE ADD SLT PUSH2 0x335 JUMPI PUSH1 0x1 SLOAD SWAP1 MLOAD PUSH1 0x8 SWAP2 SWAP1 SWAP2 SHR PUSH1 0x1 PUSH1 0x1 PUSH1 0xA0 SHL SUB AND DUP2 MSTORE PUSH1 0x20 SWAP1 RETURN JUMPDEST DUP4 CALLVALUE PUSH2 0x22A JUMPI DUP1 PUSH1 0x3 NOT CALLDATASIZE ADD SLT PUSH2 0x22A JUMPI PUSH2 0x616 PUSH2 0xD57 JUMP JUMPDEST PUSH1 0x1 DUP1 SLOAD PUSH2 0x100 PUSH1 0x1 PUSH1 0xA8 SHL SUB NOT DUP2 AND SWAP1 SWAP2 SSTORE DUP2 SWAP1 PUSH1 0x8 SHR PUSH1 0x1 PUSH1 0x1 PUSH1 0xA0 SHL SUB AND PUSH32 0x8BE0079C531659141344CD1FD0A4F28419497F9722A3DAAFE3B4186F6B6457E0 DUP3 DUP1 LOG3 DUP1 RETURN JUMPDEST POP POP CALLVALUE PUSH2 0x335 JUMPI PUSH1 0x20 CALLDATASIZE PUSH1 0x3 NOT ADD SLT PUSH2 0x335 JUMPI PUSH1 0x20 SWAP2 DUP2 SWAP1 PUSH1 0x1 PUSH1 0x1 PUSH1 0xA0 SHL SUB PUSH2 0x686 PUSH2 0xD41 JUMP JUMPDEST AND DUP2 MSTORE PUSH1 0x5 DUP5 MSTORE KECCAK256 SLOAD SWAP1 MLOAD SWAP1 DUP2 MSTORE RETURN JUMPDEST POP POP CALLVALUE PUSH2 0x335 JUMPI DUP2 PUSH1 0x3 NOT CALLDATASIZE ADD SLT PUSH2 0x335 JUMPI PUSH1 0x20 SWAP1 PUSH1 0x2 SLOAD SWAP1 MLOAD SWAP1 DUP2 MSTORE RETURN JUMPDEST POP POP CALLVALUE PUSH2 0x335 JUMPI DUP2 PUSH1 0x3 NOT CALLDATASIZE ADD SLT PUSH2 0x335 JUMPI PUSH1 0x6 SLOAD SWAP1 MLOAD PUSH1 0x1 PUSH1 0x1 PUSH1 0xA0 SHL SUB SWAP1 SWAP2 AND DUP2 MSTORE PUSH1 0x20 SWAP1 RETURN JUMPDEST POP POP CALLVALUE PUSH2 0x335 JUMPI DUP2 PUSH1 0x3 NOT CALLDATASIZE ADD SLT PUSH2 0x335 JUMPI PUSH1 0x20 SWAP1 PUSH1 0xFF PUSH1 0x1 SLOAD AND SWAP1 MLOAD SWAP1 ISZERO ISZERO DUP2 MSTORE RETURN JUMPDEST POP SWAP1 CALLVALUE PUSH2 0x1E1 JUMPI DUP3 PUSH1 0x3 NOT CALLDATASIZE ADD SLT PUSH2 0x1E1 JUMPI PUSH2 0x71C PUSH2 0xE02 JUMP JUMPDEST PUSH1 0xFF DUP3 SLOAD PUSH1 0xA0 SHR AND ISZERO PUSH2 0x786 JUMPI JUMPDEST CALLER DUP4 MSTORE PUSH1 0x5 PUSH1 0x20 MSTORE PUSH1 0x1 DUP2 DUP5 KECCAK256 ADD SLOAD TIMESTAMP LT PUSH2 0x748 JUMPI DUP3 PUSH2 0x28B PUSH2 0x11B0 JUMP JUMPDEST SWAP1 PUSH1 0x20 PUSH1 0x64 SWAP3 MLOAD SWAP2 PUSH3 0x461BCD PUSH1 0xE5 SHL DUP4 MSTORE DUP3 ADD MSTORE PUSH1 0x18 PUSH1 0x24 DUP3 ADD MSTORE PUSH24 0x11585D195C8E8815995CDD1A5B99C81B9BDD08195B991959 PUSH1 0x42 SHL PUSH1 0x44 DUP3 ADD MSTORE REVERT JUMPDEST PUSH2 0x78E PUSH2 0x11B0 JUMP JUMPDEST PUSH2 0x72A JUMP JUMPDEST POP SWAP2 SWAP1 CALLVALUE PUSH2 0x335 JUMPI DUP2 PUSH1 0x3 NOT CALLDATASIZE ADD SLT PUSH2 0x335 JUMPI PUSH2 0x7AE PUSH2 0xD57 JUMP JUMPDEST DUP3 SLOAD DUP2 MLOAD PUSH4 0x70A08231 PUSH1 0xE0 SHL DUP2 MSTORE ADDRESS DUP2 DUP7 ADD MSTORE SWAP4 PUSH1 0x20 SWAP3 SWAP2 PUSH1 0x1 PUSH1 0x1 PUSH1 0xA0 SHL SUB SWAP1 DUP2 AND SWAP2 SWAP1 DUP5 DUP8 PUSH1 0x24 DUP2 DUP7 GAS STATICCALL SWAP7 DUP8 ISZERO PUSH2 0x8D5 JUMPI DUP7 SWAP8 PUSH2 0x8A2 JUMPI JUMPDEST POP DUP7 ISZERO PUSH2 0x85F JUMPI PUSH1 0x1 SLOAD DUP5 MLOAD PUSH4 0xA9059CBB PUSH1 0xE0 SHL DUP2 MSTORE PUSH1 0x1 PUSH1 0x1 PUSH1 0xA0 SHL SUB PUSH1 0x8 SWAP3 SWAP1 SWAP3 SHR SWAP1 SWAP3 AND AND SWAP2 DUP2 ADD SWAP2 DUP3 MSTORE PUSH1 0x20 DUP3 ADD DUP8 SWAP1 MSTORE SWAP3 SWAP2 DUP5 SWAP2 DUP5 SWAP2 SWAP1 DUP3 SWAP1 DUP9 SWAP1 DUP3 SWAP1 PUSH1 0x40 ADD SUB SWAP3 GAS CALL SWAP1 DUP2 ISZERO PUSH2 0x2C3 JUMPI POP PUSH2 0x842 JUMPI DUP3 DUP1 RETURN JUMPDEST DUP2 PUSH2 0x858 SWAP3 SWAP1 RETURNDATASIZE LT PUSH2 0x4F0 JUMPI PUSH2 0x4E4 DUP2 DUP4 PUSH2 0xDB2 JUMP JUMPDEST POP DUP2 DUP1 DUP3 DUP1 RETURN JUMPDEST DUP4 MLOAD PUSH3 0x461BCD PUSH1 0xE5 SHL DUP2 MSTORE DUP1 DUP4 ADD DUP7 SWAP1 MSTORE PUSH1 0x1A PUSH1 0x24 DUP3 ADD MSTORE PUSH32 0x45617465723A204E6F2062616C616E636520746F207377656570000000000000 PUSH1 0x44 DUP3 ADD MSTORE PUSH1 0x64 SWAP1 REVERT JUMPDEST SWAP1 SWAP7 POP DUP5 DUP2 DUP2 RETURNDATASIZE DUP4 GT PUSH2 0x8CE JUMPI JUMPDEST PUSH2 0x8BA DUP2 DUP4 PUSH2 0xDB2 JUMP JUMPDEST DUP2 ADD SUB SLT PUSH2 0x8CA JUMPI MLOAD SWAP6 CODESIZE PUSH2 0x7E9 JUMP JUMPDEST DUP6 DUP1 REVERT JUMPDEST POP RETURNDATASIZE PUSH2 0x8B0 JUMP JUMPDEST DUP5 MLOAD RETURNDATASIZE DUP9 DUP3 RETURNDATACOPY RETURNDATASIZE SWAP1 REVERT JUMPDEST POP SWAP1 CALLVALUE PUSH2 0x1E1 JUMPI PUSH1 0x20 CALLDATASIZE PUSH1 0x3 NOT ADD SLT PUSH2 0x1E1 JUMPI DUP2 CALLDATALOAD SWAP2 PUSH2 0x8FD PUSH2 0xD57 JUMP JUMPDEST DUP3 ISZERO PUSH2 0x945 JUMPI POP DUP2 PUSH1 0x2 SLOAD SUB PUSH2 0x911 JUMPI DUP3 DUP1 RETURN JUMPDEST DUP2 PUSH1 0x20 SWAP2 PUSH32 0x595A30F13A69B616C4D568E2A2B7875FDFE86E4300A049953C76EE278F8F3F10 SWAP4 PUSH1 0x2 SSTORE MLOAD SWAP1 DUP2 MSTORE LOG1 CODESIZE DUP1 DUP3 DUP1 RETURN JUMPDEST PUSH1 0x20 PUSH1 0x84 SWAP3 MLOAD SWAP2 PUSH3 0x461BCD PUSH1 0xE5 SHL DUP4 MSTORE DUP3 ADD MSTORE PUSH1 0x22 PUSH1 0x24 DUP3 ADD MSTORE PUSH32 0x45617465723A2052617465206D7573742062652067726561746572207468616E PUSH1 0x44 DUP3 ADD MSTORE PUSH2 0x203 PUSH1 0xF4 SHL PUSH1 0x64 DUP3 ADD MSTORE REVERT JUMPDEST POP DUP3 SWAP1 CALLVALUE PUSH2 0x335 JUMPI PUSH1 0x20 DUP1 PUSH1 0x3 NOT CALLDATASIZE ADD SLT PUSH2 0x1E1 JUMPI DUP2 CALLDATALOAD SWAP2 PUSH2 0x9B2 PUSH2 0xE02 JUMP JUMPDEST PUSH1 0x3 SLOAD DUP6 MLOAD PUSH4 0x70A08231 PUSH1 0xE0 SHL DUP2 MSTORE CALLER DUP4 DUP3 ADD MSTORE PUSH1 0x1 PUSH1 0x1 PUSH1 0xA0 SHL SUB SWAP1 SWAP2 AND SWAP3 SWAP1 DUP2 DUP2 PUSH1 0x24 DUP2 DUP8 GAS STATICCALL SWAP1 DUP2 ISZERO PUSH2 0xA83 JUMPI SWAP1 DUP6 SWAP2 DUP8 SWAP2 PUSH2 0xA52 JUMPI JUMPDEST POP LT PUSH2 0x9FE JUMPI DUP5 PUSH2 0x28B CALLER DUP6 DUP8 PUSH2 0xEBF JUMP JUMPDEST DUP6 MLOAD PUSH3 0x461BCD PUSH1 0xE5 SHL DUP2 MSTORE SWAP2 DUP3 ADD MSTORE PUSH1 0x29 PUSH1 0x24 DUP3 ADD MSTORE PUSH32 0x47656E657269634D657267653A20496E73756666696369656E742062616C616E PUSH1 0x44 DUP3 ADD MSTORE PUSH9 0x18D9481D1BC819585D PUSH1 0xBA SHL PUSH1 0x64 DUP3 ADD MSTORE PUSH1 0x84 SWAP2 POP REVERT JUMPDEST DUP1 SWAP3 POP DUP4 DUP1 SWAP3 POP RETURNDATASIZE DUP4 GT PUSH2 0xA7C JUMPI JUMPDEST PUSH2 0xA6B DUP2 DUP4 PUSH2 0xDB2 JUMP JUMPDEST DUP2 ADD SUB SLT PUSH2 0x8CA JUMPI DUP5 SWAP1 MLOAD DUP9 PUSH2 0x9EC JUMP JUMPDEST POP RETURNDATASIZE PUSH2 0xA61 JUMP JUMPDEST DUP8 MLOAD RETURNDATASIZE DUP9 DUP3 RETURNDATACOPY RETURNDATASIZE SWAP1 REVERT JUMPDEST POP POP CALLVALUE PUSH2 0x335 JUMPI DUP2 PUSH1 0x3 NOT CALLDATASIZE ADD SLT PUSH2 0x335 JUMPI PUSH1 0x3 SLOAD SWAP1 MLOAD PUSH1 0x1 PUSH1 0x1 PUSH1 0xA0 SHL SUB SWAP1 SWAP2 AND DUP2 MSTORE PUSH1 0x20 SWAP1 RETURN JUMPDEST POP CALLVALUE PUSH2 0x1E1 JUMPI PUSH1 0x60 CALLDATASIZE PUSH1 0x3 NOT ADD SLT PUSH2 0x1E1 JUMPI DUP1 CALLDATALOAD SWAP2 PUSH1 0x1 PUSH1 0x1 PUSH1 0xA0 SHL SUB PUSH1 0x24 CALLDATALOAD DUP2 DUP2 AND SWAP1 DUP2 SWAP1 SUB PUSH2 0x8CA JUMPI PUSH1 0x44 CALLDATALOAD PUSH8 0xFFFFFFFFFFFFFFFF DUP2 GT PUSH2 0xD0A JUMPI PUSH2 0xB00 SWAP1 CALLDATASIZE SWAP1 DUP7 ADD PUSH2 0xD0E JUMP JUMPDEST SWAP6 SWAP1 SWAP5 PUSH2 0xB0B PUSH2 0xE46 JUMP JUMPDEST PUSH1 0x3 SLOAD DUP6 MLOAD PUSH4 0x70A08231 PUSH1 0xE0 SHL DUP2 MSTORE CALLER DUP4 DUP3 ADD MSTORE PUSH1 0x20 SWAP9 SWAP2 DUP7 AND SWAP1 DUP10 DUP2 PUSH1 0x24 DUP2 DUP6 GAS STATICCALL SWAP1 DUP2 ISZERO PUSH2 0xD00 JUMPI SWAP1 DUP6 SWAP2 DUP13 SWAP2 PUSH2 0xCCB JUMPI JUMPDEST POP LT PUSH2 0xC73 JUMPI SWAP1 PUSH2 0xB54 DUP11 SWAP4 SWAP3 CALLER SWAP1 DUP7 PUSH2 0xEBF JUMP JUMPDEST PUSH1 0x3 SLOAD DUP8 MLOAD PUSH4 0x95EA7B3 PUSH1 0xE0 SHL DUP2 MSTORE PUSH1 0x1 PUSH1 0x1 PUSH1 0xA0 SHL SUB DUP8 AND DUP5 DUP3 ADD SWAP1 DUP2 MSTORE PUSH1 0x20 DUP2 ADD DUP8 SWAP1 MSTORE SWAP1 SWAP2 DUP12 SWAP2 DUP4 SWAP2 DUP11 AND SWAP1 DUP3 SWAP1 DUP9 SWAP1 DUP3 SWAP1 PUSH1 0x40 ADD SUB SWAP3 GAS CALL DUP1 ISZERO PUSH2 0xC69 JUMPI SWAP2 DUP11 SWAP8 SWAP7 SWAP6 SWAP5 SWAP4 SWAP2 PUSH1 0xA4 SWAP4 PUSH2 0xC4C JUMPI JUMPDEST POP DUP1 DUP8 PUSH1 0x6 SLOAD AND DUP1 ISZERO PUSH1 0x0 EQ PUSH2 0xC46 JUMPI POP ADDRESS SWAP11 JUMPDEST DUP9 PUSH1 0x3 SLOAD AND SWAP9 DUP12 MLOAD SWAP13 DUP14 SWAP11 DUP12 SWAP10 DUP11 SWAP8 PUSH4 0x2454B71 PUSH1 0xE4 SHL DUP10 MSTORE DUP9 ADD MSTORE PUSH1 0x24 DUP8 ADD MSTORE AND PUSH1 0x44 DUP6 ADD MSTORE PUSH1 0x80 PUSH1 0x64 DUP6 ADD MSTORE DUP2 PUSH1 0x84 DUP6 ADD MSTORE DUP5 DUP5 ADD CALLDATACOPY DUP2 DUP2 ADD DUP4 ADD DUP5 SWAP1 MSTORE PUSH1 0x1F ADD PUSH1 0x1F NOT AND DUP2 ADD SUB ADD SWAP3 GAS CALL SWAP1 DUP2 ISZERO PUSH2 0x2C3 JUMPI POP PUSH2 0xC1D JUMPI JUMPDEST DUP3 PUSH1 0x1 DUP2 SSTORE DUP1 RETURN JUMPDEST DUP2 RETURNDATASIZE DUP4 GT PUSH2 0xC3F JUMPI JUMPDEST PUSH2 0xC30 DUP2 DUP4 PUSH2 0xDB2 JUMP JUMPDEST DUP2 ADD SUB SLT PUSH2 0x22A JUMPI CODESIZE DUP1 PUSH2 0xC15 JUMP JUMPDEST POP RETURNDATASIZE PUSH2 0xC26 JUMP JUMPDEST SWAP11 PUSH2 0xBBA JUMP JUMPDEST PUSH2 0xC62 SWAP1 DUP10 RETURNDATASIZE DUP12 GT PUSH2 0x4F0 JUMPI PUSH2 0x4E4 DUP2 DUP4 PUSH2 0xDB2 JUMP JUMPDEST POP CODESIZE PUSH2 0xBA6 JUMP JUMPDEST DUP9 MLOAD RETURNDATASIZE DUP7 DUP3 RETURNDATACOPY RETURNDATASIZE SWAP1 REVERT JUMPDEST DUP7 MLOAD PUSH3 0x461BCD PUSH1 0xE5 SHL DUP2 MSTORE DUP1 DUP5 ADD DUP11 SWAP1 MSTORE PUSH1 0x2C PUSH1 0x24 DUP3 ADD MSTORE PUSH32 0x4D65726765576974684D61726B65743A20496E73756666696369656E74206261 PUSH1 0x44 DUP3 ADD MSTORE PUSH12 0x1B185B98D9481D1BC819585D PUSH1 0xA2 SHL PUSH1 0x64 DUP3 ADD MSTORE PUSH1 0x84 SWAP1 REVERT JUMPDEST DUP1 SWAP3 POP DUP12 DUP1 SWAP3 POP RETURNDATASIZE DUP4 GT PUSH2 0xCF9 JUMPI JUMPDEST PUSH2 0xCE4 DUP2 DUP4 PUSH2 0xDB2 JUMP JUMPDEST DUP2 ADD SUB SLT PUSH2 0xCF5 JUMPI DUP5 SWAP1 MLOAD CODESIZE PUSH2 0xB3F JUMP JUMPDEST DUP11 DUP1 REVERT JUMPDEST POP RETURNDATASIZE PUSH2 0xCDA JUMP JUMPDEST DUP9 MLOAD RETURNDATASIZE DUP14 DUP3 RETURNDATACOPY RETURNDATASIZE SWAP1 REVERT JUMPDEST DUP7 DUP1 REVERT JUMPDEST SWAP2 DUP2 PUSH1 0x1F DUP5 ADD SLT ISZERO PUSH2 0xD3C JUMPI DUP3 CALLDATALOAD SWAP2 PUSH8 0xFFFFFFFFFFFFFFFF DUP4 GT PUSH2 0xD3C JUMPI PUSH1 0x20 DUP4 DUP2 DUP7 ADD SWAP6 ADD ADD GT PUSH2 0xD3C JUMPI JUMP JUMPDEST PUSH1 0x0 DUP1 REVERT JUMPDEST PUSH1 0x4 CALLDATALOAD SWAP1 PUSH1 0x1 PUSH1 0x1 PUSH1 0xA0 SHL SUB DUP3 AND DUP3 SUB PUSH2 0xD3C JUMPI JUMP JUMPDEST PUSH1 0x1 SLOAD PUSH1 0x8 SHR PUSH1 0x1 PUSH1 0x1 PUSH1 0xA0 SHL SUB AND CALLER SUB PUSH2 0xD6E JUMPI JUMP JUMPDEST PUSH1 0x64 PUSH1 0x40 MLOAD PUSH3 0x461BCD PUSH1 0xE5 SHL DUP2 MSTORE PUSH1 0x20 PUSH1 0x4 DUP3 ADD MSTORE PUSH1 0x20 PUSH1 0x24 DUP3 ADD MSTORE PUSH32 0x4F776E61626C653A2063616C6C6572206973206E6F7420746865206F776E6572 PUSH1 0x44 DUP3 ADD MSTORE REVERT JUMPDEST SWAP1 PUSH1 0x1F DUP1 NOT SWAP2 ADD AND DUP2 ADD SWAP1 DUP2 LT PUSH8 0xFFFFFFFFFFFFFFFF DUP3 GT OR PUSH2 0xDD4 JUMPI PUSH1 0x40 MSTORE JUMP JUMPDEST PUSH4 0x4E487B71 PUSH1 0xE0 SHL PUSH1 0x0 MSTORE PUSH1 0x41 PUSH1 0x4 MSTORE PUSH1 0x24 PUSH1 0x0 REVERT JUMPDEST SWAP1 DUP2 PUSH1 0x20 SWAP2 SUB SLT PUSH2 0xD3C JUMPI MLOAD DUP1 ISZERO ISZERO DUP2 SUB PUSH2 0xD3C JUMPI SWAP1 JUMP JUMPDEST PUSH1 0xFF PUSH1 0x1 SLOAD AND PUSH2 0xE0E JUMPI JUMP JUMPDEST PUSH1 0x40 MLOAD PUSH3 0x461BCD PUSH1 0xE5 SHL DUP2 MSTORE PUSH1 0x20 PUSH1 0x4 DUP3 ADD MSTORE PUSH1 0x10 PUSH1 0x24 DUP3 ADD MSTORE PUSH16 0x14185D5CD8589B194E881C185D5CD959 PUSH1 0x82 SHL PUSH1 0x44 DUP3 ADD MSTORE PUSH1 0x64 SWAP1 REVERT JUMPDEST PUSH1 0x2 PUSH1 0x0 SLOAD EQ PUSH2 0xE57 JUMPI PUSH1 0x2 PUSH1 0x0 SSTORE JUMP JUMPDEST PUSH1 0x40 MLOAD PUSH3 0x461BCD PUSH1 0xE5 SHL DUP2 MSTORE PUSH1 0x20 PUSH1 0x4 DUP3 ADD MSTORE PUSH1 0x1F PUSH1 0x24 DUP3 ADD MSTORE PUSH32 0x5265656E7472616E637947756172643A207265656E7472616E742063616C6C00 PUSH1 0x44 DUP3 ADD MSTORE PUSH1 0x64 SWAP1 REVERT JUMPDEST SWAP2 SWAP1 DUP3 ADD DUP1 SWAP3 GT PUSH2 0xEA9 JUMPI JUMP JUMPDEST PUSH4 0x4E487B71 PUSH1 0xE0 SHL PUSH1 0x0 MSTORE PUSH1 0x11 PUSH1 0x4 MSTORE PUSH1 0x24 PUSH1 0x0 REVERT JUMPDEST SWAP1 SWAP3 SWAP2 PUSH1 0x1 DUP1 PUSH1 0xA0 SHL SUB SWAP2 DUP3 DUP3 AND SWAP3 PUSH1 0x0 SWAP3 DUP5 DUP5 MSTORE PUSH1 0x20 SWAP4 PUSH1 0x5 DUP6 MSTORE PUSH1 0x40 SWAP3 DUP4 DUP3 KECCAK256 SLOAD PUSH1 0x2 SLOAD DUP1 DUP8 MUL SWAP1 DUP8 DUP3 DIV EQ DUP8 ISZERO OR ISZERO PUSH2 0x119C JUMPI SWAP1 PUSH1 0x64 PUSH2 0xF03 SWAP3 DIV SWAP1 PUSH2 0xE9C JUMP JUMPDEST SWAP3 PUSH1 0x4 SWAP10 DUP3 DUP12 SLOAD AND DUP9 DUP13 PUSH1 0x24 DUP10 MLOAD DUP1 SWAP5 DUP2 SWAP4 PUSH4 0x70A08231 PUSH1 0xE0 SHL DUP4 MSTORE ADDRESS SWAP1 DUP4 ADD MSTORE GAS STATICCALL SWAP1 DUP2 ISZERO PUSH2 0x1192 JUMPI DUP6 SWAP2 PUSH2 0x1165 JUMPI JUMPDEST POP DUP6 GT PUSH2 0x110C JUMPI DUP6 MLOAD PUSH4 0x23B872DD PUSH1 0xE0 SHL DUP2 MSTORE PUSH1 0x1 PUSH1 0x1 PUSH1 0xA0 SHL SUB DUP4 AND DUP13 DUP3 ADD SWAP1 DUP2 MSTORE ADDRESS PUSH1 0x20 DUP3 ADD MSTORE PUSH1 0x40 DUP2 ADD DUP10 SWAP1 MSTORE SWAP1 SWAP2 DUP10 SWAP2 DUP4 SWAP2 SWAP1 DUP3 SWAP1 SUB PUSH1 0x60 ADD SWAP1 DUP3 SWAP1 DUP9 SWAP1 DUP9 AND GAS CALL DUP1 ISZERO PUSH2 0x1102 JUMPI PUSH2 0x10E5 JUMPI JUMPDEST POP DUP10 SLOAD SWAP2 PUSH1 0xA0 DUP4 SWAP1 SHR PUSH1 0xFF AND ISZERO PUSH2 0x104B JUMPI POP POP POP PUSH3 0x15180 PUSH1 0xFF DUP10 SLOAD PUSH1 0xA0 SHR AND MUL PUSH3 0xFFFFFF DUP2 AND SWAP1 DUP2 SUB PUSH2 0x1038 JUMPI PUSH2 0xFBD SWAP1 TIMESTAMP PUSH2 0xE9C JUMP JUMPDEST SWAP1 DUP4 MLOAD SWAP3 DUP5 DUP5 ADD DUP5 DUP2 LT PUSH8 0xFFFFFFFFFFFFFFFF DUP3 GT OR PUSH2 0x1025 JUMPI PUSH32 0xADC41BA80FFA0859AAB1D7CF405A6633A6AF94FC3D10E5B0E0BF46CDCC0FD9C8 SWAP9 SWAP10 SWAP11 POP SWAP2 DUP6 SWAP2 PUSH1 0x1 SWAP5 SWAP4 DUP4 MSTORE DUP6 MSTORE DUP8 DUP6 ADD SWAP3 DUP4 MSTORE CALLER DUP2 MSTORE PUSH1 0x5 DUP9 MSTORE KECCAK256 SWAP3 MLOAD DUP4 SSTORE MLOAD SWAP2 ADD SSTORE JUMPDEST MLOAD SWAP1 DUP2 MSTORE LOG2 JUMP JUMPDEST PUSH4 0x4E487B71 PUSH1 0xE0 SHL DUP4 MSTORE PUSH1 0x41 DUP12 MSTORE PUSH1 0x24 DUP4 REVERT JUMPDEST PUSH4 0x4E487B71 PUSH1 0xE0 SHL DUP3 MSTORE PUSH1 0x11 DUP10 MSTORE PUSH1 0x24 DUP3 REVERT JUMPDEST DUP6 MLOAD PUSH4 0xA9059CBB PUSH1 0xE0 SHL DUP2 MSTORE PUSH1 0x1 PUSH1 0x1 PUSH1 0xA0 SHL SUB SWAP1 SWAP3 AND SWAP11 DUP3 ADD SWAP11 DUP12 MSTORE PUSH1 0x20 DUP12 ADD SWAP5 SWAP1 SWAP5 MSTORE SWAP2 SWAP9 SWAP2 SWAP3 DUP7 SWAP3 DUP5 SWAP3 SWAP2 DUP4 SWAP2 DUP13 SWAP2 SWAP1 DUP4 SWAP1 PUSH1 0x40 ADD SUB SWAP4 AND GAS CALL DUP1 ISZERO PUSH2 0x10DB JUMPI PUSH32 0xADC41BA80FFA0859AAB1D7CF405A6633A6AF94FC3D10E5B0E0BF46CDCC0FD9C8 SWAP6 SWAP7 SWAP8 POP PUSH2 0x10BE JUMPI JUMPDEST POP PUSH2 0x101E JUMP JUMPDEST PUSH2 0x10D4 SWAP1 DUP5 RETURNDATASIZE DUP7 GT PUSH2 0x4F0 JUMPI PUSH2 0x4E4 DUP2 DUP4 PUSH2 0xDB2 JUMP JUMPDEST POP CODESIZE PUSH2 0x10B8 JUMP JUMPDEST DUP3 MLOAD RETURNDATASIZE DUP10 DUP3 RETURNDATACOPY RETURNDATASIZE SWAP1 REVERT JUMPDEST PUSH2 0x10FB SWAP1 DUP9 RETURNDATASIZE DUP11 GT PUSH2 0x4F0 JUMPI PUSH2 0x4E4 DUP2 DUP4 PUSH2 0xDB2 JUMP JUMPDEST POP CODESIZE PUSH2 0xF85 JUMP JUMPDEST DUP7 MLOAD RETURNDATASIZE DUP7 DUP3 RETURNDATACOPY RETURNDATASIZE SWAP1 REVERT JUMPDEST DUP6 MLOAD PUSH3 0x461BCD PUSH1 0xE5 SHL DUP2 MSTORE DUP1 DUP13 ADD DUP10 SWAP1 MSTORE PUSH1 0x2D PUSH1 0x24 DUP3 ADD MSTORE PUSH32 0x45617465723A20496E73756666696369656E7420746F6B656E2062616C616E63 PUSH1 0x44 DUP3 ADD MSTORE PUSH13 0x32903A37903A3930B739B332B9 PUSH1 0x99 SHL PUSH1 0x64 DUP3 ADD MSTORE PUSH1 0x84 SWAP1 REVERT JUMPDEST SWAP1 POP DUP9 DUP2 DUP2 RETURNDATASIZE DUP4 GT PUSH2 0x118B JUMPI JUMPDEST PUSH2 0x117C DUP2 DUP4 PUSH2 0xDB2 JUMP JUMPDEST DUP2 ADD SUB SLT PUSH2 0x5C8 JUMPI MLOAD CODESIZE PUSH2 0xF34 JUMP JUMPDEST POP RETURNDATASIZE PUSH2 0x1172 JUMP JUMPDEST DUP8 MLOAD RETURNDATASIZE DUP8 DUP3 RETURNDATACOPY RETURNDATASIZE SWAP1 REVERT JUMPDEST PUSH4 0x4E487B71 PUSH1 0xE0 SHL DUP5 MSTORE PUSH1 0x11 PUSH1 0x4 MSTORE PUSH1 0x24 DUP5 REVERT JUMPDEST CALLER PUSH1 0x0 DUP2 DUP2 MSTORE PUSH1 0x5 PUSH1 0x20 SWAP1 DUP2 MSTORE PUSH1 0x40 DUP1 DUP4 KECCAK256 DUP1 SLOAD SWAP1 DUP5 SWAP1 SSTORE PUSH1 0x4 DUP1 SLOAD SWAP3 MLOAD PUSH4 0xA9059CBB PUSH1 0xE0 SHL DUP2 MSTORE SWAP1 DUP2 ADD SWAP6 SWAP1 SWAP6 MSTORE PUSH1 0x24 DUP6 ADD MSTORE SWAP1 SWAP2 DUP4 SWAP2 PUSH1 0x44 SWAP2 DUP4 SWAP2 PUSH1 0x1 PUSH1 0x1 PUSH1 0xA0 SHL SUB AND GAS CALL DUP1 ISZERO PUSH2 0x121F JUMPI PUSH2 0x1205 JUMPI POP JUMP JUMPDEST PUSH2 0x121C SWAP1 PUSH1 0x20 RETURNDATASIZE DUP2 GT PUSH2 0x4F0 JUMPI PUSH2 0x4E4 DUP2 DUP4 PUSH2 0xDB2 JUMP JUMPDEST POP JUMP JUMPDEST PUSH1 0x40 MLOAD RETURNDATASIZE PUSH1 0x0 DUP3 RETURNDATACOPY RETURNDATASIZE SWAP1 REVERT INVALID LOG2 PUSH5 0x6970667358 0x22 SLT KECCAK256 SWAP6 0x4E 0xF7 CALLDATALOAD 0xEE DUP9 NOT CALLDATASIZE 0x4A SWAP13 0x25 DUP8 MSTORE8 0xFC 0xCA GAS 0xDD DELEGATECALL PUSH22 0x9606A1DBDB8FA745F7544BED064736F6C6343000813 STOP CALLER "
        },
        "methodIdentifiers": {
          "balanceOf(address)": "70a08231",
          "canClaim(address)": "bf3506c1",
          "claim()": "4e71d92d",
          "deposit(uint256)": "b6b55f25",
          "getRate()": "679aefce",
          "getToken()": "21df0da7",
          "merge(uint256)": "24a47aeb",
          "mergeAll()": "ea9f2417",
          "mergeAndSell(uint256,address,bytes)": "213897fe",
          "owner()": "8da5cb5b",
          "paused()": "5c975abb",
          "receiveApproval(address,uint256,address,bytes)": "8f4ffcb1",
          "renounceOwnership()": "715018a6",
          "setRate(uint256)": "34fcf437",
          "setTreasury(address)": "f0f44260",
          "sweep()": "35faa416",
          "togglePause()": "c4ae3168",
          "transferOwnership(address)": "f2fde38b",
          "treasury()": "61d027b3",
          "vestings(address)": "daf49863",
          "wewe()": "e1f26f22"
        }
      }
    }
  }
}