{
  "contracts/core/adaptors/UniswapV2.sol": {
    "UniswapV2": {
      "abi": [
        {
          "inputs": [],
          "stateMutability": "nonpayable",
          "type": "constructor"
        },
        {
          "anonymous": false,
          "inputs": [
            {
              "indexed": false,
              "internalType": "uint256",
              "name": "amount",
              "type": "uint256"
            },
            {
              "indexed": false,
              "internalType": "uint256",
              "name": "amountOut",
              "type": "uint256"
            },
            {
              "indexed": false,
              "internalType": "address",
              "name": "token",
              "type": "address"
            },
            {
              "indexed": true,
              "internalType": "address",
              "name": "recipient",
              "type": "address"
            }
          ],
          "name": "Bought",
          "type": "event"
        },
        {
          "anonymous": false,
          "inputs": [
            {
              "indexed": true,
              "internalType": "address",
              "name": "previousOwner",
              "type": "address"
            },
            {
              "indexed": true,
              "internalType": "address",
              "name": "newOwner",
              "type": "address"
            }
          ],
          "name": "OwnershipTransferred",
          "type": "event"
        },
        {
          "anonymous": false,
          "inputs": [
            {
              "indexed": false,
              "internalType": "uint256",
              "name": "amount",
              "type": "uint256"
            },
            {
              "indexed": false,
              "internalType": "uint256",
              "name": "amountOut",
              "type": "uint256"
            },
            {
              "indexed": false,
              "internalType": "address",
              "name": "token",
              "type": "address"
            },
            {
              "indexed": true,
              "internalType": "address",
              "name": "recipient",
              "type": "address"
            }
          ],
          "name": "Sold",
          "type": "event"
        },
        {
          "inputs": [
            {
              "internalType": "uint256",
              "name": "amount",
              "type": "uint256"
            },
            {
              "internalType": "address",
              "name": "token",
              "type": "address"
            },
            {
              "internalType": "address",
              "name": "recipient",
              "type": "address"
            },
            {
              "internalType": "bytes",
              "name": "extraData",
              "type": "bytes"
            }
          ],
          "name": "buy",
          "outputs": [
            {
              "internalType": "uint256",
              "name": "",
              "type": "uint256"
            }
          ],
          "stateMutability": "nonpayable",
          "type": "function"
        },
        {
          "inputs": [],
          "name": "factory",
          "outputs": [
            {
              "internalType": "address",
              "name": "",
              "type": "address"
            }
          ],
          "stateMutability": "view",
          "type": "function"
        },
        {
          "inputs": [
            {
              "internalType": "address",
              "name": "token",
              "type": "address"
            }
          ],
          "name": "getUSDCTokenPair",
          "outputs": [
            {
              "internalType": "address",
              "name": "",
              "type": "address"
            }
          ],
          "stateMutability": "view",
          "type": "function"
        },
        {
          "inputs": [
            {
              "internalType": "address",
              "name": "token",
              "type": "address"
            }
          ],
          "name": "getWethTokenPair",
          "outputs": [
            {
              "internalType": "address",
              "name": "",
              "type": "address"
            }
          ],
          "stateMutability": "view",
          "type": "function"
        },
        {
          "inputs": [],
          "name": "owner",
          "outputs": [
            {
              "internalType": "address",
              "name": "",
              "type": "address"
            }
          ],
          "stateMutability": "view",
          "type": "function"
        },
        {
          "inputs": [],
          "name": "renounceOwnership",
          "outputs": [],
          "stateMutability": "nonpayable",
          "type": "function"
        },
        {
          "inputs": [
            {
              "internalType": "uint256",
              "name": "amount",
              "type": "uint256"
            },
            {
              "internalType": "address",
              "name": "token",
              "type": "address"
            },
            {
              "internalType": "address",
              "name": "recipient",
              "type": "address"
            },
            {
              "internalType": "bytes",
              "name": "extraData",
              "type": "bytes"
            }
          ],
          "name": "sell",
          "outputs": [
            {
              "internalType": "uint256",
              "name": "",
              "type": "uint256"
            }
          ],
          "stateMutability": "nonpayable",
          "type": "function"
        },
        {
          "inputs": [
            {
              "internalType": "uint256",
              "name": "amount",
              "type": "uint256"
            },
            {
              "internalType": "address",
              "name": "token",
              "type": "address"
            },
            {
              "internalType": "address",
              "name": "recipient",
              "type": "address"
            },
            {
              "internalType": "bytes",
              "name": "extraData",
              "type": "bytes"
            }
          ],
          "name": "sellAndBuy",
          "outputs": [
            {
              "internalType": "uint256",
              "name": "",
              "type": "uint256"
            }
          ],
          "stateMutability": "nonpayable",
          "type": "function"
        },
        {
          "inputs": [
            {
              "internalType": "address",
              "name": "newOwner",
              "type": "address"
            }
          ],
          "name": "transferOwnership",
          "outputs": [],
          "stateMutability": "nonpayable",
          "type": "function"
        },
        {
          "inputs": [],
          "name": "treasury",
          "outputs": [
            {
              "internalType": "address",
              "name": "",
              "type": "address"
            }
          ],
          "stateMutability": "view",
          "type": "function"
        }
      ],
      "evm": {
        "bytecode": {
          "linkReferences": {},
          "object": "6080806040523461005b5760008054336001600160a01b0319821681178355916001600160a01b03909116907f8be0079c531659141344cd1fd0a4f28419497f9722a3daafe3b4186f6b6457e09080a361085090816100618239f35b600080fdfe604060808152600436101561001357600080fd5b600090813560e01c806303679454146102b55780632454b7101461036c57806361d027b31461033e578063715018a6146102e15780638da5cb5b146102ba578063987bb07b146102b557806398e94c2814610230578063c45a015514610202578063c52a39aa146101505763f2fde38b1461008d57600080fd5b3461014c57602036600319011261014c576100a6610391565b6100ae610465565b6001600160a01b039081169182156100fa575082546001600160a01b0319811683178455167f8be0079c531659141344cd1fd0a4f28419497f9722a3daafe3b4186f6b6457e08380a380f35b5162461bcd60e51b815260206004820152602660248201527f4f776e61626c653a206e6577206f776e657220697320746865207a65726f206160448201526564647265737360d01b6064820152608490fd5b5080fd5b503461014c57602036600319011261014c5761016a610391565b815163e6a4390560e01b81526001600160a01b0391821660048201526006602160991b01602482015291602083604481738909dc15e40173ff4699343b6eb8132c65e18ec65afa9283156101f857602094936101c9575b505191168152f35b6101ea919350843d81116101f1575b6101e281836104bd565b8101906104f5565b91386101c1565b503d6101d8565b81513d86823e3d90fd5b503461014c578160031936011261014c5760209051738909dc15e40173ff4699343b6eb8132c65e18ec68152f35b503461014c57602036600319011261014c5761024a610391565b815163e6a4390560e01b81526001600160a01b03918216600482015273833589fcd6edb6e08f4c7c32d4f71b54bda02913602482015291602083604481738909dc15e40173ff4699343b6eb8132c65e18ec65afa9283156101f857602094936101c957505191168152f35b61041c565b503461014c578160031936011261014c57905490516001600160a01b039091168152602090f35b823461033b578060031936011261033b576102fa610465565b80546001600160a01b03198116825581906001600160a01b03167f8be0079c531659141344cd1fd0a4f28419497f9722a3daafe3b4186f6b6457e08280a380f35b80fd5b503461014c578160031936011261014c576020905173e92e74661f0582d52fc0051aedd6fdf4d26a1f868152f35b503461014c5760209061038a610381366103ac565b9392909261052c565b9051908152f35b600435906001600160a01b03821682036103a757565b600080fd5b60806003198201126103a757600435916001600160a01b039160243583811681036103a7579260443590811681036103a7579160643567ffffffffffffffff928382116103a757806023830112156103a75781600401359384116103a757602484830101116103a7576024019190565b346103a75761042a366103ac565b5050505050606460405162461bcd60e51b815260206004820152600f60248201526e139bdd081a5b5c1b195b595b9d1959608a1b6044820152fd5b6000546001600160a01b0316330361047957565b606460405162461bcd60e51b815260206004820152602060248201527f4f776e61626c653a2063616c6c6572206973206e6f7420746865206f776e65726044820152fd5b90601f8019910116810190811067ffffffffffffffff8211176104df57604052565b634e487b7160e01b600052604160045260246000fd5b908160209103126103a757516001600160a01b03811681036103a75790565b908160209103126103a7575180151581036103a75790565b9392909160409182519463e6a4390560e01b865260009260018060a01b038096169160049383858a015260249773833589fcd6edb6e08f4c7c32d4f71b54bda02913898b01526020998a81604481738909dc15e40173ff4699343b6eb8132c65e18ec65afa9081156108105790829189916107f3575b50169384156107e457885163095ea7b360e01b81528781018690526000198b8201528b816044818c8b5af180156107bd576107c7575b5088516323b872dd60e01b81523388820152308b820152604481018d90528b816064818c8b5af180156107bd576107a0575b50843b1561079c57885163022c0d9f60e01b81528088018d9052808b0189905291166044820152608060648201526084810183905292869284928391859160a49184918190838501378181018301849052601f01601f191681010301925af180156107655761076f575b5083516370a0823160e01b815230838201529086828781845afa918215610765578492610732575b50816106ad575b5050505050505090565b86928460449273e92e74661f0582d52fc0051aedd6fdf4d26a1f86948851998a96879563a9059cbb60e01b87528601528401525af19182156107285750506106fa575b80808080806106a3565b8161071992903d10610721575b61071181836104bd565b810190610514565b5038806106f0565b503d610707565b51903d90823e3d90fd5b9091508681813d831161075e575b61074a81836104bd565b8101031261075a5751903861069c565b8380fd5b503d610740565b85513d86823e3d90fd5b67ffffffffffffffff819492941161078a5784529138610674565b5060418592634e487b7160e01b835252fd5b8780fd5b6107b6908c8d3d106107215761071181836104bd565b503861060a565b8a513d8b823e3d90fd5b6107dd908c8d3d106107215761071181836104bd565b50386105d8565b50505050505050935050505090565b61080a91508c8d3d106101f1576101e281836104bd565b386105a2565b89513d8a823e3d90fdfea26469706673582212201163f65ef83470e93ccfab54ca1b5ae096ee326017c69dcd97d5f35b47ceef8164736f6c63430008130033",
          "opcodes": "PUSH1 0x80 DUP1 PUSH1 0x40 MSTORE CALLVALUE PUSH2 0x5B JUMPI PUSH1 0x0 DUP1 SLOAD CALLER PUSH1 0x1 PUSH1 0x1 PUSH1 0xA0 SHL SUB NOT DUP3 AND DUP2 OR DUP4 SSTORE SWAP2 PUSH1 0x1 PUSH1 0x1 PUSH1 0xA0 SHL SUB SWAP1 SWAP2 AND SWAP1 PUSH32 0x8BE0079C531659141344CD1FD0A4F28419497F9722A3DAAFE3B4186F6B6457E0 SWAP1 DUP1 LOG3 PUSH2 0x850 SWAP1 DUP2 PUSH2 0x61 DUP3 CODECOPY RETURN JUMPDEST PUSH1 0x0 DUP1 REVERT INVALID PUSH1 0x40 PUSH1 0x80 DUP2 MSTORE PUSH1 0x4 CALLDATASIZE LT ISZERO PUSH2 0x13 JUMPI PUSH1 0x0 DUP1 REVERT JUMPDEST PUSH1 0x0 SWAP1 DUP2 CALLDATALOAD PUSH1 0xE0 SHR DUP1 PUSH4 0x3679454 EQ PUSH2 0x2B5 JUMPI DUP1 PUSH4 0x2454B710 EQ PUSH2 0x36C JUMPI DUP1 PUSH4 0x61D027B3 EQ PUSH2 0x33E JUMPI DUP1 PUSH4 0x715018A6 EQ PUSH2 0x2E1 JUMPI DUP1 PUSH4 0x8DA5CB5B EQ PUSH2 0x2BA JUMPI DUP1 PUSH4 0x987BB07B EQ PUSH2 0x2B5 JUMPI DUP1 PUSH4 0x98E94C28 EQ PUSH2 0x230 JUMPI DUP1 PUSH4 0xC45A0155 EQ PUSH2 0x202 JUMPI DUP1 PUSH4 0xC52A39AA EQ PUSH2 0x150 JUMPI PUSH4 0xF2FDE38B EQ PUSH2 0x8D JUMPI PUSH1 0x0 DUP1 REVERT JUMPDEST CALLVALUE PUSH2 0x14C JUMPI PUSH1 0x20 CALLDATASIZE PUSH1 0x3 NOT ADD SLT PUSH2 0x14C JUMPI PUSH2 0xA6 PUSH2 0x391 JUMP JUMPDEST PUSH2 0xAE PUSH2 0x465 JUMP JUMPDEST PUSH1 0x1 PUSH1 0x1 PUSH1 0xA0 SHL SUB SWAP1 DUP2 AND SWAP2 DUP3 ISZERO PUSH2 0xFA JUMPI POP DUP3 SLOAD PUSH1 0x1 PUSH1 0x1 PUSH1 0xA0 SHL SUB NOT DUP2 AND DUP4 OR DUP5 SSTORE AND PUSH32 0x8BE0079C531659141344CD1FD0A4F28419497F9722A3DAAFE3B4186F6B6457E0 DUP4 DUP1 LOG3 DUP1 RETURN JUMPDEST MLOAD PUSH3 0x461BCD PUSH1 0xE5 SHL DUP2 MSTORE PUSH1 0x20 PUSH1 0x4 DUP3 ADD MSTORE PUSH1 0x26 PUSH1 0x24 DUP3 ADD MSTORE PUSH32 0x4F776E61626C653A206E6577206F776E657220697320746865207A65726F2061 PUSH1 0x44 DUP3 ADD MSTORE PUSH6 0x646472657373 PUSH1 0xD0 SHL PUSH1 0x64 DUP3 ADD MSTORE PUSH1 0x84 SWAP1 REVERT JUMPDEST POP DUP1 REVERT JUMPDEST POP CALLVALUE PUSH2 0x14C JUMPI PUSH1 0x20 CALLDATASIZE PUSH1 0x3 NOT ADD SLT PUSH2 0x14C JUMPI PUSH2 0x16A PUSH2 0x391 JUMP JUMPDEST DUP2 MLOAD PUSH4 0xE6A43905 PUSH1 0xE0 SHL DUP2 MSTORE PUSH1 0x1 PUSH1 0x1 PUSH1 0xA0 SHL SUB SWAP2 DUP3 AND PUSH1 0x4 DUP3 ADD MSTORE PUSH1 0x6 PUSH1 0x21 PUSH1 0x99 SHL ADD PUSH1 0x24 DUP3 ADD MSTORE SWAP2 PUSH1 0x20 DUP4 PUSH1 0x44 DUP2 PUSH20 0x8909DC15E40173FF4699343B6EB8132C65E18EC6 GAS STATICCALL SWAP3 DUP4 ISZERO PUSH2 0x1F8 JUMPI PUSH1 0x20 SWAP5 SWAP4 PUSH2 0x1C9 JUMPI JUMPDEST POP MLOAD SWAP2 AND DUP2 MSTORE RETURN JUMPDEST PUSH2 0x1EA SWAP2 SWAP4 POP DUP5 RETURNDATASIZE DUP2 GT PUSH2 0x1F1 JUMPI JUMPDEST PUSH2 0x1E2 DUP2 DUP4 PUSH2 0x4BD JUMP JUMPDEST DUP2 ADD SWAP1 PUSH2 0x4F5 JUMP JUMPDEST SWAP2 CODESIZE PUSH2 0x1C1 JUMP JUMPDEST POP RETURNDATASIZE PUSH2 0x1D8 JUMP JUMPDEST DUP2 MLOAD RETURNDATASIZE DUP7 DUP3 RETURNDATACOPY RETURNDATASIZE SWAP1 REVERT JUMPDEST POP CALLVALUE PUSH2 0x14C JUMPI DUP2 PUSH1 0x3 NOT CALLDATASIZE ADD SLT PUSH2 0x14C JUMPI PUSH1 0x20 SWAP1 MLOAD PUSH20 0x8909DC15E40173FF4699343B6EB8132C65E18EC6 DUP2 MSTORE RETURN JUMPDEST POP CALLVALUE PUSH2 0x14C JUMPI PUSH1 0x20 CALLDATASIZE PUSH1 0x3 NOT ADD SLT PUSH2 0x14C JUMPI PUSH2 0x24A PUSH2 0x391 JUMP JUMPDEST DUP2 MLOAD PUSH4 0xE6A43905 PUSH1 0xE0 SHL DUP2 MSTORE PUSH1 0x1 PUSH1 0x1 PUSH1 0xA0 SHL SUB SWAP2 DUP3 AND PUSH1 0x4 DUP3 ADD MSTORE PUSH20 0x833589FCD6EDB6E08F4C7C32D4F71B54BDA02913 PUSH1 0x24 DUP3 ADD MSTORE SWAP2 PUSH1 0x20 DUP4 PUSH1 0x44 DUP2 PUSH20 0x8909DC15E40173FF4699343B6EB8132C65E18EC6 GAS STATICCALL SWAP3 DUP4 ISZERO PUSH2 0x1F8 JUMPI PUSH1 0x20 SWAP5 SWAP4 PUSH2 0x1C9 JUMPI POP MLOAD SWAP2 AND DUP2 MSTORE RETURN JUMPDEST PUSH2 0x41C JUMP JUMPDEST POP CALLVALUE PUSH2 0x14C JUMPI DUP2 PUSH1 0x3 NOT CALLDATASIZE ADD SLT PUSH2 0x14C JUMPI SWAP1 SLOAD SWAP1 MLOAD PUSH1 0x1 PUSH1 0x1 PUSH1 0xA0 SHL SUB SWAP1 SWAP2 AND DUP2 MSTORE PUSH1 0x20 SWAP1 RETURN JUMPDEST DUP3 CALLVALUE PUSH2 0x33B JUMPI DUP1 PUSH1 0x3 NOT CALLDATASIZE ADD SLT PUSH2 0x33B JUMPI PUSH2 0x2FA PUSH2 0x465 JUMP JUMPDEST DUP1 SLOAD PUSH1 0x1 PUSH1 0x1 PUSH1 0xA0 SHL SUB NOT DUP2 AND DUP3 SSTORE DUP2 SWAP1 PUSH1 0x1 PUSH1 0x1 PUSH1 0xA0 SHL SUB AND PUSH32 0x8BE0079C531659141344CD1FD0A4F28419497F9722A3DAAFE3B4186F6B6457E0 DUP3 DUP1 LOG3 DUP1 RETURN JUMPDEST DUP1 REVERT JUMPDEST POP CALLVALUE PUSH2 0x14C JUMPI DUP2 PUSH1 0x3 NOT CALLDATASIZE ADD SLT PUSH2 0x14C JUMPI PUSH1 0x20 SWAP1 MLOAD PUSH20 0xE92E74661F0582D52FC0051AEDD6FDF4D26A1F86 DUP2 MSTORE RETURN JUMPDEST POP CALLVALUE PUSH2 0x14C JUMPI PUSH1 0x20 SWAP1 PUSH2 0x38A PUSH2 0x381 CALLDATASIZE PUSH2 0x3AC JUMP JUMPDEST SWAP4 SWAP3 SWAP1 SWAP3 PUSH2 0x52C JUMP JUMPDEST SWAP1 MLOAD SWAP1 DUP2 MSTORE RETURN JUMPDEST PUSH1 0x4 CALLDATALOAD SWAP1 PUSH1 0x1 PUSH1 0x1 PUSH1 0xA0 SHL SUB DUP3 AND DUP3 SUB PUSH2 0x3A7 JUMPI JUMP JUMPDEST PUSH1 0x0 DUP1 REVERT JUMPDEST PUSH1 0x80 PUSH1 0x3 NOT DUP3 ADD SLT PUSH2 0x3A7 JUMPI PUSH1 0x4 CALLDATALOAD SWAP2 PUSH1 0x1 PUSH1 0x1 PUSH1 0xA0 SHL SUB SWAP2 PUSH1 0x24 CALLDATALOAD DUP4 DUP2 AND DUP2 SUB PUSH2 0x3A7 JUMPI SWAP3 PUSH1 0x44 CALLDATALOAD SWAP1 DUP2 AND DUP2 SUB PUSH2 0x3A7 JUMPI SWAP2 PUSH1 0x64 CALLDATALOAD PUSH8 0xFFFFFFFFFFFFFFFF SWAP3 DUP4 DUP3 GT PUSH2 0x3A7 JUMPI DUP1 PUSH1 0x23 DUP4 ADD SLT ISZERO PUSH2 0x3A7 JUMPI DUP2 PUSH1 0x4 ADD CALLDATALOAD SWAP4 DUP5 GT PUSH2 0x3A7 JUMPI PUSH1 0x24 DUP5 DUP4 ADD ADD GT PUSH2 0x3A7 JUMPI PUSH1 0x24 ADD SWAP2 SWAP1 JUMP JUMPDEST CALLVALUE PUSH2 0x3A7 JUMPI PUSH2 0x42A CALLDATASIZE PUSH2 0x3AC JUMP JUMPDEST POP POP POP POP POP PUSH1 0x64 PUSH1 0x40 MLOAD PUSH3 0x461BCD PUSH1 0xE5 SHL DUP2 MSTORE PUSH1 0x20 PUSH1 0x4 DUP3 ADD MSTORE PUSH1 0xF PUSH1 0x24 DUP3 ADD MSTORE PUSH15 0x139BDD081A5B5C1B195B595B9D1959 PUSH1 0x8A SHL PUSH1 0x44 DUP3 ADD MSTORE REVERT JUMPDEST PUSH1 0x0 SLOAD PUSH1 0x1 PUSH1 0x1 PUSH1 0xA0 SHL SUB AND CALLER SUB PUSH2 0x479 JUMPI JUMP JUMPDEST PUSH1 0x64 PUSH1 0x40 MLOAD PUSH3 0x461BCD PUSH1 0xE5 SHL DUP2 MSTORE PUSH1 0x20 PUSH1 0x4 DUP3 ADD MSTORE PUSH1 0x20 PUSH1 0x24 DUP3 ADD MSTORE PUSH32 0x4F776E61626C653A2063616C6C6572206973206E6F7420746865206F776E6572 PUSH1 0x44 DUP3 ADD MSTORE REVERT JUMPDEST SWAP1 PUSH1 0x1F DUP1 NOT SWAP2 ADD AND DUP2 ADD SWAP1 DUP2 LT PUSH8 0xFFFFFFFFFFFFFFFF DUP3 GT OR PUSH2 0x4DF JUMPI PUSH1 0x40 MSTORE JUMP JUMPDEST PUSH4 0x4E487B71 PUSH1 0xE0 SHL PUSH1 0x0 MSTORE PUSH1 0x41 PUSH1 0x4 MSTORE PUSH1 0x24 PUSH1 0x0 REVERT JUMPDEST SWAP1 DUP2 PUSH1 0x20 SWAP2 SUB SLT PUSH2 0x3A7 JUMPI MLOAD PUSH1 0x1 PUSH1 0x1 PUSH1 0xA0 SHL SUB DUP2 AND DUP2 SUB PUSH2 0x3A7 JUMPI SWAP1 JUMP JUMPDEST SWAP1 DUP2 PUSH1 0x20 SWAP2 SUB SLT PUSH2 0x3A7 JUMPI MLOAD DUP1 ISZERO ISZERO DUP2 SUB PUSH2 0x3A7 JUMPI SWAP1 JUMP JUMPDEST SWAP4 SWAP3 SWAP1 SWAP2 PUSH1 0x40 SWAP2 DUP3 MLOAD SWAP5 PUSH4 0xE6A43905 PUSH1 0xE0 SHL DUP7 MSTORE PUSH1 0x0 SWAP3 PUSH1 0x1 DUP1 PUSH1 0xA0 SHL SUB DUP1 SWAP7 AND SWAP2 PUSH1 0x4 SWAP4 DUP4 DUP6 DUP11 ADD MSTORE PUSH1 0x24 SWAP8 PUSH20 0x833589FCD6EDB6E08F4C7C32D4F71B54BDA02913 DUP10 DUP12 ADD MSTORE PUSH1 0x20 SWAP10 DUP11 DUP2 PUSH1 0x44 DUP2 PUSH20 0x8909DC15E40173FF4699343B6EB8132C65E18EC6 GAS STATICCALL SWAP1 DUP2 ISZERO PUSH2 0x810 JUMPI SWAP1 DUP3 SWAP2 DUP10 SWAP2 PUSH2 0x7F3 JUMPI JUMPDEST POP AND SWAP4 DUP5 ISZERO PUSH2 0x7E4 JUMPI DUP9 MLOAD PUSH4 0x95EA7B3 PUSH1 0xE0 SHL DUP2 MSTORE DUP8 DUP2 ADD DUP7 SWAP1 MSTORE PUSH1 0x0 NOT DUP12 DUP3 ADD MSTORE DUP12 DUP2 PUSH1 0x44 DUP2 DUP13 DUP12 GAS CALL DUP1 ISZERO PUSH2 0x7BD JUMPI PUSH2 0x7C7 JUMPI JUMPDEST POP DUP9 MLOAD PUSH4 0x23B872DD PUSH1 0xE0 SHL DUP2 MSTORE CALLER DUP9 DUP3 ADD MSTORE ADDRESS DUP12 DUP3 ADD MSTORE PUSH1 0x44 DUP2 ADD DUP14 SWAP1 MSTORE DUP12 DUP2 PUSH1 0x64 DUP2 DUP13 DUP12 GAS CALL DUP1 ISZERO PUSH2 0x7BD JUMPI PUSH2 0x7A0 JUMPI JUMPDEST POP DUP5 EXTCODESIZE ISZERO PUSH2 0x79C JUMPI DUP9 MLOAD PUSH4 0x22C0D9F PUSH1 0xE0 SHL DUP2 MSTORE DUP1 DUP9 ADD DUP14 SWAP1 MSTORE DUP1 DUP12 ADD DUP10 SWAP1 MSTORE SWAP2 AND PUSH1 0x44 DUP3 ADD MSTORE PUSH1 0x80 PUSH1 0x64 DUP3 ADD MSTORE PUSH1 0x84 DUP2 ADD DUP4 SWAP1 MSTORE SWAP3 DUP7 SWAP3 DUP5 SWAP3 DUP4 SWAP2 DUP6 SWAP2 PUSH1 0xA4 SWAP2 DUP5 SWAP2 DUP2 SWAP1 DUP4 DUP6 ADD CALLDATACOPY DUP2 DUP2 ADD DUP4 ADD DUP5 SWAP1 MSTORE PUSH1 0x1F ADD PUSH1 0x1F NOT AND DUP2 ADD SUB ADD SWAP3 GAS CALL DUP1 ISZERO PUSH2 0x765 JUMPI PUSH2 0x76F JUMPI JUMPDEST POP DUP4 MLOAD PUSH4 0x70A08231 PUSH1 0xE0 SHL DUP2 MSTORE ADDRESS DUP4 DUP3 ADD MSTORE SWAP1 DUP7 DUP3 DUP8 DUP2 DUP5 GAS STATICCALL SWAP2 DUP3 ISZERO PUSH2 0x765 JUMPI DUP5 SWAP3 PUSH2 0x732 JUMPI JUMPDEST POP DUP2 PUSH2 0x6AD JUMPI JUMPDEST POP POP POP POP POP POP POP SWAP1 JUMP JUMPDEST DUP7 SWAP3 DUP5 PUSH1 0x44 SWAP3 PUSH20 0xE92E74661F0582D52FC0051AEDD6FDF4D26A1F86 SWAP5 DUP9 MLOAD SWAP10 DUP11 SWAP7 DUP8 SWAP6 PUSH4 0xA9059CBB PUSH1 0xE0 SHL DUP8 MSTORE DUP7 ADD MSTORE DUP5 ADD MSTORE GAS CALL SWAP2 DUP3 ISZERO PUSH2 0x728 JUMPI POP POP PUSH2 0x6FA JUMPI JUMPDEST DUP1 DUP1 DUP1 DUP1 DUP1 PUSH2 0x6A3 JUMP JUMPDEST DUP2 PUSH2 0x719 SWAP3 SWAP1 RETURNDATASIZE LT PUSH2 0x721 JUMPI JUMPDEST PUSH2 0x711 DUP2 DUP4 PUSH2 0x4BD JUMP JUMPDEST DUP2 ADD SWAP1 PUSH2 0x514 JUMP JUMPDEST POP CODESIZE DUP1 PUSH2 0x6F0 JUMP JUMPDEST POP RETURNDATASIZE PUSH2 0x707 JUMP JUMPDEST MLOAD SWAP1 RETURNDATASIZE SWAP1 DUP3 RETURNDATACOPY RETURNDATASIZE SWAP1 REVERT JUMPDEST SWAP1 SWAP2 POP DUP7 DUP2 DUP2 RETURNDATASIZE DUP4 GT PUSH2 0x75E JUMPI JUMPDEST PUSH2 0x74A DUP2 DUP4 PUSH2 0x4BD JUMP JUMPDEST DUP2 ADD SUB SLT PUSH2 0x75A JUMPI MLOAD SWAP1 CODESIZE PUSH2 0x69C JUMP JUMPDEST DUP4 DUP1 REVERT JUMPDEST POP RETURNDATASIZE PUSH2 0x740 JUMP JUMPDEST DUP6 MLOAD RETURNDATASIZE DUP7 DUP3 RETURNDATACOPY RETURNDATASIZE SWAP1 REVERT JUMPDEST PUSH8 0xFFFFFFFFFFFFFFFF DUP2 SWAP5 SWAP3 SWAP5 GT PUSH2 0x78A JUMPI DUP5 MSTORE SWAP2 CODESIZE PUSH2 0x674 JUMP JUMPDEST POP PUSH1 0x41 DUP6 SWAP3 PUSH4 0x4E487B71 PUSH1 0xE0 SHL DUP4 MSTORE MSTORE REVERT JUMPDEST DUP8 DUP1 REVERT JUMPDEST PUSH2 0x7B6 SWAP1 DUP13 DUP14 RETURNDATASIZE LT PUSH2 0x721 JUMPI PUSH2 0x711 DUP2 DUP4 PUSH2 0x4BD JUMP JUMPDEST POP CODESIZE PUSH2 0x60A JUMP JUMPDEST DUP11 MLOAD RETURNDATASIZE DUP12 DUP3 RETURNDATACOPY RETURNDATASIZE SWAP1 REVERT JUMPDEST PUSH2 0x7DD SWAP1 DUP13 DUP14 RETURNDATASIZE LT PUSH2 0x721 JUMPI PUSH2 0x711 DUP2 DUP4 PUSH2 0x4BD JUMP JUMPDEST POP CODESIZE PUSH2 0x5D8 JUMP JUMPDEST POP POP POP POP POP POP POP SWAP4 POP POP POP POP SWAP1 JUMP JUMPDEST PUSH2 0x80A SWAP2 POP DUP13 DUP14 RETURNDATASIZE LT PUSH2 0x1F1 JUMPI PUSH2 0x1E2 DUP2 DUP4 PUSH2 0x4BD JUMP JUMPDEST CODESIZE PUSH2 0x5A2 JUMP JUMPDEST DUP10 MLOAD RETURNDATASIZE DUP11 DUP3 RETURNDATACOPY RETURNDATASIZE SWAP1 REVERT INVALID LOG2 PUSH5 0x6970667358 0x22 SLT KECCAK256 GT PUSH4 0xF65EF834 PUSH17 0xE93CCFAB54CA1B5AE096EE326017C69DCD SWAP8 0xD5 RETURN JUMPDEST SELFBALANCE 0xCE 0xEF DUP2 PUSH5 0x736F6C6343 STOP ADDMOD SGT STOP CALLER "
        },
        "methodIdentifiers": {
          "buy(uint256,address,address,bytes)": "987bb07b",
          "factory()": "c45a0155",
          "getUSDCTokenPair(address)": "98e94c28",
          "getWethTokenPair(address)": "c52a39aa",
          "owner()": "8da5cb5b",
          "renounceOwnership()": "715018a6",
          "sell(uint256,address,address,bytes)": "2454b710",
          "sellAndBuy(uint256,address,address,bytes)": "03679454",
          "transferOwnership(address)": "f2fde38b",
          "treasury()": "61d027b3"
        }
      }
    }
  }
}