{
  "contracts/core/merge/MergeWithMarket.sol": {
    "MergeWithMarket": {
      "abi": [
        {
          "inputs": [
            {
              "internalType": "address",
              "name": "_wewe",
              "type": "address"
            },
            {
              "internalType": "address",
              "name": "token",
              "type": "address"
            },
            {
              "internalType": "uint32",
              "name": "_vestingDuration",
              "type": "uint32"
            }
          ],
          "stateMutability": "nonpayable",
          "type": "constructor"
        },
        {
          "anonymous": false,
          "inputs": [
            {
              "indexed": false,
              "internalType": "uint256",
              "name": "amount",
              "type": "uint256"
            },
            {
              "indexed": true,
              "internalType": "address",
              "name": "account",
              "type": "address"
            }
          ],
          "name": "Merged",
          "type": "event"
        },
        {
          "anonymous": false,
          "inputs": [
            {
              "indexed": true,
              "internalType": "address",
              "name": "previousOwner",
              "type": "address"
            },
            {
              "indexed": true,
              "internalType": "address",
              "name": "newOwner",
              "type": "address"
            }
          ],
          "name": "OwnershipTransferred",
          "type": "event"
        },
        {
          "anonymous": false,
          "inputs": [
            {
              "indexed": false,
              "internalType": "address",
              "name": "account",
              "type": "address"
            }
          ],
          "name": "Paused",
          "type": "event"
        },
        {
          "anonymous": false,
          "inputs": [
            {
              "indexed": false,
              "internalType": "uint256",
              "name": "newRate",
              "type": "uint256"
            }
          ],
          "name": "RateChanged",
          "type": "event"
        },
        {
          "anonymous": false,
          "inputs": [
            {
              "indexed": false,
              "internalType": "address",
              "name": "account",
              "type": "address"
            }
          ],
          "name": "Unpaused",
          "type": "event"
        },
        {
          "inputs": [
            {
              "internalType": "address",
              "name": "account",
              "type": "address"
            }
          ],
          "name": "balanceOf",
          "outputs": [
            {
              "internalType": "uint256",
              "name": "",
              "type": "uint256"
            }
          ],
          "stateMutability": "view",
          "type": "function"
        },
        {
          "inputs": [
            {
              "internalType": "address",
              "name": "account",
              "type": "address"
            }
          ],
          "name": "canClaim",
          "outputs": [
            {
              "internalType": "bool",
              "name": "",
              "type": "bool"
            }
          ],
          "stateMutability": "view",
          "type": "function"
        },
        {
          "inputs": [],
          "name": "claim",
          "outputs": [],
          "stateMutability": "nonpayable",
          "type": "function"
        },
        {
          "inputs": [
            {
              "internalType": "uint256",
              "name": "amount",
              "type": "uint256"
            }
          ],
          "name": "deposit",
          "outputs": [],
          "stateMutability": "nonpayable",
          "type": "function"
        },
        {
          "inputs": [],
          "name": "getRate",
          "outputs": [
            {
              "internalType": "uint256",
              "name": "",
              "type": "uint256"
            }
          ],
          "stateMutability": "view",
          "type": "function"
        },
        {
          "inputs": [],
          "name": "getToken",
          "outputs": [
            {
              "internalType": "address",
              "name": "",
              "type": "address"
            }
          ],
          "stateMutability": "view",
          "type": "function"
        },
        {
          "inputs": [
            {
              "internalType": "uint256",
              "name": "amount",
              "type": "uint256"
            }
          ],
          "name": "merge",
          "outputs": [],
          "stateMutability": "nonpayable",
          "type": "function"
        },
        {
          "inputs": [
            {
              "internalType": "uint256",
              "name": "amount",
              "type": "uint256"
            },
            {
              "internalType": "contract IAMM",
              "name": "amm",
              "type": "address"
            },
            {
              "internalType": "bytes",
              "name": "extraData",
              "type": "bytes"
            }
          ],
          "name": "mergeAndSell",
          "outputs": [],
          "stateMutability": "nonpayable",
          "type": "function"
        },
        {
          "inputs": [],
          "name": "owner",
          "outputs": [
            {
              "internalType": "address",
              "name": "",
              "type": "address"
            }
          ],
          "stateMutability": "view",
          "type": "function"
        },
        {
          "inputs": [],
          "name": "paused",
          "outputs": [
            {
              "internalType": "bool",
              "name": "",
              "type": "bool"
            }
          ],
          "stateMutability": "view",
          "type": "function"
        },
        {
          "inputs": [
            {
              "internalType": "address",
              "name": "from",
              "type": "address"
            },
            {
              "internalType": "uint256",
              "name": "amount",
              "type": "uint256"
            },
            {
              "internalType": "address",
              "name": "",
              "type": "address"
            },
            {
              "internalType": "bytes",
              "name": "",
              "type": "bytes"
            }
          ],
          "name": "receiveApproval",
          "outputs": [],
          "stateMutability": "nonpayable",
          "type": "function"
        },
        {
          "inputs": [],
          "name": "renounceOwnership",
          "outputs": [],
          "stateMutability": "nonpayable",
          "type": "function"
        },
        {
          "inputs": [
            {
              "internalType": "uint256",
              "name": "rate",
              "type": "uint256"
            }
          ],
          "name": "setRate",
          "outputs": [],
          "stateMutability": "nonpayable",
          "type": "function"
        },
        {
          "inputs": [
            {
              "internalType": "address",
              "name": "_treasury",
              "type": "address"
            }
          ],
          "name": "setTreasury",
          "outputs": [],
          "stateMutability": "nonpayable",
          "type": "function"
        },
        {
          "inputs": [
            {
              "internalType": "uint32",
              "name": "duration",
              "type": "uint32"
            }
          ],
          "name": "setVestingDuration",
          "outputs": [],
          "stateMutability": "nonpayable",
          "type": "function"
        },
        {
          "inputs": [],
          "name": "sumOfVested",
          "outputs": [
            {
              "internalType": "uint256",
              "name": "",
              "type": "uint256"
            }
          ],
          "stateMutability": "view",
          "type": "function"
        },
        {
          "inputs": [],
          "name": "sweep",
          "outputs": [],
          "stateMutability": "nonpayable",
          "type": "function"
        },
        {
          "inputs": [],
          "name": "togglePause",
          "outputs": [],
          "stateMutability": "nonpayable",
          "type": "function"
        },
        {
          "inputs": [
            {
              "internalType": "address",
              "name": "newOwner",
              "type": "address"
            }
          ],
          "name": "transferOwnership",
          "outputs": [],
          "stateMutability": "nonpayable",
          "type": "function"
        },
        {
          "inputs": [],
          "name": "treasury",
          "outputs": [
            {
              "internalType": "address",
              "name": "",
              "type": "address"
            }
          ],
          "stateMutability": "view",
          "type": "function"
        },
        {
          "inputs": [],
          "name": "vestingDuration",
          "outputs": [
            {
              "internalType": "uint32",
              "name": "",
              "type": "uint32"
            }
          ],
          "stateMutability": "view",
          "type": "function"
        },
        {
          "inputs": [
            {
              "internalType": "address",
              "name": "",
              "type": "address"
            }
          ],
          "name": "vestings",
          "outputs": [
            {
              "internalType": "uint256",
              "name": "amount",
              "type": "uint256"
            },
            {
              "internalType": "uint256",
              "name": "end",
              "type": "uint256"
            }
          ],
          "stateMutability": "view",
          "type": "function"
        },
        {
          "inputs": [],
          "name": "wewe",
          "outputs": [
            {
              "internalType": "address",
              "name": "",
              "type": "address"
            }
          ],
          "stateMutability": "view",
          "type": "function"
        }
      ],
      "evm": {
        "bytecode": {
          "linkReferences": {},
          "object": "60a03461011957601f61145d38819003918201601f19168301916001600160401b0383118484101761011e578084926060946040528339810103126101195761004781610134565b604061005560208401610134565b9201519063ffffffff8216809203610119576001600081815581546001600160a81b0319811633600881811b610100600160a81b031692909217909455604051966001600160a01b03949093909290911c8416907f8be0079c531659141344cd1fd0a4f28419497f9722a3daafe3b4186f6b6457e09080a3620186a0806080526002558160018060a01b031993168360045416176004551690600354161760035563ffffffff1960065416176006556113149081610149823960805181610a5e0152f35b600080fd5b634e487b7160e01b600052604160045260246000fd5b51906001600160a01b03821682036101195756fe6080604081815260048036101561001557600080fd5b600092833560e01c9081631514617e14610d3b57508063213897fe146109ed57806321df0da7146109c457806324a47aeb1461097257806334fcf437146108bf57806335faa4161461076a5780634e71d92d146106d55780635c975abb146106b157806361d027b314610688578063679aefce1461066957806370a0823114610631578063715018a6146105d05780638da5cb5b146105a35780638f4ffcb1146104d75780639636d8811461049c57838163b6b55f25146103f357508063bf3506c1146103b4578063c4ae3168146102d1578063cdb2aeab146102b2578063daf498631461026c578063e1f26f2214610245578063f0f44260146101fd5763f2fde38b1461012257600080fd5b346101f95760203660031901126101f95761013b610d90565b610143610da6565b6001600160a01b038181169390929084156101a757505060018054610100600160a81b03198116600893841b610100600160a81b031617909155901c167f8be0079c531659141344cd1fd0a4f28419497f9722a3daafe3b4186f6b6457e08380a380f35b906020608492519162461bcd60e51b8352820152602660248201527f4f776e61626c653a206e6577206f776e657220697320746865207a65726f206160448201526564647265737360d01b6064820152fd5b8280fd5b833461024257602036600319011261024257610217610d90565b61021f610da6565b600880546001600160a01b0319166001600160a01b039290921691909117905580f35b80fd5b50346101f957826003193601126101f9575490516001600160a01b03909116815260209150f35b5050346102ae5760203660031901126102ae579081906001600160a01b03610292610d90565b1681526007602052206001815491015482519182526020820152f35b5080fd5b5050346102ae57816003193601126102ae576020906005549051908152f35b50346101f957826003193601126101f9576102ea610da6565b60015460ff81161561037357506001549060ff821615610339575060ff1916600155513381527f5db9ee0a495bf2e6ff9c91a7834c1ba4fdd244a5e8aa4e537bd38aeae4b073aa90602090a180f35b606490602084519162461bcd60e51b8352820152601460248201527314185d5cd8589b194e881b9bdd081c185d5cd95960621b6044820152fd5b602091509160017f62e78cea01bee320cd4e420270b5ea74000d11b0c9f74754ebdbfc544b05a258936103a4610e51565b60ff19161760015551338152a180f35b5050346102ae5760203660031901126102ae5760209160019082906001600160a01b036103df610d90565b168152600785522001549051904210158152f35b8084843461049857602036600319011261049857610450602091610415610da6565b805484516323b872dd60e01b815233818401908152306020820152923560408401529586936001600160a01b03909216928492839160600190565b03925af190811561048f5750610464575080f35b6104849060203d8111610488575b61047c8183610e01565b810190610e39565b5080f35b503d610472565b513d84823e3d90fd5b5050fd5b8382346102ae5760203660031901126102ae573563ffffffff81168091036102ae576104c6610da6565b63ffffffff19600654161760065580f35b508290346102ae5760803660031901126102ae576104f3610d90565b906001600160a01b036044358181160361059f5760643567ffffffffffffffff811161059b576105269036908401610d5d565b5050610530610e95565b610538610e51565b6003541690811561055857509061055191602435610f41565b6001815580f35b606490602086519162461bcd60e51b8352820152601c60248201527f45617465723a20546f6b656e2061646472657373206e6f7420736574000000006044820152fd5b8480fd5b8380fd5b5050346102ae57816003193601126102ae57600154905160089190911c6001600160a01b03168152602090f35b83346102425780600319360112610242576105e9610da6565b60018054610100600160a81b03198116909155819060081c6001600160a01b03167f8be0079c531659141344cd1fd0a4f28419497f9722a3daafe3b4186f6b6457e08280a380f35b5050346102ae5760203660031901126102ae5760209181906001600160a01b03610659610d90565b1681526007845220549051908152f35b5050346102ae57816003193601126102ae576020906002549051908152f35b5050346102ae57816003193601126102ae5760085490516001600160a01b039091168152602090f35b5050346102ae57816003193601126102ae5760209060ff6001541690519015158152f35b5090346101f957826003193601126101f9576106ef610e51565b63ffffffff600654161561075d575b338352600760205260018184200154421061071f578261071c61122d565b80f35b906020606492519162461bcd60e51b8352820152601860248201527711585d195c8e8815995cdd1a5b99c81b9bdd08195b99195960421b6044820152fd5b61076561122d565b6106fe565b509190346102ae57816003193601126102ae57610785610da6565b825481516370a0823160e01b8152308186015293602092916001600160a01b0390811691908487602481865afa9687156108b5578697610882575b50861561083f57600154845163a9059cbb60e01b81526001600160a01b0360089290921c90921616918101918252602082018790529291849184919082908890829060400103925af19081156108365750610819578280f35b8161082f92903d106104885761047c8183610e01565b5081808280f35b513d85823e3d90fd5b835162461bcd60e51b8152808301869052601a60248201527f45617465723a204e6f2062616c616e636520746f2073776565700000000000006044820152606490fd5b9096508481813d83116108ae575b61089a8183610e01565b810103126108aa575195386107c0565b8580fd5b503d610890565b84513d88823e3d90fd5b5090346101f95760203660031901126101f9578135916108dd610da6565b8215610925575081600254036108f1578280f35b816020917f595a30f13a69b616c4d568e2a2b7875fdfe86e4300a049953c76ee278f8f3f109360025551908152a138808280f35b6020608492519162461bcd60e51b8352820152602260248201527f45617465723a2052617465206d7573742062652067726561746572207468616e604482015261020360f41b6064820152fd5b50823461024257602036600319011261024257506020606492610993610e51565b5162461bcd60e51b8152918201526011602482015270119d5b98dd1a5bdb88191a5cd8589b1959607a1b6044820152fd5b5050346102ae57816003193601126102ae5760035490516001600160a01b039091168152602090f35b5090346101f95760603660031901126101f9576001600160a01b03906024803583811690853590829003610d375760443567ffffffffffffffff8111610d3357610a3a9036908801610d5d565b610a45979197610e95565b610a4d610e51565b610a83610a5c60025485610eeb565b7f000000000000000000000000000000000000000000000000000000000000000090610f14565b97878354168751809a6370a0823160e01b928383523087840152828a60209e8f935afa918215610d29578d92610cf4575b50610ac190600554610f34565b11610cb457886003541690885190815233858201528a818981855afa908115610caa579086918d91610c75575b5010610c1e5790610b048b949392339087610f41565b600354885163095ea7b360e01b81526001600160a01b0388168582019081526020810188905290918c9183918d169082908990829060400103925af18015610c1457928b989796959492819260a495610bf7575b506008548c1680610bf15750309b5b80600354169c8c519d8e9b8c9a8b986302454b7160e41b8a5289015287015216604485015260806064850152816084850152848401378181018301849052601f01601f191681010301925af19081156108365750610bc8575b826001815580f35b813d8311610bea575b610bdb8183610e01565b81010312610242573880610bc0565b503d610bd1565b9b610b67565b610c0d908b3d8d116104885761047c8183610e01565b5038610b58565b89513d87823e3d90fd5b875162461bcd60e51b81528085018b9052602c818901527f4d65726765576974684d61726b65743a20496e73756666696369656e7420626160448201526b1b185b98d9481d1bc819585d60a21b6064820152608490fd5b8092508c8092503d8311610ca3575b610c8e8183610e01565b81010312610c9f5785905138610aee565b8b80fd5b503d610c84565b89513d8e823e3d90fd5b6064848b89818c519362461bcd60e51b85528401528201527f45617465723a20496e73756666696369656e7420576577652062616c616e63656044820152fd5b9091508b81813d8311610d22575b610d0c8183610e01565b81010312610d1e575190610ac1610ab4565b8c80fd5b503d610d02565b8a513d8f823e3d90fd5b8780fd5b8680fd5b8490346102ae57816003193601126102ae5760209063ffffffff600654168152f35b9181601f84011215610d8b5782359167ffffffffffffffff8311610d8b5760208381860195010111610d8b57565b600080fd5b600435906001600160a01b0382168203610d8b57565b60015460081c6001600160a01b03163303610dbd57565b606460405162461bcd60e51b815260206004820152602060248201527f4f776e61626c653a2063616c6c6572206973206e6f7420746865206f776e65726044820152fd5b90601f8019910116810190811067ffffffffffffffff821117610e2357604052565b634e487b7160e01b600052604160045260246000fd5b90816020910312610d8b57518015158103610d8b5790565b60ff60015416610e5d57565b60405162461bcd60e51b815260206004820152601060248201526f14185d5cd8589b194e881c185d5cd95960821b6044820152606490fd5b600260005414610ea6576002600055565b60405162461bcd60e51b815260206004820152601f60248201527f5265656e7472616e637947756172643a207265656e7472616e742063616c6c006044820152606490fd5b81810292918115918404141715610efe57565b634e487b7160e01b600052601160045260246000fd5b8115610f1e570490565b634e487b7160e01b600052601260045260246000fd5b91908201809211610efe57565b909291610f53610a5c60025484610eeb565b91610f6083600554610f34565b60055560018060a01b039460048681541693604092835180966370a0823160e01b825230858301528160246020998a935afa908115611222576000916111f5575b50871161119c5783516323b872dd60e01b81526001600160a01b03831684820190815230602082015260408101879052909187918391908290036060019082906000908e165af1801561119157611174575b5087811695866000526007865283600020549163ffffffff998a6006541615156000146110d75750509061102691610f34565b96603c8160065416029081169081036110c2576110439042610f34565b968251918383019083821067ffffffffffffffff8311176110ad5750976001917fadc41ba80ffa0859aab1d7cf405a6633a6af94fc3d10e5b0e0bf46cdcc0fd9c89798998552835285830190815233600052600786528360002092518355519101555b51908152a2565b604190634e487b7160e01b6000525260246000fd5b601182634e487b7160e01b6000525260246000fd5b8454865163a9059cbb60e01b81526001600160a01b0393909316958301958652602086019390935290995086938a9350839003604001918391600091165af1958615611169577fadc41ba80ffa0859aab1d7cf405a6633a6af94fc3d10e5b0e0bf46cdcc0fd9c894959661114c575b506110a6565b61116290843d86116104885761047c8183610e01565b5038611146565b50513d6000823e3d90fd5b61118a90863d88116104885761047c8183610e01565b5038610ff3565b84513d6000823e3d90fd5b835162461bcd60e51b8152808401879052602d60248201527f45617465723a20496e73756666696369656e7420746f6b656e2062616c616e6360448201526c32903a37903a3930b739b332b960991b6064820152608490fd5b908782813d831161121b575b61120b8183610e01565b8101031261024257505138610fa1565b503d611201565b85513d6000823e3d90fd5b6000338152600760205260408120546005548181039081116112ca576005553380835260076020908152604080852085905560048054915163a9059cbb60e01b81529081019390935260248301939093529092918390604490829085906001600160a01b03165af19081156112be57506112a45750565b6112bb9060203d81116104885761047c8183610e01565b50565b604051903d90823e3d90fd5b634e487b7160e01b83526011600452602483fdfea26469706673582212204f8bd7fd93f96fe7dff4f75a35968b5e3d9f0cbb2aa87ef766aafe23934f3f3a64736f6c63430008130033",
          "opcodes": "PUSH1 0xA0 CALLVALUE PUSH2 0x119 JUMPI PUSH1 0x1F PUSH2 0x145D CODESIZE DUP2 SWAP1 SUB SWAP2 DUP3 ADD PUSH1 0x1F NOT AND DUP4 ADD SWAP2 PUSH1 0x1 PUSH1 0x1 PUSH1 0x40 SHL SUB DUP4 GT DUP5 DUP5 LT OR PUSH2 0x11E JUMPI DUP1 DUP5 SWAP3 PUSH1 0x60 SWAP5 PUSH1 0x40 MSTORE DUP4 CODECOPY DUP2 ADD SUB SLT PUSH2 0x119 JUMPI PUSH2 0x47 DUP2 PUSH2 0x134 JUMP JUMPDEST PUSH1 0x40 PUSH2 0x55 PUSH1 0x20 DUP5 ADD PUSH2 0x134 JUMP JUMPDEST SWAP3 ADD MLOAD SWAP1 PUSH4 0xFFFFFFFF DUP3 AND DUP1 SWAP3 SUB PUSH2 0x119 JUMPI PUSH1 0x1 PUSH1 0x0 DUP2 DUP2 SSTORE DUP2 SLOAD PUSH1 0x1 PUSH1 0x1 PUSH1 0xA8 SHL SUB NOT DUP2 AND CALLER PUSH1 0x8 DUP2 DUP2 SHL PUSH2 0x100 PUSH1 0x1 PUSH1 0xA8 SHL SUB AND SWAP3 SWAP1 SWAP3 OR SWAP1 SWAP5 SSTORE PUSH1 0x40 MLOAD SWAP7 PUSH1 0x1 PUSH1 0x1 PUSH1 0xA0 SHL SUB SWAP5 SWAP1 SWAP4 SWAP1 SWAP3 SWAP1 SWAP2 SHR DUP5 AND SWAP1 PUSH32 0x8BE0079C531659141344CD1FD0A4F28419497F9722A3DAAFE3B4186F6B6457E0 SWAP1 DUP1 LOG3 PUSH3 0x186A0 DUP1 PUSH1 0x80 MSTORE PUSH1 0x2 SSTORE DUP2 PUSH1 0x1 DUP1 PUSH1 0xA0 SHL SUB NOT SWAP4 AND DUP4 PUSH1 0x4 SLOAD AND OR PUSH1 0x4 SSTORE AND SWAP1 PUSH1 0x3 SLOAD AND OR PUSH1 0x3 SSTORE PUSH4 0xFFFFFFFF NOT PUSH1 0x6 SLOAD AND OR PUSH1 0x6 SSTORE PUSH2 0x1314 SWAP1 DUP2 PUSH2 0x149 DUP3 CODECOPY PUSH1 0x80 MLOAD DUP2 PUSH2 0xA5E ADD MSTORE RETURN JUMPDEST PUSH1 0x0 DUP1 REVERT JUMPDEST PUSH4 0x4E487B71 PUSH1 0xE0 SHL PUSH1 0x0 MSTORE PUSH1 0x41 PUSH1 0x4 MSTORE PUSH1 0x24 PUSH1 0x0 REVERT JUMPDEST MLOAD SWAP1 PUSH1 0x1 PUSH1 0x1 PUSH1 0xA0 SHL SUB DUP3 AND DUP3 SUB PUSH2 0x119 JUMPI JUMP INVALID PUSH1 0x80 PUSH1 0x40 DUP2 DUP2 MSTORE PUSH1 0x4 DUP1 CALLDATASIZE LT ISZERO PUSH2 0x15 JUMPI PUSH1 0x0 DUP1 REVERT JUMPDEST PUSH1 0x0 SWAP3 DUP4 CALLDATALOAD PUSH1 0xE0 SHR SWAP1 DUP2 PUSH4 0x1514617E EQ PUSH2 0xD3B JUMPI POP DUP1 PUSH4 0x213897FE EQ PUSH2 0x9ED JUMPI DUP1 PUSH4 0x21DF0DA7 EQ PUSH2 0x9C4 JUMPI DUP1 PUSH4 0x24A47AEB EQ PUSH2 0x972 JUMPI DUP1 PUSH4 0x34FCF437 EQ PUSH2 0x8BF JUMPI DUP1 PUSH4 0x35FAA416 EQ PUSH2 0x76A JUMPI DUP1 PUSH4 0x4E71D92D EQ PUSH2 0x6D5 JUMPI DUP1 PUSH4 0x5C975ABB EQ PUSH2 0x6B1 JUMPI DUP1 PUSH4 0x61D027B3 EQ PUSH2 0x688 JUMPI DUP1 PUSH4 0x679AEFCE EQ PUSH2 0x669 JUMPI DUP1 PUSH4 0x70A08231 EQ PUSH2 0x631 JUMPI DUP1 PUSH4 0x715018A6 EQ PUSH2 0x5D0 JUMPI DUP1 PUSH4 0x8DA5CB5B EQ PUSH2 0x5A3 JUMPI DUP1 PUSH4 0x8F4FFCB1 EQ PUSH2 0x4D7 JUMPI DUP1 PUSH4 0x9636D881 EQ PUSH2 0x49C JUMPI DUP4 DUP2 PUSH4 0xB6B55F25 EQ PUSH2 0x3F3 JUMPI POP DUP1 PUSH4 0xBF3506C1 EQ PUSH2 0x3B4 JUMPI DUP1 PUSH4 0xC4AE3168 EQ PUSH2 0x2D1 JUMPI DUP1 PUSH4 0xCDB2AEAB EQ PUSH2 0x2B2 JUMPI DUP1 PUSH4 0xDAF49863 EQ PUSH2 0x26C JUMPI DUP1 PUSH4 0xE1F26F22 EQ PUSH2 0x245 JUMPI DUP1 PUSH4 0xF0F44260 EQ PUSH2 0x1FD JUMPI PUSH4 0xF2FDE38B EQ PUSH2 0x122 JUMPI PUSH1 0x0 DUP1 REVERT JUMPDEST CALLVALUE PUSH2 0x1F9 JUMPI PUSH1 0x20 CALLDATASIZE PUSH1 0x3 NOT ADD SLT PUSH2 0x1F9 JUMPI PUSH2 0x13B PUSH2 0xD90 JUMP JUMPDEST PUSH2 0x143 PUSH2 0xDA6 JUMP JUMPDEST PUSH1 0x1 PUSH1 0x1 PUSH1 0xA0 SHL SUB DUP2 DUP2 AND SWAP4 SWAP1 SWAP3 SWAP1 DUP5 ISZERO PUSH2 0x1A7 JUMPI POP POP PUSH1 0x1 DUP1 SLOAD PUSH2 0x100 PUSH1 0x1 PUSH1 0xA8 SHL SUB NOT DUP2 AND PUSH1 0x8 SWAP4 DUP5 SHL PUSH2 0x100 PUSH1 0x1 PUSH1 0xA8 SHL SUB AND OR SWAP1 SWAP2 SSTORE SWAP1 SHR AND PUSH32 0x8BE0079C531659141344CD1FD0A4F28419497F9722A3DAAFE3B4186F6B6457E0 DUP4 DUP1 LOG3 DUP1 RETURN JUMPDEST SWAP1 PUSH1 0x20 PUSH1 0x84 SWAP3 MLOAD SWAP2 PUSH3 0x461BCD PUSH1 0xE5 SHL DUP4 MSTORE DUP3 ADD MSTORE PUSH1 0x26 PUSH1 0x24 DUP3 ADD MSTORE PUSH32 0x4F776E61626C653A206E6577206F776E657220697320746865207A65726F2061 PUSH1 0x44 DUP3 ADD MSTORE PUSH6 0x646472657373 PUSH1 0xD0 SHL PUSH1 0x64 DUP3 ADD MSTORE REVERT JUMPDEST DUP3 DUP1 REVERT JUMPDEST DUP4 CALLVALUE PUSH2 0x242 JUMPI PUSH1 0x20 CALLDATASIZE PUSH1 0x3 NOT ADD SLT PUSH2 0x242 JUMPI PUSH2 0x217 PUSH2 0xD90 JUMP JUMPDEST PUSH2 0x21F PUSH2 0xDA6 JUMP JUMPDEST PUSH1 0x8 DUP1 SLOAD PUSH1 0x1 PUSH1 0x1 PUSH1 0xA0 SHL SUB NOT AND PUSH1 0x1 PUSH1 0x1 PUSH1 0xA0 SHL SUB SWAP3 SWAP1 SWAP3 AND SWAP2 SWAP1 SWAP2 OR SWAP1 SSTORE DUP1 RETURN JUMPDEST DUP1 REVERT JUMPDEST POP CALLVALUE PUSH2 0x1F9 JUMPI DUP3 PUSH1 0x3 NOT CALLDATASIZE ADD SLT PUSH2 0x1F9 JUMPI SLOAD SWAP1 MLOAD PUSH1 0x1 PUSH1 0x1 PUSH1 0xA0 SHL SUB SWAP1 SWAP2 AND DUP2 MSTORE PUSH1 0x20 SWAP2 POP RETURN JUMPDEST POP POP CALLVALUE PUSH2 0x2AE JUMPI PUSH1 0x20 CALLDATASIZE PUSH1 0x3 NOT ADD SLT PUSH2 0x2AE JUMPI SWAP1 DUP2 SWAP1 PUSH1 0x1 PUSH1 0x1 PUSH1 0xA0 SHL SUB PUSH2 0x292 PUSH2 0xD90 JUMP JUMPDEST AND DUP2 MSTORE PUSH1 0x7 PUSH1 0x20 MSTORE KECCAK256 PUSH1 0x1 DUP2 SLOAD SWAP2 ADD SLOAD DUP3 MLOAD SWAP2 DUP3 MSTORE PUSH1 0x20 DUP3 ADD MSTORE RETURN JUMPDEST POP DUP1 REVERT JUMPDEST POP POP CALLVALUE PUSH2 0x2AE JUMPI DUP2 PUSH1 0x3 NOT CALLDATASIZE ADD SLT PUSH2 0x2AE JUMPI PUSH1 0x20 SWAP1 PUSH1 0x5 SLOAD SWAP1 MLOAD SWAP1 DUP2 MSTORE RETURN JUMPDEST POP CALLVALUE PUSH2 0x1F9 JUMPI DUP3 PUSH1 0x3 NOT CALLDATASIZE ADD SLT PUSH2 0x1F9 JUMPI PUSH2 0x2EA PUSH2 0xDA6 JUMP JUMPDEST PUSH1 0x1 SLOAD PUSH1 0xFF DUP2 AND ISZERO PUSH2 0x373 JUMPI POP PUSH1 0x1 SLOAD SWAP1 PUSH1 0xFF DUP3 AND ISZERO PUSH2 0x339 JUMPI POP PUSH1 0xFF NOT AND PUSH1 0x1 SSTORE MLOAD CALLER DUP2 MSTORE PUSH32 0x5DB9EE0A495BF2E6FF9C91A7834C1BA4FDD244A5E8AA4E537BD38AEAE4B073AA SWAP1 PUSH1 0x20 SWAP1 LOG1 DUP1 RETURN JUMPDEST PUSH1 0x64 SWAP1 PUSH1 0x20 DUP5 MLOAD SWAP2 PUSH3 0x461BCD PUSH1 0xE5 SHL DUP4 MSTORE DUP3 ADD MSTORE PUSH1 0x14 PUSH1 0x24 DUP3 ADD MSTORE PUSH20 0x14185D5CD8589B194E881B9BDD081C185D5CD959 PUSH1 0x62 SHL PUSH1 0x44 DUP3 ADD MSTORE REVERT JUMPDEST PUSH1 0x20 SWAP2 POP SWAP2 PUSH1 0x1 PUSH32 0x62E78CEA01BEE320CD4E420270B5EA74000D11B0C9F74754EBDBFC544B05A258 SWAP4 PUSH2 0x3A4 PUSH2 0xE51 JUMP JUMPDEST PUSH1 0xFF NOT AND OR PUSH1 0x1 SSTORE MLOAD CALLER DUP2 MSTORE LOG1 DUP1 RETURN JUMPDEST POP POP CALLVALUE PUSH2 0x2AE JUMPI PUSH1 0x20 CALLDATASIZE PUSH1 0x3 NOT ADD SLT PUSH2 0x2AE JUMPI PUSH1 0x20 SWAP2 PUSH1 0x1 SWAP1 DUP3 SWAP1 PUSH1 0x1 PUSH1 0x1 PUSH1 0xA0 SHL SUB PUSH2 0x3DF PUSH2 0xD90 JUMP JUMPDEST AND DUP2 MSTORE PUSH1 0x7 DUP6 MSTORE KECCAK256 ADD SLOAD SWAP1 MLOAD SWAP1 TIMESTAMP LT ISZERO DUP2 MSTORE RETURN JUMPDEST DUP1 DUP5 DUP5 CALLVALUE PUSH2 0x498 JUMPI PUSH1 0x20 CALLDATASIZE PUSH1 0x3 NOT ADD SLT PUSH2 0x498 JUMPI PUSH2 0x450 PUSH1 0x20 SWAP2 PUSH2 0x415 PUSH2 0xDA6 JUMP JUMPDEST DUP1 SLOAD DUP5 MLOAD PUSH4 0x23B872DD PUSH1 0xE0 SHL DUP2 MSTORE CALLER DUP2 DUP5 ADD SWAP1 DUP2 MSTORE ADDRESS PUSH1 0x20 DUP3 ADD MSTORE SWAP3 CALLDATALOAD PUSH1 0x40 DUP5 ADD MSTORE SWAP6 DUP7 SWAP4 PUSH1 0x1 PUSH1 0x1 PUSH1 0xA0 SHL SUB SWAP1 SWAP3 AND SWAP3 DUP5 SWAP3 DUP4 SWAP2 PUSH1 0x60 ADD SWAP1 JUMP JUMPDEST SUB SWAP3 GAS CALL SWAP1 DUP2 ISZERO PUSH2 0x48F JUMPI POP PUSH2 0x464 JUMPI POP DUP1 RETURN JUMPDEST PUSH2 0x484 SWAP1 PUSH1 0x20 RETURNDATASIZE DUP2 GT PUSH2 0x488 JUMPI JUMPDEST PUSH2 0x47C DUP2 DUP4 PUSH2 0xE01 JUMP JUMPDEST DUP2 ADD SWAP1 PUSH2 0xE39 JUMP JUMPDEST POP DUP1 RETURN JUMPDEST POP RETURNDATASIZE PUSH2 0x472 JUMP JUMPDEST MLOAD RETURNDATASIZE DUP5 DUP3 RETURNDATACOPY RETURNDATASIZE SWAP1 REVERT JUMPDEST POP POP REVERT JUMPDEST DUP4 DUP3 CALLVALUE PUSH2 0x2AE JUMPI PUSH1 0x20 CALLDATASIZE PUSH1 0x3 NOT ADD SLT PUSH2 0x2AE JUMPI CALLDATALOAD PUSH4 0xFFFFFFFF DUP2 AND DUP1 SWAP2 SUB PUSH2 0x2AE JUMPI PUSH2 0x4C6 PUSH2 0xDA6 JUMP JUMPDEST PUSH4 0xFFFFFFFF NOT PUSH1 0x6 SLOAD AND OR PUSH1 0x6 SSTORE DUP1 RETURN JUMPDEST POP DUP3 SWAP1 CALLVALUE PUSH2 0x2AE JUMPI PUSH1 0x80 CALLDATASIZE PUSH1 0x3 NOT ADD SLT PUSH2 0x2AE JUMPI PUSH2 0x4F3 PUSH2 0xD90 JUMP JUMPDEST SWAP1 PUSH1 0x1 PUSH1 0x1 PUSH1 0xA0 SHL SUB PUSH1 0x44 CALLDATALOAD DUP2 DUP2 AND SUB PUSH2 0x59F JUMPI PUSH1 0x64 CALLDATALOAD PUSH8 0xFFFFFFFFFFFFFFFF DUP2 GT PUSH2 0x59B JUMPI PUSH2 0x526 SWAP1 CALLDATASIZE SWAP1 DUP5 ADD PUSH2 0xD5D JUMP JUMPDEST POP POP PUSH2 0x530 PUSH2 0xE95 JUMP JUMPDEST PUSH2 0x538 PUSH2 0xE51 JUMP JUMPDEST PUSH1 0x3 SLOAD AND SWAP1 DUP2 ISZERO PUSH2 0x558 JUMPI POP SWAP1 PUSH2 0x551 SWAP2 PUSH1 0x24 CALLDATALOAD PUSH2 0xF41 JUMP JUMPDEST PUSH1 0x1 DUP2 SSTORE DUP1 RETURN JUMPDEST PUSH1 0x64 SWAP1 PUSH1 0x20 DUP7 MLOAD SWAP2 PUSH3 0x461BCD PUSH1 0xE5 SHL DUP4 MSTORE DUP3 ADD MSTORE PUSH1 0x1C PUSH1 0x24 DUP3 ADD MSTORE PUSH32 0x45617465723A20546F6B656E2061646472657373206E6F742073657400000000 PUSH1 0x44 DUP3 ADD MSTORE REVERT JUMPDEST DUP5 DUP1 REVERT JUMPDEST DUP4 DUP1 REVERT JUMPDEST POP POP CALLVALUE PUSH2 0x2AE JUMPI DUP2 PUSH1 0x3 NOT CALLDATASIZE ADD SLT PUSH2 0x2AE JUMPI PUSH1 0x1 SLOAD SWAP1 MLOAD PUSH1 0x8 SWAP2 SWAP1 SWAP2 SHR PUSH1 0x1 PUSH1 0x1 PUSH1 0xA0 SHL SUB AND DUP2 MSTORE PUSH1 0x20 SWAP1 RETURN JUMPDEST DUP4 CALLVALUE PUSH2 0x242 JUMPI DUP1 PUSH1 0x3 NOT CALLDATASIZE ADD SLT PUSH2 0x242 JUMPI PUSH2 0x5E9 PUSH2 0xDA6 JUMP JUMPDEST PUSH1 0x1 DUP1 SLOAD PUSH2 0x100 PUSH1 0x1 PUSH1 0xA8 SHL SUB NOT DUP2 AND SWAP1 SWAP2 SSTORE DUP2 SWAP1 PUSH1 0x8 SHR PUSH1 0x1 PUSH1 0x1 PUSH1 0xA0 SHL SUB AND PUSH32 0x8BE0079C531659141344CD1FD0A4F28419497F9722A3DAAFE3B4186F6B6457E0 DUP3 DUP1 LOG3 DUP1 RETURN JUMPDEST POP POP CALLVALUE PUSH2 0x2AE JUMPI PUSH1 0x20 CALLDATASIZE PUSH1 0x3 NOT ADD SLT PUSH2 0x2AE JUMPI PUSH1 0x20 SWAP2 DUP2 SWAP1 PUSH1 0x1 PUSH1 0x1 PUSH1 0xA0 SHL SUB PUSH2 0x659 PUSH2 0xD90 JUMP JUMPDEST AND DUP2 MSTORE PUSH1 0x7 DUP5 MSTORE KECCAK256 SLOAD SWAP1 MLOAD SWAP1 DUP2 MSTORE RETURN JUMPDEST POP POP CALLVALUE PUSH2 0x2AE JUMPI DUP2 PUSH1 0x3 NOT CALLDATASIZE ADD SLT PUSH2 0x2AE JUMPI PUSH1 0x20 SWAP1 PUSH1 0x2 SLOAD SWAP1 MLOAD SWAP1 DUP2 MSTORE RETURN JUMPDEST POP POP CALLVALUE PUSH2 0x2AE JUMPI DUP2 PUSH1 0x3 NOT CALLDATASIZE ADD SLT PUSH2 0x2AE JUMPI PUSH1 0x8 SLOAD SWAP1 MLOAD PUSH1 0x1 PUSH1 0x1 PUSH1 0xA0 SHL SUB SWAP1 SWAP2 AND DUP2 MSTORE PUSH1 0x20 SWAP1 RETURN JUMPDEST POP POP CALLVALUE PUSH2 0x2AE JUMPI DUP2 PUSH1 0x3 NOT CALLDATASIZE ADD SLT PUSH2 0x2AE JUMPI PUSH1 0x20 SWAP1 PUSH1 0xFF PUSH1 0x1 SLOAD AND SWAP1 MLOAD SWAP1 ISZERO ISZERO DUP2 MSTORE RETURN JUMPDEST POP SWAP1 CALLVALUE PUSH2 0x1F9 JUMPI DUP3 PUSH1 0x3 NOT CALLDATASIZE ADD SLT PUSH2 0x1F9 JUMPI PUSH2 0x6EF PUSH2 0xE51 JUMP JUMPDEST PUSH4 0xFFFFFFFF PUSH1 0x6 SLOAD AND ISZERO PUSH2 0x75D JUMPI JUMPDEST CALLER DUP4 MSTORE PUSH1 0x7 PUSH1 0x20 MSTORE PUSH1 0x1 DUP2 DUP5 KECCAK256 ADD SLOAD TIMESTAMP LT PUSH2 0x71F JUMPI DUP3 PUSH2 0x71C PUSH2 0x122D JUMP JUMPDEST DUP1 RETURN JUMPDEST SWAP1 PUSH1 0x20 PUSH1 0x64 SWAP3 MLOAD SWAP2 PUSH3 0x461BCD PUSH1 0xE5 SHL DUP4 MSTORE DUP3 ADD MSTORE PUSH1 0x18 PUSH1 0x24 DUP3 ADD MSTORE PUSH24 0x11585D195C8E8815995CDD1A5B99C81B9BDD08195B991959 PUSH1 0x42 SHL PUSH1 0x44 DUP3 ADD MSTORE REVERT JUMPDEST PUSH2 0x765 PUSH2 0x122D JUMP JUMPDEST PUSH2 0x6FE JUMP JUMPDEST POP SWAP2 SWAP1 CALLVALUE PUSH2 0x2AE JUMPI DUP2 PUSH1 0x3 NOT CALLDATASIZE ADD SLT PUSH2 0x2AE JUMPI PUSH2 0x785 PUSH2 0xDA6 JUMP JUMPDEST DUP3 SLOAD DUP2 MLOAD PUSH4 0x70A08231 PUSH1 0xE0 SHL DUP2 MSTORE ADDRESS DUP2 DUP7 ADD MSTORE SWAP4 PUSH1 0x20 SWAP3 SWAP2 PUSH1 0x1 PUSH1 0x1 PUSH1 0xA0 SHL SUB SWAP1 DUP2 AND SWAP2 SWAP1 DUP5 DUP8 PUSH1 0x24 DUP2 DUP7 GAS STATICCALL SWAP7 DUP8 ISZERO PUSH2 0x8B5 JUMPI DUP7 SWAP8 PUSH2 0x882 JUMPI JUMPDEST POP DUP7 ISZERO PUSH2 0x83F JUMPI PUSH1 0x1 SLOAD DUP5 MLOAD PUSH4 0xA9059CBB PUSH1 0xE0 SHL DUP2 MSTORE PUSH1 0x1 PUSH1 0x1 PUSH1 0xA0 SHL SUB PUSH1 0x8 SWAP3 SWAP1 SWAP3 SHR SWAP1 SWAP3 AND AND SWAP2 DUP2 ADD SWAP2 DUP3 MSTORE PUSH1 0x20 DUP3 ADD DUP8 SWAP1 MSTORE SWAP3 SWAP2 DUP5 SWAP2 DUP5 SWAP2 SWAP1 DUP3 SWAP1 DUP9 SWAP1 DUP3 SWAP1 PUSH1 0x40 ADD SUB SWAP3 GAS CALL SWAP1 DUP2 ISZERO PUSH2 0x836 JUMPI POP PUSH2 0x819 JUMPI DUP3 DUP1 RETURN JUMPDEST DUP2 PUSH2 0x82F SWAP3 SWAP1 RETURNDATASIZE LT PUSH2 0x488 JUMPI PUSH2 0x47C DUP2 DUP4 PUSH2 0xE01 JUMP JUMPDEST POP DUP2 DUP1 DUP3 DUP1 RETURN JUMPDEST MLOAD RETURNDATASIZE DUP6 DUP3 RETURNDATACOPY RETURNDATASIZE SWAP1 REVERT JUMPDEST DUP4 MLOAD PUSH3 0x461BCD PUSH1 0xE5 SHL DUP2 MSTORE DUP1 DUP4 ADD DUP7 SWAP1 MSTORE PUSH1 0x1A PUSH1 0x24 DUP3 ADD MSTORE PUSH32 0x45617465723A204E6F2062616C616E636520746F207377656570000000000000 PUSH1 0x44 DUP3 ADD MSTORE PUSH1 0x64 SWAP1 REVERT JUMPDEST SWAP1 SWAP7 POP DUP5 DUP2 DUP2 RETURNDATASIZE DUP4 GT PUSH2 0x8AE JUMPI JUMPDEST PUSH2 0x89A DUP2 DUP4 PUSH2 0xE01 JUMP JUMPDEST DUP2 ADD SUB SLT PUSH2 0x8AA JUMPI MLOAD SWAP6 CODESIZE PUSH2 0x7C0 JUMP JUMPDEST DUP6 DUP1 REVERT JUMPDEST POP RETURNDATASIZE PUSH2 0x890 JUMP JUMPDEST DUP5 MLOAD RETURNDATASIZE DUP9 DUP3 RETURNDATACOPY RETURNDATASIZE SWAP1 REVERT JUMPDEST POP SWAP1 CALLVALUE PUSH2 0x1F9 JUMPI PUSH1 0x20 CALLDATASIZE PUSH1 0x3 NOT ADD SLT PUSH2 0x1F9 JUMPI DUP2 CALLDATALOAD SWAP2 PUSH2 0x8DD PUSH2 0xDA6 JUMP JUMPDEST DUP3 ISZERO PUSH2 0x925 JUMPI POP DUP2 PUSH1 0x2 SLOAD SUB PUSH2 0x8F1 JUMPI DUP3 DUP1 RETURN JUMPDEST DUP2 PUSH1 0x20 SWAP2 PUSH32 0x595A30F13A69B616C4D568E2A2B7875FDFE86E4300A049953C76EE278F8F3F10 SWAP4 PUSH1 0x2 SSTORE MLOAD SWAP1 DUP2 MSTORE LOG1 CODESIZE DUP1 DUP3 DUP1 RETURN JUMPDEST PUSH1 0x20 PUSH1 0x84 SWAP3 MLOAD SWAP2 PUSH3 0x461BCD PUSH1 0xE5 SHL DUP4 MSTORE DUP3 ADD MSTORE PUSH1 0x22 PUSH1 0x24 DUP3 ADD MSTORE PUSH32 0x45617465723A2052617465206D7573742062652067726561746572207468616E PUSH1 0x44 DUP3 ADD MSTORE PUSH2 0x203 PUSH1 0xF4 SHL PUSH1 0x64 DUP3 ADD MSTORE REVERT JUMPDEST POP DUP3 CALLVALUE PUSH2 0x242 JUMPI PUSH1 0x20 CALLDATASIZE PUSH1 0x3 NOT ADD SLT PUSH2 0x242 JUMPI POP PUSH1 0x20 PUSH1 0x64 SWAP3 PUSH2 0x993 PUSH2 0xE51 JUMP JUMPDEST MLOAD PUSH3 0x461BCD PUSH1 0xE5 SHL DUP2 MSTORE SWAP2 DUP3 ADD MSTORE PUSH1 0x11 PUSH1 0x24 DUP3 ADD MSTORE PUSH17 0x119D5B98DD1A5BDB88191A5CD8589B1959 PUSH1 0x7A SHL PUSH1 0x44 DUP3 ADD MSTORE REVERT JUMPDEST POP POP CALLVALUE PUSH2 0x2AE JUMPI DUP2 PUSH1 0x3 NOT CALLDATASIZE ADD SLT PUSH2 0x2AE JUMPI PUSH1 0x3 SLOAD SWAP1 MLOAD PUSH1 0x1 PUSH1 0x1 PUSH1 0xA0 SHL SUB SWAP1 SWAP2 AND DUP2 MSTORE PUSH1 0x20 SWAP1 RETURN JUMPDEST POP SWAP1 CALLVALUE PUSH2 0x1F9 JUMPI PUSH1 0x60 CALLDATASIZE PUSH1 0x3 NOT ADD SLT PUSH2 0x1F9 JUMPI PUSH1 0x1 PUSH1 0x1 PUSH1 0xA0 SHL SUB SWAP1 PUSH1 0x24 DUP1 CALLDATALOAD DUP4 DUP2 AND SWAP1 DUP6 CALLDATALOAD SWAP1 DUP3 SWAP1 SUB PUSH2 0xD37 JUMPI PUSH1 0x44 CALLDATALOAD PUSH8 0xFFFFFFFFFFFFFFFF DUP2 GT PUSH2 0xD33 JUMPI PUSH2 0xA3A SWAP1 CALLDATASIZE SWAP1 DUP9 ADD PUSH2 0xD5D JUMP JUMPDEST PUSH2 0xA45 SWAP8 SWAP2 SWAP8 PUSH2 0xE95 JUMP JUMPDEST PUSH2 0xA4D PUSH2 0xE51 JUMP JUMPDEST PUSH2 0xA83 PUSH2 0xA5C PUSH1 0x2 SLOAD DUP6 PUSH2 0xEEB JUMP JUMPDEST PUSH32 0x0 SWAP1 PUSH2 0xF14 JUMP JUMPDEST SWAP8 DUP8 DUP4 SLOAD AND DUP8 MLOAD DUP1 SWAP11 PUSH4 0x70A08231 PUSH1 0xE0 SHL SWAP3 DUP4 DUP4 MSTORE ADDRESS DUP8 DUP5 ADD MSTORE DUP3 DUP11 PUSH1 0x20 SWAP15 DUP16 SWAP4 GAS STATICCALL SWAP2 DUP3 ISZERO PUSH2 0xD29 JUMPI DUP14 SWAP3 PUSH2 0xCF4 JUMPI JUMPDEST POP PUSH2 0xAC1 SWAP1 PUSH1 0x5 SLOAD PUSH2 0xF34 JUMP JUMPDEST GT PUSH2 0xCB4 JUMPI DUP9 PUSH1 0x3 SLOAD AND SWAP1 DUP9 MLOAD SWAP1 DUP2 MSTORE CALLER DUP6 DUP3 ADD MSTORE DUP11 DUP2 DUP10 DUP2 DUP6 GAS STATICCALL SWAP1 DUP2 ISZERO PUSH2 0xCAA JUMPI SWAP1 DUP7 SWAP2 DUP14 SWAP2 PUSH2 0xC75 JUMPI JUMPDEST POP LT PUSH2 0xC1E JUMPI SWAP1 PUSH2 0xB04 DUP12 SWAP5 SWAP4 SWAP3 CALLER SWAP1 DUP8 PUSH2 0xF41 JUMP JUMPDEST PUSH1 0x3 SLOAD DUP9 MLOAD PUSH4 0x95EA7B3 PUSH1 0xE0 SHL DUP2 MSTORE PUSH1 0x1 PUSH1 0x1 PUSH1 0xA0 SHL SUB DUP9 AND DUP6 DUP3 ADD SWAP1 DUP2 MSTORE PUSH1 0x20 DUP2 ADD DUP9 SWAP1 MSTORE SWAP1 SWAP2 DUP13 SWAP2 DUP4 SWAP2 DUP14 AND SWAP1 DUP3 SWAP1 DUP10 SWAP1 DUP3 SWAP1 PUSH1 0x40 ADD SUB SWAP3 GAS CALL DUP1 ISZERO PUSH2 0xC14 JUMPI SWAP3 DUP12 SWAP9 SWAP8 SWAP7 SWAP6 SWAP5 SWAP3 DUP2 SWAP3 PUSH1 0xA4 SWAP6 PUSH2 0xBF7 JUMPI JUMPDEST POP PUSH1 0x8 SLOAD DUP13 AND DUP1 PUSH2 0xBF1 JUMPI POP ADDRESS SWAP12 JUMPDEST DUP1 PUSH1 0x3 SLOAD AND SWAP13 DUP13 MLOAD SWAP14 DUP15 SWAP12 DUP13 SWAP11 DUP12 SWAP9 PUSH4 0x2454B71 PUSH1 0xE4 SHL DUP11 MSTORE DUP10 ADD MSTORE DUP8 ADD MSTORE AND PUSH1 0x44 DUP6 ADD MSTORE PUSH1 0x80 PUSH1 0x64 DUP6 ADD MSTORE DUP2 PUSH1 0x84 DUP6 ADD MSTORE DUP5 DUP5 ADD CALLDATACOPY DUP2 DUP2 ADD DUP4 ADD DUP5 SWAP1 MSTORE PUSH1 0x1F ADD PUSH1 0x1F NOT AND DUP2 ADD SUB ADD SWAP3 GAS CALL SWAP1 DUP2 ISZERO PUSH2 0x836 JUMPI POP PUSH2 0xBC8 JUMPI JUMPDEST DUP3 PUSH1 0x1 DUP2 SSTORE DUP1 RETURN JUMPDEST DUP2 RETURNDATASIZE DUP4 GT PUSH2 0xBEA JUMPI JUMPDEST PUSH2 0xBDB DUP2 DUP4 PUSH2 0xE01 JUMP JUMPDEST DUP2 ADD SUB SLT PUSH2 0x242 JUMPI CODESIZE DUP1 PUSH2 0xBC0 JUMP JUMPDEST POP RETURNDATASIZE PUSH2 0xBD1 JUMP JUMPDEST SWAP12 PUSH2 0xB67 JUMP JUMPDEST PUSH2 0xC0D SWAP1 DUP12 RETURNDATASIZE DUP14 GT PUSH2 0x488 JUMPI PUSH2 0x47C DUP2 DUP4 PUSH2 0xE01 JUMP JUMPDEST POP CODESIZE PUSH2 0xB58 JUMP JUMPDEST DUP10 MLOAD RETURNDATASIZE DUP8 DUP3 RETURNDATACOPY RETURNDATASIZE SWAP1 REVERT JUMPDEST DUP8 MLOAD PUSH3 0x461BCD PUSH1 0xE5 SHL DUP2 MSTORE DUP1 DUP6 ADD DUP12 SWAP1 MSTORE PUSH1 0x2C DUP2 DUP10 ADD MSTORE PUSH32 0x4D65726765576974684D61726B65743A20496E73756666696369656E74206261 PUSH1 0x44 DUP3 ADD MSTORE PUSH12 0x1B185B98D9481D1BC819585D PUSH1 0xA2 SHL PUSH1 0x64 DUP3 ADD MSTORE PUSH1 0x84 SWAP1 REVERT JUMPDEST DUP1 SWAP3 POP DUP13 DUP1 SWAP3 POP RETURNDATASIZE DUP4 GT PUSH2 0xCA3 JUMPI JUMPDEST PUSH2 0xC8E DUP2 DUP4 PUSH2 0xE01 JUMP JUMPDEST DUP2 ADD SUB SLT PUSH2 0xC9F JUMPI DUP6 SWAP1 MLOAD CODESIZE PUSH2 0xAEE JUMP JUMPDEST DUP12 DUP1 REVERT JUMPDEST POP RETURNDATASIZE PUSH2 0xC84 JUMP JUMPDEST DUP10 MLOAD RETURNDATASIZE DUP15 DUP3 RETURNDATACOPY RETURNDATASIZE SWAP1 REVERT JUMPDEST PUSH1 0x64 DUP5 DUP12 DUP10 DUP2 DUP13 MLOAD SWAP4 PUSH3 0x461BCD PUSH1 0xE5 SHL DUP6 MSTORE DUP5 ADD MSTORE DUP3 ADD MSTORE PUSH32 0x45617465723A20496E73756666696369656E7420576577652062616C616E6365 PUSH1 0x44 DUP3 ADD MSTORE REVERT JUMPDEST SWAP1 SWAP2 POP DUP12 DUP2 DUP2 RETURNDATASIZE DUP4 GT PUSH2 0xD22 JUMPI JUMPDEST PUSH2 0xD0C DUP2 DUP4 PUSH2 0xE01 JUMP JUMPDEST DUP2 ADD SUB SLT PUSH2 0xD1E JUMPI MLOAD SWAP1 PUSH2 0xAC1 PUSH2 0xAB4 JUMP JUMPDEST DUP13 DUP1 REVERT JUMPDEST POP RETURNDATASIZE PUSH2 0xD02 JUMP JUMPDEST DUP11 MLOAD RETURNDATASIZE DUP16 DUP3 RETURNDATACOPY RETURNDATASIZE SWAP1 REVERT JUMPDEST DUP8 DUP1 REVERT JUMPDEST DUP7 DUP1 REVERT JUMPDEST DUP5 SWAP1 CALLVALUE PUSH2 0x2AE JUMPI DUP2 PUSH1 0x3 NOT CALLDATASIZE ADD SLT PUSH2 0x2AE JUMPI PUSH1 0x20 SWAP1 PUSH4 0xFFFFFFFF PUSH1 0x6 SLOAD AND DUP2 MSTORE RETURN JUMPDEST SWAP2 DUP2 PUSH1 0x1F DUP5 ADD SLT ISZERO PUSH2 0xD8B JUMPI DUP3 CALLDATALOAD SWAP2 PUSH8 0xFFFFFFFFFFFFFFFF DUP4 GT PUSH2 0xD8B JUMPI PUSH1 0x20 DUP4 DUP2 DUP7 ADD SWAP6 ADD ADD GT PUSH2 0xD8B JUMPI JUMP JUMPDEST PUSH1 0x0 DUP1 REVERT JUMPDEST PUSH1 0x4 CALLDATALOAD SWAP1 PUSH1 0x1 PUSH1 0x1 PUSH1 0xA0 SHL SUB DUP3 AND DUP3 SUB PUSH2 0xD8B JUMPI JUMP JUMPDEST PUSH1 0x1 SLOAD PUSH1 0x8 SHR PUSH1 0x1 PUSH1 0x1 PUSH1 0xA0 SHL SUB AND CALLER SUB PUSH2 0xDBD JUMPI JUMP JUMPDEST PUSH1 0x64 PUSH1 0x40 MLOAD PUSH3 0x461BCD PUSH1 0xE5 SHL DUP2 MSTORE PUSH1 0x20 PUSH1 0x4 DUP3 ADD MSTORE PUSH1 0x20 PUSH1 0x24 DUP3 ADD MSTORE PUSH32 0x4F776E61626C653A2063616C6C6572206973206E6F7420746865206F776E6572 PUSH1 0x44 DUP3 ADD MSTORE REVERT JUMPDEST SWAP1 PUSH1 0x1F DUP1 NOT SWAP2 ADD AND DUP2 ADD SWAP1 DUP2 LT PUSH8 0xFFFFFFFFFFFFFFFF DUP3 GT OR PUSH2 0xE23 JUMPI PUSH1 0x40 MSTORE JUMP JUMPDEST PUSH4 0x4E487B71 PUSH1 0xE0 SHL PUSH1 0x0 MSTORE PUSH1 0x41 PUSH1 0x4 MSTORE PUSH1 0x24 PUSH1 0x0 REVERT JUMPDEST SWAP1 DUP2 PUSH1 0x20 SWAP2 SUB SLT PUSH2 0xD8B JUMPI MLOAD DUP1 ISZERO ISZERO DUP2 SUB PUSH2 0xD8B JUMPI SWAP1 JUMP JUMPDEST PUSH1 0xFF PUSH1 0x1 SLOAD AND PUSH2 0xE5D JUMPI JUMP JUMPDEST PUSH1 0x40 MLOAD PUSH3 0x461BCD PUSH1 0xE5 SHL DUP2 MSTORE PUSH1 0x20 PUSH1 0x4 DUP3 ADD MSTORE PUSH1 0x10 PUSH1 0x24 DUP3 ADD MSTORE PUSH16 0x14185D5CD8589B194E881C185D5CD959 PUSH1 0x82 SHL PUSH1 0x44 DUP3 ADD MSTORE PUSH1 0x64 SWAP1 REVERT JUMPDEST PUSH1 0x2 PUSH1 0x0 SLOAD EQ PUSH2 0xEA6 JUMPI PUSH1 0x2 PUSH1 0x0 SSTORE JUMP JUMPDEST PUSH1 0x40 MLOAD PUSH3 0x461BCD PUSH1 0xE5 SHL DUP2 MSTORE PUSH1 0x20 PUSH1 0x4 DUP3 ADD MSTORE PUSH1 0x1F PUSH1 0x24 DUP3 ADD MSTORE PUSH32 0x5265656E7472616E637947756172643A207265656E7472616E742063616C6C00 PUSH1 0x44 DUP3 ADD MSTORE PUSH1 0x64 SWAP1 REVERT JUMPDEST DUP2 DUP2 MUL SWAP3 SWAP2 DUP2 ISZERO SWAP2 DUP5 DIV EQ OR ISZERO PUSH2 0xEFE JUMPI JUMP JUMPDEST PUSH4 0x4E487B71 PUSH1 0xE0 SHL PUSH1 0x0 MSTORE PUSH1 0x11 PUSH1 0x4 MSTORE PUSH1 0x24 PUSH1 0x0 REVERT JUMPDEST DUP2 ISZERO PUSH2 0xF1E JUMPI DIV SWAP1 JUMP JUMPDEST PUSH4 0x4E487B71 PUSH1 0xE0 SHL PUSH1 0x0 MSTORE PUSH1 0x12 PUSH1 0x4 MSTORE PUSH1 0x24 PUSH1 0x0 REVERT JUMPDEST SWAP2 SWAP1 DUP3 ADD DUP1 SWAP3 GT PUSH2 0xEFE JUMPI JUMP JUMPDEST SWAP1 SWAP3 SWAP2 PUSH2 0xF53 PUSH2 0xA5C PUSH1 0x2 SLOAD DUP5 PUSH2 0xEEB JUMP JUMPDEST SWAP2 PUSH2 0xF60 DUP4 PUSH1 0x5 SLOAD PUSH2 0xF34 JUMP JUMPDEST PUSH1 0x5 SSTORE PUSH1 0x1 DUP1 PUSH1 0xA0 SHL SUB SWAP5 PUSH1 0x4 DUP7 DUP2 SLOAD AND SWAP4 PUSH1 0x40 SWAP3 DUP4 MLOAD DUP1 SWAP7 PUSH4 0x70A08231 PUSH1 0xE0 SHL DUP3 MSTORE ADDRESS DUP6 DUP4 ADD MSTORE DUP2 PUSH1 0x24 PUSH1 0x20 SWAP10 DUP11 SWAP4 GAS STATICCALL SWAP1 DUP2 ISZERO PUSH2 0x1222 JUMPI PUSH1 0x0 SWAP2 PUSH2 0x11F5 JUMPI JUMPDEST POP DUP8 GT PUSH2 0x119C JUMPI DUP4 MLOAD PUSH4 0x23B872DD PUSH1 0xE0 SHL DUP2 MSTORE PUSH1 0x1 PUSH1 0x1 PUSH1 0xA0 SHL SUB DUP4 AND DUP5 DUP3 ADD SWAP1 DUP2 MSTORE ADDRESS PUSH1 0x20 DUP3 ADD MSTORE PUSH1 0x40 DUP2 ADD DUP8 SWAP1 MSTORE SWAP1 SWAP2 DUP8 SWAP2 DUP4 SWAP2 SWAP1 DUP3 SWAP1 SUB PUSH1 0x60 ADD SWAP1 DUP3 SWAP1 PUSH1 0x0 SWAP1 DUP15 AND GAS CALL DUP1 ISZERO PUSH2 0x1191 JUMPI PUSH2 0x1174 JUMPI JUMPDEST POP DUP8 DUP2 AND SWAP6 DUP7 PUSH1 0x0 MSTORE PUSH1 0x7 DUP7 MSTORE DUP4 PUSH1 0x0 KECCAK256 SLOAD SWAP2 PUSH4 0xFFFFFFFF SWAP10 DUP11 PUSH1 0x6 SLOAD AND ISZERO ISZERO PUSH1 0x0 EQ PUSH2 0x10D7 JUMPI POP POP SWAP1 PUSH2 0x1026 SWAP2 PUSH2 0xF34 JUMP JUMPDEST SWAP7 PUSH1 0x3C DUP2 PUSH1 0x6 SLOAD AND MUL SWAP1 DUP2 AND SWAP1 DUP2 SUB PUSH2 0x10C2 JUMPI PUSH2 0x1043 SWAP1 TIMESTAMP PUSH2 0xF34 JUMP JUMPDEST SWAP7 DUP3 MLOAD SWAP2 DUP4 DUP4 ADD SWAP1 DUP4 DUP3 LT PUSH8 0xFFFFFFFFFFFFFFFF DUP4 GT OR PUSH2 0x10AD JUMPI POP SWAP8 PUSH1 0x1 SWAP2 PUSH32 0xADC41BA80FFA0859AAB1D7CF405A6633A6AF94FC3D10E5B0E0BF46CDCC0FD9C8 SWAP8 SWAP9 SWAP10 DUP6 MSTORE DUP4 MSTORE DUP6 DUP4 ADD SWAP1 DUP2 MSTORE CALLER PUSH1 0x0 MSTORE PUSH1 0x7 DUP7 MSTORE DUP4 PUSH1 0x0 KECCAK256 SWAP3 MLOAD DUP4 SSTORE MLOAD SWAP2 ADD SSTORE JUMPDEST MLOAD SWAP1 DUP2 MSTORE LOG2 JUMP JUMPDEST PUSH1 0x41 SWAP1 PUSH4 0x4E487B71 PUSH1 0xE0 SHL PUSH1 0x0 MSTORE MSTORE PUSH1 0x24 PUSH1 0x0 REVERT JUMPDEST PUSH1 0x11 DUP3 PUSH4 0x4E487B71 PUSH1 0xE0 SHL PUSH1 0x0 MSTORE MSTORE PUSH1 0x24 PUSH1 0x0 REVERT JUMPDEST DUP5 SLOAD DUP7 MLOAD PUSH4 0xA9059CBB PUSH1 0xE0 SHL DUP2 MSTORE PUSH1 0x1 PUSH1 0x1 PUSH1 0xA0 SHL SUB SWAP4 SWAP1 SWAP4 AND SWAP6 DUP4 ADD SWAP6 DUP7 MSTORE PUSH1 0x20 DUP7 ADD SWAP4 SWAP1 SWAP4 MSTORE SWAP1 SWAP10 POP DUP7 SWAP4 DUP11 SWAP4 POP DUP4 SWAP1 SUB PUSH1 0x40 ADD SWAP2 DUP4 SWAP2 PUSH1 0x0 SWAP2 AND GAS CALL SWAP6 DUP7 ISZERO PUSH2 0x1169 JUMPI PUSH32 0xADC41BA80FFA0859AAB1D7CF405A6633A6AF94FC3D10E5B0E0BF46CDCC0FD9C8 SWAP5 SWAP6 SWAP7 PUSH2 0x114C JUMPI JUMPDEST POP PUSH2 0x10A6 JUMP JUMPDEST PUSH2 0x1162 SWAP1 DUP5 RETURNDATASIZE DUP7 GT PUSH2 0x488 JUMPI PUSH2 0x47C DUP2 DUP4 PUSH2 0xE01 JUMP JUMPDEST POP CODESIZE PUSH2 0x1146 JUMP JUMPDEST POP MLOAD RETURNDATASIZE PUSH1 0x0 DUP3 RETURNDATACOPY RETURNDATASIZE SWAP1 REVERT JUMPDEST PUSH2 0x118A SWAP1 DUP7 RETURNDATASIZE DUP9 GT PUSH2 0x488 JUMPI PUSH2 0x47C DUP2 DUP4 PUSH2 0xE01 JUMP JUMPDEST POP CODESIZE PUSH2 0xFF3 JUMP JUMPDEST DUP5 MLOAD RETURNDATASIZE PUSH1 0x0 DUP3 RETURNDATACOPY RETURNDATASIZE SWAP1 REVERT JUMPDEST DUP4 MLOAD PUSH3 0x461BCD PUSH1 0xE5 SHL DUP2 MSTORE DUP1 DUP5 ADD DUP8 SWAP1 MSTORE PUSH1 0x2D PUSH1 0x24 DUP3 ADD MSTORE PUSH32 0x45617465723A20496E73756666696369656E7420746F6B656E2062616C616E63 PUSH1 0x44 DUP3 ADD MSTORE PUSH13 0x32903A37903A3930B739B332B9 PUSH1 0x99 SHL PUSH1 0x64 DUP3 ADD MSTORE PUSH1 0x84 SWAP1 REVERT JUMPDEST SWAP1 DUP8 DUP3 DUP2 RETURNDATASIZE DUP4 GT PUSH2 0x121B JUMPI JUMPDEST PUSH2 0x120B DUP2 DUP4 PUSH2 0xE01 JUMP JUMPDEST DUP2 ADD SUB SLT PUSH2 0x242 JUMPI POP MLOAD CODESIZE PUSH2 0xFA1 JUMP JUMPDEST POP RETURNDATASIZE PUSH2 0x1201 JUMP JUMPDEST DUP6 MLOAD RETURNDATASIZE PUSH1 0x0 DUP3 RETURNDATACOPY RETURNDATASIZE SWAP1 REVERT JUMPDEST PUSH1 0x0 CALLER DUP2 MSTORE PUSH1 0x7 PUSH1 0x20 MSTORE PUSH1 0x40 DUP2 KECCAK256 SLOAD PUSH1 0x5 SLOAD DUP2 DUP2 SUB SWAP1 DUP2 GT PUSH2 0x12CA JUMPI PUSH1 0x5 SSTORE CALLER DUP1 DUP4 MSTORE PUSH1 0x7 PUSH1 0x20 SWAP1 DUP2 MSTORE PUSH1 0x40 DUP1 DUP6 KECCAK256 DUP6 SWAP1 SSTORE PUSH1 0x4 DUP1 SLOAD SWAP2 MLOAD PUSH4 0xA9059CBB PUSH1 0xE0 SHL DUP2 MSTORE SWAP1 DUP2 ADD SWAP4 SWAP1 SWAP4 MSTORE PUSH1 0x24 DUP4 ADD SWAP4 SWAP1 SWAP4 MSTORE SWAP1 SWAP3 SWAP2 DUP4 SWAP1 PUSH1 0x44 SWAP1 DUP3 SWAP1 DUP6 SWAP1 PUSH1 0x1 PUSH1 0x1 PUSH1 0xA0 SHL SUB AND GAS CALL SWAP1 DUP2 ISZERO PUSH2 0x12BE JUMPI POP PUSH2 0x12A4 JUMPI POP JUMP JUMPDEST PUSH2 0x12BB SWAP1 PUSH1 0x20 RETURNDATASIZE DUP2 GT PUSH2 0x488 JUMPI PUSH2 0x47C DUP2 DUP4 PUSH2 0xE01 JUMP JUMPDEST POP JUMP JUMPDEST PUSH1 0x40 MLOAD SWAP1 RETURNDATASIZE SWAP1 DUP3 RETURNDATACOPY RETURNDATASIZE SWAP1 REVERT JUMPDEST PUSH4 0x4E487B71 PUSH1 0xE0 SHL DUP4 MSTORE PUSH1 0x11 PUSH1 0x4 MSTORE PUSH1 0x24 DUP4 REVERT INVALID LOG2 PUSH5 0x6970667358 0x22 SLT KECCAK256 0x4F DUP12 0xD7 REVERT SWAP4 0xF9 PUSH16 0xE7DFF4F75A35968B5E3D9F0CBB2AA87E 0xF7 PUSH7 0xAAFE23934F3F3A PUSH5 0x736F6C6343 STOP ADDMOD SGT STOP CALLER "
        },
        "methodIdentifiers": {
          "balanceOf(address)": "70a08231",
          "canClaim(address)": "bf3506c1",
          "claim()": "4e71d92d",
          "deposit(uint256)": "b6b55f25",
          "getRate()": "679aefce",
          "getToken()": "21df0da7",
          "merge(uint256)": "24a47aeb",
          "mergeAndSell(uint256,address,bytes)": "213897fe",
          "owner()": "8da5cb5b",
          "paused()": "5c975abb",
          "receiveApproval(address,uint256,address,bytes)": "8f4ffcb1",
          "renounceOwnership()": "715018a6",
          "setRate(uint256)": "34fcf437",
          "setTreasury(address)": "f0f44260",
          "setVestingDuration(uint32)": "9636d881",
          "sumOfVested()": "cdb2aeab",
          "sweep()": "35faa416",
          "togglePause()": "c4ae3168",
          "transferOwnership(address)": "f2fde38b",
          "treasury()": "61d027b3",
          "vestingDuration()": "1514617e",
          "vestings(address)": "daf49863",
          "wewe()": "e1f26f22"
        }
      }
    }
  }
}