{
  "contracts/core/merge/DynamicEater.sol": {
    "DynamicEater": {
      "abi": [
        {
          "inputs": [
            {
              "internalType": "address",
              "name": "_wewe",
              "type": "address"
            },
            {
              "internalType": "address",
              "name": "_token",
              "type": "address"
            },
            {
              "internalType": "uint32",
              "name": "_vestingDuration",
              "type": "uint32"
            },
            {
              "internalType": "uint256",
              "name": "_virtualFOMO",
              "type": "uint256"
            },
            {
              "internalType": "uint256",
              "name": "_virtualWEWE",
              "type": "uint256"
            }
          ],
          "stateMutability": "nonpayable",
          "type": "constructor"
        },
        {
          "anonymous": false,
          "inputs": [
            {
              "indexed": false,
              "internalType": "uint256",
              "name": "amount",
              "type": "uint256"
            },
            {
              "indexed": true,
              "internalType": "address",
              "name": "account",
              "type": "address"
            },
            {
              "indexed": false,
              "internalType": "uint256",
              "name": "weweAmount",
              "type": "uint256"
            }
          ],
          "name": "Merged",
          "type": "event"
        },
        {
          "anonymous": false,
          "inputs": [
            {
              "indexed": true,
              "internalType": "address",
              "name": "previousOwner",
              "type": "address"
            },
            {
              "indexed": true,
              "internalType": "address",
              "name": "newOwner",
              "type": "address"
            }
          ],
          "name": "OwnershipTransferred",
          "type": "event"
        },
        {
          "anonymous": false,
          "inputs": [
            {
              "indexed": false,
              "internalType": "address",
              "name": "account",
              "type": "address"
            }
          ],
          "name": "Paused",
          "type": "event"
        },
        {
          "anonymous": false,
          "inputs": [
            {
              "indexed": false,
              "internalType": "uint256",
              "name": "newRate",
              "type": "uint256"
            }
          ],
          "name": "RateChanged",
          "type": "event"
        },
        {
          "anonymous": false,
          "inputs": [
            {
              "indexed": false,
              "internalType": "address",
              "name": "account",
              "type": "address"
            }
          ],
          "name": "Unpaused",
          "type": "event"
        },
        {
          "inputs": [
            {
              "internalType": "address",
              "name": "account",
              "type": "address"
            },
            {
              "internalType": "bool",
              "name": "status",
              "type": "bool"
            }
          ],
          "name": "addWhiteList",
          "outputs": [],
          "stateMutability": "nonpayable",
          "type": "function"
        },
        {
          "inputs": [
            {
              "internalType": "address",
              "name": "account",
              "type": "address"
            }
          ],
          "name": "balanceOf",
          "outputs": [
            {
              "internalType": "uint256",
              "name": "",
              "type": "uint256"
            }
          ],
          "stateMutability": "view",
          "type": "function"
        },
        {
          "inputs": [
            {
              "internalType": "uint256",
              "name": "x",
              "type": "uint256"
            }
          ],
          "name": "calculateTokensOut",
          "outputs": [
            {
              "internalType": "uint256",
              "name": "",
              "type": "uint256"
            }
          ],
          "stateMutability": "view",
          "type": "function"
        },
        {
          "inputs": [
            {
              "internalType": "address",
              "name": "account",
              "type": "address"
            }
          ],
          "name": "canClaim",
          "outputs": [
            {
              "internalType": "bool",
              "name": "",
              "type": "bool"
            }
          ],
          "stateMutability": "view",
          "type": "function"
        },
        {
          "inputs": [],
          "name": "claim",
          "outputs": [],
          "stateMutability": "nonpayable",
          "type": "function"
        },
        {
          "inputs": [
            {
              "internalType": "uint256",
              "name": "amount",
              "type": "uint256"
            }
          ],
          "name": "deposit",
          "outputs": [],
          "stateMutability": "nonpayable",
          "type": "function"
        },
        {
          "inputs": [],
          "name": "getCurrentPrice",
          "outputs": [
            {
              "internalType": "uint256",
              "name": "",
              "type": "uint256"
            }
          ],
          "stateMutability": "view",
          "type": "function"
        },
        {
          "inputs": [],
          "name": "getRate",
          "outputs": [
            {
              "internalType": "uint256",
              "name": "",
              "type": "uint256"
            }
          ],
          "stateMutability": "view",
          "type": "function"
        },
        {
          "inputs": [],
          "name": "getToken",
          "outputs": [
            {
              "internalType": "address",
              "name": "",
              "type": "address"
            }
          ],
          "stateMutability": "view",
          "type": "function"
        },
        {
          "inputs": [],
          "name": "maxSupply",
          "outputs": [
            {
              "internalType": "uint256",
              "name": "",
              "type": "uint256"
            }
          ],
          "stateMutability": "view",
          "type": "function"
        },
        {
          "inputs": [
            {
              "internalType": "uint256",
              "name": "amount",
              "type": "uint256"
            }
          ],
          "name": "merge",
          "outputs": [
            {
              "internalType": "uint256",
              "name": "",
              "type": "uint256"
            }
          ],
          "stateMutability": "nonpayable",
          "type": "function"
        },
        {
          "inputs": [],
          "name": "mergeAll",
          "outputs": [
            {
              "internalType": "uint256",
              "name": "",
              "type": "uint256"
            }
          ],
          "stateMutability": "nonpayable",
          "type": "function"
        },
        {
          "inputs": [
            {
              "internalType": "uint256",
              "name": "amount",
              "type": "uint256"
            },
            {
              "internalType": "contract IAMM",
              "name": "amm",
              "type": "address"
            },
            {
              "internalType": "bytes",
              "name": "extraData",
              "type": "bytes"
            }
          ],
          "name": "mergeAndSell",
          "outputs": [],
          "stateMutability": "nonpayable",
          "type": "function"
        },
        {
          "inputs": [],
          "name": "owner",
          "outputs": [
            {
              "internalType": "address",
              "name": "",
              "type": "address"
            }
          ],
          "stateMutability": "view",
          "type": "function"
        },
        {
          "inputs": [],
          "name": "paused",
          "outputs": [
            {
              "internalType": "bool",
              "name": "",
              "type": "bool"
            }
          ],
          "stateMutability": "view",
          "type": "function"
        },
        {
          "inputs": [
            {
              "internalType": "address",
              "name": "from",
              "type": "address"
            },
            {
              "internalType": "uint256",
              "name": "amount",
              "type": "uint256"
            },
            {
              "internalType": "address",
              "name": "",
              "type": "address"
            },
            {
              "internalType": "bytes",
              "name": "",
              "type": "bytes"
            }
          ],
          "name": "receiveApproval",
          "outputs": [],
          "stateMutability": "nonpayable",
          "type": "function"
        },
        {
          "inputs": [],
          "name": "renounceOwnership",
          "outputs": [],
          "stateMutability": "nonpayable",
          "type": "function"
        },
        {
          "inputs": [
            {
              "internalType": "address",
              "name": "_treasury",
              "type": "address"
            }
          ],
          "name": "setTreasury",
          "outputs": [],
          "stateMutability": "nonpayable",
          "type": "function"
        },
        {
          "inputs": [
            {
              "internalType": "uint32",
              "name": "duration",
              "type": "uint32"
            }
          ],
          "name": "setVestingDuration",
          "outputs": [],
          "stateMutability": "nonpayable",
          "type": "function"
        },
        {
          "inputs": [
            {
              "internalType": "uint256",
              "name": "value",
              "type": "uint256"
            }
          ],
          "name": "setVirtualTokenBalance",
          "outputs": [],
          "stateMutability": "nonpayable",
          "type": "function"
        },
        {
          "inputs": [
            {
              "internalType": "uint256",
              "name": "value",
              "type": "uint256"
            }
          ],
          "name": "setVirtualWeWEBalance",
          "outputs": [],
          "stateMutability": "nonpayable",
          "type": "function"
        },
        {
          "inputs": [],
          "name": "sweep",
          "outputs": [],
          "stateMutability": "nonpayable",
          "type": "function"
        },
        {
          "inputs": [],
          "name": "togglePause",
          "outputs": [],
          "stateMutability": "nonpayable",
          "type": "function"
        },
        {
          "inputs": [],
          "name": "totalVested",
          "outputs": [
            {
              "internalType": "uint256",
              "name": "",
              "type": "uint256"
            }
          ],
          "stateMutability": "view",
          "type": "function"
        },
        {
          "inputs": [
            {
              "internalType": "address",
              "name": "newOwner",
              "type": "address"
            }
          ],
          "name": "transferOwnership",
          "outputs": [],
          "stateMutability": "nonpayable",
          "type": "function"
        },
        {
          "inputs": [],
          "name": "treasury",
          "outputs": [
            {
              "internalType": "address",
              "name": "",
              "type": "address"
            }
          ],
          "stateMutability": "view",
          "type": "function"
        },
        {
          "inputs": [],
          "name": "vestingDuration",
          "outputs": [
            {
              "internalType": "uint32",
              "name": "",
              "type": "uint32"
            }
          ],
          "stateMutability": "view",
          "type": "function"
        },
        {
          "inputs": [
            {
              "internalType": "address",
              "name": "",
              "type": "address"
            }
          ],
          "name": "vestings",
          "outputs": [
            {
              "internalType": "uint256",
              "name": "amount",
              "type": "uint256"
            },
            {
              "internalType": "uint256",
              "name": "end",
              "type": "uint256"
            }
          ],
          "stateMutability": "view",
          "type": "function"
        },
        {
          "inputs": [],
          "name": "virtualFOMO",
          "outputs": [
            {
              "internalType": "uint256",
              "name": "",
              "type": "uint256"
            }
          ],
          "stateMutability": "view",
          "type": "function"
        },
        {
          "inputs": [],
          "name": "virtualWEWE",
          "outputs": [
            {
              "internalType": "uint256",
              "name": "",
              "type": "uint256"
            }
          ],
          "stateMutability": "view",
          "type": "function"
        },
        {
          "inputs": [],
          "name": "wewe",
          "outputs": [
            {
              "internalType": "address",
              "name": "",
              "type": "address"
            }
          ],
          "stateMutability": "view",
          "type": "function"
        },
        {
          "inputs": [
            {
              "internalType": "address",
              "name": "",
              "type": "address"
            }
          ],
          "name": "whiteList",
          "outputs": [
            {
              "internalType": "bool",
              "name": "",
              "type": "bool"
            }
          ],
          "stateMutability": "view",
          "type": "function"
        }
      ],
      "evm": {
        "bytecode": {
          "linkReferences": {},
          "object": "608060409080825234620002ae5760a08162001afc8038038091620000258285620002b3565b833981010312620002ae576200003b81620002ed565b906020906200004c828201620002ed565b92848201519263ffffffff8416809403620002ae576060830151608090930151600160008181558154610100600160a81b0333600881811b929092166001600160a81b03198416179094558a51949997988998939790946001600160a01b03949385931c83167f8be0079c531659141344cd1fd0a4f28419497f9722a3daafe3b4186f6b6457e08a80a31693841562000261575016918215620002115791839291816004959360018060a01b031990816003541617600355600254161760025563ffffffff19600854161760085588519384809263313ce56760e01b82525afa90811562000207578391620001c3575b5060ff9150166012811062000163575b505050600b55600c55516117f99081620003038239f35b9091925060120360128111620001af57604d8111620001af57600a0a918281029281840414901517156200019b57503880806200014c565b634e487b7160e01b81526011600452602490fd5b634e487b7160e01b82526011600452602482fd5b905081813d8311620001ff575b620001dc8183620002b3565b81010312620001fb575160ff81168103620001fb5760ff90386200013c565b5080fd5b503d620001d0565b87513d85823e3d90fd5b885162461bcd60e51b815260048101859052602360248201527f44796e616d696345617465723a20496e76616c696420746f6b656e206164647260448201526265737360e81b6064820152608490fd5b62461bcd60e51b815260048101869052602260248201527f44796e616d696345617465723a20496e76616c69642057455745206164647265604482015261737360f01b6064820152608490fd5b600080fd5b601f909101601f19168101906001600160401b03821190821017620002d757604052565b634e487b7160e01b600052604160045260246000fd5b51906001600160a01b0382168203620002ae5756fe6080604081815260048036101561001557600080fd5b600092833560e01c9081631514617e146111bb57508063199cbc541461119c57838163213897fe14610f545750806321df0da714610f2b57806324a47aeb14610e6a57806329b30c8d14610e4b57806335faa41614610cef578063372c12b114610cb15780634e71d92d14610c175780634fa1f10414610b005780635c975abb14610adc57806361d027b314610ab5578063655a9ac214610a93578063679aefce14610a1057806370a08231146109d8578063715018a6146109775780638da5cb5b1461094a5780638f4ffcb1146108155780639636d881146107da5780639ed4527e146107bb578063a718d11b1461076557838163b6b55f25146106d757508063bf3506c114610698578063c4ae3168146105b5578063d5abeb0114610596578063daf4986314610554578063dece1baa14610532578063e1f26f2214610509578063ea9f24171461036f578063eb91d37e146102a7578063f0f44260146102625763f2fde38b1461018757600080fd5b3461025e57602036600319011261025e576101a0611210565b6101a8611226565b6001600160a01b0381811693909290841561020c57505060018054610100600160a81b03198116600893841b610100600160a81b031617909155901c167f8be0079c531659141344cd1fd0a4f28419497f9722a3daafe3b4186f6b6457e08380a380f35b906020608492519162461bcd60e51b8352820152602660248201527f4f776e61626c653a206e6577206f776e657220697320746865207a65726f206160448201526564647265737360d01b6064820152fd5b8280fd5b8382346102a35760203660031901126102a35761027d611210565b610285611226565b81546001600160a01b0319166001600160a01b039190911617905580f35b5080fd5b50913461036c578060031936011261036c57600c546005549081811061031057906102d1916112ca565b926103e8938481029481860414901517156102fd576020836102f686600b54906112aa565b9051908152f35b634e487b7160e01b825260119052602490fd5b835162461bcd60e51b8152602081870152603060248201527f44796e616d696345617465723a207669727475616c57455745206c657373207460448201526f1a185b881d1bdd185b081d995cdd195960821b6064820152608490fd5b80fd5b50913461036c578060031936011261036c5761038961146f565b60025482516370a0823160e01b8152338186015260209490926001600160a01b03928316928685602481875afa9485156104995782956104da575b5085516323b872dd60e01b81528594889082908186816103e88b30338d850161144d565b03925af180156104d05791889185936104a3575b506002541687519283809263313ce56760e01b82525afa908115610499579060ff91839161046c575b50166012811061043c575b86866102f63387611509565b9091925060120391601283116102fd5750506102f69161045e61046492611328565b90611281565b388080610430565b61048c9150883d8a11610492575b61048481836112d7565b81019061130f565b38610425565b503d61047a565b86513d84823e3d90fd5b6104c290833d85116104c9575b6104ba81836112d7565b810190611435565b50386103fc565b503d6104b0565b87513d85823e3d90fd5b9094508681813d8311610502575b6104f281836112d7565b810103126102a3575193386103c4565b503d6104e8565b5050346102a357816003193601126102a35760035490516001600160a01b039091168152602090f35b8382346102a35760203660031901126102a35761054d611226565b35600c5580f35b5050346102a35760203660031901126102a3579081906001600160a01b0361057a611210565b1681526009602052206001815491015482519182526020820152f35b5050346102a357816003193601126102a3576020906007549051908152f35b503461025e578260031936011261025e576105ce611226565b60015460ff81161561065757506001549060ff82161561061d575060ff1916600155513381527f5db9ee0a495bf2e6ff9c91a7834c1ba4fdd244a5e8aa4e537bd38aeae4b073aa90602090a180f35b606490602084519162461bcd60e51b8352820152601460248201527314185d5cd8589b194e881b9bdd081c185d5cd95960621b6044820152fd5b602091509160017f62e78cea01bee320cd4e420270b5ea74000d11b0c9f74754ebdbfc544b05a2589361068861146f565b60ff19161760015551338152a180f35b5050346102a35760203660031901126102a35760209160019082906001600160a01b036106c3611210565b168152600985522001549051904210158152f35b80848434610761576020366003190112610761576107296020916106f9611226565b60035484516323b872dd60e01b81529586936001600160a01b03909216928492839180359030903390850161144d565b03925af1908115610758575061073d575080f35b6107549060203d81116104c9576104ba81836112d7565b5080f35b513d84823e3d90fd5b5050fd5b5050346102a357806003193601126102a35761077f611210565b90602435918215158093036107b757610796611226565b60018060a01b03168352600a60205282209060ff8019835416911617905580f35b8380fd5b5050346102a357816003193601126102a357602090600c549051908152f35b8382346102a35760203660031901126102a3573563ffffffff81168091036102a357610804611226565b63ffffffff19600854161760085580f35b503461025e57608036600319011261025e5761082f611210565b90602435906001600160a01b03604435818116036109465760643567ffffffffffffffff81116109425761086690369084016111dd565b50506108706114b3565b61087861146f565b600254169081156108f357826108a9926020928888518096819582946323b872dd60e01b845230903390850161144d565b03925af180156108e9576108c394506108cb575b50611509565b506001815580f35b6108e29060203d81116104c9576104ba81836112d7565b50386108bd565b84513d87823e3d90fd5b608490602086519162461bcd60e51b8352820152602360248201527f44796e616d696345617465723a20546f6b656e2061646472657373206e6f74206044820152621cd95d60ea1b6064820152fd5b8680fd5b8580fd5b5050346102a357816003193601126102a357600154905160089190911c6001600160a01b03168152602090f35b833461036c578060031936011261036c57610990611226565b60018054610100600160a81b03198116909155819060081c6001600160a01b03167f8be0079c531659141344cd1fd0a4f28419497f9722a3daafe3b4186f6b6457e08280a380f35b5050346102a35760203660031901126102a35760209181906001600160a01b03610a00611210565b1681526009845220549051908152f35b503461025e578260031936011261025e57600254825163313ce56760e01b81529160209183919082906001600160a01b03165afa908115610a875760ff6102f692610a659260209691610a6a575b5016611328565b611343565b610a819150863d81116104925761048481836112d7565b38610a5e565b505051903d90823e3d90fd5b8382346102a35760203660031901126102a357610aae611226565b35600b5580f35b503461025e578260031936011261025e575490516001600160a01b03909116815260209150f35b5050346102a357816003193601126102a35760209060ff6001541690519015158152f35b50913461036c57602092836003193601126102a357600254835163313ce56760e01b808252833594926001600160a01b03169187818681865afa908115610c0d5760ff8993926012928791610bf0575b501610610b63575b50856102f686611343565b8487518094819382525afa908115610be6579060ff918391610bc9575b501660120360ff8111610bb65760ff1691604d83116102fd5750506102f691610bac91600a0a90611281565b9038808581610b58565b506011602492634e487b7160e01b835252fd5b610be09150873d89116104925761048481836112d7565b38610b80565b85513d84823e3d90fd5b610c079150853d87116104925761048481836112d7565b38610b50565b87513d86823e3d90fd5b50903461025e578260031936011261025e57610c3161146f565b63ffffffff6008541615610ca4575b3383526009602052600181842001544210610c615782610c5e611748565b80f35b906020606492519162461bcd60e51b8352820152601f60248201527f44796e616d696345617465723a2056657374696e67206e6f7420656e646564006044820152fd5b610cac611748565b610c40565b5050346102a35760203660031901126102a35760209160ff9082906001600160a01b03610cdc611210565b168152600a855220541690519015158152f35b509190346102a357816003193601126102a357610d0a611226565b60035481516370a0823160e01b8152308582015293602092916001600160a01b0390811691908487602481865afa968715610e41578697610e12575b508615610dc557600154845163a9059cbb60e01b81526001600160a01b0360089290921c90921616918101918252602082018790529291849184919082908890829060400103925af1908115610dbc5750610d9f578280f35b81610db592903d106104c9576104ba81836112d7565b5081808280f35b513d85823e3d90fd5b835162461bcd60e51b8152808301869052602160248201527f44796e616d696345617465723a204e6f2062616c616e636520746f20737765656044820152600760fc1b6064820152608490fd5b9096508481813d8311610e3a575b610e2a81836112d7565b8101031261094657519538610d46565b503d610e20565b84513d88823e3d90fd5b5050346102a357816003193601126102a357602090600b549051908152f35b503461025e576020928360031936011261036c57813591610e8961146f565b60025484516370a0823160e01b815233838201528493916001600160a01b0391908216908881602481855afa8015610f215787908590610ef0575b610ed0925010156113d7565b87875180926323b872dd60e01b82528186816103e88c30338d850161144d565b50508881813d8311610f1a575b610f0781836112d7565b810103126107b75786610ed09151610ec4565b503d610efd565b88513d86823e3d90fd5b5050346102a357816003193601126102a35760025490516001600160a01b039091168152602090f35b92905034610761576060366003190112610761576001600160a01b03602435818116908435908290036109465760443567ffffffffffffffff811161094257610fa090369087016111dd565b969095610fab6114b3565b610fb361146f565b60025486516370a0823160e01b81523383820152602099918716908a81602481855afa8015611192578690869061115d575b610ff1925010156113d7565b89885180926323b872dd60e01b82528187816110118b30338c850161144d565b03925af18015610f2157611140575b5061102b3385611509565b50600254875163095ea7b360e01b81526001600160a01b0387168482019081526020810187905290918b9183918a169082908890829060400103925af18015610f2157918a97969594939160a493611123575b508087835416801560001461111d5750309a5b8860025416988b519c8d9a8b998a976302454b7160e41b8952880152602487015216604485015260806064850152816084850152848401378181018301849052601f01601f191681010301925af1908115610dbc57506110f4575b826001815580f35b813d8311611116575b61110781836112d7565b8101031261036c5738806110ec565b503d6110fd565b9a611091565b61113990893d8b116104c9576104ba81836112d7565b503861107e565b611156908a3d8c116104c9576104ba81836112d7565b5038611020565b50508a81813d831161118b575b61117481836112d7565b810103126111875785610ff19151610fe5565b8480fd5b503d61116a565b89513d87823e3d90fd5b5050346102a357816003193601126102a3576020906005549051908152f35b8490346102a357816003193601126102a35760209063ffffffff600854168152f35b9181601f8401121561120b5782359167ffffffffffffffff831161120b576020838186019501011161120b57565b600080fd5b600435906001600160a01b038216820361120b57565b60015460081c6001600160a01b0316330361123d57565b606460405162461bcd60e51b815260206004820152602060248201527f4f776e61626c653a2063616c6c6572206973206e6f7420746865206f776e65726044820152fd5b8181029291811591840414171561129457565b634e487b7160e01b600052601160045260246000fd5b81156112b4570490565b634e487b7160e01b600052601260045260246000fd5b9190820391821161129457565b90601f8019910116810190811067ffffffffffffffff8211176112f957604052565b634e487b7160e01b600052604160045260246000fd5b9081602091031261120b575160ff8116810361120b5790565b604d811161129457600a0a90565b9190820180921161129457565b61134f81600b54611336565b80156113735761136b6113709261045e600c54600554906112ca565b6112aa565b90565b60405162461bcd60e51b815260206004820152603660248201527f44796e616d696345617465723a206e6577464f4d4f42616c616e6365206d7573604482015275742062652067726561746572207468616e207a65726f60501b6064820152608490fd5b156113de57565b60405162461bcd60e51b815260206004820152602960248201527f44796e616d696345617465723a20496e73756666696369656e742062616c616e60448201526818d9481d1bc819585d60ba1b6064820152608490fd5b9081602091031261120b5751801515810361120b5790565b6001600160a01b03918216815291166020820152604081019190915260600190565b60ff6001541661147b57565b60405162461bcd60e51b815260206004820152601060248201526f14185d5cd8589b194e881c185d5cd95960821b6044820152606490fd5b6002600054146114c4576002600055565b60405162461bcd60e51b815260206004820152601f60248201527f5265656e7472616e637947756172643a207265656e7472616e742063616c6c006044820152606490fd5b61151281611343565b600354604080516370a0823160e01b8152306004820152929460209391926001600160a01b0392908316908581602481855afa9081156116af5760009161171b575b5087116116ba5760085463ffffffff91908216156116205750828216948560005260098152611587856000205489611336565b91603c816008541602908116908103611294576115a49042611336565b8551908682019082821067ffffffffffffffff8311176112f9577fabe5455971bdcd932e7251d16cd53f88cd4410bf4df21530e88bf13dade6a7d4988b956001938a5284528484019182526000526009845287600020925183555191015561160e82600554611336565b6005555b84519687528601521692a290565b845163a9059cbb60e01b81526001600160a01b0384166004820152602481018990529495939492939291508290829060449082906000905af180156116af579187917fabe5455971bdcd932e7251d16cd53f88cd4410bf4df21530e88bf13dade6a7d496959493611692575b50611612565b6116a890823d84116104c9576104ba81836112d7565b503861168c565b85513d6000823e3d90fd5b835162461bcd60e51b815260048101869052603460248201527f44796e616d696345617465723a20496e73756666696369656e7420746f6b656e604482015273103130b630b731b2903a37903a3930b739b332b960611b6064820152608490fd5b908682813d8311611741575b61173181836112d7565b8101031261036c57505138611554565b503d611727565b336000818152600960209081526040808320805490849055600354915163a9059cbb60e01b8152600481019590955260248501529091839160449183916001600160a01b03165af180156117b75761179d5750565b6117b49060203d81116104c9576104ba81836112d7565b50565b6040513d6000823e3d90fdfea2646970667358221220138732a5e70d95c6135f5d951ffb2229ccc28b283924a761075a0a85d981e9e164736f6c63430008130033",
          "opcodes": "PUSH1 0x80 PUSH1 0x40 SWAP1 DUP1 DUP3 MSTORE CALLVALUE PUSH3 0x2AE JUMPI PUSH1 0xA0 DUP2 PUSH3 0x1AFC DUP1 CODESIZE SUB DUP1 SWAP2 PUSH3 0x25 DUP3 DUP6 PUSH3 0x2B3 JUMP JUMPDEST DUP4 CODECOPY DUP2 ADD SUB SLT PUSH3 0x2AE JUMPI PUSH3 0x3B DUP2 PUSH3 0x2ED JUMP JUMPDEST SWAP1 PUSH1 0x20 SWAP1 PUSH3 0x4C DUP3 DUP3 ADD PUSH3 0x2ED JUMP JUMPDEST SWAP3 DUP5 DUP3 ADD MLOAD SWAP3 PUSH4 0xFFFFFFFF DUP5 AND DUP1 SWAP5 SUB PUSH3 0x2AE JUMPI PUSH1 0x60 DUP4 ADD MLOAD PUSH1 0x80 SWAP1 SWAP4 ADD MLOAD PUSH1 0x1 PUSH1 0x0 DUP2 DUP2 SSTORE DUP2 SLOAD PUSH2 0x100 PUSH1 0x1 PUSH1 0xA8 SHL SUB CALLER PUSH1 0x8 DUP2 DUP2 SHL SWAP3 SWAP1 SWAP3 AND PUSH1 0x1 PUSH1 0x1 PUSH1 0xA8 SHL SUB NOT DUP5 AND OR SWAP1 SWAP5 SSTORE DUP11 MLOAD SWAP5 SWAP10 SWAP8 SWAP9 DUP10 SWAP9 SWAP4 SWAP8 SWAP1 SWAP5 PUSH1 0x1 PUSH1 0x1 PUSH1 0xA0 SHL SUB SWAP5 SWAP4 DUP6 SWAP4 SHR DUP4 AND PUSH32 0x8BE0079C531659141344CD1FD0A4F28419497F9722A3DAAFE3B4186F6B6457E0 DUP11 DUP1 LOG3 AND SWAP4 DUP5 ISZERO PUSH3 0x261 JUMPI POP AND SWAP2 DUP3 ISZERO PUSH3 0x211 JUMPI SWAP2 DUP4 SWAP3 SWAP2 DUP2 PUSH1 0x4 SWAP6 SWAP4 PUSH1 0x1 DUP1 PUSH1 0xA0 SHL SUB NOT SWAP1 DUP2 PUSH1 0x3 SLOAD AND OR PUSH1 0x3 SSTORE PUSH1 0x2 SLOAD AND OR PUSH1 0x2 SSTORE PUSH4 0xFFFFFFFF NOT PUSH1 0x8 SLOAD AND OR PUSH1 0x8 SSTORE DUP9 MLOAD SWAP4 DUP5 DUP1 SWAP3 PUSH4 0x313CE567 PUSH1 0xE0 SHL DUP3 MSTORE GAS STATICCALL SWAP1 DUP2 ISZERO PUSH3 0x207 JUMPI DUP4 SWAP2 PUSH3 0x1C3 JUMPI JUMPDEST POP PUSH1 0xFF SWAP2 POP AND PUSH1 0x12 DUP2 LT PUSH3 0x163 JUMPI JUMPDEST POP POP POP PUSH1 0xB SSTORE PUSH1 0xC SSTORE MLOAD PUSH2 0x17F9 SWAP1 DUP2 PUSH3 0x303 DUP3 CODECOPY RETURN JUMPDEST SWAP1 SWAP2 SWAP3 POP PUSH1 0x12 SUB PUSH1 0x12 DUP2 GT PUSH3 0x1AF JUMPI PUSH1 0x4D DUP2 GT PUSH3 0x1AF JUMPI PUSH1 0xA EXP SWAP2 DUP3 DUP2 MUL SWAP3 DUP2 DUP5 DIV EQ SWAP1 ISZERO OR ISZERO PUSH3 0x19B JUMPI POP CODESIZE DUP1 DUP1 PUSH3 0x14C JUMP JUMPDEST PUSH4 0x4E487B71 PUSH1 0xE0 SHL DUP2 MSTORE PUSH1 0x11 PUSH1 0x4 MSTORE PUSH1 0x24 SWAP1 REVERT JUMPDEST PUSH4 0x4E487B71 PUSH1 0xE0 SHL DUP3 MSTORE PUSH1 0x11 PUSH1 0x4 MSTORE PUSH1 0x24 DUP3 REVERT JUMPDEST SWAP1 POP DUP2 DUP2 RETURNDATASIZE DUP4 GT PUSH3 0x1FF JUMPI JUMPDEST PUSH3 0x1DC DUP2 DUP4 PUSH3 0x2B3 JUMP JUMPDEST DUP2 ADD SUB SLT PUSH3 0x1FB JUMPI MLOAD PUSH1 0xFF DUP2 AND DUP2 SUB PUSH3 0x1FB JUMPI PUSH1 0xFF SWAP1 CODESIZE PUSH3 0x13C JUMP JUMPDEST POP DUP1 REVERT JUMPDEST POP RETURNDATASIZE PUSH3 0x1D0 JUMP JUMPDEST DUP8 MLOAD RETURNDATASIZE DUP6 DUP3 RETURNDATACOPY RETURNDATASIZE SWAP1 REVERT JUMPDEST DUP9 MLOAD PUSH3 0x461BCD PUSH1 0xE5 SHL DUP2 MSTORE PUSH1 0x4 DUP2 ADD DUP6 SWAP1 MSTORE PUSH1 0x23 PUSH1 0x24 DUP3 ADD MSTORE PUSH32 0x44796E616D696345617465723A20496E76616C696420746F6B656E2061646472 PUSH1 0x44 DUP3 ADD MSTORE PUSH3 0x657373 PUSH1 0xE8 SHL PUSH1 0x64 DUP3 ADD MSTORE PUSH1 0x84 SWAP1 REVERT JUMPDEST PUSH3 0x461BCD PUSH1 0xE5 SHL DUP2 MSTORE PUSH1 0x4 DUP2 ADD DUP7 SWAP1 MSTORE PUSH1 0x22 PUSH1 0x24 DUP3 ADD MSTORE PUSH32 0x44796E616D696345617465723A20496E76616C69642057455745206164647265 PUSH1 0x44 DUP3 ADD MSTORE PUSH2 0x7373 PUSH1 0xF0 SHL PUSH1 0x64 DUP3 ADD MSTORE PUSH1 0x84 SWAP1 REVERT JUMPDEST PUSH1 0x0 DUP1 REVERT JUMPDEST PUSH1 0x1F SWAP1 SWAP2 ADD PUSH1 0x1F NOT AND DUP2 ADD SWAP1 PUSH1 0x1 PUSH1 0x1 PUSH1 0x40 SHL SUB DUP3 GT SWAP1 DUP3 LT OR PUSH3 0x2D7 JUMPI PUSH1 0x40 MSTORE JUMP JUMPDEST PUSH4 0x4E487B71 PUSH1 0xE0 SHL PUSH1 0x0 MSTORE PUSH1 0x41 PUSH1 0x4 MSTORE PUSH1 0x24 PUSH1 0x0 REVERT JUMPDEST MLOAD SWAP1 PUSH1 0x1 PUSH1 0x1 PUSH1 0xA0 SHL SUB DUP3 AND DUP3 SUB PUSH3 0x2AE JUMPI JUMP INVALID PUSH1 0x80 PUSH1 0x40 DUP2 DUP2 MSTORE PUSH1 0x4 DUP1 CALLDATASIZE LT ISZERO PUSH2 0x15 JUMPI PUSH1 0x0 DUP1 REVERT JUMPDEST PUSH1 0x0 SWAP3 DUP4 CALLDATALOAD PUSH1 0xE0 SHR SWAP1 DUP2 PUSH4 0x1514617E EQ PUSH2 0x11BB JUMPI POP DUP1 PUSH4 0x199CBC54 EQ PUSH2 0x119C JUMPI DUP4 DUP2 PUSH4 0x213897FE EQ PUSH2 0xF54 JUMPI POP DUP1 PUSH4 0x21DF0DA7 EQ PUSH2 0xF2B JUMPI DUP1 PUSH4 0x24A47AEB EQ PUSH2 0xE6A JUMPI DUP1 PUSH4 0x29B30C8D EQ PUSH2 0xE4B JUMPI DUP1 PUSH4 0x35FAA416 EQ PUSH2 0xCEF JUMPI DUP1 PUSH4 0x372C12B1 EQ PUSH2 0xCB1 JUMPI DUP1 PUSH4 0x4E71D92D EQ PUSH2 0xC17 JUMPI DUP1 PUSH4 0x4FA1F104 EQ PUSH2 0xB00 JUMPI DUP1 PUSH4 0x5C975ABB EQ PUSH2 0xADC JUMPI DUP1 PUSH4 0x61D027B3 EQ PUSH2 0xAB5 JUMPI DUP1 PUSH4 0x655A9AC2 EQ PUSH2 0xA93 JUMPI DUP1 PUSH4 0x679AEFCE EQ PUSH2 0xA10 JUMPI DUP1 PUSH4 0x70A08231 EQ PUSH2 0x9D8 JUMPI DUP1 PUSH4 0x715018A6 EQ PUSH2 0x977 JUMPI DUP1 PUSH4 0x8DA5CB5B EQ PUSH2 0x94A JUMPI DUP1 PUSH4 0x8F4FFCB1 EQ PUSH2 0x815 JUMPI DUP1 PUSH4 0x9636D881 EQ PUSH2 0x7DA JUMPI DUP1 PUSH4 0x9ED4527E EQ PUSH2 0x7BB JUMPI DUP1 PUSH4 0xA718D11B EQ PUSH2 0x765 JUMPI DUP4 DUP2 PUSH4 0xB6B55F25 EQ PUSH2 0x6D7 JUMPI POP DUP1 PUSH4 0xBF3506C1 EQ PUSH2 0x698 JUMPI DUP1 PUSH4 0xC4AE3168 EQ PUSH2 0x5B5 JUMPI DUP1 PUSH4 0xD5ABEB01 EQ PUSH2 0x596 JUMPI DUP1 PUSH4 0xDAF49863 EQ PUSH2 0x554 JUMPI DUP1 PUSH4 0xDECE1BAA EQ PUSH2 0x532 JUMPI DUP1 PUSH4 0xE1F26F22 EQ PUSH2 0x509 JUMPI DUP1 PUSH4 0xEA9F2417 EQ PUSH2 0x36F JUMPI DUP1 PUSH4 0xEB91D37E EQ PUSH2 0x2A7 JUMPI DUP1 PUSH4 0xF0F44260 EQ PUSH2 0x262 JUMPI PUSH4 0xF2FDE38B EQ PUSH2 0x187 JUMPI PUSH1 0x0 DUP1 REVERT JUMPDEST CALLVALUE PUSH2 0x25E JUMPI PUSH1 0x20 CALLDATASIZE PUSH1 0x3 NOT ADD SLT PUSH2 0x25E JUMPI PUSH2 0x1A0 PUSH2 0x1210 JUMP JUMPDEST PUSH2 0x1A8 PUSH2 0x1226 JUMP JUMPDEST PUSH1 0x1 PUSH1 0x1 PUSH1 0xA0 SHL SUB DUP2 DUP2 AND SWAP4 SWAP1 SWAP3 SWAP1 DUP5 ISZERO PUSH2 0x20C JUMPI POP POP PUSH1 0x1 DUP1 SLOAD PUSH2 0x100 PUSH1 0x1 PUSH1 0xA8 SHL SUB NOT DUP2 AND PUSH1 0x8 SWAP4 DUP5 SHL PUSH2 0x100 PUSH1 0x1 PUSH1 0xA8 SHL SUB AND OR SWAP1 SWAP2 SSTORE SWAP1 SHR AND PUSH32 0x8BE0079C531659141344CD1FD0A4F28419497F9722A3DAAFE3B4186F6B6457E0 DUP4 DUP1 LOG3 DUP1 RETURN JUMPDEST SWAP1 PUSH1 0x20 PUSH1 0x84 SWAP3 MLOAD SWAP2 PUSH3 0x461BCD PUSH1 0xE5 SHL DUP4 MSTORE DUP3 ADD MSTORE PUSH1 0x26 PUSH1 0x24 DUP3 ADD MSTORE PUSH32 0x4F776E61626C653A206E6577206F776E657220697320746865207A65726F2061 PUSH1 0x44 DUP3 ADD MSTORE PUSH6 0x646472657373 PUSH1 0xD0 SHL PUSH1 0x64 DUP3 ADD MSTORE REVERT JUMPDEST DUP3 DUP1 REVERT JUMPDEST DUP4 DUP3 CALLVALUE PUSH2 0x2A3 JUMPI PUSH1 0x20 CALLDATASIZE PUSH1 0x3 NOT ADD SLT PUSH2 0x2A3 JUMPI PUSH2 0x27D PUSH2 0x1210 JUMP JUMPDEST PUSH2 0x285 PUSH2 0x1226 JUMP JUMPDEST DUP2 SLOAD PUSH1 0x1 PUSH1 0x1 PUSH1 0xA0 SHL SUB NOT AND PUSH1 0x1 PUSH1 0x1 PUSH1 0xA0 SHL SUB SWAP2 SWAP1 SWAP2 AND OR SWAP1 SSTORE DUP1 RETURN JUMPDEST POP DUP1 REVERT JUMPDEST POP SWAP2 CALLVALUE PUSH2 0x36C JUMPI DUP1 PUSH1 0x3 NOT CALLDATASIZE ADD SLT PUSH2 0x36C JUMPI PUSH1 0xC SLOAD PUSH1 0x5 SLOAD SWAP1 DUP2 DUP2 LT PUSH2 0x310 JUMPI SWAP1 PUSH2 0x2D1 SWAP2 PUSH2 0x12CA JUMP JUMPDEST SWAP3 PUSH2 0x3E8 SWAP4 DUP5 DUP2 MUL SWAP5 DUP2 DUP7 DIV EQ SWAP1 ISZERO OR ISZERO PUSH2 0x2FD JUMPI PUSH1 0x20 DUP4 PUSH2 0x2F6 DUP7 PUSH1 0xB SLOAD SWAP1 PUSH2 0x12AA JUMP JUMPDEST SWAP1 MLOAD SWAP1 DUP2 MSTORE RETURN JUMPDEST PUSH4 0x4E487B71 PUSH1 0xE0 SHL DUP3 MSTORE PUSH1 0x11 SWAP1 MSTORE PUSH1 0x24 SWAP1 REVERT JUMPDEST DUP4 MLOAD PUSH3 0x461BCD PUSH1 0xE5 SHL DUP2 MSTORE PUSH1 0x20 DUP2 DUP8 ADD MSTORE PUSH1 0x30 PUSH1 0x24 DUP3 ADD MSTORE PUSH32 0x44796E616D696345617465723A207669727475616C57455745206C6573732074 PUSH1 0x44 DUP3 ADD MSTORE PUSH16 0x1A185B881D1BDD185B081D995CDD1959 PUSH1 0x82 SHL PUSH1 0x64 DUP3 ADD MSTORE PUSH1 0x84 SWAP1 REVERT JUMPDEST DUP1 REVERT JUMPDEST POP SWAP2 CALLVALUE PUSH2 0x36C JUMPI DUP1 PUSH1 0x3 NOT CALLDATASIZE ADD SLT PUSH2 0x36C JUMPI PUSH2 0x389 PUSH2 0x146F JUMP JUMPDEST PUSH1 0x2 SLOAD DUP3 MLOAD PUSH4 0x70A08231 PUSH1 0xE0 SHL DUP2 MSTORE CALLER DUP2 DUP7 ADD MSTORE PUSH1 0x20 SWAP5 SWAP1 SWAP3 PUSH1 0x1 PUSH1 0x1 PUSH1 0xA0 SHL SUB SWAP3 DUP4 AND SWAP3 DUP7 DUP6 PUSH1 0x24 DUP2 DUP8 GAS STATICCALL SWAP5 DUP6 ISZERO PUSH2 0x499 JUMPI DUP3 SWAP6 PUSH2 0x4DA JUMPI JUMPDEST POP DUP6 MLOAD PUSH4 0x23B872DD PUSH1 0xE0 SHL DUP2 MSTORE DUP6 SWAP5 DUP9 SWAP1 DUP3 SWAP1 DUP2 DUP7 DUP2 PUSH2 0x3E8 DUP12 ADDRESS CALLER DUP14 DUP6 ADD PUSH2 0x144D JUMP JUMPDEST SUB SWAP3 GAS CALL DUP1 ISZERO PUSH2 0x4D0 JUMPI SWAP2 DUP9 SWAP2 DUP6 SWAP4 PUSH2 0x4A3 JUMPI JUMPDEST POP PUSH1 0x2 SLOAD AND DUP8 MLOAD SWAP3 DUP4 DUP1 SWAP3 PUSH4 0x313CE567 PUSH1 0xE0 SHL DUP3 MSTORE GAS STATICCALL SWAP1 DUP2 ISZERO PUSH2 0x499 JUMPI SWAP1 PUSH1 0xFF SWAP2 DUP4 SWAP2 PUSH2 0x46C JUMPI JUMPDEST POP AND PUSH1 0x12 DUP2 LT PUSH2 0x43C JUMPI JUMPDEST DUP7 DUP7 PUSH2 0x2F6 CALLER DUP8 PUSH2 0x1509 JUMP JUMPDEST SWAP1 SWAP2 SWAP3 POP PUSH1 0x12 SUB SWAP2 PUSH1 0x12 DUP4 GT PUSH2 0x2FD JUMPI POP POP PUSH2 0x2F6 SWAP2 PUSH2 0x45E PUSH2 0x464 SWAP3 PUSH2 0x1328 JUMP JUMPDEST SWAP1 PUSH2 0x1281 JUMP JUMPDEST CODESIZE DUP1 DUP1 PUSH2 0x430 JUMP JUMPDEST PUSH2 0x48C SWAP2 POP DUP9 RETURNDATASIZE DUP11 GT PUSH2 0x492 JUMPI JUMPDEST PUSH2 0x484 DUP2 DUP4 PUSH2 0x12D7 JUMP JUMPDEST DUP2 ADD SWAP1 PUSH2 0x130F JUMP JUMPDEST CODESIZE PUSH2 0x425 JUMP JUMPDEST POP RETURNDATASIZE PUSH2 0x47A JUMP JUMPDEST DUP7 MLOAD RETURNDATASIZE DUP5 DUP3 RETURNDATACOPY RETURNDATASIZE SWAP1 REVERT JUMPDEST PUSH2 0x4C2 SWAP1 DUP4 RETURNDATASIZE DUP6 GT PUSH2 0x4C9 JUMPI JUMPDEST PUSH2 0x4BA DUP2 DUP4 PUSH2 0x12D7 JUMP JUMPDEST DUP2 ADD SWAP1 PUSH2 0x1435 JUMP JUMPDEST POP CODESIZE PUSH2 0x3FC JUMP JUMPDEST POP RETURNDATASIZE PUSH2 0x4B0 JUMP JUMPDEST DUP8 MLOAD RETURNDATASIZE DUP6 DUP3 RETURNDATACOPY RETURNDATASIZE SWAP1 REVERT JUMPDEST SWAP1 SWAP5 POP DUP7 DUP2 DUP2 RETURNDATASIZE DUP4 GT PUSH2 0x502 JUMPI JUMPDEST PUSH2 0x4F2 DUP2 DUP4 PUSH2 0x12D7 JUMP JUMPDEST DUP2 ADD SUB SLT PUSH2 0x2A3 JUMPI MLOAD SWAP4 CODESIZE PUSH2 0x3C4 JUMP JUMPDEST POP RETURNDATASIZE PUSH2 0x4E8 JUMP JUMPDEST POP POP CALLVALUE PUSH2 0x2A3 JUMPI DUP2 PUSH1 0x3 NOT CALLDATASIZE ADD SLT PUSH2 0x2A3 JUMPI PUSH1 0x3 SLOAD SWAP1 MLOAD PUSH1 0x1 PUSH1 0x1 PUSH1 0xA0 SHL SUB SWAP1 SWAP2 AND DUP2 MSTORE PUSH1 0x20 SWAP1 RETURN JUMPDEST DUP4 DUP3 CALLVALUE PUSH2 0x2A3 JUMPI PUSH1 0x20 CALLDATASIZE PUSH1 0x3 NOT ADD SLT PUSH2 0x2A3 JUMPI PUSH2 0x54D PUSH2 0x1226 JUMP JUMPDEST CALLDATALOAD PUSH1 0xC SSTORE DUP1 RETURN JUMPDEST POP POP CALLVALUE PUSH2 0x2A3 JUMPI PUSH1 0x20 CALLDATASIZE PUSH1 0x3 NOT ADD SLT PUSH2 0x2A3 JUMPI SWAP1 DUP2 SWAP1 PUSH1 0x1 PUSH1 0x1 PUSH1 0xA0 SHL SUB PUSH2 0x57A PUSH2 0x1210 JUMP JUMPDEST AND DUP2 MSTORE PUSH1 0x9 PUSH1 0x20 MSTORE KECCAK256 PUSH1 0x1 DUP2 SLOAD SWAP2 ADD SLOAD DUP3 MLOAD SWAP2 DUP3 MSTORE PUSH1 0x20 DUP3 ADD MSTORE RETURN JUMPDEST POP POP CALLVALUE PUSH2 0x2A3 JUMPI DUP2 PUSH1 0x3 NOT CALLDATASIZE ADD SLT PUSH2 0x2A3 JUMPI PUSH1 0x20 SWAP1 PUSH1 0x7 SLOAD SWAP1 MLOAD SWAP1 DUP2 MSTORE RETURN JUMPDEST POP CALLVALUE PUSH2 0x25E JUMPI DUP3 PUSH1 0x3 NOT CALLDATASIZE ADD SLT PUSH2 0x25E JUMPI PUSH2 0x5CE PUSH2 0x1226 JUMP JUMPDEST PUSH1 0x1 SLOAD PUSH1 0xFF DUP2 AND ISZERO PUSH2 0x657 JUMPI POP PUSH1 0x1 SLOAD SWAP1 PUSH1 0xFF DUP3 AND ISZERO PUSH2 0x61D JUMPI POP PUSH1 0xFF NOT AND PUSH1 0x1 SSTORE MLOAD CALLER DUP2 MSTORE PUSH32 0x5DB9EE0A495BF2E6FF9C91A7834C1BA4FDD244A5E8AA4E537BD38AEAE4B073AA SWAP1 PUSH1 0x20 SWAP1 LOG1 DUP1 RETURN JUMPDEST PUSH1 0x64 SWAP1 PUSH1 0x20 DUP5 MLOAD SWAP2 PUSH3 0x461BCD PUSH1 0xE5 SHL DUP4 MSTORE DUP3 ADD MSTORE PUSH1 0x14 PUSH1 0x24 DUP3 ADD MSTORE PUSH20 0x14185D5CD8589B194E881B9BDD081C185D5CD959 PUSH1 0x62 SHL PUSH1 0x44 DUP3 ADD MSTORE REVERT JUMPDEST PUSH1 0x20 SWAP2 POP SWAP2 PUSH1 0x1 PUSH32 0x62E78CEA01BEE320CD4E420270B5EA74000D11B0C9F74754EBDBFC544B05A258 SWAP4 PUSH2 0x688 PUSH2 0x146F JUMP JUMPDEST PUSH1 0xFF NOT AND OR PUSH1 0x1 SSTORE MLOAD CALLER DUP2 MSTORE LOG1 DUP1 RETURN JUMPDEST POP POP CALLVALUE PUSH2 0x2A3 JUMPI PUSH1 0x20 CALLDATASIZE PUSH1 0x3 NOT ADD SLT PUSH2 0x2A3 JUMPI PUSH1 0x20 SWAP2 PUSH1 0x1 SWAP1 DUP3 SWAP1 PUSH1 0x1 PUSH1 0x1 PUSH1 0xA0 SHL SUB PUSH2 0x6C3 PUSH2 0x1210 JUMP JUMPDEST AND DUP2 MSTORE PUSH1 0x9 DUP6 MSTORE KECCAK256 ADD SLOAD SWAP1 MLOAD SWAP1 TIMESTAMP LT ISZERO DUP2 MSTORE RETURN JUMPDEST DUP1 DUP5 DUP5 CALLVALUE PUSH2 0x761 JUMPI PUSH1 0x20 CALLDATASIZE PUSH1 0x3 NOT ADD SLT PUSH2 0x761 JUMPI PUSH2 0x729 PUSH1 0x20 SWAP2 PUSH2 0x6F9 PUSH2 0x1226 JUMP JUMPDEST PUSH1 0x3 SLOAD DUP5 MLOAD PUSH4 0x23B872DD PUSH1 0xE0 SHL DUP2 MSTORE SWAP6 DUP7 SWAP4 PUSH1 0x1 PUSH1 0x1 PUSH1 0xA0 SHL SUB SWAP1 SWAP3 AND SWAP3 DUP5 SWAP3 DUP4 SWAP2 DUP1 CALLDATALOAD SWAP1 ADDRESS SWAP1 CALLER SWAP1 DUP6 ADD PUSH2 0x144D JUMP JUMPDEST SUB SWAP3 GAS CALL SWAP1 DUP2 ISZERO PUSH2 0x758 JUMPI POP PUSH2 0x73D JUMPI POP DUP1 RETURN JUMPDEST PUSH2 0x754 SWAP1 PUSH1 0x20 RETURNDATASIZE DUP2 GT PUSH2 0x4C9 JUMPI PUSH2 0x4BA DUP2 DUP4 PUSH2 0x12D7 JUMP JUMPDEST POP DUP1 RETURN JUMPDEST MLOAD RETURNDATASIZE DUP5 DUP3 RETURNDATACOPY RETURNDATASIZE SWAP1 REVERT JUMPDEST POP POP REVERT JUMPDEST POP POP CALLVALUE PUSH2 0x2A3 JUMPI DUP1 PUSH1 0x3 NOT CALLDATASIZE ADD SLT PUSH2 0x2A3 JUMPI PUSH2 0x77F PUSH2 0x1210 JUMP JUMPDEST SWAP1 PUSH1 0x24 CALLDATALOAD SWAP2 DUP3 ISZERO ISZERO DUP1 SWAP4 SUB PUSH2 0x7B7 JUMPI PUSH2 0x796 PUSH2 0x1226 JUMP JUMPDEST PUSH1 0x1 DUP1 PUSH1 0xA0 SHL SUB AND DUP4 MSTORE PUSH1 0xA PUSH1 0x20 MSTORE DUP3 KECCAK256 SWAP1 PUSH1 0xFF DUP1 NOT DUP4 SLOAD AND SWAP2 AND OR SWAP1 SSTORE DUP1 RETURN JUMPDEST DUP4 DUP1 REVERT JUMPDEST POP POP CALLVALUE PUSH2 0x2A3 JUMPI DUP2 PUSH1 0x3 NOT CALLDATASIZE ADD SLT PUSH2 0x2A3 JUMPI PUSH1 0x20 SWAP1 PUSH1 0xC SLOAD SWAP1 MLOAD SWAP1 DUP2 MSTORE RETURN JUMPDEST DUP4 DUP3 CALLVALUE PUSH2 0x2A3 JUMPI PUSH1 0x20 CALLDATASIZE PUSH1 0x3 NOT ADD SLT PUSH2 0x2A3 JUMPI CALLDATALOAD PUSH4 0xFFFFFFFF DUP2 AND DUP1 SWAP2 SUB PUSH2 0x2A3 JUMPI PUSH2 0x804 PUSH2 0x1226 JUMP JUMPDEST PUSH4 0xFFFFFFFF NOT PUSH1 0x8 SLOAD AND OR PUSH1 0x8 SSTORE DUP1 RETURN JUMPDEST POP CALLVALUE PUSH2 0x25E JUMPI PUSH1 0x80 CALLDATASIZE PUSH1 0x3 NOT ADD SLT PUSH2 0x25E JUMPI PUSH2 0x82F PUSH2 0x1210 JUMP JUMPDEST SWAP1 PUSH1 0x24 CALLDATALOAD SWAP1 PUSH1 0x1 PUSH1 0x1 PUSH1 0xA0 SHL SUB PUSH1 0x44 CALLDATALOAD DUP2 DUP2 AND SUB PUSH2 0x946 JUMPI PUSH1 0x64 CALLDATALOAD PUSH8 0xFFFFFFFFFFFFFFFF DUP2 GT PUSH2 0x942 JUMPI PUSH2 0x866 SWAP1 CALLDATASIZE SWAP1 DUP5 ADD PUSH2 0x11DD JUMP JUMPDEST POP POP PUSH2 0x870 PUSH2 0x14B3 JUMP JUMPDEST PUSH2 0x878 PUSH2 0x146F JUMP JUMPDEST PUSH1 0x2 SLOAD AND SWAP1 DUP2 ISZERO PUSH2 0x8F3 JUMPI DUP3 PUSH2 0x8A9 SWAP3 PUSH1 0x20 SWAP3 DUP9 DUP9 MLOAD DUP1 SWAP7 DUP2 SWAP6 DUP3 SWAP5 PUSH4 0x23B872DD PUSH1 0xE0 SHL DUP5 MSTORE ADDRESS SWAP1 CALLER SWAP1 DUP6 ADD PUSH2 0x144D JUMP JUMPDEST SUB SWAP3 GAS CALL DUP1 ISZERO PUSH2 0x8E9 JUMPI PUSH2 0x8C3 SWAP5 POP PUSH2 0x8CB JUMPI JUMPDEST POP PUSH2 0x1509 JUMP JUMPDEST POP PUSH1 0x1 DUP2 SSTORE DUP1 RETURN JUMPDEST PUSH2 0x8E2 SWAP1 PUSH1 0x20 RETURNDATASIZE DUP2 GT PUSH2 0x4C9 JUMPI PUSH2 0x4BA DUP2 DUP4 PUSH2 0x12D7 JUMP JUMPDEST POP CODESIZE PUSH2 0x8BD JUMP JUMPDEST DUP5 MLOAD RETURNDATASIZE DUP8 DUP3 RETURNDATACOPY RETURNDATASIZE SWAP1 REVERT JUMPDEST PUSH1 0x84 SWAP1 PUSH1 0x20 DUP7 MLOAD SWAP2 PUSH3 0x461BCD PUSH1 0xE5 SHL DUP4 MSTORE DUP3 ADD MSTORE PUSH1 0x23 PUSH1 0x24 DUP3 ADD MSTORE PUSH32 0x44796E616D696345617465723A20546F6B656E2061646472657373206E6F7420 PUSH1 0x44 DUP3 ADD MSTORE PUSH3 0x1CD95D PUSH1 0xEA SHL PUSH1 0x64 DUP3 ADD MSTORE REVERT JUMPDEST DUP7 DUP1 REVERT JUMPDEST DUP6 DUP1 REVERT JUMPDEST POP POP CALLVALUE PUSH2 0x2A3 JUMPI DUP2 PUSH1 0x3 NOT CALLDATASIZE ADD SLT PUSH2 0x2A3 JUMPI PUSH1 0x1 SLOAD SWAP1 MLOAD PUSH1 0x8 SWAP2 SWAP1 SWAP2 SHR PUSH1 0x1 PUSH1 0x1 PUSH1 0xA0 SHL SUB AND DUP2 MSTORE PUSH1 0x20 SWAP1 RETURN JUMPDEST DUP4 CALLVALUE PUSH2 0x36C JUMPI DUP1 PUSH1 0x3 NOT CALLDATASIZE ADD SLT PUSH2 0x36C JUMPI PUSH2 0x990 PUSH2 0x1226 JUMP JUMPDEST PUSH1 0x1 DUP1 SLOAD PUSH2 0x100 PUSH1 0x1 PUSH1 0xA8 SHL SUB NOT DUP2 AND SWAP1 SWAP2 SSTORE DUP2 SWAP1 PUSH1 0x8 SHR PUSH1 0x1 PUSH1 0x1 PUSH1 0xA0 SHL SUB AND PUSH32 0x8BE0079C531659141344CD1FD0A4F28419497F9722A3DAAFE3B4186F6B6457E0 DUP3 DUP1 LOG3 DUP1 RETURN JUMPDEST POP POP CALLVALUE PUSH2 0x2A3 JUMPI PUSH1 0x20 CALLDATASIZE PUSH1 0x3 NOT ADD SLT PUSH2 0x2A3 JUMPI PUSH1 0x20 SWAP2 DUP2 SWAP1 PUSH1 0x1 PUSH1 0x1 PUSH1 0xA0 SHL SUB PUSH2 0xA00 PUSH2 0x1210 JUMP JUMPDEST AND DUP2 MSTORE PUSH1 0x9 DUP5 MSTORE KECCAK256 SLOAD SWAP1 MLOAD SWAP1 DUP2 MSTORE RETURN JUMPDEST POP CALLVALUE PUSH2 0x25E JUMPI DUP3 PUSH1 0x3 NOT CALLDATASIZE ADD SLT PUSH2 0x25E JUMPI PUSH1 0x2 SLOAD DUP3 MLOAD PUSH4 0x313CE567 PUSH1 0xE0 SHL DUP2 MSTORE SWAP2 PUSH1 0x20 SWAP2 DUP4 SWAP2 SWAP1 DUP3 SWAP1 PUSH1 0x1 PUSH1 0x1 PUSH1 0xA0 SHL SUB AND GAS STATICCALL SWAP1 DUP2 ISZERO PUSH2 0xA87 JUMPI PUSH1 0xFF PUSH2 0x2F6 SWAP3 PUSH2 0xA65 SWAP3 PUSH1 0x20 SWAP7 SWAP2 PUSH2 0xA6A JUMPI JUMPDEST POP AND PUSH2 0x1328 JUMP JUMPDEST PUSH2 0x1343 JUMP JUMPDEST PUSH2 0xA81 SWAP2 POP DUP7 RETURNDATASIZE DUP2 GT PUSH2 0x492 JUMPI PUSH2 0x484 DUP2 DUP4 PUSH2 0x12D7 JUMP JUMPDEST CODESIZE PUSH2 0xA5E JUMP JUMPDEST POP POP MLOAD SWAP1 RETURNDATASIZE SWAP1 DUP3 RETURNDATACOPY RETURNDATASIZE SWAP1 REVERT JUMPDEST DUP4 DUP3 CALLVALUE PUSH2 0x2A3 JUMPI PUSH1 0x20 CALLDATASIZE PUSH1 0x3 NOT ADD SLT PUSH2 0x2A3 JUMPI PUSH2 0xAAE PUSH2 0x1226 JUMP JUMPDEST CALLDATALOAD PUSH1 0xB SSTORE DUP1 RETURN JUMPDEST POP CALLVALUE PUSH2 0x25E JUMPI DUP3 PUSH1 0x3 NOT CALLDATASIZE ADD SLT PUSH2 0x25E JUMPI SLOAD SWAP1 MLOAD PUSH1 0x1 PUSH1 0x1 PUSH1 0xA0 SHL SUB SWAP1 SWAP2 AND DUP2 MSTORE PUSH1 0x20 SWAP2 POP RETURN JUMPDEST POP POP CALLVALUE PUSH2 0x2A3 JUMPI DUP2 PUSH1 0x3 NOT CALLDATASIZE ADD SLT PUSH2 0x2A3 JUMPI PUSH1 0x20 SWAP1 PUSH1 0xFF PUSH1 0x1 SLOAD AND SWAP1 MLOAD SWAP1 ISZERO ISZERO DUP2 MSTORE RETURN JUMPDEST POP SWAP2 CALLVALUE PUSH2 0x36C JUMPI PUSH1 0x20 SWAP3 DUP4 PUSH1 0x3 NOT CALLDATASIZE ADD SLT PUSH2 0x2A3 JUMPI PUSH1 0x2 SLOAD DUP4 MLOAD PUSH4 0x313CE567 PUSH1 0xE0 SHL DUP1 DUP3 MSTORE DUP4 CALLDATALOAD SWAP5 SWAP3 PUSH1 0x1 PUSH1 0x1 PUSH1 0xA0 SHL SUB AND SWAP2 DUP8 DUP2 DUP7 DUP2 DUP7 GAS STATICCALL SWAP1 DUP2 ISZERO PUSH2 0xC0D JUMPI PUSH1 0xFF DUP10 SWAP4 SWAP3 PUSH1 0x12 SWAP3 DUP8 SWAP2 PUSH2 0xBF0 JUMPI JUMPDEST POP AND LT PUSH2 0xB63 JUMPI JUMPDEST POP DUP6 PUSH2 0x2F6 DUP7 PUSH2 0x1343 JUMP JUMPDEST DUP5 DUP8 MLOAD DUP1 SWAP5 DUP2 SWAP4 DUP3 MSTORE GAS STATICCALL SWAP1 DUP2 ISZERO PUSH2 0xBE6 JUMPI SWAP1 PUSH1 0xFF SWAP2 DUP4 SWAP2 PUSH2 0xBC9 JUMPI JUMPDEST POP AND PUSH1 0x12 SUB PUSH1 0xFF DUP2 GT PUSH2 0xBB6 JUMPI PUSH1 0xFF AND SWAP2 PUSH1 0x4D DUP4 GT PUSH2 0x2FD JUMPI POP POP PUSH2 0x2F6 SWAP2 PUSH2 0xBAC SWAP2 PUSH1 0xA EXP SWAP1 PUSH2 0x1281 JUMP JUMPDEST SWAP1 CODESIZE DUP1 DUP6 DUP2 PUSH2 0xB58 JUMP JUMPDEST POP PUSH1 0x11 PUSH1 0x24 SWAP3 PUSH4 0x4E487B71 PUSH1 0xE0 SHL DUP4 MSTORE MSTORE REVERT JUMPDEST PUSH2 0xBE0 SWAP2 POP DUP8 RETURNDATASIZE DUP10 GT PUSH2 0x492 JUMPI PUSH2 0x484 DUP2 DUP4 PUSH2 0x12D7 JUMP JUMPDEST CODESIZE PUSH2 0xB80 JUMP JUMPDEST DUP6 MLOAD RETURNDATASIZE DUP5 DUP3 RETURNDATACOPY RETURNDATASIZE SWAP1 REVERT JUMPDEST PUSH2 0xC07 SWAP2 POP DUP6 RETURNDATASIZE DUP8 GT PUSH2 0x492 JUMPI PUSH2 0x484 DUP2 DUP4 PUSH2 0x12D7 JUMP JUMPDEST CODESIZE PUSH2 0xB50 JUMP JUMPDEST DUP8 MLOAD RETURNDATASIZE DUP7 DUP3 RETURNDATACOPY RETURNDATASIZE SWAP1 REVERT JUMPDEST POP SWAP1 CALLVALUE PUSH2 0x25E JUMPI DUP3 PUSH1 0x3 NOT CALLDATASIZE ADD SLT PUSH2 0x25E JUMPI PUSH2 0xC31 PUSH2 0x146F JUMP JUMPDEST PUSH4 0xFFFFFFFF PUSH1 0x8 SLOAD AND ISZERO PUSH2 0xCA4 JUMPI JUMPDEST CALLER DUP4 MSTORE PUSH1 0x9 PUSH1 0x20 MSTORE PUSH1 0x1 DUP2 DUP5 KECCAK256 ADD SLOAD TIMESTAMP LT PUSH2 0xC61 JUMPI DUP3 PUSH2 0xC5E PUSH2 0x1748 JUMP JUMPDEST DUP1 RETURN JUMPDEST SWAP1 PUSH1 0x20 PUSH1 0x64 SWAP3 MLOAD SWAP2 PUSH3 0x461BCD PUSH1 0xE5 SHL DUP4 MSTORE DUP3 ADD MSTORE PUSH1 0x1F PUSH1 0x24 DUP3 ADD MSTORE PUSH32 0x44796E616D696345617465723A2056657374696E67206E6F7420656E64656400 PUSH1 0x44 DUP3 ADD MSTORE REVERT JUMPDEST PUSH2 0xCAC PUSH2 0x1748 JUMP JUMPDEST PUSH2 0xC40 JUMP JUMPDEST POP POP CALLVALUE PUSH2 0x2A3 JUMPI PUSH1 0x20 CALLDATASIZE PUSH1 0x3 NOT ADD SLT PUSH2 0x2A3 JUMPI PUSH1 0x20 SWAP2 PUSH1 0xFF SWAP1 DUP3 SWAP1 PUSH1 0x1 PUSH1 0x1 PUSH1 0xA0 SHL SUB PUSH2 0xCDC PUSH2 0x1210 JUMP JUMPDEST AND DUP2 MSTORE PUSH1 0xA DUP6 MSTORE KECCAK256 SLOAD AND SWAP1 MLOAD SWAP1 ISZERO ISZERO DUP2 MSTORE RETURN JUMPDEST POP SWAP2 SWAP1 CALLVALUE PUSH2 0x2A3 JUMPI DUP2 PUSH1 0x3 NOT CALLDATASIZE ADD SLT PUSH2 0x2A3 JUMPI PUSH2 0xD0A PUSH2 0x1226 JUMP JUMPDEST PUSH1 0x3 SLOAD DUP2 MLOAD PUSH4 0x70A08231 PUSH1 0xE0 SHL DUP2 MSTORE ADDRESS DUP6 DUP3 ADD MSTORE SWAP4 PUSH1 0x20 SWAP3 SWAP2 PUSH1 0x1 PUSH1 0x1 PUSH1 0xA0 SHL SUB SWAP1 DUP2 AND SWAP2 SWAP1 DUP5 DUP8 PUSH1 0x24 DUP2 DUP7 GAS STATICCALL SWAP7 DUP8 ISZERO PUSH2 0xE41 JUMPI DUP7 SWAP8 PUSH2 0xE12 JUMPI JUMPDEST POP DUP7 ISZERO PUSH2 0xDC5 JUMPI PUSH1 0x1 SLOAD DUP5 MLOAD PUSH4 0xA9059CBB PUSH1 0xE0 SHL DUP2 MSTORE PUSH1 0x1 PUSH1 0x1 PUSH1 0xA0 SHL SUB PUSH1 0x8 SWAP3 SWAP1 SWAP3 SHR SWAP1 SWAP3 AND AND SWAP2 DUP2 ADD SWAP2 DUP3 MSTORE PUSH1 0x20 DUP3 ADD DUP8 SWAP1 MSTORE SWAP3 SWAP2 DUP5 SWAP2 DUP5 SWAP2 SWAP1 DUP3 SWAP1 DUP9 SWAP1 DUP3 SWAP1 PUSH1 0x40 ADD SUB SWAP3 GAS CALL SWAP1 DUP2 ISZERO PUSH2 0xDBC JUMPI POP PUSH2 0xD9F JUMPI DUP3 DUP1 RETURN JUMPDEST DUP2 PUSH2 0xDB5 SWAP3 SWAP1 RETURNDATASIZE LT PUSH2 0x4C9 JUMPI PUSH2 0x4BA DUP2 DUP4 PUSH2 0x12D7 JUMP JUMPDEST POP DUP2 DUP1 DUP3 DUP1 RETURN JUMPDEST MLOAD RETURNDATASIZE DUP6 DUP3 RETURNDATACOPY RETURNDATASIZE SWAP1 REVERT JUMPDEST DUP4 MLOAD PUSH3 0x461BCD PUSH1 0xE5 SHL DUP2 MSTORE DUP1 DUP4 ADD DUP7 SWAP1 MSTORE PUSH1 0x21 PUSH1 0x24 DUP3 ADD MSTORE PUSH32 0x44796E616D696345617465723A204E6F2062616C616E636520746F2073776565 PUSH1 0x44 DUP3 ADD MSTORE PUSH1 0x7 PUSH1 0xFC SHL PUSH1 0x64 DUP3 ADD MSTORE PUSH1 0x84 SWAP1 REVERT JUMPDEST SWAP1 SWAP7 POP DUP5 DUP2 DUP2 RETURNDATASIZE DUP4 GT PUSH2 0xE3A JUMPI JUMPDEST PUSH2 0xE2A DUP2 DUP4 PUSH2 0x12D7 JUMP JUMPDEST DUP2 ADD SUB SLT PUSH2 0x946 JUMPI MLOAD SWAP6 CODESIZE PUSH2 0xD46 JUMP JUMPDEST POP RETURNDATASIZE PUSH2 0xE20 JUMP JUMPDEST DUP5 MLOAD RETURNDATASIZE DUP9 DUP3 RETURNDATACOPY RETURNDATASIZE SWAP1 REVERT JUMPDEST POP POP CALLVALUE PUSH2 0x2A3 JUMPI DUP2 PUSH1 0x3 NOT CALLDATASIZE ADD SLT PUSH2 0x2A3 JUMPI PUSH1 0x20 SWAP1 PUSH1 0xB SLOAD SWAP1 MLOAD SWAP1 DUP2 MSTORE RETURN JUMPDEST POP CALLVALUE PUSH2 0x25E JUMPI PUSH1 0x20 SWAP3 DUP4 PUSH1 0x3 NOT CALLDATASIZE ADD SLT PUSH2 0x36C JUMPI DUP2 CALLDATALOAD SWAP2 PUSH2 0xE89 PUSH2 0x146F JUMP JUMPDEST PUSH1 0x2 SLOAD DUP5 MLOAD PUSH4 0x70A08231 PUSH1 0xE0 SHL DUP2 MSTORE CALLER DUP4 DUP3 ADD MSTORE DUP5 SWAP4 SWAP2 PUSH1 0x1 PUSH1 0x1 PUSH1 0xA0 SHL SUB SWAP2 SWAP1 DUP3 AND SWAP1 DUP9 DUP2 PUSH1 0x24 DUP2 DUP6 GAS STATICCALL DUP1 ISZERO PUSH2 0xF21 JUMPI DUP8 SWAP1 DUP6 SWAP1 PUSH2 0xEF0 JUMPI JUMPDEST PUSH2 0xED0 SWAP3 POP LT ISZERO PUSH2 0x13D7 JUMP JUMPDEST DUP8 DUP8 MLOAD DUP1 SWAP3 PUSH4 0x23B872DD PUSH1 0xE0 SHL DUP3 MSTORE DUP2 DUP7 DUP2 PUSH2 0x3E8 DUP13 ADDRESS CALLER DUP14 DUP6 ADD PUSH2 0x144D JUMP JUMPDEST POP POP DUP9 DUP2 DUP2 RETURNDATASIZE DUP4 GT PUSH2 0xF1A JUMPI JUMPDEST PUSH2 0xF07 DUP2 DUP4 PUSH2 0x12D7 JUMP JUMPDEST DUP2 ADD SUB SLT PUSH2 0x7B7 JUMPI DUP7 PUSH2 0xED0 SWAP2 MLOAD PUSH2 0xEC4 JUMP JUMPDEST POP RETURNDATASIZE PUSH2 0xEFD JUMP JUMPDEST DUP9 MLOAD RETURNDATASIZE DUP7 DUP3 RETURNDATACOPY RETURNDATASIZE SWAP1 REVERT JUMPDEST POP POP CALLVALUE PUSH2 0x2A3 JUMPI DUP2 PUSH1 0x3 NOT CALLDATASIZE ADD SLT PUSH2 0x2A3 JUMPI PUSH1 0x2 SLOAD SWAP1 MLOAD PUSH1 0x1 PUSH1 0x1 PUSH1 0xA0 SHL SUB SWAP1 SWAP2 AND DUP2 MSTORE PUSH1 0x20 SWAP1 RETURN JUMPDEST SWAP3 SWAP1 POP CALLVALUE PUSH2 0x761 JUMPI PUSH1 0x60 CALLDATASIZE PUSH1 0x3 NOT ADD SLT PUSH2 0x761 JUMPI PUSH1 0x1 PUSH1 0x1 PUSH1 0xA0 SHL SUB PUSH1 0x24 CALLDATALOAD DUP2 DUP2 AND SWAP1 DUP5 CALLDATALOAD SWAP1 DUP3 SWAP1 SUB PUSH2 0x946 JUMPI PUSH1 0x44 CALLDATALOAD PUSH8 0xFFFFFFFFFFFFFFFF DUP2 GT PUSH2 0x942 JUMPI PUSH2 0xFA0 SWAP1 CALLDATASIZE SWAP1 DUP8 ADD PUSH2 0x11DD JUMP JUMPDEST SWAP7 SWAP1 SWAP6 PUSH2 0xFAB PUSH2 0x14B3 JUMP JUMPDEST PUSH2 0xFB3 PUSH2 0x146F JUMP JUMPDEST PUSH1 0x2 SLOAD DUP7 MLOAD PUSH4 0x70A08231 PUSH1 0xE0 SHL DUP2 MSTORE CALLER DUP4 DUP3 ADD MSTORE PUSH1 0x20 SWAP10 SWAP2 DUP8 AND SWAP1 DUP11 DUP2 PUSH1 0x24 DUP2 DUP6 GAS STATICCALL DUP1 ISZERO PUSH2 0x1192 JUMPI DUP7 SWAP1 DUP7 SWAP1 PUSH2 0x115D JUMPI JUMPDEST PUSH2 0xFF1 SWAP3 POP LT ISZERO PUSH2 0x13D7 JUMP JUMPDEST DUP10 DUP9 MLOAD DUP1 SWAP3 PUSH4 0x23B872DD PUSH1 0xE0 SHL DUP3 MSTORE DUP2 DUP8 DUP2 PUSH2 0x1011 DUP12 ADDRESS CALLER DUP13 DUP6 ADD PUSH2 0x144D JUMP JUMPDEST SUB SWAP3 GAS CALL DUP1 ISZERO PUSH2 0xF21 JUMPI PUSH2 0x1140 JUMPI JUMPDEST POP PUSH2 0x102B CALLER DUP6 PUSH2 0x1509 JUMP JUMPDEST POP PUSH1 0x2 SLOAD DUP8 MLOAD PUSH4 0x95EA7B3 PUSH1 0xE0 SHL DUP2 MSTORE PUSH1 0x1 PUSH1 0x1 PUSH1 0xA0 SHL SUB DUP8 AND DUP5 DUP3 ADD SWAP1 DUP2 MSTORE PUSH1 0x20 DUP2 ADD DUP8 SWAP1 MSTORE SWAP1 SWAP2 DUP12 SWAP2 DUP4 SWAP2 DUP11 AND SWAP1 DUP3 SWAP1 DUP9 SWAP1 DUP3 SWAP1 PUSH1 0x40 ADD SUB SWAP3 GAS CALL DUP1 ISZERO PUSH2 0xF21 JUMPI SWAP2 DUP11 SWAP8 SWAP7 SWAP6 SWAP5 SWAP4 SWAP2 PUSH1 0xA4 SWAP4 PUSH2 0x1123 JUMPI JUMPDEST POP DUP1 DUP8 DUP4 SLOAD AND DUP1 ISZERO PUSH1 0x0 EQ PUSH2 0x111D JUMPI POP ADDRESS SWAP11 JUMPDEST DUP9 PUSH1 0x2 SLOAD AND SWAP9 DUP12 MLOAD SWAP13 DUP14 SWAP11 DUP12 SWAP10 DUP11 SWAP8 PUSH4 0x2454B71 PUSH1 0xE4 SHL DUP10 MSTORE DUP9 ADD MSTORE PUSH1 0x24 DUP8 ADD MSTORE AND PUSH1 0x44 DUP6 ADD MSTORE PUSH1 0x80 PUSH1 0x64 DUP6 ADD MSTORE DUP2 PUSH1 0x84 DUP6 ADD MSTORE DUP5 DUP5 ADD CALLDATACOPY DUP2 DUP2 ADD DUP4 ADD DUP5 SWAP1 MSTORE PUSH1 0x1F ADD PUSH1 0x1F NOT AND DUP2 ADD SUB ADD SWAP3 GAS CALL SWAP1 DUP2 ISZERO PUSH2 0xDBC JUMPI POP PUSH2 0x10F4 JUMPI JUMPDEST DUP3 PUSH1 0x1 DUP2 SSTORE DUP1 RETURN JUMPDEST DUP2 RETURNDATASIZE DUP4 GT PUSH2 0x1116 JUMPI JUMPDEST PUSH2 0x1107 DUP2 DUP4 PUSH2 0x12D7 JUMP JUMPDEST DUP2 ADD SUB SLT PUSH2 0x36C JUMPI CODESIZE DUP1 PUSH2 0x10EC JUMP JUMPDEST POP RETURNDATASIZE PUSH2 0x10FD JUMP JUMPDEST SWAP11 PUSH2 0x1091 JUMP JUMPDEST PUSH2 0x1139 SWAP1 DUP10 RETURNDATASIZE DUP12 GT PUSH2 0x4C9 JUMPI PUSH2 0x4BA DUP2 DUP4 PUSH2 0x12D7 JUMP JUMPDEST POP CODESIZE PUSH2 0x107E JUMP JUMPDEST PUSH2 0x1156 SWAP1 DUP11 RETURNDATASIZE DUP13 GT PUSH2 0x4C9 JUMPI PUSH2 0x4BA DUP2 DUP4 PUSH2 0x12D7 JUMP JUMPDEST POP CODESIZE PUSH2 0x1020 JUMP JUMPDEST POP POP DUP11 DUP2 DUP2 RETURNDATASIZE DUP4 GT PUSH2 0x118B JUMPI JUMPDEST PUSH2 0x1174 DUP2 DUP4 PUSH2 0x12D7 JUMP JUMPDEST DUP2 ADD SUB SLT PUSH2 0x1187 JUMPI DUP6 PUSH2 0xFF1 SWAP2 MLOAD PUSH2 0xFE5 JUMP JUMPDEST DUP5 DUP1 REVERT JUMPDEST POP RETURNDATASIZE PUSH2 0x116A JUMP JUMPDEST DUP10 MLOAD RETURNDATASIZE DUP8 DUP3 RETURNDATACOPY RETURNDATASIZE SWAP1 REVERT JUMPDEST POP POP CALLVALUE PUSH2 0x2A3 JUMPI DUP2 PUSH1 0x3 NOT CALLDATASIZE ADD SLT PUSH2 0x2A3 JUMPI PUSH1 0x20 SWAP1 PUSH1 0x5 SLOAD SWAP1 MLOAD SWAP1 DUP2 MSTORE RETURN JUMPDEST DUP5 SWAP1 CALLVALUE PUSH2 0x2A3 JUMPI DUP2 PUSH1 0x3 NOT CALLDATASIZE ADD SLT PUSH2 0x2A3 JUMPI PUSH1 0x20 SWAP1 PUSH4 0xFFFFFFFF PUSH1 0x8 SLOAD AND DUP2 MSTORE RETURN JUMPDEST SWAP2 DUP2 PUSH1 0x1F DUP5 ADD SLT ISZERO PUSH2 0x120B JUMPI DUP3 CALLDATALOAD SWAP2 PUSH8 0xFFFFFFFFFFFFFFFF DUP4 GT PUSH2 0x120B JUMPI PUSH1 0x20 DUP4 DUP2 DUP7 ADD SWAP6 ADD ADD GT PUSH2 0x120B JUMPI JUMP JUMPDEST PUSH1 0x0 DUP1 REVERT JUMPDEST PUSH1 0x4 CALLDATALOAD SWAP1 PUSH1 0x1 PUSH1 0x1 PUSH1 0xA0 SHL SUB DUP3 AND DUP3 SUB PUSH2 0x120B JUMPI JUMP JUMPDEST PUSH1 0x1 SLOAD PUSH1 0x8 SHR PUSH1 0x1 PUSH1 0x1 PUSH1 0xA0 SHL SUB AND CALLER SUB PUSH2 0x123D JUMPI JUMP JUMPDEST PUSH1 0x64 PUSH1 0x40 MLOAD PUSH3 0x461BCD PUSH1 0xE5 SHL DUP2 MSTORE PUSH1 0x20 PUSH1 0x4 DUP3 ADD MSTORE PUSH1 0x20 PUSH1 0x24 DUP3 ADD MSTORE PUSH32 0x4F776E61626C653A2063616C6C6572206973206E6F7420746865206F776E6572 PUSH1 0x44 DUP3 ADD MSTORE REVERT JUMPDEST DUP2 DUP2 MUL SWAP3 SWAP2 DUP2 ISZERO SWAP2 DUP5 DIV EQ OR ISZERO PUSH2 0x1294 JUMPI JUMP JUMPDEST PUSH4 0x4E487B71 PUSH1 0xE0 SHL PUSH1 0x0 MSTORE PUSH1 0x11 PUSH1 0x4 MSTORE PUSH1 0x24 PUSH1 0x0 REVERT JUMPDEST DUP2 ISZERO PUSH2 0x12B4 JUMPI DIV SWAP1 JUMP JUMPDEST PUSH4 0x4E487B71 PUSH1 0xE0 SHL PUSH1 0x0 MSTORE PUSH1 0x12 PUSH1 0x4 MSTORE PUSH1 0x24 PUSH1 0x0 REVERT JUMPDEST SWAP2 SWAP1 DUP3 SUB SWAP2 DUP3 GT PUSH2 0x1294 JUMPI JUMP JUMPDEST SWAP1 PUSH1 0x1F DUP1 NOT SWAP2 ADD AND DUP2 ADD SWAP1 DUP2 LT PUSH8 0xFFFFFFFFFFFFFFFF DUP3 GT OR PUSH2 0x12F9 JUMPI PUSH1 0x40 MSTORE JUMP JUMPDEST PUSH4 0x4E487B71 PUSH1 0xE0 SHL PUSH1 0x0 MSTORE PUSH1 0x41 PUSH1 0x4 MSTORE PUSH1 0x24 PUSH1 0x0 REVERT JUMPDEST SWAP1 DUP2 PUSH1 0x20 SWAP2 SUB SLT PUSH2 0x120B JUMPI MLOAD PUSH1 0xFF DUP2 AND DUP2 SUB PUSH2 0x120B JUMPI SWAP1 JUMP JUMPDEST PUSH1 0x4D DUP2 GT PUSH2 0x1294 JUMPI PUSH1 0xA EXP SWAP1 JUMP JUMPDEST SWAP2 SWAP1 DUP3 ADD DUP1 SWAP3 GT PUSH2 0x1294 JUMPI JUMP JUMPDEST PUSH2 0x134F DUP2 PUSH1 0xB SLOAD PUSH2 0x1336 JUMP JUMPDEST DUP1 ISZERO PUSH2 0x1373 JUMPI PUSH2 0x136B PUSH2 0x1370 SWAP3 PUSH2 0x45E PUSH1 0xC SLOAD PUSH1 0x5 SLOAD SWAP1 PUSH2 0x12CA JUMP JUMPDEST PUSH2 0x12AA JUMP JUMPDEST SWAP1 JUMP JUMPDEST PUSH1 0x40 MLOAD PUSH3 0x461BCD PUSH1 0xE5 SHL DUP2 MSTORE PUSH1 0x20 PUSH1 0x4 DUP3 ADD MSTORE PUSH1 0x36 PUSH1 0x24 DUP3 ADD MSTORE PUSH32 0x44796E616D696345617465723A206E6577464F4D4F42616C616E6365206D7573 PUSH1 0x44 DUP3 ADD MSTORE PUSH22 0x742062652067726561746572207468616E207A65726F PUSH1 0x50 SHL PUSH1 0x64 DUP3 ADD MSTORE PUSH1 0x84 SWAP1 REVERT JUMPDEST ISZERO PUSH2 0x13DE JUMPI JUMP JUMPDEST PUSH1 0x40 MLOAD PUSH3 0x461BCD PUSH1 0xE5 SHL DUP2 MSTORE PUSH1 0x20 PUSH1 0x4 DUP3 ADD MSTORE PUSH1 0x29 PUSH1 0x24 DUP3 ADD MSTORE PUSH32 0x44796E616D696345617465723A20496E73756666696369656E742062616C616E PUSH1 0x44 DUP3 ADD MSTORE PUSH9 0x18D9481D1BC819585D PUSH1 0xBA SHL PUSH1 0x64 DUP3 ADD MSTORE PUSH1 0x84 SWAP1 REVERT JUMPDEST SWAP1 DUP2 PUSH1 0x20 SWAP2 SUB SLT PUSH2 0x120B JUMPI MLOAD DUP1 ISZERO ISZERO DUP2 SUB PUSH2 0x120B JUMPI SWAP1 JUMP JUMPDEST PUSH1 0x1 PUSH1 0x1 PUSH1 0xA0 SHL SUB SWAP2 DUP3 AND DUP2 MSTORE SWAP2 AND PUSH1 0x20 DUP3 ADD MSTORE PUSH1 0x40 DUP2 ADD SWAP2 SWAP1 SWAP2 MSTORE PUSH1 0x60 ADD SWAP1 JUMP JUMPDEST PUSH1 0xFF PUSH1 0x1 SLOAD AND PUSH2 0x147B JUMPI JUMP JUMPDEST PUSH1 0x40 MLOAD PUSH3 0x461BCD PUSH1 0xE5 SHL DUP2 MSTORE PUSH1 0x20 PUSH1 0x4 DUP3 ADD MSTORE PUSH1 0x10 PUSH1 0x24 DUP3 ADD MSTORE PUSH16 0x14185D5CD8589B194E881C185D5CD959 PUSH1 0x82 SHL PUSH1 0x44 DUP3 ADD MSTORE PUSH1 0x64 SWAP1 REVERT JUMPDEST PUSH1 0x2 PUSH1 0x0 SLOAD EQ PUSH2 0x14C4 JUMPI PUSH1 0x2 PUSH1 0x0 SSTORE JUMP JUMPDEST PUSH1 0x40 MLOAD PUSH3 0x461BCD PUSH1 0xE5 SHL DUP2 MSTORE PUSH1 0x20 PUSH1 0x4 DUP3 ADD MSTORE PUSH1 0x1F PUSH1 0x24 DUP3 ADD MSTORE PUSH32 0x5265656E7472616E637947756172643A207265656E7472616E742063616C6C00 PUSH1 0x44 DUP3 ADD MSTORE PUSH1 0x64 SWAP1 REVERT JUMPDEST PUSH2 0x1512 DUP2 PUSH2 0x1343 JUMP JUMPDEST PUSH1 0x3 SLOAD PUSH1 0x40 DUP1 MLOAD PUSH4 0x70A08231 PUSH1 0xE0 SHL DUP2 MSTORE ADDRESS PUSH1 0x4 DUP3 ADD MSTORE SWAP3 SWAP5 PUSH1 0x20 SWAP4 SWAP2 SWAP3 PUSH1 0x1 PUSH1 0x1 PUSH1 0xA0 SHL SUB SWAP3 SWAP1 DUP4 AND SWAP1 DUP6 DUP2 PUSH1 0x24 DUP2 DUP6 GAS STATICCALL SWAP1 DUP2 ISZERO PUSH2 0x16AF JUMPI PUSH1 0x0 SWAP2 PUSH2 0x171B JUMPI JUMPDEST POP DUP8 GT PUSH2 0x16BA JUMPI PUSH1 0x8 SLOAD PUSH4 0xFFFFFFFF SWAP2 SWAP1 DUP3 AND ISZERO PUSH2 0x1620 JUMPI POP DUP3 DUP3 AND SWAP5 DUP6 PUSH1 0x0 MSTORE PUSH1 0x9 DUP2 MSTORE PUSH2 0x1587 DUP6 PUSH1 0x0 KECCAK256 SLOAD DUP10 PUSH2 0x1336 JUMP JUMPDEST SWAP2 PUSH1 0x3C DUP2 PUSH1 0x8 SLOAD AND MUL SWAP1 DUP2 AND SWAP1 DUP2 SUB PUSH2 0x1294 JUMPI PUSH2 0x15A4 SWAP1 TIMESTAMP PUSH2 0x1336 JUMP JUMPDEST DUP6 MLOAD SWAP1 DUP7 DUP3 ADD SWAP1 DUP3 DUP3 LT PUSH8 0xFFFFFFFFFFFFFFFF DUP4 GT OR PUSH2 0x12F9 JUMPI PUSH32 0xABE5455971BDCD932E7251D16CD53F88CD4410BF4DF21530E88BF13DADE6A7D4 SWAP9 DUP12 SWAP6 PUSH1 0x1 SWAP4 DUP11 MSTORE DUP5 MSTORE DUP5 DUP5 ADD SWAP2 DUP3 MSTORE PUSH1 0x0 MSTORE PUSH1 0x9 DUP5 MSTORE DUP8 PUSH1 0x0 KECCAK256 SWAP3 MLOAD DUP4 SSTORE MLOAD SWAP2 ADD SSTORE PUSH2 0x160E DUP3 PUSH1 0x5 SLOAD PUSH2 0x1336 JUMP JUMPDEST PUSH1 0x5 SSTORE JUMPDEST DUP5 MLOAD SWAP7 DUP8 MSTORE DUP7 ADD MSTORE AND SWAP3 LOG2 SWAP1 JUMP JUMPDEST DUP5 MLOAD PUSH4 0xA9059CBB PUSH1 0xE0 SHL DUP2 MSTORE PUSH1 0x1 PUSH1 0x1 PUSH1 0xA0 SHL SUB DUP5 AND PUSH1 0x4 DUP3 ADD MSTORE PUSH1 0x24 DUP2 ADD DUP10 SWAP1 MSTORE SWAP5 SWAP6 SWAP4 SWAP5 SWAP3 SWAP4 SWAP3 SWAP2 POP DUP3 SWAP1 DUP3 SWAP1 PUSH1 0x44 SWAP1 DUP3 SWAP1 PUSH1 0x0 SWAP1 GAS CALL DUP1 ISZERO PUSH2 0x16AF JUMPI SWAP2 DUP8 SWAP2 PUSH32 0xABE5455971BDCD932E7251D16CD53F88CD4410BF4DF21530E88BF13DADE6A7D4 SWAP7 SWAP6 SWAP5 SWAP4 PUSH2 0x1692 JUMPI JUMPDEST POP PUSH2 0x1612 JUMP JUMPDEST PUSH2 0x16A8 SWAP1 DUP3 RETURNDATASIZE DUP5 GT PUSH2 0x4C9 JUMPI PUSH2 0x4BA DUP2 DUP4 PUSH2 0x12D7 JUMP JUMPDEST POP CODESIZE PUSH2 0x168C JUMP JUMPDEST DUP6 MLOAD RETURNDATASIZE PUSH1 0x0 DUP3 RETURNDATACOPY RETURNDATASIZE SWAP1 REVERT JUMPDEST DUP4 MLOAD PUSH3 0x461BCD PUSH1 0xE5 SHL DUP2 MSTORE PUSH1 0x4 DUP2 ADD DUP7 SWAP1 MSTORE PUSH1 0x34 PUSH1 0x24 DUP3 ADD MSTORE PUSH32 0x44796E616D696345617465723A20496E73756666696369656E7420746F6B656E PUSH1 0x44 DUP3 ADD MSTORE PUSH20 0x103130B630B731B2903A37903A3930B739B332B9 PUSH1 0x61 SHL PUSH1 0x64 DUP3 ADD MSTORE PUSH1 0x84 SWAP1 REVERT JUMPDEST SWAP1 DUP7 DUP3 DUP2 RETURNDATASIZE DUP4 GT PUSH2 0x1741 JUMPI JUMPDEST PUSH2 0x1731 DUP2 DUP4 PUSH2 0x12D7 JUMP JUMPDEST DUP2 ADD SUB SLT PUSH2 0x36C JUMPI POP MLOAD CODESIZE PUSH2 0x1554 JUMP JUMPDEST POP RETURNDATASIZE PUSH2 0x1727 JUMP JUMPDEST CALLER PUSH1 0x0 DUP2 DUP2 MSTORE PUSH1 0x9 PUSH1 0x20 SWAP1 DUP2 MSTORE PUSH1 0x40 DUP1 DUP4 KECCAK256 DUP1 SLOAD SWAP1 DUP5 SWAP1 SSTORE PUSH1 0x3 SLOAD SWAP2 MLOAD PUSH4 0xA9059CBB PUSH1 0xE0 SHL DUP2 MSTORE PUSH1 0x4 DUP2 ADD SWAP6 SWAP1 SWAP6 MSTORE PUSH1 0x24 DUP6 ADD MSTORE SWAP1 SWAP2 DUP4 SWAP2 PUSH1 0x44 SWAP2 DUP4 SWAP2 PUSH1 0x1 PUSH1 0x1 PUSH1 0xA0 SHL SUB AND GAS CALL DUP1 ISZERO PUSH2 0x17B7 JUMPI PUSH2 0x179D JUMPI POP JUMP JUMPDEST PUSH2 0x17B4 SWAP1 PUSH1 0x20 RETURNDATASIZE DUP2 GT PUSH2 0x4C9 JUMPI PUSH2 0x4BA DUP2 DUP4 PUSH2 0x12D7 JUMP JUMPDEST POP JUMP JUMPDEST PUSH1 0x40 MLOAD RETURNDATASIZE PUSH1 0x0 DUP3 RETURNDATACOPY RETURNDATASIZE SWAP1 REVERT INVALID LOG2 PUSH5 0x6970667358 0x22 SLT KECCAK256 SGT DUP8 ORIGIN 0xA5 0xE7 0xD SWAP6 0xC6 SGT 0x5F 0x5D SWAP6 0x1F 0xFB 0x22 0x29 0xCC 0xC2 DUP12 0x28 CODECOPY 0x24 0xA7 PUSH2 0x75A EXP DUP6 0xD9 DUP2 0xE9 0xE1 PUSH5 0x736F6C6343 STOP ADDMOD SGT STOP CALLER "
        },
        "methodIdentifiers": {
          "addWhiteList(address,bool)": "a718d11b",
          "balanceOf(address)": "70a08231",
          "calculateTokensOut(uint256)": "4fa1f104",
          "canClaim(address)": "bf3506c1",
          "claim()": "4e71d92d",
          "deposit(uint256)": "b6b55f25",
          "getCurrentPrice()": "eb91d37e",
          "getRate()": "679aefce",
          "getToken()": "21df0da7",
          "maxSupply()": "d5abeb01",
          "merge(uint256)": "24a47aeb",
          "mergeAll()": "ea9f2417",
          "mergeAndSell(uint256,address,bytes)": "213897fe",
          "owner()": "8da5cb5b",
          "paused()": "5c975abb",
          "receiveApproval(address,uint256,address,bytes)": "8f4ffcb1",
          "renounceOwnership()": "715018a6",
          "setTreasury(address)": "f0f44260",
          "setVestingDuration(uint32)": "9636d881",
          "setVirtualTokenBalance(uint256)": "655a9ac2",
          "setVirtualWeWEBalance(uint256)": "dece1baa",
          "sweep()": "35faa416",
          "togglePause()": "c4ae3168",
          "totalVested()": "199cbc54",
          "transferOwnership(address)": "f2fde38b",
          "treasury()": "61d027b3",
          "vestingDuration()": "1514617e",
          "vestings(address)": "daf49863",
          "virtualFOMO()": "29b30c8d",
          "virtualWEWE()": "9ed4527e",
          "wewe()": "e1f26f22",
          "whiteList(address)": "372c12b1"
        }
      }
    }
  }
}