{
  "contracts/core/merge/BBroMerge.sol": {
    "BBroMerge": {
      "abi": [
        {
          "inputs": [],
          "stateMutability": "nonpayable",
          "type": "constructor"
        },
        {
          "anonymous": false,
          "inputs": [
            {
              "indexed": false,
              "internalType": "uint256",
              "name": "amount",
              "type": "uint256"
            },
            {
              "indexed": true,
              "internalType": "address",
              "name": "account",
              "type": "address"
            }
          ],
          "name": "Merged",
          "type": "event"
        },
        {
          "anonymous": false,
          "inputs": [
            {
              "indexed": true,
              "internalType": "address",
              "name": "previousOwner",
              "type": "address"
            },
            {
              "indexed": true,
              "internalType": "address",
              "name": "newOwner",
              "type": "address"
            }
          ],
          "name": "OwnershipTransferred",
          "type": "event"
        },
        {
          "anonymous": false,
          "inputs": [
            {
              "indexed": false,
              "internalType": "address",
              "name": "account",
              "type": "address"
            }
          ],
          "name": "Paused",
          "type": "event"
        },
        {
          "anonymous": false,
          "inputs": [
            {
              "indexed": false,
              "internalType": "uint256",
              "name": "newRate",
              "type": "uint256"
            }
          ],
          "name": "RateChanged",
          "type": "event"
        },
        {
          "anonymous": false,
          "inputs": [
            {
              "indexed": false,
              "internalType": "address",
              "name": "account",
              "type": "address"
            }
          ],
          "name": "Unpaused",
          "type": "event"
        },
        {
          "inputs": [
            {
              "internalType": "uint256",
              "name": "amount",
              "type": "uint256"
            }
          ],
          "name": "deposit",
          "outputs": [],
          "stateMutability": "nonpayable",
          "type": "function"
        },
        {
          "inputs": [],
          "name": "getRate",
          "outputs": [
            {
              "internalType": "uint256",
              "name": "",
              "type": "uint256"
            }
          ],
          "stateMutability": "view",
          "type": "function"
        },
        {
          "inputs": [],
          "name": "getToken",
          "outputs": [
            {
              "internalType": "address",
              "name": "",
              "type": "address"
            }
          ],
          "stateMutability": "view",
          "type": "function"
        },
        {
          "inputs": [
            {
              "internalType": "uint256",
              "name": "amount",
              "type": "uint256"
            }
          ],
          "name": "merge",
          "outputs": [],
          "stateMutability": "nonpayable",
          "type": "function"
        },
        {
          "inputs": [],
          "name": "mergeAll",
          "outputs": [],
          "stateMutability": "nonpayable",
          "type": "function"
        },
        {
          "inputs": [],
          "name": "owner",
          "outputs": [
            {
              "internalType": "address",
              "name": "",
              "type": "address"
            }
          ],
          "stateMutability": "view",
          "type": "function"
        },
        {
          "inputs": [],
          "name": "paused",
          "outputs": [
            {
              "internalType": "bool",
              "name": "",
              "type": "bool"
            }
          ],
          "stateMutability": "view",
          "type": "function"
        },
        {
          "inputs": [
            {
              "internalType": "address",
              "name": "from",
              "type": "address"
            },
            {
              "internalType": "uint256",
              "name": "amount",
              "type": "uint256"
            },
            {
              "internalType": "address",
              "name": "",
              "type": "address"
            },
            {
              "internalType": "bytes",
              "name": "",
              "type": "bytes"
            }
          ],
          "name": "receiveApproval",
          "outputs": [],
          "stateMutability": "nonpayable",
          "type": "function"
        },
        {
          "inputs": [],
          "name": "renounceOwnership",
          "outputs": [],
          "stateMutability": "nonpayable",
          "type": "function"
        },
        {
          "inputs": [
            {
              "internalType": "uint256",
              "name": "rate",
              "type": "uint256"
            }
          ],
          "name": "setRate",
          "outputs": [],
          "stateMutability": "nonpayable",
          "type": "function"
        },
        {
          "inputs": [],
          "name": "sweep",
          "outputs": [],
          "stateMutability": "nonpayable",
          "type": "function"
        },
        {
          "inputs": [],
          "name": "togglePause",
          "outputs": [],
          "stateMutability": "nonpayable",
          "type": "function"
        },
        {
          "inputs": [
            {
              "internalType": "address",
              "name": "newOwner",
              "type": "address"
            }
          ],
          "name": "transferOwnership",
          "outputs": [],
          "stateMutability": "nonpayable",
          "type": "function"
        },
        {
          "inputs": [],
          "name": "wewe",
          "outputs": [
            {
              "internalType": "address",
              "name": "",
              "type": "address"
            }
          ],
          "stateMutability": "view",
          "type": "function"
        }
      ],
      "evm": {
        "bytecode": {
          "linkReferences": {},
          "object": "608080604052346100dd5760207f62e78cea01bee320cd4e420270b5ea74000d11b0c9f74754ebdbfc544b05a2589160016000556001805433828060a01b038260081c167f8be0079c531659141344cd1fd0a4f28419497f9722a3daafe3b4186f6b6457e0600080a36064600255736b9bb36519538e0c073894e964e90172e1c0b41f828060a01b031973de74eb14fb3f6f7236550819934065acc989062281600354161760035560045416176004556101008260a81b033360081b1690828060a81b0319161717600155338152a1604051610e8990816100e38239f35b600080fdfe6080604081815260048036101561001557600080fd5b600092833560e01c90816321df0da714610d025750806324a47aeb14610c2a57806334fcf43714610b7757806335faa41614610a225780635c975abb146109fe578063679aefce146109df578063715018a61461097b5780638da5cb5b1461094a5780638f4ffcb1146105ae57838163b6b55f251461052157508063c4ae31681461043e578063e1f26f2214610417578063ea9f24171461019a5763f2fde38b146100bf57600080fd5b34610196576020366003190112610196576100d8610d27565b6100e0610d42565b6001600160a01b0381811693909290841561014457505060018054610100600160a81b03198116600893841b610100600160a81b031617909155901c167f8be0079c531659141344cd1fd0a4f28419497f9722a3daafe3b4186f6b6457e08380a380f35b906020608492519162461bcd60e51b8352820152602660248201527f4f776e61626c653a206e6577206f776e657220697320746865207a65726f206160448201526564647265737360d01b6064820152fd5b8280fd5b503461019657826003193601126101965760035482516370a0823160e01b808252338483015290926020926001600160a01b039081168486602481845afa9586156103335788966103e4575b506101ef610e0f565b6002548087029087820414871517156103d157606490049385838554169160248a5180948193825230898301525afa9081156103c7578991610396575b50841161033d5784875180926323b872dd60e01b8252818b816102538c30338c8501610ded565b03925af1801561033357918593916102a1989593610316575b508154855163a9059cbb60e01b815233938101938452602084019490945292978893919091169183918a918391604090910190565b03925af193841561030c577fadc41ba80ffa0859aab1d7cf405a6633a6af94fc3d10e5b0e0bf46cdcc0fd9c893946102df575b50519283523392a280f35b6102fe90833d8511610305575b6102f68183610d9d565b810190610dd5565b50386102d4565b503d6102ec565b81513d87823e3d90fd5b61032c90853d8711610305576102f68183610d9d565b503861026c565b87513d8a823e3d90fd5b865162461bcd60e51b8152808401869052602d60248201527f45617465723a20496e73756666696369656e7420746f6b656e2062616c616e6360448201526c32903a37903a3930b739b332b960991b6064820152608490fd5b90508581813d83116103c0575b6103ad8183610d9d565b810103126103bc57513861022c565b8880fd5b503d6103a3565b88513d8b823e3d90fd5b634e487b7160e01b895260118452602489fd5b9095508481813d8311610410575b6103fc8183610d9d565b8101031261040c575194386101e6565b8780fd5b503d6103f2565b50346101965782600319360112610196575490516001600160a01b03909116815260209150f35b5034610196578260031936011261019657610457610d42565b60015460ff8116156104e057506001549060ff8216156104a6575060ff1916600155513381527f5db9ee0a495bf2e6ff9c91a7834c1ba4fdd244a5e8aa4e537bd38aeae4b073aa90602090a180f35b606490602084519162461bcd60e51b8352820152601460248201527314185d5cd8589b194e881b9bdd081c185d5cd95960621b6044820152fd5b602091509160017f62e78cea01bee320cd4e420270b5ea74000d11b0c9f74754ebdbfc544b05a25893610511610e0f565b60ff19161760015551338152a180f35b808484346105aa5760203660031901126105aa57610572602091610543610d42565b805484516323b872dd60e01b81529586936001600160a01b039092169284928391803590309033908501610ded565b03925af19081156105a15750610586575080f35b61059d9060203d8111610305576102f68183610d9d565b5080f35b513d84823e3d90fd5b5050fd5b5034610196576080366003190112610196576105c8610d27565b60248035926044926001600160a01b0392909184358481160361040c576064803567ffffffffffffffff80821161094657366023830112156109465781840135908111610946573691018401116103bc576002895414610907576002895561062e610e0f565b84600354169081156108bb57858354169687330361087c5787830361083d57610655610e0f565b600254808a02908a8204148a15171561082b57829004948a5180996370a0823160e01b82523087830152818360209c8d935afa908115610821578d916107f0575b50861161079a5750505085885180926323b872dd60e01b8252818c816106c08d308c8b8501610ded565b03925af180156103c75791610714989391879361077d575b508054845163a9059cbb60e01b81526001600160a01b03871692810192835260208301939093529198899287169183918c918391604090910190565b03925af1958615610773577fadc41ba80ffa0859aab1d7cf405a6633a6af94fc3d10e5b0e0bf46cdcc0fd9c89596610756575b50519485521692a26001815580f35b61076c90853d8711610305576102f68183610d9d565b5038610747565b81513d89823e3d90fd5b61079390843d8611610305576102f68183610d9d565b50386106d8565b6084927f45617465723a20496e73756666696369656e7420746f6b656e2062616c616e638693602d6c32903a37903a3930b739b332b960991b948f8e90519762461bcd60e51b8952880152860152840152820152fd5b90508981813d831161081a575b6108078183610d9d565b81010312610816575138610696565b8c80fd5b503d6107fd565b8c513d8f823e3d90fd5b634e487b7160e01b8c5260118552858cfd5b7f47656e6572696345617465723a20496e76616c696420746f6b656e00000000008491601b8760208e519562461bcd60e51b8752860152840152820152fd5b7f47656e6572696345617465723a20496e76616c69642073656e646572000000008491601c8760208e519562461bcd60e51b8752860152840152820152fd5b621cd95d60ea1b91507f47656e6572696345617465723a20546f6b656e2061646472657373206e6f742087602360849660208d519762461bcd60e51b8952880152860152840152820152fd5b9185601f7f5265656e7472616e637947756172643a207265656e7472616e742063616c6c009260208b519562461bcd60e51b8752860152840152820152fd5b8a80fd5b505034610977578160031936011261097757600154905160089190911c6001600160a01b03168152602090f35b5080fd5b83346109dc57806003193601126109dc57610994610d42565b60018054610100600160a81b03198116909155819060081c6001600160a01b03167f8be0079c531659141344cd1fd0a4f28419497f9722a3daafe3b4186f6b6457e08280a380f35b80fd5b5050346109775781600319360112610977576020906002549051908152f35b50503461097757816003193601126109775760209060ff6001541690519015158152f35b50919034610977578160031936011261097757610a3d610d42565b825481516370a0823160e01b8152308186015293602092916001600160a01b0390811691908487602481865afa968715610b6d578697610b3a575b508615610af757600154845163a9059cbb60e01b81526001600160a01b0360089290921c90921616918101918252602082018790529291849184919082908890829060400103925af1908115610aee5750610ad1578280f35b81610ae792903d10610305576102f68183610d9d565b5081808280f35b513d85823e3d90fd5b835162461bcd60e51b8152808301869052601a60248201527f45617465723a204e6f2062616c616e636520746f2073776565700000000000006044820152606490fd5b9096508481813d8311610b66575b610b528183610d9d565b81010312610b6257519538610a78565b8580fd5b503d610b48565b84513d88823e3d90fd5b50903461019657602036600319011261019657813591610b95610d42565b8215610bdd57508160025403610ba9578280f35b816020917f595a30f13a69b616c4d568e2a2b7875fdfe86e4300a049953c76ee278f8f3f109360025551908152a138808280f35b6020608492519162461bcd60e51b8352820152602260248201527f45617465723a2052617465206d7573742062652067726561746572207468616e604482015261020360f41b6064820152fd5b503461019657602080600319360112610cfe5760035483516370a0823160e01b8082523382860152843594909290916001600160a01b03918216908581602481855afa80156103c75787918a91610ccd575b5010610c8a576101ef610e0f565b865162461bcd60e51b8152808401869052601f60248201527f4242726f4d657267653a20496e73756666696369656e742062616c616e6365006044820152606490fd5b809250878092503d8311610cf7575b610ce68183610d9d565b810103126103bc5786905138610c7c565b503d610cdc565b8380fd5b8490346109775781600319360112610977576003546001600160a01b03168152602090f35b600435906001600160a01b0382168203610d3d57565b600080fd5b60015460081c6001600160a01b03163303610d5957565b606460405162461bcd60e51b815260206004820152602060248201527f4f776e61626c653a2063616c6c6572206973206e6f7420746865206f776e65726044820152fd5b90601f8019910116810190811067ffffffffffffffff821117610dbf57604052565b634e487b7160e01b600052604160045260246000fd5b90816020910312610d3d57518015158103610d3d5790565b6001600160a01b03918216815291166020820152604081019190915260600190565b60ff60015416610e1b57565b60405162461bcd60e51b815260206004820152601060248201526f14185d5cd8589b194e881c185d5cd95960821b6044820152606490fdfea26469706673582212206f01efc3ae7e97aa2853b47b2f1cd13435f44b957411541ad7381692177bd2c264736f6c63430008130033",
          "opcodes": "PUSH1 0x80 DUP1 PUSH1 0x40 MSTORE CALLVALUE PUSH2 0xDD JUMPI PUSH1 0x20 PUSH32 0x62E78CEA01BEE320CD4E420270B5EA74000D11B0C9F74754EBDBFC544B05A258 SWAP2 PUSH1 0x1 PUSH1 0x0 SSTORE PUSH1 0x1 DUP1 SLOAD CALLER DUP3 DUP1 PUSH1 0xA0 SHL SUB DUP3 PUSH1 0x8 SHR AND PUSH32 0x8BE0079C531659141344CD1FD0A4F28419497F9722A3DAAFE3B4186F6B6457E0 PUSH1 0x0 DUP1 LOG3 PUSH1 0x64 PUSH1 0x2 SSTORE PUSH20 0x6B9BB36519538E0C073894E964E90172E1C0B41F DUP3 DUP1 PUSH1 0xA0 SHL SUB NOT PUSH20 0xDE74EB14FB3F6F7236550819934065ACC9890622 DUP2 PUSH1 0x3 SLOAD AND OR PUSH1 0x3 SSTORE PUSH1 0x4 SLOAD AND OR PUSH1 0x4 SSTORE PUSH2 0x100 DUP3 PUSH1 0xA8 SHL SUB CALLER PUSH1 0x8 SHL AND SWAP1 DUP3 DUP1 PUSH1 0xA8 SHL SUB NOT AND OR OR PUSH1 0x1 SSTORE CALLER DUP2 MSTORE LOG1 PUSH1 0x40 MLOAD PUSH2 0xE89 SWAP1 DUP2 PUSH2 0xE3 DUP3 CODECOPY RETURN JUMPDEST PUSH1 0x0 DUP1 REVERT INVALID PUSH1 0x80 PUSH1 0x40 DUP2 DUP2 MSTORE PUSH1 0x4 DUP1 CALLDATASIZE LT ISZERO PUSH2 0x15 JUMPI PUSH1 0x0 DUP1 REVERT JUMPDEST PUSH1 0x0 SWAP3 DUP4 CALLDATALOAD PUSH1 0xE0 SHR SWAP1 DUP2 PUSH4 0x21DF0DA7 EQ PUSH2 0xD02 JUMPI POP DUP1 PUSH4 0x24A47AEB EQ PUSH2 0xC2A JUMPI DUP1 PUSH4 0x34FCF437 EQ PUSH2 0xB77 JUMPI DUP1 PUSH4 0x35FAA416 EQ PUSH2 0xA22 JUMPI DUP1 PUSH4 0x5C975ABB EQ PUSH2 0x9FE JUMPI DUP1 PUSH4 0x679AEFCE EQ PUSH2 0x9DF JUMPI DUP1 PUSH4 0x715018A6 EQ PUSH2 0x97B JUMPI DUP1 PUSH4 0x8DA5CB5B EQ PUSH2 0x94A JUMPI DUP1 PUSH4 0x8F4FFCB1 EQ PUSH2 0x5AE JUMPI DUP4 DUP2 PUSH4 0xB6B55F25 EQ PUSH2 0x521 JUMPI POP DUP1 PUSH4 0xC4AE3168 EQ PUSH2 0x43E JUMPI DUP1 PUSH4 0xE1F26F22 EQ PUSH2 0x417 JUMPI DUP1 PUSH4 0xEA9F2417 EQ PUSH2 0x19A JUMPI PUSH4 0xF2FDE38B EQ PUSH2 0xBF JUMPI PUSH1 0x0 DUP1 REVERT JUMPDEST CALLVALUE PUSH2 0x196 JUMPI PUSH1 0x20 CALLDATASIZE PUSH1 0x3 NOT ADD SLT PUSH2 0x196 JUMPI PUSH2 0xD8 PUSH2 0xD27 JUMP JUMPDEST PUSH2 0xE0 PUSH2 0xD42 JUMP JUMPDEST PUSH1 0x1 PUSH1 0x1 PUSH1 0xA0 SHL SUB DUP2 DUP2 AND SWAP4 SWAP1 SWAP3 SWAP1 DUP5 ISZERO PUSH2 0x144 JUMPI POP POP PUSH1 0x1 DUP1 SLOAD PUSH2 0x100 PUSH1 0x1 PUSH1 0xA8 SHL SUB NOT DUP2 AND PUSH1 0x8 SWAP4 DUP5 SHL PUSH2 0x100 PUSH1 0x1 PUSH1 0xA8 SHL SUB AND OR SWAP1 SWAP2 SSTORE SWAP1 SHR AND PUSH32 0x8BE0079C531659141344CD1FD0A4F28419497F9722A3DAAFE3B4186F6B6457E0 DUP4 DUP1 LOG3 DUP1 RETURN JUMPDEST SWAP1 PUSH1 0x20 PUSH1 0x84 SWAP3 MLOAD SWAP2 PUSH3 0x461BCD PUSH1 0xE5 SHL DUP4 MSTORE DUP3 ADD MSTORE PUSH1 0x26 PUSH1 0x24 DUP3 ADD MSTORE PUSH32 0x4F776E61626C653A206E6577206F776E657220697320746865207A65726F2061 PUSH1 0x44 DUP3 ADD MSTORE PUSH6 0x646472657373 PUSH1 0xD0 SHL PUSH1 0x64 DUP3 ADD MSTORE REVERT JUMPDEST DUP3 DUP1 REVERT JUMPDEST POP CALLVALUE PUSH2 0x196 JUMPI DUP3 PUSH1 0x3 NOT CALLDATASIZE ADD SLT PUSH2 0x196 JUMPI PUSH1 0x3 SLOAD DUP3 MLOAD PUSH4 0x70A08231 PUSH1 0xE0 SHL DUP1 DUP3 MSTORE CALLER DUP5 DUP4 ADD MSTORE SWAP1 SWAP3 PUSH1 0x20 SWAP3 PUSH1 0x1 PUSH1 0x1 PUSH1 0xA0 SHL SUB SWAP1 DUP2 AND DUP5 DUP7 PUSH1 0x24 DUP2 DUP5 GAS STATICCALL SWAP6 DUP7 ISZERO PUSH2 0x333 JUMPI DUP9 SWAP7 PUSH2 0x3E4 JUMPI JUMPDEST POP PUSH2 0x1EF PUSH2 0xE0F JUMP JUMPDEST PUSH1 0x2 SLOAD DUP1 DUP8 MUL SWAP1 DUP8 DUP3 DIV EQ DUP8 ISZERO OR ISZERO PUSH2 0x3D1 JUMPI PUSH1 0x64 SWAP1 DIV SWAP4 DUP6 DUP4 DUP6 SLOAD AND SWAP2 PUSH1 0x24 DUP11 MLOAD DUP1 SWAP5 DUP2 SWAP4 DUP3 MSTORE ADDRESS DUP10 DUP4 ADD MSTORE GAS STATICCALL SWAP1 DUP2 ISZERO PUSH2 0x3C7 JUMPI DUP10 SWAP2 PUSH2 0x396 JUMPI JUMPDEST POP DUP5 GT PUSH2 0x33D JUMPI DUP5 DUP8 MLOAD DUP1 SWAP3 PUSH4 0x23B872DD PUSH1 0xE0 SHL DUP3 MSTORE DUP2 DUP12 DUP2 PUSH2 0x253 DUP13 ADDRESS CALLER DUP13 DUP6 ADD PUSH2 0xDED JUMP JUMPDEST SUB SWAP3 GAS CALL DUP1 ISZERO PUSH2 0x333 JUMPI SWAP2 DUP6 SWAP4 SWAP2 PUSH2 0x2A1 SWAP9 SWAP6 SWAP4 PUSH2 0x316 JUMPI JUMPDEST POP DUP2 SLOAD DUP6 MLOAD PUSH4 0xA9059CBB PUSH1 0xE0 SHL DUP2 MSTORE CALLER SWAP4 DUP2 ADD SWAP4 DUP5 MSTORE PUSH1 0x20 DUP5 ADD SWAP5 SWAP1 SWAP5 MSTORE SWAP3 SWAP8 DUP9 SWAP4 SWAP2 SWAP1 SWAP2 AND SWAP2 DUP4 SWAP2 DUP11 SWAP2 DUP4 SWAP2 PUSH1 0x40 SWAP1 SWAP2 ADD SWAP1 JUMP JUMPDEST SUB SWAP3 GAS CALL SWAP4 DUP5 ISZERO PUSH2 0x30C JUMPI PUSH32 0xADC41BA80FFA0859AAB1D7CF405A6633A6AF94FC3D10E5B0E0BF46CDCC0FD9C8 SWAP4 SWAP5 PUSH2 0x2DF JUMPI JUMPDEST POP MLOAD SWAP3 DUP4 MSTORE CALLER SWAP3 LOG2 DUP1 RETURN JUMPDEST PUSH2 0x2FE SWAP1 DUP4 RETURNDATASIZE DUP6 GT PUSH2 0x305 JUMPI JUMPDEST PUSH2 0x2F6 DUP2 DUP4 PUSH2 0xD9D JUMP JUMPDEST DUP2 ADD SWAP1 PUSH2 0xDD5 JUMP JUMPDEST POP CODESIZE PUSH2 0x2D4 JUMP JUMPDEST POP RETURNDATASIZE PUSH2 0x2EC JUMP JUMPDEST DUP2 MLOAD RETURNDATASIZE DUP8 DUP3 RETURNDATACOPY RETURNDATASIZE SWAP1 REVERT JUMPDEST PUSH2 0x32C SWAP1 DUP6 RETURNDATASIZE DUP8 GT PUSH2 0x305 JUMPI PUSH2 0x2F6 DUP2 DUP4 PUSH2 0xD9D JUMP JUMPDEST POP CODESIZE PUSH2 0x26C JUMP JUMPDEST DUP8 MLOAD RETURNDATASIZE DUP11 DUP3 RETURNDATACOPY RETURNDATASIZE SWAP1 REVERT JUMPDEST DUP7 MLOAD PUSH3 0x461BCD PUSH1 0xE5 SHL DUP2 MSTORE DUP1 DUP5 ADD DUP7 SWAP1 MSTORE PUSH1 0x2D PUSH1 0x24 DUP3 ADD MSTORE PUSH32 0x45617465723A20496E73756666696369656E7420746F6B656E2062616C616E63 PUSH1 0x44 DUP3 ADD MSTORE PUSH13 0x32903A37903A3930B739B332B9 PUSH1 0x99 SHL PUSH1 0x64 DUP3 ADD MSTORE PUSH1 0x84 SWAP1 REVERT JUMPDEST SWAP1 POP DUP6 DUP2 DUP2 RETURNDATASIZE DUP4 GT PUSH2 0x3C0 JUMPI JUMPDEST PUSH2 0x3AD DUP2 DUP4 PUSH2 0xD9D JUMP JUMPDEST DUP2 ADD SUB SLT PUSH2 0x3BC JUMPI MLOAD CODESIZE PUSH2 0x22C JUMP JUMPDEST DUP9 DUP1 REVERT JUMPDEST POP RETURNDATASIZE PUSH2 0x3A3 JUMP JUMPDEST DUP9 MLOAD RETURNDATASIZE DUP12 DUP3 RETURNDATACOPY RETURNDATASIZE SWAP1 REVERT JUMPDEST PUSH4 0x4E487B71 PUSH1 0xE0 SHL DUP10 MSTORE PUSH1 0x11 DUP5 MSTORE PUSH1 0x24 DUP10 REVERT JUMPDEST SWAP1 SWAP6 POP DUP5 DUP2 DUP2 RETURNDATASIZE DUP4 GT PUSH2 0x410 JUMPI JUMPDEST PUSH2 0x3FC DUP2 DUP4 PUSH2 0xD9D JUMP JUMPDEST DUP2 ADD SUB SLT PUSH2 0x40C JUMPI MLOAD SWAP5 CODESIZE PUSH2 0x1E6 JUMP JUMPDEST DUP8 DUP1 REVERT JUMPDEST POP RETURNDATASIZE PUSH2 0x3F2 JUMP JUMPDEST POP CALLVALUE PUSH2 0x196 JUMPI DUP3 PUSH1 0x3 NOT CALLDATASIZE ADD SLT PUSH2 0x196 JUMPI SLOAD SWAP1 MLOAD PUSH1 0x1 PUSH1 0x1 PUSH1 0xA0 SHL SUB SWAP1 SWAP2 AND DUP2 MSTORE PUSH1 0x20 SWAP2 POP RETURN JUMPDEST POP CALLVALUE PUSH2 0x196 JUMPI DUP3 PUSH1 0x3 NOT CALLDATASIZE ADD SLT PUSH2 0x196 JUMPI PUSH2 0x457 PUSH2 0xD42 JUMP JUMPDEST PUSH1 0x1 SLOAD PUSH1 0xFF DUP2 AND ISZERO PUSH2 0x4E0 JUMPI POP PUSH1 0x1 SLOAD SWAP1 PUSH1 0xFF DUP3 AND ISZERO PUSH2 0x4A6 JUMPI POP PUSH1 0xFF NOT AND PUSH1 0x1 SSTORE MLOAD CALLER DUP2 MSTORE PUSH32 0x5DB9EE0A495BF2E6FF9C91A7834C1BA4FDD244A5E8AA4E537BD38AEAE4B073AA SWAP1 PUSH1 0x20 SWAP1 LOG1 DUP1 RETURN JUMPDEST PUSH1 0x64 SWAP1 PUSH1 0x20 DUP5 MLOAD SWAP2 PUSH3 0x461BCD PUSH1 0xE5 SHL DUP4 MSTORE DUP3 ADD MSTORE PUSH1 0x14 PUSH1 0x24 DUP3 ADD MSTORE PUSH20 0x14185D5CD8589B194E881B9BDD081C185D5CD959 PUSH1 0x62 SHL PUSH1 0x44 DUP3 ADD MSTORE REVERT JUMPDEST PUSH1 0x20 SWAP2 POP SWAP2 PUSH1 0x1 PUSH32 0x62E78CEA01BEE320CD4E420270B5EA74000D11B0C9F74754EBDBFC544B05A258 SWAP4 PUSH2 0x511 PUSH2 0xE0F JUMP JUMPDEST PUSH1 0xFF NOT AND OR PUSH1 0x1 SSTORE MLOAD CALLER DUP2 MSTORE LOG1 DUP1 RETURN JUMPDEST DUP1 DUP5 DUP5 CALLVALUE PUSH2 0x5AA JUMPI PUSH1 0x20 CALLDATASIZE PUSH1 0x3 NOT ADD SLT PUSH2 0x5AA JUMPI PUSH2 0x572 PUSH1 0x20 SWAP2 PUSH2 0x543 PUSH2 0xD42 JUMP JUMPDEST DUP1 SLOAD DUP5 MLOAD PUSH4 0x23B872DD PUSH1 0xE0 SHL DUP2 MSTORE SWAP6 DUP7 SWAP4 PUSH1 0x1 PUSH1 0x1 PUSH1 0xA0 SHL SUB SWAP1 SWAP3 AND SWAP3 DUP5 SWAP3 DUP4 SWAP2 DUP1 CALLDATALOAD SWAP1 ADDRESS SWAP1 CALLER SWAP1 DUP6 ADD PUSH2 0xDED JUMP JUMPDEST SUB SWAP3 GAS CALL SWAP1 DUP2 ISZERO PUSH2 0x5A1 JUMPI POP PUSH2 0x586 JUMPI POP DUP1 RETURN JUMPDEST PUSH2 0x59D SWAP1 PUSH1 0x20 RETURNDATASIZE DUP2 GT PUSH2 0x305 JUMPI PUSH2 0x2F6 DUP2 DUP4 PUSH2 0xD9D JUMP JUMPDEST POP DUP1 RETURN JUMPDEST MLOAD RETURNDATASIZE DUP5 DUP3 RETURNDATACOPY RETURNDATASIZE SWAP1 REVERT JUMPDEST POP POP REVERT JUMPDEST POP CALLVALUE PUSH2 0x196 JUMPI PUSH1 0x80 CALLDATASIZE PUSH1 0x3 NOT ADD SLT PUSH2 0x196 JUMPI PUSH2 0x5C8 PUSH2 0xD27 JUMP JUMPDEST PUSH1 0x24 DUP1 CALLDATALOAD SWAP3 PUSH1 0x44 SWAP3 PUSH1 0x1 PUSH1 0x1 PUSH1 0xA0 SHL SUB SWAP3 SWAP1 SWAP2 DUP5 CALLDATALOAD DUP5 DUP2 AND SUB PUSH2 0x40C JUMPI PUSH1 0x64 DUP1 CALLDATALOAD PUSH8 0xFFFFFFFFFFFFFFFF DUP1 DUP3 GT PUSH2 0x946 JUMPI CALLDATASIZE PUSH1 0x23 DUP4 ADD SLT ISZERO PUSH2 0x946 JUMPI DUP2 DUP5 ADD CALLDATALOAD SWAP1 DUP2 GT PUSH2 0x946 JUMPI CALLDATASIZE SWAP2 ADD DUP5 ADD GT PUSH2 0x3BC JUMPI PUSH1 0x2 DUP10 SLOAD EQ PUSH2 0x907 JUMPI PUSH1 0x2 DUP10 SSTORE PUSH2 0x62E PUSH2 0xE0F JUMP JUMPDEST DUP5 PUSH1 0x3 SLOAD AND SWAP1 DUP2 ISZERO PUSH2 0x8BB JUMPI DUP6 DUP4 SLOAD AND SWAP7 DUP8 CALLER SUB PUSH2 0x87C JUMPI DUP8 DUP4 SUB PUSH2 0x83D JUMPI PUSH2 0x655 PUSH2 0xE0F JUMP JUMPDEST PUSH1 0x2 SLOAD DUP1 DUP11 MUL SWAP1 DUP11 DUP3 DIV EQ DUP11 ISZERO OR ISZERO PUSH2 0x82B JUMPI DUP3 SWAP1 DIV SWAP5 DUP11 MLOAD DUP1 SWAP10 PUSH4 0x70A08231 PUSH1 0xE0 SHL DUP3 MSTORE ADDRESS DUP8 DUP4 ADD MSTORE DUP2 DUP4 PUSH1 0x20 SWAP13 DUP14 SWAP4 GAS STATICCALL SWAP1 DUP2 ISZERO PUSH2 0x821 JUMPI DUP14 SWAP2 PUSH2 0x7F0 JUMPI JUMPDEST POP DUP7 GT PUSH2 0x79A JUMPI POP POP POP DUP6 DUP9 MLOAD DUP1 SWAP3 PUSH4 0x23B872DD PUSH1 0xE0 SHL DUP3 MSTORE DUP2 DUP13 DUP2 PUSH2 0x6C0 DUP14 ADDRESS DUP13 DUP12 DUP6 ADD PUSH2 0xDED JUMP JUMPDEST SUB SWAP3 GAS CALL DUP1 ISZERO PUSH2 0x3C7 JUMPI SWAP2 PUSH2 0x714 SWAP9 SWAP4 SWAP2 DUP8 SWAP4 PUSH2 0x77D JUMPI JUMPDEST POP DUP1 SLOAD DUP5 MLOAD PUSH4 0xA9059CBB PUSH1 0xE0 SHL DUP2 MSTORE PUSH1 0x1 PUSH1 0x1 PUSH1 0xA0 SHL SUB DUP8 AND SWAP3 DUP2 ADD SWAP3 DUP4 MSTORE PUSH1 0x20 DUP4 ADD SWAP4 SWAP1 SWAP4 MSTORE SWAP2 SWAP9 DUP10 SWAP3 DUP8 AND SWAP2 DUP4 SWAP2 DUP13 SWAP2 DUP4 SWAP2 PUSH1 0x40 SWAP1 SWAP2 ADD SWAP1 JUMP JUMPDEST SUB SWAP3 GAS CALL SWAP6 DUP7 ISZERO PUSH2 0x773 JUMPI PUSH32 0xADC41BA80FFA0859AAB1D7CF405A6633A6AF94FC3D10E5B0E0BF46CDCC0FD9C8 SWAP6 SWAP7 PUSH2 0x756 JUMPI JUMPDEST POP MLOAD SWAP5 DUP6 MSTORE AND SWAP3 LOG2 PUSH1 0x1 DUP2 SSTORE DUP1 RETURN JUMPDEST PUSH2 0x76C SWAP1 DUP6 RETURNDATASIZE DUP8 GT PUSH2 0x305 JUMPI PUSH2 0x2F6 DUP2 DUP4 PUSH2 0xD9D JUMP JUMPDEST POP CODESIZE PUSH2 0x747 JUMP JUMPDEST DUP2 MLOAD RETURNDATASIZE DUP10 DUP3 RETURNDATACOPY RETURNDATASIZE SWAP1 REVERT JUMPDEST PUSH2 0x793 SWAP1 DUP5 RETURNDATASIZE DUP7 GT PUSH2 0x305 JUMPI PUSH2 0x2F6 DUP2 DUP4 PUSH2 0xD9D JUMP JUMPDEST POP CODESIZE PUSH2 0x6D8 JUMP JUMPDEST PUSH1 0x84 SWAP3 PUSH32 0x45617465723A20496E73756666696369656E7420746F6B656E2062616C616E63 DUP7 SWAP4 PUSH1 0x2D PUSH13 0x32903A37903A3930B739B332B9 PUSH1 0x99 SHL SWAP5 DUP16 DUP15 SWAP1 MLOAD SWAP8 PUSH3 0x461BCD PUSH1 0xE5 SHL DUP10 MSTORE DUP9 ADD MSTORE DUP7 ADD MSTORE DUP5 ADD MSTORE DUP3 ADD MSTORE REVERT JUMPDEST SWAP1 POP DUP10 DUP2 DUP2 RETURNDATASIZE DUP4 GT PUSH2 0x81A JUMPI JUMPDEST PUSH2 0x807 DUP2 DUP4 PUSH2 0xD9D JUMP JUMPDEST DUP2 ADD SUB SLT PUSH2 0x816 JUMPI MLOAD CODESIZE PUSH2 0x696 JUMP JUMPDEST DUP13 DUP1 REVERT JUMPDEST POP RETURNDATASIZE PUSH2 0x7FD JUMP JUMPDEST DUP13 MLOAD RETURNDATASIZE DUP16 DUP3 RETURNDATACOPY RETURNDATASIZE SWAP1 REVERT JUMPDEST PUSH4 0x4E487B71 PUSH1 0xE0 SHL DUP13 MSTORE PUSH1 0x11 DUP6 MSTORE DUP6 DUP13 REVERT JUMPDEST PUSH32 0x47656E6572696345617465723A20496E76616C696420746F6B656E0000000000 DUP5 SWAP2 PUSH1 0x1B DUP8 PUSH1 0x20 DUP15 MLOAD SWAP6 PUSH3 0x461BCD PUSH1 0xE5 SHL DUP8 MSTORE DUP7 ADD MSTORE DUP5 ADD MSTORE DUP3 ADD MSTORE REVERT JUMPDEST PUSH32 0x47656E6572696345617465723A20496E76616C69642073656E64657200000000 DUP5 SWAP2 PUSH1 0x1C DUP8 PUSH1 0x20 DUP15 MLOAD SWAP6 PUSH3 0x461BCD PUSH1 0xE5 SHL DUP8 MSTORE DUP7 ADD MSTORE DUP5 ADD MSTORE DUP3 ADD MSTORE REVERT JUMPDEST PUSH3 0x1CD95D PUSH1 0xEA SHL SWAP2 POP PUSH32 0x47656E6572696345617465723A20546F6B656E2061646472657373206E6F7420 DUP8 PUSH1 0x23 PUSH1 0x84 SWAP7 PUSH1 0x20 DUP14 MLOAD SWAP8 PUSH3 0x461BCD PUSH1 0xE5 SHL DUP10 MSTORE DUP9 ADD MSTORE DUP7 ADD MSTORE DUP5 ADD MSTORE DUP3 ADD MSTORE REVERT JUMPDEST SWAP2 DUP6 PUSH1 0x1F PUSH32 0x5265656E7472616E637947756172643A207265656E7472616E742063616C6C00 SWAP3 PUSH1 0x20 DUP12 MLOAD SWAP6 PUSH3 0x461BCD PUSH1 0xE5 SHL DUP8 MSTORE DUP7 ADD MSTORE DUP5 ADD MSTORE DUP3 ADD MSTORE REVERT JUMPDEST DUP11 DUP1 REVERT JUMPDEST POP POP CALLVALUE PUSH2 0x977 JUMPI DUP2 PUSH1 0x3 NOT CALLDATASIZE ADD SLT PUSH2 0x977 JUMPI PUSH1 0x1 SLOAD SWAP1 MLOAD PUSH1 0x8 SWAP2 SWAP1 SWAP2 SHR PUSH1 0x1 PUSH1 0x1 PUSH1 0xA0 SHL SUB AND DUP2 MSTORE PUSH1 0x20 SWAP1 RETURN JUMPDEST POP DUP1 REVERT JUMPDEST DUP4 CALLVALUE PUSH2 0x9DC JUMPI DUP1 PUSH1 0x3 NOT CALLDATASIZE ADD SLT PUSH2 0x9DC JUMPI PUSH2 0x994 PUSH2 0xD42 JUMP JUMPDEST PUSH1 0x1 DUP1 SLOAD PUSH2 0x100 PUSH1 0x1 PUSH1 0xA8 SHL SUB NOT DUP2 AND SWAP1 SWAP2 SSTORE DUP2 SWAP1 PUSH1 0x8 SHR PUSH1 0x1 PUSH1 0x1 PUSH1 0xA0 SHL SUB AND PUSH32 0x8BE0079C531659141344CD1FD0A4F28419497F9722A3DAAFE3B4186F6B6457E0 DUP3 DUP1 LOG3 DUP1 RETURN JUMPDEST DUP1 REVERT JUMPDEST POP POP CALLVALUE PUSH2 0x977 JUMPI DUP2 PUSH1 0x3 NOT CALLDATASIZE ADD SLT PUSH2 0x977 JUMPI PUSH1 0x20 SWAP1 PUSH1 0x2 SLOAD SWAP1 MLOAD SWAP1 DUP2 MSTORE RETURN JUMPDEST POP POP CALLVALUE PUSH2 0x977 JUMPI DUP2 PUSH1 0x3 NOT CALLDATASIZE ADD SLT PUSH2 0x977 JUMPI PUSH1 0x20 SWAP1 PUSH1 0xFF PUSH1 0x1 SLOAD AND SWAP1 MLOAD SWAP1 ISZERO ISZERO DUP2 MSTORE RETURN JUMPDEST POP SWAP2 SWAP1 CALLVALUE PUSH2 0x977 JUMPI DUP2 PUSH1 0x3 NOT CALLDATASIZE ADD SLT PUSH2 0x977 JUMPI PUSH2 0xA3D PUSH2 0xD42 JUMP JUMPDEST DUP3 SLOAD DUP2 MLOAD PUSH4 0x70A08231 PUSH1 0xE0 SHL DUP2 MSTORE ADDRESS DUP2 DUP7 ADD MSTORE SWAP4 PUSH1 0x20 SWAP3 SWAP2 PUSH1 0x1 PUSH1 0x1 PUSH1 0xA0 SHL SUB SWAP1 DUP2 AND SWAP2 SWAP1 DUP5 DUP8 PUSH1 0x24 DUP2 DUP7 GAS STATICCALL SWAP7 DUP8 ISZERO PUSH2 0xB6D JUMPI DUP7 SWAP8 PUSH2 0xB3A JUMPI JUMPDEST POP DUP7 ISZERO PUSH2 0xAF7 JUMPI PUSH1 0x1 SLOAD DUP5 MLOAD PUSH4 0xA9059CBB PUSH1 0xE0 SHL DUP2 MSTORE PUSH1 0x1 PUSH1 0x1 PUSH1 0xA0 SHL SUB PUSH1 0x8 SWAP3 SWAP1 SWAP3 SHR SWAP1 SWAP3 AND AND SWAP2 DUP2 ADD SWAP2 DUP3 MSTORE PUSH1 0x20 DUP3 ADD DUP8 SWAP1 MSTORE SWAP3 SWAP2 DUP5 SWAP2 DUP5 SWAP2 SWAP1 DUP3 SWAP1 DUP9 SWAP1 DUP3 SWAP1 PUSH1 0x40 ADD SUB SWAP3 GAS CALL SWAP1 DUP2 ISZERO PUSH2 0xAEE JUMPI POP PUSH2 0xAD1 JUMPI DUP3 DUP1 RETURN JUMPDEST DUP2 PUSH2 0xAE7 SWAP3 SWAP1 RETURNDATASIZE LT PUSH2 0x305 JUMPI PUSH2 0x2F6 DUP2 DUP4 PUSH2 0xD9D JUMP JUMPDEST POP DUP2 DUP1 DUP3 DUP1 RETURN JUMPDEST MLOAD RETURNDATASIZE DUP6 DUP3 RETURNDATACOPY RETURNDATASIZE SWAP1 REVERT JUMPDEST DUP4 MLOAD PUSH3 0x461BCD PUSH1 0xE5 SHL DUP2 MSTORE DUP1 DUP4 ADD DUP7 SWAP1 MSTORE PUSH1 0x1A PUSH1 0x24 DUP3 ADD MSTORE PUSH32 0x45617465723A204E6F2062616C616E636520746F207377656570000000000000 PUSH1 0x44 DUP3 ADD MSTORE PUSH1 0x64 SWAP1 REVERT JUMPDEST SWAP1 SWAP7 POP DUP5 DUP2 DUP2 RETURNDATASIZE DUP4 GT PUSH2 0xB66 JUMPI JUMPDEST PUSH2 0xB52 DUP2 DUP4 PUSH2 0xD9D JUMP JUMPDEST DUP2 ADD SUB SLT PUSH2 0xB62 JUMPI MLOAD SWAP6 CODESIZE PUSH2 0xA78 JUMP JUMPDEST DUP6 DUP1 REVERT JUMPDEST POP RETURNDATASIZE PUSH2 0xB48 JUMP JUMPDEST DUP5 MLOAD RETURNDATASIZE DUP9 DUP3 RETURNDATACOPY RETURNDATASIZE SWAP1 REVERT JUMPDEST POP SWAP1 CALLVALUE PUSH2 0x196 JUMPI PUSH1 0x20 CALLDATASIZE PUSH1 0x3 NOT ADD SLT PUSH2 0x196 JUMPI DUP2 CALLDATALOAD SWAP2 PUSH2 0xB95 PUSH2 0xD42 JUMP JUMPDEST DUP3 ISZERO PUSH2 0xBDD JUMPI POP DUP2 PUSH1 0x2 SLOAD SUB PUSH2 0xBA9 JUMPI DUP3 DUP1 RETURN JUMPDEST DUP2 PUSH1 0x20 SWAP2 PUSH32 0x595A30F13A69B616C4D568E2A2B7875FDFE86E4300A049953C76EE278F8F3F10 SWAP4 PUSH1 0x2 SSTORE MLOAD SWAP1 DUP2 MSTORE LOG1 CODESIZE DUP1 DUP3 DUP1 RETURN JUMPDEST PUSH1 0x20 PUSH1 0x84 SWAP3 MLOAD SWAP2 PUSH3 0x461BCD PUSH1 0xE5 SHL DUP4 MSTORE DUP3 ADD MSTORE PUSH1 0x22 PUSH1 0x24 DUP3 ADD MSTORE PUSH32 0x45617465723A2052617465206D7573742062652067726561746572207468616E PUSH1 0x44 DUP3 ADD MSTORE PUSH2 0x203 PUSH1 0xF4 SHL PUSH1 0x64 DUP3 ADD MSTORE REVERT JUMPDEST POP CALLVALUE PUSH2 0x196 JUMPI PUSH1 0x20 DUP1 PUSH1 0x3 NOT CALLDATASIZE ADD SLT PUSH2 0xCFE JUMPI PUSH1 0x3 SLOAD DUP4 MLOAD PUSH4 0x70A08231 PUSH1 0xE0 SHL DUP1 DUP3 MSTORE CALLER DUP3 DUP7 ADD MSTORE DUP5 CALLDATALOAD SWAP5 SWAP1 SWAP3 SWAP1 SWAP2 PUSH1 0x1 PUSH1 0x1 PUSH1 0xA0 SHL SUB SWAP2 DUP3 AND SWAP1 DUP6 DUP2 PUSH1 0x24 DUP2 DUP6 GAS STATICCALL DUP1 ISZERO PUSH2 0x3C7 JUMPI DUP8 SWAP2 DUP11 SWAP2 PUSH2 0xCCD JUMPI JUMPDEST POP LT PUSH2 0xC8A JUMPI PUSH2 0x1EF PUSH2 0xE0F JUMP JUMPDEST DUP7 MLOAD PUSH3 0x461BCD PUSH1 0xE5 SHL DUP2 MSTORE DUP1 DUP5 ADD DUP7 SWAP1 MSTORE PUSH1 0x1F PUSH1 0x24 DUP3 ADD MSTORE PUSH32 0x4242726F4D657267653A20496E73756666696369656E742062616C616E636500 PUSH1 0x44 DUP3 ADD MSTORE PUSH1 0x64 SWAP1 REVERT JUMPDEST DUP1 SWAP3 POP DUP8 DUP1 SWAP3 POP RETURNDATASIZE DUP4 GT PUSH2 0xCF7 JUMPI JUMPDEST PUSH2 0xCE6 DUP2 DUP4 PUSH2 0xD9D JUMP JUMPDEST DUP2 ADD SUB SLT PUSH2 0x3BC JUMPI DUP7 SWAP1 MLOAD CODESIZE PUSH2 0xC7C JUMP JUMPDEST POP RETURNDATASIZE PUSH2 0xCDC JUMP JUMPDEST DUP4 DUP1 REVERT JUMPDEST DUP5 SWAP1 CALLVALUE PUSH2 0x977 JUMPI DUP2 PUSH1 0x3 NOT CALLDATASIZE ADD SLT PUSH2 0x977 JUMPI PUSH1 0x3 SLOAD PUSH1 0x1 PUSH1 0x1 PUSH1 0xA0 SHL SUB AND DUP2 MSTORE PUSH1 0x20 SWAP1 RETURN JUMPDEST PUSH1 0x4 CALLDATALOAD SWAP1 PUSH1 0x1 PUSH1 0x1 PUSH1 0xA0 SHL SUB DUP3 AND DUP3 SUB PUSH2 0xD3D JUMPI JUMP JUMPDEST PUSH1 0x0 DUP1 REVERT JUMPDEST PUSH1 0x1 SLOAD PUSH1 0x8 SHR PUSH1 0x1 PUSH1 0x1 PUSH1 0xA0 SHL SUB AND CALLER SUB PUSH2 0xD59 JUMPI JUMP JUMPDEST PUSH1 0x64 PUSH1 0x40 MLOAD PUSH3 0x461BCD PUSH1 0xE5 SHL DUP2 MSTORE PUSH1 0x20 PUSH1 0x4 DUP3 ADD MSTORE PUSH1 0x20 PUSH1 0x24 DUP3 ADD MSTORE PUSH32 0x4F776E61626C653A2063616C6C6572206973206E6F7420746865206F776E6572 PUSH1 0x44 DUP3 ADD MSTORE REVERT JUMPDEST SWAP1 PUSH1 0x1F DUP1 NOT SWAP2 ADD AND DUP2 ADD SWAP1 DUP2 LT PUSH8 0xFFFFFFFFFFFFFFFF DUP3 GT OR PUSH2 0xDBF JUMPI PUSH1 0x40 MSTORE JUMP JUMPDEST PUSH4 0x4E487B71 PUSH1 0xE0 SHL PUSH1 0x0 MSTORE PUSH1 0x41 PUSH1 0x4 MSTORE PUSH1 0x24 PUSH1 0x0 REVERT JUMPDEST SWAP1 DUP2 PUSH1 0x20 SWAP2 SUB SLT PUSH2 0xD3D JUMPI MLOAD DUP1 ISZERO ISZERO DUP2 SUB PUSH2 0xD3D JUMPI SWAP1 JUMP JUMPDEST PUSH1 0x1 PUSH1 0x1 PUSH1 0xA0 SHL SUB SWAP2 DUP3 AND DUP2 MSTORE SWAP2 AND PUSH1 0x20 DUP3 ADD MSTORE PUSH1 0x40 DUP2 ADD SWAP2 SWAP1 SWAP2 MSTORE PUSH1 0x60 ADD SWAP1 JUMP JUMPDEST PUSH1 0xFF PUSH1 0x1 SLOAD AND PUSH2 0xE1B JUMPI JUMP JUMPDEST PUSH1 0x40 MLOAD PUSH3 0x461BCD PUSH1 0xE5 SHL DUP2 MSTORE PUSH1 0x20 PUSH1 0x4 DUP3 ADD MSTORE PUSH1 0x10 PUSH1 0x24 DUP3 ADD MSTORE PUSH16 0x14185D5CD8589B194E881C185D5CD959 PUSH1 0x82 SHL PUSH1 0x44 DUP3 ADD MSTORE PUSH1 0x64 SWAP1 REVERT INVALID LOG2 PUSH5 0x6970667358 0x22 SLT KECCAK256 PUSH16 0x1EFC3AE7E97AA2853B47B2F1CD13435 DELEGATECALL 0x4B SWAP6 PUSH21 0x11541AD7381692177BD2C264736F6C634300081300 CALLER "
        },
        "methodIdentifiers": {
          "deposit(uint256)": "b6b55f25",
          "getRate()": "679aefce",
          "getToken()": "21df0da7",
          "merge(uint256)": "24a47aeb",
          "mergeAll()": "ea9f2417",
          "owner()": "8da5cb5b",
          "paused()": "5c975abb",
          "receiveApproval(address,uint256,address,bytes)": "8f4ffcb1",
          "renounceOwnership()": "715018a6",
          "setRate(uint256)": "34fcf437",
          "sweep()": "35faa416",
          "togglePause()": "c4ae3168",
          "transferOwnership(address)": "f2fde38b",
          "wewe()": "e1f26f22"
        }
      }
    }
  }
}