{
  "contracts/core/merge/DynamicEater.sol": {
    "DynamicEater": {
      "abi": [
        {
          "inputs": [
            {
              "internalType": "address",
              "name": "_wewe",
              "type": "address"
            },
            {
              "internalType": "address",
              "name": "_vult",
              "type": "address"
            },
            {
              "internalType": "uint32",
              "name": "_vestingDuration",
              "type": "uint32"
            },
            {
              "internalType": "uint256",
              "name": "_maxSupply",
              "type": "uint256"
            }
          ],
          "stateMutability": "nonpayable",
          "type": "constructor"
        },
        {
          "anonymous": false,
          "inputs": [
            {
              "indexed": false,
              "internalType": "uint256",
              "name": "amount",
              "type": "uint256"
            },
            {
              "indexed": true,
              "internalType": "address",
              "name": "account",
              "type": "address"
            }
          ],
          "name": "Merged",
          "type": "event"
        },
        {
          "anonymous": false,
          "inputs": [
            {
              "indexed": true,
              "internalType": "address",
              "name": "previousOwner",
              "type": "address"
            },
            {
              "indexed": true,
              "internalType": "address",
              "name": "newOwner",
              "type": "address"
            }
          ],
          "name": "OwnershipTransferred",
          "type": "event"
        },
        {
          "anonymous": false,
          "inputs": [
            {
              "indexed": false,
              "internalType": "address",
              "name": "account",
              "type": "address"
            }
          ],
          "name": "Paused",
          "type": "event"
        },
        {
          "anonymous": false,
          "inputs": [
            {
              "indexed": false,
              "internalType": "uint256",
              "name": "newRate",
              "type": "uint256"
            }
          ],
          "name": "RateChanged",
          "type": "event"
        },
        {
          "anonymous": false,
          "inputs": [
            {
              "indexed": false,
              "internalType": "address",
              "name": "account",
              "type": "address"
            }
          ],
          "name": "Unpaused",
          "type": "event"
        },
        {
          "inputs": [
            {
              "internalType": "address",
              "name": "account",
              "type": "address"
            }
          ],
          "name": "balanceOf",
          "outputs": [
            {
              "internalType": "uint256",
              "name": "",
              "type": "uint256"
            }
          ],
          "stateMutability": "view",
          "type": "function"
        },
        {
          "inputs": [
            {
              "internalType": "address",
              "name": "account",
              "type": "address"
            }
          ],
          "name": "canClaim",
          "outputs": [
            {
              "internalType": "bool",
              "name": "",
              "type": "bool"
            }
          ],
          "stateMutability": "view",
          "type": "function"
        },
        {
          "inputs": [],
          "name": "claim",
          "outputs": [],
          "stateMutability": "nonpayable",
          "type": "function"
        },
        {
          "inputs": [
            {
              "internalType": "uint256",
              "name": "amount",
              "type": "uint256"
            }
          ],
          "name": "deposit",
          "outputs": [],
          "stateMutability": "nonpayable",
          "type": "function"
        },
        {
          "inputs": [],
          "name": "depositRequired",
          "outputs": [],
          "stateMutability": "nonpayable",
          "type": "function"
        },
        {
          "inputs": [],
          "name": "getRate",
          "outputs": [
            {
              "internalType": "uint256",
              "name": "",
              "type": "uint256"
            }
          ],
          "stateMutability": "view",
          "type": "function"
        },
        {
          "inputs": [],
          "name": "getToken",
          "outputs": [
            {
              "internalType": "address",
              "name": "",
              "type": "address"
            }
          ],
          "stateMutability": "view",
          "type": "function"
        },
        {
          "inputs": [
            {
              "internalType": "uint256",
              "name": "mergeAmount",
              "type": "uint256"
            }
          ],
          "name": "getTotalWeWe",
          "outputs": [
            {
              "internalType": "uint256",
              "name": "",
              "type": "uint256"
            }
          ],
          "stateMutability": "pure",
          "type": "function"
        },
        {
          "inputs": [],
          "name": "maxRate",
          "outputs": [
            {
              "internalType": "int256",
              "name": "",
              "type": "int256"
            }
          ],
          "stateMutability": "view",
          "type": "function"
        },
        {
          "inputs": [],
          "name": "maxSupply",
          "outputs": [
            {
              "internalType": "uint256",
              "name": "",
              "type": "uint256"
            }
          ],
          "stateMutability": "view",
          "type": "function"
        },
        {
          "inputs": [
            {
              "internalType": "uint256",
              "name": "amount",
              "type": "uint256"
            }
          ],
          "name": "merge",
          "outputs": [],
          "stateMutability": "nonpayable",
          "type": "function"
        },
        {
          "inputs": [
            {
              "internalType": "uint256",
              "name": "amount",
              "type": "uint256"
            },
            {
              "internalType": "contract IAMM",
              "name": "amm",
              "type": "address"
            },
            {
              "internalType": "bytes",
              "name": "extraData",
              "type": "bytes"
            }
          ],
          "name": "mergeAndSell",
          "outputs": [],
          "stateMutability": "nonpayable",
          "type": "function"
        },
        {
          "inputs": [],
          "name": "minRate",
          "outputs": [
            {
              "internalType": "int256",
              "name": "",
              "type": "int256"
            }
          ],
          "stateMutability": "view",
          "type": "function"
        },
        {
          "inputs": [],
          "name": "owner",
          "outputs": [
            {
              "internalType": "address",
              "name": "",
              "type": "address"
            }
          ],
          "stateMutability": "view",
          "type": "function"
        },
        {
          "inputs": [],
          "name": "paused",
          "outputs": [
            {
              "internalType": "bool",
              "name": "",
              "type": "bool"
            }
          ],
          "stateMutability": "view",
          "type": "function"
        },
        {
          "inputs": [
            {
              "internalType": "address",
              "name": "from",
              "type": "address"
            },
            {
              "internalType": "uint256",
              "name": "amount",
              "type": "uint256"
            },
            {
              "internalType": "address",
              "name": "",
              "type": "address"
            },
            {
              "internalType": "bytes",
              "name": "",
              "type": "bytes"
            }
          ],
          "name": "receiveApproval",
          "outputs": [],
          "stateMutability": "nonpayable",
          "type": "function"
        },
        {
          "inputs": [],
          "name": "renounceOwnership",
          "outputs": [],
          "stateMutability": "nonpayable",
          "type": "function"
        },
        {
          "inputs": [
            {
              "internalType": "uint256",
              "name": "_maxSupply",
              "type": "uint256"
            }
          ],
          "name": "setMaxSupply",
          "outputs": [],
          "stateMutability": "nonpayable",
          "type": "function"
        },
        {
          "inputs": [
            {
              "internalType": "address",
              "name": "_treasury",
              "type": "address"
            }
          ],
          "name": "setTreasury",
          "outputs": [],
          "stateMutability": "nonpayable",
          "type": "function"
        },
        {
          "inputs": [
            {
              "internalType": "uint32",
              "name": "duration",
              "type": "uint32"
            }
          ],
          "name": "setVestingDuration",
          "outputs": [],
          "stateMutability": "nonpayable",
          "type": "function"
        },
        {
          "inputs": [],
          "name": "slope",
          "outputs": [
            {
              "internalType": "int256",
              "name": "",
              "type": "int256"
            }
          ],
          "stateMutability": "pure",
          "type": "function"
        },
        {
          "inputs": [],
          "name": "sweep",
          "outputs": [],
          "stateMutability": "nonpayable",
          "type": "function"
        },
        {
          "inputs": [],
          "name": "togglePause",
          "outputs": [],
          "stateMutability": "nonpayable",
          "type": "function"
        },
        {
          "inputs": [],
          "name": "totalVested",
          "outputs": [
            {
              "internalType": "uint256",
              "name": "",
              "type": "uint256"
            }
          ],
          "stateMutability": "view",
          "type": "function"
        },
        {
          "inputs": [
            {
              "internalType": "address",
              "name": "newOwner",
              "type": "address"
            }
          ],
          "name": "transferOwnership",
          "outputs": [],
          "stateMutability": "nonpayable",
          "type": "function"
        },
        {
          "inputs": [],
          "name": "treasury",
          "outputs": [
            {
              "internalType": "address",
              "name": "",
              "type": "address"
            }
          ],
          "stateMutability": "view",
          "type": "function"
        },
        {
          "inputs": [],
          "name": "vestingDuration",
          "outputs": [
            {
              "internalType": "uint32",
              "name": "",
              "type": "uint32"
            }
          ],
          "stateMutability": "view",
          "type": "function"
        },
        {
          "inputs": [
            {
              "internalType": "address",
              "name": "",
              "type": "address"
            }
          ],
          "name": "vestings",
          "outputs": [
            {
              "internalType": "uint256",
              "name": "amount",
              "type": "uint256"
            },
            {
              "internalType": "uint256",
              "name": "end",
              "type": "uint256"
            }
          ],
          "stateMutability": "view",
          "type": "function"
        },
        {
          "inputs": [],
          "name": "wewe",
          "outputs": [
            {
              "internalType": "address",
              "name": "",
              "type": "address"
            }
          ],
          "stateMutability": "view",
          "type": "function"
        }
      ],
      "evm": {
        "bytecode": {
          "linkReferences": {},
          "object": "60803461010457601f61167438819003918201601f19168301916001600160401b0383118484101761010957808492608094604052833981010312610104576100478161011f565b6100536020830161011f565b9160408101519063ffffffff82168092036101045760600151916001600055600154610100600160a81b033360081b1660018060a81b03198216176001556040519460018060a01b039182339160081c167f8be0079c531659141344cd1fd0a4f28419497f9722a3daafe3b4186f6b6457e0600080a38160018060a01b031993168360035416176003551690600254161760025563ffffffff19600854161760085560075561154090816101348239f35b600080fd5b634e487b7160e01b600052604160045260246000fd5b51906001600160a01b03821682036101045756fe6080604081815260048036101561001557600080fd5b600092833560e01c9081630cb6044314610ccd575080631514617e14610ca8578063199cbc5414610c8957838163213897fe14610a785750806321df0da714610a4f57806324a47aeb146109a45780632a9605f41461094957806335faa416146107d95780634e71d92d146107425780635394aa3f146107225780635c975abb146106fe57806361d027b3146106d7578063679aefce1461068f5780636f8b44b01461066d57806370a0823114610635578063715018a6146105d157806383caf275146105b45780638da5cb5b146105875780638f4ffcb1146104af5780639636d88114610474578063b6b55f251461044c578063bf3506c11461040d578063c4ae31681461032a578063d5abeb011461030b578063daf49863146102c9578063e1f26f22146102a0578063ece1d6e514610284578063f0f442601461023f5763f2fde38b1461016457600080fd5b3461023b57602036600319011261023b5761017d610d1b565b610185610d31565b6001600160a01b038181169390929084156101e957505060018054610100600160a81b03198116600893841b610100600160a81b031617909155901c167f8be0079c531659141344cd1fd0a4f28419497f9722a3daafe3b4186f6b6457e08380a380f35b906020608492519162461bcd60e51b8352820152602660248201527f4f776e61626c653a206e6577206f776e657220697320746865207a65726f206160448201526564647265737360d01b6064820152fd5b8280fd5b8382346102805760203660031901126102805761025a610d1b565b610262610d31565b81546001600160a01b0319166001600160a01b039190911617905580f35b5080fd5b5050346102805781600319360112610280576020905160788152f35b50503461028057816003193601126102805760035490516001600160a01b039091168152602090f35b505034610280576020366003190112610280579081906001600160a01b036102ef610d1b565b1681526009602052206001815491015482519182526020820152f35b5050346102805781600319360112610280576020906007549051908152f35b503461023b578260031936011261023b57610343610d31565b60015460ff8116156103cc57506001549060ff821615610392575060ff1916600155513381527f5db9ee0a495bf2e6ff9c91a7834c1ba4fdd244a5e8aa4e537bd38aeae4b073aa90602090a180f35b606490602084519162461bcd60e51b8352820152601460248201527314185d5cd8589b194e881b9bdd081c185d5cd95960621b6044820152fd5b602091509160017f62e78cea01bee320cd4e420270b5ea74000d11b0c9f74754ebdbfc544b05a258936103fd6110bd565b60ff19161760015551338152a180f35b5050346102805760203660031901126102805760209160019082906001600160a01b03610438610d1b565b168152600985522001549051904210158152f35b838234610280576020366003190112610280576104719061046b610d31565b356114cb565b80f35b838234610280576020366003190112610280573563ffffffff81168091036102805761049e610d31565b63ffffffff19600854161760085580f35b50829034610280576080366003190112610280576104cb610d1b565b906001600160a01b03604435818116036105835760643567ffffffffffffffff811161057f576104fe9036908401610ce8565b5050610508611101565b6105106110bd565b6002541690811561053057509061052991602435611157565b6001815580f35b608490602086519162461bcd60e51b8352820152602360248201527f44796e616d696345617465723a20546f6b656e2061646472657373206e6f74206044820152621cd95d60ea1b6064820152fd5b8480fd5b8380fd5b505034610280578160031936011261028057600154905160089190911c6001600160a01b03168152602090f35b505034610280578160031936011261028057516045198152602090f35b83346106325780600319360112610632576105ea610d31565b60018054610100600160a81b03198116909155819060081c6001600160a01b03167f8be0079c531659141344cd1fd0a4f28419497f9722a3daafe3b4186f6b6457e08280a380f35b80fd5b5050346102805760203660031901126102805760209181906001600160a01b0361065d610d1b565b1681526009845220549051908152f35b83823461028057602036600319011261028057610688610d31565b3560075580f35b50913461063257806003193601126106325760055460018101918282116106c4576020846106bd8585610f2d565b9051908152f35b634e487b7160e01b815260118552602490fd5b503461023b578260031936011261023b575490516001600160a01b03909116815260209150f35b50503461028057816003193601126102805760209060ff6001541690519015158152f35b50913461063257602036600319011261063257506106bd60209235610e19565b50903461023b578260031936011261023b5761075c6110bd565b63ffffffff60085416156107cc575b3383526009602052600181842001544210610789578261047161144a565b906020606492519162461bcd60e51b8352820152601f60248201527f44796e616d696345617465723a2056657374696e67206e6f7420656e646564006044820152fd5b6107d461144a565b61076b565b509190346102805781600319360112610280576107f4610d31565b60035481516370a0823160e01b8152308582015293602092916001600160a01b0390811691908487602481865afa96871561093f57869761090c575b5086156108bf57600154845163a9059cbb60e01b81526001600160a01b0360089290921c90921616918101918252602082018790529291849184919082908890829060400103925af19081156108b65750610889578280f35b816108a892903d106108af575b6108a0818361100f565b8101906110a5565b5081808280f35b503d610896565b513d85823e3d90fd5b835162461bcd60e51b8152808301869052602160248201527f44796e616d696345617465723a204e6f2062616c616e636520746f20737765656044820152600760fc1b6064820152608490fd5b9096508481813d8311610938575b610924818361100f565b8101031261093457519538610830565b8580fd5b503d61091a565b84513d88823e3d90fd5b838234610280578160031936011261028057610963610d31565b6007546005549182820391821161099157508161098661098c9261047194610d8c565b90610f2d565b6114cb565b634e487b7160e01b845260119052602483fd5b503461023b57602036600319011261023b578035906109c16110bd565b60025483516370a0823160e01b815233928101929092526001600160a01b031690602081602481855afa938415610a4657508493610a11575b50610a0a82610471941015611047565b3391611157565b92506020833d8211610a3e575b81610a2b6020938361100f565b8101031261058357915191610a0a6109fa565b3d9150610a1e565b513d86823e3d90fd5b50503461028057816003193601126102805760025490516001600160a01b039091168152602090f35b92905034610c85576060366003190112610c85576001600160a01b03602435818116908435908290036109345760443567ffffffffffffffff8111610c8157610ac49036908701610ce8565b969095610acf611101565b610ad76110bd565b60025486516370a0823160e01b81523383820152602099918716908a81602481855afa908115610c7757908692918691610c42575b50610b2492610b1c911015611047565b339086611157565b600254875163095ea7b360e01b81526001600160a01b0387168482019081526020810187905290918b9183918a169082908890829060400103925af18015610c3857918a97969594939160a493610c1b575b5080878354168015600014610c155750309a5b8860025416988b519c8d9a8b998a976302454b7160e41b8952880152602487015216604485015260806064850152816084850152848401378181018301849052601f01601f191681010301925af19081156108b65750610bec575b826001815580f35b813d8311610c0e575b610bff818361100f565b81010312610632573880610be4565b503d610bf5565b9a610b89565b610c3190893d8b116108af576108a0818361100f565b5038610b76565b88513d86823e3d90fd5b8093508c8092503d8311610c70575b610c5b818361100f565b8101031261057f579051859190610b24610b0c565b503d610c51565b89513d87823e3d90fd5b8680fd5b5050fd5b5050346102805781600319360112610280576020906005549051908152f35b50503461028057816003193601126102805760209063ffffffff600854169051908152f35b84903461028057816003193601126102805780603260209252f35b9181601f84011215610d165782359167ffffffffffffffff8311610d165760208381860195010111610d1657565b600080fd5b600435906001600160a01b0382168203610d1657565b60015460081c6001600160a01b03163303610d4857565b606460405162461bcd60e51b815260206004820152602060248201527f4f776e61626c653a2063616c6c6572206973206e6f7420746865206f776e65726044820152fd5b91908201809211610d9957565b634e487b7160e01b600052601160045260246000fd5b90620186a091828102928184051490151715610d9957565b9062b71b009180830292830503610d9957565b818102929160008212600160ff1b821416610d99578184051490151715610d9957565b91909160008382019384129112908015821691151617610d9957565b6201116f198181029190600160ff1b8214600116610d9957820503610d995762b71b009060008282019283129112908015821691151617610d9957620186a0900560008112610e655790565b50600090565b6000908015610f29578080600114610f2157600214610f19576001918261013383101683600b84101617610f095760028392935b808211610ecc57505082600019048211610eb857500290565b634e487b7160e01b81526011600452602490fd5b909380600019048111610ef557818516610eec575b800293811c90610e9f565b80930292610ee1565b634e487b7160e01b83526011600452602483fd5b929150600283910a92610eb85750565b509060049150565b505050600190565b5090565b60075490811561100757610f73610f6d6002610f67610f79610f89966045190597610f73610f6d85610f67610f6185610e6b565b8d610dda565b05610daf565b91610dc7565b90610dfd565b96610f8386610e6b565b90610dda565b9060008282039212818312811691831390151617610d995760008112610fac5790565b60405162461bcd60e51b815260206004820152602d60248201527f417265612063616c63756c6174696f6e20726573756c74656420696e2061206e60448201526c656761746976652076616c756560981b6064820152608490fd5b505050600090565b90601f8019910116810190811067ffffffffffffffff82111761103157604052565b634e487b7160e01b600052604160045260246000fd5b1561104e57565b60405162461bcd60e51b815260206004820152602960248201527f44796e616d696345617465723a20496e73756666696369656e742062616c616e60448201526818d9481d1bc819585d60ba1b6064820152608490fd5b90816020910312610d1657518015158103610d165790565b60ff600154166110c957565b60405162461bcd60e51b815260206004820152601060248201526f14185d5cd8589b194e881c185d5cd95960821b6044820152606490fd5b600260005414611112576002600055565b60405162461bcd60e51b815260206004820152601f60248201527f5265656e7472616e637947756172643a207265656e7472616e742063616c6c006044820152606490fd5b909291926005549361117b61117461116f8588610d8c565b610e19565b8096610d8c565b60055560018060a01b039081600354166040908151946370a0823160e01b86528560049230848301528160246020998a935afa90811561143f57600091611412575b5089116113b35782516323b872dd60e01b81526001600160a01b03851683820190815230602082015260408101899052909187918391908290036060019082906000908a165af180156113a85761138b575b5060085463ffffffff98908916156112ee5761123b858516918260005260098852846000205490610d8c565b98603c8160085416029081169081036112d9576112589042610d8c565b988351928484019084821067ffffffffffffffff8311176112c45750917fadc41ba80ffa0859aab1d7cf405a6633a6af94fc3d10e5b0e0bf46cdcc0fd9c898999a9160019386528452878401918252600052600987528360002092518355519101555b519485521692a2565b604190634e487b7160e01b6000525260246000fd5b601183634e487b7160e01b6000525260246000fd5b600354835163a9059cbb60e01b81526001600160a01b0386169381019384526020840192909252909850859189918616908290600090829060400103925af1968715611380577fadc41ba80ffa0859aab1d7cf405a6633a6af94fc3d10e5b0e0bf46cdcc0fd9c8959697611363575b506112bb565b61137990853d87116108af576108a0818361100f565b503861135d565b50513d6000823e3d90fd5b6113a190863d88116108af576108a0818361100f565b503861120f565b83513d6000823e3d90fd5b5084608492519162461bcd60e51b8352820152603460248201527f44796e616d696345617465723a20496e73756666696369656e7420746f6b656e604482015273103130b630b731b2903a37903a3930b739b332b960611b6064820152fd5b908782813d8311611438575b611428818361100f565b81010312610632575051386111bd565b503d61141e565b84513d6000823e3d90fd5b336000818152600960209081526040808320805490849055600354915163a9059cbb60e01b815260048101959095526024850152909183916001600160a01b031690829081604481015b03925af180156114bf576114a55750565b6114bc9060203d81116108af576108a0818361100f565b50565b6040513d6000823e3d90fd5b6003546040516323b872dd60e01b8152336004820152306024820152604481019290925260209082906001600160a01b0316816000816064810161149456fea2646970667358221220f7ac4b4c33e49800ce40c8d566d82173ab67664f3c61750788e6ab74ef69c38b64736f6c63430008130033",
          "opcodes": "PUSH1 0x80 CALLVALUE PUSH2 0x104 JUMPI PUSH1 0x1F PUSH2 0x1674 CODESIZE DUP2 SWAP1 SUB SWAP2 DUP3 ADD PUSH1 0x1F NOT AND DUP4 ADD SWAP2 PUSH1 0x1 PUSH1 0x1 PUSH1 0x40 SHL SUB DUP4 GT DUP5 DUP5 LT OR PUSH2 0x109 JUMPI DUP1 DUP5 SWAP3 PUSH1 0x80 SWAP5 PUSH1 0x40 MSTORE DUP4 CODECOPY DUP2 ADD SUB SLT PUSH2 0x104 JUMPI PUSH2 0x47 DUP2 PUSH2 0x11F JUMP JUMPDEST PUSH2 0x53 PUSH1 0x20 DUP4 ADD PUSH2 0x11F JUMP JUMPDEST SWAP2 PUSH1 0x40 DUP2 ADD MLOAD SWAP1 PUSH4 0xFFFFFFFF DUP3 AND DUP1 SWAP3 SUB PUSH2 0x104 JUMPI PUSH1 0x60 ADD MLOAD SWAP2 PUSH1 0x1 PUSH1 0x0 SSTORE PUSH1 0x1 SLOAD PUSH2 0x100 PUSH1 0x1 PUSH1 0xA8 SHL SUB CALLER PUSH1 0x8 SHL AND PUSH1 0x1 DUP1 PUSH1 0xA8 SHL SUB NOT DUP3 AND OR PUSH1 0x1 SSTORE PUSH1 0x40 MLOAD SWAP5 PUSH1 0x1 DUP1 PUSH1 0xA0 SHL SUB SWAP2 DUP3 CALLER SWAP2 PUSH1 0x8 SHR AND PUSH32 0x8BE0079C531659141344CD1FD0A4F28419497F9722A3DAAFE3B4186F6B6457E0 PUSH1 0x0 DUP1 LOG3 DUP2 PUSH1 0x1 DUP1 PUSH1 0xA0 SHL SUB NOT SWAP4 AND DUP4 PUSH1 0x3 SLOAD AND OR PUSH1 0x3 SSTORE AND SWAP1 PUSH1 0x2 SLOAD AND OR PUSH1 0x2 SSTORE PUSH4 0xFFFFFFFF NOT PUSH1 0x8 SLOAD AND OR PUSH1 0x8 SSTORE PUSH1 0x7 SSTORE PUSH2 0x1540 SWAP1 DUP2 PUSH2 0x134 DUP3 CODECOPY RETURN JUMPDEST PUSH1 0x0 DUP1 REVERT JUMPDEST PUSH4 0x4E487B71 PUSH1 0xE0 SHL PUSH1 0x0 MSTORE PUSH1 0x41 PUSH1 0x4 MSTORE PUSH1 0x24 PUSH1 0x0 REVERT JUMPDEST MLOAD SWAP1 PUSH1 0x1 PUSH1 0x1 PUSH1 0xA0 SHL SUB DUP3 AND DUP3 SUB PUSH2 0x104 JUMPI JUMP INVALID PUSH1 0x80 PUSH1 0x40 DUP2 DUP2 MSTORE PUSH1 0x4 DUP1 CALLDATASIZE LT ISZERO PUSH2 0x15 JUMPI PUSH1 0x0 DUP1 REVERT JUMPDEST PUSH1 0x0 SWAP3 DUP4 CALLDATALOAD PUSH1 0xE0 SHR SWAP1 DUP2 PUSH4 0xCB60443 EQ PUSH2 0xCCD JUMPI POP DUP1 PUSH4 0x1514617E EQ PUSH2 0xCA8 JUMPI DUP1 PUSH4 0x199CBC54 EQ PUSH2 0xC89 JUMPI DUP4 DUP2 PUSH4 0x213897FE EQ PUSH2 0xA78 JUMPI POP DUP1 PUSH4 0x21DF0DA7 EQ PUSH2 0xA4F JUMPI DUP1 PUSH4 0x24A47AEB EQ PUSH2 0x9A4 JUMPI DUP1 PUSH4 0x2A9605F4 EQ PUSH2 0x949 JUMPI DUP1 PUSH4 0x35FAA416 EQ PUSH2 0x7D9 JUMPI DUP1 PUSH4 0x4E71D92D EQ PUSH2 0x742 JUMPI DUP1 PUSH4 0x5394AA3F EQ PUSH2 0x722 JUMPI DUP1 PUSH4 0x5C975ABB EQ PUSH2 0x6FE JUMPI DUP1 PUSH4 0x61D027B3 EQ PUSH2 0x6D7 JUMPI DUP1 PUSH4 0x679AEFCE EQ PUSH2 0x68F JUMPI DUP1 PUSH4 0x6F8B44B0 EQ PUSH2 0x66D JUMPI DUP1 PUSH4 0x70A08231 EQ PUSH2 0x635 JUMPI DUP1 PUSH4 0x715018A6 EQ PUSH2 0x5D1 JUMPI DUP1 PUSH4 0x83CAF275 EQ PUSH2 0x5B4 JUMPI DUP1 PUSH4 0x8DA5CB5B EQ PUSH2 0x587 JUMPI DUP1 PUSH4 0x8F4FFCB1 EQ PUSH2 0x4AF JUMPI DUP1 PUSH4 0x9636D881 EQ PUSH2 0x474 JUMPI DUP1 PUSH4 0xB6B55F25 EQ PUSH2 0x44C JUMPI DUP1 PUSH4 0xBF3506C1 EQ PUSH2 0x40D JUMPI DUP1 PUSH4 0xC4AE3168 EQ PUSH2 0x32A JUMPI DUP1 PUSH4 0xD5ABEB01 EQ PUSH2 0x30B JUMPI DUP1 PUSH4 0xDAF49863 EQ PUSH2 0x2C9 JUMPI DUP1 PUSH4 0xE1F26F22 EQ PUSH2 0x2A0 JUMPI DUP1 PUSH4 0xECE1D6E5 EQ PUSH2 0x284 JUMPI DUP1 PUSH4 0xF0F44260 EQ PUSH2 0x23F JUMPI PUSH4 0xF2FDE38B EQ PUSH2 0x164 JUMPI PUSH1 0x0 DUP1 REVERT JUMPDEST CALLVALUE PUSH2 0x23B JUMPI PUSH1 0x20 CALLDATASIZE PUSH1 0x3 NOT ADD SLT PUSH2 0x23B JUMPI PUSH2 0x17D PUSH2 0xD1B JUMP JUMPDEST PUSH2 0x185 PUSH2 0xD31 JUMP JUMPDEST PUSH1 0x1 PUSH1 0x1 PUSH1 0xA0 SHL SUB DUP2 DUP2 AND SWAP4 SWAP1 SWAP3 SWAP1 DUP5 ISZERO PUSH2 0x1E9 JUMPI POP POP PUSH1 0x1 DUP1 SLOAD PUSH2 0x100 PUSH1 0x1 PUSH1 0xA8 SHL SUB NOT DUP2 AND PUSH1 0x8 SWAP4 DUP5 SHL PUSH2 0x100 PUSH1 0x1 PUSH1 0xA8 SHL SUB AND OR SWAP1 SWAP2 SSTORE SWAP1 SHR AND PUSH32 0x8BE0079C531659141344CD1FD0A4F28419497F9722A3DAAFE3B4186F6B6457E0 DUP4 DUP1 LOG3 DUP1 RETURN JUMPDEST SWAP1 PUSH1 0x20 PUSH1 0x84 SWAP3 MLOAD SWAP2 PUSH3 0x461BCD PUSH1 0xE5 SHL DUP4 MSTORE DUP3 ADD MSTORE PUSH1 0x26 PUSH1 0x24 DUP3 ADD MSTORE PUSH32 0x4F776E61626C653A206E6577206F776E657220697320746865207A65726F2061 PUSH1 0x44 DUP3 ADD MSTORE PUSH6 0x646472657373 PUSH1 0xD0 SHL PUSH1 0x64 DUP3 ADD MSTORE REVERT JUMPDEST DUP3 DUP1 REVERT JUMPDEST DUP4 DUP3 CALLVALUE PUSH2 0x280 JUMPI PUSH1 0x20 CALLDATASIZE PUSH1 0x3 NOT ADD SLT PUSH2 0x280 JUMPI PUSH2 0x25A PUSH2 0xD1B JUMP JUMPDEST PUSH2 0x262 PUSH2 0xD31 JUMP JUMPDEST DUP2 SLOAD PUSH1 0x1 PUSH1 0x1 PUSH1 0xA0 SHL SUB NOT AND PUSH1 0x1 PUSH1 0x1 PUSH1 0xA0 SHL SUB SWAP2 SWAP1 SWAP2 AND OR SWAP1 SSTORE DUP1 RETURN JUMPDEST POP DUP1 REVERT JUMPDEST POP POP CALLVALUE PUSH2 0x280 JUMPI DUP2 PUSH1 0x3 NOT CALLDATASIZE ADD SLT PUSH2 0x280 JUMPI PUSH1 0x20 SWAP1 MLOAD PUSH1 0x78 DUP2 MSTORE RETURN JUMPDEST POP POP CALLVALUE PUSH2 0x280 JUMPI DUP2 PUSH1 0x3 NOT CALLDATASIZE ADD SLT PUSH2 0x280 JUMPI PUSH1 0x3 SLOAD SWAP1 MLOAD PUSH1 0x1 PUSH1 0x1 PUSH1 0xA0 SHL SUB SWAP1 SWAP2 AND DUP2 MSTORE PUSH1 0x20 SWAP1 RETURN JUMPDEST POP POP CALLVALUE PUSH2 0x280 JUMPI PUSH1 0x20 CALLDATASIZE PUSH1 0x3 NOT ADD SLT PUSH2 0x280 JUMPI SWAP1 DUP2 SWAP1 PUSH1 0x1 PUSH1 0x1 PUSH1 0xA0 SHL SUB PUSH2 0x2EF PUSH2 0xD1B JUMP JUMPDEST AND DUP2 MSTORE PUSH1 0x9 PUSH1 0x20 MSTORE KECCAK256 PUSH1 0x1 DUP2 SLOAD SWAP2 ADD SLOAD DUP3 MLOAD SWAP2 DUP3 MSTORE PUSH1 0x20 DUP3 ADD MSTORE RETURN JUMPDEST POP POP CALLVALUE PUSH2 0x280 JUMPI DUP2 PUSH1 0x3 NOT CALLDATASIZE ADD SLT PUSH2 0x280 JUMPI PUSH1 0x20 SWAP1 PUSH1 0x7 SLOAD SWAP1 MLOAD SWAP1 DUP2 MSTORE RETURN JUMPDEST POP CALLVALUE PUSH2 0x23B JUMPI DUP3 PUSH1 0x3 NOT CALLDATASIZE ADD SLT PUSH2 0x23B JUMPI PUSH2 0x343 PUSH2 0xD31 JUMP JUMPDEST PUSH1 0x1 SLOAD PUSH1 0xFF DUP2 AND ISZERO PUSH2 0x3CC JUMPI POP PUSH1 0x1 SLOAD SWAP1 PUSH1 0xFF DUP3 AND ISZERO PUSH2 0x392 JUMPI POP PUSH1 0xFF NOT AND PUSH1 0x1 SSTORE MLOAD CALLER DUP2 MSTORE PUSH32 0x5DB9EE0A495BF2E6FF9C91A7834C1BA4FDD244A5E8AA4E537BD38AEAE4B073AA SWAP1 PUSH1 0x20 SWAP1 LOG1 DUP1 RETURN JUMPDEST PUSH1 0x64 SWAP1 PUSH1 0x20 DUP5 MLOAD SWAP2 PUSH3 0x461BCD PUSH1 0xE5 SHL DUP4 MSTORE DUP3 ADD MSTORE PUSH1 0x14 PUSH1 0x24 DUP3 ADD MSTORE PUSH20 0x14185D5CD8589B194E881B9BDD081C185D5CD959 PUSH1 0x62 SHL PUSH1 0x44 DUP3 ADD MSTORE REVERT JUMPDEST PUSH1 0x20 SWAP2 POP SWAP2 PUSH1 0x1 PUSH32 0x62E78CEA01BEE320CD4E420270B5EA74000D11B0C9F74754EBDBFC544B05A258 SWAP4 PUSH2 0x3FD PUSH2 0x10BD JUMP JUMPDEST PUSH1 0xFF NOT AND OR PUSH1 0x1 SSTORE MLOAD CALLER DUP2 MSTORE LOG1 DUP1 RETURN JUMPDEST POP POP CALLVALUE PUSH2 0x280 JUMPI PUSH1 0x20 CALLDATASIZE PUSH1 0x3 NOT ADD SLT PUSH2 0x280 JUMPI PUSH1 0x20 SWAP2 PUSH1 0x1 SWAP1 DUP3 SWAP1 PUSH1 0x1 PUSH1 0x1 PUSH1 0xA0 SHL SUB PUSH2 0x438 PUSH2 0xD1B JUMP JUMPDEST AND DUP2 MSTORE PUSH1 0x9 DUP6 MSTORE KECCAK256 ADD SLOAD SWAP1 MLOAD SWAP1 TIMESTAMP LT ISZERO DUP2 MSTORE RETURN JUMPDEST DUP4 DUP3 CALLVALUE PUSH2 0x280 JUMPI PUSH1 0x20 CALLDATASIZE PUSH1 0x3 NOT ADD SLT PUSH2 0x280 JUMPI PUSH2 0x471 SWAP1 PUSH2 0x46B PUSH2 0xD31 JUMP JUMPDEST CALLDATALOAD PUSH2 0x14CB JUMP JUMPDEST DUP1 RETURN JUMPDEST DUP4 DUP3 CALLVALUE PUSH2 0x280 JUMPI PUSH1 0x20 CALLDATASIZE PUSH1 0x3 NOT ADD SLT PUSH2 0x280 JUMPI CALLDATALOAD PUSH4 0xFFFFFFFF DUP2 AND DUP1 SWAP2 SUB PUSH2 0x280 JUMPI PUSH2 0x49E PUSH2 0xD31 JUMP JUMPDEST PUSH4 0xFFFFFFFF NOT PUSH1 0x8 SLOAD AND OR PUSH1 0x8 SSTORE DUP1 RETURN JUMPDEST POP DUP3 SWAP1 CALLVALUE PUSH2 0x280 JUMPI PUSH1 0x80 CALLDATASIZE PUSH1 0x3 NOT ADD SLT PUSH2 0x280 JUMPI PUSH2 0x4CB PUSH2 0xD1B JUMP JUMPDEST SWAP1 PUSH1 0x1 PUSH1 0x1 PUSH1 0xA0 SHL SUB PUSH1 0x44 CALLDATALOAD DUP2 DUP2 AND SUB PUSH2 0x583 JUMPI PUSH1 0x64 CALLDATALOAD PUSH8 0xFFFFFFFFFFFFFFFF DUP2 GT PUSH2 0x57F JUMPI PUSH2 0x4FE SWAP1 CALLDATASIZE SWAP1 DUP5 ADD PUSH2 0xCE8 JUMP JUMPDEST POP POP PUSH2 0x508 PUSH2 0x1101 JUMP JUMPDEST PUSH2 0x510 PUSH2 0x10BD JUMP JUMPDEST PUSH1 0x2 SLOAD AND SWAP1 DUP2 ISZERO PUSH2 0x530 JUMPI POP SWAP1 PUSH2 0x529 SWAP2 PUSH1 0x24 CALLDATALOAD PUSH2 0x1157 JUMP JUMPDEST PUSH1 0x1 DUP2 SSTORE DUP1 RETURN JUMPDEST PUSH1 0x84 SWAP1 PUSH1 0x20 DUP7 MLOAD SWAP2 PUSH3 0x461BCD PUSH1 0xE5 SHL DUP4 MSTORE DUP3 ADD MSTORE PUSH1 0x23 PUSH1 0x24 DUP3 ADD MSTORE PUSH32 0x44796E616D696345617465723A20546F6B656E2061646472657373206E6F7420 PUSH1 0x44 DUP3 ADD MSTORE PUSH3 0x1CD95D PUSH1 0xEA SHL PUSH1 0x64 DUP3 ADD MSTORE REVERT JUMPDEST DUP5 DUP1 REVERT JUMPDEST DUP4 DUP1 REVERT JUMPDEST POP POP CALLVALUE PUSH2 0x280 JUMPI DUP2 PUSH1 0x3 NOT CALLDATASIZE ADD SLT PUSH2 0x280 JUMPI PUSH1 0x1 SLOAD SWAP1 MLOAD PUSH1 0x8 SWAP2 SWAP1 SWAP2 SHR PUSH1 0x1 PUSH1 0x1 PUSH1 0xA0 SHL SUB AND DUP2 MSTORE PUSH1 0x20 SWAP1 RETURN JUMPDEST POP POP CALLVALUE PUSH2 0x280 JUMPI DUP2 PUSH1 0x3 NOT CALLDATASIZE ADD SLT PUSH2 0x280 JUMPI MLOAD PUSH1 0x45 NOT DUP2 MSTORE PUSH1 0x20 SWAP1 RETURN JUMPDEST DUP4 CALLVALUE PUSH2 0x632 JUMPI DUP1 PUSH1 0x3 NOT CALLDATASIZE ADD SLT PUSH2 0x632 JUMPI PUSH2 0x5EA PUSH2 0xD31 JUMP JUMPDEST PUSH1 0x1 DUP1 SLOAD PUSH2 0x100 PUSH1 0x1 PUSH1 0xA8 SHL SUB NOT DUP2 AND SWAP1 SWAP2 SSTORE DUP2 SWAP1 PUSH1 0x8 SHR PUSH1 0x1 PUSH1 0x1 PUSH1 0xA0 SHL SUB AND PUSH32 0x8BE0079C531659141344CD1FD0A4F28419497F9722A3DAAFE3B4186F6B6457E0 DUP3 DUP1 LOG3 DUP1 RETURN JUMPDEST DUP1 REVERT JUMPDEST POP POP CALLVALUE PUSH2 0x280 JUMPI PUSH1 0x20 CALLDATASIZE PUSH1 0x3 NOT ADD SLT PUSH2 0x280 JUMPI PUSH1 0x20 SWAP2 DUP2 SWAP1 PUSH1 0x1 PUSH1 0x1 PUSH1 0xA0 SHL SUB PUSH2 0x65D PUSH2 0xD1B JUMP JUMPDEST AND DUP2 MSTORE PUSH1 0x9 DUP5 MSTORE KECCAK256 SLOAD SWAP1 MLOAD SWAP1 DUP2 MSTORE RETURN JUMPDEST DUP4 DUP3 CALLVALUE PUSH2 0x280 JUMPI PUSH1 0x20 CALLDATASIZE PUSH1 0x3 NOT ADD SLT PUSH2 0x280 JUMPI PUSH2 0x688 PUSH2 0xD31 JUMP JUMPDEST CALLDATALOAD PUSH1 0x7 SSTORE DUP1 RETURN JUMPDEST POP SWAP2 CALLVALUE PUSH2 0x632 JUMPI DUP1 PUSH1 0x3 NOT CALLDATASIZE ADD SLT PUSH2 0x632 JUMPI PUSH1 0x5 SLOAD PUSH1 0x1 DUP2 ADD SWAP2 DUP3 DUP3 GT PUSH2 0x6C4 JUMPI PUSH1 0x20 DUP5 PUSH2 0x6BD DUP6 DUP6 PUSH2 0xF2D JUMP JUMPDEST SWAP1 MLOAD SWAP1 DUP2 MSTORE RETURN JUMPDEST PUSH4 0x4E487B71 PUSH1 0xE0 SHL DUP2 MSTORE PUSH1 0x11 DUP6 MSTORE PUSH1 0x24 SWAP1 REVERT JUMPDEST POP CALLVALUE PUSH2 0x23B JUMPI DUP3 PUSH1 0x3 NOT CALLDATASIZE ADD SLT PUSH2 0x23B JUMPI SLOAD SWAP1 MLOAD PUSH1 0x1 PUSH1 0x1 PUSH1 0xA0 SHL SUB SWAP1 SWAP2 AND DUP2 MSTORE PUSH1 0x20 SWAP2 POP RETURN JUMPDEST POP POP CALLVALUE PUSH2 0x280 JUMPI DUP2 PUSH1 0x3 NOT CALLDATASIZE ADD SLT PUSH2 0x280 JUMPI PUSH1 0x20 SWAP1 PUSH1 0xFF PUSH1 0x1 SLOAD AND SWAP1 MLOAD SWAP1 ISZERO ISZERO DUP2 MSTORE RETURN JUMPDEST POP SWAP2 CALLVALUE PUSH2 0x632 JUMPI PUSH1 0x20 CALLDATASIZE PUSH1 0x3 NOT ADD SLT PUSH2 0x632 JUMPI POP PUSH2 0x6BD PUSH1 0x20 SWAP3 CALLDATALOAD PUSH2 0xE19 JUMP JUMPDEST POP SWAP1 CALLVALUE PUSH2 0x23B JUMPI DUP3 PUSH1 0x3 NOT CALLDATASIZE ADD SLT PUSH2 0x23B JUMPI PUSH2 0x75C PUSH2 0x10BD JUMP JUMPDEST PUSH4 0xFFFFFFFF PUSH1 0x8 SLOAD AND ISZERO PUSH2 0x7CC JUMPI JUMPDEST CALLER DUP4 MSTORE PUSH1 0x9 PUSH1 0x20 MSTORE PUSH1 0x1 DUP2 DUP5 KECCAK256 ADD SLOAD TIMESTAMP LT PUSH2 0x789 JUMPI DUP3 PUSH2 0x471 PUSH2 0x144A JUMP JUMPDEST SWAP1 PUSH1 0x20 PUSH1 0x64 SWAP3 MLOAD SWAP2 PUSH3 0x461BCD PUSH1 0xE5 SHL DUP4 MSTORE DUP3 ADD MSTORE PUSH1 0x1F PUSH1 0x24 DUP3 ADD MSTORE PUSH32 0x44796E616D696345617465723A2056657374696E67206E6F7420656E64656400 PUSH1 0x44 DUP3 ADD MSTORE REVERT JUMPDEST PUSH2 0x7D4 PUSH2 0x144A JUMP JUMPDEST PUSH2 0x76B JUMP JUMPDEST POP SWAP2 SWAP1 CALLVALUE PUSH2 0x280 JUMPI DUP2 PUSH1 0x3 NOT CALLDATASIZE ADD SLT PUSH2 0x280 JUMPI PUSH2 0x7F4 PUSH2 0xD31 JUMP JUMPDEST PUSH1 0x3 SLOAD DUP2 MLOAD PUSH4 0x70A08231 PUSH1 0xE0 SHL DUP2 MSTORE ADDRESS DUP6 DUP3 ADD MSTORE SWAP4 PUSH1 0x20 SWAP3 SWAP2 PUSH1 0x1 PUSH1 0x1 PUSH1 0xA0 SHL SUB SWAP1 DUP2 AND SWAP2 SWAP1 DUP5 DUP8 PUSH1 0x24 DUP2 DUP7 GAS STATICCALL SWAP7 DUP8 ISZERO PUSH2 0x93F JUMPI DUP7 SWAP8 PUSH2 0x90C JUMPI JUMPDEST POP DUP7 ISZERO PUSH2 0x8BF JUMPI PUSH1 0x1 SLOAD DUP5 MLOAD PUSH4 0xA9059CBB PUSH1 0xE0 SHL DUP2 MSTORE PUSH1 0x1 PUSH1 0x1 PUSH1 0xA0 SHL SUB PUSH1 0x8 SWAP3 SWAP1 SWAP3 SHR SWAP1 SWAP3 AND AND SWAP2 DUP2 ADD SWAP2 DUP3 MSTORE PUSH1 0x20 DUP3 ADD DUP8 SWAP1 MSTORE SWAP3 SWAP2 DUP5 SWAP2 DUP5 SWAP2 SWAP1 DUP3 SWAP1 DUP9 SWAP1 DUP3 SWAP1 PUSH1 0x40 ADD SUB SWAP3 GAS CALL SWAP1 DUP2 ISZERO PUSH2 0x8B6 JUMPI POP PUSH2 0x889 JUMPI DUP3 DUP1 RETURN JUMPDEST DUP2 PUSH2 0x8A8 SWAP3 SWAP1 RETURNDATASIZE LT PUSH2 0x8AF JUMPI JUMPDEST PUSH2 0x8A0 DUP2 DUP4 PUSH2 0x100F JUMP JUMPDEST DUP2 ADD SWAP1 PUSH2 0x10A5 JUMP JUMPDEST POP DUP2 DUP1 DUP3 DUP1 RETURN JUMPDEST POP RETURNDATASIZE PUSH2 0x896 JUMP JUMPDEST MLOAD RETURNDATASIZE DUP6 DUP3 RETURNDATACOPY RETURNDATASIZE SWAP1 REVERT JUMPDEST DUP4 MLOAD PUSH3 0x461BCD PUSH1 0xE5 SHL DUP2 MSTORE DUP1 DUP4 ADD DUP7 SWAP1 MSTORE PUSH1 0x21 PUSH1 0x24 DUP3 ADD MSTORE PUSH32 0x44796E616D696345617465723A204E6F2062616C616E636520746F2073776565 PUSH1 0x44 DUP3 ADD MSTORE PUSH1 0x7 PUSH1 0xFC SHL PUSH1 0x64 DUP3 ADD MSTORE PUSH1 0x84 SWAP1 REVERT JUMPDEST SWAP1 SWAP7 POP DUP5 DUP2 DUP2 RETURNDATASIZE DUP4 GT PUSH2 0x938 JUMPI JUMPDEST PUSH2 0x924 DUP2 DUP4 PUSH2 0x100F JUMP JUMPDEST DUP2 ADD SUB SLT PUSH2 0x934 JUMPI MLOAD SWAP6 CODESIZE PUSH2 0x830 JUMP JUMPDEST DUP6 DUP1 REVERT JUMPDEST POP RETURNDATASIZE PUSH2 0x91A JUMP JUMPDEST DUP5 MLOAD RETURNDATASIZE DUP9 DUP3 RETURNDATACOPY RETURNDATASIZE SWAP1 REVERT JUMPDEST DUP4 DUP3 CALLVALUE PUSH2 0x280 JUMPI DUP2 PUSH1 0x3 NOT CALLDATASIZE ADD SLT PUSH2 0x280 JUMPI PUSH2 0x963 PUSH2 0xD31 JUMP JUMPDEST PUSH1 0x7 SLOAD PUSH1 0x5 SLOAD SWAP2 DUP3 DUP3 SUB SWAP2 DUP3 GT PUSH2 0x991 JUMPI POP DUP2 PUSH2 0x986 PUSH2 0x98C SWAP3 PUSH2 0x471 SWAP5 PUSH2 0xD8C JUMP JUMPDEST SWAP1 PUSH2 0xF2D JUMP JUMPDEST PUSH2 0x14CB JUMP JUMPDEST PUSH4 0x4E487B71 PUSH1 0xE0 SHL DUP5 MSTORE PUSH1 0x11 SWAP1 MSTORE PUSH1 0x24 DUP4 REVERT JUMPDEST POP CALLVALUE PUSH2 0x23B JUMPI PUSH1 0x20 CALLDATASIZE PUSH1 0x3 NOT ADD SLT PUSH2 0x23B JUMPI DUP1 CALLDATALOAD SWAP1 PUSH2 0x9C1 PUSH2 0x10BD JUMP JUMPDEST PUSH1 0x2 SLOAD DUP4 MLOAD PUSH4 0x70A08231 PUSH1 0xE0 SHL DUP2 MSTORE CALLER SWAP3 DUP2 ADD SWAP3 SWAP1 SWAP3 MSTORE PUSH1 0x1 PUSH1 0x1 PUSH1 0xA0 SHL SUB AND SWAP1 PUSH1 0x20 DUP2 PUSH1 0x24 DUP2 DUP6 GAS STATICCALL SWAP4 DUP5 ISZERO PUSH2 0xA46 JUMPI POP DUP5 SWAP4 PUSH2 0xA11 JUMPI JUMPDEST POP PUSH2 0xA0A DUP3 PUSH2 0x471 SWAP5 LT ISZERO PUSH2 0x1047 JUMP JUMPDEST CALLER SWAP2 PUSH2 0x1157 JUMP JUMPDEST SWAP3 POP PUSH1 0x20 DUP4 RETURNDATASIZE DUP3 GT PUSH2 0xA3E JUMPI JUMPDEST DUP2 PUSH2 0xA2B PUSH1 0x20 SWAP4 DUP4 PUSH2 0x100F JUMP JUMPDEST DUP2 ADD SUB SLT PUSH2 0x583 JUMPI SWAP2 MLOAD SWAP2 PUSH2 0xA0A PUSH2 0x9FA JUMP JUMPDEST RETURNDATASIZE SWAP2 POP PUSH2 0xA1E JUMP JUMPDEST MLOAD RETURNDATASIZE DUP7 DUP3 RETURNDATACOPY RETURNDATASIZE SWAP1 REVERT JUMPDEST POP POP CALLVALUE PUSH2 0x280 JUMPI DUP2 PUSH1 0x3 NOT CALLDATASIZE ADD SLT PUSH2 0x280 JUMPI PUSH1 0x2 SLOAD SWAP1 MLOAD PUSH1 0x1 PUSH1 0x1 PUSH1 0xA0 SHL SUB SWAP1 SWAP2 AND DUP2 MSTORE PUSH1 0x20 SWAP1 RETURN JUMPDEST SWAP3 SWAP1 POP CALLVALUE PUSH2 0xC85 JUMPI PUSH1 0x60 CALLDATASIZE PUSH1 0x3 NOT ADD SLT PUSH2 0xC85 JUMPI PUSH1 0x1 PUSH1 0x1 PUSH1 0xA0 SHL SUB PUSH1 0x24 CALLDATALOAD DUP2 DUP2 AND SWAP1 DUP5 CALLDATALOAD SWAP1 DUP3 SWAP1 SUB PUSH2 0x934 JUMPI PUSH1 0x44 CALLDATALOAD PUSH8 0xFFFFFFFFFFFFFFFF DUP2 GT PUSH2 0xC81 JUMPI PUSH2 0xAC4 SWAP1 CALLDATASIZE SWAP1 DUP8 ADD PUSH2 0xCE8 JUMP JUMPDEST SWAP7 SWAP1 SWAP6 PUSH2 0xACF PUSH2 0x1101 JUMP JUMPDEST PUSH2 0xAD7 PUSH2 0x10BD JUMP JUMPDEST PUSH1 0x2 SLOAD DUP7 MLOAD PUSH4 0x70A08231 PUSH1 0xE0 SHL DUP2 MSTORE CALLER DUP4 DUP3 ADD MSTORE PUSH1 0x20 SWAP10 SWAP2 DUP8 AND SWAP1 DUP11 DUP2 PUSH1 0x24 DUP2 DUP6 GAS STATICCALL SWAP1 DUP2 ISZERO PUSH2 0xC77 JUMPI SWAP1 DUP7 SWAP3 SWAP2 DUP7 SWAP2 PUSH2 0xC42 JUMPI JUMPDEST POP PUSH2 0xB24 SWAP3 PUSH2 0xB1C SWAP2 LT ISZERO PUSH2 0x1047 JUMP JUMPDEST CALLER SWAP1 DUP7 PUSH2 0x1157 JUMP JUMPDEST PUSH1 0x2 SLOAD DUP8 MLOAD PUSH4 0x95EA7B3 PUSH1 0xE0 SHL DUP2 MSTORE PUSH1 0x1 PUSH1 0x1 PUSH1 0xA0 SHL SUB DUP8 AND DUP5 DUP3 ADD SWAP1 DUP2 MSTORE PUSH1 0x20 DUP2 ADD DUP8 SWAP1 MSTORE SWAP1 SWAP2 DUP12 SWAP2 DUP4 SWAP2 DUP11 AND SWAP1 DUP3 SWAP1 DUP9 SWAP1 DUP3 SWAP1 PUSH1 0x40 ADD SUB SWAP3 GAS CALL DUP1 ISZERO PUSH2 0xC38 JUMPI SWAP2 DUP11 SWAP8 SWAP7 SWAP6 SWAP5 SWAP4 SWAP2 PUSH1 0xA4 SWAP4 PUSH2 0xC1B JUMPI JUMPDEST POP DUP1 DUP8 DUP4 SLOAD AND DUP1 ISZERO PUSH1 0x0 EQ PUSH2 0xC15 JUMPI POP ADDRESS SWAP11 JUMPDEST DUP9 PUSH1 0x2 SLOAD AND SWAP9 DUP12 MLOAD SWAP13 DUP14 SWAP11 DUP12 SWAP10 DUP11 SWAP8 PUSH4 0x2454B71 PUSH1 0xE4 SHL DUP10 MSTORE DUP9 ADD MSTORE PUSH1 0x24 DUP8 ADD MSTORE AND PUSH1 0x44 DUP6 ADD MSTORE PUSH1 0x80 PUSH1 0x64 DUP6 ADD MSTORE DUP2 PUSH1 0x84 DUP6 ADD MSTORE DUP5 DUP5 ADD CALLDATACOPY DUP2 DUP2 ADD DUP4 ADD DUP5 SWAP1 MSTORE PUSH1 0x1F ADD PUSH1 0x1F NOT AND DUP2 ADD SUB ADD SWAP3 GAS CALL SWAP1 DUP2 ISZERO PUSH2 0x8B6 JUMPI POP PUSH2 0xBEC JUMPI JUMPDEST DUP3 PUSH1 0x1 DUP2 SSTORE DUP1 RETURN JUMPDEST DUP2 RETURNDATASIZE DUP4 GT PUSH2 0xC0E JUMPI JUMPDEST PUSH2 0xBFF DUP2 DUP4 PUSH2 0x100F JUMP JUMPDEST DUP2 ADD SUB SLT PUSH2 0x632 JUMPI CODESIZE DUP1 PUSH2 0xBE4 JUMP JUMPDEST POP RETURNDATASIZE PUSH2 0xBF5 JUMP JUMPDEST SWAP11 PUSH2 0xB89 JUMP JUMPDEST PUSH2 0xC31 SWAP1 DUP10 RETURNDATASIZE DUP12 GT PUSH2 0x8AF JUMPI PUSH2 0x8A0 DUP2 DUP4 PUSH2 0x100F JUMP JUMPDEST POP CODESIZE PUSH2 0xB76 JUMP JUMPDEST DUP9 MLOAD RETURNDATASIZE DUP7 DUP3 RETURNDATACOPY RETURNDATASIZE SWAP1 REVERT JUMPDEST DUP1 SWAP4 POP DUP13 DUP1 SWAP3 POP RETURNDATASIZE DUP4 GT PUSH2 0xC70 JUMPI JUMPDEST PUSH2 0xC5B DUP2 DUP4 PUSH2 0x100F JUMP JUMPDEST DUP2 ADD SUB SLT PUSH2 0x57F JUMPI SWAP1 MLOAD DUP6 SWAP2 SWAP1 PUSH2 0xB24 PUSH2 0xB0C JUMP JUMPDEST POP RETURNDATASIZE PUSH2 0xC51 JUMP JUMPDEST DUP10 MLOAD RETURNDATASIZE DUP8 DUP3 RETURNDATACOPY RETURNDATASIZE SWAP1 REVERT JUMPDEST DUP7 DUP1 REVERT JUMPDEST POP POP REVERT JUMPDEST POP POP CALLVALUE PUSH2 0x280 JUMPI DUP2 PUSH1 0x3 NOT CALLDATASIZE ADD SLT PUSH2 0x280 JUMPI PUSH1 0x20 SWAP1 PUSH1 0x5 SLOAD SWAP1 MLOAD SWAP1 DUP2 MSTORE RETURN JUMPDEST POP POP CALLVALUE PUSH2 0x280 JUMPI DUP2 PUSH1 0x3 NOT CALLDATASIZE ADD SLT PUSH2 0x280 JUMPI PUSH1 0x20 SWAP1 PUSH4 0xFFFFFFFF PUSH1 0x8 SLOAD AND SWAP1 MLOAD SWAP1 DUP2 MSTORE RETURN JUMPDEST DUP5 SWAP1 CALLVALUE PUSH2 0x280 JUMPI DUP2 PUSH1 0x3 NOT CALLDATASIZE ADD SLT PUSH2 0x280 JUMPI DUP1 PUSH1 0x32 PUSH1 0x20 SWAP3 MSTORE RETURN JUMPDEST SWAP2 DUP2 PUSH1 0x1F DUP5 ADD SLT ISZERO PUSH2 0xD16 JUMPI DUP3 CALLDATALOAD SWAP2 PUSH8 0xFFFFFFFFFFFFFFFF DUP4 GT PUSH2 0xD16 JUMPI PUSH1 0x20 DUP4 DUP2 DUP7 ADD SWAP6 ADD ADD GT PUSH2 0xD16 JUMPI JUMP JUMPDEST PUSH1 0x0 DUP1 REVERT JUMPDEST PUSH1 0x4 CALLDATALOAD SWAP1 PUSH1 0x1 PUSH1 0x1 PUSH1 0xA0 SHL SUB DUP3 AND DUP3 SUB PUSH2 0xD16 JUMPI JUMP JUMPDEST PUSH1 0x1 SLOAD PUSH1 0x8 SHR PUSH1 0x1 PUSH1 0x1 PUSH1 0xA0 SHL SUB AND CALLER SUB PUSH2 0xD48 JUMPI JUMP JUMPDEST PUSH1 0x64 PUSH1 0x40 MLOAD PUSH3 0x461BCD PUSH1 0xE5 SHL DUP2 MSTORE PUSH1 0x20 PUSH1 0x4 DUP3 ADD MSTORE PUSH1 0x20 PUSH1 0x24 DUP3 ADD MSTORE PUSH32 0x4F776E61626C653A2063616C6C6572206973206E6F7420746865206F776E6572 PUSH1 0x44 DUP3 ADD MSTORE REVERT JUMPDEST SWAP2 SWAP1 DUP3 ADD DUP1 SWAP3 GT PUSH2 0xD99 JUMPI JUMP JUMPDEST PUSH4 0x4E487B71 PUSH1 0xE0 SHL PUSH1 0x0 MSTORE PUSH1 0x11 PUSH1 0x4 MSTORE PUSH1 0x24 PUSH1 0x0 REVERT JUMPDEST SWAP1 PUSH3 0x186A0 SWAP2 DUP3 DUP2 MUL SWAP3 DUP2 DUP5 SDIV EQ SWAP1 ISZERO OR ISZERO PUSH2 0xD99 JUMPI JUMP JUMPDEST SWAP1 PUSH3 0xB71B00 SWAP2 DUP1 DUP4 MUL SWAP3 DUP4 SDIV SUB PUSH2 0xD99 JUMPI JUMP JUMPDEST DUP2 DUP2 MUL SWAP3 SWAP2 PUSH1 0x0 DUP3 SLT PUSH1 0x1 PUSH1 0xFF SHL DUP3 EQ AND PUSH2 0xD99 JUMPI DUP2 DUP5 SDIV EQ SWAP1 ISZERO OR ISZERO PUSH2 0xD99 JUMPI JUMP JUMPDEST SWAP2 SWAP1 SWAP2 PUSH1 0x0 DUP4 DUP3 ADD SWAP4 DUP5 SLT SWAP2 SLT SWAP1 DUP1 ISZERO DUP3 AND SWAP2 ISZERO AND OR PUSH2 0xD99 JUMPI JUMP JUMPDEST PUSH3 0x1116F NOT DUP2 DUP2 MUL SWAP2 SWAP1 PUSH1 0x1 PUSH1 0xFF SHL DUP3 EQ PUSH1 0x1 AND PUSH2 0xD99 JUMPI DUP3 SDIV SUB PUSH2 0xD99 JUMPI PUSH3 0xB71B00 SWAP1 PUSH1 0x0 DUP3 DUP3 ADD SWAP3 DUP4 SLT SWAP2 SLT SWAP1 DUP1 ISZERO DUP3 AND SWAP2 ISZERO AND OR PUSH2 0xD99 JUMPI PUSH3 0x186A0 SWAP1 SDIV PUSH1 0x0 DUP2 SLT PUSH2 0xE65 JUMPI SWAP1 JUMP JUMPDEST POP PUSH1 0x0 SWAP1 JUMP JUMPDEST PUSH1 0x0 SWAP1 DUP1 ISZERO PUSH2 0xF29 JUMPI DUP1 DUP1 PUSH1 0x1 EQ PUSH2 0xF21 JUMPI PUSH1 0x2 EQ PUSH2 0xF19 JUMPI PUSH1 0x1 SWAP2 DUP3 PUSH2 0x133 DUP4 LT AND DUP4 PUSH1 0xB DUP5 LT AND OR PUSH2 0xF09 JUMPI PUSH1 0x2 DUP4 SWAP3 SWAP4 JUMPDEST DUP1 DUP3 GT PUSH2 0xECC JUMPI POP POP DUP3 PUSH1 0x0 NOT DIV DUP3 GT PUSH2 0xEB8 JUMPI POP MUL SWAP1 JUMP JUMPDEST PUSH4 0x4E487B71 PUSH1 0xE0 SHL DUP2 MSTORE PUSH1 0x11 PUSH1 0x4 MSTORE PUSH1 0x24 SWAP1 REVERT JUMPDEST SWAP1 SWAP4 DUP1 PUSH1 0x0 NOT DIV DUP2 GT PUSH2 0xEF5 JUMPI DUP2 DUP6 AND PUSH2 0xEEC JUMPI JUMPDEST DUP1 MUL SWAP4 DUP2 SHR SWAP1 PUSH2 0xE9F JUMP JUMPDEST DUP1 SWAP4 MUL SWAP3 PUSH2 0xEE1 JUMP JUMPDEST PUSH4 0x4E487B71 PUSH1 0xE0 SHL DUP4 MSTORE PUSH1 0x11 PUSH1 0x4 MSTORE PUSH1 0x24 DUP4 REVERT JUMPDEST SWAP3 SWAP2 POP PUSH1 0x2 DUP4 SWAP2 EXP SWAP3 PUSH2 0xEB8 JUMPI POP JUMP JUMPDEST POP SWAP1 PUSH1 0x4 SWAP2 POP JUMP JUMPDEST POP POP POP PUSH1 0x1 SWAP1 JUMP JUMPDEST POP SWAP1 JUMP JUMPDEST PUSH1 0x7 SLOAD SWAP1 DUP2 ISZERO PUSH2 0x1007 JUMPI PUSH2 0xF73 PUSH2 0xF6D PUSH1 0x2 PUSH2 0xF67 PUSH2 0xF79 PUSH2 0xF89 SWAP7 PUSH1 0x45 NOT SDIV SWAP8 PUSH2 0xF73 PUSH2 0xF6D DUP6 PUSH2 0xF67 PUSH2 0xF61 DUP6 PUSH2 0xE6B JUMP JUMPDEST DUP14 PUSH2 0xDDA JUMP JUMPDEST SDIV PUSH2 0xDAF JUMP JUMPDEST SWAP2 PUSH2 0xDC7 JUMP JUMPDEST SWAP1 PUSH2 0xDFD JUMP JUMPDEST SWAP7 PUSH2 0xF83 DUP7 PUSH2 0xE6B JUMP JUMPDEST SWAP1 PUSH2 0xDDA JUMP JUMPDEST SWAP1 PUSH1 0x0 DUP3 DUP3 SUB SWAP3 SLT DUP2 DUP4 SLT DUP2 AND SWAP2 DUP4 SGT SWAP1 ISZERO AND OR PUSH2 0xD99 JUMPI PUSH1 0x0 DUP2 SLT PUSH2 0xFAC JUMPI SWAP1 JUMP JUMPDEST PUSH1 0x40 MLOAD PUSH3 0x461BCD PUSH1 0xE5 SHL DUP2 MSTORE PUSH1 0x20 PUSH1 0x4 DUP3 ADD MSTORE PUSH1 0x2D PUSH1 0x24 DUP3 ADD MSTORE PUSH32 0x417265612063616C63756C6174696F6E20726573756C74656420696E2061206E PUSH1 0x44 DUP3 ADD MSTORE PUSH13 0x656761746976652076616C7565 PUSH1 0x98 SHL PUSH1 0x64 DUP3 ADD MSTORE PUSH1 0x84 SWAP1 REVERT JUMPDEST POP POP POP PUSH1 0x0 SWAP1 JUMP JUMPDEST SWAP1 PUSH1 0x1F DUP1 NOT SWAP2 ADD AND DUP2 ADD SWAP1 DUP2 LT PUSH8 0xFFFFFFFFFFFFFFFF DUP3 GT OR PUSH2 0x1031 JUMPI PUSH1 0x40 MSTORE JUMP JUMPDEST PUSH4 0x4E487B71 PUSH1 0xE0 SHL PUSH1 0x0 MSTORE PUSH1 0x41 PUSH1 0x4 MSTORE PUSH1 0x24 PUSH1 0x0 REVERT JUMPDEST ISZERO PUSH2 0x104E JUMPI JUMP JUMPDEST PUSH1 0x40 MLOAD PUSH3 0x461BCD PUSH1 0xE5 SHL DUP2 MSTORE PUSH1 0x20 PUSH1 0x4 DUP3 ADD MSTORE PUSH1 0x29 PUSH1 0x24 DUP3 ADD MSTORE PUSH32 0x44796E616D696345617465723A20496E73756666696369656E742062616C616E PUSH1 0x44 DUP3 ADD MSTORE PUSH9 0x18D9481D1BC819585D PUSH1 0xBA SHL PUSH1 0x64 DUP3 ADD MSTORE PUSH1 0x84 SWAP1 REVERT JUMPDEST SWAP1 DUP2 PUSH1 0x20 SWAP2 SUB SLT PUSH2 0xD16 JUMPI MLOAD DUP1 ISZERO ISZERO DUP2 SUB PUSH2 0xD16 JUMPI SWAP1 JUMP JUMPDEST PUSH1 0xFF PUSH1 0x1 SLOAD AND PUSH2 0x10C9 JUMPI JUMP JUMPDEST PUSH1 0x40 MLOAD PUSH3 0x461BCD PUSH1 0xE5 SHL DUP2 MSTORE PUSH1 0x20 PUSH1 0x4 DUP3 ADD MSTORE PUSH1 0x10 PUSH1 0x24 DUP3 ADD MSTORE PUSH16 0x14185D5CD8589B194E881C185D5CD959 PUSH1 0x82 SHL PUSH1 0x44 DUP3 ADD MSTORE PUSH1 0x64 SWAP1 REVERT JUMPDEST PUSH1 0x2 PUSH1 0x0 SLOAD EQ PUSH2 0x1112 JUMPI PUSH1 0x2 PUSH1 0x0 SSTORE JUMP JUMPDEST PUSH1 0x40 MLOAD PUSH3 0x461BCD PUSH1 0xE5 SHL DUP2 MSTORE PUSH1 0x20 PUSH1 0x4 DUP3 ADD MSTORE PUSH1 0x1F PUSH1 0x24 DUP3 ADD MSTORE PUSH32 0x5265656E7472616E637947756172643A207265656E7472616E742063616C6C00 PUSH1 0x44 DUP3 ADD MSTORE PUSH1 0x64 SWAP1 REVERT JUMPDEST SWAP1 SWAP3 SWAP2 SWAP3 PUSH1 0x5 SLOAD SWAP4 PUSH2 0x117B PUSH2 0x1174 PUSH2 0x116F DUP6 DUP9 PUSH2 0xD8C JUMP JUMPDEST PUSH2 0xE19 JUMP JUMPDEST DUP1 SWAP7 PUSH2 0xD8C JUMP JUMPDEST PUSH1 0x5 SSTORE PUSH1 0x1 DUP1 PUSH1 0xA0 SHL SUB SWAP1 DUP2 PUSH1 0x3 SLOAD AND PUSH1 0x40 SWAP1 DUP2 MLOAD SWAP5 PUSH4 0x70A08231 PUSH1 0xE0 SHL DUP7 MSTORE DUP6 PUSH1 0x4 SWAP3 ADDRESS DUP5 DUP4 ADD MSTORE DUP2 PUSH1 0x24 PUSH1 0x20 SWAP10 DUP11 SWAP4 GAS STATICCALL SWAP1 DUP2 ISZERO PUSH2 0x143F JUMPI PUSH1 0x0 SWAP2 PUSH2 0x1412 JUMPI JUMPDEST POP DUP10 GT PUSH2 0x13B3 JUMPI DUP3 MLOAD PUSH4 0x23B872DD PUSH1 0xE0 SHL DUP2 MSTORE PUSH1 0x1 PUSH1 0x1 PUSH1 0xA0 SHL SUB DUP6 AND DUP4 DUP3 ADD SWAP1 DUP2 MSTORE ADDRESS PUSH1 0x20 DUP3 ADD MSTORE PUSH1 0x40 DUP2 ADD DUP10 SWAP1 MSTORE SWAP1 SWAP2 DUP8 SWAP2 DUP4 SWAP2 SWAP1 DUP3 SWAP1 SUB PUSH1 0x60 ADD SWAP1 DUP3 SWAP1 PUSH1 0x0 SWAP1 DUP11 AND GAS CALL DUP1 ISZERO PUSH2 0x13A8 JUMPI PUSH2 0x138B JUMPI JUMPDEST POP PUSH1 0x8 SLOAD PUSH4 0xFFFFFFFF SWAP9 SWAP1 DUP10 AND ISZERO PUSH2 0x12EE JUMPI PUSH2 0x123B DUP6 DUP6 AND SWAP2 DUP3 PUSH1 0x0 MSTORE PUSH1 0x9 DUP9 MSTORE DUP5 PUSH1 0x0 KECCAK256 SLOAD SWAP1 PUSH2 0xD8C JUMP JUMPDEST SWAP9 PUSH1 0x3C DUP2 PUSH1 0x8 SLOAD AND MUL SWAP1 DUP2 AND SWAP1 DUP2 SUB PUSH2 0x12D9 JUMPI PUSH2 0x1258 SWAP1 TIMESTAMP PUSH2 0xD8C JUMP JUMPDEST SWAP9 DUP4 MLOAD SWAP3 DUP5 DUP5 ADD SWAP1 DUP5 DUP3 LT PUSH8 0xFFFFFFFFFFFFFFFF DUP4 GT OR PUSH2 0x12C4 JUMPI POP SWAP2 PUSH32 0xADC41BA80FFA0859AAB1D7CF405A6633A6AF94FC3D10E5B0E0BF46CDCC0FD9C8 SWAP9 SWAP10 SWAP11 SWAP2 PUSH1 0x1 SWAP4 DUP7 MSTORE DUP5 MSTORE DUP8 DUP5 ADD SWAP2 DUP3 MSTORE PUSH1 0x0 MSTORE PUSH1 0x9 DUP8 MSTORE DUP4 PUSH1 0x0 KECCAK256 SWAP3 MLOAD DUP4 SSTORE MLOAD SWAP2 ADD SSTORE JUMPDEST MLOAD SWAP5 DUP6 MSTORE AND SWAP3 LOG2 JUMP JUMPDEST PUSH1 0x41 SWAP1 PUSH4 0x4E487B71 PUSH1 0xE0 SHL PUSH1 0x0 MSTORE MSTORE PUSH1 0x24 PUSH1 0x0 REVERT JUMPDEST PUSH1 0x11 DUP4 PUSH4 0x4E487B71 PUSH1 0xE0 SHL PUSH1 0x0 MSTORE MSTORE PUSH1 0x24 PUSH1 0x0 REVERT JUMPDEST PUSH1 0x3 SLOAD DUP4 MLOAD PUSH4 0xA9059CBB PUSH1 0xE0 SHL DUP2 MSTORE PUSH1 0x1 PUSH1 0x1 PUSH1 0xA0 SHL SUB DUP7 AND SWAP4 DUP2 ADD SWAP4 DUP5 MSTORE PUSH1 0x20 DUP5 ADD SWAP3 SWAP1 SWAP3 MSTORE SWAP1 SWAP9 POP DUP6 SWAP2 DUP10 SWAP2 DUP7 AND SWAP1 DUP3 SWAP1 PUSH1 0x0 SWAP1 DUP3 SWAP1 PUSH1 0x40 ADD SUB SWAP3 GAS CALL SWAP7 DUP8 ISZERO PUSH2 0x1380 JUMPI PUSH32 0xADC41BA80FFA0859AAB1D7CF405A6633A6AF94FC3D10E5B0E0BF46CDCC0FD9C8 SWAP6 SWAP7 SWAP8 PUSH2 0x1363 JUMPI JUMPDEST POP PUSH2 0x12BB JUMP JUMPDEST PUSH2 0x1379 SWAP1 DUP6 RETURNDATASIZE DUP8 GT PUSH2 0x8AF JUMPI PUSH2 0x8A0 DUP2 DUP4 PUSH2 0x100F JUMP JUMPDEST POP CODESIZE PUSH2 0x135D JUMP JUMPDEST POP MLOAD RETURNDATASIZE PUSH1 0x0 DUP3 RETURNDATACOPY RETURNDATASIZE SWAP1 REVERT JUMPDEST PUSH2 0x13A1 SWAP1 DUP7 RETURNDATASIZE DUP9 GT PUSH2 0x8AF JUMPI PUSH2 0x8A0 DUP2 DUP4 PUSH2 0x100F JUMP JUMPDEST POP CODESIZE PUSH2 0x120F JUMP JUMPDEST DUP4 MLOAD RETURNDATASIZE PUSH1 0x0 DUP3 RETURNDATACOPY RETURNDATASIZE SWAP1 REVERT JUMPDEST POP DUP5 PUSH1 0x84 SWAP3 MLOAD SWAP2 PUSH3 0x461BCD PUSH1 0xE5 SHL DUP4 MSTORE DUP3 ADD MSTORE PUSH1 0x34 PUSH1 0x24 DUP3 ADD MSTORE PUSH32 0x44796E616D696345617465723A20496E73756666696369656E7420746F6B656E PUSH1 0x44 DUP3 ADD MSTORE PUSH20 0x103130B630B731B2903A37903A3930B739B332B9 PUSH1 0x61 SHL PUSH1 0x64 DUP3 ADD MSTORE REVERT JUMPDEST SWAP1 DUP8 DUP3 DUP2 RETURNDATASIZE DUP4 GT PUSH2 0x1438 JUMPI JUMPDEST PUSH2 0x1428 DUP2 DUP4 PUSH2 0x100F JUMP JUMPDEST DUP2 ADD SUB SLT PUSH2 0x632 JUMPI POP MLOAD CODESIZE PUSH2 0x11BD JUMP JUMPDEST POP RETURNDATASIZE PUSH2 0x141E JUMP JUMPDEST DUP5 MLOAD RETURNDATASIZE PUSH1 0x0 DUP3 RETURNDATACOPY RETURNDATASIZE SWAP1 REVERT JUMPDEST CALLER PUSH1 0x0 DUP2 DUP2 MSTORE PUSH1 0x9 PUSH1 0x20 SWAP1 DUP2 MSTORE PUSH1 0x40 DUP1 DUP4 KECCAK256 DUP1 SLOAD SWAP1 DUP5 SWAP1 SSTORE PUSH1 0x3 SLOAD SWAP2 MLOAD PUSH4 0xA9059CBB PUSH1 0xE0 SHL DUP2 MSTORE PUSH1 0x4 DUP2 ADD SWAP6 SWAP1 SWAP6 MSTORE PUSH1 0x24 DUP6 ADD MSTORE SWAP1 SWAP2 DUP4 SWAP2 PUSH1 0x1 PUSH1 0x1 PUSH1 0xA0 SHL SUB AND SWAP1 DUP3 SWAP1 DUP2 PUSH1 0x44 DUP2 ADD JUMPDEST SUB SWAP3 GAS CALL DUP1 ISZERO PUSH2 0x14BF JUMPI PUSH2 0x14A5 JUMPI POP JUMP JUMPDEST PUSH2 0x14BC SWAP1 PUSH1 0x20 RETURNDATASIZE DUP2 GT PUSH2 0x8AF JUMPI PUSH2 0x8A0 DUP2 DUP4 PUSH2 0x100F JUMP JUMPDEST POP JUMP JUMPDEST PUSH1 0x40 MLOAD RETURNDATASIZE PUSH1 0x0 DUP3 RETURNDATACOPY RETURNDATASIZE SWAP1 REVERT JUMPDEST PUSH1 0x3 SLOAD PUSH1 0x40 MLOAD PUSH4 0x23B872DD PUSH1 0xE0 SHL DUP2 MSTORE CALLER PUSH1 0x4 DUP3 ADD MSTORE ADDRESS PUSH1 0x24 DUP3 ADD MSTORE PUSH1 0x44 DUP2 ADD SWAP3 SWAP1 SWAP3 MSTORE PUSH1 0x20 SWAP1 DUP3 SWAP1 PUSH1 0x1 PUSH1 0x1 PUSH1 0xA0 SHL SUB AND DUP2 PUSH1 0x0 DUP2 PUSH1 0x64 DUP2 ADD PUSH2 0x1494 JUMP INVALID LOG2 PUSH5 0x6970667358 0x22 SLT KECCAK256 0xF7 0xAC 0x4B 0x4C CALLER 0xE4 SWAP9 STOP 0xCE BLOCKHASH 0xC8 0xD5 PUSH7 0xD82173AB67664F EXTCODECOPY PUSH2 0x7507 DUP9 0xE6 0xAB PUSH21 0xEF69C38B64736F6C63430008130033000000000000 "
        },
        "methodIdentifiers": {
          "balanceOf(address)": "70a08231",
          "canClaim(address)": "bf3506c1",
          "claim()": "4e71d92d",
          "deposit(uint256)": "b6b55f25",
          "depositRequired()": "2a9605f4",
          "getRate()": "679aefce",
          "getToken()": "21df0da7",
          "getTotalWeWe(uint256)": "5394aa3f",
          "maxRate()": "ece1d6e5",
          "maxSupply()": "d5abeb01",
          "merge(uint256)": "24a47aeb",
          "mergeAndSell(uint256,address,bytes)": "213897fe",
          "minRate()": "0cb60443",
          "owner()": "8da5cb5b",
          "paused()": "5c975abb",
          "receiveApproval(address,uint256,address,bytes)": "8f4ffcb1",
          "renounceOwnership()": "715018a6",
          "setMaxSupply(uint256)": "6f8b44b0",
          "setTreasury(address)": "f0f44260",
          "setVestingDuration(uint32)": "9636d881",
          "slope()": "83caf275",
          "sweep()": "35faa416",
          "togglePause()": "c4ae3168",
          "totalVested()": "199cbc54",
          "transferOwnership(address)": "f2fde38b",
          "treasury()": "61d027b3",
          "vestingDuration()": "1514617e",
          "vestings(address)": "daf49863",
          "wewe()": "e1f26f22"
        }
      }
    }
  }
}