{
  "contracts/core/merge/BroMerge.sol": {
    "BroMerge": {
      "abi": [
        {
          "inputs": [],
          "stateMutability": "nonpayable",
          "type": "constructor"
        },
        {
          "anonymous": false,
          "inputs": [
            {
              "indexed": false,
              "internalType": "uint256",
              "name": "amount",
              "type": "uint256"
            },
            {
              "indexed": true,
              "internalType": "address",
              "name": "account",
              "type": "address"
            }
          ],
          "name": "Merged",
          "type": "event"
        },
        {
          "anonymous": false,
          "inputs": [
            {
              "indexed": true,
              "internalType": "address",
              "name": "previousOwner",
              "type": "address"
            },
            {
              "indexed": true,
              "internalType": "address",
              "name": "newOwner",
              "type": "address"
            }
          ],
          "name": "OwnershipTransferred",
          "type": "event"
        },
        {
          "anonymous": false,
          "inputs": [
            {
              "indexed": false,
              "internalType": "uint256",
              "name": "newRate",
              "type": "uint256"
            }
          ],
          "name": "RateChanged",
          "type": "event"
        },
        {
          "inputs": [
            {
              "internalType": "uint256",
              "name": "amount",
              "type": "uint256"
            }
          ],
          "name": "deposit",
          "outputs": [],
          "stateMutability": "nonpayable",
          "type": "function"
        },
        {
          "inputs": [],
          "name": "getRate",
          "outputs": [
            {
              "internalType": "uint256",
              "name": "",
              "type": "uint256"
            }
          ],
          "stateMutability": "view",
          "type": "function"
        },
        {
          "inputs": [],
          "name": "getToken",
          "outputs": [
            {
              "internalType": "address",
              "name": "",
              "type": "address"
            }
          ],
          "stateMutability": "view",
          "type": "function"
        },
        {
          "inputs": [
            {
              "internalType": "uint256",
              "name": "amount",
              "type": "uint256"
            }
          ],
          "name": "merge",
          "outputs": [],
          "stateMutability": "nonpayable",
          "type": "function"
        },
        {
          "inputs": [],
          "name": "mergeAll",
          "outputs": [],
          "stateMutability": "nonpayable",
          "type": "function"
        },
        {
          "inputs": [],
          "name": "owner",
          "outputs": [
            {
              "internalType": "address",
              "name": "",
              "type": "address"
            }
          ],
          "stateMutability": "view",
          "type": "function"
        },
        {
          "inputs": [
            {
              "internalType": "address",
              "name": "from",
              "type": "address"
            },
            {
              "internalType": "uint256",
              "name": "amount",
              "type": "uint256"
            },
            {
              "internalType": "address",
              "name": "token",
              "type": "address"
            },
            {
              "internalType": "bytes",
              "name": "",
              "type": "bytes"
            }
          ],
          "name": "receiveApproval",
          "outputs": [],
          "stateMutability": "nonpayable",
          "type": "function"
        },
        {
          "inputs": [],
          "name": "renounceOwnership",
          "outputs": [],
          "stateMutability": "nonpayable",
          "type": "function"
        },
        {
          "inputs": [
            {
              "internalType": "uint256",
              "name": "rate",
              "type": "uint256"
            }
          ],
          "name": "setRate",
          "outputs": [],
          "stateMutability": "nonpayable",
          "type": "function"
        },
        {
          "inputs": [
            {
              "internalType": "address",
              "name": "newOwner",
              "type": "address"
            }
          ],
          "name": "transferOwnership",
          "outputs": [],
          "stateMutability": "nonpayable",
          "type": "function"
        },
        {
          "inputs": [],
          "name": "wewe",
          "outputs": [
            {
              "internalType": "address",
              "name": "",
              "type": "address"
            }
          ],
          "stateMutability": "view",
          "type": "function"
        }
      ],
      "evm": {
        "bytecode": {
          "linkReferences": {},
          "object": "608080604052346100a357600160008181558154336001600160a01b03198083168217909455736b9bb36519538e0c073894e964e90172e1c0b41f939290916001600160a01b0316907f8be0079c531659141344cd1fd0a4f28419497f9722a3daafe3b4186f6b6457e09080a360646002557393750140c2ecea27a53c6ed30380829607815a3181600354161760035560045416176004556109f990816100a98239f35b600080fdfe6080604081815260048036101561001557600080fd5b600092833560e01c90816321df0da7146106d55750806324a47aeb146105f457806334fcf43714610541578063679aefce14610522578063715018a6146104c25780638da5cb5b146104995780638f4ffcb1146102cd57838163b6b55f251461022457508063e1f26f22146101fd578063ea9f2417146101665763f2fde38b1461009e57600080fd5b34610162576020366003190112610162576100b76106fa565b906100c0610715565b6001600160a01b03918216928315610110575050600180546001600160a01b031981168417909155167f8be0079c531659141344cd1fd0a4f28419497f9722a3daafe3b4186f6b6457e08380a380f35b906020608492519162461bcd60e51b8352820152602660248201527f4f776e61626c653a206e6577206f776e657220697320746865207a65726f206160448201526564647265737360d01b6064820152fd5b8280fd5b50903461016257826003193601126101625760035481516370a0823160e01b815233938101939093526001600160a01b0316602083602481845afa9182156101f4575083916101bf575b6101bc925033916107bd565b80f35b90506020823d82116101ec575b816101d96020938361076d565b81010312610162576101bc9151906101b0565b3d91506101cc565b513d85823e3d90fd5b50346101625782600319360112610162575490516001600160a01b03909116815260209150f35b808484346102c95760203660031901126102c957610281602091610246610715565b805484516323b872dd60e01b815233818401908152306020820152923560408401529586936001600160a01b03909216928492839160600190565b03925af19081156102c05750610295575080f35b6102b59060203d81116102b9575b6102ad818361076d565b8101906107a5565b5080f35b503d6102a3565b513d84823e3d90fd5b5050fd5b50829034610495576080366003190112610495576102e96106fa565b906001600160a01b039060443582811691908290036104915767ffffffffffffffff9160643583811161048d573660238201121561048d578083013593841161048d57602480943692010111610489576002865414610447576002865583600354169384156103f957825416908133036103b75703610376575061036f939450356107bd565b6001815580f35b601b606492602088519362461bcd60e51b85528401528201527f47656e6572696345617465723a20496e76616c696420746f6b656e00000000006044820152fd5b875162461bcd60e51b8152602081850152601c818601527f47656e6572696345617465723a20496e76616c69642073656e646572000000006044820152606490fd5b875162461bcd60e51b81526020818501526023818601527f47656e6572696345617465723a20546f6b656e2061646472657373206e6f74206044820152621cd95d60ea1b6064820152608490fd5b50601f606492602088519362461bcd60e51b85528401528201527f5265656e7472616e637947756172643a207265656e7472616e742063616c6c006044820152fd5b8580fd5b8680fd5b8480fd5b5080fd5b50503461049557816003193601126104955760015490516001600160a01b039091168152602090f35b833461051f578060031936011261051f576104db610715565b600180546001600160a01b0319811690915581906001600160a01b03167f8be0079c531659141344cd1fd0a4f28419497f9722a3daafe3b4186f6b6457e08280a380f35b80fd5b5050346104955781600319360112610495576020906002549051908152f35b5090346101625760203660031901126101625781359161055f610715565b82156105a757508160025403610573578280f35b816020917f595a30f13a69b616c4d568e2a2b7875fdfe86e4300a049953c76ee278f8f3f109360025551908152a138808280f35b6020608492519162461bcd60e51b8352820152602260248201527f45617465723a2052617465206d7573742062652067726561746572207468616e604482015261020360f41b6064820152fd5b50829034610495576020806003193601126101625760035484516370a0823160e01b815233848201528335936001600160a01b0390921692908181602481875afa9081156106cb57908591879161069a575b501061065857846101bc3385876107bd565b855162461bcd60e51b815291820152601e60248201527f42726f4d657267653a20496e73756666696369656e742062616c616e63650000604482015260649150fd5b809250838092503d83116106c4575b6106b3818361076d565b810103126104895784905188610646565b503d6106a9565b87513d88823e3d90fd5b8490346104955781600319360112610495576003546001600160a01b03168152602090f35b600435906001600160a01b038216820361071057565b600080fd5b6001546001600160a01b0316330361072957565b606460405162461bcd60e51b815260206004820152602060248201527f4f776e61626c653a2063616c6c6572206973206e6f7420746865206f776e65726044820152fd5b90601f8019910116810190811067ffffffffffffffff82111761078f57604052565b634e487b7160e01b600052604160045260246000fd5b90816020910312610710575180151581036107105790565b92916002548085029085820414851517156109ad57606490049360018060a01b03926004938085541693604092835180966370a0823160e01b825230898301528160246020998a935afa9081156109a257600091610975575b50891161091c5783516323b872dd60e01b81526001600160a01b038316888201908152306020820152604081018790529091879183919082900360600190829060009088165af1801561091157916044918794936108f4575b5060008389541686519b8c95869463a9059cbb60e01b865216809b85015260248401525af19586156108e9577fadc41ba80ffa0859aab1d7cf405a6633a6af94fc3d10e5b0e0bf46cdcc0fd9c89495966108cc575b5051908152a2565b6108e290843d86116102b9576102ad818361076d565b50386108c4565b50513d6000823e3d90fd5b61090a90853d87116102b9576102ad818361076d565b503861086f565b84513d6000823e3d90fd5b835162461bcd60e51b8152808801879052602d60248201527f45617465723a20496e73756666696369656e7420746f6b656e2062616c616e6360448201526c32903a37903a3930b739b332b960991b6064820152608490fd5b908782813d831161099b575b61098b818361076d565b8101031261051f57505138610816565b503d610981565b85513d6000823e3d90fd5b634e487b7160e01b600052601160045260246000fdfea26469706673582212204cbb95828f257ac04b901423ddcbf887a5f16b203e145af92f93a12da814283164736f6c63430008130033",
          "opcodes": "PUSH1 0x80 DUP1 PUSH1 0x40 MSTORE CALLVALUE PUSH2 0xA3 JUMPI PUSH1 0x1 PUSH1 0x0 DUP2 DUP2 SSTORE DUP2 SLOAD CALLER PUSH1 0x1 PUSH1 0x1 PUSH1 0xA0 SHL SUB NOT DUP1 DUP4 AND DUP3 OR SWAP1 SWAP5 SSTORE PUSH20 0x6B9BB36519538E0C073894E964E90172E1C0B41F SWAP4 SWAP3 SWAP1 SWAP2 PUSH1 0x1 PUSH1 0x1 PUSH1 0xA0 SHL SUB AND SWAP1 PUSH32 0x8BE0079C531659141344CD1FD0A4F28419497F9722A3DAAFE3B4186F6B6457E0 SWAP1 DUP1 LOG3 PUSH1 0x64 PUSH1 0x2 SSTORE PUSH20 0x93750140C2ECEA27A53C6ED30380829607815A31 DUP2 PUSH1 0x3 SLOAD AND OR PUSH1 0x3 SSTORE PUSH1 0x4 SLOAD AND OR PUSH1 0x4 SSTORE PUSH2 0x9F9 SWAP1 DUP2 PUSH2 0xA9 DUP3 CODECOPY RETURN JUMPDEST PUSH1 0x0 DUP1 REVERT INVALID PUSH1 0x80 PUSH1 0x40 DUP2 DUP2 MSTORE PUSH1 0x4 DUP1 CALLDATASIZE LT ISZERO PUSH2 0x15 JUMPI PUSH1 0x0 DUP1 REVERT JUMPDEST PUSH1 0x0 SWAP3 DUP4 CALLDATALOAD PUSH1 0xE0 SHR SWAP1 DUP2 PUSH4 0x21DF0DA7 EQ PUSH2 0x6D5 JUMPI POP DUP1 PUSH4 0x24A47AEB EQ PUSH2 0x5F4 JUMPI DUP1 PUSH4 0x34FCF437 EQ PUSH2 0x541 JUMPI DUP1 PUSH4 0x679AEFCE EQ PUSH2 0x522 JUMPI DUP1 PUSH4 0x715018A6 EQ PUSH2 0x4C2 JUMPI DUP1 PUSH4 0x8DA5CB5B EQ PUSH2 0x499 JUMPI DUP1 PUSH4 0x8F4FFCB1 EQ PUSH2 0x2CD JUMPI DUP4 DUP2 PUSH4 0xB6B55F25 EQ PUSH2 0x224 JUMPI POP DUP1 PUSH4 0xE1F26F22 EQ PUSH2 0x1FD JUMPI DUP1 PUSH4 0xEA9F2417 EQ PUSH2 0x166 JUMPI PUSH4 0xF2FDE38B EQ PUSH2 0x9E JUMPI PUSH1 0x0 DUP1 REVERT JUMPDEST CALLVALUE PUSH2 0x162 JUMPI PUSH1 0x20 CALLDATASIZE PUSH1 0x3 NOT ADD SLT PUSH2 0x162 JUMPI PUSH2 0xB7 PUSH2 0x6FA JUMP JUMPDEST SWAP1 PUSH2 0xC0 PUSH2 0x715 JUMP JUMPDEST PUSH1 0x1 PUSH1 0x1 PUSH1 0xA0 SHL SUB SWAP2 DUP3 AND SWAP3 DUP4 ISZERO PUSH2 0x110 JUMPI POP POP PUSH1 0x1 DUP1 SLOAD PUSH1 0x1 PUSH1 0x1 PUSH1 0xA0 SHL SUB NOT DUP2 AND DUP5 OR SWAP1 SWAP2 SSTORE AND PUSH32 0x8BE0079C531659141344CD1FD0A4F28419497F9722A3DAAFE3B4186F6B6457E0 DUP4 DUP1 LOG3 DUP1 RETURN JUMPDEST SWAP1 PUSH1 0x20 PUSH1 0x84 SWAP3 MLOAD SWAP2 PUSH3 0x461BCD PUSH1 0xE5 SHL DUP4 MSTORE DUP3 ADD MSTORE PUSH1 0x26 PUSH1 0x24 DUP3 ADD MSTORE PUSH32 0x4F776E61626C653A206E6577206F776E657220697320746865207A65726F2061 PUSH1 0x44 DUP3 ADD MSTORE PUSH6 0x646472657373 PUSH1 0xD0 SHL PUSH1 0x64 DUP3 ADD MSTORE REVERT JUMPDEST DUP3 DUP1 REVERT JUMPDEST POP SWAP1 CALLVALUE PUSH2 0x162 JUMPI DUP3 PUSH1 0x3 NOT CALLDATASIZE ADD SLT PUSH2 0x162 JUMPI PUSH1 0x3 SLOAD DUP2 MLOAD PUSH4 0x70A08231 PUSH1 0xE0 SHL DUP2 MSTORE CALLER SWAP4 DUP2 ADD SWAP4 SWAP1 SWAP4 MSTORE PUSH1 0x1 PUSH1 0x1 PUSH1 0xA0 SHL SUB AND PUSH1 0x20 DUP4 PUSH1 0x24 DUP2 DUP5 GAS STATICCALL SWAP2 DUP3 ISZERO PUSH2 0x1F4 JUMPI POP DUP4 SWAP2 PUSH2 0x1BF JUMPI JUMPDEST PUSH2 0x1BC SWAP3 POP CALLER SWAP2 PUSH2 0x7BD JUMP JUMPDEST DUP1 RETURN JUMPDEST SWAP1 POP PUSH1 0x20 DUP3 RETURNDATASIZE DUP3 GT PUSH2 0x1EC JUMPI JUMPDEST DUP2 PUSH2 0x1D9 PUSH1 0x20 SWAP4 DUP4 PUSH2 0x76D JUMP JUMPDEST DUP2 ADD SUB SLT PUSH2 0x162 JUMPI PUSH2 0x1BC SWAP2 MLOAD SWAP1 PUSH2 0x1B0 JUMP JUMPDEST RETURNDATASIZE SWAP2 POP PUSH2 0x1CC JUMP JUMPDEST MLOAD RETURNDATASIZE DUP6 DUP3 RETURNDATACOPY RETURNDATASIZE SWAP1 REVERT JUMPDEST POP CALLVALUE PUSH2 0x162 JUMPI DUP3 PUSH1 0x3 NOT CALLDATASIZE ADD SLT PUSH2 0x162 JUMPI SLOAD SWAP1 MLOAD PUSH1 0x1 PUSH1 0x1 PUSH1 0xA0 SHL SUB SWAP1 SWAP2 AND DUP2 MSTORE PUSH1 0x20 SWAP2 POP RETURN JUMPDEST DUP1 DUP5 DUP5 CALLVALUE PUSH2 0x2C9 JUMPI PUSH1 0x20 CALLDATASIZE PUSH1 0x3 NOT ADD SLT PUSH2 0x2C9 JUMPI PUSH2 0x281 PUSH1 0x20 SWAP2 PUSH2 0x246 PUSH2 0x715 JUMP JUMPDEST DUP1 SLOAD DUP5 MLOAD PUSH4 0x23B872DD PUSH1 0xE0 SHL DUP2 MSTORE CALLER DUP2 DUP5 ADD SWAP1 DUP2 MSTORE ADDRESS PUSH1 0x20 DUP3 ADD MSTORE SWAP3 CALLDATALOAD PUSH1 0x40 DUP5 ADD MSTORE SWAP6 DUP7 SWAP4 PUSH1 0x1 PUSH1 0x1 PUSH1 0xA0 SHL SUB SWAP1 SWAP3 AND SWAP3 DUP5 SWAP3 DUP4 SWAP2 PUSH1 0x60 ADD SWAP1 JUMP JUMPDEST SUB SWAP3 GAS CALL SWAP1 DUP2 ISZERO PUSH2 0x2C0 JUMPI POP PUSH2 0x295 JUMPI POP DUP1 RETURN JUMPDEST PUSH2 0x2B5 SWAP1 PUSH1 0x20 RETURNDATASIZE DUP2 GT PUSH2 0x2B9 JUMPI JUMPDEST PUSH2 0x2AD DUP2 DUP4 PUSH2 0x76D JUMP JUMPDEST DUP2 ADD SWAP1 PUSH2 0x7A5 JUMP JUMPDEST POP DUP1 RETURN JUMPDEST POP RETURNDATASIZE PUSH2 0x2A3 JUMP JUMPDEST MLOAD RETURNDATASIZE DUP5 DUP3 RETURNDATACOPY RETURNDATASIZE SWAP1 REVERT JUMPDEST POP POP REVERT JUMPDEST POP DUP3 SWAP1 CALLVALUE PUSH2 0x495 JUMPI PUSH1 0x80 CALLDATASIZE PUSH1 0x3 NOT ADD SLT PUSH2 0x495 JUMPI PUSH2 0x2E9 PUSH2 0x6FA JUMP JUMPDEST SWAP1 PUSH1 0x1 PUSH1 0x1 PUSH1 0xA0 SHL SUB SWAP1 PUSH1 0x44 CALLDATALOAD DUP3 DUP2 AND SWAP2 SWAP1 DUP3 SWAP1 SUB PUSH2 0x491 JUMPI PUSH8 0xFFFFFFFFFFFFFFFF SWAP2 PUSH1 0x64 CALLDATALOAD DUP4 DUP2 GT PUSH2 0x48D JUMPI CALLDATASIZE PUSH1 0x23 DUP3 ADD SLT ISZERO PUSH2 0x48D JUMPI DUP1 DUP4 ADD CALLDATALOAD SWAP4 DUP5 GT PUSH2 0x48D JUMPI PUSH1 0x24 DUP1 SWAP5 CALLDATASIZE SWAP3 ADD ADD GT PUSH2 0x489 JUMPI PUSH1 0x2 DUP7 SLOAD EQ PUSH2 0x447 JUMPI PUSH1 0x2 DUP7 SSTORE DUP4 PUSH1 0x3 SLOAD AND SWAP4 DUP5 ISZERO PUSH2 0x3F9 JUMPI DUP3 SLOAD AND SWAP1 DUP2 CALLER SUB PUSH2 0x3B7 JUMPI SUB PUSH2 0x376 JUMPI POP PUSH2 0x36F SWAP4 SWAP5 POP CALLDATALOAD PUSH2 0x7BD JUMP JUMPDEST PUSH1 0x1 DUP2 SSTORE DUP1 RETURN JUMPDEST PUSH1 0x1B PUSH1 0x64 SWAP3 PUSH1 0x20 DUP9 MLOAD SWAP4 PUSH3 0x461BCD PUSH1 0xE5 SHL DUP6 MSTORE DUP5 ADD MSTORE DUP3 ADD MSTORE PUSH32 0x47656E6572696345617465723A20496E76616C696420746F6B656E0000000000 PUSH1 0x44 DUP3 ADD MSTORE REVERT JUMPDEST DUP8 MLOAD PUSH3 0x461BCD PUSH1 0xE5 SHL DUP2 MSTORE PUSH1 0x20 DUP2 DUP6 ADD MSTORE PUSH1 0x1C DUP2 DUP7 ADD MSTORE PUSH32 0x47656E6572696345617465723A20496E76616C69642073656E64657200000000 PUSH1 0x44 DUP3 ADD MSTORE PUSH1 0x64 SWAP1 REVERT JUMPDEST DUP8 MLOAD PUSH3 0x461BCD PUSH1 0xE5 SHL DUP2 MSTORE PUSH1 0x20 DUP2 DUP6 ADD MSTORE PUSH1 0x23 DUP2 DUP7 ADD MSTORE PUSH32 0x47656E6572696345617465723A20546F6B656E2061646472657373206E6F7420 PUSH1 0x44 DUP3 ADD MSTORE PUSH3 0x1CD95D PUSH1 0xEA SHL PUSH1 0x64 DUP3 ADD MSTORE PUSH1 0x84 SWAP1 REVERT JUMPDEST POP PUSH1 0x1F PUSH1 0x64 SWAP3 PUSH1 0x20 DUP9 MLOAD SWAP4 PUSH3 0x461BCD PUSH1 0xE5 SHL DUP6 MSTORE DUP5 ADD MSTORE DUP3 ADD MSTORE PUSH32 0x5265656E7472616E637947756172643A207265656E7472616E742063616C6C00 PUSH1 0x44 DUP3 ADD MSTORE REVERT JUMPDEST DUP6 DUP1 REVERT JUMPDEST DUP7 DUP1 REVERT JUMPDEST DUP5 DUP1 REVERT JUMPDEST POP DUP1 REVERT JUMPDEST POP POP CALLVALUE PUSH2 0x495 JUMPI DUP2 PUSH1 0x3 NOT CALLDATASIZE ADD SLT PUSH2 0x495 JUMPI PUSH1 0x1 SLOAD SWAP1 MLOAD PUSH1 0x1 PUSH1 0x1 PUSH1 0xA0 SHL SUB SWAP1 SWAP2 AND DUP2 MSTORE PUSH1 0x20 SWAP1 RETURN JUMPDEST DUP4 CALLVALUE PUSH2 0x51F JUMPI DUP1 PUSH1 0x3 NOT CALLDATASIZE ADD SLT PUSH2 0x51F JUMPI PUSH2 0x4DB PUSH2 0x715 JUMP JUMPDEST PUSH1 0x1 DUP1 SLOAD PUSH1 0x1 PUSH1 0x1 PUSH1 0xA0 SHL SUB NOT DUP2 AND SWAP1 SWAP2 SSTORE DUP2 SWAP1 PUSH1 0x1 PUSH1 0x1 PUSH1 0xA0 SHL SUB AND PUSH32 0x8BE0079C531659141344CD1FD0A4F28419497F9722A3DAAFE3B4186F6B6457E0 DUP3 DUP1 LOG3 DUP1 RETURN JUMPDEST DUP1 REVERT JUMPDEST POP POP CALLVALUE PUSH2 0x495 JUMPI DUP2 PUSH1 0x3 NOT CALLDATASIZE ADD SLT PUSH2 0x495 JUMPI PUSH1 0x20 SWAP1 PUSH1 0x2 SLOAD SWAP1 MLOAD SWAP1 DUP2 MSTORE RETURN JUMPDEST POP SWAP1 CALLVALUE PUSH2 0x162 JUMPI PUSH1 0x20 CALLDATASIZE PUSH1 0x3 NOT ADD SLT PUSH2 0x162 JUMPI DUP2 CALLDATALOAD SWAP2 PUSH2 0x55F PUSH2 0x715 JUMP JUMPDEST DUP3 ISZERO PUSH2 0x5A7 JUMPI POP DUP2 PUSH1 0x2 SLOAD SUB PUSH2 0x573 JUMPI DUP3 DUP1 RETURN JUMPDEST DUP2 PUSH1 0x20 SWAP2 PUSH32 0x595A30F13A69B616C4D568E2A2B7875FDFE86E4300A049953C76EE278F8F3F10 SWAP4 PUSH1 0x2 SSTORE MLOAD SWAP1 DUP2 MSTORE LOG1 CODESIZE DUP1 DUP3 DUP1 RETURN JUMPDEST PUSH1 0x20 PUSH1 0x84 SWAP3 MLOAD SWAP2 PUSH3 0x461BCD PUSH1 0xE5 SHL DUP4 MSTORE DUP3 ADD MSTORE PUSH1 0x22 PUSH1 0x24 DUP3 ADD MSTORE PUSH32 0x45617465723A2052617465206D7573742062652067726561746572207468616E PUSH1 0x44 DUP3 ADD MSTORE PUSH2 0x203 PUSH1 0xF4 SHL PUSH1 0x64 DUP3 ADD MSTORE REVERT JUMPDEST POP DUP3 SWAP1 CALLVALUE PUSH2 0x495 JUMPI PUSH1 0x20 DUP1 PUSH1 0x3 NOT CALLDATASIZE ADD SLT PUSH2 0x162 JUMPI PUSH1 0x3 SLOAD DUP5 MLOAD PUSH4 0x70A08231 PUSH1 0xE0 SHL DUP2 MSTORE CALLER DUP5 DUP3 ADD MSTORE DUP4 CALLDATALOAD SWAP4 PUSH1 0x1 PUSH1 0x1 PUSH1 0xA0 SHL SUB SWAP1 SWAP3 AND SWAP3 SWAP1 DUP2 DUP2 PUSH1 0x24 DUP2 DUP8 GAS STATICCALL SWAP1 DUP2 ISZERO PUSH2 0x6CB JUMPI SWAP1 DUP6 SWAP2 DUP8 SWAP2 PUSH2 0x69A JUMPI JUMPDEST POP LT PUSH2 0x658 JUMPI DUP5 PUSH2 0x1BC CALLER DUP6 DUP8 PUSH2 0x7BD JUMP JUMPDEST DUP6 MLOAD PUSH3 0x461BCD PUSH1 0xE5 SHL DUP2 MSTORE SWAP2 DUP3 ADD MSTORE PUSH1 0x1E PUSH1 0x24 DUP3 ADD MSTORE PUSH32 0x42726F4D657267653A20496E73756666696369656E742062616C616E63650000 PUSH1 0x44 DUP3 ADD MSTORE PUSH1 0x64 SWAP2 POP REVERT JUMPDEST DUP1 SWAP3 POP DUP4 DUP1 SWAP3 POP RETURNDATASIZE DUP4 GT PUSH2 0x6C4 JUMPI JUMPDEST PUSH2 0x6B3 DUP2 DUP4 PUSH2 0x76D JUMP JUMPDEST DUP2 ADD SUB SLT PUSH2 0x489 JUMPI DUP5 SWAP1 MLOAD DUP9 PUSH2 0x646 JUMP JUMPDEST POP RETURNDATASIZE PUSH2 0x6A9 JUMP JUMPDEST DUP8 MLOAD RETURNDATASIZE DUP9 DUP3 RETURNDATACOPY RETURNDATASIZE SWAP1 REVERT JUMPDEST DUP5 SWAP1 CALLVALUE PUSH2 0x495 JUMPI DUP2 PUSH1 0x3 NOT CALLDATASIZE ADD SLT PUSH2 0x495 JUMPI PUSH1 0x3 SLOAD PUSH1 0x1 PUSH1 0x1 PUSH1 0xA0 SHL SUB AND DUP2 MSTORE PUSH1 0x20 SWAP1 RETURN JUMPDEST PUSH1 0x4 CALLDATALOAD SWAP1 PUSH1 0x1 PUSH1 0x1 PUSH1 0xA0 SHL SUB DUP3 AND DUP3 SUB PUSH2 0x710 JUMPI JUMP JUMPDEST PUSH1 0x0 DUP1 REVERT JUMPDEST PUSH1 0x1 SLOAD PUSH1 0x1 PUSH1 0x1 PUSH1 0xA0 SHL SUB AND CALLER SUB PUSH2 0x729 JUMPI JUMP JUMPDEST PUSH1 0x64 PUSH1 0x40 MLOAD PUSH3 0x461BCD PUSH1 0xE5 SHL DUP2 MSTORE PUSH1 0x20 PUSH1 0x4 DUP3 ADD MSTORE PUSH1 0x20 PUSH1 0x24 DUP3 ADD MSTORE PUSH32 0x4F776E61626C653A2063616C6C6572206973206E6F7420746865206F776E6572 PUSH1 0x44 DUP3 ADD MSTORE REVERT JUMPDEST SWAP1 PUSH1 0x1F DUP1 NOT SWAP2 ADD AND DUP2 ADD SWAP1 DUP2 LT PUSH8 0xFFFFFFFFFFFFFFFF DUP3 GT OR PUSH2 0x78F JUMPI PUSH1 0x40 MSTORE JUMP JUMPDEST PUSH4 0x4E487B71 PUSH1 0xE0 SHL PUSH1 0x0 MSTORE PUSH1 0x41 PUSH1 0x4 MSTORE PUSH1 0x24 PUSH1 0x0 REVERT JUMPDEST SWAP1 DUP2 PUSH1 0x20 SWAP2 SUB SLT PUSH2 0x710 JUMPI MLOAD DUP1 ISZERO ISZERO DUP2 SUB PUSH2 0x710 JUMPI SWAP1 JUMP JUMPDEST SWAP3 SWAP2 PUSH1 0x2 SLOAD DUP1 DUP6 MUL SWAP1 DUP6 DUP3 DIV EQ DUP6 ISZERO OR ISZERO PUSH2 0x9AD JUMPI PUSH1 0x64 SWAP1 DIV SWAP4 PUSH1 0x1 DUP1 PUSH1 0xA0 SHL SUB SWAP3 PUSH1 0x4 SWAP4 DUP1 DUP6 SLOAD AND SWAP4 PUSH1 0x40 SWAP3 DUP4 MLOAD DUP1 SWAP7 PUSH4 0x70A08231 PUSH1 0xE0 SHL DUP3 MSTORE ADDRESS DUP10 DUP4 ADD MSTORE DUP2 PUSH1 0x24 PUSH1 0x20 SWAP10 DUP11 SWAP4 GAS STATICCALL SWAP1 DUP2 ISZERO PUSH2 0x9A2 JUMPI PUSH1 0x0 SWAP2 PUSH2 0x975 JUMPI JUMPDEST POP DUP10 GT PUSH2 0x91C JUMPI DUP4 MLOAD PUSH4 0x23B872DD PUSH1 0xE0 SHL DUP2 MSTORE PUSH1 0x1 PUSH1 0x1 PUSH1 0xA0 SHL SUB DUP4 AND DUP9 DUP3 ADD SWAP1 DUP2 MSTORE ADDRESS PUSH1 0x20 DUP3 ADD MSTORE PUSH1 0x40 DUP2 ADD DUP8 SWAP1 MSTORE SWAP1 SWAP2 DUP8 SWAP2 DUP4 SWAP2 SWAP1 DUP3 SWAP1 SUB PUSH1 0x60 ADD SWAP1 DUP3 SWAP1 PUSH1 0x0 SWAP1 DUP9 AND GAS CALL DUP1 ISZERO PUSH2 0x911 JUMPI SWAP2 PUSH1 0x44 SWAP2 DUP8 SWAP5 SWAP4 PUSH2 0x8F4 JUMPI JUMPDEST POP PUSH1 0x0 DUP4 DUP10 SLOAD AND DUP7 MLOAD SWAP12 DUP13 SWAP6 DUP7 SWAP5 PUSH4 0xA9059CBB PUSH1 0xE0 SHL DUP7 MSTORE AND DUP1 SWAP12 DUP6 ADD MSTORE PUSH1 0x24 DUP5 ADD MSTORE GAS CALL SWAP6 DUP7 ISZERO PUSH2 0x8E9 JUMPI PUSH32 0xADC41BA80FFA0859AAB1D7CF405A6633A6AF94FC3D10E5B0E0BF46CDCC0FD9C8 SWAP5 SWAP6 SWAP7 PUSH2 0x8CC JUMPI JUMPDEST POP MLOAD SWAP1 DUP2 MSTORE LOG2 JUMP JUMPDEST PUSH2 0x8E2 SWAP1 DUP5 RETURNDATASIZE DUP7 GT PUSH2 0x2B9 JUMPI PUSH2 0x2AD DUP2 DUP4 PUSH2 0x76D JUMP JUMPDEST POP CODESIZE PUSH2 0x8C4 JUMP JUMPDEST POP MLOAD RETURNDATASIZE PUSH1 0x0 DUP3 RETURNDATACOPY RETURNDATASIZE SWAP1 REVERT JUMPDEST PUSH2 0x90A SWAP1 DUP6 RETURNDATASIZE DUP8 GT PUSH2 0x2B9 JUMPI PUSH2 0x2AD DUP2 DUP4 PUSH2 0x76D JUMP JUMPDEST POP CODESIZE PUSH2 0x86F JUMP JUMPDEST DUP5 MLOAD RETURNDATASIZE PUSH1 0x0 DUP3 RETURNDATACOPY RETURNDATASIZE SWAP1 REVERT JUMPDEST DUP4 MLOAD PUSH3 0x461BCD PUSH1 0xE5 SHL DUP2 MSTORE DUP1 DUP9 ADD DUP8 SWAP1 MSTORE PUSH1 0x2D PUSH1 0x24 DUP3 ADD MSTORE PUSH32 0x45617465723A20496E73756666696369656E7420746F6B656E2062616C616E63 PUSH1 0x44 DUP3 ADD MSTORE PUSH13 0x32903A37903A3930B739B332B9 PUSH1 0x99 SHL PUSH1 0x64 DUP3 ADD MSTORE PUSH1 0x84 SWAP1 REVERT JUMPDEST SWAP1 DUP8 DUP3 DUP2 RETURNDATASIZE DUP4 GT PUSH2 0x99B JUMPI JUMPDEST PUSH2 0x98B DUP2 DUP4 PUSH2 0x76D JUMP JUMPDEST DUP2 ADD SUB SLT PUSH2 0x51F JUMPI POP MLOAD CODESIZE PUSH2 0x816 JUMP JUMPDEST POP RETURNDATASIZE PUSH2 0x981 JUMP JUMPDEST DUP6 MLOAD RETURNDATASIZE PUSH1 0x0 DUP3 RETURNDATACOPY RETURNDATASIZE SWAP1 REVERT JUMPDEST PUSH4 0x4E487B71 PUSH1 0xE0 SHL PUSH1 0x0 MSTORE PUSH1 0x11 PUSH1 0x4 MSTORE PUSH1 0x24 PUSH1 0x0 REVERT INVALID LOG2 PUSH5 0x6970667358 0x22 SLT KECCAK256 0x4C 0xBB SWAP6 DUP3 DUP16 0x25 PUSH27 0xC04B901423DDCBF887A5F16B203E145AF92F93A12DA81428316473 PUSH16 0x6C634300081300330000000000000000 "
        },
        "methodIdentifiers": {
          "deposit(uint256)": "b6b55f25",
          "getRate()": "679aefce",
          "getToken()": "21df0da7",
          "merge(uint256)": "24a47aeb",
          "mergeAll()": "ea9f2417",
          "owner()": "8da5cb5b",
          "receiveApproval(address,uint256,address,bytes)": "8f4ffcb1",
          "renounceOwnership()": "715018a6",
          "setRate(uint256)": "34fcf437",
          "transferOwnership(address)": "f2fde38b",
          "wewe()": "e1f26f22"
        }
      }
    }
  }
}