{
  "contracts/core/utils/Wrapper.sol": {
    "Wrapper": {
      "abi": [
        {
          "inputs": [
            {
              "internalType": "address",
              "name": "_factory",
              "type": "address"
            }
          ],
          "stateMutability": "nonpayable",
          "type": "constructor"
        },
        {
          "inputs": [],
          "name": "factory",
          "outputs": [
            {
              "internalType": "contract IFactory",
              "name": "",
              "type": "address"
            }
          ],
          "stateMutability": "view",
          "type": "function"
        },
        {
          "inputs": [],
          "name": "getNumVaults",
          "outputs": [
            {
              "internalType": "uint256",
              "name": "",
              "type": "uint256"
            }
          ],
          "stateMutability": "view",
          "type": "function"
        },
        {
          "inputs": [
            {
              "internalType": "uint256",
              "name": "startIndex",
              "type": "uint256"
            },
            {
              "internalType": "uint256",
              "name": "endIndex",
              "type": "uint256"
            }
          ],
          "name": "getVaults",
          "outputs": [
            {
              "components": [
                {
                  "internalType": "address",
                  "name": "token0",
                  "type": "address"
                },
                {
                  "internalType": "address",
                  "name": "token1",
                  "type": "address"
                },
                {
                  "internalType": "string",
                  "name": "name0",
                  "type": "string"
                },
                {
                  "internalType": "string",
                  "name": "name1",
                  "type": "string"
                },
                {
                  "internalType": "string",
                  "name": "symbol0",
                  "type": "string"
                },
                {
                  "internalType": "string",
                  "name": "symbol1",
                  "type": "string"
                },
                {
                  "internalType": "uint8",
                  "name": "decimals0",
                  "type": "uint8"
                },
                {
                  "internalType": "uint8",
                  "name": "decimals1",
                  "type": "uint8"
                }
              ],
              "internalType": "struct IVault[]",
              "name": "",
              "type": "tuple[]"
            }
          ],
          "stateMutability": "view",
          "type": "function"
        }
      ],
      "evm": {
        "bytecode": {
          "linkReferences": {},
          "object": "60a03461007857601f6109f638819003918201601f19168301916001600160401b0383118484101761007d5780849260209460405283398101031261007857516001600160a01b03811690819003610078576080526040516109629081610094823960805181818160560152818160c1015261073f0152f35b600080fd5b634e487b7160e01b600052604160045260246000fdfe608080604052600436101561001357600080fd5b60003560e01c90816303aaee111461071c57508063b98cca371461008a5763c45a01551461004057600080fd5b34610085576000366003190112610085576040517f00000000000000000000000000000000000000000000000000000000000000006001600160a01b03168152602090f35b600080fd5b34610085576040366003190112610085576040516366a82a5160e01b815260048035908201526024803581830152906000816044817f00000000000000000000000000000000000000000000000000000000000000006001600160a01b03165afa9081156103b057600091610682575b50805161010681610851565b90610114604051928361082f565b808252610123601f1991610851565b0160005b81811061063757505060005b825181101561054e576001600160a01b0361014e828561087d565b5116604051630dfe168160e01b91828252602082600481845afa9182156103b057600092610512575b506040519163d21220a760e01b808452602084600481865afa9384156103b0576000946104d6575b50604051948552602085600481865afa9485156103b057600095610498575b5060209060046040518095819382525afa9182156103b05760009261045c575b506040516306fdde0360e01b8082526000826004816001600160a01b0387165afa9182156103b05760009261043f575b506040519081526000816004816001600160a01b0389165afa9081156103b057600091610424575b506040516395d89b4160e01b8152916000836004816001600160a01b0388165afa9283156103b057600093610407575b506040516395d89b4160e01b8152946000866004816001600160a01b038b165afa9485156103b0576004966000966103df575b5060405163313ce56760e01b81529660209188919082906001600160a01b03165afa9586156103b0576000966103bc575b5060405163313ce56760e01b81529596602090879060049082906001600160a01b03165afa9586156103b05760009661037f575b506040519761030c896107fc565b6001600160a01b03908116895216602088015260408701526060860152608085015260a084015260ff91821660c08401521660e082015261034d828461087d565b52610358818361087d565b50600019811461036a57600101610133565b83634e487b7160e01b60005260116004526000fd5b6103a291965060203d6020116103a9575b61039a818361082f565b810190610913565b948c6102fe565b503d610390565b6040513d6000823e3d90fd5b600496506103d8602091823d84116103a95761039a818361082f565b96506102ca565b6020919650610400903d806000833e6103f8818361082f565b8101906108a7565b9590610299565b61041d9193503d806000833e6103f8818361082f565b918b610266565b61043991503d806000833e6103f8818361082f565b8a610236565b6104559192503d806000833e6103f8818361082f565b908a61020e565b9091506020813d602011610490575b816104786020938361082f565b810103126100855761048990610869565b90886101de565b3d915061046b565b9094506020813d6020116104ce575b816104b46020938361082f565b81010312610085576104c7602091610869565b94906101be565b3d91506104a7565b9093506020813d60201161050a575b816104f26020938361082f565b810103126100855761050390610869565b928961019f565b3d91506104e5565b9091506020813d602011610546575b8161052e6020938361082f565b810103126100855761053f90610869565b9087610177565b3d9150610521565b5060405160209182820192808352815180945260408301938160408260051b8601019301916000955b8287106105845785850386f35b909192938280600192603f19898203018552875190848060a01b038251168152848060a01b0383830151168382015260e06106106105fd6105ea6105d760408701516101008060408901528701906107d7565b60608088015190878303908801526107d7565b60808087015190868303908701526107d7565b60a08086015190858303908601526107d7565b928160ff9160c0838183015116908601520151169101529601920196019592919092610577565b602090604051610646816107fc565b60008152826000818301526060806040840152808084015280608084015260a0830152600060c0830152600060e0830152828601015201610127565b90503d806000833e610694818361082f565b81019060209081818403126100855780519067ffffffffffffffff821161008557019180601f840112156100855782516106cd81610851565b936106db604051958661082f565b818552838086019260051b820101928311610085578301905b8282106107055750505050826100fa565b83809161071184610869565b8152019101906106f4565b34610085576000366003190112610085576304c94c4160e31b81526020816004817f00000000000000000000000000000000000000000000000000000000000000006001600160a01b03165afa80156103b057600090610782575b602090604051908152f35b506020813d82116107ac575b8161079b6020938361082f565b810103126100855760209051610777565b3d915061078e565b60005b8381106107c75750506000910152565b81810151838201526020016107b7565b906020916107f0815180928185528580860191016107b4565b601f01601f1916010190565b610100810190811067ffffffffffffffff82111761081957604052565b634e487b7160e01b600052604160045260246000fd5b90601f8019910116810190811067ffffffffffffffff82111761081957604052565b67ffffffffffffffff81116108195760051b60200190565b51906001600160a01b038216820361008557565b80518210156108915760209160051b010190565b634e487b7160e01b600052603260045260246000fd5b60208183031261008557805167ffffffffffffffff9182821161008557019082601f8301121561008557815190811161081957604051926108f2601f8301601f19166020018561082f565b818452602082840101116100855761091091602080850191016107b4565b90565b90816020910312610085575160ff81168103610085579056fea2646970667358221220d66511907647db7d3f8701d20a36ce032e480a164d2512b918e30af2ebcd7cd264736f6c63430008130033",
          "opcodes": "PUSH1 0xA0 CALLVALUE PUSH2 0x78 JUMPI PUSH1 0x1F PUSH2 0x9F6 CODESIZE DUP2 SWAP1 SUB SWAP2 DUP3 ADD PUSH1 0x1F NOT AND DUP4 ADD SWAP2 PUSH1 0x1 PUSH1 0x1 PUSH1 0x40 SHL SUB DUP4 GT DUP5 DUP5 LT OR PUSH2 0x7D JUMPI DUP1 DUP5 SWAP3 PUSH1 0x20 SWAP5 PUSH1 0x40 MSTORE DUP4 CODECOPY DUP2 ADD SUB SLT PUSH2 0x78 JUMPI MLOAD PUSH1 0x1 PUSH1 0x1 PUSH1 0xA0 SHL SUB DUP2 AND SWAP1 DUP2 SWAP1 SUB PUSH2 0x78 JUMPI PUSH1 0x80 MSTORE PUSH1 0x40 MLOAD PUSH2 0x962 SWAP1 DUP2 PUSH2 0x94 DUP3 CODECOPY PUSH1 0x80 MLOAD DUP2 DUP2 DUP2 PUSH1 0x56 ADD MSTORE DUP2 DUP2 PUSH1 0xC1 ADD MSTORE PUSH2 0x73F ADD MSTORE RETURN JUMPDEST PUSH1 0x0 DUP1 REVERT JUMPDEST PUSH4 0x4E487B71 PUSH1 0xE0 SHL PUSH1 0x0 MSTORE PUSH1 0x41 PUSH1 0x4 MSTORE PUSH1 0x24 PUSH1 0x0 REVERT INVALID PUSH1 0x80 DUP1 PUSH1 0x40 MSTORE PUSH1 0x4 CALLDATASIZE LT ISZERO PUSH2 0x13 JUMPI PUSH1 0x0 DUP1 REVERT JUMPDEST PUSH1 0x0 CALLDATALOAD PUSH1 0xE0 SHR SWAP1 DUP2 PUSH4 0x3AAEE11 EQ PUSH2 0x71C JUMPI POP DUP1 PUSH4 0xB98CCA37 EQ PUSH2 0x8A JUMPI PUSH4 0xC45A0155 EQ PUSH2 0x40 JUMPI PUSH1 0x0 DUP1 REVERT JUMPDEST CALLVALUE PUSH2 0x85 JUMPI PUSH1 0x0 CALLDATASIZE PUSH1 0x3 NOT ADD SLT PUSH2 0x85 JUMPI PUSH1 0x40 MLOAD PUSH32 0x0 PUSH1 0x1 PUSH1 0x1 PUSH1 0xA0 SHL SUB AND DUP2 MSTORE PUSH1 0x20 SWAP1 RETURN JUMPDEST PUSH1 0x0 DUP1 REVERT JUMPDEST CALLVALUE PUSH2 0x85 JUMPI PUSH1 0x40 CALLDATASIZE PUSH1 0x3 NOT ADD SLT PUSH2 0x85 JUMPI PUSH1 0x40 MLOAD PUSH4 0x66A82A51 PUSH1 0xE0 SHL DUP2 MSTORE PUSH1 0x4 DUP1 CALLDATALOAD SWAP1 DUP3 ADD MSTORE PUSH1 0x24 DUP1 CALLDATALOAD DUP2 DUP4 ADD MSTORE SWAP1 PUSH1 0x0 DUP2 PUSH1 0x44 DUP2 PUSH32 0x0 PUSH1 0x1 PUSH1 0x1 PUSH1 0xA0 SHL SUB AND GAS STATICCALL SWAP1 DUP2 ISZERO PUSH2 0x3B0 JUMPI PUSH1 0x0 SWAP2 PUSH2 0x682 JUMPI JUMPDEST POP DUP1 MLOAD PUSH2 0x106 DUP2 PUSH2 0x851 JUMP JUMPDEST SWAP1 PUSH2 0x114 PUSH1 0x40 MLOAD SWAP3 DUP4 PUSH2 0x82F JUMP JUMPDEST DUP1 DUP3 MSTORE PUSH2 0x123 PUSH1 0x1F NOT SWAP2 PUSH2 0x851 JUMP JUMPDEST ADD PUSH1 0x0 JUMPDEST DUP2 DUP2 LT PUSH2 0x637 JUMPI POP POP PUSH1 0x0 JUMPDEST DUP3 MLOAD DUP2 LT ISZERO PUSH2 0x54E JUMPI PUSH1 0x1 PUSH1 0x1 PUSH1 0xA0 SHL SUB PUSH2 0x14E DUP3 DUP6 PUSH2 0x87D JUMP JUMPDEST MLOAD AND PUSH1 0x40 MLOAD PUSH4 0xDFE1681 PUSH1 0xE0 SHL SWAP2 DUP3 DUP3 MSTORE PUSH1 0x20 DUP3 PUSH1 0x4 DUP2 DUP5 GAS STATICCALL SWAP2 DUP3 ISZERO PUSH2 0x3B0 JUMPI PUSH1 0x0 SWAP3 PUSH2 0x512 JUMPI JUMPDEST POP PUSH1 0x40 MLOAD SWAP2 PUSH4 0xD21220A7 PUSH1 0xE0 SHL DUP1 DUP5 MSTORE PUSH1 0x20 DUP5 PUSH1 0x4 DUP2 DUP7 GAS STATICCALL SWAP4 DUP5 ISZERO PUSH2 0x3B0 JUMPI PUSH1 0x0 SWAP5 PUSH2 0x4D6 JUMPI JUMPDEST POP PUSH1 0x40 MLOAD SWAP5 DUP6 MSTORE PUSH1 0x20 DUP6 PUSH1 0x4 DUP2 DUP7 GAS STATICCALL SWAP5 DUP6 ISZERO PUSH2 0x3B0 JUMPI PUSH1 0x0 SWAP6 PUSH2 0x498 JUMPI JUMPDEST POP PUSH1 0x20 SWAP1 PUSH1 0x4 PUSH1 0x40 MLOAD DUP1 SWAP6 DUP2 SWAP4 DUP3 MSTORE GAS STATICCALL SWAP2 DUP3 ISZERO PUSH2 0x3B0 JUMPI PUSH1 0x0 SWAP3 PUSH2 0x45C JUMPI JUMPDEST POP PUSH1 0x40 MLOAD PUSH4 0x6FDDE03 PUSH1 0xE0 SHL DUP1 DUP3 MSTORE PUSH1 0x0 DUP3 PUSH1 0x4 DUP2 PUSH1 0x1 PUSH1 0x1 PUSH1 0xA0 SHL SUB DUP8 AND GAS STATICCALL SWAP2 DUP3 ISZERO PUSH2 0x3B0 JUMPI PUSH1 0x0 SWAP3 PUSH2 0x43F JUMPI JUMPDEST POP PUSH1 0x40 MLOAD SWAP1 DUP2 MSTORE PUSH1 0x0 DUP2 PUSH1 0x4 DUP2 PUSH1 0x1 PUSH1 0x1 PUSH1 0xA0 SHL SUB DUP10 AND GAS STATICCALL SWAP1 DUP2 ISZERO PUSH2 0x3B0 JUMPI PUSH1 0x0 SWAP2 PUSH2 0x424 JUMPI JUMPDEST POP PUSH1 0x40 MLOAD PUSH4 0x95D89B41 PUSH1 0xE0 SHL DUP2 MSTORE SWAP2 PUSH1 0x0 DUP4 PUSH1 0x4 DUP2 PUSH1 0x1 PUSH1 0x1 PUSH1 0xA0 SHL SUB DUP9 AND GAS STATICCALL SWAP3 DUP4 ISZERO PUSH2 0x3B0 JUMPI PUSH1 0x0 SWAP4 PUSH2 0x407 JUMPI JUMPDEST POP PUSH1 0x40 MLOAD PUSH4 0x95D89B41 PUSH1 0xE0 SHL DUP2 MSTORE SWAP5 PUSH1 0x0 DUP7 PUSH1 0x4 DUP2 PUSH1 0x1 PUSH1 0x1 PUSH1 0xA0 SHL SUB DUP12 AND GAS STATICCALL SWAP5 DUP6 ISZERO PUSH2 0x3B0 JUMPI PUSH1 0x4 SWAP7 PUSH1 0x0 SWAP7 PUSH2 0x3DF JUMPI JUMPDEST POP PUSH1 0x40 MLOAD PUSH4 0x313CE567 PUSH1 0xE0 SHL DUP2 MSTORE SWAP7 PUSH1 0x20 SWAP2 DUP9 SWAP2 SWAP1 DUP3 SWAP1 PUSH1 0x1 PUSH1 0x1 PUSH1 0xA0 SHL SUB AND GAS STATICCALL SWAP6 DUP7 ISZERO PUSH2 0x3B0 JUMPI PUSH1 0x0 SWAP7 PUSH2 0x3BC JUMPI JUMPDEST POP PUSH1 0x40 MLOAD PUSH4 0x313CE567 PUSH1 0xE0 SHL DUP2 MSTORE SWAP6 SWAP7 PUSH1 0x20 SWAP1 DUP8 SWAP1 PUSH1 0x4 SWAP1 DUP3 SWAP1 PUSH1 0x1 PUSH1 0x1 PUSH1 0xA0 SHL SUB AND GAS STATICCALL SWAP6 DUP7 ISZERO PUSH2 0x3B0 JUMPI PUSH1 0x0 SWAP7 PUSH2 0x37F JUMPI JUMPDEST POP PUSH1 0x40 MLOAD SWAP8 PUSH2 0x30C DUP10 PUSH2 0x7FC JUMP JUMPDEST PUSH1 0x1 PUSH1 0x1 PUSH1 0xA0 SHL SUB SWAP1 DUP2 AND DUP10 MSTORE AND PUSH1 0x20 DUP9 ADD MSTORE PUSH1 0x40 DUP8 ADD MSTORE PUSH1 0x60 DUP7 ADD MSTORE PUSH1 0x80 DUP6 ADD MSTORE PUSH1 0xA0 DUP5 ADD MSTORE PUSH1 0xFF SWAP2 DUP3 AND PUSH1 0xC0 DUP5 ADD MSTORE AND PUSH1 0xE0 DUP3 ADD MSTORE PUSH2 0x34D DUP3 DUP5 PUSH2 0x87D JUMP JUMPDEST MSTORE PUSH2 0x358 DUP2 DUP4 PUSH2 0x87D JUMP JUMPDEST POP PUSH1 0x0 NOT DUP2 EQ PUSH2 0x36A JUMPI PUSH1 0x1 ADD PUSH2 0x133 JUMP JUMPDEST DUP4 PUSH4 0x4E487B71 PUSH1 0xE0 SHL PUSH1 0x0 MSTORE PUSH1 0x11 PUSH1 0x4 MSTORE PUSH1 0x0 REVERT JUMPDEST PUSH2 0x3A2 SWAP2 SWAP7 POP PUSH1 0x20 RETURNDATASIZE PUSH1 0x20 GT PUSH2 0x3A9 JUMPI JUMPDEST PUSH2 0x39A DUP2 DUP4 PUSH2 0x82F JUMP JUMPDEST DUP2 ADD SWAP1 PUSH2 0x913 JUMP JUMPDEST SWAP5 DUP13 PUSH2 0x2FE JUMP JUMPDEST POP RETURNDATASIZE PUSH2 0x390 JUMP JUMPDEST PUSH1 0x40 MLOAD RETURNDATASIZE PUSH1 0x0 DUP3 RETURNDATACOPY RETURNDATASIZE SWAP1 REVERT JUMPDEST PUSH1 0x4 SWAP7 POP PUSH2 0x3D8 PUSH1 0x20 SWAP2 DUP3 RETURNDATASIZE DUP5 GT PUSH2 0x3A9 JUMPI PUSH2 0x39A DUP2 DUP4 PUSH2 0x82F JUMP JUMPDEST SWAP7 POP PUSH2 0x2CA JUMP JUMPDEST PUSH1 0x20 SWAP2 SWAP7 POP PUSH2 0x400 SWAP1 RETURNDATASIZE DUP1 PUSH1 0x0 DUP4 RETURNDATACOPY PUSH2 0x3F8 DUP2 DUP4 PUSH2 0x82F JUMP JUMPDEST DUP2 ADD SWAP1 PUSH2 0x8A7 JUMP JUMPDEST SWAP6 SWAP1 PUSH2 0x299 JUMP JUMPDEST PUSH2 0x41D SWAP2 SWAP4 POP RETURNDATASIZE DUP1 PUSH1 0x0 DUP4 RETURNDATACOPY PUSH2 0x3F8 DUP2 DUP4 PUSH2 0x82F JUMP JUMPDEST SWAP2 DUP12 PUSH2 0x266 JUMP JUMPDEST PUSH2 0x439 SWAP2 POP RETURNDATASIZE DUP1 PUSH1 0x0 DUP4 RETURNDATACOPY PUSH2 0x3F8 DUP2 DUP4 PUSH2 0x82F JUMP JUMPDEST DUP11 PUSH2 0x236 JUMP JUMPDEST PUSH2 0x455 SWAP2 SWAP3 POP RETURNDATASIZE DUP1 PUSH1 0x0 DUP4 RETURNDATACOPY PUSH2 0x3F8 DUP2 DUP4 PUSH2 0x82F JUMP JUMPDEST SWAP1 DUP11 PUSH2 0x20E JUMP JUMPDEST SWAP1 SWAP2 POP PUSH1 0x20 DUP2 RETURNDATASIZE PUSH1 0x20 GT PUSH2 0x490 JUMPI JUMPDEST DUP2 PUSH2 0x478 PUSH1 0x20 SWAP4 DUP4 PUSH2 0x82F JUMP JUMPDEST DUP2 ADD SUB SLT PUSH2 0x85 JUMPI PUSH2 0x489 SWAP1 PUSH2 0x869 JUMP JUMPDEST SWAP1 DUP9 PUSH2 0x1DE JUMP JUMPDEST RETURNDATASIZE SWAP2 POP PUSH2 0x46B JUMP JUMPDEST SWAP1 SWAP5 POP PUSH1 0x20 DUP2 RETURNDATASIZE PUSH1 0x20 GT PUSH2 0x4CE JUMPI JUMPDEST DUP2 PUSH2 0x4B4 PUSH1 0x20 SWAP4 DUP4 PUSH2 0x82F JUMP JUMPDEST DUP2 ADD SUB SLT PUSH2 0x85 JUMPI PUSH2 0x4C7 PUSH1 0x20 SWAP2 PUSH2 0x869 JUMP JUMPDEST SWAP5 SWAP1 PUSH2 0x1BE JUMP JUMPDEST RETURNDATASIZE SWAP2 POP PUSH2 0x4A7 JUMP JUMPDEST SWAP1 SWAP4 POP PUSH1 0x20 DUP2 RETURNDATASIZE PUSH1 0x20 GT PUSH2 0x50A JUMPI JUMPDEST DUP2 PUSH2 0x4F2 PUSH1 0x20 SWAP4 DUP4 PUSH2 0x82F JUMP JUMPDEST DUP2 ADD SUB SLT PUSH2 0x85 JUMPI PUSH2 0x503 SWAP1 PUSH2 0x869 JUMP JUMPDEST SWAP3 DUP10 PUSH2 0x19F JUMP JUMPDEST RETURNDATASIZE SWAP2 POP PUSH2 0x4E5 JUMP JUMPDEST SWAP1 SWAP2 POP PUSH1 0x20 DUP2 RETURNDATASIZE PUSH1 0x20 GT PUSH2 0x546 JUMPI JUMPDEST DUP2 PUSH2 0x52E PUSH1 0x20 SWAP4 DUP4 PUSH2 0x82F JUMP JUMPDEST DUP2 ADD SUB SLT PUSH2 0x85 JUMPI PUSH2 0x53F SWAP1 PUSH2 0x869 JUMP JUMPDEST SWAP1 DUP8 PUSH2 0x177 JUMP JUMPDEST RETURNDATASIZE SWAP2 POP PUSH2 0x521 JUMP JUMPDEST POP PUSH1 0x40 MLOAD PUSH1 0x20 SWAP2 DUP3 DUP3 ADD SWAP3 DUP1 DUP4 MSTORE DUP2 MLOAD DUP1 SWAP5 MSTORE PUSH1 0x40 DUP4 ADD SWAP4 DUP2 PUSH1 0x40 DUP3 PUSH1 0x5 SHL DUP7 ADD ADD SWAP4 ADD SWAP2 PUSH1 0x0 SWAP6 JUMPDEST DUP3 DUP8 LT PUSH2 0x584 JUMPI DUP6 DUP6 SUB DUP7 RETURN JUMPDEST SWAP1 SWAP2 SWAP3 SWAP4 DUP3 DUP1 PUSH1 0x1 SWAP3 PUSH1 0x3F NOT DUP10 DUP3 SUB ADD DUP6 MSTORE DUP8 MLOAD SWAP1 DUP5 DUP1 PUSH1 0xA0 SHL SUB DUP3 MLOAD AND DUP2 MSTORE DUP5 DUP1 PUSH1 0xA0 SHL SUB DUP4 DUP4 ADD MLOAD AND DUP4 DUP3 ADD MSTORE PUSH1 0xE0 PUSH2 0x610 PUSH2 0x5FD PUSH2 0x5EA PUSH2 0x5D7 PUSH1 0x40 DUP8 ADD MLOAD PUSH2 0x100 DUP1 PUSH1 0x40 DUP10 ADD MSTORE DUP8 ADD SWAP1 PUSH2 0x7D7 JUMP JUMPDEST PUSH1 0x60 DUP1 DUP9 ADD MLOAD SWAP1 DUP8 DUP4 SUB SWAP1 DUP9 ADD MSTORE PUSH2 0x7D7 JUMP JUMPDEST PUSH1 0x80 DUP1 DUP8 ADD MLOAD SWAP1 DUP7 DUP4 SUB SWAP1 DUP8 ADD MSTORE PUSH2 0x7D7 JUMP JUMPDEST PUSH1 0xA0 DUP1 DUP7 ADD MLOAD SWAP1 DUP6 DUP4 SUB SWAP1 DUP7 ADD MSTORE PUSH2 0x7D7 JUMP JUMPDEST SWAP3 DUP2 PUSH1 0xFF SWAP2 PUSH1 0xC0 DUP4 DUP2 DUP4 ADD MLOAD AND SWAP1 DUP7 ADD MSTORE ADD MLOAD AND SWAP2 ADD MSTORE SWAP7 ADD SWAP3 ADD SWAP7 ADD SWAP6 SWAP3 SWAP2 SWAP1 SWAP3 PUSH2 0x577 JUMP JUMPDEST PUSH1 0x20 SWAP1 PUSH1 0x40 MLOAD PUSH2 0x646 DUP2 PUSH2 0x7FC JUMP JUMPDEST PUSH1 0x0 DUP2 MSTORE DUP3 PUSH1 0x0 DUP2 DUP4 ADD MSTORE PUSH1 0x60 DUP1 PUSH1 0x40 DUP5 ADD MSTORE DUP1 DUP1 DUP5 ADD MSTORE DUP1 PUSH1 0x80 DUP5 ADD MSTORE PUSH1 0xA0 DUP4 ADD MSTORE PUSH1 0x0 PUSH1 0xC0 DUP4 ADD MSTORE PUSH1 0x0 PUSH1 0xE0 DUP4 ADD MSTORE DUP3 DUP7 ADD ADD MSTORE ADD PUSH2 0x127 JUMP JUMPDEST SWAP1 POP RETURNDATASIZE DUP1 PUSH1 0x0 DUP4 RETURNDATACOPY PUSH2 0x694 DUP2 DUP4 PUSH2 0x82F JUMP JUMPDEST DUP2 ADD SWAP1 PUSH1 0x20 SWAP1 DUP2 DUP2 DUP5 SUB SLT PUSH2 0x85 JUMPI DUP1 MLOAD SWAP1 PUSH8 0xFFFFFFFFFFFFFFFF DUP3 GT PUSH2 0x85 JUMPI ADD SWAP2 DUP1 PUSH1 0x1F DUP5 ADD SLT ISZERO PUSH2 0x85 JUMPI DUP3 MLOAD PUSH2 0x6CD DUP2 PUSH2 0x851 JUMP JUMPDEST SWAP4 PUSH2 0x6DB PUSH1 0x40 MLOAD SWAP6 DUP7 PUSH2 0x82F JUMP JUMPDEST DUP2 DUP6 MSTORE DUP4 DUP1 DUP7 ADD SWAP3 PUSH1 0x5 SHL DUP3 ADD ADD SWAP3 DUP4 GT PUSH2 0x85 JUMPI DUP4 ADD SWAP1 JUMPDEST DUP3 DUP3 LT PUSH2 0x705 JUMPI POP POP POP POP DUP3 PUSH2 0xFA JUMP JUMPDEST DUP4 DUP1 SWAP2 PUSH2 0x711 DUP5 PUSH2 0x869 JUMP JUMPDEST DUP2 MSTORE ADD SWAP2 ADD SWAP1 PUSH2 0x6F4 JUMP JUMPDEST CALLVALUE PUSH2 0x85 JUMPI PUSH1 0x0 CALLDATASIZE PUSH1 0x3 NOT ADD SLT PUSH2 0x85 JUMPI PUSH4 0x4C94C41 PUSH1 0xE3 SHL DUP2 MSTORE PUSH1 0x20 DUP2 PUSH1 0x4 DUP2 PUSH32 0x0 PUSH1 0x1 PUSH1 0x1 PUSH1 0xA0 SHL SUB AND GAS STATICCALL DUP1 ISZERO PUSH2 0x3B0 JUMPI PUSH1 0x0 SWAP1 PUSH2 0x782 JUMPI JUMPDEST PUSH1 0x20 SWAP1 PUSH1 0x40 MLOAD SWAP1 DUP2 MSTORE RETURN JUMPDEST POP PUSH1 0x20 DUP2 RETURNDATASIZE DUP3 GT PUSH2 0x7AC JUMPI JUMPDEST DUP2 PUSH2 0x79B PUSH1 0x20 SWAP4 DUP4 PUSH2 0x82F JUMP JUMPDEST DUP2 ADD SUB SLT PUSH2 0x85 JUMPI PUSH1 0x20 SWAP1 MLOAD PUSH2 0x777 JUMP JUMPDEST RETURNDATASIZE SWAP2 POP PUSH2 0x78E JUMP JUMPDEST PUSH1 0x0 JUMPDEST DUP4 DUP2 LT PUSH2 0x7C7 JUMPI POP POP PUSH1 0x0 SWAP2 ADD MSTORE JUMP JUMPDEST DUP2 DUP2 ADD MLOAD DUP4 DUP3 ADD MSTORE PUSH1 0x20 ADD PUSH2 0x7B7 JUMP JUMPDEST SWAP1 PUSH1 0x20 SWAP2 PUSH2 0x7F0 DUP2 MLOAD DUP1 SWAP3 DUP2 DUP6 MSTORE DUP6 DUP1 DUP7 ADD SWAP2 ADD PUSH2 0x7B4 JUMP JUMPDEST PUSH1 0x1F ADD PUSH1 0x1F NOT AND ADD ADD SWAP1 JUMP JUMPDEST PUSH2 0x100 DUP2 ADD SWAP1 DUP2 LT PUSH8 0xFFFFFFFFFFFFFFFF DUP3 GT OR PUSH2 0x819 JUMPI PUSH1 0x40 MSTORE JUMP JUMPDEST PUSH4 0x4E487B71 PUSH1 0xE0 SHL PUSH1 0x0 MSTORE PUSH1 0x41 PUSH1 0x4 MSTORE PUSH1 0x24 PUSH1 0x0 REVERT JUMPDEST SWAP1 PUSH1 0x1F DUP1 NOT SWAP2 ADD AND DUP2 ADD SWAP1 DUP2 LT PUSH8 0xFFFFFFFFFFFFFFFF DUP3 GT OR PUSH2 0x819 JUMPI PUSH1 0x40 MSTORE JUMP JUMPDEST PUSH8 0xFFFFFFFFFFFFFFFF DUP2 GT PUSH2 0x819 JUMPI PUSH1 0x5 SHL PUSH1 0x20 ADD SWAP1 JUMP JUMPDEST MLOAD SWAP1 PUSH1 0x1 PUSH1 0x1 PUSH1 0xA0 SHL SUB DUP3 AND DUP3 SUB PUSH2 0x85 JUMPI JUMP JUMPDEST DUP1 MLOAD DUP3 LT ISZERO PUSH2 0x891 JUMPI PUSH1 0x20 SWAP2 PUSH1 0x5 SHL ADD ADD SWAP1 JUMP JUMPDEST PUSH4 0x4E487B71 PUSH1 0xE0 SHL PUSH1 0x0 MSTORE PUSH1 0x32 PUSH1 0x4 MSTORE PUSH1 0x24 PUSH1 0x0 REVERT JUMPDEST PUSH1 0x20 DUP2 DUP4 SUB SLT PUSH2 0x85 JUMPI DUP1 MLOAD PUSH8 0xFFFFFFFFFFFFFFFF SWAP2 DUP3 DUP3 GT PUSH2 0x85 JUMPI ADD SWAP1 DUP3 PUSH1 0x1F DUP4 ADD SLT ISZERO PUSH2 0x85 JUMPI DUP2 MLOAD SWAP1 DUP2 GT PUSH2 0x819 JUMPI PUSH1 0x40 MLOAD SWAP3 PUSH2 0x8F2 PUSH1 0x1F DUP4 ADD PUSH1 0x1F NOT AND PUSH1 0x20 ADD DUP6 PUSH2 0x82F JUMP JUMPDEST DUP2 DUP5 MSTORE PUSH1 0x20 DUP3 DUP5 ADD ADD GT PUSH2 0x85 JUMPI PUSH2 0x910 SWAP2 PUSH1 0x20 DUP1 DUP6 ADD SWAP2 ADD PUSH2 0x7B4 JUMP JUMPDEST SWAP1 JUMP JUMPDEST SWAP1 DUP2 PUSH1 0x20 SWAP2 SUB SLT PUSH2 0x85 JUMPI MLOAD PUSH1 0xFF DUP2 AND DUP2 SUB PUSH2 0x85 JUMPI SWAP1 JUMP INVALID LOG2 PUSH5 0x6970667358 0x22 SLT KECCAK256 0xD6 PUSH6 0x11907647DB7D EXTCODEHASH DUP8 ADD 0xD2 EXP CALLDATASIZE 0xCE SUB 0x2E BASEFEE EXP AND 0x4D 0x25 SLT 0xB9 XOR 0xE3 EXP CALLCODE 0xEB 0xCD PUSH29 0xD264736F6C634300081300330000000000000000000000000000000000 "
        },
        "methodIdentifiers": {
          "factory()": "c45a0155",
          "getNumVaults()": "03aaee11",
          "getVaults(uint256,uint256)": "b98cca37"
        }
      }
    }
  }
}