{
  "contracts/core/merge/DynamicEater.sol": {
    "DynamicEater": {
      "abi": [
        {
          "inputs": [
            {
              "internalType": "address",
              "name": "_wewe",
              "type": "address"
            },
            {
              "internalType": "address",
              "name": "_vult",
              "type": "address"
            },
            {
              "internalType": "uint32",
              "name": "_vestingDuration",
              "type": "uint32"
            },
            {
              "internalType": "uint256",
              "name": "_maxSupply",
              "type": "uint256"
            }
          ],
          "stateMutability": "nonpayable",
          "type": "constructor"
        },
        {
          "anonymous": false,
          "inputs": [
            {
              "indexed": false,
              "internalType": "uint256",
              "name": "amount",
              "type": "uint256"
            },
            {
              "indexed": true,
              "internalType": "address",
              "name": "account",
              "type": "address"
            }
          ],
          "name": "Merged",
          "type": "event"
        },
        {
          "anonymous": false,
          "inputs": [
            {
              "indexed": true,
              "internalType": "address",
              "name": "previousOwner",
              "type": "address"
            },
            {
              "indexed": true,
              "internalType": "address",
              "name": "newOwner",
              "type": "address"
            }
          ],
          "name": "OwnershipTransferred",
          "type": "event"
        },
        {
          "anonymous": false,
          "inputs": [
            {
              "indexed": false,
              "internalType": "address",
              "name": "account",
              "type": "address"
            }
          ],
          "name": "Paused",
          "type": "event"
        },
        {
          "anonymous": false,
          "inputs": [
            {
              "indexed": false,
              "internalType": "uint256",
              "name": "newRate",
              "type": "uint256"
            }
          ],
          "name": "RateChanged",
          "type": "event"
        },
        {
          "anonymous": false,
          "inputs": [
            {
              "indexed": false,
              "internalType": "address",
              "name": "account",
              "type": "address"
            }
          ],
          "name": "Unpaused",
          "type": "event"
        },
        {
          "inputs": [
            {
              "internalType": "address",
              "name": "account",
              "type": "address"
            }
          ],
          "name": "balanceOf",
          "outputs": [
            {
              "internalType": "uint256",
              "name": "",
              "type": "uint256"
            }
          ],
          "stateMutability": "view",
          "type": "function"
        },
        {
          "inputs": [
            {
              "internalType": "address",
              "name": "account",
              "type": "address"
            }
          ],
          "name": "canClaim",
          "outputs": [
            {
              "internalType": "bool",
              "name": "",
              "type": "bool"
            }
          ],
          "stateMutability": "view",
          "type": "function"
        },
        {
          "inputs": [],
          "name": "claim",
          "outputs": [],
          "stateMutability": "nonpayable",
          "type": "function"
        },
        {
          "inputs": [
            {
              "internalType": "uint256",
              "name": "amount",
              "type": "uint256"
            }
          ],
          "name": "deposit",
          "outputs": [],
          "stateMutability": "nonpayable",
          "type": "function"
        },
        {
          "inputs": [],
          "name": "depositRequired",
          "outputs": [],
          "stateMutability": "nonpayable",
          "type": "function"
        },
        {
          "inputs": [],
          "name": "getRate",
          "outputs": [
            {
              "internalType": "uint256",
              "name": "",
              "type": "uint256"
            }
          ],
          "stateMutability": "view",
          "type": "function"
        },
        {
          "inputs": [
            {
              "internalType": "uint256",
              "name": "mergeAmount",
              "type": "uint256"
            }
          ],
          "name": "getScalar",
          "outputs": [
            {
              "internalType": "uint256",
              "name": "",
              "type": "uint256"
            }
          ],
          "stateMutability": "pure",
          "type": "function"
        },
        {
          "inputs": [],
          "name": "getToken",
          "outputs": [
            {
              "internalType": "address",
              "name": "",
              "type": "address"
            }
          ],
          "stateMutability": "view",
          "type": "function"
        },
        {
          "inputs": [
            {
              "internalType": "uint256",
              "name": "mergeAmount",
              "type": "uint256"
            }
          ],
          "name": "getTotalWeWe",
          "outputs": [
            {
              "internalType": "uint256",
              "name": "",
              "type": "uint256"
            }
          ],
          "stateMutability": "view",
          "type": "function"
        },
        {
          "inputs": [],
          "name": "maxRate",
          "outputs": [
            {
              "internalType": "int256",
              "name": "",
              "type": "int256"
            }
          ],
          "stateMutability": "view",
          "type": "function"
        },
        {
          "inputs": [],
          "name": "maxSupply",
          "outputs": [
            {
              "internalType": "uint256",
              "name": "",
              "type": "uint256"
            }
          ],
          "stateMutability": "view",
          "type": "function"
        },
        {
          "inputs": [
            {
              "internalType": "uint256",
              "name": "amount",
              "type": "uint256"
            }
          ],
          "name": "merge",
          "outputs": [],
          "stateMutability": "nonpayable",
          "type": "function"
        },
        {
          "inputs": [
            {
              "internalType": "uint256",
              "name": "amount",
              "type": "uint256"
            },
            {
              "internalType": "contract IAMM",
              "name": "amm",
              "type": "address"
            },
            {
              "internalType": "bytes",
              "name": "extraData",
              "type": "bytes"
            }
          ],
          "name": "mergeAndSell",
          "outputs": [],
          "stateMutability": "nonpayable",
          "type": "function"
        },
        {
          "inputs": [],
          "name": "minRate",
          "outputs": [
            {
              "internalType": "int256",
              "name": "",
              "type": "int256"
            }
          ],
          "stateMutability": "view",
          "type": "function"
        },
        {
          "inputs": [],
          "name": "owner",
          "outputs": [
            {
              "internalType": "address",
              "name": "",
              "type": "address"
            }
          ],
          "stateMutability": "view",
          "type": "function"
        },
        {
          "inputs": [],
          "name": "paused",
          "outputs": [
            {
              "internalType": "bool",
              "name": "",
              "type": "bool"
            }
          ],
          "stateMutability": "view",
          "type": "function"
        },
        {
          "inputs": [],
          "name": "ratio",
          "outputs": [
            {
              "internalType": "uint256",
              "name": "",
              "type": "uint256"
            }
          ],
          "stateMutability": "view",
          "type": "function"
        },
        {
          "inputs": [
            {
              "internalType": "address",
              "name": "from",
              "type": "address"
            },
            {
              "internalType": "uint256",
              "name": "amount",
              "type": "uint256"
            },
            {
              "internalType": "address",
              "name": "",
              "type": "address"
            },
            {
              "internalType": "bytes",
              "name": "",
              "type": "bytes"
            }
          ],
          "name": "receiveApproval",
          "outputs": [],
          "stateMutability": "nonpayable",
          "type": "function"
        },
        {
          "inputs": [],
          "name": "renounceOwnership",
          "outputs": [],
          "stateMutability": "nonpayable",
          "type": "function"
        },
        {
          "inputs": [
            {
              "internalType": "uint256",
              "name": "_maxSupply",
              "type": "uint256"
            }
          ],
          "name": "setMaxSupply",
          "outputs": [],
          "stateMutability": "nonpayable",
          "type": "function"
        },
        {
          "inputs": [
            {
              "internalType": "address",
              "name": "_treasury",
              "type": "address"
            }
          ],
          "name": "setTreasury",
          "outputs": [],
          "stateMutability": "nonpayable",
          "type": "function"
        },
        {
          "inputs": [
            {
              "internalType": "uint32",
              "name": "duration",
              "type": "uint32"
            }
          ],
          "name": "setVestingDuration",
          "outputs": [],
          "stateMutability": "nonpayable",
          "type": "function"
        },
        {
          "inputs": [
            {
              "internalType": "address",
              "name": "account",
              "type": "address"
            }
          ],
          "name": "setWhiteList",
          "outputs": [],
          "stateMutability": "nonpayable",
          "type": "function"
        },
        {
          "inputs": [],
          "name": "slope",
          "outputs": [
            {
              "internalType": "int256",
              "name": "",
              "type": "int256"
            }
          ],
          "stateMutability": "view",
          "type": "function"
        },
        {
          "inputs": [],
          "name": "sweep",
          "outputs": [],
          "stateMutability": "nonpayable",
          "type": "function"
        },
        {
          "inputs": [],
          "name": "togglePause",
          "outputs": [],
          "stateMutability": "nonpayable",
          "type": "function"
        },
        {
          "inputs": [],
          "name": "totalVested",
          "outputs": [
            {
              "internalType": "uint256",
              "name": "",
              "type": "uint256"
            }
          ],
          "stateMutability": "view",
          "type": "function"
        },
        {
          "inputs": [
            {
              "internalType": "address",
              "name": "newOwner",
              "type": "address"
            }
          ],
          "name": "transferOwnership",
          "outputs": [],
          "stateMutability": "nonpayable",
          "type": "function"
        },
        {
          "inputs": [],
          "name": "treasury",
          "outputs": [
            {
              "internalType": "address",
              "name": "",
              "type": "address"
            }
          ],
          "stateMutability": "view",
          "type": "function"
        },
        {
          "inputs": [],
          "name": "vestingDuration",
          "outputs": [
            {
              "internalType": "uint32",
              "name": "",
              "type": "uint32"
            }
          ],
          "stateMutability": "view",
          "type": "function"
        },
        {
          "inputs": [
            {
              "internalType": "address",
              "name": "",
              "type": "address"
            }
          ],
          "name": "vestings",
          "outputs": [
            {
              "internalType": "uint256",
              "name": "amount",
              "type": "uint256"
            },
            {
              "internalType": "uint256",
              "name": "end",
              "type": "uint256"
            }
          ],
          "stateMutability": "view",
          "type": "function"
        },
        {
          "inputs": [],
          "name": "wewe",
          "outputs": [
            {
              "internalType": "address",
              "name": "",
              "type": "address"
            }
          ],
          "stateMutability": "view",
          "type": "function"
        },
        {
          "inputs": [
            {
              "internalType": "address",
              "name": "",
              "type": "address"
            }
          ],
          "name": "whiteList",
          "outputs": [
            {
              "internalType": "bool",
              "name": "",
              "type": "bool"
            }
          ],
          "stateMutability": "view",
          "type": "function"
        }
      ],
      "evm": {
        "bytecode": {
          "linkReferences": {},
          "object": "60803461010957601f6117d938819003918201601f19168301916001600160401b0383118484101761010e578084926080946040528339810103126101095761004781610124565b61005360208301610124565b9160408101519063ffffffff82168092036101095760600151916001600055600154610100600160a81b033360081b1660018060a81b03198216176001556040519460018060a01b039182339160081c167f8be0079c531659141344cd1fd0a4f28419497f9722a3daafe3b4186f6b6457e0600080a360836009558160018060a01b031993168360035416176003551690600254161760025563ffffffff1960085416176008556007556116a090816101398239f35b600080fd5b634e487b7160e01b600052604160045260246000fd5b51906001600160a01b03821682036101095756fe6080604081815260048036101561001557600080fd5b600092833560e01c9081630cb6044314610e0e575080631514617e14610de9578063199cbc5414610dca57838163213897fe14610bb95750806321df0da714610b9057806324a47aeb14610ae55780632a9605f414610a8a57806335faa4161461091a578063372c12b1146108dc57806339e899ee146108995780634e71d92d146108025780635394aa3f146107e25780635c975abb146107be57806361d027b314610797578063679aefce146107565780636f8b44b01461073457806370a08231146106fc578063715018a61461069b57806371ca337d1461067c57806383caf2751461060c5780638769f9f9146105e25780638da5cb5b146105b55780638f4ffcb1146104dd5780639636d881146104a2578063b6b55f251461047a578063bf3506c11461043b578063c4ae316814610358578063d5abeb0114610339578063daf49863146102f7578063e1f26f22146102ce578063ece1d6e5146102b0578063f0f442601461026b5763f2fde38b1461019057600080fd5b34610267576020366003190112610267576101a9610e5d565b6101b1610e73565b6001600160a01b0381811693909290841561021557505060018054610100600160a81b03198116600893841b610100600160a81b031617909155901c167f8be0079c531659141344cd1fd0a4f28419497f9722a3daafe3b4186f6b6457e08380a380f35b906020608492519162461bcd60e51b8352820152602660248201527f4f776e61626c653a206e6577206f776e657220697320746865207a65726f206160448201526564647265737360d01b6064820152fd5b8280fd5b8382346102ac5760203660031901126102ac57610286610e5d565b61028e610e73565b81546001600160a01b0319166001600160a01b039190911617905580f35b5080fd5b5050346102ac57816003193601126102ac57602090516201d4c08152f35b5050346102ac57816003193601126102ac5760035490516001600160a01b039091168152602090f35b5050346102ac5760203660031901126102ac579081906001600160a01b0361031d610e5d565b168152600a602052206001815491015482519182526020820152f35b5050346102ac57816003193601126102ac576020906007549051908152f35b5034610267578260031936011261026757610371610e73565b60015460ff8116156103fa57506001549060ff8216156103c0575060ff1916600155513381527f5db9ee0a495bf2e6ff9c91a7834c1ba4fdd244a5e8aa4e537bd38aeae4b073aa90602090a180f35b606490602084519162461bcd60e51b8352820152601460248201527314185d5cd8589b194e881b9bdd081c185d5cd95960621b6044820152fd5b602091509160017f62e78cea01bee320cd4e420270b5ea74000d11b0c9f74754ebdbfc544b05a2589361042b61121f565b60ff19161760015551338152a180f35b5050346102ac5760203660031901126102ac5760209160019082906001600160a01b03610466610e5d565b168152600a85522001549051904210158152f35b8382346102ac5760203660031901126102ac5761049f90610499610e73565b3561162b565b80f35b8382346102ac5760203660031901126102ac573563ffffffff81168091036102ac576104cc610e73565b63ffffffff19600854161760085580f35b508290346102ac5760803660031901126102ac576104f9610e5d565b906001600160a01b03604435818116036105b15760643567ffffffffffffffff81116105ad5761052c9036908401610e2a565b5050610536611263565b61053e61121f565b6002541690811561055e575090610557916024356112b9565b6001815580f35b608490602086519162461bcd60e51b8352820152602360248201527f44796e616d696345617465723a20546f6b656e2061646472657373206e6f74206044820152621cd95d60ea1b6064820152fd5b8480fd5b8380fd5b5050346102ac57816003193601126102ac57600154905160089190911c6001600160a01b03168152602090f35b509134610609576020366003190112610609575061060260209235610f54565b9051908152f35b80fd5b509190346102ac57816003193601126102ac57670de0b6b3a76400006007540580156106695762011170059161271092838102938185051490151715610656576020838351908152f35b634e487b7160e01b815260118452602490fd5b634e487b7160e01b835260128452602483fd5b5050346102ac57816003193601126102ac576020906009549051908152f35b83346106095780600319360112610609576106b4610e73565b60018054610100600160a81b03198116909155819060081c6001600160a01b03167f8be0079c531659141344cd1fd0a4f28419497f9722a3daafe3b4186f6b6457e08280a380f35b5050346102ac5760203660031901126102ac5760209181906001600160a01b03610724610e5d565b168152600a845220549051908152f35b8382346102ac5760203660031901126102ac5761074f610e73565b3560075580f35b509134610609578060031936011261060957600554600181019182821161078457602084610602858561108d565b634e487b7160e01b815260118552602490fd5b50346102675782600319360112610267575490516001600160a01b03909116815260209150f35b5050346102ac57816003193601126102ac5760209060ff6001541690519015158152f35b509134610609576020366003190112610609575061060260209235610f86565b50903461026757826003193601126102675761081c61121f565b63ffffffff600854161561088c575b338352600a602052600181842001544210610849578261049f6115aa565b906020606492519162461bcd60e51b8352820152601f60248201527f44796e616d696345617465723a2056657374696e67206e6f7420656e646564006044820152fd5b6108946115aa565b61082b565b5050346102ac5760203660031901126102ac576108b4610e5d565b6108bc610e73565b6001600160a01b03168252600b6020528120805460ff1916600117905580f35b5050346102ac5760203660031901126102ac5760209160ff9082906001600160a01b03610907610e5d565b168152600b855220541690519015158152f35b509190346102ac57816003193601126102ac57610935610e73565b60035481516370a0823160e01b8152308582015293602092916001600160a01b0390811691908487602481865afa968715610a80578697610a4d575b508615610a0057600154845163a9059cbb60e01b81526001600160a01b0360089290921c90921616918101918252602082018790529291849184919082908890829060400103925af19081156109f757506109ca578280f35b816109e992903d106109f0575b6109e18183611171565b810190611207565b5081808280f35b503d6109d7565b513d85823e3d90fd5b835162461bcd60e51b8152808301869052602160248201527f44796e616d696345617465723a204e6f2062616c616e636520746f20737765656044820152600760fc1b6064820152608490fd5b9096508481813d8311610a79575b610a658183611171565b81010312610a7557519538610971565b8580fd5b503d610a5b565b84513d88823e3d90fd5b8382346102ac57816003193601126102ac57610aa4610e73565b60075460055491828203918211610ad2575081610ac7610acd9261049f94610f34565b9061108d565b61162b565b634e487b7160e01b845260119052602483fd5b503461026757602036600319011261026757803590610b0261121f565b60025483516370a0823160e01b815233928101929092526001600160a01b031690602081602481855afa938415610b8757508493610b52575b50610b4b8261049f9410156111a9565b33916112b9565b92506020833d8211610b7f575b81610b6c60209383611171565b810103126105b157915191610b4b610b3b565b3d9150610b5f565b513d86823e3d90fd5b5050346102ac57816003193601126102ac5760025490516001600160a01b039091168152602090f35b92905034610dc6576060366003190112610dc6576001600160a01b0360243581811690843590829003610a755760443567ffffffffffffffff8111610dc257610c059036908701610e2a565b969095610c10611263565b610c1861121f565b60025486516370a0823160e01b81523383820152602099918716908a81602481855afa908115610db857908692918691610d83575b50610c6592610c5d9110156111a9565b3390866112b9565b600254875163095ea7b360e01b81526001600160a01b0387168482019081526020810187905290918b9183918a169082908890829060400103925af18015610d7957918a97969594939160a493610d5c575b5080878354168015600014610d565750309a5b8860025416988b519c8d9a8b998a976302454b7160e41b8952880152602487015216604485015260806064850152816084850152848401378181018301849052601f01601f191681010301925af19081156109f75750610d2d575b826001815580f35b813d8311610d4f575b610d408183611171565b81010312610609573880610d25565b503d610d36565b9a610cca565b610d7290893d8b116109f0576109e18183611171565b5038610cb7565b88513d86823e3d90fd5b8093508c8092503d8311610db1575b610d9c8183611171565b810103126105ad579051859190610c65610c4d565b503d610d92565b89513d87823e3d90fd5b8680fd5b5050fd5b5050346102ac57816003193601126102ac576020906005549051908152f35b5050346102ac57816003193601126102ac5760209063ffffffff600854169051908152f35b8490346102ac57816003193601126102ac578061c35060209252f35b9181601f84011215610e585782359167ffffffffffffffff8311610e585760208381860195010111610e5857565b600080fd5b600435906001600160a01b0382168203610e5857565b60015460081c6001600160a01b03163303610e8a57565b606460405162461bcd60e51b815260206004820152602060248201527f4f776e61626c653a2063616c6c6572206973206e6f7420746865206f776e65726044820152fd5b90620186a091828102928184051490151715610ee657565b634e487b7160e01b600052601160045260246000fd5b906402cb4178009180830292830503610ee657565b818102929160008212600160ff1b821416610ee6578184051490151715610ee657565b91908201809211610ee657565b81810292918115918404141715610ee657565b670de0b6b3a76400009004606481029080820460641490151715610ee65761217b612ee091048103908111610ee65790565b6064610faa61271092610fa5610f9b82610f54565b9160095490610f41565b610f41565b040490565b600090801561106d5780806001146110655760021461105d576001918261013383101683600b8410161761104d5760028392935b80821161101057505082600019048211610ffc57500290565b634e487b7160e01b81526011600452602490fd5b90938060001904811161103957818516611030575b800293811c90610fe3565b80930292611025565b634e487b7160e01b83526011600452602483fd5b929150600283910a92610ffc5750565b509060049150565b505050600190565b5090565b91909160008382019384129112908015821691151617610ee657565b600754908115611169576110d56110cf60026110c96110db6110eb966201116f1905976110d56110cf856110c96110c385610faf565b8d610f11565b05610ece565b91610efc565b90611071565b966110e586610faf565b90610f11565b9060008282039212818312811691831390151617610ee6576000811261110e5790565b60405162461bcd60e51b815260206004820152602d60248201527f417265612063616c63756c6174696f6e20726573756c74656420696e2061206e60448201526c656761746976652076616c756560981b6064820152608490fd5b505050600090565b90601f8019910116810190811067ffffffffffffffff82111761119357604052565b634e487b7160e01b600052604160045260246000fd5b156111b057565b60405162461bcd60e51b815260206004820152602960248201527f44796e616d696345617465723a20496e73756666696369656e742062616c616e60448201526818d9481d1bc819585d60ba1b6064820152608490fd5b90816020910312610e5857518015158103610e585790565b60ff6001541661122b57565b60405162461bcd60e51b815260206004820152601060248201526f14185d5cd8589b194e881c185d5cd95960821b6044820152606490fd5b600260005414611274576002600055565b60405162461bcd60e51b815260206004820152601f60248201527f5265656e7472616e637947756172643a207265656e7472616e742063616c6c006044820152606490fd5b909291926112d16112cc83600554610f34565b610f86565b9360018060a01b039081600354166040908151946370a0823160e01b86528560049230848301528160246020998a935afa90811561159f57600091611572575b5089116115135782516323b872dd60e01b81526001600160a01b03851683820190815230602082015260408101899052909187918391908290036060019082906000908a165af18015611508576114eb575b5060085463ffffffff908116156114505784841680600052600a875261138d84600020548b610f34565b91603c81600854160290811690810361143b576113aa9042610f34565b918451938585019085821067ffffffffffffffff83111761142657509261141994926001927fadc41ba80ffa0859aab1d7cf405a6633a6af94fc3d10e5b0e0bf46cdcc0fd9c89b9c9d9588528452898401918252600052600a8952856000209251835551910155600554610f34565b6005555b519485521692a2565b604190634e487b7160e01b6000525260246000fd5b601184634e487b7160e01b6000525260246000fd5b50600354825163a9059cbb60e01b81526001600160a01b0385169281019283526020830199909952859189918616908290600090829060400103925af19687156114e0577fadc41ba80ffa0859aab1d7cf405a6633a6af94fc3d10e5b0e0bf46cdcc0fd9c89596976114c3575b5061141d565b6114d990853d87116109f0576109e18183611171565b50386114bd565b50513d6000823e3d90fd5b61150190863d88116109f0576109e18183611171565b5038611363565b83513d6000823e3d90fd5b5084608492519162461bcd60e51b8352820152603460248201527f44796e616d696345617465723a20496e73756666696369656e7420746f6b656e604482015273103130b630b731b2903a37903a3930b739b332b960611b6064820152fd5b908782813d8311611598575b6115888183611171565b8101031261060957505138611311565b503d61157e565b84513d6000823e3d90fd5b336000818152600a60209081526040808320805490849055600354915163a9059cbb60e01b815260048101959095526024850152909183916001600160a01b031690829081604481015b03925af1801561161f576116055750565b61161c9060203d81116109f0576109e18183611171565b50565b6040513d6000823e3d90fd5b6003546040516323b872dd60e01b8152336004820152306024820152604481019290925260209082906001600160a01b031681600081606481016115f456fea264697066735822122005aafb5773894a3e1575fbda35e36376443980f01c6be0d273cb2264d911b16c64736f6c63430008130033",
          "opcodes": "PUSH1 0x80 CALLVALUE PUSH2 0x109 JUMPI PUSH1 0x1F PUSH2 0x17D9 CODESIZE DUP2 SWAP1 SUB SWAP2 DUP3 ADD PUSH1 0x1F NOT AND DUP4 ADD SWAP2 PUSH1 0x1 PUSH1 0x1 PUSH1 0x40 SHL SUB DUP4 GT DUP5 DUP5 LT OR PUSH2 0x10E JUMPI DUP1 DUP5 SWAP3 PUSH1 0x80 SWAP5 PUSH1 0x40 MSTORE DUP4 CODECOPY DUP2 ADD SUB SLT PUSH2 0x109 JUMPI PUSH2 0x47 DUP2 PUSH2 0x124 JUMP JUMPDEST PUSH2 0x53 PUSH1 0x20 DUP4 ADD PUSH2 0x124 JUMP JUMPDEST SWAP2 PUSH1 0x40 DUP2 ADD MLOAD SWAP1 PUSH4 0xFFFFFFFF DUP3 AND DUP1 SWAP3 SUB PUSH2 0x109 JUMPI PUSH1 0x60 ADD MLOAD SWAP2 PUSH1 0x1 PUSH1 0x0 SSTORE PUSH1 0x1 SLOAD PUSH2 0x100 PUSH1 0x1 PUSH1 0xA8 SHL SUB CALLER PUSH1 0x8 SHL AND PUSH1 0x1 DUP1 PUSH1 0xA8 SHL SUB NOT DUP3 AND OR PUSH1 0x1 SSTORE PUSH1 0x40 MLOAD SWAP5 PUSH1 0x1 DUP1 PUSH1 0xA0 SHL SUB SWAP2 DUP3 CALLER SWAP2 PUSH1 0x8 SHR AND PUSH32 0x8BE0079C531659141344CD1FD0A4F28419497F9722A3DAAFE3B4186F6B6457E0 PUSH1 0x0 DUP1 LOG3 PUSH1 0x83 PUSH1 0x9 SSTORE DUP2 PUSH1 0x1 DUP1 PUSH1 0xA0 SHL SUB NOT SWAP4 AND DUP4 PUSH1 0x3 SLOAD AND OR PUSH1 0x3 SSTORE AND SWAP1 PUSH1 0x2 SLOAD AND OR PUSH1 0x2 SSTORE PUSH4 0xFFFFFFFF NOT PUSH1 0x8 SLOAD AND OR PUSH1 0x8 SSTORE PUSH1 0x7 SSTORE PUSH2 0x16A0 SWAP1 DUP2 PUSH2 0x139 DUP3 CODECOPY RETURN JUMPDEST PUSH1 0x0 DUP1 REVERT JUMPDEST PUSH4 0x4E487B71 PUSH1 0xE0 SHL PUSH1 0x0 MSTORE PUSH1 0x41 PUSH1 0x4 MSTORE PUSH1 0x24 PUSH1 0x0 REVERT JUMPDEST MLOAD SWAP1 PUSH1 0x1 PUSH1 0x1 PUSH1 0xA0 SHL SUB DUP3 AND DUP3 SUB PUSH2 0x109 JUMPI JUMP INVALID PUSH1 0x80 PUSH1 0x40 DUP2 DUP2 MSTORE PUSH1 0x4 DUP1 CALLDATASIZE LT ISZERO PUSH2 0x15 JUMPI PUSH1 0x0 DUP1 REVERT JUMPDEST PUSH1 0x0 SWAP3 DUP4 CALLDATALOAD PUSH1 0xE0 SHR SWAP1 DUP2 PUSH4 0xCB60443 EQ PUSH2 0xE0E JUMPI POP DUP1 PUSH4 0x1514617E EQ PUSH2 0xDE9 JUMPI DUP1 PUSH4 0x199CBC54 EQ PUSH2 0xDCA JUMPI DUP4 DUP2 PUSH4 0x213897FE EQ PUSH2 0xBB9 JUMPI POP DUP1 PUSH4 0x21DF0DA7 EQ PUSH2 0xB90 JUMPI DUP1 PUSH4 0x24A47AEB EQ PUSH2 0xAE5 JUMPI DUP1 PUSH4 0x2A9605F4 EQ PUSH2 0xA8A JUMPI DUP1 PUSH4 0x35FAA416 EQ PUSH2 0x91A JUMPI DUP1 PUSH4 0x372C12B1 EQ PUSH2 0x8DC JUMPI DUP1 PUSH4 0x39E899EE EQ PUSH2 0x899 JUMPI DUP1 PUSH4 0x4E71D92D EQ PUSH2 0x802 JUMPI DUP1 PUSH4 0x5394AA3F EQ PUSH2 0x7E2 JUMPI DUP1 PUSH4 0x5C975ABB EQ PUSH2 0x7BE JUMPI DUP1 PUSH4 0x61D027B3 EQ PUSH2 0x797 JUMPI DUP1 PUSH4 0x679AEFCE EQ PUSH2 0x756 JUMPI DUP1 PUSH4 0x6F8B44B0 EQ PUSH2 0x734 JUMPI DUP1 PUSH4 0x70A08231 EQ PUSH2 0x6FC JUMPI DUP1 PUSH4 0x715018A6 EQ PUSH2 0x69B JUMPI DUP1 PUSH4 0x71CA337D EQ PUSH2 0x67C JUMPI DUP1 PUSH4 0x83CAF275 EQ PUSH2 0x60C JUMPI DUP1 PUSH4 0x8769F9F9 EQ PUSH2 0x5E2 JUMPI DUP1 PUSH4 0x8DA5CB5B EQ PUSH2 0x5B5 JUMPI DUP1 PUSH4 0x8F4FFCB1 EQ PUSH2 0x4DD JUMPI DUP1 PUSH4 0x9636D881 EQ PUSH2 0x4A2 JUMPI DUP1 PUSH4 0xB6B55F25 EQ PUSH2 0x47A JUMPI DUP1 PUSH4 0xBF3506C1 EQ PUSH2 0x43B JUMPI DUP1 PUSH4 0xC4AE3168 EQ PUSH2 0x358 JUMPI DUP1 PUSH4 0xD5ABEB01 EQ PUSH2 0x339 JUMPI DUP1 PUSH4 0xDAF49863 EQ PUSH2 0x2F7 JUMPI DUP1 PUSH4 0xE1F26F22 EQ PUSH2 0x2CE JUMPI DUP1 PUSH4 0xECE1D6E5 EQ PUSH2 0x2B0 JUMPI DUP1 PUSH4 0xF0F44260 EQ PUSH2 0x26B JUMPI PUSH4 0xF2FDE38B EQ PUSH2 0x190 JUMPI PUSH1 0x0 DUP1 REVERT JUMPDEST CALLVALUE PUSH2 0x267 JUMPI PUSH1 0x20 CALLDATASIZE PUSH1 0x3 NOT ADD SLT PUSH2 0x267 JUMPI PUSH2 0x1A9 PUSH2 0xE5D JUMP JUMPDEST PUSH2 0x1B1 PUSH2 0xE73 JUMP JUMPDEST PUSH1 0x1 PUSH1 0x1 PUSH1 0xA0 SHL SUB DUP2 DUP2 AND SWAP4 SWAP1 SWAP3 SWAP1 DUP5 ISZERO PUSH2 0x215 JUMPI POP POP PUSH1 0x1 DUP1 SLOAD PUSH2 0x100 PUSH1 0x1 PUSH1 0xA8 SHL SUB NOT DUP2 AND PUSH1 0x8 SWAP4 DUP5 SHL PUSH2 0x100 PUSH1 0x1 PUSH1 0xA8 SHL SUB AND OR SWAP1 SWAP2 SSTORE SWAP1 SHR AND PUSH32 0x8BE0079C531659141344CD1FD0A4F28419497F9722A3DAAFE3B4186F6B6457E0 DUP4 DUP1 LOG3 DUP1 RETURN JUMPDEST SWAP1 PUSH1 0x20 PUSH1 0x84 SWAP3 MLOAD SWAP2 PUSH3 0x461BCD PUSH1 0xE5 SHL DUP4 MSTORE DUP3 ADD MSTORE PUSH1 0x26 PUSH1 0x24 DUP3 ADD MSTORE PUSH32 0x4F776E61626C653A206E6577206F776E657220697320746865207A65726F2061 PUSH1 0x44 DUP3 ADD MSTORE PUSH6 0x646472657373 PUSH1 0xD0 SHL PUSH1 0x64 DUP3 ADD MSTORE REVERT JUMPDEST DUP3 DUP1 REVERT JUMPDEST DUP4 DUP3 CALLVALUE PUSH2 0x2AC JUMPI PUSH1 0x20 CALLDATASIZE PUSH1 0x3 NOT ADD SLT PUSH2 0x2AC JUMPI PUSH2 0x286 PUSH2 0xE5D JUMP JUMPDEST PUSH2 0x28E PUSH2 0xE73 JUMP JUMPDEST DUP2 SLOAD PUSH1 0x1 PUSH1 0x1 PUSH1 0xA0 SHL SUB NOT AND PUSH1 0x1 PUSH1 0x1 PUSH1 0xA0 SHL SUB SWAP2 SWAP1 SWAP2 AND OR SWAP1 SSTORE DUP1 RETURN JUMPDEST POP DUP1 REVERT JUMPDEST POP POP CALLVALUE PUSH2 0x2AC JUMPI DUP2 PUSH1 0x3 NOT CALLDATASIZE ADD SLT PUSH2 0x2AC JUMPI PUSH1 0x20 SWAP1 MLOAD PUSH3 0x1D4C0 DUP2 MSTORE RETURN JUMPDEST POP POP CALLVALUE PUSH2 0x2AC JUMPI DUP2 PUSH1 0x3 NOT CALLDATASIZE ADD SLT PUSH2 0x2AC JUMPI PUSH1 0x3 SLOAD SWAP1 MLOAD PUSH1 0x1 PUSH1 0x1 PUSH1 0xA0 SHL SUB SWAP1 SWAP2 AND DUP2 MSTORE PUSH1 0x20 SWAP1 RETURN JUMPDEST POP POP CALLVALUE PUSH2 0x2AC JUMPI PUSH1 0x20 CALLDATASIZE PUSH1 0x3 NOT ADD SLT PUSH2 0x2AC JUMPI SWAP1 DUP2 SWAP1 PUSH1 0x1 PUSH1 0x1 PUSH1 0xA0 SHL SUB PUSH2 0x31D PUSH2 0xE5D JUMP JUMPDEST AND DUP2 MSTORE PUSH1 0xA PUSH1 0x20 MSTORE KECCAK256 PUSH1 0x1 DUP2 SLOAD SWAP2 ADD SLOAD DUP3 MLOAD SWAP2 DUP3 MSTORE PUSH1 0x20 DUP3 ADD MSTORE RETURN JUMPDEST POP POP CALLVALUE PUSH2 0x2AC JUMPI DUP2 PUSH1 0x3 NOT CALLDATASIZE ADD SLT PUSH2 0x2AC JUMPI PUSH1 0x20 SWAP1 PUSH1 0x7 SLOAD SWAP1 MLOAD SWAP1 DUP2 MSTORE RETURN JUMPDEST POP CALLVALUE PUSH2 0x267 JUMPI DUP3 PUSH1 0x3 NOT CALLDATASIZE ADD SLT PUSH2 0x267 JUMPI PUSH2 0x371 PUSH2 0xE73 JUMP JUMPDEST PUSH1 0x1 SLOAD PUSH1 0xFF DUP2 AND ISZERO PUSH2 0x3FA JUMPI POP PUSH1 0x1 SLOAD SWAP1 PUSH1 0xFF DUP3 AND ISZERO PUSH2 0x3C0 JUMPI POP PUSH1 0xFF NOT AND PUSH1 0x1 SSTORE MLOAD CALLER DUP2 MSTORE PUSH32 0x5DB9EE0A495BF2E6FF9C91A7834C1BA4FDD244A5E8AA4E537BD38AEAE4B073AA SWAP1 PUSH1 0x20 SWAP1 LOG1 DUP1 RETURN JUMPDEST PUSH1 0x64 SWAP1 PUSH1 0x20 DUP5 MLOAD SWAP2 PUSH3 0x461BCD PUSH1 0xE5 SHL DUP4 MSTORE DUP3 ADD MSTORE PUSH1 0x14 PUSH1 0x24 DUP3 ADD MSTORE PUSH20 0x14185D5CD8589B194E881B9BDD081C185D5CD959 PUSH1 0x62 SHL PUSH1 0x44 DUP3 ADD MSTORE REVERT JUMPDEST PUSH1 0x20 SWAP2 POP SWAP2 PUSH1 0x1 PUSH32 0x62E78CEA01BEE320CD4E420270B5EA74000D11B0C9F74754EBDBFC544B05A258 SWAP4 PUSH2 0x42B PUSH2 0x121F JUMP JUMPDEST PUSH1 0xFF NOT AND OR PUSH1 0x1 SSTORE MLOAD CALLER DUP2 MSTORE LOG1 DUP1 RETURN JUMPDEST POP POP CALLVALUE PUSH2 0x2AC JUMPI PUSH1 0x20 CALLDATASIZE PUSH1 0x3 NOT ADD SLT PUSH2 0x2AC JUMPI PUSH1 0x20 SWAP2 PUSH1 0x1 SWAP1 DUP3 SWAP1 PUSH1 0x1 PUSH1 0x1 PUSH1 0xA0 SHL SUB PUSH2 0x466 PUSH2 0xE5D JUMP JUMPDEST AND DUP2 MSTORE PUSH1 0xA DUP6 MSTORE KECCAK256 ADD SLOAD SWAP1 MLOAD SWAP1 TIMESTAMP LT ISZERO DUP2 MSTORE RETURN JUMPDEST DUP4 DUP3 CALLVALUE PUSH2 0x2AC JUMPI PUSH1 0x20 CALLDATASIZE PUSH1 0x3 NOT ADD SLT PUSH2 0x2AC JUMPI PUSH2 0x49F SWAP1 PUSH2 0x499 PUSH2 0xE73 JUMP JUMPDEST CALLDATALOAD PUSH2 0x162B JUMP JUMPDEST DUP1 RETURN JUMPDEST DUP4 DUP3 CALLVALUE PUSH2 0x2AC JUMPI PUSH1 0x20 CALLDATASIZE PUSH1 0x3 NOT ADD SLT PUSH2 0x2AC JUMPI CALLDATALOAD PUSH4 0xFFFFFFFF DUP2 AND DUP1 SWAP2 SUB PUSH2 0x2AC JUMPI PUSH2 0x4CC PUSH2 0xE73 JUMP JUMPDEST PUSH4 0xFFFFFFFF NOT PUSH1 0x8 SLOAD AND OR PUSH1 0x8 SSTORE DUP1 RETURN JUMPDEST POP DUP3 SWAP1 CALLVALUE PUSH2 0x2AC JUMPI PUSH1 0x80 CALLDATASIZE PUSH1 0x3 NOT ADD SLT PUSH2 0x2AC JUMPI PUSH2 0x4F9 PUSH2 0xE5D JUMP JUMPDEST SWAP1 PUSH1 0x1 PUSH1 0x1 PUSH1 0xA0 SHL SUB PUSH1 0x44 CALLDATALOAD DUP2 DUP2 AND SUB PUSH2 0x5B1 JUMPI PUSH1 0x64 CALLDATALOAD PUSH8 0xFFFFFFFFFFFFFFFF DUP2 GT PUSH2 0x5AD JUMPI PUSH2 0x52C SWAP1 CALLDATASIZE SWAP1 DUP5 ADD PUSH2 0xE2A JUMP JUMPDEST POP POP PUSH2 0x536 PUSH2 0x1263 JUMP JUMPDEST PUSH2 0x53E PUSH2 0x121F JUMP JUMPDEST PUSH1 0x2 SLOAD AND SWAP1 DUP2 ISZERO PUSH2 0x55E JUMPI POP SWAP1 PUSH2 0x557 SWAP2 PUSH1 0x24 CALLDATALOAD PUSH2 0x12B9 JUMP JUMPDEST PUSH1 0x1 DUP2 SSTORE DUP1 RETURN JUMPDEST PUSH1 0x84 SWAP1 PUSH1 0x20 DUP7 MLOAD SWAP2 PUSH3 0x461BCD PUSH1 0xE5 SHL DUP4 MSTORE DUP3 ADD MSTORE PUSH1 0x23 PUSH1 0x24 DUP3 ADD MSTORE PUSH32 0x44796E616D696345617465723A20546F6B656E2061646472657373206E6F7420 PUSH1 0x44 DUP3 ADD MSTORE PUSH3 0x1CD95D PUSH1 0xEA SHL PUSH1 0x64 DUP3 ADD MSTORE REVERT JUMPDEST DUP5 DUP1 REVERT JUMPDEST DUP4 DUP1 REVERT JUMPDEST POP POP CALLVALUE PUSH2 0x2AC JUMPI DUP2 PUSH1 0x3 NOT CALLDATASIZE ADD SLT PUSH2 0x2AC JUMPI PUSH1 0x1 SLOAD SWAP1 MLOAD PUSH1 0x8 SWAP2 SWAP1 SWAP2 SHR PUSH1 0x1 PUSH1 0x1 PUSH1 0xA0 SHL SUB AND DUP2 MSTORE PUSH1 0x20 SWAP1 RETURN JUMPDEST POP SWAP2 CALLVALUE PUSH2 0x609 JUMPI PUSH1 0x20 CALLDATASIZE PUSH1 0x3 NOT ADD SLT PUSH2 0x609 JUMPI POP PUSH2 0x602 PUSH1 0x20 SWAP3 CALLDATALOAD PUSH2 0xF54 JUMP JUMPDEST SWAP1 MLOAD SWAP1 DUP2 MSTORE RETURN JUMPDEST DUP1 REVERT JUMPDEST POP SWAP2 SWAP1 CALLVALUE PUSH2 0x2AC JUMPI DUP2 PUSH1 0x3 NOT CALLDATASIZE ADD SLT PUSH2 0x2AC JUMPI PUSH8 0xDE0B6B3A7640000 PUSH1 0x7 SLOAD SDIV DUP1 ISZERO PUSH2 0x669 JUMPI PUSH3 0x11170 SDIV SWAP2 PUSH2 0x2710 SWAP3 DUP4 DUP2 MUL SWAP4 DUP2 DUP6 SDIV EQ SWAP1 ISZERO OR ISZERO PUSH2 0x656 JUMPI PUSH1 0x20 DUP4 DUP4 MLOAD SWAP1 DUP2 MSTORE RETURN JUMPDEST PUSH4 0x4E487B71 PUSH1 0xE0 SHL DUP2 MSTORE PUSH1 0x11 DUP5 MSTORE PUSH1 0x24 SWAP1 REVERT JUMPDEST PUSH4 0x4E487B71 PUSH1 0xE0 SHL DUP4 MSTORE PUSH1 0x12 DUP5 MSTORE PUSH1 0x24 DUP4 REVERT JUMPDEST POP POP CALLVALUE PUSH2 0x2AC JUMPI DUP2 PUSH1 0x3 NOT CALLDATASIZE ADD SLT PUSH2 0x2AC JUMPI PUSH1 0x20 SWAP1 PUSH1 0x9 SLOAD SWAP1 MLOAD SWAP1 DUP2 MSTORE RETURN JUMPDEST DUP4 CALLVALUE PUSH2 0x609 JUMPI DUP1 PUSH1 0x3 NOT CALLDATASIZE ADD SLT PUSH2 0x609 JUMPI PUSH2 0x6B4 PUSH2 0xE73 JUMP JUMPDEST PUSH1 0x1 DUP1 SLOAD PUSH2 0x100 PUSH1 0x1 PUSH1 0xA8 SHL SUB NOT DUP2 AND SWAP1 SWAP2 SSTORE DUP2 SWAP1 PUSH1 0x8 SHR PUSH1 0x1 PUSH1 0x1 PUSH1 0xA0 SHL SUB AND PUSH32 0x8BE0079C531659141344CD1FD0A4F28419497F9722A3DAAFE3B4186F6B6457E0 DUP3 DUP1 LOG3 DUP1 RETURN JUMPDEST POP POP CALLVALUE PUSH2 0x2AC JUMPI PUSH1 0x20 CALLDATASIZE PUSH1 0x3 NOT ADD SLT PUSH2 0x2AC JUMPI PUSH1 0x20 SWAP2 DUP2 SWAP1 PUSH1 0x1 PUSH1 0x1 PUSH1 0xA0 SHL SUB PUSH2 0x724 PUSH2 0xE5D JUMP JUMPDEST AND DUP2 MSTORE PUSH1 0xA DUP5 MSTORE KECCAK256 SLOAD SWAP1 MLOAD SWAP1 DUP2 MSTORE RETURN JUMPDEST DUP4 DUP3 CALLVALUE PUSH2 0x2AC JUMPI PUSH1 0x20 CALLDATASIZE PUSH1 0x3 NOT ADD SLT PUSH2 0x2AC JUMPI PUSH2 0x74F PUSH2 0xE73 JUMP JUMPDEST CALLDATALOAD PUSH1 0x7 SSTORE DUP1 RETURN JUMPDEST POP SWAP2 CALLVALUE PUSH2 0x609 JUMPI DUP1 PUSH1 0x3 NOT CALLDATASIZE ADD SLT PUSH2 0x609 JUMPI PUSH1 0x5 SLOAD PUSH1 0x1 DUP2 ADD SWAP2 DUP3 DUP3 GT PUSH2 0x784 JUMPI PUSH1 0x20 DUP5 PUSH2 0x602 DUP6 DUP6 PUSH2 0x108D JUMP JUMPDEST PUSH4 0x4E487B71 PUSH1 0xE0 SHL DUP2 MSTORE PUSH1 0x11 DUP6 MSTORE PUSH1 0x24 SWAP1 REVERT JUMPDEST POP CALLVALUE PUSH2 0x267 JUMPI DUP3 PUSH1 0x3 NOT CALLDATASIZE ADD SLT PUSH2 0x267 JUMPI SLOAD SWAP1 MLOAD PUSH1 0x1 PUSH1 0x1 PUSH1 0xA0 SHL SUB SWAP1 SWAP2 AND DUP2 MSTORE PUSH1 0x20 SWAP2 POP RETURN JUMPDEST POP POP CALLVALUE PUSH2 0x2AC JUMPI DUP2 PUSH1 0x3 NOT CALLDATASIZE ADD SLT PUSH2 0x2AC JUMPI PUSH1 0x20 SWAP1 PUSH1 0xFF PUSH1 0x1 SLOAD AND SWAP1 MLOAD SWAP1 ISZERO ISZERO DUP2 MSTORE RETURN JUMPDEST POP SWAP2 CALLVALUE PUSH2 0x609 JUMPI PUSH1 0x20 CALLDATASIZE PUSH1 0x3 NOT ADD SLT PUSH2 0x609 JUMPI POP PUSH2 0x602 PUSH1 0x20 SWAP3 CALLDATALOAD PUSH2 0xF86 JUMP JUMPDEST POP SWAP1 CALLVALUE PUSH2 0x267 JUMPI DUP3 PUSH1 0x3 NOT CALLDATASIZE ADD SLT PUSH2 0x267 JUMPI PUSH2 0x81C PUSH2 0x121F JUMP JUMPDEST PUSH4 0xFFFFFFFF PUSH1 0x8 SLOAD AND ISZERO PUSH2 0x88C JUMPI JUMPDEST CALLER DUP4 MSTORE PUSH1 0xA PUSH1 0x20 MSTORE PUSH1 0x1 DUP2 DUP5 KECCAK256 ADD SLOAD TIMESTAMP LT PUSH2 0x849 JUMPI DUP3 PUSH2 0x49F PUSH2 0x15AA JUMP JUMPDEST SWAP1 PUSH1 0x20 PUSH1 0x64 SWAP3 MLOAD SWAP2 PUSH3 0x461BCD PUSH1 0xE5 SHL DUP4 MSTORE DUP3 ADD MSTORE PUSH1 0x1F PUSH1 0x24 DUP3 ADD MSTORE PUSH32 0x44796E616D696345617465723A2056657374696E67206E6F7420656E64656400 PUSH1 0x44 DUP3 ADD MSTORE REVERT JUMPDEST PUSH2 0x894 PUSH2 0x15AA JUMP JUMPDEST PUSH2 0x82B JUMP JUMPDEST POP POP CALLVALUE PUSH2 0x2AC JUMPI PUSH1 0x20 CALLDATASIZE PUSH1 0x3 NOT ADD SLT PUSH2 0x2AC JUMPI PUSH2 0x8B4 PUSH2 0xE5D JUMP JUMPDEST PUSH2 0x8BC PUSH2 0xE73 JUMP JUMPDEST PUSH1 0x1 PUSH1 0x1 PUSH1 0xA0 SHL SUB AND DUP3 MSTORE PUSH1 0xB PUSH1 0x20 MSTORE DUP2 KECCAK256 DUP1 SLOAD PUSH1 0xFF NOT AND PUSH1 0x1 OR SWAP1 SSTORE DUP1 RETURN JUMPDEST POP POP CALLVALUE PUSH2 0x2AC JUMPI PUSH1 0x20 CALLDATASIZE PUSH1 0x3 NOT ADD SLT PUSH2 0x2AC JUMPI PUSH1 0x20 SWAP2 PUSH1 0xFF SWAP1 DUP3 SWAP1 PUSH1 0x1 PUSH1 0x1 PUSH1 0xA0 SHL SUB PUSH2 0x907 PUSH2 0xE5D JUMP JUMPDEST AND DUP2 MSTORE PUSH1 0xB DUP6 MSTORE KECCAK256 SLOAD AND SWAP1 MLOAD SWAP1 ISZERO ISZERO DUP2 MSTORE RETURN JUMPDEST POP SWAP2 SWAP1 CALLVALUE PUSH2 0x2AC JUMPI DUP2 PUSH1 0x3 NOT CALLDATASIZE ADD SLT PUSH2 0x2AC JUMPI PUSH2 0x935 PUSH2 0xE73 JUMP JUMPDEST PUSH1 0x3 SLOAD DUP2 MLOAD PUSH4 0x70A08231 PUSH1 0xE0 SHL DUP2 MSTORE ADDRESS DUP6 DUP3 ADD MSTORE SWAP4 PUSH1 0x20 SWAP3 SWAP2 PUSH1 0x1 PUSH1 0x1 PUSH1 0xA0 SHL SUB SWAP1 DUP2 AND SWAP2 SWAP1 DUP5 DUP8 PUSH1 0x24 DUP2 DUP7 GAS STATICCALL SWAP7 DUP8 ISZERO PUSH2 0xA80 JUMPI DUP7 SWAP8 PUSH2 0xA4D JUMPI JUMPDEST POP DUP7 ISZERO PUSH2 0xA00 JUMPI PUSH1 0x1 SLOAD DUP5 MLOAD PUSH4 0xA9059CBB PUSH1 0xE0 SHL DUP2 MSTORE PUSH1 0x1 PUSH1 0x1 PUSH1 0xA0 SHL SUB PUSH1 0x8 SWAP3 SWAP1 SWAP3 SHR SWAP1 SWAP3 AND AND SWAP2 DUP2 ADD SWAP2 DUP3 MSTORE PUSH1 0x20 DUP3 ADD DUP8 SWAP1 MSTORE SWAP3 SWAP2 DUP5 SWAP2 DUP5 SWAP2 SWAP1 DUP3 SWAP1 DUP9 SWAP1 DUP3 SWAP1 PUSH1 0x40 ADD SUB SWAP3 GAS CALL SWAP1 DUP2 ISZERO PUSH2 0x9F7 JUMPI POP PUSH2 0x9CA JUMPI DUP3 DUP1 RETURN JUMPDEST DUP2 PUSH2 0x9E9 SWAP3 SWAP1 RETURNDATASIZE LT PUSH2 0x9F0 JUMPI JUMPDEST PUSH2 0x9E1 DUP2 DUP4 PUSH2 0x1171 JUMP JUMPDEST DUP2 ADD SWAP1 PUSH2 0x1207 JUMP JUMPDEST POP DUP2 DUP1 DUP3 DUP1 RETURN JUMPDEST POP RETURNDATASIZE PUSH2 0x9D7 JUMP JUMPDEST MLOAD RETURNDATASIZE DUP6 DUP3 RETURNDATACOPY RETURNDATASIZE SWAP1 REVERT JUMPDEST DUP4 MLOAD PUSH3 0x461BCD PUSH1 0xE5 SHL DUP2 MSTORE DUP1 DUP4 ADD DUP7 SWAP1 MSTORE PUSH1 0x21 PUSH1 0x24 DUP3 ADD MSTORE PUSH32 0x44796E616D696345617465723A204E6F2062616C616E636520746F2073776565 PUSH1 0x44 DUP3 ADD MSTORE PUSH1 0x7 PUSH1 0xFC SHL PUSH1 0x64 DUP3 ADD MSTORE PUSH1 0x84 SWAP1 REVERT JUMPDEST SWAP1 SWAP7 POP DUP5 DUP2 DUP2 RETURNDATASIZE DUP4 GT PUSH2 0xA79 JUMPI JUMPDEST PUSH2 0xA65 DUP2 DUP4 PUSH2 0x1171 JUMP JUMPDEST DUP2 ADD SUB SLT PUSH2 0xA75 JUMPI MLOAD SWAP6 CODESIZE PUSH2 0x971 JUMP JUMPDEST DUP6 DUP1 REVERT JUMPDEST POP RETURNDATASIZE PUSH2 0xA5B JUMP JUMPDEST DUP5 MLOAD RETURNDATASIZE DUP9 DUP3 RETURNDATACOPY RETURNDATASIZE SWAP1 REVERT JUMPDEST DUP4 DUP3 CALLVALUE PUSH2 0x2AC JUMPI DUP2 PUSH1 0x3 NOT CALLDATASIZE ADD SLT PUSH2 0x2AC JUMPI PUSH2 0xAA4 PUSH2 0xE73 JUMP JUMPDEST PUSH1 0x7 SLOAD PUSH1 0x5 SLOAD SWAP2 DUP3 DUP3 SUB SWAP2 DUP3 GT PUSH2 0xAD2 JUMPI POP DUP2 PUSH2 0xAC7 PUSH2 0xACD SWAP3 PUSH2 0x49F SWAP5 PUSH2 0xF34 JUMP JUMPDEST SWAP1 PUSH2 0x108D JUMP JUMPDEST PUSH2 0x162B JUMP JUMPDEST PUSH4 0x4E487B71 PUSH1 0xE0 SHL DUP5 MSTORE PUSH1 0x11 SWAP1 MSTORE PUSH1 0x24 DUP4 REVERT JUMPDEST POP CALLVALUE PUSH2 0x267 JUMPI PUSH1 0x20 CALLDATASIZE PUSH1 0x3 NOT ADD SLT PUSH2 0x267 JUMPI DUP1 CALLDATALOAD SWAP1 PUSH2 0xB02 PUSH2 0x121F JUMP JUMPDEST PUSH1 0x2 SLOAD DUP4 MLOAD PUSH4 0x70A08231 PUSH1 0xE0 SHL DUP2 MSTORE CALLER SWAP3 DUP2 ADD SWAP3 SWAP1 SWAP3 MSTORE PUSH1 0x1 PUSH1 0x1 PUSH1 0xA0 SHL SUB AND SWAP1 PUSH1 0x20 DUP2 PUSH1 0x24 DUP2 DUP6 GAS STATICCALL SWAP4 DUP5 ISZERO PUSH2 0xB87 JUMPI POP DUP5 SWAP4 PUSH2 0xB52 JUMPI JUMPDEST POP PUSH2 0xB4B DUP3 PUSH2 0x49F SWAP5 LT ISZERO PUSH2 0x11A9 JUMP JUMPDEST CALLER SWAP2 PUSH2 0x12B9 JUMP JUMPDEST SWAP3 POP PUSH1 0x20 DUP4 RETURNDATASIZE DUP3 GT PUSH2 0xB7F JUMPI JUMPDEST DUP2 PUSH2 0xB6C PUSH1 0x20 SWAP4 DUP4 PUSH2 0x1171 JUMP JUMPDEST DUP2 ADD SUB SLT PUSH2 0x5B1 JUMPI SWAP2 MLOAD SWAP2 PUSH2 0xB4B PUSH2 0xB3B JUMP JUMPDEST RETURNDATASIZE SWAP2 POP PUSH2 0xB5F JUMP JUMPDEST MLOAD RETURNDATASIZE DUP7 DUP3 RETURNDATACOPY RETURNDATASIZE SWAP1 REVERT JUMPDEST POP POP CALLVALUE PUSH2 0x2AC JUMPI DUP2 PUSH1 0x3 NOT CALLDATASIZE ADD SLT PUSH2 0x2AC JUMPI PUSH1 0x2 SLOAD SWAP1 MLOAD PUSH1 0x1 PUSH1 0x1 PUSH1 0xA0 SHL SUB SWAP1 SWAP2 AND DUP2 MSTORE PUSH1 0x20 SWAP1 RETURN JUMPDEST SWAP3 SWAP1 POP CALLVALUE PUSH2 0xDC6 JUMPI PUSH1 0x60 CALLDATASIZE PUSH1 0x3 NOT ADD SLT PUSH2 0xDC6 JUMPI PUSH1 0x1 PUSH1 0x1 PUSH1 0xA0 SHL SUB PUSH1 0x24 CALLDATALOAD DUP2 DUP2 AND SWAP1 DUP5 CALLDATALOAD SWAP1 DUP3 SWAP1 SUB PUSH2 0xA75 JUMPI PUSH1 0x44 CALLDATALOAD PUSH8 0xFFFFFFFFFFFFFFFF DUP2 GT PUSH2 0xDC2 JUMPI PUSH2 0xC05 SWAP1 CALLDATASIZE SWAP1 DUP8 ADD PUSH2 0xE2A JUMP JUMPDEST SWAP7 SWAP1 SWAP6 PUSH2 0xC10 PUSH2 0x1263 JUMP JUMPDEST PUSH2 0xC18 PUSH2 0x121F JUMP JUMPDEST PUSH1 0x2 SLOAD DUP7 MLOAD PUSH4 0x70A08231 PUSH1 0xE0 SHL DUP2 MSTORE CALLER DUP4 DUP3 ADD MSTORE PUSH1 0x20 SWAP10 SWAP2 DUP8 AND SWAP1 DUP11 DUP2 PUSH1 0x24 DUP2 DUP6 GAS STATICCALL SWAP1 DUP2 ISZERO PUSH2 0xDB8 JUMPI SWAP1 DUP7 SWAP3 SWAP2 DUP7 SWAP2 PUSH2 0xD83 JUMPI JUMPDEST POP PUSH2 0xC65 SWAP3 PUSH2 0xC5D SWAP2 LT ISZERO PUSH2 0x11A9 JUMP JUMPDEST CALLER SWAP1 DUP7 PUSH2 0x12B9 JUMP JUMPDEST PUSH1 0x2 SLOAD DUP8 MLOAD PUSH4 0x95EA7B3 PUSH1 0xE0 SHL DUP2 MSTORE PUSH1 0x1 PUSH1 0x1 PUSH1 0xA0 SHL SUB DUP8 AND DUP5 DUP3 ADD SWAP1 DUP2 MSTORE PUSH1 0x20 DUP2 ADD DUP8 SWAP1 MSTORE SWAP1 SWAP2 DUP12 SWAP2 DUP4 SWAP2 DUP11 AND SWAP1 DUP3 SWAP1 DUP9 SWAP1 DUP3 SWAP1 PUSH1 0x40 ADD SUB SWAP3 GAS CALL DUP1 ISZERO PUSH2 0xD79 JUMPI SWAP2 DUP11 SWAP8 SWAP7 SWAP6 SWAP5 SWAP4 SWAP2 PUSH1 0xA4 SWAP4 PUSH2 0xD5C JUMPI JUMPDEST POP DUP1 DUP8 DUP4 SLOAD AND DUP1 ISZERO PUSH1 0x0 EQ PUSH2 0xD56 JUMPI POP ADDRESS SWAP11 JUMPDEST DUP9 PUSH1 0x2 SLOAD AND SWAP9 DUP12 MLOAD SWAP13 DUP14 SWAP11 DUP12 SWAP10 DUP11 SWAP8 PUSH4 0x2454B71 PUSH1 0xE4 SHL DUP10 MSTORE DUP9 ADD MSTORE PUSH1 0x24 DUP8 ADD MSTORE AND PUSH1 0x44 DUP6 ADD MSTORE PUSH1 0x80 PUSH1 0x64 DUP6 ADD MSTORE DUP2 PUSH1 0x84 DUP6 ADD MSTORE DUP5 DUP5 ADD CALLDATACOPY DUP2 DUP2 ADD DUP4 ADD DUP5 SWAP1 MSTORE PUSH1 0x1F ADD PUSH1 0x1F NOT AND DUP2 ADD SUB ADD SWAP3 GAS CALL SWAP1 DUP2 ISZERO PUSH2 0x9F7 JUMPI POP PUSH2 0xD2D JUMPI JUMPDEST DUP3 PUSH1 0x1 DUP2 SSTORE DUP1 RETURN JUMPDEST DUP2 RETURNDATASIZE DUP4 GT PUSH2 0xD4F JUMPI JUMPDEST PUSH2 0xD40 DUP2 DUP4 PUSH2 0x1171 JUMP JUMPDEST DUP2 ADD SUB SLT PUSH2 0x609 JUMPI CODESIZE DUP1 PUSH2 0xD25 JUMP JUMPDEST POP RETURNDATASIZE PUSH2 0xD36 JUMP JUMPDEST SWAP11 PUSH2 0xCCA JUMP JUMPDEST PUSH2 0xD72 SWAP1 DUP10 RETURNDATASIZE DUP12 GT PUSH2 0x9F0 JUMPI PUSH2 0x9E1 DUP2 DUP4 PUSH2 0x1171 JUMP JUMPDEST POP CODESIZE PUSH2 0xCB7 JUMP JUMPDEST DUP9 MLOAD RETURNDATASIZE DUP7 DUP3 RETURNDATACOPY RETURNDATASIZE SWAP1 REVERT JUMPDEST DUP1 SWAP4 POP DUP13 DUP1 SWAP3 POP RETURNDATASIZE DUP4 GT PUSH2 0xDB1 JUMPI JUMPDEST PUSH2 0xD9C DUP2 DUP4 PUSH2 0x1171 JUMP JUMPDEST DUP2 ADD SUB SLT PUSH2 0x5AD JUMPI SWAP1 MLOAD DUP6 SWAP2 SWAP1 PUSH2 0xC65 PUSH2 0xC4D JUMP JUMPDEST POP RETURNDATASIZE PUSH2 0xD92 JUMP JUMPDEST DUP10 MLOAD RETURNDATASIZE DUP8 DUP3 RETURNDATACOPY RETURNDATASIZE SWAP1 REVERT JUMPDEST DUP7 DUP1 REVERT JUMPDEST POP POP REVERT JUMPDEST POP POP CALLVALUE PUSH2 0x2AC JUMPI DUP2 PUSH1 0x3 NOT CALLDATASIZE ADD SLT PUSH2 0x2AC JUMPI PUSH1 0x20 SWAP1 PUSH1 0x5 SLOAD SWAP1 MLOAD SWAP1 DUP2 MSTORE RETURN JUMPDEST POP POP CALLVALUE PUSH2 0x2AC JUMPI DUP2 PUSH1 0x3 NOT CALLDATASIZE ADD SLT PUSH2 0x2AC JUMPI PUSH1 0x20 SWAP1 PUSH4 0xFFFFFFFF PUSH1 0x8 SLOAD AND SWAP1 MLOAD SWAP1 DUP2 MSTORE RETURN JUMPDEST DUP5 SWAP1 CALLVALUE PUSH2 0x2AC JUMPI DUP2 PUSH1 0x3 NOT CALLDATASIZE ADD SLT PUSH2 0x2AC JUMPI DUP1 PUSH2 0xC350 PUSH1 0x20 SWAP3 MSTORE RETURN JUMPDEST SWAP2 DUP2 PUSH1 0x1F DUP5 ADD SLT ISZERO PUSH2 0xE58 JUMPI DUP3 CALLDATALOAD SWAP2 PUSH8 0xFFFFFFFFFFFFFFFF DUP4 GT PUSH2 0xE58 JUMPI PUSH1 0x20 DUP4 DUP2 DUP7 ADD SWAP6 ADD ADD GT PUSH2 0xE58 JUMPI JUMP JUMPDEST PUSH1 0x0 DUP1 REVERT JUMPDEST PUSH1 0x4 CALLDATALOAD SWAP1 PUSH1 0x1 PUSH1 0x1 PUSH1 0xA0 SHL SUB DUP3 AND DUP3 SUB PUSH2 0xE58 JUMPI JUMP JUMPDEST PUSH1 0x1 SLOAD PUSH1 0x8 SHR PUSH1 0x1 PUSH1 0x1 PUSH1 0xA0 SHL SUB AND CALLER SUB PUSH2 0xE8A JUMPI JUMP JUMPDEST PUSH1 0x64 PUSH1 0x40 MLOAD PUSH3 0x461BCD PUSH1 0xE5 SHL DUP2 MSTORE PUSH1 0x20 PUSH1 0x4 DUP3 ADD MSTORE PUSH1 0x20 PUSH1 0x24 DUP3 ADD MSTORE PUSH32 0x4F776E61626C653A2063616C6C6572206973206E6F7420746865206F776E6572 PUSH1 0x44 DUP3 ADD MSTORE REVERT JUMPDEST SWAP1 PUSH3 0x186A0 SWAP2 DUP3 DUP2 MUL SWAP3 DUP2 DUP5 SDIV EQ SWAP1 ISZERO OR ISZERO PUSH2 0xEE6 JUMPI JUMP JUMPDEST PUSH4 0x4E487B71 PUSH1 0xE0 SHL PUSH1 0x0 MSTORE PUSH1 0x11 PUSH1 0x4 MSTORE PUSH1 0x24 PUSH1 0x0 REVERT JUMPDEST SWAP1 PUSH5 0x2CB417800 SWAP2 DUP1 DUP4 MUL SWAP3 DUP4 SDIV SUB PUSH2 0xEE6 JUMPI JUMP JUMPDEST DUP2 DUP2 MUL SWAP3 SWAP2 PUSH1 0x0 DUP3 SLT PUSH1 0x1 PUSH1 0xFF SHL DUP3 EQ AND PUSH2 0xEE6 JUMPI DUP2 DUP5 SDIV EQ SWAP1 ISZERO OR ISZERO PUSH2 0xEE6 JUMPI JUMP JUMPDEST SWAP2 SWAP1 DUP3 ADD DUP1 SWAP3 GT PUSH2 0xEE6 JUMPI JUMP JUMPDEST DUP2 DUP2 MUL SWAP3 SWAP2 DUP2 ISZERO SWAP2 DUP5 DIV EQ OR ISZERO PUSH2 0xEE6 JUMPI JUMP JUMPDEST PUSH8 0xDE0B6B3A7640000 SWAP1 DIV PUSH1 0x64 DUP2 MUL SWAP1 DUP1 DUP3 DIV PUSH1 0x64 EQ SWAP1 ISZERO OR ISZERO PUSH2 0xEE6 JUMPI PUSH2 0x217B PUSH2 0x2EE0 SWAP2 DIV DUP2 SUB SWAP1 DUP2 GT PUSH2 0xEE6 JUMPI SWAP1 JUMP JUMPDEST PUSH1 0x64 PUSH2 0xFAA PUSH2 0x2710 SWAP3 PUSH2 0xFA5 PUSH2 0xF9B DUP3 PUSH2 0xF54 JUMP JUMPDEST SWAP2 PUSH1 0x9 SLOAD SWAP1 PUSH2 0xF41 JUMP JUMPDEST PUSH2 0xF41 JUMP JUMPDEST DIV DIV SWAP1 JUMP JUMPDEST PUSH1 0x0 SWAP1 DUP1 ISZERO PUSH2 0x106D JUMPI DUP1 DUP1 PUSH1 0x1 EQ PUSH2 0x1065 JUMPI PUSH1 0x2 EQ PUSH2 0x105D JUMPI PUSH1 0x1 SWAP2 DUP3 PUSH2 0x133 DUP4 LT AND DUP4 PUSH1 0xB DUP5 LT AND OR PUSH2 0x104D JUMPI PUSH1 0x2 DUP4 SWAP3 SWAP4 JUMPDEST DUP1 DUP3 GT PUSH2 0x1010 JUMPI POP POP DUP3 PUSH1 0x0 NOT DIV DUP3 GT PUSH2 0xFFC JUMPI POP MUL SWAP1 JUMP JUMPDEST PUSH4 0x4E487B71 PUSH1 0xE0 SHL DUP2 MSTORE PUSH1 0x11 PUSH1 0x4 MSTORE PUSH1 0x24 SWAP1 REVERT JUMPDEST SWAP1 SWAP4 DUP1 PUSH1 0x0 NOT DIV DUP2 GT PUSH2 0x1039 JUMPI DUP2 DUP6 AND PUSH2 0x1030 JUMPI JUMPDEST DUP1 MUL SWAP4 DUP2 SHR SWAP1 PUSH2 0xFE3 JUMP JUMPDEST DUP1 SWAP4 MUL SWAP3 PUSH2 0x1025 JUMP JUMPDEST PUSH4 0x4E487B71 PUSH1 0xE0 SHL DUP4 MSTORE PUSH1 0x11 PUSH1 0x4 MSTORE PUSH1 0x24 DUP4 REVERT JUMPDEST SWAP3 SWAP2 POP PUSH1 0x2 DUP4 SWAP2 EXP SWAP3 PUSH2 0xFFC JUMPI POP JUMP JUMPDEST POP SWAP1 PUSH1 0x4 SWAP2 POP JUMP JUMPDEST POP POP POP PUSH1 0x1 SWAP1 JUMP JUMPDEST POP SWAP1 JUMP JUMPDEST SWAP2 SWAP1 SWAP2 PUSH1 0x0 DUP4 DUP3 ADD SWAP4 DUP5 SLT SWAP2 SLT SWAP1 DUP1 ISZERO DUP3 AND SWAP2 ISZERO AND OR PUSH2 0xEE6 JUMPI JUMP JUMPDEST PUSH1 0x7 SLOAD SWAP1 DUP2 ISZERO PUSH2 0x1169 JUMPI PUSH2 0x10D5 PUSH2 0x10CF PUSH1 0x2 PUSH2 0x10C9 PUSH2 0x10DB PUSH2 0x10EB SWAP7 PUSH3 0x1116F NOT SDIV SWAP8 PUSH2 0x10D5 PUSH2 0x10CF DUP6 PUSH2 0x10C9 PUSH2 0x10C3 DUP6 PUSH2 0xFAF JUMP JUMPDEST DUP14 PUSH2 0xF11 JUMP JUMPDEST SDIV PUSH2 0xECE JUMP JUMPDEST SWAP2 PUSH2 0xEFC JUMP JUMPDEST SWAP1 PUSH2 0x1071 JUMP JUMPDEST SWAP7 PUSH2 0x10E5 DUP7 PUSH2 0xFAF JUMP JUMPDEST SWAP1 PUSH2 0xF11 JUMP JUMPDEST SWAP1 PUSH1 0x0 DUP3 DUP3 SUB SWAP3 SLT DUP2 DUP4 SLT DUP2 AND SWAP2 DUP4 SGT SWAP1 ISZERO AND OR PUSH2 0xEE6 JUMPI PUSH1 0x0 DUP2 SLT PUSH2 0x110E JUMPI SWAP1 JUMP JUMPDEST PUSH1 0x40 MLOAD PUSH3 0x461BCD PUSH1 0xE5 SHL DUP2 MSTORE PUSH1 0x20 PUSH1 0x4 DUP3 ADD MSTORE PUSH1 0x2D PUSH1 0x24 DUP3 ADD MSTORE PUSH32 0x417265612063616C63756C6174696F6E20726573756C74656420696E2061206E PUSH1 0x44 DUP3 ADD MSTORE PUSH13 0x656761746976652076616C7565 PUSH1 0x98 SHL PUSH1 0x64 DUP3 ADD MSTORE PUSH1 0x84 SWAP1 REVERT JUMPDEST POP POP POP PUSH1 0x0 SWAP1 JUMP JUMPDEST SWAP1 PUSH1 0x1F DUP1 NOT SWAP2 ADD AND DUP2 ADD SWAP1 DUP2 LT PUSH8 0xFFFFFFFFFFFFFFFF DUP3 GT OR PUSH2 0x1193 JUMPI PUSH1 0x40 MSTORE JUMP JUMPDEST PUSH4 0x4E487B71 PUSH1 0xE0 SHL PUSH1 0x0 MSTORE PUSH1 0x41 PUSH1 0x4 MSTORE PUSH1 0x24 PUSH1 0x0 REVERT JUMPDEST ISZERO PUSH2 0x11B0 JUMPI JUMP JUMPDEST PUSH1 0x40 MLOAD PUSH3 0x461BCD PUSH1 0xE5 SHL DUP2 MSTORE PUSH1 0x20 PUSH1 0x4 DUP3 ADD MSTORE PUSH1 0x29 PUSH1 0x24 DUP3 ADD MSTORE PUSH32 0x44796E616D696345617465723A20496E73756666696369656E742062616C616E PUSH1 0x44 DUP3 ADD MSTORE PUSH9 0x18D9481D1BC819585D PUSH1 0xBA SHL PUSH1 0x64 DUP3 ADD MSTORE PUSH1 0x84 SWAP1 REVERT JUMPDEST SWAP1 DUP2 PUSH1 0x20 SWAP2 SUB SLT PUSH2 0xE58 JUMPI MLOAD DUP1 ISZERO ISZERO DUP2 SUB PUSH2 0xE58 JUMPI SWAP1 JUMP JUMPDEST PUSH1 0xFF PUSH1 0x1 SLOAD AND PUSH2 0x122B JUMPI JUMP JUMPDEST PUSH1 0x40 MLOAD PUSH3 0x461BCD PUSH1 0xE5 SHL DUP2 MSTORE PUSH1 0x20 PUSH1 0x4 DUP3 ADD MSTORE PUSH1 0x10 PUSH1 0x24 DUP3 ADD MSTORE PUSH16 0x14185D5CD8589B194E881C185D5CD959 PUSH1 0x82 SHL PUSH1 0x44 DUP3 ADD MSTORE PUSH1 0x64 SWAP1 REVERT JUMPDEST PUSH1 0x2 PUSH1 0x0 SLOAD EQ PUSH2 0x1274 JUMPI PUSH1 0x2 PUSH1 0x0 SSTORE JUMP JUMPDEST PUSH1 0x40 MLOAD PUSH3 0x461BCD PUSH1 0xE5 SHL DUP2 MSTORE PUSH1 0x20 PUSH1 0x4 DUP3 ADD MSTORE PUSH1 0x1F PUSH1 0x24 DUP3 ADD MSTORE PUSH32 0x5265656E7472616E637947756172643A207265656E7472616E742063616C6C00 PUSH1 0x44 DUP3 ADD MSTORE PUSH1 0x64 SWAP1 REVERT JUMPDEST SWAP1 SWAP3 SWAP2 SWAP3 PUSH2 0x12D1 PUSH2 0x12CC DUP4 PUSH1 0x5 SLOAD PUSH2 0xF34 JUMP JUMPDEST PUSH2 0xF86 JUMP JUMPDEST SWAP4 PUSH1 0x1 DUP1 PUSH1 0xA0 SHL SUB SWAP1 DUP2 PUSH1 0x3 SLOAD AND PUSH1 0x40 SWAP1 DUP2 MLOAD SWAP5 PUSH4 0x70A08231 PUSH1 0xE0 SHL DUP7 MSTORE DUP6 PUSH1 0x4 SWAP3 ADDRESS DUP5 DUP4 ADD MSTORE DUP2 PUSH1 0x24 PUSH1 0x20 SWAP10 DUP11 SWAP4 GAS STATICCALL SWAP1 DUP2 ISZERO PUSH2 0x159F JUMPI PUSH1 0x0 SWAP2 PUSH2 0x1572 JUMPI JUMPDEST POP DUP10 GT PUSH2 0x1513 JUMPI DUP3 MLOAD PUSH4 0x23B872DD PUSH1 0xE0 SHL DUP2 MSTORE PUSH1 0x1 PUSH1 0x1 PUSH1 0xA0 SHL SUB DUP6 AND DUP4 DUP3 ADD SWAP1 DUP2 MSTORE ADDRESS PUSH1 0x20 DUP3 ADD MSTORE PUSH1 0x40 DUP2 ADD DUP10 SWAP1 MSTORE SWAP1 SWAP2 DUP8 SWAP2 DUP4 SWAP2 SWAP1 DUP3 SWAP1 SUB PUSH1 0x60 ADD SWAP1 DUP3 SWAP1 PUSH1 0x0 SWAP1 DUP11 AND GAS CALL DUP1 ISZERO PUSH2 0x1508 JUMPI PUSH2 0x14EB JUMPI JUMPDEST POP PUSH1 0x8 SLOAD PUSH4 0xFFFFFFFF SWAP1 DUP2 AND ISZERO PUSH2 0x1450 JUMPI DUP5 DUP5 AND DUP1 PUSH1 0x0 MSTORE PUSH1 0xA DUP8 MSTORE PUSH2 0x138D DUP5 PUSH1 0x0 KECCAK256 SLOAD DUP12 PUSH2 0xF34 JUMP JUMPDEST SWAP2 PUSH1 0x3C DUP2 PUSH1 0x8 SLOAD AND MUL SWAP1 DUP2 AND SWAP1 DUP2 SUB PUSH2 0x143B JUMPI PUSH2 0x13AA SWAP1 TIMESTAMP PUSH2 0xF34 JUMP JUMPDEST SWAP2 DUP5 MLOAD SWAP4 DUP6 DUP6 ADD SWAP1 DUP6 DUP3 LT PUSH8 0xFFFFFFFFFFFFFFFF DUP4 GT OR PUSH2 0x1426 JUMPI POP SWAP3 PUSH2 0x1419 SWAP5 SWAP3 PUSH1 0x1 SWAP3 PUSH32 0xADC41BA80FFA0859AAB1D7CF405A6633A6AF94FC3D10E5B0E0BF46CDCC0FD9C8 SWAP12 SWAP13 SWAP14 SWAP6 DUP9 MSTORE DUP5 MSTORE DUP10 DUP5 ADD SWAP2 DUP3 MSTORE PUSH1 0x0 MSTORE PUSH1 0xA DUP10 MSTORE DUP6 PUSH1 0x0 KECCAK256 SWAP3 MLOAD DUP4 SSTORE MLOAD SWAP2 ADD SSTORE PUSH1 0x5 SLOAD PUSH2 0xF34 JUMP JUMPDEST PUSH1 0x5 SSTORE JUMPDEST MLOAD SWAP5 DUP6 MSTORE AND SWAP3 LOG2 JUMP JUMPDEST PUSH1 0x41 SWAP1 PUSH4 0x4E487B71 PUSH1 0xE0 SHL PUSH1 0x0 MSTORE MSTORE PUSH1 0x24 PUSH1 0x0 REVERT JUMPDEST PUSH1 0x11 DUP5 PUSH4 0x4E487B71 PUSH1 0xE0 SHL PUSH1 0x0 MSTORE MSTORE PUSH1 0x24 PUSH1 0x0 REVERT JUMPDEST POP PUSH1 0x3 SLOAD DUP3 MLOAD PUSH4 0xA9059CBB PUSH1 0xE0 SHL DUP2 MSTORE PUSH1 0x1 PUSH1 0x1 PUSH1 0xA0 SHL SUB DUP6 AND SWAP3 DUP2 ADD SWAP3 DUP4 MSTORE PUSH1 0x20 DUP4 ADD SWAP10 SWAP1 SWAP10 MSTORE DUP6 SWAP2 DUP10 SWAP2 DUP7 AND SWAP1 DUP3 SWAP1 PUSH1 0x0 SWAP1 DUP3 SWAP1 PUSH1 0x40 ADD SUB SWAP3 GAS CALL SWAP7 DUP8 ISZERO PUSH2 0x14E0 JUMPI PUSH32 0xADC41BA80FFA0859AAB1D7CF405A6633A6AF94FC3D10E5B0E0BF46CDCC0FD9C8 SWAP6 SWAP7 SWAP8 PUSH2 0x14C3 JUMPI JUMPDEST POP PUSH2 0x141D JUMP JUMPDEST PUSH2 0x14D9 SWAP1 DUP6 RETURNDATASIZE DUP8 GT PUSH2 0x9F0 JUMPI PUSH2 0x9E1 DUP2 DUP4 PUSH2 0x1171 JUMP JUMPDEST POP CODESIZE PUSH2 0x14BD JUMP JUMPDEST POP MLOAD RETURNDATASIZE PUSH1 0x0 DUP3 RETURNDATACOPY RETURNDATASIZE SWAP1 REVERT JUMPDEST PUSH2 0x1501 SWAP1 DUP7 RETURNDATASIZE DUP9 GT PUSH2 0x9F0 JUMPI PUSH2 0x9E1 DUP2 DUP4 PUSH2 0x1171 JUMP JUMPDEST POP CODESIZE PUSH2 0x1363 JUMP JUMPDEST DUP4 MLOAD RETURNDATASIZE PUSH1 0x0 DUP3 RETURNDATACOPY RETURNDATASIZE SWAP1 REVERT JUMPDEST POP DUP5 PUSH1 0x84 SWAP3 MLOAD SWAP2 PUSH3 0x461BCD PUSH1 0xE5 SHL DUP4 MSTORE DUP3 ADD MSTORE PUSH1 0x34 PUSH1 0x24 DUP3 ADD MSTORE PUSH32 0x44796E616D696345617465723A20496E73756666696369656E7420746F6B656E PUSH1 0x44 DUP3 ADD MSTORE PUSH20 0x103130B630B731B2903A37903A3930B739B332B9 PUSH1 0x61 SHL PUSH1 0x64 DUP3 ADD MSTORE REVERT JUMPDEST SWAP1 DUP8 DUP3 DUP2 RETURNDATASIZE DUP4 GT PUSH2 0x1598 JUMPI JUMPDEST PUSH2 0x1588 DUP2 DUP4 PUSH2 0x1171 JUMP JUMPDEST DUP2 ADD SUB SLT PUSH2 0x609 JUMPI POP MLOAD CODESIZE PUSH2 0x1311 JUMP JUMPDEST POP RETURNDATASIZE PUSH2 0x157E JUMP JUMPDEST DUP5 MLOAD RETURNDATASIZE PUSH1 0x0 DUP3 RETURNDATACOPY RETURNDATASIZE SWAP1 REVERT JUMPDEST CALLER PUSH1 0x0 DUP2 DUP2 MSTORE PUSH1 0xA PUSH1 0x20 SWAP1 DUP2 MSTORE PUSH1 0x40 DUP1 DUP4 KECCAK256 DUP1 SLOAD SWAP1 DUP5 SWAP1 SSTORE PUSH1 0x3 SLOAD SWAP2 MLOAD PUSH4 0xA9059CBB PUSH1 0xE0 SHL DUP2 MSTORE PUSH1 0x4 DUP2 ADD SWAP6 SWAP1 SWAP6 MSTORE PUSH1 0x24 DUP6 ADD MSTORE SWAP1 SWAP2 DUP4 SWAP2 PUSH1 0x1 PUSH1 0x1 PUSH1 0xA0 SHL SUB AND SWAP1 DUP3 SWAP1 DUP2 PUSH1 0x44 DUP2 ADD JUMPDEST SUB SWAP3 GAS CALL DUP1 ISZERO PUSH2 0x161F JUMPI PUSH2 0x1605 JUMPI POP JUMP JUMPDEST PUSH2 0x161C SWAP1 PUSH1 0x20 RETURNDATASIZE DUP2 GT PUSH2 0x9F0 JUMPI PUSH2 0x9E1 DUP2 DUP4 PUSH2 0x1171 JUMP JUMPDEST POP JUMP JUMPDEST PUSH1 0x40 MLOAD RETURNDATASIZE PUSH1 0x0 DUP3 RETURNDATACOPY RETURNDATASIZE SWAP1 REVERT JUMPDEST PUSH1 0x3 SLOAD PUSH1 0x40 MLOAD PUSH4 0x23B872DD PUSH1 0xE0 SHL DUP2 MSTORE CALLER PUSH1 0x4 DUP3 ADD MSTORE ADDRESS PUSH1 0x24 DUP3 ADD MSTORE PUSH1 0x44 DUP2 ADD SWAP3 SWAP1 SWAP3 MSTORE PUSH1 0x20 SWAP1 DUP3 SWAP1 PUSH1 0x1 PUSH1 0x1 PUSH1 0xA0 SHL SUB AND DUP2 PUSH1 0x0 DUP2 PUSH1 0x64 DUP2 ADD PUSH2 0x15F4 JUMP INVALID LOG2 PUSH5 0x6970667358 0x22 SLT KECCAK256 SDIV 0xAA 0xFB JUMPI PUSH20 0x894A3E1575FBDA35E36376443980F01C6BE0D273 0xCB 0x22 PUSH5 0xD911B16C64 PUSH20 0x6F6C634300081300330000000000000000000000 "
        },
        "methodIdentifiers": {
          "balanceOf(address)": "70a08231",
          "canClaim(address)": "bf3506c1",
          "claim()": "4e71d92d",
          "deposit(uint256)": "b6b55f25",
          "depositRequired()": "2a9605f4",
          "getRate()": "679aefce",
          "getScalar(uint256)": "8769f9f9",
          "getToken()": "21df0da7",
          "getTotalWeWe(uint256)": "5394aa3f",
          "maxRate()": "ece1d6e5",
          "maxSupply()": "d5abeb01",
          "merge(uint256)": "24a47aeb",
          "mergeAndSell(uint256,address,bytes)": "213897fe",
          "minRate()": "0cb60443",
          "owner()": "8da5cb5b",
          "paused()": "5c975abb",
          "ratio()": "71ca337d",
          "receiveApproval(address,uint256,address,bytes)": "8f4ffcb1",
          "renounceOwnership()": "715018a6",
          "setMaxSupply(uint256)": "6f8b44b0",
          "setTreasury(address)": "f0f44260",
          "setVestingDuration(uint32)": "9636d881",
          "setWhiteList(address)": "39e899ee",
          "slope()": "83caf275",
          "sweep()": "35faa416",
          "togglePause()": "c4ae3168",
          "totalVested()": "199cbc54",
          "transferOwnership(address)": "f2fde38b",
          "treasury()": "61d027b3",
          "vestingDuration()": "1514617e",
          "vestings(address)": "daf49863",
          "wewe()": "e1f26f22",
          "whiteList(address)": "372c12b1"
        }
      }
    }
  }
}