{
  "contracts/core/merge/BroMerge.sol": {
    "BroMerge": {
      "abi": [
        {
          "inputs": [],
          "stateMutability": "nonpayable",
          "type": "constructor"
        },
        {
          "anonymous": false,
          "inputs": [
            {
              "indexed": false,
              "internalType": "uint256",
              "name": "amount",
              "type": "uint256"
            },
            {
              "indexed": true,
              "internalType": "address",
              "name": "account",
              "type": "address"
            }
          ],
          "name": "Eaten",
          "type": "event"
        },
        {
          "anonymous": false,
          "inputs": [
            {
              "indexed": true,
              "internalType": "address",
              "name": "previousOwner",
              "type": "address"
            },
            {
              "indexed": true,
              "internalType": "address",
              "name": "newOwner",
              "type": "address"
            }
          ],
          "name": "OwnershipTransferred",
          "type": "event"
        },
        {
          "inputs": [
            {
              "internalType": "uint256",
              "name": "amount",
              "type": "uint256"
            }
          ],
          "name": "deposit",
          "outputs": [],
          "stateMutability": "nonpayable",
          "type": "function"
        },
        {
          "inputs": [],
          "name": "depositAll",
          "outputs": [],
          "stateMutability": "nonpayable",
          "type": "function"
        },
        {
          "inputs": [],
          "name": "getRate",
          "outputs": [
            {
              "internalType": "uint256",
              "name": "",
              "type": "uint256"
            }
          ],
          "stateMutability": "view",
          "type": "function"
        },
        {
          "inputs": [],
          "name": "getToken",
          "outputs": [
            {
              "internalType": "address",
              "name": "",
              "type": "address"
            }
          ],
          "stateMutability": "view",
          "type": "function"
        },
        {
          "inputs": [],
          "name": "owner",
          "outputs": [
            {
              "internalType": "address",
              "name": "",
              "type": "address"
            }
          ],
          "stateMutability": "view",
          "type": "function"
        },
        {
          "inputs": [
            {
              "internalType": "address",
              "name": "from",
              "type": "address"
            },
            {
              "internalType": "uint256",
              "name": "amount",
              "type": "uint256"
            },
            {
              "internalType": "address",
              "name": "token",
              "type": "address"
            },
            {
              "internalType": "bytes",
              "name": "",
              "type": "bytes"
            }
          ],
          "name": "receiveApproval",
          "outputs": [],
          "stateMutability": "nonpayable",
          "type": "function"
        },
        {
          "inputs": [],
          "name": "renounceOwnership",
          "outputs": [],
          "stateMutability": "nonpayable",
          "type": "function"
        },
        {
          "inputs": [
            {
              "internalType": "uint256",
              "name": "rate",
              "type": "uint256"
            }
          ],
          "name": "setRate",
          "outputs": [],
          "stateMutability": "nonpayable",
          "type": "function"
        },
        {
          "inputs": [
            {
              "internalType": "address",
              "name": "newOwner",
              "type": "address"
            }
          ],
          "name": "transferOwnership",
          "outputs": [],
          "stateMutability": "nonpayable",
          "type": "function"
        },
        {
          "inputs": [],
          "name": "wewe",
          "outputs": [
            {
              "internalType": "address",
              "name": "",
              "type": "address"
            }
          ],
          "stateMutability": "view",
          "type": "function"
        }
      ],
      "evm": {
        "bytecode": {
          "linkReferences": {},
          "object": "608080604052346100a357600160008181558154336001600160a01b03198083168217909455736b9bb36519538e0c073894e964e90172e1c0b41f939290916001600160a01b0316907f8be0079c531659141344cd1fd0a4f28419497f9722a3daafe3b4186f6b6457e09080a360646002557393750140c2ecea27a53c6ed30380829607815a3181600354161760035560045416176004556108bd90816100a98239f35b600080fdfe6080604081815260048036101561001557600080fd5b600092833560e01c90816321df0da71461059e5750806334fcf43714610518578063679aefce146104f9578063715018a6146104995780638da5cb5b146104705780638f4ffcb114610300578063b6b55f2514610217578063de5f626814610180578063e1f26f22146101595763f2fde38b1461009157600080fd5b34610155576020366003190112610155576100aa6105c3565b906100b36105de565b6001600160a01b03918216928315610103575050600180546001600160a01b031981168417909155167f8be0079c531659141344cd1fd0a4f28419497f9722a3daafe3b4186f6b6457e08380a380f35b906020608492519162461bcd60e51b8352820152602660248201527f4f776e61626c653a206e6577206f776e657220697320746865207a65726f206160448201526564647265737360d01b6064820152fd5b8280fd5b50346101555782600319360112610155575490516001600160a01b03909116815260209150f35b50903461015557826003193601126101555760035481516370a0823160e01b815233938101939093526001600160a01b0316602083602481845afa91821561020e575083916101d9575b6101d692503391610686565b80f35b90506020823d8211610206575b816101f360209383610636565b81010312610155576101d69151906101ca565b3d91506101e6565b513d85823e3d90fd5b508290346102fc576020806003193601126101555760035484516370a0823160e01b815233848201528335936001600160a01b0390921692908181602481875afa9081156102f25790859187916102bd575b501061027b57846101d6338587610686565b855162461bcd60e51b815291820152601e60248201527f42726f4d657267653a20496e73756666696369656e742062616c616e63650000604482015260649150fd5b809250838092503d83116102eb575b6102d68183610636565b810103126102e75784905188610269565b8580fd5b503d6102cc565b87513d88823e3d90fd5b5080fd5b508290346102fc5760803660031901126102fc5761031c6105c3565b906001600160a01b0390604435828116908190036104685760643567ffffffffffffffff80821161046c573660238301121561046c578184013590811161046c5736910160240111610468576002855414610425576002855582825416908133036103e2570361039f5750906103989160035416602435610686565b6001815580f35b606490602086519162461bcd60e51b8352820152601b60248201527f47656e6572696345617465723a20496e76616c696420746f6b656e00000000006044820152fd5b865162461bcd60e51b8152602081850152601c60248201527f47656e6572696345617465723a20496e76616c69642073656e646572000000006044820152606490fd5b855162461bcd60e51b8152602081840152601f60248201527f5265656e7472616e637947756172643a207265656e7472616e742063616c6c006044820152606490fd5b8480fd5b8680fd5b5050346102fc57816003193601126102fc5760015490516001600160a01b039091168152602090f35b83346104f657806003193601126104f6576104b26105de565b600180546001600160a01b0319811690915581906001600160a01b03167f8be0079c531659141344cd1fd0a4f28419497f9722a3daafe3b4186f6b6457e08280a380f35b80fd5b5050346102fc57816003193601126102fc576020906002549051908152f35b5034610155576020366003190112610155578035916105356105de565b8215610550575050806002540361054a575080f35b60025580f35b906020608492519162461bcd60e51b8352820152602260248201527f45617465723a2052617465206d7573742062652067726561746572207468616e604482015261020360f41b6064820152fd5b8490346102fc57816003193601126102fc576003546001600160a01b03168152602090f35b600435906001600160a01b03821682036105d957565b600080fd5b6001546001600160a01b031633036105f257565b606460405162461bcd60e51b815260206004820152602060248201527f4f776e61626c653a2063616c6c6572206973206e6f7420746865206f776e65726044820152fd5b90601f8019910116810190811067ffffffffffffffff82111761065857604052565b634e487b7160e01b600052604160045260246000fd5b908160209103126105d9575180151581036105d95790565b929160025480850290858204148515171561087157606490049360018060a01b039160048381541693604092835180966370a0823160e01b825230858301528160246020998a935afa90811561086657600091610839575b5089116107e0578582606481936000885195869485936323b872dd60e01b8552169c8d8a8501523060248501528b6044850152165af180156107d557926000889360449389966107b8575b5082541686519b8c95869463a9059cbb60e01b865285015260248401525af19586156107ad577fb6653926b7a3eed46d45f9afdd63c25ddeb3bc891f5c5cd0eb79656f07ff6f11949596610780575b5051908152a2565b61079f90843d86116107a6575b6107978183610636565b81019061066e565b5038610778565b503d61078d565b50513d6000823e3d90fd5b6107ce90873d89116107a6576107978183610636565b5038610729565b84513d6000823e3d90fd5b835162461bcd60e51b8152808401879052602d60248201527f45617465723a20496e73756666696369656e7420746f6b656e2062616c616e6360448201526c32903a37903a3930b739b332b960991b6064820152608490fd5b908782813d831161085f575b61084f8183610636565b810103126104f6575051386106de565b503d610845565b85513d6000823e3d90fd5b634e487b7160e01b600052601160045260246000fdfea2646970667358221220368f6761be286079efaa5a6eec8ae2f19502cfe799d8d19db0de9b6694f20e7c64736f6c63430008130033",
          "opcodes": "PUSH1 0x80 DUP1 PUSH1 0x40 MSTORE CALLVALUE PUSH2 0xA3 JUMPI PUSH1 0x1 PUSH1 0x0 DUP2 DUP2 SSTORE DUP2 SLOAD CALLER PUSH1 0x1 PUSH1 0x1 PUSH1 0xA0 SHL SUB NOT DUP1 DUP4 AND DUP3 OR SWAP1 SWAP5 SSTORE PUSH20 0x6B9BB36519538E0C073894E964E90172E1C0B41F SWAP4 SWAP3 SWAP1 SWAP2 PUSH1 0x1 PUSH1 0x1 PUSH1 0xA0 SHL SUB AND SWAP1 PUSH32 0x8BE0079C531659141344CD1FD0A4F28419497F9722A3DAAFE3B4186F6B6457E0 SWAP1 DUP1 LOG3 PUSH1 0x64 PUSH1 0x2 SSTORE PUSH20 0x93750140C2ECEA27A53C6ED30380829607815A31 DUP2 PUSH1 0x3 SLOAD AND OR PUSH1 0x3 SSTORE PUSH1 0x4 SLOAD AND OR PUSH1 0x4 SSTORE PUSH2 0x8BD SWAP1 DUP2 PUSH2 0xA9 DUP3 CODECOPY RETURN JUMPDEST PUSH1 0x0 DUP1 REVERT INVALID PUSH1 0x80 PUSH1 0x40 DUP2 DUP2 MSTORE PUSH1 0x4 DUP1 CALLDATASIZE LT ISZERO PUSH2 0x15 JUMPI PUSH1 0x0 DUP1 REVERT JUMPDEST PUSH1 0x0 SWAP3 DUP4 CALLDATALOAD PUSH1 0xE0 SHR SWAP1 DUP2 PUSH4 0x21DF0DA7 EQ PUSH2 0x59E JUMPI POP DUP1 PUSH4 0x34FCF437 EQ PUSH2 0x518 JUMPI DUP1 PUSH4 0x679AEFCE EQ PUSH2 0x4F9 JUMPI DUP1 PUSH4 0x715018A6 EQ PUSH2 0x499 JUMPI DUP1 PUSH4 0x8DA5CB5B EQ PUSH2 0x470 JUMPI DUP1 PUSH4 0x8F4FFCB1 EQ PUSH2 0x300 JUMPI DUP1 PUSH4 0xB6B55F25 EQ PUSH2 0x217 JUMPI DUP1 PUSH4 0xDE5F6268 EQ PUSH2 0x180 JUMPI DUP1 PUSH4 0xE1F26F22 EQ PUSH2 0x159 JUMPI PUSH4 0xF2FDE38B EQ PUSH2 0x91 JUMPI PUSH1 0x0 DUP1 REVERT JUMPDEST CALLVALUE PUSH2 0x155 JUMPI PUSH1 0x20 CALLDATASIZE PUSH1 0x3 NOT ADD SLT PUSH2 0x155 JUMPI PUSH2 0xAA PUSH2 0x5C3 JUMP JUMPDEST SWAP1 PUSH2 0xB3 PUSH2 0x5DE JUMP JUMPDEST PUSH1 0x1 PUSH1 0x1 PUSH1 0xA0 SHL SUB SWAP2 DUP3 AND SWAP3 DUP4 ISZERO PUSH2 0x103 JUMPI POP POP PUSH1 0x1 DUP1 SLOAD PUSH1 0x1 PUSH1 0x1 PUSH1 0xA0 SHL SUB NOT DUP2 AND DUP5 OR SWAP1 SWAP2 SSTORE AND PUSH32 0x8BE0079C531659141344CD1FD0A4F28419497F9722A3DAAFE3B4186F6B6457E0 DUP4 DUP1 LOG3 DUP1 RETURN JUMPDEST SWAP1 PUSH1 0x20 PUSH1 0x84 SWAP3 MLOAD SWAP2 PUSH3 0x461BCD PUSH1 0xE5 SHL DUP4 MSTORE DUP3 ADD MSTORE PUSH1 0x26 PUSH1 0x24 DUP3 ADD MSTORE PUSH32 0x4F776E61626C653A206E6577206F776E657220697320746865207A65726F2061 PUSH1 0x44 DUP3 ADD MSTORE PUSH6 0x646472657373 PUSH1 0xD0 SHL PUSH1 0x64 DUP3 ADD MSTORE REVERT JUMPDEST DUP3 DUP1 REVERT JUMPDEST POP CALLVALUE PUSH2 0x155 JUMPI DUP3 PUSH1 0x3 NOT CALLDATASIZE ADD SLT PUSH2 0x155 JUMPI SLOAD SWAP1 MLOAD PUSH1 0x1 PUSH1 0x1 PUSH1 0xA0 SHL SUB SWAP1 SWAP2 AND DUP2 MSTORE PUSH1 0x20 SWAP2 POP RETURN JUMPDEST POP SWAP1 CALLVALUE PUSH2 0x155 JUMPI DUP3 PUSH1 0x3 NOT CALLDATASIZE ADD SLT PUSH2 0x155 JUMPI PUSH1 0x3 SLOAD DUP2 MLOAD PUSH4 0x70A08231 PUSH1 0xE0 SHL DUP2 MSTORE CALLER SWAP4 DUP2 ADD SWAP4 SWAP1 SWAP4 MSTORE PUSH1 0x1 PUSH1 0x1 PUSH1 0xA0 SHL SUB AND PUSH1 0x20 DUP4 PUSH1 0x24 DUP2 DUP5 GAS STATICCALL SWAP2 DUP3 ISZERO PUSH2 0x20E JUMPI POP DUP4 SWAP2 PUSH2 0x1D9 JUMPI JUMPDEST PUSH2 0x1D6 SWAP3 POP CALLER SWAP2 PUSH2 0x686 JUMP JUMPDEST DUP1 RETURN JUMPDEST SWAP1 POP PUSH1 0x20 DUP3 RETURNDATASIZE DUP3 GT PUSH2 0x206 JUMPI JUMPDEST DUP2 PUSH2 0x1F3 PUSH1 0x20 SWAP4 DUP4 PUSH2 0x636 JUMP JUMPDEST DUP2 ADD SUB SLT PUSH2 0x155 JUMPI PUSH2 0x1D6 SWAP2 MLOAD SWAP1 PUSH2 0x1CA JUMP JUMPDEST RETURNDATASIZE SWAP2 POP PUSH2 0x1E6 JUMP JUMPDEST MLOAD RETURNDATASIZE DUP6 DUP3 RETURNDATACOPY RETURNDATASIZE SWAP1 REVERT JUMPDEST POP DUP3 SWAP1 CALLVALUE PUSH2 0x2FC JUMPI PUSH1 0x20 DUP1 PUSH1 0x3 NOT CALLDATASIZE ADD SLT PUSH2 0x155 JUMPI PUSH1 0x3 SLOAD DUP5 MLOAD PUSH4 0x70A08231 PUSH1 0xE0 SHL DUP2 MSTORE CALLER DUP5 DUP3 ADD MSTORE DUP4 CALLDATALOAD SWAP4 PUSH1 0x1 PUSH1 0x1 PUSH1 0xA0 SHL SUB SWAP1 SWAP3 AND SWAP3 SWAP1 DUP2 DUP2 PUSH1 0x24 DUP2 DUP8 GAS STATICCALL SWAP1 DUP2 ISZERO PUSH2 0x2F2 JUMPI SWAP1 DUP6 SWAP2 DUP8 SWAP2 PUSH2 0x2BD JUMPI JUMPDEST POP LT PUSH2 0x27B JUMPI DUP5 PUSH2 0x1D6 CALLER DUP6 DUP8 PUSH2 0x686 JUMP JUMPDEST DUP6 MLOAD PUSH3 0x461BCD PUSH1 0xE5 SHL DUP2 MSTORE SWAP2 DUP3 ADD MSTORE PUSH1 0x1E PUSH1 0x24 DUP3 ADD MSTORE PUSH32 0x42726F4D657267653A20496E73756666696369656E742062616C616E63650000 PUSH1 0x44 DUP3 ADD MSTORE PUSH1 0x64 SWAP2 POP REVERT JUMPDEST DUP1 SWAP3 POP DUP4 DUP1 SWAP3 POP RETURNDATASIZE DUP4 GT PUSH2 0x2EB JUMPI JUMPDEST PUSH2 0x2D6 DUP2 DUP4 PUSH2 0x636 JUMP JUMPDEST DUP2 ADD SUB SLT PUSH2 0x2E7 JUMPI DUP5 SWAP1 MLOAD DUP9 PUSH2 0x269 JUMP JUMPDEST DUP6 DUP1 REVERT JUMPDEST POP RETURNDATASIZE PUSH2 0x2CC JUMP JUMPDEST DUP8 MLOAD RETURNDATASIZE DUP9 DUP3 RETURNDATACOPY RETURNDATASIZE SWAP1 REVERT JUMPDEST POP DUP1 REVERT JUMPDEST POP DUP3 SWAP1 CALLVALUE PUSH2 0x2FC JUMPI PUSH1 0x80 CALLDATASIZE PUSH1 0x3 NOT ADD SLT PUSH2 0x2FC JUMPI PUSH2 0x31C PUSH2 0x5C3 JUMP JUMPDEST SWAP1 PUSH1 0x1 PUSH1 0x1 PUSH1 0xA0 SHL SUB SWAP1 PUSH1 0x44 CALLDATALOAD DUP3 DUP2 AND SWAP1 DUP2 SWAP1 SUB PUSH2 0x468 JUMPI PUSH1 0x64 CALLDATALOAD PUSH8 0xFFFFFFFFFFFFFFFF DUP1 DUP3 GT PUSH2 0x46C JUMPI CALLDATASIZE PUSH1 0x23 DUP4 ADD SLT ISZERO PUSH2 0x46C JUMPI DUP2 DUP5 ADD CALLDATALOAD SWAP1 DUP2 GT PUSH2 0x46C JUMPI CALLDATASIZE SWAP2 ADD PUSH1 0x24 ADD GT PUSH2 0x468 JUMPI PUSH1 0x2 DUP6 SLOAD EQ PUSH2 0x425 JUMPI PUSH1 0x2 DUP6 SSTORE DUP3 DUP3 SLOAD AND SWAP1 DUP2 CALLER SUB PUSH2 0x3E2 JUMPI SUB PUSH2 0x39F JUMPI POP SWAP1 PUSH2 0x398 SWAP2 PUSH1 0x3 SLOAD AND PUSH1 0x24 CALLDATALOAD PUSH2 0x686 JUMP JUMPDEST PUSH1 0x1 DUP2 SSTORE DUP1 RETURN JUMPDEST PUSH1 0x64 SWAP1 PUSH1 0x20 DUP7 MLOAD SWAP2 PUSH3 0x461BCD PUSH1 0xE5 SHL DUP4 MSTORE DUP3 ADD MSTORE PUSH1 0x1B PUSH1 0x24 DUP3 ADD MSTORE PUSH32 0x47656E6572696345617465723A20496E76616C696420746F6B656E0000000000 PUSH1 0x44 DUP3 ADD MSTORE REVERT JUMPDEST DUP7 MLOAD PUSH3 0x461BCD PUSH1 0xE5 SHL DUP2 MSTORE PUSH1 0x20 DUP2 DUP6 ADD MSTORE PUSH1 0x1C PUSH1 0x24 DUP3 ADD MSTORE PUSH32 0x47656E6572696345617465723A20496E76616C69642073656E64657200000000 PUSH1 0x44 DUP3 ADD MSTORE PUSH1 0x64 SWAP1 REVERT JUMPDEST DUP6 MLOAD PUSH3 0x461BCD PUSH1 0xE5 SHL DUP2 MSTORE PUSH1 0x20 DUP2 DUP5 ADD MSTORE PUSH1 0x1F PUSH1 0x24 DUP3 ADD MSTORE PUSH32 0x5265656E7472616E637947756172643A207265656E7472616E742063616C6C00 PUSH1 0x44 DUP3 ADD MSTORE PUSH1 0x64 SWAP1 REVERT JUMPDEST DUP5 DUP1 REVERT JUMPDEST DUP7 DUP1 REVERT JUMPDEST POP POP CALLVALUE PUSH2 0x2FC JUMPI DUP2 PUSH1 0x3 NOT CALLDATASIZE ADD SLT PUSH2 0x2FC JUMPI PUSH1 0x1 SLOAD SWAP1 MLOAD PUSH1 0x1 PUSH1 0x1 PUSH1 0xA0 SHL SUB SWAP1 SWAP2 AND DUP2 MSTORE PUSH1 0x20 SWAP1 RETURN JUMPDEST DUP4 CALLVALUE PUSH2 0x4F6 JUMPI DUP1 PUSH1 0x3 NOT CALLDATASIZE ADD SLT PUSH2 0x4F6 JUMPI PUSH2 0x4B2 PUSH2 0x5DE JUMP JUMPDEST PUSH1 0x1 DUP1 SLOAD PUSH1 0x1 PUSH1 0x1 PUSH1 0xA0 SHL SUB NOT DUP2 AND SWAP1 SWAP2 SSTORE DUP2 SWAP1 PUSH1 0x1 PUSH1 0x1 PUSH1 0xA0 SHL SUB AND PUSH32 0x8BE0079C531659141344CD1FD0A4F28419497F9722A3DAAFE3B4186F6B6457E0 DUP3 DUP1 LOG3 DUP1 RETURN JUMPDEST DUP1 REVERT JUMPDEST POP POP CALLVALUE PUSH2 0x2FC JUMPI DUP2 PUSH1 0x3 NOT CALLDATASIZE ADD SLT PUSH2 0x2FC JUMPI PUSH1 0x20 SWAP1 PUSH1 0x2 SLOAD SWAP1 MLOAD SWAP1 DUP2 MSTORE RETURN JUMPDEST POP CALLVALUE PUSH2 0x155 JUMPI PUSH1 0x20 CALLDATASIZE PUSH1 0x3 NOT ADD SLT PUSH2 0x155 JUMPI DUP1 CALLDATALOAD SWAP2 PUSH2 0x535 PUSH2 0x5DE JUMP JUMPDEST DUP3 ISZERO PUSH2 0x550 JUMPI POP POP DUP1 PUSH1 0x2 SLOAD SUB PUSH2 0x54A JUMPI POP DUP1 RETURN JUMPDEST PUSH1 0x2 SSTORE DUP1 RETURN JUMPDEST SWAP1 PUSH1 0x20 PUSH1 0x84 SWAP3 MLOAD SWAP2 PUSH3 0x461BCD PUSH1 0xE5 SHL DUP4 MSTORE DUP3 ADD MSTORE PUSH1 0x22 PUSH1 0x24 DUP3 ADD MSTORE PUSH32 0x45617465723A2052617465206D7573742062652067726561746572207468616E PUSH1 0x44 DUP3 ADD MSTORE PUSH2 0x203 PUSH1 0xF4 SHL PUSH1 0x64 DUP3 ADD MSTORE REVERT JUMPDEST DUP5 SWAP1 CALLVALUE PUSH2 0x2FC JUMPI DUP2 PUSH1 0x3 NOT CALLDATASIZE ADD SLT PUSH2 0x2FC JUMPI PUSH1 0x3 SLOAD PUSH1 0x1 PUSH1 0x1 PUSH1 0xA0 SHL SUB AND DUP2 MSTORE PUSH1 0x20 SWAP1 RETURN JUMPDEST PUSH1 0x4 CALLDATALOAD SWAP1 PUSH1 0x1 PUSH1 0x1 PUSH1 0xA0 SHL SUB DUP3 AND DUP3 SUB PUSH2 0x5D9 JUMPI JUMP JUMPDEST PUSH1 0x0 DUP1 REVERT JUMPDEST PUSH1 0x1 SLOAD PUSH1 0x1 PUSH1 0x1 PUSH1 0xA0 SHL SUB AND CALLER SUB PUSH2 0x5F2 JUMPI JUMP JUMPDEST PUSH1 0x64 PUSH1 0x40 MLOAD PUSH3 0x461BCD PUSH1 0xE5 SHL DUP2 MSTORE PUSH1 0x20 PUSH1 0x4 DUP3 ADD MSTORE PUSH1 0x20 PUSH1 0x24 DUP3 ADD MSTORE PUSH32 0x4F776E61626C653A2063616C6C6572206973206E6F7420746865206F776E6572 PUSH1 0x44 DUP3 ADD MSTORE REVERT JUMPDEST SWAP1 PUSH1 0x1F DUP1 NOT SWAP2 ADD AND DUP2 ADD SWAP1 DUP2 LT PUSH8 0xFFFFFFFFFFFFFFFF DUP3 GT OR PUSH2 0x658 JUMPI PUSH1 0x40 MSTORE JUMP JUMPDEST PUSH4 0x4E487B71 PUSH1 0xE0 SHL PUSH1 0x0 MSTORE PUSH1 0x41 PUSH1 0x4 MSTORE PUSH1 0x24 PUSH1 0x0 REVERT JUMPDEST SWAP1 DUP2 PUSH1 0x20 SWAP2 SUB SLT PUSH2 0x5D9 JUMPI MLOAD DUP1 ISZERO ISZERO DUP2 SUB PUSH2 0x5D9 JUMPI SWAP1 JUMP JUMPDEST SWAP3 SWAP2 PUSH1 0x2 SLOAD DUP1 DUP6 MUL SWAP1 DUP6 DUP3 DIV EQ DUP6 ISZERO OR ISZERO PUSH2 0x871 JUMPI PUSH1 0x64 SWAP1 DIV SWAP4 PUSH1 0x1 DUP1 PUSH1 0xA0 SHL SUB SWAP2 PUSH1 0x4 DUP4 DUP2 SLOAD AND SWAP4 PUSH1 0x40 SWAP3 DUP4 MLOAD DUP1 SWAP7 PUSH4 0x70A08231 PUSH1 0xE0 SHL DUP3 MSTORE ADDRESS DUP6 DUP4 ADD MSTORE DUP2 PUSH1 0x24 PUSH1 0x20 SWAP10 DUP11 SWAP4 GAS STATICCALL SWAP1 DUP2 ISZERO PUSH2 0x866 JUMPI PUSH1 0x0 SWAP2 PUSH2 0x839 JUMPI JUMPDEST POP DUP10 GT PUSH2 0x7E0 JUMPI DUP6 DUP3 PUSH1 0x64 DUP2 SWAP4 PUSH1 0x0 DUP9 MLOAD SWAP6 DUP7 SWAP5 DUP6 SWAP4 PUSH4 0x23B872DD PUSH1 0xE0 SHL DUP6 MSTORE AND SWAP13 DUP14 DUP11 DUP6 ADD MSTORE ADDRESS PUSH1 0x24 DUP6 ADD MSTORE DUP12 PUSH1 0x44 DUP6 ADD MSTORE AND GAS CALL DUP1 ISZERO PUSH2 0x7D5 JUMPI SWAP3 PUSH1 0x0 DUP9 SWAP4 PUSH1 0x44 SWAP4 DUP10 SWAP7 PUSH2 0x7B8 JUMPI JUMPDEST POP DUP3 SLOAD AND DUP7 MLOAD SWAP12 DUP13 SWAP6 DUP7 SWAP5 PUSH4 0xA9059CBB PUSH1 0xE0 SHL DUP7 MSTORE DUP6 ADD MSTORE PUSH1 0x24 DUP5 ADD MSTORE GAS CALL SWAP6 DUP7 ISZERO PUSH2 0x7AD JUMPI PUSH32 0xB6653926B7A3EED46D45F9AFDD63C25DDEB3BC891F5C5CD0EB79656F07FF6F11 SWAP5 SWAP6 SWAP7 PUSH2 0x780 JUMPI JUMPDEST POP MLOAD SWAP1 DUP2 MSTORE LOG2 JUMP JUMPDEST PUSH2 0x79F SWAP1 DUP5 RETURNDATASIZE DUP7 GT PUSH2 0x7A6 JUMPI JUMPDEST PUSH2 0x797 DUP2 DUP4 PUSH2 0x636 JUMP JUMPDEST DUP2 ADD SWAP1 PUSH2 0x66E JUMP JUMPDEST POP CODESIZE PUSH2 0x778 JUMP JUMPDEST POP RETURNDATASIZE PUSH2 0x78D JUMP JUMPDEST POP MLOAD RETURNDATASIZE PUSH1 0x0 DUP3 RETURNDATACOPY RETURNDATASIZE SWAP1 REVERT JUMPDEST PUSH2 0x7CE SWAP1 DUP8 RETURNDATASIZE DUP10 GT PUSH2 0x7A6 JUMPI PUSH2 0x797 DUP2 DUP4 PUSH2 0x636 JUMP JUMPDEST POP CODESIZE PUSH2 0x729 JUMP JUMPDEST DUP5 MLOAD RETURNDATASIZE PUSH1 0x0 DUP3 RETURNDATACOPY RETURNDATASIZE SWAP1 REVERT JUMPDEST DUP4 MLOAD PUSH3 0x461BCD PUSH1 0xE5 SHL DUP2 MSTORE DUP1 DUP5 ADD DUP8 SWAP1 MSTORE PUSH1 0x2D PUSH1 0x24 DUP3 ADD MSTORE PUSH32 0x45617465723A20496E73756666696369656E7420746F6B656E2062616C616E63 PUSH1 0x44 DUP3 ADD MSTORE PUSH13 0x32903A37903A3930B739B332B9 PUSH1 0x99 SHL PUSH1 0x64 DUP3 ADD MSTORE PUSH1 0x84 SWAP1 REVERT JUMPDEST SWAP1 DUP8 DUP3 DUP2 RETURNDATASIZE DUP4 GT PUSH2 0x85F JUMPI JUMPDEST PUSH2 0x84F DUP2 DUP4 PUSH2 0x636 JUMP JUMPDEST DUP2 ADD SUB SLT PUSH2 0x4F6 JUMPI POP MLOAD CODESIZE PUSH2 0x6DE JUMP JUMPDEST POP RETURNDATASIZE PUSH2 0x845 JUMP JUMPDEST DUP6 MLOAD RETURNDATASIZE PUSH1 0x0 DUP3 RETURNDATACOPY RETURNDATASIZE SWAP1 REVERT JUMPDEST PUSH4 0x4E487B71 PUSH1 0xE0 SHL PUSH1 0x0 MSTORE PUSH1 0x11 PUSH1 0x4 MSTORE PUSH1 0x24 PUSH1 0x0 REVERT INVALID LOG2 PUSH5 0x6970667358 0x22 SLT KECCAK256 CALLDATASIZE DUP16 PUSH8 0x61BE286079EFAA5A PUSH15 0xEC8AE2F19502CFE799D8D19DB0DE9B PUSH7 0x94F20E7C64736F PUSH13 0x63430008130033000000000000 "
        },
        "methodIdentifiers": {
          "deposit(uint256)": "b6b55f25",
          "depositAll()": "de5f6268",
          "getRate()": "679aefce",
          "getToken()": "21df0da7",
          "owner()": "8da5cb5b",
          "receiveApproval(address,uint256,address,bytes)": "8f4ffcb1",
          "renounceOwnership()": "715018a6",
          "setRate(uint256)": "34fcf437",
          "transferOwnership(address)": "f2fde38b",
          "wewe()": "e1f26f22"
        }
      }
    }
  }
}