{
  "contracts/core/Farm.sol": {
    "Farm": {
      "abi": [
        {
          "inputs": [
            {
              "internalType": "contract IERC20",
              "name": "_reward",
              "type": "address"
            }
          ],
          "stateMutability": "nonpayable",
          "type": "constructor"
        },
        {
          "anonymous": false,
          "inputs": [
            {
              "indexed": true,
              "internalType": "address",
              "name": "user",
              "type": "address"
            },
            {
              "indexed": true,
              "internalType": "uint256",
              "name": "pid",
              "type": "uint256"
            },
            {
              "indexed": false,
              "internalType": "uint256",
              "name": "amount",
              "type": "uint256"
            },
            {
              "indexed": true,
              "internalType": "address",
              "name": "to",
              "type": "address"
            }
          ],
          "name": "Deposit",
          "type": "event"
        },
        {
          "anonymous": false,
          "inputs": [
            {
              "indexed": true,
              "internalType": "address",
              "name": "user",
              "type": "address"
            },
            {
              "indexed": true,
              "internalType": "uint256",
              "name": "pid",
              "type": "uint256"
            },
            {
              "indexed": false,
              "internalType": "uint256",
              "name": "amount",
              "type": "uint256"
            },
            {
              "indexed": true,
              "internalType": "address",
              "name": "to",
              "type": "address"
            }
          ],
          "name": "EmergencyWithdraw",
          "type": "event"
        },
        {
          "anonymous": false,
          "inputs": [
            {
              "indexed": true,
              "internalType": "address",
              "name": "user",
              "type": "address"
            },
            {
              "indexed": true,
              "internalType": "uint256",
              "name": "pid",
              "type": "uint256"
            },
            {
              "indexed": false,
              "internalType": "uint256",
              "name": "amount",
              "type": "uint256"
            }
          ],
          "name": "Harvest",
          "type": "event"
        },
        {
          "anonymous": false,
          "inputs": [
            {
              "indexed": true,
              "internalType": "uint256",
              "name": "pid",
              "type": "uint256"
            },
            {
              "indexed": false,
              "internalType": "uint256",
              "name": "allocPoint",
              "type": "uint256"
            },
            {
              "indexed": true,
              "internalType": "contract IERC20",
              "name": "lpToken",
              "type": "address"
            },
            {
              "indexed": true,
              "internalType": "contract IRewarder",
              "name": "rewarder",
              "type": "address"
            }
          ],
          "name": "LogPoolAddition",
          "type": "event"
        },
        {
          "anonymous": false,
          "inputs": [
            {
              "indexed": true,
              "internalType": "uint256",
              "name": "pid",
              "type": "uint256"
            },
            {
              "indexed": false,
              "internalType": "uint256",
              "name": "amount",
              "type": "uint256"
            }
          ],
          "name": "LogPoolAllocation",
          "type": "event"
        },
        {
          "anonymous": false,
          "inputs": [
            {
              "indexed": false,
              "internalType": "uint256",
              "name": "amount",
              "type": "uint256"
            }
          ],
          "name": "LogSetEmisionsPerBlock",
          "type": "event"
        },
        {
          "anonymous": false,
          "inputs": [
            {
              "indexed": true,
              "internalType": "uint256",
              "name": "pid",
              "type": "uint256"
            },
            {
              "indexed": false,
              "internalType": "uint256",
              "name": "allocPoint",
              "type": "uint256"
            },
            {
              "indexed": true,
              "internalType": "contract IRewarder",
              "name": "rewarder",
              "type": "address"
            },
            {
              "indexed": false,
              "internalType": "bool",
              "name": "overwrite",
              "type": "bool"
            }
          ],
          "name": "LogSetPool",
          "type": "event"
        },
        {
          "anonymous": false,
          "inputs": [
            {
              "indexed": true,
              "internalType": "uint256",
              "name": "pid",
              "type": "uint256"
            },
            {
              "indexed": false,
              "internalType": "uint8",
              "name": "weight",
              "type": "uint8"
            }
          ],
          "name": "LogSetPoolWeight",
          "type": "event"
        },
        {
          "anonymous": false,
          "inputs": [
            {
              "indexed": true,
              "internalType": "uint256",
              "name": "pid",
              "type": "uint256"
            },
            {
              "indexed": false,
              "internalType": "uint64",
              "name": "lastRewardBlock",
              "type": "uint64"
            },
            {
              "indexed": false,
              "internalType": "uint256",
              "name": "lpSupply",
              "type": "uint256"
            },
            {
              "indexed": false,
              "internalType": "uint256",
              "name": "accChaosPerShare",
              "type": "uint256"
            }
          ],
          "name": "LogUpdatePool",
          "type": "event"
        },
        {
          "anonymous": false,
          "inputs": [
            {
              "indexed": true,
              "internalType": "address",
              "name": "previousOwner",
              "type": "address"
            },
            {
              "indexed": true,
              "internalType": "address",
              "name": "newOwner",
              "type": "address"
            }
          ],
          "name": "OwnershipTransferred",
          "type": "event"
        },
        {
          "anonymous": false,
          "inputs": [
            {
              "indexed": true,
              "internalType": "address",
              "name": "user",
              "type": "address"
            },
            {
              "indexed": true,
              "internalType": "uint256",
              "name": "pid",
              "type": "uint256"
            },
            {
              "indexed": false,
              "internalType": "uint256",
              "name": "amount",
              "type": "uint256"
            },
            {
              "indexed": true,
              "internalType": "address",
              "name": "to",
              "type": "address"
            }
          ],
          "name": "Withdraw",
          "type": "event"
        },
        {
          "inputs": [],
          "name": "CHAOS_TOKEN",
          "outputs": [
            {
              "internalType": "contract IERC20",
              "name": "",
              "type": "address"
            }
          ],
          "stateMutability": "view",
          "type": "function"
        },
        {
          "inputs": [
            {
              "internalType": "uint256",
              "name": "allocPoint",
              "type": "uint256"
            },
            {
              "internalType": "contract IERC20",
              "name": "_lpToken",
              "type": "address"
            },
            {
              "internalType": "contract IRewarder",
              "name": "_rewarder",
              "type": "address"
            }
          ],
          "name": "add",
          "outputs": [],
          "stateMutability": "nonpayable",
          "type": "function"
        },
        {
          "inputs": [
            {
              "internalType": "uint256",
              "name": "pid",
              "type": "uint256"
            },
            {
              "internalType": "uint256",
              "name": "amount",
              "type": "uint256"
            }
          ],
          "name": "allocateTokens",
          "outputs": [],
          "stateMutability": "nonpayable",
          "type": "function"
        },
        {
          "inputs": [
            {
              "internalType": "uint256",
              "name": "pid",
              "type": "uint256"
            },
            {
              "internalType": "uint256",
              "name": "amount",
              "type": "uint256"
            },
            {
              "internalType": "address",
              "name": "to",
              "type": "address"
            }
          ],
          "name": "deposit",
          "outputs": [],
          "stateMutability": "nonpayable",
          "type": "function"
        },
        {
          "inputs": [
            {
              "internalType": "uint256",
              "name": "pid",
              "type": "uint256"
            },
            {
              "internalType": "address",
              "name": "to",
              "type": "address"
            }
          ],
          "name": "emergencyWithdraw",
          "outputs": [],
          "stateMutability": "nonpayable",
          "type": "function"
        },
        {
          "inputs": [
            {
              "internalType": "uint256",
              "name": "pid",
              "type": "uint256"
            }
          ],
          "name": "getPoolInfo",
          "outputs": [
            {
              "components": [
                {
                  "internalType": "uint128",
                  "name": "accChaosPerShare",
                  "type": "uint128"
                },
                {
                  "internalType": "uint64",
                  "name": "lastRewardBlock",
                  "type": "uint64"
                },
                {
                  "internalType": "uint64",
                  "name": "allocPoint",
                  "type": "uint64"
                },
                {
                  "internalType": "uint256",
                  "name": "totalSupply",
                  "type": "uint256"
                },
                {
                  "internalType": "uint8",
                  "name": "weight",
                  "type": "uint8"
                }
              ],
              "internalType": "struct ICHAOS.PoolInfo",
              "name": "",
              "type": "tuple"
            }
          ],
          "stateMutability": "view",
          "type": "function"
        },
        {
          "inputs": [
            {
              "internalType": "uint256",
              "name": "pid",
              "type": "uint256"
            }
          ],
          "name": "getPoolWeightAsPercentage",
          "outputs": [
            {
              "internalType": "uint8",
              "name": "",
              "type": "uint8"
            }
          ],
          "stateMutability": "view",
          "type": "function"
        },
        {
          "inputs": [
            {
              "internalType": "uint256",
              "name": "pid",
              "type": "uint256"
            },
            {
              "internalType": "address",
              "name": "to",
              "type": "address"
            }
          ],
          "name": "harvest",
          "outputs": [],
          "stateMutability": "nonpayable",
          "type": "function"
        },
        {
          "inputs": [
            {
              "internalType": "uint256",
              "name": "",
              "type": "uint256"
            }
          ],
          "name": "lpToken",
          "outputs": [
            {
              "internalType": "contract IERC20",
              "name": "",
              "type": "address"
            }
          ],
          "stateMutability": "view",
          "type": "function"
        },
        {
          "inputs": [
            {
              "internalType": "uint256[]",
              "name": "pids",
              "type": "uint256[]"
            }
          ],
          "name": "massUpdatePools",
          "outputs": [],
          "stateMutability": "nonpayable",
          "type": "function"
        },
        {
          "inputs": [
            {
              "internalType": "uint256",
              "name": "_pid",
              "type": "uint256"
            }
          ],
          "name": "migrate",
          "outputs": [],
          "stateMutability": "nonpayable",
          "type": "function"
        },
        {
          "inputs": [],
          "name": "migrator",
          "outputs": [
            {
              "internalType": "contract IMigratorChef",
              "name": "",
              "type": "address"
            }
          ],
          "stateMutability": "view",
          "type": "function"
        },
        {
          "inputs": [],
          "name": "owner",
          "outputs": [
            {
              "internalType": "address",
              "name": "",
              "type": "address"
            }
          ],
          "stateMutability": "view",
          "type": "function"
        },
        {
          "inputs": [
            {
              "internalType": "uint256",
              "name": "_pid",
              "type": "uint256"
            },
            {
              "internalType": "address",
              "name": "_user",
              "type": "address"
            }
          ],
          "name": "pendingRewards",
          "outputs": [
            {
              "internalType": "uint256",
              "name": "pending",
              "type": "uint256"
            }
          ],
          "stateMutability": "view",
          "type": "function"
        },
        {
          "inputs": [
            {
              "internalType": "uint256",
              "name": "",
              "type": "uint256"
            }
          ],
          "name": "poolInfo",
          "outputs": [
            {
              "internalType": "uint128",
              "name": "accChaosPerShare",
              "type": "uint128"
            },
            {
              "internalType": "uint64",
              "name": "lastRewardBlock",
              "type": "uint64"
            },
            {
              "internalType": "uint64",
              "name": "allocPoint",
              "type": "uint64"
            },
            {
              "internalType": "uint256",
              "name": "totalSupply",
              "type": "uint256"
            },
            {
              "internalType": "uint8",
              "name": "weight",
              "type": "uint8"
            }
          ],
          "stateMutability": "view",
          "type": "function"
        },
        {
          "inputs": [],
          "name": "poolLength",
          "outputs": [
            {
              "internalType": "uint256",
              "name": "pools",
              "type": "uint256"
            }
          ],
          "stateMutability": "view",
          "type": "function"
        },
        {
          "inputs": [],
          "name": "renounceOwnership",
          "outputs": [],
          "stateMutability": "nonpayable",
          "type": "function"
        },
        {
          "inputs": [
            {
              "internalType": "uint256",
              "name": "",
              "type": "uint256"
            }
          ],
          "name": "rewarder",
          "outputs": [
            {
              "internalType": "contract IRewarder",
              "name": "",
              "type": "address"
            }
          ],
          "stateMutability": "view",
          "type": "function"
        },
        {
          "inputs": [
            {
              "internalType": "uint256",
              "name": "pid",
              "type": "uint256"
            }
          ],
          "name": "rewardsPerBlock",
          "outputs": [
            {
              "internalType": "uint256",
              "name": "amount",
              "type": "uint256"
            }
          ],
          "stateMutability": "view",
          "type": "function"
        },
        {
          "inputs": [
            {
              "internalType": "uint256",
              "name": "_pid",
              "type": "uint256"
            },
            {
              "internalType": "uint256",
              "name": "_allocPoint",
              "type": "uint256"
            },
            {
              "internalType": "contract IRewarder",
              "name": "_rewarder",
              "type": "address"
            },
            {
              "internalType": "bool",
              "name": "overwrite",
              "type": "bool"
            }
          ],
          "name": "set",
          "outputs": [],
          "stateMutability": "nonpayable",
          "type": "function"
        },
        {
          "inputs": [
            {
              "internalType": "uint256",
              "name": "amount",
              "type": "uint256"
            }
          ],
          "name": "setEmisionsPerBlock",
          "outputs": [],
          "stateMutability": "nonpayable",
          "type": "function"
        },
        {
          "inputs": [
            {
              "internalType": "contract IMigratorChef",
              "name": "_migrator",
              "type": "address"
            }
          ],
          "name": "setMigrator",
          "outputs": [],
          "stateMutability": "nonpayable",
          "type": "function"
        },
        {
          "inputs": [
            {
              "internalType": "uint256",
              "name": "pid",
              "type": "uint256"
            },
            {
              "internalType": "uint8",
              "name": "weight",
              "type": "uint8"
            }
          ],
          "name": "setVaultWeight",
          "outputs": [],
          "stateMutability": "nonpayable",
          "type": "function"
        },
        {
          "inputs": [],
          "name": "tokensPerBlock",
          "outputs": [
            {
              "internalType": "uint256",
              "name": "",
              "type": "uint256"
            }
          ],
          "stateMutability": "view",
          "type": "function"
        },
        {
          "inputs": [],
          "name": "totalAllocPoint",
          "outputs": [
            {
              "internalType": "uint256",
              "name": "",
              "type": "uint256"
            }
          ],
          "stateMutability": "view",
          "type": "function"
        },
        {
          "inputs": [
            {
              "internalType": "address",
              "name": "newOwner",
              "type": "address"
            }
          ],
          "name": "transferOwnership",
          "outputs": [],
          "stateMutability": "nonpayable",
          "type": "function"
        },
        {
          "inputs": [
            {
              "internalType": "uint256",
              "name": "pid",
              "type": "uint256"
            }
          ],
          "name": "updatePool",
          "outputs": [
            {
              "components": [
                {
                  "internalType": "uint128",
                  "name": "accChaosPerShare",
                  "type": "uint128"
                },
                {
                  "internalType": "uint64",
                  "name": "lastRewardBlock",
                  "type": "uint64"
                },
                {
                  "internalType": "uint64",
                  "name": "allocPoint",
                  "type": "uint64"
                },
                {
                  "internalType": "uint256",
                  "name": "totalSupply",
                  "type": "uint256"
                },
                {
                  "internalType": "uint8",
                  "name": "weight",
                  "type": "uint8"
                }
              ],
              "internalType": "struct ICHAOS.PoolInfo",
              "name": "pool",
              "type": "tuple"
            }
          ],
          "stateMutability": "nonpayable",
          "type": "function"
        },
        {
          "inputs": [
            {
              "internalType": "uint256",
              "name": "",
              "type": "uint256"
            },
            {
              "internalType": "address",
              "name": "",
              "type": "address"
            }
          ],
          "name": "userInfo",
          "outputs": [
            {
              "internalType": "uint256",
              "name": "amount",
              "type": "uint256"
            },
            {
              "internalType": "int256",
              "name": "rewardDebt",
              "type": "int256"
            }
          ],
          "stateMutability": "view",
          "type": "function"
        },
        {
          "inputs": [
            {
              "internalType": "uint256",
              "name": "pid",
              "type": "uint256"
            },
            {
              "internalType": "uint256",
              "name": "amount",
              "type": "uint256"
            },
            {
              "internalType": "address",
              "name": "to",
              "type": "address"
            }
          ],
          "name": "withdraw",
          "outputs": [],
          "stateMutability": "nonpayable",
          "type": "function"
        },
        {
          "inputs": [
            {
              "internalType": "uint256",
              "name": "pid",
              "type": "uint256"
            },
            {
              "internalType": "uint256",
              "name": "amount",
              "type": "uint256"
            },
            {
              "internalType": "address",
              "name": "to",
              "type": "address"
            }
          ],
          "name": "withdrawAndHarvest",
          "outputs": [],
          "stateMutability": "nonpayable",
          "type": "function"
        }
      ],
      "evm": {
        "bytecode": {
          "linkReferences": {},
          "object": "60a0346100bc57601f61226938819003918201601f19168301916001600160401b038311848410176100c1578084926020946040528339810103126100bc57516001600160a01b039081811681036100bc576000543360018060a01b0319821617600055604051923391167f8be0079c531659141344cd1fd0a4f28419497f9722a3daafe3b4186f6b6457e0600080a360805261219190816100d882396080518181816102540152818161033a015281816107e301526120b40152f35b600080fd5b634e487b7160e01b600052604160045260246000fdfe608060408181526004908136101561001657600080fd5b600092833560e01c908163081e3eda146115df575080630ad58d2f1461147d57806312ef24641461145d5780631526fe27146113ed57806317caf6f1146113ce57806318fccc76146113a85780631a1cb01f1461138957806323cf311814611335578063249f776c146112e75780632f380b35146112b45780632f940c70146111a3578063454b060814610f1457806351eb05a614610ea057806357a5b58c14610e11578063715018a614610db757806378ed5d1f14610d8c5780637cd07e4714610d5f57806388bba42f14610c2a5780638cebd2ba14610abc5780638da5cb5b14610a945780638dbdbe6d146108fa5780638fc264e0146107a657806393f1a40b1461075a5780639733894e146106f3578063ab7de09814610512578063c346253d146104d1578063d18df53c1461049f57838163d1abb9071461028757508063ded844d21461023f5763f2fde38b1461017057600080fd5b3461023b57602036600319011261023b576001600160a01b03823581811693919290849003610236576101a16116bc565b83156101e45750506000548260018060a01b0319821617600055167f8be0079c531659141344cd1fd0a4f28419497f9722a3daafe3b4186f6b6457e0600080a380f35b906020608492519162461bcd60e51b8352820152602660248201527f4f776e61626c653a206e6577206f776e657220697320746865207a65726f206160448201526564647265737360d01b6064820152fd5b600080fd5b8280fd5b838234610283578160031936011261028357517f00000000000000000000000000000000000000000000000000000000000000006001600160a01b03168152602090f35b5080fd5b919050346102835761029836611611565b6102a483969293611b10565b868652600760205284862033600052602052846000209081549064e8d4a510009060018060801b0391806102db8484511686611ace565b0492600186019283548086039c8d911286808312821692139015161761048c5751610307911689611ace565b04918b838203931281841281169184139015161761047957868b938b9796959361033193556118b7565b815561035e88847f0000000000000000000000000000000000000000000000000000000000000000611f0d565b61036785611670565b90546001600160a01b039560039290921b1c851691826103fc575b505050506103a28482846103958761168b565b90549060031b1c16611f0d565b845193845216917f8166bf25f8a2b7ed3c85049207da4358d16edbed977d23fa2ee6f0dde3ec213260203392a4519081527f71bab65ced2e5750775a0613be067df48ef06cf92a496ebf7663ae066092495460203392a380f35b9091929394955054823b156104755788928492838c61043289958d5198899788968795632337492560e21b875233918701611f4b565b03925af1801561046b5790889493929161044e575b8080610382565b61045a91929450611714565b6104675785918738610447565b8680fd5b86513d84823e3d90fd5b8380fd5b634e487b7160e01b8b526011865260248bfd5b634e487b7160e01b8e526011895260248efd5b5082346104ce57816003193601126104ce57506104c76020926104c06115fb565b90356118fc565b9051908152f35b80fd5b50903461023b57602036600319011261023b5735916006548310156104ce57506104fc602092611670565b905491519160018060a01b039160031b1c168152f35b503461023b57606036600319011261023b576001600160a01b039160248035848116938335929091859003610467576105496116a6565b6105516116bc565b61055d84600854611779565b600855600554600160401b9190828110156106e1576105a36105868260018b940160055561168b565b819391549060031b9160018060a01b03809116831b921b19161790565b9055600654828110156106e1576105c38160016105e49301600655611670565b99909216809983549060031b9160018060a01b03809116831b921b19161790565b9055600354600160ff82160160ff81116106cd5760ff169060ff19161760035561060d846120f1565b90610617436120f1565b8451926106238461173d565b8a84526001600160401b0380921660208501521684830152886060830152600160808301528554908110156106bb579061066582600161066b9401885561163b565b9061183c565b6005546000198101949085116106aa5750507f81ee0f8c5c46e2cb41984886f77a84181724abb86c32a5f6de539b07509d45e59160209151908152a480f35b634e487b7160e01b88526011905286fd5b634e487b7160e01b8952604186528289fd5b83601188634e487b7160e01b600052526000fd5b634e487b7160e01b8a5260418752838afd5b5082346104ce5760203660031901126104ce5761072060ff6002610717863561163b565b50015416611827565b60ff600354169182156107475760208460ff61073f8682871604611827565b915191168152f35b634e487b7160e01b815260128552602490fd5b5091346104ce57826003193601126104ce5782906107766115fb565b923581526007602052209060018060a01b0316600052602052806000206001815491015482519182526020820152f35b50903461023b578160031936011261023b57803591602435906107c76116bc565b80516370a0823160e01b815230848201526020939084816024817f00000000000000000000000000000000000000000000000000000000000000006001600160a01b03165afa9081156108f05787916108c3575b5083116108785750907fcdd8c438c177c1b7298106f22ac8fc3588caa838ec239042bf4da8cec4fad00c929161085382600154611779565b60015560016108618661163b565b500161086e838254611779565b905551908152a280f35b83608492519162461bcd60e51b8352820152602160248201527f4368616f733a20496e73756666696369656e74204348414f532062616c616e636044820152606560f81b6064820152fd5b90508481813d83116108e9575b6108da8183611758565b8101031261023657513861081b565b503d6108d0565b83513d89823e3d90fd5b503461023b5761090936611611565b61091583949293611b10565b9084875260076020528287209560018060a01b0392838316978860005260205284600020906001610947888454611779565b80845592018054915164e8d4a510009061096a906001600160801b03168a611ace565b04918b8382019384129112908015821691151617610a815755889291908461099189611670565b90549060031b1c1680610a1a575b50505050506109ed906109b18561168b565b90549060031b1c168251906323b872dd60e01b6020830152336024830152306044830152846064830152606482526109e88261173d565b611cf1565b519081527f02d7e648dd130fc184d383e55bb126ac4c9c60e8f94bf05acdf557ba2d540b4760203392a480f35b803b15610a7d5788858094610a4487958b5198899788968795632337492560e21b87528601611cc2565b03925af18015610a7357610a5b575b80808061099f565b610a6490611714565b610a6f578538610a53565b8580fd5b84513d84823e3d90fd5b8480fd5b634e487b7160e01b8b526011845260248bfd5b838234610283578160031936011261028357905490516001600160a01b039091168152602090f35b50903461023b578160031936011261023b5780359160ff602435818116939084810361046757610aea6116bc565b84610b6157505091602091837fcca7be0ce2046924923362617977e6d03c4004e88c4c3eb96459b0d3315e04dd946002610b238861163b565b5001541690610b376003549282841661179c565b169060ff191617600355610b4a8561163b565b5080546001600160c01b031690555b51908152a280f35b826002610b6d8861163b565b50015416851115610c0b57610b9290836002610b888961163b565b500154169061179c565b905b8260035492168383160190838211610bf6575091602093917fcca7be0ce2046924923362617977e6d03c4004e88c4c3eb96459b0d3315e04dd959360ff1992839116911617600355826002610be88861163b565b500191825416179055610b59565b601190634e487b7160e01b6000525260246000fd5b610c2490836002610c1b8961163b565b5001541661179c565b90610b94565b50903461023b57608036600319011261023b573560243591610c4a6116a6565b906064359182151590818403610467577f95895a6ab1df54420d241b55243258a33e61b2194db66c1179ec521aae8e186593610c846116bc565b610ca787610ca2600854610c978a61163b565b505460c01c906118b7565b611779565b60085580610ce4610cb7896120f1565b610cc08961163b565b5080546001600160c01b031660c09290921b6001600160c01b031916919091179055565b610d2a575b15610d0857905b825195865260208601526001600160a01b031693a380f35b50610d1284611670565b905460039190911b1c6001600160a01b031690610cf0565b610d58610d3687611670565b815491926001600160a01b0386811660039390931b92831b921b199092161790565b9055610ce9565b838234610283578160031936011261028357600354905160089190911c6001600160a01b03168152602090f35b50903461023b57602036600319011261023b5735916005548310156104ce57506104fc60209261168b565b83346104ce57806003193601126104ce57610dd06116bc565b600080546001600160a01b0319811682556001600160a01b03167f8be0079c531659141344cd1fd0a4f28419497f9722a3daafe3b4186f6b6457e08280a380f35b505034610283576020366003190112610283578035906001600160401b039081831161047557366023840112156104755782810135918211610475576024926005368585831b84010111610a6f57855b848110610e6c578680f35b610e7c8682841b85010135611b10565b506000198114610e8e57600101610e61565b634e487b7160e01b8752601184528587fd5b5082346104ce5760203660031901126104ce5750610ec1610f109235611b10565b905191829182919091608060ff8160a0840195600180831b0381511685526001600160401b03806020830151166020870152604082015116604086015260608101516060860152015116910152565b0390f35b50903461023b5760209081600319360112610475576003546001600160a01b03938235939160081c851680156111685785610f4e8661168b565b90549060031b1c1695878351976370a0823160e01b93848a5230888b0152868a602481855afa998a1561112957839a611133575b50855163095ea7b360e01b81526001600160a01b03909116888201908152602081018b9052879082908190604001038186865af1801561112957908792916110fc575b5060248460035460081c16918751948593849263ce5494bb60e01b84528c8401525af19081156110f25789916110b8575b5016958251918252308583015283826024818a5afa9182156110ae57889261107f575b50036110335750505061058661102e9161168b565b905580f35b5162461bcd60e51b815291820152602260248201527f4368616f733a206d696772617465642062616c616e6365206d757374206d61746044820152610c6d60f31b606482015260849150fd5b9091508381813d83116110a7575b6110978183611758565b8101031261023657519038611019565b503d61108d565b83513d8a823e3d90fd5b90508481813d83116110eb575b6110cf8183611758565b810103126110e7575181811681036110e75738610ff6565b8880fd5b503d6110c5565b84513d8b823e3d90fd5b61111b90833d8511611122575b6111138183611758565b8101906118c4565b5038610fc5565b503d611109565b86513d85823e3d90fd5b8780929b508194503d8311611161575b61114d8183611758565b810103126102365790519789919086610f82565b503d611143565b505162461bcd60e51b815291820152601660248201527510da185bdcce881b9bc81b5a59dc985d1bdc881cd95d60521b604482015260649150fd5b50903461023b578160031936011261023b578035906111c06115fb565b82855260076020528385203360005260205283600020938560018654968281550155856111ec85611670565b90546001600160a01b039560039290921b1c85169081611248575b5050506112198583856103958861168b565b5193845216917f2cac5e20e1541d836381527a43f651851e302817b71dc8e810284e69210c1c6b60203392a480f35b813b1561023b578660a484928387519586948593632337492560e21b85528401523360248401528a8a1660448401528160648401528160848401525af180156112aa57611296575b80611207565b61129f90611714565b610a6f578538611290565b83513d84823e3d90fd5b5082346104ce5760203660031901126104ce5750610ec16112e1610f10936112da6117b0565b503561163b565b506117db565b50903461023b57602036600319011261023b577f34fdb3fcd643cf0a71eda37b2de87b0126f0d620961bd9100c82abd3a42f07af9160209135906113296116bc565b8160025551908152a180f35b50503461028357602036600319011261028357356001600160a01b0381168103610283576113616116bc565b60038054610100600160a81b03191660089290921b610100600160a81b031691909117905580f35b8382346102835781600319360112610283576020906002549051908152f35b503461023b57366003190112610283576113cb906113c46115fb565b9035611f7b565b80f35b8382346102835781600319360112610283576020906008549051908152f35b5082346104ce5760203660031901126104ce57823592548310156104ce575061141760a09261163b565b509081549160ff60026001830154920154169180519360018060801b03811685526001600160401b038160801c16602086015260c01c9084015260608301526080820152f35b5082346104ce5760203660031901126104ce57506104c760209235611ae1565b503461023b5761148c36611611565b9093919261149984611b10565b8487526007602052818720338852602052818720906001820164e8d4a510006114ce82549360018060801b039051168a611ace565b04918983820393128184128116918413901516176115cc57558054868110156114f5578780f35b866114ff916118b7565b8091558661150c86611670565b90546001600160a01b03969160031b1c86168061156e575b505050506115378583856103958861168b565b5193845216917f8166bf25f8a2b7ed3c85049207da4358d16edbed977d23fa2ee6f0dde3ec213260203392a4388080808080808780f35b803b1561023b5785918389611598885197889687958694632337492560e21b865233918601611cc2565b03925af180156115c2576115af575b868180611524565b6115bb90969196611714565b94386115a7565b82513d89823e3d90fd5b634e487b7160e01b895260118652602489fd5b8490843461023b578260031936011261023b5760209250548152f35b602435906001600160a01b038216820361023657565b60609060031901126102365760043590602435906044356001600160a01b03811681036102365790565b60045481101561165a5760046000526003602060002091020190600090565b634e487b7160e01b600052603260045260246000fd5b60065481101561165a57600660005260206000200190600090565b60055481101561165a57600560005260206000200190600090565b604435906001600160a01b038216820361023657565b6000546001600160a01b031633036116d057565b606460405162461bcd60e51b815260206004820152602060248201527f4f776e61626c653a2063616c6c6572206973206e6f7420746865206f776e65726044820152fd5b6001600160401b03811161172757604052565b634e487b7160e01b600052604160045260246000fd5b60a081019081106001600160401b0382111761172757604052565b90601f801991011681019081106001600160401b0382111761172757604052565b9190820180921161178657565b634e487b7160e01b600052601160045260246000fd5b9060ff8091169116039060ff821161178657565b604051906117bd8261173d565b60006080838281528260208201528260408201528260608201520152565b906040516117e88161173d565b608060ff600283958054600180861b03811686526001600160401b0381861c16602087015260c01c604086015260018101546060860152015416910152565b60ff60649116029060ff821691820361178657565b906118a1578151602083015160408401516001600160c01b031960c09190911b166001600160801b0390921667ffffffffffffffff60801b608092831b161791909117825560ff9160029060608501516001820155019201511660ff19825416179055565b634e487b7160e01b600052600060045260246000fd5b9190820391821161178657565b90816020910312610236575180151581036102365790565b81156118e6570490565b634e487b7160e01b600052601260045260246000fd5b906119096112e18361163b565b91600091818352602093600785526040842060018060a01b0380931685528552604084209460018060801b03825116938415611ac45781602461194b8361168b565b9190549160405197889384926370a0823160e01b845230600485015260031b1c165afa938415611ab9578694611a8a575b506001600160401b0380928401511680431180611a81575b80611a76575b6119ea575b505050505064e8d4a510006119b76001928554611ace565b04920154918183820393128184128116918413901516176119d6575090565b634e487b7160e01b81526011600452602490fd5b916040611a11611a249593611a0b611a05611a1b97436118b7565b91611ae1565b90611ace565b9201511690611ace565b600854906118dc565b64e8d4a5100090818102918183041490151715611a6257611a5a600193611a5464e8d4a51000946119b7946118dc565b90611779565b92388061199f565b634e487b7160e01b84526011600452602484fd5b50600854151561199a565b50841515611994565b9093508181813d8311611ab2575b611aa28183611758565b81010312610a6f5751923861197c565b503d611a98565b6040513d88823e3d90fd5b5050505050905090565b8181029291811591840414171561178657565b611b01611b0d9160ff6002611af781549361163b565b5001541690611ace565b60ff60035416906118dc565b90565b90611b196117b0565b50611b266112e18361163b565b9160208084016001600160401b0380825116431180611cb7575b611b4b575b50505050565b8291611b568561168b565b90546040516370a0823160e01b815230600482015295918691602491839160039190911b1c6001600160a01b03165afa938415611cab57600094611c7c575b5083611c03575b91816060937f0fc9545022a542541ad085d091fb09a2ab36fee366a4576ab63714ea907ad3539593611bcd436120f1565b168152611bdd896106658961163b565b51169160018060801b03885116916040519384528301526040820152a238808080611b45565b91611c30611a1b611c23611c1a85875116436118b7565b611a0b89611ae1565b8460408b01511690611ace565b9164e8d4a5100092838102938185041490151715611786576001600160801b0394928590611c5f9085906118dc565b168589511601938585116117865793909416875290929091611b9c565b90938382813d8311611ca4575b611c938183611758565b810103126104ce5750519238611b95565b503d611c89565b6040513d6000823e3d90fd5b506008541515611b40565b9081526001600160a01b0391821660208201529116604082015260006060820152608081019190915260a00190565b604080516001600160401b0394936001600160a01b03909316929091820185811183821017611727576040526020928383527f5361666545524332303a206c6f772d6c6576656c2063616c6c206661696c6564848401526000808386829551910182855af1903d15611e2c573d968711611e1857611d9094959660405190611d8288601f19601f8401160183611758565b81528093873d92013e611e39565b805190828215928315611e00575b50505015611da95750565b6084906040519062461bcd60e51b82526004820152602a60248201527f5361666545524332303a204552433230206f7065726174696f6e20646964206e6044820152691bdd081cdd58d8d9595960b21b6064820152fd5b611e1093508201810191016118c4565b388281611d9e565b634e487b7160e01b83526041600452602483fd5b9150611d90939495506060915b91929015611e9b5750815115611e4d575090565b3b15611e565790565b60405162461bcd60e51b815260206004820152601d60248201527f416464726573733a2063616c6c20746f206e6f6e2d636f6e74726163740000006044820152606490fd5b825190915015611eae5750805190602001fd5b6040519062461bcd60e51b82528160208060048301528251908160248401526000935b828510611ef4575050604492506000838284010152601f80199101168101030190fd5b8481018201518686016044015293810193859350611ed1565b60405163a9059cbb60e01b60208201526001600160a01b03929092166024830152604480830193909352918152611f49916109e8606483611758565b565b9081526001600160a01b039182166020820152911660408201526060810191909152608081019190915260a00190565b90611f8582611b10565b80516001600160801b039290831615611b455764e8d4a51000611fc66000938685526007602052604085203386526020526040852095865491511690611ace565b0492600181019384549081810395858312828812811690838913901516176120dd57819055036120ad575b611ffa85611670565b905460039190911b1c6001600160a01b03169081612045575b505050506040519081527f71bab65ced2e5750775a0613be067df48ef06cf92a496ebf7663ae066092495460203392a3565b5491813b1561047557918392918584612079969460405197889586948593632337492560e21b85528d339060048701611f4b565b03925af19081156120a15750612092575b808080612013565b61209b90611714565b3861208a565b604051903d90823e3d90fd5b6120d884837f0000000000000000000000000000000000000000000000000000000000000000611f0d565b611ff1565b634e487b7160e01b86526011600452602486fd5b6001600160401b0390818111612105571690565b60405162461bcd60e51b815260206004820152602860248201527f536166654361737436343a2076616c756520646f65736e27742066697420696e604482015267203634206269747360c01b6064820152608490fdfea26469706673582212203e131281b0cf9f5e549d1cb8f6e7691595a87cd136ae06c1adca7eef884741d564736f6c63430008130033",
          "opcodes": "PUSH1 0xA0 CALLVALUE PUSH2 0xBC JUMPI PUSH1 0x1F PUSH2 0x2269 CODESIZE DUP2 SWAP1 SUB SWAP2 DUP3 ADD PUSH1 0x1F NOT AND DUP4 ADD SWAP2 PUSH1 0x1 PUSH1 0x1 PUSH1 0x40 SHL SUB DUP4 GT DUP5 DUP5 LT OR PUSH2 0xC1 JUMPI DUP1 DUP5 SWAP3 PUSH1 0x20 SWAP5 PUSH1 0x40 MSTORE DUP4 CODECOPY DUP2 ADD SUB SLT PUSH2 0xBC JUMPI MLOAD PUSH1 0x1 PUSH1 0x1 PUSH1 0xA0 SHL SUB SWAP1 DUP2 DUP2 AND DUP2 SUB PUSH2 0xBC JUMPI PUSH1 0x0 SLOAD CALLER PUSH1 0x1 DUP1 PUSH1 0xA0 SHL SUB NOT DUP3 AND OR PUSH1 0x0 SSTORE PUSH1 0x40 MLOAD SWAP3 CALLER SWAP2 AND PUSH32 0x8BE0079C531659141344CD1FD0A4F28419497F9722A3DAAFE3B4186F6B6457E0 PUSH1 0x0 DUP1 LOG3 PUSH1 0x80 MSTORE PUSH2 0x2191 SWAP1 DUP2 PUSH2 0xD8 DUP3 CODECOPY PUSH1 0x80 MLOAD DUP2 DUP2 DUP2 PUSH2 0x254 ADD MSTORE DUP2 DUP2 PUSH2 0x33A ADD MSTORE DUP2 DUP2 PUSH2 0x7E3 ADD MSTORE PUSH2 0x20B4 ADD MSTORE RETURN JUMPDEST PUSH1 0x0 DUP1 REVERT JUMPDEST PUSH4 0x4E487B71 PUSH1 0xE0 SHL PUSH1 0x0 MSTORE PUSH1 0x41 PUSH1 0x4 MSTORE PUSH1 0x24 PUSH1 0x0 REVERT INVALID PUSH1 0x80 PUSH1 0x40 DUP2 DUP2 MSTORE PUSH1 0x4 SWAP1 DUP2 CALLDATASIZE LT ISZERO PUSH2 0x16 JUMPI PUSH1 0x0 DUP1 REVERT JUMPDEST PUSH1 0x0 SWAP3 DUP4 CALLDATALOAD PUSH1 0xE0 SHR SWAP1 DUP2 PUSH4 0x81E3EDA EQ PUSH2 0x15DF JUMPI POP DUP1 PUSH4 0xAD58D2F EQ PUSH2 0x147D JUMPI DUP1 PUSH4 0x12EF2464 EQ PUSH2 0x145D JUMPI DUP1 PUSH4 0x1526FE27 EQ PUSH2 0x13ED JUMPI DUP1 PUSH4 0x17CAF6F1 EQ PUSH2 0x13CE JUMPI DUP1 PUSH4 0x18FCCC76 EQ PUSH2 0x13A8 JUMPI DUP1 PUSH4 0x1A1CB01F EQ PUSH2 0x1389 JUMPI DUP1 PUSH4 0x23CF3118 EQ PUSH2 0x1335 JUMPI DUP1 PUSH4 0x249F776C EQ PUSH2 0x12E7 JUMPI DUP1 PUSH4 0x2F380B35 EQ PUSH2 0x12B4 JUMPI DUP1 PUSH4 0x2F940C70 EQ PUSH2 0x11A3 JUMPI DUP1 PUSH4 0x454B0608 EQ PUSH2 0xF14 JUMPI DUP1 PUSH4 0x51EB05A6 EQ PUSH2 0xEA0 JUMPI DUP1 PUSH4 0x57A5B58C EQ PUSH2 0xE11 JUMPI DUP1 PUSH4 0x715018A6 EQ PUSH2 0xDB7 JUMPI DUP1 PUSH4 0x78ED5D1F EQ PUSH2 0xD8C JUMPI DUP1 PUSH4 0x7CD07E47 EQ PUSH2 0xD5F JUMPI DUP1 PUSH4 0x88BBA42F EQ PUSH2 0xC2A JUMPI DUP1 PUSH4 0x8CEBD2BA EQ PUSH2 0xABC JUMPI DUP1 PUSH4 0x8DA5CB5B EQ PUSH2 0xA94 JUMPI DUP1 PUSH4 0x8DBDBE6D EQ PUSH2 0x8FA JUMPI DUP1 PUSH4 0x8FC264E0 EQ PUSH2 0x7A6 JUMPI DUP1 PUSH4 0x93F1A40B EQ PUSH2 0x75A JUMPI DUP1 PUSH4 0x9733894E EQ PUSH2 0x6F3 JUMPI DUP1 PUSH4 0xAB7DE098 EQ PUSH2 0x512 JUMPI DUP1 PUSH4 0xC346253D EQ PUSH2 0x4D1 JUMPI DUP1 PUSH4 0xD18DF53C EQ PUSH2 0x49F JUMPI DUP4 DUP2 PUSH4 0xD1ABB907 EQ PUSH2 0x287 JUMPI POP DUP1 PUSH4 0xDED844D2 EQ PUSH2 0x23F JUMPI PUSH4 0xF2FDE38B EQ PUSH2 0x170 JUMPI PUSH1 0x0 DUP1 REVERT JUMPDEST CALLVALUE PUSH2 0x23B JUMPI PUSH1 0x20 CALLDATASIZE PUSH1 0x3 NOT ADD SLT PUSH2 0x23B JUMPI PUSH1 0x1 PUSH1 0x1 PUSH1 0xA0 SHL SUB DUP3 CALLDATALOAD DUP2 DUP2 AND SWAP4 SWAP2 SWAP3 SWAP1 DUP5 SWAP1 SUB PUSH2 0x236 JUMPI PUSH2 0x1A1 PUSH2 0x16BC JUMP JUMPDEST DUP4 ISZERO PUSH2 0x1E4 JUMPI POP POP PUSH1 0x0 SLOAD DUP3 PUSH1 0x1 DUP1 PUSH1 0xA0 SHL SUB NOT DUP3 AND OR PUSH1 0x0 SSTORE AND PUSH32 0x8BE0079C531659141344CD1FD0A4F28419497F9722A3DAAFE3B4186F6B6457E0 PUSH1 0x0 DUP1 LOG3 DUP1 RETURN JUMPDEST SWAP1 PUSH1 0x20 PUSH1 0x84 SWAP3 MLOAD SWAP2 PUSH3 0x461BCD PUSH1 0xE5 SHL DUP4 MSTORE DUP3 ADD MSTORE PUSH1 0x26 PUSH1 0x24 DUP3 ADD MSTORE PUSH32 0x4F776E61626C653A206E6577206F776E657220697320746865207A65726F2061 PUSH1 0x44 DUP3 ADD MSTORE PUSH6 0x646472657373 PUSH1 0xD0 SHL PUSH1 0x64 DUP3 ADD MSTORE REVERT JUMPDEST PUSH1 0x0 DUP1 REVERT JUMPDEST DUP3 DUP1 REVERT JUMPDEST DUP4 DUP3 CALLVALUE PUSH2 0x283 JUMPI DUP2 PUSH1 0x3 NOT CALLDATASIZE ADD SLT PUSH2 0x283 JUMPI MLOAD PUSH32 0x0 PUSH1 0x1 PUSH1 0x1 PUSH1 0xA0 SHL SUB AND DUP2 MSTORE PUSH1 0x20 SWAP1 RETURN JUMPDEST POP DUP1 REVERT JUMPDEST SWAP2 SWAP1 POP CALLVALUE PUSH2 0x283 JUMPI PUSH2 0x298 CALLDATASIZE PUSH2 0x1611 JUMP JUMPDEST PUSH2 0x2A4 DUP4 SWAP7 SWAP3 SWAP4 PUSH2 0x1B10 JUMP JUMPDEST DUP7 DUP7 MSTORE PUSH1 0x7 PUSH1 0x20 MSTORE DUP5 DUP7 KECCAK256 CALLER PUSH1 0x0 MSTORE PUSH1 0x20 MSTORE DUP5 PUSH1 0x0 KECCAK256 SWAP1 DUP2 SLOAD SWAP1 PUSH5 0xE8D4A51000 SWAP1 PUSH1 0x1 DUP1 PUSH1 0x80 SHL SUB SWAP2 DUP1 PUSH2 0x2DB DUP5 DUP5 MLOAD AND DUP7 PUSH2 0x1ACE JUMP JUMPDEST DIV SWAP3 PUSH1 0x1 DUP7 ADD SWAP3 DUP4 SLOAD DUP1 DUP7 SUB SWAP13 DUP14 SWAP2 SLT DUP7 DUP1 DUP4 SLT DUP3 AND SWAP3 SGT SWAP1 ISZERO AND OR PUSH2 0x48C JUMPI MLOAD PUSH2 0x307 SWAP2 AND DUP10 PUSH2 0x1ACE JUMP JUMPDEST DIV SWAP2 DUP12 DUP4 DUP3 SUB SWAP4 SLT DUP2 DUP5 SLT DUP2 AND SWAP2 DUP5 SGT SWAP1 ISZERO AND OR PUSH2 0x479 JUMPI DUP7 DUP12 SWAP4 DUP12 SWAP8 SWAP7 SWAP6 SWAP4 PUSH2 0x331 SWAP4 SSTORE PUSH2 0x18B7 JUMP JUMPDEST DUP2 SSTORE PUSH2 0x35E DUP9 DUP5 PUSH32 0x0 PUSH2 0x1F0D JUMP JUMPDEST PUSH2 0x367 DUP6 PUSH2 0x1670 JUMP JUMPDEST SWAP1 SLOAD PUSH1 0x1 PUSH1 0x1 PUSH1 0xA0 SHL SUB SWAP6 PUSH1 0x3 SWAP3 SWAP1 SWAP3 SHL SHR DUP6 AND SWAP2 DUP3 PUSH2 0x3FC JUMPI JUMPDEST POP POP POP POP PUSH2 0x3A2 DUP5 DUP3 DUP5 PUSH2 0x395 DUP8 PUSH2 0x168B JUMP JUMPDEST SWAP1 SLOAD SWAP1 PUSH1 0x3 SHL SHR AND PUSH2 0x1F0D JUMP JUMPDEST DUP5 MLOAD SWAP4 DUP5 MSTORE AND SWAP2 PUSH32 0x8166BF25F8A2B7ED3C85049207DA4358D16EDBED977D23FA2EE6F0DDE3EC2132 PUSH1 0x20 CALLER SWAP3 LOG4 MLOAD SWAP1 DUP2 MSTORE PUSH32 0x71BAB65CED2E5750775A0613BE067DF48EF06CF92A496EBF7663AE0660924954 PUSH1 0x20 CALLER SWAP3 LOG3 DUP1 RETURN JUMPDEST SWAP1 SWAP2 SWAP3 SWAP4 SWAP5 SWAP6 POP SLOAD DUP3 EXTCODESIZE ISZERO PUSH2 0x475 JUMPI DUP9 SWAP3 DUP5 SWAP3 DUP4 DUP13 PUSH2 0x432 DUP10 SWAP6 DUP14 MLOAD SWAP9 DUP10 SWAP8 DUP9 SWAP7 DUP8 SWAP6 PUSH4 0x23374925 PUSH1 0xE2 SHL DUP8 MSTORE CALLER SWAP2 DUP8 ADD PUSH2 0x1F4B JUMP JUMPDEST SUB SWAP3 GAS CALL DUP1 ISZERO PUSH2 0x46B JUMPI SWAP1 DUP9 SWAP5 SWAP4 SWAP3 SWAP2 PUSH2 0x44E JUMPI JUMPDEST DUP1 DUP1 PUSH2 0x382 JUMP JUMPDEST PUSH2 0x45A SWAP2 SWAP3 SWAP5 POP PUSH2 0x1714 JUMP JUMPDEST PUSH2 0x467 JUMPI DUP6 SWAP2 DUP8 CODESIZE PUSH2 0x447 JUMP JUMPDEST DUP7 DUP1 REVERT JUMPDEST DUP7 MLOAD RETURNDATASIZE DUP5 DUP3 RETURNDATACOPY RETURNDATASIZE SWAP1 REVERT JUMPDEST DUP4 DUP1 REVERT JUMPDEST PUSH4 0x4E487B71 PUSH1 0xE0 SHL DUP12 MSTORE PUSH1 0x11 DUP7 MSTORE PUSH1 0x24 DUP12 REVERT JUMPDEST PUSH4 0x4E487B71 PUSH1 0xE0 SHL DUP15 MSTORE PUSH1 0x11 DUP10 MSTORE PUSH1 0x24 DUP15 REVERT JUMPDEST POP DUP3 CALLVALUE PUSH2 0x4CE JUMPI DUP2 PUSH1 0x3 NOT CALLDATASIZE ADD SLT PUSH2 0x4CE JUMPI POP PUSH2 0x4C7 PUSH1 0x20 SWAP3 PUSH2 0x4C0 PUSH2 0x15FB JUMP JUMPDEST SWAP1 CALLDATALOAD PUSH2 0x18FC JUMP JUMPDEST SWAP1 MLOAD SWAP1 DUP2 MSTORE RETURN JUMPDEST DUP1 REVERT JUMPDEST POP SWAP1 CALLVALUE PUSH2 0x23B JUMPI PUSH1 0x20 CALLDATASIZE PUSH1 0x3 NOT ADD SLT PUSH2 0x23B JUMPI CALLDATALOAD SWAP2 PUSH1 0x6 SLOAD DUP4 LT ISZERO PUSH2 0x4CE JUMPI POP PUSH2 0x4FC PUSH1 0x20 SWAP3 PUSH2 0x1670 JUMP JUMPDEST SWAP1 SLOAD SWAP2 MLOAD SWAP2 PUSH1 0x1 DUP1 PUSH1 0xA0 SHL SUB SWAP2 PUSH1 0x3 SHL SHR AND DUP2 MSTORE RETURN JUMPDEST POP CALLVALUE PUSH2 0x23B JUMPI PUSH1 0x60 CALLDATASIZE PUSH1 0x3 NOT ADD SLT PUSH2 0x23B JUMPI PUSH1 0x1 PUSH1 0x1 PUSH1 0xA0 SHL SUB SWAP2 PUSH1 0x24 DUP1 CALLDATALOAD DUP5 DUP2 AND SWAP4 DUP4 CALLDATALOAD SWAP3 SWAP1 SWAP2 DUP6 SWAP1 SUB PUSH2 0x467 JUMPI PUSH2 0x549 PUSH2 0x16A6 JUMP JUMPDEST PUSH2 0x551 PUSH2 0x16BC JUMP JUMPDEST PUSH2 0x55D DUP5 PUSH1 0x8 SLOAD PUSH2 0x1779 JUMP JUMPDEST PUSH1 0x8 SSTORE PUSH1 0x5 SLOAD PUSH1 0x1 PUSH1 0x40 SHL SWAP2 SWAP1 DUP3 DUP2 LT ISZERO PUSH2 0x6E1 JUMPI PUSH2 0x5A3 PUSH2 0x586 DUP3 PUSH1 0x1 DUP12 SWAP5 ADD PUSH1 0x5 SSTORE PUSH2 0x168B JUMP JUMPDEST DUP2 SWAP4 SWAP2 SLOAD SWAP1 PUSH1 0x3 SHL SWAP2 PUSH1 0x1 DUP1 PUSH1 0xA0 SHL SUB DUP1 SWAP2 AND DUP4 SHL SWAP3 SHL NOT AND OR SWAP1 JUMP JUMPDEST SWAP1 SSTORE PUSH1 0x6 SLOAD DUP3 DUP2 LT ISZERO PUSH2 0x6E1 JUMPI PUSH2 0x5C3 DUP2 PUSH1 0x1 PUSH2 0x5E4 SWAP4 ADD PUSH1 0x6 SSTORE PUSH2 0x1670 JUMP JUMPDEST SWAP10 SWAP1 SWAP3 AND DUP1 SWAP10 DUP4 SLOAD SWAP1 PUSH1 0x3 SHL SWAP2 PUSH1 0x1 DUP1 PUSH1 0xA0 SHL SUB DUP1 SWAP2 AND DUP4 SHL SWAP3 SHL NOT AND OR SWAP1 JUMP JUMPDEST SWAP1 SSTORE PUSH1 0x3 SLOAD PUSH1 0x1 PUSH1 0xFF DUP3 AND ADD PUSH1 0xFF DUP2 GT PUSH2 0x6CD JUMPI PUSH1 0xFF AND SWAP1 PUSH1 0xFF NOT AND OR PUSH1 0x3 SSTORE PUSH2 0x60D DUP5 PUSH2 0x20F1 JUMP JUMPDEST SWAP1 PUSH2 0x617 NUMBER PUSH2 0x20F1 JUMP JUMPDEST DUP5 MLOAD SWAP3 PUSH2 0x623 DUP5 PUSH2 0x173D JUMP JUMPDEST DUP11 DUP5 MSTORE PUSH1 0x1 PUSH1 0x1 PUSH1 0x40 SHL SUB DUP1 SWAP3 AND PUSH1 0x20 DUP6 ADD MSTORE AND DUP5 DUP4 ADD MSTORE DUP9 PUSH1 0x60 DUP4 ADD MSTORE PUSH1 0x1 PUSH1 0x80 DUP4 ADD MSTORE DUP6 SLOAD SWAP1 DUP2 LT ISZERO PUSH2 0x6BB JUMPI SWAP1 PUSH2 0x665 DUP3 PUSH1 0x1 PUSH2 0x66B SWAP5 ADD DUP9 SSTORE PUSH2 0x163B JUMP JUMPDEST SWAP1 PUSH2 0x183C JUMP JUMPDEST PUSH1 0x5 SLOAD PUSH1 0x0 NOT DUP2 ADD SWAP5 SWAP1 DUP6 GT PUSH2 0x6AA JUMPI POP POP PUSH32 0x81EE0F8C5C46E2CB41984886F77A84181724ABB86C32A5F6DE539B07509D45E5 SWAP2 PUSH1 0x20 SWAP2 MLOAD SWAP1 DUP2 MSTORE LOG4 DUP1 RETURN JUMPDEST PUSH4 0x4E487B71 PUSH1 0xE0 SHL DUP9 MSTORE PUSH1 0x11 SWAP1 MSTORE DUP7 REVERT JUMPDEST PUSH4 0x4E487B71 PUSH1 0xE0 SHL DUP10 MSTORE PUSH1 0x41 DUP7 MSTORE DUP3 DUP10 REVERT JUMPDEST DUP4 PUSH1 0x11 DUP9 PUSH4 0x4E487B71 PUSH1 0xE0 SHL PUSH1 0x0 MSTORE MSTORE PUSH1 0x0 REVERT JUMPDEST PUSH4 0x4E487B71 PUSH1 0xE0 SHL DUP11 MSTORE PUSH1 0x41 DUP8 MSTORE DUP4 DUP11 REVERT JUMPDEST POP DUP3 CALLVALUE PUSH2 0x4CE JUMPI PUSH1 0x20 CALLDATASIZE PUSH1 0x3 NOT ADD SLT PUSH2 0x4CE JUMPI PUSH2 0x720 PUSH1 0xFF PUSH1 0x2 PUSH2 0x717 DUP7 CALLDATALOAD PUSH2 0x163B JUMP JUMPDEST POP ADD SLOAD AND PUSH2 0x1827 JUMP JUMPDEST PUSH1 0xFF PUSH1 0x3 SLOAD AND SWAP2 DUP3 ISZERO PUSH2 0x747 JUMPI PUSH1 0x20 DUP5 PUSH1 0xFF PUSH2 0x73F DUP7 DUP3 DUP8 AND DIV PUSH2 0x1827 JUMP JUMPDEST SWAP2 MLOAD SWAP2 AND DUP2 MSTORE RETURN JUMPDEST PUSH4 0x4E487B71 PUSH1 0xE0 SHL DUP2 MSTORE PUSH1 0x12 DUP6 MSTORE PUSH1 0x24 SWAP1 REVERT JUMPDEST POP SWAP2 CALLVALUE PUSH2 0x4CE JUMPI DUP3 PUSH1 0x3 NOT CALLDATASIZE ADD SLT PUSH2 0x4CE JUMPI DUP3 SWAP1 PUSH2 0x776 PUSH2 0x15FB JUMP JUMPDEST SWAP3 CALLDATALOAD DUP2 MSTORE PUSH1 0x7 PUSH1 0x20 MSTORE KECCAK256 SWAP1 PUSH1 0x1 DUP1 PUSH1 0xA0 SHL SUB AND PUSH1 0x0 MSTORE PUSH1 0x20 MSTORE DUP1 PUSH1 0x0 KECCAK256 PUSH1 0x1 DUP2 SLOAD SWAP2 ADD SLOAD DUP3 MLOAD SWAP2 DUP3 MSTORE PUSH1 0x20 DUP3 ADD MSTORE RETURN JUMPDEST POP SWAP1 CALLVALUE PUSH2 0x23B JUMPI DUP2 PUSH1 0x3 NOT CALLDATASIZE ADD SLT PUSH2 0x23B JUMPI DUP1 CALLDATALOAD SWAP2 PUSH1 0x24 CALLDATALOAD SWAP1 PUSH2 0x7C7 PUSH2 0x16BC JUMP JUMPDEST DUP1 MLOAD PUSH4 0x70A08231 PUSH1 0xE0 SHL DUP2 MSTORE ADDRESS DUP5 DUP3 ADD MSTORE PUSH1 0x20 SWAP4 SWAP1 DUP5 DUP2 PUSH1 0x24 DUP2 PUSH32 0x0 PUSH1 0x1 PUSH1 0x1 PUSH1 0xA0 SHL SUB AND GAS STATICCALL SWAP1 DUP2 ISZERO PUSH2 0x8F0 JUMPI DUP8 SWAP2 PUSH2 0x8C3 JUMPI JUMPDEST POP DUP4 GT PUSH2 0x878 JUMPI POP SWAP1 PUSH32 0xCDD8C438C177C1B7298106F22AC8FC3588CAA838EC239042BF4DA8CEC4FAD00C SWAP3 SWAP2 PUSH2 0x853 DUP3 PUSH1 0x1 SLOAD PUSH2 0x1779 JUMP JUMPDEST PUSH1 0x1 SSTORE PUSH1 0x1 PUSH2 0x861 DUP7 PUSH2 0x163B JUMP JUMPDEST POP ADD PUSH2 0x86E DUP4 DUP3 SLOAD PUSH2 0x1779 JUMP JUMPDEST SWAP1 SSTORE MLOAD SWAP1 DUP2 MSTORE LOG2 DUP1 RETURN JUMPDEST DUP4 PUSH1 0x84 SWAP3 MLOAD SWAP2 PUSH3 0x461BCD PUSH1 0xE5 SHL DUP4 MSTORE DUP3 ADD MSTORE PUSH1 0x21 PUSH1 0x24 DUP3 ADD MSTORE PUSH32 0x4368616F733A20496E73756666696369656E74204348414F532062616C616E63 PUSH1 0x44 DUP3 ADD MSTORE PUSH1 0x65 PUSH1 0xF8 SHL PUSH1 0x64 DUP3 ADD MSTORE REVERT JUMPDEST SWAP1 POP DUP5 DUP2 DUP2 RETURNDATASIZE DUP4 GT PUSH2 0x8E9 JUMPI JUMPDEST PUSH2 0x8DA DUP2 DUP4 PUSH2 0x1758 JUMP JUMPDEST DUP2 ADD SUB SLT PUSH2 0x236 JUMPI MLOAD CODESIZE PUSH2 0x81B JUMP JUMPDEST POP RETURNDATASIZE PUSH2 0x8D0 JUMP JUMPDEST DUP4 MLOAD RETURNDATASIZE DUP10 DUP3 RETURNDATACOPY RETURNDATASIZE SWAP1 REVERT JUMPDEST POP CALLVALUE PUSH2 0x23B JUMPI PUSH2 0x909 CALLDATASIZE PUSH2 0x1611 JUMP JUMPDEST PUSH2 0x915 DUP4 SWAP5 SWAP3 SWAP4 PUSH2 0x1B10 JUMP JUMPDEST SWAP1 DUP5 DUP8 MSTORE PUSH1 0x7 PUSH1 0x20 MSTORE DUP3 DUP8 KECCAK256 SWAP6 PUSH1 0x1 DUP1 PUSH1 0xA0 SHL SUB SWAP3 DUP4 DUP4 AND SWAP8 DUP9 PUSH1 0x0 MSTORE PUSH1 0x20 MSTORE DUP5 PUSH1 0x0 KECCAK256 SWAP1 PUSH1 0x1 PUSH2 0x947 DUP9 DUP5 SLOAD PUSH2 0x1779 JUMP JUMPDEST DUP1 DUP5 SSTORE SWAP3 ADD DUP1 SLOAD SWAP2 MLOAD PUSH5 0xE8D4A51000 SWAP1 PUSH2 0x96A SWAP1 PUSH1 0x1 PUSH1 0x1 PUSH1 0x80 SHL SUB AND DUP11 PUSH2 0x1ACE JUMP JUMPDEST DIV SWAP2 DUP12 DUP4 DUP3 ADD SWAP4 DUP5 SLT SWAP2 SLT SWAP1 DUP1 ISZERO DUP3 AND SWAP2 ISZERO AND OR PUSH2 0xA81 JUMPI SSTORE DUP9 SWAP3 SWAP2 SWAP1 DUP5 PUSH2 0x991 DUP10 PUSH2 0x1670 JUMP JUMPDEST SWAP1 SLOAD SWAP1 PUSH1 0x3 SHL SHR AND DUP1 PUSH2 0xA1A JUMPI JUMPDEST POP POP POP POP POP PUSH2 0x9ED SWAP1 PUSH2 0x9B1 DUP6 PUSH2 0x168B JUMP JUMPDEST SWAP1 SLOAD SWAP1 PUSH1 0x3 SHL SHR AND DUP3 MLOAD SWAP1 PUSH4 0x23B872DD PUSH1 0xE0 SHL PUSH1 0x20 DUP4 ADD MSTORE CALLER PUSH1 0x24 DUP4 ADD MSTORE ADDRESS PUSH1 0x44 DUP4 ADD MSTORE DUP5 PUSH1 0x64 DUP4 ADD MSTORE PUSH1 0x64 DUP3 MSTORE PUSH2 0x9E8 DUP3 PUSH2 0x173D JUMP JUMPDEST PUSH2 0x1CF1 JUMP JUMPDEST MLOAD SWAP1 DUP2 MSTORE PUSH32 0x2D7E648DD130FC184D383E55BB126AC4C9C60E8F94BF05ACDF557BA2D540B47 PUSH1 0x20 CALLER SWAP3 LOG4 DUP1 RETURN JUMPDEST DUP1 EXTCODESIZE ISZERO PUSH2 0xA7D JUMPI DUP9 DUP6 DUP1 SWAP5 PUSH2 0xA44 DUP8 SWAP6 DUP12 MLOAD SWAP9 DUP10 SWAP8 DUP9 SWAP7 DUP8 SWAP6 PUSH4 0x23374925 PUSH1 0xE2 SHL DUP8 MSTORE DUP7 ADD PUSH2 0x1CC2 JUMP JUMPDEST SUB SWAP3 GAS CALL DUP1 ISZERO PUSH2 0xA73 JUMPI PUSH2 0xA5B JUMPI JUMPDEST DUP1 DUP1 DUP1 PUSH2 0x99F JUMP JUMPDEST PUSH2 0xA64 SWAP1 PUSH2 0x1714 JUMP JUMPDEST PUSH2 0xA6F JUMPI DUP6 CODESIZE PUSH2 0xA53 JUMP JUMPDEST DUP6 DUP1 REVERT JUMPDEST DUP5 MLOAD RETURNDATASIZE DUP5 DUP3 RETURNDATACOPY RETURNDATASIZE SWAP1 REVERT JUMPDEST DUP5 DUP1 REVERT JUMPDEST PUSH4 0x4E487B71 PUSH1 0xE0 SHL DUP12 MSTORE PUSH1 0x11 DUP5 MSTORE PUSH1 0x24 DUP12 REVERT JUMPDEST DUP4 DUP3 CALLVALUE PUSH2 0x283 JUMPI DUP2 PUSH1 0x3 NOT CALLDATASIZE ADD SLT PUSH2 0x283 JUMPI SWAP1 SLOAD SWAP1 MLOAD PUSH1 0x1 PUSH1 0x1 PUSH1 0xA0 SHL SUB SWAP1 SWAP2 AND DUP2 MSTORE PUSH1 0x20 SWAP1 RETURN JUMPDEST POP SWAP1 CALLVALUE PUSH2 0x23B JUMPI DUP2 PUSH1 0x3 NOT CALLDATASIZE ADD SLT PUSH2 0x23B JUMPI DUP1 CALLDATALOAD SWAP2 PUSH1 0xFF PUSH1 0x24 CALLDATALOAD DUP2 DUP2 AND SWAP4 SWAP1 DUP5 DUP2 SUB PUSH2 0x467 JUMPI PUSH2 0xAEA PUSH2 0x16BC JUMP JUMPDEST DUP5 PUSH2 0xB61 JUMPI POP POP SWAP2 PUSH1 0x20 SWAP2 DUP4 PUSH32 0xCCA7BE0CE2046924923362617977E6D03C4004E88C4C3EB96459B0D3315E04DD SWAP5 PUSH1 0x2 PUSH2 0xB23 DUP9 PUSH2 0x163B JUMP JUMPDEST POP ADD SLOAD AND SWAP1 PUSH2 0xB37 PUSH1 0x3 SLOAD SWAP3 DUP3 DUP5 AND PUSH2 0x179C JUMP JUMPDEST AND SWAP1 PUSH1 0xFF NOT AND OR PUSH1 0x3 SSTORE PUSH2 0xB4A DUP6 PUSH2 0x163B JUMP JUMPDEST POP DUP1 SLOAD PUSH1 0x1 PUSH1 0x1 PUSH1 0xC0 SHL SUB AND SWAP1 SSTORE JUMPDEST MLOAD SWAP1 DUP2 MSTORE LOG2 DUP1 RETURN JUMPDEST DUP3 PUSH1 0x2 PUSH2 0xB6D DUP9 PUSH2 0x163B JUMP JUMPDEST POP ADD SLOAD AND DUP6 GT ISZERO PUSH2 0xC0B JUMPI PUSH2 0xB92 SWAP1 DUP4 PUSH1 0x2 PUSH2 0xB88 DUP10 PUSH2 0x163B JUMP JUMPDEST POP ADD SLOAD AND SWAP1 PUSH2 0x179C JUMP JUMPDEST SWAP1 JUMPDEST DUP3 PUSH1 0x3 SLOAD SWAP3 AND DUP4 DUP4 AND ADD SWAP1 DUP4 DUP3 GT PUSH2 0xBF6 JUMPI POP SWAP2 PUSH1 0x20 SWAP4 SWAP2 PUSH32 0xCCA7BE0CE2046924923362617977E6D03C4004E88C4C3EB96459B0D3315E04DD SWAP6 SWAP4 PUSH1 0xFF NOT SWAP3 DUP4 SWAP2 AND SWAP2 AND OR PUSH1 0x3 SSTORE DUP3 PUSH1 0x2 PUSH2 0xBE8 DUP9 PUSH2 0x163B JUMP JUMPDEST POP ADD SWAP2 DUP3 SLOAD AND OR SWAP1 SSTORE PUSH2 0xB59 JUMP JUMPDEST PUSH1 0x11 SWAP1 PUSH4 0x4E487B71 PUSH1 0xE0 SHL PUSH1 0x0 MSTORE MSTORE PUSH1 0x24 PUSH1 0x0 REVERT JUMPDEST PUSH2 0xC24 SWAP1 DUP4 PUSH1 0x2 PUSH2 0xC1B DUP10 PUSH2 0x163B JUMP JUMPDEST POP ADD SLOAD AND PUSH2 0x179C JUMP JUMPDEST SWAP1 PUSH2 0xB94 JUMP JUMPDEST POP SWAP1 CALLVALUE PUSH2 0x23B JUMPI PUSH1 0x80 CALLDATASIZE PUSH1 0x3 NOT ADD SLT PUSH2 0x23B JUMPI CALLDATALOAD PUSH1 0x24 CALLDATALOAD SWAP2 PUSH2 0xC4A PUSH2 0x16A6 JUMP JUMPDEST SWAP1 PUSH1 0x64 CALLDATALOAD SWAP2 DUP3 ISZERO ISZERO SWAP1 DUP2 DUP5 SUB PUSH2 0x467 JUMPI PUSH32 0x95895A6AB1DF54420D241B55243258A33E61B2194DB66C1179EC521AAE8E1865 SWAP4 PUSH2 0xC84 PUSH2 0x16BC JUMP JUMPDEST PUSH2 0xCA7 DUP8 PUSH2 0xCA2 PUSH1 0x8 SLOAD PUSH2 0xC97 DUP11 PUSH2 0x163B JUMP JUMPDEST POP SLOAD PUSH1 0xC0 SHR SWAP1 PUSH2 0x18B7 JUMP JUMPDEST PUSH2 0x1779 JUMP JUMPDEST PUSH1 0x8 SSTORE DUP1 PUSH2 0xCE4 PUSH2 0xCB7 DUP10 PUSH2 0x20F1 JUMP JUMPDEST PUSH2 0xCC0 DUP10 PUSH2 0x163B JUMP JUMPDEST POP DUP1 SLOAD PUSH1 0x1 PUSH1 0x1 PUSH1 0xC0 SHL SUB AND PUSH1 0xC0 SWAP3 SWAP1 SWAP3 SHL PUSH1 0x1 PUSH1 0x1 PUSH1 0xC0 SHL SUB NOT AND SWAP2 SWAP1 SWAP2 OR SWAP1 SSTORE JUMP JUMPDEST PUSH2 0xD2A JUMPI JUMPDEST ISZERO PUSH2 0xD08 JUMPI SWAP1 JUMPDEST DUP3 MLOAD SWAP6 DUP7 MSTORE PUSH1 0x20 DUP7 ADD MSTORE PUSH1 0x1 PUSH1 0x1 PUSH1 0xA0 SHL SUB AND SWAP4 LOG3 DUP1 RETURN JUMPDEST POP PUSH2 0xD12 DUP5 PUSH2 0x1670 JUMP JUMPDEST SWAP1 SLOAD PUSH1 0x3 SWAP2 SWAP1 SWAP2 SHL SHR PUSH1 0x1 PUSH1 0x1 PUSH1 0xA0 SHL SUB AND SWAP1 PUSH2 0xCF0 JUMP JUMPDEST PUSH2 0xD58 PUSH2 0xD36 DUP8 PUSH2 0x1670 JUMP JUMPDEST DUP2 SLOAD SWAP2 SWAP3 PUSH1 0x1 PUSH1 0x1 PUSH1 0xA0 SHL SUB DUP7 DUP2 AND PUSH1 0x3 SWAP4 SWAP1 SWAP4 SHL SWAP3 DUP4 SHL SWAP3 SHL NOT SWAP1 SWAP3 AND OR SWAP1 JUMP JUMPDEST SWAP1 SSTORE PUSH2 0xCE9 JUMP JUMPDEST DUP4 DUP3 CALLVALUE PUSH2 0x283 JUMPI DUP2 PUSH1 0x3 NOT CALLDATASIZE ADD SLT PUSH2 0x283 JUMPI PUSH1 0x3 SLOAD SWAP1 MLOAD PUSH1 0x8 SWAP2 SWAP1 SWAP2 SHR PUSH1 0x1 PUSH1 0x1 PUSH1 0xA0 SHL SUB AND DUP2 MSTORE PUSH1 0x20 SWAP1 RETURN JUMPDEST POP SWAP1 CALLVALUE PUSH2 0x23B JUMPI PUSH1 0x20 CALLDATASIZE PUSH1 0x3 NOT ADD SLT PUSH2 0x23B JUMPI CALLDATALOAD SWAP2 PUSH1 0x5 SLOAD DUP4 LT ISZERO PUSH2 0x4CE JUMPI POP PUSH2 0x4FC PUSH1 0x20 SWAP3 PUSH2 0x168B JUMP JUMPDEST DUP4 CALLVALUE PUSH2 0x4CE JUMPI DUP1 PUSH1 0x3 NOT CALLDATASIZE ADD SLT PUSH2 0x4CE JUMPI PUSH2 0xDD0 PUSH2 0x16BC JUMP JUMPDEST PUSH1 0x0 DUP1 SLOAD PUSH1 0x1 PUSH1 0x1 PUSH1 0xA0 SHL SUB NOT DUP2 AND DUP3 SSTORE PUSH1 0x1 PUSH1 0x1 PUSH1 0xA0 SHL SUB AND PUSH32 0x8BE0079C531659141344CD1FD0A4F28419497F9722A3DAAFE3B4186F6B6457E0 DUP3 DUP1 LOG3 DUP1 RETURN JUMPDEST POP POP CALLVALUE PUSH2 0x283 JUMPI PUSH1 0x20 CALLDATASIZE PUSH1 0x3 NOT ADD SLT PUSH2 0x283 JUMPI DUP1 CALLDATALOAD SWAP1 PUSH1 0x1 PUSH1 0x1 PUSH1 0x40 SHL SUB SWAP1 DUP2 DUP4 GT PUSH2 0x475 JUMPI CALLDATASIZE PUSH1 0x23 DUP5 ADD SLT ISZERO PUSH2 0x475 JUMPI DUP3 DUP2 ADD CALLDATALOAD SWAP2 DUP3 GT PUSH2 0x475 JUMPI PUSH1 0x24 SWAP3 PUSH1 0x5 CALLDATASIZE DUP6 DUP6 DUP4 SHL DUP5 ADD ADD GT PUSH2 0xA6F JUMPI DUP6 JUMPDEST DUP5 DUP2 LT PUSH2 0xE6C JUMPI DUP7 DUP1 RETURN JUMPDEST PUSH2 0xE7C DUP7 DUP3 DUP5 SHL DUP6 ADD ADD CALLDATALOAD PUSH2 0x1B10 JUMP JUMPDEST POP PUSH1 0x0 NOT DUP2 EQ PUSH2 0xE8E JUMPI PUSH1 0x1 ADD PUSH2 0xE61 JUMP JUMPDEST PUSH4 0x4E487B71 PUSH1 0xE0 SHL DUP8 MSTORE PUSH1 0x11 DUP5 MSTORE DUP6 DUP8 REVERT JUMPDEST POP DUP3 CALLVALUE PUSH2 0x4CE JUMPI PUSH1 0x20 CALLDATASIZE PUSH1 0x3 NOT ADD SLT PUSH2 0x4CE JUMPI POP PUSH2 0xEC1 PUSH2 0xF10 SWAP3 CALLDATALOAD PUSH2 0x1B10 JUMP JUMPDEST SWAP1 MLOAD SWAP2 DUP3 SWAP2 DUP3 SWAP2 SWAP1 SWAP2 PUSH1 0x80 PUSH1 0xFF DUP2 PUSH1 0xA0 DUP5 ADD SWAP6 PUSH1 0x1 DUP1 DUP4 SHL SUB DUP2 MLOAD AND DUP6 MSTORE PUSH1 0x1 PUSH1 0x1 PUSH1 0x40 SHL SUB DUP1 PUSH1 0x20 DUP4 ADD MLOAD AND PUSH1 0x20 DUP8 ADD MSTORE PUSH1 0x40 DUP3 ADD MLOAD AND PUSH1 0x40 DUP7 ADD MSTORE PUSH1 0x60 DUP2 ADD MLOAD PUSH1 0x60 DUP7 ADD MSTORE ADD MLOAD AND SWAP2 ADD MSTORE JUMP JUMPDEST SUB SWAP1 RETURN JUMPDEST POP SWAP1 CALLVALUE PUSH2 0x23B JUMPI PUSH1 0x20 SWAP1 DUP2 PUSH1 0x3 NOT CALLDATASIZE ADD SLT PUSH2 0x475 JUMPI PUSH1 0x3 SLOAD PUSH1 0x1 PUSH1 0x1 PUSH1 0xA0 SHL SUB SWAP4 DUP3 CALLDATALOAD SWAP4 SWAP2 PUSH1 0x8 SHR DUP6 AND DUP1 ISZERO PUSH2 0x1168 JUMPI DUP6 PUSH2 0xF4E DUP7 PUSH2 0x168B JUMP JUMPDEST SWAP1 SLOAD SWAP1 PUSH1 0x3 SHL SHR AND SWAP6 DUP8 DUP4 MLOAD SWAP8 PUSH4 0x70A08231 PUSH1 0xE0 SHL SWAP4 DUP5 DUP11 MSTORE ADDRESS DUP9 DUP12 ADD MSTORE DUP7 DUP11 PUSH1 0x24 DUP2 DUP6 GAS STATICCALL SWAP10 DUP11 ISZERO PUSH2 0x1129 JUMPI DUP4 SWAP11 PUSH2 0x1133 JUMPI JUMPDEST POP DUP6 MLOAD PUSH4 0x95EA7B3 PUSH1 0xE0 SHL DUP2 MSTORE PUSH1 0x1 PUSH1 0x1 PUSH1 0xA0 SHL SUB SWAP1 SWAP2 AND DUP9 DUP3 ADD SWAP1 DUP2 MSTORE PUSH1 0x20 DUP2 ADD DUP12 SWAP1 MSTORE DUP8 SWAP1 DUP3 SWAP1 DUP2 SWAP1 PUSH1 0x40 ADD SUB DUP2 DUP7 DUP7 GAS CALL DUP1 ISZERO PUSH2 0x1129 JUMPI SWAP1 DUP8 SWAP3 SWAP2 PUSH2 0x10FC JUMPI JUMPDEST POP PUSH1 0x24 DUP5 PUSH1 0x3 SLOAD PUSH1 0x8 SHR AND SWAP2 DUP8 MLOAD SWAP5 DUP6 SWAP4 DUP5 SWAP3 PUSH4 0xCE5494BB PUSH1 0xE0 SHL DUP5 MSTORE DUP13 DUP5 ADD MSTORE GAS CALL SWAP1 DUP2 ISZERO PUSH2 0x10F2 JUMPI DUP10 SWAP2 PUSH2 0x10B8 JUMPI JUMPDEST POP AND SWAP6 DUP3 MLOAD SWAP2 DUP3 MSTORE ADDRESS DUP6 DUP4 ADD MSTORE DUP4 DUP3 PUSH1 0x24 DUP2 DUP11 GAS STATICCALL SWAP2 DUP3 ISZERO PUSH2 0x10AE JUMPI DUP9 SWAP3 PUSH2 0x107F JUMPI JUMPDEST POP SUB PUSH2 0x1033 JUMPI POP POP POP PUSH2 0x586 PUSH2 0x102E SWAP2 PUSH2 0x168B JUMP JUMPDEST SWAP1 SSTORE DUP1 RETURN JUMPDEST MLOAD PUSH3 0x461BCD PUSH1 0xE5 SHL DUP2 MSTORE SWAP2 DUP3 ADD MSTORE PUSH1 0x22 PUSH1 0x24 DUP3 ADD MSTORE PUSH32 0x4368616F733A206D696772617465642062616C616E6365206D757374206D6174 PUSH1 0x44 DUP3 ADD MSTORE PUSH2 0xC6D PUSH1 0xF3 SHL PUSH1 0x64 DUP3 ADD MSTORE PUSH1 0x84 SWAP2 POP REVERT JUMPDEST SWAP1 SWAP2 POP DUP4 DUP2 DUP2 RETURNDATASIZE DUP4 GT PUSH2 0x10A7 JUMPI JUMPDEST PUSH2 0x1097 DUP2 DUP4 PUSH2 0x1758 JUMP JUMPDEST DUP2 ADD SUB SLT PUSH2 0x236 JUMPI MLOAD SWAP1 CODESIZE PUSH2 0x1019 JUMP JUMPDEST POP RETURNDATASIZE PUSH2 0x108D JUMP JUMPDEST DUP4 MLOAD RETURNDATASIZE DUP11 DUP3 RETURNDATACOPY RETURNDATASIZE SWAP1 REVERT JUMPDEST SWAP1 POP DUP5 DUP2 DUP2 RETURNDATASIZE DUP4 GT PUSH2 0x10EB JUMPI JUMPDEST PUSH2 0x10CF DUP2 DUP4 PUSH2 0x1758 JUMP JUMPDEST DUP2 ADD SUB SLT PUSH2 0x10E7 JUMPI MLOAD DUP2 DUP2 AND DUP2 SUB PUSH2 0x10E7 JUMPI CODESIZE PUSH2 0xFF6 JUMP JUMPDEST DUP9 DUP1 REVERT JUMPDEST POP RETURNDATASIZE PUSH2 0x10C5 JUMP JUMPDEST DUP5 MLOAD RETURNDATASIZE DUP12 DUP3 RETURNDATACOPY RETURNDATASIZE SWAP1 REVERT JUMPDEST PUSH2 0x111B SWAP1 DUP4 RETURNDATASIZE DUP6 GT PUSH2 0x1122 JUMPI JUMPDEST PUSH2 0x1113 DUP2 DUP4 PUSH2 0x1758 JUMP JUMPDEST DUP2 ADD SWAP1 PUSH2 0x18C4 JUMP JUMPDEST POP CODESIZE PUSH2 0xFC5 JUMP JUMPDEST POP RETURNDATASIZE PUSH2 0x1109 JUMP JUMPDEST DUP7 MLOAD RETURNDATASIZE DUP6 DUP3 RETURNDATACOPY RETURNDATASIZE SWAP1 REVERT JUMPDEST DUP8 DUP1 SWAP3 SWAP12 POP DUP2 SWAP5 POP RETURNDATASIZE DUP4 GT PUSH2 0x1161 JUMPI JUMPDEST PUSH2 0x114D DUP2 DUP4 PUSH2 0x1758 JUMP JUMPDEST DUP2 ADD SUB SLT PUSH2 0x236 JUMPI SWAP1 MLOAD SWAP8 DUP10 SWAP2 SWAP1 DUP7 PUSH2 0xF82 JUMP JUMPDEST POP RETURNDATASIZE PUSH2 0x1143 JUMP JUMPDEST POP MLOAD PUSH3 0x461BCD PUSH1 0xE5 SHL DUP2 MSTORE SWAP2 DUP3 ADD MSTORE PUSH1 0x16 PUSH1 0x24 DUP3 ADD MSTORE PUSH22 0x10DA185BDCCE881B9BC81B5A59DC985D1BDC881CD95D PUSH1 0x52 SHL PUSH1 0x44 DUP3 ADD MSTORE PUSH1 0x64 SWAP2 POP REVERT JUMPDEST POP SWAP1 CALLVALUE PUSH2 0x23B JUMPI DUP2 PUSH1 0x3 NOT CALLDATASIZE ADD SLT PUSH2 0x23B JUMPI DUP1 CALLDATALOAD SWAP1 PUSH2 0x11C0 PUSH2 0x15FB JUMP JUMPDEST DUP3 DUP6 MSTORE PUSH1 0x7 PUSH1 0x20 MSTORE DUP4 DUP6 KECCAK256 CALLER PUSH1 0x0 MSTORE PUSH1 0x20 MSTORE DUP4 PUSH1 0x0 KECCAK256 SWAP4 DUP6 PUSH1 0x1 DUP7 SLOAD SWAP7 DUP3 DUP2 SSTORE ADD SSTORE DUP6 PUSH2 0x11EC DUP6 PUSH2 0x1670 JUMP JUMPDEST SWAP1 SLOAD PUSH1 0x1 PUSH1 0x1 PUSH1 0xA0 SHL SUB SWAP6 PUSH1 0x3 SWAP3 SWAP1 SWAP3 SHL SHR DUP6 AND SWAP1 DUP2 PUSH2 0x1248 JUMPI JUMPDEST POP POP POP PUSH2 0x1219 DUP6 DUP4 DUP6 PUSH2 0x395 DUP9 PUSH2 0x168B JUMP JUMPDEST MLOAD SWAP4 DUP5 MSTORE AND SWAP2 PUSH32 0x2CAC5E20E1541D836381527A43F651851E302817B71DC8E810284E69210C1C6B PUSH1 0x20 CALLER SWAP3 LOG4 DUP1 RETURN JUMPDEST DUP2 EXTCODESIZE ISZERO PUSH2 0x23B JUMPI DUP7 PUSH1 0xA4 DUP5 SWAP3 DUP4 DUP8 MLOAD SWAP6 DUP7 SWAP5 DUP6 SWAP4 PUSH4 0x23374925 PUSH1 0xE2 SHL DUP6 MSTORE DUP5 ADD MSTORE CALLER PUSH1 0x24 DUP5 ADD MSTORE DUP11 DUP11 AND PUSH1 0x44 DUP5 ADD MSTORE DUP2 PUSH1 0x64 DUP5 ADD MSTORE DUP2 PUSH1 0x84 DUP5 ADD MSTORE GAS CALL DUP1 ISZERO PUSH2 0x12AA JUMPI PUSH2 0x1296 JUMPI JUMPDEST DUP1 PUSH2 0x1207 JUMP JUMPDEST PUSH2 0x129F SWAP1 PUSH2 0x1714 JUMP JUMPDEST PUSH2 0xA6F JUMPI DUP6 CODESIZE PUSH2 0x1290 JUMP JUMPDEST DUP4 MLOAD RETURNDATASIZE DUP5 DUP3 RETURNDATACOPY RETURNDATASIZE SWAP1 REVERT JUMPDEST POP DUP3 CALLVALUE PUSH2 0x4CE JUMPI PUSH1 0x20 CALLDATASIZE PUSH1 0x3 NOT ADD SLT PUSH2 0x4CE JUMPI POP PUSH2 0xEC1 PUSH2 0x12E1 PUSH2 0xF10 SWAP4 PUSH2 0x12DA PUSH2 0x17B0 JUMP JUMPDEST POP CALLDATALOAD PUSH2 0x163B JUMP JUMPDEST POP PUSH2 0x17DB JUMP JUMPDEST POP SWAP1 CALLVALUE PUSH2 0x23B JUMPI PUSH1 0x20 CALLDATASIZE PUSH1 0x3 NOT ADD SLT PUSH2 0x23B JUMPI PUSH32 0x34FDB3FCD643CF0A71EDA37B2DE87B0126F0D620961BD9100C82ABD3A42F07AF SWAP2 PUSH1 0x20 SWAP2 CALLDATALOAD SWAP1 PUSH2 0x1329 PUSH2 0x16BC JUMP JUMPDEST DUP2 PUSH1 0x2 SSTORE MLOAD SWAP1 DUP2 MSTORE LOG1 DUP1 RETURN JUMPDEST POP POP CALLVALUE PUSH2 0x283 JUMPI PUSH1 0x20 CALLDATASIZE PUSH1 0x3 NOT ADD SLT PUSH2 0x283 JUMPI CALLDATALOAD PUSH1 0x1 PUSH1 0x1 PUSH1 0xA0 SHL SUB DUP2 AND DUP2 SUB PUSH2 0x283 JUMPI PUSH2 0x1361 PUSH2 0x16BC JUMP JUMPDEST PUSH1 0x3 DUP1 SLOAD PUSH2 0x100 PUSH1 0x1 PUSH1 0xA8 SHL SUB NOT AND PUSH1 0x8 SWAP3 SWAP1 SWAP3 SHL PUSH2 0x100 PUSH1 0x1 PUSH1 0xA8 SHL SUB AND SWAP2 SWAP1 SWAP2 OR SWAP1 SSTORE DUP1 RETURN JUMPDEST DUP4 DUP3 CALLVALUE PUSH2 0x283 JUMPI DUP2 PUSH1 0x3 NOT CALLDATASIZE ADD SLT PUSH2 0x283 JUMPI PUSH1 0x20 SWAP1 PUSH1 0x2 SLOAD SWAP1 MLOAD SWAP1 DUP2 MSTORE RETURN JUMPDEST POP CALLVALUE PUSH2 0x23B JUMPI CALLDATASIZE PUSH1 0x3 NOT ADD SLT PUSH2 0x283 JUMPI PUSH2 0x13CB SWAP1 PUSH2 0x13C4 PUSH2 0x15FB JUMP JUMPDEST SWAP1 CALLDATALOAD PUSH2 0x1F7B JUMP JUMPDEST DUP1 RETURN JUMPDEST DUP4 DUP3 CALLVALUE PUSH2 0x283 JUMPI DUP2 PUSH1 0x3 NOT CALLDATASIZE ADD SLT PUSH2 0x283 JUMPI PUSH1 0x20 SWAP1 PUSH1 0x8 SLOAD SWAP1 MLOAD SWAP1 DUP2 MSTORE RETURN JUMPDEST POP DUP3 CALLVALUE PUSH2 0x4CE JUMPI PUSH1 0x20 CALLDATASIZE PUSH1 0x3 NOT ADD SLT PUSH2 0x4CE JUMPI DUP3 CALLDATALOAD SWAP3 SLOAD DUP4 LT ISZERO PUSH2 0x4CE JUMPI POP PUSH2 0x1417 PUSH1 0xA0 SWAP3 PUSH2 0x163B JUMP JUMPDEST POP SWAP1 DUP2 SLOAD SWAP2 PUSH1 0xFF PUSH1 0x2 PUSH1 0x1 DUP4 ADD SLOAD SWAP3 ADD SLOAD AND SWAP2 DUP1 MLOAD SWAP4 PUSH1 0x1 DUP1 PUSH1 0x80 SHL SUB DUP2 AND DUP6 MSTORE PUSH1 0x1 PUSH1 0x1 PUSH1 0x40 SHL SUB DUP2 PUSH1 0x80 SHR AND PUSH1 0x20 DUP7 ADD MSTORE PUSH1 0xC0 SHR SWAP1 DUP5 ADD MSTORE PUSH1 0x60 DUP4 ADD MSTORE PUSH1 0x80 DUP3 ADD MSTORE RETURN JUMPDEST POP DUP3 CALLVALUE PUSH2 0x4CE JUMPI PUSH1 0x20 CALLDATASIZE PUSH1 0x3 NOT ADD SLT PUSH2 0x4CE JUMPI POP PUSH2 0x4C7 PUSH1 0x20 SWAP3 CALLDATALOAD PUSH2 0x1AE1 JUMP JUMPDEST POP CALLVALUE PUSH2 0x23B JUMPI PUSH2 0x148C CALLDATASIZE PUSH2 0x1611 JUMP JUMPDEST SWAP1 SWAP4 SWAP2 SWAP3 PUSH2 0x1499 DUP5 PUSH2 0x1B10 JUMP JUMPDEST DUP5 DUP8 MSTORE PUSH1 0x7 PUSH1 0x20 MSTORE DUP2 DUP8 KECCAK256 CALLER DUP9 MSTORE PUSH1 0x20 MSTORE DUP2 DUP8 KECCAK256 SWAP1 PUSH1 0x1 DUP3 ADD PUSH5 0xE8D4A51000 PUSH2 0x14CE DUP3 SLOAD SWAP4 PUSH1 0x1 DUP1 PUSH1 0x80 SHL SUB SWAP1 MLOAD AND DUP11 PUSH2 0x1ACE JUMP JUMPDEST DIV SWAP2 DUP10 DUP4 DUP3 SUB SWAP4 SLT DUP2 DUP5 SLT DUP2 AND SWAP2 DUP5 SGT SWAP1 ISZERO AND OR PUSH2 0x15CC JUMPI SSTORE DUP1 SLOAD DUP7 DUP2 LT ISZERO PUSH2 0x14F5 JUMPI DUP8 DUP1 RETURN JUMPDEST DUP7 PUSH2 0x14FF SWAP2 PUSH2 0x18B7 JUMP JUMPDEST DUP1 SWAP2 SSTORE DUP7 PUSH2 0x150C DUP7 PUSH2 0x1670 JUMP JUMPDEST SWAP1 SLOAD PUSH1 0x1 PUSH1 0x1 PUSH1 0xA0 SHL SUB SWAP7 SWAP2 PUSH1 0x3 SHL SHR DUP7 AND DUP1 PUSH2 0x156E JUMPI JUMPDEST POP POP POP POP PUSH2 0x1537 DUP6 DUP4 DUP6 PUSH2 0x395 DUP9 PUSH2 0x168B JUMP JUMPDEST MLOAD SWAP4 DUP5 MSTORE AND SWAP2 PUSH32 0x8166BF25F8A2B7ED3C85049207DA4358D16EDBED977D23FA2EE6F0DDE3EC2132 PUSH1 0x20 CALLER SWAP3 LOG4 CODESIZE DUP1 DUP1 DUP1 DUP1 DUP1 DUP1 DUP8 DUP1 RETURN JUMPDEST DUP1 EXTCODESIZE ISZERO PUSH2 0x23B JUMPI DUP6 SWAP2 DUP4 DUP10 PUSH2 0x1598 DUP9 MLOAD SWAP8 DUP9 SWAP7 DUP8 SWAP6 DUP7 SWAP5 PUSH4 0x23374925 PUSH1 0xE2 SHL DUP7 MSTORE CALLER SWAP2 DUP7 ADD PUSH2 0x1CC2 JUMP JUMPDEST SUB SWAP3 GAS CALL DUP1 ISZERO PUSH2 0x15C2 JUMPI PUSH2 0x15AF JUMPI JUMPDEST DUP7 DUP2 DUP1 PUSH2 0x1524 JUMP JUMPDEST PUSH2 0x15BB SWAP1 SWAP7 SWAP2 SWAP7 PUSH2 0x1714 JUMP JUMPDEST SWAP5 CODESIZE PUSH2 0x15A7 JUMP JUMPDEST DUP3 MLOAD RETURNDATASIZE DUP10 DUP3 RETURNDATACOPY RETURNDATASIZE SWAP1 REVERT JUMPDEST PUSH4 0x4E487B71 PUSH1 0xE0 SHL DUP10 MSTORE PUSH1 0x11 DUP7 MSTORE PUSH1 0x24 DUP10 REVERT JUMPDEST DUP5 SWAP1 DUP5 CALLVALUE PUSH2 0x23B JUMPI DUP3 PUSH1 0x3 NOT CALLDATASIZE ADD SLT PUSH2 0x23B JUMPI PUSH1 0x20 SWAP3 POP SLOAD DUP2 MSTORE RETURN JUMPDEST PUSH1 0x24 CALLDATALOAD SWAP1 PUSH1 0x1 PUSH1 0x1 PUSH1 0xA0 SHL SUB DUP3 AND DUP3 SUB PUSH2 0x236 JUMPI JUMP JUMPDEST PUSH1 0x60 SWAP1 PUSH1 0x3 NOT ADD SLT PUSH2 0x236 JUMPI PUSH1 0x4 CALLDATALOAD SWAP1 PUSH1 0x24 CALLDATALOAD SWAP1 PUSH1 0x44 CALLDATALOAD PUSH1 0x1 PUSH1 0x1 PUSH1 0xA0 SHL SUB DUP2 AND DUP2 SUB PUSH2 0x236 JUMPI SWAP1 JUMP JUMPDEST PUSH1 0x4 SLOAD DUP2 LT ISZERO PUSH2 0x165A JUMPI PUSH1 0x4 PUSH1 0x0 MSTORE PUSH1 0x3 PUSH1 0x20 PUSH1 0x0 KECCAK256 SWAP2 MUL ADD SWAP1 PUSH1 0x0 SWAP1 JUMP JUMPDEST PUSH4 0x4E487B71 PUSH1 0xE0 SHL PUSH1 0x0 MSTORE PUSH1 0x32 PUSH1 0x4 MSTORE PUSH1 0x24 PUSH1 0x0 REVERT JUMPDEST PUSH1 0x6 SLOAD DUP2 LT ISZERO PUSH2 0x165A JUMPI PUSH1 0x6 PUSH1 0x0 MSTORE PUSH1 0x20 PUSH1 0x0 KECCAK256 ADD SWAP1 PUSH1 0x0 SWAP1 JUMP JUMPDEST PUSH1 0x5 SLOAD DUP2 LT ISZERO PUSH2 0x165A JUMPI PUSH1 0x5 PUSH1 0x0 MSTORE PUSH1 0x20 PUSH1 0x0 KECCAK256 ADD SWAP1 PUSH1 0x0 SWAP1 JUMP JUMPDEST PUSH1 0x44 CALLDATALOAD SWAP1 PUSH1 0x1 PUSH1 0x1 PUSH1 0xA0 SHL SUB DUP3 AND DUP3 SUB PUSH2 0x236 JUMPI JUMP JUMPDEST PUSH1 0x0 SLOAD PUSH1 0x1 PUSH1 0x1 PUSH1 0xA0 SHL SUB AND CALLER SUB PUSH2 0x16D0 JUMPI JUMP JUMPDEST PUSH1 0x64 PUSH1 0x40 MLOAD PUSH3 0x461BCD PUSH1 0xE5 SHL DUP2 MSTORE PUSH1 0x20 PUSH1 0x4 DUP3 ADD MSTORE PUSH1 0x20 PUSH1 0x24 DUP3 ADD MSTORE PUSH32 0x4F776E61626C653A2063616C6C6572206973206E6F7420746865206F776E6572 PUSH1 0x44 DUP3 ADD MSTORE REVERT JUMPDEST PUSH1 0x1 PUSH1 0x1 PUSH1 0x40 SHL SUB DUP2 GT PUSH2 0x1727 JUMPI PUSH1 0x40 MSTORE JUMP JUMPDEST PUSH4 0x4E487B71 PUSH1 0xE0 SHL PUSH1 0x0 MSTORE PUSH1 0x41 PUSH1 0x4 MSTORE PUSH1 0x24 PUSH1 0x0 REVERT JUMPDEST PUSH1 0xA0 DUP2 ADD SWAP1 DUP2 LT PUSH1 0x1 PUSH1 0x1 PUSH1 0x40 SHL SUB DUP3 GT OR PUSH2 0x1727 JUMPI PUSH1 0x40 MSTORE JUMP JUMPDEST SWAP1 PUSH1 0x1F DUP1 NOT SWAP2 ADD AND DUP2 ADD SWAP1 DUP2 LT PUSH1 0x1 PUSH1 0x1 PUSH1 0x40 SHL SUB DUP3 GT OR PUSH2 0x1727 JUMPI PUSH1 0x40 MSTORE JUMP JUMPDEST SWAP2 SWAP1 DUP3 ADD DUP1 SWAP3 GT PUSH2 0x1786 JUMPI JUMP JUMPDEST PUSH4 0x4E487B71 PUSH1 0xE0 SHL PUSH1 0x0 MSTORE PUSH1 0x11 PUSH1 0x4 MSTORE PUSH1 0x24 PUSH1 0x0 REVERT JUMPDEST SWAP1 PUSH1 0xFF DUP1 SWAP2 AND SWAP2 AND SUB SWAP1 PUSH1 0xFF DUP3 GT PUSH2 0x1786 JUMPI JUMP JUMPDEST PUSH1 0x40 MLOAD SWAP1 PUSH2 0x17BD DUP3 PUSH2 0x173D JUMP JUMPDEST PUSH1 0x0 PUSH1 0x80 DUP4 DUP3 DUP2 MSTORE DUP3 PUSH1 0x20 DUP3 ADD MSTORE DUP3 PUSH1 0x40 DUP3 ADD MSTORE DUP3 PUSH1 0x60 DUP3 ADD MSTORE ADD MSTORE JUMP JUMPDEST SWAP1 PUSH1 0x40 MLOAD PUSH2 0x17E8 DUP2 PUSH2 0x173D JUMP JUMPDEST PUSH1 0x80 PUSH1 0xFF PUSH1 0x2 DUP4 SWAP6 DUP1 SLOAD PUSH1 0x1 DUP1 DUP7 SHL SUB DUP2 AND DUP7 MSTORE PUSH1 0x1 PUSH1 0x1 PUSH1 0x40 SHL SUB DUP2 DUP7 SHR AND PUSH1 0x20 DUP8 ADD MSTORE PUSH1 0xC0 SHR PUSH1 0x40 DUP7 ADD MSTORE PUSH1 0x1 DUP2 ADD SLOAD PUSH1 0x60 DUP7 ADD MSTORE ADD SLOAD AND SWAP2 ADD MSTORE JUMP JUMPDEST PUSH1 0xFF PUSH1 0x64 SWAP2 AND MUL SWAP1 PUSH1 0xFF DUP3 AND SWAP2 DUP3 SUB PUSH2 0x1786 JUMPI JUMP JUMPDEST SWAP1 PUSH2 0x18A1 JUMPI DUP2 MLOAD PUSH1 0x20 DUP4 ADD MLOAD PUSH1 0x40 DUP5 ADD MLOAD PUSH1 0x1 PUSH1 0x1 PUSH1 0xC0 SHL SUB NOT PUSH1 0xC0 SWAP2 SWAP1 SWAP2 SHL AND PUSH1 0x1 PUSH1 0x1 PUSH1 0x80 SHL SUB SWAP1 SWAP3 AND PUSH8 0xFFFFFFFFFFFFFFFF PUSH1 0x80 SHL PUSH1 0x80 SWAP3 DUP4 SHL AND OR SWAP2 SWAP1 SWAP2 OR DUP3 SSTORE PUSH1 0xFF SWAP2 PUSH1 0x2 SWAP1 PUSH1 0x60 DUP6 ADD MLOAD PUSH1 0x1 DUP3 ADD SSTORE ADD SWAP3 ADD MLOAD AND PUSH1 0xFF NOT DUP3 SLOAD AND OR SWAP1 SSTORE JUMP JUMPDEST PUSH4 0x4E487B71 PUSH1 0xE0 SHL PUSH1 0x0 MSTORE PUSH1 0x0 PUSH1 0x4 MSTORE PUSH1 0x24 PUSH1 0x0 REVERT JUMPDEST SWAP2 SWAP1 DUP3 SUB SWAP2 DUP3 GT PUSH2 0x1786 JUMPI JUMP JUMPDEST SWAP1 DUP2 PUSH1 0x20 SWAP2 SUB SLT PUSH2 0x236 JUMPI MLOAD DUP1 ISZERO ISZERO DUP2 SUB PUSH2 0x236 JUMPI SWAP1 JUMP JUMPDEST DUP2 ISZERO PUSH2 0x18E6 JUMPI DIV SWAP1 JUMP JUMPDEST PUSH4 0x4E487B71 PUSH1 0xE0 SHL PUSH1 0x0 MSTORE PUSH1 0x12 PUSH1 0x4 MSTORE PUSH1 0x24 PUSH1 0x0 REVERT JUMPDEST SWAP1 PUSH2 0x1909 PUSH2 0x12E1 DUP4 PUSH2 0x163B JUMP JUMPDEST SWAP2 PUSH1 0x0 SWAP2 DUP2 DUP4 MSTORE PUSH1 0x20 SWAP4 PUSH1 0x7 DUP6 MSTORE PUSH1 0x40 DUP5 KECCAK256 PUSH1 0x1 DUP1 PUSH1 0xA0 SHL SUB DUP1 SWAP4 AND DUP6 MSTORE DUP6 MSTORE PUSH1 0x40 DUP5 KECCAK256 SWAP5 PUSH1 0x1 DUP1 PUSH1 0x80 SHL SUB DUP3 MLOAD AND SWAP4 DUP5 ISZERO PUSH2 0x1AC4 JUMPI DUP2 PUSH1 0x24 PUSH2 0x194B DUP4 PUSH2 0x168B JUMP JUMPDEST SWAP2 SWAP1 SLOAD SWAP2 PUSH1 0x40 MLOAD SWAP8 DUP9 SWAP4 DUP5 SWAP3 PUSH4 0x70A08231 PUSH1 0xE0 SHL DUP5 MSTORE ADDRESS PUSH1 0x4 DUP6 ADD MSTORE PUSH1 0x3 SHL SHR AND GAS STATICCALL SWAP4 DUP5 ISZERO PUSH2 0x1AB9 JUMPI DUP7 SWAP5 PUSH2 0x1A8A JUMPI JUMPDEST POP PUSH1 0x1 PUSH1 0x1 PUSH1 0x40 SHL SUB DUP1 SWAP3 DUP5 ADD MLOAD AND DUP1 NUMBER GT DUP1 PUSH2 0x1A81 JUMPI JUMPDEST DUP1 PUSH2 0x1A76 JUMPI JUMPDEST PUSH2 0x19EA JUMPI JUMPDEST POP POP POP POP POP PUSH5 0xE8D4A51000 PUSH2 0x19B7 PUSH1 0x1 SWAP3 DUP6 SLOAD PUSH2 0x1ACE JUMP JUMPDEST DIV SWAP3 ADD SLOAD SWAP2 DUP2 DUP4 DUP3 SUB SWAP4 SLT DUP2 DUP5 SLT DUP2 AND SWAP2 DUP5 SGT SWAP1 ISZERO AND OR PUSH2 0x19D6 JUMPI POP SWAP1 JUMP JUMPDEST PUSH4 0x4E487B71 PUSH1 0xE0 SHL DUP2 MSTORE PUSH1 0x11 PUSH1 0x4 MSTORE PUSH1 0x24 SWAP1 REVERT JUMPDEST SWAP2 PUSH1 0x40 PUSH2 0x1A11 PUSH2 0x1A24 SWAP6 SWAP4 PUSH2 0x1A0B PUSH2 0x1A05 PUSH2 0x1A1B SWAP8 NUMBER PUSH2 0x18B7 JUMP JUMPDEST SWAP2 PUSH2 0x1AE1 JUMP JUMPDEST SWAP1 PUSH2 0x1ACE JUMP JUMPDEST SWAP3 ADD MLOAD AND SWAP1 PUSH2 0x1ACE JUMP JUMPDEST PUSH1 0x8 SLOAD SWAP1 PUSH2 0x18DC JUMP JUMPDEST PUSH5 0xE8D4A51000 SWAP1 DUP2 DUP2 MUL SWAP2 DUP2 DUP4 DIV EQ SWAP1 ISZERO OR ISZERO PUSH2 0x1A62 JUMPI PUSH2 0x1A5A PUSH1 0x1 SWAP4 PUSH2 0x1A54 PUSH5 0xE8D4A51000 SWAP5 PUSH2 0x19B7 SWAP5 PUSH2 0x18DC JUMP JUMPDEST SWAP1 PUSH2 0x1779 JUMP JUMPDEST SWAP3 CODESIZE DUP1 PUSH2 0x199F JUMP JUMPDEST PUSH4 0x4E487B71 PUSH1 0xE0 SHL DUP5 MSTORE PUSH1 0x11 PUSH1 0x4 MSTORE PUSH1 0x24 DUP5 REVERT JUMPDEST POP PUSH1 0x8 SLOAD ISZERO ISZERO PUSH2 0x199A JUMP JUMPDEST POP DUP5 ISZERO ISZERO PUSH2 0x1994 JUMP JUMPDEST SWAP1 SWAP4 POP DUP2 DUP2 DUP2 RETURNDATASIZE DUP4 GT PUSH2 0x1AB2 JUMPI JUMPDEST PUSH2 0x1AA2 DUP2 DUP4 PUSH2 0x1758 JUMP JUMPDEST DUP2 ADD SUB SLT PUSH2 0xA6F JUMPI MLOAD SWAP3 CODESIZE PUSH2 0x197C JUMP JUMPDEST POP RETURNDATASIZE PUSH2 0x1A98 JUMP JUMPDEST PUSH1 0x40 MLOAD RETURNDATASIZE DUP9 DUP3 RETURNDATACOPY RETURNDATASIZE SWAP1 REVERT JUMPDEST POP POP POP POP POP SWAP1 POP SWAP1 JUMP JUMPDEST DUP2 DUP2 MUL SWAP3 SWAP2 DUP2 ISZERO SWAP2 DUP5 DIV EQ OR ISZERO PUSH2 0x1786 JUMPI JUMP JUMPDEST PUSH2 0x1B01 PUSH2 0x1B0D SWAP2 PUSH1 0xFF PUSH1 0x2 PUSH2 0x1AF7 DUP2 SLOAD SWAP4 PUSH2 0x163B JUMP JUMPDEST POP ADD SLOAD AND SWAP1 PUSH2 0x1ACE JUMP JUMPDEST PUSH1 0xFF PUSH1 0x3 SLOAD AND SWAP1 PUSH2 0x18DC JUMP JUMPDEST SWAP1 JUMP JUMPDEST SWAP1 PUSH2 0x1B19 PUSH2 0x17B0 JUMP JUMPDEST POP PUSH2 0x1B26 PUSH2 0x12E1 DUP4 PUSH2 0x163B JUMP JUMPDEST SWAP2 PUSH1 0x20 DUP1 DUP5 ADD PUSH1 0x1 PUSH1 0x1 PUSH1 0x40 SHL SUB DUP1 DUP3 MLOAD AND NUMBER GT DUP1 PUSH2 0x1CB7 JUMPI JUMPDEST PUSH2 0x1B4B JUMPI JUMPDEST POP POP POP POP JUMP JUMPDEST DUP3 SWAP2 PUSH2 0x1B56 DUP6 PUSH2 0x168B JUMP JUMPDEST SWAP1 SLOAD PUSH1 0x40 MLOAD PUSH4 0x70A08231 PUSH1 0xE0 SHL DUP2 MSTORE ADDRESS PUSH1 0x4 DUP3 ADD MSTORE SWAP6 SWAP2 DUP7 SWAP2 PUSH1 0x24 SWAP2 DUP4 SWAP2 PUSH1 0x3 SWAP2 SWAP1 SWAP2 SHL SHR PUSH1 0x1 PUSH1 0x1 PUSH1 0xA0 SHL SUB AND GAS STATICCALL SWAP4 DUP5 ISZERO PUSH2 0x1CAB JUMPI PUSH1 0x0 SWAP5 PUSH2 0x1C7C JUMPI JUMPDEST POP DUP4 PUSH2 0x1C03 JUMPI JUMPDEST SWAP2 DUP2 PUSH1 0x60 SWAP4 PUSH32 0xFC9545022A542541AD085D091FB09A2AB36FEE366A4576AB63714EA907AD353 SWAP6 SWAP4 PUSH2 0x1BCD NUMBER PUSH2 0x20F1 JUMP JUMPDEST AND DUP2 MSTORE PUSH2 0x1BDD DUP10 PUSH2 0x665 DUP10 PUSH2 0x163B JUMP JUMPDEST MLOAD AND SWAP2 PUSH1 0x1 DUP1 PUSH1 0x80 SHL SUB DUP9 MLOAD AND SWAP2 PUSH1 0x40 MLOAD SWAP4 DUP5 MSTORE DUP4 ADD MSTORE PUSH1 0x40 DUP3 ADD MSTORE LOG2 CODESIZE DUP1 DUP1 DUP1 PUSH2 0x1B45 JUMP JUMPDEST SWAP2 PUSH2 0x1C30 PUSH2 0x1A1B PUSH2 0x1C23 PUSH2 0x1C1A DUP6 DUP8 MLOAD AND NUMBER PUSH2 0x18B7 JUMP JUMPDEST PUSH2 0x1A0B DUP10 PUSH2 0x1AE1 JUMP JUMPDEST DUP5 PUSH1 0x40 DUP12 ADD MLOAD AND SWAP1 PUSH2 0x1ACE JUMP JUMPDEST SWAP2 PUSH5 0xE8D4A51000 SWAP3 DUP4 DUP2 MUL SWAP4 DUP2 DUP6 DIV EQ SWAP1 ISZERO OR ISZERO PUSH2 0x1786 JUMPI PUSH1 0x1 PUSH1 0x1 PUSH1 0x80 SHL SUB SWAP5 SWAP3 DUP6 SWAP1 PUSH2 0x1C5F SWAP1 DUP6 SWAP1 PUSH2 0x18DC JUMP JUMPDEST AND DUP6 DUP10 MLOAD AND ADD SWAP4 DUP6 DUP6 GT PUSH2 0x1786 JUMPI SWAP4 SWAP1 SWAP5 AND DUP8 MSTORE SWAP1 SWAP3 SWAP1 SWAP2 PUSH2 0x1B9C JUMP JUMPDEST SWAP1 SWAP4 DUP4 DUP3 DUP2 RETURNDATASIZE DUP4 GT PUSH2 0x1CA4 JUMPI JUMPDEST PUSH2 0x1C93 DUP2 DUP4 PUSH2 0x1758 JUMP JUMPDEST DUP2 ADD SUB SLT PUSH2 0x4CE JUMPI POP MLOAD SWAP3 CODESIZE PUSH2 0x1B95 JUMP JUMPDEST POP RETURNDATASIZE PUSH2 0x1C89 JUMP JUMPDEST PUSH1 0x40 MLOAD RETURNDATASIZE PUSH1 0x0 DUP3 RETURNDATACOPY RETURNDATASIZE SWAP1 REVERT JUMPDEST POP PUSH1 0x8 SLOAD ISZERO ISZERO PUSH2 0x1B40 JUMP JUMPDEST SWAP1 DUP2 MSTORE PUSH1 0x1 PUSH1 0x1 PUSH1 0xA0 SHL SUB SWAP2 DUP3 AND PUSH1 0x20 DUP3 ADD MSTORE SWAP2 AND PUSH1 0x40 DUP3 ADD MSTORE PUSH1 0x0 PUSH1 0x60 DUP3 ADD MSTORE PUSH1 0x80 DUP2 ADD SWAP2 SWAP1 SWAP2 MSTORE PUSH1 0xA0 ADD SWAP1 JUMP JUMPDEST PUSH1 0x40 DUP1 MLOAD PUSH1 0x1 PUSH1 0x1 PUSH1 0x40 SHL SUB SWAP5 SWAP4 PUSH1 0x1 PUSH1 0x1 PUSH1 0xA0 SHL SUB SWAP1 SWAP4 AND SWAP3 SWAP1 SWAP2 DUP3 ADD DUP6 DUP2 GT DUP4 DUP3 LT OR PUSH2 0x1727 JUMPI PUSH1 0x40 MSTORE PUSH1 0x20 SWAP3 DUP4 DUP4 MSTORE PUSH32 0x5361666545524332303A206C6F772D6C6576656C2063616C6C206661696C6564 DUP5 DUP5 ADD MSTORE PUSH1 0x0 DUP1 DUP4 DUP7 DUP3 SWAP6 MLOAD SWAP2 ADD DUP3 DUP6 GAS CALL SWAP1 RETURNDATASIZE ISZERO PUSH2 0x1E2C JUMPI RETURNDATASIZE SWAP7 DUP8 GT PUSH2 0x1E18 JUMPI PUSH2 0x1D90 SWAP5 SWAP6 SWAP7 PUSH1 0x40 MLOAD SWAP1 PUSH2 0x1D82 DUP9 PUSH1 0x1F NOT PUSH1 0x1F DUP5 ADD AND ADD DUP4 PUSH2 0x1758 JUMP JUMPDEST DUP2 MSTORE DUP1 SWAP4 DUP8 RETURNDATASIZE SWAP3 ADD RETURNDATACOPY PUSH2 0x1E39 JUMP JUMPDEST DUP1 MLOAD SWAP1 DUP3 DUP3 ISZERO SWAP3 DUP4 ISZERO PUSH2 0x1E00 JUMPI JUMPDEST POP POP POP ISZERO PUSH2 0x1DA9 JUMPI POP JUMP JUMPDEST PUSH1 0x84 SWAP1 PUSH1 0x40 MLOAD SWAP1 PUSH3 0x461BCD PUSH1 0xE5 SHL DUP3 MSTORE PUSH1 0x4 DUP3 ADD MSTORE PUSH1 0x2A PUSH1 0x24 DUP3 ADD MSTORE PUSH32 0x5361666545524332303A204552433230206F7065726174696F6E20646964206E PUSH1 0x44 DUP3 ADD MSTORE PUSH10 0x1BDD081CDD58D8D95959 PUSH1 0xB2 SHL PUSH1 0x64 DUP3 ADD MSTORE REVERT JUMPDEST PUSH2 0x1E10 SWAP4 POP DUP3 ADD DUP2 ADD SWAP2 ADD PUSH2 0x18C4 JUMP JUMPDEST CODESIZE DUP3 DUP2 PUSH2 0x1D9E JUMP JUMPDEST PUSH4 0x4E487B71 PUSH1 0xE0 SHL DUP4 MSTORE PUSH1 0x41 PUSH1 0x4 MSTORE PUSH1 0x24 DUP4 REVERT JUMPDEST SWAP2 POP PUSH2 0x1D90 SWAP4 SWAP5 SWAP6 POP PUSH1 0x60 SWAP2 JUMPDEST SWAP2 SWAP3 SWAP1 ISZERO PUSH2 0x1E9B JUMPI POP DUP2 MLOAD ISZERO PUSH2 0x1E4D JUMPI POP SWAP1 JUMP JUMPDEST EXTCODESIZE ISZERO PUSH2 0x1E56 JUMPI SWAP1 JUMP JUMPDEST PUSH1 0x40 MLOAD PUSH3 0x461BCD PUSH1 0xE5 SHL DUP2 MSTORE PUSH1 0x20 PUSH1 0x4 DUP3 ADD MSTORE PUSH1 0x1D PUSH1 0x24 DUP3 ADD MSTORE PUSH32 0x416464726573733A2063616C6C20746F206E6F6E2D636F6E7472616374000000 PUSH1 0x44 DUP3 ADD MSTORE PUSH1 0x64 SWAP1 REVERT JUMPDEST DUP3 MLOAD SWAP1 SWAP2 POP ISZERO PUSH2 0x1EAE JUMPI POP DUP1 MLOAD SWAP1 PUSH1 0x20 ADD REVERT JUMPDEST PUSH1 0x40 MLOAD SWAP1 PUSH3 0x461BCD PUSH1 0xE5 SHL DUP3 MSTORE DUP2 PUSH1 0x20 DUP1 PUSH1 0x4 DUP4 ADD MSTORE DUP3 MLOAD SWAP1 DUP2 PUSH1 0x24 DUP5 ADD MSTORE PUSH1 0x0 SWAP4 JUMPDEST DUP3 DUP6 LT PUSH2 0x1EF4 JUMPI POP POP PUSH1 0x44 SWAP3 POP PUSH1 0x0 DUP4 DUP3 DUP5 ADD ADD MSTORE PUSH1 0x1F DUP1 NOT SWAP2 ADD AND DUP2 ADD SUB ADD SWAP1 REVERT JUMPDEST DUP5 DUP2 ADD DUP3 ADD MLOAD DUP7 DUP7 ADD PUSH1 0x44 ADD MSTORE SWAP4 DUP2 ADD SWAP4 DUP6 SWAP4 POP PUSH2 0x1ED1 JUMP JUMPDEST PUSH1 0x40 MLOAD PUSH4 0xA9059CBB PUSH1 0xE0 SHL PUSH1 0x20 DUP3 ADD MSTORE PUSH1 0x1 PUSH1 0x1 PUSH1 0xA0 SHL SUB SWAP3 SWAP1 SWAP3 AND PUSH1 0x24 DUP4 ADD MSTORE PUSH1 0x44 DUP1 DUP4 ADD SWAP4 SWAP1 SWAP4 MSTORE SWAP2 DUP2 MSTORE PUSH2 0x1F49 SWAP2 PUSH2 0x9E8 PUSH1 0x64 DUP4 PUSH2 0x1758 JUMP JUMPDEST JUMP JUMPDEST SWAP1 DUP2 MSTORE PUSH1 0x1 PUSH1 0x1 PUSH1 0xA0 SHL SUB SWAP2 DUP3 AND PUSH1 0x20 DUP3 ADD MSTORE SWAP2 AND PUSH1 0x40 DUP3 ADD MSTORE PUSH1 0x60 DUP2 ADD SWAP2 SWAP1 SWAP2 MSTORE PUSH1 0x80 DUP2 ADD SWAP2 SWAP1 SWAP2 MSTORE PUSH1 0xA0 ADD SWAP1 JUMP JUMPDEST SWAP1 PUSH2 0x1F85 DUP3 PUSH2 0x1B10 JUMP JUMPDEST DUP1 MLOAD PUSH1 0x1 PUSH1 0x1 PUSH1 0x80 SHL SUB SWAP3 SWAP1 DUP4 AND ISZERO PUSH2 0x1B45 JUMPI PUSH5 0xE8D4A51000 PUSH2 0x1FC6 PUSH1 0x0 SWAP4 DUP7 DUP6 MSTORE PUSH1 0x7 PUSH1 0x20 MSTORE PUSH1 0x40 DUP6 KECCAK256 CALLER DUP7 MSTORE PUSH1 0x20 MSTORE PUSH1 0x40 DUP6 KECCAK256 SWAP6 DUP7 SLOAD SWAP2 MLOAD AND SWAP1 PUSH2 0x1ACE JUMP JUMPDEST DIV SWAP3 PUSH1 0x1 DUP2 ADD SWAP4 DUP5 SLOAD SWAP1 DUP2 DUP2 SUB SWAP6 DUP6 DUP4 SLT DUP3 DUP9 SLT DUP2 AND SWAP1 DUP4 DUP10 SGT SWAP1 ISZERO AND OR PUSH2 0x20DD JUMPI DUP2 SWAP1 SSTORE SUB PUSH2 0x20AD JUMPI JUMPDEST PUSH2 0x1FFA DUP6 PUSH2 0x1670 JUMP JUMPDEST SWAP1 SLOAD PUSH1 0x3 SWAP2 SWAP1 SWAP2 SHL SHR PUSH1 0x1 PUSH1 0x1 PUSH1 0xA0 SHL SUB AND SWAP1 DUP2 PUSH2 0x2045 JUMPI JUMPDEST POP POP POP POP PUSH1 0x40 MLOAD SWAP1 DUP2 MSTORE PUSH32 0x71BAB65CED2E5750775A0613BE067DF48EF06CF92A496EBF7663AE0660924954 PUSH1 0x20 CALLER SWAP3 LOG3 JUMP JUMPDEST SLOAD SWAP2 DUP2 EXTCODESIZE ISZERO PUSH2 0x475 JUMPI SWAP2 DUP4 SWAP3 SWAP2 DUP6 DUP5 PUSH2 0x2079 SWAP7 SWAP5 PUSH1 0x40 MLOAD SWAP8 DUP9 SWAP6 DUP7 SWAP5 DUP6 SWAP4 PUSH4 0x23374925 PUSH1 0xE2 SHL DUP6 MSTORE DUP14 CALLER SWAP1 PUSH1 0x4 DUP8 ADD PUSH2 0x1F4B JUMP JUMPDEST SUB SWAP3 GAS CALL SWAP1 DUP2 ISZERO PUSH2 0x20A1 JUMPI POP PUSH2 0x2092 JUMPI JUMPDEST DUP1 DUP1 DUP1 PUSH2 0x2013 JUMP JUMPDEST PUSH2 0x209B SWAP1 PUSH2 0x1714 JUMP JUMPDEST CODESIZE PUSH2 0x208A JUMP JUMPDEST PUSH1 0x40 MLOAD SWAP1 RETURNDATASIZE SWAP1 DUP3 RETURNDATACOPY RETURNDATASIZE SWAP1 REVERT JUMPDEST PUSH2 0x20D8 DUP5 DUP4 PUSH32 0x0 PUSH2 0x1F0D JUMP JUMPDEST PUSH2 0x1FF1 JUMP JUMPDEST PUSH4 0x4E487B71 PUSH1 0xE0 SHL DUP7 MSTORE PUSH1 0x11 PUSH1 0x4 MSTORE PUSH1 0x24 DUP7 REVERT JUMPDEST PUSH1 0x1 PUSH1 0x1 PUSH1 0x40 SHL SUB SWAP1 DUP2 DUP2 GT PUSH2 0x2105 JUMPI AND SWAP1 JUMP JUMPDEST PUSH1 0x40 MLOAD PUSH3 0x461BCD PUSH1 0xE5 SHL DUP2 MSTORE PUSH1 0x20 PUSH1 0x4 DUP3 ADD MSTORE PUSH1 0x28 PUSH1 0x24 DUP3 ADD MSTORE PUSH32 0x536166654361737436343A2076616C756520646F65736E27742066697420696E PUSH1 0x44 DUP3 ADD MSTORE PUSH8 0x2036342062697473 PUSH1 0xC0 SHL PUSH1 0x64 DUP3 ADD MSTORE PUSH1 0x84 SWAP1 REVERT INVALID LOG2 PUSH5 0x6970667358 0x22 SLT KECCAK256 RETURNDATACOPY SGT SLT DUP2 0xB0 0xCF SWAP16 0x5E SLOAD SWAP14 SHR 0xB8 0xF6 0xE7 PUSH10 0x1595A87CD136AE06C1AD 0xCA PUSH31 0xEF884741D564736F6C63430008130033000000000000000000000000000000 "
        },
        "methodIdentifiers": {
          "CHAOS_TOKEN()": "ded844d2",
          "add(uint256,address,address)": "ab7de098",
          "allocateTokens(uint256,uint256)": "8fc264e0",
          "deposit(uint256,uint256,address)": "8dbdbe6d",
          "emergencyWithdraw(uint256,address)": "2f940c70",
          "getPoolInfo(uint256)": "2f380b35",
          "getPoolWeightAsPercentage(uint256)": "9733894e",
          "harvest(uint256,address)": "18fccc76",
          "lpToken(uint256)": "78ed5d1f",
          "massUpdatePools(uint256[])": "57a5b58c",
          "migrate(uint256)": "454b0608",
          "migrator()": "7cd07e47",
          "owner()": "8da5cb5b",
          "pendingRewards(uint256,address)": "d18df53c",
          "poolInfo(uint256)": "1526fe27",
          "poolLength()": "081e3eda",
          "renounceOwnership()": "715018a6",
          "rewarder(uint256)": "c346253d",
          "rewardsPerBlock(uint256)": "12ef2464",
          "set(uint256,uint256,address,bool)": "88bba42f",
          "setEmisionsPerBlock(uint256)": "249f776c",
          "setMigrator(address)": "23cf3118",
          "setVaultWeight(uint256,uint8)": "8cebd2ba",
          "tokensPerBlock()": "1a1cb01f",
          "totalAllocPoint()": "17caf6f1",
          "transferOwnership(address)": "f2fde38b",
          "updatePool(uint256)": "51eb05a6",
          "userInfo(uint256,address)": "93f1a40b",
          "withdraw(uint256,uint256,address)": "0ad58d2f",
          "withdrawAndHarvest(uint256,uint256,address)": "d1abb907"
        }
      }
    }
  }
}