{
  "contracts/core/merge/DynamicEater.sol": {
    "DynamicEater": {
      "abi": [
        {
          "inputs": [
            {
              "internalType": "address",
              "name": "_wewe",
              "type": "address"
            },
            {
              "internalType": "address",
              "name": "_token",
              "type": "address"
            },
            {
              "internalType": "uint32",
              "name": "_vestingDuration",
              "type": "uint32"
            },
            {
              "internalType": "uint256",
              "name": "_virtualToken",
              "type": "uint256"
            },
            {
              "internalType": "uint256",
              "name": "_virtualWEWE",
              "type": "uint256"
            }
          ],
          "stateMutability": "nonpayable",
          "type": "constructor"
        },
        {
          "anonymous": false,
          "inputs": [
            {
              "indexed": false,
              "internalType": "uint256",
              "name": "amount",
              "type": "uint256"
            }
          ],
          "name": "Dumped",
          "type": "event"
        },
        {
          "anonymous": false,
          "inputs": [
            {
              "indexed": false,
              "internalType": "uint256",
              "name": "amount",
              "type": "uint256"
            },
            {
              "indexed": true,
              "internalType": "address",
              "name": "account",
              "type": "address"
            },
            {
              "indexed": false,
              "internalType": "uint256",
              "name": "weweAmount",
              "type": "uint256"
            }
          ],
          "name": "Merged",
          "type": "event"
        },
        {
          "anonymous": false,
          "inputs": [
            {
              "indexed": true,
              "internalType": "address",
              "name": "previousOwner",
              "type": "address"
            },
            {
              "indexed": true,
              "internalType": "address",
              "name": "newOwner",
              "type": "address"
            }
          ],
          "name": "OwnershipTransferred",
          "type": "event"
        },
        {
          "anonymous": false,
          "inputs": [
            {
              "indexed": false,
              "internalType": "address",
              "name": "account",
              "type": "address"
            }
          ],
          "name": "Paused",
          "type": "event"
        },
        {
          "anonymous": false,
          "inputs": [
            {
              "indexed": false,
              "internalType": "uint256",
              "name": "newRate",
              "type": "uint256"
            }
          ],
          "name": "RateChanged",
          "type": "event"
        },
        {
          "anonymous": false,
          "inputs": [
            {
              "indexed": false,
              "internalType": "address",
              "name": "account",
              "type": "address"
            }
          ],
          "name": "Unpaused",
          "type": "event"
        },
        {
          "inputs": [],
          "name": "adaptor",
          "outputs": [
            {
              "internalType": "address",
              "name": "",
              "type": "address"
            }
          ],
          "stateMutability": "view",
          "type": "function"
        },
        {
          "inputs": [
            {
              "internalType": "address",
              "name": "account",
              "type": "address"
            }
          ],
          "name": "balanceOf",
          "outputs": [
            {
              "internalType": "uint256",
              "name": "",
              "type": "uint256"
            }
          ],
          "stateMutability": "view",
          "type": "function"
        },
        {
          "inputs": [
            {
              "internalType": "uint256",
              "name": "x",
              "type": "uint256"
            }
          ],
          "name": "calculateTokensOut",
          "outputs": [
            {
              "internalType": "uint256",
              "name": "",
              "type": "uint256"
            }
          ],
          "stateMutability": "view",
          "type": "function"
        },
        {
          "inputs": [
            {
              "internalType": "address",
              "name": "account",
              "type": "address"
            }
          ],
          "name": "canClaim",
          "outputs": [
            {
              "internalType": "bool",
              "name": "",
              "type": "bool"
            }
          ],
          "stateMutability": "view",
          "type": "function"
        },
        {
          "inputs": [],
          "name": "claim",
          "outputs": [],
          "stateMutability": "nonpayable",
          "type": "function"
        },
        {
          "inputs": [
            {
              "internalType": "uint256",
              "name": "amount",
              "type": "uint256"
            }
          ],
          "name": "deposit",
          "outputs": [],
          "stateMutability": "nonpayable",
          "type": "function"
        },
        {
          "inputs": [],
          "name": "dump",
          "outputs": [],
          "stateMutability": "nonpayable",
          "type": "function"
        },
        {
          "inputs": [],
          "name": "getCurrentPrice",
          "outputs": [
            {
              "internalType": "uint256",
              "name": "",
              "type": "uint256"
            }
          ],
          "stateMutability": "view",
          "type": "function"
        },
        {
          "inputs": [],
          "name": "getRate",
          "outputs": [
            {
              "internalType": "uint256",
              "name": "",
              "type": "uint256"
            }
          ],
          "stateMutability": "view",
          "type": "function"
        },
        {
          "inputs": [],
          "name": "getToken",
          "outputs": [
            {
              "internalType": "address",
              "name": "",
              "type": "address"
            }
          ],
          "stateMutability": "view",
          "type": "function"
        },
        {
          "inputs": [],
          "name": "maxSupply",
          "outputs": [
            {
              "internalType": "uint256",
              "name": "",
              "type": "uint256"
            }
          ],
          "stateMutability": "view",
          "type": "function"
        },
        {
          "inputs": [
            {
              "internalType": "uint256",
              "name": "amount",
              "type": "uint256"
            }
          ],
          "name": "merge",
          "outputs": [
            {
              "internalType": "uint256",
              "name": "",
              "type": "uint256"
            }
          ],
          "stateMutability": "nonpayable",
          "type": "function"
        },
        {
          "inputs": [],
          "name": "mergeAll",
          "outputs": [
            {
              "internalType": "uint256",
              "name": "",
              "type": "uint256"
            }
          ],
          "stateMutability": "nonpayable",
          "type": "function"
        },
        {
          "inputs": [
            {
              "internalType": "uint256",
              "name": "allocation",
              "type": "uint256"
            },
            {
              "internalType": "uint256",
              "name": "amount",
              "type": "uint256"
            },
            {
              "internalType": "bytes32[]",
              "name": "proof",
              "type": "bytes32[]"
            }
          ],
          "name": "mergeWithProof",
          "outputs": [
            {
              "internalType": "uint256",
              "name": "",
              "type": "uint256"
            }
          ],
          "stateMutability": "nonpayable",
          "type": "function"
        },
        {
          "inputs": [],
          "name": "merkleRoot",
          "outputs": [
            {
              "internalType": "bytes32",
              "name": "",
              "type": "bytes32"
            }
          ],
          "stateMutability": "view",
          "type": "function"
        },
        {
          "inputs": [],
          "name": "name",
          "outputs": [
            {
              "internalType": "string",
              "name": "",
              "type": "string"
            }
          ],
          "stateMutability": "view",
          "type": "function"
        },
        {
          "inputs": [],
          "name": "owner",
          "outputs": [
            {
              "internalType": "address",
              "name": "",
              "type": "address"
            }
          ],
          "stateMutability": "view",
          "type": "function"
        },
        {
          "inputs": [],
          "name": "paused",
          "outputs": [
            {
              "internalType": "bool",
              "name": "",
              "type": "bool"
            }
          ],
          "stateMutability": "view",
          "type": "function"
        },
        {
          "inputs": [
            {
              "internalType": "address",
              "name": "from",
              "type": "address"
            },
            {
              "internalType": "uint256",
              "name": "amount",
              "type": "uint256"
            },
            {
              "internalType": "address",
              "name": "",
              "type": "address"
            },
            {
              "internalType": "bytes",
              "name": "",
              "type": "bytes"
            }
          ],
          "name": "receiveApproval",
          "outputs": [],
          "stateMutability": "nonpayable",
          "type": "function"
        },
        {
          "inputs": [],
          "name": "renounceOwnership",
          "outputs": [],
          "stateMutability": "nonpayable",
          "type": "function"
        },
        {
          "inputs": [
            {
              "internalType": "address",
              "name": "amm",
              "type": "address"
            }
          ],
          "name": "setAdaptor",
          "outputs": [],
          "stateMutability": "nonpayable",
          "type": "function"
        },
        {
          "inputs": [
            {
              "internalType": "uint256",
              "name": "value",
              "type": "uint256"
            }
          ],
          "name": "setMaxSupply",
          "outputs": [],
          "stateMutability": "nonpayable",
          "type": "function"
        },
        {
          "inputs": [
            {
              "internalType": "bytes32",
              "name": "root",
              "type": "bytes32"
            }
          ],
          "name": "setMerkleRoot",
          "outputs": [],
          "stateMutability": "nonpayable",
          "type": "function"
        },
        {
          "inputs": [
            {
              "internalType": "address",
              "name": "_treasury",
              "type": "address"
            }
          ],
          "name": "setTreasury",
          "outputs": [],
          "stateMutability": "nonpayable",
          "type": "function"
        },
        {
          "inputs": [
            {
              "internalType": "uint32",
              "name": "duration",
              "type": "uint32"
            }
          ],
          "name": "setVestingDuration",
          "outputs": [],
          "stateMutability": "nonpayable",
          "type": "function"
        },
        {
          "inputs": [
            {
              "internalType": "uint256",
              "name": "value",
              "type": "uint256"
            }
          ],
          "name": "setVirtualTokenBalance",
          "outputs": [],
          "stateMutability": "nonpayable",
          "type": "function"
        },
        {
          "inputs": [
            {
              "internalType": "uint256",
              "name": "value",
              "type": "uint256"
            }
          ],
          "name": "setVirtualWeWEBalance",
          "outputs": [],
          "stateMutability": "nonpayable",
          "type": "function"
        },
        {
          "inputs": [],
          "name": "sweep",
          "outputs": [],
          "stateMutability": "nonpayable",
          "type": "function"
        },
        {
          "inputs": [],
          "name": "togglePause",
          "outputs": [],
          "stateMutability": "nonpayable",
          "type": "function"
        },
        {
          "inputs": [],
          "name": "totalMerged",
          "outputs": [
            {
              "internalType": "uint256",
              "name": "",
              "type": "uint256"
            }
          ],
          "stateMutability": "view",
          "type": "function"
        },
        {
          "inputs": [],
          "name": "totalVested",
          "outputs": [
            {
              "internalType": "uint256",
              "name": "",
              "type": "uint256"
            }
          ],
          "stateMutability": "view",
          "type": "function"
        },
        {
          "inputs": [
            {
              "internalType": "address",
              "name": "newOwner",
              "type": "address"
            }
          ],
          "name": "transferOwnership",
          "outputs": [],
          "stateMutability": "nonpayable",
          "type": "function"
        },
        {
          "inputs": [],
          "name": "treasury",
          "outputs": [
            {
              "internalType": "address",
              "name": "",
              "type": "address"
            }
          ],
          "stateMutability": "view",
          "type": "function"
        },
        {
          "inputs": [],
          "name": "vestingDuration",
          "outputs": [
            {
              "internalType": "uint32",
              "name": "",
              "type": "uint32"
            }
          ],
          "stateMutability": "view",
          "type": "function"
        },
        {
          "inputs": [
            {
              "internalType": "address",
              "name": "",
              "type": "address"
            }
          ],
          "name": "vestings",
          "outputs": [
            {
              "internalType": "uint256",
              "name": "amount",
              "type": "uint256"
            },
            {
              "internalType": "uint256",
              "name": "end",
              "type": "uint256"
            },
            {
              "internalType": "uint256",
              "name": "merged",
              "type": "uint256"
            }
          ],
          "stateMutability": "view",
          "type": "function"
        },
        {
          "inputs": [],
          "name": "virtualToken",
          "outputs": [
            {
              "internalType": "uint256",
              "name": "",
              "type": "uint256"
            }
          ],
          "stateMutability": "view",
          "type": "function"
        },
        {
          "inputs": [],
          "name": "virtualWEWE",
          "outputs": [
            {
              "internalType": "uint256",
              "name": "",
              "type": "uint256"
            }
          ],
          "stateMutability": "view",
          "type": "function"
        },
        {
          "inputs": [],
          "name": "wewe",
          "outputs": [
            {
              "internalType": "address",
              "name": "",
              "type": "address"
            }
          ],
          "stateMutability": "view",
          "type": "function"
        }
      ],
      "evm": {
        "bytecode": {
          "linkReferences": {},
          "object": "608060409080825234620002ae5760a0816200207a8038038091620000258285620002b3565b833981010312620002ae576200003b81620002ed565b906020906200004c828201620002ed565b92848201519263ffffffff8416809403620002ae576060830151608090930151600160008181558154610100600160a81b0333600881811b929092166001600160a81b03198416179094558a51949997988998939790946001600160a01b03949385931c83167f8be0079c531659141344cd1fd0a4f28419497f9722a3daafe3b4186f6b6457e08a80a31693841562000261575016918215620002115791839291816004959360018060a01b031990816003541617600355600254161760025563ffffffff19600854161760085588519384809263313ce56760e01b82525afa90811562000207578391620001c3575b5060ff9150166012811062000163575b505050600b55600c5551611d779081620003038239f35b9091925060120360128111620001af57604d8111620001af57600a0a918281029281840414901517156200019b57503880806200014c565b634e487b7160e01b81526011600452602490fd5b634e487b7160e01b82526011600452602482fd5b905081813d8311620001ff575b620001dc8183620002b3565b81010312620001fb575160ff81168103620001fb5760ff90386200013c565b5080fd5b503d620001d0565b87513d85823e3d90fd5b885162461bcd60e51b815260048101859052602360248201527f44796e616d696345617465723a20496e76616c696420746f6b656e206164647260448201526265737360e81b6064820152608490fd5b62461bcd60e51b815260048101869052602260248201527f44796e616d696345617465723a20496e76616c69642057455745206164647265604482015261737360f01b6064820152608490fd5b600080fd5b601f909101601f19168101906001600160401b03821190821017620002d757604052565b634e487b7160e01b600052604160045260246000fd5b51906001600160a01b0382168203620002ae5756fe6080604052600436101561001257600080fd5b60003560e01c80621688b11461123157806306fdde03146110de5780631514617e146110ba578063199cbc541461109c5780631f514c521461107e57806321df0da71461105557806324a47aeb14610e8b5780632eb4a7ab14610e6d578063301fc2ff14610e4f5780633586d51414610dcb57806335faa41614610c9b5780634e71d92d14610c025780634fa1f10414610b125780635c975abb14610aef57806361d027b314610ac6578063655a9ac214610aa5578063679aefce146109fc5780636f8b44b0146109db57806370a08231146109a1578063715018a6146109405780637cb647591461091f5780638da5cb5b146108f25780638f4ffcb1146107ba5780639636d8811461077d5780639ed4527e1461075f578063b6b55f25146106d7578063bf3506c114610697578063c2cd9b2b1461066e578063c4ae31681461058e578063d5abeb0114610570578063daf498631461051f578063dece1baa146104fe578063e1f26f22146104d5578063e4330545146103df578063ea9f241714610333578063eb91d37e146102d9578063f0f44260146102965763f2fde38b146101bd57600080fd5b34610291576020366003190112610291576101d661156a565b6101de611580565b6001600160a01b0381811691821561023d5760018054610100600160a81b03198116600893841b610100600160a81b031617909155901c167f8be0079c531659141344cd1fd0a4f28419497f9722a3daafe3b4186f6b6457e0600080a3005b60405162461bcd60e51b815260206004820152602660248201527f4f776e61626c653a206e6577206f776e657220697320746865207a65726f206160448201526564647265737360d01b6064820152608490fd5b600080fd5b34610291576020366003190112610291576102af61156a565b6102b7611580565b600480546001600160a01b0319166001600160a01b0392909216919091179055005b34610291576000366003190112610291576102f261163d565b6103e89081810291818304149015171561031d57610315602091600b5490611610565b604051908152f35b634e487b7160e01b600052601160045260246000fd5b346102915760003660031901126102915761034c61176c565b610358600a5415611703565b6002546040516370a0823160e01b815233600482015290602090829060249082906001600160a01b03165afa9081156103d3576000916103a0575b6020610315303385611af5565b90506020813d82116103cb575b816103ba602093836115db565b810103126102915751610315610393565b3d91506103ad565b6040513d6000823e3d90fd5b34610291576000366003190112610291576003546040516370a0823160e01b8152306004820152906020908190839060249082906001600160a01b03165afa9182156103d3576000926104a6575b5081156104675761045e7fa7a5838120ec6c2ca5291f32459f820c6230c6b5d0fa06a111e49badb5e6c84b92611c86565b604051908152a1005b6064906040519062461bcd60e51b825260048201526018602482015277064756d703a204e6f2062616c616e636520746f2064756d760441b6044820152fd5b9080925081813d83116104ce575b6104be81836115db565b810103126102915751908261042d565b503d6104b4565b34610291576000366003190112610291576003546040516001600160a01b039091168152602090f35b3461029157602036600319011261029157610517611580565b600435600c55005b34610291576020366003190112610291576001600160a01b0361054061156a565b16600052600960205260606040600020805490600260018201549101549060405192835260208301526040820152f35b34610291576000366003190112610291576020600754604051908152f35b34610291576000366003190112610291576105a7611580565b60015460ff81161561062f575060015460ff8116156105f35760ff19166001557f5db9ee0a495bf2e6ff9c91a7834c1ba4fdd244a5e8aa4e537bd38aeae4b073aa6020604051338152a1005b60405162461bcd60e51b815260206004820152601460248201527314185d5cd8589b194e881b9bdd081c185d5cd95960621b6044820152606490fd5b60019061063a61176c565b60ff1916176001557f62e78cea01bee320cd4e420270b5ea74000d11b0c9f74754ebdbfc544b05a2586020604051338152a1005b3461029157600036600319011261029157600d546040516001600160a01b039091168152602090f35b34610291576020366003190112610291576001600160a01b036106b861156a565b1660005260096020526020600160406000200154604051904210158152f35b34610291576020366003190112610291576106f0611580565b6003546040516323b872dd60e01b81529060209082906001600160a01b031681600081610726600480359030903390850161174a565b03925af180156103d35761073657005b6107569060203d8111610758575b61074e81836115db565b8101906116de565b005b503d610744565b34610291576000366003190112610291576020600c54604051908152f35b346102915760203660031901126102915760043563ffffffff8116809103610291576107a7611580565b63ffffffff196008541617600855600080f35b34610291576080366003190112610291576107d361156a565b602435906001600160a01b03604435818116036102915760643567ffffffffffffffff8082116102915736602383011215610291578160040135908111610291573691016024011161029157610827611a9f565b61082f61176c565b6002541691821561089e57602060405180946323b872dd60e01b82528160008161085e8730336004850161174a565b03925af19283156103d35761087893610880575b506117b0565b506001600055005b6108979060203d81116107585761074e81836115db565b5083610872565b60405162461bcd60e51b815260206004820152602660248201527f72656365697665417070726f76616c3a20546f6b656e2061646472657373206e6044820152651bdd081cd95d60d21b6064820152608490fd5b346102915760003660031901126102915760015460405160089190911c6001600160a01b03168152602090f35b3461029157602036600319011261029157610938611580565b600435600a55005b3461029157600036600319011261029157610959611580565b60018054610100600160a81b0319811690915560009060081c6001600160a01b03167f8be0079c531659141344cd1fd0a4f28419497f9722a3daafe3b4186f6b6457e08280a3005b34610291576020366003190112610291576001600160a01b036109c261156a565b1660005260096020526020604060002054604051908152f35b34610291576020366003190112610291576109f4611580565b600435600755005b346102915760003660031901126102915760025460405163313ce56760e01b815290602090829060049082906001600160a01b03165afa9081156103d357610a5560ff60209361031593600091610a78575b50166116d0565b610a73610a6482600b546116f6565b91610a6d61163d565b906115fd565b611610565b610a989150853d8111610a9e575b610a9081836115db565b8101906116b7565b85610a4e565b503d610a86565b3461029157602036600319011261029157610abe611580565b600435600b55005b34610291576000366003190112610291576004546040516001600160a01b039091168152602090f35b3461029157600036600319011261029157602060ff600154166040519015158152f35b34610291576020806003193601126102915760043560018060a01b036002541660405163313ce56760e01b8082528482600481865afa80156103d35760ff6012918794600091610be5575b501610610b79575b5061031583610a73610a6482600b546116f6565b60046040518094819382525afa80156103d35760ff91600091610bc8575b501660120360ff811161031d5760ff16604d811161031d5761031591610bc091600a0a906115fd565b908284610b65565b610bdf9150843d8611610a9e57610a9081836115db565b84610b97565b610bfc9150853d8711610a9e57610a9081836115db565b88610b5d565b3461029157600036600319011261029157610c1b61176c565b63ffffffff6008541615610c8e575b3360005260096020526001604060002001544210610c4a57610756611c17565b606460405162461bcd60e51b815260206004820152602060248201527f7768656e436c61696d61626c653a2056657374696e67206e6f7420656e6465646044820152fd5b610c96611c17565b610c2a565b3461029157600036600319011261029157610cb4611580565b6003546040516370a0823160e01b81523060048201526020916001600160a01b03908116908383602481855afa9283156103d357600093610d9c575b508215610d575760015460405163a9059cbb60e01b815260089190911c919091166001600160a01b0316600482015260248101929092528290829060449082906000905af180156103d357610d4157005b8161075692903d106107585761074e81836115db565b60405162461bcd60e51b815260048101859052601a60248201527f73776565703a204e6f2062616c616e636520746f2073776565700000000000006044820152606490fd5b9092508381813d8311610dc4575b610db481836115db565b8101031261029157519184610cf0565b503d610daa565b3461029157602036600319011261029157610de461156a565b610dec611580565b600d80546001600160a01b0319166001600160a01b039283169081179091559081610e1357005b60025460405163095ea7b360e01b81526004810193909352600019602484015260209183916044918391600091165af180156103d35761073657005b34610291576000366003190112610291576020600654604051908152f35b34610291576000366003190112610291576020600a54604051908152f35b346102915760208060031936011261029157600435610ea861176c565b6002546040516370a0823160e01b815233600482015282916001600160a01b03908116918581602481865afa80156103d3578591600091611024575b5010610fd457610ef6600a5415611703565b8460405180936323b872dd60e01b825281600081610f198a30336004850161174a565b03925af19081156103d3576004928692610fb7575b50610f3885611c86565b50600254166040519283809263313ce56760e01b82525afa80156103d35760ff91600091610f9a575b501660128110610f77575b8361031533846117b0565b90506012036012811161031d5761031591610a6d610f94926116d0565b83610f6c565b610fb19150853d8711610a9e57610a9081836115db565b85610f61565b610fcd90833d85116107585761074e81836115db565b5086610f2e565b60405162461bcd60e51b815260048101869052602260248201527f6d657267653a20496e73756666696369656e742062616c616e636520746f2065604482015261185d60f21b6064820152608490fd5b809250878092503d831161104e575b61103d81836115db565b810103126102915784905187610ee4565b503d611033565b34610291576000366003190112610291576002546040516001600160a01b039091168152602090f35b34610291576000366003190112610291576020600b54604051908152f35b34610291576000366003190112610291576020600554604051908152f35b3461029157600036600319011261029157602063ffffffff60085416604051908152f35b34610291576000366003190112610291576002546040516306fdde0360e01b815290600090829060049082906001600160a01b03165afa9081156103d357600091611190575b61118260408381519061116760268360208101936502bb2abb29d160d51b85526111578151809260208686019101611547565b81010360068101855201836115db565b82519384926020845251809281602086015285850190611547565b601f01601f19168101030190f35b90503d806000833e6111a281836115db565b81019060208183031261029157805167ffffffffffffffff9182821161029157019180601f8401121561029157825191821161121b57604051906111f0601f8401601f1916602001836115db565b82825260208385010111610291576112146040926111829460208085019101611547565b9150611124565b634e487b7160e01b600052604160045260246000fd5b346102915760603660031901126102915767ffffffffffffffff80604435116102915736602360443501121561029157806044356004013511610291573660246044356004013560051b6044350101116102915761128d611a9f565b61129561176c565b602435600a549182156114f757604080513360208201908152600435828401529181526112c36060826115db565b51902090604051916020830152602082528160408101109060408301111761121b57604081016040528051602082012061130c60206044356004013560051b01604084016115db565b60443560048101356040840152602401606083015b60246044356004013560051b604435010182106114e7575050916000925b60408301518410156113905760608460051b840101519081811060001461137f5760005260205260406000205b92600019811461031d576001019261133f565b90600052602052604060002061136c565b84036114a2573360005260096020526113b3600260406000200154600435611630565b811161147f575b801561143a5780600435106113e5576113d860209130903390611af5565b6001600055604051908152f35b60405162461bcd60e51b815260206004820152602760248201527f6d657267655769746850726f6f663a20496e73756666696369656e7420616c6c60448201526637b1b0ba34b7b760c91b6064820152608490fd5b60405162461bcd60e51b815260206004820152601e60248201527f6d657267655769746850726f6f663a20416c7265616479206d657267656400006044820152606490fd5b5033600052600960205261149d600260406000200154600435611630565b6113ba565b60405162461bcd60e51b815260206004820152601d60248201527f6d657267655769746850726f6f663a20496e76616c69642070726f6f660000006044820152606490fd5b8135815260209182019101611321565b60405162461bcd60e51b815260206004820152602260248201527f6d657267655769746850726f6f663a205768697465206c697374206e6f742073604482015261195d60f21b6064820152608490fd5b60005b83811061155a5750506000910152565b818101518382015260200161154a565b600435906001600160a01b038216820361029157565b60015460081c6001600160a01b0316330361159757565b606460405162461bcd60e51b815260206004820152602060248201527f4f776e61626c653a2063616c6c6572206973206e6f7420746865206f776e65726044820152fd5b90601f8019910116810190811067ffffffffffffffff82111761121b57604052565b8181029291811591840414171561031d57565b811561161a570490565b634e487b7160e01b600052601260045260246000fd5b9190820391821161031d57565b600c546005548082106116565761165391611630565b90565b60405162461bcd60e51b815260206004820152603360248201527f5f6765745765776542616c616e63653a207669727475616c57455745206c65736044820152721cc81d1a185b881d1bdd185b081d995cdd1959606a1b6064820152608490fd5b90816020910312610291575160ff811681036102915790565b604d811161031d57600a0a90565b90816020910312610291575180151581036102915790565b9190820180921161031d57565b1561170a57565b60405162461bcd60e51b81526020600482015260186024820152771b595c99d94e8815da1a5d19481b1a5cdd081a5cc81cd95d60421b6044820152606490fd5b6001600160a01b03918216815291166020820152604081019190915260600190565b60ff6001541661177857565b60405162461bcd60e51b815260206004820152601060248201526f14185d5cd8589b194e881c185d5cd95960821b6044820152606490fd5b6007546117bf600654836116f6565b811090811591611a96575b5015611a51576117f06117df82600b546116f6565b610a736117ea61163d565b846115fd565b600354604080516370a0823160e01b8152306004820152929460209391926001600160a01b0392908316908581602481855afa9081156119bb57600091611a21575b5087116119c65760085463ffffffff919082161561192c57508282169485600052600981528460002061186c60028254920154918a6116f6565b92603c81600854160290811690810361031d578861188d61189392426116f6565b926116f6565b90865191606083019183831067ffffffffffffffff84111761121b577fabe5455971bdcd932e7251d16cd53f88cd4410bf4df21530e88bf13dade6a7d4998c966002948b5285528585019182528985019283526000526009855288600020935184555160018401555191015561190b826005546116f6565b6005555b61191b876006546116f6565b60065584519687528601521692a290565b845163a9059cbb60e01b81526001600160a01b0384166004820152602481018990529495939492939291508290829060449082906000905af180156119bb579187917fabe5455971bdcd932e7251d16cd53f88cd4410bf4df21530e88bf13dade6a7d49695949361199e575b5061190f565b6119b490823d84116107585761074e81836115db565b5038611998565b85513d6000823e3d90fd5b835162461bcd60e51b815260048101869052602e60248201527f5f6d657267653a20496e73756666696369656e7420746f6b656e2062616c616e60448201526d31b2903a37903a3930b739b332b960911b6064820152608490fd5b908682813d8311611a4a575b611a3781836115db565b81010312611a4757505138611832565b80fd5b503d611a2d565b60405162461bcd60e51b815260206004820152601c60248201527f5f6d657267653a204d6f7265207468616e206d617820737570706c79000000006044820152606490fd5b905015386117ca565b600260005414611ab0576002600055565b60405162461bcd60e51b815260206004820152601f60248201527f5265656e7472616e637947756172643a207265656e7472616e742063616c6c006044820152606490fd5b90918160018060a01b03806002541692604051906323b872dd60e01b82528180611b2760209687948b6004850161174a565b0381600080985af18015611c0c57918391600493611bef575b50611b4a86611c86565b50600254166040519283809263313ce56760e01b82525afa918215611be4579060ff92918492611bc7575b50501660128110611b8d575b505090611653916117b0565b6012039060128211611bb357506116539291610a6d611bab926116d0565b909138611b81565b634e487b7160e01b81526011600452602490fd5b611bdd9250803d10610a9e57610a9081836115db565b3880611b75565b6040513d85823e3d90fd5b611c0590833d85116107585761074e81836115db565b5038611b40565b6040513d86823e3d90fd5b336000818152600960209081526040808320805490849055600354915163a9059cbb60e01b8152600481019590955260248501529091839160449183916001600160a01b03165af180156103d357611c6c5750565b611c839060203d81116107585761074e81836115db565b50565b600d546001600160a01b0390811691908215611d39578060045416908115611d305760025416604051926302454b7160e41b84526004840152602483015260448201526080606482015260208160a481600080968160848401525af1918215611d24578092611cf457505090565b9091506020823d8211611d1c575b81611d0f602093836115db565b81010312611a4757505190565b3d9150611d02565b604051903d90823e3d90fd5b50505050600090565b50505060009056fea264697066735822122087870e65aaf01764a99583f923134ead32742fcc280fb17c2bf8a67cd3ba312b64736f6c63430008130033",
          "opcodes": "PUSH1 0x80 PUSH1 0x40 SWAP1 DUP1 DUP3 MSTORE CALLVALUE PUSH3 0x2AE JUMPI PUSH1 0xA0 DUP2 PUSH3 0x207A DUP1 CODESIZE SUB DUP1 SWAP2 PUSH3 0x25 DUP3 DUP6 PUSH3 0x2B3 JUMP JUMPDEST DUP4 CODECOPY DUP2 ADD SUB SLT PUSH3 0x2AE JUMPI PUSH3 0x3B DUP2 PUSH3 0x2ED JUMP JUMPDEST SWAP1 PUSH1 0x20 SWAP1 PUSH3 0x4C DUP3 DUP3 ADD PUSH3 0x2ED JUMP JUMPDEST SWAP3 DUP5 DUP3 ADD MLOAD SWAP3 PUSH4 0xFFFFFFFF DUP5 AND DUP1 SWAP5 SUB PUSH3 0x2AE JUMPI PUSH1 0x60 DUP4 ADD MLOAD PUSH1 0x80 SWAP1 SWAP4 ADD MLOAD PUSH1 0x1 PUSH1 0x0 DUP2 DUP2 SSTORE DUP2 SLOAD PUSH2 0x100 PUSH1 0x1 PUSH1 0xA8 SHL SUB CALLER PUSH1 0x8 DUP2 DUP2 SHL SWAP3 SWAP1 SWAP3 AND PUSH1 0x1 PUSH1 0x1 PUSH1 0xA8 SHL SUB NOT DUP5 AND OR SWAP1 SWAP5 SSTORE DUP11 MLOAD SWAP5 SWAP10 SWAP8 SWAP9 DUP10 SWAP9 SWAP4 SWAP8 SWAP1 SWAP5 PUSH1 0x1 PUSH1 0x1 PUSH1 0xA0 SHL SUB SWAP5 SWAP4 DUP6 SWAP4 SHR DUP4 AND PUSH32 0x8BE0079C531659141344CD1FD0A4F28419497F9722A3DAAFE3B4186F6B6457E0 DUP11 DUP1 LOG3 AND SWAP4 DUP5 ISZERO PUSH3 0x261 JUMPI POP AND SWAP2 DUP3 ISZERO PUSH3 0x211 JUMPI SWAP2 DUP4 SWAP3 SWAP2 DUP2 PUSH1 0x4 SWAP6 SWAP4 PUSH1 0x1 DUP1 PUSH1 0xA0 SHL SUB NOT SWAP1 DUP2 PUSH1 0x3 SLOAD AND OR PUSH1 0x3 SSTORE PUSH1 0x2 SLOAD AND OR PUSH1 0x2 SSTORE PUSH4 0xFFFFFFFF NOT PUSH1 0x8 SLOAD AND OR PUSH1 0x8 SSTORE DUP9 MLOAD SWAP4 DUP5 DUP1 SWAP3 PUSH4 0x313CE567 PUSH1 0xE0 SHL DUP3 MSTORE GAS STATICCALL SWAP1 DUP2 ISZERO PUSH3 0x207 JUMPI DUP4 SWAP2 PUSH3 0x1C3 JUMPI JUMPDEST POP PUSH1 0xFF SWAP2 POP AND PUSH1 0x12 DUP2 LT PUSH3 0x163 JUMPI JUMPDEST POP POP POP PUSH1 0xB SSTORE PUSH1 0xC SSTORE MLOAD PUSH2 0x1D77 SWAP1 DUP2 PUSH3 0x303 DUP3 CODECOPY RETURN JUMPDEST SWAP1 SWAP2 SWAP3 POP PUSH1 0x12 SUB PUSH1 0x12 DUP2 GT PUSH3 0x1AF JUMPI PUSH1 0x4D DUP2 GT PUSH3 0x1AF JUMPI PUSH1 0xA EXP SWAP2 DUP3 DUP2 MUL SWAP3 DUP2 DUP5 DIV EQ SWAP1 ISZERO OR ISZERO PUSH3 0x19B JUMPI POP CODESIZE DUP1 DUP1 PUSH3 0x14C JUMP JUMPDEST PUSH4 0x4E487B71 PUSH1 0xE0 SHL DUP2 MSTORE PUSH1 0x11 PUSH1 0x4 MSTORE PUSH1 0x24 SWAP1 REVERT JUMPDEST PUSH4 0x4E487B71 PUSH1 0xE0 SHL DUP3 MSTORE PUSH1 0x11 PUSH1 0x4 MSTORE PUSH1 0x24 DUP3 REVERT JUMPDEST SWAP1 POP DUP2 DUP2 RETURNDATASIZE DUP4 GT PUSH3 0x1FF JUMPI JUMPDEST PUSH3 0x1DC DUP2 DUP4 PUSH3 0x2B3 JUMP JUMPDEST DUP2 ADD SUB SLT PUSH3 0x1FB JUMPI MLOAD PUSH1 0xFF DUP2 AND DUP2 SUB PUSH3 0x1FB JUMPI PUSH1 0xFF SWAP1 CODESIZE PUSH3 0x13C JUMP JUMPDEST POP DUP1 REVERT JUMPDEST POP RETURNDATASIZE PUSH3 0x1D0 JUMP JUMPDEST DUP8 MLOAD RETURNDATASIZE DUP6 DUP3 RETURNDATACOPY RETURNDATASIZE SWAP1 REVERT JUMPDEST DUP9 MLOAD PUSH3 0x461BCD PUSH1 0xE5 SHL DUP2 MSTORE PUSH1 0x4 DUP2 ADD DUP6 SWAP1 MSTORE PUSH1 0x23 PUSH1 0x24 DUP3 ADD MSTORE PUSH32 0x44796E616D696345617465723A20496E76616C696420746F6B656E2061646472 PUSH1 0x44 DUP3 ADD MSTORE PUSH3 0x657373 PUSH1 0xE8 SHL PUSH1 0x64 DUP3 ADD MSTORE PUSH1 0x84 SWAP1 REVERT JUMPDEST PUSH3 0x461BCD PUSH1 0xE5 SHL DUP2 MSTORE PUSH1 0x4 DUP2 ADD DUP7 SWAP1 MSTORE PUSH1 0x22 PUSH1 0x24 DUP3 ADD MSTORE PUSH32 0x44796E616D696345617465723A20496E76616C69642057455745206164647265 PUSH1 0x44 DUP3 ADD MSTORE PUSH2 0x7373 PUSH1 0xF0 SHL PUSH1 0x64 DUP3 ADD MSTORE PUSH1 0x84 SWAP1 REVERT JUMPDEST PUSH1 0x0 DUP1 REVERT JUMPDEST PUSH1 0x1F SWAP1 SWAP2 ADD PUSH1 0x1F NOT AND DUP2 ADD SWAP1 PUSH1 0x1 PUSH1 0x1 PUSH1 0x40 SHL SUB DUP3 GT SWAP1 DUP3 LT OR PUSH3 0x2D7 JUMPI PUSH1 0x40 MSTORE JUMP JUMPDEST PUSH4 0x4E487B71 PUSH1 0xE0 SHL PUSH1 0x0 MSTORE PUSH1 0x41 PUSH1 0x4 MSTORE PUSH1 0x24 PUSH1 0x0 REVERT JUMPDEST MLOAD SWAP1 PUSH1 0x1 PUSH1 0x1 PUSH1 0xA0 SHL SUB DUP3 AND DUP3 SUB PUSH3 0x2AE JUMPI JUMP INVALID PUSH1 0x80 PUSH1 0x40 MSTORE PUSH1 0x4 CALLDATASIZE LT ISZERO PUSH2 0x12 JUMPI PUSH1 0x0 DUP1 REVERT JUMPDEST PUSH1 0x0 CALLDATALOAD PUSH1 0xE0 SHR DUP1 PUSH3 0x1688B1 EQ PUSH2 0x1231 JUMPI DUP1 PUSH4 0x6FDDE03 EQ PUSH2 0x10DE JUMPI DUP1 PUSH4 0x1514617E EQ PUSH2 0x10BA JUMPI DUP1 PUSH4 0x199CBC54 EQ PUSH2 0x109C JUMPI DUP1 PUSH4 0x1F514C52 EQ PUSH2 0x107E JUMPI DUP1 PUSH4 0x21DF0DA7 EQ PUSH2 0x1055 JUMPI DUP1 PUSH4 0x24A47AEB EQ PUSH2 0xE8B JUMPI DUP1 PUSH4 0x2EB4A7AB EQ PUSH2 0xE6D JUMPI DUP1 PUSH4 0x301FC2FF EQ PUSH2 0xE4F JUMPI DUP1 PUSH4 0x3586D514 EQ PUSH2 0xDCB JUMPI DUP1 PUSH4 0x35FAA416 EQ PUSH2 0xC9B JUMPI DUP1 PUSH4 0x4E71D92D EQ PUSH2 0xC02 JUMPI DUP1 PUSH4 0x4FA1F104 EQ PUSH2 0xB12 JUMPI DUP1 PUSH4 0x5C975ABB EQ PUSH2 0xAEF JUMPI DUP1 PUSH4 0x61D027B3 EQ PUSH2 0xAC6 JUMPI DUP1 PUSH4 0x655A9AC2 EQ PUSH2 0xAA5 JUMPI DUP1 PUSH4 0x679AEFCE EQ PUSH2 0x9FC JUMPI DUP1 PUSH4 0x6F8B44B0 EQ PUSH2 0x9DB JUMPI DUP1 PUSH4 0x70A08231 EQ PUSH2 0x9A1 JUMPI DUP1 PUSH4 0x715018A6 EQ PUSH2 0x940 JUMPI DUP1 PUSH4 0x7CB64759 EQ PUSH2 0x91F JUMPI DUP1 PUSH4 0x8DA5CB5B EQ PUSH2 0x8F2 JUMPI DUP1 PUSH4 0x8F4FFCB1 EQ PUSH2 0x7BA JUMPI DUP1 PUSH4 0x9636D881 EQ PUSH2 0x77D JUMPI DUP1 PUSH4 0x9ED4527E EQ PUSH2 0x75F JUMPI DUP1 PUSH4 0xB6B55F25 EQ PUSH2 0x6D7 JUMPI DUP1 PUSH4 0xBF3506C1 EQ PUSH2 0x697 JUMPI DUP1 PUSH4 0xC2CD9B2B EQ PUSH2 0x66E JUMPI DUP1 PUSH4 0xC4AE3168 EQ PUSH2 0x58E JUMPI DUP1 PUSH4 0xD5ABEB01 EQ PUSH2 0x570 JUMPI DUP1 PUSH4 0xDAF49863 EQ PUSH2 0x51F JUMPI DUP1 PUSH4 0xDECE1BAA EQ PUSH2 0x4FE JUMPI DUP1 PUSH4 0xE1F26F22 EQ PUSH2 0x4D5 JUMPI DUP1 PUSH4 0xE4330545 EQ PUSH2 0x3DF JUMPI DUP1 PUSH4 0xEA9F2417 EQ PUSH2 0x333 JUMPI DUP1 PUSH4 0xEB91D37E EQ PUSH2 0x2D9 JUMPI DUP1 PUSH4 0xF0F44260 EQ PUSH2 0x296 JUMPI PUSH4 0xF2FDE38B EQ PUSH2 0x1BD JUMPI PUSH1 0x0 DUP1 REVERT JUMPDEST CALLVALUE PUSH2 0x291 JUMPI PUSH1 0x20 CALLDATASIZE PUSH1 0x3 NOT ADD SLT PUSH2 0x291 JUMPI PUSH2 0x1D6 PUSH2 0x156A JUMP JUMPDEST PUSH2 0x1DE PUSH2 0x1580 JUMP JUMPDEST PUSH1 0x1 PUSH1 0x1 PUSH1 0xA0 SHL SUB DUP2 DUP2 AND SWAP2 DUP3 ISZERO PUSH2 0x23D JUMPI PUSH1 0x1 DUP1 SLOAD PUSH2 0x100 PUSH1 0x1 PUSH1 0xA8 SHL SUB NOT DUP2 AND PUSH1 0x8 SWAP4 DUP5 SHL PUSH2 0x100 PUSH1 0x1 PUSH1 0xA8 SHL SUB AND OR SWAP1 SWAP2 SSTORE SWAP1 SHR AND PUSH32 0x8BE0079C531659141344CD1FD0A4F28419497F9722A3DAAFE3B4186F6B6457E0 PUSH1 0x0 DUP1 LOG3 STOP JUMPDEST PUSH1 0x40 MLOAD PUSH3 0x461BCD PUSH1 0xE5 SHL DUP2 MSTORE PUSH1 0x20 PUSH1 0x4 DUP3 ADD MSTORE PUSH1 0x26 PUSH1 0x24 DUP3 ADD MSTORE PUSH32 0x4F776E61626C653A206E6577206F776E657220697320746865207A65726F2061 PUSH1 0x44 DUP3 ADD MSTORE PUSH6 0x646472657373 PUSH1 0xD0 SHL PUSH1 0x64 DUP3 ADD MSTORE PUSH1 0x84 SWAP1 REVERT JUMPDEST PUSH1 0x0 DUP1 REVERT JUMPDEST CALLVALUE PUSH2 0x291 JUMPI PUSH1 0x20 CALLDATASIZE PUSH1 0x3 NOT ADD SLT PUSH2 0x291 JUMPI PUSH2 0x2AF PUSH2 0x156A JUMP JUMPDEST PUSH2 0x2B7 PUSH2 0x1580 JUMP JUMPDEST PUSH1 0x4 DUP1 SLOAD PUSH1 0x1 PUSH1 0x1 PUSH1 0xA0 SHL SUB NOT AND PUSH1 0x1 PUSH1 0x1 PUSH1 0xA0 SHL SUB SWAP3 SWAP1 SWAP3 AND SWAP2 SWAP1 SWAP2 OR SWAP1 SSTORE STOP JUMPDEST CALLVALUE PUSH2 0x291 JUMPI PUSH1 0x0 CALLDATASIZE PUSH1 0x3 NOT ADD SLT PUSH2 0x291 JUMPI PUSH2 0x2F2 PUSH2 0x163D JUMP JUMPDEST PUSH2 0x3E8 SWAP1 DUP2 DUP2 MUL SWAP2 DUP2 DUP4 DIV EQ SWAP1 ISZERO OR ISZERO PUSH2 0x31D JUMPI PUSH2 0x315 PUSH1 0x20 SWAP2 PUSH1 0xB SLOAD SWAP1 PUSH2 0x1610 JUMP JUMPDEST PUSH1 0x40 MLOAD SWAP1 DUP2 MSTORE RETURN JUMPDEST PUSH4 0x4E487B71 PUSH1 0xE0 SHL PUSH1 0x0 MSTORE PUSH1 0x11 PUSH1 0x4 MSTORE PUSH1 0x24 PUSH1 0x0 REVERT JUMPDEST CALLVALUE PUSH2 0x291 JUMPI PUSH1 0x0 CALLDATASIZE PUSH1 0x3 NOT ADD SLT PUSH2 0x291 JUMPI PUSH2 0x34C PUSH2 0x176C JUMP JUMPDEST PUSH2 0x358 PUSH1 0xA SLOAD ISZERO PUSH2 0x1703 JUMP JUMPDEST PUSH1 0x2 SLOAD PUSH1 0x40 MLOAD PUSH4 0x70A08231 PUSH1 0xE0 SHL DUP2 MSTORE CALLER PUSH1 0x4 DUP3 ADD MSTORE SWAP1 PUSH1 0x20 SWAP1 DUP3 SWAP1 PUSH1 0x24 SWAP1 DUP3 SWAP1 PUSH1 0x1 PUSH1 0x1 PUSH1 0xA0 SHL SUB AND GAS STATICCALL SWAP1 DUP2 ISZERO PUSH2 0x3D3 JUMPI PUSH1 0x0 SWAP2 PUSH2 0x3A0 JUMPI JUMPDEST PUSH1 0x20 PUSH2 0x315 ADDRESS CALLER DUP6 PUSH2 0x1AF5 JUMP JUMPDEST SWAP1 POP PUSH1 0x20 DUP2 RETURNDATASIZE DUP3 GT PUSH2 0x3CB JUMPI JUMPDEST DUP2 PUSH2 0x3BA PUSH1 0x20 SWAP4 DUP4 PUSH2 0x15DB JUMP JUMPDEST DUP2 ADD SUB SLT PUSH2 0x291 JUMPI MLOAD PUSH2 0x315 PUSH2 0x393 JUMP JUMPDEST RETURNDATASIZE SWAP2 POP PUSH2 0x3AD JUMP JUMPDEST PUSH1 0x40 MLOAD RETURNDATASIZE PUSH1 0x0 DUP3 RETURNDATACOPY RETURNDATASIZE SWAP1 REVERT JUMPDEST CALLVALUE PUSH2 0x291 JUMPI PUSH1 0x0 CALLDATASIZE PUSH1 0x3 NOT ADD SLT PUSH2 0x291 JUMPI PUSH1 0x3 SLOAD PUSH1 0x40 MLOAD PUSH4 0x70A08231 PUSH1 0xE0 SHL DUP2 MSTORE ADDRESS PUSH1 0x4 DUP3 ADD MSTORE SWAP1 PUSH1 0x20 SWAP1 DUP2 SWAP1 DUP4 SWAP1 PUSH1 0x24 SWAP1 DUP3 SWAP1 PUSH1 0x1 PUSH1 0x1 PUSH1 0xA0 SHL SUB AND GAS STATICCALL SWAP2 DUP3 ISZERO PUSH2 0x3D3 JUMPI PUSH1 0x0 SWAP3 PUSH2 0x4A6 JUMPI JUMPDEST POP DUP2 ISZERO PUSH2 0x467 JUMPI PUSH2 0x45E PUSH32 0xA7A5838120EC6C2CA5291F32459F820C6230C6B5D0FA06A111E49BADB5E6C84B SWAP3 PUSH2 0x1C86 JUMP JUMPDEST PUSH1 0x40 MLOAD SWAP1 DUP2 MSTORE LOG1 STOP JUMPDEST PUSH1 0x64 SWAP1 PUSH1 0x40 MLOAD SWAP1 PUSH3 0x461BCD PUSH1 0xE5 SHL DUP3 MSTORE PUSH1 0x4 DUP3 ADD MSTORE PUSH1 0x18 PUSH1 0x24 DUP3 ADD MSTORE PUSH24 0x64756D703A204E6F2062616C616E636520746F2064756D7 PUSH1 0x44 SHL PUSH1 0x44 DUP3 ADD MSTORE REVERT JUMPDEST SWAP1 DUP1 SWAP3 POP DUP2 DUP2 RETURNDATASIZE DUP4 GT PUSH2 0x4CE JUMPI JUMPDEST PUSH2 0x4BE DUP2 DUP4 PUSH2 0x15DB JUMP JUMPDEST DUP2 ADD SUB SLT PUSH2 0x291 JUMPI MLOAD SWAP1 DUP3 PUSH2 0x42D JUMP JUMPDEST POP RETURNDATASIZE PUSH2 0x4B4 JUMP JUMPDEST CALLVALUE PUSH2 0x291 JUMPI PUSH1 0x0 CALLDATASIZE PUSH1 0x3 NOT ADD SLT PUSH2 0x291 JUMPI PUSH1 0x3 SLOAD PUSH1 0x40 MLOAD PUSH1 0x1 PUSH1 0x1 PUSH1 0xA0 SHL SUB SWAP1 SWAP2 AND DUP2 MSTORE PUSH1 0x20 SWAP1 RETURN JUMPDEST CALLVALUE PUSH2 0x291 JUMPI PUSH1 0x20 CALLDATASIZE PUSH1 0x3 NOT ADD SLT PUSH2 0x291 JUMPI PUSH2 0x517 PUSH2 0x1580 JUMP JUMPDEST PUSH1 0x4 CALLDATALOAD PUSH1 0xC SSTORE STOP JUMPDEST CALLVALUE PUSH2 0x291 JUMPI PUSH1 0x20 CALLDATASIZE PUSH1 0x3 NOT ADD SLT PUSH2 0x291 JUMPI PUSH1 0x1 PUSH1 0x1 PUSH1 0xA0 SHL SUB PUSH2 0x540 PUSH2 0x156A JUMP JUMPDEST AND PUSH1 0x0 MSTORE PUSH1 0x9 PUSH1 0x20 MSTORE PUSH1 0x60 PUSH1 0x40 PUSH1 0x0 KECCAK256 DUP1 SLOAD SWAP1 PUSH1 0x2 PUSH1 0x1 DUP3 ADD SLOAD SWAP2 ADD SLOAD SWAP1 PUSH1 0x40 MLOAD SWAP3 DUP4 MSTORE PUSH1 0x20 DUP4 ADD MSTORE PUSH1 0x40 DUP3 ADD MSTORE RETURN JUMPDEST CALLVALUE PUSH2 0x291 JUMPI PUSH1 0x0 CALLDATASIZE PUSH1 0x3 NOT ADD SLT PUSH2 0x291 JUMPI PUSH1 0x20 PUSH1 0x7 SLOAD PUSH1 0x40 MLOAD SWAP1 DUP2 MSTORE RETURN JUMPDEST CALLVALUE PUSH2 0x291 JUMPI PUSH1 0x0 CALLDATASIZE PUSH1 0x3 NOT ADD SLT PUSH2 0x291 JUMPI PUSH2 0x5A7 PUSH2 0x1580 JUMP JUMPDEST PUSH1 0x1 SLOAD PUSH1 0xFF DUP2 AND ISZERO PUSH2 0x62F JUMPI POP PUSH1 0x1 SLOAD PUSH1 0xFF DUP2 AND ISZERO PUSH2 0x5F3 JUMPI PUSH1 0xFF NOT AND PUSH1 0x1 SSTORE PUSH32 0x5DB9EE0A495BF2E6FF9C91A7834C1BA4FDD244A5E8AA4E537BD38AEAE4B073AA PUSH1 0x20 PUSH1 0x40 MLOAD CALLER DUP2 MSTORE LOG1 STOP JUMPDEST PUSH1 0x40 MLOAD PUSH3 0x461BCD PUSH1 0xE5 SHL DUP2 MSTORE PUSH1 0x20 PUSH1 0x4 DUP3 ADD MSTORE PUSH1 0x14 PUSH1 0x24 DUP3 ADD MSTORE PUSH20 0x14185D5CD8589B194E881B9BDD081C185D5CD959 PUSH1 0x62 SHL PUSH1 0x44 DUP3 ADD MSTORE PUSH1 0x64 SWAP1 REVERT JUMPDEST PUSH1 0x1 SWAP1 PUSH2 0x63A PUSH2 0x176C JUMP JUMPDEST PUSH1 0xFF NOT AND OR PUSH1 0x1 SSTORE PUSH32 0x62E78CEA01BEE320CD4E420270B5EA74000D11B0C9F74754EBDBFC544B05A258 PUSH1 0x20 PUSH1 0x40 MLOAD CALLER DUP2 MSTORE LOG1 STOP JUMPDEST CALLVALUE PUSH2 0x291 JUMPI PUSH1 0x0 CALLDATASIZE PUSH1 0x3 NOT ADD SLT PUSH2 0x291 JUMPI PUSH1 0xD SLOAD PUSH1 0x40 MLOAD PUSH1 0x1 PUSH1 0x1 PUSH1 0xA0 SHL SUB SWAP1 SWAP2 AND DUP2 MSTORE PUSH1 0x20 SWAP1 RETURN JUMPDEST CALLVALUE PUSH2 0x291 JUMPI PUSH1 0x20 CALLDATASIZE PUSH1 0x3 NOT ADD SLT PUSH2 0x291 JUMPI PUSH1 0x1 PUSH1 0x1 PUSH1 0xA0 SHL SUB PUSH2 0x6B8 PUSH2 0x156A JUMP JUMPDEST AND PUSH1 0x0 MSTORE PUSH1 0x9 PUSH1 0x20 MSTORE PUSH1 0x20 PUSH1 0x1 PUSH1 0x40 PUSH1 0x0 KECCAK256 ADD SLOAD PUSH1 0x40 MLOAD SWAP1 TIMESTAMP LT ISZERO DUP2 MSTORE RETURN JUMPDEST CALLVALUE PUSH2 0x291 JUMPI PUSH1 0x20 CALLDATASIZE PUSH1 0x3 NOT ADD SLT PUSH2 0x291 JUMPI PUSH2 0x6F0 PUSH2 0x1580 JUMP JUMPDEST PUSH1 0x3 SLOAD PUSH1 0x40 MLOAD PUSH4 0x23B872DD PUSH1 0xE0 SHL DUP2 MSTORE SWAP1 PUSH1 0x20 SWAP1 DUP3 SWAP1 PUSH1 0x1 PUSH1 0x1 PUSH1 0xA0 SHL SUB AND DUP2 PUSH1 0x0 DUP2 PUSH2 0x726 PUSH1 0x4 DUP1 CALLDATALOAD SWAP1 ADDRESS SWAP1 CALLER SWAP1 DUP6 ADD PUSH2 0x174A JUMP JUMPDEST SUB SWAP3 GAS CALL DUP1 ISZERO PUSH2 0x3D3 JUMPI PUSH2 0x736 JUMPI STOP JUMPDEST PUSH2 0x756 SWAP1 PUSH1 0x20 RETURNDATASIZE DUP2 GT PUSH2 0x758 JUMPI JUMPDEST PUSH2 0x74E DUP2 DUP4 PUSH2 0x15DB JUMP JUMPDEST DUP2 ADD SWAP1 PUSH2 0x16DE JUMP JUMPDEST STOP JUMPDEST POP RETURNDATASIZE PUSH2 0x744 JUMP JUMPDEST CALLVALUE PUSH2 0x291 JUMPI PUSH1 0x0 CALLDATASIZE PUSH1 0x3 NOT ADD SLT PUSH2 0x291 JUMPI PUSH1 0x20 PUSH1 0xC SLOAD PUSH1 0x40 MLOAD SWAP1 DUP2 MSTORE RETURN JUMPDEST CALLVALUE PUSH2 0x291 JUMPI PUSH1 0x20 CALLDATASIZE PUSH1 0x3 NOT ADD SLT PUSH2 0x291 JUMPI PUSH1 0x4 CALLDATALOAD PUSH4 0xFFFFFFFF DUP2 AND DUP1 SWAP2 SUB PUSH2 0x291 JUMPI PUSH2 0x7A7 PUSH2 0x1580 JUMP JUMPDEST PUSH4 0xFFFFFFFF NOT PUSH1 0x8 SLOAD AND OR PUSH1 0x8 SSTORE PUSH1 0x0 DUP1 RETURN JUMPDEST CALLVALUE PUSH2 0x291 JUMPI PUSH1 0x80 CALLDATASIZE PUSH1 0x3 NOT ADD SLT PUSH2 0x291 JUMPI PUSH2 0x7D3 PUSH2 0x156A JUMP JUMPDEST PUSH1 0x24 CALLDATALOAD SWAP1 PUSH1 0x1 PUSH1 0x1 PUSH1 0xA0 SHL SUB PUSH1 0x44 CALLDATALOAD DUP2 DUP2 AND SUB PUSH2 0x291 JUMPI PUSH1 0x64 CALLDATALOAD PUSH8 0xFFFFFFFFFFFFFFFF DUP1 DUP3 GT PUSH2 0x291 JUMPI CALLDATASIZE PUSH1 0x23 DUP4 ADD SLT ISZERO PUSH2 0x291 JUMPI DUP2 PUSH1 0x4 ADD CALLDATALOAD SWAP1 DUP2 GT PUSH2 0x291 JUMPI CALLDATASIZE SWAP2 ADD PUSH1 0x24 ADD GT PUSH2 0x291 JUMPI PUSH2 0x827 PUSH2 0x1A9F JUMP JUMPDEST PUSH2 0x82F PUSH2 0x176C JUMP JUMPDEST PUSH1 0x2 SLOAD AND SWAP2 DUP3 ISZERO PUSH2 0x89E JUMPI PUSH1 0x20 PUSH1 0x40 MLOAD DUP1 SWAP5 PUSH4 0x23B872DD PUSH1 0xE0 SHL DUP3 MSTORE DUP2 PUSH1 0x0 DUP2 PUSH2 0x85E DUP8 ADDRESS CALLER PUSH1 0x4 DUP6 ADD PUSH2 0x174A JUMP JUMPDEST SUB SWAP3 GAS CALL SWAP3 DUP4 ISZERO PUSH2 0x3D3 JUMPI PUSH2 0x878 SWAP4 PUSH2 0x880 JUMPI JUMPDEST POP PUSH2 0x17B0 JUMP JUMPDEST POP PUSH1 0x1 PUSH1 0x0 SSTORE STOP JUMPDEST PUSH2 0x897 SWAP1 PUSH1 0x20 RETURNDATASIZE DUP2 GT PUSH2 0x758 JUMPI PUSH2 0x74E DUP2 DUP4 PUSH2 0x15DB JUMP JUMPDEST POP DUP4 PUSH2 0x872 JUMP JUMPDEST PUSH1 0x40 MLOAD PUSH3 0x461BCD PUSH1 0xE5 SHL DUP2 MSTORE PUSH1 0x20 PUSH1 0x4 DUP3 ADD MSTORE PUSH1 0x26 PUSH1 0x24 DUP3 ADD MSTORE PUSH32 0x72656365697665417070726F76616C3A20546F6B656E2061646472657373206E PUSH1 0x44 DUP3 ADD MSTORE PUSH6 0x1BDD081CD95D PUSH1 0xD2 SHL PUSH1 0x64 DUP3 ADD MSTORE PUSH1 0x84 SWAP1 REVERT JUMPDEST CALLVALUE PUSH2 0x291 JUMPI PUSH1 0x0 CALLDATASIZE PUSH1 0x3 NOT ADD SLT PUSH2 0x291 JUMPI PUSH1 0x1 SLOAD PUSH1 0x40 MLOAD PUSH1 0x8 SWAP2 SWAP1 SWAP2 SHR PUSH1 0x1 PUSH1 0x1 PUSH1 0xA0 SHL SUB AND DUP2 MSTORE PUSH1 0x20 SWAP1 RETURN JUMPDEST CALLVALUE PUSH2 0x291 JUMPI PUSH1 0x20 CALLDATASIZE PUSH1 0x3 NOT ADD SLT PUSH2 0x291 JUMPI PUSH2 0x938 PUSH2 0x1580 JUMP JUMPDEST PUSH1 0x4 CALLDATALOAD PUSH1 0xA SSTORE STOP JUMPDEST CALLVALUE PUSH2 0x291 JUMPI PUSH1 0x0 CALLDATASIZE PUSH1 0x3 NOT ADD SLT PUSH2 0x291 JUMPI PUSH2 0x959 PUSH2 0x1580 JUMP JUMPDEST PUSH1 0x1 DUP1 SLOAD PUSH2 0x100 PUSH1 0x1 PUSH1 0xA8 SHL SUB NOT DUP2 AND SWAP1 SWAP2 SSTORE PUSH1 0x0 SWAP1 PUSH1 0x8 SHR PUSH1 0x1 PUSH1 0x1 PUSH1 0xA0 SHL SUB AND PUSH32 0x8BE0079C531659141344CD1FD0A4F28419497F9722A3DAAFE3B4186F6B6457E0 DUP3 DUP1 LOG3 STOP JUMPDEST CALLVALUE PUSH2 0x291 JUMPI PUSH1 0x20 CALLDATASIZE PUSH1 0x3 NOT ADD SLT PUSH2 0x291 JUMPI PUSH1 0x1 PUSH1 0x1 PUSH1 0xA0 SHL SUB PUSH2 0x9C2 PUSH2 0x156A JUMP JUMPDEST AND PUSH1 0x0 MSTORE PUSH1 0x9 PUSH1 0x20 MSTORE PUSH1 0x20 PUSH1 0x40 PUSH1 0x0 KECCAK256 SLOAD PUSH1 0x40 MLOAD SWAP1 DUP2 MSTORE RETURN JUMPDEST CALLVALUE PUSH2 0x291 JUMPI PUSH1 0x20 CALLDATASIZE PUSH1 0x3 NOT ADD SLT PUSH2 0x291 JUMPI PUSH2 0x9F4 PUSH2 0x1580 JUMP JUMPDEST PUSH1 0x4 CALLDATALOAD PUSH1 0x7 SSTORE STOP JUMPDEST CALLVALUE PUSH2 0x291 JUMPI PUSH1 0x0 CALLDATASIZE PUSH1 0x3 NOT ADD SLT PUSH2 0x291 JUMPI PUSH1 0x2 SLOAD PUSH1 0x40 MLOAD PUSH4 0x313CE567 PUSH1 0xE0 SHL DUP2 MSTORE SWAP1 PUSH1 0x20 SWAP1 DUP3 SWAP1 PUSH1 0x4 SWAP1 DUP3 SWAP1 PUSH1 0x1 PUSH1 0x1 PUSH1 0xA0 SHL SUB AND GAS STATICCALL SWAP1 DUP2 ISZERO PUSH2 0x3D3 JUMPI PUSH2 0xA55 PUSH1 0xFF PUSH1 0x20 SWAP4 PUSH2 0x315 SWAP4 PUSH1 0x0 SWAP2 PUSH2 0xA78 JUMPI JUMPDEST POP AND PUSH2 0x16D0 JUMP JUMPDEST PUSH2 0xA73 PUSH2 0xA64 DUP3 PUSH1 0xB SLOAD PUSH2 0x16F6 JUMP JUMPDEST SWAP2 PUSH2 0xA6D PUSH2 0x163D JUMP JUMPDEST SWAP1 PUSH2 0x15FD JUMP JUMPDEST PUSH2 0x1610 JUMP JUMPDEST PUSH2 0xA98 SWAP2 POP DUP6 RETURNDATASIZE DUP2 GT PUSH2 0xA9E JUMPI JUMPDEST PUSH2 0xA90 DUP2 DUP4 PUSH2 0x15DB JUMP JUMPDEST DUP2 ADD SWAP1 PUSH2 0x16B7 JUMP JUMPDEST DUP6 PUSH2 0xA4E JUMP JUMPDEST POP RETURNDATASIZE PUSH2 0xA86 JUMP JUMPDEST CALLVALUE PUSH2 0x291 JUMPI PUSH1 0x20 CALLDATASIZE PUSH1 0x3 NOT ADD SLT PUSH2 0x291 JUMPI PUSH2 0xABE PUSH2 0x1580 JUMP JUMPDEST PUSH1 0x4 CALLDATALOAD PUSH1 0xB SSTORE STOP JUMPDEST CALLVALUE PUSH2 0x291 JUMPI PUSH1 0x0 CALLDATASIZE PUSH1 0x3 NOT ADD SLT PUSH2 0x291 JUMPI PUSH1 0x4 SLOAD PUSH1 0x40 MLOAD PUSH1 0x1 PUSH1 0x1 PUSH1 0xA0 SHL SUB SWAP1 SWAP2 AND DUP2 MSTORE PUSH1 0x20 SWAP1 RETURN JUMPDEST CALLVALUE PUSH2 0x291 JUMPI PUSH1 0x0 CALLDATASIZE PUSH1 0x3 NOT ADD SLT PUSH2 0x291 JUMPI PUSH1 0x20 PUSH1 0xFF PUSH1 0x1 SLOAD AND PUSH1 0x40 MLOAD SWAP1 ISZERO ISZERO DUP2 MSTORE RETURN JUMPDEST CALLVALUE PUSH2 0x291 JUMPI PUSH1 0x20 DUP1 PUSH1 0x3 NOT CALLDATASIZE ADD SLT PUSH2 0x291 JUMPI PUSH1 0x4 CALLDATALOAD PUSH1 0x1 DUP1 PUSH1 0xA0 SHL SUB PUSH1 0x2 SLOAD AND PUSH1 0x40 MLOAD PUSH4 0x313CE567 PUSH1 0xE0 SHL DUP1 DUP3 MSTORE DUP5 DUP3 PUSH1 0x4 DUP2 DUP7 GAS STATICCALL DUP1 ISZERO PUSH2 0x3D3 JUMPI PUSH1 0xFF PUSH1 0x12 SWAP2 DUP8 SWAP5 PUSH1 0x0 SWAP2 PUSH2 0xBE5 JUMPI JUMPDEST POP AND LT PUSH2 0xB79 JUMPI JUMPDEST POP PUSH2 0x315 DUP4 PUSH2 0xA73 PUSH2 0xA64 DUP3 PUSH1 0xB SLOAD PUSH2 0x16F6 JUMP JUMPDEST PUSH1 0x4 PUSH1 0x40 MLOAD DUP1 SWAP5 DUP2 SWAP4 DUP3 MSTORE GAS STATICCALL DUP1 ISZERO PUSH2 0x3D3 JUMPI PUSH1 0xFF SWAP2 PUSH1 0x0 SWAP2 PUSH2 0xBC8 JUMPI JUMPDEST POP AND PUSH1 0x12 SUB PUSH1 0xFF DUP2 GT PUSH2 0x31D JUMPI PUSH1 0xFF AND PUSH1 0x4D DUP2 GT PUSH2 0x31D JUMPI PUSH2 0x315 SWAP2 PUSH2 0xBC0 SWAP2 PUSH1 0xA EXP SWAP1 PUSH2 0x15FD JUMP JUMPDEST SWAP1 DUP3 DUP5 PUSH2 0xB65 JUMP JUMPDEST PUSH2 0xBDF SWAP2 POP DUP5 RETURNDATASIZE DUP7 GT PUSH2 0xA9E JUMPI PUSH2 0xA90 DUP2 DUP4 PUSH2 0x15DB JUMP JUMPDEST DUP5 PUSH2 0xB97 JUMP JUMPDEST PUSH2 0xBFC SWAP2 POP DUP6 RETURNDATASIZE DUP8 GT PUSH2 0xA9E JUMPI PUSH2 0xA90 DUP2 DUP4 PUSH2 0x15DB JUMP JUMPDEST DUP9 PUSH2 0xB5D JUMP JUMPDEST CALLVALUE PUSH2 0x291 JUMPI PUSH1 0x0 CALLDATASIZE PUSH1 0x3 NOT ADD SLT PUSH2 0x291 JUMPI PUSH2 0xC1B PUSH2 0x176C JUMP JUMPDEST PUSH4 0xFFFFFFFF PUSH1 0x8 SLOAD AND ISZERO PUSH2 0xC8E JUMPI JUMPDEST CALLER PUSH1 0x0 MSTORE PUSH1 0x9 PUSH1 0x20 MSTORE PUSH1 0x1 PUSH1 0x40 PUSH1 0x0 KECCAK256 ADD SLOAD TIMESTAMP LT PUSH2 0xC4A JUMPI PUSH2 0x756 PUSH2 0x1C17 JUMP JUMPDEST PUSH1 0x64 PUSH1 0x40 MLOAD PUSH3 0x461BCD PUSH1 0xE5 SHL DUP2 MSTORE PUSH1 0x20 PUSH1 0x4 DUP3 ADD MSTORE PUSH1 0x20 PUSH1 0x24 DUP3 ADD MSTORE PUSH32 0x7768656E436C61696D61626C653A2056657374696E67206E6F7420656E646564 PUSH1 0x44 DUP3 ADD MSTORE REVERT JUMPDEST PUSH2 0xC96 PUSH2 0x1C17 JUMP JUMPDEST PUSH2 0xC2A JUMP JUMPDEST CALLVALUE PUSH2 0x291 JUMPI PUSH1 0x0 CALLDATASIZE PUSH1 0x3 NOT ADD SLT PUSH2 0x291 JUMPI PUSH2 0xCB4 PUSH2 0x1580 JUMP JUMPDEST PUSH1 0x3 SLOAD PUSH1 0x40 MLOAD PUSH4 0x70A08231 PUSH1 0xE0 SHL DUP2 MSTORE ADDRESS PUSH1 0x4 DUP3 ADD MSTORE PUSH1 0x20 SWAP2 PUSH1 0x1 PUSH1 0x1 PUSH1 0xA0 SHL SUB SWAP1 DUP2 AND SWAP1 DUP4 DUP4 PUSH1 0x24 DUP2 DUP6 GAS STATICCALL SWAP3 DUP4 ISZERO PUSH2 0x3D3 JUMPI PUSH1 0x0 SWAP4 PUSH2 0xD9C JUMPI JUMPDEST POP DUP3 ISZERO PUSH2 0xD57 JUMPI PUSH1 0x1 SLOAD PUSH1 0x40 MLOAD PUSH4 0xA9059CBB PUSH1 0xE0 SHL DUP2 MSTORE PUSH1 0x8 SWAP2 SWAP1 SWAP2 SHR SWAP2 SWAP1 SWAP2 AND PUSH1 0x1 PUSH1 0x1 PUSH1 0xA0 SHL SUB AND PUSH1 0x4 DUP3 ADD MSTORE PUSH1 0x24 DUP2 ADD SWAP3 SWAP1 SWAP3 MSTORE DUP3 SWAP1 DUP3 SWAP1 PUSH1 0x44 SWAP1 DUP3 SWAP1 PUSH1 0x0 SWAP1 GAS CALL DUP1 ISZERO PUSH2 0x3D3 JUMPI PUSH2 0xD41 JUMPI STOP JUMPDEST DUP2 PUSH2 0x756 SWAP3 SWAP1 RETURNDATASIZE LT PUSH2 0x758 JUMPI PUSH2 0x74E DUP2 DUP4 PUSH2 0x15DB JUMP JUMPDEST PUSH1 0x40 MLOAD PUSH3 0x461BCD PUSH1 0xE5 SHL DUP2 MSTORE PUSH1 0x4 DUP2 ADD DUP6 SWAP1 MSTORE PUSH1 0x1A PUSH1 0x24 DUP3 ADD MSTORE PUSH32 0x73776565703A204E6F2062616C616E636520746F207377656570000000000000 PUSH1 0x44 DUP3 ADD MSTORE PUSH1 0x64 SWAP1 REVERT JUMPDEST SWAP1 SWAP3 POP DUP4 DUP2 DUP2 RETURNDATASIZE DUP4 GT PUSH2 0xDC4 JUMPI JUMPDEST PUSH2 0xDB4 DUP2 DUP4 PUSH2 0x15DB JUMP JUMPDEST DUP2 ADD SUB SLT PUSH2 0x291 JUMPI MLOAD SWAP2 DUP5 PUSH2 0xCF0 JUMP JUMPDEST POP RETURNDATASIZE PUSH2 0xDAA JUMP JUMPDEST CALLVALUE PUSH2 0x291 JUMPI PUSH1 0x20 CALLDATASIZE PUSH1 0x3 NOT ADD SLT PUSH2 0x291 JUMPI PUSH2 0xDE4 PUSH2 0x156A JUMP JUMPDEST PUSH2 0xDEC PUSH2 0x1580 JUMP JUMPDEST PUSH1 0xD DUP1 SLOAD PUSH1 0x1 PUSH1 0x1 PUSH1 0xA0 SHL SUB NOT AND PUSH1 0x1 PUSH1 0x1 PUSH1 0xA0 SHL SUB SWAP3 DUP4 AND SWAP1 DUP2 OR SWAP1 SWAP2 SSTORE SWAP1 DUP2 PUSH2 0xE13 JUMPI STOP JUMPDEST PUSH1 0x2 SLOAD PUSH1 0x40 MLOAD PUSH4 0x95EA7B3 PUSH1 0xE0 SHL DUP2 MSTORE PUSH1 0x4 DUP2 ADD SWAP4 SWAP1 SWAP4 MSTORE PUSH1 0x0 NOT PUSH1 0x24 DUP5 ADD MSTORE PUSH1 0x20 SWAP2 DUP4 SWAP2 PUSH1 0x44 SWAP2 DUP4 SWAP2 PUSH1 0x0 SWAP2 AND GAS CALL DUP1 ISZERO PUSH2 0x3D3 JUMPI PUSH2 0x736 JUMPI STOP JUMPDEST CALLVALUE PUSH2 0x291 JUMPI PUSH1 0x0 CALLDATASIZE PUSH1 0x3 NOT ADD SLT PUSH2 0x291 JUMPI PUSH1 0x20 PUSH1 0x6 SLOAD PUSH1 0x40 MLOAD SWAP1 DUP2 MSTORE RETURN JUMPDEST CALLVALUE PUSH2 0x291 JUMPI PUSH1 0x0 CALLDATASIZE PUSH1 0x3 NOT ADD SLT PUSH2 0x291 JUMPI PUSH1 0x20 PUSH1 0xA SLOAD PUSH1 0x40 MLOAD SWAP1 DUP2 MSTORE RETURN JUMPDEST CALLVALUE PUSH2 0x291 JUMPI PUSH1 0x20 DUP1 PUSH1 0x3 NOT CALLDATASIZE ADD SLT PUSH2 0x291 JUMPI PUSH1 0x4 CALLDATALOAD PUSH2 0xEA8 PUSH2 0x176C JUMP JUMPDEST PUSH1 0x2 SLOAD PUSH1 0x40 MLOAD PUSH4 0x70A08231 PUSH1 0xE0 SHL DUP2 MSTORE CALLER PUSH1 0x4 DUP3 ADD MSTORE DUP3 SWAP2 PUSH1 0x1 PUSH1 0x1 PUSH1 0xA0 SHL SUB SWAP1 DUP2 AND SWAP2 DUP6 DUP2 PUSH1 0x24 DUP2 DUP7 GAS STATICCALL DUP1 ISZERO PUSH2 0x3D3 JUMPI DUP6 SWAP2 PUSH1 0x0 SWAP2 PUSH2 0x1024 JUMPI JUMPDEST POP LT PUSH2 0xFD4 JUMPI PUSH2 0xEF6 PUSH1 0xA SLOAD ISZERO PUSH2 0x1703 JUMP JUMPDEST DUP5 PUSH1 0x40 MLOAD DUP1 SWAP4 PUSH4 0x23B872DD PUSH1 0xE0 SHL DUP3 MSTORE DUP2 PUSH1 0x0 DUP2 PUSH2 0xF19 DUP11 ADDRESS CALLER PUSH1 0x4 DUP6 ADD PUSH2 0x174A JUMP JUMPDEST SUB SWAP3 GAS CALL SWAP1 DUP2 ISZERO PUSH2 0x3D3 JUMPI PUSH1 0x4 SWAP3 DUP7 SWAP3 PUSH2 0xFB7 JUMPI JUMPDEST POP PUSH2 0xF38 DUP6 PUSH2 0x1C86 JUMP JUMPDEST POP PUSH1 0x2 SLOAD AND PUSH1 0x40 MLOAD SWAP3 DUP4 DUP1 SWAP3 PUSH4 0x313CE567 PUSH1 0xE0 SHL DUP3 MSTORE GAS STATICCALL DUP1 ISZERO PUSH2 0x3D3 JUMPI PUSH1 0xFF SWAP2 PUSH1 0x0 SWAP2 PUSH2 0xF9A JUMPI JUMPDEST POP AND PUSH1 0x12 DUP2 LT PUSH2 0xF77 JUMPI JUMPDEST DUP4 PUSH2 0x315 CALLER DUP5 PUSH2 0x17B0 JUMP JUMPDEST SWAP1 POP PUSH1 0x12 SUB PUSH1 0x12 DUP2 GT PUSH2 0x31D JUMPI PUSH2 0x315 SWAP2 PUSH2 0xA6D PUSH2 0xF94 SWAP3 PUSH2 0x16D0 JUMP JUMPDEST DUP4 PUSH2 0xF6C JUMP JUMPDEST PUSH2 0xFB1 SWAP2 POP DUP6 RETURNDATASIZE DUP8 GT PUSH2 0xA9E JUMPI PUSH2 0xA90 DUP2 DUP4 PUSH2 0x15DB JUMP JUMPDEST DUP6 PUSH2 0xF61 JUMP JUMPDEST PUSH2 0xFCD SWAP1 DUP4 RETURNDATASIZE DUP6 GT PUSH2 0x758 JUMPI PUSH2 0x74E DUP2 DUP4 PUSH2 0x15DB JUMP JUMPDEST POP DUP7 PUSH2 0xF2E JUMP JUMPDEST PUSH1 0x40 MLOAD PUSH3 0x461BCD PUSH1 0xE5 SHL DUP2 MSTORE PUSH1 0x4 DUP2 ADD DUP7 SWAP1 MSTORE PUSH1 0x22 PUSH1 0x24 DUP3 ADD MSTORE PUSH32 0x6D657267653A20496E73756666696369656E742062616C616E636520746F2065 PUSH1 0x44 DUP3 ADD MSTORE PUSH2 0x185D PUSH1 0xF2 SHL PUSH1 0x64 DUP3 ADD MSTORE PUSH1 0x84 SWAP1 REVERT JUMPDEST DUP1 SWAP3 POP DUP8 DUP1 SWAP3 POP RETURNDATASIZE DUP4 GT PUSH2 0x104E JUMPI JUMPDEST PUSH2 0x103D DUP2 DUP4 PUSH2 0x15DB JUMP JUMPDEST DUP2 ADD SUB SLT PUSH2 0x291 JUMPI DUP5 SWAP1 MLOAD DUP8 PUSH2 0xEE4 JUMP JUMPDEST POP RETURNDATASIZE PUSH2 0x1033 JUMP JUMPDEST CALLVALUE PUSH2 0x291 JUMPI PUSH1 0x0 CALLDATASIZE PUSH1 0x3 NOT ADD SLT PUSH2 0x291 JUMPI PUSH1 0x2 SLOAD PUSH1 0x40 MLOAD PUSH1 0x1 PUSH1 0x1 PUSH1 0xA0 SHL SUB SWAP1 SWAP2 AND DUP2 MSTORE PUSH1 0x20 SWAP1 RETURN JUMPDEST CALLVALUE PUSH2 0x291 JUMPI PUSH1 0x0 CALLDATASIZE PUSH1 0x3 NOT ADD SLT PUSH2 0x291 JUMPI PUSH1 0x20 PUSH1 0xB SLOAD PUSH1 0x40 MLOAD SWAP1 DUP2 MSTORE RETURN JUMPDEST CALLVALUE PUSH2 0x291 JUMPI PUSH1 0x0 CALLDATASIZE PUSH1 0x3 NOT ADD SLT PUSH2 0x291 JUMPI PUSH1 0x20 PUSH1 0x5 SLOAD PUSH1 0x40 MLOAD SWAP1 DUP2 MSTORE RETURN JUMPDEST CALLVALUE PUSH2 0x291 JUMPI PUSH1 0x0 CALLDATASIZE PUSH1 0x3 NOT ADD SLT PUSH2 0x291 JUMPI PUSH1 0x20 PUSH4 0xFFFFFFFF PUSH1 0x8 SLOAD AND PUSH1 0x40 MLOAD SWAP1 DUP2 MSTORE RETURN JUMPDEST CALLVALUE PUSH2 0x291 JUMPI PUSH1 0x0 CALLDATASIZE PUSH1 0x3 NOT ADD SLT PUSH2 0x291 JUMPI PUSH1 0x2 SLOAD PUSH1 0x40 MLOAD PUSH4 0x6FDDE03 PUSH1 0xE0 SHL DUP2 MSTORE SWAP1 PUSH1 0x0 SWAP1 DUP3 SWAP1 PUSH1 0x4 SWAP1 DUP3 SWAP1 PUSH1 0x1 PUSH1 0x1 PUSH1 0xA0 SHL SUB AND GAS STATICCALL SWAP1 DUP2 ISZERO PUSH2 0x3D3 JUMPI PUSH1 0x0 SWAP2 PUSH2 0x1190 JUMPI JUMPDEST PUSH2 0x1182 PUSH1 0x40 DUP4 DUP2 MLOAD SWAP1 PUSH2 0x1167 PUSH1 0x26 DUP4 PUSH1 0x20 DUP2 ADD SWAP4 PUSH6 0x2BB2ABB29D1 PUSH1 0xD5 SHL DUP6 MSTORE PUSH2 0x1157 DUP2 MLOAD DUP1 SWAP3 PUSH1 0x20 DUP7 DUP7 ADD SWAP2 ADD PUSH2 0x1547 JUMP JUMPDEST DUP2 ADD SUB PUSH1 0x6 DUP2 ADD DUP6 MSTORE ADD DUP4 PUSH2 0x15DB JUMP JUMPDEST DUP3 MLOAD SWAP4 DUP5 SWAP3 PUSH1 0x20 DUP5 MSTORE MLOAD DUP1 SWAP3 DUP2 PUSH1 0x20 DUP7 ADD MSTORE DUP6 DUP6 ADD SWAP1 PUSH2 0x1547 JUMP JUMPDEST PUSH1 0x1F ADD PUSH1 0x1F NOT AND DUP2 ADD SUB ADD SWAP1 RETURN JUMPDEST SWAP1 POP RETURNDATASIZE DUP1 PUSH1 0x0 DUP4 RETURNDATACOPY PUSH2 0x11A2 DUP2 DUP4 PUSH2 0x15DB JUMP JUMPDEST DUP2 ADD SWAP1 PUSH1 0x20 DUP2 DUP4 SUB SLT PUSH2 0x291 JUMPI DUP1 MLOAD PUSH8 0xFFFFFFFFFFFFFFFF SWAP2 DUP3 DUP3 GT PUSH2 0x291 JUMPI ADD SWAP2 DUP1 PUSH1 0x1F DUP5 ADD SLT ISZERO PUSH2 0x291 JUMPI DUP3 MLOAD SWAP2 DUP3 GT PUSH2 0x121B JUMPI PUSH1 0x40 MLOAD SWAP1 PUSH2 0x11F0 PUSH1 0x1F DUP5 ADD PUSH1 0x1F NOT AND PUSH1 0x20 ADD DUP4 PUSH2 0x15DB JUMP JUMPDEST DUP3 DUP3 MSTORE PUSH1 0x20 DUP4 DUP6 ADD ADD GT PUSH2 0x291 JUMPI PUSH2 0x1214 PUSH1 0x40 SWAP3 PUSH2 0x1182 SWAP5 PUSH1 0x20 DUP1 DUP6 ADD SWAP2 ADD PUSH2 0x1547 JUMP JUMPDEST SWAP2 POP PUSH2 0x1124 JUMP JUMPDEST PUSH4 0x4E487B71 PUSH1 0xE0 SHL PUSH1 0x0 MSTORE PUSH1 0x41 PUSH1 0x4 MSTORE PUSH1 0x24 PUSH1 0x0 REVERT JUMPDEST CALLVALUE PUSH2 0x291 JUMPI PUSH1 0x60 CALLDATASIZE PUSH1 0x3 NOT ADD SLT PUSH2 0x291 JUMPI PUSH8 0xFFFFFFFFFFFFFFFF DUP1 PUSH1 0x44 CALLDATALOAD GT PUSH2 0x291 JUMPI CALLDATASIZE PUSH1 0x23 PUSH1 0x44 CALLDATALOAD ADD SLT ISZERO PUSH2 0x291 JUMPI DUP1 PUSH1 0x44 CALLDATALOAD PUSH1 0x4 ADD CALLDATALOAD GT PUSH2 0x291 JUMPI CALLDATASIZE PUSH1 0x24 PUSH1 0x44 CALLDATALOAD PUSH1 0x4 ADD CALLDATALOAD PUSH1 0x5 SHL PUSH1 0x44 CALLDATALOAD ADD ADD GT PUSH2 0x291 JUMPI PUSH2 0x128D PUSH2 0x1A9F JUMP JUMPDEST PUSH2 0x1295 PUSH2 0x176C JUMP JUMPDEST PUSH1 0x24 CALLDATALOAD PUSH1 0xA SLOAD SWAP2 DUP3 ISZERO PUSH2 0x14F7 JUMPI PUSH1 0x40 DUP1 MLOAD CALLER PUSH1 0x20 DUP3 ADD SWAP1 DUP2 MSTORE PUSH1 0x4 CALLDATALOAD DUP3 DUP5 ADD MSTORE SWAP2 DUP2 MSTORE PUSH2 0x12C3 PUSH1 0x60 DUP3 PUSH2 0x15DB JUMP JUMPDEST MLOAD SWAP1 KECCAK256 SWAP1 PUSH1 0x40 MLOAD SWAP2 PUSH1 0x20 DUP4 ADD MSTORE PUSH1 0x20 DUP3 MSTORE DUP2 PUSH1 0x40 DUP2 ADD LT SWAP1 PUSH1 0x40 DUP4 ADD GT OR PUSH2 0x121B JUMPI PUSH1 0x40 DUP2 ADD PUSH1 0x40 MSTORE DUP1 MLOAD PUSH1 0x20 DUP3 ADD KECCAK256 PUSH2 0x130C PUSH1 0x20 PUSH1 0x44 CALLDATALOAD PUSH1 0x4 ADD CALLDATALOAD PUSH1 0x5 SHL ADD PUSH1 0x40 DUP5 ADD PUSH2 0x15DB JUMP JUMPDEST PUSH1 0x44 CALLDATALOAD PUSH1 0x4 DUP2 ADD CALLDATALOAD PUSH1 0x40 DUP5 ADD MSTORE PUSH1 0x24 ADD PUSH1 0x60 DUP4 ADD JUMPDEST PUSH1 0x24 PUSH1 0x44 CALLDATALOAD PUSH1 0x4 ADD CALLDATALOAD PUSH1 0x5 SHL PUSH1 0x44 CALLDATALOAD ADD ADD DUP3 LT PUSH2 0x14E7 JUMPI POP POP SWAP2 PUSH1 0x0 SWAP3 JUMPDEST PUSH1 0x40 DUP4 ADD MLOAD DUP5 LT ISZERO PUSH2 0x1390 JUMPI PUSH1 0x60 DUP5 PUSH1 0x5 SHL DUP5 ADD ADD MLOAD SWAP1 DUP2 DUP2 LT PUSH1 0x0 EQ PUSH2 0x137F JUMPI PUSH1 0x0 MSTORE PUSH1 0x20 MSTORE PUSH1 0x40 PUSH1 0x0 KECCAK256 JUMPDEST SWAP3 PUSH1 0x0 NOT DUP2 EQ PUSH2 0x31D JUMPI PUSH1 0x1 ADD SWAP3 PUSH2 0x133F JUMP JUMPDEST SWAP1 PUSH1 0x0 MSTORE PUSH1 0x20 MSTORE PUSH1 0x40 PUSH1 0x0 KECCAK256 PUSH2 0x136C JUMP JUMPDEST DUP5 SUB PUSH2 0x14A2 JUMPI CALLER PUSH1 0x0 MSTORE PUSH1 0x9 PUSH1 0x20 MSTORE PUSH2 0x13B3 PUSH1 0x2 PUSH1 0x40 PUSH1 0x0 KECCAK256 ADD SLOAD PUSH1 0x4 CALLDATALOAD PUSH2 0x1630 JUMP JUMPDEST DUP2 GT PUSH2 0x147F JUMPI JUMPDEST DUP1 ISZERO PUSH2 0x143A JUMPI DUP1 PUSH1 0x4 CALLDATALOAD LT PUSH2 0x13E5 JUMPI PUSH2 0x13D8 PUSH1 0x20 SWAP2 ADDRESS SWAP1 CALLER SWAP1 PUSH2 0x1AF5 JUMP JUMPDEST PUSH1 0x1 PUSH1 0x0 SSTORE PUSH1 0x40 MLOAD SWAP1 DUP2 MSTORE RETURN JUMPDEST PUSH1 0x40 MLOAD PUSH3 0x461BCD PUSH1 0xE5 SHL DUP2 MSTORE PUSH1 0x20 PUSH1 0x4 DUP3 ADD MSTORE PUSH1 0x27 PUSH1 0x24 DUP3 ADD MSTORE PUSH32 0x6D657267655769746850726F6F663A20496E73756666696369656E7420616C6C PUSH1 0x44 DUP3 ADD MSTORE PUSH7 0x37B1B0BA34B7B7 PUSH1 0xC9 SHL PUSH1 0x64 DUP3 ADD MSTORE PUSH1 0x84 SWAP1 REVERT JUMPDEST PUSH1 0x40 MLOAD PUSH3 0x461BCD PUSH1 0xE5 SHL DUP2 MSTORE PUSH1 0x20 PUSH1 0x4 DUP3 ADD MSTORE PUSH1 0x1E PUSH1 0x24 DUP3 ADD MSTORE PUSH32 0x6D657267655769746850726F6F663A20416C7265616479206D65726765640000 PUSH1 0x44 DUP3 ADD MSTORE PUSH1 0x64 SWAP1 REVERT JUMPDEST POP CALLER PUSH1 0x0 MSTORE PUSH1 0x9 PUSH1 0x20 MSTORE PUSH2 0x149D PUSH1 0x2 PUSH1 0x40 PUSH1 0x0 KECCAK256 ADD SLOAD PUSH1 0x4 CALLDATALOAD PUSH2 0x1630 JUMP JUMPDEST PUSH2 0x13BA JUMP JUMPDEST PUSH1 0x40 MLOAD PUSH3 0x461BCD PUSH1 0xE5 SHL DUP2 MSTORE PUSH1 0x20 PUSH1 0x4 DUP3 ADD MSTORE PUSH1 0x1D PUSH1 0x24 DUP3 ADD MSTORE PUSH32 0x6D657267655769746850726F6F663A20496E76616C69642070726F6F66000000 PUSH1 0x44 DUP3 ADD MSTORE PUSH1 0x64 SWAP1 REVERT JUMPDEST DUP2 CALLDATALOAD DUP2 MSTORE PUSH1 0x20 SWAP2 DUP3 ADD SWAP2 ADD PUSH2 0x1321 JUMP JUMPDEST PUSH1 0x40 MLOAD PUSH3 0x461BCD PUSH1 0xE5 SHL DUP2 MSTORE PUSH1 0x20 PUSH1 0x4 DUP3 ADD MSTORE PUSH1 0x22 PUSH1 0x24 DUP3 ADD MSTORE PUSH32 0x6D657267655769746850726F6F663A205768697465206C697374206E6F742073 PUSH1 0x44 DUP3 ADD MSTORE PUSH2 0x195D PUSH1 0xF2 SHL PUSH1 0x64 DUP3 ADD MSTORE PUSH1 0x84 SWAP1 REVERT JUMPDEST PUSH1 0x0 JUMPDEST DUP4 DUP2 LT PUSH2 0x155A JUMPI POP POP PUSH1 0x0 SWAP2 ADD MSTORE JUMP JUMPDEST DUP2 DUP2 ADD MLOAD DUP4 DUP3 ADD MSTORE PUSH1 0x20 ADD PUSH2 0x154A JUMP JUMPDEST PUSH1 0x4 CALLDATALOAD SWAP1 PUSH1 0x1 PUSH1 0x1 PUSH1 0xA0 SHL SUB DUP3 AND DUP3 SUB PUSH2 0x291 JUMPI JUMP JUMPDEST PUSH1 0x1 SLOAD PUSH1 0x8 SHR PUSH1 0x1 PUSH1 0x1 PUSH1 0xA0 SHL SUB AND CALLER SUB PUSH2 0x1597 JUMPI JUMP JUMPDEST PUSH1 0x64 PUSH1 0x40 MLOAD PUSH3 0x461BCD PUSH1 0xE5 SHL DUP2 MSTORE PUSH1 0x20 PUSH1 0x4 DUP3 ADD MSTORE PUSH1 0x20 PUSH1 0x24 DUP3 ADD MSTORE PUSH32 0x4F776E61626C653A2063616C6C6572206973206E6F7420746865206F776E6572 PUSH1 0x44 DUP3 ADD MSTORE REVERT JUMPDEST SWAP1 PUSH1 0x1F DUP1 NOT SWAP2 ADD AND DUP2 ADD SWAP1 DUP2 LT PUSH8 0xFFFFFFFFFFFFFFFF DUP3 GT OR PUSH2 0x121B JUMPI PUSH1 0x40 MSTORE JUMP JUMPDEST DUP2 DUP2 MUL SWAP3 SWAP2 DUP2 ISZERO SWAP2 DUP5 DIV EQ OR ISZERO PUSH2 0x31D JUMPI JUMP JUMPDEST DUP2 ISZERO PUSH2 0x161A JUMPI DIV SWAP1 JUMP JUMPDEST PUSH4 0x4E487B71 PUSH1 0xE0 SHL PUSH1 0x0 MSTORE PUSH1 0x12 PUSH1 0x4 MSTORE PUSH1 0x24 PUSH1 0x0 REVERT JUMPDEST SWAP2 SWAP1 DUP3 SUB SWAP2 DUP3 GT PUSH2 0x31D JUMPI JUMP JUMPDEST PUSH1 0xC SLOAD PUSH1 0x5 SLOAD DUP1 DUP3 LT PUSH2 0x1656 JUMPI PUSH2 0x1653 SWAP2 PUSH2 0x1630 JUMP JUMPDEST SWAP1 JUMP JUMPDEST PUSH1 0x40 MLOAD PUSH3 0x461BCD PUSH1 0xE5 SHL DUP2 MSTORE PUSH1 0x20 PUSH1 0x4 DUP3 ADD MSTORE PUSH1 0x33 PUSH1 0x24 DUP3 ADD MSTORE PUSH32 0x5F6765745765776542616C616E63653A207669727475616C57455745206C6573 PUSH1 0x44 DUP3 ADD MSTORE PUSH19 0x1CC81D1A185B881D1BDD185B081D995CDD1959 PUSH1 0x6A SHL PUSH1 0x64 DUP3 ADD MSTORE PUSH1 0x84 SWAP1 REVERT JUMPDEST SWAP1 DUP2 PUSH1 0x20 SWAP2 SUB SLT PUSH2 0x291 JUMPI MLOAD PUSH1 0xFF DUP2 AND DUP2 SUB PUSH2 0x291 JUMPI SWAP1 JUMP JUMPDEST PUSH1 0x4D DUP2 GT PUSH2 0x31D JUMPI PUSH1 0xA EXP SWAP1 JUMP JUMPDEST SWAP1 DUP2 PUSH1 0x20 SWAP2 SUB SLT PUSH2 0x291 JUMPI MLOAD DUP1 ISZERO ISZERO DUP2 SUB PUSH2 0x291 JUMPI SWAP1 JUMP JUMPDEST SWAP2 SWAP1 DUP3 ADD DUP1 SWAP3 GT PUSH2 0x31D JUMPI JUMP JUMPDEST ISZERO PUSH2 0x170A JUMPI JUMP JUMPDEST PUSH1 0x40 MLOAD PUSH3 0x461BCD PUSH1 0xE5 SHL DUP2 MSTORE PUSH1 0x20 PUSH1 0x4 DUP3 ADD MSTORE PUSH1 0x18 PUSH1 0x24 DUP3 ADD MSTORE PUSH24 0x1B595C99D94E8815DA1A5D19481B1A5CDD081A5CC81CD95D PUSH1 0x42 SHL PUSH1 0x44 DUP3 ADD MSTORE PUSH1 0x64 SWAP1 REVERT JUMPDEST PUSH1 0x1 PUSH1 0x1 PUSH1 0xA0 SHL SUB SWAP2 DUP3 AND DUP2 MSTORE SWAP2 AND PUSH1 0x20 DUP3 ADD MSTORE PUSH1 0x40 DUP2 ADD SWAP2 SWAP1 SWAP2 MSTORE PUSH1 0x60 ADD SWAP1 JUMP JUMPDEST PUSH1 0xFF PUSH1 0x1 SLOAD AND PUSH2 0x1778 JUMPI JUMP JUMPDEST PUSH1 0x40 MLOAD PUSH3 0x461BCD PUSH1 0xE5 SHL DUP2 MSTORE PUSH1 0x20 PUSH1 0x4 DUP3 ADD MSTORE PUSH1 0x10 PUSH1 0x24 DUP3 ADD MSTORE PUSH16 0x14185D5CD8589B194E881C185D5CD959 PUSH1 0x82 SHL PUSH1 0x44 DUP3 ADD MSTORE PUSH1 0x64 SWAP1 REVERT JUMPDEST PUSH1 0x7 SLOAD PUSH2 0x17BF PUSH1 0x6 SLOAD DUP4 PUSH2 0x16F6 JUMP JUMPDEST DUP2 LT SWAP1 DUP2 ISZERO SWAP2 PUSH2 0x1A96 JUMPI JUMPDEST POP ISZERO PUSH2 0x1A51 JUMPI PUSH2 0x17F0 PUSH2 0x17DF DUP3 PUSH1 0xB SLOAD PUSH2 0x16F6 JUMP JUMPDEST PUSH2 0xA73 PUSH2 0x17EA PUSH2 0x163D JUMP JUMPDEST DUP5 PUSH2 0x15FD JUMP JUMPDEST PUSH1 0x3 SLOAD PUSH1 0x40 DUP1 MLOAD PUSH4 0x70A08231 PUSH1 0xE0 SHL DUP2 MSTORE ADDRESS PUSH1 0x4 DUP3 ADD MSTORE SWAP3 SWAP5 PUSH1 0x20 SWAP4 SWAP2 SWAP3 PUSH1 0x1 PUSH1 0x1 PUSH1 0xA0 SHL SUB SWAP3 SWAP1 DUP4 AND SWAP1 DUP6 DUP2 PUSH1 0x24 DUP2 DUP6 GAS STATICCALL SWAP1 DUP2 ISZERO PUSH2 0x19BB JUMPI PUSH1 0x0 SWAP2 PUSH2 0x1A21 JUMPI JUMPDEST POP DUP8 GT PUSH2 0x19C6 JUMPI PUSH1 0x8 SLOAD PUSH4 0xFFFFFFFF SWAP2 SWAP1 DUP3 AND ISZERO PUSH2 0x192C JUMPI POP DUP3 DUP3 AND SWAP5 DUP6 PUSH1 0x0 MSTORE PUSH1 0x9 DUP2 MSTORE DUP5 PUSH1 0x0 KECCAK256 PUSH2 0x186C PUSH1 0x2 DUP3 SLOAD SWAP3 ADD SLOAD SWAP2 DUP11 PUSH2 0x16F6 JUMP JUMPDEST SWAP3 PUSH1 0x3C DUP2 PUSH1 0x8 SLOAD AND MUL SWAP1 DUP2 AND SWAP1 DUP2 SUB PUSH2 0x31D JUMPI DUP9 PUSH2 0x188D PUSH2 0x1893 SWAP3 TIMESTAMP PUSH2 0x16F6 JUMP JUMPDEST SWAP3 PUSH2 0x16F6 JUMP JUMPDEST SWAP1 DUP7 MLOAD SWAP2 PUSH1 0x60 DUP4 ADD SWAP2 DUP4 DUP4 LT PUSH8 0xFFFFFFFFFFFFFFFF DUP5 GT OR PUSH2 0x121B JUMPI PUSH32 0xABE5455971BDCD932E7251D16CD53F88CD4410BF4DF21530E88BF13DADE6A7D4 SWAP10 DUP13 SWAP7 PUSH1 0x2 SWAP5 DUP12 MSTORE DUP6 MSTORE DUP6 DUP6 ADD SWAP2 DUP3 MSTORE DUP10 DUP6 ADD SWAP3 DUP4 MSTORE PUSH1 0x0 MSTORE PUSH1 0x9 DUP6 MSTORE DUP9 PUSH1 0x0 KECCAK256 SWAP4 MLOAD DUP5 SSTORE MLOAD PUSH1 0x1 DUP5 ADD SSTORE MLOAD SWAP2 ADD SSTORE PUSH2 0x190B DUP3 PUSH1 0x5 SLOAD PUSH2 0x16F6 JUMP JUMPDEST PUSH1 0x5 SSTORE JUMPDEST PUSH2 0x191B DUP8 PUSH1 0x6 SLOAD PUSH2 0x16F6 JUMP JUMPDEST PUSH1 0x6 SSTORE DUP5 MLOAD SWAP7 DUP8 MSTORE DUP7 ADD MSTORE AND SWAP3 LOG2 SWAP1 JUMP JUMPDEST DUP5 MLOAD PUSH4 0xA9059CBB PUSH1 0xE0 SHL DUP2 MSTORE PUSH1 0x1 PUSH1 0x1 PUSH1 0xA0 SHL SUB DUP5 AND PUSH1 0x4 DUP3 ADD MSTORE PUSH1 0x24 DUP2 ADD DUP10 SWAP1 MSTORE SWAP5 SWAP6 SWAP4 SWAP5 SWAP3 SWAP4 SWAP3 SWAP2 POP DUP3 SWAP1 DUP3 SWAP1 PUSH1 0x44 SWAP1 DUP3 SWAP1 PUSH1 0x0 SWAP1 GAS CALL DUP1 ISZERO PUSH2 0x19BB JUMPI SWAP2 DUP8 SWAP2 PUSH32 0xABE5455971BDCD932E7251D16CD53F88CD4410BF4DF21530E88BF13DADE6A7D4 SWAP7 SWAP6 SWAP5 SWAP4 PUSH2 0x199E JUMPI JUMPDEST POP PUSH2 0x190F JUMP JUMPDEST PUSH2 0x19B4 SWAP1 DUP3 RETURNDATASIZE DUP5 GT PUSH2 0x758 JUMPI PUSH2 0x74E DUP2 DUP4 PUSH2 0x15DB JUMP JUMPDEST POP CODESIZE PUSH2 0x1998 JUMP JUMPDEST DUP6 MLOAD RETURNDATASIZE PUSH1 0x0 DUP3 RETURNDATACOPY RETURNDATASIZE SWAP1 REVERT JUMPDEST DUP4 MLOAD PUSH3 0x461BCD PUSH1 0xE5 SHL DUP2 MSTORE PUSH1 0x4 DUP2 ADD DUP7 SWAP1 MSTORE PUSH1 0x2E PUSH1 0x24 DUP3 ADD MSTORE PUSH32 0x5F6D657267653A20496E73756666696369656E7420746F6B656E2062616C616E PUSH1 0x44 DUP3 ADD MSTORE PUSH14 0x31B2903A37903A3930B739B332B9 PUSH1 0x91 SHL PUSH1 0x64 DUP3 ADD MSTORE PUSH1 0x84 SWAP1 REVERT JUMPDEST SWAP1 DUP7 DUP3 DUP2 RETURNDATASIZE DUP4 GT PUSH2 0x1A4A JUMPI JUMPDEST PUSH2 0x1A37 DUP2 DUP4 PUSH2 0x15DB JUMP JUMPDEST DUP2 ADD SUB SLT PUSH2 0x1A47 JUMPI POP MLOAD CODESIZE PUSH2 0x1832 JUMP JUMPDEST DUP1 REVERT JUMPDEST POP RETURNDATASIZE PUSH2 0x1A2D JUMP JUMPDEST PUSH1 0x40 MLOAD PUSH3 0x461BCD PUSH1 0xE5 SHL DUP2 MSTORE PUSH1 0x20 PUSH1 0x4 DUP3 ADD MSTORE PUSH1 0x1C PUSH1 0x24 DUP3 ADD MSTORE PUSH32 0x5F6D657267653A204D6F7265207468616E206D617820737570706C7900000000 PUSH1 0x44 DUP3 ADD MSTORE PUSH1 0x64 SWAP1 REVERT JUMPDEST SWAP1 POP ISZERO CODESIZE PUSH2 0x17CA JUMP JUMPDEST PUSH1 0x2 PUSH1 0x0 SLOAD EQ PUSH2 0x1AB0 JUMPI PUSH1 0x2 PUSH1 0x0 SSTORE JUMP JUMPDEST PUSH1 0x40 MLOAD PUSH3 0x461BCD PUSH1 0xE5 SHL DUP2 MSTORE PUSH1 0x20 PUSH1 0x4 DUP3 ADD MSTORE PUSH1 0x1F PUSH1 0x24 DUP3 ADD MSTORE PUSH32 0x5265656E7472616E637947756172643A207265656E7472616E742063616C6C00 PUSH1 0x44 DUP3 ADD MSTORE PUSH1 0x64 SWAP1 REVERT JUMPDEST SWAP1 SWAP2 DUP2 PUSH1 0x1 DUP1 PUSH1 0xA0 SHL SUB DUP1 PUSH1 0x2 SLOAD AND SWAP3 PUSH1 0x40 MLOAD SWAP1 PUSH4 0x23B872DD PUSH1 0xE0 SHL DUP3 MSTORE DUP2 DUP1 PUSH2 0x1B27 PUSH1 0x20 SWAP7 DUP8 SWAP5 DUP12 PUSH1 0x4 DUP6 ADD PUSH2 0x174A JUMP JUMPDEST SUB DUP2 PUSH1 0x0 DUP1 SWAP9 GAS CALL DUP1 ISZERO PUSH2 0x1C0C JUMPI SWAP2 DUP4 SWAP2 PUSH1 0x4 SWAP4 PUSH2 0x1BEF JUMPI JUMPDEST POP PUSH2 0x1B4A DUP7 PUSH2 0x1C86 JUMP JUMPDEST POP PUSH1 0x2 SLOAD AND PUSH1 0x40 MLOAD SWAP3 DUP4 DUP1 SWAP3 PUSH4 0x313CE567 PUSH1 0xE0 SHL DUP3 MSTORE GAS STATICCALL SWAP2 DUP3 ISZERO PUSH2 0x1BE4 JUMPI SWAP1 PUSH1 0xFF SWAP3 SWAP2 DUP5 SWAP3 PUSH2 0x1BC7 JUMPI JUMPDEST POP POP AND PUSH1 0x12 DUP2 LT PUSH2 0x1B8D JUMPI JUMPDEST POP POP SWAP1 PUSH2 0x1653 SWAP2 PUSH2 0x17B0 JUMP JUMPDEST PUSH1 0x12 SUB SWAP1 PUSH1 0x12 DUP3 GT PUSH2 0x1BB3 JUMPI POP PUSH2 0x1653 SWAP3 SWAP2 PUSH2 0xA6D PUSH2 0x1BAB SWAP3 PUSH2 0x16D0 JUMP JUMPDEST SWAP1 SWAP2 CODESIZE PUSH2 0x1B81 JUMP JUMPDEST PUSH4 0x4E487B71 PUSH1 0xE0 SHL DUP2 MSTORE PUSH1 0x11 PUSH1 0x4 MSTORE PUSH1 0x24 SWAP1 REVERT JUMPDEST PUSH2 0x1BDD SWAP3 POP DUP1 RETURNDATASIZE LT PUSH2 0xA9E JUMPI PUSH2 0xA90 DUP2 DUP4 PUSH2 0x15DB JUMP JUMPDEST CODESIZE DUP1 PUSH2 0x1B75 JUMP JUMPDEST PUSH1 0x40 MLOAD RETURNDATASIZE DUP6 DUP3 RETURNDATACOPY RETURNDATASIZE SWAP1 REVERT JUMPDEST PUSH2 0x1C05 SWAP1 DUP4 RETURNDATASIZE DUP6 GT PUSH2 0x758 JUMPI PUSH2 0x74E DUP2 DUP4 PUSH2 0x15DB JUMP JUMPDEST POP CODESIZE PUSH2 0x1B40 JUMP JUMPDEST PUSH1 0x40 MLOAD RETURNDATASIZE DUP7 DUP3 RETURNDATACOPY RETURNDATASIZE SWAP1 REVERT JUMPDEST CALLER PUSH1 0x0 DUP2 DUP2 MSTORE PUSH1 0x9 PUSH1 0x20 SWAP1 DUP2 MSTORE PUSH1 0x40 DUP1 DUP4 KECCAK256 DUP1 SLOAD SWAP1 DUP5 SWAP1 SSTORE PUSH1 0x3 SLOAD SWAP2 MLOAD PUSH4 0xA9059CBB PUSH1 0xE0 SHL DUP2 MSTORE PUSH1 0x4 DUP2 ADD SWAP6 SWAP1 SWAP6 MSTORE PUSH1 0x24 DUP6 ADD MSTORE SWAP1 SWAP2 DUP4 SWAP2 PUSH1 0x44 SWAP2 DUP4 SWAP2 PUSH1 0x1 PUSH1 0x1 PUSH1 0xA0 SHL SUB AND GAS CALL DUP1 ISZERO PUSH2 0x3D3 JUMPI PUSH2 0x1C6C JUMPI POP JUMP JUMPDEST PUSH2 0x1C83 SWAP1 PUSH1 0x20 RETURNDATASIZE DUP2 GT PUSH2 0x758 JUMPI PUSH2 0x74E DUP2 DUP4 PUSH2 0x15DB JUMP JUMPDEST POP JUMP JUMPDEST PUSH1 0xD SLOAD PUSH1 0x1 PUSH1 0x1 PUSH1 0xA0 SHL SUB SWAP1 DUP2 AND SWAP2 SWAP1 DUP3 ISZERO PUSH2 0x1D39 JUMPI DUP1 PUSH1 0x4 SLOAD AND SWAP1 DUP2 ISZERO PUSH2 0x1D30 JUMPI PUSH1 0x2 SLOAD AND PUSH1 0x40 MLOAD SWAP3 PUSH4 0x2454B71 PUSH1 0xE4 SHL DUP5 MSTORE PUSH1 0x4 DUP5 ADD MSTORE PUSH1 0x24 DUP4 ADD MSTORE PUSH1 0x44 DUP3 ADD MSTORE PUSH1 0x80 PUSH1 0x64 DUP3 ADD MSTORE PUSH1 0x20 DUP2 PUSH1 0xA4 DUP2 PUSH1 0x0 DUP1 SWAP7 DUP2 PUSH1 0x84 DUP5 ADD MSTORE GAS CALL SWAP2 DUP3 ISZERO PUSH2 0x1D24 JUMPI DUP1 SWAP3 PUSH2 0x1CF4 JUMPI POP POP SWAP1 JUMP JUMPDEST SWAP1 SWAP2 POP PUSH1 0x20 DUP3 RETURNDATASIZE DUP3 GT PUSH2 0x1D1C JUMPI JUMPDEST DUP2 PUSH2 0x1D0F PUSH1 0x20 SWAP4 DUP4 PUSH2 0x15DB JUMP JUMPDEST DUP2 ADD SUB SLT PUSH2 0x1A47 JUMPI POP MLOAD SWAP1 JUMP JUMPDEST RETURNDATASIZE SWAP2 POP PUSH2 0x1D02 JUMP JUMPDEST PUSH1 0x40 MLOAD SWAP1 RETURNDATASIZE SWAP1 DUP3 RETURNDATACOPY RETURNDATASIZE SWAP1 REVERT JUMPDEST POP POP POP POP PUSH1 0x0 SWAP1 JUMP JUMPDEST POP POP POP PUSH1 0x0 SWAP1 JUMP INVALID LOG2 PUSH5 0x6970667358 0x22 SLT KECCAK256 DUP8 DUP8 0xE PUSH6 0xAAF01764A995 DUP4 0xF9 0x23 SGT 0x4E 0xAD ORIGIN PUSH21 0x2FCC280FB17C2BF8A67CD3BA312B64736F6C634300 ADDMOD SGT STOP CALLER "
        },
        "methodIdentifiers": {
          "adaptor()": "c2cd9b2b",
          "balanceOf(address)": "70a08231",
          "calculateTokensOut(uint256)": "4fa1f104",
          "canClaim(address)": "bf3506c1",
          "claim()": "4e71d92d",
          "deposit(uint256)": "b6b55f25",
          "dump()": "e4330545",
          "getCurrentPrice()": "eb91d37e",
          "getRate()": "679aefce",
          "getToken()": "21df0da7",
          "maxSupply()": "d5abeb01",
          "merge(uint256)": "24a47aeb",
          "mergeAll()": "ea9f2417",
          "mergeWithProof(uint256,uint256,bytes32[])": "001688b1",
          "merkleRoot()": "2eb4a7ab",
          "name()": "06fdde03",
          "owner()": "8da5cb5b",
          "paused()": "5c975abb",
          "receiveApproval(address,uint256,address,bytes)": "8f4ffcb1",
          "renounceOwnership()": "715018a6",
          "setAdaptor(address)": "3586d514",
          "setMaxSupply(uint256)": "6f8b44b0",
          "setMerkleRoot(bytes32)": "7cb64759",
          "setTreasury(address)": "f0f44260",
          "setVestingDuration(uint32)": "9636d881",
          "setVirtualTokenBalance(uint256)": "655a9ac2",
          "setVirtualWeWEBalance(uint256)": "dece1baa",
          "sweep()": "35faa416",
          "togglePause()": "c4ae3168",
          "totalMerged()": "301fc2ff",
          "totalVested()": "199cbc54",
          "transferOwnership(address)": "f2fde38b",
          "treasury()": "61d027b3",
          "vestingDuration()": "1514617e",
          "vestings(address)": "daf49863",
          "virtualToken()": "1f514c52",
          "virtualWEWE()": "9ed4527e",
          "wewe()": "e1f26f22"
        }
      }
    }
  }
}