{
  "contracts/core/merge/DynamicEater.sol": {
    "DynamicEater": {
      "abi": [
        {
          "inputs": [
            {
              "internalType": "address",
              "name": "_wewe",
              "type": "address"
            },
            {
              "internalType": "address",
              "name": "_token",
              "type": "address"
            },
            {
              "internalType": "uint32",
              "name": "_vestingDuration",
              "type": "uint32"
            },
            {
              "internalType": "uint256",
              "name": "_virtualToken",
              "type": "uint256"
            },
            {
              "internalType": "uint256",
              "name": "_virtualWEWE",
              "type": "uint256"
            }
          ],
          "stateMutability": "nonpayable",
          "type": "constructor"
        },
        {
          "anonymous": false,
          "inputs": [
            {
              "indexed": false,
              "internalType": "uint256",
              "name": "amount",
              "type": "uint256"
            }
          ],
          "name": "Dumped",
          "type": "event"
        },
        {
          "anonymous": false,
          "inputs": [
            {
              "indexed": false,
              "internalType": "uint256",
              "name": "amount",
              "type": "uint256"
            },
            {
              "indexed": true,
              "internalType": "address",
              "name": "account",
              "type": "address"
            },
            {
              "indexed": false,
              "internalType": "uint256",
              "name": "weweAmount",
              "type": "uint256"
            }
          ],
          "name": "Merged",
          "type": "event"
        },
        {
          "anonymous": false,
          "inputs": [
            {
              "indexed": true,
              "internalType": "address",
              "name": "previousOwner",
              "type": "address"
            },
            {
              "indexed": true,
              "internalType": "address",
              "name": "newOwner",
              "type": "address"
            }
          ],
          "name": "OwnershipTransferred",
          "type": "event"
        },
        {
          "anonymous": false,
          "inputs": [
            {
              "indexed": false,
              "internalType": "address",
              "name": "account",
              "type": "address"
            }
          ],
          "name": "Paused",
          "type": "event"
        },
        {
          "anonymous": false,
          "inputs": [
            {
              "indexed": false,
              "internalType": "uint256",
              "name": "newRate",
              "type": "uint256"
            }
          ],
          "name": "RateChanged",
          "type": "event"
        },
        {
          "anonymous": false,
          "inputs": [
            {
              "indexed": false,
              "internalType": "address",
              "name": "account",
              "type": "address"
            }
          ],
          "name": "Unpaused",
          "type": "event"
        },
        {
          "inputs": [],
          "name": "adaptor",
          "outputs": [
            {
              "internalType": "address",
              "name": "",
              "type": "address"
            }
          ],
          "stateMutability": "view",
          "type": "function"
        },
        {
          "inputs": [
            {
              "internalType": "address",
              "name": "account",
              "type": "address"
            },
            {
              "internalType": "bool",
              "name": "status",
              "type": "bool"
            }
          ],
          "name": "addWhiteList",
          "outputs": [],
          "stateMutability": "nonpayable",
          "type": "function"
        },
        {
          "inputs": [
            {
              "internalType": "address",
              "name": "account",
              "type": "address"
            }
          ],
          "name": "balanceOf",
          "outputs": [
            {
              "internalType": "uint256",
              "name": "",
              "type": "uint256"
            }
          ],
          "stateMutability": "view",
          "type": "function"
        },
        {
          "inputs": [
            {
              "internalType": "uint256",
              "name": "x",
              "type": "uint256"
            }
          ],
          "name": "calculateTokensOut",
          "outputs": [
            {
              "internalType": "uint256",
              "name": "",
              "type": "uint256"
            }
          ],
          "stateMutability": "view",
          "type": "function"
        },
        {
          "inputs": [
            {
              "internalType": "address",
              "name": "account",
              "type": "address"
            }
          ],
          "name": "canClaim",
          "outputs": [
            {
              "internalType": "bool",
              "name": "",
              "type": "bool"
            }
          ],
          "stateMutability": "view",
          "type": "function"
        },
        {
          "inputs": [],
          "name": "claim",
          "outputs": [],
          "stateMutability": "nonpayable",
          "type": "function"
        },
        {
          "inputs": [
            {
              "internalType": "uint256",
              "name": "amount",
              "type": "uint256"
            }
          ],
          "name": "deposit",
          "outputs": [],
          "stateMutability": "nonpayable",
          "type": "function"
        },
        {
          "inputs": [],
          "name": "dump",
          "outputs": [],
          "stateMutability": "nonpayable",
          "type": "function"
        },
        {
          "inputs": [],
          "name": "getCurrentPrice",
          "outputs": [
            {
              "internalType": "uint256",
              "name": "",
              "type": "uint256"
            }
          ],
          "stateMutability": "view",
          "type": "function"
        },
        {
          "inputs": [],
          "name": "getRate",
          "outputs": [
            {
              "internalType": "uint256",
              "name": "",
              "type": "uint256"
            }
          ],
          "stateMutability": "view",
          "type": "function"
        },
        {
          "inputs": [],
          "name": "getToken",
          "outputs": [
            {
              "internalType": "address",
              "name": "",
              "type": "address"
            }
          ],
          "stateMutability": "view",
          "type": "function"
        },
        {
          "inputs": [],
          "name": "maxSupply",
          "outputs": [
            {
              "internalType": "uint256",
              "name": "",
              "type": "uint256"
            }
          ],
          "stateMutability": "view",
          "type": "function"
        },
        {
          "inputs": [
            {
              "internalType": "uint256",
              "name": "amount",
              "type": "uint256"
            }
          ],
          "name": "merge",
          "outputs": [
            {
              "internalType": "uint256",
              "name": "",
              "type": "uint256"
            }
          ],
          "stateMutability": "nonpayable",
          "type": "function"
        },
        {
          "inputs": [],
          "name": "mergeAll",
          "outputs": [
            {
              "internalType": "uint256",
              "name": "",
              "type": "uint256"
            }
          ],
          "stateMutability": "nonpayable",
          "type": "function"
        },
        {
          "inputs": [],
          "name": "name",
          "outputs": [
            {
              "internalType": "string",
              "name": "",
              "type": "string"
            }
          ],
          "stateMutability": "view",
          "type": "function"
        },
        {
          "inputs": [],
          "name": "owner",
          "outputs": [
            {
              "internalType": "address",
              "name": "",
              "type": "address"
            }
          ],
          "stateMutability": "view",
          "type": "function"
        },
        {
          "inputs": [],
          "name": "paused",
          "outputs": [
            {
              "internalType": "bool",
              "name": "",
              "type": "bool"
            }
          ],
          "stateMutability": "view",
          "type": "function"
        },
        {
          "inputs": [
            {
              "internalType": "address",
              "name": "from",
              "type": "address"
            },
            {
              "internalType": "uint256",
              "name": "amount",
              "type": "uint256"
            },
            {
              "internalType": "address",
              "name": "",
              "type": "address"
            },
            {
              "internalType": "bytes",
              "name": "",
              "type": "bytes"
            }
          ],
          "name": "receiveApproval",
          "outputs": [],
          "stateMutability": "nonpayable",
          "type": "function"
        },
        {
          "inputs": [],
          "name": "renounceOwnership",
          "outputs": [],
          "stateMutability": "nonpayable",
          "type": "function"
        },
        {
          "inputs": [
            {
              "internalType": "address",
              "name": "amm",
              "type": "address"
            }
          ],
          "name": "setAdaptor",
          "outputs": [],
          "stateMutability": "nonpayable",
          "type": "function"
        },
        {
          "inputs": [
            {
              "internalType": "address",
              "name": "_treasury",
              "type": "address"
            }
          ],
          "name": "setTreasury",
          "outputs": [],
          "stateMutability": "nonpayable",
          "type": "function"
        },
        {
          "inputs": [
            {
              "internalType": "uint32",
              "name": "duration",
              "type": "uint32"
            }
          ],
          "name": "setVestingDuration",
          "outputs": [],
          "stateMutability": "nonpayable",
          "type": "function"
        },
        {
          "inputs": [
            {
              "internalType": "uint256",
              "name": "value",
              "type": "uint256"
            }
          ],
          "name": "setVirtualTokenBalance",
          "outputs": [],
          "stateMutability": "nonpayable",
          "type": "function"
        },
        {
          "inputs": [
            {
              "internalType": "uint256",
              "name": "value",
              "type": "uint256"
            }
          ],
          "name": "setVirtualWeWEBalance",
          "outputs": [],
          "stateMutability": "nonpayable",
          "type": "function"
        },
        {
          "inputs": [],
          "name": "sweep",
          "outputs": [],
          "stateMutability": "nonpayable",
          "type": "function"
        },
        {
          "inputs": [],
          "name": "togglePause",
          "outputs": [],
          "stateMutability": "nonpayable",
          "type": "function"
        },
        {
          "inputs": [],
          "name": "totalVested",
          "outputs": [
            {
              "internalType": "uint256",
              "name": "",
              "type": "uint256"
            }
          ],
          "stateMutability": "view",
          "type": "function"
        },
        {
          "inputs": [
            {
              "internalType": "address",
              "name": "newOwner",
              "type": "address"
            }
          ],
          "name": "transferOwnership",
          "outputs": [],
          "stateMutability": "nonpayable",
          "type": "function"
        },
        {
          "inputs": [],
          "name": "treasury",
          "outputs": [
            {
              "internalType": "address",
              "name": "",
              "type": "address"
            }
          ],
          "stateMutability": "view",
          "type": "function"
        },
        {
          "inputs": [],
          "name": "vestingDuration",
          "outputs": [
            {
              "internalType": "uint32",
              "name": "",
              "type": "uint32"
            }
          ],
          "stateMutability": "view",
          "type": "function"
        },
        {
          "inputs": [
            {
              "internalType": "address",
              "name": "",
              "type": "address"
            }
          ],
          "name": "vestings",
          "outputs": [
            {
              "internalType": "uint256",
              "name": "amount",
              "type": "uint256"
            },
            {
              "internalType": "uint256",
              "name": "end",
              "type": "uint256"
            }
          ],
          "stateMutability": "view",
          "type": "function"
        },
        {
          "inputs": [],
          "name": "virtualToken",
          "outputs": [
            {
              "internalType": "uint256",
              "name": "",
              "type": "uint256"
            }
          ],
          "stateMutability": "view",
          "type": "function"
        },
        {
          "inputs": [],
          "name": "virtualWEWE",
          "outputs": [
            {
              "internalType": "uint256",
              "name": "",
              "type": "uint256"
            }
          ],
          "stateMutability": "view",
          "type": "function"
        },
        {
          "inputs": [],
          "name": "wewe",
          "outputs": [
            {
              "internalType": "address",
              "name": "",
              "type": "address"
            }
          ],
          "stateMutability": "view",
          "type": "function"
        },
        {
          "inputs": [
            {
              "internalType": "address",
              "name": "",
              "type": "address"
            }
          ],
          "name": "whiteList",
          "outputs": [
            {
              "internalType": "bool",
              "name": "",
              "type": "bool"
            }
          ],
          "stateMutability": "view",
          "type": "function"
        }
      ],
      "evm": {
        "bytecode": {
          "linkReferences": {},
          "object": "608060409080825234620002ae5760a08162001c6b8038038091620000258285620002b3565b833981010312620002ae576200003b81620002ed565b906020906200004c828201620002ed565b92848201519263ffffffff8416809403620002ae576060830151608090930151600160008181558154610100600160a81b0333600881811b929092166001600160a81b03198416179094558a51949997988998939790946001600160a01b03949385931c83167f8be0079c531659141344cd1fd0a4f28419497f9722a3daafe3b4186f6b6457e08a80a31693841562000261575016918215620002115791839291816004959360018060a01b031990816003541617600355600254161760025563ffffffff19600854161760085588519384809263313ce56760e01b82525afa90811562000207578391620001c3575b5060ff9150166012811062000163575b505050600b55600c55516119689081620003038239f35b9091925060120360128111620001af57604d8111620001af57600a0a918281029281840414901517156200019b57503880806200014c565b634e487b7160e01b81526011600452602490fd5b634e487b7160e01b82526011600452602482fd5b905081813d8311620001ff575b620001dc8183620002b3565b81010312620001fb575160ff81168103620001fb5760ff90386200013c565b5080fd5b503d620001d0565b87513d85823e3d90fd5b885162461bcd60e51b815260048101859052602360248201527f44796e616d696345617465723a20496e76616c696420746f6b656e206164647260448201526265737360e81b6064820152608490fd5b62461bcd60e51b815260048101869052602260248201527f44796e616d696345617465723a20496e76616c69642057455745206164647265604482015261737360f01b6064820152608490fd5b600080fd5b601f909101601f19168101906001600160401b03821190821017620002d757604052565b634e487b7160e01b600052604160045260246000fd5b51906001600160a01b0382168203620002ae5756fe6080604081815260048036101561001557600080fd5b600092833560e01c90816306fdde0314611214575080631514617e146111ef578063199cbc54146111d05780631f514c52146111b157806321df0da71461118857806324a47aeb146110425780633586d51414610f9c57806335faa41614610e4a578063372c12b114610e0c5780634e71d92d14610d725780634fa1f10414610c515780635c975abb14610c2d57806361d027b314610c06578063655a9ac214610be4578063679aefce14610b4957806370a0823114610b11578063715018a614610ab05780638da5cb5b14610a835780638f4ffcb1146108f05780639636d881146108b55780639ed4527e14610896578063a718d11b1461084457838163b6b55f25146107b657508063bf3506c114610777578063c2cd9b2b1461074e578063c4ae31681461066b578063d5abeb011461064c578063daf498631461060a578063dece1baa146105e8578063e1f26f22146105bf578063e4330545146104bc578063ea9f241714610322578063eb91d37e146102c6578063f0f44260146102815763f2fde38b146101a657600080fd5b3461027d57602036600319011261027d576101bf61138c565b6101c76113a7565b6001600160a01b0381811693909290841561022b57505060018054610100600160a81b03198116600893841b610100600160a81b031617909155901c167f8be0079c531659141344cd1fd0a4f28419497f9722a3daafe3b4186f6b6457e08380a380f35b906020608492519162461bcd60e51b8352820152602660248201527f4f776e61626c653a206e6577206f776e657220697320746865207a65726f206160448201526564647265737360d01b6064820152fd5b8280fd5b8382346102c25760203660031901126102c25761029c61138c565b6102a46113a7565b81546001600160a01b0319166001600160a01b039190911617905580f35b5080fd5b50913461031f578060031936011261031f576102e0611483565b926103e89384810294818604149015171561030c5760208361030586600b5490611463565b9051908152f35b634e487b7160e01b825260119052602490fd5b80fd5b50913461031f578060031936011261031f5761033c611568565b60025482516370a0823160e01b8152338186015260209490926001600160a01b03928316928685602481875afa94851561044c57829561048d575b5085516323b872dd60e01b815285948890829081868161039b8b30338d8501611546565b03925af18015610483579188918593610456575b506002541687519283809263313ce56760e01b82525afa90811561044c579060ff91839161041f575b5016601281106103ef575b868661030533876115ac565b90919250601203916012831161030c5750506103059161041161041792611513565b9061143a565b3880806103e3565b61043f9150883d8a11610445575b6104378183611402565b8101906114fa565b386103d8565b503d61042d565b86513d84823e3d90fd5b61047590833d851161047c575b61046d8183611402565b810190611521565b50386103af565b503d610463565b87513d85823e3d90fd5b9094508681813d83116104b5575b6104a58183611402565b810103126102c257519338610377565b503d61049b565b509190346102c257816003193601126102c25760035481516370a0823160e01b8152308582015293602092918390869060249082906001600160a01b03165afa9485156105b5578495610582575b508415610546575061053d7fa7a5838120ec6c2ca5291f32459f820c6230c6b5d0fa06a111e49badb5e6c84b9394611877565b9051908152a180f35b82606492519162461bcd60e51b83528201526018602482015277064756d703a204e6f2062616c616e636520746f2064756d760441b6044820152fd5b9094508281813d83116105ae575b61059a8183611402565b810103126105aa5751933861050a565b8380fd5b503d610590565b82513d86823e3d90fd5b5050346102c257816003193601126102c25760035490516001600160a01b039091168152602090f35b8382346102c25760203660031901126102c2576106036113a7565b35600c5580f35b5050346102c25760203660031901126102c2579081906001600160a01b0361063061138c565b1681526009602052206001815491015482519182526020820152f35b5050346102c257816003193601126102c2576020906007549051908152f35b503461027d578260031936011261027d576106846113a7565b60015460ff81161561070d57506001549060ff8216156106d3575060ff1916600155513381527f5db9ee0a495bf2e6ff9c91a7834c1ba4fdd244a5e8aa4e537bd38aeae4b073aa90602090a180f35b606490602084519162461bcd60e51b8352820152601460248201527314185d5cd8589b194e881b9bdd081c185d5cd95960621b6044820152fd5b602091509160017f62e78cea01bee320cd4e420270b5ea74000d11b0c9f74754ebdbfc544b05a2589361073e611568565b60ff19161760015551338152a180f35b5050346102c257816003193601126102c257600d5490516001600160a01b039091168152602090f35b5050346102c25760203660031901126102c25760209160019082906001600160a01b036107a261138c565b168152600985522001549051904210158152f35b80848434610840576020366003190112610840576108086020916107d86113a7565b60035484516323b872dd60e01b81529586936001600160a01b039092169284928391803590309033908501611546565b03925af1908115610837575061081c575080f35b6108339060203d811161047c5761046d8183611402565b5080f35b513d84823e3d90fd5b5050fd5b5050346102c257806003193601126102c25761085e61138c565b90602435918215158093036105aa576108756113a7565b60018060a01b03168352600a60205282209060ff8019835416911617905580f35b5050346102c257816003193601126102c257602090600c549051908152f35b8382346102c25760203660031901126102c2573563ffffffff81168091036102c2576108df6113a7565b63ffffffff19600854161760085580f35b503461027d57608036600319011261027d5761090a61138c565b90602435906001600160a01b0360443581811603610a7b5760643567ffffffffffffffff808211610a7f5736602383011215610a7f5781840135908111610a7f5736910160240111610a7b576002865414610a38576002865561096b611568565b600254169081156109e6578261099c926020928888518096819582946323b872dd60e01b8452309033908501611546565b03925af180156109dc576109b694506109be575b506115ac565b506001815580f35b6109d59060203d811161047c5761046d8183611402565b50386109b0565b84513d87823e3d90fd5b608490602086519162461bcd60e51b8352820152602660248201527f72656365697665417070726f76616c3a20546f6b656e2061646472657373206e6044820152651bdd081cd95d60d21b6064820152fd5b845162461bcd60e51b8152602081840152601f60248201527f5265656e7472616e637947756172643a207265656e7472616e742063616c6c006044820152606490fd5b8580fd5b8780fd5b5050346102c257816003193601126102c257600154905160089190911c6001600160a01b03168152602090f35b833461031f578060031936011261031f57610ac96113a7565b60018054610100600160a81b03198116909155819060081c6001600160a01b03167f8be0079c531659141344cd1fd0a4f28419497f9722a3daafe3b4186f6b6457e08280a380f35b5050346102c25760203660031901126102c25760209181906001600160a01b03610b3961138c565b1681526009845220549051908152f35b503461027d578260031936011261027d57600254825163313ce56760e01b81529160209183919082906001600160a01b03165afa908115610bd85760ff61030592610b9e9260209691610bbb575b5016611513565b610bb6610bad82600b54611539565b91610411611483565b611463565b610bd29150863d8111610445576104378183611402565b38610b97565b505051903d90823e3d90fd5b8382346102c25760203660031901126102c257610bff6113a7565b35600b5580f35b503461027d578260031936011261027d575490516001600160a01b03909116815260209150f35b5050346102c257816003193601126102c25760209060ff6001541690519015158152f35b50913461031f57602092836003193601126102c257600254835163313ce56760e01b808252833594926001600160a01b03169187818681865afa908115610d685760ff8993926012928791610d4b575b501610610cbe575b508561030586610bb6610bad82600b54611539565b8487518094819382525afa908115610d41579060ff918391610d24575b501660120360ff8111610d115760ff1691604d831161030c57505061030591610d0791600a0a9061143a565b9038808581610ca9565b506011602492634e487b7160e01b835252fd5b610d3b9150873d8911610445576104378183611402565b38610cdb565b85513d84823e3d90fd5b610d629150853d8711610445576104378183611402565b38610ca1565b87513d86823e3d90fd5b50903461027d578260031936011261027d57610d8c611568565b63ffffffff6008541615610dff575b3383526009602052600181842001544210610dbc5782610db96117fc565b80f35b906020606492519162461bcd60e51b8352820152602060248201527f7768656e436c61696d61626c653a2056657374696e67206e6f7420656e6465646044820152fd5b610e076117fc565b610d9b565b5050346102c25760203660031901126102c25760209160ff9082906001600160a01b03610e3761138c565b168152600a855220541690519015158152f35b509190346102c257816003193601126102c257610e656113a7565b60035481516370a0823160e01b8152308582015293602092916001600160a01b0390811691908487602481865afa968715610f92578697610f63575b508615610f2057600154845163a9059cbb60e01b81526001600160a01b0360089290921c90921616918101918252602082018790529291849184919082908890829060400103925af1908115610f175750610efa578280f35b81610f1092903d1061047c5761046d8183611402565b5081808280f35b513d85823e3d90fd5b835162461bcd60e51b8152808301869052601a60248201527f73776565703a204e6f2062616c616e636520746f2073776565700000000000006044820152606490fd5b9096508481813d8311610f8b575b610f7b8183611402565b81010312610a7b57519538610ea1565b503d610f71565b84513d88823e3d90fd5b50903461027d57602036600319011261027d57610fb761138c565b610fbf6113a7565b600d80546001600160a01b0319166001600160a01b0392831690811790915580610fe7578480f35b60446020926002541694868551968794859363095ea7b360e01b855284015260001960248401525af19081156108375750611024575b8080808480f35b61103b9060203d811161047c5761046d8183611402565b503861101d565b503461027d576020928360031936011261031f57813591611061611568565b60025484516370a0823160e01b815233838201528493916001600160a01b0391908216908881602481855afa90811561117e57908791859161114d575b50106110ff5787875180926323b872dd60e01b82528186816110c48c30338d8501611546565b03925af180156104835791889185936110e2575b506103af87611877565b6110f890833d851161047c5761046d8183611402565b50386110d8565b865162461bcd60e51b8152808501899052602260248201527f6d657267653a20496e73756666696369656e742062616c616e636520746f2065604482015261185d60f21b6064820152608490fd5b8092508a8092503d8311611177575b6111668183611402565b810103126105aa578690513861109e565b503d61115c565b88513d86823e3d90fd5b5050346102c257816003193601126102c25760025490516001600160a01b039091168152602090f35b5050346102c257816003193601126102c257602090600b549051908152f35b5050346102c257816003193601126102c2576020906005549051908152f35b5050346102c257816003193601126102c25760209063ffffffff600854169051908152f35b9390503461031f578060031936011261031f576002546306fdde0360e01b855281908590849082906001600160a01b03165afa91821561135d5781926112c0575b6112b2848481519061129760268360208101936502bb2abb29d160d51b85526112878151809260208686019101611369565b8101036006810185520183611402565b82519384926020845251809281602086015285850190611369565b601f01601f19168101030190f35b9091503d8083863e6112d28186611402565b84019160208584031261031f57845167ffffffffffffffff9586821161027d57019183601f840112156102c257825195861161134a5750835192611320601f8701601f191660200185611402565b8584526020868401011161031f57506112b2936113439160208085019101611369565b3880611255565b634e487b7160e01b825260419052602490fd5b508251903d90823e3d90fd5b60005b83811061137c5750506000910152565b818101518382015260200161136c565b600435906001600160a01b03821682036113a257565b600080fd5b60015460081c6001600160a01b031633036113be57565b606460405162461bcd60e51b815260206004820152602060248201527f4f776e61626c653a2063616c6c6572206973206e6f7420746865206f776e65726044820152fd5b90601f8019910116810190811067ffffffffffffffff82111761142457604052565b634e487b7160e01b600052604160045260246000fd5b8181029291811591840414171561144d57565b634e487b7160e01b600052601160045260246000fd5b811561146d570490565b634e487b7160e01b600052601260045260246000fd5b600c5460055480821061149c57810390811161144d5790565b60405162461bcd60e51b815260206004820152603060248201527f44796e616d696345617465723a207669727475616c57455745206c657373207460448201526f1a185b881d1bdd185b081d995cdd195960821b6064820152608490fd5b908160209103126113a2575160ff811681036113a25790565b604d811161144d57600a0a90565b908160209103126113a2575180151581036113a25790565b9190820180921161144d57565b6001600160a01b03918216815291166020820152604081019190915260600190565b60ff6001541661157457565b60405162461bcd60e51b815260206004820152601060248201526f14185d5cd8589b194e881c185d5cd95960821b6044820152606490fd5b6115cc6115bb82600b54611539565b610bb66115c6611483565b8461143a565b600354604080516370a0823160e01b8152306004820152929460209391926001600160a01b0392908316908581602481855afa908115611769576000916117cf575b5087116117745760085463ffffffff91908216156116da5750828216948560005260098152611641856000205489611539565b91603c81600854160290811690810361144d5761165e9042611539565b8551908682019082821067ffffffffffffffff831117611424577fabe5455971bdcd932e7251d16cd53f88cd4410bf4df21530e88bf13dade6a7d4988b956001938a528452848401918252600052600984528760002092518355519101556116c882600554611539565b6005555b84519687528601521692a290565b845163a9059cbb60e01b81526001600160a01b0384166004820152602481018990529495939492939291508290829060449082906000905af18015611769579187917fabe5455971bdcd932e7251d16cd53f88cd4410bf4df21530e88bf13dade6a7d49695949361174c575b506116cc565b61176290823d841161047c5761046d8183611402565b5038611746565b85513d6000823e3d90fd5b835162461bcd60e51b815260048101869052602e60248201527f5f6d657267653a20496e73756666696369656e7420746f6b656e2062616c616e60448201526d31b2903a37903a3930b739b332b960911b6064820152608490fd5b908682813d83116117f5575b6117e58183611402565b8101031261031f5750513861160e565b503d6117db565b336000818152600960209081526040808320805490849055600354915163a9059cbb60e01b8152600481019590955260248501529091839160449183916001600160a01b03165af1801561186b576118515750565b6118689060203d811161047c5761046d8183611402565b50565b6040513d6000823e3d90fd5b600d546001600160a01b039081169190821561192a5780600454169081156119215760025416604051926302454b7160e41b84526004840152602483015260448201526080606482015260208160a481600080968160848401525af19182156119155780926118e557505090565b9091506020823d821161190d575b8161190060209383611402565b8101031261031f57505190565b3d91506118f3565b604051903d90823e3d90fd5b50505050600090565b50505060009056fea26469706673582212200276ab3577bfa9a1e088dd28c4358c60cbaa1b2204f19331b0e012ab6c2cd54a64736f6c63430008130033",
          "opcodes": "PUSH1 0x80 PUSH1 0x40 SWAP1 DUP1 DUP3 MSTORE CALLVALUE PUSH3 0x2AE JUMPI PUSH1 0xA0 DUP2 PUSH3 0x1C6B DUP1 CODESIZE SUB DUP1 SWAP2 PUSH3 0x25 DUP3 DUP6 PUSH3 0x2B3 JUMP JUMPDEST DUP4 CODECOPY DUP2 ADD SUB SLT PUSH3 0x2AE JUMPI PUSH3 0x3B DUP2 PUSH3 0x2ED JUMP JUMPDEST SWAP1 PUSH1 0x20 SWAP1 PUSH3 0x4C DUP3 DUP3 ADD PUSH3 0x2ED JUMP JUMPDEST SWAP3 DUP5 DUP3 ADD MLOAD SWAP3 PUSH4 0xFFFFFFFF DUP5 AND DUP1 SWAP5 SUB PUSH3 0x2AE JUMPI PUSH1 0x60 DUP4 ADD MLOAD PUSH1 0x80 SWAP1 SWAP4 ADD MLOAD PUSH1 0x1 PUSH1 0x0 DUP2 DUP2 SSTORE DUP2 SLOAD PUSH2 0x100 PUSH1 0x1 PUSH1 0xA8 SHL SUB CALLER PUSH1 0x8 DUP2 DUP2 SHL SWAP3 SWAP1 SWAP3 AND PUSH1 0x1 PUSH1 0x1 PUSH1 0xA8 SHL SUB NOT DUP5 AND OR SWAP1 SWAP5 SSTORE DUP11 MLOAD SWAP5 SWAP10 SWAP8 SWAP9 DUP10 SWAP9 SWAP4 SWAP8 SWAP1 SWAP5 PUSH1 0x1 PUSH1 0x1 PUSH1 0xA0 SHL SUB SWAP5 SWAP4 DUP6 SWAP4 SHR DUP4 AND PUSH32 0x8BE0079C531659141344CD1FD0A4F28419497F9722A3DAAFE3B4186F6B6457E0 DUP11 DUP1 LOG3 AND SWAP4 DUP5 ISZERO PUSH3 0x261 JUMPI POP AND SWAP2 DUP3 ISZERO PUSH3 0x211 JUMPI SWAP2 DUP4 SWAP3 SWAP2 DUP2 PUSH1 0x4 SWAP6 SWAP4 PUSH1 0x1 DUP1 PUSH1 0xA0 SHL SUB NOT SWAP1 DUP2 PUSH1 0x3 SLOAD AND OR PUSH1 0x3 SSTORE PUSH1 0x2 SLOAD AND OR PUSH1 0x2 SSTORE PUSH4 0xFFFFFFFF NOT PUSH1 0x8 SLOAD AND OR PUSH1 0x8 SSTORE DUP9 MLOAD SWAP4 DUP5 DUP1 SWAP3 PUSH4 0x313CE567 PUSH1 0xE0 SHL DUP3 MSTORE GAS STATICCALL SWAP1 DUP2 ISZERO PUSH3 0x207 JUMPI DUP4 SWAP2 PUSH3 0x1C3 JUMPI JUMPDEST POP PUSH1 0xFF SWAP2 POP AND PUSH1 0x12 DUP2 LT PUSH3 0x163 JUMPI JUMPDEST POP POP POP PUSH1 0xB SSTORE PUSH1 0xC SSTORE MLOAD PUSH2 0x1968 SWAP1 DUP2 PUSH3 0x303 DUP3 CODECOPY RETURN JUMPDEST SWAP1 SWAP2 SWAP3 POP PUSH1 0x12 SUB PUSH1 0x12 DUP2 GT PUSH3 0x1AF JUMPI PUSH1 0x4D DUP2 GT PUSH3 0x1AF JUMPI PUSH1 0xA EXP SWAP2 DUP3 DUP2 MUL SWAP3 DUP2 DUP5 DIV EQ SWAP1 ISZERO OR ISZERO PUSH3 0x19B JUMPI POP CODESIZE DUP1 DUP1 PUSH3 0x14C JUMP JUMPDEST PUSH4 0x4E487B71 PUSH1 0xE0 SHL DUP2 MSTORE PUSH1 0x11 PUSH1 0x4 MSTORE PUSH1 0x24 SWAP1 REVERT JUMPDEST PUSH4 0x4E487B71 PUSH1 0xE0 SHL DUP3 MSTORE PUSH1 0x11 PUSH1 0x4 MSTORE PUSH1 0x24 DUP3 REVERT JUMPDEST SWAP1 POP DUP2 DUP2 RETURNDATASIZE DUP4 GT PUSH3 0x1FF JUMPI JUMPDEST PUSH3 0x1DC DUP2 DUP4 PUSH3 0x2B3 JUMP JUMPDEST DUP2 ADD SUB SLT PUSH3 0x1FB JUMPI MLOAD PUSH1 0xFF DUP2 AND DUP2 SUB PUSH3 0x1FB JUMPI PUSH1 0xFF SWAP1 CODESIZE PUSH3 0x13C JUMP JUMPDEST POP DUP1 REVERT JUMPDEST POP RETURNDATASIZE PUSH3 0x1D0 JUMP JUMPDEST DUP8 MLOAD RETURNDATASIZE DUP6 DUP3 RETURNDATACOPY RETURNDATASIZE SWAP1 REVERT JUMPDEST DUP9 MLOAD PUSH3 0x461BCD PUSH1 0xE5 SHL DUP2 MSTORE PUSH1 0x4 DUP2 ADD DUP6 SWAP1 MSTORE PUSH1 0x23 PUSH1 0x24 DUP3 ADD MSTORE PUSH32 0x44796E616D696345617465723A20496E76616C696420746F6B656E2061646472 PUSH1 0x44 DUP3 ADD MSTORE PUSH3 0x657373 PUSH1 0xE8 SHL PUSH1 0x64 DUP3 ADD MSTORE PUSH1 0x84 SWAP1 REVERT JUMPDEST PUSH3 0x461BCD PUSH1 0xE5 SHL DUP2 MSTORE PUSH1 0x4 DUP2 ADD DUP7 SWAP1 MSTORE PUSH1 0x22 PUSH1 0x24 DUP3 ADD MSTORE PUSH32 0x44796E616D696345617465723A20496E76616C69642057455745206164647265 PUSH1 0x44 DUP3 ADD MSTORE PUSH2 0x7373 PUSH1 0xF0 SHL PUSH1 0x64 DUP3 ADD MSTORE PUSH1 0x84 SWAP1 REVERT JUMPDEST PUSH1 0x0 DUP1 REVERT JUMPDEST PUSH1 0x1F SWAP1 SWAP2 ADD PUSH1 0x1F NOT AND DUP2 ADD SWAP1 PUSH1 0x1 PUSH1 0x1 PUSH1 0x40 SHL SUB DUP3 GT SWAP1 DUP3 LT OR PUSH3 0x2D7 JUMPI PUSH1 0x40 MSTORE JUMP JUMPDEST PUSH4 0x4E487B71 PUSH1 0xE0 SHL PUSH1 0x0 MSTORE PUSH1 0x41 PUSH1 0x4 MSTORE PUSH1 0x24 PUSH1 0x0 REVERT JUMPDEST MLOAD SWAP1 PUSH1 0x1 PUSH1 0x1 PUSH1 0xA0 SHL SUB DUP3 AND DUP3 SUB PUSH3 0x2AE JUMPI JUMP INVALID PUSH1 0x80 PUSH1 0x40 DUP2 DUP2 MSTORE PUSH1 0x4 DUP1 CALLDATASIZE LT ISZERO PUSH2 0x15 JUMPI PUSH1 0x0 DUP1 REVERT JUMPDEST PUSH1 0x0 SWAP3 DUP4 CALLDATALOAD PUSH1 0xE0 SHR SWAP1 DUP2 PUSH4 0x6FDDE03 EQ PUSH2 0x1214 JUMPI POP DUP1 PUSH4 0x1514617E EQ PUSH2 0x11EF JUMPI DUP1 PUSH4 0x199CBC54 EQ PUSH2 0x11D0 JUMPI DUP1 PUSH4 0x1F514C52 EQ PUSH2 0x11B1 JUMPI DUP1 PUSH4 0x21DF0DA7 EQ PUSH2 0x1188 JUMPI DUP1 PUSH4 0x24A47AEB EQ PUSH2 0x1042 JUMPI DUP1 PUSH4 0x3586D514 EQ PUSH2 0xF9C JUMPI DUP1 PUSH4 0x35FAA416 EQ PUSH2 0xE4A JUMPI DUP1 PUSH4 0x372C12B1 EQ PUSH2 0xE0C JUMPI DUP1 PUSH4 0x4E71D92D EQ PUSH2 0xD72 JUMPI DUP1 PUSH4 0x4FA1F104 EQ PUSH2 0xC51 JUMPI DUP1 PUSH4 0x5C975ABB EQ PUSH2 0xC2D JUMPI DUP1 PUSH4 0x61D027B3 EQ PUSH2 0xC06 JUMPI DUP1 PUSH4 0x655A9AC2 EQ PUSH2 0xBE4 JUMPI DUP1 PUSH4 0x679AEFCE EQ PUSH2 0xB49 JUMPI DUP1 PUSH4 0x70A08231 EQ PUSH2 0xB11 JUMPI DUP1 PUSH4 0x715018A6 EQ PUSH2 0xAB0 JUMPI DUP1 PUSH4 0x8DA5CB5B EQ PUSH2 0xA83 JUMPI DUP1 PUSH4 0x8F4FFCB1 EQ PUSH2 0x8F0 JUMPI DUP1 PUSH4 0x9636D881 EQ PUSH2 0x8B5 JUMPI DUP1 PUSH4 0x9ED4527E EQ PUSH2 0x896 JUMPI DUP1 PUSH4 0xA718D11B EQ PUSH2 0x844 JUMPI DUP4 DUP2 PUSH4 0xB6B55F25 EQ PUSH2 0x7B6 JUMPI POP DUP1 PUSH4 0xBF3506C1 EQ PUSH2 0x777 JUMPI DUP1 PUSH4 0xC2CD9B2B EQ PUSH2 0x74E JUMPI DUP1 PUSH4 0xC4AE3168 EQ PUSH2 0x66B JUMPI DUP1 PUSH4 0xD5ABEB01 EQ PUSH2 0x64C JUMPI DUP1 PUSH4 0xDAF49863 EQ PUSH2 0x60A JUMPI DUP1 PUSH4 0xDECE1BAA EQ PUSH2 0x5E8 JUMPI DUP1 PUSH4 0xE1F26F22 EQ PUSH2 0x5BF JUMPI DUP1 PUSH4 0xE4330545 EQ PUSH2 0x4BC JUMPI DUP1 PUSH4 0xEA9F2417 EQ PUSH2 0x322 JUMPI DUP1 PUSH4 0xEB91D37E EQ PUSH2 0x2C6 JUMPI DUP1 PUSH4 0xF0F44260 EQ PUSH2 0x281 JUMPI PUSH4 0xF2FDE38B EQ PUSH2 0x1A6 JUMPI PUSH1 0x0 DUP1 REVERT JUMPDEST CALLVALUE PUSH2 0x27D JUMPI PUSH1 0x20 CALLDATASIZE PUSH1 0x3 NOT ADD SLT PUSH2 0x27D JUMPI PUSH2 0x1BF PUSH2 0x138C JUMP JUMPDEST PUSH2 0x1C7 PUSH2 0x13A7 JUMP JUMPDEST PUSH1 0x1 PUSH1 0x1 PUSH1 0xA0 SHL SUB DUP2 DUP2 AND SWAP4 SWAP1 SWAP3 SWAP1 DUP5 ISZERO PUSH2 0x22B JUMPI POP POP PUSH1 0x1 DUP1 SLOAD PUSH2 0x100 PUSH1 0x1 PUSH1 0xA8 SHL SUB NOT DUP2 AND PUSH1 0x8 SWAP4 DUP5 SHL PUSH2 0x100 PUSH1 0x1 PUSH1 0xA8 SHL SUB AND OR SWAP1 SWAP2 SSTORE SWAP1 SHR AND PUSH32 0x8BE0079C531659141344CD1FD0A4F28419497F9722A3DAAFE3B4186F6B6457E0 DUP4 DUP1 LOG3 DUP1 RETURN JUMPDEST SWAP1 PUSH1 0x20 PUSH1 0x84 SWAP3 MLOAD SWAP2 PUSH3 0x461BCD PUSH1 0xE5 SHL DUP4 MSTORE DUP3 ADD MSTORE PUSH1 0x26 PUSH1 0x24 DUP3 ADD MSTORE PUSH32 0x4F776E61626C653A206E6577206F776E657220697320746865207A65726F2061 PUSH1 0x44 DUP3 ADD MSTORE PUSH6 0x646472657373 PUSH1 0xD0 SHL PUSH1 0x64 DUP3 ADD MSTORE REVERT JUMPDEST DUP3 DUP1 REVERT JUMPDEST DUP4 DUP3 CALLVALUE PUSH2 0x2C2 JUMPI PUSH1 0x20 CALLDATASIZE PUSH1 0x3 NOT ADD SLT PUSH2 0x2C2 JUMPI PUSH2 0x29C PUSH2 0x138C JUMP JUMPDEST PUSH2 0x2A4 PUSH2 0x13A7 JUMP JUMPDEST DUP2 SLOAD PUSH1 0x1 PUSH1 0x1 PUSH1 0xA0 SHL SUB NOT AND PUSH1 0x1 PUSH1 0x1 PUSH1 0xA0 SHL SUB SWAP2 SWAP1 SWAP2 AND OR SWAP1 SSTORE DUP1 RETURN JUMPDEST POP DUP1 REVERT JUMPDEST POP SWAP2 CALLVALUE PUSH2 0x31F JUMPI DUP1 PUSH1 0x3 NOT CALLDATASIZE ADD SLT PUSH2 0x31F JUMPI PUSH2 0x2E0 PUSH2 0x1483 JUMP JUMPDEST SWAP3 PUSH2 0x3E8 SWAP4 DUP5 DUP2 MUL SWAP5 DUP2 DUP7 DIV EQ SWAP1 ISZERO OR ISZERO PUSH2 0x30C JUMPI PUSH1 0x20 DUP4 PUSH2 0x305 DUP7 PUSH1 0xB SLOAD SWAP1 PUSH2 0x1463 JUMP JUMPDEST SWAP1 MLOAD SWAP1 DUP2 MSTORE RETURN JUMPDEST PUSH4 0x4E487B71 PUSH1 0xE0 SHL DUP3 MSTORE PUSH1 0x11 SWAP1 MSTORE PUSH1 0x24 SWAP1 REVERT JUMPDEST DUP1 REVERT JUMPDEST POP SWAP2 CALLVALUE PUSH2 0x31F JUMPI DUP1 PUSH1 0x3 NOT CALLDATASIZE ADD SLT PUSH2 0x31F JUMPI PUSH2 0x33C PUSH2 0x1568 JUMP JUMPDEST PUSH1 0x2 SLOAD DUP3 MLOAD PUSH4 0x70A08231 PUSH1 0xE0 SHL DUP2 MSTORE CALLER DUP2 DUP7 ADD MSTORE PUSH1 0x20 SWAP5 SWAP1 SWAP3 PUSH1 0x1 PUSH1 0x1 PUSH1 0xA0 SHL SUB SWAP3 DUP4 AND SWAP3 DUP7 DUP6 PUSH1 0x24 DUP2 DUP8 GAS STATICCALL SWAP5 DUP6 ISZERO PUSH2 0x44C JUMPI DUP3 SWAP6 PUSH2 0x48D JUMPI JUMPDEST POP DUP6 MLOAD PUSH4 0x23B872DD PUSH1 0xE0 SHL DUP2 MSTORE DUP6 SWAP5 DUP9 SWAP1 DUP3 SWAP1 DUP2 DUP7 DUP2 PUSH2 0x39B DUP12 ADDRESS CALLER DUP14 DUP6 ADD PUSH2 0x1546 JUMP JUMPDEST SUB SWAP3 GAS CALL DUP1 ISZERO PUSH2 0x483 JUMPI SWAP2 DUP9 SWAP2 DUP6 SWAP4 PUSH2 0x456 JUMPI JUMPDEST POP PUSH1 0x2 SLOAD AND DUP8 MLOAD SWAP3 DUP4 DUP1 SWAP3 PUSH4 0x313CE567 PUSH1 0xE0 SHL DUP3 MSTORE GAS STATICCALL SWAP1 DUP2 ISZERO PUSH2 0x44C JUMPI SWAP1 PUSH1 0xFF SWAP2 DUP4 SWAP2 PUSH2 0x41F JUMPI JUMPDEST POP AND PUSH1 0x12 DUP2 LT PUSH2 0x3EF JUMPI JUMPDEST DUP7 DUP7 PUSH2 0x305 CALLER DUP8 PUSH2 0x15AC JUMP JUMPDEST SWAP1 SWAP2 SWAP3 POP PUSH1 0x12 SUB SWAP2 PUSH1 0x12 DUP4 GT PUSH2 0x30C JUMPI POP POP PUSH2 0x305 SWAP2 PUSH2 0x411 PUSH2 0x417 SWAP3 PUSH2 0x1513 JUMP JUMPDEST SWAP1 PUSH2 0x143A JUMP JUMPDEST CODESIZE DUP1 DUP1 PUSH2 0x3E3 JUMP JUMPDEST PUSH2 0x43F SWAP2 POP DUP9 RETURNDATASIZE DUP11 GT PUSH2 0x445 JUMPI JUMPDEST PUSH2 0x437 DUP2 DUP4 PUSH2 0x1402 JUMP JUMPDEST DUP2 ADD SWAP1 PUSH2 0x14FA JUMP JUMPDEST CODESIZE PUSH2 0x3D8 JUMP JUMPDEST POP RETURNDATASIZE PUSH2 0x42D JUMP JUMPDEST DUP7 MLOAD RETURNDATASIZE DUP5 DUP3 RETURNDATACOPY RETURNDATASIZE SWAP1 REVERT JUMPDEST PUSH2 0x475 SWAP1 DUP4 RETURNDATASIZE DUP6 GT PUSH2 0x47C JUMPI JUMPDEST PUSH2 0x46D DUP2 DUP4 PUSH2 0x1402 JUMP JUMPDEST DUP2 ADD SWAP1 PUSH2 0x1521 JUMP JUMPDEST POP CODESIZE PUSH2 0x3AF JUMP JUMPDEST POP RETURNDATASIZE PUSH2 0x463 JUMP JUMPDEST DUP8 MLOAD RETURNDATASIZE DUP6 DUP3 RETURNDATACOPY RETURNDATASIZE SWAP1 REVERT JUMPDEST SWAP1 SWAP5 POP DUP7 DUP2 DUP2 RETURNDATASIZE DUP4 GT PUSH2 0x4B5 JUMPI JUMPDEST PUSH2 0x4A5 DUP2 DUP4 PUSH2 0x1402 JUMP JUMPDEST DUP2 ADD SUB SLT PUSH2 0x2C2 JUMPI MLOAD SWAP4 CODESIZE PUSH2 0x377 JUMP JUMPDEST POP RETURNDATASIZE PUSH2 0x49B JUMP JUMPDEST POP SWAP2 SWAP1 CALLVALUE PUSH2 0x2C2 JUMPI DUP2 PUSH1 0x3 NOT CALLDATASIZE ADD SLT PUSH2 0x2C2 JUMPI PUSH1 0x3 SLOAD DUP2 MLOAD PUSH4 0x70A08231 PUSH1 0xE0 SHL DUP2 MSTORE ADDRESS DUP6 DUP3 ADD MSTORE SWAP4 PUSH1 0x20 SWAP3 SWAP2 DUP4 SWAP1 DUP7 SWAP1 PUSH1 0x24 SWAP1 DUP3 SWAP1 PUSH1 0x1 PUSH1 0x1 PUSH1 0xA0 SHL SUB AND GAS STATICCALL SWAP5 DUP6 ISZERO PUSH2 0x5B5 JUMPI DUP5 SWAP6 PUSH2 0x582 JUMPI JUMPDEST POP DUP5 ISZERO PUSH2 0x546 JUMPI POP PUSH2 0x53D PUSH32 0xA7A5838120EC6C2CA5291F32459F820C6230C6B5D0FA06A111E49BADB5E6C84B SWAP4 SWAP5 PUSH2 0x1877 JUMP JUMPDEST SWAP1 MLOAD SWAP1 DUP2 MSTORE LOG1 DUP1 RETURN JUMPDEST DUP3 PUSH1 0x64 SWAP3 MLOAD SWAP2 PUSH3 0x461BCD PUSH1 0xE5 SHL DUP4 MSTORE DUP3 ADD MSTORE PUSH1 0x18 PUSH1 0x24 DUP3 ADD MSTORE PUSH24 0x64756D703A204E6F2062616C616E636520746F2064756D7 PUSH1 0x44 SHL PUSH1 0x44 DUP3 ADD MSTORE REVERT JUMPDEST SWAP1 SWAP5 POP DUP3 DUP2 DUP2 RETURNDATASIZE DUP4 GT PUSH2 0x5AE JUMPI JUMPDEST PUSH2 0x59A DUP2 DUP4 PUSH2 0x1402 JUMP JUMPDEST DUP2 ADD SUB SLT PUSH2 0x5AA JUMPI MLOAD SWAP4 CODESIZE PUSH2 0x50A JUMP JUMPDEST DUP4 DUP1 REVERT JUMPDEST POP RETURNDATASIZE PUSH2 0x590 JUMP JUMPDEST DUP3 MLOAD RETURNDATASIZE DUP7 DUP3 RETURNDATACOPY RETURNDATASIZE SWAP1 REVERT JUMPDEST POP POP CALLVALUE PUSH2 0x2C2 JUMPI DUP2 PUSH1 0x3 NOT CALLDATASIZE ADD SLT PUSH2 0x2C2 JUMPI PUSH1 0x3 SLOAD SWAP1 MLOAD PUSH1 0x1 PUSH1 0x1 PUSH1 0xA0 SHL SUB SWAP1 SWAP2 AND DUP2 MSTORE PUSH1 0x20 SWAP1 RETURN JUMPDEST DUP4 DUP3 CALLVALUE PUSH2 0x2C2 JUMPI PUSH1 0x20 CALLDATASIZE PUSH1 0x3 NOT ADD SLT PUSH2 0x2C2 JUMPI PUSH2 0x603 PUSH2 0x13A7 JUMP JUMPDEST CALLDATALOAD PUSH1 0xC SSTORE DUP1 RETURN JUMPDEST POP POP CALLVALUE PUSH2 0x2C2 JUMPI PUSH1 0x20 CALLDATASIZE PUSH1 0x3 NOT ADD SLT PUSH2 0x2C2 JUMPI SWAP1 DUP2 SWAP1 PUSH1 0x1 PUSH1 0x1 PUSH1 0xA0 SHL SUB PUSH2 0x630 PUSH2 0x138C JUMP JUMPDEST AND DUP2 MSTORE PUSH1 0x9 PUSH1 0x20 MSTORE KECCAK256 PUSH1 0x1 DUP2 SLOAD SWAP2 ADD SLOAD DUP3 MLOAD SWAP2 DUP3 MSTORE PUSH1 0x20 DUP3 ADD MSTORE RETURN JUMPDEST POP POP CALLVALUE PUSH2 0x2C2 JUMPI DUP2 PUSH1 0x3 NOT CALLDATASIZE ADD SLT PUSH2 0x2C2 JUMPI PUSH1 0x20 SWAP1 PUSH1 0x7 SLOAD SWAP1 MLOAD SWAP1 DUP2 MSTORE RETURN JUMPDEST POP CALLVALUE PUSH2 0x27D JUMPI DUP3 PUSH1 0x3 NOT CALLDATASIZE ADD SLT PUSH2 0x27D JUMPI PUSH2 0x684 PUSH2 0x13A7 JUMP JUMPDEST PUSH1 0x1 SLOAD PUSH1 0xFF DUP2 AND ISZERO PUSH2 0x70D JUMPI POP PUSH1 0x1 SLOAD SWAP1 PUSH1 0xFF DUP3 AND ISZERO PUSH2 0x6D3 JUMPI POP PUSH1 0xFF NOT AND PUSH1 0x1 SSTORE MLOAD CALLER DUP2 MSTORE PUSH32 0x5DB9EE0A495BF2E6FF9C91A7834C1BA4FDD244A5E8AA4E537BD38AEAE4B073AA SWAP1 PUSH1 0x20 SWAP1 LOG1 DUP1 RETURN JUMPDEST PUSH1 0x64 SWAP1 PUSH1 0x20 DUP5 MLOAD SWAP2 PUSH3 0x461BCD PUSH1 0xE5 SHL DUP4 MSTORE DUP3 ADD MSTORE PUSH1 0x14 PUSH1 0x24 DUP3 ADD MSTORE PUSH20 0x14185D5CD8589B194E881B9BDD081C185D5CD959 PUSH1 0x62 SHL PUSH1 0x44 DUP3 ADD MSTORE REVERT JUMPDEST PUSH1 0x20 SWAP2 POP SWAP2 PUSH1 0x1 PUSH32 0x62E78CEA01BEE320CD4E420270B5EA74000D11B0C9F74754EBDBFC544B05A258 SWAP4 PUSH2 0x73E PUSH2 0x1568 JUMP JUMPDEST PUSH1 0xFF NOT AND OR PUSH1 0x1 SSTORE MLOAD CALLER DUP2 MSTORE LOG1 DUP1 RETURN JUMPDEST POP POP CALLVALUE PUSH2 0x2C2 JUMPI DUP2 PUSH1 0x3 NOT CALLDATASIZE ADD SLT PUSH2 0x2C2 JUMPI PUSH1 0xD SLOAD SWAP1 MLOAD PUSH1 0x1 PUSH1 0x1 PUSH1 0xA0 SHL SUB SWAP1 SWAP2 AND DUP2 MSTORE PUSH1 0x20 SWAP1 RETURN JUMPDEST POP POP CALLVALUE PUSH2 0x2C2 JUMPI PUSH1 0x20 CALLDATASIZE PUSH1 0x3 NOT ADD SLT PUSH2 0x2C2 JUMPI PUSH1 0x20 SWAP2 PUSH1 0x1 SWAP1 DUP3 SWAP1 PUSH1 0x1 PUSH1 0x1 PUSH1 0xA0 SHL SUB PUSH2 0x7A2 PUSH2 0x138C JUMP JUMPDEST AND DUP2 MSTORE PUSH1 0x9 DUP6 MSTORE KECCAK256 ADD SLOAD SWAP1 MLOAD SWAP1 TIMESTAMP LT ISZERO DUP2 MSTORE RETURN JUMPDEST DUP1 DUP5 DUP5 CALLVALUE PUSH2 0x840 JUMPI PUSH1 0x20 CALLDATASIZE PUSH1 0x3 NOT ADD SLT PUSH2 0x840 JUMPI PUSH2 0x808 PUSH1 0x20 SWAP2 PUSH2 0x7D8 PUSH2 0x13A7 JUMP JUMPDEST PUSH1 0x3 SLOAD DUP5 MLOAD PUSH4 0x23B872DD PUSH1 0xE0 SHL DUP2 MSTORE SWAP6 DUP7 SWAP4 PUSH1 0x1 PUSH1 0x1 PUSH1 0xA0 SHL SUB SWAP1 SWAP3 AND SWAP3 DUP5 SWAP3 DUP4 SWAP2 DUP1 CALLDATALOAD SWAP1 ADDRESS SWAP1 CALLER SWAP1 DUP6 ADD PUSH2 0x1546 JUMP JUMPDEST SUB SWAP3 GAS CALL SWAP1 DUP2 ISZERO PUSH2 0x837 JUMPI POP PUSH2 0x81C JUMPI POP DUP1 RETURN JUMPDEST PUSH2 0x833 SWAP1 PUSH1 0x20 RETURNDATASIZE DUP2 GT PUSH2 0x47C JUMPI PUSH2 0x46D DUP2 DUP4 PUSH2 0x1402 JUMP JUMPDEST POP DUP1 RETURN JUMPDEST MLOAD RETURNDATASIZE DUP5 DUP3 RETURNDATACOPY RETURNDATASIZE SWAP1 REVERT JUMPDEST POP POP REVERT JUMPDEST POP POP CALLVALUE PUSH2 0x2C2 JUMPI DUP1 PUSH1 0x3 NOT CALLDATASIZE ADD SLT PUSH2 0x2C2 JUMPI PUSH2 0x85E PUSH2 0x138C JUMP JUMPDEST SWAP1 PUSH1 0x24 CALLDATALOAD SWAP2 DUP3 ISZERO ISZERO DUP1 SWAP4 SUB PUSH2 0x5AA JUMPI PUSH2 0x875 PUSH2 0x13A7 JUMP JUMPDEST PUSH1 0x1 DUP1 PUSH1 0xA0 SHL SUB AND DUP4 MSTORE PUSH1 0xA PUSH1 0x20 MSTORE DUP3 KECCAK256 SWAP1 PUSH1 0xFF DUP1 NOT DUP4 SLOAD AND SWAP2 AND OR SWAP1 SSTORE DUP1 RETURN JUMPDEST POP POP CALLVALUE PUSH2 0x2C2 JUMPI DUP2 PUSH1 0x3 NOT CALLDATASIZE ADD SLT PUSH2 0x2C2 JUMPI PUSH1 0x20 SWAP1 PUSH1 0xC SLOAD SWAP1 MLOAD SWAP1 DUP2 MSTORE RETURN JUMPDEST DUP4 DUP3 CALLVALUE PUSH2 0x2C2 JUMPI PUSH1 0x20 CALLDATASIZE PUSH1 0x3 NOT ADD SLT PUSH2 0x2C2 JUMPI CALLDATALOAD PUSH4 0xFFFFFFFF DUP2 AND DUP1 SWAP2 SUB PUSH2 0x2C2 JUMPI PUSH2 0x8DF PUSH2 0x13A7 JUMP JUMPDEST PUSH4 0xFFFFFFFF NOT PUSH1 0x8 SLOAD AND OR PUSH1 0x8 SSTORE DUP1 RETURN JUMPDEST POP CALLVALUE PUSH2 0x27D JUMPI PUSH1 0x80 CALLDATASIZE PUSH1 0x3 NOT ADD SLT PUSH2 0x27D JUMPI PUSH2 0x90A PUSH2 0x138C JUMP JUMPDEST SWAP1 PUSH1 0x24 CALLDATALOAD SWAP1 PUSH1 0x1 PUSH1 0x1 PUSH1 0xA0 SHL SUB PUSH1 0x44 CALLDATALOAD DUP2 DUP2 AND SUB PUSH2 0xA7B JUMPI PUSH1 0x64 CALLDATALOAD PUSH8 0xFFFFFFFFFFFFFFFF DUP1 DUP3 GT PUSH2 0xA7F JUMPI CALLDATASIZE PUSH1 0x23 DUP4 ADD SLT ISZERO PUSH2 0xA7F JUMPI DUP2 DUP5 ADD CALLDATALOAD SWAP1 DUP2 GT PUSH2 0xA7F JUMPI CALLDATASIZE SWAP2 ADD PUSH1 0x24 ADD GT PUSH2 0xA7B JUMPI PUSH1 0x2 DUP7 SLOAD EQ PUSH2 0xA38 JUMPI PUSH1 0x2 DUP7 SSTORE PUSH2 0x96B PUSH2 0x1568 JUMP JUMPDEST PUSH1 0x2 SLOAD AND SWAP1 DUP2 ISZERO PUSH2 0x9E6 JUMPI DUP3 PUSH2 0x99C SWAP3 PUSH1 0x20 SWAP3 DUP9 DUP9 MLOAD DUP1 SWAP7 DUP2 SWAP6 DUP3 SWAP5 PUSH4 0x23B872DD PUSH1 0xE0 SHL DUP5 MSTORE ADDRESS SWAP1 CALLER SWAP1 DUP6 ADD PUSH2 0x1546 JUMP JUMPDEST SUB SWAP3 GAS CALL DUP1 ISZERO PUSH2 0x9DC JUMPI PUSH2 0x9B6 SWAP5 POP PUSH2 0x9BE JUMPI JUMPDEST POP PUSH2 0x15AC JUMP JUMPDEST POP PUSH1 0x1 DUP2 SSTORE DUP1 RETURN JUMPDEST PUSH2 0x9D5 SWAP1 PUSH1 0x20 RETURNDATASIZE DUP2 GT PUSH2 0x47C JUMPI PUSH2 0x46D DUP2 DUP4 PUSH2 0x1402 JUMP JUMPDEST POP CODESIZE PUSH2 0x9B0 JUMP JUMPDEST DUP5 MLOAD RETURNDATASIZE DUP8 DUP3 RETURNDATACOPY RETURNDATASIZE SWAP1 REVERT JUMPDEST PUSH1 0x84 SWAP1 PUSH1 0x20 DUP7 MLOAD SWAP2 PUSH3 0x461BCD PUSH1 0xE5 SHL DUP4 MSTORE DUP3 ADD MSTORE PUSH1 0x26 PUSH1 0x24 DUP3 ADD MSTORE PUSH32 0x72656365697665417070726F76616C3A20546F6B656E2061646472657373206E PUSH1 0x44 DUP3 ADD MSTORE PUSH6 0x1BDD081CD95D PUSH1 0xD2 SHL PUSH1 0x64 DUP3 ADD MSTORE REVERT JUMPDEST DUP5 MLOAD PUSH3 0x461BCD PUSH1 0xE5 SHL DUP2 MSTORE PUSH1 0x20 DUP2 DUP5 ADD MSTORE PUSH1 0x1F PUSH1 0x24 DUP3 ADD MSTORE PUSH32 0x5265656E7472616E637947756172643A207265656E7472616E742063616C6C00 PUSH1 0x44 DUP3 ADD MSTORE PUSH1 0x64 SWAP1 REVERT JUMPDEST DUP6 DUP1 REVERT JUMPDEST DUP8 DUP1 REVERT JUMPDEST POP POP CALLVALUE PUSH2 0x2C2 JUMPI DUP2 PUSH1 0x3 NOT CALLDATASIZE ADD SLT PUSH2 0x2C2 JUMPI PUSH1 0x1 SLOAD SWAP1 MLOAD PUSH1 0x8 SWAP2 SWAP1 SWAP2 SHR PUSH1 0x1 PUSH1 0x1 PUSH1 0xA0 SHL SUB AND DUP2 MSTORE PUSH1 0x20 SWAP1 RETURN JUMPDEST DUP4 CALLVALUE PUSH2 0x31F JUMPI DUP1 PUSH1 0x3 NOT CALLDATASIZE ADD SLT PUSH2 0x31F JUMPI PUSH2 0xAC9 PUSH2 0x13A7 JUMP JUMPDEST PUSH1 0x1 DUP1 SLOAD PUSH2 0x100 PUSH1 0x1 PUSH1 0xA8 SHL SUB NOT DUP2 AND SWAP1 SWAP2 SSTORE DUP2 SWAP1 PUSH1 0x8 SHR PUSH1 0x1 PUSH1 0x1 PUSH1 0xA0 SHL SUB AND PUSH32 0x8BE0079C531659141344CD1FD0A4F28419497F9722A3DAAFE3B4186F6B6457E0 DUP3 DUP1 LOG3 DUP1 RETURN JUMPDEST POP POP CALLVALUE PUSH2 0x2C2 JUMPI PUSH1 0x20 CALLDATASIZE PUSH1 0x3 NOT ADD SLT PUSH2 0x2C2 JUMPI PUSH1 0x20 SWAP2 DUP2 SWAP1 PUSH1 0x1 PUSH1 0x1 PUSH1 0xA0 SHL SUB PUSH2 0xB39 PUSH2 0x138C JUMP JUMPDEST AND DUP2 MSTORE PUSH1 0x9 DUP5 MSTORE KECCAK256 SLOAD SWAP1 MLOAD SWAP1 DUP2 MSTORE RETURN JUMPDEST POP CALLVALUE PUSH2 0x27D JUMPI DUP3 PUSH1 0x3 NOT CALLDATASIZE ADD SLT PUSH2 0x27D JUMPI PUSH1 0x2 SLOAD DUP3 MLOAD PUSH4 0x313CE567 PUSH1 0xE0 SHL DUP2 MSTORE SWAP2 PUSH1 0x20 SWAP2 DUP4 SWAP2 SWAP1 DUP3 SWAP1 PUSH1 0x1 PUSH1 0x1 PUSH1 0xA0 SHL SUB AND GAS STATICCALL SWAP1 DUP2 ISZERO PUSH2 0xBD8 JUMPI PUSH1 0xFF PUSH2 0x305 SWAP3 PUSH2 0xB9E SWAP3 PUSH1 0x20 SWAP7 SWAP2 PUSH2 0xBBB JUMPI JUMPDEST POP AND PUSH2 0x1513 JUMP JUMPDEST PUSH2 0xBB6 PUSH2 0xBAD DUP3 PUSH1 0xB SLOAD PUSH2 0x1539 JUMP JUMPDEST SWAP2 PUSH2 0x411 PUSH2 0x1483 JUMP JUMPDEST PUSH2 0x1463 JUMP JUMPDEST PUSH2 0xBD2 SWAP2 POP DUP7 RETURNDATASIZE DUP2 GT PUSH2 0x445 JUMPI PUSH2 0x437 DUP2 DUP4 PUSH2 0x1402 JUMP JUMPDEST CODESIZE PUSH2 0xB97 JUMP JUMPDEST POP POP MLOAD SWAP1 RETURNDATASIZE SWAP1 DUP3 RETURNDATACOPY RETURNDATASIZE SWAP1 REVERT JUMPDEST DUP4 DUP3 CALLVALUE PUSH2 0x2C2 JUMPI PUSH1 0x20 CALLDATASIZE PUSH1 0x3 NOT ADD SLT PUSH2 0x2C2 JUMPI PUSH2 0xBFF PUSH2 0x13A7 JUMP JUMPDEST CALLDATALOAD PUSH1 0xB SSTORE DUP1 RETURN JUMPDEST POP CALLVALUE PUSH2 0x27D JUMPI DUP3 PUSH1 0x3 NOT CALLDATASIZE ADD SLT PUSH2 0x27D JUMPI SLOAD SWAP1 MLOAD PUSH1 0x1 PUSH1 0x1 PUSH1 0xA0 SHL SUB SWAP1 SWAP2 AND DUP2 MSTORE PUSH1 0x20 SWAP2 POP RETURN JUMPDEST POP POP CALLVALUE PUSH2 0x2C2 JUMPI DUP2 PUSH1 0x3 NOT CALLDATASIZE ADD SLT PUSH2 0x2C2 JUMPI PUSH1 0x20 SWAP1 PUSH1 0xFF PUSH1 0x1 SLOAD AND SWAP1 MLOAD SWAP1 ISZERO ISZERO DUP2 MSTORE RETURN JUMPDEST POP SWAP2 CALLVALUE PUSH2 0x31F JUMPI PUSH1 0x20 SWAP3 DUP4 PUSH1 0x3 NOT CALLDATASIZE ADD SLT PUSH2 0x2C2 JUMPI PUSH1 0x2 SLOAD DUP4 MLOAD PUSH4 0x313CE567 PUSH1 0xE0 SHL DUP1 DUP3 MSTORE DUP4 CALLDATALOAD SWAP5 SWAP3 PUSH1 0x1 PUSH1 0x1 PUSH1 0xA0 SHL SUB AND SWAP2 DUP8 DUP2 DUP7 DUP2 DUP7 GAS STATICCALL SWAP1 DUP2 ISZERO PUSH2 0xD68 JUMPI PUSH1 0xFF DUP10 SWAP4 SWAP3 PUSH1 0x12 SWAP3 DUP8 SWAP2 PUSH2 0xD4B JUMPI JUMPDEST POP AND LT PUSH2 0xCBE JUMPI JUMPDEST POP DUP6 PUSH2 0x305 DUP7 PUSH2 0xBB6 PUSH2 0xBAD DUP3 PUSH1 0xB SLOAD PUSH2 0x1539 JUMP JUMPDEST DUP5 DUP8 MLOAD DUP1 SWAP5 DUP2 SWAP4 DUP3 MSTORE GAS STATICCALL SWAP1 DUP2 ISZERO PUSH2 0xD41 JUMPI SWAP1 PUSH1 0xFF SWAP2 DUP4 SWAP2 PUSH2 0xD24 JUMPI JUMPDEST POP AND PUSH1 0x12 SUB PUSH1 0xFF DUP2 GT PUSH2 0xD11 JUMPI PUSH1 0xFF AND SWAP2 PUSH1 0x4D DUP4 GT PUSH2 0x30C JUMPI POP POP PUSH2 0x305 SWAP2 PUSH2 0xD07 SWAP2 PUSH1 0xA EXP SWAP1 PUSH2 0x143A JUMP JUMPDEST SWAP1 CODESIZE DUP1 DUP6 DUP2 PUSH2 0xCA9 JUMP JUMPDEST POP PUSH1 0x11 PUSH1 0x24 SWAP3 PUSH4 0x4E487B71 PUSH1 0xE0 SHL DUP4 MSTORE MSTORE REVERT JUMPDEST PUSH2 0xD3B SWAP2 POP DUP8 RETURNDATASIZE DUP10 GT PUSH2 0x445 JUMPI PUSH2 0x437 DUP2 DUP4 PUSH2 0x1402 JUMP JUMPDEST CODESIZE PUSH2 0xCDB JUMP JUMPDEST DUP6 MLOAD RETURNDATASIZE DUP5 DUP3 RETURNDATACOPY RETURNDATASIZE SWAP1 REVERT JUMPDEST PUSH2 0xD62 SWAP2 POP DUP6 RETURNDATASIZE DUP8 GT PUSH2 0x445 JUMPI PUSH2 0x437 DUP2 DUP4 PUSH2 0x1402 JUMP JUMPDEST CODESIZE PUSH2 0xCA1 JUMP JUMPDEST DUP8 MLOAD RETURNDATASIZE DUP7 DUP3 RETURNDATACOPY RETURNDATASIZE SWAP1 REVERT JUMPDEST POP SWAP1 CALLVALUE PUSH2 0x27D JUMPI DUP3 PUSH1 0x3 NOT CALLDATASIZE ADD SLT PUSH2 0x27D JUMPI PUSH2 0xD8C PUSH2 0x1568 JUMP JUMPDEST PUSH4 0xFFFFFFFF PUSH1 0x8 SLOAD AND ISZERO PUSH2 0xDFF JUMPI JUMPDEST CALLER DUP4 MSTORE PUSH1 0x9 PUSH1 0x20 MSTORE PUSH1 0x1 DUP2 DUP5 KECCAK256 ADD SLOAD TIMESTAMP LT PUSH2 0xDBC JUMPI DUP3 PUSH2 0xDB9 PUSH2 0x17FC JUMP JUMPDEST DUP1 RETURN JUMPDEST SWAP1 PUSH1 0x20 PUSH1 0x64 SWAP3 MLOAD SWAP2 PUSH3 0x461BCD PUSH1 0xE5 SHL DUP4 MSTORE DUP3 ADD MSTORE PUSH1 0x20 PUSH1 0x24 DUP3 ADD MSTORE PUSH32 0x7768656E436C61696D61626C653A2056657374696E67206E6F7420656E646564 PUSH1 0x44 DUP3 ADD MSTORE REVERT JUMPDEST PUSH2 0xE07 PUSH2 0x17FC JUMP JUMPDEST PUSH2 0xD9B JUMP JUMPDEST POP POP CALLVALUE PUSH2 0x2C2 JUMPI PUSH1 0x20 CALLDATASIZE PUSH1 0x3 NOT ADD SLT PUSH2 0x2C2 JUMPI PUSH1 0x20 SWAP2 PUSH1 0xFF SWAP1 DUP3 SWAP1 PUSH1 0x1 PUSH1 0x1 PUSH1 0xA0 SHL SUB PUSH2 0xE37 PUSH2 0x138C JUMP JUMPDEST AND DUP2 MSTORE PUSH1 0xA DUP6 MSTORE KECCAK256 SLOAD AND SWAP1 MLOAD SWAP1 ISZERO ISZERO DUP2 MSTORE RETURN JUMPDEST POP SWAP2 SWAP1 CALLVALUE PUSH2 0x2C2 JUMPI DUP2 PUSH1 0x3 NOT CALLDATASIZE ADD SLT PUSH2 0x2C2 JUMPI PUSH2 0xE65 PUSH2 0x13A7 JUMP JUMPDEST PUSH1 0x3 SLOAD DUP2 MLOAD PUSH4 0x70A08231 PUSH1 0xE0 SHL DUP2 MSTORE ADDRESS DUP6 DUP3 ADD MSTORE SWAP4 PUSH1 0x20 SWAP3 SWAP2 PUSH1 0x1 PUSH1 0x1 PUSH1 0xA0 SHL SUB SWAP1 DUP2 AND SWAP2 SWAP1 DUP5 DUP8 PUSH1 0x24 DUP2 DUP7 GAS STATICCALL SWAP7 DUP8 ISZERO PUSH2 0xF92 JUMPI DUP7 SWAP8 PUSH2 0xF63 JUMPI JUMPDEST POP DUP7 ISZERO PUSH2 0xF20 JUMPI PUSH1 0x1 SLOAD DUP5 MLOAD PUSH4 0xA9059CBB PUSH1 0xE0 SHL DUP2 MSTORE PUSH1 0x1 PUSH1 0x1 PUSH1 0xA0 SHL SUB PUSH1 0x8 SWAP3 SWAP1 SWAP3 SHR SWAP1 SWAP3 AND AND SWAP2 DUP2 ADD SWAP2 DUP3 MSTORE PUSH1 0x20 DUP3 ADD DUP8 SWAP1 MSTORE SWAP3 SWAP2 DUP5 SWAP2 DUP5 SWAP2 SWAP1 DUP3 SWAP1 DUP9 SWAP1 DUP3 SWAP1 PUSH1 0x40 ADD SUB SWAP3 GAS CALL SWAP1 DUP2 ISZERO PUSH2 0xF17 JUMPI POP PUSH2 0xEFA JUMPI DUP3 DUP1 RETURN JUMPDEST DUP2 PUSH2 0xF10 SWAP3 SWAP1 RETURNDATASIZE LT PUSH2 0x47C JUMPI PUSH2 0x46D DUP2 DUP4 PUSH2 0x1402 JUMP JUMPDEST POP DUP2 DUP1 DUP3 DUP1 RETURN JUMPDEST MLOAD RETURNDATASIZE DUP6 DUP3 RETURNDATACOPY RETURNDATASIZE SWAP1 REVERT JUMPDEST DUP4 MLOAD PUSH3 0x461BCD PUSH1 0xE5 SHL DUP2 MSTORE DUP1 DUP4 ADD DUP7 SWAP1 MSTORE PUSH1 0x1A PUSH1 0x24 DUP3 ADD MSTORE PUSH32 0x73776565703A204E6F2062616C616E636520746F207377656570000000000000 PUSH1 0x44 DUP3 ADD MSTORE PUSH1 0x64 SWAP1 REVERT JUMPDEST SWAP1 SWAP7 POP DUP5 DUP2 DUP2 RETURNDATASIZE DUP4 GT PUSH2 0xF8B JUMPI JUMPDEST PUSH2 0xF7B DUP2 DUP4 PUSH2 0x1402 JUMP JUMPDEST DUP2 ADD SUB SLT PUSH2 0xA7B JUMPI MLOAD SWAP6 CODESIZE PUSH2 0xEA1 JUMP JUMPDEST POP RETURNDATASIZE PUSH2 0xF71 JUMP JUMPDEST DUP5 MLOAD RETURNDATASIZE DUP9 DUP3 RETURNDATACOPY RETURNDATASIZE SWAP1 REVERT JUMPDEST POP SWAP1 CALLVALUE PUSH2 0x27D JUMPI PUSH1 0x20 CALLDATASIZE PUSH1 0x3 NOT ADD SLT PUSH2 0x27D JUMPI PUSH2 0xFB7 PUSH2 0x138C JUMP JUMPDEST PUSH2 0xFBF PUSH2 0x13A7 JUMP JUMPDEST PUSH1 0xD DUP1 SLOAD PUSH1 0x1 PUSH1 0x1 PUSH1 0xA0 SHL SUB NOT AND PUSH1 0x1 PUSH1 0x1 PUSH1 0xA0 SHL SUB SWAP3 DUP4 AND SWAP1 DUP2 OR SWAP1 SWAP2 SSTORE DUP1 PUSH2 0xFE7 JUMPI DUP5 DUP1 RETURN JUMPDEST PUSH1 0x44 PUSH1 0x20 SWAP3 PUSH1 0x2 SLOAD AND SWAP5 DUP7 DUP6 MLOAD SWAP7 DUP8 SWAP5 DUP6 SWAP4 PUSH4 0x95EA7B3 PUSH1 0xE0 SHL DUP6 MSTORE DUP5 ADD MSTORE PUSH1 0x0 NOT PUSH1 0x24 DUP5 ADD MSTORE GAS CALL SWAP1 DUP2 ISZERO PUSH2 0x837 JUMPI POP PUSH2 0x1024 JUMPI JUMPDEST DUP1 DUP1 DUP1 DUP5 DUP1 RETURN JUMPDEST PUSH2 0x103B SWAP1 PUSH1 0x20 RETURNDATASIZE DUP2 GT PUSH2 0x47C JUMPI PUSH2 0x46D DUP2 DUP4 PUSH2 0x1402 JUMP JUMPDEST POP CODESIZE PUSH2 0x101D JUMP JUMPDEST POP CALLVALUE PUSH2 0x27D JUMPI PUSH1 0x20 SWAP3 DUP4 PUSH1 0x3 NOT CALLDATASIZE ADD SLT PUSH2 0x31F JUMPI DUP2 CALLDATALOAD SWAP2 PUSH2 0x1061 PUSH2 0x1568 JUMP JUMPDEST PUSH1 0x2 SLOAD DUP5 MLOAD PUSH4 0x70A08231 PUSH1 0xE0 SHL DUP2 MSTORE CALLER DUP4 DUP3 ADD MSTORE DUP5 SWAP4 SWAP2 PUSH1 0x1 PUSH1 0x1 PUSH1 0xA0 SHL SUB SWAP2 SWAP1 DUP3 AND SWAP1 DUP9 DUP2 PUSH1 0x24 DUP2 DUP6 GAS STATICCALL SWAP1 DUP2 ISZERO PUSH2 0x117E JUMPI SWAP1 DUP8 SWAP2 DUP6 SWAP2 PUSH2 0x114D JUMPI JUMPDEST POP LT PUSH2 0x10FF JUMPI DUP8 DUP8 MLOAD DUP1 SWAP3 PUSH4 0x23B872DD PUSH1 0xE0 SHL DUP3 MSTORE DUP2 DUP7 DUP2 PUSH2 0x10C4 DUP13 ADDRESS CALLER DUP14 DUP6 ADD PUSH2 0x1546 JUMP JUMPDEST SUB SWAP3 GAS CALL DUP1 ISZERO PUSH2 0x483 JUMPI SWAP2 DUP9 SWAP2 DUP6 SWAP4 PUSH2 0x10E2 JUMPI JUMPDEST POP PUSH2 0x3AF DUP8 PUSH2 0x1877 JUMP JUMPDEST PUSH2 0x10F8 SWAP1 DUP4 RETURNDATASIZE DUP6 GT PUSH2 0x47C JUMPI PUSH2 0x46D DUP2 DUP4 PUSH2 0x1402 JUMP JUMPDEST POP CODESIZE PUSH2 0x10D8 JUMP JUMPDEST DUP7 MLOAD PUSH3 0x461BCD PUSH1 0xE5 SHL DUP2 MSTORE DUP1 DUP6 ADD DUP10 SWAP1 MSTORE PUSH1 0x22 PUSH1 0x24 DUP3 ADD MSTORE PUSH32 0x6D657267653A20496E73756666696369656E742062616C616E636520746F2065 PUSH1 0x44 DUP3 ADD MSTORE PUSH2 0x185D PUSH1 0xF2 SHL PUSH1 0x64 DUP3 ADD MSTORE PUSH1 0x84 SWAP1 REVERT JUMPDEST DUP1 SWAP3 POP DUP11 DUP1 SWAP3 POP RETURNDATASIZE DUP4 GT PUSH2 0x1177 JUMPI JUMPDEST PUSH2 0x1166 DUP2 DUP4 PUSH2 0x1402 JUMP JUMPDEST DUP2 ADD SUB SLT PUSH2 0x5AA JUMPI DUP7 SWAP1 MLOAD CODESIZE PUSH2 0x109E JUMP JUMPDEST POP RETURNDATASIZE PUSH2 0x115C JUMP JUMPDEST DUP9 MLOAD RETURNDATASIZE DUP7 DUP3 RETURNDATACOPY RETURNDATASIZE SWAP1 REVERT JUMPDEST POP POP CALLVALUE PUSH2 0x2C2 JUMPI DUP2 PUSH1 0x3 NOT CALLDATASIZE ADD SLT PUSH2 0x2C2 JUMPI PUSH1 0x2 SLOAD SWAP1 MLOAD PUSH1 0x1 PUSH1 0x1 PUSH1 0xA0 SHL SUB SWAP1 SWAP2 AND DUP2 MSTORE PUSH1 0x20 SWAP1 RETURN JUMPDEST POP POP CALLVALUE PUSH2 0x2C2 JUMPI DUP2 PUSH1 0x3 NOT CALLDATASIZE ADD SLT PUSH2 0x2C2 JUMPI PUSH1 0x20 SWAP1 PUSH1 0xB SLOAD SWAP1 MLOAD SWAP1 DUP2 MSTORE RETURN JUMPDEST POP POP CALLVALUE PUSH2 0x2C2 JUMPI DUP2 PUSH1 0x3 NOT CALLDATASIZE ADD SLT PUSH2 0x2C2 JUMPI PUSH1 0x20 SWAP1 PUSH1 0x5 SLOAD SWAP1 MLOAD SWAP1 DUP2 MSTORE RETURN JUMPDEST POP POP CALLVALUE PUSH2 0x2C2 JUMPI DUP2 PUSH1 0x3 NOT CALLDATASIZE ADD SLT PUSH2 0x2C2 JUMPI PUSH1 0x20 SWAP1 PUSH4 0xFFFFFFFF PUSH1 0x8 SLOAD AND SWAP1 MLOAD SWAP1 DUP2 MSTORE RETURN JUMPDEST SWAP4 SWAP1 POP CALLVALUE PUSH2 0x31F JUMPI DUP1 PUSH1 0x3 NOT CALLDATASIZE ADD SLT PUSH2 0x31F JUMPI PUSH1 0x2 SLOAD PUSH4 0x6FDDE03 PUSH1 0xE0 SHL DUP6 MSTORE DUP2 SWAP1 DUP6 SWAP1 DUP5 SWAP1 DUP3 SWAP1 PUSH1 0x1 PUSH1 0x1 PUSH1 0xA0 SHL SUB AND GAS STATICCALL SWAP2 DUP3 ISZERO PUSH2 0x135D JUMPI DUP2 SWAP3 PUSH2 0x12C0 JUMPI JUMPDEST PUSH2 0x12B2 DUP5 DUP5 DUP2 MLOAD SWAP1 PUSH2 0x1297 PUSH1 0x26 DUP4 PUSH1 0x20 DUP2 ADD SWAP4 PUSH6 0x2BB2ABB29D1 PUSH1 0xD5 SHL DUP6 MSTORE PUSH2 0x1287 DUP2 MLOAD DUP1 SWAP3 PUSH1 0x20 DUP7 DUP7 ADD SWAP2 ADD PUSH2 0x1369 JUMP JUMPDEST DUP2 ADD SUB PUSH1 0x6 DUP2 ADD DUP6 MSTORE ADD DUP4 PUSH2 0x1402 JUMP JUMPDEST DUP3 MLOAD SWAP4 DUP5 SWAP3 PUSH1 0x20 DUP5 MSTORE MLOAD DUP1 SWAP3 DUP2 PUSH1 0x20 DUP7 ADD MSTORE DUP6 DUP6 ADD SWAP1 PUSH2 0x1369 JUMP JUMPDEST PUSH1 0x1F ADD PUSH1 0x1F NOT AND DUP2 ADD SUB ADD SWAP1 RETURN JUMPDEST SWAP1 SWAP2 POP RETURNDATASIZE DUP1 DUP4 DUP7 RETURNDATACOPY PUSH2 0x12D2 DUP2 DUP7 PUSH2 0x1402 JUMP JUMPDEST DUP5 ADD SWAP2 PUSH1 0x20 DUP6 DUP5 SUB SLT PUSH2 0x31F JUMPI DUP5 MLOAD PUSH8 0xFFFFFFFFFFFFFFFF SWAP6 DUP7 DUP3 GT PUSH2 0x27D JUMPI ADD SWAP2 DUP4 PUSH1 0x1F DUP5 ADD SLT ISZERO PUSH2 0x2C2 JUMPI DUP3 MLOAD SWAP6 DUP7 GT PUSH2 0x134A JUMPI POP DUP4 MLOAD SWAP3 PUSH2 0x1320 PUSH1 0x1F DUP8 ADD PUSH1 0x1F NOT AND PUSH1 0x20 ADD DUP6 PUSH2 0x1402 JUMP JUMPDEST DUP6 DUP5 MSTORE PUSH1 0x20 DUP7 DUP5 ADD ADD GT PUSH2 0x31F JUMPI POP PUSH2 0x12B2 SWAP4 PUSH2 0x1343 SWAP2 PUSH1 0x20 DUP1 DUP6 ADD SWAP2 ADD PUSH2 0x1369 JUMP JUMPDEST CODESIZE DUP1 PUSH2 0x1255 JUMP JUMPDEST PUSH4 0x4E487B71 PUSH1 0xE0 SHL DUP3 MSTORE PUSH1 0x41 SWAP1 MSTORE PUSH1 0x24 SWAP1 REVERT JUMPDEST POP DUP3 MLOAD SWAP1 RETURNDATASIZE SWAP1 DUP3 RETURNDATACOPY RETURNDATASIZE SWAP1 REVERT JUMPDEST PUSH1 0x0 JUMPDEST DUP4 DUP2 LT PUSH2 0x137C JUMPI POP POP PUSH1 0x0 SWAP2 ADD MSTORE JUMP JUMPDEST DUP2 DUP2 ADD MLOAD DUP4 DUP3 ADD MSTORE PUSH1 0x20 ADD PUSH2 0x136C JUMP JUMPDEST PUSH1 0x4 CALLDATALOAD SWAP1 PUSH1 0x1 PUSH1 0x1 PUSH1 0xA0 SHL SUB DUP3 AND DUP3 SUB PUSH2 0x13A2 JUMPI JUMP JUMPDEST PUSH1 0x0 DUP1 REVERT JUMPDEST PUSH1 0x1 SLOAD PUSH1 0x8 SHR PUSH1 0x1 PUSH1 0x1 PUSH1 0xA0 SHL SUB AND CALLER SUB PUSH2 0x13BE JUMPI JUMP JUMPDEST PUSH1 0x64 PUSH1 0x40 MLOAD PUSH3 0x461BCD PUSH1 0xE5 SHL DUP2 MSTORE PUSH1 0x20 PUSH1 0x4 DUP3 ADD MSTORE PUSH1 0x20 PUSH1 0x24 DUP3 ADD MSTORE PUSH32 0x4F776E61626C653A2063616C6C6572206973206E6F7420746865206F776E6572 PUSH1 0x44 DUP3 ADD MSTORE REVERT JUMPDEST SWAP1 PUSH1 0x1F DUP1 NOT SWAP2 ADD AND DUP2 ADD SWAP1 DUP2 LT PUSH8 0xFFFFFFFFFFFFFFFF DUP3 GT OR PUSH2 0x1424 JUMPI PUSH1 0x40 MSTORE JUMP JUMPDEST PUSH4 0x4E487B71 PUSH1 0xE0 SHL PUSH1 0x0 MSTORE PUSH1 0x41 PUSH1 0x4 MSTORE PUSH1 0x24 PUSH1 0x0 REVERT JUMPDEST DUP2 DUP2 MUL SWAP3 SWAP2 DUP2 ISZERO SWAP2 DUP5 DIV EQ OR ISZERO PUSH2 0x144D JUMPI JUMP JUMPDEST PUSH4 0x4E487B71 PUSH1 0xE0 SHL PUSH1 0x0 MSTORE PUSH1 0x11 PUSH1 0x4 MSTORE PUSH1 0x24 PUSH1 0x0 REVERT JUMPDEST DUP2 ISZERO PUSH2 0x146D JUMPI DIV SWAP1 JUMP JUMPDEST PUSH4 0x4E487B71 PUSH1 0xE0 SHL PUSH1 0x0 MSTORE PUSH1 0x12 PUSH1 0x4 MSTORE PUSH1 0x24 PUSH1 0x0 REVERT JUMPDEST PUSH1 0xC SLOAD PUSH1 0x5 SLOAD DUP1 DUP3 LT PUSH2 0x149C JUMPI DUP2 SUB SWAP1 DUP2 GT PUSH2 0x144D JUMPI SWAP1 JUMP JUMPDEST PUSH1 0x40 MLOAD PUSH3 0x461BCD PUSH1 0xE5 SHL DUP2 MSTORE PUSH1 0x20 PUSH1 0x4 DUP3 ADD MSTORE PUSH1 0x30 PUSH1 0x24 DUP3 ADD MSTORE PUSH32 0x44796E616D696345617465723A207669727475616C57455745206C6573732074 PUSH1 0x44 DUP3 ADD MSTORE PUSH16 0x1A185B881D1BDD185B081D995CDD1959 PUSH1 0x82 SHL PUSH1 0x64 DUP3 ADD MSTORE PUSH1 0x84 SWAP1 REVERT JUMPDEST SWAP1 DUP2 PUSH1 0x20 SWAP2 SUB SLT PUSH2 0x13A2 JUMPI MLOAD PUSH1 0xFF DUP2 AND DUP2 SUB PUSH2 0x13A2 JUMPI SWAP1 JUMP JUMPDEST PUSH1 0x4D DUP2 GT PUSH2 0x144D JUMPI PUSH1 0xA EXP SWAP1 JUMP JUMPDEST SWAP1 DUP2 PUSH1 0x20 SWAP2 SUB SLT PUSH2 0x13A2 JUMPI MLOAD DUP1 ISZERO ISZERO DUP2 SUB PUSH2 0x13A2 JUMPI SWAP1 JUMP JUMPDEST SWAP2 SWAP1 DUP3 ADD DUP1 SWAP3 GT PUSH2 0x144D JUMPI JUMP JUMPDEST PUSH1 0x1 PUSH1 0x1 PUSH1 0xA0 SHL SUB SWAP2 DUP3 AND DUP2 MSTORE SWAP2 AND PUSH1 0x20 DUP3 ADD MSTORE PUSH1 0x40 DUP2 ADD SWAP2 SWAP1 SWAP2 MSTORE PUSH1 0x60 ADD SWAP1 JUMP JUMPDEST PUSH1 0xFF PUSH1 0x1 SLOAD AND PUSH2 0x1574 JUMPI JUMP JUMPDEST PUSH1 0x40 MLOAD PUSH3 0x461BCD PUSH1 0xE5 SHL DUP2 MSTORE PUSH1 0x20 PUSH1 0x4 DUP3 ADD MSTORE PUSH1 0x10 PUSH1 0x24 DUP3 ADD MSTORE PUSH16 0x14185D5CD8589B194E881C185D5CD959 PUSH1 0x82 SHL PUSH1 0x44 DUP3 ADD MSTORE PUSH1 0x64 SWAP1 REVERT JUMPDEST PUSH2 0x15CC PUSH2 0x15BB DUP3 PUSH1 0xB SLOAD PUSH2 0x1539 JUMP JUMPDEST PUSH2 0xBB6 PUSH2 0x15C6 PUSH2 0x1483 JUMP JUMPDEST DUP5 PUSH2 0x143A JUMP JUMPDEST PUSH1 0x3 SLOAD PUSH1 0x40 DUP1 MLOAD PUSH4 0x70A08231 PUSH1 0xE0 SHL DUP2 MSTORE ADDRESS PUSH1 0x4 DUP3 ADD MSTORE SWAP3 SWAP5 PUSH1 0x20 SWAP4 SWAP2 SWAP3 PUSH1 0x1 PUSH1 0x1 PUSH1 0xA0 SHL SUB SWAP3 SWAP1 DUP4 AND SWAP1 DUP6 DUP2 PUSH1 0x24 DUP2 DUP6 GAS STATICCALL SWAP1 DUP2 ISZERO PUSH2 0x1769 JUMPI PUSH1 0x0 SWAP2 PUSH2 0x17CF JUMPI JUMPDEST POP DUP8 GT PUSH2 0x1774 JUMPI PUSH1 0x8 SLOAD PUSH4 0xFFFFFFFF SWAP2 SWAP1 DUP3 AND ISZERO PUSH2 0x16DA JUMPI POP DUP3 DUP3 AND SWAP5 DUP6 PUSH1 0x0 MSTORE PUSH1 0x9 DUP2 MSTORE PUSH2 0x1641 DUP6 PUSH1 0x0 KECCAK256 SLOAD DUP10 PUSH2 0x1539 JUMP JUMPDEST SWAP2 PUSH1 0x3C DUP2 PUSH1 0x8 SLOAD AND MUL SWAP1 DUP2 AND SWAP1 DUP2 SUB PUSH2 0x144D JUMPI PUSH2 0x165E SWAP1 TIMESTAMP PUSH2 0x1539 JUMP JUMPDEST DUP6 MLOAD SWAP1 DUP7 DUP3 ADD SWAP1 DUP3 DUP3 LT PUSH8 0xFFFFFFFFFFFFFFFF DUP4 GT OR PUSH2 0x1424 JUMPI PUSH32 0xABE5455971BDCD932E7251D16CD53F88CD4410BF4DF21530E88BF13DADE6A7D4 SWAP9 DUP12 SWAP6 PUSH1 0x1 SWAP4 DUP11 MSTORE DUP5 MSTORE DUP5 DUP5 ADD SWAP2 DUP3 MSTORE PUSH1 0x0 MSTORE PUSH1 0x9 DUP5 MSTORE DUP8 PUSH1 0x0 KECCAK256 SWAP3 MLOAD DUP4 SSTORE MLOAD SWAP2 ADD SSTORE PUSH2 0x16C8 DUP3 PUSH1 0x5 SLOAD PUSH2 0x1539 JUMP JUMPDEST PUSH1 0x5 SSTORE JUMPDEST DUP5 MLOAD SWAP7 DUP8 MSTORE DUP7 ADD MSTORE AND SWAP3 LOG2 SWAP1 JUMP JUMPDEST DUP5 MLOAD PUSH4 0xA9059CBB PUSH1 0xE0 SHL DUP2 MSTORE PUSH1 0x1 PUSH1 0x1 PUSH1 0xA0 SHL SUB DUP5 AND PUSH1 0x4 DUP3 ADD MSTORE PUSH1 0x24 DUP2 ADD DUP10 SWAP1 MSTORE SWAP5 SWAP6 SWAP4 SWAP5 SWAP3 SWAP4 SWAP3 SWAP2 POP DUP3 SWAP1 DUP3 SWAP1 PUSH1 0x44 SWAP1 DUP3 SWAP1 PUSH1 0x0 SWAP1 GAS CALL DUP1 ISZERO PUSH2 0x1769 JUMPI SWAP2 DUP8 SWAP2 PUSH32 0xABE5455971BDCD932E7251D16CD53F88CD4410BF4DF21530E88BF13DADE6A7D4 SWAP7 SWAP6 SWAP5 SWAP4 PUSH2 0x174C JUMPI JUMPDEST POP PUSH2 0x16CC JUMP JUMPDEST PUSH2 0x1762 SWAP1 DUP3 RETURNDATASIZE DUP5 GT PUSH2 0x47C JUMPI PUSH2 0x46D DUP2 DUP4 PUSH2 0x1402 JUMP JUMPDEST POP CODESIZE PUSH2 0x1746 JUMP JUMPDEST DUP6 MLOAD RETURNDATASIZE PUSH1 0x0 DUP3 RETURNDATACOPY RETURNDATASIZE SWAP1 REVERT JUMPDEST DUP4 MLOAD PUSH3 0x461BCD PUSH1 0xE5 SHL DUP2 MSTORE PUSH1 0x4 DUP2 ADD DUP7 SWAP1 MSTORE PUSH1 0x2E PUSH1 0x24 DUP3 ADD MSTORE PUSH32 0x5F6D657267653A20496E73756666696369656E7420746F6B656E2062616C616E PUSH1 0x44 DUP3 ADD MSTORE PUSH14 0x31B2903A37903A3930B739B332B9 PUSH1 0x91 SHL PUSH1 0x64 DUP3 ADD MSTORE PUSH1 0x84 SWAP1 REVERT JUMPDEST SWAP1 DUP7 DUP3 DUP2 RETURNDATASIZE DUP4 GT PUSH2 0x17F5 JUMPI JUMPDEST PUSH2 0x17E5 DUP2 DUP4 PUSH2 0x1402 JUMP JUMPDEST DUP2 ADD SUB SLT PUSH2 0x31F JUMPI POP MLOAD CODESIZE PUSH2 0x160E JUMP JUMPDEST POP RETURNDATASIZE PUSH2 0x17DB JUMP JUMPDEST CALLER PUSH1 0x0 DUP2 DUP2 MSTORE PUSH1 0x9 PUSH1 0x20 SWAP1 DUP2 MSTORE PUSH1 0x40 DUP1 DUP4 KECCAK256 DUP1 SLOAD SWAP1 DUP5 SWAP1 SSTORE PUSH1 0x3 SLOAD SWAP2 MLOAD PUSH4 0xA9059CBB PUSH1 0xE0 SHL DUP2 MSTORE PUSH1 0x4 DUP2 ADD SWAP6 SWAP1 SWAP6 MSTORE PUSH1 0x24 DUP6 ADD MSTORE SWAP1 SWAP2 DUP4 SWAP2 PUSH1 0x44 SWAP2 DUP4 SWAP2 PUSH1 0x1 PUSH1 0x1 PUSH1 0xA0 SHL SUB AND GAS CALL DUP1 ISZERO PUSH2 0x186B JUMPI PUSH2 0x1851 JUMPI POP JUMP JUMPDEST PUSH2 0x1868 SWAP1 PUSH1 0x20 RETURNDATASIZE DUP2 GT PUSH2 0x47C JUMPI PUSH2 0x46D DUP2 DUP4 PUSH2 0x1402 JUMP JUMPDEST POP JUMP JUMPDEST PUSH1 0x40 MLOAD RETURNDATASIZE PUSH1 0x0 DUP3 RETURNDATACOPY RETURNDATASIZE SWAP1 REVERT JUMPDEST PUSH1 0xD SLOAD PUSH1 0x1 PUSH1 0x1 PUSH1 0xA0 SHL SUB SWAP1 DUP2 AND SWAP2 SWAP1 DUP3 ISZERO PUSH2 0x192A JUMPI DUP1 PUSH1 0x4 SLOAD AND SWAP1 DUP2 ISZERO PUSH2 0x1921 JUMPI PUSH1 0x2 SLOAD AND PUSH1 0x40 MLOAD SWAP3 PUSH4 0x2454B71 PUSH1 0xE4 SHL DUP5 MSTORE PUSH1 0x4 DUP5 ADD MSTORE PUSH1 0x24 DUP4 ADD MSTORE PUSH1 0x44 DUP3 ADD MSTORE PUSH1 0x80 PUSH1 0x64 DUP3 ADD MSTORE PUSH1 0x20 DUP2 PUSH1 0xA4 DUP2 PUSH1 0x0 DUP1 SWAP7 DUP2 PUSH1 0x84 DUP5 ADD MSTORE GAS CALL SWAP2 DUP3 ISZERO PUSH2 0x1915 JUMPI DUP1 SWAP3 PUSH2 0x18E5 JUMPI POP POP SWAP1 JUMP JUMPDEST SWAP1 SWAP2 POP PUSH1 0x20 DUP3 RETURNDATASIZE DUP3 GT PUSH2 0x190D JUMPI JUMPDEST DUP2 PUSH2 0x1900 PUSH1 0x20 SWAP4 DUP4 PUSH2 0x1402 JUMP JUMPDEST DUP2 ADD SUB SLT PUSH2 0x31F JUMPI POP MLOAD SWAP1 JUMP JUMPDEST RETURNDATASIZE SWAP2 POP PUSH2 0x18F3 JUMP JUMPDEST PUSH1 0x40 MLOAD SWAP1 RETURNDATASIZE SWAP1 DUP3 RETURNDATACOPY RETURNDATASIZE SWAP1 REVERT JUMPDEST POP POP POP POP PUSH1 0x0 SWAP1 JUMP JUMPDEST POP POP POP PUSH1 0x0 SWAP1 JUMP INVALID LOG2 PUSH5 0x6970667358 0x22 SLT KECCAK256 MUL PUSH23 0xAB3577BFA9A1E088DD28C4358C60CBAA1B2204F19331B0 0xE0 SLT 0xAB PUSH13 0x2CD54A64736F6C634300081300 CALLER "
        },
        "methodIdentifiers": {
          "adaptor()": "c2cd9b2b",
          "addWhiteList(address,bool)": "a718d11b",
          "balanceOf(address)": "70a08231",
          "calculateTokensOut(uint256)": "4fa1f104",
          "canClaim(address)": "bf3506c1",
          "claim()": "4e71d92d",
          "deposit(uint256)": "b6b55f25",
          "dump()": "e4330545",
          "getCurrentPrice()": "eb91d37e",
          "getRate()": "679aefce",
          "getToken()": "21df0da7",
          "maxSupply()": "d5abeb01",
          "merge(uint256)": "24a47aeb",
          "mergeAll()": "ea9f2417",
          "name()": "06fdde03",
          "owner()": "8da5cb5b",
          "paused()": "5c975abb",
          "receiveApproval(address,uint256,address,bytes)": "8f4ffcb1",
          "renounceOwnership()": "715018a6",
          "setAdaptor(address)": "3586d514",
          "setTreasury(address)": "f0f44260",
          "setVestingDuration(uint32)": "9636d881",
          "setVirtualTokenBalance(uint256)": "655a9ac2",
          "setVirtualWeWEBalance(uint256)": "dece1baa",
          "sweep()": "35faa416",
          "togglePause()": "c4ae3168",
          "totalVested()": "199cbc54",
          "transferOwnership(address)": "f2fde38b",
          "treasury()": "61d027b3",
          "vestingDuration()": "1514617e",
          "vestings(address)": "daf49863",
          "virtualToken()": "1f514c52",
          "virtualWEWE()": "9ed4527e",
          "wewe()": "e1f26f22",
          "whiteList(address)": "372c12b1"
        }
      }
    }
  }
}